{
    "schemaVersion": "2.0.0",
    "contractName": "ERC20BridgeSampler",
    "compilerOutput": {
        "abi": [
            {
                "inputs": [],
                "name": "ETH",
                "outputs": [
                    {
                        "internalType": "address",
                        "name": "",
                        "type": "address"
                    }
                ],
                "stateMutability": "view",
                "type": "function"
            },
            {
                "inputs": [
                    {
                        "internalType": "bytes[]",
                        "name": "callDatas",
                        "type": "bytes[]"
                    }
                ],
                "name": "batchCall",
                "outputs": [
                    {
                        "components": [
                            {
                                "internalType": "bytes",
                                "name": "data",
                                "type": "bytes"
                            },
                            {
                                "internalType": "bool",
                                "name": "success",
                                "type": "bool"
                            }
                        ],
                        "internalType": "struct ERC20BridgeSampler.CallResults[]",
                        "name": "callResults",
                        "type": "tuple[]"
                    }
                ],
                "stateMutability": "nonpayable",
                "type": "function"
            },
            {
                "inputs": [
                    {
                        "internalType": "contract IERC20TokenV06[]",
                        "name": "tokens",
                        "type": "address[]"
                    },
                    {
                        "internalType": "address",
                        "name": "account",
                        "type": "address"
                    },
                    {
                        "internalType": "address",
                        "name": "spender",
                        "type": "address"
                    }
                ],
                "name": "getAllowanceOf",
                "outputs": [
                    {
                        "internalType": "uint256[]",
                        "name": "allowances",
                        "type": "uint256[]"
                    }
                ],
                "stateMutability": "view",
                "type": "function"
            },
            {
                "inputs": [
                    {
                        "internalType": "contract IERC20TokenV06[]",
                        "name": "tokens",
                        "type": "address[]"
                    },
                    {
                        "internalType": "address",
                        "name": "account",
                        "type": "address"
                    }
                ],
                "name": "getBalanceOf",
                "outputs": [
                    {
                        "internalType": "uint256[]",
                        "name": "balances",
                        "type": "uint256[]"
                    }
                ],
                "stateMutability": "view",
                "type": "function"
            },
            {
                "inputs": [],
                "name": "getBlockNumber",
                "outputs": [
                    {
                        "internalType": "uint256",
                        "name": "",
                        "type": "uint256"
                    }
                ],
                "stateMutability": "view",
                "type": "function"
            },
            {
                "inputs": [],
                "name": "getGasLeft",
                "outputs": [
                    {
                        "internalType": "uint256",
                        "name": "",
                        "type": "uint256"
                    }
                ],
                "stateMutability": "nonpayable",
                "type": "function"
            },
            {
                "inputs": [
                    {
                        "components": [
                            {
                                "internalType": "contract IERC20TokenV06",
                                "name": "makerToken",
                                "type": "address"
                            },
                            {
                                "internalType": "contract IERC20TokenV06",
                                "name": "takerToken",
                                "type": "address"
                            },
                            {
                                "internalType": "uint128",
                                "name": "makerAmount",
                                "type": "uint128"
                            },
                            {
                                "internalType": "uint128",
                                "name": "takerAmount",
                                "type": "uint128"
                            },
                            {
                                "internalType": "uint128",
                                "name": "takerTokenFeeAmount",
                                "type": "uint128"
                            },
                            {
                                "internalType": "address",
                                "name": "maker",
                                "type": "address"
                            },
                            {
                                "internalType": "address",
                                "name": "taker",
                                "type": "address"
                            },
                            {
                                "internalType": "address",
                                "name": "sender",
                                "type": "address"
                            },
                            {
                                "internalType": "address",
                                "name": "feeRecipient",
                                "type": "address"
                            },
                            {
                                "internalType": "bytes32",
                                "name": "pool",
                                "type": "bytes32"
                            },
                            {
                                "internalType": "uint64",
                                "name": "expiry",
                                "type": "uint64"
                            },
                            {
                                "internalType": "uint256",
                                "name": "salt",
                                "type": "uint256"
                            }
                        ],
                        "internalType": "struct IExchange.LimitOrder[]",
                        "name": "orders",
                        "type": "tuple[]"
                    },
                    {
                        "components": [
                            {
                                "internalType": "enum IExchange.SignatureType",
                                "name": "signatureType",
                                "type": "uint8"
                            },
                            {
                                "internalType": "uint8",
                                "name": "v",
                                "type": "uint8"
                            },
                            {
                                "internalType": "bytes32",
                                "name": "r",
                                "type": "bytes32"
                            },
                            {
                                "internalType": "bytes32",
                                "name": "s",
                                "type": "bytes32"
                            }
                        ],
                        "internalType": "struct IExchange.Signature[]",
                        "name": "orderSignatures",
                        "type": "tuple[]"
                    },
                    {
                        "internalType": "contract IExchange",
                        "name": "exchange",
                        "type": "address"
                    }
                ],
                "name": "getLimitOrderFillableMakerAssetAmounts",
                "outputs": [
                    {
                        "internalType": "uint256[]",
                        "name": "orderFillableMakerAssetAmounts",
                        "type": "uint256[]"
                    }
                ],
                "stateMutability": "view",
                "type": "function"
            },
            {
                "inputs": [
                    {
                        "components": [
                            {
                                "internalType": "contract IERC20TokenV06",
                                "name": "makerToken",
                                "type": "address"
                            },
                            {
                                "internalType": "contract IERC20TokenV06",
                                "name": "takerToken",
                                "type": "address"
                            },
                            {
                                "internalType": "uint128",
                                "name": "makerAmount",
                                "type": "uint128"
                            },
                            {
                                "internalType": "uint128",
                                "name": "takerAmount",
                                "type": "uint128"
                            },
                            {
                                "internalType": "uint128",
                                "name": "takerTokenFeeAmount",
                                "type": "uint128"
                            },
                            {
                                "internalType": "address",
                                "name": "maker",
                                "type": "address"
                            },
                            {
                                "internalType": "address",
                                "name": "taker",
                                "type": "address"
                            },
                            {
                                "internalType": "address",
                                "name": "sender",
                                "type": "address"
                            },
                            {
                                "internalType": "address",
                                "name": "feeRecipient",
                                "type": "address"
                            },
                            {
                                "internalType": "bytes32",
                                "name": "pool",
                                "type": "bytes32"
                            },
                            {
                                "internalType": "uint64",
                                "name": "expiry",
                                "type": "uint64"
                            },
                            {
                                "internalType": "uint256",
                                "name": "salt",
                                "type": "uint256"
                            }
                        ],
                        "internalType": "struct IExchange.LimitOrder",
                        "name": "order",
                        "type": "tuple"
                    },
                    {
                        "components": [
                            {
                                "internalType": "enum IExchange.SignatureType",
                                "name": "signatureType",
                                "type": "uint8"
                            },
                            {
                                "internalType": "uint8",
                                "name": "v",
                                "type": "uint8"
                            },
                            {
                                "internalType": "bytes32",
                                "name": "r",
                                "type": "bytes32"
                            },
                            {
                                "internalType": "bytes32",
                                "name": "s",
                                "type": "bytes32"
                            }
                        ],
                        "internalType": "struct IExchange.Signature",
                        "name": "signature",
                        "type": "tuple"
                    },
                    {
                        "internalType": "contract IExchange",
                        "name": "exchange",
                        "type": "address"
                    }
                ],
                "name": "getLimitOrderFillableTakerAmount",
                "outputs": [
                    {
                        "internalType": "uint256",
                        "name": "fillableTakerAmount",
                        "type": "uint256"
                    }
                ],
                "stateMutability": "view",
                "type": "function"
            },
            {
                "inputs": [
                    {
                        "components": [
                            {
                                "internalType": "contract IERC20TokenV06",
                                "name": "makerToken",
                                "type": "address"
                            },
                            {
                                "internalType": "contract IERC20TokenV06",
                                "name": "takerToken",
                                "type": "address"
                            },
                            {
                                "internalType": "uint128",
                                "name": "makerAmount",
                                "type": "uint128"
                            },
                            {
                                "internalType": "uint128",
                                "name": "takerAmount",
                                "type": "uint128"
                            },
                            {
                                "internalType": "uint128",
                                "name": "takerTokenFeeAmount",
                                "type": "uint128"
                            },
                            {
                                "internalType": "address",
                                "name": "maker",
                                "type": "address"
                            },
                            {
                                "internalType": "address",
                                "name": "taker",
                                "type": "address"
                            },
                            {
                                "internalType": "address",
                                "name": "sender",
                                "type": "address"
                            },
                            {
                                "internalType": "address",
                                "name": "feeRecipient",
                                "type": "address"
                            },
                            {
                                "internalType": "bytes32",
                                "name": "pool",
                                "type": "bytes32"
                            },
                            {
                                "internalType": "uint64",
                                "name": "expiry",
                                "type": "uint64"
                            },
                            {
                                "internalType": "uint256",
                                "name": "salt",
                                "type": "uint256"
                            }
                        ],
                        "internalType": "struct IExchange.LimitOrder[]",
                        "name": "orders",
                        "type": "tuple[]"
                    },
                    {
                        "components": [
                            {
                                "internalType": "enum IExchange.SignatureType",
                                "name": "signatureType",
                                "type": "uint8"
                            },
                            {
                                "internalType": "uint8",
                                "name": "v",
                                "type": "uint8"
                            },
                            {
                                "internalType": "bytes32",
                                "name": "r",
                                "type": "bytes32"
                            },
                            {
                                "internalType": "bytes32",
                                "name": "s",
                                "type": "bytes32"
                            }
                        ],
                        "internalType": "struct IExchange.Signature[]",
                        "name": "orderSignatures",
                        "type": "tuple[]"
                    },
                    {
                        "internalType": "contract IExchange",
                        "name": "exchange",
                        "type": "address"
                    }
                ],
                "name": "getLimitOrderFillableTakerAssetAmounts",
                "outputs": [
                    {
                        "internalType": "uint256[]",
                        "name": "orderFillableTakerAssetAmounts",
                        "type": "uint256[]"
                    }
                ],
                "stateMutability": "view",
                "type": "function"
            },
            {
                "inputs": [
                    {
                        "internalType": "contract IERC20TokenV06[]",
                        "name": "tokens",
                        "type": "address[]"
                    }
                ],
                "name": "getTokenDecimals",
                "outputs": [
                    {
                        "internalType": "uint256[]",
                        "name": "decimals",
                        "type": "uint256[]"
                    }
                ],
                "stateMutability": "view",
                "type": "function"
            },
            {
                "inputs": [
                    {
                        "internalType": "address",
                        "name": "account",
                        "type": "address"
                    }
                ],
                "name": "isContract",
                "outputs": [
                    {
                        "internalType": "bool",
                        "name": "",
                        "type": "bool"
                    }
                ],
                "stateMutability": "view",
                "type": "function"
            },
            {
                "inputs": [
                    {
                        "internalType": "address",
                        "name": "aToken",
                        "type": "address"
                    },
                    {
                        "internalType": "address",
                        "name": "underlyingToken",
                        "type": "address"
                    },
                    {
                        "internalType": "address",
                        "name": "takerToken",
                        "type": "address"
                    },
                    {
                        "internalType": "address",
                        "name": "makerToken",
                        "type": "address"
                    },
                    {
                        "internalType": "uint256[]",
                        "name": "makerTokenAmounts",
                        "type": "uint256[]"
                    }
                ],
                "name": "sampleBuysFromAaveV2",
                "outputs": [
                    {
                        "internalType": "uint256[]",
                        "name": "takerTokenAmounts",
                        "type": "uint256[]"
                    }
                ],
                "stateMutability": "pure",
                "type": "function"
            },
            {
                "inputs": [
                    {
                        "internalType": "address",
                        "name": "l2Encoder",
                        "type": "address"
                    },
                    {
                        "internalType": "address",
                        "name": "aToken",
                        "type": "address"
                    },
                    {
                        "internalType": "address",
                        "name": "underlyingToken",
                        "type": "address"
                    },
                    {
                        "internalType": "address",
                        "name": "takerToken",
                        "type": "address"
                    },
                    {
                        "internalType": "address",
                        "name": "makerToken",
                        "type": "address"
                    },
                    {
                        "internalType": "uint256[]",
                        "name": "makerTokenAmounts",
                        "type": "uint256[]"
                    }
                ],
                "name": "sampleBuysFromAaveV3",
                "outputs": [
                    {
                        "internalType": "bytes32[]",
                        "name": "l2Params",
                        "type": "bytes32[]"
                    },
                    {
                        "internalType": "uint256[]",
                        "name": "takerTokenAmounts",
                        "type": "uint256[]"
                    }
                ],
                "stateMutability": "view",
                "type": "function"
            },
            {
                "inputs": [
                    {
                        "internalType": "address",
                        "name": "poolAddress",
                        "type": "address"
                    },
                    {
                        "internalType": "address",
                        "name": "takerToken",
                        "type": "address"
                    },
                    {
                        "internalType": "address",
                        "name": "makerToken",
                        "type": "address"
                    },
                    {
                        "internalType": "uint256[]",
                        "name": "makerTokenAmounts",
                        "type": "uint256[]"
                    }
                ],
                "name": "sampleBuysFromBalancer",
                "outputs": [
                    {
                        "internalType": "uint256[]",
                        "name": "takerTokenAmounts",
                        "type": "uint256[]"
                    }
                ],
                "stateMutability": "view",
                "type": "function"
            },
            {
                "inputs": [
                    {
                        "components": [
                            {
                                "internalType": "bytes32",
                                "name": "poolId",
                                "type": "bytes32"
                            },
                            {
                                "internalType": "address",
                                "name": "vault",
                                "type": "address"
                            }
                        ],
                        "internalType": "struct IBalancerV2Vault.BalancerV2PoolInfo",
                        "name": "poolInfo",
                        "type": "tuple"
                    },
                    {
                        "internalType": "address",
                        "name": "takerToken",
                        "type": "address"
                    },
                    {
                        "internalType": "address",
                        "name": "makerToken",
                        "type": "address"
                    },
                    {
                        "internalType": "uint256[]",
                        "name": "makerTokenAmounts",
                        "type": "uint256[]"
                    }
                ],
                "name": "sampleBuysFromBalancerV2",
                "outputs": [
                    {
                        "internalType": "uint256[]",
                        "name": "takerTokenAmounts",
                        "type": "uint256[]"
                    }
                ],
                "stateMutability": "nonpayable",
                "type": "function"
            },
            {
                "inputs": [
                    {
                        "components": [
                            {
                                "internalType": "contract IBancorRegistry",
                                "name": "registry",
                                "type": "address"
                            },
                            {
                                "internalType": "address[][]",
                                "name": "paths",
                                "type": "address[][]"
                            }
                        ],
                        "internalType": "struct BancorSampler.BancorSamplerOpts",
                        "name": "opts",
                        "type": "tuple"
                    },
                    {
                        "internalType": "address",
                        "name": "takerToken",
                        "type": "address"
                    },
                    {
                        "internalType": "address",
                        "name": "makerToken",
                        "type": "address"
                    },
                    {
                        "internalType": "uint256[]",
                        "name": "makerTokenAmounts",
                        "type": "uint256[]"
                    }
                ],
                "name": "sampleBuysFromBancor",
                "outputs": [
                    {
                        "internalType": "address",
                        "name": "bancorNetwork",
                        "type": "address"
                    },
                    {
                        "internalType": "address[]",
                        "name": "path",
                        "type": "address[]"
                    },
                    {
                        "internalType": "uint256[]",
                        "name": "takerTokenAmounts",
                        "type": "uint256[]"
                    }
                ],
                "stateMutability": "view",
                "type": "function"
            },
            {
                "inputs": [
                    {
                        "internalType": "address",
                        "name": "weth",
                        "type": "address"
                    },
                    {
                        "internalType": "address",
                        "name": "router",
                        "type": "address"
                    },
                    {
                        "internalType": "address[]",
                        "name": "path",
                        "type": "address[]"
                    },
                    {
                        "internalType": "uint256[]",
                        "name": "makerTokenAmounts",
                        "type": "uint256[]"
                    }
                ],
                "name": "sampleBuysFromBancorV3",
                "outputs": [
                    {
                        "internalType": "uint256[]",
                        "name": "takerTokenAmounts",
                        "type": "uint256[]"
                    }
                ],
                "stateMutability": "view",
                "type": "function"
            },
            {
                "inputs": [
                    {
                        "internalType": "contract ICToken",
                        "name": "cToken",
                        "type": "address"
                    },
                    {
                        "internalType": "contract IERC20TokenV06",
                        "name": "takerToken",
                        "type": "address"
                    },
                    {
                        "internalType": "contract IERC20TokenV06",
                        "name": "makerToken",
                        "type": "address"
                    },
                    {
                        "internalType": "uint256[]",
                        "name": "makerTokenAmounts",
                        "type": "uint256[]"
                    }
                ],
                "name": "sampleBuysFromCompound",
                "outputs": [
                    {
                        "internalType": "uint256[]",
                        "name": "takerTokenAmounts",
                        "type": "uint256[]"
                    }
                ],
                "stateMutability": "view",
                "type": "function"
            },
            {
                "inputs": [
                    {
                        "components": [
                            {
                                "internalType": "address",
                                "name": "poolAddress",
                                "type": "address"
                            },
                            {
                                "internalType": "bytes4",
                                "name": "sellQuoteFunctionSelector",
                                "type": "bytes4"
                            },
                            {
                                "internalType": "bytes4",
                                "name": "buyQuoteFunctionSelector",
                                "type": "bytes4"
                            }
                        ],
                        "internalType": "struct CurveSampler.CurveInfo",
                        "name": "curveInfo",
                        "type": "tuple"
                    },
                    {
                        "internalType": "int128",
                        "name": "fromTokenIdx",
                        "type": "int128"
                    },
                    {
                        "internalType": "int128",
                        "name": "toTokenIdx",
                        "type": "int128"
                    },
                    {
                        "internalType": "uint256[]",
                        "name": "makerTokenAmounts",
                        "type": "uint256[]"
                    }
                ],
                "name": "sampleBuysFromCurve",
                "outputs": [
                    {
                        "internalType": "uint256[]",
                        "name": "takerTokenAmounts",
                        "type": "uint256[]"
                    }
                ],
                "stateMutability": "view",
                "type": "function"
            },
            {
                "inputs": [
                    {
                        "components": [
                            {
                                "internalType": "address",
                                "name": "registry",
                                "type": "address"
                            },
                            {
                                "internalType": "address",
                                "name": "helper",
                                "type": "address"
                            }
                        ],
                        "internalType": "struct DODOSampler.DODOSamplerOpts",
                        "name": "opts",
                        "type": "tuple"
                    },
                    {
                        "internalType": "address",
                        "name": "takerToken",
                        "type": "address"
                    },
                    {
                        "internalType": "address",
                        "name": "makerToken",
                        "type": "address"
                    },
                    {
                        "internalType": "uint256[]",
                        "name": "makerTokenAmounts",
                        "type": "uint256[]"
                    }
                ],
                "name": "sampleBuysFromDODO",
                "outputs": [
                    {
                        "internalType": "bool",
                        "name": "sellBase",
                        "type": "bool"
                    },
                    {
                        "internalType": "address",
                        "name": "pool",
                        "type": "address"
                    },
                    {
                        "internalType": "uint256[]",
                        "name": "takerTokenAmounts",
                        "type": "uint256[]"
                    }
                ],
                "stateMutability": "view",
                "type": "function"
            },
            {
                "inputs": [
                    {
                        "internalType": "address",
                        "name": "registry",
                        "type": "address"
                    },
                    {
                        "internalType": "uint256",
                        "name": "offset",
                        "type": "uint256"
                    },
                    {
                        "internalType": "address",
                        "name": "takerToken",
                        "type": "address"
                    },
                    {
                        "internalType": "address",
                        "name": "makerToken",
                        "type": "address"
                    },
                    {
                        "internalType": "uint256[]",
                        "name": "makerTokenAmounts",
                        "type": "uint256[]"
                    }
                ],
                "name": "sampleBuysFromDODOV2",
                "outputs": [
                    {
                        "internalType": "bool",
                        "name": "sellBase",
                        "type": "bool"
                    },
                    {
                        "internalType": "address",
                        "name": "pool",
                        "type": "address"
                    },
                    {
                        "internalType": "uint256[]",
                        "name": "takerTokenAmounts",
                        "type": "uint256[]"
                    }
                ],
                "stateMutability": "view",
                "type": "function"
            },
            {
                "inputs": [
                    {
                        "internalType": "contract IGMX",
                        "name": "reader",
                        "type": "address"
                    },
                    {
                        "internalType": "address",
                        "name": "vault",
                        "type": "address"
                    },
                    {
                        "internalType": "address[]",
                        "name": "path",
                        "type": "address[]"
                    },
                    {
                        "internalType": "uint256[]",
                        "name": "makerTokenAmounts",
                        "type": "uint256[]"
                    }
                ],
                "name": "sampleBuysFromGMX",
                "outputs": [
                    {
                        "internalType": "uint256[]",
                        "name": "takerTokenAmounts",
                        "type": "uint256[]"
                    }
                ],
                "stateMutability": "view",
                "type": "function"
            },
            {
                "inputs": [
                    {
                        "internalType": "address",
                        "name": "router",
                        "type": "address"
                    },
                    {
                        "internalType": "address[]",
                        "name": "path",
                        "type": "address[]"
                    },
                    {
                        "internalType": "uint256[]",
                        "name": "makerTokenAmounts",
                        "type": "uint256[]"
                    }
                ],
                "name": "sampleBuysFromKyberDmm",
                "outputs": [
                    {
                        "internalType": "address[]",
                        "name": "pools",
                        "type": "address[]"
                    },
                    {
                        "internalType": "uint256[]",
                        "name": "takerTokenAmounts",
                        "type": "uint256[]"
                    }
                ],
                "stateMutability": "view",
                "type": "function"
            },
            {
                "inputs": [
                    {
                        "components": [
                            {
                                "internalType": "address",
                                "name": "stEthToken",
                                "type": "address"
                            },
                            {
                                "internalType": "address",
                                "name": "wethToken",
                                "type": "address"
                            },
                            {
                                "internalType": "address",
                                "name": "wstEthToken",
                                "type": "address"
                            }
                        ],
                        "internalType": "struct LidoSampler.LidoInfo",
                        "name": "lidoInfo",
                        "type": "tuple"
                    },
                    {
                        "internalType": "address",
                        "name": "takerToken",
                        "type": "address"
                    },
                    {
                        "internalType": "address",
                        "name": "makerToken",
                        "type": "address"
                    },
                    {
                        "internalType": "uint256[]",
                        "name": "makerTokenAmounts",
                        "type": "uint256[]"
                    }
                ],
                "name": "sampleBuysFromLido",
                "outputs": [
                    {
                        "internalType": "uint256[]",
                        "name": "",
                        "type": "uint256[]"
                    }
                ],
                "stateMutability": "view",
                "type": "function"
            },
            {
                "inputs": [
                    {
                        "internalType": "address",
                        "name": "router",
                        "type": "address"
                    },
                    {
                        "internalType": "address",
                        "name": "takerToken",
                        "type": "address"
                    },
                    {
                        "internalType": "address",
                        "name": "makerToken",
                        "type": "address"
                    },
                    {
                        "internalType": "uint256[]",
                        "name": "makerTokenAmounts",
                        "type": "uint256[]"
                    }
                ],
                "name": "sampleBuysFromMStable",
                "outputs": [
                    {
                        "internalType": "uint256[]",
                        "name": "takerTokenAmounts",
                        "type": "uint256[]"
                    }
                ],
                "stateMutability": "view",
                "type": "function"
            },
            {
                "inputs": [
                    {
                        "components": [
                            {
                                "internalType": "address",
                                "name": "psmAddress",
                                "type": "address"
                            },
                            {
                                "internalType": "bytes32",
                                "name": "ilkIdentifier",
                                "type": "bytes32"
                            },
                            {
                                "internalType": "address",
                                "name": "gemTokenAddress",
                                "type": "address"
                            }
                        ],
                        "internalType": "struct MakerPSMSampler.MakerPsmInfo",
                        "name": "psmInfo",
                        "type": "tuple"
                    },
                    {
                        "internalType": "address",
                        "name": "takerToken",
                        "type": "address"
                    },
                    {
                        "internalType": "address",
                        "name": "makerToken",
                        "type": "address"
                    },
                    {
                        "internalType": "uint256[]",
                        "name": "makerTokenAmounts",
                        "type": "uint256[]"
                    }
                ],
                "name": "sampleBuysFromMakerPsm",
                "outputs": [
                    {
                        "internalType": "uint256[]",
                        "name": "takerTokenAmounts",
                        "type": "uint256[]"
                    }
                ],
                "stateMutability": "view",
                "type": "function"
            },
            {
                "inputs": [
                    {
                        "internalType": "address",
                        "name": "registry",
                        "type": "address"
                    },
                    {
                        "internalType": "address",
                        "name": "takerToken",
                        "type": "address"
                    },
                    {
                        "internalType": "address",
                        "name": "makerToken",
                        "type": "address"
                    },
                    {
                        "internalType": "uint256[]",
                        "name": "makerTokenAmounts",
                        "type": "uint256[]"
                    }
                ],
                "name": "sampleBuysFromMooniswap",
                "outputs": [
                    {
                        "internalType": "contract IMooniswap",
                        "name": "pool",
                        "type": "address"
                    },
                    {
                        "internalType": "uint256[]",
                        "name": "takerTokenAmounts",
                        "type": "uint256[]"
                    }
                ],
                "stateMutability": "view",
                "type": "function"
            },
            {
                "inputs": [
                    {
                        "internalType": "address",
                        "name": "pool",
                        "type": "address"
                    },
                    {
                        "internalType": "address[]",
                        "name": "path",
                        "type": "address[]"
                    },
                    {
                        "internalType": "uint256[]",
                        "name": "makerTokenAmounts",
                        "type": "uint256[]"
                    }
                ],
                "name": "sampleBuysFromPlatypus",
                "outputs": [
                    {
                        "internalType": "uint256[]",
                        "name": "takerTokenAmounts",
                        "type": "uint256[]"
                    }
                ],
                "stateMutability": "view",
                "type": "function"
            },
            {
                "inputs": [
                    {
                        "internalType": "address",
                        "name": "pool",
                        "type": "address"
                    },
                    {
                        "internalType": "address",
                        "name": "takerToken",
                        "type": "address"
                    },
                    {
                        "internalType": "address",
                        "name": "makerToken",
                        "type": "address"
                    },
                    {
                        "internalType": "uint256[]",
                        "name": "makerTokenAmounts",
                        "type": "uint256[]"
                    }
                ],
                "name": "sampleBuysFromShell",
                "outputs": [
                    {
                        "internalType": "uint256[]",
                        "name": "takerTokenAmounts",
                        "type": "uint256[]"
                    }
                ],
                "stateMutability": "view",
                "type": "function"
            },
            {
                "inputs": [
                    {
                        "internalType": "contract IReadProxyAddressResolver",
                        "name": "readProxy",
                        "type": "address"
                    },
                    {
                        "internalType": "bytes32",
                        "name": "takerTokenSymbol",
                        "type": "bytes32"
                    },
                    {
                        "internalType": "bytes32",
                        "name": "makerTokenSymbol",
                        "type": "bytes32"
                    },
                    {
                        "internalType": "uint256[]",
                        "name": "makerTokenAmounts",
                        "type": "uint256[]"
                    }
                ],
                "name": "sampleBuysFromSynthetix",
                "outputs": [
                    {
                        "internalType": "address",
                        "name": "synthetix",
                        "type": "address"
                    },
                    {
                        "internalType": "uint256[]",
                        "name": "takerTokenAmounts",
                        "type": "uint256[]"
                    }
                ],
                "stateMutability": "view",
                "type": "function"
            },
            {
                "inputs": [
                    {
                        "internalType": "address",
                        "name": "router",
                        "type": "address"
                    },
                    {
                        "internalType": "address",
                        "name": "takerToken",
                        "type": "address"
                    },
                    {
                        "internalType": "address",
                        "name": "makerToken",
                        "type": "address"
                    },
                    {
                        "internalType": "uint256[]",
                        "name": "makerTokenAmounts",
                        "type": "uint256[]"
                    }
                ],
                "name": "sampleBuysFromUniswap",
                "outputs": [
                    {
                        "internalType": "uint256[]",
                        "name": "takerTokenAmounts",
                        "type": "uint256[]"
                    }
                ],
                "stateMutability": "view",
                "type": "function"
            },
            {
                "inputs": [
                    {
                        "internalType": "address",
                        "name": "router",
                        "type": "address"
                    },
                    {
                        "internalType": "address[]",
                        "name": "path",
                        "type": "address[]"
                    },
                    {
                        "internalType": "uint256[]",
                        "name": "makerTokenAmounts",
                        "type": "uint256[]"
                    }
                ],
                "name": "sampleBuysFromUniswapV2",
                "outputs": [
                    {
                        "internalType": "uint256[]",
                        "name": "takerTokenAmounts",
                        "type": "uint256[]"
                    }
                ],
                "stateMutability": "view",
                "type": "function"
            },
            {
                "inputs": [
                    {
                        "internalType": "contract IUniswapV3Factory",
                        "name": "factory",
                        "type": "address"
                    },
                    {
                        "internalType": "contract IERC20TokenV06[]",
                        "name": "path",
                        "type": "address[]"
                    },
                    {
                        "internalType": "uint256[]",
                        "name": "makerTokenAmounts",
                        "type": "uint256[]"
                    }
                ],
                "name": "sampleBuysFromUniswapV3",
                "outputs": [
                    {
                        "internalType": "bytes[]",
                        "name": "uniswapPaths",
                        "type": "bytes[]"
                    },
                    {
                        "internalType": "uint256[]",
                        "name": "uniswapGasUsed",
                        "type": "uint256[]"
                    },
                    {
                        "internalType": "uint256[]",
                        "name": "takerTokenAmounts",
                        "type": "uint256[]"
                    }
                ],
                "stateMutability": "nonpayable",
                "type": "function"
            },
            {
                "inputs": [
                    {
                        "internalType": "contract IVelodromeRouter",
                        "name": "router",
                        "type": "address"
                    },
                    {
                        "internalType": "address",
                        "name": "takerToken",
                        "type": "address"
                    },
                    {
                        "internalType": "address",
                        "name": "makerToken",
                        "type": "address"
                    },
                    {
                        "internalType": "uint256[]",
                        "name": "makerTokenAmounts",
                        "type": "uint256[]"
                    }
                ],
                "name": "sampleBuysFromVelodrome",
                "outputs": [
                    {
                        "internalType": "bool",
                        "name": "stable",
                        "type": "bool"
                    },
                    {
                        "internalType": "uint256[]",
                        "name": "takerTokenAmounts",
                        "type": "uint256[]"
                    }
                ],
                "stateMutability": "view",
                "type": "function"
            },
            {
                "inputs": [
                    {
                        "internalType": "contract IWooPP",
                        "name": "router",
                        "type": "address"
                    },
                    {
                        "internalType": "address",
                        "name": "takerToken",
                        "type": "address"
                    },
                    {
                        "internalType": "address",
                        "name": "makerToken",
                        "type": "address"
                    },
                    {
                        "internalType": "uint256[]",
                        "name": "makerTokenAmounts",
                        "type": "uint256[]"
                    }
                ],
                "name": "sampleBuysFromWooPP",
                "outputs": [
                    {
                        "internalType": "uint256[]",
                        "name": "takerTokenAmounts",
                        "type": "uint256[]"
                    }
                ],
                "stateMutability": "view",
                "type": "function"
            },
            {
                "inputs": [
                    {
                        "internalType": "contract IBalancerV2Vault",
                        "name": "vault",
                        "type": "address"
                    },
                    {
                        "components": [
                            {
                                "internalType": "bytes32",
                                "name": "poolId",
                                "type": "bytes32"
                            },
                            {
                                "internalType": "uint256",
                                "name": "assetInIndex",
                                "type": "uint256"
                            },
                            {
                                "internalType": "uint256",
                                "name": "assetOutIndex",
                                "type": "uint256"
                            },
                            {
                                "internalType": "uint256",
                                "name": "amount",
                                "type": "uint256"
                            },
                            {
                                "internalType": "bytes",
                                "name": "userData",
                                "type": "bytes"
                            }
                        ],
                        "internalType": "struct IBalancerV2Vault.BatchSwapStep[]",
                        "name": "swapSteps",
                        "type": "tuple[]"
                    },
                    {
                        "internalType": "address[]",
                        "name": "swapAssets",
                        "type": "address[]"
                    },
                    {
                        "internalType": "uint256[]",
                        "name": "makerTokenAmounts",
                        "type": "uint256[]"
                    }
                ],
                "name": "sampleMultihopBuysFromBalancerV2",
                "outputs": [
                    {
                        "internalType": "uint256[]",
                        "name": "takerTokenAmounts",
                        "type": "uint256[]"
                    }
                ],
                "stateMutability": "nonpayable",
                "type": "function"
            },
            {
                "inputs": [
                    {
                        "internalType": "contract IBalancerV2Vault",
                        "name": "vault",
                        "type": "address"
                    },
                    {
                        "components": [
                            {
                                "internalType": "bytes32",
                                "name": "poolId",
                                "type": "bytes32"
                            },
                            {
                                "internalType": "uint256",
                                "name": "assetInIndex",
                                "type": "uint256"
                            },
                            {
                                "internalType": "uint256",
                                "name": "assetOutIndex",
                                "type": "uint256"
                            },
                            {
                                "internalType": "uint256",
                                "name": "amount",
                                "type": "uint256"
                            },
                            {
                                "internalType": "bytes",
                                "name": "userData",
                                "type": "bytes"
                            }
                        ],
                        "internalType": "struct IBalancerV2Vault.BatchSwapStep[]",
                        "name": "swapSteps",
                        "type": "tuple[]"
                    },
                    {
                        "internalType": "address[]",
                        "name": "swapAssets",
                        "type": "address[]"
                    },
                    {
                        "internalType": "uint256[]",
                        "name": "takerTokenAmounts",
                        "type": "uint256[]"
                    }
                ],
                "name": "sampleMultihopSellsFromBalancerV2",
                "outputs": [
                    {
                        "internalType": "uint256[]",
                        "name": "makerTokenAmounts",
                        "type": "uint256[]"
                    }
                ],
                "stateMutability": "nonpayable",
                "type": "function"
            },
            {
                "inputs": [
                    {
                        "internalType": "address",
                        "name": "aToken",
                        "type": "address"
                    },
                    {
                        "internalType": "address",
                        "name": "underlyingToken",
                        "type": "address"
                    },
                    {
                        "internalType": "address",
                        "name": "takerToken",
                        "type": "address"
                    },
                    {
                        "internalType": "address",
                        "name": "makerToken",
                        "type": "address"
                    },
                    {
                        "internalType": "uint256[]",
                        "name": "takerTokenAmounts",
                        "type": "uint256[]"
                    }
                ],
                "name": "sampleSellsFromAaveV2",
                "outputs": [
                    {
                        "internalType": "uint256[]",
                        "name": "makerTokenAmounts",
                        "type": "uint256[]"
                    }
                ],
                "stateMutability": "pure",
                "type": "function"
            },
            {
                "inputs": [
                    {
                        "internalType": "address",
                        "name": "l2Encoder",
                        "type": "address"
                    },
                    {
                        "internalType": "address",
                        "name": "aToken",
                        "type": "address"
                    },
                    {
                        "internalType": "address",
                        "name": "underlyingToken",
                        "type": "address"
                    },
                    {
                        "internalType": "address",
                        "name": "takerToken",
                        "type": "address"
                    },
                    {
                        "internalType": "address",
                        "name": "makerToken",
                        "type": "address"
                    },
                    {
                        "internalType": "uint256[]",
                        "name": "takerTokenAmounts",
                        "type": "uint256[]"
                    }
                ],
                "name": "sampleSellsFromAaveV3",
                "outputs": [
                    {
                        "internalType": "bytes32[]",
                        "name": "l2Params",
                        "type": "bytes32[]"
                    },
                    {
                        "internalType": "uint256[]",
                        "name": "makerTokenAmounts",
                        "type": "uint256[]"
                    }
                ],
                "stateMutability": "view",
                "type": "function"
            },
            {
                "inputs": [
                    {
                        "internalType": "address",
                        "name": "poolAddress",
                        "type": "address"
                    },
                    {
                        "internalType": "address",
                        "name": "takerToken",
                        "type": "address"
                    },
                    {
                        "internalType": "address",
                        "name": "makerToken",
                        "type": "address"
                    },
                    {
                        "internalType": "uint256[]",
                        "name": "takerTokenAmounts",
                        "type": "uint256[]"
                    }
                ],
                "name": "sampleSellsFromBalancer",
                "outputs": [
                    {
                        "internalType": "uint256[]",
                        "name": "makerTokenAmounts",
                        "type": "uint256[]"
                    }
                ],
                "stateMutability": "view",
                "type": "function"
            },
            {
                "inputs": [
                    {
                        "components": [
                            {
                                "internalType": "bytes32",
                                "name": "poolId",
                                "type": "bytes32"
                            },
                            {
                                "internalType": "address",
                                "name": "vault",
                                "type": "address"
                            }
                        ],
                        "internalType": "struct IBalancerV2Vault.BalancerV2PoolInfo",
                        "name": "poolInfo",
                        "type": "tuple"
                    },
                    {
                        "internalType": "address",
                        "name": "takerToken",
                        "type": "address"
                    },
                    {
                        "internalType": "address",
                        "name": "makerToken",
                        "type": "address"
                    },
                    {
                        "internalType": "uint256[]",
                        "name": "takerTokenAmounts",
                        "type": "uint256[]"
                    }
                ],
                "name": "sampleSellsFromBalancerV2",
                "outputs": [
                    {
                        "internalType": "uint256[]",
                        "name": "makerTokenAmounts",
                        "type": "uint256[]"
                    }
                ],
                "stateMutability": "nonpayable",
                "type": "function"
            },
            {
                "inputs": [
                    {
                        "components": [
                            {
                                "internalType": "contract IBancorRegistry",
                                "name": "registry",
                                "type": "address"
                            },
                            {
                                "internalType": "address[][]",
                                "name": "paths",
                                "type": "address[][]"
                            }
                        ],
                        "internalType": "struct BancorSampler.BancorSamplerOpts",
                        "name": "opts",
                        "type": "tuple"
                    },
                    {
                        "internalType": "address",
                        "name": "takerToken",
                        "type": "address"
                    },
                    {
                        "internalType": "address",
                        "name": "makerToken",
                        "type": "address"
                    },
                    {
                        "internalType": "uint256[]",
                        "name": "takerTokenAmounts",
                        "type": "uint256[]"
                    }
                ],
                "name": "sampleSellsFromBancor",
                "outputs": [
                    {
                        "internalType": "address",
                        "name": "bancorNetwork",
                        "type": "address"
                    },
                    {
                        "internalType": "address[]",
                        "name": "path",
                        "type": "address[]"
                    },
                    {
                        "internalType": "uint256[]",
                        "name": "makerTokenAmounts",
                        "type": "uint256[]"
                    }
                ],
                "stateMutability": "view",
                "type": "function"
            },
            {
                "inputs": [
                    {
                        "internalType": "address",
                        "name": "weth",
                        "type": "address"
                    },
                    {
                        "internalType": "address",
                        "name": "router",
                        "type": "address"
                    },
                    {
                        "internalType": "address[]",
                        "name": "path",
                        "type": "address[]"
                    },
                    {
                        "internalType": "uint256[]",
                        "name": "takerTokenAmounts",
                        "type": "uint256[]"
                    }
                ],
                "name": "sampleSellsFromBancorV3",
                "outputs": [
                    {
                        "internalType": "uint256[]",
                        "name": "makerTokenAmounts",
                        "type": "uint256[]"
                    }
                ],
                "stateMutability": "view",
                "type": "function"
            },
            {
                "inputs": [
                    {
                        "internalType": "contract ICToken",
                        "name": "cToken",
                        "type": "address"
                    },
                    {
                        "internalType": "contract IERC20TokenV06",
                        "name": "takerToken",
                        "type": "address"
                    },
                    {
                        "internalType": "contract IERC20TokenV06",
                        "name": "makerToken",
                        "type": "address"
                    },
                    {
                        "internalType": "uint256[]",
                        "name": "takerTokenAmounts",
                        "type": "uint256[]"
                    }
                ],
                "name": "sampleSellsFromCompound",
                "outputs": [
                    {
                        "internalType": "uint256[]",
                        "name": "makerTokenAmounts",
                        "type": "uint256[]"
                    }
                ],
                "stateMutability": "view",
                "type": "function"
            },
            {
                "inputs": [
                    {
                        "components": [
                            {
                                "internalType": "address",
                                "name": "poolAddress",
                                "type": "address"
                            },
                            {
                                "internalType": "bytes4",
                                "name": "sellQuoteFunctionSelector",
                                "type": "bytes4"
                            },
                            {
                                "internalType": "bytes4",
                                "name": "buyQuoteFunctionSelector",
                                "type": "bytes4"
                            }
                        ],
                        "internalType": "struct CurveSampler.CurveInfo",
                        "name": "curveInfo",
                        "type": "tuple"
                    },
                    {
                        "internalType": "int128",
                        "name": "fromTokenIdx",
                        "type": "int128"
                    },
                    {
                        "internalType": "int128",
                        "name": "toTokenIdx",
                        "type": "int128"
                    },
                    {
                        "internalType": "uint256[]",
                        "name": "takerTokenAmounts",
                        "type": "uint256[]"
                    }
                ],
                "name": "sampleSellsFromCurve",
                "outputs": [
                    {
                        "internalType": "uint256[]",
                        "name": "makerTokenAmounts",
                        "type": "uint256[]"
                    }
                ],
                "stateMutability": "view",
                "type": "function"
            },
            {
                "inputs": [
                    {
                        "components": [
                            {
                                "internalType": "address",
                                "name": "registry",
                                "type": "address"
                            },
                            {
                                "internalType": "address",
                                "name": "helper",
                                "type": "address"
                            }
                        ],
                        "internalType": "struct DODOSampler.DODOSamplerOpts",
                        "name": "opts",
                        "type": "tuple"
                    },
                    {
                        "internalType": "address",
                        "name": "takerToken",
                        "type": "address"
                    },
                    {
                        "internalType": "address",
                        "name": "makerToken",
                        "type": "address"
                    },
                    {
                        "internalType": "uint256[]",
                        "name": "takerTokenAmounts",
                        "type": "uint256[]"
                    }
                ],
                "name": "sampleSellsFromDODO",
                "outputs": [
                    {
                        "internalType": "bool",
                        "name": "sellBase",
                        "type": "bool"
                    },
                    {
                        "internalType": "address",
                        "name": "pool",
                        "type": "address"
                    },
                    {
                        "internalType": "uint256[]",
                        "name": "makerTokenAmounts",
                        "type": "uint256[]"
                    }
                ],
                "stateMutability": "view",
                "type": "function"
            },
            {
                "inputs": [
                    {
                        "internalType": "address",
                        "name": "registry",
                        "type": "address"
                    },
                    {
                        "internalType": "uint256",
                        "name": "offset",
                        "type": "uint256"
                    },
                    {
                        "internalType": "address",
                        "name": "takerToken",
                        "type": "address"
                    },
                    {
                        "internalType": "address",
                        "name": "makerToken",
                        "type": "address"
                    },
                    {
                        "internalType": "uint256[]",
                        "name": "takerTokenAmounts",
                        "type": "uint256[]"
                    }
                ],
                "name": "sampleSellsFromDODOV2",
                "outputs": [
                    {
                        "internalType": "bool",
                        "name": "sellBase",
                        "type": "bool"
                    },
                    {
                        "internalType": "address",
                        "name": "pool",
                        "type": "address"
                    },
                    {
                        "internalType": "uint256[]",
                        "name": "makerTokenAmounts",
                        "type": "uint256[]"
                    }
                ],
                "stateMutability": "view",
                "type": "function"
            },
            {
                "inputs": [
                    {
                        "internalType": "contract IGMX",
                        "name": "reader",
                        "type": "address"
                    },
                    {
                        "internalType": "address",
                        "name": "vault",
                        "type": "address"
                    },
                    {
                        "internalType": "address[]",
                        "name": "path",
                        "type": "address[]"
                    },
                    {
                        "internalType": "uint256[]",
                        "name": "takerTokenAmounts",
                        "type": "uint256[]"
                    }
                ],
                "name": "sampleSellsFromGMX",
                "outputs": [
                    {
                        "internalType": "uint256[]",
                        "name": "makerTokenAmounts",
                        "type": "uint256[]"
                    }
                ],
                "stateMutability": "view",
                "type": "function"
            },
            {
                "inputs": [
                    {
                        "internalType": "address",
                        "name": "router",
                        "type": "address"
                    },
                    {
                        "internalType": "address[]",
                        "name": "path",
                        "type": "address[]"
                    },
                    {
                        "internalType": "uint256[]",
                        "name": "takerTokenAmounts",
                        "type": "uint256[]"
                    }
                ],
                "name": "sampleSellsFromKyberDmm",
                "outputs": [
                    {
                        "internalType": "address[]",
                        "name": "pools",
                        "type": "address[]"
                    },
                    {
                        "internalType": "uint256[]",
                        "name": "makerTokenAmounts",
                        "type": "uint256[]"
                    }
                ],
                "stateMutability": "view",
                "type": "function"
            },
            {
                "inputs": [
                    {
                        "components": [
                            {
                                "internalType": "address",
                                "name": "stEthToken",
                                "type": "address"
                            },
                            {
                                "internalType": "address",
                                "name": "wethToken",
                                "type": "address"
                            },
                            {
                                "internalType": "address",
                                "name": "wstEthToken",
                                "type": "address"
                            }
                        ],
                        "internalType": "struct LidoSampler.LidoInfo",
                        "name": "lidoInfo",
                        "type": "tuple"
                    },
                    {
                        "internalType": "address",
                        "name": "takerToken",
                        "type": "address"
                    },
                    {
                        "internalType": "address",
                        "name": "makerToken",
                        "type": "address"
                    },
                    {
                        "internalType": "uint256[]",
                        "name": "takerTokenAmounts",
                        "type": "uint256[]"
                    }
                ],
                "name": "sampleSellsFromLido",
                "outputs": [
                    {
                        "internalType": "uint256[]",
                        "name": "",
                        "type": "uint256[]"
                    }
                ],
                "stateMutability": "view",
                "type": "function"
            },
            {
                "inputs": [
                    {
                        "internalType": "address",
                        "name": "router",
                        "type": "address"
                    },
                    {
                        "internalType": "address",
                        "name": "takerToken",
                        "type": "address"
                    },
                    {
                        "internalType": "address",
                        "name": "makerToken",
                        "type": "address"
                    },
                    {
                        "internalType": "uint256[]",
                        "name": "takerTokenAmounts",
                        "type": "uint256[]"
                    }
                ],
                "name": "sampleSellsFromMStable",
                "outputs": [
                    {
                        "internalType": "uint256[]",
                        "name": "makerTokenAmounts",
                        "type": "uint256[]"
                    }
                ],
                "stateMutability": "view",
                "type": "function"
            },
            {
                "inputs": [
                    {
                        "components": [
                            {
                                "internalType": "address",
                                "name": "psmAddress",
                                "type": "address"
                            },
                            {
                                "internalType": "bytes32",
                                "name": "ilkIdentifier",
                                "type": "bytes32"
                            },
                            {
                                "internalType": "address",
                                "name": "gemTokenAddress",
                                "type": "address"
                            }
                        ],
                        "internalType": "struct MakerPSMSampler.MakerPsmInfo",
                        "name": "psmInfo",
                        "type": "tuple"
                    },
                    {
                        "internalType": "address",
                        "name": "takerToken",
                        "type": "address"
                    },
                    {
                        "internalType": "address",
                        "name": "makerToken",
                        "type": "address"
                    },
                    {
                        "internalType": "uint256[]",
                        "name": "takerTokenAmounts",
                        "type": "uint256[]"
                    }
                ],
                "name": "sampleSellsFromMakerPsm",
                "outputs": [
                    {
                        "internalType": "uint256[]",
                        "name": "makerTokenAmounts",
                        "type": "uint256[]"
                    }
                ],
                "stateMutability": "view",
                "type": "function"
            },
            {
                "inputs": [
                    {
                        "internalType": "address",
                        "name": "registry",
                        "type": "address"
                    },
                    {
                        "internalType": "address",
                        "name": "takerToken",
                        "type": "address"
                    },
                    {
                        "internalType": "address",
                        "name": "makerToken",
                        "type": "address"
                    },
                    {
                        "internalType": "uint256[]",
                        "name": "takerTokenAmounts",
                        "type": "uint256[]"
                    }
                ],
                "name": "sampleSellsFromMooniswap",
                "outputs": [
                    {
                        "internalType": "contract IMooniswap",
                        "name": "pool",
                        "type": "address"
                    },
                    {
                        "internalType": "uint256[]",
                        "name": "makerTokenAmounts",
                        "type": "uint256[]"
                    }
                ],
                "stateMutability": "view",
                "type": "function"
            },
            {
                "inputs": [
                    {
                        "internalType": "address",
                        "name": "pool",
                        "type": "address"
                    },
                    {
                        "internalType": "address[]",
                        "name": "path",
                        "type": "address[]"
                    },
                    {
                        "internalType": "uint256[]",
                        "name": "takerTokenAmounts",
                        "type": "uint256[]"
                    }
                ],
                "name": "sampleSellsFromPlatypus",
                "outputs": [
                    {
                        "internalType": "uint256[]",
                        "name": "makerTokenAmounts",
                        "type": "uint256[]"
                    }
                ],
                "stateMutability": "view",
                "type": "function"
            },
            {
                "inputs": [
                    {
                        "internalType": "address",
                        "name": "pool",
                        "type": "address"
                    },
                    {
                        "internalType": "address",
                        "name": "takerToken",
                        "type": "address"
                    },
                    {
                        "internalType": "address",
                        "name": "makerToken",
                        "type": "address"
                    },
                    {
                        "internalType": "uint256[]",
                        "name": "takerTokenAmounts",
                        "type": "uint256[]"
                    }
                ],
                "name": "sampleSellsFromShell",
                "outputs": [
                    {
                        "internalType": "uint256[]",
                        "name": "makerTokenAmounts",
                        "type": "uint256[]"
                    }
                ],
                "stateMutability": "view",
                "type": "function"
            },
            {
                "inputs": [
                    {
                        "internalType": "contract IReadProxyAddressResolver",
                        "name": "readProxy",
                        "type": "address"
                    },
                    {
                        "internalType": "bytes32",
                        "name": "takerTokenSymbol",
                        "type": "bytes32"
                    },
                    {
                        "internalType": "bytes32",
                        "name": "makerTokenSymbol",
                        "type": "bytes32"
                    },
                    {
                        "internalType": "uint256[]",
                        "name": "takerTokenAmounts",
                        "type": "uint256[]"
                    }
                ],
                "name": "sampleSellsFromSynthetix",
                "outputs": [
                    {
                        "internalType": "address",
                        "name": "synthetix",
                        "type": "address"
                    },
                    {
                        "internalType": "uint256[]",
                        "name": "makerTokenAmounts",
                        "type": "uint256[]"
                    }
                ],
                "stateMutability": "view",
                "type": "function"
            },
            {
                "inputs": [
                    {
                        "internalType": "address",
                        "name": "router",
                        "type": "address"
                    },
                    {
                        "internalType": "address",
                        "name": "takerToken",
                        "type": "address"
                    },
                    {
                        "internalType": "address",
                        "name": "makerToken",
                        "type": "address"
                    },
                    {
                        "internalType": "uint256[]",
                        "name": "takerTokenAmounts",
                        "type": "uint256[]"
                    }
                ],
                "name": "sampleSellsFromUniswap",
                "outputs": [
                    {
                        "internalType": "uint256[]",
                        "name": "makerTokenAmounts",
                        "type": "uint256[]"
                    }
                ],
                "stateMutability": "view",
                "type": "function"
            },
            {
                "inputs": [
                    {
                        "internalType": "address",
                        "name": "router",
                        "type": "address"
                    },
                    {
                        "internalType": "address[]",
                        "name": "path",
                        "type": "address[]"
                    },
                    {
                        "internalType": "uint256[]",
                        "name": "takerTokenAmounts",
                        "type": "uint256[]"
                    }
                ],
                "name": "sampleSellsFromUniswapV2",
                "outputs": [
                    {
                        "internalType": "uint256[]",
                        "name": "makerTokenAmounts",
                        "type": "uint256[]"
                    }
                ],
                "stateMutability": "view",
                "type": "function"
            },
            {
                "inputs": [
                    {
                        "internalType": "contract IUniswapV3Factory",
                        "name": "factory",
                        "type": "address"
                    },
                    {
                        "internalType": "contract IERC20TokenV06[]",
                        "name": "path",
                        "type": "address[]"
                    },
                    {
                        "internalType": "uint256[]",
                        "name": "takerTokenAmounts",
                        "type": "uint256[]"
                    }
                ],
                "name": "sampleSellsFromUniswapV3",
                "outputs": [
                    {
                        "internalType": "bytes[]",
                        "name": "uniswapPaths",
                        "type": "bytes[]"
                    },
                    {
                        "internalType": "uint256[]",
                        "name": "uniswapGasUsed",
                        "type": "uint256[]"
                    },
                    {
                        "internalType": "uint256[]",
                        "name": "makerTokenAmounts",
                        "type": "uint256[]"
                    }
                ],
                "stateMutability": "nonpayable",
                "type": "function"
            },
            {
                "inputs": [
                    {
                        "internalType": "contract IVelodromeRouter",
                        "name": "router",
                        "type": "address"
                    },
                    {
                        "internalType": "address",
                        "name": "takerToken",
                        "type": "address"
                    },
                    {
                        "internalType": "address",
                        "name": "makerToken",
                        "type": "address"
                    },
                    {
                        "internalType": "uint256[]",
                        "name": "takerTokenAmounts",
                        "type": "uint256[]"
                    }
                ],
                "name": "sampleSellsFromVelodrome",
                "outputs": [
                    {
                        "internalType": "bool",
                        "name": "stable",
                        "type": "bool"
                    },
                    {
                        "internalType": "uint256[]",
                        "name": "makerTokenAmounts",
                        "type": "uint256[]"
                    }
                ],
                "stateMutability": "view",
                "type": "function"
            },
            {
                "inputs": [
                    {
                        "internalType": "contract IWooPP",
                        "name": "router",
                        "type": "address"
                    },
                    {
                        "internalType": "address",
                        "name": "takerToken",
                        "type": "address"
                    },
                    {
                        "internalType": "address",
                        "name": "makerToken",
                        "type": "address"
                    },
                    {
                        "internalType": "uint256[]",
                        "name": "takerTokenAmounts",
                        "type": "uint256[]"
                    }
                ],
                "name": "sampleSellsFromWooPP",
                "outputs": [
                    {
                        "internalType": "uint256[]",
                        "name": "makerTokenAmounts",
                        "type": "uint256[]"
                    }
                ],
                "stateMutability": "view",
                "type": "function"
            },
            {
                "inputs": [
                    {
                        "internalType": "address",
                        "name": "registry",
                        "type": "address"
                    },
                    {
                        "internalType": "address",
                        "name": "mooniswapTakerToken",
                        "type": "address"
                    },
                    {
                        "internalType": "address",
                        "name": "mooniswapMakerToken",
                        "type": "address"
                    },
                    {
                        "internalType": "uint256",
                        "name": "takerTokenAmount",
                        "type": "uint256"
                    }
                ],
                "name": "sampleSingleSellFromMooniswapPool",
                "outputs": [
                    {
                        "internalType": "uint256",
                        "name": "",
                        "type": "uint256"
                    }
                ],
                "stateMutability": "view",
                "type": "function"
            },
            {
                "inputs": [
                    {
                        "internalType": "bytes[]",
                        "name": "firstHopCalls",
                        "type": "bytes[]"
                    },
                    {
                        "internalType": "bytes[]",
                        "name": "secondHopCalls",
                        "type": "bytes[]"
                    },
                    {
                        "internalType": "uint256",
                        "name": "numSamples",
                        "type": "uint256"
                    }
                ],
                "name": "sampleTwoHopBuy",
                "outputs": [
                    {
                        "components": [
                            {
                                "internalType": "uint256",
                                "name": "sourceIndex",
                                "type": "uint256"
                            },
                            {
                                "internalType": "bytes",
                                "name": "returnData",
                                "type": "bytes"
                            }
                        ],
                        "internalType": "struct TwoHopSampler.HopInfo",
                        "name": "firstHop",
                        "type": "tuple"
                    },
                    {
                        "components": [
                            {
                                "internalType": "uint256",
                                "name": "sourceIndex",
                                "type": "uint256"
                            },
                            {
                                "internalType": "bytes",
                                "name": "returnData",
                                "type": "bytes"
                            }
                        ],
                        "internalType": "struct TwoHopSampler.HopInfo",
                        "name": "secondHop",
                        "type": "tuple"
                    },
                    {
                        "internalType": "uint256[]",
                        "name": "sellAmounts",
                        "type": "uint256[]"
                    }
                ],
                "stateMutability": "nonpayable",
                "type": "function"
            },
            {
                "inputs": [
                    {
                        "internalType": "bytes[]",
                        "name": "firstHopCalls",
                        "type": "bytes[]"
                    },
                    {
                        "internalType": "bytes[]",
                        "name": "secondHopCalls",
                        "type": "bytes[]"
                    },
                    {
                        "internalType": "uint256",
                        "name": "numSamples",
                        "type": "uint256"
                    }
                ],
                "name": "sampleTwoHopSell",
                "outputs": [
                    {
                        "components": [
                            {
                                "internalType": "uint256",
                                "name": "sourceIndex",
                                "type": "uint256"
                            },
                            {
                                "internalType": "bytes",
                                "name": "returnData",
                                "type": "bytes"
                            }
                        ],
                        "internalType": "struct TwoHopSampler.HopInfo",
                        "name": "firstHop",
                        "type": "tuple"
                    },
                    {
                        "components": [
                            {
                                "internalType": "uint256",
                                "name": "sourceIndex",
                                "type": "uint256"
                            },
                            {
                                "internalType": "bytes",
                                "name": "returnData",
                                "type": "bytes"
                            }
                        ],
                        "internalType": "struct TwoHopSampler.HopInfo",
                        "name": "secondHop",
                        "type": "tuple"
                    },
                    {
                        "internalType": "uint256[]",
                        "name": "buyAmounts",
                        "type": "uint256[]"
                    }
                ],
                "stateMutability": "nonpayable",
                "type": "function"
            }
        ],
        "devdoc": {
            "kind": "dev",
            "methods": {
                "batchCall(bytes[])": {
                    "details": "Call multiple public functions on this contract in a single transaction.",
                    "params": {
                        "callDatas": "ABI-encoded call data for each function call."
                    },
                    "returns": {
                        "callResults": "ABI-encoded results data for each call."
                    }
                },
                "getLimitOrderFillableMakerAssetAmounts((address,address,uint128,uint128,uint128,address,address,address,address,bytes32,uint64,uint256)[],(uint8,uint8,bytes32,bytes32)[],address)": {
                    "details": "Queries the fillable taker asset amounts of native orders.      Effectively ignores orders that have empty signatures or",
                    "params": {
                        "exchange": "The V4 exchange.",
                        "orderSignatures": "Signatures for each respective order in `orders`.",
                        "orders": "Native orders to query."
                    },
                    "returns": {
                        "orderFillableMakerAssetAmounts": "How much maker asset can be filled         by each order in `orders`."
                    }
                },
                "getLimitOrderFillableTakerAmount((address,address,uint128,uint128,uint128,address,address,address,address,bytes32,uint64,uint256),(uint8,uint8,bytes32,bytes32),address)": {
                    "details": "Get the fillable taker amount of an order, taking into account      order state, maker fees, and maker balances."
                },
                "getLimitOrderFillableTakerAssetAmounts((address,address,uint128,uint128,uint128,address,address,address,address,bytes32,uint64,uint256)[],(uint8,uint8,bytes32,bytes32)[],address)": {
                    "details": "Queries the fillable taker asset amounts of native orders.      Effectively ignores orders that have empty signatures or      maker/taker asset amounts (returning 0).",
                    "params": {
                        "exchange": "The V4 exchange.",
                        "orderSignatures": "Signatures for each respective order in `orders`.",
                        "orders": "Native limit orders to query."
                    },
                    "returns": {
                        "orderFillableTakerAssetAmounts": "How much taker asset can be filled         by each order in `orders`."
                    }
                },
                "sampleBuysFromAaveV2(address,address,address,address,uint256[])": {
                    "details": "Sample buy quotes from AaveV2.",
                    "params": {
                        "aToken": "address of the aToken.",
                        "makerToken": "address of the maker token (what to buy).",
                        "makerTokenAmounts": "maker token sell amounts for each sample",
                        "takerToken": "address of the taker token (what to sell).",
                        "underlyingToken": "address of the underlying collateral token."
                    },
                    "returns": {
                        "takerTokenAmounts": "taker amounts bought at each maker token         amount."
                    }
                },
                "sampleBuysFromAaveV3(address,address,address,address,address,uint256[])": {
                    "details": "Sample buy quotes from AaveV3.",
                    "params": {
                        "aToken": "address of the aToken.",
                        "l2Encoder": "address of the l2 encoder.",
                        "makerToken": "address of the maker token (what to buy).",
                        "makerTokenAmounts": "maker token sell amounts for each sample",
                        "takerToken": "address of the taker token (what to sell).",
                        "underlyingToken": "address of the underlying collateral token."
                    },
                    "returns": {
                        "l2Params": "l2 encoded parameters for each sample",
                        "takerTokenAmounts": "taker amounts bought at each maker token         amount."
                    }
                },
                "sampleBuysFromBalancer(address,address,address,uint256[])": {
                    "details": "Sample buy quotes from Balancer.",
                    "params": {
                        "makerToken": "Address of the maker token (what to buy).",
                        "makerTokenAmounts": "Maker token buy amount for each sample.",
                        "poolAddress": "Address of the Balancer pool to query.",
                        "takerToken": "Address of the taker token (what to sell)."
                    },
                    "returns": {
                        "takerTokenAmounts": "Taker amounts sold at each maker token         amount."
                    }
                },
                "sampleBuysFromBalancerV2((bytes32,address),address,address,uint256[])": {
                    "details": "Sample buy quotes from Balancer V2.",
                    "params": {
                        "makerToken": "Address of the maker token (what to buy).",
                        "makerTokenAmounts": "Maker token buy amount for each sample.",
                        "poolInfo": "Struct with pool related data",
                        "takerToken": "Address of the taker token (what to sell)."
                    },
                    "returns": {
                        "takerTokenAmounts": "Taker amounts sold at each maker token         amount."
                    }
                },
                "sampleBuysFromBancor((address,address[][]),address,address,uint256[])": {
                    "details": "Sample buy quotes from Bancor. Unimplemented",
                    "params": {
                        "makerToken": "Address of the maker token (what to buy).",
                        "makerTokenAmounts": "Maker token buy amount for each sample.",
                        "opts": "BancorSamplerOpts The Bancor registry contract address and paths",
                        "takerToken": "Address of the taker token (what to sell)."
                    },
                    "returns": {
                        "bancorNetwork": "the Bancor Network address",
                        "path": "the selected conversion path from bancor",
                        "takerTokenAmounts": "Taker amounts sold at each maker token         amount."
                    }
                },
                "sampleBuysFromBancorV3(address,address,address[],uint256[])": {
                    "details": "Sample buy quotes from BancorV3.",
                    "params": {
                        "makerTokenAmounts": "Maker token buy amount for each sample.",
                        "path": "Token route. Should be takerToken -> makerToken.",
                        "router": "Router to look up tokens and amounts",
                        "weth": "The WETH contract address"
                    },
                    "returns": {
                        "takerTokenAmounts": "Taker amounts sold at each maker token         amount."
                    }
                },
                "sampleBuysFromCurve((address,bytes4,bytes4),int128,int128,uint256[])": {
                    "details": "Sample buy quotes from Curve.",
                    "params": {
                        "curveInfo": "Curve information specific to this token pair.",
                        "fromTokenIdx": "Index of the taker token (what to sell).",
                        "makerTokenAmounts": "Maker token buy amount for each sample.",
                        "toTokenIdx": "Index of the maker token (what to buy)."
                    },
                    "returns": {
                        "takerTokenAmounts": "Taker amounts sold at each maker token         amount."
                    }
                },
                "sampleBuysFromDODO((address,address),address,address,uint256[])": {
                    "details": "Sample buy quotes from DODO.",
                    "params": {
                        "makerToken": "Address of the maker token (what to buy).",
                        "makerTokenAmounts": "Maker token sell amount for each sample.",
                        "opts": "DODOSamplerOpts DODO Registry and helper addresses",
                        "takerToken": "Address of the taker token (what to sell)."
                    },
                    "returns": {
                        "pool": "the DODO pool address",
                        "sellBase": "whether the bridge needs to sell the base token",
                        "takerTokenAmounts": "Taker amounts sold at each maker token         amount."
                    }
                },
                "sampleBuysFromDODOV2(address,uint256,address,address,uint256[])": {
                    "details": "Sample buy quotes from DODO.",
                    "params": {
                        "makerToken": "Address of the maker token (what to buy).",
                        "makerTokenAmounts": "Maker token sell amount for each sample.",
                        "offset": "offset index for the pool in the registry.",
                        "registry": "Address of the registry to look up.",
                        "takerToken": "Address of the taker token (what to sell)."
                    },
                    "returns": {
                        "pool": "the DODO pool address",
                        "sellBase": "whether the bridge needs to sell the base token",
                        "takerTokenAmounts": "Taker amounts sold at each maker token         amount."
                    }
                },
                "sampleBuysFromKyberDmm(address,address[],uint256[])": {
                    "details": "Sample buy quotes from KyberDmm.",
                    "params": {
                        "makerTokenAmounts": "Maker token buy amount for each sample.",
                        "path": "Token route. Should be takerToken -> makerToken.",
                        "router": "Router to look up tokens and amounts"
                    },
                    "returns": {
                        "pools": "The pool addresses involved in the multi path trade",
                        "takerTokenAmounts": "Taker amounts sold at each maker token         amount."
                    }
                },
                "sampleBuysFromLido((address,address,address),address,address,uint256[])": {
                    "details": "Sample buy quotes from Lido.",
                    "params": {
                        "lidoInfo": "Info regarding a specific Lido deployment",
                        "makerToken": "Address of the maker token (what to buy).",
                        "makerTokenAmounts": "Maker token buy amount for each sample.",
                        "takerToken": "Address of the taker token (what to sell)."
                    },
                    "returns": {
                        "_0": "takerTokenAmounts Taker amounts sold at each maker token         amount."
                    }
                },
                "sampleBuysFromMStable(address,address,address,uint256[])": {
                    "details": "Sample buy quotes from MStable contract",
                    "params": {
                        "makerToken": "Address of the maker token (what to buy).",
                        "makerTokenAmounts": "Maker token buy amount for each sample.",
                        "router": "Address of the mStable contract",
                        "takerToken": "Address of the taker token (what to sell)."
                    },
                    "returns": {
                        "takerTokenAmounts": "Taker amounts sold at each maker token         amount."
                    }
                },
                "sampleBuysFromMooniswap(address,address,address,uint256[])": {
                    "details": "Sample buy quotes from Mooniswap.",
                    "params": {
                        "makerToken": "Address of the maker token (what to buy).",
                        "makerTokenAmounts": "Maker token sell amount for each sample.",
                        "registry": "Address of the Mooniswap Registry.",
                        "takerToken": "Address of the taker token (what to sell)."
                    },
                    "returns": {
                        "pool": "The contract address for the pool",
                        "takerTokenAmounts": "Taker amounts sold at each maker token         amount."
                    }
                },
                "sampleBuysFromShell(address,address,address,uint256[])": {
                    "details": "Sample buy quotes from Shell pool contract",
                    "params": {
                        "makerToken": "Address of the maker token (what to buy).",
                        "makerTokenAmounts": "Maker token buy amount for each sample.",
                        "pool": "Address of the Shell pool contract",
                        "takerToken": "Address of the taker token (what to sell)."
                    },
                    "returns": {
                        "takerTokenAmounts": "Taker amounts sold at each maker token         amount."
                    }
                },
                "sampleBuysFromSynthetix(address,bytes32,bytes32,uint256[])": {
                    "details": "Sample buy quotes from Synthetix Atomic Swap.",
                    "params": {
                        "makerTokenAmounts": "Maker token buy amount for each sample (sorted in ascending order).",
                        "makerTokenSymbol": "Symbol (currency key) of the maker token (what to buy).",
                        "takerTokenSymbol": "Symbol (currency key) of the taker token (what to sell)."
                    },
                    "returns": {
                        "synthetix": "Synthetix address.",
                        "takerTokenAmounts": "Taker amounts sold at each maker token amount."
                    }
                },
                "sampleBuysFromUniswap(address,address,address,uint256[])": {
                    "details": "Sample buy quotes from Uniswap.",
                    "params": {
                        "makerToken": "Address of the maker token (what to buy).",
                        "makerTokenAmounts": "Maker token sell amount for each sample.",
                        "takerToken": "Address of the taker token (what to sell)."
                    },
                    "returns": {
                        "takerTokenAmounts": "Taker amounts sold at each maker token         amount."
                    }
                },
                "sampleBuysFromUniswapV2(address,address[],uint256[])": {
                    "details": "Sample buy quotes from UniswapV2.",
                    "params": {
                        "makerTokenAmounts": "Maker token buy amount for each sample.",
                        "path": "Token route. Should be takerToken -> makerToken.",
                        "router": "Router to look up tokens and amounts"
                    },
                    "returns": {
                        "takerTokenAmounts": "Taker amounts sold at each maker token         amount."
                    }
                },
                "sampleBuysFromUniswapV3(address,address[],uint256[])": {
                    "details": "Sample buy quotes from UniswapV3.",
                    "params": {
                        "factory": "UniswapV3 Factory contract.",
                        "makerTokenAmounts": "Maker token buy amount for each sample.",
                        "path": "Token route. Should be takerToken -> makerToken (at most two hops)."
                    },
                    "returns": {
                        "takerTokenAmounts": "Taker amounts sold at each maker token amount.",
                        "uniswapGasUsed": "Estimated amount of gas used",
                        "uniswapPaths": "The encoded uniswap path for each sample."
                    }
                },
                "sampleBuysFromVelodrome(address,address,address,uint256[])": {
                    "details": "Sample buy quotes from Velodrome.",
                    "params": {
                        "makerToken": "Address of the maker token (what to buy).",
                        "makerTokenAmounts": "Maker token buy amount for each sample.",
                        "router": "Address of Velodrome router.",
                        "takerToken": "Address of the taker token (what to sell)."
                    },
                    "returns": {
                        "stable": "Whether the pool is a stable pool (vs volatile).",
                        "takerTokenAmounts": "Taker amounts sold at each maker token amount."
                    }
                },
                "sampleBuysFromWooPP(address,address,address,uint256[])": {
                    "details": "Sample buy quotes from WooFI.",
                    "params": {
                        "makerToken": "Address of the maker token (what to buy).",
                        "makerTokenAmounts": "Maker token sell amount for each sample (sorted in ascending order).",
                        "router": "Address of the router we are sampling from",
                        "takerToken": "Address of the taker token (what to sell)."
                    },
                    "returns": {
                        "takerTokenAmounts": "Taker amounts bought at each taker token         amount."
                    }
                },
                "sampleMultihopBuysFromBalancerV2(address,(bytes32,uint256,uint256,uint256,bytes)[],address[],uint256[])": {
                    "details": "Sample buy quotes from Balancer V2 supporting multihops.",
                    "params": {
                        "makerTokenAmounts": "Maker token buy amount for each sample.",
                        "swapAssets": "Array of token address for swaps.",
                        "swapSteps": "Array of swap steps (can be >= 1)."
                    }
                },
                "sampleMultihopSellsFromBalancerV2(address,(bytes32,uint256,uint256,uint256,bytes)[],address[],uint256[])": {
                    "details": "Sample sell quotes from Balancer V2 supporting multihops.",
                    "params": {
                        "swapAssets": "Array of token address for swaps.",
                        "swapSteps": "Array of swap steps (can be >= 1).",
                        "takerTokenAmounts": "Taker token sell amount for each sample."
                    }
                },
                "sampleSellsFromAaveV2(address,address,address,address,uint256[])": {
                    "details": "Sample sell quotes from AaveV2.",
                    "params": {
                        "aToken": "address of the aToken.",
                        "makerToken": "address of the maker token (what to buy).",
                        "takerToken": "address of the taker token (what to sell).",
                        "takerTokenAmounts": "taker token buy amounts for each sample",
                        "underlyingToken": "address of the underlying collateral token."
                    },
                    "returns": {
                        "makerTokenAmounts": "maker amounts bought at each taker token         amount."
                    }
                },
                "sampleSellsFromAaveV3(address,address,address,address,address,uint256[])": {
                    "details": "Sample sell quotes from AaveV3.",
                    "params": {
                        "aToken": "address of the aToken.",
                        "l2Encoder": "address of the l2 encoder.",
                        "makerToken": "address of the maker token (what to buy).",
                        "takerToken": "address of the taker token (what to sell).",
                        "takerTokenAmounts": "taker token buy amounts for each sample",
                        "underlyingToken": "address of the underlying collateral token."
                    },
                    "returns": {
                        "l2Params": "l2 encoded parameters for each sample",
                        "makerTokenAmounts": "maker amounts bought at each taker token         amount."
                    }
                },
                "sampleSellsFromBalancer(address,address,address,uint256[])": {
                    "details": "Sample sell quotes from Balancer.",
                    "params": {
                        "makerToken": "Address of the maker token (what to buy).",
                        "poolAddress": "Address of the Balancer pool to query.",
                        "takerToken": "Address of the taker token (what to sell).",
                        "takerTokenAmounts": "Taker token sell amount for each sample."
                    },
                    "returns": {
                        "makerTokenAmounts": "Maker amounts bought at each taker token         amount."
                    }
                },
                "sampleSellsFromBalancerV2((bytes32,address),address,address,uint256[])": {
                    "details": "Sample sell quotes from Balancer V2.",
                    "params": {
                        "makerToken": "Address of the maker token (what to buy).",
                        "poolInfo": "Struct with pool related data",
                        "takerToken": "Address of the taker token (what to sell).",
                        "takerTokenAmounts": "Taker token sell amount for each sample."
                    },
                    "returns": {
                        "makerTokenAmounts": "Maker amounts bought at each taker token         amount."
                    }
                },
                "sampleSellsFromBancor((address,address[][]),address,address,uint256[])": {
                    "details": "Sample sell quotes from Bancor.",
                    "params": {
                        "makerToken": "Address of the maker token (what to buy).",
                        "opts": "BancorSamplerOpts The Bancor registry contract address and paths",
                        "takerToken": "Address of the taker token (what to sell).",
                        "takerTokenAmounts": "Taker token sell amount for each sample."
                    },
                    "returns": {
                        "bancorNetwork": "the Bancor Network address",
                        "makerTokenAmounts": "Maker amounts bought at each taker token         amount.",
                        "path": "the selected conversion path from bancor"
                    }
                },
                "sampleSellsFromBancorV3(address,address,address[],uint256[])": {
                    "details": "Sample sell quotes from BancorV3.",
                    "params": {
                        "path": "Token route. Should be takerToken -> makerToken",
                        "router": "Router to look up tokens and amounts",
                        "takerTokenAmounts": "Taker token sell amount for each sample.",
                        "weth": "The WETH contract address"
                    },
                    "returns": {
                        "makerTokenAmounts": "Maker amounts bought at each taker token         amount."
                    }
                },
                "sampleSellsFromCurve((address,bytes4,bytes4),int128,int128,uint256[])": {
                    "details": "Sample sell quotes from Curve.",
                    "params": {
                        "curveInfo": "Curve information specific to this token pair.",
                        "fromTokenIdx": "Index of the taker token (what to sell).",
                        "takerTokenAmounts": "Taker token sell amount for each sample.",
                        "toTokenIdx": "Index of the maker token (what to buy)."
                    },
                    "returns": {
                        "makerTokenAmounts": "Maker amounts bought at each taker token         amount."
                    }
                },
                "sampleSellsFromDODO((address,address),address,address,uint256[])": {
                    "details": "Sample sell quotes from DODO.",
                    "params": {
                        "makerToken": "Address of the maker token (what to buy).",
                        "opts": "DODOSamplerOpts DODO Registry and helper addresses",
                        "takerToken": "Address of the taker token (what to sell).",
                        "takerTokenAmounts": "Taker token sell amount for each sample."
                    },
                    "returns": {
                        "makerTokenAmounts": "Maker amounts bought at each taker token         amount.",
                        "pool": "the DODO pool address",
                        "sellBase": "whether the bridge needs to sell the base token"
                    }
                },
                "sampleSellsFromDODOV2(address,uint256,address,address,uint256[])": {
                    "details": "Sample sell quotes from DODO V2.",
                    "params": {
                        "makerToken": "Address of the maker token (what to buy).",
                        "offset": "offset index for the pool in the registry.",
                        "registry": "Address of the registry to look up.",
                        "takerToken": "Address of the taker token (what to sell).",
                        "takerTokenAmounts": "Taker token sell amount for each sample."
                    },
                    "returns": {
                        "makerTokenAmounts": "Maker amounts bought at each taker token         amount.",
                        "pool": "the DODO pool address",
                        "sellBase": "whether the bridge needs to sell the base token"
                    }
                },
                "sampleSellsFromKyberDmm(address,address[],uint256[])": {
                    "details": "Sample sell quotes from KyberDmm.",
                    "params": {
                        "path": "Token route. Should be takerToken -> makerToken",
                        "router": "Router to look up tokens and amounts",
                        "takerTokenAmounts": "Taker token sell amount for each sample."
                    },
                    "returns": {
                        "makerTokenAmounts": "Maker amounts bought at each taker token         amount.",
                        "pools": "The pool addresses involved in the multi path trade"
                    }
                },
                "sampleSellsFromLido((address,address,address),address,address,uint256[])": {
                    "details": "Sample sell quotes from Lido",
                    "params": {
                        "lidoInfo": "Info regarding a specific Lido deployment",
                        "makerToken": "Address of the maker token (what to buy).",
                        "takerToken": "Address of the taker token (what to sell).",
                        "takerTokenAmounts": "Taker token sell amount for each sample."
                    },
                    "returns": {
                        "_0": "makerTokenAmounts Maker amounts bought at each taker token         amount."
                    }
                },
                "sampleSellsFromMStable(address,address,address,uint256[])": {
                    "details": "Sample sell quotes from the mStable contract",
                    "params": {
                        "makerToken": "Address of the maker token (what to buy).",
                        "router": "Address of the mStable contract",
                        "takerToken": "Address of the taker token (what to sell).",
                        "takerTokenAmounts": "Taker token sell amount for each sample."
                    },
                    "returns": {
                        "makerTokenAmounts": "Maker amounts bought at each taker token         amount."
                    }
                },
                "sampleSellsFromMakerPsm((address,bytes32,address),address,address,uint256[])": {
                    "details": "Sample sell quotes from Maker PSM"
                },
                "sampleSellsFromMooniswap(address,address,address,uint256[])": {
                    "details": "Sample sell quotes from Mooniswap.",
                    "params": {
                        "makerToken": "Address of the maker token (what to buy).",
                        "registry": "Address of the Mooniswap Registry.",
                        "takerToken": "Address of the taker token (what to sell).",
                        "takerTokenAmounts": "Taker token sell amount for each sample."
                    },
                    "returns": {
                        "makerTokenAmounts": "Maker amounts bought at each taker token         amount.",
                        "pool": "The contract address for the pool"
                    }
                },
                "sampleSellsFromShell(address,address,address,uint256[])": {
                    "details": "Sample sell quotes from the Shell pool contract",
                    "params": {
                        "makerToken": "Address of the maker token (what to buy).",
                        "pool": "Address of the Shell pool contract",
                        "takerToken": "Address of the taker token (what to sell).",
                        "takerTokenAmounts": "Taker token sell amount for each sample."
                    },
                    "returns": {
                        "makerTokenAmounts": "Maker amounts bought at each taker token         amount."
                    }
                },
                "sampleSellsFromSynthetix(address,bytes32,bytes32,uint256[])": {
                    "details": "Sample sell quotes from Synthetix Atomic Swap.",
                    "params": {
                        "makerTokenSymbol": "Symbol (currency key) of the maker token (what to buy).",
                        "takerTokenAmounts": "Taker token sell amount for each sample (sorted in ascending order).",
                        "takerTokenSymbol": "Symbol (currency key) of the taker token (what to sell)."
                    },
                    "returns": {
                        "makerTokenAmounts": "Maker amounts bought at each taker token amount.",
                        "synthetix": "Synthetix address."
                    }
                },
                "sampleSellsFromUniswap(address,address,address,uint256[])": {
                    "details": "Sample sell quotes from Uniswap.",
                    "params": {
                        "makerToken": "Address of the maker token (what to buy).",
                        "router": "Address of the Uniswap Router",
                        "takerToken": "Address of the taker token (what to sell).",
                        "takerTokenAmounts": "Taker token sell amount for each sample."
                    },
                    "returns": {
                        "makerTokenAmounts": "Maker amounts bought at each taker token         amount."
                    }
                },
                "sampleSellsFromUniswapV2(address,address[],uint256[])": {
                    "details": "Sample sell quotes from UniswapV2.",
                    "params": {
                        "path": "Token route. Should be takerToken -> makerToken",
                        "router": "Router to look up tokens and amounts",
                        "takerTokenAmounts": "Taker token sell amount for each sample."
                    },
                    "returns": {
                        "makerTokenAmounts": "Maker amounts bought at each taker token         amount."
                    }
                },
                "sampleSellsFromUniswapV3(address,address[],uint256[])": {
                    "details": "Sample sell quotes from UniswapV3.",
                    "params": {
                        "factory": "UniswapV3 Factory contract.",
                        "path": "Token route. Should be takerToken -> makerToken (at most two hops).",
                        "takerTokenAmounts": "Taker token sell amount for each sample."
                    },
                    "returns": {
                        "makerTokenAmounts": "Maker amounts bought at each taker token amount.",
                        "uniswapGasUsed": "Estimated amount of gas used",
                        "uniswapPaths": "The encoded uniswap path for each sample."
                    }
                },
                "sampleSellsFromVelodrome(address,address,address,uint256[])": {
                    "details": "Sample sell quotes from Velodrome",
                    "params": {
                        "makerToken": "Address of the maker token (what to buy).",
                        "router": "Address of Velodrome router.",
                        "takerToken": "Address of the taker token (what to sell).",
                        "takerTokenAmounts": "Taker token sell amount for each sample (sorted in ascending order)."
                    },
                    "returns": {
                        "makerTokenAmounts": "Maker amounts bought at each taker token amount.",
                        "stable": "Whether the pool is a stable pool (vs volatile)."
                    }
                },
                "sampleSellsFromWooPP(address,address,address,uint256[])": {
                    "details": "Sample sell quotes from WooFI.",
                    "params": {
                        "makerToken": "Address of the maker token (what to buy).",
                        "router": "Address of the router we are sampling from",
                        "takerToken": "Address of the taker token (what to sell).",
                        "takerTokenAmounts": "Taker token sell amount for each sample (sorted in ascending order)."
                    },
                    "returns": {
                        "makerTokenAmounts": "Maker amounts bought at each taker token         amount."
                    }
                }
            },
            "version": 1
        },
        "evm": {
            "bytecode": {
                "linkReferences": {},
                "object": "0x60a06040527feeeeeeeeeeeeeeeeeeeeeeeeeeeeeeeeeeeeeeee0000000000000000000000006080523480156200003557600080fd5b5060805160601c61cf726200005e600039806139f85280615a155280616a2d525061cf726000f3fe6080604052600436106103c75760003560e01c80638322fff2116101f2578063bd71ecf61161010d578063e065de75116100a0578063f5a4994d1161006f578063f5a4994d14610bfe578063f6d6794a14610c1e578063faf1cee014610c3e578063fc9fe41b14610c5e576103ce565b8063e065de7514610b7e578063e382c95e14610b9e578063e78ac04514610bbe578063e8e4af0914610bde576103ce565b8063cc130e83116100dc578063cc130e8314610af0578063d9bca37214610b10578063dbbf62c214610b30578063ddd5aa2814610b5e576103ce565b8063bd71ecf614610a70578063c831908414610a90578063c8c74a3714610ab0578063c9d350f914610ad0576103ce565b80639ea0ff1311610185578063aa9ea72a11610154578063aa9ea72a146109e2578063ab80a91014610a02578063adc636bf14610a22578063b90cd2fb14610a50576103ce565b80639ea0ff1314610962578063a0295b8b14610982578063a75e744b146109a2578063a76bbec4146109c2576103ce565b8063918c2bbd116101c1578063918c2bbd146108d45780639209483b1461090257806398777748146109225780639bf3ee3514610942576103ce565b80638322fff214610843578063849489a1146108655780638a2d1971146108855780638e5a0e07146108a5576103ce565b806342cbb15c116102e257806366a1ac6b1161027557806374c9d2551161024457806374c9d255146107c357806377d375f2146107e35780637f3e7f82146108035780637f7f4f1314610823576103ce565b806366a1ac6b1461073657806368be3cf2146107565780636eb9dae514610783578063706e2f9b146107a3576103ce565b806357494b1d116102b157806357494b1d146106b65780635aae4e53146106d65780635d5b674f146106f65780635e74363a14610716576103ce565b806342cbb15c14610630578063494569db1461065257806351be4eaa146106725780635505000a14610687576103ce565b8063281e34321161035a5780633105fec1116103295780633105fec1146105a25780633583220f146105c25780634092e6b1146105f057806340bc03ae14610610576103ce565b8063281e3432146105135780632aa64319146105335780632e1240f01461056257806330d6570d14610582576103ce565b8063162790551161039657806316279055146104865780631976f526146104b35780632339078f146104d3578063252322b3146104f3576103ce565b8063034eaff9146103d35780630496d5dc146104095780631022742b14610437578063149dab0e14610457576103ce565b366103ce57005b600080fd5b3480156103df57600080fd5b506103f36103ee36600461b996565b610c7e565b604051610400919061c950565b60405180910390f35b34801561041557600080fd5b5061042961042436600461b57d565b610ea0565b60405161040092919061c8c4565b34801561044357600080fd5b506103f361045236600461b80f565b611046565b34801561046357600080fd5b5061047761047236600461bbea565b6111b9565b6040516104009392919061c83a565b34801561049257600080fd5b506104a66104a136600461b172565b611319565b604051610400919061c961565b3480156104bf57600080fd5b506103f36104ce36600461b94c565b611323565b3480156104df57600080fd5b506103f36104ee36600461bb8a565b61148e565b3480156104ff57600080fd5b506103f361050e36600461b461565b6116b8565b34801561051f57600080fd5b506103f361052e36600461bd2e565b611882565b34801561053f57600080fd5b5061055361054e36600461bc82565b611ad7565b6040516104009392919061c96f565b34801561056e57600080fd5b506103f361057d36600461b522565b611db4565b34801561058e57600080fd5b506103f361059d36600461b461565b612024565b3480156105ae57600080fd5b506103f36105bd36600461b57d565b612182565b3480156105ce57600080fd5b506105e26105dd36600461b9fc565b612306565b60405161040092919061c86e565b3480156105fc57600080fd5b506103f361060b36600461b9da565b6123d0565b34801561061c57600080fd5b506103f361062b36600461bc22565b61263b565b34801561063c57600080fd5b506106456127bc565b604051610400919061c9aa565b34801561065e57600080fd5b5061042961066d36600461b57d565b6127c0565b34801561067e57600080fd5b5061064561294c565b34801561069357600080fd5b506106a76106a236600461ba40565b612954565b6040516104009392919061c91a565b3480156106c257600080fd5b506103f36106d136600461b461565b612d11565b3480156106e257600080fd5b506106a76106f136600461ba40565b613288565b34801561070257600080fd5b506103f361071136600461b461565b613680565b34801561072257600080fd5b506103f361073136600461bca4565b6136ef565b34801561074257600080fd5b506103f361075136600461b80f565b613744565b34801561076257600080fd5b5061077661077136600461b657565b6137f9565b604051610400919061c93f565b34801561078f57600080fd5b506103f361079e36600461bca4565b61395a565b3480156107af57600080fd5b506103f36107be36600461b708565b6139a5565b3480156107cf57600080fd5b506104776107de36600461bbea565b613a97565b3480156107ef57600080fd5b506103f36107fe36600461b3d5565b613aa6565b34801561080f57600080fd5b506103f361081e36600461b57d565b613bac565b34801561082f57600080fd5b506103f361083e36600461bd2e565b613cbc565b34801561084f57600080fd5b50610858613f09565b604051610400919061c681565b34801561087157600080fd5b506103f361088036600461baa7565b613f21565b34801561089157600080fd5b506103f36108a036600461b9da565b614048565b3480156108b157600080fd5b506108c56108c036600461b698565b61415a565b6040516104009392919061cb92565b3480156108e057600080fd5b506108f46108ef36600461baa7565b614480565b60405161040092919061c99c565b34801561090e57600080fd5b506103f361091d36600461bc22565b614653565b34801561092e57600080fd5b506103f361093d36600461b461565b614853565b34801561094e57600080fd5b5061064561095d36600461bce8565b614d8c565b34801561096e57600080fd5b5061064561097d36600461b4cd565b614ed1565b34801561098e57600080fd5b506103f361099d36600461bb8a565b6150e7565b3480156109ae57600080fd5b506105536109bd36600461b5ee565b6152e3565b3480156109ce57600080fd5b506103f36109dd36600461b996565b615420565b3480156109ee57600080fd5b506108f46109fd36600461baa7565b61562f565b348015610a0e57600080fd5b506103f3610a1d36600461b3d5565b61571a565b348015610a2e57600080fd5b50610a42610a3d36600461b461565b61580c565b60405161040092919061c9b8565b348015610a5c57600080fd5b506103f3610a6b36600461b461565b61595c565b348015610a7c57600080fd5b506103f3610a8b36600461b73c565b6159c2565b348015610a9c57600080fd5b506103f3610aab36600461b461565b615abe565b348015610abc57600080fd5b506103f3610acb36600461b57d565b615c7b565b348015610adc57600080fd5b506105e2610aeb36600461b9fc565b615de7565b348015610afc57600080fd5b506103f3610b0b36600461b94c565b615efc565b348015610b1c57600080fd5b50610553610b2b36600461b5ee565b61606e565b348015610b3c57600080fd5b50610b50610b4b36600461b337565b61615d565b60405161040092919061c909565b348015610b6a57600080fd5b50610553610b7936600461bc82565b616423565b348015610b8a57600080fd5b50610b50610b9936600461b337565b6166b6565b348015610baa57600080fd5b506103f3610bb936600461baa7565b61696c565b348015610bca57600080fd5b506103f3610bd936600461b782565b6169da565b348015610bea57600080fd5b506103f3610bf936600461b461565b616acf565b348015610c0a57600080fd5b50610a42610c1936600461b461565b616c02565b348015610c2a57600080fd5b506103f3610c3936600461b57d565b616cee565b348015610c4a57600080fd5b506103f3610c5936600461b522565b616e67565b348015610c6a57600080fd5b506108c5610c7936600461b698565b6170c1565b8051606090806001600160401b0381118015610c9957600080fd5b50604051908082528060200260200182016040528015610cc3578160200160208202803683370190505b5091506000866001600160a01b031663182df0f56040518163ffffffff1660e01b815260040160206040518083038186803b158015610d0157600080fd5b505afa158015610d15573d6000803e3d6000fd5b505050506040513d601f19601f82011682018060405250810190610d39919061b92e565b90506000876001600160a01b031663313ce5676040518163ffffffff1660e01b815260040160206040518083038186803b158015610d7657600080fd5b505afa158015610d8a573d6000803e3d6000fd5b505050506040513d601f19601f82011682018060405250810190610dae919061bebc565b60ff169050876001600160a01b0316866001600160a01b03161415610e265760005b83811015610e205781600a0a6402540be4000283878381518110610df057fe5b60200260200101510281610e0057fe5b04858281518110610e0d57fe5b6020908102919091010152600101610dd0565b50610e95565b876001600160a01b0316876001600160a01b03161415610e955760005b83811015610e93578282600a0a6402540be400888481518110610e6257fe5b6020026020010151020281610e7357fe5b04858281518110610e8057fe5b6020908102919091010152600101610e43565b505b505050949350505050565b80516060908190806001600160401b0381118015610ebd57600080fd5b50604051908082528060200260200182016040528015610ee7578160200160208202803683370190505b509150610ef48686617450565b9250825160001415610f06575061103e565b60005b8181101561103b57866001600160a01b031663a8312b1d620249f0878481518110610f3057fe5b6020026020010151878a6040518563ffffffff1660e01b8152600401610f589392919061cc1b565b60006040518083038187803b158015610f7057600080fd5b5086fa93505050508015610fa657506040513d6000823e601f3d908101601f19168201604052610fa3919081019061b87f565b60015b610fe0573d808015610fd4576040519150601f19603f3d011682016040523d82523d6000602084013e610fd9565b606091505b505061103b565b80600188510381518110610ff057fe5b602002602001015184838151811061100457fe5b60200260200101818152505083828151811061101c57fe5b602002602001015160001415611032575061103b565b50600101610f09565b50505b935093915050565b606083516001600160401b038111801561105f57600080fd5b50604051908082528060200260200182016040528015611089578160200160208202803683370190505b50905060005b845181146111b157306001600160a01b0316639bf3ee3562030d408784815181106110b657fe5b60200260200101518785815181106110ca57fe5b6020026020010151876040518563ffffffff1660e01b81526004016110f19392919061cbd4565b60206040518083038187803b15801561110957600080fd5b5086fa9350505050801561113a575060408051601f3d908101601f191682019092526111379181019061b92e565b60015b61118e573d808015611168576040519150601f19603f3d011682016040523d82523d6000602084013e61116d565b606091505b50600083838151811061117c57fe5b602002602001018181525050506111a9565b8083838151811061119b57fe5b602002602001018181525050505b60010161108f565b509392505050565b600060608083516001600160401b03811180156111d557600080fd5b506040519080825280602002602001820160405280156111ff578160200160208202803683370190505b509050866020015151600014156112155761130f565b61122187878787617740565b909350915060005b815181101561130d57836001600160a01b0316637f9c0ecd620493e08588858151811061125257fe5b60200260200101516040518463ffffffff1660e01b815260040161127792919061c8e9565b60206040518083038187803b15801561128f57600080fd5b5086fa935050505080156112c0575060408051601f3d908101601f191682019092526112bd9181019061b92e565b60015b6112c95761130d565b808383815181106112d657fe5b6020026020010181815250508282815181106112ee57fe5b602002602001015160001415611304575061130d565b50600101611229565b505b9450945094915050565b803b15155b919050565b8051606090806001600160401b038111801561133e57600080fd5b50604051908082528060200260200182016040528015611368578160200160208202803683370190505b50915061137361a578565b61137b617966565b905060005b82811015610e955784818151811061139457fe5b6020026020010151876000815181106113a957fe5b602090810291909101015160600152604051637c26833760e11b81526001600160a01b0389169063f84d066e906113eb906001908b908b90889060040161ca95565b600060405180830381600087803b15801561140557600080fd5b505af192505050801561143a57506040513d6000823e601f3d908101601f19168201604052611437919081019061b7db565b60015b61144357610e95565b60008160008151811061145257fe5b602002602001015190506000811361146b575050610e95565b8086848151811061147857fe5b6020026020010181815250505050600101611380565b606061149a8385617995565b6020850151604080516002808252606082810190935281602001602082028036833701905050905085816000815181106114d057fe5b60200260200101906001600160a01b031690816001600160a01b03168152505084816001815181106114fe57fe5b6001600160a01b03909216602092830291909101909101528351806001600160401b038111801561152e57600080fd5b50604051908082528060200260200182016040528015611558578160200160208202803683370190505b50935061156361a578565b61156b617966565b905060005b828110156116ab5760606115978b89848151811061158a57fe5b60200260200101516179d4565b604051637c26833760e11b81529091506001600160a01b0387169063f84d066e906115cd9060009085908a90899060040161ca95565b600060405180830381600087803b1580156115e757600080fd5b505af192505050801561161c57506040513d6000823e601f3d908101601f19168201604052611619919081019061b7db565b60015b611657573d80801561164a576040519150601f19603f3d011682016040523d82523d6000602084013e61164f565b606091505b5050506116ab565b60008160018351038151811061166957fe5b602002602001015160001902905060008113611687575050506116ab565b8089858151811061169457fe5b602002602001018181525050505050600101611570565b5050505050949350505050565b60606116c48385617995565b8151806001600160401b03811180156116dc57600080fd5b50604051908082528060200260200182016040528015611706578160200160208202803683370190505b50915060006001600160a01b03861615611729576117248787617a66565b61172c565b60005b905060006001600160a01b0386161561174e576117498887617a66565b611751565b60005b905060005b83811015610e935760016001600160a01b0388166117b45761179384632640f62c60e01b89858151811061178657fe5b6020026020010151617ae5565b87848151811061179f57fe5b6020026020010181935082815250505061184e565b6001600160a01b0389166117da57611793836359e9486260e01b89858151811061178657fe5b60006117f4846359e9486260e01b8a868151811061178657fe5b92509050801561183157611810856309903d8b60e21b83617ae5565b88858151811061181c57fe5b6020026020010181945082815250505061184c565b600087848151811061183f57fe5b6020026020010181815250505b505b80158061186e575085828151811061186257fe5b60200260200101516000145b156118795750610e93565b50600101611756565b606061188e8385617995565b6000856000015190506000816001600160a01b03166336569e776040518163ffffffff1660e01b815260040160206040518083038186803b1580156118d257600080fd5b505afa1580156118e6573d6000803e3d6000fd5b505050506040513d601f19601f8201168201806040525081019061190a919061b190565b8451909150806001600160401b038111801561192557600080fd5b5060405190808252806020026020018201604052801561194f578160200160208202803683370190505b509350826001600160a01b031663f4b9fa756040518163ffffffff1660e01b815260040160206040518083038186803b15801561198b57600080fd5b505afa15801561199f573d6000803e3d6000fd5b505050506040513d601f19601f820116820180604052508101906119c3919061b190565b6001600160a01b0316866001600160a01b031614158015611a665750826001600160a01b031663f4b9fa756040518163ffffffff1660e01b815260040160206040518083038186803b158015611a1857600080fd5b505afa158015611a2c573d6000803e3d6000fd5b505050506040513d601f19601f82011682018060405250810190611a50919061b190565b6001600160a01b0316876001600160a01b031614155b15611a7357505050611acf565b60005b81811015610e93576000611aa18a898b8a8681518110611a9257fe5b60200260200101518989617bc8565b905080611aae5750610e93565b80868381518110611abb57fe5b602090810291909101015250600101611a76565b949350505050565b6000806060611ae68587617995565b8351806001600160401b0381118015611afe57600080fd5b50604051908082528060200260200182016040528015611b28578160200160208202803683370190505b508851604051630939d86360e11b81529193506001600160a01b031690631273b0c690611b5b908a908a9060040161c6aa565b60206040518083038186803b158015611b7357600080fd5b505afa158015611b87573d6000803e3d6000fd5b505050506040513d601f19601f82011682018060405250810190611bab919061b190565b925060006001600160a01b03841615611bc957506001935086611c68565b8851604051630939d86360e11b81526001600160a01b0390911690631273b0c690611bfa908a908c9060040161c6aa565b60206040518083038186803b158015611c1257600080fd5b505afa158015611c26573d6000803e3d6000fd5b505050506040513d601f19601f82011682018060405250810190611c4a919061b190565b93506001600160a01b038416611c6157505061130f565b5060009350855b836001600160a01b031663dd58b41c6040518163ffffffff1660e01b815260040160206040518083038186803b158015611ca157600080fd5b505afa158015611cb5573d6000803e3d6000fd5b505050506040513d601f19601f82011682018060405250810190611cd9919061b910565b611ce457505061130f565b60005b82811015611da7576000611d618a87858e60200151604051602001611d0f949392919061c6c5565b6040516020818303038152906040528a88868f60200151604051602001611d39949392919061c6c5565b6040516020818303038152906040528a8581518110611d5457fe5b6020026020010151617e87565b905080858381518110611d7057fe5b602002602001018181525050848281518110611d8857fe5b602002602001015160001415611d9e5750611da7565b50600101611ce7565b5050509450945094915050565b8051606090806001600160401b0381118015611dcf57600080fd5b50604051908082528060200260200182016040528015611df9578160200160208202803683370190505b509150856001600160a01b031684600081518110611e1357fe5b60200260200101516001600160a01b03161415611e6d5773eeeeeeeeeeeeeeeeeeeeeeeeeeeeeeeeeeeeeeee84600081518110611e4c57fe5b60200260200101906001600160a01b031690816001600160a01b0316815250505b856001600160a01b031684600181518110611e8457fe5b60200260200101516001600160a01b03161415611ede5773eeeeeeeeeeeeeeeeeeeeeeeeeeeeeeeeeeeeeeee84600181518110611ebd57fe5b60200260200101906001600160a01b031690816001600160a01b0316815250505b60005b8181101561201a57856001600160a01b031663a940edac86600081518110611f0557fe5b602002602001015187600181518110611f1a57fe5b6020026020010151878581518110611f2e57fe5b60200260200101516040518463ffffffff1660e01b8152600401611f549392919061c7f2565b60206040518083038186803b158015611f6c57600080fd5b505afa925050508015611f9c575060408051601f3d908101601f19168201909252611f999181019061b92e565b60015b611fd6573d808015611fca576040519150601f19603f3d011682016040523d82523d6000602084013e611fcf565b606091505b505061201a565b80848381518110611fe357fe5b602002602001018181525050838281518110611ffb57fe5b602002602001015160001415612011575061201a565b50600101611ee1565b5050949350505050565b60606120308385617995565b8151806001600160401b038111801561204857600080fd5b50604051908082528060200260200182016040528015612072578160200160208202803683370190505b50915060005b8181101561201a57866001600160a01b03166372ea9076620c350088888886815181106120a157fe5b60200260200101516040518563ffffffff1660e01b81526004016120c79392919061c7f2565b60206040518083038187803b1580156120df57600080fd5b5086fa93505050508015612110575060408051601f3d908101601f1916820190925261210d9181019061b92e565b60015b61213e573d808015611fca576040519150601f19603f3d011682016040523d82523d6000602084013e611fcf565b8084838151811061214b57fe5b60200260200101818152505083828151811061216357fe5b602002602001015160001415612179575061201a565b50600101612078565b8051606090806001600160401b038111801561219d57600080fd5b506040519080825280602002602001820160405280156121c7578160200160208202803683370190505b50915060005b818110156122fd57856001600160a01b031663d06ca61f620249f08684815181106121f457fe5b6020026020010151886040518463ffffffff1660e01b815260040161221a92919061cc0d565b60006040518083038187803b15801561223257600080fd5b5086fa9350505050801561226857506040513d6000823e601f3d908101601f19168201604052612265919081019061b87f565b60015b6122a2573d808015612296576040519150601f19603f3d011682016040523d82523d6000602084013e61229b565b606091505b50506122fd565b806001875103815181106122b257fe5b60200260200101518483815181106122c657fe5b6020026020010181815250508382815181106122de57fe5b6020026020010151600014156122f457506122fd565b506001016121cd565b50509392505050565b6000606061231386617fc0565b9150600061232b87670de0b6b3a764000088886180ac565b8451909150806001600160401b038111801561234657600080fd5b50604051908082528060200260200182016040528015612370578160200160208202803683370190505b50925060005b818110156123c4578286828151811061238b57fe5b6020026020010151670de0b6b3a764000002816123a457fe5b048482815181106123b157fe5b6020908102919091010152600101612376565b50505094509492505050565b8051606090806001600160401b03811180156123eb57600080fd5b50604051908082528060200260200182016040528015612415578160200160208202803683370190505b50915060005b8181101561201a57866001600160a01b031663f3535e6c878760008151811061244057fe5b60200260200101518860018151811061245557fe5b60200260200101516040518463ffffffff1660e01b815260040161247b9392919061c9e6565b60206040518083038186803b15801561249357600080fd5b505afa9250505080156124c3575060408051601f3d908101601f191682019092526124c09181019061b92e565b60015b6124f1573d808015611fca576040519150601f19603f3d011682016040523d82523d6000602084013e611fcf565b808583815181106124fe57fe5b60200260200101511115612512575061201a565b50866001600160a01b031663d7176ca9878760008151811061253057fe5b60200260200101518860018151811061254557fe5b602002602001015188868151811061255957fe5b60200260200101516040518563ffffffff1660e01b8152600401612580949392919061ca0e565b604080518083038186803b15801561259757600080fd5b505afa9250505080156125c7575060408051601f3d908101601f191682019092526125c49181019061bde1565b60015b6125f5573d808015611fca576040519150601f19603f3d011682016040523d82523d6000602084013e611fcf565b8185848151811061260257fe5b60200260200101818152505084838151811061261a57fe5b60200260200101516000141561263157505061201a565b505060010161241b565b8051606090806001600160401b038111801561265657600080fd5b50604051908082528060200260200182016040528015612680578160200160208202803683370190505b50915060005b8181101561201a576000606088600001516001600160a01b0316621e84808a602001518a8a8a88815181106126b757fe5b60200260200101516040516024016126d19392919061cad8565b60408051601f198184030181529181526020820180516001600160e01b03166001600160e01b031990941693909317909252905161270f919061c675565b6000604051808303818686fa925050503d806000811461274b576040519150601f19603f3d011682016040523d82523d6000602084013e612750565b606091505b5091509150600082156127745781806020019051810190612771919061b92e565b90505b8086858151811061278157fe5b60200260200101818152505085848151811061279957fe5b6020026020010151600014156127b15750505061201a565b505050600101612686565b4390565b80516060908190806001600160401b03811180156127dd57600080fd5b50604051908082528060200260200182016040528015612807578160200160208202803683370190505b5091506128148686617450565b9250825160001415612826575061103e565b60005b8181101561103b57866001600160a01b0316639e269b68620249f087848151811061285057fe5b6020026020010151878a6040518563ffffffff1660e01b81526004016128789392919061cc1b565b60006040518083038187803b15801561289057600080fd5b5086fa935050505080156128c657506040513d6000823e601f3d908101601f191682016040526128c3919081019061b87f565b60015b6128f4573d808015610fd4576040519150601f19603f3d011682016040523d82523d6000602084013e610fd9565b8060008151811061290157fe5b602002602001015184838151811061291557fe5b60200260200101818152505083828151811061292d57fe5b602002602001015160001415612943575061103b565b50600101612829565b60005a905090565b60608060608061299187735555555555555555555555555555555555555556888860018a51038151811061298457fe5b60200260200101516181dd565b905084516001600160401b03811180156129aa57600080fd5b506040519080825280602002602001820160405280156129d4578160200160208202803683370190505b50915084516001600160401b03811180156129ee57600080fd5b50604051908082528060200260200182016040528015612a2257816020015b6060815260200190600190039081612a0d5790505b50935084516001600160401b0381118015612a3c57600080fd5b50604051908082528060200260200182016040528015612a66578160200160208202803683370190505b50925060005b8151811015612d0657612a91828281518110612a8457fe5b6020026020010151618223565b612a9a57612cfe565b6060612ab988848481518110612aac57fe5b6020026020010151618279565b60405163551e2bdf60e01b815290915060609081907355555555555555555555555555555555555555569063551e2bdf90612afc908e9087908e9060040161c9c6565b60006040518083038186803b158015612b1457600080fd5b505afa925050508015612b25575060015b612cfa573d808015612b53576040519150601f19603f3d011682016040523d82523d6000602084013e612b58565b606091505b506000612b64826183d4565b9095509350905080612b7a575050505050612cfe565b60005b8451811015612cf657848181518110612b9257fe5b602002602001015160001415612ba757612cf6565b848181518110612bb357fe5b6020026020010151898281518110612bc757fe5b60200260200101511015612c4a57848181518110612be157fe5b6020026020010151898281518110612bf557fe5b602002602001018181525050858b8281518110612c0e57fe5b6020026020010181905250838181518110612c2557fe5b60200260200101518a8281518110612c3957fe5b602002602001018181525050612cee565b848181518110612c5657fe5b6020026020010151898281518110612c6a57fe5b6020026020010151148015612ca45750838181518110612c8657fe5b60200260200101518a8281518110612c9a57fe5b6020026020010151115b15612cee57858b8281518110612cb657fe5b6020026020010181905250838181518110612ccd57fe5b60200260200101518a8281518110612ce157fe5b6020026020010181815250505b600101612b7d565b5050505b5050505b600101612a6c565b505093509350939050565b80516060908590806001600160401b0381118015612d2e57600080fd5b50604051908082528060200260200182016040528015612d58578160200160208202803683370190505b50604051630bcded8960e21b81529093506001600160a01b03831690632f37b62490612d8890899060040161c681565b60206040518083038186803b158015612da057600080fd5b505afa158015612db4573d6000803e3d6000fd5b505050506040513d601f19601f82011682018060405250810190612dd8919061b910565b1580612e5d5750604051630bcded8960e21b81526001600160a01b03831690632f37b62490612e0b90889060040161c681565b60206040518083038186803b158015612e2357600080fd5b505afa158015612e37573d6000803e3d6000fd5b505050506040513d601f19601f82011682018060405250810190612e5b919061b910565b155b15612e69575050611acf565b612e7161a59f565b60405163f8b2cb4f60e01b81526001600160a01b0384169063f8b2cb4f90612e9d908a9060040161c681565b60206040518083038186803b158015612eb557600080fd5b505afa158015612ec9573d6000803e3d6000fd5b505050506040513d601f19601f82011682018060405250810190612eed919061b92e565b815260405163f8b2cb4f60e01b81526001600160a01b0384169063f8b2cb4f90612f1b90899060040161c681565b60206040518083038186803b158015612f3357600080fd5b505afa158015612f47573d6000803e3d6000fd5b505050506040513d601f19601f82011682018060405250810190612f6b919061b92e565b6020820152604051634a46c67360e11b81526001600160a01b0384169063948d8ce690612f9c908a9060040161c681565b60206040518083038186803b158015612fb457600080fd5b505afa158015612fc8573d6000803e3d6000fd5b505050506040513d601f19601f82011682018060405250810190612fec919061b92e565b60408083019190915251634a46c67360e11b81526001600160a01b0384169063948d8ce69061301f90899060040161c681565b60206040518083038186803b15801561303757600080fd5b505afa15801561304b573d6000803e3d6000fd5b505050506040513d601f19601f8201168201806040525081019061306f919061b92e565b816060018181525050826001600160a01b031663d4cadf686040518163ffffffff1660e01b815260040160206040518083038186803b1580156130b157600080fd5b505afa1580156130c5573d6000803e3d6000fd5b505050506040513d601f19601f820116820180604052508101906130e9919061b92e565b608082015260005b82811015610e935761311c82602001516003670de0b6b3a76400008161311357fe5b04600101618436565b86828151811061312857fe5b6020026020010151111561313b57610e93565b836001600160a01b031663f8d6aed4620493e084600001518560400151866020015187606001518c888151811061316e57fe5b602002602001015189608001516040518863ffffffff1660e01b815260040161319c9695949392919061cc7d565b60206040518083038187803b1580156131b457600080fd5b5086fa935050505080156131e5575060408051601f3d908101601f191682019092526131e29181019061b92e565b60015b61321f573d808015613213576040519150601f19603f3d011682016040523d82523d6000602084013e613218565b606091505b5050610e93565b8251613237906002670de0b6b3a76400005b04618436565b8111156132445750610e93565b8086838151811061325157fe5b60200260200101818152505085828151811061326957fe5b60200260200101516000141561327f5750610e93565b506001016130f1565b60608060608061329786618493565b905060606132c588735555555555555555555555555555555555555556848960018b51038151811061298457fe5b905085516001600160401b03811180156132de57600080fd5b50604051908082528060200260200182016040528015613308578160200160208202803683370190505b50925085516001600160401b038111801561332257600080fd5b5060405190808252806020026020018201604052801561335657816020015b60608152602001906001900390816133415790505b50945085516001600160401b038111801561337057600080fd5b5060405190808252806020026020018201604052801561339a578160200160208202803683370190505b50935060005b8151811015613674576133b8828281518110612a8457fe5b6133c15761366c565b60606133d384848481518110612aac57fe5b604051630196e65d60e51b81529091506060908190735555555555555555555555555555555555555556906332dccba090613416908f9087908f9060040161c9c6565b60006040518083038186803b15801561342e57600080fd5b505afa92505050801561343f575060015b613668573d80801561346d576040519150601f19603f3d011682016040523d82523d6000602084013e613472565b606091505b50600061347e826183d4565b909550935090508061349457505050505061366c565b60005b8451811015613664578481815181106134ac57fe5b6020026020010151600014156134c157613664565b8981815181106134cd57fe5b60200260200101516000148061350857508481815181106134ea57fe5b60200260200101518a82815181106134fe57fe5b6020026020010151115b156135a65784818151811061351957fe5b60200260200101518a828151811061352d57fe5b60200260200101818152505061355e8e6135598a8a8151811061354c57fe5b602002602001015161852b565b618279565b8c828151811061356a57fe5b602002602001018190525083818151811061358157fe5b60200260200101518b828151811061359557fe5b60200260200101818152505061365c565b8481815181106135b257fe5b60200260200101518a82815181106135c657fe5b602002602001015114801561360057508381815181106135e257fe5b60200260200101518b82815181106135f657fe5b6020026020010151115b1561365c576136188e6135598a8a8151811061354c57fe5b8c828151811061362457fe5b602002602001018190525083818151811061363b57fe5b60200260200101518b828151811061364f57fe5b6020026020010181815250505b600101613497565b5050505b5050505b6001016133a0565b50505093509350939050565b6040805160608181019092526136e6908061369f86896080840161c6aa565b604051602081830303815290604052815260200186886040516020016136c692919061c6aa565b60405160208183030381529060405281526020016185c3815250836186d7565b95945050505050565b60606136fb8385617995565b84602001516001600160a01b0316846001600160a01b031614801561372c575084516001600160a01b038481169116145b15613738575080611acf565b6136e6858585856188e9565b6060613751848484611046565b905060005b84518110156111b15781818151811061376b57fe5b60200260200101516000146137f1576137d882828151811061378957fe5b602002602001015186838151811061379d57fe5b6020026020010151606001516001600160801b03168784815181106137be57fe5b6020026020010151604001516001600160801b0316618b35565b8282815181106137e457fe5b6020026020010181815250505b600101613756565b6060816001600160401b038111801561381157600080fd5b5060405190808252806020026020018201604052801561384b57816020015b61383861a5ce565b8152602001906001900390816138305790505b50905060005b80831461395357600182828151811061386657fe5b60209081029190910181015191151591015283838281811061388457fe5b9050602002810190613896919061cccc565b151590506138a35761394b565b308484838181106138b057fe5b90506020028101906138c2919061cccc565b6040516138d092919061c668565b6000604051808303816000865af19150503d806000811461390d576040519150601f19603f3d011682016040523d82523d6000602084013e613912565b606091505b5083838151811061391f57fe5b602002602001015160200184848151811061393657fe5b60209081029190910101519190915290151590525b600101613851565b5092915050565b606084602001516001600160a01b0316846001600160a01b031614801561398d575084516001600160a01b038481169116145b15613999575080611acf565b6136e6858486856188e9565b606081516001600160401b03811180156139be57600080fd5b506040519080825280602002602001820160405280156139e8578160200160208202803683370190505b50905060005b82518114613a91577f00000000000000000000000000000000000000000000000000000000000000006001600160a01b0316838281518110613a2c57fe5b60200260200101516001600160a01b031614613a6c57613a67838281518110613a5157fe5b60200260200101516001600160a01b0316618b59565b613a6f565b60125b60ff16828281518110613a7e57fe5b60209081029190910101526001016139ee565b50919050565b60006060809450945094915050565b8051606090806001600160401b0381118015613ac157600080fd5b50604051908082528060200260200182016040528015613aeb578160200160208202803683370190505b509150856001600160a01b0316856001600160a01b0316148015613b205750866001600160a01b0316846001600160a01b0316145b15613b2e57829150506136e6565b866001600160a01b0316856001600160a01b0316148015613b605750856001600160a01b0316846001600160a01b0316145b15613ba25760005b81811015613b98576001848281518110613b7e57fe5b602090810291909101018051919091039052600101613b68565b50829150506136e6565b5095945050505050565b60408051600280825260608083018452928392919060208301908036833701905050905083600181518110613bdd57fe5b602002602001015181600081518110613bf257fe5b60200260200101906001600160a01b031690816001600160a01b03168152505083600081518110613c1f57fe5b602002602001015181600181518110613c3457fe5b6001600160a01b03909216602092830291909101909101526040805160608101909152613cb19080613c6a88856080840161c81a565b60405160208183030381529060405281526020018787604051602001613c9192919061c81a565b6040516020818303038152906040528152602001618c05815250846186d7565b9150505b9392505050565b6060613cc88385617995565b6000856000015190506000816001600160a01b03166336569e776040518163ffffffff1660e01b815260040160206040518083038186803b158015613d0c57600080fd5b505afa158015613d20573d6000803e3d6000fd5b505050506040513d601f19601f82011682018060405250810190613d44919061b190565b8451909150806001600160401b0381118015613d5f57600080fd5b50604051908082528060200260200182016040528015613d89578160200160208202803683370190505b509350826001600160a01b031663f4b9fa756040518163ffffffff1660e01b815260040160206040518083038186803b158015613dc557600080fd5b505afa158015613dd9573d6000803e3d6000fd5b505050506040513d601f19601f82011682018060405250810190613dfd919061b190565b6001600160a01b0316866001600160a01b031614158015613ea05750826001600160a01b031663f4b9fa756040518163ffffffff1660e01b815260040160206040518083038186803b158015613e5257600080fd5b505afa158015613e66573d6000803e3d6000fd5b505050506040513d601f19601f82011682018060405250810190613e8a919061b190565b6001600160a01b0316876001600160a01b031614155b15613ead57505050611acf565b60005b81811015610e93576000613edb8a898b8a8681518110613ecc57fe5b60200260200101518989618d17565b905080613ee85750610e93565b80868381518110613ef557fe5b602090810291909101015250600101613eb0565b73eeeeeeeeeeeeeeeeeeeeeeeeeeeeeeeeeeeeeeee81565b8051606090806001600160401b0381118015613f3c57600080fd5b50604051908082528060200260200182016040528015613f66578160200160208202803683370190505b50915060005b8181101561201a57866001600160a01b031663e94803f48787878581518110613f9157fe5b60200260200101516040518463ffffffff1660e01b8152600401613fb79392919061c7f2565b60206040518083038186803b158015613fcf57600080fd5b505afa158015613fe3573d6000803e3d6000fd5b505050506040513d601f19601f82011682018060405250810190614007919061b92e565b83828151811061401357fe5b60200260200101818152505082818151811061402b57fe5b6020026020010151600014156140405761201a565b600101613f6c565b6040805160028082526060808301845292839291906020830190803683370190505090508360018151811061407957fe5b60200260200101518160008151811061408e57fe5b60200260200101906001600160a01b031690816001600160a01b031681525050836000815181106140bb57fe5b6020026020010151816001815181106140d057fe5b6001600160a01b0390921660209283029190910190910152604080516060810190915261415090806141078989866080850161c734565b60405160208183030381529060405281526020018888886040516020016141309392919061c734565b6040516020818303038152906040528152602001618fa9815250846186d7565b9695505050505050565b61416261a5e6565b61416a61a5e6565b6060836001600160401b038111801561418257600080fd5b506040519080825280602002602001820160405280156141ac578160200160208202803683370190505b5090506060846001600160401b03811180156141c757600080fd5b506040519080825280602002602001820160405280156141f1578160200160208202803683370190505b50905060005b87518110156143145760006060306001600160a01b03168a848151811061421a57fe5b602002602001015160405161422f919061c675565b6000604051808303816000865af19150503d806000811461426c576040519150601f19603f3d011682016040523d82523d6000602084013e614271565b606091505b5091509150811561430a576060614288828a6190c3565b90508460018a038151811061429957fe5b60200260200101518160018b03815181106142b057fe5b60200260200101511115614308578388526020880182905260005b89811015614306578181815181106142df57fe5b60200260200101518682815181106142f357fe5b60209081029190910101526001016142cb565b505b505b50506001016141f7565b5080600186038151811061432457fe5b60200260200101516000141561433a5750614477565b60005b8651811015612d065761436387828151811061435557fe5b602002602001015183619101565b60006060306001600160a01b031689848151811061437d57fe5b6020026020010151604051614392919061c675565b6000604051808303816000865af19150503d80600081146143cf576040519150601f19603f3d011682016040523d82523d6000602084013e6143d4565b606091505b5091509150811561446d5760606143eb828a6190c3565b90508560018a03815181106143fc57fe5b60200260200101518160018b038151811061441357fe5b6020026020010151111561446b578387526020870182905260005b898110156144695781818151811061444257fe5b602002602001015187828151811061445657fe5b602090810291909101015260010161442e565b505b505b505060010161433d565b93509350939050565b6000606061448e8486617995565b8251806001600160401b03811180156144a657600080fd5b506040519080825280602002602001820160405280156144d0578160200160208202803683370190505b5091506144df8787878761914c565b60408051600180825281830190925291945060609190816020015b61450261a600565b8152602001906001900390816144fa5790505090506040518060600160405280886001600160a01b03168152602001876001600160a01b031681526020018515158152508160008151811061455357fe5b602002602001018190525060005b828110156123c457886001600160a01b0316639881fcb487838151811061458457fe5b6020026020010151846040518363ffffffff1660e01b81526004016145aa92919061cc4f565b60006040518083038186803b1580156145c257600080fd5b505afa1580156145d6573d6000803e3d6000fd5b505050506040513d6000823e601f3d908101601f191682016040526145fe919081019061b87f565b60018151811061460a57fe5b602002602001015184828151811061461e57fe5b60200260200101818152505083818151811061463657fe5b60200260200101516000141561464b576123c4565b600101614561565b60408401516060906001600160e01b0319166146d55760408051606081019091526146ce908061468786896080840161caf3565b604051602081830303815290604052815260200186886040516020016146ae92919061caf3565b60405160208183030381529060405281526020016191e6815250836186d7565b9050611acf565b8151806001600160401b03811180156146ed57600080fd5b50604051908082528060200260200182016040528015614717578160200160208202803683370190505b50915060005b8181101561201a576000606088600001516001600160a01b0316621e84808a604001518a8a8a888151811061474e57fe5b60200260200101516040516024016147689392919061cad8565b60408051601f198184030181529181526020820180516001600160e01b03166001600160e01b03199094169390931790925290516147a6919061c675565b6000604051808303818686fa925050503d80600081146147e2576040519150601f19603f3d011682016040523d82523d6000602084013e6147e7565b606091505b50915091506000821561480b5781806020019051810190614808919061b92e565b90505b8086858151811061481857fe5b60200260200101818152505085848151811061483057fe5b6020026020010151600014156148485750505061201a565b50505060010161471d565b80516060908590806001600160401b038111801561487057600080fd5b5060405190808252806020026020018201604052801561489a578160200160208202803683370190505b50604051630bcded8960e21b81529093506001600160a01b03831690632f37b624906148ca90899060040161c681565b60206040518083038186803b1580156148e257600080fd5b505afa1580156148f6573d6000803e3d6000fd5b505050506040513d601f19601f8201168201806040525081019061491a919061b910565b158061499f5750604051630bcded8960e21b81526001600160a01b03831690632f37b6249061494d90889060040161c681565b60206040518083038186803b15801561496557600080fd5b505afa158015614979573d6000803e3d6000fd5b505050506040513d601f19601f8201168201806040525081019061499d919061b910565b155b156149ab575050611acf565b6149b361a59f565b60405163f8b2cb4f60e01b81526001600160a01b0384169063f8b2cb4f906149df908a9060040161c681565b60206040518083038186803b1580156149f757600080fd5b505afa158015614a0b573d6000803e3d6000fd5b505050506040513d601f19601f82011682018060405250810190614a2f919061b92e565b815260405163f8b2cb4f60e01b81526001600160a01b0384169063f8b2cb4f90614a5d90899060040161c681565b60206040518083038186803b158015614a7557600080fd5b505afa158015614a89573d6000803e3d6000fd5b505050506040513d601f19601f82011682018060405250810190614aad919061b92e565b6020820152604051634a46c67360e11b81526001600160a01b0384169063948d8ce690614ade908a9060040161c681565b60206040518083038186803b158015614af657600080fd5b505afa158015614b0a573d6000803e3d6000fd5b505050506040513d601f19601f82011682018060405250810190614b2e919061b92e565b60408083019190915251634a46c67360e11b81526001600160a01b0384169063948d8ce690614b6190899060040161c681565b60206040518083038186803b158015614b7957600080fd5b505afa158015614b8d573d6000803e3d6000fd5b505050506040513d601f19601f82011682018060405250810190614bb1919061b92e565b816060018181525050826001600160a01b031663d4cadf686040518163ffffffff1660e01b815260040160206040518083038186803b158015614bf357600080fd5b505afa158015614c07573d6000803e3d6000fd5b505050506040513d601f19601f82011682018060405250810190614c2b919061b92e565b608082015260005b82811015610e93578151614c51906002670de0b6b3a7640000613231565b868281518110614c5d57fe5b60200260200101511115614c7057610e93565b836001600160a01b031663ba9530a6620493e084600001518560400151866020015187606001518c8881518110614ca357fe5b602002602001015189608001516040518863ffffffff1660e01b8152600401614cd19695949392919061cc7d565b60206040518083038187803b158015614ce957600080fd5b5086fa93505050508015614d1a575060408051601f3d908101601f19168201909252614d179181019061b92e565b60015b614d48573d808015613213576040519150601f19603f3d011682016040523d82523d6000602084013e613218565b80868381518110614d5557fe5b602002602001018181525050858281518110614d6d57fe5b602002602001015160001415614d835750610e93565b50600101614c33565b60008083516003811115614d9c57fe5b1480614db45750600183516003811115614db257fe5b145b80614dca575060408401516001600160801b0316155b80614de0575060608401516001600160801b0316155b15614ded57506000613cb5565b614df561a620565b600080846001600160a01b0316631fb0979588886040518363ffffffff1660e01b8152600401614e2692919061cbb7565b60a06040518083038186803b158015614e3e57600080fd5b505afa158015614e52573d6000803e3d6000fd5b505050506040513d601f19601f82011682018060405250810190614e76919061bd50565b91945092509050600183602001516004811115614e8f57fe5b141580614e9a575080155b80614ead575086516001600160a01b0316155b15614ebe5760009350505050613cb5565b506001600160801b031695945050505050565b600080856001600160a01b031663901754d786866040518363ffffffff1660e01b8152600401614f0292919061c6aa565b60206040518083038186803b158015614f1a57600080fd5b505afa158015614f2e573d6000803e3d6000fd5b505050506040513d601f19601f82011682018060405250810190614f52919061b190565b90506001600160a01b038116614f6c576000915050611acf565b60006001600160a01b03861615614ffe576040516370a0823160e01b81526001600160a01b038716906370a0823190614fa990859060040161c681565b60206040518083038186803b158015614fc157600080fd5b505afa158015614fd5573d6000803e3d6000fd5b505050506040513d601f19601f82011682018060405250810190614ff9919061b92e565b61500a565b816001600160a01b0316315b90508381101561501f57600092505050611acf565b6040516303c2803f60e31b81526001600160a01b03831690631e1401f890620249f090615054908a908a908a9060040161c7f2565b60206040518083038187803b15801561506c57600080fd5b5086fa9350505050801561509d575060408051601f3d908101601f1916820190925261509a9181019061b92e565b60015b6150dd573d8080156150cb576040519150601f19603f3d011682016040523d82523d6000602084013e6150d0565b606091505b5060009350505050611acf565b9250611acf915050565b60606150f38385617995565b60208501516040805160028082526060828101909352816020016020820280368337019050509050858160008151811061512957fe5b60200260200101906001600160a01b031690816001600160a01b031681525050848160018151811061515757fe5b6001600160a01b03909216602092830291909101909101528351806001600160401b038111801561518757600080fd5b506040519080825280602002602001820160405280156151b1578160200160208202803683370190505b5093506151bc61a578565b6151c4617966565b905060005b828110156116ab5760606151e38b89848151811061158a57fe5b604051637c26833760e11b81529091506001600160a01b0387169063f84d066e906152199060019085908a90899060040161ca95565b600060405180830381600087803b15801561523357600080fd5b505af192505050801561526857506040513d6000823e601f3d908101601f19168201604052615265919081019061b7db565b60015b615296573d80801561164a576040519150601f19603f3d011682016040523d82523d6000602084013e61164f565b6000816000815181106152a557fe5b60200260200101519050600081136152bf575050506116ab565b808985815181106152cc57fe5b6020026020010181815250505050506001016151c9565b60008060606152f28587617995565b8351806001600160401b038111801561530a57600080fd5b50604051908082528060200260200182016040528015615334578160200160208202803683370190505b5091506153438989898961924d565b945092506001600160a01b03831661535b5750615415565b60005b818110156154125760006153cc8986886040516020016153809392919061c7a2565b6040516020818303038152906040528987896040516020016153a49392919061c7a2565b6040516020818303038152906040528985815181106153bf57fe5b60200260200101516193a2565b9050808483815181106153db57fe5b6020026020010181815250508382815181106153f357fe5b6020026020010151600014156154095750615412565b5060010161535e565b50505b955095509592505050565b8051606090806001600160401b038111801561543b57600080fd5b50604051908082528060200260200182016040528015615465578160200160208202803683370190505b5091506000866001600160a01b031663182df0f56040518163ffffffff1660e01b815260040160206040518083038186803b1580156154a357600080fd5b505afa1580156154b7573d6000803e3d6000fd5b505050506040513d601f19601f820116820180604052508101906154db919061b92e565b90506000876001600160a01b031663313ce5676040518163ffffffff1660e01b815260040160206040518083038186803b15801561551857600080fd5b505afa15801561552c573d6000803e3d6000fd5b505050506040513d601f19601f82011682018060405250810190615550919061bebc565b60ff169050876001600160a01b0316866001600160a01b031614156155c25760005b83811015610e20578282600a0a6402540be40088848151811061559157fe5b60200260200101510202816155a257fe5b048582815181106155af57fe5b6020908102919091010152600101615572565b876001600160a01b0316876001600160a01b03161415610e955760005b83811015610e935781600a0a6402540be40002838783815181106155ff57fe5b6020026020010151028161560f57fe5b0485828151811061561c57fe5b60209081029190910101526001016155df565b6000606061563d8486617995565b6156498685878661914c565b915061570f6040518060600160405280886040518060600160405280896001600160a01b031681526020018a6001600160a01b0316815260200187151581525060405160200161569a92919061ca43565b60405160208183030381529060405281526020018860405180606001604052808a6001600160a01b03168152602001896001600160a01b031681526020018715158152506040516020016156ef92919061ca43565b6040516020818303038152906040528152602001619494815250846186d7565b905094509492505050565b8051606090806001600160401b038111801561573557600080fd5b5060405190808252806020026020018201604052801561575f578160200160208202803683370190505b509150856001600160a01b0316856001600160a01b03161480156157945750866001600160a01b0316846001600160a01b0316145b156157a257829150506136e6565b866001600160a01b0316856001600160a01b03161480156157d45750856001600160a01b0316846001600160a01b0316145b15613ba25760005b81811015613b985760018482815181106157f257fe5b6020908102919091010180519190910390526001016157dc565b6000606061581a8486617995565b8251806001600160401b038111801561583257600080fd5b5060405190808252806020026020018201604052801561585c578160200160208202803683370190505b50915060005b818110156158d157600061588b89898989868151811061587e57fe5b6020026020010151614ed1565b90508084838151811061589a57fe5b6020026020010181815250508382815181106158b257fe5b6020026020010151600014156158c857506158d1565b50600101615862565b5060405163901754d760e01b81526001600160a01b0388169063901754d790615900908990899060040161c6aa565b60206040518083038186803b15801561591857600080fd5b505afa15801561592c573d6000803e3d6000fd5b505050506040513d601f19601f82011682018060405250810190615950919061b190565b92505094509492505050565b6040805160608181019092526136e6908061597b86896080840161c6aa565b604051602081830303815290604052815260200186886040516020016159a292919061c6aa565b60405160208183030381529060405281526020016195a9815250836186d7565b606082516001600160401b03811180156159db57600080fd5b50604051908082528060200260200182016040528015615a05578160200160208202803683370190505b50905060005b83518114613953577f00000000000000000000000000000000000000000000000000000000000000006001600160a01b0316848281518110615a4957fe5b60200260200101516001600160a01b031614615a9357615a8e83858381518110615a6f57fe5b60200260200101516001600160a01b03166195f090919063ffffffff16565b615a9f565b826001600160a01b0316315b828281518110615aab57fe5b6020908102919091010152600101615a0b565b6060615aca8385617995565b8151806001600160401b0381118015615ae257600080fd5b50604051908082528060200260200182016040528015615b0c578160200160208202803683370190505b50915060006001600160a01b03861615615b2f57615b2a8787617a66565b615b32565b60005b905060006001600160a01b03861615615b5457615b4f8887617a66565b615b57565b60005b905060005b83811015610e935760016001600160a01b038816615bad57615b8c846395b68fe760e01b89858151811061178657fe5b878481518110615b9857fe5b60200260200101819350828152505050615c47565b6001600160a01b038916615bd357615b8c8363cd7724c360e01b89858151811061178657fe5b6000615bed856395b68fe760e01b8a868151811061178657fe5b925090508015615c2a57615c098463cd7724c360e01b83617ae5565b888581518110615c1557fe5b60200260200101819450828152505050615c45565b6000878481518110615c3857fe5b6020026020010181815250505b505b801580615c675750858281518110615c5b57fe5b60200260200101516000145b15615c725750610e93565b50600101615b5c565b8051606090806001600160401b0381118015615c9657600080fd5b50604051908082528060200260200182016040528015615cc0578160200160208202803683370190505b50915060005b818110156122fd57856001600160a01b0316631f00ca74620249f0868481518110615ced57fe5b6020026020010151886040518463ffffffff1660e01b8152600401615d1392919061cc0d565b60006040518083038187803b158015615d2b57600080fd5b5086fa93505050508015615d6157506040513d6000823e601f3d908101601f19168201604052615d5e919081019061b87f565b60015b615d8f573d808015612296576040519150601f19603f3d011682016040523d82523d6000602084013e61229b565b80600081518110615d9c57fe5b6020026020010151848381518110615db057fe5b602002602001018181525050838281518110615dc857fe5b602002602001015160001415615dde57506122fd565b50600101615cc6565b60006060615df486617fc0565b8351909250806001600160401b0381118015615e0f57600080fd5b50604051908082528060200260200182016040528015615e39578160200160208202803683370190505b50915080615e475750615ef3565b615e678785600081518110615e5857fe5b602002602001015188886180ac565b82600081518110615e7457fe5b602090810291909101015260015b81811015615ef05784600081518110615e9757fe5b6020026020010151858281518110615eab57fe5b602002602001015184600081518110615ec057fe5b60200260200101510281615ed057fe5b04838281518110615edd57fe5b6020908102919091010152600101615e82565b50505b94509492505050565b8051606090806001600160401b0381118015615f1757600080fd5b50604051908082528060200260200182016040528015615f41578160200160208202803683370190505b509150615f4c61a578565b615f54617966565b905060005b82811015610e9557848181518110615f6d57fe5b602002602001015187600081518110615f8257fe5b602090810291909101015160600152604051637c26833760e11b81526001600160a01b0389169063f84d066e90615fc4906000908b908b90889060040161ca95565b600060405180830381600087803b158015615fde57600080fd5b505af192505050801561601357506040513d6000823e601f3d908101601f19168201604052616010919081019061b7db565b60015b61601c57610e95565b60008160018351038151811061602e57fe5b60200260200101516000190290506000811361604b575050610e95565b8086848151811061605857fe5b6020026020010181815250505050600101615f59565b600080606061607d8587617995565b8351806001600160401b038111801561609557600080fd5b506040519080825280602002602001820160405280156160bf578160200160208202803683370190505b5091506160ce8989898961924d565b945092506001600160a01b0383166160e65750615415565b604080516060810190915261614f9080616106898789156080850161c7a2565b604051602081830303815290604052815260200189868860405160200161612f9392919061c7a2565b60405160208183030381529060405281526020016193a2815250866186d7565b915050955095509592505050565b80516060908190806001600160401b038111801561617a57600080fd5b506040519080825280602002602001820160405280156161a4578160200160208202803683370190505b509150806001600160401b03811180156161bd57600080fd5b506040519080825280602002602001820160405280156161e7578160200160208202803683370190505b509250876001600160a01b0316866001600160a01b031614801561621c5750866001600160a01b0316856001600160a01b0316145b806162545750866001600160a01b0316866001600160a01b03161480156162545750876001600160a01b0316856001600160a01b0316145b15616416578391506001600160a01b0389166162705750616418565b8860005b8281101561641357896001600160a01b0316876001600160a01b0316141561634757816001600160a01b031663b76398e4898884815181106162b257fe5b602002602001015160006040518463ffffffff1660e01b81526004016162da9392919061c89c565b60206040518083038186803b1580156162f257600080fd5b505afa158015616306573d6000803e3d6000fd5b505050506040513d601f19601f8201168201806040525081019061632a919061b92e565b85828151811061633657fe5b60200260200101818152505061640b565b896001600160a01b0316886001600160a01b0316141561640b57816001600160a01b0316635cc7bc108888848151811061637d57fe5b60200260200101516040518363ffffffff1660e01b81526004016163a292919061c88e565b60206040518083038186803b1580156163ba57600080fd5b505afa1580156163ce573d6000803e3d6000fd5b505050506040513d601f19601f820116820180604052508101906163f2919061b92e565b8582815181106163fe57fe5b6020026020010181815250505b600101616274565b50505b505b965096945050505050565b60008060606164328587617995565b8351806001600160401b038111801561644a57600080fd5b50604051908082528060200260200182016040528015616474578160200160208202803683370190505b508851604051630939d86360e11b81529193506001600160a01b031690631273b0c6906164a7908a908a9060040161c6aa565b60206040518083038186803b1580156164bf57600080fd5b505afa1580156164d3573d6000803e3d6000fd5b505050506040513d601f19601f820116820180604052508101906164f7919061b190565b925060006001600160a01b03841615616515575060019350866165b4565b8851604051630939d86360e11b81526001600160a01b0390911690631273b0c690616546908a908c9060040161c6aa565b60206040518083038186803b15801561655e57600080fd5b505afa158015616572573d6000803e3d6000fd5b505050506040513d601f19601f82011682018060405250810190616596919061b190565b93506001600160a01b0384166165ad57505061130f565b5060009350855b836001600160a01b031663dd58b41c6040518163ffffffff1660e01b815260040160206040518083038186803b1580156165ed57600080fd5b505afa158015616601573d6000803e3d6000fd5b505050506040513d601f19601f82011682018060405250810190616625919061b910565b61663057505061130f565b6166a860405180606001604052808987858e60200151604051602001616659949392919061c6c5565b60405160208183030381529060405281526020018a87858e60200151604051602001616688949392919061c6c5565b6040516020818303038152906040528152602001617e87815250876186d7565b925050509450945094915050565b80516060908190806001600160401b03811180156166d357600080fd5b506040519080825280602002602001820160405280156166fd578160200160208202803683370190505b509150806001600160401b038111801561671657600080fd5b50604051908082528060200260200182016040528015616740578160200160208202803683370190505b509250876001600160a01b0316866001600160a01b03161480156167755750866001600160a01b0316856001600160a01b0316145b806167ad5750866001600160a01b0316866001600160a01b03161480156167ad5750876001600160a01b0316856001600160a01b0316145b15616416578391506001600160a01b0389166167c95750616418565b8860005b8281101561641357896001600160a01b0316876001600160a01b031614156168a057816001600160a01b031663b76398e48986848151811061680b57fe5b602002602001015160006040518463ffffffff1660e01b81526004016168339392919061c89c565b60206040518083038186803b15801561684b57600080fd5b505afa15801561685f573d6000803e3d6000fd5b505050506040513d601f19601f82011682018060405250810190616883919061b92e565b85828151811061688f57fe5b602002602001018181525050616964565b896001600160a01b0316886001600160a01b0316141561696457816001600160a01b0316635cc7bc10888684815181106168d657fe5b60200260200101516040518363ffffffff1660e01b81526004016168fb92919061c88e565b60206040518083038186803b15801561691357600080fd5b505afa158015616927573d6000803e3d6000fd5b505050506040513d601f19601f8201168201806040525081019061694b919061b92e565b85828151811061695757fe5b6020026020010181815250505b6001016167cd565b8051604080516060818101909252909190614150908061699189888a6080850161c9e6565b60405160208183030381529060405281526020018888886040516020016169ba9392919061c9e6565b60405160208183030381529060405281526020016196ba815250846186d7565b606083516001600160401b03811180156169f357600080fd5b50604051908082528060200260200182016040528015616a1d578160200160208202803683370190505b50905060005b845181146111b1577f00000000000000000000000000000000000000000000000000000000000000006001600160a01b0316858281518110616a6157fe5b60200260200101516001600160a01b031614616aad57616aa88484878481518110616a8857fe5b60200260200101516001600160a01b03166197079092919063ffffffff16565b616ab0565b60005b828281518110616abc57fe5b6020908102919091010152600101616a23565b8051606090806001600160401b0381118015616aea57600080fd5b50604051908082528060200260200182016040528015616b14578160200160208202803683370190505b50915060005b8181101561201a57866001600160a01b031663838e6a22620493e08888888681518110616b4357fe5b60200260200101516040518563ffffffff1660e01b8152600401616b699392919061c7f2565b60206040518083038187803b158015616b8157600080fd5b5086fa93505050508015616bb2575060408051601f3d908101601f19168201909252616baf9181019061b92e565b60015b616be0573d808015611fca576040519150601f19603f3d011682016040523d82523d6000602084013e611fcf565b80848381518110616bed57fe5b60200260200101818152505050600101616b1a565b60006060616c108486617995565b8251806001600160401b0381118015616c2857600080fd5b50604051908082528060200260200182016040528015616c52578160200160208202803683370190505b509150616cbd60405180606001604052808988604051602001616c7692919061c6aa565b60405160208183030381529060405281526020018989604051602001616c9d92919061c6aa565b60405160208183030381529060405281526020016197d3815250856186d7565b60405163901754d760e01b81529092506001600160a01b0388169063901754d790615900908990899060040161c6aa565b8051606090806001600160401b0381118015616d0957600080fd5b50604051908082528060200260200182016040528015616d33578160200160208202803683370190505b50915060005b818110156122fd57856001600160a01b03166343c2e2f586600081518110616d5d57fe5b602002602001015187600181518110616d7257fe5b6020026020010151878581518110616d8657fe5b60200260200101516040518463ffffffff1660e01b8152600401616dac9392919061c7f2565b604080518083038186803b158015616dc357600080fd5b505afa925050508015616df3575060408051601f3d908101601f19168201909252616df09181019061bde1565b60015b616e21573d808015612296576040519150601f19603f3d011682016040523d82523d6000602084013e61229b565b81858481518110616e2e57fe5b602002602001018181525050848381518110616e4657fe5b602002602001015160001415616e5d5750506122fd565b5050600101616d39565b8051606090806001600160401b0381118015616e8257600080fd5b50604051908082528060200260200182016040528015616eac578160200160208202803683370190505b509150856001600160a01b031684600081518110616ec657fe5b60200260200101516001600160a01b03161415616f205773eeeeeeeeeeeeeeeeeeeeeeeeeeeeeeeeeeeeeeee84600081518110616eff57fe5b60200260200101906001600160a01b031690816001600160a01b0316815250505b856001600160a01b031684600181518110616f3757fe5b60200260200101516001600160a01b03161415616f915773eeeeeeeeeeeeeeeeeeeeeeeeeeeeeeeeeeeeeeee84600181518110616f7057fe5b60200260200101906001600160a01b031690816001600160a01b0316815250505b60005b8181101561201a57856001600160a01b0316636e1a20be86600081518110616fb857fe5b602002602001015187600181518110616fcd57fe5b6020026020010151878581518110616fe157fe5b60200260200101516040518463ffffffff1660e01b81526004016170079392919061c7f2565b60206040518083038186803b15801561701f57600080fd5b505afa92505050801561704f575060408051601f3d908101601f1916820190925261704c9181019061b92e565b60015b61707d573d808015611fca576040519150601f19603f3d011682016040523d82523d6000602084013e611fcf565b8084838151811061708a57fe5b6020026020010181815250508382815181106170a257fe5b6020026020010151600014156170b8575061201a565b50600101616f94565b6170c961a5e6565b6170d161a5e6565b6060836001600160401b03811180156170e957600080fd5b50604051908082528060200260200182016040528015617113578160200160208202803683370190505b50905060005b848110156171435760001982828151811061713057fe5b6020908102919091010152600101617119565b506060846001600160401b038111801561715c57600080fd5b50604051908082528060200260200182016040528015617186578160200160208202803683370190505b50905060005b858110156171b6576000198282815181106171a357fe5b602090810291909101015260010161718c565b5060005b86518110156172e95760006060306001600160a01b03168984815181106171dd57fe5b60200260200101516040516171f2919061c675565b6000604051808303816000865af19150503d806000811461722f576040519150601f19603f3d011682016040523d82523d6000602084013e617234565b606091505b509150915081156172df57606061724b828a6190c3565b905060008160018b038151811061725e57fe5b6020026020010151905060008111801561728d57508560018b038151811061728257fe5b602002602001015181105b156172dc578488526020880183905260005b8a8110156172da578281815181106172b357fe5b60200260200101518782815181106172c757fe5b602090810291909101015260010161729f565b505b50505b50506001016171ba565b506000198160018703815181106172fc57fe5b602002602001015114156173105750614477565b60005b87518114612d065761732a88828151811061435557fe5b60006060306001600160a01b03168a848151811061734457fe5b6020026020010151604051617359919061c675565b6000604051808303816000865af19150503d8060008114617396576040519150601f19603f3d011682016040523d82523d6000602084013e61739b565b606091505b509150915081156174465760606173b2828a6190c3565b905060008160018b03815181106173c557fe5b602002602001015190506000811180156173f457508660018b03815181106173e957fe5b602002602001015181105b15617443578489526020890183905260005b8a8110156174415782818151811061741a57fe5b602002602001015188828151811061742e57fe5b6020908102919091010152600101617406565b505b50505b5050600101617313565b60606000836001600160a01b031663c45a01556040518163ffffffff1660e01b815260040160206040518083038186803b15801561748d57600080fd5b505afa1580156174a1573d6000803e3d6000fd5b505050506040513d601f19601f820116820180604052508101906174c5919061b190565b905060018351036001600160401b03811180156174e157600080fd5b5060405190808252806020026020018201604052801561750b578160200160208202803683370190505b50915060005b8251811015617737576060826001600160a01b0316635b1dc86f620249f087858151811061753b57fe5b602002602001015188866001018151811061755257fe5b60200260200101516040518463ffffffff1660e01b815260040161757792919061c6aa565b60006040518083038187803b15801561758f57600080fd5b5086fa935050505080156175c557506040513d6000823e601f3d908101601f191682016040526175c2919081019061b623565b60015b617633573d8080156175f3576040519150601f19603f3d011682016040523d82523d6000602084013e6175f8565b606091505b506000805b50604051908082528060200260200182016040528015617627578160200160208202803683370190505b5094505050505061773a565b8051617641576000806175fd565b6000805b825181101561772b57600083828151811061765c57fe5b60200260200101516001600160a01b03166318160ddd6040518163ffffffff1660e01b815260040160206040518083038186803b15801561769c57600080fd5b505afa1580156176b0573d6000803e3d6000fd5b505050506040513d601f19601f820116820180604052508101906176d4919061b92e565b905082811115617722578092508382815181106176ed57fe5b602002602001015188878151811061770157fe5b60200260200101906001600160a01b031690816001600160a01b0316815250505b50600101617645565b50505050600101617511565b50505b92915050565b6000606085600001516001600160a01b03166321f8a72187600001516001600160a01b0316639232494e6040518163ffffffff1660e01b815260040160206040518083038186803b15801561779457600080fd5b505afa1580156177a8573d6000803e3d6000fd5b505050506040513d601f19601f820116820180604052508101906177cc919061b92e565b6040518263ffffffff1660e01b81526004016177e8919061c9aa565b60206040518083038186803b15801561780057600080fd5b505afa158015617814573d6000803e3d6000fd5b505050506040513d601f19601f82011682018060405250810190617838919061b190565b91508560200151516000141561784d57615ef3565b6000805b876020015151811015615ef05760028860200151828151811061787057fe5b60200260200101515110156178845761795e565b836001600160a01b0316637f9c0ecd620493e08a6020015184815181106178a757fe5b60200260200101518860018a5103815181106178bf57fe5b60200260200101516040518463ffffffff1660e01b81526004016178e492919061c8e9565b60206040518083038187803b1580156178fc57600080fd5b5086fa9350505050801561792d575060408051601f3d908101601f1916820190925261792a9181019061b92e565b60015b6179365761795e565b8281111561795c578092508860200151828151811061795157fe5b602002602001015193505b505b600101617851565b61796e61a578565b50604080516080810182523080825260006020830181905292820152606081019190915290565b806001600160a01b0316826001600160a01b031614156179d05760405162461bcd60e51b81526004016179c79061cb0e565b60405180910390fd5b5050565b604080516001808252818301909252606091829190816020015b6179f661a642565b8152602001906001900390816179ee5790505090506040518060a001604052808560000151815260200160008152602001600181526020018481526020016040518060200160405280600081525081525081600081518110617a5457fe5b60209081029190910101529392505050565b6040516303795fb160e11b81526000906001600160a01b038416906306f2bf6290617a9590859060040161c681565b60206040518083038186803b158015617aad57600080fd5b505afa158015617ac1573d6000803e3d6000fd5b505050506040513d601f19601f82011682018060405250810190613cb5919061b190565b6000806001600160a01b038516617afb5761103e565b6060856001600160a01b0316620249f08686604051602401617b1d919061c9aa565b60408051601f198184030181529181526020820180516001600160e01b03166001600160e01b0319909416939093179092529051617b5b919061c675565b6000604051808303818686fa925050503d8060008114617b97576040519150601f19603f3d011682016040523d82523d6000602084013e617b9c565b606091505b5090925090508115617bbf5780806020019051810190617bbc919061b92e565b92505b50935093915050565b600080600080846001600160a01b031663d9638d368b602001516040518263ffffffff1660e01b8152600401617bfe919061c9aa565b60a06040518083038186803b158015617c1657600080fd5b505afa158015617c2a573d6000803e3d6000fd5b505050506040513d601f19601f82011682018060405250810190617c4e919061be54565b94509450505092506000620f424090508a604001516001600160a01b0316896001600160a01b03161415617d76576000617c8d8964e8d4a51000619823565b90506000617cb16b033b2e3c9fd0803ce8000000617cab8885619859565b90619823565b9050848110617cc95760009650505050505050614150565b6000617d58670de0b6b3a7640000617d528c6001600160a01b031663568d4b6f6040518163ffffffff1660e01b815260040160206040518083038186803b158015617d1357600080fd5b505afa158015617d27573d6000803e3d6000fd5b505050506040513d601f19601f82011682018060405250810190617d4b919061b92e565b8690619823565b90619875565b90506000617d66848361989f565b9850614150975050505050505050565b8a604001516001600160a01b03168a6001600160a01b03161415617e76578784811115617dab57600095505050505050614150565b6000617dc76b033b2e3c9fd0803ce8000000617cab888561989f565b9050838111617ddf5760009650505050505050614150565b6000617e648a6001600160a01b031663fae036d56040518163ffffffff1660e01b815260040160206040518083038186803b158015617e1d57600080fd5b505afa158015617e31573d6000803e3d6000fd5b505050506040513d601f19601f82011682018060405250810190617e55919061b92e565b670de0b6b3a764000090619859565b90506000617d6682617d528688619823565b5060009a9950505050505050505050565b600080600080600087806020019051810190617ea3919061b1e8565b9350935093509350816001600160a01b0316846001600160a01b03161415617f8d576040516351400f0b60e11b81526001600160a01b0384169063a2801e1690620493e090617ef6908a9060040161c9aa565b60206040518083038187803b158015617f0e57600080fd5b5086fa93505050508015617f3f575060408051601f3d908101601f19168201909252617f3c9181019061b92e565b60015b617f81573d808015617f6d576040519150601f19603f3d011682016040523d82523d6000602084013e617f72565b606091505b50600095505050505050613cb5565b9450613cb59350505050565b60405163ca19ebd960e01b81526001600160a01b0382169063ca19ebd990620493e090617ef69087908b9060040161c88e565b6000816001600160a01b031663d4b839926040518163ffffffff1660e01b815260040160206040518083038186803b158015617ffb57600080fd5b505afa15801561800f573d6000803e3d6000fd5b505050506040513d601f19601f82011682018060405250810190618033919061b190565b6001600160a01b03166321f8a7216040518163ffffffff1660e01b815260040161805c9061cb2b565b60206040518083038186803b15801561807457600080fd5b505afa158015618088573d6000803e3d6000fd5b505050506040513d601f19601f8201168201806040525081019061773a919061b190565b6000806180b8866198be565b905046600181141561814f5760405163dc703e7360e01b81526001600160a01b0383169063dc703e73906180f49089908990899060040161cc6f565b60606040518083038186803b15801561810c57600080fd5b505afa158015618120573d6000803e3d6000fd5b505050506040513d601f19601f82011682018060405250810190618144919061be11565b5090935061201a9050565b604051633d142a8d60e21b81526001600160a01b0383169063f450aa349061817f9089908990899060040161cc6f565b60606040518083038186803b15801561819757600080fd5b505afa1580156181ab573d6000803e3d6000fd5b505050506040513d601f19601f820116820180604052508101906181cf919061be11565b509098975050505050505050565b60608251600214156181f5576146ce8585858561995a565b82516003141561820b576146ce85858585619aac565b60405162461bcd60e51b81526004016179c79061cb38565b6000805b82518110156182705760006001600160a01b031683828151811061824757fe5b60200260200101516001600160a01b0316141561826857600091505061131e565b600101618227565b50600192915050565b60606002835110158015618291575081516001018351145b6182ad5760405162461bcd60e51b81526004016179c79061cb48565b81516003028351601402016001600160401b03811180156182cd57600080fd5b506040519080825280601f01601f1916602001820160405280156182f8576020820181803683370190505b5090506020810160005b84518110156177375780156183a757600084600183038151811061832257fe5b60200260200101516001600160a01b031663ddca3f436040518163ffffffff1660e01b815260040160206040518083038186803b15801561836257600080fd5b505afa158015618376573d6000803e3d6000fd5b505050506040513d601f19601f8201168201806040525081019061839a919061bd93565b60e81b8352506003909101905b60008582815181106183b557fe5b602090810291909101015160601b835250601490910190600101618302565b602081015160009060609081906001600160e01b03198116631577da3360e01b1461840357600093505061842f565b8451600319810160048701908152956184249181016020019060240161b8b3565b600195509093509150505b9193909250565b6000828202831580159061845357508284828161844f57fe5b0414155b1561846257600091505061773a565b6706f05b59d3b200008101818110156184805760009250505061773a565b670de0b6b3a76400009004949350505050565b606081516001600160401b03811180156184ac57600080fd5b506040519080825280602002602001820160405280156184d6578160200160208202803683370190505b50905060005b8251811015613a91578260018285510303815181106184f757fe5b602002602001015182828151811061850b57fe5b6001600160a01b03909216602092830291909101909101526001016184dc565b606081516001600160401b038111801561854457600080fd5b5060405190808252806020026020018201604052801561856e578160200160208202803683370190505b50905060005b8251811015613a915782600182855103038151811061858f57fe5b60200260200101518282815181106185a357fe5b6001600160a01b0390921660209283029190910190910152600101618574565b6000806000858060200190518101906185dc919061b1ae565b915091506000858060200190518101906185f6919061b190565b90503063e8e4af0983858461860a8a619cf0565b6040518563ffffffff1660e01b8152600401618629949392919061c6fa565b60006040518083038186803b15801561864157600080fd5b505afa92505050801561867657506040513d6000823e601f3d908101601f19168201604052618673919081019061b87f565b60015b6186b7573d8080156186a4576040519150601f19603f3d011682016040523d82523d6000602084013e6186a9565b606091505b506000945050505050613cb5565b806000815181106186c457fe5b6020026020010151945050505050613cb5565b606081516001600160401b03811180156186f057600080fd5b5060405190808252806020026020018201604052801561871a578160200160208202803683370190505b50905081516000141561872c5761773a565b600061875d846000015185602001518560008151811061874857fe5b6020026020010151876040015163ffffffff16565b90508061876a575061773a565b60006187878560200151866000015184886040015163ffffffff16565b90508061879557505061773a565b60005b84518110156188e0576000805b6005811015618889576187cc8784815181106187bd57fe5b60200260200101518587619d31565b9450846187d857618889565b6187e761271561271087619d31565b9450846187f357618889565b600061881089602001518a60000151888c6040015163ffffffff16565b90508061881d5750618889565b80945087848151811061882c57fe5b602002602001015185106188805787848151811061884657fe5b602002602001015161271089868151811061885d57fe5b60200260200101518703028161886f57fe5b049250600583116188805750618889565b506001016187a5565b508015806188975750600581115b156188a257506188e0565b6188c08683815181106188b157fe5b60200260200101518486619d31565b8583815181106188cc57fe5b602090810291909101015250600101618798565b50505092915050565b604084015181516060919082816001600160401b038111801561890b57600080fd5b50604051908082528060200260200182016040528015618935578160200160208202803683370190505b50905087600001516001600160a01b0316876001600160a01b0316148015618972575087604001516001600160a01b0316866001600160a01b0316145b15618a3b5760005b82811015618a3057836001600160a01b031663b0e3890087838151811061899d57fe5b60200260200101516040518263ffffffff1660e01b81526004016189c1919061c9aa565b60206040518083038186803b1580156189d957600080fd5b505afa1580156189ed573d6000803e3d6000fd5b505050506040513d601f19601f82011682018060405250810190618a11919061b92e565b828281518110618a1d57fe5b602090810291909101015260010161897a565b509250611acf915050565b87604001516001600160a01b0316876001600160a01b0316148015618a6c575087516001600160a01b038781169116145b15618b2a5760005b82811015618a3057836001600160a01b031663bb2952fc878381518110618a9757fe5b60200260200101516040518263ffffffff1660e01b8152600401618abb919061c9aa565b60206040518083038186803b158015618ad357600080fd5b505afa158015618ae7573d6000803e3d6000fd5b505050506040513d601f19601f82011682018060405250810190618b0b919061b92e565b828281518110618b1757fe5b6020908102919091010152600101618a74565b979650505050505050565b6000611acf83617d52618b4982600161989f565b618b538887619823565b90619859565b60006012905060006060836001600160a01b031660405180604001604052806004815260200163313ce56760e01b815250604051618b97919061c675565b600060405180830381855afa9150503d8060008114618bd2576040519150601f19603f3d011682016040523d82523d6000602084013e618bd7565b606091505b5091509150818015618beb57506020815110155b15618bfe57618bfb816000619d89565b92505b5050919050565b600080606085806020019051810190618c1e919061b2f0565b90925090506000606030637b6b3ca560e11b8585618c3b8a619cf0565b604051602401618c4d9392919061c83a565b60408051601f198184030181529181526020820180516001600160e01b03166001600160e01b0319909416939093179092529051618c8b919061c675565b600060405180830381855afa9150503d8060008114618cc6576040519150601f19603f3d011682016040523d82523d6000602084013e618ccb565b606091505b509150915081618ce2576000945050505050613cb5565b80806020019051810190618cf6919061b87f565b600081518110618d0257fe5b60200260200101519450505050509392505050565b600080600080846001600160a01b031663d9638d368b602001516040518263ffffffff1660e01b8152600401618d4d919061c9aa565b60a06040518083038186803b158015618d6557600080fd5b505afa158015618d79573d6000803e3d6000fd5b505050506040513d601f19601f82011682018060405250810190618d9d919061be54565b945094505050925089604001516001600160a01b0316886001600160a01b03161415618eb45760008790506000618e4d886001600160a01b031663568d4b6f6040518163ffffffff1660e01b815260040160206040518083038186803b158015618e0657600080fd5b505afa158015618e1a573d6000803e3d6000fd5b505050506040513d601f19601f82011682018060405250810190618e3e919061b92e565b670de0b6b3a76400009061989f565b90506000618e6782617d5285670de0b6b3a7640000619823565b90506000618e856b033b2e3c9fd0803ce8000000617cab8985619859565b9050858110618e9e576000975050505050505050614150565b6000617d666001618b538564e8d4a51000619875565b89604001516001600160a01b0316896001600160a01b03161415618f99576000618ee38864e8d4a51000619823565b90506000618f23886001600160a01b031663fae036d56040518163ffffffff1660e01b815260040160206040518083038186803b158015617e1d57600080fd5b90506000618f3d670de0b6b3a7640000617d528585619823565b905085811115618f565760009650505050505050614150565b6000618f726b033b2e3c9fd0803ce8000000617cab898561989f565b9050848111618f8b576000975050505050505050614150565b509550614150945050505050565b5060009998505050505050505050565b6000806000606086806020019051810190618fc4919061b249565b919450925090506000606030634092e6b160e01b868686618fe48c619cf0565b604051602401618ff7949392919061c761565b60408051601f198184030181529181526020820180516001600160e01b03166001600160e01b0319909416939093179092529051619035919061c675565b600060405180830381855afa9150503d8060008114619070576040519150601f19603f3d011682016040523d82523d6000602084013e619075565b606091505b50915091508161908d57600095505050505050613cb5565b808060200190518101906190a1919061b87f565b6000815181106190ad57fe5b6020026020010151955050505050509392505050565b815160609060206002840102810390826190de868484619d95565b90506190ed8160006020619e2b565b80806020019051810190614150919061b87f565b60005b8151811015619147576000600182845103036020028451039050600083838151811061912c57fe5b60209081029190910101519185019190915250600101619104565b505050565b80516000906001600160a01b038616635e1e632584600019840184811061916f57fe5b602002602001015187876040518463ffffffff1660e01b81526004016191979392919061cbff565b604080518083038186803b1580156191ae57600080fd5b505afa1580156191c2573d6000803e3d6000fd5b505050506040513d601f19601f82011682018060405250810190618b2a919061bdb1565b6000806191f161a600565b85806020019051810190619205919061bb5a565b9150915060008580602001905181019061921f919061bb3c565b9050600060603063205e01d760e11b85878661923a8c619cf0565b604051602401618ff7949392919061cb58565b6000806060866001600160a01b03166357a281dc86866040518363ffffffff1660e01b815260040161928092919061c6aa565b60006040518083038186803b15801561929857600080fd5b505afa1580156192ac573d6000803e3d6000fd5b505050506040513d6000823e601f3d908101601f191682016040526192d4919081019061b623565b90506001915080516000141561936d576040516315e8a07760e21b81526001600160a01b038816906357a281dc90619312908790899060040161c6aa565b60006040518083038186803b15801561932a57600080fd5b505afa15801561933e573d6000803e3d6000fd5b505050506040513d6000823e601f3d908101601f19168201604052619366919081019061b623565b9050600091505b80518610619382576000809250925050615ef3565b80868151811061938e57fe5b602002602001015192505094509492505050565b600080600080868060200190518101906193bc919061b2ad565b925092509250801561946057604051633cd0243b60e11b81526001600160a01b038316906379a0487690620493e0906193fc906000908a9060040161c68f565b604080518083038187803b15801561941357600080fd5b5086fa93505050508015619444575060408051601f3d908101601f191682019092526194419181019061bde1565b60015b6194545760009350505050613cb5565b509350613cb592505050565b6040516366410a2160e01b81526001600160a01b038316906366410a2190620493e0906193fc906000908a9060040161c68f565b60008061949f61a600565b858060200190518101906194b3919061bac9565b60408051600180825281830190925292945090925060609190816020015b6194d961a600565b8152602001906001900390816194d157905050905081816000815181106194fc57fe5b60209081029190910101526040516326207f2d60e21b81526001600160a01b03841690639881fcb490619535908890859060040161cc4f565b60006040518083038186803b15801561954d57600080fd5b505afa158015619561573d6000803e3d6000fd5b505050506040513d6000823e601f3d908101601f19168201604052619589919081019061b87f565b60018151811061959557fe5b602002602001015193505050509392505050565b6000806000858060200190518101906195c2919061b1ae565b915091506000858060200190518101906195dc919061b190565b9050306330d6570d83858461860a8a619cf0565b6000806060846001600160a01b03166370a0823160e01b85604051602401619618919061c681565b60408051601f198184030181529181526020820180516001600160e01b03166001600160e01b0319909416939093179092529051619656919061c675565b600060405180830381855afa9150503d8060008114619691576040519150601f19603f3d011682016040523d82523d6000602084013e619696565b606091505b50915091508180156196aa57506020815110155b15617737576136e6816000619d89565b600080600080868060200190518101906196d4919061baf9565b91945092509050600060603063849489a160e01b8686866196f48c619cf0565b604051602401618ff7949392919061ca5e565b6000806060856001600160a01b031663dd62ed3e60e01b868660405160240161973192919061c6aa565b60408051601f198184030181529181526020820180516001600160e01b03166001600160e01b031990941693909317909252905161976f919061c675565b600060405180830381855afa9150503d80600081146197aa576040519150601f19603f3d011682016040523d82523d6000602084013e6197af565b606091505b50915091508180156197c357506020815110155b156122fd57614150816000619d89565b6000806000858060200190518101906197ec919061b1ae565b9150915060008086806020019051810190619807919061b1ae565b9150915061981784848389614ed1565b98975050505050505050565b6000826198325750600061773a565b8282028284828161983f57fe5b0414613cb557613cb561985460018686619e36565b619e90565b600082820183811015613cb557613cb561985460008686619e36565b60008161988b5761988b61985460038585619e36565b600082848161989657fe5b04949350505050565b6000828211156198b8576198b861985460028585619e36565b50900390565b6000816001600160a01b031663d4b839926040518163ffffffff1660e01b815260040160206040518083038186803b1580156198f957600080fd5b505afa15801561990d573d6000803e3d6000fd5b505050506040513d601f19601f82011682018060405250810190619931919061b190565b6001600160a01b03166321f8a7216040518163ffffffff1660e01b815260040161805c9061cb1e565b6040805160028082526060828101909352816020015b606081526020019060019003908161997057905050905061998f61a674565b619a0a6040518060a00160405280886001600160a01b03168152602001876001600160a01b03168152602001866000815181106199c857fe5b60200260200101516001600160a01b03168152602001866001815181106199eb57fe5b60200260200101516001600160a01b0316815260200185815250619e98565b5090506000805b6002811015610e95576000838260028110619a2857fe5b602002015160408051600180825281830190925291925081602001602082028036833701905050858481518110619a5b57fe5b602002602001018190525080858481518110619a7357fe5b6020026020010151600081518110619a8757fe5b6001600160a01b03909216602092830291909101909101525060019182019101619a11565b60408051600480825260a08201909252606091816020015b6060815260200190600190039081619ac4579050509050619ae361a674565b619aeb61a674565b619b666040518060a00160405280896001600160a01b03168152602001886001600160a01b0316815260200187600081518110619b2457fe5b60200260200101516001600160a01b0316815260200187600181518110619b4757fe5b60200260200101516001600160a01b0316815260200186815250619e98565b91509150619b7261a674565b619bfd6040518060a001604052808a6001600160a01b03168152602001896001600160a01b0316815260200188600181518110619bab57fe5b60200260200101516001600160a01b0316815260200188600281518110619bce57fe5b60200260200101516001600160a01b0316815260200184600060028110619bf157fe5b60200201519052619e98565b5090506000805b60028110156116ab5760005b6002811015619ce757604080516002808252606082018352909160208301908036833701905050878481518110619c4357fe5b60200260200101819052506060878481518110619c5c57fe5b60200260200101519050868360028110619c7257fe5b602002015181600081518110619c8457fe5b60200260200101906001600160a01b031690816001600160a01b031681525050848260028110619cb057fe5b602002015181600181518110619cc257fe5b6001600160a01b03909216602092830291909101909101525060019283019201619c10565b50600101619c04565b604080516001808252818301909252606091602080830190803683370190505090508181600081518110619d2057fe5b602002602001018181525050919050565b6000831580619d3e575081155b80619d47575082155b15619d5457506000613cb5565b83820282858281619d6157fe5b0414619d71576000915050613cb5565b8360018503820181619d7f57fe5b0495945050505050565b6000613cb5838361a251565b606081831115619dae57619dae6198546000858561a27b565b8351821115619dc757619dc7619854600184875161a27b565b8282036001600160401b0381118015619ddf57600080fd5b506040519080825280601f01601f191660200182016040528015619e0a576020820181803683370190505b509050613cb5619e198261a29a565b84619e238761a29a565b01835161a2a0565b61914783838361a345565b606063e946c1bb60e01b848484604051602401619e559392919061ca6c565b60408051601f198184030181529190526020810180516001600160e01b03166001600160e01b03199093169290921790915290509392505050565b805160208201fd5b619ea061a674565b619ea861a674565b6040805160028082526060808301845292602083019080368337019050509050836040015181600081518110619eda57fe5b60200260200101906001600160a01b031690816001600160a01b031681525050836060015181600181518110619f0c57fe5b6001600160a01b039290921660209283029190910190910152604080516001808252818301909252606091816020016020820280368337019050509050846080015181600081518110619f5b57fe5b602002602001018181525050619f6f61a692565b5060408051608081018252606481526101f46020820152610bb891810191909152612710606082015260005b600481101561a24857600087600001516001600160a01b0316631698ee8289604001518a60600151868660048110619fcf57fe5b60200201516040518463ffffffff1660e01b8152600401619ff29392919061c7ca565b60206040518083038186803b15801561a00a57600080fd5b505afa15801561a01e573d6000803e3d6000fd5b505050506040513d601f19601f8201168201806040525081019061a042919061ba89565b905061a04d8161a36c565b61a057575061a240565b60408051600180825281830190925260609160208083019080368337019050509050818160008151811061a08757fe5b60200260200101906001600160a01b031690816001600160a01b031681525050606061a0b38783618279565b905089602001516001600160a01b031663551e2bdf6206ddd08c60000151848a6040518563ffffffff1660e01b815260040161a0f19392919061c9c6565b60006040518083038187803b15801561a10957600080fd5b5086fa9350505050801561a11b575060015b61a23c573d80801561a149576040519150601f19603f3d011682016040523d82523d6000602084013e61a14e565b606091505b506000606061a15c836183d4565b5091509150811561a238578a518151829060009061a17657fe5b6020026020010151111561a1d6578a516020808d01919091528c516001600160a01b0316908d01528051819060009061a1ab57fe5b60200260200101518b60006002811061a1c057fe5b60200201526001600160a01b0386168c5261a238565b8a600160200201518160008151811061a1eb57fe5b6020026020010151111561a238578060008151811061a20657fe5b60200260200101518b60016002811061a21b57fe5b6020020152858c60016001600160a01b0390921660209290920201525b5050505b5050505b600101619f9b565b50505050915091565b6000816020018351101561a2725761a272619854600585518560200161a27b565b50016020015190565b6060632800659560e01b848484604051602401619e559392919061ca87565b60200190565b602081101561a2ca576001816020036101000a038019835116818551168082178652505050619147565b8282141561a2d757619147565b8282111561a3115760208103905080820181840181515b8285101561a30957845186526020958601959094019361a2ee565b905250619147565b60208103905080820181840183515b8186121561a33c5782518252601f19928301929091019061a320565b85525050505050565b816020018351101561a3645761a364619854600585518560200161a27b565b910160200152565b6000813b8061a37f57600091505061131e565b50816001600160a01b0316630dfe16816040518163ffffffff1660e01b815260040160206040518083038186803b15801561a3b957600080fd5b505afa15801561a3cd573d6000803e3d6000fd5b505050506040513d601f19601f8201168201806040525081019061a3f1919061b190565b6001600160a01b03166370a08231836040518263ffffffff1660e01b815260040161a41c919061c681565b60206040518083038186803b15801561a43457600080fd5b505afa15801561a448573d6000803e3d6000fd5b505050506040513d601f19601f8201168201806040525081019061a46c919061b92e565b61a4785750600061131e565b816001600160a01b031663d21220a76040518163ffffffff1660e01b815260040160206040518083038186803b15801561a4b157600080fd5b505afa15801561a4c5573d6000803e3d6000fd5b505050506040513d601f19601f8201168201806040525081019061a4e9919061b190565b6001600160a01b03166370a08231836040518263ffffffff1660e01b815260040161a514919061c681565b60206040518083038186803b15801561a52c57600080fd5b505afa15801561a540573d6000803e3d6000fd5b505050506040513d601f19601f8201168201806040525081019061a564919061b92e565b61a5705750600061131e565b506001919050565b60408051608081018252600080825260208201819052918101829052606081019190915290565b6040518060a0016040528060008152602001600081526020016000815260200160008152602001600081525090565b60408051808201909152606081526000602082015290565b604051806040016040528060008152602001606081525090565b604080516060810182526000808252602082018190529181019190915290565b6040805160608101909152600080825260208201908152600060209091015290565b6040518060a0016040528060008019168152602001600081526020016000815260200160008152602001606081525090565b60405180604001604052806002906020820280368337509192915050565b60405180608001604052806004906020820280368337509192915050565b803561773a8161cebd565b805161773a8161cebd565b600082601f83011261a6d757600080fd5b813561a6ea61a6e58261cd47565b61cd21565b9150818183526020840193506020810190508385602084028201111561a70f57600080fd5b60005b8381101561a73b578161a725888261a6b0565b845250602092830192919091019060010161a712565b5050505092915050565b600082601f83011261a75657600080fd5b815161a76461a6e58261cd47565b9150818183526020840193506020810190508385602084028201111561a78957600080fd5b60005b8381101561a73b578161a79f888261a6bb565b845250602092830192919091019060010161a78c565b600082601f83011261a7c657600080fd5b813561a7d461a6e58261cd47565b81815260209384019390925082018360005b8381101561a73b578135860161a7fc888261a6c6565b845250602092830192919091019060010161a7e6565b60008083601f84011261a82457600080fd5b5081356001600160401b0381111561a83b57600080fd5b60208301915083602082028301111561a85357600080fd5b9250929050565b600082601f83011261a86b57600080fd5b813561a87961a6e58261cd47565b81815260209384019390925082018360005b8381101561a73b578135860161a8a1888261abf1565b845250602092830192919091019060010161a88b565b600082601f83011261a8c857600080fd5b813561a8d661a6e58261cd47565b9150818183526020840193506020810190508385602084028201111561a8fb57600080fd5b60005b8381101561a73b578161a911888261ac37565b845250602092830192919091019060010161a8fe565b600082601f83011261a93857600080fd5b815161a94661a6e58261cd47565b9150818183526020840193506020810190508385602084028201111561a96b57600080fd5b60005b8381101561a73b578161a981888261abd0565b845250602092830192919091019060010161a96e565b600082601f83011261a9a857600080fd5b813561a9b661a6e58261cd47565b81815260209384019390925082018360005b8381101561a73b578135860161a9de888261ad12565b845250602092830192919091019060010161a9c8565b600082601f83011261aa0557600080fd5b813561aa1361a6e58261cd47565b915081818352602084019350602081019050838561018084028201111561aa3957600080fd5b60005b8381101561a73b578161aa4f888261aecf565b845250602090920191610180919091019060010161aa3c565b600082601f83011261aa7957600080fd5b813561aa8761a6e58261cd47565b9150818183526020840193506020810190508385608084028201111561aaac57600080fd5b60005b8381101561a73b578161aac2888261b072565b8452506020909201916080919091019060010161aaaf565b600082601f83011261aaeb57600080fd5b813561aaf961a6e58261cd47565b9150818183526020840193506020810190508385602084028201111561ab1e57600080fd5b60005b8381101561a73b578161ab34888261abc5565b845250602092830192919091019060010161ab21565b600082601f83011261ab5b57600080fd5b815161ab6961a6e58261cd47565b9150818183526020840193506020810190508385602084028201111561ab8e57600080fd5b60005b8381101561a73b578161aba4888261abd0565b845250602092830192919091019060010161ab91565b805161773a8161ced1565b803561773a8161ceda565b805161773a8161ceda565b803561773a8161cee3565b805161773a8161cee3565b600082601f83011261ac0257600080fd5b813561ac1061a6e58261cd67565b9150808252602083016020830185838301111561ac2c57600080fd5b6188e083828461ce5a565b803561773a8161ceec565b805161773a8161ceec565b805161773a8161cef5565b803561773a8161cf02565b803561773a8161cf0f565b805161773a8161cf0f565b60006040828403121561ac8b57600080fd5b61ac95604061cd21565b9050600061aca3848461abc5565b825250602061acb48484830161a6b0565b60208301525092915050565b60006040828403121561acd257600080fd5b61acdc604061cd21565b9050600061acea848461ac37565b82525060208201356001600160401b0381111561ad0657600080fd5b61acb48482850161a7b5565b600060a0828403121561ad2457600080fd5b61ad2e60a061cd21565b9050600061ad3c848461abc5565b825250602061ad4d8484830161abc5565b602083015250604061ad618482850161abc5565b604083015250606061ad758482850161abc5565b60608301525060808201356001600160401b0381111561ad9457600080fd5b61ada08482850161abf1565b60808301525092915050565b60006060828403121561adbe57600080fd5b61adc8606061cd21565b9050600061add6848461a6b0565b825250602061ade78484830161abdb565b602083015250604061adfb8482850161abdb565b60408301525092915050565b60006060828403121561ae1957600080fd5b61ae23606061cd21565b9050600061ae31848461a6bb565b825250602061ae428484830161abe6565b602083015250604061adfb8482850161abe6565b60006040828403121561ae6857600080fd5b61ae72604061cd21565b9050600061aca3848461a6b0565b60006060828403121561ae9257600080fd5b61ae9c606061cd21565b9050600061aeaa848461a6b0565b825250602061aebb8484830161a6b0565b602083015250604061adfb8482850161a6b0565b6000610180828403121561aee257600080fd5b61aeed61018061cd21565b9050600061aefb848461ac37565b825250602061af0c8484830161ac37565b602083015250604061af208482850161b130565b604083015250606061af348482850161b130565b606083015250608061af488482850161b130565b60808301525060a061af5c8482850161a6b0565b60a08301525060c061af708482850161a6b0565b60c08301525060e061af848482850161a6b0565b60e08301525061010061af998482850161a6b0565b6101008301525061012061afaf8482850161abc5565b6101208301525061014061afc58482850161b151565b6101408301525061016061afdb8482850161abc5565b6101608301525092915050565b60006060828403121561affa57600080fd5b61b004606061cd21565b9050600061b012848461a6b0565b825250602061aebb8484830161abc5565b60006060828403121561b03557600080fd5b61b03f606061cd21565b9050600061b04d848461abd0565b825250602061b05e8484830161ac4d565b602083015250604061adfb8482850161b13b565b60006080828403121561b08457600080fd5b61b08e608061cd21565b9050600061b09c848461ac58565b825250602061b0ad8484830161b15c565b602083015250604061b0c18482850161abc5565b604083015250606061b0d58482850161abc5565b60608301525092915050565b60006060828403121561b0f357600080fd5b61b0fd606061cd21565b9050600061b10b848461a6bb565b825250602061b11c8484830161a6bb565b602083015250604061adfb8482850161abba565b803561773a8161cf18565b805161773a8161cf18565b805161773a8161cf21565b803561773a8161cf2a565b803561773a8161cf33565b805161773a8161cf33565b60006020828403121561b18457600080fd5b6000611acf848461a6b0565b60006020828403121561b1a257600080fd5b6000611acf848461a6bb565b6000806040838503121561b1c157600080fd5b600061b1cd858561a6bb565b925050602061b1de8582860161a6bb565b9150509250929050565b6000806000806080858703121561b1fe57600080fd5b600061b20a878761a6bb565b945050602061b21b8782880161a6bb565b935050604061b22c8782880161a6bb565b925050606061b23d8782880161a6bb565b91505092959194509250565b60008060006060848603121561b25e57600080fd5b600061b26a868661a6bb565b935050602061b27b8682870161a6bb565b92505060408401516001600160401b0381111561b29757600080fd5b61b2a38682870161a745565b9150509250925092565b60008060006060848603121561b2c257600080fd5b600061b2ce868661a6bb565b935050602061b2df8682870161a6bb565b925050604061b2a38682870161abba565b6000806040838503121561b30357600080fd5b600061b30f858561a6bb565b92505060208301516001600160401b0381111561b32b57600080fd5b61b1de8582860161a745565b60008060008060008060c0878903121561b35057600080fd5b600061b35c898961a6b0565b965050602061b36d89828a0161a6b0565b955050604061b37e89828a0161a6b0565b945050606061b38f89828a0161a6b0565b935050608061b3a089828a0161a6b0565b92505060a08701356001600160401b0381111561b3bc57600080fd5b61b3c889828a0161aada565b9150509295509295509295565b600080600080600060a0868803121561b3ed57600080fd5b600061b3f9888861a6b0565b955050602061b40a8882890161a6b0565b945050604061b41b8882890161a6b0565b935050606061b42c8882890161a6b0565b92505060808601356001600160401b0381111561b44857600080fd5b61b4548882890161aada565b9150509295509295909350565b6000806000806080858703121561b47757600080fd5b600061b483878761a6b0565b945050602061b4948782880161a6b0565b935050604061b4a58782880161a6b0565b92505060608501356001600160401b0381111561b4c157600080fd5b61b23d8782880161aada565b6000806000806080858703121561b4e357600080fd5b600061b4ef878761a6b0565b945050602061b5008782880161a6b0565b935050604061b5118782880161a6b0565b925050606061b23d8782880161abc5565b6000806000806080858703121561b53857600080fd5b600061b544878761a6b0565b945050602061b5558782880161a6b0565b93505060408501356001600160401b0381111561b57157600080fd5b61b4a58782880161a6c6565b60008060006060848603121561b59257600080fd5b600061b59e868661a6b0565b93505060208401356001600160401b0381111561b5ba57600080fd5b61b5c68682870161a6c6565b92505060408401356001600160401b0381111561b5e257600080fd5b61b2a38682870161aada565b600080600080600060a0868803121561b60657600080fd5b600061b612888861a6b0565b955050602061b40a8882890161abc5565b60006020828403121561b63557600080fd5b81516001600160401b0381111561b64b57600080fd5b611acf8482850161a745565b6000806020838503121561b66a57600080fd5b82356001600160401b0381111561b68057600080fd5b61b68c8582860161a812565b92509250509250929050565b60008060006060848603121561b6ad57600080fd5b83356001600160401b0381111561b6c357600080fd5b61b6cf8682870161a85a565b93505060208401356001600160401b0381111561b6eb57600080fd5b61b6f78682870161a85a565b925050604061b2a38682870161abc5565b60006020828403121561b71a57600080fd5b81356001600160401b0381111561b73057600080fd5b611acf8482850161a8b7565b6000806040838503121561b74f57600080fd5b82356001600160401b0381111561b76557600080fd5b61b7718582860161a8b7565b925050602061b1de8582860161a6b0565b60008060006060848603121561b79757600080fd5b83356001600160401b0381111561b7ad57600080fd5b61b7b98682870161a8b7565b935050602061b7ca8682870161a6b0565b925050604061b2a38682870161a6b0565b60006020828403121561b7ed57600080fd5b81516001600160401b0381111561b80357600080fd5b611acf8482850161a927565b60008060006060848603121561b82457600080fd5b83356001600160401b0381111561b83a57600080fd5b61b8468682870161a9f4565b93505060208401356001600160401b0381111561b86257600080fd5b61b86e8682870161aa68565b925050604061b2a38682870161ac37565b60006020828403121561b89157600080fd5b81516001600160401b0381111561b8a757600080fd5b611acf8482850161ab4a565b6000806040838503121561b8c657600080fd5b82516001600160401b0381111561b8dc57600080fd5b61b8e88582860161ab4a565b92505060208301516001600160401b0381111561b90457600080fd5b61b1de8582860161ab4a565b60006020828403121561b92257600080fd5b6000611acf848461abba565b60006020828403121561b94057600080fd5b6000611acf848461abd0565b6000806000806080858703121561b96257600080fd5b600061b96e878761ac37565b94505060208501356001600160401b0381111561b98a57600080fd5b61b5558782880161a997565b6000806000806080858703121561b9ac57600080fd5b600061b9b8878761ac37565b945050602061b9c98782880161ac37565b935050604061b4a58782880161ac37565b6000806000806080858703121561b9f057600080fd5b600061b544878761ac37565b6000806000806080858703121561ba1257600080fd5b600061ba1e878761ac37565b945050602061ba2f8782880161abc5565b935050604061b4a58782880161abc5565b60008060006060848603121561ba5557600080fd5b600061ba61868661ac37565b93505060208401356001600160401b0381111561ba7d57600080fd5b61b5c68682870161a8b7565b60006020828403121561ba9b57600080fd5b6000611acf848461ac42565b6000806000806080858703121561babd57600080fd5b600061b483878761ac37565b6000806080838503121561badc57600080fd5b600061bae8858561ac42565b925050602061b1de8582860161b0e1565b60008060006060848603121561bb0e57600080fd5b600061bb1a868661ac42565b935050602061bb2b8682870161a6bb565b925050604061b2a38682870161a6bb565b60006020828403121561bb4e57600080fd5b6000611acf848461ac6e565b6000806080838503121561bb6d57600080fd5b600061bb79858561ac6e565b925050602061b1de8582860161ae07565b60008060008060a0858703121561bba057600080fd5b600061bbac878761ac79565b945050604061bbbd8782880161a6b0565b935050606061bbce8782880161a6b0565b92505060808501356001600160401b0381111561b4c157600080fd5b6000806000806080858703121561bc0057600080fd5b84356001600160401b0381111561bc1657600080fd5b61b4838782880161acc0565b60008060008060c0858703121561bc3857600080fd5b600061bc44878761adac565b945050606061bc558782880161ac63565b935050608061bc668782880161ac63565b92505060a08501356001600160401b0381111561b4c157600080fd5b60008060008060a0858703121561bc9857600080fd5b600061bbac878761ae56565b60008060008060c0858703121561bcba57600080fd5b600061bcc6878761ae80565b945050606061bcd78782880161a6b0565b935050608061bc668782880161a6b0565b6000806000610220848603121561bcfe57600080fd5b600061bd0a868661aecf565b93505061018061bd1c8682870161b072565b92505061020061b2a38682870161ac37565b60008060008060c0858703121561bd4457600080fd5b600061bcc6878761afe8565b600080600060a0848603121561bd6557600080fd5b600061bd71868661b023565b935050606061bd828682870161b13b565b925050608061b2a38682870161abba565b60006020828403121561bda557600080fd5b6000611acf848461b146565b6000806040838503121561bdc457600080fd5b600061bdd0858561abd0565b925050602061b1de8582860161abba565b6000806040838503121561bdf457600080fd5b600061be00858561abd0565b925050602061b1de8582860161abd0565b60008060006060848603121561be2657600080fd5b600061be32868661abd0565b935050602061be438682870161abd0565b925050604061b2a38682870161abd0565b600080600080600060a0868803121561be6c57600080fd5b600061be78888861abd0565b955050602061be898882890161abd0565b945050604061be9a8882890161abd0565b935050606061beab8882890161abd0565b925050608061b4548882890161abd0565b60006020828403121561bece57600080fd5b6000611acf848461b167565b600061bee6838361bf41565b505060200190565b600061bee6838361c1c6565b6000613cb5838361c1f7565b6000613cb5838361c393565b6000613cb5838361c3f8565b600061bf2a838361c60d565b505060600190565b61bf3b8161ce23565b82525050565b61bf3b8161cd9b565b600061bf558261cd8e565b61bf5f818561cd92565b935061bf6a8361a29a565b8060005b8381101561bf9857815161bf82888261beda565b975061bf8d8361a29a565b92505060010161bf6e565b509495945050505050565b600061bfae8261cd8e565b61bfb8818561cd92565b935061bfc38361a29a565b8060005b8381101561bf9857815161bfdb888261beee565b975061bfe68361a29a565b92505060010161bfc7565b600061bffc8261cd8e565b61c006818561cd92565b93508360208202850161c0188561a29a565b8060005b8581101561c052578484038952815161c035858261befa565b945061c0408361a29a565b60209a909a019992505060010161c01c565b5091979650505050505050565b600061c06a8261cd8e565b61c074818561cd92565b93508360208202850161c0868561a29a565b8060005b8581101561c052578484038952815161c0a3858261bf06565b945061c0ae8361a29a565b60209a909a019992505060010161c08a565b600061c0cb8261cd8e565b61c0d5818561cd92565b93508360208202850161c0e78561a29a565b8060005b8581101561c052578484038952815161c104858261bf12565b945061c10f8361a29a565b60209a909a019992505060010161c0eb565b600061c12c8261cd8e565b61c136818561cd92565b935061c1418361a29a565b8060005b8381101561bf9857815161c159888261bf1e565b975061c1648361a29a565b92505060010161c145565b600061c17a8261cd8e565b61c184818561cd92565b935061c18f8361a29a565b8060005b8381101561bf9857815161c1a7888261beee565b975061c1b28361a29a565b92505060010161c193565b61bf3b8161cda6565b61bf3b8161cdab565b61bf3b8161cdae565b600061c1e4838561131e565b935061c1f183858461ce5a565b50500190565b600061c2028261cd8e565b61c20c818561cd92565b935061c21c81856020860161ce66565b61c2258161ce92565b9093019392505050565b600061c23a8261cd8e565b61c244818561131e565b935061c25481856020860161ce66565b9290920192915050565b61bf3b8161cdbb565b61bf3b8161ce2e565b61bf3b8161ce39565b61bf3b8161ce44565b61bf3b8161cde4565b61bf3b8161ce4f565b600061c2a160258361cd92565b7f455243323042726964676553616d706c65722f494e56414c49445f544f4b454e8152642fa820a4a960d91b602082015260400192915050565b6822bc31b430b733b2b960b91b9052565b680a6f2dce8d0cae8d2f60bb1b9052565b600061c30a602e8361cd92565b7f556e6973776170563353616d706c65722f756e737570706f7274656420746f6b81526d0cadc40e0c2e8d040d8cadccee8d60931b602082015260400192915050565b600061c35a60248361cd92565b7f556e69737761705633436f6d6d6f6e2f696e76616c69642070617468206c656e8152636774687360e01b602082015260400192915050565b805160009060a084019061c3a7858261c1c6565b50602083015161c3ba602086018261c1c6565b50604083015161c3cd604086018261c1c6565b50606083015161c3e0606086018261c1c6565b50608083015184820360808601526136e6828261c1f7565b805160408084526000919084019061c410828261c1f7565b91505060208301516111b1602086018261c1bd565b8051606083019061c436848261bf41565b50602082015161c449602085018261c1cf565b50604082015161c45c604085018261c1cf565b50505050565b8051608083019061c473848261bf41565b50602082015161c486602085018261c1bd565b50604082015161c499604085018261bf41565b50606082015161c45c606085018261c1bd565b8051600090604084019061c4c0858261c1c6565b50602083015184820360208601526136e6828261c1f7565b805161018083019061c4ea848261c25e565b50602082015161c4fd602085018261c25e565b50604082015161c510604085018261c644565b50606082015161c523606085018261c644565b50608082015161c536608085018261c644565b5060a082015161c54960a085018261bf41565b5060c082015161c55c60c085018261bf41565b5060e082015161c56f60e085018261bf41565b5061010082015161c58461010085018261bf41565b5061012082015161c59961012085018261c1c6565b5061014082015161c5ae61014085018261c656565b5061016082015161c45c61016085018261c1c6565b8051608083019061c5d4848261c267565b50602082015161c5e7602085018261c65f565b50604082015161c5fa604085018261c1c6565b50606082015161c45c606085018261c1c6565b8051606083019061c61e848261bf41565b50602082015161c631602085018261bf41565b50604082015161c45c604085018261c1bd565b61bf3b8161cdea565b61bf3b8161ce09565b61bf3b8161ce11565b61bf3b8161ce1d565b6000611acf82848661c1d8565b6000613cb5828461c22f565b6020810161773a828461bf41565b6040810161c69d828561bf32565b613cb5602083018461c1c6565b6040810161c6b8828561bf41565b613cb5602083018461bf41565b6080810161c6d3828761bf41565b61c6e0602083018661bf41565b61c6ed604083018561bf41565b6136e6606083018461bf41565b6080810161c708828761bf41565b61c715602083018661bf41565b61c722604083018561bf41565b8181036060830152614150818461c16f565b6060810161c742828661bf41565b61c74f602083018561bf41565b81810360408301526136e6818461bf4a565b6080810161c76f828761bf41565b61c77c602083018661bf41565b818103604083015261c78e818561bf4a565b90508181036060830152614150818461c16f565b6060810161c7b0828661bf41565b61c7bd602083018561bf41565b611acf604083018461c1bd565b6060810161c7d8828661bf41565b61c7e5602083018561bf41565b611acf604083018461c64d565b6060810161c800828661bf41565b61c80d602083018561bf41565b611acf604083018461c1c6565b6040810161c828828561bf41565b8181036020830152611acf818461bf4a565b6060810161c848828661bf41565b818103602083015261c85a818561bf4a565b905081810360408301526136e6818461c16f565b6040810161c87c828561bf41565b8181036020830152611acf818461c16f565b6040810161c69d828561bf41565b6060810161c8aa828661bf41565b61c8b7602083018561c1c6565b611acf604083018461c28b565b6040808252810161c8d5818561bf4a565b90508181036020830152611acf818461c16f565b6040808252810161c8fa818561bf4a565b9050613cb5602083018461c1c6565b6040808252810161c8d5818561bfa3565b6060808252810161c92b818661bff1565b9050818103602083015261c85a818561c16f565b60208082528101613cb5818461c0c0565b60208082528101613cb5818461c16f565b6020810161773a828461c1bd565b6060810161c97d828661c1bd565b61c98a602083018561bf41565b81810360408301526136e6818461c16f565b6040810161c87c828561c1bd565b6020810161773a828461c1c6565b6040810161c87c828561c25e565b6060810161c9d4828661c25e565b818103602083015261c85a818561c1f7565b6060810161c9f4828661c25e565b61ca01602083018561bf41565b611acf604083018461bf41565b6080810161ca1c828761c25e565b61ca29602083018661bf41565b61ca36604083018561bf41565b6136e6606083018461c1c6565b6080810161ca51828561c25e565b613cb5602083018461c60d565b6080810161c708828761c25e565b6060810161ca7a828661c267565b61c80d602083018561c1c6565b6060810161ca7a828661c270565b60e0810161caa3828761c279565b818103602083015261cab5818661c05f565b9050818103604083015261cac9818561bf4a565b90506136e6606083018461c462565b6060810161cae6828661c282565b61c80d602083018561c282565b6080810161cb01828561c282565b613cb5602083018461c425565b6020808252810161773a8161c294565b6020810161131e8261c2db565b6020810161131e8261c2ec565b6020808252810161773a8161c2fd565b6020808252810161773a8161c34d565b60c0810161cb66828761c425565b61cb73606083018661c282565b61cb80608083018561c282565b81810360a0830152614150818461c16f565b6060808252810161cba3818661c4ac565b9050818103602083015261c85a818561c4ac565b610200810161cbc6828561c4d8565b613cb561018083018461c5c3565b610220810161cbe3828661c4d8565b61cbf161018083018561c5c3565b611acf61020083018461c25e565b6060810161c9f4828661c1c6565b6040810161c828828561c1c6565b6060810161cc29828661c1c6565b818103602083015261cc3b818561bf4a565b905081810360408301526136e6818461bf4a565b6040810161cc5d828561c1c6565b8181036020830152611acf818461c121565b6060810161ca7a828661c1c6565b60c0810161cc8b828961c1c6565b61cc98602083018861c1c6565b61cca5604083018761c1c6565b61ccb2606083018661c1c6565b61ccbf608083018561c1c6565b618b2a60a083018461c1c6565b6000808335601e193685900301811261cce457600080fd5b8084019250823591506001600160401b0382111561cd0157600080fd5b60208301925060018202360383131561cd1957600080fd5b509250929050565b6040518181016001600160401b038111828210171561cd3f57600080fd5b604052919050565b60006001600160401b0382111561cd5d57600080fd5b5060209081020190565b60006001600160401b0382111561cd7d57600080fd5b506020601f91909101601f19160190565b5190565b90815260200190565b600061773a8261cdfd565b151590565b90565b6001600160e01b03191690565b600061773a8261cd9b565b8061131e8161ce9c565b8061131e8161cea9565b8061131e8161ceb3565b600f0b90565b6001600160801b031690565b61ffff1690565b6001600160a01b031690565b62ffffff1690565b6001600160401b031690565b60ff1690565b600061773a8261cdbb565b600061773a8261cdc6565b600061773a8261cdd0565b600061773a8261cdda565b600061773a8261cdf6565b82818337506000910152565b60005b8381101561ce8157818101518382015260200161ce69565b8381111561c45c5750506000910152565b601f01601f191690565b6004811061cea657fe5b50565b6008811061cea657fe5b6002811061cea657fe5b61cec68161cd9b565b811461cea657600080fd5b61cec68161cda6565b61cec68161cdab565b61cec68161cdae565b61cec68161cdbb565b6005811061cea657600080fd5b6004811061cea657600080fd5b61cec68161cde4565b61cec68161cdea565b61cec68161ce09565b61cec68161ce11565b61cec68161ce1d56fea26469706673582212209823b1d0ec73a395bc5ac48f93cc2c0218a5b102b3c4884ca302a47d248ee0c064736f6c634300060c0033",
                "opcodes": "PUSH1 0xA0 PUSH1 0x40 MSTORE PUSH32 0xEEEEEEEEEEEEEEEEEEEEEEEEEEEEEEEEEEEEEEEE000000000000000000000000 PUSH1 0x80 MSTORE CALLVALUE DUP1 ISZERO PUSH3 0x35 JUMPI PUSH1 0x0 DUP1 REVERT JUMPDEST POP PUSH1 0x80 MLOAD PUSH1 0x60 SHR PUSH2 0xCF72 PUSH3 0x5E PUSH1 0x0 CODECOPY DUP1 PUSH2 0x39F8 MSTORE DUP1 PUSH2 0x5A15 MSTORE DUP1 PUSH2 0x6A2D MSTORE POP PUSH2 0xCF72 PUSH1 0x0 RETURN INVALID PUSH1 0x80 PUSH1 0x40 MSTORE PUSH1 0x4 CALLDATASIZE LT PUSH2 0x3C7 JUMPI PUSH1 0x0 CALLDATALOAD PUSH1 0xE0 SHR DUP1 PUSH4 0x8322FFF2 GT PUSH2 0x1F2 JUMPI DUP1 PUSH4 0xBD71ECF6 GT PUSH2 0x10D JUMPI DUP1 PUSH4 0xE065DE75 GT PUSH2 0xA0 JUMPI DUP1 PUSH4 0xF5A4994D GT PUSH2 0x6F JUMPI DUP1 PUSH4 0xF5A4994D EQ PUSH2 0xBFE JUMPI DUP1 PUSH4 0xF6D6794A EQ PUSH2 0xC1E JUMPI DUP1 PUSH4 0xFAF1CEE0 EQ PUSH2 0xC3E JUMPI DUP1 PUSH4 0xFC9FE41B EQ PUSH2 0xC5E JUMPI PUSH2 0x3CE JUMP JUMPDEST DUP1 PUSH4 0xE065DE75 EQ PUSH2 0xB7E JUMPI DUP1 PUSH4 0xE382C95E EQ PUSH2 0xB9E JUMPI DUP1 PUSH4 0xE78AC045 EQ PUSH2 0xBBE JUMPI DUP1 PUSH4 0xE8E4AF09 EQ PUSH2 0xBDE JUMPI PUSH2 0x3CE JUMP JUMPDEST DUP1 PUSH4 0xCC130E83 GT PUSH2 0xDC JUMPI DUP1 PUSH4 0xCC130E83 EQ PUSH2 0xAF0 JUMPI DUP1 PUSH4 0xD9BCA372 EQ PUSH2 0xB10 JUMPI DUP1 PUSH4 0xDBBF62C2 EQ PUSH2 0xB30 JUMPI DUP1 PUSH4 0xDDD5AA28 EQ PUSH2 0xB5E JUMPI PUSH2 0x3CE JUMP JUMPDEST DUP1 PUSH4 0xBD71ECF6 EQ PUSH2 0xA70 JUMPI DUP1 PUSH4 0xC8319084 EQ PUSH2 0xA90 JUMPI DUP1 PUSH4 0xC8C74A37 EQ PUSH2 0xAB0 JUMPI DUP1 PUSH4 0xC9D350F9 EQ PUSH2 0xAD0 JUMPI PUSH2 0x3CE JUMP JUMPDEST DUP1 PUSH4 0x9EA0FF13 GT PUSH2 0x185 JUMPI DUP1 PUSH4 0xAA9EA72A GT PUSH2 0x154 JUMPI DUP1 PUSH4 0xAA9EA72A EQ PUSH2 0x9E2 JUMPI DUP1 PUSH4 0xAB80A910 EQ PUSH2 0xA02 JUMPI DUP1 PUSH4 0xADC636BF EQ PUSH2 0xA22 JUMPI DUP1 PUSH4 0xB90CD2FB EQ PUSH2 0xA50 JUMPI PUSH2 0x3CE JUMP JUMPDEST DUP1 PUSH4 0x9EA0FF13 EQ PUSH2 0x962 JUMPI DUP1 PUSH4 0xA0295B8B EQ PUSH2 0x982 JUMPI DUP1 PUSH4 0xA75E744B EQ PUSH2 0x9A2 JUMPI DUP1 PUSH4 0xA76BBEC4 EQ PUSH2 0x9C2 JUMPI PUSH2 0x3CE JUMP JUMPDEST DUP1 PUSH4 0x918C2BBD GT PUSH2 0x1C1 JUMPI DUP1 PUSH4 0x918C2BBD EQ PUSH2 0x8D4 JUMPI DUP1 PUSH4 0x9209483B EQ PUSH2 0x902 JUMPI DUP1 PUSH4 0x98777748 EQ PUSH2 0x922 JUMPI DUP1 PUSH4 0x9BF3EE35 EQ PUSH2 0x942 JUMPI PUSH2 0x3CE JUMP JUMPDEST DUP1 PUSH4 0x8322FFF2 EQ PUSH2 0x843 JUMPI DUP1 PUSH4 0x849489A1 EQ PUSH2 0x865 JUMPI DUP1 PUSH4 0x8A2D1971 EQ PUSH2 0x885 JUMPI DUP1 PUSH4 0x8E5A0E07 EQ PUSH2 0x8A5 JUMPI PUSH2 0x3CE JUMP JUMPDEST DUP1 PUSH4 0x42CBB15C GT PUSH2 0x2E2 JUMPI DUP1 PUSH4 0x66A1AC6B GT PUSH2 0x275 JUMPI DUP1 PUSH4 0x74C9D255 GT PUSH2 0x244 JUMPI DUP1 PUSH4 0x74C9D255 EQ PUSH2 0x7C3 JUMPI DUP1 PUSH4 0x77D375F2 EQ PUSH2 0x7E3 JUMPI DUP1 PUSH4 0x7F3E7F82 EQ PUSH2 0x803 JUMPI DUP1 PUSH4 0x7F7F4F13 EQ PUSH2 0x823 JUMPI PUSH2 0x3CE JUMP JUMPDEST DUP1 PUSH4 0x66A1AC6B EQ PUSH2 0x736 JUMPI DUP1 PUSH4 0x68BE3CF2 EQ PUSH2 0x756 JUMPI DUP1 PUSH4 0x6EB9DAE5 EQ PUSH2 0x783 JUMPI DUP1 PUSH4 0x706E2F9B EQ PUSH2 0x7A3 JUMPI PUSH2 0x3CE JUMP JUMPDEST DUP1 PUSH4 0x57494B1D GT PUSH2 0x2B1 JUMPI DUP1 PUSH4 0x57494B1D EQ PUSH2 0x6B6 JUMPI DUP1 PUSH4 0x5AAE4E53 EQ PUSH2 0x6D6 JUMPI DUP1 PUSH4 0x5D5B674F EQ PUSH2 0x6F6 JUMPI DUP1 PUSH4 0x5E74363A EQ PUSH2 0x716 JUMPI PUSH2 0x3CE JUMP JUMPDEST DUP1 PUSH4 0x42CBB15C EQ PUSH2 0x630 JUMPI DUP1 PUSH4 0x494569DB EQ PUSH2 0x652 JUMPI DUP1 PUSH4 0x51BE4EAA EQ PUSH2 0x672 JUMPI DUP1 PUSH4 0x5505000A EQ PUSH2 0x687 JUMPI PUSH2 0x3CE JUMP JUMPDEST DUP1 PUSH4 0x281E3432 GT PUSH2 0x35A JUMPI DUP1 PUSH4 0x3105FEC1 GT PUSH2 0x329 JUMPI DUP1 PUSH4 0x3105FEC1 EQ PUSH2 0x5A2 JUMPI DUP1 PUSH4 0x3583220F EQ PUSH2 0x5C2 JUMPI DUP1 PUSH4 0x4092E6B1 EQ PUSH2 0x5F0 JUMPI DUP1 PUSH4 0x40BC03AE EQ PUSH2 0x610 JUMPI PUSH2 0x3CE JUMP JUMPDEST DUP1 PUSH4 0x281E3432 EQ PUSH2 0x513 JUMPI DUP1 PUSH4 0x2AA64319 EQ PUSH2 0x533 JUMPI DUP1 PUSH4 0x2E1240F0 EQ PUSH2 0x562 JUMPI DUP1 PUSH4 0x30D6570D EQ PUSH2 0x582 JUMPI PUSH2 0x3CE JUMP JUMPDEST DUP1 PUSH4 0x16279055 GT PUSH2 0x396 JUMPI DUP1 PUSH4 0x16279055 EQ PUSH2 0x486 JUMPI DUP1 PUSH4 0x1976F526 EQ PUSH2 0x4B3 JUMPI DUP1 PUSH4 0x2339078F EQ PUSH2 0x4D3 JUMPI DUP1 PUSH4 0x252322B3 EQ PUSH2 0x4F3 JUMPI PUSH2 0x3CE JUMP JUMPDEST DUP1 PUSH4 0x34EAFF9 EQ PUSH2 0x3D3 JUMPI DUP1 PUSH4 0x496D5DC EQ PUSH2 0x409 JUMPI DUP1 PUSH4 0x1022742B EQ PUSH2 0x437 JUMPI DUP1 PUSH4 0x149DAB0E EQ PUSH2 0x457 JUMPI PUSH2 0x3CE JUMP JUMPDEST CALLDATASIZE PUSH2 0x3CE JUMPI STOP JUMPDEST PUSH1 0x0 DUP1 REVERT JUMPDEST CALLVALUE DUP1 ISZERO PUSH2 0x3DF JUMPI PUSH1 0x0 DUP1 REVERT JUMPDEST POP PUSH2 0x3F3 PUSH2 0x3EE CALLDATASIZE PUSH1 0x4 PUSH2 0xB996 JUMP JUMPDEST PUSH2 0xC7E JUMP JUMPDEST PUSH1 0x40 MLOAD PUSH2 0x400 SWAP2 SWAP1 PUSH2 0xC950 JUMP JUMPDEST PUSH1 0x40 MLOAD DUP1 SWAP2 SUB SWAP1 RETURN JUMPDEST CALLVALUE DUP1 ISZERO PUSH2 0x415 JUMPI PUSH1 0x0 DUP1 REVERT JUMPDEST POP PUSH2 0x429 PUSH2 0x424 CALLDATASIZE PUSH1 0x4 PUSH2 0xB57D JUMP JUMPDEST PUSH2 0xEA0 JUMP JUMPDEST PUSH1 0x40 MLOAD PUSH2 0x400 SWAP3 SWAP2 SWAP1 PUSH2 0xC8C4 JUMP JUMPDEST CALLVALUE DUP1 ISZERO PUSH2 0x443 JUMPI PUSH1 0x0 DUP1 REVERT JUMPDEST POP PUSH2 0x3F3 PUSH2 0x452 CALLDATASIZE PUSH1 0x4 PUSH2 0xB80F JUMP JUMPDEST PUSH2 0x1046 JUMP JUMPDEST CALLVALUE DUP1 ISZERO PUSH2 0x463 JUMPI PUSH1 0x0 DUP1 REVERT JUMPDEST POP PUSH2 0x477 PUSH2 0x472 CALLDATASIZE PUSH1 0x4 PUSH2 0xBBEA JUMP JUMPDEST PUSH2 0x11B9 JUMP JUMPDEST PUSH1 0x40 MLOAD PUSH2 0x400 SWAP4 SWAP3 SWAP2 SWAP1 PUSH2 0xC83A JUMP JUMPDEST CALLVALUE DUP1 ISZERO PUSH2 0x492 JUMPI PUSH1 0x0 DUP1 REVERT JUMPDEST POP PUSH2 0x4A6 PUSH2 0x4A1 CALLDATASIZE PUSH1 0x4 PUSH2 0xB172 JUMP JUMPDEST PUSH2 0x1319 JUMP JUMPDEST PUSH1 0x40 MLOAD PUSH2 0x400 SWAP2 SWAP1 PUSH2 0xC961 JUMP JUMPDEST CALLVALUE DUP1 ISZERO PUSH2 0x4BF JUMPI PUSH1 0x0 DUP1 REVERT JUMPDEST POP PUSH2 0x3F3 PUSH2 0x4CE CALLDATASIZE PUSH1 0x4 PUSH2 0xB94C JUMP JUMPDEST PUSH2 0x1323 JUMP JUMPDEST CALLVALUE DUP1 ISZERO PUSH2 0x4DF JUMPI PUSH1 0x0 DUP1 REVERT JUMPDEST POP PUSH2 0x3F3 PUSH2 0x4EE CALLDATASIZE PUSH1 0x4 PUSH2 0xBB8A JUMP JUMPDEST PUSH2 0x148E JUMP JUMPDEST CALLVALUE DUP1 ISZERO PUSH2 0x4FF JUMPI PUSH1 0x0 DUP1 REVERT JUMPDEST POP PUSH2 0x3F3 PUSH2 0x50E CALLDATASIZE PUSH1 0x4 PUSH2 0xB461 JUMP JUMPDEST PUSH2 0x16B8 JUMP JUMPDEST CALLVALUE DUP1 ISZERO PUSH2 0x51F JUMPI PUSH1 0x0 DUP1 REVERT JUMPDEST POP PUSH2 0x3F3 PUSH2 0x52E CALLDATASIZE PUSH1 0x4 PUSH2 0xBD2E JUMP JUMPDEST PUSH2 0x1882 JUMP JUMPDEST CALLVALUE DUP1 ISZERO PUSH2 0x53F JUMPI PUSH1 0x0 DUP1 REVERT JUMPDEST POP PUSH2 0x553 PUSH2 0x54E CALLDATASIZE PUSH1 0x4 PUSH2 0xBC82 JUMP JUMPDEST PUSH2 0x1AD7 JUMP JUMPDEST PUSH1 0x40 MLOAD PUSH2 0x400 SWAP4 SWAP3 SWAP2 SWAP1 PUSH2 0xC96F JUMP JUMPDEST CALLVALUE DUP1 ISZERO PUSH2 0x56E JUMPI PUSH1 0x0 DUP1 REVERT JUMPDEST POP PUSH2 0x3F3 PUSH2 0x57D CALLDATASIZE PUSH1 0x4 PUSH2 0xB522 JUMP JUMPDEST PUSH2 0x1DB4 JUMP JUMPDEST CALLVALUE DUP1 ISZERO PUSH2 0x58E JUMPI PUSH1 0x0 DUP1 REVERT JUMPDEST POP PUSH2 0x3F3 PUSH2 0x59D CALLDATASIZE PUSH1 0x4 PUSH2 0xB461 JUMP JUMPDEST PUSH2 0x2024 JUMP JUMPDEST CALLVALUE DUP1 ISZERO PUSH2 0x5AE JUMPI PUSH1 0x0 DUP1 REVERT JUMPDEST POP PUSH2 0x3F3 PUSH2 0x5BD CALLDATASIZE PUSH1 0x4 PUSH2 0xB57D JUMP JUMPDEST PUSH2 0x2182 JUMP JUMPDEST CALLVALUE DUP1 ISZERO PUSH2 0x5CE JUMPI PUSH1 0x0 DUP1 REVERT JUMPDEST POP PUSH2 0x5E2 PUSH2 0x5DD CALLDATASIZE PUSH1 0x4 PUSH2 0xB9FC JUMP JUMPDEST PUSH2 0x2306 JUMP JUMPDEST PUSH1 0x40 MLOAD PUSH2 0x400 SWAP3 SWAP2 SWAP1 PUSH2 0xC86E JUMP JUMPDEST CALLVALUE DUP1 ISZERO PUSH2 0x5FC JUMPI PUSH1 0x0 DUP1 REVERT JUMPDEST POP PUSH2 0x3F3 PUSH2 0x60B CALLDATASIZE PUSH1 0x4 PUSH2 0xB9DA JUMP JUMPDEST PUSH2 0x23D0 JUMP JUMPDEST CALLVALUE DUP1 ISZERO PUSH2 0x61C JUMPI PUSH1 0x0 DUP1 REVERT JUMPDEST POP PUSH2 0x3F3 PUSH2 0x62B CALLDATASIZE PUSH1 0x4 PUSH2 0xBC22 JUMP JUMPDEST PUSH2 0x263B JUMP JUMPDEST CALLVALUE DUP1 ISZERO PUSH2 0x63C JUMPI PUSH1 0x0 DUP1 REVERT JUMPDEST POP PUSH2 0x645 PUSH2 0x27BC JUMP JUMPDEST PUSH1 0x40 MLOAD PUSH2 0x400 SWAP2 SWAP1 PUSH2 0xC9AA JUMP JUMPDEST CALLVALUE DUP1 ISZERO PUSH2 0x65E JUMPI PUSH1 0x0 DUP1 REVERT JUMPDEST POP PUSH2 0x429 PUSH2 0x66D CALLDATASIZE PUSH1 0x4 PUSH2 0xB57D JUMP JUMPDEST PUSH2 0x27C0 JUMP JUMPDEST CALLVALUE DUP1 ISZERO PUSH2 0x67E JUMPI PUSH1 0x0 DUP1 REVERT JUMPDEST POP PUSH2 0x645 PUSH2 0x294C JUMP JUMPDEST CALLVALUE DUP1 ISZERO PUSH2 0x693 JUMPI PUSH1 0x0 DUP1 REVERT JUMPDEST POP PUSH2 0x6A7 PUSH2 0x6A2 CALLDATASIZE PUSH1 0x4 PUSH2 0xBA40 JUMP JUMPDEST PUSH2 0x2954 JUMP JUMPDEST PUSH1 0x40 MLOAD PUSH2 0x400 SWAP4 SWAP3 SWAP2 SWAP1 PUSH2 0xC91A JUMP JUMPDEST CALLVALUE DUP1 ISZERO PUSH2 0x6C2 JUMPI PUSH1 0x0 DUP1 REVERT JUMPDEST POP PUSH2 0x3F3 PUSH2 0x6D1 CALLDATASIZE PUSH1 0x4 PUSH2 0xB461 JUMP JUMPDEST PUSH2 0x2D11 JUMP JUMPDEST CALLVALUE DUP1 ISZERO PUSH2 0x6E2 JUMPI PUSH1 0x0 DUP1 REVERT JUMPDEST POP PUSH2 0x6A7 PUSH2 0x6F1 CALLDATASIZE PUSH1 0x4 PUSH2 0xBA40 JUMP JUMPDEST PUSH2 0x3288 JUMP JUMPDEST CALLVALUE DUP1 ISZERO PUSH2 0x702 JUMPI PUSH1 0x0 DUP1 REVERT JUMPDEST POP PUSH2 0x3F3 PUSH2 0x711 CALLDATASIZE PUSH1 0x4 PUSH2 0xB461 JUMP JUMPDEST PUSH2 0x3680 JUMP JUMPDEST CALLVALUE DUP1 ISZERO PUSH2 0x722 JUMPI PUSH1 0x0 DUP1 REVERT JUMPDEST POP PUSH2 0x3F3 PUSH2 0x731 CALLDATASIZE PUSH1 0x4 PUSH2 0xBCA4 JUMP JUMPDEST PUSH2 0x36EF JUMP JUMPDEST CALLVALUE DUP1 ISZERO PUSH2 0x742 JUMPI PUSH1 0x0 DUP1 REVERT JUMPDEST POP PUSH2 0x3F3 PUSH2 0x751 CALLDATASIZE PUSH1 0x4 PUSH2 0xB80F JUMP JUMPDEST PUSH2 0x3744 JUMP JUMPDEST CALLVALUE DUP1 ISZERO PUSH2 0x762 JUMPI PUSH1 0x0 DUP1 REVERT JUMPDEST POP PUSH2 0x776 PUSH2 0x771 CALLDATASIZE PUSH1 0x4 PUSH2 0xB657 JUMP JUMPDEST PUSH2 0x37F9 JUMP JUMPDEST PUSH1 0x40 MLOAD PUSH2 0x400 SWAP2 SWAP1 PUSH2 0xC93F JUMP JUMPDEST CALLVALUE DUP1 ISZERO PUSH2 0x78F JUMPI PUSH1 0x0 DUP1 REVERT JUMPDEST POP PUSH2 0x3F3 PUSH2 0x79E CALLDATASIZE PUSH1 0x4 PUSH2 0xBCA4 JUMP JUMPDEST PUSH2 0x395A JUMP JUMPDEST CALLVALUE DUP1 ISZERO PUSH2 0x7AF JUMPI PUSH1 0x0 DUP1 REVERT JUMPDEST POP PUSH2 0x3F3 PUSH2 0x7BE CALLDATASIZE PUSH1 0x4 PUSH2 0xB708 JUMP JUMPDEST PUSH2 0x39A5 JUMP JUMPDEST CALLVALUE DUP1 ISZERO PUSH2 0x7CF JUMPI PUSH1 0x0 DUP1 REVERT JUMPDEST POP PUSH2 0x477 PUSH2 0x7DE CALLDATASIZE PUSH1 0x4 PUSH2 0xBBEA JUMP JUMPDEST PUSH2 0x3A97 JUMP JUMPDEST CALLVALUE DUP1 ISZERO PUSH2 0x7EF JUMPI PUSH1 0x0 DUP1 REVERT JUMPDEST POP PUSH2 0x3F3 PUSH2 0x7FE CALLDATASIZE PUSH1 0x4 PUSH2 0xB3D5 JUMP JUMPDEST PUSH2 0x3AA6 JUMP JUMPDEST CALLVALUE DUP1 ISZERO PUSH2 0x80F JUMPI PUSH1 0x0 DUP1 REVERT JUMPDEST POP PUSH2 0x3F3 PUSH2 0x81E CALLDATASIZE PUSH1 0x4 PUSH2 0xB57D JUMP JUMPDEST PUSH2 0x3BAC JUMP JUMPDEST CALLVALUE DUP1 ISZERO PUSH2 0x82F JUMPI PUSH1 0x0 DUP1 REVERT JUMPDEST POP PUSH2 0x3F3 PUSH2 0x83E CALLDATASIZE PUSH1 0x4 PUSH2 0xBD2E JUMP JUMPDEST PUSH2 0x3CBC JUMP JUMPDEST CALLVALUE DUP1 ISZERO PUSH2 0x84F JUMPI PUSH1 0x0 DUP1 REVERT JUMPDEST POP PUSH2 0x858 PUSH2 0x3F09 JUMP JUMPDEST PUSH1 0x40 MLOAD PUSH2 0x400 SWAP2 SWAP1 PUSH2 0xC681 JUMP JUMPDEST CALLVALUE DUP1 ISZERO PUSH2 0x871 JUMPI PUSH1 0x0 DUP1 REVERT JUMPDEST POP PUSH2 0x3F3 PUSH2 0x880 CALLDATASIZE PUSH1 0x4 PUSH2 0xBAA7 JUMP JUMPDEST PUSH2 0x3F21 JUMP JUMPDEST CALLVALUE DUP1 ISZERO PUSH2 0x891 JUMPI PUSH1 0x0 DUP1 REVERT JUMPDEST POP PUSH2 0x3F3 PUSH2 0x8A0 CALLDATASIZE PUSH1 0x4 PUSH2 0xB9DA JUMP JUMPDEST PUSH2 0x4048 JUMP JUMPDEST CALLVALUE DUP1 ISZERO PUSH2 0x8B1 JUMPI PUSH1 0x0 DUP1 REVERT JUMPDEST POP PUSH2 0x8C5 PUSH2 0x8C0 CALLDATASIZE PUSH1 0x4 PUSH2 0xB698 JUMP JUMPDEST PUSH2 0x415A JUMP JUMPDEST PUSH1 0x40 MLOAD PUSH2 0x400 SWAP4 SWAP3 SWAP2 SWAP1 PUSH2 0xCB92 JUMP JUMPDEST CALLVALUE DUP1 ISZERO PUSH2 0x8E0 JUMPI PUSH1 0x0 DUP1 REVERT JUMPDEST POP PUSH2 0x8F4 PUSH2 0x8EF CALLDATASIZE PUSH1 0x4 PUSH2 0xBAA7 JUMP JUMPDEST PUSH2 0x4480 JUMP JUMPDEST PUSH1 0x40 MLOAD PUSH2 0x400 SWAP3 SWAP2 SWAP1 PUSH2 0xC99C JUMP JUMPDEST CALLVALUE DUP1 ISZERO PUSH2 0x90E JUMPI PUSH1 0x0 DUP1 REVERT JUMPDEST POP PUSH2 0x3F3 PUSH2 0x91D CALLDATASIZE PUSH1 0x4 PUSH2 0xBC22 JUMP JUMPDEST PUSH2 0x4653 JUMP JUMPDEST CALLVALUE DUP1 ISZERO PUSH2 0x92E JUMPI PUSH1 0x0 DUP1 REVERT JUMPDEST POP PUSH2 0x3F3 PUSH2 0x93D CALLDATASIZE PUSH1 0x4 PUSH2 0xB461 JUMP JUMPDEST PUSH2 0x4853 JUMP JUMPDEST CALLVALUE DUP1 ISZERO PUSH2 0x94E JUMPI PUSH1 0x0 DUP1 REVERT JUMPDEST POP PUSH2 0x645 PUSH2 0x95D CALLDATASIZE PUSH1 0x4 PUSH2 0xBCE8 JUMP JUMPDEST PUSH2 0x4D8C JUMP JUMPDEST CALLVALUE DUP1 ISZERO PUSH2 0x96E JUMPI PUSH1 0x0 DUP1 REVERT JUMPDEST POP PUSH2 0x645 PUSH2 0x97D CALLDATASIZE PUSH1 0x4 PUSH2 0xB4CD JUMP JUMPDEST PUSH2 0x4ED1 JUMP JUMPDEST CALLVALUE DUP1 ISZERO PUSH2 0x98E JUMPI PUSH1 0x0 DUP1 REVERT JUMPDEST POP PUSH2 0x3F3 PUSH2 0x99D CALLDATASIZE PUSH1 0x4 PUSH2 0xBB8A JUMP JUMPDEST PUSH2 0x50E7 JUMP JUMPDEST CALLVALUE DUP1 ISZERO PUSH2 0x9AE JUMPI PUSH1 0x0 DUP1 REVERT JUMPDEST POP PUSH2 0x553 PUSH2 0x9BD CALLDATASIZE PUSH1 0x4 PUSH2 0xB5EE JUMP JUMPDEST PUSH2 0x52E3 JUMP JUMPDEST CALLVALUE DUP1 ISZERO PUSH2 0x9CE JUMPI PUSH1 0x0 DUP1 REVERT JUMPDEST POP PUSH2 0x3F3 PUSH2 0x9DD CALLDATASIZE PUSH1 0x4 PUSH2 0xB996 JUMP JUMPDEST PUSH2 0x5420 JUMP JUMPDEST CALLVALUE DUP1 ISZERO PUSH2 0x9EE JUMPI PUSH1 0x0 DUP1 REVERT JUMPDEST POP PUSH2 0x8F4 PUSH2 0x9FD CALLDATASIZE PUSH1 0x4 PUSH2 0xBAA7 JUMP JUMPDEST PUSH2 0x562F JUMP JUMPDEST CALLVALUE DUP1 ISZERO PUSH2 0xA0E JUMPI PUSH1 0x0 DUP1 REVERT JUMPDEST POP PUSH2 0x3F3 PUSH2 0xA1D CALLDATASIZE PUSH1 0x4 PUSH2 0xB3D5 JUMP JUMPDEST PUSH2 0x571A JUMP JUMPDEST CALLVALUE DUP1 ISZERO PUSH2 0xA2E JUMPI PUSH1 0x0 DUP1 REVERT JUMPDEST POP PUSH2 0xA42 PUSH2 0xA3D CALLDATASIZE PUSH1 0x4 PUSH2 0xB461 JUMP JUMPDEST PUSH2 0x580C JUMP JUMPDEST PUSH1 0x40 MLOAD PUSH2 0x400 SWAP3 SWAP2 SWAP1 PUSH2 0xC9B8 JUMP JUMPDEST CALLVALUE DUP1 ISZERO PUSH2 0xA5C JUMPI PUSH1 0x0 DUP1 REVERT JUMPDEST POP PUSH2 0x3F3 PUSH2 0xA6B CALLDATASIZE PUSH1 0x4 PUSH2 0xB461 JUMP JUMPDEST PUSH2 0x595C JUMP JUMPDEST CALLVALUE DUP1 ISZERO PUSH2 0xA7C JUMPI PUSH1 0x0 DUP1 REVERT JUMPDEST POP PUSH2 0x3F3 PUSH2 0xA8B CALLDATASIZE PUSH1 0x4 PUSH2 0xB73C JUMP JUMPDEST PUSH2 0x59C2 JUMP JUMPDEST CALLVALUE DUP1 ISZERO PUSH2 0xA9C JUMPI PUSH1 0x0 DUP1 REVERT JUMPDEST POP PUSH2 0x3F3 PUSH2 0xAAB CALLDATASIZE PUSH1 0x4 PUSH2 0xB461 JUMP JUMPDEST PUSH2 0x5ABE JUMP JUMPDEST CALLVALUE DUP1 ISZERO PUSH2 0xABC JUMPI PUSH1 0x0 DUP1 REVERT JUMPDEST POP PUSH2 0x3F3 PUSH2 0xACB CALLDATASIZE PUSH1 0x4 PUSH2 0xB57D JUMP JUMPDEST PUSH2 0x5C7B JUMP JUMPDEST CALLVALUE DUP1 ISZERO PUSH2 0xADC JUMPI PUSH1 0x0 DUP1 REVERT JUMPDEST POP PUSH2 0x5E2 PUSH2 0xAEB CALLDATASIZE PUSH1 0x4 PUSH2 0xB9FC JUMP JUMPDEST PUSH2 0x5DE7 JUMP JUMPDEST CALLVALUE DUP1 ISZERO PUSH2 0xAFC JUMPI PUSH1 0x0 DUP1 REVERT JUMPDEST POP PUSH2 0x3F3 PUSH2 0xB0B CALLDATASIZE PUSH1 0x4 PUSH2 0xB94C JUMP JUMPDEST PUSH2 0x5EFC JUMP JUMPDEST CALLVALUE DUP1 ISZERO PUSH2 0xB1C JUMPI PUSH1 0x0 DUP1 REVERT JUMPDEST POP PUSH2 0x553 PUSH2 0xB2B CALLDATASIZE PUSH1 0x4 PUSH2 0xB5EE JUMP JUMPDEST PUSH2 0x606E JUMP JUMPDEST CALLVALUE DUP1 ISZERO PUSH2 0xB3C JUMPI PUSH1 0x0 DUP1 REVERT JUMPDEST POP PUSH2 0xB50 PUSH2 0xB4B CALLDATASIZE PUSH1 0x4 PUSH2 0xB337 JUMP JUMPDEST PUSH2 0x615D JUMP JUMPDEST PUSH1 0x40 MLOAD PUSH2 0x400 SWAP3 SWAP2 SWAP1 PUSH2 0xC909 JUMP JUMPDEST CALLVALUE DUP1 ISZERO PUSH2 0xB6A JUMPI PUSH1 0x0 DUP1 REVERT JUMPDEST POP PUSH2 0x553 PUSH2 0xB79 CALLDATASIZE PUSH1 0x4 PUSH2 0xBC82 JUMP JUMPDEST PUSH2 0x6423 JUMP JUMPDEST CALLVALUE DUP1 ISZERO PUSH2 0xB8A JUMPI PUSH1 0x0 DUP1 REVERT JUMPDEST POP PUSH2 0xB50 PUSH2 0xB99 CALLDATASIZE PUSH1 0x4 PUSH2 0xB337 JUMP JUMPDEST PUSH2 0x66B6 JUMP JUMPDEST CALLVALUE DUP1 ISZERO PUSH2 0xBAA JUMPI PUSH1 0x0 DUP1 REVERT JUMPDEST POP PUSH2 0x3F3 PUSH2 0xBB9 CALLDATASIZE PUSH1 0x4 PUSH2 0xBAA7 JUMP JUMPDEST PUSH2 0x696C JUMP JUMPDEST CALLVALUE DUP1 ISZERO PUSH2 0xBCA JUMPI PUSH1 0x0 DUP1 REVERT JUMPDEST POP PUSH2 0x3F3 PUSH2 0xBD9 CALLDATASIZE PUSH1 0x4 PUSH2 0xB782 JUMP JUMPDEST PUSH2 0x69DA JUMP JUMPDEST CALLVALUE DUP1 ISZERO PUSH2 0xBEA JUMPI PUSH1 0x0 DUP1 REVERT JUMPDEST POP PUSH2 0x3F3 PUSH2 0xBF9 CALLDATASIZE PUSH1 0x4 PUSH2 0xB461 JUMP JUMPDEST PUSH2 0x6ACF JUMP JUMPDEST CALLVALUE DUP1 ISZERO PUSH2 0xC0A JUMPI PUSH1 0x0 DUP1 REVERT JUMPDEST POP PUSH2 0xA42 PUSH2 0xC19 CALLDATASIZE PUSH1 0x4 PUSH2 0xB461 JUMP JUMPDEST PUSH2 0x6C02 JUMP JUMPDEST CALLVALUE DUP1 ISZERO PUSH2 0xC2A JUMPI PUSH1 0x0 DUP1 REVERT JUMPDEST POP PUSH2 0x3F3 PUSH2 0xC39 CALLDATASIZE PUSH1 0x4 PUSH2 0xB57D JUMP JUMPDEST PUSH2 0x6CEE JUMP JUMPDEST CALLVALUE DUP1 ISZERO PUSH2 0xC4A JUMPI PUSH1 0x0 DUP1 REVERT JUMPDEST POP PUSH2 0x3F3 PUSH2 0xC59 CALLDATASIZE PUSH1 0x4 PUSH2 0xB522 JUMP JUMPDEST PUSH2 0x6E67 JUMP JUMPDEST CALLVALUE DUP1 ISZERO PUSH2 0xC6A JUMPI PUSH1 0x0 DUP1 REVERT JUMPDEST POP PUSH2 0x8C5 PUSH2 0xC79 CALLDATASIZE PUSH1 0x4 PUSH2 0xB698 JUMP JUMPDEST PUSH2 0x70C1 JUMP JUMPDEST DUP1 MLOAD PUSH1 0x60 SWAP1 DUP1 PUSH1 0x1 PUSH1 0x1 PUSH1 0x40 SHL SUB DUP2 GT DUP1 ISZERO PUSH2 0xC99 JUMPI PUSH1 0x0 DUP1 REVERT JUMPDEST POP PUSH1 0x40 MLOAD SWAP1 DUP1 DUP3 MSTORE DUP1 PUSH1 0x20 MUL PUSH1 0x20 ADD DUP3 ADD PUSH1 0x40 MSTORE DUP1 ISZERO PUSH2 0xCC3 JUMPI DUP2 PUSH1 0x20 ADD PUSH1 0x20 DUP3 MUL DUP1 CALLDATASIZE DUP4 CALLDATACOPY ADD SWAP1 POP JUMPDEST POP SWAP2 POP PUSH1 0x0 DUP7 PUSH1 0x1 PUSH1 0x1 PUSH1 0xA0 SHL SUB AND PUSH4 0x182DF0F5 PUSH1 0x40 MLOAD DUP2 PUSH4 0xFFFFFFFF AND PUSH1 0xE0 SHL DUP2 MSTORE PUSH1 0x4 ADD PUSH1 0x20 PUSH1 0x40 MLOAD DUP1 DUP4 SUB DUP2 DUP7 DUP1 EXTCODESIZE ISZERO DUP1 ISZERO PUSH2 0xD01 JUMPI PUSH1 0x0 DUP1 REVERT JUMPDEST POP GAS STATICCALL ISZERO DUP1 ISZERO PUSH2 0xD15 JUMPI RETURNDATASIZE PUSH1 0x0 DUP1 RETURNDATACOPY RETURNDATASIZE PUSH1 0x0 REVERT JUMPDEST POP POP POP POP PUSH1 0x40 MLOAD RETURNDATASIZE PUSH1 0x1F NOT PUSH1 0x1F DUP3 ADD AND DUP3 ADD DUP1 PUSH1 0x40 MSTORE POP DUP2 ADD SWAP1 PUSH2 0xD39 SWAP2 SWAP1 PUSH2 0xB92E JUMP JUMPDEST SWAP1 POP PUSH1 0x0 DUP8 PUSH1 0x1 PUSH1 0x1 PUSH1 0xA0 SHL SUB AND PUSH4 0x313CE567 PUSH1 0x40 MLOAD DUP2 PUSH4 0xFFFFFFFF AND PUSH1 0xE0 SHL DUP2 MSTORE PUSH1 0x4 ADD PUSH1 0x20 PUSH1 0x40 MLOAD DUP1 DUP4 SUB DUP2 DUP7 DUP1 EXTCODESIZE ISZERO DUP1 ISZERO PUSH2 0xD76 JUMPI PUSH1 0x0 DUP1 REVERT JUMPDEST POP GAS STATICCALL ISZERO DUP1 ISZERO PUSH2 0xD8A JUMPI RETURNDATASIZE PUSH1 0x0 DUP1 RETURNDATACOPY RETURNDATASIZE PUSH1 0x0 REVERT JUMPDEST POP POP POP POP PUSH1 0x40 MLOAD RETURNDATASIZE PUSH1 0x1F NOT PUSH1 0x1F DUP3 ADD AND DUP3 ADD DUP1 PUSH1 0x40 MSTORE POP DUP2 ADD SWAP1 PUSH2 0xDAE SWAP2 SWAP1 PUSH2 0xBEBC JUMP JUMPDEST PUSH1 0xFF AND SWAP1 POP DUP8 PUSH1 0x1 PUSH1 0x1 PUSH1 0xA0 SHL SUB AND DUP7 PUSH1 0x1 PUSH1 0x1 PUSH1 0xA0 SHL SUB AND EQ ISZERO PUSH2 0xE26 JUMPI PUSH1 0x0 JUMPDEST DUP4 DUP2 LT ISZERO PUSH2 0xE20 JUMPI DUP2 PUSH1 0xA EXP PUSH5 0x2540BE400 MUL DUP4 DUP8 DUP4 DUP2 MLOAD DUP2 LT PUSH2 0xDF0 JUMPI INVALID JUMPDEST PUSH1 0x20 MUL PUSH1 0x20 ADD ADD MLOAD MUL DUP2 PUSH2 0xE00 JUMPI INVALID JUMPDEST DIV DUP6 DUP3 DUP2 MLOAD DUP2 LT PUSH2 0xE0D JUMPI INVALID JUMPDEST PUSH1 0x20 SWAP1 DUP2 MUL SWAP2 SWAP1 SWAP2 ADD ADD MSTORE PUSH1 0x1 ADD PUSH2 0xDD0 JUMP JUMPDEST POP PUSH2 0xE95 JUMP JUMPDEST DUP8 PUSH1 0x1 PUSH1 0x1 PUSH1 0xA0 SHL SUB AND DUP8 PUSH1 0x1 PUSH1 0x1 PUSH1 0xA0 SHL SUB AND EQ ISZERO PUSH2 0xE95 JUMPI PUSH1 0x0 JUMPDEST DUP4 DUP2 LT ISZERO PUSH2 0xE93 JUMPI DUP3 DUP3 PUSH1 0xA EXP PUSH5 0x2540BE400 DUP9 DUP5 DUP2 MLOAD DUP2 LT PUSH2 0xE62 JUMPI INVALID JUMPDEST PUSH1 0x20 MUL PUSH1 0x20 ADD ADD MLOAD MUL MUL DUP2 PUSH2 0xE73 JUMPI INVALID JUMPDEST DIV DUP6 DUP3 DUP2 MLOAD DUP2 LT PUSH2 0xE80 JUMPI INVALID JUMPDEST PUSH1 0x20 SWAP1 DUP2 MUL SWAP2 SWAP1 SWAP2 ADD ADD MSTORE PUSH1 0x1 ADD PUSH2 0xE43 JUMP JUMPDEST POP JUMPDEST POP POP POP SWAP5 SWAP4 POP POP POP POP JUMP JUMPDEST DUP1 MLOAD PUSH1 0x60 SWAP1 DUP2 SWAP1 DUP1 PUSH1 0x1 PUSH1 0x1 PUSH1 0x40 SHL SUB DUP2 GT DUP1 ISZERO PUSH2 0xEBD JUMPI PUSH1 0x0 DUP1 REVERT JUMPDEST POP PUSH1 0x40 MLOAD SWAP1 DUP1 DUP3 MSTORE DUP1 PUSH1 0x20 MUL PUSH1 0x20 ADD DUP3 ADD PUSH1 0x40 MSTORE DUP1 ISZERO PUSH2 0xEE7 JUMPI DUP2 PUSH1 0x20 ADD PUSH1 0x20 DUP3 MUL DUP1 CALLDATASIZE DUP4 CALLDATACOPY ADD SWAP1 POP JUMPDEST POP SWAP2 POP PUSH2 0xEF4 DUP7 DUP7 PUSH2 0x7450 JUMP JUMPDEST SWAP3 POP DUP3 MLOAD PUSH1 0x0 EQ ISZERO PUSH2 0xF06 JUMPI POP PUSH2 0x103E JUMP JUMPDEST PUSH1 0x0 JUMPDEST DUP2 DUP2 LT ISZERO PUSH2 0x103B JUMPI DUP7 PUSH1 0x1 PUSH1 0x1 PUSH1 0xA0 SHL SUB AND PUSH4 0xA8312B1D PUSH3 0x249F0 DUP8 DUP5 DUP2 MLOAD DUP2 LT PUSH2 0xF30 JUMPI INVALID JUMPDEST PUSH1 0x20 MUL PUSH1 0x20 ADD ADD MLOAD DUP8 DUP11 PUSH1 0x40 MLOAD DUP6 PUSH4 0xFFFFFFFF AND PUSH1 0xE0 SHL DUP2 MSTORE PUSH1 0x4 ADD PUSH2 0xF58 SWAP4 SWAP3 SWAP2 SWAP1 PUSH2 0xCC1B JUMP JUMPDEST PUSH1 0x0 PUSH1 0x40 MLOAD DUP1 DUP4 SUB DUP2 DUP8 DUP1 EXTCODESIZE ISZERO DUP1 ISZERO PUSH2 0xF70 JUMPI PUSH1 0x0 DUP1 REVERT JUMPDEST POP DUP7 STATICCALL SWAP4 POP POP POP POP DUP1 ISZERO PUSH2 0xFA6 JUMPI POP PUSH1 0x40 MLOAD RETURNDATASIZE PUSH1 0x0 DUP3 RETURNDATACOPY PUSH1 0x1F RETURNDATASIZE SWAP1 DUP2 ADD PUSH1 0x1F NOT AND DUP3 ADD PUSH1 0x40 MSTORE PUSH2 0xFA3 SWAP2 SWAP1 DUP2 ADD SWAP1 PUSH2 0xB87F JUMP JUMPDEST PUSH1 0x1 JUMPDEST PUSH2 0xFE0 JUMPI RETURNDATASIZE DUP1 DUP1 ISZERO PUSH2 0xFD4 JUMPI PUSH1 0x40 MLOAD SWAP2 POP PUSH1 0x1F NOT PUSH1 0x3F RETURNDATASIZE ADD AND DUP3 ADD PUSH1 0x40 MSTORE RETURNDATASIZE DUP3 MSTORE RETURNDATASIZE PUSH1 0x0 PUSH1 0x20 DUP5 ADD RETURNDATACOPY PUSH2 0xFD9 JUMP JUMPDEST PUSH1 0x60 SWAP2 POP JUMPDEST POP POP PUSH2 0x103B JUMP JUMPDEST DUP1 PUSH1 0x1 DUP9 MLOAD SUB DUP2 MLOAD DUP2 LT PUSH2 0xFF0 JUMPI INVALID JUMPDEST PUSH1 0x20 MUL PUSH1 0x20 ADD ADD MLOAD DUP5 DUP4 DUP2 MLOAD DUP2 LT PUSH2 0x1004 JUMPI INVALID JUMPDEST PUSH1 0x20 MUL PUSH1 0x20 ADD ADD DUP2 DUP2 MSTORE POP POP DUP4 DUP3 DUP2 MLOAD DUP2 LT PUSH2 0x101C JUMPI INVALID JUMPDEST PUSH1 0x20 MUL PUSH1 0x20 ADD ADD MLOAD PUSH1 0x0 EQ ISZERO PUSH2 0x1032 JUMPI POP PUSH2 0x103B JUMP JUMPDEST POP PUSH1 0x1 ADD PUSH2 0xF09 JUMP JUMPDEST POP POP JUMPDEST SWAP4 POP SWAP4 SWAP2 POP POP JUMP JUMPDEST PUSH1 0x60 DUP4 MLOAD PUSH1 0x1 PUSH1 0x1 PUSH1 0x40 SHL SUB DUP2 GT DUP1 ISZERO PUSH2 0x105F JUMPI PUSH1 0x0 DUP1 REVERT JUMPDEST POP PUSH1 0x40 MLOAD SWAP1 DUP1 DUP3 MSTORE DUP1 PUSH1 0x20 MUL PUSH1 0x20 ADD DUP3 ADD PUSH1 0x40 MSTORE DUP1 ISZERO PUSH2 0x1089 JUMPI DUP2 PUSH1 0x20 ADD PUSH1 0x20 DUP3 MUL DUP1 CALLDATASIZE DUP4 CALLDATACOPY ADD SWAP1 POP JUMPDEST POP SWAP1 POP PUSH1 0x0 JUMPDEST DUP5 MLOAD DUP2 EQ PUSH2 0x11B1 JUMPI ADDRESS PUSH1 0x1 PUSH1 0x1 PUSH1 0xA0 SHL SUB AND PUSH4 0x9BF3EE35 PUSH3 0x30D40 DUP8 DUP5 DUP2 MLOAD DUP2 LT PUSH2 0x10B6 JUMPI INVALID JUMPDEST PUSH1 0x20 MUL PUSH1 0x20 ADD ADD MLOAD DUP8 DUP6 DUP2 MLOAD DUP2 LT PUSH2 0x10CA JUMPI INVALID JUMPDEST PUSH1 0x20 MUL PUSH1 0x20 ADD ADD MLOAD DUP8 PUSH1 0x40 MLOAD DUP6 PUSH4 0xFFFFFFFF AND PUSH1 0xE0 SHL DUP2 MSTORE PUSH1 0x4 ADD PUSH2 0x10F1 SWAP4 SWAP3 SWAP2 SWAP1 PUSH2 0xCBD4 JUMP JUMPDEST PUSH1 0x20 PUSH1 0x40 MLOAD DUP1 DUP4 SUB DUP2 DUP8 DUP1 EXTCODESIZE ISZERO DUP1 ISZERO PUSH2 0x1109 JUMPI PUSH1 0x0 DUP1 REVERT JUMPDEST POP DUP7 STATICCALL SWAP4 POP POP POP POP DUP1 ISZERO PUSH2 0x113A JUMPI POP PUSH1 0x40 DUP1 MLOAD PUSH1 0x1F RETURNDATASIZE SWAP1 DUP2 ADD PUSH1 0x1F NOT AND DUP3 ADD SWAP1 SWAP3 MSTORE PUSH2 0x1137 SWAP2 DUP2 ADD SWAP1 PUSH2 0xB92E JUMP JUMPDEST PUSH1 0x1 JUMPDEST PUSH2 0x118E JUMPI RETURNDATASIZE DUP1 DUP1 ISZERO PUSH2 0x1168 JUMPI PUSH1 0x40 MLOAD SWAP2 POP PUSH1 0x1F NOT PUSH1 0x3F RETURNDATASIZE ADD AND DUP3 ADD PUSH1 0x40 MSTORE RETURNDATASIZE DUP3 MSTORE RETURNDATASIZE PUSH1 0x0 PUSH1 0x20 DUP5 ADD RETURNDATACOPY PUSH2 0x116D JUMP JUMPDEST PUSH1 0x60 SWAP2 POP JUMPDEST POP PUSH1 0x0 DUP4 DUP4 DUP2 MLOAD DUP2 LT PUSH2 0x117C JUMPI INVALID JUMPDEST PUSH1 0x20 MUL PUSH1 0x20 ADD ADD DUP2 DUP2 MSTORE POP POP POP PUSH2 0x11A9 JUMP JUMPDEST DUP1 DUP4 DUP4 DUP2 MLOAD DUP2 LT PUSH2 0x119B JUMPI INVALID JUMPDEST PUSH1 0x20 MUL PUSH1 0x20 ADD ADD DUP2 DUP2 MSTORE POP POP POP JUMPDEST PUSH1 0x1 ADD PUSH2 0x108F JUMP JUMPDEST POP SWAP4 SWAP3 POP POP POP JUMP JUMPDEST PUSH1 0x0 PUSH1 0x60 DUP1 DUP4 MLOAD PUSH1 0x1 PUSH1 0x1 PUSH1 0x40 SHL SUB DUP2 GT DUP1 ISZERO PUSH2 0x11D5 JUMPI PUSH1 0x0 DUP1 REVERT JUMPDEST POP PUSH1 0x40 MLOAD SWAP1 DUP1 DUP3 MSTORE DUP1 PUSH1 0x20 MUL PUSH1 0x20 ADD DUP3 ADD PUSH1 0x40 MSTORE DUP1 ISZERO PUSH2 0x11FF JUMPI DUP2 PUSH1 0x20 ADD PUSH1 0x20 DUP3 MUL DUP1 CALLDATASIZE DUP4 CALLDATACOPY ADD SWAP1 POP JUMPDEST POP SWAP1 POP DUP7 PUSH1 0x20 ADD MLOAD MLOAD PUSH1 0x0 EQ ISZERO PUSH2 0x1215 JUMPI PUSH2 0x130F JUMP JUMPDEST PUSH2 0x1221 DUP8 DUP8 DUP8 DUP8 PUSH2 0x7740 JUMP JUMPDEST SWAP1 SWAP4 POP SWAP2 POP PUSH1 0x0 JUMPDEST DUP2 MLOAD DUP2 LT ISZERO PUSH2 0x130D JUMPI DUP4 PUSH1 0x1 PUSH1 0x1 PUSH1 0xA0 SHL SUB AND PUSH4 0x7F9C0ECD PUSH3 0x493E0 DUP6 DUP9 DUP6 DUP2 MLOAD DUP2 LT PUSH2 0x1252 JUMPI INVALID JUMPDEST PUSH1 0x20 MUL PUSH1 0x20 ADD ADD MLOAD PUSH1 0x40 MLOAD DUP5 PUSH4 0xFFFFFFFF AND PUSH1 0xE0 SHL DUP2 MSTORE PUSH1 0x4 ADD PUSH2 0x1277 SWAP3 SWAP2 SWAP1 PUSH2 0xC8E9 JUMP JUMPDEST PUSH1 0x20 PUSH1 0x40 MLOAD DUP1 DUP4 SUB DUP2 DUP8 DUP1 EXTCODESIZE ISZERO DUP1 ISZERO PUSH2 0x128F JUMPI PUSH1 0x0 DUP1 REVERT JUMPDEST POP DUP7 STATICCALL SWAP4 POP POP POP POP DUP1 ISZERO PUSH2 0x12C0 JUMPI POP PUSH1 0x40 DUP1 MLOAD PUSH1 0x1F RETURNDATASIZE SWAP1 DUP2 ADD PUSH1 0x1F NOT AND DUP3 ADD SWAP1 SWAP3 MSTORE PUSH2 0x12BD SWAP2 DUP2 ADD SWAP1 PUSH2 0xB92E JUMP JUMPDEST PUSH1 0x1 JUMPDEST PUSH2 0x12C9 JUMPI PUSH2 0x130D JUMP JUMPDEST DUP1 DUP4 DUP4 DUP2 MLOAD DUP2 LT PUSH2 0x12D6 JUMPI INVALID JUMPDEST PUSH1 0x20 MUL PUSH1 0x20 ADD ADD DUP2 DUP2 MSTORE POP POP DUP3 DUP3 DUP2 MLOAD DUP2 LT PUSH2 0x12EE JUMPI INVALID JUMPDEST PUSH1 0x20 MUL PUSH1 0x20 ADD ADD MLOAD PUSH1 0x0 EQ ISZERO PUSH2 0x1304 JUMPI POP PUSH2 0x130D JUMP JUMPDEST POP PUSH1 0x1 ADD PUSH2 0x1229 JUMP JUMPDEST POP JUMPDEST SWAP5 POP SWAP5 POP SWAP5 SWAP2 POP POP JUMP JUMPDEST DUP1 EXTCODESIZE ISZERO ISZERO JUMPDEST SWAP2 SWAP1 POP JUMP JUMPDEST DUP1 MLOAD PUSH1 0x60 SWAP1 DUP1 PUSH1 0x1 PUSH1 0x1 PUSH1 0x40 SHL SUB DUP2 GT DUP1 ISZERO PUSH2 0x133E JUMPI PUSH1 0x0 DUP1 REVERT JUMPDEST POP PUSH1 0x40 MLOAD SWAP1 DUP1 DUP3 MSTORE DUP1 PUSH1 0x20 MUL PUSH1 0x20 ADD DUP3 ADD PUSH1 0x40 MSTORE DUP1 ISZERO PUSH2 0x1368 JUMPI DUP2 PUSH1 0x20 ADD PUSH1 0x20 DUP3 MUL DUP1 CALLDATASIZE DUP4 CALLDATACOPY ADD SWAP1 POP JUMPDEST POP SWAP2 POP PUSH2 0x1373 PUSH2 0xA578 JUMP JUMPDEST PUSH2 0x137B PUSH2 0x7966 JUMP JUMPDEST SWAP1 POP PUSH1 0x0 JUMPDEST DUP3 DUP2 LT ISZERO PUSH2 0xE95 JUMPI DUP5 DUP2 DUP2 MLOAD DUP2 LT PUSH2 0x1394 JUMPI INVALID JUMPDEST PUSH1 0x20 MUL PUSH1 0x20 ADD ADD MLOAD DUP8 PUSH1 0x0 DUP2 MLOAD DUP2 LT PUSH2 0x13A9 JUMPI INVALID JUMPDEST PUSH1 0x20 SWAP1 DUP2 MUL SWAP2 SWAP1 SWAP2 ADD ADD MLOAD PUSH1 0x60 ADD MSTORE PUSH1 0x40 MLOAD PUSH4 0x7C268337 PUSH1 0xE1 SHL DUP2 MSTORE PUSH1 0x1 PUSH1 0x1 PUSH1 0xA0 SHL SUB DUP10 AND SWAP1 PUSH4 0xF84D066E SWAP1 PUSH2 0x13EB SWAP1 PUSH1 0x1 SWAP1 DUP12 SWAP1 DUP12 SWAP1 DUP9 SWAP1 PUSH1 0x4 ADD PUSH2 0xCA95 JUMP JUMPDEST PUSH1 0x0 PUSH1 0x40 MLOAD DUP1 DUP4 SUB DUP2 PUSH1 0x0 DUP8 DUP1 EXTCODESIZE ISZERO DUP1 ISZERO PUSH2 0x1405 JUMPI PUSH1 0x0 DUP1 REVERT JUMPDEST POP GAS CALL SWAP3 POP POP POP DUP1 ISZERO PUSH2 0x143A JUMPI POP PUSH1 0x40 MLOAD RETURNDATASIZE PUSH1 0x0 DUP3 RETURNDATACOPY PUSH1 0x1F RETURNDATASIZE SWAP1 DUP2 ADD PUSH1 0x1F NOT AND DUP3 ADD PUSH1 0x40 MSTORE PUSH2 0x1437 SWAP2 SWAP1 DUP2 ADD SWAP1 PUSH2 0xB7DB JUMP JUMPDEST PUSH1 0x1 JUMPDEST PUSH2 0x1443 JUMPI PUSH2 0xE95 JUMP JUMPDEST PUSH1 0x0 DUP2 PUSH1 0x0 DUP2 MLOAD DUP2 LT PUSH2 0x1452 JUMPI INVALID JUMPDEST PUSH1 0x20 MUL PUSH1 0x20 ADD ADD MLOAD SWAP1 POP PUSH1 0x0 DUP2 SGT PUSH2 0x146B JUMPI POP POP PUSH2 0xE95 JUMP JUMPDEST DUP1 DUP7 DUP5 DUP2 MLOAD DUP2 LT PUSH2 0x1478 JUMPI INVALID JUMPDEST PUSH1 0x20 MUL PUSH1 0x20 ADD ADD DUP2 DUP2 MSTORE POP POP POP POP PUSH1 0x1 ADD PUSH2 0x1380 JUMP JUMPDEST PUSH1 0x60 PUSH2 0x149A DUP4 DUP6 PUSH2 0x7995 JUMP JUMPDEST PUSH1 0x20 DUP6 ADD MLOAD PUSH1 0x40 DUP1 MLOAD PUSH1 0x2 DUP1 DUP3 MSTORE PUSH1 0x60 DUP3 DUP2 ADD SWAP1 SWAP4 MSTORE DUP2 PUSH1 0x20 ADD PUSH1 0x20 DUP3 MUL DUP1 CALLDATASIZE DUP4 CALLDATACOPY ADD SWAP1 POP POP SWAP1 POP DUP6 DUP2 PUSH1 0x0 DUP2 MLOAD DUP2 LT PUSH2 0x14D0 JUMPI INVALID JUMPDEST PUSH1 0x20 MUL PUSH1 0x20 ADD ADD SWAP1 PUSH1 0x1 PUSH1 0x1 PUSH1 0xA0 SHL SUB AND SWAP1 DUP2 PUSH1 0x1 PUSH1 0x1 PUSH1 0xA0 SHL SUB AND DUP2 MSTORE POP POP DUP5 DUP2 PUSH1 0x1 DUP2 MLOAD DUP2 LT PUSH2 0x14FE JUMPI INVALID JUMPDEST PUSH1 0x1 PUSH1 0x1 PUSH1 0xA0 SHL SUB SWAP1 SWAP3 AND PUSH1 0x20 SWAP3 DUP4 MUL SWAP2 SWAP1 SWAP2 ADD SWAP1 SWAP2 ADD MSTORE DUP4 MLOAD DUP1 PUSH1 0x1 PUSH1 0x1 PUSH1 0x40 SHL SUB DUP2 GT DUP1 ISZERO PUSH2 0x152E JUMPI PUSH1 0x0 DUP1 REVERT JUMPDEST POP PUSH1 0x40 MLOAD SWAP1 DUP1 DUP3 MSTORE DUP1 PUSH1 0x20 MUL PUSH1 0x20 ADD DUP3 ADD PUSH1 0x40 MSTORE DUP1 ISZERO PUSH2 0x1558 JUMPI DUP2 PUSH1 0x20 ADD PUSH1 0x20 DUP3 MUL DUP1 CALLDATASIZE DUP4 CALLDATACOPY ADD SWAP1 POP JUMPDEST POP SWAP4 POP PUSH2 0x1563 PUSH2 0xA578 JUMP JUMPDEST PUSH2 0x156B PUSH2 0x7966 JUMP JUMPDEST SWAP1 POP PUSH1 0x0 JUMPDEST DUP3 DUP2 LT ISZERO PUSH2 0x16AB JUMPI PUSH1 0x60 PUSH2 0x1597 DUP12 DUP10 DUP5 DUP2 MLOAD DUP2 LT PUSH2 0x158A JUMPI INVALID JUMPDEST PUSH1 0x20 MUL PUSH1 0x20 ADD ADD MLOAD PUSH2 0x79D4 JUMP JUMPDEST PUSH1 0x40 MLOAD PUSH4 0x7C268337 PUSH1 0xE1 SHL DUP2 MSTORE SWAP1 SWAP2 POP PUSH1 0x1 PUSH1 0x1 PUSH1 0xA0 SHL SUB DUP8 AND SWAP1 PUSH4 0xF84D066E SWAP1 PUSH2 0x15CD SWAP1 PUSH1 0x0 SWAP1 DUP6 SWAP1 DUP11 SWAP1 DUP10 SWAP1 PUSH1 0x4 ADD PUSH2 0xCA95 JUMP JUMPDEST PUSH1 0x0 PUSH1 0x40 MLOAD DUP1 DUP4 SUB DUP2 PUSH1 0x0 DUP8 DUP1 EXTCODESIZE ISZERO DUP1 ISZERO PUSH2 0x15E7 JUMPI PUSH1 0x0 DUP1 REVERT JUMPDEST POP GAS CALL SWAP3 POP POP POP DUP1 ISZERO PUSH2 0x161C JUMPI POP PUSH1 0x40 MLOAD RETURNDATASIZE PUSH1 0x0 DUP3 RETURNDATACOPY PUSH1 0x1F RETURNDATASIZE SWAP1 DUP2 ADD PUSH1 0x1F NOT AND DUP3 ADD PUSH1 0x40 MSTORE PUSH2 0x1619 SWAP2 SWAP1 DUP2 ADD SWAP1 PUSH2 0xB7DB JUMP JUMPDEST PUSH1 0x1 JUMPDEST PUSH2 0x1657 JUMPI RETURNDATASIZE DUP1 DUP1 ISZERO PUSH2 0x164A JUMPI PUSH1 0x40 MLOAD SWAP2 POP PUSH1 0x1F NOT PUSH1 0x3F RETURNDATASIZE ADD AND DUP3 ADD PUSH1 0x40 MSTORE RETURNDATASIZE DUP3 MSTORE RETURNDATASIZE PUSH1 0x0 PUSH1 0x20 DUP5 ADD RETURNDATACOPY PUSH2 0x164F JUMP JUMPDEST PUSH1 0x60 SWAP2 POP JUMPDEST POP POP POP PUSH2 0x16AB JUMP JUMPDEST PUSH1 0x0 DUP2 PUSH1 0x1 DUP4 MLOAD SUB DUP2 MLOAD DUP2 LT PUSH2 0x1669 JUMPI INVALID JUMPDEST PUSH1 0x20 MUL PUSH1 0x20 ADD ADD MLOAD PUSH1 0x0 NOT MUL SWAP1 POP PUSH1 0x0 DUP2 SGT PUSH2 0x1687 JUMPI POP POP POP PUSH2 0x16AB JUMP JUMPDEST DUP1 DUP10 DUP6 DUP2 MLOAD DUP2 LT PUSH2 0x1694 JUMPI INVALID JUMPDEST PUSH1 0x20 MUL PUSH1 0x20 ADD ADD DUP2 DUP2 MSTORE POP POP POP POP POP PUSH1 0x1 ADD PUSH2 0x1570 JUMP JUMPDEST POP POP POP POP POP SWAP5 SWAP4 POP POP POP POP JUMP JUMPDEST PUSH1 0x60 PUSH2 0x16C4 DUP4 DUP6 PUSH2 0x7995 JUMP JUMPDEST DUP2 MLOAD DUP1 PUSH1 0x1 PUSH1 0x1 PUSH1 0x40 SHL SUB DUP2 GT DUP1 ISZERO PUSH2 0x16DC JUMPI PUSH1 0x0 DUP1 REVERT JUMPDEST POP PUSH1 0x40 MLOAD SWAP1 DUP1 DUP3 MSTORE DUP1 PUSH1 0x20 MUL PUSH1 0x20 ADD DUP3 ADD PUSH1 0x40 MSTORE DUP1 ISZERO PUSH2 0x1706 JUMPI DUP2 PUSH1 0x20 ADD PUSH1 0x20 DUP3 MUL DUP1 CALLDATASIZE DUP4 CALLDATACOPY ADD SWAP1 POP JUMPDEST POP SWAP2 POP PUSH1 0x0 PUSH1 0x1 PUSH1 0x1 PUSH1 0xA0 SHL SUB DUP7 AND ISZERO PUSH2 0x1729 JUMPI PUSH2 0x1724 DUP8 DUP8 PUSH2 0x7A66 JUMP JUMPDEST PUSH2 0x172C JUMP JUMPDEST PUSH1 0x0 JUMPDEST SWAP1 POP PUSH1 0x0 PUSH1 0x1 PUSH1 0x1 PUSH1 0xA0 SHL SUB DUP7 AND ISZERO PUSH2 0x174E JUMPI PUSH2 0x1749 DUP9 DUP8 PUSH2 0x7A66 JUMP JUMPDEST PUSH2 0x1751 JUMP JUMPDEST PUSH1 0x0 JUMPDEST SWAP1 POP PUSH1 0x0 JUMPDEST DUP4 DUP2 LT ISZERO PUSH2 0xE93 JUMPI PUSH1 0x1 PUSH1 0x1 PUSH1 0x1 PUSH1 0xA0 SHL SUB DUP9 AND PUSH2 0x17B4 JUMPI PUSH2 0x1793 DUP5 PUSH4 0x2640F62C PUSH1 0xE0 SHL DUP10 DUP6 DUP2 MLOAD DUP2 LT PUSH2 0x1786 JUMPI INVALID JUMPDEST PUSH1 0x20 MUL PUSH1 0x20 ADD ADD MLOAD PUSH2 0x7AE5 JUMP JUMPDEST DUP8 DUP5 DUP2 MLOAD DUP2 LT PUSH2 0x179F JUMPI INVALID JUMPDEST PUSH1 0x20 MUL PUSH1 0x20 ADD ADD DUP2 SWAP4 POP DUP3 DUP2 MSTORE POP POP POP PUSH2 0x184E JUMP JUMPDEST PUSH1 0x1 PUSH1 0x1 PUSH1 0xA0 SHL SUB DUP10 AND PUSH2 0x17DA JUMPI PUSH2 0x1793 DUP4 PUSH4 0x59E94862 PUSH1 0xE0 SHL DUP10 DUP6 DUP2 MLOAD DUP2 LT PUSH2 0x1786 JUMPI INVALID JUMPDEST PUSH1 0x0 PUSH2 0x17F4 DUP5 PUSH4 0x59E94862 PUSH1 0xE0 SHL DUP11 DUP7 DUP2 MLOAD DUP2 LT PUSH2 0x1786 JUMPI INVALID JUMPDEST SWAP3 POP SWAP1 POP DUP1 ISZERO PUSH2 0x1831 JUMPI PUSH2 0x1810 DUP6 PUSH4 0x9903D8B PUSH1 0xE2 SHL DUP4 PUSH2 0x7AE5 JUMP JUMPDEST DUP9 DUP6 DUP2 MLOAD DUP2 LT PUSH2 0x181C JUMPI INVALID JUMPDEST PUSH1 0x20 MUL PUSH1 0x20 ADD ADD DUP2 SWAP5 POP DUP3 DUP2 MSTORE POP POP POP PUSH2 0x184C JUMP JUMPDEST PUSH1 0x0 DUP8 DUP5 DUP2 MLOAD DUP2 LT PUSH2 0x183F JUMPI INVALID JUMPDEST PUSH1 0x20 MUL PUSH1 0x20 ADD ADD DUP2 DUP2 MSTORE POP POP JUMPDEST POP JUMPDEST DUP1 ISZERO DUP1 PUSH2 0x186E JUMPI POP DUP6 DUP3 DUP2 MLOAD DUP2 LT PUSH2 0x1862 JUMPI INVALID JUMPDEST PUSH1 0x20 MUL PUSH1 0x20 ADD ADD MLOAD PUSH1 0x0 EQ JUMPDEST ISZERO PUSH2 0x1879 JUMPI POP PUSH2 0xE93 JUMP JUMPDEST POP PUSH1 0x1 ADD PUSH2 0x1756 JUMP JUMPDEST PUSH1 0x60 PUSH2 0x188E DUP4 DUP6 PUSH2 0x7995 JUMP JUMPDEST PUSH1 0x0 DUP6 PUSH1 0x0 ADD MLOAD SWAP1 POP PUSH1 0x0 DUP2 PUSH1 0x1 PUSH1 0x1 PUSH1 0xA0 SHL SUB AND PUSH4 0x36569E77 PUSH1 0x40 MLOAD DUP2 PUSH4 0xFFFFFFFF AND PUSH1 0xE0 SHL DUP2 MSTORE PUSH1 0x4 ADD PUSH1 0x20 PUSH1 0x40 MLOAD DUP1 DUP4 SUB DUP2 DUP7 DUP1 EXTCODESIZE ISZERO DUP1 ISZERO PUSH2 0x18D2 JUMPI PUSH1 0x0 DUP1 REVERT JUMPDEST POP GAS STATICCALL ISZERO DUP1 ISZERO PUSH2 0x18E6 JUMPI RETURNDATASIZE PUSH1 0x0 DUP1 RETURNDATACOPY RETURNDATASIZE PUSH1 0x0 REVERT JUMPDEST POP POP POP POP PUSH1 0x40 MLOAD RETURNDATASIZE PUSH1 0x1F NOT PUSH1 0x1F DUP3 ADD AND DUP3 ADD DUP1 PUSH1 0x40 MSTORE POP DUP2 ADD SWAP1 PUSH2 0x190A SWAP2 SWAP1 PUSH2 0xB190 JUMP JUMPDEST DUP5 MLOAD SWAP1 SWAP2 POP DUP1 PUSH1 0x1 PUSH1 0x1 PUSH1 0x40 SHL SUB DUP2 GT DUP1 ISZERO PUSH2 0x1925 JUMPI PUSH1 0x0 DUP1 REVERT JUMPDEST POP PUSH1 0x40 MLOAD SWAP1 DUP1 DUP3 MSTORE DUP1 PUSH1 0x20 MUL PUSH1 0x20 ADD DUP3 ADD PUSH1 0x40 MSTORE DUP1 ISZERO PUSH2 0x194F JUMPI DUP2 PUSH1 0x20 ADD PUSH1 0x20 DUP3 MUL DUP1 CALLDATASIZE DUP4 CALLDATACOPY ADD SWAP1 POP JUMPDEST POP SWAP4 POP DUP3 PUSH1 0x1 PUSH1 0x1 PUSH1 0xA0 SHL SUB AND PUSH4 0xF4B9FA75 PUSH1 0x40 MLOAD DUP2 PUSH4 0xFFFFFFFF AND PUSH1 0xE0 SHL DUP2 MSTORE PUSH1 0x4 ADD PUSH1 0x20 PUSH1 0x40 MLOAD DUP1 DUP4 SUB DUP2 DUP7 DUP1 EXTCODESIZE ISZERO DUP1 ISZERO PUSH2 0x198B JUMPI PUSH1 0x0 DUP1 REVERT JUMPDEST POP GAS STATICCALL ISZERO DUP1 ISZERO PUSH2 0x199F JUMPI RETURNDATASIZE PUSH1 0x0 DUP1 RETURNDATACOPY RETURNDATASIZE PUSH1 0x0 REVERT JUMPDEST POP POP POP POP PUSH1 0x40 MLOAD RETURNDATASIZE PUSH1 0x1F NOT PUSH1 0x1F DUP3 ADD AND DUP3 ADD DUP1 PUSH1 0x40 MSTORE POP DUP2 ADD SWAP1 PUSH2 0x19C3 SWAP2 SWAP1 PUSH2 0xB190 JUMP JUMPDEST PUSH1 0x1 PUSH1 0x1 PUSH1 0xA0 SHL SUB AND DUP7 PUSH1 0x1 PUSH1 0x1 PUSH1 0xA0 SHL SUB AND EQ ISZERO DUP1 ISZERO PUSH2 0x1A66 JUMPI POP DUP3 PUSH1 0x1 PUSH1 0x1 PUSH1 0xA0 SHL SUB AND PUSH4 0xF4B9FA75 PUSH1 0x40 MLOAD DUP2 PUSH4 0xFFFFFFFF AND PUSH1 0xE0 SHL DUP2 MSTORE PUSH1 0x4 ADD PUSH1 0x20 PUSH1 0x40 MLOAD DUP1 DUP4 SUB DUP2 DUP7 DUP1 EXTCODESIZE ISZERO DUP1 ISZERO PUSH2 0x1A18 JUMPI PUSH1 0x0 DUP1 REVERT JUMPDEST POP GAS STATICCALL ISZERO DUP1 ISZERO PUSH2 0x1A2C JUMPI RETURNDATASIZE PUSH1 0x0 DUP1 RETURNDATACOPY RETURNDATASIZE PUSH1 0x0 REVERT JUMPDEST POP POP POP POP PUSH1 0x40 MLOAD RETURNDATASIZE PUSH1 0x1F NOT PUSH1 0x1F DUP3 ADD AND DUP3 ADD DUP1 PUSH1 0x40 MSTORE POP DUP2 ADD SWAP1 PUSH2 0x1A50 SWAP2 SWAP1 PUSH2 0xB190 JUMP JUMPDEST PUSH1 0x1 PUSH1 0x1 PUSH1 0xA0 SHL SUB AND DUP8 PUSH1 0x1 PUSH1 0x1 PUSH1 0xA0 SHL SUB AND EQ ISZERO JUMPDEST ISZERO PUSH2 0x1A73 JUMPI POP POP POP PUSH2 0x1ACF JUMP JUMPDEST PUSH1 0x0 JUMPDEST DUP2 DUP2 LT ISZERO PUSH2 0xE93 JUMPI PUSH1 0x0 PUSH2 0x1AA1 DUP11 DUP10 DUP12 DUP11 DUP7 DUP2 MLOAD DUP2 LT PUSH2 0x1A92 JUMPI INVALID JUMPDEST PUSH1 0x20 MUL PUSH1 0x20 ADD ADD MLOAD DUP10 DUP10 PUSH2 0x7BC8 JUMP JUMPDEST SWAP1 POP DUP1 PUSH2 0x1AAE JUMPI POP PUSH2 0xE93 JUMP JUMPDEST DUP1 DUP7 DUP4 DUP2 MLOAD DUP2 LT PUSH2 0x1ABB JUMPI INVALID JUMPDEST PUSH1 0x20 SWAP1 DUP2 MUL SWAP2 SWAP1 SWAP2 ADD ADD MSTORE POP PUSH1 0x1 ADD PUSH2 0x1A76 JUMP JUMPDEST SWAP5 SWAP4 POP POP POP POP JUMP JUMPDEST PUSH1 0x0 DUP1 PUSH1 0x60 PUSH2 0x1AE6 DUP6 DUP8 PUSH2 0x7995 JUMP JUMPDEST DUP4 MLOAD DUP1 PUSH1 0x1 PUSH1 0x1 PUSH1 0x40 SHL SUB DUP2 GT DUP1 ISZERO PUSH2 0x1AFE JUMPI PUSH1 0x0 DUP1 REVERT JUMPDEST POP PUSH1 0x40 MLOAD SWAP1 DUP1 DUP3 MSTORE DUP1 PUSH1 0x20 MUL PUSH1 0x20 ADD DUP3 ADD PUSH1 0x40 MSTORE DUP1 ISZERO PUSH2 0x1B28 JUMPI DUP2 PUSH1 0x20 ADD PUSH1 0x20 DUP3 MUL DUP1 CALLDATASIZE DUP4 CALLDATACOPY ADD SWAP1 POP JUMPDEST POP DUP9 MLOAD PUSH1 0x40 MLOAD PUSH4 0x939D863 PUSH1 0xE1 SHL DUP2 MSTORE SWAP2 SWAP4 POP PUSH1 0x1 PUSH1 0x1 PUSH1 0xA0 SHL SUB AND SWAP1 PUSH4 0x1273B0C6 SWAP1 PUSH2 0x1B5B SWAP1 DUP11 SWAP1 DUP11 SWAP1 PUSH1 0x4 ADD PUSH2 0xC6AA JUMP JUMPDEST PUSH1 0x20 PUSH1 0x40 MLOAD DUP1 DUP4 SUB DUP2 DUP7 DUP1 EXTCODESIZE ISZERO DUP1 ISZERO PUSH2 0x1B73 JUMPI PUSH1 0x0 DUP1 REVERT JUMPDEST POP GAS STATICCALL ISZERO DUP1 ISZERO PUSH2 0x1B87 JUMPI RETURNDATASIZE PUSH1 0x0 DUP1 RETURNDATACOPY RETURNDATASIZE PUSH1 0x0 REVERT JUMPDEST POP POP POP POP PUSH1 0x40 MLOAD RETURNDATASIZE PUSH1 0x1F NOT PUSH1 0x1F DUP3 ADD AND DUP3 ADD DUP1 PUSH1 0x40 MSTORE POP DUP2 ADD SWAP1 PUSH2 0x1BAB SWAP2 SWAP1 PUSH2 0xB190 JUMP JUMPDEST SWAP3 POP PUSH1 0x0 PUSH1 0x1 PUSH1 0x1 PUSH1 0xA0 SHL SUB DUP5 AND ISZERO PUSH2 0x1BC9 JUMPI POP PUSH1 0x1 SWAP4 POP DUP7 PUSH2 0x1C68 JUMP JUMPDEST DUP9 MLOAD PUSH1 0x40 MLOAD PUSH4 0x939D863 PUSH1 0xE1 SHL DUP2 MSTORE PUSH1 0x1 PUSH1 0x1 PUSH1 0xA0 SHL SUB SWAP1 SWAP2 AND SWAP1 PUSH4 0x1273B0C6 SWAP1 PUSH2 0x1BFA SWAP1 DUP11 SWAP1 DUP13 SWAP1 PUSH1 0x4 ADD PUSH2 0xC6AA JUMP JUMPDEST PUSH1 0x20 PUSH1 0x40 MLOAD DUP1 DUP4 SUB DUP2 DUP7 DUP1 EXTCODESIZE ISZERO DUP1 ISZERO PUSH2 0x1C12 JUMPI PUSH1 0x0 DUP1 REVERT JUMPDEST POP GAS STATICCALL ISZERO DUP1 ISZERO PUSH2 0x1C26 JUMPI RETURNDATASIZE PUSH1 0x0 DUP1 RETURNDATACOPY RETURNDATASIZE PUSH1 0x0 REVERT JUMPDEST POP POP POP POP PUSH1 0x40 MLOAD RETURNDATASIZE PUSH1 0x1F NOT PUSH1 0x1F DUP3 ADD AND DUP3 ADD DUP1 PUSH1 0x40 MSTORE POP DUP2 ADD SWAP1 PUSH2 0x1C4A SWAP2 SWAP1 PUSH2 0xB190 JUMP JUMPDEST SWAP4 POP PUSH1 0x1 PUSH1 0x1 PUSH1 0xA0 SHL SUB DUP5 AND PUSH2 0x1C61 JUMPI POP POP PUSH2 0x130F JUMP JUMPDEST POP PUSH1 0x0 SWAP4 POP DUP6 JUMPDEST DUP4 PUSH1 0x1 PUSH1 0x1 PUSH1 0xA0 SHL SUB AND PUSH4 0xDD58B41C PUSH1 0x40 MLOAD DUP2 PUSH4 0xFFFFFFFF AND PUSH1 0xE0 SHL DUP2 MSTORE PUSH1 0x4 ADD PUSH1 0x20 PUSH1 0x40 MLOAD DUP1 DUP4 SUB DUP2 DUP7 DUP1 EXTCODESIZE ISZERO DUP1 ISZERO PUSH2 0x1CA1 JUMPI PUSH1 0x0 DUP1 REVERT JUMPDEST POP GAS STATICCALL ISZERO DUP1 ISZERO PUSH2 0x1CB5 JUMPI RETURNDATASIZE PUSH1 0x0 DUP1 RETURNDATACOPY RETURNDATASIZE PUSH1 0x0 REVERT JUMPDEST POP POP POP POP PUSH1 0x40 MLOAD RETURNDATASIZE PUSH1 0x1F NOT PUSH1 0x1F DUP3 ADD AND DUP3 ADD DUP1 PUSH1 0x40 MSTORE POP DUP2 ADD SWAP1 PUSH2 0x1CD9 SWAP2 SWAP1 PUSH2 0xB910 JUMP JUMPDEST PUSH2 0x1CE4 JUMPI POP POP PUSH2 0x130F JUMP JUMPDEST PUSH1 0x0 JUMPDEST DUP3 DUP2 LT ISZERO PUSH2 0x1DA7 JUMPI PUSH1 0x0 PUSH2 0x1D61 DUP11 DUP8 DUP6 DUP15 PUSH1 0x20 ADD MLOAD PUSH1 0x40 MLOAD PUSH1 0x20 ADD PUSH2 0x1D0F SWAP5 SWAP4 SWAP3 SWAP2 SWAP1 PUSH2 0xC6C5 JUMP JUMPDEST PUSH1 0x40 MLOAD PUSH1 0x20 DUP2 DUP4 SUB SUB DUP2 MSTORE SWAP1 PUSH1 0x40 MSTORE DUP11 DUP9 DUP7 DUP16 PUSH1 0x20 ADD MLOAD PUSH1 0x40 MLOAD PUSH1 0x20 ADD PUSH2 0x1D39 SWAP5 SWAP4 SWAP3 SWAP2 SWAP1 PUSH2 0xC6C5 JUMP JUMPDEST PUSH1 0x40 MLOAD PUSH1 0x20 DUP2 DUP4 SUB SUB DUP2 MSTORE SWAP1 PUSH1 0x40 MSTORE DUP11 DUP6 DUP2 MLOAD DUP2 LT PUSH2 0x1D54 JUMPI INVALID JUMPDEST PUSH1 0x20 MUL PUSH1 0x20 ADD ADD MLOAD PUSH2 0x7E87 JUMP JUMPDEST SWAP1 POP DUP1 DUP6 DUP4 DUP2 MLOAD DUP2 LT PUSH2 0x1D70 JUMPI INVALID JUMPDEST PUSH1 0x20 MUL PUSH1 0x20 ADD ADD DUP2 DUP2 MSTORE POP POP DUP5 DUP3 DUP2 MLOAD DUP2 LT PUSH2 0x1D88 JUMPI INVALID JUMPDEST PUSH1 0x20 MUL PUSH1 0x20 ADD ADD MLOAD PUSH1 0x0 EQ ISZERO PUSH2 0x1D9E JUMPI POP PUSH2 0x1DA7 JUMP JUMPDEST POP PUSH1 0x1 ADD PUSH2 0x1CE7 JUMP JUMPDEST POP POP POP SWAP5 POP SWAP5 POP SWAP5 SWAP2 POP POP JUMP JUMPDEST DUP1 MLOAD PUSH1 0x60 SWAP1 DUP1 PUSH1 0x1 PUSH1 0x1 PUSH1 0x40 SHL SUB DUP2 GT DUP1 ISZERO PUSH2 0x1DCF JUMPI PUSH1 0x0 DUP1 REVERT JUMPDEST POP PUSH1 0x40 MLOAD SWAP1 DUP1 DUP3 MSTORE DUP1 PUSH1 0x20 MUL PUSH1 0x20 ADD DUP3 ADD PUSH1 0x40 MSTORE DUP1 ISZERO PUSH2 0x1DF9 JUMPI DUP2 PUSH1 0x20 ADD PUSH1 0x20 DUP3 MUL DUP1 CALLDATASIZE DUP4 CALLDATACOPY ADD SWAP1 POP JUMPDEST POP SWAP2 POP DUP6 PUSH1 0x1 PUSH1 0x1 PUSH1 0xA0 SHL SUB AND DUP5 PUSH1 0x0 DUP2 MLOAD DUP2 LT PUSH2 0x1E13 JUMPI INVALID JUMPDEST PUSH1 0x20 MUL PUSH1 0x20 ADD ADD MLOAD PUSH1 0x1 PUSH1 0x1 PUSH1 0xA0 SHL SUB AND EQ ISZERO PUSH2 0x1E6D JUMPI PUSH20 0xEEEEEEEEEEEEEEEEEEEEEEEEEEEEEEEEEEEEEEEE DUP5 PUSH1 0x0 DUP2 MLOAD DUP2 LT PUSH2 0x1E4C JUMPI INVALID JUMPDEST PUSH1 0x20 MUL PUSH1 0x20 ADD ADD SWAP1 PUSH1 0x1 PUSH1 0x1 PUSH1 0xA0 SHL SUB AND SWAP1 DUP2 PUSH1 0x1 PUSH1 0x1 PUSH1 0xA0 SHL SUB AND DUP2 MSTORE POP POP JUMPDEST DUP6 PUSH1 0x1 PUSH1 0x1 PUSH1 0xA0 SHL SUB AND DUP5 PUSH1 0x1 DUP2 MLOAD DUP2 LT PUSH2 0x1E84 JUMPI INVALID JUMPDEST PUSH1 0x20 MUL PUSH1 0x20 ADD ADD MLOAD PUSH1 0x1 PUSH1 0x1 PUSH1 0xA0 SHL SUB AND EQ ISZERO PUSH2 0x1EDE JUMPI PUSH20 0xEEEEEEEEEEEEEEEEEEEEEEEEEEEEEEEEEEEEEEEE DUP5 PUSH1 0x1 DUP2 MLOAD DUP2 LT PUSH2 0x1EBD JUMPI INVALID JUMPDEST PUSH1 0x20 MUL PUSH1 0x20 ADD ADD SWAP1 PUSH1 0x1 PUSH1 0x1 PUSH1 0xA0 SHL SUB AND SWAP1 DUP2 PUSH1 0x1 PUSH1 0x1 PUSH1 0xA0 SHL SUB AND DUP2 MSTORE POP POP JUMPDEST PUSH1 0x0 JUMPDEST DUP2 DUP2 LT ISZERO PUSH2 0x201A JUMPI DUP6 PUSH1 0x1 PUSH1 0x1 PUSH1 0xA0 SHL SUB AND PUSH4 0xA940EDAC DUP7 PUSH1 0x0 DUP2 MLOAD DUP2 LT PUSH2 0x1F05 JUMPI INVALID JUMPDEST PUSH1 0x20 MUL PUSH1 0x20 ADD ADD MLOAD DUP8 PUSH1 0x1 DUP2 MLOAD DUP2 LT PUSH2 0x1F1A JUMPI INVALID JUMPDEST PUSH1 0x20 MUL PUSH1 0x20 ADD ADD MLOAD DUP8 DUP6 DUP2 MLOAD DUP2 LT PUSH2 0x1F2E JUMPI INVALID JUMPDEST PUSH1 0x20 MUL PUSH1 0x20 ADD ADD MLOAD PUSH1 0x40 MLOAD DUP5 PUSH4 0xFFFFFFFF AND PUSH1 0xE0 SHL DUP2 MSTORE PUSH1 0x4 ADD PUSH2 0x1F54 SWAP4 SWAP3 SWAP2 SWAP1 PUSH2 0xC7F2 JUMP JUMPDEST PUSH1 0x20 PUSH1 0x40 MLOAD DUP1 DUP4 SUB DUP2 DUP7 DUP1 EXTCODESIZE ISZERO DUP1 ISZERO PUSH2 0x1F6C JUMPI PUSH1 0x0 DUP1 REVERT JUMPDEST POP GAS STATICCALL SWAP3 POP POP POP DUP1 ISZERO PUSH2 0x1F9C JUMPI POP PUSH1 0x40 DUP1 MLOAD PUSH1 0x1F RETURNDATASIZE SWAP1 DUP2 ADD PUSH1 0x1F NOT AND DUP3 ADD SWAP1 SWAP3 MSTORE PUSH2 0x1F99 SWAP2 DUP2 ADD SWAP1 PUSH2 0xB92E JUMP JUMPDEST PUSH1 0x1 JUMPDEST PUSH2 0x1FD6 JUMPI RETURNDATASIZE DUP1 DUP1 ISZERO PUSH2 0x1FCA JUMPI PUSH1 0x40 MLOAD SWAP2 POP PUSH1 0x1F NOT PUSH1 0x3F RETURNDATASIZE ADD AND DUP3 ADD PUSH1 0x40 MSTORE RETURNDATASIZE DUP3 MSTORE RETURNDATASIZE PUSH1 0x0 PUSH1 0x20 DUP5 ADD RETURNDATACOPY PUSH2 0x1FCF JUMP JUMPDEST PUSH1 0x60 SWAP2 POP JUMPDEST POP POP PUSH2 0x201A JUMP JUMPDEST DUP1 DUP5 DUP4 DUP2 MLOAD DUP2 LT PUSH2 0x1FE3 JUMPI INVALID JUMPDEST PUSH1 0x20 MUL PUSH1 0x20 ADD ADD DUP2 DUP2 MSTORE POP POP DUP4 DUP3 DUP2 MLOAD DUP2 LT PUSH2 0x1FFB JUMPI INVALID JUMPDEST PUSH1 0x20 MUL PUSH1 0x20 ADD ADD MLOAD PUSH1 0x0 EQ ISZERO PUSH2 0x2011 JUMPI POP PUSH2 0x201A JUMP JUMPDEST POP PUSH1 0x1 ADD PUSH2 0x1EE1 JUMP JUMPDEST POP POP SWAP5 SWAP4 POP POP POP POP JUMP JUMPDEST PUSH1 0x60 PUSH2 0x2030 DUP4 DUP6 PUSH2 0x7995 JUMP JUMPDEST DUP2 MLOAD DUP1 PUSH1 0x1 PUSH1 0x1 PUSH1 0x40 SHL SUB DUP2 GT DUP1 ISZERO PUSH2 0x2048 JUMPI PUSH1 0x0 DUP1 REVERT JUMPDEST POP PUSH1 0x40 MLOAD SWAP1 DUP1 DUP3 MSTORE DUP1 PUSH1 0x20 MUL PUSH1 0x20 ADD DUP3 ADD PUSH1 0x40 MSTORE DUP1 ISZERO PUSH2 0x2072 JUMPI DUP2 PUSH1 0x20 ADD PUSH1 0x20 DUP3 MUL DUP1 CALLDATASIZE DUP4 CALLDATACOPY ADD SWAP1 POP JUMPDEST POP SWAP2 POP PUSH1 0x0 JUMPDEST DUP2 DUP2 LT ISZERO PUSH2 0x201A JUMPI DUP7 PUSH1 0x1 PUSH1 0x1 PUSH1 0xA0 SHL SUB AND PUSH4 0x72EA9076 PUSH3 0xC3500 DUP9 DUP9 DUP9 DUP7 DUP2 MLOAD DUP2 LT PUSH2 0x20A1 JUMPI INVALID JUMPDEST PUSH1 0x20 MUL PUSH1 0x20 ADD ADD MLOAD PUSH1 0x40 MLOAD DUP6 PUSH4 0xFFFFFFFF AND PUSH1 0xE0 SHL DUP2 MSTORE PUSH1 0x4 ADD PUSH2 0x20C7 SWAP4 SWAP3 SWAP2 SWAP1 PUSH2 0xC7F2 JUMP JUMPDEST PUSH1 0x20 PUSH1 0x40 MLOAD DUP1 DUP4 SUB DUP2 DUP8 DUP1 EXTCODESIZE ISZERO DUP1 ISZERO PUSH2 0x20DF JUMPI PUSH1 0x0 DUP1 REVERT JUMPDEST POP DUP7 STATICCALL SWAP4 POP POP POP POP DUP1 ISZERO PUSH2 0x2110 JUMPI POP PUSH1 0x40 DUP1 MLOAD PUSH1 0x1F RETURNDATASIZE SWAP1 DUP2 ADD PUSH1 0x1F NOT AND DUP3 ADD SWAP1 SWAP3 MSTORE PUSH2 0x210D SWAP2 DUP2 ADD SWAP1 PUSH2 0xB92E JUMP JUMPDEST PUSH1 0x1 JUMPDEST PUSH2 0x213E JUMPI RETURNDATASIZE DUP1 DUP1 ISZERO PUSH2 0x1FCA JUMPI PUSH1 0x40 MLOAD SWAP2 POP PUSH1 0x1F NOT PUSH1 0x3F RETURNDATASIZE ADD AND DUP3 ADD PUSH1 0x40 MSTORE RETURNDATASIZE DUP3 MSTORE RETURNDATASIZE PUSH1 0x0 PUSH1 0x20 DUP5 ADD RETURNDATACOPY PUSH2 0x1FCF JUMP JUMPDEST DUP1 DUP5 DUP4 DUP2 MLOAD DUP2 LT PUSH2 0x214B JUMPI INVALID JUMPDEST PUSH1 0x20 MUL PUSH1 0x20 ADD ADD DUP2 DUP2 MSTORE POP POP DUP4 DUP3 DUP2 MLOAD DUP2 LT PUSH2 0x2163 JUMPI INVALID JUMPDEST PUSH1 0x20 MUL PUSH1 0x20 ADD ADD MLOAD PUSH1 0x0 EQ ISZERO PUSH2 0x2179 JUMPI POP PUSH2 0x201A JUMP JUMPDEST POP PUSH1 0x1 ADD PUSH2 0x2078 JUMP JUMPDEST DUP1 MLOAD PUSH1 0x60 SWAP1 DUP1 PUSH1 0x1 PUSH1 0x1 PUSH1 0x40 SHL SUB DUP2 GT DUP1 ISZERO PUSH2 0x219D JUMPI PUSH1 0x0 DUP1 REVERT JUMPDEST POP PUSH1 0x40 MLOAD SWAP1 DUP1 DUP3 MSTORE DUP1 PUSH1 0x20 MUL PUSH1 0x20 ADD DUP3 ADD PUSH1 0x40 MSTORE DUP1 ISZERO PUSH2 0x21C7 JUMPI DUP2 PUSH1 0x20 ADD PUSH1 0x20 DUP3 MUL DUP1 CALLDATASIZE DUP4 CALLDATACOPY ADD SWAP1 POP JUMPDEST POP SWAP2 POP PUSH1 0x0 JUMPDEST DUP2 DUP2 LT ISZERO PUSH2 0x22FD JUMPI DUP6 PUSH1 0x1 PUSH1 0x1 PUSH1 0xA0 SHL SUB AND PUSH4 0xD06CA61F PUSH3 0x249F0 DUP7 DUP5 DUP2 MLOAD DUP2 LT PUSH2 0x21F4 JUMPI INVALID JUMPDEST PUSH1 0x20 MUL PUSH1 0x20 ADD ADD MLOAD DUP9 PUSH1 0x40 MLOAD DUP5 PUSH4 0xFFFFFFFF AND PUSH1 0xE0 SHL DUP2 MSTORE PUSH1 0x4 ADD PUSH2 0x221A SWAP3 SWAP2 SWAP1 PUSH2 0xCC0D JUMP JUMPDEST PUSH1 0x0 PUSH1 0x40 MLOAD DUP1 DUP4 SUB DUP2 DUP8 DUP1 EXTCODESIZE ISZERO DUP1 ISZERO PUSH2 0x2232 JUMPI PUSH1 0x0 DUP1 REVERT JUMPDEST POP DUP7 STATICCALL SWAP4 POP POP POP POP DUP1 ISZERO PUSH2 0x2268 JUMPI POP PUSH1 0x40 MLOAD RETURNDATASIZE PUSH1 0x0 DUP3 RETURNDATACOPY PUSH1 0x1F RETURNDATASIZE SWAP1 DUP2 ADD PUSH1 0x1F NOT AND DUP3 ADD PUSH1 0x40 MSTORE PUSH2 0x2265 SWAP2 SWAP1 DUP2 ADD SWAP1 PUSH2 0xB87F JUMP JUMPDEST PUSH1 0x1 JUMPDEST PUSH2 0x22A2 JUMPI RETURNDATASIZE DUP1 DUP1 ISZERO PUSH2 0x2296 JUMPI PUSH1 0x40 MLOAD SWAP2 POP PUSH1 0x1F NOT PUSH1 0x3F RETURNDATASIZE ADD AND DUP3 ADD PUSH1 0x40 MSTORE RETURNDATASIZE DUP3 MSTORE RETURNDATASIZE PUSH1 0x0 PUSH1 0x20 DUP5 ADD RETURNDATACOPY PUSH2 0x229B JUMP JUMPDEST PUSH1 0x60 SWAP2 POP JUMPDEST POP POP PUSH2 0x22FD JUMP JUMPDEST DUP1 PUSH1 0x1 DUP8 MLOAD SUB DUP2 MLOAD DUP2 LT PUSH2 0x22B2 JUMPI INVALID JUMPDEST PUSH1 0x20 MUL PUSH1 0x20 ADD ADD MLOAD DUP5 DUP4 DUP2 MLOAD DUP2 LT PUSH2 0x22C6 JUMPI INVALID JUMPDEST PUSH1 0x20 MUL PUSH1 0x20 ADD ADD DUP2 DUP2 MSTORE POP POP DUP4 DUP3 DUP2 MLOAD DUP2 LT PUSH2 0x22DE JUMPI INVALID JUMPDEST PUSH1 0x20 MUL PUSH1 0x20 ADD ADD MLOAD PUSH1 0x0 EQ ISZERO PUSH2 0x22F4 JUMPI POP PUSH2 0x22FD JUMP JUMPDEST POP PUSH1 0x1 ADD PUSH2 0x21CD JUMP JUMPDEST POP POP SWAP4 SWAP3 POP POP POP JUMP JUMPDEST PUSH1 0x0 PUSH1 0x60 PUSH2 0x2313 DUP7 PUSH2 0x7FC0 JUMP JUMPDEST SWAP2 POP PUSH1 0x0 PUSH2 0x232B DUP8 PUSH8 0xDE0B6B3A7640000 DUP9 DUP9 PUSH2 0x80AC JUMP JUMPDEST DUP5 MLOAD SWAP1 SWAP2 POP DUP1 PUSH1 0x1 PUSH1 0x1 PUSH1 0x40 SHL SUB DUP2 GT DUP1 ISZERO PUSH2 0x2346 JUMPI PUSH1 0x0 DUP1 REVERT JUMPDEST POP PUSH1 0x40 MLOAD SWAP1 DUP1 DUP3 MSTORE DUP1 PUSH1 0x20 MUL PUSH1 0x20 ADD DUP3 ADD PUSH1 0x40 MSTORE DUP1 ISZERO PUSH2 0x2370 JUMPI DUP2 PUSH1 0x20 ADD PUSH1 0x20 DUP3 MUL DUP1 CALLDATASIZE DUP4 CALLDATACOPY ADD SWAP1 POP JUMPDEST POP SWAP3 POP PUSH1 0x0 JUMPDEST DUP2 DUP2 LT ISZERO PUSH2 0x23C4 JUMPI DUP3 DUP7 DUP3 DUP2 MLOAD DUP2 LT PUSH2 0x238B JUMPI INVALID JUMPDEST PUSH1 0x20 MUL PUSH1 0x20 ADD ADD MLOAD PUSH8 0xDE0B6B3A7640000 MUL DUP2 PUSH2 0x23A4 JUMPI INVALID JUMPDEST DIV DUP5 DUP3 DUP2 MLOAD DUP2 LT PUSH2 0x23B1 JUMPI INVALID JUMPDEST PUSH1 0x20 SWAP1 DUP2 MUL SWAP2 SWAP1 SWAP2 ADD ADD MSTORE PUSH1 0x1 ADD PUSH2 0x2376 JUMP JUMPDEST POP POP POP SWAP5 POP SWAP5 SWAP3 POP POP POP JUMP JUMPDEST DUP1 MLOAD PUSH1 0x60 SWAP1 DUP1 PUSH1 0x1 PUSH1 0x1 PUSH1 0x40 SHL SUB DUP2 GT DUP1 ISZERO PUSH2 0x23EB JUMPI PUSH1 0x0 DUP1 REVERT JUMPDEST POP PUSH1 0x40 MLOAD SWAP1 DUP1 DUP3 MSTORE DUP1 PUSH1 0x20 MUL PUSH1 0x20 ADD DUP3 ADD PUSH1 0x40 MSTORE DUP1 ISZERO PUSH2 0x2415 JUMPI DUP2 PUSH1 0x20 ADD PUSH1 0x20 DUP3 MUL DUP1 CALLDATASIZE DUP4 CALLDATACOPY ADD SWAP1 POP JUMPDEST POP SWAP2 POP PUSH1 0x0 JUMPDEST DUP2 DUP2 LT ISZERO PUSH2 0x201A JUMPI DUP7 PUSH1 0x1 PUSH1 0x1 PUSH1 0xA0 SHL SUB AND PUSH4 0xF3535E6C DUP8 DUP8 PUSH1 0x0 DUP2 MLOAD DUP2 LT PUSH2 0x2440 JUMPI INVALID JUMPDEST PUSH1 0x20 MUL PUSH1 0x20 ADD ADD MLOAD DUP9 PUSH1 0x1 DUP2 MLOAD DUP2 LT PUSH2 0x2455 JUMPI INVALID JUMPDEST PUSH1 0x20 MUL PUSH1 0x20 ADD ADD MLOAD PUSH1 0x40 MLOAD DUP5 PUSH4 0xFFFFFFFF AND PUSH1 0xE0 SHL DUP2 MSTORE PUSH1 0x4 ADD PUSH2 0x247B SWAP4 SWAP3 SWAP2 SWAP1 PUSH2 0xC9E6 JUMP JUMPDEST PUSH1 0x20 PUSH1 0x40 MLOAD DUP1 DUP4 SUB DUP2 DUP7 DUP1 EXTCODESIZE ISZERO DUP1 ISZERO PUSH2 0x2493 JUMPI PUSH1 0x0 DUP1 REVERT JUMPDEST POP GAS STATICCALL SWAP3 POP POP POP DUP1 ISZERO PUSH2 0x24C3 JUMPI POP PUSH1 0x40 DUP1 MLOAD PUSH1 0x1F RETURNDATASIZE SWAP1 DUP2 ADD PUSH1 0x1F NOT AND DUP3 ADD SWAP1 SWAP3 MSTORE PUSH2 0x24C0 SWAP2 DUP2 ADD SWAP1 PUSH2 0xB92E JUMP JUMPDEST PUSH1 0x1 JUMPDEST PUSH2 0x24F1 JUMPI RETURNDATASIZE DUP1 DUP1 ISZERO PUSH2 0x1FCA JUMPI PUSH1 0x40 MLOAD SWAP2 POP PUSH1 0x1F NOT PUSH1 0x3F RETURNDATASIZE ADD AND DUP3 ADD PUSH1 0x40 MSTORE RETURNDATASIZE DUP3 MSTORE RETURNDATASIZE PUSH1 0x0 PUSH1 0x20 DUP5 ADD RETURNDATACOPY PUSH2 0x1FCF JUMP JUMPDEST DUP1 DUP6 DUP4 DUP2 MLOAD DUP2 LT PUSH2 0x24FE JUMPI INVALID JUMPDEST PUSH1 0x20 MUL PUSH1 0x20 ADD ADD MLOAD GT ISZERO PUSH2 0x2512 JUMPI POP PUSH2 0x201A JUMP JUMPDEST POP DUP7 PUSH1 0x1 PUSH1 0x1 PUSH1 0xA0 SHL SUB AND PUSH4 0xD7176CA9 DUP8 DUP8 PUSH1 0x0 DUP2 MLOAD DUP2 LT PUSH2 0x2530 JUMPI INVALID JUMPDEST PUSH1 0x20 MUL PUSH1 0x20 ADD ADD MLOAD DUP9 PUSH1 0x1 DUP2 MLOAD DUP2 LT PUSH2 0x2545 JUMPI INVALID JUMPDEST PUSH1 0x20 MUL PUSH1 0x20 ADD ADD MLOAD DUP9 DUP7 DUP2 MLOAD DUP2 LT PUSH2 0x2559 JUMPI INVALID JUMPDEST PUSH1 0x20 MUL PUSH1 0x20 ADD ADD MLOAD PUSH1 0x40 MLOAD DUP6 PUSH4 0xFFFFFFFF AND PUSH1 0xE0 SHL DUP2 MSTORE PUSH1 0x4 ADD PUSH2 0x2580 SWAP5 SWAP4 SWAP3 SWAP2 SWAP1 PUSH2 0xCA0E JUMP JUMPDEST PUSH1 0x40 DUP1 MLOAD DUP1 DUP4 SUB DUP2 DUP7 DUP1 EXTCODESIZE ISZERO DUP1 ISZERO PUSH2 0x2597 JUMPI PUSH1 0x0 DUP1 REVERT JUMPDEST POP GAS STATICCALL SWAP3 POP POP POP DUP1 ISZERO PUSH2 0x25C7 JUMPI POP PUSH1 0x40 DUP1 MLOAD PUSH1 0x1F RETURNDATASIZE SWAP1 DUP2 ADD PUSH1 0x1F NOT AND DUP3 ADD SWAP1 SWAP3 MSTORE PUSH2 0x25C4 SWAP2 DUP2 ADD SWAP1 PUSH2 0xBDE1 JUMP JUMPDEST PUSH1 0x1 JUMPDEST PUSH2 0x25F5 JUMPI RETURNDATASIZE DUP1 DUP1 ISZERO PUSH2 0x1FCA JUMPI PUSH1 0x40 MLOAD SWAP2 POP PUSH1 0x1F NOT PUSH1 0x3F RETURNDATASIZE ADD AND DUP3 ADD PUSH1 0x40 MSTORE RETURNDATASIZE DUP3 MSTORE RETURNDATASIZE PUSH1 0x0 PUSH1 0x20 DUP5 ADD RETURNDATACOPY PUSH2 0x1FCF JUMP JUMPDEST DUP2 DUP6 DUP5 DUP2 MLOAD DUP2 LT PUSH2 0x2602 JUMPI INVALID JUMPDEST PUSH1 0x20 MUL PUSH1 0x20 ADD ADD DUP2 DUP2 MSTORE POP POP DUP5 DUP4 DUP2 MLOAD DUP2 LT PUSH2 0x261A JUMPI INVALID JUMPDEST PUSH1 0x20 MUL PUSH1 0x20 ADD ADD MLOAD PUSH1 0x0 EQ ISZERO PUSH2 0x2631 JUMPI POP POP PUSH2 0x201A JUMP JUMPDEST POP POP PUSH1 0x1 ADD PUSH2 0x241B JUMP JUMPDEST DUP1 MLOAD PUSH1 0x60 SWAP1 DUP1 PUSH1 0x1 PUSH1 0x1 PUSH1 0x40 SHL SUB DUP2 GT DUP1 ISZERO PUSH2 0x2656 JUMPI PUSH1 0x0 DUP1 REVERT JUMPDEST POP PUSH1 0x40 MLOAD SWAP1 DUP1 DUP3 MSTORE DUP1 PUSH1 0x20 MUL PUSH1 0x20 ADD DUP3 ADD PUSH1 0x40 MSTORE DUP1 ISZERO PUSH2 0x2680 JUMPI DUP2 PUSH1 0x20 ADD PUSH1 0x20 DUP3 MUL DUP1 CALLDATASIZE DUP4 CALLDATACOPY ADD SWAP1 POP JUMPDEST POP SWAP2 POP PUSH1 0x0 JUMPDEST DUP2 DUP2 LT ISZERO PUSH2 0x201A JUMPI PUSH1 0x0 PUSH1 0x60 DUP9 PUSH1 0x0 ADD MLOAD PUSH1 0x1 PUSH1 0x1 PUSH1 0xA0 SHL SUB AND PUSH3 0x1E8480 DUP11 PUSH1 0x20 ADD MLOAD DUP11 DUP11 DUP11 DUP9 DUP2 MLOAD DUP2 LT PUSH2 0x26B7 JUMPI INVALID JUMPDEST PUSH1 0x20 MUL PUSH1 0x20 ADD ADD MLOAD PUSH1 0x40 MLOAD PUSH1 0x24 ADD PUSH2 0x26D1 SWAP4 SWAP3 SWAP2 SWAP1 PUSH2 0xCAD8 JUMP JUMPDEST PUSH1 0x40 DUP1 MLOAD PUSH1 0x1F NOT DUP2 DUP5 SUB ADD DUP2 MSTORE SWAP2 DUP2 MSTORE PUSH1 0x20 DUP3 ADD DUP1 MLOAD PUSH1 0x1 PUSH1 0x1 PUSH1 0xE0 SHL SUB AND PUSH1 0x1 PUSH1 0x1 PUSH1 0xE0 SHL SUB NOT SWAP1 SWAP5 AND SWAP4 SWAP1 SWAP4 OR SWAP1 SWAP3 MSTORE SWAP1 MLOAD PUSH2 0x270F SWAP2 SWAP1 PUSH2 0xC675 JUMP JUMPDEST PUSH1 0x0 PUSH1 0x40 MLOAD DUP1 DUP4 SUB DUP2 DUP7 DUP7 STATICCALL SWAP3 POP POP POP RETURNDATASIZE DUP1 PUSH1 0x0 DUP2 EQ PUSH2 0x274B JUMPI PUSH1 0x40 MLOAD SWAP2 POP PUSH1 0x1F NOT PUSH1 0x3F RETURNDATASIZE ADD AND DUP3 ADD PUSH1 0x40 MSTORE RETURNDATASIZE DUP3 MSTORE RETURNDATASIZE PUSH1 0x0 PUSH1 0x20 DUP5 ADD RETURNDATACOPY PUSH2 0x2750 JUMP JUMPDEST PUSH1 0x60 SWAP2 POP JUMPDEST POP SWAP2 POP SWAP2 POP PUSH1 0x0 DUP3 ISZERO PUSH2 0x2774 JUMPI DUP2 DUP1 PUSH1 0x20 ADD SWAP1 MLOAD DUP2 ADD SWAP1 PUSH2 0x2771 SWAP2 SWAP1 PUSH2 0xB92E JUMP JUMPDEST SWAP1 POP JUMPDEST DUP1 DUP7 DUP6 DUP2 MLOAD DUP2 LT PUSH2 0x2781 JUMPI INVALID JUMPDEST PUSH1 0x20 MUL PUSH1 0x20 ADD ADD DUP2 DUP2 MSTORE POP POP DUP6 DUP5 DUP2 MLOAD DUP2 LT PUSH2 0x2799 JUMPI INVALID JUMPDEST PUSH1 0x20 MUL PUSH1 0x20 ADD ADD MLOAD PUSH1 0x0 EQ ISZERO PUSH2 0x27B1 JUMPI POP POP POP PUSH2 0x201A JUMP JUMPDEST POP POP POP PUSH1 0x1 ADD PUSH2 0x2686 JUMP JUMPDEST NUMBER SWAP1 JUMP JUMPDEST DUP1 MLOAD PUSH1 0x60 SWAP1 DUP2 SWAP1 DUP1 PUSH1 0x1 PUSH1 0x1 PUSH1 0x40 SHL SUB DUP2 GT DUP1 ISZERO PUSH2 0x27DD JUMPI PUSH1 0x0 DUP1 REVERT JUMPDEST POP PUSH1 0x40 MLOAD SWAP1 DUP1 DUP3 MSTORE DUP1 PUSH1 0x20 MUL PUSH1 0x20 ADD DUP3 ADD PUSH1 0x40 MSTORE DUP1 ISZERO PUSH2 0x2807 JUMPI DUP2 PUSH1 0x20 ADD PUSH1 0x20 DUP3 MUL DUP1 CALLDATASIZE DUP4 CALLDATACOPY ADD SWAP1 POP JUMPDEST POP SWAP2 POP PUSH2 0x2814 DUP7 DUP7 PUSH2 0x7450 JUMP JUMPDEST SWAP3 POP DUP3 MLOAD PUSH1 0x0 EQ ISZERO PUSH2 0x2826 JUMPI POP PUSH2 0x103E JUMP JUMPDEST PUSH1 0x0 JUMPDEST DUP2 DUP2 LT ISZERO PUSH2 0x103B JUMPI DUP7 PUSH1 0x1 PUSH1 0x1 PUSH1 0xA0 SHL SUB AND PUSH4 0x9E269B68 PUSH3 0x249F0 DUP8 DUP5 DUP2 MLOAD DUP2 LT PUSH2 0x2850 JUMPI INVALID JUMPDEST PUSH1 0x20 MUL PUSH1 0x20 ADD ADD MLOAD DUP8 DUP11 PUSH1 0x40 MLOAD DUP6 PUSH4 0xFFFFFFFF AND PUSH1 0xE0 SHL DUP2 MSTORE PUSH1 0x4 ADD PUSH2 0x2878 SWAP4 SWAP3 SWAP2 SWAP1 PUSH2 0xCC1B JUMP JUMPDEST PUSH1 0x0 PUSH1 0x40 MLOAD DUP1 DUP4 SUB DUP2 DUP8 DUP1 EXTCODESIZE ISZERO DUP1 ISZERO PUSH2 0x2890 JUMPI PUSH1 0x0 DUP1 REVERT JUMPDEST POP DUP7 STATICCALL SWAP4 POP POP POP POP DUP1 ISZERO PUSH2 0x28C6 JUMPI POP PUSH1 0x40 MLOAD RETURNDATASIZE PUSH1 0x0 DUP3 RETURNDATACOPY PUSH1 0x1F RETURNDATASIZE SWAP1 DUP2 ADD PUSH1 0x1F NOT AND DUP3 ADD PUSH1 0x40 MSTORE PUSH2 0x28C3 SWAP2 SWAP1 DUP2 ADD SWAP1 PUSH2 0xB87F JUMP JUMPDEST PUSH1 0x1 JUMPDEST PUSH2 0x28F4 JUMPI RETURNDATASIZE DUP1 DUP1 ISZERO PUSH2 0xFD4 JUMPI PUSH1 0x40 MLOAD SWAP2 POP PUSH1 0x1F NOT PUSH1 0x3F RETURNDATASIZE ADD AND DUP3 ADD PUSH1 0x40 MSTORE RETURNDATASIZE DUP3 MSTORE RETURNDATASIZE PUSH1 0x0 PUSH1 0x20 DUP5 ADD RETURNDATACOPY PUSH2 0xFD9 JUMP JUMPDEST DUP1 PUSH1 0x0 DUP2 MLOAD DUP2 LT PUSH2 0x2901 JUMPI INVALID JUMPDEST PUSH1 0x20 MUL PUSH1 0x20 ADD ADD MLOAD DUP5 DUP4 DUP2 MLOAD DUP2 LT PUSH2 0x2915 JUMPI INVALID JUMPDEST PUSH1 0x20 MUL PUSH1 0x20 ADD ADD DUP2 DUP2 MSTORE POP POP DUP4 DUP3 DUP2 MLOAD DUP2 LT PUSH2 0x292D JUMPI INVALID JUMPDEST PUSH1 0x20 MUL PUSH1 0x20 ADD ADD MLOAD PUSH1 0x0 EQ ISZERO PUSH2 0x2943 JUMPI POP PUSH2 0x103B JUMP JUMPDEST POP PUSH1 0x1 ADD PUSH2 0x2829 JUMP JUMPDEST PUSH1 0x0 GAS SWAP1 POP SWAP1 JUMP JUMPDEST PUSH1 0x60 DUP1 PUSH1 0x60 DUP1 PUSH2 0x2991 DUP8 PUSH20 0x5555555555555555555555555555555555555556 DUP9 DUP9 PUSH1 0x1 DUP11 MLOAD SUB DUP2 MLOAD DUP2 LT PUSH2 0x2984 JUMPI INVALID JUMPDEST PUSH1 0x20 MUL PUSH1 0x20 ADD ADD MLOAD PUSH2 0x81DD JUMP JUMPDEST SWAP1 POP DUP5 MLOAD PUSH1 0x1 PUSH1 0x1 PUSH1 0x40 SHL SUB DUP2 GT DUP1 ISZERO PUSH2 0x29AA JUMPI PUSH1 0x0 DUP1 REVERT JUMPDEST POP PUSH1 0x40 MLOAD SWAP1 DUP1 DUP3 MSTORE DUP1 PUSH1 0x20 MUL PUSH1 0x20 ADD DUP3 ADD PUSH1 0x40 MSTORE DUP1 ISZERO PUSH2 0x29D4 JUMPI DUP2 PUSH1 0x20 ADD PUSH1 0x20 DUP3 MUL DUP1 CALLDATASIZE DUP4 CALLDATACOPY ADD SWAP1 POP JUMPDEST POP SWAP2 POP DUP5 MLOAD PUSH1 0x1 PUSH1 0x1 PUSH1 0x40 SHL SUB DUP2 GT DUP1 ISZERO PUSH2 0x29EE JUMPI PUSH1 0x0 DUP1 REVERT JUMPDEST POP PUSH1 0x40 MLOAD SWAP1 DUP1 DUP3 MSTORE DUP1 PUSH1 0x20 MUL PUSH1 0x20 ADD DUP3 ADD PUSH1 0x40 MSTORE DUP1 ISZERO PUSH2 0x2A22 JUMPI DUP2 PUSH1 0x20 ADD JUMPDEST PUSH1 0x60 DUP2 MSTORE PUSH1 0x20 ADD SWAP1 PUSH1 0x1 SWAP1 SUB SWAP1 DUP2 PUSH2 0x2A0D JUMPI SWAP1 POP JUMPDEST POP SWAP4 POP DUP5 MLOAD PUSH1 0x1 PUSH1 0x1 PUSH1 0x40 SHL SUB DUP2 GT DUP1 ISZERO PUSH2 0x2A3C JUMPI PUSH1 0x0 DUP1 REVERT JUMPDEST POP PUSH1 0x40 MLOAD SWAP1 DUP1 DUP3 MSTORE DUP1 PUSH1 0x20 MUL PUSH1 0x20 ADD DUP3 ADD PUSH1 0x40 MSTORE DUP1 ISZERO PUSH2 0x2A66 JUMPI DUP2 PUSH1 0x20 ADD PUSH1 0x20 DUP3 MUL DUP1 CALLDATASIZE DUP4 CALLDATACOPY ADD SWAP1 POP JUMPDEST POP SWAP3 POP PUSH1 0x0 JUMPDEST DUP2 MLOAD DUP2 LT ISZERO PUSH2 0x2D06 JUMPI PUSH2 0x2A91 DUP3 DUP3 DUP2 MLOAD DUP2 LT PUSH2 0x2A84 JUMPI INVALID JUMPDEST PUSH1 0x20 MUL PUSH1 0x20 ADD ADD MLOAD PUSH2 0x8223 JUMP JUMPDEST PUSH2 0x2A9A JUMPI PUSH2 0x2CFE JUMP JUMPDEST PUSH1 0x60 PUSH2 0x2AB9 DUP9 DUP5 DUP5 DUP2 MLOAD DUP2 LT PUSH2 0x2AAC JUMPI INVALID JUMPDEST PUSH1 0x20 MUL PUSH1 0x20 ADD ADD MLOAD PUSH2 0x8279 JUMP JUMPDEST PUSH1 0x40 MLOAD PUSH4 0x551E2BDF PUSH1 0xE0 SHL DUP2 MSTORE SWAP1 SWAP2 POP PUSH1 0x60 SWAP1 DUP2 SWAP1 PUSH20 0x5555555555555555555555555555555555555556 SWAP1 PUSH4 0x551E2BDF SWAP1 PUSH2 0x2AFC SWAP1 DUP15 SWAP1 DUP8 SWAP1 DUP15 SWAP1 PUSH1 0x4 ADD PUSH2 0xC9C6 JUMP JUMPDEST PUSH1 0x0 PUSH1 0x40 MLOAD DUP1 DUP4 SUB DUP2 DUP7 DUP1 EXTCODESIZE ISZERO DUP1 ISZERO PUSH2 0x2B14 JUMPI PUSH1 0x0 DUP1 REVERT JUMPDEST POP GAS STATICCALL SWAP3 POP POP POP DUP1 ISZERO PUSH2 0x2B25 JUMPI POP PUSH1 0x1 JUMPDEST PUSH2 0x2CFA JUMPI RETURNDATASIZE DUP1 DUP1 ISZERO PUSH2 0x2B53 JUMPI PUSH1 0x40 MLOAD SWAP2 POP PUSH1 0x1F NOT PUSH1 0x3F RETURNDATASIZE ADD AND DUP3 ADD PUSH1 0x40 MSTORE RETURNDATASIZE DUP3 MSTORE RETURNDATASIZE PUSH1 0x0 PUSH1 0x20 DUP5 ADD RETURNDATACOPY PUSH2 0x2B58 JUMP JUMPDEST PUSH1 0x60 SWAP2 POP JUMPDEST POP PUSH1 0x0 PUSH2 0x2B64 DUP3 PUSH2 0x83D4 JUMP JUMPDEST SWAP1 SWAP6 POP SWAP4 POP SWAP1 POP DUP1 PUSH2 0x2B7A JUMPI POP POP POP POP POP PUSH2 0x2CFE JUMP JUMPDEST PUSH1 0x0 JUMPDEST DUP5 MLOAD DUP2 LT ISZERO PUSH2 0x2CF6 JUMPI DUP5 DUP2 DUP2 MLOAD DUP2 LT PUSH2 0x2B92 JUMPI INVALID JUMPDEST PUSH1 0x20 MUL PUSH1 0x20 ADD ADD MLOAD PUSH1 0x0 EQ ISZERO PUSH2 0x2BA7 JUMPI PUSH2 0x2CF6 JUMP JUMPDEST DUP5 DUP2 DUP2 MLOAD DUP2 LT PUSH2 0x2BB3 JUMPI INVALID JUMPDEST PUSH1 0x20 MUL PUSH1 0x20 ADD ADD MLOAD DUP10 DUP3 DUP2 MLOAD DUP2 LT PUSH2 0x2BC7 JUMPI INVALID JUMPDEST PUSH1 0x20 MUL PUSH1 0x20 ADD ADD MLOAD LT ISZERO PUSH2 0x2C4A JUMPI DUP5 DUP2 DUP2 MLOAD DUP2 LT PUSH2 0x2BE1 JUMPI INVALID JUMPDEST PUSH1 0x20 MUL PUSH1 0x20 ADD ADD MLOAD DUP10 DUP3 DUP2 MLOAD DUP2 LT PUSH2 0x2BF5 JUMPI INVALID JUMPDEST PUSH1 0x20 MUL PUSH1 0x20 ADD ADD DUP2 DUP2 MSTORE POP POP DUP6 DUP12 DUP3 DUP2 MLOAD DUP2 LT PUSH2 0x2C0E JUMPI INVALID JUMPDEST PUSH1 0x20 MUL PUSH1 0x20 ADD ADD DUP2 SWAP1 MSTORE POP DUP4 DUP2 DUP2 MLOAD DUP2 LT PUSH2 0x2C25 JUMPI INVALID JUMPDEST PUSH1 0x20 MUL PUSH1 0x20 ADD ADD MLOAD DUP11 DUP3 DUP2 MLOAD DUP2 LT PUSH2 0x2C39 JUMPI INVALID JUMPDEST PUSH1 0x20 MUL PUSH1 0x20 ADD ADD DUP2 DUP2 MSTORE POP POP PUSH2 0x2CEE JUMP JUMPDEST DUP5 DUP2 DUP2 MLOAD DUP2 LT PUSH2 0x2C56 JUMPI INVALID JUMPDEST PUSH1 0x20 MUL PUSH1 0x20 ADD ADD MLOAD DUP10 DUP3 DUP2 MLOAD DUP2 LT PUSH2 0x2C6A JUMPI INVALID JUMPDEST PUSH1 0x20 MUL PUSH1 0x20 ADD ADD MLOAD EQ DUP1 ISZERO PUSH2 0x2CA4 JUMPI POP DUP4 DUP2 DUP2 MLOAD DUP2 LT PUSH2 0x2C86 JUMPI INVALID JUMPDEST PUSH1 0x20 MUL PUSH1 0x20 ADD ADD MLOAD DUP11 DUP3 DUP2 MLOAD DUP2 LT PUSH2 0x2C9A JUMPI INVALID JUMPDEST PUSH1 0x20 MUL PUSH1 0x20 ADD ADD MLOAD GT JUMPDEST ISZERO PUSH2 0x2CEE JUMPI DUP6 DUP12 DUP3 DUP2 MLOAD DUP2 LT PUSH2 0x2CB6 JUMPI INVALID JUMPDEST PUSH1 0x20 MUL PUSH1 0x20 ADD ADD DUP2 SWAP1 MSTORE POP DUP4 DUP2 DUP2 MLOAD DUP2 LT PUSH2 0x2CCD JUMPI INVALID JUMPDEST PUSH1 0x20 MUL PUSH1 0x20 ADD ADD MLOAD DUP11 DUP3 DUP2 MLOAD DUP2 LT PUSH2 0x2CE1 JUMPI INVALID JUMPDEST PUSH1 0x20 MUL PUSH1 0x20 ADD ADD DUP2 DUP2 MSTORE POP POP JUMPDEST PUSH1 0x1 ADD PUSH2 0x2B7D JUMP JUMPDEST POP POP POP JUMPDEST POP POP POP JUMPDEST PUSH1 0x1 ADD PUSH2 0x2A6C JUMP JUMPDEST POP POP SWAP4 POP SWAP4 POP SWAP4 SWAP1 POP JUMP JUMPDEST DUP1 MLOAD PUSH1 0x60 SWAP1 DUP6 SWAP1 DUP1 PUSH1 0x1 PUSH1 0x1 PUSH1 0x40 SHL SUB DUP2 GT DUP1 ISZERO PUSH2 0x2D2E JUMPI PUSH1 0x0 DUP1 REVERT JUMPDEST POP PUSH1 0x40 MLOAD SWAP1 DUP1 DUP3 MSTORE DUP1 PUSH1 0x20 MUL PUSH1 0x20 ADD DUP3 ADD PUSH1 0x40 MSTORE DUP1 ISZERO PUSH2 0x2D58 JUMPI DUP2 PUSH1 0x20 ADD PUSH1 0x20 DUP3 MUL DUP1 CALLDATASIZE DUP4 CALLDATACOPY ADD SWAP1 POP JUMPDEST POP PUSH1 0x40 MLOAD PUSH4 0xBCDED89 PUSH1 0xE2 SHL DUP2 MSTORE SWAP1 SWAP4 POP PUSH1 0x1 PUSH1 0x1 PUSH1 0xA0 SHL SUB DUP4 AND SWAP1 PUSH4 0x2F37B624 SWAP1 PUSH2 0x2D88 SWAP1 DUP10 SWAP1 PUSH1 0x4 ADD PUSH2 0xC681 JUMP JUMPDEST PUSH1 0x20 PUSH1 0x40 MLOAD DUP1 DUP4 SUB DUP2 DUP7 DUP1 EXTCODESIZE ISZERO DUP1 ISZERO PUSH2 0x2DA0 JUMPI PUSH1 0x0 DUP1 REVERT JUMPDEST POP GAS STATICCALL ISZERO DUP1 ISZERO PUSH2 0x2DB4 JUMPI RETURNDATASIZE PUSH1 0x0 DUP1 RETURNDATACOPY RETURNDATASIZE PUSH1 0x0 REVERT JUMPDEST POP POP POP POP PUSH1 0x40 MLOAD RETURNDATASIZE PUSH1 0x1F NOT PUSH1 0x1F DUP3 ADD AND DUP3 ADD DUP1 PUSH1 0x40 MSTORE POP DUP2 ADD SWAP1 PUSH2 0x2DD8 SWAP2 SWAP1 PUSH2 0xB910 JUMP JUMPDEST ISZERO DUP1 PUSH2 0x2E5D JUMPI POP PUSH1 0x40 MLOAD PUSH4 0xBCDED89 PUSH1 0xE2 SHL DUP2 MSTORE PUSH1 0x1 PUSH1 0x1 PUSH1 0xA0 SHL SUB DUP4 AND SWAP1 PUSH4 0x2F37B624 SWAP1 PUSH2 0x2E0B SWAP1 DUP9 SWAP1 PUSH1 0x4 ADD PUSH2 0xC681 JUMP JUMPDEST PUSH1 0x20 PUSH1 0x40 MLOAD DUP1 DUP4 SUB DUP2 DUP7 DUP1 EXTCODESIZE ISZERO DUP1 ISZERO PUSH2 0x2E23 JUMPI PUSH1 0x0 DUP1 REVERT JUMPDEST POP GAS STATICCALL ISZERO DUP1 ISZERO PUSH2 0x2E37 JUMPI RETURNDATASIZE PUSH1 0x0 DUP1 RETURNDATACOPY RETURNDATASIZE PUSH1 0x0 REVERT JUMPDEST POP POP POP POP PUSH1 0x40 MLOAD RETURNDATASIZE PUSH1 0x1F NOT PUSH1 0x1F DUP3 ADD AND DUP3 ADD DUP1 PUSH1 0x40 MSTORE POP DUP2 ADD SWAP1 PUSH2 0x2E5B SWAP2 SWAP1 PUSH2 0xB910 JUMP JUMPDEST ISZERO JUMPDEST ISZERO PUSH2 0x2E69 JUMPI POP POP PUSH2 0x1ACF JUMP JUMPDEST PUSH2 0x2E71 PUSH2 0xA59F JUMP JUMPDEST PUSH1 0x40 MLOAD PUSH4 0xF8B2CB4F PUSH1 0xE0 SHL DUP2 MSTORE PUSH1 0x1 PUSH1 0x1 PUSH1 0xA0 SHL SUB DUP5 AND SWAP1 PUSH4 0xF8B2CB4F SWAP1 PUSH2 0x2E9D SWAP1 DUP11 SWAP1 PUSH1 0x4 ADD PUSH2 0xC681 JUMP JUMPDEST PUSH1 0x20 PUSH1 0x40 MLOAD DUP1 DUP4 SUB DUP2 DUP7 DUP1 EXTCODESIZE ISZERO DUP1 ISZERO PUSH2 0x2EB5 JUMPI PUSH1 0x0 DUP1 REVERT JUMPDEST POP GAS STATICCALL ISZERO DUP1 ISZERO PUSH2 0x2EC9 JUMPI RETURNDATASIZE PUSH1 0x0 DUP1 RETURNDATACOPY RETURNDATASIZE PUSH1 0x0 REVERT JUMPDEST POP POP POP POP PUSH1 0x40 MLOAD RETURNDATASIZE PUSH1 0x1F NOT PUSH1 0x1F DUP3 ADD AND DUP3 ADD DUP1 PUSH1 0x40 MSTORE POP DUP2 ADD SWAP1 PUSH2 0x2EED SWAP2 SWAP1 PUSH2 0xB92E JUMP JUMPDEST DUP2 MSTORE PUSH1 0x40 MLOAD PUSH4 0xF8B2CB4F PUSH1 0xE0 SHL DUP2 MSTORE PUSH1 0x1 PUSH1 0x1 PUSH1 0xA0 SHL SUB DUP5 AND SWAP1 PUSH4 0xF8B2CB4F SWAP1 PUSH2 0x2F1B SWAP1 DUP10 SWAP1 PUSH1 0x4 ADD PUSH2 0xC681 JUMP JUMPDEST PUSH1 0x20 PUSH1 0x40 MLOAD DUP1 DUP4 SUB DUP2 DUP7 DUP1 EXTCODESIZE ISZERO DUP1 ISZERO PUSH2 0x2F33 JUMPI PUSH1 0x0 DUP1 REVERT JUMPDEST POP GAS STATICCALL ISZERO DUP1 ISZERO PUSH2 0x2F47 JUMPI RETURNDATASIZE PUSH1 0x0 DUP1 RETURNDATACOPY RETURNDATASIZE PUSH1 0x0 REVERT JUMPDEST POP POP POP POP PUSH1 0x40 MLOAD RETURNDATASIZE PUSH1 0x1F NOT PUSH1 0x1F DUP3 ADD AND DUP3 ADD DUP1 PUSH1 0x40 MSTORE POP DUP2 ADD SWAP1 PUSH2 0x2F6B SWAP2 SWAP1 PUSH2 0xB92E JUMP JUMPDEST PUSH1 0x20 DUP3 ADD MSTORE PUSH1 0x40 MLOAD PUSH4 0x4A46C673 PUSH1 0xE1 SHL DUP2 MSTORE PUSH1 0x1 PUSH1 0x1 PUSH1 0xA0 SHL SUB DUP5 AND SWAP1 PUSH4 0x948D8CE6 SWAP1 PUSH2 0x2F9C SWAP1 DUP11 SWAP1 PUSH1 0x4 ADD PUSH2 0xC681 JUMP JUMPDEST PUSH1 0x20 PUSH1 0x40 MLOAD DUP1 DUP4 SUB DUP2 DUP7 DUP1 EXTCODESIZE ISZERO DUP1 ISZERO PUSH2 0x2FB4 JUMPI PUSH1 0x0 DUP1 REVERT JUMPDEST POP GAS STATICCALL ISZERO DUP1 ISZERO PUSH2 0x2FC8 JUMPI RETURNDATASIZE PUSH1 0x0 DUP1 RETURNDATACOPY RETURNDATASIZE PUSH1 0x0 REVERT JUMPDEST POP POP POP POP PUSH1 0x40 MLOAD RETURNDATASIZE PUSH1 0x1F NOT PUSH1 0x1F DUP3 ADD AND DUP3 ADD DUP1 PUSH1 0x40 MSTORE POP DUP2 ADD SWAP1 PUSH2 0x2FEC SWAP2 SWAP1 PUSH2 0xB92E JUMP JUMPDEST PUSH1 0x40 DUP1 DUP4 ADD SWAP2 SWAP1 SWAP2 MSTORE MLOAD PUSH4 0x4A46C673 PUSH1 0xE1 SHL DUP2 MSTORE PUSH1 0x1 PUSH1 0x1 PUSH1 0xA0 SHL SUB DUP5 AND SWAP1 PUSH4 0x948D8CE6 SWAP1 PUSH2 0x301F SWAP1 DUP10 SWAP1 PUSH1 0x4 ADD PUSH2 0xC681 JUMP JUMPDEST PUSH1 0x20 PUSH1 0x40 MLOAD DUP1 DUP4 SUB DUP2 DUP7 DUP1 EXTCODESIZE ISZERO DUP1 ISZERO PUSH2 0x3037 JUMPI PUSH1 0x0 DUP1 REVERT JUMPDEST POP GAS STATICCALL ISZERO DUP1 ISZERO PUSH2 0x304B JUMPI RETURNDATASIZE PUSH1 0x0 DUP1 RETURNDATACOPY RETURNDATASIZE PUSH1 0x0 REVERT JUMPDEST POP POP POP POP PUSH1 0x40 MLOAD RETURNDATASIZE PUSH1 0x1F NOT PUSH1 0x1F DUP3 ADD AND DUP3 ADD DUP1 PUSH1 0x40 MSTORE POP DUP2 ADD SWAP1 PUSH2 0x306F SWAP2 SWAP1 PUSH2 0xB92E JUMP JUMPDEST DUP2 PUSH1 0x60 ADD DUP2 DUP2 MSTORE POP POP DUP3 PUSH1 0x1 PUSH1 0x1 PUSH1 0xA0 SHL SUB AND PUSH4 0xD4CADF68 PUSH1 0x40 MLOAD DUP2 PUSH4 0xFFFFFFFF AND PUSH1 0xE0 SHL DUP2 MSTORE PUSH1 0x4 ADD PUSH1 0x20 PUSH1 0x40 MLOAD DUP1 DUP4 SUB DUP2 DUP7 DUP1 EXTCODESIZE ISZERO DUP1 ISZERO PUSH2 0x30B1 JUMPI PUSH1 0x0 DUP1 REVERT JUMPDEST POP GAS STATICCALL ISZERO DUP1 ISZERO PUSH2 0x30C5 JUMPI RETURNDATASIZE PUSH1 0x0 DUP1 RETURNDATACOPY RETURNDATASIZE PUSH1 0x0 REVERT JUMPDEST POP POP POP POP PUSH1 0x40 MLOAD RETURNDATASIZE PUSH1 0x1F NOT PUSH1 0x1F DUP3 ADD AND DUP3 ADD DUP1 PUSH1 0x40 MSTORE POP DUP2 ADD SWAP1 PUSH2 0x30E9 SWAP2 SWAP1 PUSH2 0xB92E JUMP JUMPDEST PUSH1 0x80 DUP3 ADD MSTORE PUSH1 0x0 JUMPDEST DUP3 DUP2 LT ISZERO PUSH2 0xE93 JUMPI PUSH2 0x311C DUP3 PUSH1 0x20 ADD MLOAD PUSH1 0x3 PUSH8 0xDE0B6B3A7640000 DUP2 PUSH2 0x3113 JUMPI INVALID JUMPDEST DIV PUSH1 0x1 ADD PUSH2 0x8436 JUMP JUMPDEST DUP7 DUP3 DUP2 MLOAD DUP2 LT PUSH2 0x3128 JUMPI INVALID JUMPDEST PUSH1 0x20 MUL PUSH1 0x20 ADD ADD MLOAD GT ISZERO PUSH2 0x313B JUMPI PUSH2 0xE93 JUMP JUMPDEST DUP4 PUSH1 0x1 PUSH1 0x1 PUSH1 0xA0 SHL SUB AND PUSH4 0xF8D6AED4 PUSH3 0x493E0 DUP5 PUSH1 0x0 ADD MLOAD DUP6 PUSH1 0x40 ADD MLOAD DUP7 PUSH1 0x20 ADD MLOAD DUP8 PUSH1 0x60 ADD MLOAD DUP13 DUP9 DUP2 MLOAD DUP2 LT PUSH2 0x316E JUMPI INVALID JUMPDEST PUSH1 0x20 MUL PUSH1 0x20 ADD ADD MLOAD DUP10 PUSH1 0x80 ADD MLOAD PUSH1 0x40 MLOAD DUP9 PUSH4 0xFFFFFFFF AND PUSH1 0xE0 SHL DUP2 MSTORE PUSH1 0x4 ADD PUSH2 0x319C SWAP7 SWAP6 SWAP5 SWAP4 SWAP3 SWAP2 SWAP1 PUSH2 0xCC7D JUMP JUMPDEST PUSH1 0x20 PUSH1 0x40 MLOAD DUP1 DUP4 SUB DUP2 DUP8 DUP1 EXTCODESIZE ISZERO DUP1 ISZERO PUSH2 0x31B4 JUMPI PUSH1 0x0 DUP1 REVERT JUMPDEST POP DUP7 STATICCALL SWAP4 POP POP POP POP DUP1 ISZERO PUSH2 0x31E5 JUMPI POP PUSH1 0x40 DUP1 MLOAD PUSH1 0x1F RETURNDATASIZE SWAP1 DUP2 ADD PUSH1 0x1F NOT AND DUP3 ADD SWAP1 SWAP3 MSTORE PUSH2 0x31E2 SWAP2 DUP2 ADD SWAP1 PUSH2 0xB92E JUMP JUMPDEST PUSH1 0x1 JUMPDEST PUSH2 0x321F JUMPI RETURNDATASIZE DUP1 DUP1 ISZERO PUSH2 0x3213 JUMPI PUSH1 0x40 MLOAD SWAP2 POP PUSH1 0x1F NOT PUSH1 0x3F RETURNDATASIZE ADD AND DUP3 ADD PUSH1 0x40 MSTORE RETURNDATASIZE DUP3 MSTORE RETURNDATASIZE PUSH1 0x0 PUSH1 0x20 DUP5 ADD RETURNDATACOPY PUSH2 0x3218 JUMP JUMPDEST PUSH1 0x60 SWAP2 POP JUMPDEST POP POP PUSH2 0xE93 JUMP JUMPDEST DUP3 MLOAD PUSH2 0x3237 SWAP1 PUSH1 0x2 PUSH8 0xDE0B6B3A7640000 JUMPDEST DIV PUSH2 0x8436 JUMP JUMPDEST DUP2 GT ISZERO PUSH2 0x3244 JUMPI POP PUSH2 0xE93 JUMP JUMPDEST DUP1 DUP7 DUP4 DUP2 MLOAD DUP2 LT PUSH2 0x3251 JUMPI INVALID JUMPDEST PUSH1 0x20 MUL PUSH1 0x20 ADD ADD DUP2 DUP2 MSTORE POP POP DUP6 DUP3 DUP2 MLOAD DUP2 LT PUSH2 0x3269 JUMPI INVALID JUMPDEST PUSH1 0x20 MUL PUSH1 0x20 ADD ADD MLOAD PUSH1 0x0 EQ ISZERO PUSH2 0x327F JUMPI POP PUSH2 0xE93 JUMP JUMPDEST POP PUSH1 0x1 ADD PUSH2 0x30F1 JUMP JUMPDEST PUSH1 0x60 DUP1 PUSH1 0x60 DUP1 PUSH2 0x3297 DUP7 PUSH2 0x8493 JUMP JUMPDEST SWAP1 POP PUSH1 0x60 PUSH2 0x32C5 DUP9 PUSH20 0x5555555555555555555555555555555555555556 DUP5 DUP10 PUSH1 0x1 DUP12 MLOAD SUB DUP2 MLOAD DUP2 LT PUSH2 0x2984 JUMPI INVALID JUMPDEST SWAP1 POP DUP6 MLOAD PUSH1 0x1 PUSH1 0x1 PUSH1 0x40 SHL SUB DUP2 GT DUP1 ISZERO PUSH2 0x32DE JUMPI PUSH1 0x0 DUP1 REVERT JUMPDEST POP PUSH1 0x40 MLOAD SWAP1 DUP1 DUP3 MSTORE DUP1 PUSH1 0x20 MUL PUSH1 0x20 ADD DUP3 ADD PUSH1 0x40 MSTORE DUP1 ISZERO PUSH2 0x3308 JUMPI DUP2 PUSH1 0x20 ADD PUSH1 0x20 DUP3 MUL DUP1 CALLDATASIZE DUP4 CALLDATACOPY ADD SWAP1 POP JUMPDEST POP SWAP3 POP DUP6 MLOAD PUSH1 0x1 PUSH1 0x1 PUSH1 0x40 SHL SUB DUP2 GT DUP1 ISZERO PUSH2 0x3322 JUMPI PUSH1 0x0 DUP1 REVERT JUMPDEST POP PUSH1 0x40 MLOAD SWAP1 DUP1 DUP3 MSTORE DUP1 PUSH1 0x20 MUL PUSH1 0x20 ADD DUP3 ADD PUSH1 0x40 MSTORE DUP1 ISZERO PUSH2 0x3356 JUMPI DUP2 PUSH1 0x20 ADD JUMPDEST PUSH1 0x60 DUP2 MSTORE PUSH1 0x20 ADD SWAP1 PUSH1 0x1 SWAP1 SUB SWAP1 DUP2 PUSH2 0x3341 JUMPI SWAP1 POP JUMPDEST POP SWAP5 POP DUP6 MLOAD PUSH1 0x1 PUSH1 0x1 PUSH1 0x40 SHL SUB DUP2 GT DUP1 ISZERO PUSH2 0x3370 JUMPI PUSH1 0x0 DUP1 REVERT JUMPDEST POP PUSH1 0x40 MLOAD SWAP1 DUP1 DUP3 MSTORE DUP1 PUSH1 0x20 MUL PUSH1 0x20 ADD DUP3 ADD PUSH1 0x40 MSTORE DUP1 ISZERO PUSH2 0x339A JUMPI DUP2 PUSH1 0x20 ADD PUSH1 0x20 DUP3 MUL DUP1 CALLDATASIZE DUP4 CALLDATACOPY ADD SWAP1 POP JUMPDEST POP SWAP4 POP PUSH1 0x0 JUMPDEST DUP2 MLOAD DUP2 LT ISZERO PUSH2 0x3674 JUMPI PUSH2 0x33B8 DUP3 DUP3 DUP2 MLOAD DUP2 LT PUSH2 0x2A84 JUMPI INVALID JUMPDEST PUSH2 0x33C1 JUMPI PUSH2 0x366C JUMP JUMPDEST PUSH1 0x60 PUSH2 0x33D3 DUP5 DUP5 DUP5 DUP2 MLOAD DUP2 LT PUSH2 0x2AAC JUMPI INVALID JUMPDEST PUSH1 0x40 MLOAD PUSH4 0x196E65D PUSH1 0xE5 SHL DUP2 MSTORE SWAP1 SWAP2 POP PUSH1 0x60 SWAP1 DUP2 SWAP1 PUSH20 0x5555555555555555555555555555555555555556 SWAP1 PUSH4 0x32DCCBA0 SWAP1 PUSH2 0x3416 SWAP1 DUP16 SWAP1 DUP8 SWAP1 DUP16 SWAP1 PUSH1 0x4 ADD PUSH2 0xC9C6 JUMP JUMPDEST PUSH1 0x0 PUSH1 0x40 MLOAD DUP1 DUP4 SUB DUP2 DUP7 DUP1 EXTCODESIZE ISZERO DUP1 ISZERO PUSH2 0x342E JUMPI PUSH1 0x0 DUP1 REVERT JUMPDEST POP GAS STATICCALL SWAP3 POP POP POP DUP1 ISZERO PUSH2 0x343F JUMPI POP PUSH1 0x1 JUMPDEST PUSH2 0x3668 JUMPI RETURNDATASIZE DUP1 DUP1 ISZERO PUSH2 0x346D JUMPI PUSH1 0x40 MLOAD SWAP2 POP PUSH1 0x1F NOT PUSH1 0x3F RETURNDATASIZE ADD AND DUP3 ADD PUSH1 0x40 MSTORE RETURNDATASIZE DUP3 MSTORE RETURNDATASIZE PUSH1 0x0 PUSH1 0x20 DUP5 ADD RETURNDATACOPY PUSH2 0x3472 JUMP JUMPDEST PUSH1 0x60 SWAP2 POP JUMPDEST POP PUSH1 0x0 PUSH2 0x347E DUP3 PUSH2 0x83D4 JUMP JUMPDEST SWAP1 SWAP6 POP SWAP4 POP SWAP1 POP DUP1 PUSH2 0x3494 JUMPI POP POP POP POP POP PUSH2 0x366C JUMP JUMPDEST PUSH1 0x0 JUMPDEST DUP5 MLOAD DUP2 LT ISZERO PUSH2 0x3664 JUMPI DUP5 DUP2 DUP2 MLOAD DUP2 LT PUSH2 0x34AC JUMPI INVALID JUMPDEST PUSH1 0x20 MUL PUSH1 0x20 ADD ADD MLOAD PUSH1 0x0 EQ ISZERO PUSH2 0x34C1 JUMPI PUSH2 0x3664 JUMP JUMPDEST DUP10 DUP2 DUP2 MLOAD DUP2 LT PUSH2 0x34CD JUMPI INVALID JUMPDEST PUSH1 0x20 MUL PUSH1 0x20 ADD ADD MLOAD PUSH1 0x0 EQ DUP1 PUSH2 0x3508 JUMPI POP DUP5 DUP2 DUP2 MLOAD DUP2 LT PUSH2 0x34EA JUMPI INVALID JUMPDEST PUSH1 0x20 MUL PUSH1 0x20 ADD ADD MLOAD DUP11 DUP3 DUP2 MLOAD DUP2 LT PUSH2 0x34FE JUMPI INVALID JUMPDEST PUSH1 0x20 MUL PUSH1 0x20 ADD ADD MLOAD GT JUMPDEST ISZERO PUSH2 0x35A6 JUMPI DUP5 DUP2 DUP2 MLOAD DUP2 LT PUSH2 0x3519 JUMPI INVALID JUMPDEST PUSH1 0x20 MUL PUSH1 0x20 ADD ADD MLOAD DUP11 DUP3 DUP2 MLOAD DUP2 LT PUSH2 0x352D JUMPI INVALID JUMPDEST PUSH1 0x20 MUL PUSH1 0x20 ADD ADD DUP2 DUP2 MSTORE POP POP PUSH2 0x355E DUP15 PUSH2 0x3559 DUP11 DUP11 DUP2 MLOAD DUP2 LT PUSH2 0x354C JUMPI INVALID JUMPDEST PUSH1 0x20 MUL PUSH1 0x20 ADD ADD MLOAD PUSH2 0x852B JUMP JUMPDEST PUSH2 0x8279 JUMP JUMPDEST DUP13 DUP3 DUP2 MLOAD DUP2 LT PUSH2 0x356A JUMPI INVALID JUMPDEST PUSH1 0x20 MUL PUSH1 0x20 ADD ADD DUP2 SWAP1 MSTORE POP DUP4 DUP2 DUP2 MLOAD DUP2 LT PUSH2 0x3581 JUMPI INVALID JUMPDEST PUSH1 0x20 MUL PUSH1 0x20 ADD ADD MLOAD DUP12 DUP3 DUP2 MLOAD DUP2 LT PUSH2 0x3595 JUMPI INVALID JUMPDEST PUSH1 0x20 MUL PUSH1 0x20 ADD ADD DUP2 DUP2 MSTORE POP POP PUSH2 0x365C JUMP JUMPDEST DUP5 DUP2 DUP2 MLOAD DUP2 LT PUSH2 0x35B2 JUMPI INVALID JUMPDEST PUSH1 0x20 MUL PUSH1 0x20 ADD ADD MLOAD DUP11 DUP3 DUP2 MLOAD DUP2 LT PUSH2 0x35C6 JUMPI INVALID JUMPDEST PUSH1 0x20 MUL PUSH1 0x20 ADD ADD MLOAD EQ DUP1 ISZERO PUSH2 0x3600 JUMPI POP DUP4 DUP2 DUP2 MLOAD DUP2 LT PUSH2 0x35E2 JUMPI INVALID JUMPDEST PUSH1 0x20 MUL PUSH1 0x20 ADD ADD MLOAD DUP12 DUP3 DUP2 MLOAD DUP2 LT PUSH2 0x35F6 JUMPI INVALID JUMPDEST PUSH1 0x20 MUL PUSH1 0x20 ADD ADD MLOAD GT JUMPDEST ISZERO PUSH2 0x365C JUMPI PUSH2 0x3618 DUP15 PUSH2 0x3559 DUP11 DUP11 DUP2 MLOAD DUP2 LT PUSH2 0x354C JUMPI INVALID JUMPDEST DUP13 DUP3 DUP2 MLOAD DUP2 LT PUSH2 0x3624 JUMPI INVALID JUMPDEST PUSH1 0x20 MUL PUSH1 0x20 ADD ADD DUP2 SWAP1 MSTORE POP DUP4 DUP2 DUP2 MLOAD DUP2 LT PUSH2 0x363B JUMPI INVALID JUMPDEST PUSH1 0x20 MUL PUSH1 0x20 ADD ADD MLOAD DUP12 DUP3 DUP2 MLOAD DUP2 LT PUSH2 0x364F JUMPI INVALID JUMPDEST PUSH1 0x20 MUL PUSH1 0x20 ADD ADD DUP2 DUP2 MSTORE POP POP JUMPDEST PUSH1 0x1 ADD PUSH2 0x3497 JUMP JUMPDEST POP POP POP JUMPDEST POP POP POP JUMPDEST PUSH1 0x1 ADD PUSH2 0x33A0 JUMP JUMPDEST POP POP POP SWAP4 POP SWAP4 POP SWAP4 SWAP1 POP JUMP JUMPDEST PUSH1 0x40 DUP1 MLOAD PUSH1 0x60 DUP2 DUP2 ADD SWAP1 SWAP3 MSTORE PUSH2 0x36E6 SWAP1 DUP1 PUSH2 0x369F DUP7 DUP10 PUSH1 0x80 DUP5 ADD PUSH2 0xC6AA JUMP JUMPDEST PUSH1 0x40 MLOAD PUSH1 0x20 DUP2 DUP4 SUB SUB DUP2 MSTORE SWAP1 PUSH1 0x40 MSTORE DUP2 MSTORE PUSH1 0x20 ADD DUP7 DUP9 PUSH1 0x40 MLOAD PUSH1 0x20 ADD PUSH2 0x36C6 SWAP3 SWAP2 SWAP1 PUSH2 0xC6AA JUMP JUMPDEST PUSH1 0x40 MLOAD PUSH1 0x20 DUP2 DUP4 SUB SUB DUP2 MSTORE SWAP1 PUSH1 0x40 MSTORE DUP2 MSTORE PUSH1 0x20 ADD PUSH2 0x85C3 DUP2 MSTORE POP DUP4 PUSH2 0x86D7 JUMP JUMPDEST SWAP6 SWAP5 POP POP POP POP POP JUMP JUMPDEST PUSH1 0x60 PUSH2 0x36FB DUP4 DUP6 PUSH2 0x7995 JUMP JUMPDEST DUP5 PUSH1 0x20 ADD MLOAD PUSH1 0x1 PUSH1 0x1 PUSH1 0xA0 SHL SUB AND DUP5 PUSH1 0x1 PUSH1 0x1 PUSH1 0xA0 SHL SUB AND EQ DUP1 ISZERO PUSH2 0x372C JUMPI POP DUP5 MLOAD PUSH1 0x1 PUSH1 0x1 PUSH1 0xA0 SHL SUB DUP5 DUP2 AND SWAP2 AND EQ JUMPDEST ISZERO PUSH2 0x3738 JUMPI POP DUP1 PUSH2 0x1ACF JUMP JUMPDEST PUSH2 0x36E6 DUP6 DUP6 DUP6 DUP6 PUSH2 0x88E9 JUMP JUMPDEST PUSH1 0x60 PUSH2 0x3751 DUP5 DUP5 DUP5 PUSH2 0x1046 JUMP JUMPDEST SWAP1 POP PUSH1 0x0 JUMPDEST DUP5 MLOAD DUP2 LT ISZERO PUSH2 0x11B1 JUMPI DUP2 DUP2 DUP2 MLOAD DUP2 LT PUSH2 0x376B JUMPI INVALID JUMPDEST PUSH1 0x20 MUL PUSH1 0x20 ADD ADD MLOAD PUSH1 0x0 EQ PUSH2 0x37F1 JUMPI PUSH2 0x37D8 DUP3 DUP3 DUP2 MLOAD DUP2 LT PUSH2 0x3789 JUMPI INVALID JUMPDEST PUSH1 0x20 MUL PUSH1 0x20 ADD ADD MLOAD DUP7 DUP4 DUP2 MLOAD DUP2 LT PUSH2 0x379D JUMPI INVALID JUMPDEST PUSH1 0x20 MUL PUSH1 0x20 ADD ADD MLOAD PUSH1 0x60 ADD MLOAD PUSH1 0x1 PUSH1 0x1 PUSH1 0x80 SHL SUB AND DUP8 DUP5 DUP2 MLOAD DUP2 LT PUSH2 0x37BE JUMPI INVALID JUMPDEST PUSH1 0x20 MUL PUSH1 0x20 ADD ADD MLOAD PUSH1 0x40 ADD MLOAD PUSH1 0x1 PUSH1 0x1 PUSH1 0x80 SHL SUB AND PUSH2 0x8B35 JUMP JUMPDEST DUP3 DUP3 DUP2 MLOAD DUP2 LT PUSH2 0x37E4 JUMPI INVALID JUMPDEST PUSH1 0x20 MUL PUSH1 0x20 ADD ADD DUP2 DUP2 MSTORE POP POP JUMPDEST PUSH1 0x1 ADD PUSH2 0x3756 JUMP JUMPDEST PUSH1 0x60 DUP2 PUSH1 0x1 PUSH1 0x1 PUSH1 0x40 SHL SUB DUP2 GT DUP1 ISZERO PUSH2 0x3811 JUMPI PUSH1 0x0 DUP1 REVERT JUMPDEST POP PUSH1 0x40 MLOAD SWAP1 DUP1 DUP3 MSTORE DUP1 PUSH1 0x20 MUL PUSH1 0x20 ADD DUP3 ADD PUSH1 0x40 MSTORE DUP1 ISZERO PUSH2 0x384B JUMPI DUP2 PUSH1 0x20 ADD JUMPDEST PUSH2 0x3838 PUSH2 0xA5CE JUMP JUMPDEST DUP2 MSTORE PUSH1 0x20 ADD SWAP1 PUSH1 0x1 SWAP1 SUB SWAP1 DUP2 PUSH2 0x3830 JUMPI SWAP1 POP JUMPDEST POP SWAP1 POP PUSH1 0x0 JUMPDEST DUP1 DUP4 EQ PUSH2 0x3953 JUMPI PUSH1 0x1 DUP3 DUP3 DUP2 MLOAD DUP2 LT PUSH2 0x3866 JUMPI INVALID JUMPDEST PUSH1 0x20 SWAP1 DUP2 MUL SWAP2 SWAP1 SWAP2 ADD DUP2 ADD MLOAD SWAP2 ISZERO ISZERO SWAP2 ADD MSTORE DUP4 DUP4 DUP3 DUP2 DUP2 LT PUSH2 0x3884 JUMPI INVALID JUMPDEST SWAP1 POP PUSH1 0x20 MUL DUP2 ADD SWAP1 PUSH2 0x3896 SWAP2 SWAP1 PUSH2 0xCCCC JUMP JUMPDEST ISZERO ISZERO SWAP1 POP PUSH2 0x38A3 JUMPI PUSH2 0x394B JUMP JUMPDEST ADDRESS DUP5 DUP5 DUP4 DUP2 DUP2 LT PUSH2 0x38B0 JUMPI INVALID JUMPDEST SWAP1 POP PUSH1 0x20 MUL DUP2 ADD SWAP1 PUSH2 0x38C2 SWAP2 SWAP1 PUSH2 0xCCCC JUMP JUMPDEST PUSH1 0x40 MLOAD PUSH2 0x38D0 SWAP3 SWAP2 SWAP1 PUSH2 0xC668 JUMP JUMPDEST PUSH1 0x0 PUSH1 0x40 MLOAD DUP1 DUP4 SUB DUP2 PUSH1 0x0 DUP7 GAS CALL SWAP2 POP POP RETURNDATASIZE DUP1 PUSH1 0x0 DUP2 EQ PUSH2 0x390D JUMPI PUSH1 0x40 MLOAD SWAP2 POP PUSH1 0x1F NOT PUSH1 0x3F RETURNDATASIZE ADD AND DUP3 ADD PUSH1 0x40 MSTORE RETURNDATASIZE DUP3 MSTORE RETURNDATASIZE PUSH1 0x0 PUSH1 0x20 DUP5 ADD RETURNDATACOPY PUSH2 0x3912 JUMP JUMPDEST PUSH1 0x60 SWAP2 POP JUMPDEST POP DUP4 DUP4 DUP2 MLOAD DUP2 LT PUSH2 0x391F JUMPI INVALID JUMPDEST PUSH1 0x20 MUL PUSH1 0x20 ADD ADD MLOAD PUSH1 0x20 ADD DUP5 DUP5 DUP2 MLOAD DUP2 LT PUSH2 0x3936 JUMPI INVALID JUMPDEST PUSH1 0x20 SWAP1 DUP2 MUL SWAP2 SWAP1 SWAP2 ADD ADD MLOAD SWAP2 SWAP1 SWAP2 MSTORE SWAP1 ISZERO ISZERO SWAP1 MSTORE JUMPDEST PUSH1 0x1 ADD PUSH2 0x3851 JUMP JUMPDEST POP SWAP3 SWAP2 POP POP JUMP JUMPDEST PUSH1 0x60 DUP5 PUSH1 0x20 ADD MLOAD PUSH1 0x1 PUSH1 0x1 PUSH1 0xA0 SHL SUB AND DUP5 PUSH1 0x1 PUSH1 0x1 PUSH1 0xA0 SHL SUB AND EQ DUP1 ISZERO PUSH2 0x398D JUMPI POP DUP5 MLOAD PUSH1 0x1 PUSH1 0x1 PUSH1 0xA0 SHL SUB DUP5 DUP2 AND SWAP2 AND EQ JUMPDEST ISZERO PUSH2 0x3999 JUMPI POP DUP1 PUSH2 0x1ACF JUMP JUMPDEST PUSH2 0x36E6 DUP6 DUP5 DUP7 DUP6 PUSH2 0x88E9 JUMP JUMPDEST PUSH1 0x60 DUP2 MLOAD PUSH1 0x1 PUSH1 0x1 PUSH1 0x40 SHL SUB DUP2 GT DUP1 ISZERO PUSH2 0x39BE JUMPI PUSH1 0x0 DUP1 REVERT JUMPDEST POP PUSH1 0x40 MLOAD SWAP1 DUP1 DUP3 MSTORE DUP1 PUSH1 0x20 MUL PUSH1 0x20 ADD DUP3 ADD PUSH1 0x40 MSTORE DUP1 ISZERO PUSH2 0x39E8 JUMPI DUP2 PUSH1 0x20 ADD PUSH1 0x20 DUP3 MUL DUP1 CALLDATASIZE DUP4 CALLDATACOPY ADD SWAP1 POP JUMPDEST POP SWAP1 POP PUSH1 0x0 JUMPDEST DUP3 MLOAD DUP2 EQ PUSH2 0x3A91 JUMPI PUSH32 0x0 PUSH1 0x1 PUSH1 0x1 PUSH1 0xA0 SHL SUB AND DUP4 DUP3 DUP2 MLOAD DUP2 LT PUSH2 0x3A2C JUMPI INVALID JUMPDEST PUSH1 0x20 MUL PUSH1 0x20 ADD ADD MLOAD PUSH1 0x1 PUSH1 0x1 PUSH1 0xA0 SHL SUB AND EQ PUSH2 0x3A6C JUMPI PUSH2 0x3A67 DUP4 DUP3 DUP2 MLOAD DUP2 LT PUSH2 0x3A51 JUMPI INVALID JUMPDEST PUSH1 0x20 MUL PUSH1 0x20 ADD ADD MLOAD PUSH1 0x1 PUSH1 0x1 PUSH1 0xA0 SHL SUB AND PUSH2 0x8B59 JUMP JUMPDEST PUSH2 0x3A6F JUMP JUMPDEST PUSH1 0x12 JUMPDEST PUSH1 0xFF AND DUP3 DUP3 DUP2 MLOAD DUP2 LT PUSH2 0x3A7E JUMPI INVALID JUMPDEST PUSH1 0x20 SWAP1 DUP2 MUL SWAP2 SWAP1 SWAP2 ADD ADD MSTORE PUSH1 0x1 ADD PUSH2 0x39EE JUMP JUMPDEST POP SWAP2 SWAP1 POP JUMP JUMPDEST PUSH1 0x0 PUSH1 0x60 DUP1 SWAP5 POP SWAP5 POP SWAP5 SWAP2 POP POP JUMP JUMPDEST DUP1 MLOAD PUSH1 0x60 SWAP1 DUP1 PUSH1 0x1 PUSH1 0x1 PUSH1 0x40 SHL SUB DUP2 GT DUP1 ISZERO PUSH2 0x3AC1 JUMPI PUSH1 0x0 DUP1 REVERT JUMPDEST POP PUSH1 0x40 MLOAD SWAP1 DUP1 DUP3 MSTORE DUP1 PUSH1 0x20 MUL PUSH1 0x20 ADD DUP3 ADD PUSH1 0x40 MSTORE DUP1 ISZERO PUSH2 0x3AEB JUMPI DUP2 PUSH1 0x20 ADD PUSH1 0x20 DUP3 MUL DUP1 CALLDATASIZE DUP4 CALLDATACOPY ADD SWAP1 POP JUMPDEST POP SWAP2 POP DUP6 PUSH1 0x1 PUSH1 0x1 PUSH1 0xA0 SHL SUB AND DUP6 PUSH1 0x1 PUSH1 0x1 PUSH1 0xA0 SHL SUB AND EQ DUP1 ISZERO PUSH2 0x3B20 JUMPI POP DUP7 PUSH1 0x1 PUSH1 0x1 PUSH1 0xA0 SHL SUB AND DUP5 PUSH1 0x1 PUSH1 0x1 PUSH1 0xA0 SHL SUB AND EQ JUMPDEST ISZERO PUSH2 0x3B2E JUMPI DUP3 SWAP2 POP POP PUSH2 0x36E6 JUMP JUMPDEST DUP7 PUSH1 0x1 PUSH1 0x1 PUSH1 0xA0 SHL SUB AND DUP6 PUSH1 0x1 PUSH1 0x1 PUSH1 0xA0 SHL SUB AND EQ DUP1 ISZERO PUSH2 0x3B60 JUMPI POP DUP6 PUSH1 0x1 PUSH1 0x1 PUSH1 0xA0 SHL SUB AND DUP5 PUSH1 0x1 PUSH1 0x1 PUSH1 0xA0 SHL SUB AND EQ JUMPDEST ISZERO PUSH2 0x3BA2 JUMPI PUSH1 0x0 JUMPDEST DUP2 DUP2 LT ISZERO PUSH2 0x3B98 JUMPI PUSH1 0x1 DUP5 DUP3 DUP2 MLOAD DUP2 LT PUSH2 0x3B7E JUMPI INVALID JUMPDEST PUSH1 0x20 SWAP1 DUP2 MUL SWAP2 SWAP1 SWAP2 ADD ADD DUP1 MLOAD SWAP2 SWAP1 SWAP2 SUB SWAP1 MSTORE PUSH1 0x1 ADD PUSH2 0x3B68 JUMP JUMPDEST POP DUP3 SWAP2 POP POP PUSH2 0x36E6 JUMP JUMPDEST POP SWAP6 SWAP5 POP POP POP POP POP JUMP JUMPDEST PUSH1 0x40 DUP1 MLOAD PUSH1 0x2 DUP1 DUP3 MSTORE PUSH1 0x60 DUP1 DUP4 ADD DUP5 MSTORE SWAP3 DUP4 SWAP3 SWAP2 SWAP1 PUSH1 0x20 DUP4 ADD SWAP1 DUP1 CALLDATASIZE DUP4 CALLDATACOPY ADD SWAP1 POP POP SWAP1 POP DUP4 PUSH1 0x1 DUP2 MLOAD DUP2 LT PUSH2 0x3BDD JUMPI INVALID JUMPDEST PUSH1 0x20 MUL PUSH1 0x20 ADD ADD MLOAD DUP2 PUSH1 0x0 DUP2 MLOAD DUP2 LT PUSH2 0x3BF2 JUMPI INVALID JUMPDEST PUSH1 0x20 MUL PUSH1 0x20 ADD ADD SWAP1 PUSH1 0x1 PUSH1 0x1 PUSH1 0xA0 SHL SUB AND SWAP1 DUP2 PUSH1 0x1 PUSH1 0x1 PUSH1 0xA0 SHL SUB AND DUP2 MSTORE POP POP DUP4 PUSH1 0x0 DUP2 MLOAD DUP2 LT PUSH2 0x3C1F JUMPI INVALID JUMPDEST PUSH1 0x20 MUL PUSH1 0x20 ADD ADD MLOAD DUP2 PUSH1 0x1 DUP2 MLOAD DUP2 LT PUSH2 0x3C34 JUMPI INVALID JUMPDEST PUSH1 0x1 PUSH1 0x1 PUSH1 0xA0 SHL SUB SWAP1 SWAP3 AND PUSH1 0x20 SWAP3 DUP4 MUL SWAP2 SWAP1 SWAP2 ADD SWAP1 SWAP2 ADD MSTORE PUSH1 0x40 DUP1 MLOAD PUSH1 0x60 DUP2 ADD SWAP1 SWAP2 MSTORE PUSH2 0x3CB1 SWAP1 DUP1 PUSH2 0x3C6A DUP9 DUP6 PUSH1 0x80 DUP5 ADD PUSH2 0xC81A JUMP JUMPDEST PUSH1 0x40 MLOAD PUSH1 0x20 DUP2 DUP4 SUB SUB DUP2 MSTORE SWAP1 PUSH1 0x40 MSTORE DUP2 MSTORE PUSH1 0x20 ADD DUP8 DUP8 PUSH1 0x40 MLOAD PUSH1 0x20 ADD PUSH2 0x3C91 SWAP3 SWAP2 SWAP1 PUSH2 0xC81A JUMP JUMPDEST PUSH1 0x40 MLOAD PUSH1 0x20 DUP2 DUP4 SUB SUB DUP2 MSTORE SWAP1 PUSH1 0x40 MSTORE DUP2 MSTORE PUSH1 0x20 ADD PUSH2 0x8C05 DUP2 MSTORE POP DUP5 PUSH2 0x86D7 JUMP JUMPDEST SWAP2 POP POP JUMPDEST SWAP4 SWAP3 POP POP POP JUMP JUMPDEST PUSH1 0x60 PUSH2 0x3CC8 DUP4 DUP6 PUSH2 0x7995 JUMP JUMPDEST PUSH1 0x0 DUP6 PUSH1 0x0 ADD MLOAD SWAP1 POP PUSH1 0x0 DUP2 PUSH1 0x1 PUSH1 0x1 PUSH1 0xA0 SHL SUB AND PUSH4 0x36569E77 PUSH1 0x40 MLOAD DUP2 PUSH4 0xFFFFFFFF AND PUSH1 0xE0 SHL DUP2 MSTORE PUSH1 0x4 ADD PUSH1 0x20 PUSH1 0x40 MLOAD DUP1 DUP4 SUB DUP2 DUP7 DUP1 EXTCODESIZE ISZERO DUP1 ISZERO PUSH2 0x3D0C JUMPI PUSH1 0x0 DUP1 REVERT JUMPDEST POP GAS STATICCALL ISZERO DUP1 ISZERO PUSH2 0x3D20 JUMPI RETURNDATASIZE PUSH1 0x0 DUP1 RETURNDATACOPY RETURNDATASIZE PUSH1 0x0 REVERT JUMPDEST POP POP POP POP PUSH1 0x40 MLOAD RETURNDATASIZE PUSH1 0x1F NOT PUSH1 0x1F DUP3 ADD AND DUP3 ADD DUP1 PUSH1 0x40 MSTORE POP DUP2 ADD SWAP1 PUSH2 0x3D44 SWAP2 SWAP1 PUSH2 0xB190 JUMP JUMPDEST DUP5 MLOAD SWAP1 SWAP2 POP DUP1 PUSH1 0x1 PUSH1 0x1 PUSH1 0x40 SHL SUB DUP2 GT DUP1 ISZERO PUSH2 0x3D5F JUMPI PUSH1 0x0 DUP1 REVERT JUMPDEST POP PUSH1 0x40 MLOAD SWAP1 DUP1 DUP3 MSTORE DUP1 PUSH1 0x20 MUL PUSH1 0x20 ADD DUP3 ADD PUSH1 0x40 MSTORE DUP1 ISZERO PUSH2 0x3D89 JUMPI DUP2 PUSH1 0x20 ADD PUSH1 0x20 DUP3 MUL DUP1 CALLDATASIZE DUP4 CALLDATACOPY ADD SWAP1 POP JUMPDEST POP SWAP4 POP DUP3 PUSH1 0x1 PUSH1 0x1 PUSH1 0xA0 SHL SUB AND PUSH4 0xF4B9FA75 PUSH1 0x40 MLOAD DUP2 PUSH4 0xFFFFFFFF AND PUSH1 0xE0 SHL DUP2 MSTORE PUSH1 0x4 ADD PUSH1 0x20 PUSH1 0x40 MLOAD DUP1 DUP4 SUB DUP2 DUP7 DUP1 EXTCODESIZE ISZERO DUP1 ISZERO PUSH2 0x3DC5 JUMPI PUSH1 0x0 DUP1 REVERT JUMPDEST POP GAS STATICCALL ISZERO DUP1 ISZERO PUSH2 0x3DD9 JUMPI RETURNDATASIZE PUSH1 0x0 DUP1 RETURNDATACOPY RETURNDATASIZE PUSH1 0x0 REVERT JUMPDEST POP POP POP POP PUSH1 0x40 MLOAD RETURNDATASIZE PUSH1 0x1F NOT PUSH1 0x1F DUP3 ADD AND DUP3 ADD DUP1 PUSH1 0x40 MSTORE POP DUP2 ADD SWAP1 PUSH2 0x3DFD SWAP2 SWAP1 PUSH2 0xB190 JUMP JUMPDEST PUSH1 0x1 PUSH1 0x1 PUSH1 0xA0 SHL SUB AND DUP7 PUSH1 0x1 PUSH1 0x1 PUSH1 0xA0 SHL SUB AND EQ ISZERO DUP1 ISZERO PUSH2 0x3EA0 JUMPI POP DUP3 PUSH1 0x1 PUSH1 0x1 PUSH1 0xA0 SHL SUB AND PUSH4 0xF4B9FA75 PUSH1 0x40 MLOAD DUP2 PUSH4 0xFFFFFFFF AND PUSH1 0xE0 SHL DUP2 MSTORE PUSH1 0x4 ADD PUSH1 0x20 PUSH1 0x40 MLOAD DUP1 DUP4 SUB DUP2 DUP7 DUP1 EXTCODESIZE ISZERO DUP1 ISZERO PUSH2 0x3E52 JUMPI PUSH1 0x0 DUP1 REVERT JUMPDEST POP GAS STATICCALL ISZERO DUP1 ISZERO PUSH2 0x3E66 JUMPI RETURNDATASIZE PUSH1 0x0 DUP1 RETURNDATACOPY RETURNDATASIZE PUSH1 0x0 REVERT JUMPDEST POP POP POP POP PUSH1 0x40 MLOAD RETURNDATASIZE PUSH1 0x1F NOT PUSH1 0x1F DUP3 ADD AND DUP3 ADD DUP1 PUSH1 0x40 MSTORE POP DUP2 ADD SWAP1 PUSH2 0x3E8A SWAP2 SWAP1 PUSH2 0xB190 JUMP JUMPDEST PUSH1 0x1 PUSH1 0x1 PUSH1 0xA0 SHL SUB AND DUP8 PUSH1 0x1 PUSH1 0x1 PUSH1 0xA0 SHL SUB AND EQ ISZERO JUMPDEST ISZERO PUSH2 0x3EAD JUMPI POP POP POP PUSH2 0x1ACF JUMP JUMPDEST PUSH1 0x0 JUMPDEST DUP2 DUP2 LT ISZERO PUSH2 0xE93 JUMPI PUSH1 0x0 PUSH2 0x3EDB DUP11 DUP10 DUP12 DUP11 DUP7 DUP2 MLOAD DUP2 LT PUSH2 0x3ECC JUMPI INVALID JUMPDEST PUSH1 0x20 MUL PUSH1 0x20 ADD ADD MLOAD DUP10 DUP10 PUSH2 0x8D17 JUMP JUMPDEST SWAP1 POP DUP1 PUSH2 0x3EE8 JUMPI POP PUSH2 0xE93 JUMP JUMPDEST DUP1 DUP7 DUP4 DUP2 MLOAD DUP2 LT PUSH2 0x3EF5 JUMPI INVALID JUMPDEST PUSH1 0x20 SWAP1 DUP2 MUL SWAP2 SWAP1 SWAP2 ADD ADD MSTORE POP PUSH1 0x1 ADD PUSH2 0x3EB0 JUMP JUMPDEST PUSH20 0xEEEEEEEEEEEEEEEEEEEEEEEEEEEEEEEEEEEEEEEE DUP2 JUMP JUMPDEST DUP1 MLOAD PUSH1 0x60 SWAP1 DUP1 PUSH1 0x1 PUSH1 0x1 PUSH1 0x40 SHL SUB DUP2 GT DUP1 ISZERO PUSH2 0x3F3C JUMPI PUSH1 0x0 DUP1 REVERT JUMPDEST POP PUSH1 0x40 MLOAD SWAP1 DUP1 DUP3 MSTORE DUP1 PUSH1 0x20 MUL PUSH1 0x20 ADD DUP3 ADD PUSH1 0x40 MSTORE DUP1 ISZERO PUSH2 0x3F66 JUMPI DUP2 PUSH1 0x20 ADD PUSH1 0x20 DUP3 MUL DUP1 CALLDATASIZE DUP4 CALLDATACOPY ADD SWAP1 POP JUMPDEST POP SWAP2 POP PUSH1 0x0 JUMPDEST DUP2 DUP2 LT ISZERO PUSH2 0x201A JUMPI DUP7 PUSH1 0x1 PUSH1 0x1 PUSH1 0xA0 SHL SUB AND PUSH4 0xE94803F4 DUP8 DUP8 DUP8 DUP6 DUP2 MLOAD DUP2 LT PUSH2 0x3F91 JUMPI INVALID JUMPDEST PUSH1 0x20 MUL PUSH1 0x20 ADD ADD MLOAD PUSH1 0x40 MLOAD DUP5 PUSH4 0xFFFFFFFF AND PUSH1 0xE0 SHL DUP2 MSTORE PUSH1 0x4 ADD PUSH2 0x3FB7 SWAP4 SWAP3 SWAP2 SWAP1 PUSH2 0xC7F2 JUMP JUMPDEST PUSH1 0x20 PUSH1 0x40 MLOAD DUP1 DUP4 SUB DUP2 DUP7 DUP1 EXTCODESIZE ISZERO DUP1 ISZERO PUSH2 0x3FCF JUMPI PUSH1 0x0 DUP1 REVERT JUMPDEST POP GAS STATICCALL ISZERO DUP1 ISZERO PUSH2 0x3FE3 JUMPI RETURNDATASIZE PUSH1 0x0 DUP1 RETURNDATACOPY RETURNDATASIZE PUSH1 0x0 REVERT JUMPDEST POP POP POP POP PUSH1 0x40 MLOAD RETURNDATASIZE PUSH1 0x1F NOT PUSH1 0x1F DUP3 ADD AND DUP3 ADD DUP1 PUSH1 0x40 MSTORE POP DUP2 ADD SWAP1 PUSH2 0x4007 SWAP2 SWAP1 PUSH2 0xB92E JUMP JUMPDEST DUP4 DUP3 DUP2 MLOAD DUP2 LT PUSH2 0x4013 JUMPI INVALID JUMPDEST PUSH1 0x20 MUL PUSH1 0x20 ADD ADD DUP2 DUP2 MSTORE POP POP DUP3 DUP2 DUP2 MLOAD DUP2 LT PUSH2 0x402B JUMPI INVALID JUMPDEST PUSH1 0x20 MUL PUSH1 0x20 ADD ADD MLOAD PUSH1 0x0 EQ ISZERO PUSH2 0x4040 JUMPI PUSH2 0x201A JUMP JUMPDEST PUSH1 0x1 ADD PUSH2 0x3F6C JUMP JUMPDEST PUSH1 0x40 DUP1 MLOAD PUSH1 0x2 DUP1 DUP3 MSTORE PUSH1 0x60 DUP1 DUP4 ADD DUP5 MSTORE SWAP3 DUP4 SWAP3 SWAP2 SWAP1 PUSH1 0x20 DUP4 ADD SWAP1 DUP1 CALLDATASIZE DUP4 CALLDATACOPY ADD SWAP1 POP POP SWAP1 POP DUP4 PUSH1 0x1 DUP2 MLOAD DUP2 LT PUSH2 0x4079 JUMPI INVALID JUMPDEST PUSH1 0x20 MUL PUSH1 0x20 ADD ADD MLOAD DUP2 PUSH1 0x0 DUP2 MLOAD DUP2 LT PUSH2 0x408E JUMPI INVALID JUMPDEST PUSH1 0x20 MUL PUSH1 0x20 ADD ADD SWAP1 PUSH1 0x1 PUSH1 0x1 PUSH1 0xA0 SHL SUB AND SWAP1 DUP2 PUSH1 0x1 PUSH1 0x1 PUSH1 0xA0 SHL SUB AND DUP2 MSTORE POP POP DUP4 PUSH1 0x0 DUP2 MLOAD DUP2 LT PUSH2 0x40BB JUMPI INVALID JUMPDEST PUSH1 0x20 MUL PUSH1 0x20 ADD ADD MLOAD DUP2 PUSH1 0x1 DUP2 MLOAD DUP2 LT PUSH2 0x40D0 JUMPI INVALID JUMPDEST PUSH1 0x1 PUSH1 0x1 PUSH1 0xA0 SHL SUB SWAP1 SWAP3 AND PUSH1 0x20 SWAP3 DUP4 MUL SWAP2 SWAP1 SWAP2 ADD SWAP1 SWAP2 ADD MSTORE PUSH1 0x40 DUP1 MLOAD PUSH1 0x60 DUP2 ADD SWAP1 SWAP2 MSTORE PUSH2 0x4150 SWAP1 DUP1 PUSH2 0x4107 DUP10 DUP10 DUP7 PUSH1 0x80 DUP6 ADD PUSH2 0xC734 JUMP JUMPDEST PUSH1 0x40 MLOAD PUSH1 0x20 DUP2 DUP4 SUB SUB DUP2 MSTORE SWAP1 PUSH1 0x40 MSTORE DUP2 MSTORE PUSH1 0x20 ADD DUP9 DUP9 DUP9 PUSH1 0x40 MLOAD PUSH1 0x20 ADD PUSH2 0x4130 SWAP4 SWAP3 SWAP2 SWAP1 PUSH2 0xC734 JUMP JUMPDEST PUSH1 0x40 MLOAD PUSH1 0x20 DUP2 DUP4 SUB SUB DUP2 MSTORE SWAP1 PUSH1 0x40 MSTORE DUP2 MSTORE PUSH1 0x20 ADD PUSH2 0x8FA9 DUP2 MSTORE POP DUP5 PUSH2 0x86D7 JUMP JUMPDEST SWAP7 SWAP6 POP POP POP POP POP POP JUMP JUMPDEST PUSH2 0x4162 PUSH2 0xA5E6 JUMP JUMPDEST PUSH2 0x416A PUSH2 0xA5E6 JUMP JUMPDEST PUSH1 0x60 DUP4 PUSH1 0x1 PUSH1 0x1 PUSH1 0x40 SHL SUB DUP2 GT DUP1 ISZERO PUSH2 0x4182 JUMPI PUSH1 0x0 DUP1 REVERT JUMPDEST POP PUSH1 0x40 MLOAD SWAP1 DUP1 DUP3 MSTORE DUP1 PUSH1 0x20 MUL PUSH1 0x20 ADD DUP3 ADD PUSH1 0x40 MSTORE DUP1 ISZERO PUSH2 0x41AC JUMPI DUP2 PUSH1 0x20 ADD PUSH1 0x20 DUP3 MUL DUP1 CALLDATASIZE DUP4 CALLDATACOPY ADD SWAP1 POP JUMPDEST POP SWAP1 POP PUSH1 0x60 DUP5 PUSH1 0x1 PUSH1 0x1 PUSH1 0x40 SHL SUB DUP2 GT DUP1 ISZERO PUSH2 0x41C7 JUMPI PUSH1 0x0 DUP1 REVERT JUMPDEST POP PUSH1 0x40 MLOAD SWAP1 DUP1 DUP3 MSTORE DUP1 PUSH1 0x20 MUL PUSH1 0x20 ADD DUP3 ADD PUSH1 0x40 MSTORE DUP1 ISZERO PUSH2 0x41F1 JUMPI DUP2 PUSH1 0x20 ADD PUSH1 0x20 DUP3 MUL DUP1 CALLDATASIZE DUP4 CALLDATACOPY ADD SWAP1 POP JUMPDEST POP SWAP1 POP PUSH1 0x0 JUMPDEST DUP8 MLOAD DUP2 LT ISZERO PUSH2 0x4314 JUMPI PUSH1 0x0 PUSH1 0x60 ADDRESS PUSH1 0x1 PUSH1 0x1 PUSH1 0xA0 SHL SUB AND DUP11 DUP5 DUP2 MLOAD DUP2 LT PUSH2 0x421A JUMPI INVALID JUMPDEST PUSH1 0x20 MUL PUSH1 0x20 ADD ADD MLOAD PUSH1 0x40 MLOAD PUSH2 0x422F SWAP2 SWAP1 PUSH2 0xC675 JUMP JUMPDEST PUSH1 0x0 PUSH1 0x40 MLOAD DUP1 DUP4 SUB DUP2 PUSH1 0x0 DUP7 GAS CALL SWAP2 POP POP RETURNDATASIZE DUP1 PUSH1 0x0 DUP2 EQ PUSH2 0x426C JUMPI PUSH1 0x40 MLOAD SWAP2 POP PUSH1 0x1F NOT PUSH1 0x3F RETURNDATASIZE ADD AND DUP3 ADD PUSH1 0x40 MSTORE RETURNDATASIZE DUP3 MSTORE RETURNDATASIZE PUSH1 0x0 PUSH1 0x20 DUP5 ADD RETURNDATACOPY PUSH2 0x4271 JUMP JUMPDEST PUSH1 0x60 SWAP2 POP JUMPDEST POP SWAP2 POP SWAP2 POP DUP2 ISZERO PUSH2 0x430A JUMPI PUSH1 0x60 PUSH2 0x4288 DUP3 DUP11 PUSH2 0x90C3 JUMP JUMPDEST SWAP1 POP DUP5 PUSH1 0x1 DUP11 SUB DUP2 MLOAD DUP2 LT PUSH2 0x4299 JUMPI INVALID JUMPDEST PUSH1 0x20 MUL PUSH1 0x20 ADD ADD MLOAD DUP2 PUSH1 0x1 DUP12 SUB DUP2 MLOAD DUP2 LT PUSH2 0x42B0 JUMPI INVALID JUMPDEST PUSH1 0x20 MUL PUSH1 0x20 ADD ADD MLOAD GT ISZERO PUSH2 0x4308 JUMPI DUP4 DUP9 MSTORE PUSH1 0x20 DUP9 ADD DUP3 SWAP1 MSTORE PUSH1 0x0 JUMPDEST DUP10 DUP2 LT ISZERO PUSH2 0x4306 JUMPI DUP2 DUP2 DUP2 MLOAD DUP2 LT PUSH2 0x42DF JUMPI INVALID JUMPDEST PUSH1 0x20 MUL PUSH1 0x20 ADD ADD MLOAD DUP7 DUP3 DUP2 MLOAD DUP2 LT PUSH2 0x42F3 JUMPI INVALID JUMPDEST PUSH1 0x20 SWAP1 DUP2 MUL SWAP2 SWAP1 SWAP2 ADD ADD MSTORE PUSH1 0x1 ADD PUSH2 0x42CB JUMP JUMPDEST POP JUMPDEST POP JUMPDEST POP POP PUSH1 0x1 ADD PUSH2 0x41F7 JUMP JUMPDEST POP DUP1 PUSH1 0x1 DUP7 SUB DUP2 MLOAD DUP2 LT PUSH2 0x4324 JUMPI INVALID JUMPDEST PUSH1 0x20 MUL PUSH1 0x20 ADD ADD MLOAD PUSH1 0x0 EQ ISZERO PUSH2 0x433A JUMPI POP PUSH2 0x4477 JUMP JUMPDEST PUSH1 0x0 JUMPDEST DUP7 MLOAD DUP2 LT ISZERO PUSH2 0x2D06 JUMPI PUSH2 0x4363 DUP8 DUP3 DUP2 MLOAD DUP2 LT PUSH2 0x4355 JUMPI INVALID JUMPDEST PUSH1 0x20 MUL PUSH1 0x20 ADD ADD MLOAD DUP4 PUSH2 0x9101 JUMP JUMPDEST PUSH1 0x0 PUSH1 0x60 ADDRESS PUSH1 0x1 PUSH1 0x1 PUSH1 0xA0 SHL SUB AND DUP10 DUP5 DUP2 MLOAD DUP2 LT PUSH2 0x437D JUMPI INVALID JUMPDEST PUSH1 0x20 MUL PUSH1 0x20 ADD ADD MLOAD PUSH1 0x40 MLOAD PUSH2 0x4392 SWAP2 SWAP1 PUSH2 0xC675 JUMP JUMPDEST PUSH1 0x0 PUSH1 0x40 MLOAD DUP1 DUP4 SUB DUP2 PUSH1 0x0 DUP7 GAS CALL SWAP2 POP POP RETURNDATASIZE DUP1 PUSH1 0x0 DUP2 EQ PUSH2 0x43CF JUMPI PUSH1 0x40 MLOAD SWAP2 POP PUSH1 0x1F NOT PUSH1 0x3F RETURNDATASIZE ADD AND DUP3 ADD PUSH1 0x40 MSTORE RETURNDATASIZE DUP3 MSTORE RETURNDATASIZE PUSH1 0x0 PUSH1 0x20 DUP5 ADD RETURNDATACOPY PUSH2 0x43D4 JUMP JUMPDEST PUSH1 0x60 SWAP2 POP JUMPDEST POP SWAP2 POP SWAP2 POP DUP2 ISZERO PUSH2 0x446D JUMPI PUSH1 0x60 PUSH2 0x43EB DUP3 DUP11 PUSH2 0x90C3 JUMP JUMPDEST SWAP1 POP DUP6 PUSH1 0x1 DUP11 SUB DUP2 MLOAD DUP2 LT PUSH2 0x43FC JUMPI INVALID JUMPDEST PUSH1 0x20 MUL PUSH1 0x20 ADD ADD MLOAD DUP2 PUSH1 0x1 DUP12 SUB DUP2 MLOAD DUP2 LT PUSH2 0x4413 JUMPI INVALID JUMPDEST PUSH1 0x20 MUL PUSH1 0x20 ADD ADD MLOAD GT ISZERO PUSH2 0x446B JUMPI DUP4 DUP8 MSTORE PUSH1 0x20 DUP8 ADD DUP3 SWAP1 MSTORE PUSH1 0x0 JUMPDEST DUP10 DUP2 LT ISZERO PUSH2 0x4469 JUMPI DUP2 DUP2 DUP2 MLOAD DUP2 LT PUSH2 0x4442 JUMPI INVALID JUMPDEST PUSH1 0x20 MUL PUSH1 0x20 ADD ADD MLOAD DUP8 DUP3 DUP2 MLOAD DUP2 LT PUSH2 0x4456 JUMPI INVALID JUMPDEST PUSH1 0x20 SWAP1 DUP2 MUL SWAP2 SWAP1 SWAP2 ADD ADD MSTORE PUSH1 0x1 ADD PUSH2 0x442E JUMP JUMPDEST POP JUMPDEST POP JUMPDEST POP POP PUSH1 0x1 ADD PUSH2 0x433D JUMP JUMPDEST SWAP4 POP SWAP4 POP SWAP4 SWAP1 POP JUMP JUMPDEST PUSH1 0x0 PUSH1 0x60 PUSH2 0x448E DUP5 DUP7 PUSH2 0x7995 JUMP JUMPDEST DUP3 MLOAD DUP1 PUSH1 0x1 PUSH1 0x1 PUSH1 0x40 SHL SUB DUP2 GT DUP1 ISZERO PUSH2 0x44A6 JUMPI PUSH1 0x0 DUP1 REVERT JUMPDEST POP PUSH1 0x40 MLOAD SWAP1 DUP1 DUP3 MSTORE DUP1 PUSH1 0x20 MUL PUSH1 0x20 ADD DUP3 ADD PUSH1 0x40 MSTORE DUP1 ISZERO PUSH2 0x44D0 JUMPI DUP2 PUSH1 0x20 ADD PUSH1 0x20 DUP3 MUL DUP1 CALLDATASIZE DUP4 CALLDATACOPY ADD SWAP1 POP JUMPDEST POP SWAP2 POP PUSH2 0x44DF DUP8 DUP8 DUP8 DUP8 PUSH2 0x914C JUMP JUMPDEST PUSH1 0x40 DUP1 MLOAD PUSH1 0x1 DUP1 DUP3 MSTORE DUP2 DUP4 ADD SWAP1 SWAP3 MSTORE SWAP2 SWAP5 POP PUSH1 0x60 SWAP2 SWAP1 DUP2 PUSH1 0x20 ADD JUMPDEST PUSH2 0x4502 PUSH2 0xA600 JUMP JUMPDEST DUP2 MSTORE PUSH1 0x20 ADD SWAP1 PUSH1 0x1 SWAP1 SUB SWAP1 DUP2 PUSH2 0x44FA JUMPI SWAP1 POP POP SWAP1 POP PUSH1 0x40 MLOAD DUP1 PUSH1 0x60 ADD PUSH1 0x40 MSTORE DUP1 DUP9 PUSH1 0x1 PUSH1 0x1 PUSH1 0xA0 SHL SUB AND DUP2 MSTORE PUSH1 0x20 ADD DUP8 PUSH1 0x1 PUSH1 0x1 PUSH1 0xA0 SHL SUB AND DUP2 MSTORE PUSH1 0x20 ADD DUP6 ISZERO ISZERO DUP2 MSTORE POP DUP2 PUSH1 0x0 DUP2 MLOAD DUP2 LT PUSH2 0x4553 JUMPI INVALID JUMPDEST PUSH1 0x20 MUL PUSH1 0x20 ADD ADD DUP2 SWAP1 MSTORE POP PUSH1 0x0 JUMPDEST DUP3 DUP2 LT ISZERO PUSH2 0x23C4 JUMPI DUP9 PUSH1 0x1 PUSH1 0x1 PUSH1 0xA0 SHL SUB AND PUSH4 0x9881FCB4 DUP8 DUP4 DUP2 MLOAD DUP2 LT PUSH2 0x4584 JUMPI INVALID JUMPDEST PUSH1 0x20 MUL PUSH1 0x20 ADD ADD MLOAD DUP5 PUSH1 0x40 MLOAD DUP4 PUSH4 0xFFFFFFFF AND PUSH1 0xE0 SHL DUP2 MSTORE PUSH1 0x4 ADD PUSH2 0x45AA SWAP3 SWAP2 SWAP1 PUSH2 0xCC4F JUMP JUMPDEST PUSH1 0x0 PUSH1 0x40 MLOAD DUP1 DUP4 SUB DUP2 DUP7 DUP1 EXTCODESIZE ISZERO DUP1 ISZERO PUSH2 0x45C2 JUMPI PUSH1 0x0 DUP1 REVERT JUMPDEST POP GAS STATICCALL ISZERO DUP1 ISZERO PUSH2 0x45D6 JUMPI RETURNDATASIZE PUSH1 0x0 DUP1 RETURNDATACOPY RETURNDATASIZE PUSH1 0x0 REVERT JUMPDEST POP POP POP POP PUSH1 0x40 MLOAD RETURNDATASIZE PUSH1 0x0 DUP3 RETURNDATACOPY PUSH1 0x1F RETURNDATASIZE SWAP1 DUP2 ADD PUSH1 0x1F NOT AND DUP3 ADD PUSH1 0x40 MSTORE PUSH2 0x45FE SWAP2 SWAP1 DUP2 ADD SWAP1 PUSH2 0xB87F JUMP JUMPDEST PUSH1 0x1 DUP2 MLOAD DUP2 LT PUSH2 0x460A JUMPI INVALID JUMPDEST PUSH1 0x20 MUL PUSH1 0x20 ADD ADD MLOAD DUP5 DUP3 DUP2 MLOAD DUP2 LT PUSH2 0x461E JUMPI INVALID JUMPDEST PUSH1 0x20 MUL PUSH1 0x20 ADD ADD DUP2 DUP2 MSTORE POP POP DUP4 DUP2 DUP2 MLOAD DUP2 LT PUSH2 0x4636 JUMPI INVALID JUMPDEST PUSH1 0x20 MUL PUSH1 0x20 ADD ADD MLOAD PUSH1 0x0 EQ ISZERO PUSH2 0x464B JUMPI PUSH2 0x23C4 JUMP JUMPDEST PUSH1 0x1 ADD PUSH2 0x4561 JUMP JUMPDEST PUSH1 0x40 DUP5 ADD MLOAD PUSH1 0x60 SWAP1 PUSH1 0x1 PUSH1 0x1 PUSH1 0xE0 SHL SUB NOT AND PUSH2 0x46D5 JUMPI PUSH1 0x40 DUP1 MLOAD PUSH1 0x60 DUP2 ADD SWAP1 SWAP2 MSTORE PUSH2 0x46CE SWAP1 DUP1 PUSH2 0x4687 DUP7 DUP10 PUSH1 0x80 DUP5 ADD PUSH2 0xCAF3 JUMP JUMPDEST PUSH1 0x40 MLOAD PUSH1 0x20 DUP2 DUP4 SUB SUB DUP2 MSTORE SWAP1 PUSH1 0x40 MSTORE DUP2 MSTORE PUSH1 0x20 ADD DUP7 DUP9 PUSH1 0x40 MLOAD PUSH1 0x20 ADD PUSH2 0x46AE SWAP3 SWAP2 SWAP1 PUSH2 0xCAF3 JUMP JUMPDEST PUSH1 0x40 MLOAD PUSH1 0x20 DUP2 DUP4 SUB SUB DUP2 MSTORE SWAP1 PUSH1 0x40 MSTORE DUP2 MSTORE PUSH1 0x20 ADD PUSH2 0x91E6 DUP2 MSTORE POP DUP4 PUSH2 0x86D7 JUMP JUMPDEST SWAP1 POP PUSH2 0x1ACF JUMP JUMPDEST DUP2 MLOAD DUP1 PUSH1 0x1 PUSH1 0x1 PUSH1 0x40 SHL SUB DUP2 GT DUP1 ISZERO PUSH2 0x46ED JUMPI PUSH1 0x0 DUP1 REVERT JUMPDEST POP PUSH1 0x40 MLOAD SWAP1 DUP1 DUP3 MSTORE DUP1 PUSH1 0x20 MUL PUSH1 0x20 ADD DUP3 ADD PUSH1 0x40 MSTORE DUP1 ISZERO PUSH2 0x4717 JUMPI DUP2 PUSH1 0x20 ADD PUSH1 0x20 DUP3 MUL DUP1 CALLDATASIZE DUP4 CALLDATACOPY ADD SWAP1 POP JUMPDEST POP SWAP2 POP PUSH1 0x0 JUMPDEST DUP2 DUP2 LT ISZERO PUSH2 0x201A JUMPI PUSH1 0x0 PUSH1 0x60 DUP9 PUSH1 0x0 ADD MLOAD PUSH1 0x1 PUSH1 0x1 PUSH1 0xA0 SHL SUB AND PUSH3 0x1E8480 DUP11 PUSH1 0x40 ADD MLOAD DUP11 DUP11 DUP11 DUP9 DUP2 MLOAD DUP2 LT PUSH2 0x474E JUMPI INVALID JUMPDEST PUSH1 0x20 MUL PUSH1 0x20 ADD ADD MLOAD PUSH1 0x40 MLOAD PUSH1 0x24 ADD PUSH2 0x4768 SWAP4 SWAP3 SWAP2 SWAP1 PUSH2 0xCAD8 JUMP JUMPDEST PUSH1 0x40 DUP1 MLOAD PUSH1 0x1F NOT DUP2 DUP5 SUB ADD DUP2 MSTORE SWAP2 DUP2 MSTORE PUSH1 0x20 DUP3 ADD DUP1 MLOAD PUSH1 0x1 PUSH1 0x1 PUSH1 0xE0 SHL SUB AND PUSH1 0x1 PUSH1 0x1 PUSH1 0xE0 SHL SUB NOT SWAP1 SWAP5 AND SWAP4 SWAP1 SWAP4 OR SWAP1 SWAP3 MSTORE SWAP1 MLOAD PUSH2 0x47A6 SWAP2 SWAP1 PUSH2 0xC675 JUMP JUMPDEST PUSH1 0x0 PUSH1 0x40 MLOAD DUP1 DUP4 SUB DUP2 DUP7 DUP7 STATICCALL SWAP3 POP POP POP RETURNDATASIZE DUP1 PUSH1 0x0 DUP2 EQ PUSH2 0x47E2 JUMPI PUSH1 0x40 MLOAD SWAP2 POP PUSH1 0x1F NOT PUSH1 0x3F RETURNDATASIZE ADD AND DUP3 ADD PUSH1 0x40 MSTORE RETURNDATASIZE DUP3 MSTORE RETURNDATASIZE PUSH1 0x0 PUSH1 0x20 DUP5 ADD RETURNDATACOPY PUSH2 0x47E7 JUMP JUMPDEST PUSH1 0x60 SWAP2 POP JUMPDEST POP SWAP2 POP SWAP2 POP PUSH1 0x0 DUP3 ISZERO PUSH2 0x480B JUMPI DUP2 DUP1 PUSH1 0x20 ADD SWAP1 MLOAD DUP2 ADD SWAP1 PUSH2 0x4808 SWAP2 SWAP1 PUSH2 0xB92E JUMP JUMPDEST SWAP1 POP JUMPDEST DUP1 DUP7 DUP6 DUP2 MLOAD DUP2 LT PUSH2 0x4818 JUMPI INVALID JUMPDEST PUSH1 0x20 MUL PUSH1 0x20 ADD ADD DUP2 DUP2 MSTORE POP POP DUP6 DUP5 DUP2 MLOAD DUP2 LT PUSH2 0x4830 JUMPI INVALID JUMPDEST PUSH1 0x20 MUL PUSH1 0x20 ADD ADD MLOAD PUSH1 0x0 EQ ISZERO PUSH2 0x4848 JUMPI POP POP POP PUSH2 0x201A JUMP JUMPDEST POP POP POP PUSH1 0x1 ADD PUSH2 0x471D JUMP JUMPDEST DUP1 MLOAD PUSH1 0x60 SWAP1 DUP6 SWAP1 DUP1 PUSH1 0x1 PUSH1 0x1 PUSH1 0x40 SHL SUB DUP2 GT DUP1 ISZERO PUSH2 0x4870 JUMPI PUSH1 0x0 DUP1 REVERT JUMPDEST POP PUSH1 0x40 MLOAD SWAP1 DUP1 DUP3 MSTORE DUP1 PUSH1 0x20 MUL PUSH1 0x20 ADD DUP3 ADD PUSH1 0x40 MSTORE DUP1 ISZERO PUSH2 0x489A JUMPI DUP2 PUSH1 0x20 ADD PUSH1 0x20 DUP3 MUL DUP1 CALLDATASIZE DUP4 CALLDATACOPY ADD SWAP1 POP JUMPDEST POP PUSH1 0x40 MLOAD PUSH4 0xBCDED89 PUSH1 0xE2 SHL DUP2 MSTORE SWAP1 SWAP4 POP PUSH1 0x1 PUSH1 0x1 PUSH1 0xA0 SHL SUB DUP4 AND SWAP1 PUSH4 0x2F37B624 SWAP1 PUSH2 0x48CA SWAP1 DUP10 SWAP1 PUSH1 0x4 ADD PUSH2 0xC681 JUMP JUMPDEST PUSH1 0x20 PUSH1 0x40 MLOAD DUP1 DUP4 SUB DUP2 DUP7 DUP1 EXTCODESIZE ISZERO DUP1 ISZERO PUSH2 0x48E2 JUMPI PUSH1 0x0 DUP1 REVERT JUMPDEST POP GAS STATICCALL ISZERO DUP1 ISZERO PUSH2 0x48F6 JUMPI RETURNDATASIZE PUSH1 0x0 DUP1 RETURNDATACOPY RETURNDATASIZE PUSH1 0x0 REVERT JUMPDEST POP POP POP POP PUSH1 0x40 MLOAD RETURNDATASIZE PUSH1 0x1F NOT PUSH1 0x1F DUP3 ADD AND DUP3 ADD DUP1 PUSH1 0x40 MSTORE POP DUP2 ADD SWAP1 PUSH2 0x491A SWAP2 SWAP1 PUSH2 0xB910 JUMP JUMPDEST ISZERO DUP1 PUSH2 0x499F JUMPI POP PUSH1 0x40 MLOAD PUSH4 0xBCDED89 PUSH1 0xE2 SHL DUP2 MSTORE PUSH1 0x1 PUSH1 0x1 PUSH1 0xA0 SHL SUB DUP4 AND SWAP1 PUSH4 0x2F37B624 SWAP1 PUSH2 0x494D SWAP1 DUP9 SWAP1 PUSH1 0x4 ADD PUSH2 0xC681 JUMP JUMPDEST PUSH1 0x20 PUSH1 0x40 MLOAD DUP1 DUP4 SUB DUP2 DUP7 DUP1 EXTCODESIZE ISZERO DUP1 ISZERO PUSH2 0x4965 JUMPI PUSH1 0x0 DUP1 REVERT JUMPDEST POP GAS STATICCALL ISZERO DUP1 ISZERO PUSH2 0x4979 JUMPI RETURNDATASIZE PUSH1 0x0 DUP1 RETURNDATACOPY RETURNDATASIZE PUSH1 0x0 REVERT JUMPDEST POP POP POP POP PUSH1 0x40 MLOAD RETURNDATASIZE PUSH1 0x1F NOT PUSH1 0x1F DUP3 ADD AND DUP3 ADD DUP1 PUSH1 0x40 MSTORE POP DUP2 ADD SWAP1 PUSH2 0x499D SWAP2 SWAP1 PUSH2 0xB910 JUMP JUMPDEST ISZERO JUMPDEST ISZERO PUSH2 0x49AB JUMPI POP POP PUSH2 0x1ACF JUMP JUMPDEST PUSH2 0x49B3 PUSH2 0xA59F JUMP JUMPDEST PUSH1 0x40 MLOAD PUSH4 0xF8B2CB4F PUSH1 0xE0 SHL DUP2 MSTORE PUSH1 0x1 PUSH1 0x1 PUSH1 0xA0 SHL SUB DUP5 AND SWAP1 PUSH4 0xF8B2CB4F SWAP1 PUSH2 0x49DF SWAP1 DUP11 SWAP1 PUSH1 0x4 ADD PUSH2 0xC681 JUMP JUMPDEST PUSH1 0x20 PUSH1 0x40 MLOAD DUP1 DUP4 SUB DUP2 DUP7 DUP1 EXTCODESIZE ISZERO DUP1 ISZERO PUSH2 0x49F7 JUMPI PUSH1 0x0 DUP1 REVERT JUMPDEST POP GAS STATICCALL ISZERO DUP1 ISZERO PUSH2 0x4A0B JUMPI RETURNDATASIZE PUSH1 0x0 DUP1 RETURNDATACOPY RETURNDATASIZE PUSH1 0x0 REVERT JUMPDEST POP POP POP POP PUSH1 0x40 MLOAD RETURNDATASIZE PUSH1 0x1F NOT PUSH1 0x1F DUP3 ADD AND DUP3 ADD DUP1 PUSH1 0x40 MSTORE POP DUP2 ADD SWAP1 PUSH2 0x4A2F SWAP2 SWAP1 PUSH2 0xB92E JUMP JUMPDEST DUP2 MSTORE PUSH1 0x40 MLOAD PUSH4 0xF8B2CB4F PUSH1 0xE0 SHL DUP2 MSTORE PUSH1 0x1 PUSH1 0x1 PUSH1 0xA0 SHL SUB DUP5 AND SWAP1 PUSH4 0xF8B2CB4F SWAP1 PUSH2 0x4A5D SWAP1 DUP10 SWAP1 PUSH1 0x4 ADD PUSH2 0xC681 JUMP JUMPDEST PUSH1 0x20 PUSH1 0x40 MLOAD DUP1 DUP4 SUB DUP2 DUP7 DUP1 EXTCODESIZE ISZERO DUP1 ISZERO PUSH2 0x4A75 JUMPI PUSH1 0x0 DUP1 REVERT JUMPDEST POP GAS STATICCALL ISZERO DUP1 ISZERO PUSH2 0x4A89 JUMPI RETURNDATASIZE PUSH1 0x0 DUP1 RETURNDATACOPY RETURNDATASIZE PUSH1 0x0 REVERT JUMPDEST POP POP POP POP PUSH1 0x40 MLOAD RETURNDATASIZE PUSH1 0x1F NOT PUSH1 0x1F DUP3 ADD AND DUP3 ADD DUP1 PUSH1 0x40 MSTORE POP DUP2 ADD SWAP1 PUSH2 0x4AAD SWAP2 SWAP1 PUSH2 0xB92E JUMP JUMPDEST PUSH1 0x20 DUP3 ADD MSTORE PUSH1 0x40 MLOAD PUSH4 0x4A46C673 PUSH1 0xE1 SHL DUP2 MSTORE PUSH1 0x1 PUSH1 0x1 PUSH1 0xA0 SHL SUB DUP5 AND SWAP1 PUSH4 0x948D8CE6 SWAP1 PUSH2 0x4ADE SWAP1 DUP11 SWAP1 PUSH1 0x4 ADD PUSH2 0xC681 JUMP JUMPDEST PUSH1 0x20 PUSH1 0x40 MLOAD DUP1 DUP4 SUB DUP2 DUP7 DUP1 EXTCODESIZE ISZERO DUP1 ISZERO PUSH2 0x4AF6 JUMPI PUSH1 0x0 DUP1 REVERT JUMPDEST POP GAS STATICCALL ISZERO DUP1 ISZERO PUSH2 0x4B0A JUMPI RETURNDATASIZE PUSH1 0x0 DUP1 RETURNDATACOPY RETURNDATASIZE PUSH1 0x0 REVERT JUMPDEST POP POP POP POP PUSH1 0x40 MLOAD RETURNDATASIZE PUSH1 0x1F NOT PUSH1 0x1F DUP3 ADD AND DUP3 ADD DUP1 PUSH1 0x40 MSTORE POP DUP2 ADD SWAP1 PUSH2 0x4B2E SWAP2 SWAP1 PUSH2 0xB92E JUMP JUMPDEST PUSH1 0x40 DUP1 DUP4 ADD SWAP2 SWAP1 SWAP2 MSTORE MLOAD PUSH4 0x4A46C673 PUSH1 0xE1 SHL DUP2 MSTORE PUSH1 0x1 PUSH1 0x1 PUSH1 0xA0 SHL SUB DUP5 AND SWAP1 PUSH4 0x948D8CE6 SWAP1 PUSH2 0x4B61 SWAP1 DUP10 SWAP1 PUSH1 0x4 ADD PUSH2 0xC681 JUMP JUMPDEST PUSH1 0x20 PUSH1 0x40 MLOAD DUP1 DUP4 SUB DUP2 DUP7 DUP1 EXTCODESIZE ISZERO DUP1 ISZERO PUSH2 0x4B79 JUMPI PUSH1 0x0 DUP1 REVERT JUMPDEST POP GAS STATICCALL ISZERO DUP1 ISZERO PUSH2 0x4B8D JUMPI RETURNDATASIZE PUSH1 0x0 DUP1 RETURNDATACOPY RETURNDATASIZE PUSH1 0x0 REVERT JUMPDEST POP POP POP POP PUSH1 0x40 MLOAD RETURNDATASIZE PUSH1 0x1F NOT PUSH1 0x1F DUP3 ADD AND DUP3 ADD DUP1 PUSH1 0x40 MSTORE POP DUP2 ADD SWAP1 PUSH2 0x4BB1 SWAP2 SWAP1 PUSH2 0xB92E JUMP JUMPDEST DUP2 PUSH1 0x60 ADD DUP2 DUP2 MSTORE POP POP DUP3 PUSH1 0x1 PUSH1 0x1 PUSH1 0xA0 SHL SUB AND PUSH4 0xD4CADF68 PUSH1 0x40 MLOAD DUP2 PUSH4 0xFFFFFFFF AND PUSH1 0xE0 SHL DUP2 MSTORE PUSH1 0x4 ADD PUSH1 0x20 PUSH1 0x40 MLOAD DUP1 DUP4 SUB DUP2 DUP7 DUP1 EXTCODESIZE ISZERO DUP1 ISZERO PUSH2 0x4BF3 JUMPI PUSH1 0x0 DUP1 REVERT JUMPDEST POP GAS STATICCALL ISZERO DUP1 ISZERO PUSH2 0x4C07 JUMPI RETURNDATASIZE PUSH1 0x0 DUP1 RETURNDATACOPY RETURNDATASIZE PUSH1 0x0 REVERT JUMPDEST POP POP POP POP PUSH1 0x40 MLOAD RETURNDATASIZE PUSH1 0x1F NOT PUSH1 0x1F DUP3 ADD AND DUP3 ADD DUP1 PUSH1 0x40 MSTORE POP DUP2 ADD SWAP1 PUSH2 0x4C2B SWAP2 SWAP1 PUSH2 0xB92E JUMP JUMPDEST PUSH1 0x80 DUP3 ADD MSTORE PUSH1 0x0 JUMPDEST DUP3 DUP2 LT ISZERO PUSH2 0xE93 JUMPI DUP2 MLOAD PUSH2 0x4C51 SWAP1 PUSH1 0x2 PUSH8 0xDE0B6B3A7640000 PUSH2 0x3231 JUMP JUMPDEST DUP7 DUP3 DUP2 MLOAD DUP2 LT PUSH2 0x4C5D JUMPI INVALID JUMPDEST PUSH1 0x20 MUL PUSH1 0x20 ADD ADD MLOAD GT ISZERO PUSH2 0x4C70 JUMPI PUSH2 0xE93 JUMP JUMPDEST DUP4 PUSH1 0x1 PUSH1 0x1 PUSH1 0xA0 SHL SUB AND PUSH4 0xBA9530A6 PUSH3 0x493E0 DUP5 PUSH1 0x0 ADD MLOAD DUP6 PUSH1 0x40 ADD MLOAD DUP7 PUSH1 0x20 ADD MLOAD DUP8 PUSH1 0x60 ADD MLOAD DUP13 DUP9 DUP2 MLOAD DUP2 LT PUSH2 0x4CA3 JUMPI INVALID JUMPDEST PUSH1 0x20 MUL PUSH1 0x20 ADD ADD MLOAD DUP10 PUSH1 0x80 ADD MLOAD PUSH1 0x40 MLOAD DUP9 PUSH4 0xFFFFFFFF AND PUSH1 0xE0 SHL DUP2 MSTORE PUSH1 0x4 ADD PUSH2 0x4CD1 SWAP7 SWAP6 SWAP5 SWAP4 SWAP3 SWAP2 SWAP1 PUSH2 0xCC7D JUMP JUMPDEST PUSH1 0x20 PUSH1 0x40 MLOAD DUP1 DUP4 SUB DUP2 DUP8 DUP1 EXTCODESIZE ISZERO DUP1 ISZERO PUSH2 0x4CE9 JUMPI PUSH1 0x0 DUP1 REVERT JUMPDEST POP DUP7 STATICCALL SWAP4 POP POP POP POP DUP1 ISZERO PUSH2 0x4D1A JUMPI POP PUSH1 0x40 DUP1 MLOAD PUSH1 0x1F RETURNDATASIZE SWAP1 DUP2 ADD PUSH1 0x1F NOT AND DUP3 ADD SWAP1 SWAP3 MSTORE PUSH2 0x4D17 SWAP2 DUP2 ADD SWAP1 PUSH2 0xB92E JUMP JUMPDEST PUSH1 0x1 JUMPDEST PUSH2 0x4D48 JUMPI RETURNDATASIZE DUP1 DUP1 ISZERO PUSH2 0x3213 JUMPI PUSH1 0x40 MLOAD SWAP2 POP PUSH1 0x1F NOT PUSH1 0x3F RETURNDATASIZE ADD AND DUP3 ADD PUSH1 0x40 MSTORE RETURNDATASIZE DUP3 MSTORE RETURNDATASIZE PUSH1 0x0 PUSH1 0x20 DUP5 ADD RETURNDATACOPY PUSH2 0x3218 JUMP JUMPDEST DUP1 DUP7 DUP4 DUP2 MLOAD DUP2 LT PUSH2 0x4D55 JUMPI INVALID JUMPDEST PUSH1 0x20 MUL PUSH1 0x20 ADD ADD DUP2 DUP2 MSTORE POP POP DUP6 DUP3 DUP2 MLOAD DUP2 LT PUSH2 0x4D6D JUMPI INVALID JUMPDEST PUSH1 0x20 MUL PUSH1 0x20 ADD ADD MLOAD PUSH1 0x0 EQ ISZERO PUSH2 0x4D83 JUMPI POP PUSH2 0xE93 JUMP JUMPDEST POP PUSH1 0x1 ADD PUSH2 0x4C33 JUMP JUMPDEST PUSH1 0x0 DUP1 DUP4 MLOAD PUSH1 0x3 DUP2 GT ISZERO PUSH2 0x4D9C JUMPI INVALID JUMPDEST EQ DUP1 PUSH2 0x4DB4 JUMPI POP PUSH1 0x1 DUP4 MLOAD PUSH1 0x3 DUP2 GT ISZERO PUSH2 0x4DB2 JUMPI INVALID JUMPDEST EQ JUMPDEST DUP1 PUSH2 0x4DCA JUMPI POP PUSH1 0x40 DUP5 ADD MLOAD PUSH1 0x1 PUSH1 0x1 PUSH1 0x80 SHL SUB AND ISZERO JUMPDEST DUP1 PUSH2 0x4DE0 JUMPI POP PUSH1 0x60 DUP5 ADD MLOAD PUSH1 0x1 PUSH1 0x1 PUSH1 0x80 SHL SUB AND ISZERO JUMPDEST ISZERO PUSH2 0x4DED JUMPI POP PUSH1 0x0 PUSH2 0x3CB5 JUMP JUMPDEST PUSH2 0x4DF5 PUSH2 0xA620 JUMP JUMPDEST PUSH1 0x0 DUP1 DUP5 PUSH1 0x1 PUSH1 0x1 PUSH1 0xA0 SHL SUB AND PUSH4 0x1FB09795 DUP9 DUP9 PUSH1 0x40 MLOAD DUP4 PUSH4 0xFFFFFFFF AND PUSH1 0xE0 SHL DUP2 MSTORE PUSH1 0x4 ADD PUSH2 0x4E26 SWAP3 SWAP2 SWAP1 PUSH2 0xCBB7 JUMP JUMPDEST PUSH1 0xA0 PUSH1 0x40 MLOAD DUP1 DUP4 SUB DUP2 DUP7 DUP1 EXTCODESIZE ISZERO DUP1 ISZERO PUSH2 0x4E3E JUMPI PUSH1 0x0 DUP1 REVERT JUMPDEST POP GAS STATICCALL ISZERO DUP1 ISZERO PUSH2 0x4E52 JUMPI RETURNDATASIZE PUSH1 0x0 DUP1 RETURNDATACOPY RETURNDATASIZE PUSH1 0x0 REVERT JUMPDEST POP POP POP POP PUSH1 0x40 MLOAD RETURNDATASIZE PUSH1 0x1F NOT PUSH1 0x1F DUP3 ADD AND DUP3 ADD DUP1 PUSH1 0x40 MSTORE POP DUP2 ADD SWAP1 PUSH2 0x4E76 SWAP2 SWAP1 PUSH2 0xBD50 JUMP JUMPDEST SWAP2 SWAP5 POP SWAP3 POP SWAP1 POP PUSH1 0x1 DUP4 PUSH1 0x20 ADD MLOAD PUSH1 0x4 DUP2 GT ISZERO PUSH2 0x4E8F JUMPI INVALID JUMPDEST EQ ISZERO DUP1 PUSH2 0x4E9A JUMPI POP DUP1 ISZERO JUMPDEST DUP1 PUSH2 0x4EAD JUMPI POP DUP7 MLOAD PUSH1 0x1 PUSH1 0x1 PUSH1 0xA0 SHL SUB AND ISZERO JUMPDEST ISZERO PUSH2 0x4EBE JUMPI PUSH1 0x0 SWAP4 POP POP POP POP PUSH2 0x3CB5 JUMP JUMPDEST POP PUSH1 0x1 PUSH1 0x1 PUSH1 0x80 SHL SUB AND SWAP6 SWAP5 POP POP POP POP POP JUMP JUMPDEST PUSH1 0x0 DUP1 DUP6 PUSH1 0x1 PUSH1 0x1 PUSH1 0xA0 SHL SUB AND PUSH4 0x901754D7 DUP7 DUP7 PUSH1 0x40 MLOAD DUP4 PUSH4 0xFFFFFFFF AND PUSH1 0xE0 SHL DUP2 MSTORE PUSH1 0x4 ADD PUSH2 0x4F02 SWAP3 SWAP2 SWAP1 PUSH2 0xC6AA JUMP JUMPDEST PUSH1 0x20 PUSH1 0x40 MLOAD DUP1 DUP4 SUB DUP2 DUP7 DUP1 EXTCODESIZE ISZERO DUP1 ISZERO PUSH2 0x4F1A JUMPI PUSH1 0x0 DUP1 REVERT JUMPDEST POP GAS STATICCALL ISZERO DUP1 ISZERO PUSH2 0x4F2E JUMPI RETURNDATASIZE PUSH1 0x0 DUP1 RETURNDATACOPY RETURNDATASIZE PUSH1 0x0 REVERT JUMPDEST POP POP POP POP PUSH1 0x40 MLOAD RETURNDATASIZE PUSH1 0x1F NOT PUSH1 0x1F DUP3 ADD AND DUP3 ADD DUP1 PUSH1 0x40 MSTORE POP DUP2 ADD SWAP1 PUSH2 0x4F52 SWAP2 SWAP1 PUSH2 0xB190 JUMP JUMPDEST SWAP1 POP PUSH1 0x1 PUSH1 0x1 PUSH1 0xA0 SHL SUB DUP2 AND PUSH2 0x4F6C JUMPI PUSH1 0x0 SWAP2 POP POP PUSH2 0x1ACF JUMP JUMPDEST PUSH1 0x0 PUSH1 0x1 PUSH1 0x1 PUSH1 0xA0 SHL SUB DUP7 AND ISZERO PUSH2 0x4FFE JUMPI PUSH1 0x40 MLOAD PUSH4 0x70A08231 PUSH1 0xE0 SHL DUP2 MSTORE PUSH1 0x1 PUSH1 0x1 PUSH1 0xA0 SHL SUB DUP8 AND SWAP1 PUSH4 0x70A08231 SWAP1 PUSH2 0x4FA9 SWAP1 DUP6 SWAP1 PUSH1 0x4 ADD PUSH2 0xC681 JUMP JUMPDEST PUSH1 0x20 PUSH1 0x40 MLOAD DUP1 DUP4 SUB DUP2 DUP7 DUP1 EXTCODESIZE ISZERO DUP1 ISZERO PUSH2 0x4FC1 JUMPI PUSH1 0x0 DUP1 REVERT JUMPDEST POP GAS STATICCALL ISZERO DUP1 ISZERO PUSH2 0x4FD5 JUMPI RETURNDATASIZE PUSH1 0x0 DUP1 RETURNDATACOPY RETURNDATASIZE PUSH1 0x0 REVERT JUMPDEST POP POP POP POP PUSH1 0x40 MLOAD RETURNDATASIZE PUSH1 0x1F NOT PUSH1 0x1F DUP3 ADD AND DUP3 ADD DUP1 PUSH1 0x40 MSTORE POP DUP2 ADD SWAP1 PUSH2 0x4FF9 SWAP2 SWAP1 PUSH2 0xB92E JUMP JUMPDEST PUSH2 0x500A JUMP JUMPDEST DUP2 PUSH1 0x1 PUSH1 0x1 PUSH1 0xA0 SHL SUB AND BALANCE JUMPDEST SWAP1 POP DUP4 DUP2 LT ISZERO PUSH2 0x501F JUMPI PUSH1 0x0 SWAP3 POP POP POP PUSH2 0x1ACF JUMP JUMPDEST PUSH1 0x40 MLOAD PUSH4 0x3C2803F PUSH1 0xE3 SHL DUP2 MSTORE PUSH1 0x1 PUSH1 0x1 PUSH1 0xA0 SHL SUB DUP4 AND SWAP1 PUSH4 0x1E1401F8 SWAP1 PUSH3 0x249F0 SWAP1 PUSH2 0x5054 SWAP1 DUP11 SWAP1 DUP11 SWAP1 DUP11 SWAP1 PUSH1 0x4 ADD PUSH2 0xC7F2 JUMP JUMPDEST PUSH1 0x20 PUSH1 0x40 MLOAD DUP1 DUP4 SUB DUP2 DUP8 DUP1 EXTCODESIZE ISZERO DUP1 ISZERO PUSH2 0x506C JUMPI PUSH1 0x0 DUP1 REVERT JUMPDEST POP DUP7 STATICCALL SWAP4 POP POP POP POP DUP1 ISZERO PUSH2 0x509D JUMPI POP PUSH1 0x40 DUP1 MLOAD PUSH1 0x1F RETURNDATASIZE SWAP1 DUP2 ADD PUSH1 0x1F NOT AND DUP3 ADD SWAP1 SWAP3 MSTORE PUSH2 0x509A SWAP2 DUP2 ADD SWAP1 PUSH2 0xB92E JUMP JUMPDEST PUSH1 0x1 JUMPDEST PUSH2 0x50DD JUMPI RETURNDATASIZE DUP1 DUP1 ISZERO PUSH2 0x50CB JUMPI PUSH1 0x40 MLOAD SWAP2 POP PUSH1 0x1F NOT PUSH1 0x3F RETURNDATASIZE ADD AND DUP3 ADD PUSH1 0x40 MSTORE RETURNDATASIZE DUP3 MSTORE RETURNDATASIZE PUSH1 0x0 PUSH1 0x20 DUP5 ADD RETURNDATACOPY PUSH2 0x50D0 JUMP JUMPDEST PUSH1 0x60 SWAP2 POP JUMPDEST POP PUSH1 0x0 SWAP4 POP POP POP POP PUSH2 0x1ACF JUMP JUMPDEST SWAP3 POP PUSH2 0x1ACF SWAP2 POP POP JUMP JUMPDEST PUSH1 0x60 PUSH2 0x50F3 DUP4 DUP6 PUSH2 0x7995 JUMP JUMPDEST PUSH1 0x20 DUP6 ADD MLOAD PUSH1 0x40 DUP1 MLOAD PUSH1 0x2 DUP1 DUP3 MSTORE PUSH1 0x60 DUP3 DUP2 ADD SWAP1 SWAP4 MSTORE DUP2 PUSH1 0x20 ADD PUSH1 0x20 DUP3 MUL DUP1 CALLDATASIZE DUP4 CALLDATACOPY ADD SWAP1 POP POP SWAP1 POP DUP6 DUP2 PUSH1 0x0 DUP2 MLOAD DUP2 LT PUSH2 0x5129 JUMPI INVALID JUMPDEST PUSH1 0x20 MUL PUSH1 0x20 ADD ADD SWAP1 PUSH1 0x1 PUSH1 0x1 PUSH1 0xA0 SHL SUB AND SWAP1 DUP2 PUSH1 0x1 PUSH1 0x1 PUSH1 0xA0 SHL SUB AND DUP2 MSTORE POP POP DUP5 DUP2 PUSH1 0x1 DUP2 MLOAD DUP2 LT PUSH2 0x5157 JUMPI INVALID JUMPDEST PUSH1 0x1 PUSH1 0x1 PUSH1 0xA0 SHL SUB SWAP1 SWAP3 AND PUSH1 0x20 SWAP3 DUP4 MUL SWAP2 SWAP1 SWAP2 ADD SWAP1 SWAP2 ADD MSTORE DUP4 MLOAD DUP1 PUSH1 0x1 PUSH1 0x1 PUSH1 0x40 SHL SUB DUP2 GT DUP1 ISZERO PUSH2 0x5187 JUMPI PUSH1 0x0 DUP1 REVERT JUMPDEST POP PUSH1 0x40 MLOAD SWAP1 DUP1 DUP3 MSTORE DUP1 PUSH1 0x20 MUL PUSH1 0x20 ADD DUP3 ADD PUSH1 0x40 MSTORE DUP1 ISZERO PUSH2 0x51B1 JUMPI DUP2 PUSH1 0x20 ADD PUSH1 0x20 DUP3 MUL DUP1 CALLDATASIZE DUP4 CALLDATACOPY ADD SWAP1 POP JUMPDEST POP SWAP4 POP PUSH2 0x51BC PUSH2 0xA578 JUMP JUMPDEST PUSH2 0x51C4 PUSH2 0x7966 JUMP JUMPDEST SWAP1 POP PUSH1 0x0 JUMPDEST DUP3 DUP2 LT ISZERO PUSH2 0x16AB JUMPI PUSH1 0x60 PUSH2 0x51E3 DUP12 DUP10 DUP5 DUP2 MLOAD DUP2 LT PUSH2 0x158A JUMPI INVALID JUMPDEST PUSH1 0x40 MLOAD PUSH4 0x7C268337 PUSH1 0xE1 SHL DUP2 MSTORE SWAP1 SWAP2 POP PUSH1 0x1 PUSH1 0x1 PUSH1 0xA0 SHL SUB DUP8 AND SWAP1 PUSH4 0xF84D066E SWAP1 PUSH2 0x5219 SWAP1 PUSH1 0x1 SWAP1 DUP6 SWAP1 DUP11 SWAP1 DUP10 SWAP1 PUSH1 0x4 ADD PUSH2 0xCA95 JUMP JUMPDEST PUSH1 0x0 PUSH1 0x40 MLOAD DUP1 DUP4 SUB DUP2 PUSH1 0x0 DUP8 DUP1 EXTCODESIZE ISZERO DUP1 ISZERO PUSH2 0x5233 JUMPI PUSH1 0x0 DUP1 REVERT JUMPDEST POP GAS CALL SWAP3 POP POP POP DUP1 ISZERO PUSH2 0x5268 JUMPI POP PUSH1 0x40 MLOAD RETURNDATASIZE PUSH1 0x0 DUP3 RETURNDATACOPY PUSH1 0x1F RETURNDATASIZE SWAP1 DUP2 ADD PUSH1 0x1F NOT AND DUP3 ADD PUSH1 0x40 MSTORE PUSH2 0x5265 SWAP2 SWAP1 DUP2 ADD SWAP1 PUSH2 0xB7DB JUMP JUMPDEST PUSH1 0x1 JUMPDEST PUSH2 0x5296 JUMPI RETURNDATASIZE DUP1 DUP1 ISZERO PUSH2 0x164A JUMPI PUSH1 0x40 MLOAD SWAP2 POP PUSH1 0x1F NOT PUSH1 0x3F RETURNDATASIZE ADD AND DUP3 ADD PUSH1 0x40 MSTORE RETURNDATASIZE DUP3 MSTORE RETURNDATASIZE PUSH1 0x0 PUSH1 0x20 DUP5 ADD RETURNDATACOPY PUSH2 0x164F JUMP JUMPDEST PUSH1 0x0 DUP2 PUSH1 0x0 DUP2 MLOAD DUP2 LT PUSH2 0x52A5 JUMPI INVALID JUMPDEST PUSH1 0x20 MUL PUSH1 0x20 ADD ADD MLOAD SWAP1 POP PUSH1 0x0 DUP2 SGT PUSH2 0x52BF JUMPI POP POP POP PUSH2 0x16AB JUMP JUMPDEST DUP1 DUP10 DUP6 DUP2 MLOAD DUP2 LT PUSH2 0x52CC JUMPI INVALID JUMPDEST PUSH1 0x20 MUL PUSH1 0x20 ADD ADD DUP2 DUP2 MSTORE POP POP POP POP POP PUSH1 0x1 ADD PUSH2 0x51C9 JUMP JUMPDEST PUSH1 0x0 DUP1 PUSH1 0x60 PUSH2 0x52F2 DUP6 DUP8 PUSH2 0x7995 JUMP JUMPDEST DUP4 MLOAD DUP1 PUSH1 0x1 PUSH1 0x1 PUSH1 0x40 SHL SUB DUP2 GT DUP1 ISZERO PUSH2 0x530A JUMPI PUSH1 0x0 DUP1 REVERT JUMPDEST POP PUSH1 0x40 MLOAD SWAP1 DUP1 DUP3 MSTORE DUP1 PUSH1 0x20 MUL PUSH1 0x20 ADD DUP3 ADD PUSH1 0x40 MSTORE DUP1 ISZERO PUSH2 0x5334 JUMPI DUP2 PUSH1 0x20 ADD PUSH1 0x20 DUP3 MUL DUP1 CALLDATASIZE DUP4 CALLDATACOPY ADD SWAP1 POP JUMPDEST POP SWAP2 POP PUSH2 0x5343 DUP10 DUP10 DUP10 DUP10 PUSH2 0x924D JUMP JUMPDEST SWAP5 POP SWAP3 POP PUSH1 0x1 PUSH1 0x1 PUSH1 0xA0 SHL SUB DUP4 AND PUSH2 0x535B JUMPI POP PUSH2 0x5415 JUMP JUMPDEST PUSH1 0x0 JUMPDEST DUP2 DUP2 LT ISZERO PUSH2 0x5412 JUMPI PUSH1 0x0 PUSH2 0x53CC DUP10 DUP7 DUP9 PUSH1 0x40 MLOAD PUSH1 0x20 ADD PUSH2 0x5380 SWAP4 SWAP3 SWAP2 SWAP1 PUSH2 0xC7A2 JUMP JUMPDEST PUSH1 0x40 MLOAD PUSH1 0x20 DUP2 DUP4 SUB SUB DUP2 MSTORE SWAP1 PUSH1 0x40 MSTORE DUP10 DUP8 DUP10 PUSH1 0x40 MLOAD PUSH1 0x20 ADD PUSH2 0x53A4 SWAP4 SWAP3 SWAP2 SWAP1 PUSH2 0xC7A2 JUMP JUMPDEST PUSH1 0x40 MLOAD PUSH1 0x20 DUP2 DUP4 SUB SUB DUP2 MSTORE SWAP1 PUSH1 0x40 MSTORE DUP10 DUP6 DUP2 MLOAD DUP2 LT PUSH2 0x53BF JUMPI INVALID JUMPDEST PUSH1 0x20 MUL PUSH1 0x20 ADD ADD MLOAD PUSH2 0x93A2 JUMP JUMPDEST SWAP1 POP DUP1 DUP5 DUP4 DUP2 MLOAD DUP2 LT PUSH2 0x53DB JUMPI INVALID JUMPDEST PUSH1 0x20 MUL PUSH1 0x20 ADD ADD DUP2 DUP2 MSTORE POP POP DUP4 DUP3 DUP2 MLOAD DUP2 LT PUSH2 0x53F3 JUMPI INVALID JUMPDEST PUSH1 0x20 MUL PUSH1 0x20 ADD ADD MLOAD PUSH1 0x0 EQ ISZERO PUSH2 0x5409 JUMPI POP PUSH2 0x5412 JUMP JUMPDEST POP PUSH1 0x1 ADD PUSH2 0x535E JUMP JUMPDEST POP POP JUMPDEST SWAP6 POP SWAP6 POP SWAP6 SWAP3 POP POP POP JUMP JUMPDEST DUP1 MLOAD PUSH1 0x60 SWAP1 DUP1 PUSH1 0x1 PUSH1 0x1 PUSH1 0x40 SHL SUB DUP2 GT DUP1 ISZERO PUSH2 0x543B JUMPI PUSH1 0x0 DUP1 REVERT JUMPDEST POP PUSH1 0x40 MLOAD SWAP1 DUP1 DUP3 MSTORE DUP1 PUSH1 0x20 MUL PUSH1 0x20 ADD DUP3 ADD PUSH1 0x40 MSTORE DUP1 ISZERO PUSH2 0x5465 JUMPI DUP2 PUSH1 0x20 ADD PUSH1 0x20 DUP3 MUL DUP1 CALLDATASIZE DUP4 CALLDATACOPY ADD SWAP1 POP JUMPDEST POP SWAP2 POP PUSH1 0x0 DUP7 PUSH1 0x1 PUSH1 0x1 PUSH1 0xA0 SHL SUB AND PUSH4 0x182DF0F5 PUSH1 0x40 MLOAD DUP2 PUSH4 0xFFFFFFFF AND PUSH1 0xE0 SHL DUP2 MSTORE PUSH1 0x4 ADD PUSH1 0x20 PUSH1 0x40 MLOAD DUP1 DUP4 SUB DUP2 DUP7 DUP1 EXTCODESIZE ISZERO DUP1 ISZERO PUSH2 0x54A3 JUMPI PUSH1 0x0 DUP1 REVERT JUMPDEST POP GAS STATICCALL ISZERO DUP1 ISZERO PUSH2 0x54B7 JUMPI RETURNDATASIZE PUSH1 0x0 DUP1 RETURNDATACOPY RETURNDATASIZE PUSH1 0x0 REVERT JUMPDEST POP POP POP POP PUSH1 0x40 MLOAD RETURNDATASIZE PUSH1 0x1F NOT PUSH1 0x1F DUP3 ADD AND DUP3 ADD DUP1 PUSH1 0x40 MSTORE POP DUP2 ADD SWAP1 PUSH2 0x54DB SWAP2 SWAP1 PUSH2 0xB92E JUMP JUMPDEST SWAP1 POP PUSH1 0x0 DUP8 PUSH1 0x1 PUSH1 0x1 PUSH1 0xA0 SHL SUB AND PUSH4 0x313CE567 PUSH1 0x40 MLOAD DUP2 PUSH4 0xFFFFFFFF AND PUSH1 0xE0 SHL DUP2 MSTORE PUSH1 0x4 ADD PUSH1 0x20 PUSH1 0x40 MLOAD DUP1 DUP4 SUB DUP2 DUP7 DUP1 EXTCODESIZE ISZERO DUP1 ISZERO PUSH2 0x5518 JUMPI PUSH1 0x0 DUP1 REVERT JUMPDEST POP GAS STATICCALL ISZERO DUP1 ISZERO PUSH2 0x552C JUMPI RETURNDATASIZE PUSH1 0x0 DUP1 RETURNDATACOPY RETURNDATASIZE PUSH1 0x0 REVERT JUMPDEST POP POP POP POP PUSH1 0x40 MLOAD RETURNDATASIZE PUSH1 0x1F NOT PUSH1 0x1F DUP3 ADD AND DUP3 ADD DUP1 PUSH1 0x40 MSTORE POP DUP2 ADD SWAP1 PUSH2 0x5550 SWAP2 SWAP1 PUSH2 0xBEBC JUMP JUMPDEST PUSH1 0xFF AND SWAP1 POP DUP8 PUSH1 0x1 PUSH1 0x1 PUSH1 0xA0 SHL SUB AND DUP7 PUSH1 0x1 PUSH1 0x1 PUSH1 0xA0 SHL SUB AND EQ ISZERO PUSH2 0x55C2 JUMPI PUSH1 0x0 JUMPDEST DUP4 DUP2 LT ISZERO PUSH2 0xE20 JUMPI DUP3 DUP3 PUSH1 0xA EXP PUSH5 0x2540BE400 DUP9 DUP5 DUP2 MLOAD DUP2 LT PUSH2 0x5591 JUMPI INVALID JUMPDEST PUSH1 0x20 MUL PUSH1 0x20 ADD ADD MLOAD MUL MUL DUP2 PUSH2 0x55A2 JUMPI INVALID JUMPDEST DIV DUP6 DUP3 DUP2 MLOAD DUP2 LT PUSH2 0x55AF JUMPI INVALID JUMPDEST PUSH1 0x20 SWAP1 DUP2 MUL SWAP2 SWAP1 SWAP2 ADD ADD MSTORE PUSH1 0x1 ADD PUSH2 0x5572 JUMP JUMPDEST DUP8 PUSH1 0x1 PUSH1 0x1 PUSH1 0xA0 SHL SUB AND DUP8 PUSH1 0x1 PUSH1 0x1 PUSH1 0xA0 SHL SUB AND EQ ISZERO PUSH2 0xE95 JUMPI PUSH1 0x0 JUMPDEST DUP4 DUP2 LT ISZERO PUSH2 0xE93 JUMPI DUP2 PUSH1 0xA EXP PUSH5 0x2540BE400 MUL DUP4 DUP8 DUP4 DUP2 MLOAD DUP2 LT PUSH2 0x55FF JUMPI INVALID JUMPDEST PUSH1 0x20 MUL PUSH1 0x20 ADD ADD MLOAD MUL DUP2 PUSH2 0x560F JUMPI INVALID JUMPDEST DIV DUP6 DUP3 DUP2 MLOAD DUP2 LT PUSH2 0x561C JUMPI INVALID JUMPDEST PUSH1 0x20 SWAP1 DUP2 MUL SWAP2 SWAP1 SWAP2 ADD ADD MSTORE PUSH1 0x1 ADD PUSH2 0x55DF JUMP JUMPDEST PUSH1 0x0 PUSH1 0x60 PUSH2 0x563D DUP5 DUP7 PUSH2 0x7995 JUMP JUMPDEST PUSH2 0x5649 DUP7 DUP6 DUP8 DUP7 PUSH2 0x914C JUMP JUMPDEST SWAP2 POP PUSH2 0x570F PUSH1 0x40 MLOAD DUP1 PUSH1 0x60 ADD PUSH1 0x40 MSTORE DUP1 DUP9 PUSH1 0x40 MLOAD DUP1 PUSH1 0x60 ADD PUSH1 0x40 MSTORE DUP1 DUP10 PUSH1 0x1 PUSH1 0x1 PUSH1 0xA0 SHL SUB AND DUP2 MSTORE PUSH1 0x20 ADD DUP11 PUSH1 0x1 PUSH1 0x1 PUSH1 0xA0 SHL SUB AND DUP2 MSTORE PUSH1 0x20 ADD DUP8 ISZERO ISZERO DUP2 MSTORE POP PUSH1 0x40 MLOAD PUSH1 0x20 ADD PUSH2 0x569A SWAP3 SWAP2 SWAP1 PUSH2 0xCA43 JUMP JUMPDEST PUSH1 0x40 MLOAD PUSH1 0x20 DUP2 DUP4 SUB SUB DUP2 MSTORE SWAP1 PUSH1 0x40 MSTORE DUP2 MSTORE PUSH1 0x20 ADD DUP9 PUSH1 0x40 MLOAD DUP1 PUSH1 0x60 ADD PUSH1 0x40 MSTORE DUP1 DUP11 PUSH1 0x1 PUSH1 0x1 PUSH1 0xA0 SHL SUB AND DUP2 MSTORE PUSH1 0x20 ADD DUP10 PUSH1 0x1 PUSH1 0x1 PUSH1 0xA0 SHL SUB AND DUP2 MSTORE PUSH1 0x20 ADD DUP8 ISZERO ISZERO DUP2 MSTORE POP PUSH1 0x40 MLOAD PUSH1 0x20 ADD PUSH2 0x56EF SWAP3 SWAP2 SWAP1 PUSH2 0xCA43 JUMP JUMPDEST PUSH1 0x40 MLOAD PUSH1 0x20 DUP2 DUP4 SUB SUB DUP2 MSTORE SWAP1 PUSH1 0x40 MSTORE DUP2 MSTORE PUSH1 0x20 ADD PUSH2 0x9494 DUP2 MSTORE POP DUP5 PUSH2 0x86D7 JUMP JUMPDEST SWAP1 POP SWAP5 POP SWAP5 SWAP3 POP POP POP JUMP JUMPDEST DUP1 MLOAD PUSH1 0x60 SWAP1 DUP1 PUSH1 0x1 PUSH1 0x1 PUSH1 0x40 SHL SUB DUP2 GT DUP1 ISZERO PUSH2 0x5735 JUMPI PUSH1 0x0 DUP1 REVERT JUMPDEST POP PUSH1 0x40 MLOAD SWAP1 DUP1 DUP3 MSTORE DUP1 PUSH1 0x20 MUL PUSH1 0x20 ADD DUP3 ADD PUSH1 0x40 MSTORE DUP1 ISZERO PUSH2 0x575F JUMPI DUP2 PUSH1 0x20 ADD PUSH1 0x20 DUP3 MUL DUP1 CALLDATASIZE DUP4 CALLDATACOPY ADD SWAP1 POP JUMPDEST POP SWAP2 POP DUP6 PUSH1 0x1 PUSH1 0x1 PUSH1 0xA0 SHL SUB AND DUP6 PUSH1 0x1 PUSH1 0x1 PUSH1 0xA0 SHL SUB AND EQ DUP1 ISZERO PUSH2 0x5794 JUMPI POP DUP7 PUSH1 0x1 PUSH1 0x1 PUSH1 0xA0 SHL SUB AND DUP5 PUSH1 0x1 PUSH1 0x1 PUSH1 0xA0 SHL SUB AND EQ JUMPDEST ISZERO PUSH2 0x57A2 JUMPI DUP3 SWAP2 POP POP PUSH2 0x36E6 JUMP JUMPDEST DUP7 PUSH1 0x1 PUSH1 0x1 PUSH1 0xA0 SHL SUB AND DUP6 PUSH1 0x1 PUSH1 0x1 PUSH1 0xA0 SHL SUB AND EQ DUP1 ISZERO PUSH2 0x57D4 JUMPI POP DUP6 PUSH1 0x1 PUSH1 0x1 PUSH1 0xA0 SHL SUB AND DUP5 PUSH1 0x1 PUSH1 0x1 PUSH1 0xA0 SHL SUB AND EQ JUMPDEST ISZERO PUSH2 0x3BA2 JUMPI PUSH1 0x0 JUMPDEST DUP2 DUP2 LT ISZERO PUSH2 0x3B98 JUMPI PUSH1 0x1 DUP5 DUP3 DUP2 MLOAD DUP2 LT PUSH2 0x57F2 JUMPI INVALID JUMPDEST PUSH1 0x20 SWAP1 DUP2 MUL SWAP2 SWAP1 SWAP2 ADD ADD DUP1 MLOAD SWAP2 SWAP1 SWAP2 SUB SWAP1 MSTORE PUSH1 0x1 ADD PUSH2 0x57DC JUMP JUMPDEST PUSH1 0x0 PUSH1 0x60 PUSH2 0x581A DUP5 DUP7 PUSH2 0x7995 JUMP JUMPDEST DUP3 MLOAD DUP1 PUSH1 0x1 PUSH1 0x1 PUSH1 0x40 SHL SUB DUP2 GT DUP1 ISZERO PUSH2 0x5832 JUMPI PUSH1 0x0 DUP1 REVERT JUMPDEST POP PUSH1 0x40 MLOAD SWAP1 DUP1 DUP3 MSTORE DUP1 PUSH1 0x20 MUL PUSH1 0x20 ADD DUP3 ADD PUSH1 0x40 MSTORE DUP1 ISZERO PUSH2 0x585C JUMPI DUP2 PUSH1 0x20 ADD PUSH1 0x20 DUP3 MUL DUP1 CALLDATASIZE DUP4 CALLDATACOPY ADD SWAP1 POP JUMPDEST POP SWAP2 POP PUSH1 0x0 JUMPDEST DUP2 DUP2 LT ISZERO PUSH2 0x58D1 JUMPI PUSH1 0x0 PUSH2 0x588B DUP10 DUP10 DUP10 DUP10 DUP7 DUP2 MLOAD DUP2 LT PUSH2 0x587E JUMPI INVALID JUMPDEST PUSH1 0x20 MUL PUSH1 0x20 ADD ADD MLOAD PUSH2 0x4ED1 JUMP JUMPDEST SWAP1 POP DUP1 DUP5 DUP4 DUP2 MLOAD DUP2 LT PUSH2 0x589A JUMPI INVALID JUMPDEST PUSH1 0x20 MUL PUSH1 0x20 ADD ADD DUP2 DUP2 MSTORE POP POP DUP4 DUP3 DUP2 MLOAD DUP2 LT PUSH2 0x58B2 JUMPI INVALID JUMPDEST PUSH1 0x20 MUL PUSH1 0x20 ADD ADD MLOAD PUSH1 0x0 EQ ISZERO PUSH2 0x58C8 JUMPI POP PUSH2 0x58D1 JUMP JUMPDEST POP PUSH1 0x1 ADD PUSH2 0x5862 JUMP JUMPDEST POP PUSH1 0x40 MLOAD PUSH4 0x901754D7 PUSH1 0xE0 SHL DUP2 MSTORE PUSH1 0x1 PUSH1 0x1 PUSH1 0xA0 SHL SUB DUP9 AND SWAP1 PUSH4 0x901754D7 SWAP1 PUSH2 0x5900 SWAP1 DUP10 SWAP1 DUP10 SWAP1 PUSH1 0x4 ADD PUSH2 0xC6AA JUMP JUMPDEST PUSH1 0x20 PUSH1 0x40 MLOAD DUP1 DUP4 SUB DUP2 DUP7 DUP1 EXTCODESIZE ISZERO DUP1 ISZERO PUSH2 0x5918 JUMPI PUSH1 0x0 DUP1 REVERT JUMPDEST POP GAS STATICCALL ISZERO DUP1 ISZERO PUSH2 0x592C JUMPI RETURNDATASIZE PUSH1 0x0 DUP1 RETURNDATACOPY RETURNDATASIZE PUSH1 0x0 REVERT JUMPDEST POP POP POP POP PUSH1 0x40 MLOAD RETURNDATASIZE PUSH1 0x1F NOT PUSH1 0x1F DUP3 ADD AND DUP3 ADD DUP1 PUSH1 0x40 MSTORE POP DUP2 ADD SWAP1 PUSH2 0x5950 SWAP2 SWAP1 PUSH2 0xB190 JUMP JUMPDEST SWAP3 POP POP SWAP5 POP SWAP5 SWAP3 POP POP POP JUMP JUMPDEST PUSH1 0x40 DUP1 MLOAD PUSH1 0x60 DUP2 DUP2 ADD SWAP1 SWAP3 MSTORE PUSH2 0x36E6 SWAP1 DUP1 PUSH2 0x597B DUP7 DUP10 PUSH1 0x80 DUP5 ADD PUSH2 0xC6AA JUMP JUMPDEST PUSH1 0x40 MLOAD PUSH1 0x20 DUP2 DUP4 SUB SUB DUP2 MSTORE SWAP1 PUSH1 0x40 MSTORE DUP2 MSTORE PUSH1 0x20 ADD DUP7 DUP9 PUSH1 0x40 MLOAD PUSH1 0x20 ADD PUSH2 0x59A2 SWAP3 SWAP2 SWAP1 PUSH2 0xC6AA JUMP JUMPDEST PUSH1 0x40 MLOAD PUSH1 0x20 DUP2 DUP4 SUB SUB DUP2 MSTORE SWAP1 PUSH1 0x40 MSTORE DUP2 MSTORE PUSH1 0x20 ADD PUSH2 0x95A9 DUP2 MSTORE POP DUP4 PUSH2 0x86D7 JUMP JUMPDEST PUSH1 0x60 DUP3 MLOAD PUSH1 0x1 PUSH1 0x1 PUSH1 0x40 SHL SUB DUP2 GT DUP1 ISZERO PUSH2 0x59DB JUMPI PUSH1 0x0 DUP1 REVERT JUMPDEST POP PUSH1 0x40 MLOAD SWAP1 DUP1 DUP3 MSTORE DUP1 PUSH1 0x20 MUL PUSH1 0x20 ADD DUP3 ADD PUSH1 0x40 MSTORE DUP1 ISZERO PUSH2 0x5A05 JUMPI DUP2 PUSH1 0x20 ADD PUSH1 0x20 DUP3 MUL DUP1 CALLDATASIZE DUP4 CALLDATACOPY ADD SWAP1 POP JUMPDEST POP SWAP1 POP PUSH1 0x0 JUMPDEST DUP4 MLOAD DUP2 EQ PUSH2 0x3953 JUMPI PUSH32 0x0 PUSH1 0x1 PUSH1 0x1 PUSH1 0xA0 SHL SUB AND DUP5 DUP3 DUP2 MLOAD DUP2 LT PUSH2 0x5A49 JUMPI INVALID JUMPDEST PUSH1 0x20 MUL PUSH1 0x20 ADD ADD MLOAD PUSH1 0x1 PUSH1 0x1 PUSH1 0xA0 SHL SUB AND EQ PUSH2 0x5A93 JUMPI PUSH2 0x5A8E DUP4 DUP6 DUP4 DUP2 MLOAD DUP2 LT PUSH2 0x5A6F JUMPI INVALID JUMPDEST PUSH1 0x20 MUL PUSH1 0x20 ADD ADD MLOAD PUSH1 0x1 PUSH1 0x1 PUSH1 0xA0 SHL SUB AND PUSH2 0x95F0 SWAP1 SWAP2 SWAP1 PUSH4 0xFFFFFFFF AND JUMP JUMPDEST PUSH2 0x5A9F JUMP JUMPDEST DUP3 PUSH1 0x1 PUSH1 0x1 PUSH1 0xA0 SHL SUB AND BALANCE JUMPDEST DUP3 DUP3 DUP2 MLOAD DUP2 LT PUSH2 0x5AAB JUMPI INVALID JUMPDEST PUSH1 0x20 SWAP1 DUP2 MUL SWAP2 SWAP1 SWAP2 ADD ADD MSTORE PUSH1 0x1 ADD PUSH2 0x5A0B JUMP JUMPDEST PUSH1 0x60 PUSH2 0x5ACA DUP4 DUP6 PUSH2 0x7995 JUMP JUMPDEST DUP2 MLOAD DUP1 PUSH1 0x1 PUSH1 0x1 PUSH1 0x40 SHL SUB DUP2 GT DUP1 ISZERO PUSH2 0x5AE2 JUMPI PUSH1 0x0 DUP1 REVERT JUMPDEST POP PUSH1 0x40 MLOAD SWAP1 DUP1 DUP3 MSTORE DUP1 PUSH1 0x20 MUL PUSH1 0x20 ADD DUP3 ADD PUSH1 0x40 MSTORE DUP1 ISZERO PUSH2 0x5B0C JUMPI DUP2 PUSH1 0x20 ADD PUSH1 0x20 DUP3 MUL DUP1 CALLDATASIZE DUP4 CALLDATACOPY ADD SWAP1 POP JUMPDEST POP SWAP2 POP PUSH1 0x0 PUSH1 0x1 PUSH1 0x1 PUSH1 0xA0 SHL SUB DUP7 AND ISZERO PUSH2 0x5B2F JUMPI PUSH2 0x5B2A DUP8 DUP8 PUSH2 0x7A66 JUMP JUMPDEST PUSH2 0x5B32 JUMP JUMPDEST PUSH1 0x0 JUMPDEST SWAP1 POP PUSH1 0x0 PUSH1 0x1 PUSH1 0x1 PUSH1 0xA0 SHL SUB DUP7 AND ISZERO PUSH2 0x5B54 JUMPI PUSH2 0x5B4F DUP9 DUP8 PUSH2 0x7A66 JUMP JUMPDEST PUSH2 0x5B57 JUMP JUMPDEST PUSH1 0x0 JUMPDEST SWAP1 POP PUSH1 0x0 JUMPDEST DUP4 DUP2 LT ISZERO PUSH2 0xE93 JUMPI PUSH1 0x1 PUSH1 0x1 PUSH1 0x1 PUSH1 0xA0 SHL SUB DUP9 AND PUSH2 0x5BAD JUMPI PUSH2 0x5B8C DUP5 PUSH4 0x95B68FE7 PUSH1 0xE0 SHL DUP10 DUP6 DUP2 MLOAD DUP2 LT PUSH2 0x1786 JUMPI INVALID JUMPDEST DUP8 DUP5 DUP2 MLOAD DUP2 LT PUSH2 0x5B98 JUMPI INVALID JUMPDEST PUSH1 0x20 MUL PUSH1 0x20 ADD ADD DUP2 SWAP4 POP DUP3 DUP2 MSTORE POP POP POP PUSH2 0x5C47 JUMP JUMPDEST PUSH1 0x1 PUSH1 0x1 PUSH1 0xA0 SHL SUB DUP10 AND PUSH2 0x5BD3 JUMPI PUSH2 0x5B8C DUP4 PUSH4 0xCD7724C3 PUSH1 0xE0 SHL DUP10 DUP6 DUP2 MLOAD DUP2 LT PUSH2 0x1786 JUMPI INVALID JUMPDEST PUSH1 0x0 PUSH2 0x5BED DUP6 PUSH4 0x95B68FE7 PUSH1 0xE0 SHL DUP11 DUP7 DUP2 MLOAD DUP2 LT PUSH2 0x1786 JUMPI INVALID JUMPDEST SWAP3 POP SWAP1 POP DUP1 ISZERO PUSH2 0x5C2A JUMPI PUSH2 0x5C09 DUP5 PUSH4 0xCD7724C3 PUSH1 0xE0 SHL DUP4 PUSH2 0x7AE5 JUMP JUMPDEST DUP9 DUP6 DUP2 MLOAD DUP2 LT PUSH2 0x5C15 JUMPI INVALID JUMPDEST PUSH1 0x20 MUL PUSH1 0x20 ADD ADD DUP2 SWAP5 POP DUP3 DUP2 MSTORE POP POP POP PUSH2 0x5C45 JUMP JUMPDEST PUSH1 0x0 DUP8 DUP5 DUP2 MLOAD DUP2 LT PUSH2 0x5C38 JUMPI INVALID JUMPDEST PUSH1 0x20 MUL PUSH1 0x20 ADD ADD DUP2 DUP2 MSTORE POP POP JUMPDEST POP JUMPDEST DUP1 ISZERO DUP1 PUSH2 0x5C67 JUMPI POP DUP6 DUP3 DUP2 MLOAD DUP2 LT PUSH2 0x5C5B JUMPI INVALID JUMPDEST PUSH1 0x20 MUL PUSH1 0x20 ADD ADD MLOAD PUSH1 0x0 EQ JUMPDEST ISZERO PUSH2 0x5C72 JUMPI POP PUSH2 0xE93 JUMP JUMPDEST POP PUSH1 0x1 ADD PUSH2 0x5B5C JUMP JUMPDEST DUP1 MLOAD PUSH1 0x60 SWAP1 DUP1 PUSH1 0x1 PUSH1 0x1 PUSH1 0x40 SHL SUB DUP2 GT DUP1 ISZERO PUSH2 0x5C96 JUMPI PUSH1 0x0 DUP1 REVERT JUMPDEST POP PUSH1 0x40 MLOAD SWAP1 DUP1 DUP3 MSTORE DUP1 PUSH1 0x20 MUL PUSH1 0x20 ADD DUP3 ADD PUSH1 0x40 MSTORE DUP1 ISZERO PUSH2 0x5CC0 JUMPI DUP2 PUSH1 0x20 ADD PUSH1 0x20 DUP3 MUL DUP1 CALLDATASIZE DUP4 CALLDATACOPY ADD SWAP1 POP JUMPDEST POP SWAP2 POP PUSH1 0x0 JUMPDEST DUP2 DUP2 LT ISZERO PUSH2 0x22FD JUMPI DUP6 PUSH1 0x1 PUSH1 0x1 PUSH1 0xA0 SHL SUB AND PUSH4 0x1F00CA74 PUSH3 0x249F0 DUP7 DUP5 DUP2 MLOAD DUP2 LT PUSH2 0x5CED JUMPI INVALID JUMPDEST PUSH1 0x20 MUL PUSH1 0x20 ADD ADD MLOAD DUP9 PUSH1 0x40 MLOAD DUP5 PUSH4 0xFFFFFFFF AND PUSH1 0xE0 SHL DUP2 MSTORE PUSH1 0x4 ADD PUSH2 0x5D13 SWAP3 SWAP2 SWAP1 PUSH2 0xCC0D JUMP JUMPDEST PUSH1 0x0 PUSH1 0x40 MLOAD DUP1 DUP4 SUB DUP2 DUP8 DUP1 EXTCODESIZE ISZERO DUP1 ISZERO PUSH2 0x5D2B JUMPI PUSH1 0x0 DUP1 REVERT JUMPDEST POP DUP7 STATICCALL SWAP4 POP POP POP POP DUP1 ISZERO PUSH2 0x5D61 JUMPI POP PUSH1 0x40 MLOAD RETURNDATASIZE PUSH1 0x0 DUP3 RETURNDATACOPY PUSH1 0x1F RETURNDATASIZE SWAP1 DUP2 ADD PUSH1 0x1F NOT AND DUP3 ADD PUSH1 0x40 MSTORE PUSH2 0x5D5E SWAP2 SWAP1 DUP2 ADD SWAP1 PUSH2 0xB87F JUMP JUMPDEST PUSH1 0x1 JUMPDEST PUSH2 0x5D8F JUMPI RETURNDATASIZE DUP1 DUP1 ISZERO PUSH2 0x2296 JUMPI PUSH1 0x40 MLOAD SWAP2 POP PUSH1 0x1F NOT PUSH1 0x3F RETURNDATASIZE ADD AND DUP3 ADD PUSH1 0x40 MSTORE RETURNDATASIZE DUP3 MSTORE RETURNDATASIZE PUSH1 0x0 PUSH1 0x20 DUP5 ADD RETURNDATACOPY PUSH2 0x229B JUMP JUMPDEST DUP1 PUSH1 0x0 DUP2 MLOAD DUP2 LT PUSH2 0x5D9C JUMPI INVALID JUMPDEST PUSH1 0x20 MUL PUSH1 0x20 ADD ADD MLOAD DUP5 DUP4 DUP2 MLOAD DUP2 LT PUSH2 0x5DB0 JUMPI INVALID JUMPDEST PUSH1 0x20 MUL PUSH1 0x20 ADD ADD DUP2 DUP2 MSTORE POP POP DUP4 DUP3 DUP2 MLOAD DUP2 LT PUSH2 0x5DC8 JUMPI INVALID JUMPDEST PUSH1 0x20 MUL PUSH1 0x20 ADD ADD MLOAD PUSH1 0x0 EQ ISZERO PUSH2 0x5DDE JUMPI POP PUSH2 0x22FD JUMP JUMPDEST POP PUSH1 0x1 ADD PUSH2 0x5CC6 JUMP JUMPDEST PUSH1 0x0 PUSH1 0x60 PUSH2 0x5DF4 DUP7 PUSH2 0x7FC0 JUMP JUMPDEST DUP4 MLOAD SWAP1 SWAP3 POP DUP1 PUSH1 0x1 PUSH1 0x1 PUSH1 0x40 SHL SUB DUP2 GT DUP1 ISZERO PUSH2 0x5E0F JUMPI PUSH1 0x0 DUP1 REVERT JUMPDEST POP PUSH1 0x40 MLOAD SWAP1 DUP1 DUP3 MSTORE DUP1 PUSH1 0x20 MUL PUSH1 0x20 ADD DUP3 ADD PUSH1 0x40 MSTORE DUP1 ISZERO PUSH2 0x5E39 JUMPI DUP2 PUSH1 0x20 ADD PUSH1 0x20 DUP3 MUL DUP1 CALLDATASIZE DUP4 CALLDATACOPY ADD SWAP1 POP JUMPDEST POP SWAP2 POP DUP1 PUSH2 0x5E47 JUMPI POP PUSH2 0x5EF3 JUMP JUMPDEST PUSH2 0x5E67 DUP8 DUP6 PUSH1 0x0 DUP2 MLOAD DUP2 LT PUSH2 0x5E58 JUMPI INVALID JUMPDEST PUSH1 0x20 MUL PUSH1 0x20 ADD ADD MLOAD DUP9 DUP9 PUSH2 0x80AC JUMP JUMPDEST DUP3 PUSH1 0x0 DUP2 MLOAD DUP2 LT PUSH2 0x5E74 JUMPI INVALID JUMPDEST PUSH1 0x20 SWAP1 DUP2 MUL SWAP2 SWAP1 SWAP2 ADD ADD MSTORE PUSH1 0x1 JUMPDEST DUP2 DUP2 LT ISZERO PUSH2 0x5EF0 JUMPI DUP5 PUSH1 0x0 DUP2 MLOAD DUP2 LT PUSH2 0x5E97 JUMPI INVALID JUMPDEST PUSH1 0x20 MUL PUSH1 0x20 ADD ADD MLOAD DUP6 DUP3 DUP2 MLOAD DUP2 LT PUSH2 0x5EAB JUMPI INVALID JUMPDEST PUSH1 0x20 MUL PUSH1 0x20 ADD ADD MLOAD DUP5 PUSH1 0x0 DUP2 MLOAD DUP2 LT PUSH2 0x5EC0 JUMPI INVALID JUMPDEST PUSH1 0x20 MUL PUSH1 0x20 ADD ADD MLOAD MUL DUP2 PUSH2 0x5ED0 JUMPI INVALID JUMPDEST DIV DUP4 DUP3 DUP2 MLOAD DUP2 LT PUSH2 0x5EDD JUMPI INVALID JUMPDEST PUSH1 0x20 SWAP1 DUP2 MUL SWAP2 SWAP1 SWAP2 ADD ADD MSTORE PUSH1 0x1 ADD PUSH2 0x5E82 JUMP JUMPDEST POP POP JUMPDEST SWAP5 POP SWAP5 SWAP3 POP POP POP JUMP JUMPDEST DUP1 MLOAD PUSH1 0x60 SWAP1 DUP1 PUSH1 0x1 PUSH1 0x1 PUSH1 0x40 SHL SUB DUP2 GT DUP1 ISZERO PUSH2 0x5F17 JUMPI PUSH1 0x0 DUP1 REVERT JUMPDEST POP PUSH1 0x40 MLOAD SWAP1 DUP1 DUP3 MSTORE DUP1 PUSH1 0x20 MUL PUSH1 0x20 ADD DUP3 ADD PUSH1 0x40 MSTORE DUP1 ISZERO PUSH2 0x5F41 JUMPI DUP2 PUSH1 0x20 ADD PUSH1 0x20 DUP3 MUL DUP1 CALLDATASIZE DUP4 CALLDATACOPY ADD SWAP1 POP JUMPDEST POP SWAP2 POP PUSH2 0x5F4C PUSH2 0xA578 JUMP JUMPDEST PUSH2 0x5F54 PUSH2 0x7966 JUMP JUMPDEST SWAP1 POP PUSH1 0x0 JUMPDEST DUP3 DUP2 LT ISZERO PUSH2 0xE95 JUMPI DUP5 DUP2 DUP2 MLOAD DUP2 LT PUSH2 0x5F6D JUMPI INVALID JUMPDEST PUSH1 0x20 MUL PUSH1 0x20 ADD ADD MLOAD DUP8 PUSH1 0x0 DUP2 MLOAD DUP2 LT PUSH2 0x5F82 JUMPI INVALID JUMPDEST PUSH1 0x20 SWAP1 DUP2 MUL SWAP2 SWAP1 SWAP2 ADD ADD MLOAD PUSH1 0x60 ADD MSTORE PUSH1 0x40 MLOAD PUSH4 0x7C268337 PUSH1 0xE1 SHL DUP2 MSTORE PUSH1 0x1 PUSH1 0x1 PUSH1 0xA0 SHL SUB DUP10 AND SWAP1 PUSH4 0xF84D066E SWAP1 PUSH2 0x5FC4 SWAP1 PUSH1 0x0 SWAP1 DUP12 SWAP1 DUP12 SWAP1 DUP9 SWAP1 PUSH1 0x4 ADD PUSH2 0xCA95 JUMP JUMPDEST PUSH1 0x0 PUSH1 0x40 MLOAD DUP1 DUP4 SUB DUP2 PUSH1 0x0 DUP8 DUP1 EXTCODESIZE ISZERO DUP1 ISZERO PUSH2 0x5FDE JUMPI PUSH1 0x0 DUP1 REVERT JUMPDEST POP GAS CALL SWAP3 POP POP POP DUP1 ISZERO PUSH2 0x6013 JUMPI POP PUSH1 0x40 MLOAD RETURNDATASIZE PUSH1 0x0 DUP3 RETURNDATACOPY PUSH1 0x1F RETURNDATASIZE SWAP1 DUP2 ADD PUSH1 0x1F NOT AND DUP3 ADD PUSH1 0x40 MSTORE PUSH2 0x6010 SWAP2 SWAP1 DUP2 ADD SWAP1 PUSH2 0xB7DB JUMP JUMPDEST PUSH1 0x1 JUMPDEST PUSH2 0x601C JUMPI PUSH2 0xE95 JUMP JUMPDEST PUSH1 0x0 DUP2 PUSH1 0x1 DUP4 MLOAD SUB DUP2 MLOAD DUP2 LT PUSH2 0x602E JUMPI INVALID JUMPDEST PUSH1 0x20 MUL PUSH1 0x20 ADD ADD MLOAD PUSH1 0x0 NOT MUL SWAP1 POP PUSH1 0x0 DUP2 SGT PUSH2 0x604B JUMPI POP POP PUSH2 0xE95 JUMP JUMPDEST DUP1 DUP7 DUP5 DUP2 MLOAD DUP2 LT PUSH2 0x6058 JUMPI INVALID JUMPDEST PUSH1 0x20 MUL PUSH1 0x20 ADD ADD DUP2 DUP2 MSTORE POP POP POP POP PUSH1 0x1 ADD PUSH2 0x5F59 JUMP JUMPDEST PUSH1 0x0 DUP1 PUSH1 0x60 PUSH2 0x607D DUP6 DUP8 PUSH2 0x7995 JUMP JUMPDEST DUP4 MLOAD DUP1 PUSH1 0x1 PUSH1 0x1 PUSH1 0x40 SHL SUB DUP2 GT DUP1 ISZERO PUSH2 0x6095 JUMPI PUSH1 0x0 DUP1 REVERT JUMPDEST POP PUSH1 0x40 MLOAD SWAP1 DUP1 DUP3 MSTORE DUP1 PUSH1 0x20 MUL PUSH1 0x20 ADD DUP3 ADD PUSH1 0x40 MSTORE DUP1 ISZERO PUSH2 0x60BF JUMPI DUP2 PUSH1 0x20 ADD PUSH1 0x20 DUP3 MUL DUP1 CALLDATASIZE DUP4 CALLDATACOPY ADD SWAP1 POP JUMPDEST POP SWAP2 POP PUSH2 0x60CE DUP10 DUP10 DUP10 DUP10 PUSH2 0x924D JUMP JUMPDEST SWAP5 POP SWAP3 POP PUSH1 0x1 PUSH1 0x1 PUSH1 0xA0 SHL SUB DUP4 AND PUSH2 0x60E6 JUMPI POP PUSH2 0x5415 JUMP JUMPDEST PUSH1 0x40 DUP1 MLOAD PUSH1 0x60 DUP2 ADD SWAP1 SWAP2 MSTORE PUSH2 0x614F SWAP1 DUP1 PUSH2 0x6106 DUP10 DUP8 DUP10 ISZERO PUSH1 0x80 DUP6 ADD PUSH2 0xC7A2 JUMP JUMPDEST PUSH1 0x40 MLOAD PUSH1 0x20 DUP2 DUP4 SUB SUB DUP2 MSTORE SWAP1 PUSH1 0x40 MSTORE DUP2 MSTORE PUSH1 0x20 ADD DUP10 DUP7 DUP9 PUSH1 0x40 MLOAD PUSH1 0x20 ADD PUSH2 0x612F SWAP4 SWAP3 SWAP2 SWAP1 PUSH2 0xC7A2 JUMP JUMPDEST PUSH1 0x40 MLOAD PUSH1 0x20 DUP2 DUP4 SUB SUB DUP2 MSTORE SWAP1 PUSH1 0x40 MSTORE DUP2 MSTORE PUSH1 0x20 ADD PUSH2 0x93A2 DUP2 MSTORE POP DUP7 PUSH2 0x86D7 JUMP JUMPDEST SWAP2 POP POP SWAP6 POP SWAP6 POP SWAP6 SWAP3 POP POP POP JUMP JUMPDEST DUP1 MLOAD PUSH1 0x60 SWAP1 DUP2 SWAP1 DUP1 PUSH1 0x1 PUSH1 0x1 PUSH1 0x40 SHL SUB DUP2 GT DUP1 ISZERO PUSH2 0x617A JUMPI PUSH1 0x0 DUP1 REVERT JUMPDEST POP PUSH1 0x40 MLOAD SWAP1 DUP1 DUP3 MSTORE DUP1 PUSH1 0x20 MUL PUSH1 0x20 ADD DUP3 ADD PUSH1 0x40 MSTORE DUP1 ISZERO PUSH2 0x61A4 JUMPI DUP2 PUSH1 0x20 ADD PUSH1 0x20 DUP3 MUL DUP1 CALLDATASIZE DUP4 CALLDATACOPY ADD SWAP1 POP JUMPDEST POP SWAP2 POP DUP1 PUSH1 0x1 PUSH1 0x1 PUSH1 0x40 SHL SUB DUP2 GT DUP1 ISZERO PUSH2 0x61BD JUMPI PUSH1 0x0 DUP1 REVERT JUMPDEST POP PUSH1 0x40 MLOAD SWAP1 DUP1 DUP3 MSTORE DUP1 PUSH1 0x20 MUL PUSH1 0x20 ADD DUP3 ADD PUSH1 0x40 MSTORE DUP1 ISZERO PUSH2 0x61E7 JUMPI DUP2 PUSH1 0x20 ADD PUSH1 0x20 DUP3 MUL DUP1 CALLDATASIZE DUP4 CALLDATACOPY ADD SWAP1 POP JUMPDEST POP SWAP3 POP DUP8 PUSH1 0x1 PUSH1 0x1 PUSH1 0xA0 SHL SUB AND DUP7 PUSH1 0x1 PUSH1 0x1 PUSH1 0xA0 SHL SUB AND EQ DUP1 ISZERO PUSH2 0x621C JUMPI POP DUP7 PUSH1 0x1 PUSH1 0x1 PUSH1 0xA0 SHL SUB AND DUP6 PUSH1 0x1 PUSH1 0x1 PUSH1 0xA0 SHL SUB AND EQ JUMPDEST DUP1 PUSH2 0x6254 JUMPI POP DUP7 PUSH1 0x1 PUSH1 0x1 PUSH1 0xA0 SHL SUB AND DUP7 PUSH1 0x1 PUSH1 0x1 PUSH1 0xA0 SHL SUB AND EQ DUP1 ISZERO PUSH2 0x6254 JUMPI POP DUP8 PUSH1 0x1 PUSH1 0x1 PUSH1 0xA0 SHL SUB AND DUP6 PUSH1 0x1 PUSH1 0x1 PUSH1 0xA0 SHL SUB AND EQ JUMPDEST ISZERO PUSH2 0x6416 JUMPI DUP4 SWAP2 POP PUSH1 0x1 PUSH1 0x1 PUSH1 0xA0 SHL SUB DUP10 AND PUSH2 0x6270 JUMPI POP PUSH2 0x6418 JUMP JUMPDEST DUP9 PUSH1 0x0 JUMPDEST DUP3 DUP2 LT ISZERO PUSH2 0x6413 JUMPI DUP10 PUSH1 0x1 PUSH1 0x1 PUSH1 0xA0 SHL SUB AND DUP8 PUSH1 0x1 PUSH1 0x1 PUSH1 0xA0 SHL SUB AND EQ ISZERO PUSH2 0x6347 JUMPI DUP2 PUSH1 0x1 PUSH1 0x1 PUSH1 0xA0 SHL SUB AND PUSH4 0xB76398E4 DUP10 DUP9 DUP5 DUP2 MLOAD DUP2 LT PUSH2 0x62B2 JUMPI INVALID JUMPDEST PUSH1 0x20 MUL PUSH1 0x20 ADD ADD MLOAD PUSH1 0x0 PUSH1 0x40 MLOAD DUP5 PUSH4 0xFFFFFFFF AND PUSH1 0xE0 SHL DUP2 MSTORE PUSH1 0x4 ADD PUSH2 0x62DA SWAP4 SWAP3 SWAP2 SWAP1 PUSH2 0xC89C JUMP JUMPDEST PUSH1 0x20 PUSH1 0x40 MLOAD DUP1 DUP4 SUB DUP2 DUP7 DUP1 EXTCODESIZE ISZERO DUP1 ISZERO PUSH2 0x62F2 JUMPI PUSH1 0x0 DUP1 REVERT JUMPDEST POP GAS STATICCALL ISZERO DUP1 ISZERO PUSH2 0x6306 JUMPI RETURNDATASIZE PUSH1 0x0 DUP1 RETURNDATACOPY RETURNDATASIZE PUSH1 0x0 REVERT JUMPDEST POP POP POP POP PUSH1 0x40 MLOAD RETURNDATASIZE PUSH1 0x1F NOT PUSH1 0x1F DUP3 ADD AND DUP3 ADD DUP1 PUSH1 0x40 MSTORE POP DUP2 ADD SWAP1 PUSH2 0x632A SWAP2 SWAP1 PUSH2 0xB92E JUMP JUMPDEST DUP6 DUP3 DUP2 MLOAD DUP2 LT PUSH2 0x6336 JUMPI INVALID JUMPDEST PUSH1 0x20 MUL PUSH1 0x20 ADD ADD DUP2 DUP2 MSTORE POP POP PUSH2 0x640B JUMP JUMPDEST DUP10 PUSH1 0x1 PUSH1 0x1 PUSH1 0xA0 SHL SUB AND DUP9 PUSH1 0x1 PUSH1 0x1 PUSH1 0xA0 SHL SUB AND EQ ISZERO PUSH2 0x640B JUMPI DUP2 PUSH1 0x1 PUSH1 0x1 PUSH1 0xA0 SHL SUB AND PUSH4 0x5CC7BC10 DUP9 DUP9 DUP5 DUP2 MLOAD DUP2 LT PUSH2 0x637D JUMPI INVALID JUMPDEST PUSH1 0x20 MUL PUSH1 0x20 ADD ADD MLOAD PUSH1 0x40 MLOAD DUP4 PUSH4 0xFFFFFFFF AND PUSH1 0xE0 SHL DUP2 MSTORE PUSH1 0x4 ADD PUSH2 0x63A2 SWAP3 SWAP2 SWAP1 PUSH2 0xC88E JUMP JUMPDEST PUSH1 0x20 PUSH1 0x40 MLOAD DUP1 DUP4 SUB DUP2 DUP7 DUP1 EXTCODESIZE ISZERO DUP1 ISZERO PUSH2 0x63BA JUMPI PUSH1 0x0 DUP1 REVERT JUMPDEST POP GAS STATICCALL ISZERO DUP1 ISZERO PUSH2 0x63CE JUMPI RETURNDATASIZE PUSH1 0x0 DUP1 RETURNDATACOPY RETURNDATASIZE PUSH1 0x0 REVERT JUMPDEST POP POP POP POP PUSH1 0x40 MLOAD RETURNDATASIZE PUSH1 0x1F NOT PUSH1 0x1F DUP3 ADD AND DUP3 ADD DUP1 PUSH1 0x40 MSTORE POP DUP2 ADD SWAP1 PUSH2 0x63F2 SWAP2 SWAP1 PUSH2 0xB92E JUMP JUMPDEST DUP6 DUP3 DUP2 MLOAD DUP2 LT PUSH2 0x63FE JUMPI INVALID JUMPDEST PUSH1 0x20 MUL PUSH1 0x20 ADD ADD DUP2 DUP2 MSTORE POP POP JUMPDEST PUSH1 0x1 ADD PUSH2 0x6274 JUMP JUMPDEST POP POP JUMPDEST POP JUMPDEST SWAP7 POP SWAP7 SWAP5 POP POP POP POP POP JUMP JUMPDEST PUSH1 0x0 DUP1 PUSH1 0x60 PUSH2 0x6432 DUP6 DUP8 PUSH2 0x7995 JUMP JUMPDEST DUP4 MLOAD DUP1 PUSH1 0x1 PUSH1 0x1 PUSH1 0x40 SHL SUB DUP2 GT DUP1 ISZERO PUSH2 0x644A JUMPI PUSH1 0x0 DUP1 REVERT JUMPDEST POP PUSH1 0x40 MLOAD SWAP1 DUP1 DUP3 MSTORE DUP1 PUSH1 0x20 MUL PUSH1 0x20 ADD DUP3 ADD PUSH1 0x40 MSTORE DUP1 ISZERO PUSH2 0x6474 JUMPI DUP2 PUSH1 0x20 ADD PUSH1 0x20 DUP3 MUL DUP1 CALLDATASIZE DUP4 CALLDATACOPY ADD SWAP1 POP JUMPDEST POP DUP9 MLOAD PUSH1 0x40 MLOAD PUSH4 0x939D863 PUSH1 0xE1 SHL DUP2 MSTORE SWAP2 SWAP4 POP PUSH1 0x1 PUSH1 0x1 PUSH1 0xA0 SHL SUB AND SWAP1 PUSH4 0x1273B0C6 SWAP1 PUSH2 0x64A7 SWAP1 DUP11 SWAP1 DUP11 SWAP1 PUSH1 0x4 ADD PUSH2 0xC6AA JUMP JUMPDEST PUSH1 0x20 PUSH1 0x40 MLOAD DUP1 DUP4 SUB DUP2 DUP7 DUP1 EXTCODESIZE ISZERO DUP1 ISZERO PUSH2 0x64BF JUMPI PUSH1 0x0 DUP1 REVERT JUMPDEST POP GAS STATICCALL ISZERO DUP1 ISZERO PUSH2 0x64D3 JUMPI RETURNDATASIZE PUSH1 0x0 DUP1 RETURNDATACOPY RETURNDATASIZE PUSH1 0x0 REVERT JUMPDEST POP POP POP POP PUSH1 0x40 MLOAD RETURNDATASIZE PUSH1 0x1F NOT PUSH1 0x1F DUP3 ADD AND DUP3 ADD DUP1 PUSH1 0x40 MSTORE POP DUP2 ADD SWAP1 PUSH2 0x64F7 SWAP2 SWAP1 PUSH2 0xB190 JUMP JUMPDEST SWAP3 POP PUSH1 0x0 PUSH1 0x1 PUSH1 0x1 PUSH1 0xA0 SHL SUB DUP5 AND ISZERO PUSH2 0x6515 JUMPI POP PUSH1 0x1 SWAP4 POP DUP7 PUSH2 0x65B4 JUMP JUMPDEST DUP9 MLOAD PUSH1 0x40 MLOAD PUSH4 0x939D863 PUSH1 0xE1 SHL DUP2 MSTORE PUSH1 0x1 PUSH1 0x1 PUSH1 0xA0 SHL SUB SWAP1 SWAP2 AND SWAP1 PUSH4 0x1273B0C6 SWAP1 PUSH2 0x6546 SWAP1 DUP11 SWAP1 DUP13 SWAP1 PUSH1 0x4 ADD PUSH2 0xC6AA JUMP JUMPDEST PUSH1 0x20 PUSH1 0x40 MLOAD DUP1 DUP4 SUB DUP2 DUP7 DUP1 EXTCODESIZE ISZERO DUP1 ISZERO PUSH2 0x655E JUMPI PUSH1 0x0 DUP1 REVERT JUMPDEST POP GAS STATICCALL ISZERO DUP1 ISZERO PUSH2 0x6572 JUMPI RETURNDATASIZE PUSH1 0x0 DUP1 RETURNDATACOPY RETURNDATASIZE PUSH1 0x0 REVERT JUMPDEST POP POP POP POP PUSH1 0x40 MLOAD RETURNDATASIZE PUSH1 0x1F NOT PUSH1 0x1F DUP3 ADD AND DUP3 ADD DUP1 PUSH1 0x40 MSTORE POP DUP2 ADD SWAP1 PUSH2 0x6596 SWAP2 SWAP1 PUSH2 0xB190 JUMP JUMPDEST SWAP4 POP PUSH1 0x1 PUSH1 0x1 PUSH1 0xA0 SHL SUB DUP5 AND PUSH2 0x65AD JUMPI POP POP PUSH2 0x130F JUMP JUMPDEST POP PUSH1 0x0 SWAP4 POP DUP6 JUMPDEST DUP4 PUSH1 0x1 PUSH1 0x1 PUSH1 0xA0 SHL SUB AND PUSH4 0xDD58B41C PUSH1 0x40 MLOAD DUP2 PUSH4 0xFFFFFFFF AND PUSH1 0xE0 SHL DUP2 MSTORE PUSH1 0x4 ADD PUSH1 0x20 PUSH1 0x40 MLOAD DUP1 DUP4 SUB DUP2 DUP7 DUP1 EXTCODESIZE ISZERO DUP1 ISZERO PUSH2 0x65ED JUMPI PUSH1 0x0 DUP1 REVERT JUMPDEST POP GAS STATICCALL ISZERO DUP1 ISZERO PUSH2 0x6601 JUMPI RETURNDATASIZE PUSH1 0x0 DUP1 RETURNDATACOPY RETURNDATASIZE PUSH1 0x0 REVERT JUMPDEST POP POP POP POP PUSH1 0x40 MLOAD RETURNDATASIZE PUSH1 0x1F NOT PUSH1 0x1F DUP3 ADD AND DUP3 ADD DUP1 PUSH1 0x40 MSTORE POP DUP2 ADD SWAP1 PUSH2 0x6625 SWAP2 SWAP1 PUSH2 0xB910 JUMP JUMPDEST PUSH2 0x6630 JUMPI POP POP PUSH2 0x130F JUMP JUMPDEST PUSH2 0x66A8 PUSH1 0x40 MLOAD DUP1 PUSH1 0x60 ADD PUSH1 0x40 MSTORE DUP1 DUP10 DUP8 DUP6 DUP15 PUSH1 0x20 ADD MLOAD PUSH1 0x40 MLOAD PUSH1 0x20 ADD PUSH2 0x6659 SWAP5 SWAP4 SWAP3 SWAP2 SWAP1 PUSH2 0xC6C5 JUMP JUMPDEST PUSH1 0x40 MLOAD PUSH1 0x20 DUP2 DUP4 SUB SUB DUP2 MSTORE SWAP1 PUSH1 0x40 MSTORE DUP2 MSTORE PUSH1 0x20 ADD DUP11 DUP8 DUP6 DUP15 PUSH1 0x20 ADD MLOAD PUSH1 0x40 MLOAD PUSH1 0x20 ADD PUSH2 0x6688 SWAP5 SWAP4 SWAP3 SWAP2 SWAP1 PUSH2 0xC6C5 JUMP JUMPDEST PUSH1 0x40 MLOAD PUSH1 0x20 DUP2 DUP4 SUB SUB DUP2 MSTORE SWAP1 PUSH1 0x40 MSTORE DUP2 MSTORE PUSH1 0x20 ADD PUSH2 0x7E87 DUP2 MSTORE POP DUP8 PUSH2 0x86D7 JUMP JUMPDEST SWAP3 POP POP POP SWAP5 POP SWAP5 POP SWAP5 SWAP2 POP POP JUMP JUMPDEST DUP1 MLOAD PUSH1 0x60 SWAP1 DUP2 SWAP1 DUP1 PUSH1 0x1 PUSH1 0x1 PUSH1 0x40 SHL SUB DUP2 GT DUP1 ISZERO PUSH2 0x66D3 JUMPI PUSH1 0x0 DUP1 REVERT JUMPDEST POP PUSH1 0x40 MLOAD SWAP1 DUP1 DUP3 MSTORE DUP1 PUSH1 0x20 MUL PUSH1 0x20 ADD DUP3 ADD PUSH1 0x40 MSTORE DUP1 ISZERO PUSH2 0x66FD JUMPI DUP2 PUSH1 0x20 ADD PUSH1 0x20 DUP3 MUL DUP1 CALLDATASIZE DUP4 CALLDATACOPY ADD SWAP1 POP JUMPDEST POP SWAP2 POP DUP1 PUSH1 0x1 PUSH1 0x1 PUSH1 0x40 SHL SUB DUP2 GT DUP1 ISZERO PUSH2 0x6716 JUMPI PUSH1 0x0 DUP1 REVERT JUMPDEST POP PUSH1 0x40 MLOAD SWAP1 DUP1 DUP3 MSTORE DUP1 PUSH1 0x20 MUL PUSH1 0x20 ADD DUP3 ADD PUSH1 0x40 MSTORE DUP1 ISZERO PUSH2 0x6740 JUMPI DUP2 PUSH1 0x20 ADD PUSH1 0x20 DUP3 MUL DUP1 CALLDATASIZE DUP4 CALLDATACOPY ADD SWAP1 POP JUMPDEST POP SWAP3 POP DUP8 PUSH1 0x1 PUSH1 0x1 PUSH1 0xA0 SHL SUB AND DUP7 PUSH1 0x1 PUSH1 0x1 PUSH1 0xA0 SHL SUB AND EQ DUP1 ISZERO PUSH2 0x6775 JUMPI POP DUP7 PUSH1 0x1 PUSH1 0x1 PUSH1 0xA0 SHL SUB AND DUP6 PUSH1 0x1 PUSH1 0x1 PUSH1 0xA0 SHL SUB AND EQ JUMPDEST DUP1 PUSH2 0x67AD JUMPI POP DUP7 PUSH1 0x1 PUSH1 0x1 PUSH1 0xA0 SHL SUB AND DUP7 PUSH1 0x1 PUSH1 0x1 PUSH1 0xA0 SHL SUB AND EQ DUP1 ISZERO PUSH2 0x67AD JUMPI POP DUP8 PUSH1 0x1 PUSH1 0x1 PUSH1 0xA0 SHL SUB AND DUP6 PUSH1 0x1 PUSH1 0x1 PUSH1 0xA0 SHL SUB AND EQ JUMPDEST ISZERO PUSH2 0x6416 JUMPI DUP4 SWAP2 POP PUSH1 0x1 PUSH1 0x1 PUSH1 0xA0 SHL SUB DUP10 AND PUSH2 0x67C9 JUMPI POP PUSH2 0x6418 JUMP JUMPDEST DUP9 PUSH1 0x0 JUMPDEST DUP3 DUP2 LT ISZERO PUSH2 0x6413 JUMPI DUP10 PUSH1 0x1 PUSH1 0x1 PUSH1 0xA0 SHL SUB AND DUP8 PUSH1 0x1 PUSH1 0x1 PUSH1 0xA0 SHL SUB AND EQ ISZERO PUSH2 0x68A0 JUMPI DUP2 PUSH1 0x1 PUSH1 0x1 PUSH1 0xA0 SHL SUB AND PUSH4 0xB76398E4 DUP10 DUP7 DUP5 DUP2 MLOAD DUP2 LT PUSH2 0x680B JUMPI INVALID JUMPDEST PUSH1 0x20 MUL PUSH1 0x20 ADD ADD MLOAD PUSH1 0x0 PUSH1 0x40 MLOAD DUP5 PUSH4 0xFFFFFFFF AND PUSH1 0xE0 SHL DUP2 MSTORE PUSH1 0x4 ADD PUSH2 0x6833 SWAP4 SWAP3 SWAP2 SWAP1 PUSH2 0xC89C JUMP JUMPDEST PUSH1 0x20 PUSH1 0x40 MLOAD DUP1 DUP4 SUB DUP2 DUP7 DUP1 EXTCODESIZE ISZERO DUP1 ISZERO PUSH2 0x684B JUMPI PUSH1 0x0 DUP1 REVERT JUMPDEST POP GAS STATICCALL ISZERO DUP1 ISZERO PUSH2 0x685F JUMPI RETURNDATASIZE PUSH1 0x0 DUP1 RETURNDATACOPY RETURNDATASIZE PUSH1 0x0 REVERT JUMPDEST POP POP POP POP PUSH1 0x40 MLOAD RETURNDATASIZE PUSH1 0x1F NOT PUSH1 0x1F DUP3 ADD AND DUP3 ADD DUP1 PUSH1 0x40 MSTORE POP DUP2 ADD SWAP1 PUSH2 0x6883 SWAP2 SWAP1 PUSH2 0xB92E JUMP JUMPDEST DUP6 DUP3 DUP2 MLOAD DUP2 LT PUSH2 0x688F JUMPI INVALID JUMPDEST PUSH1 0x20 MUL PUSH1 0x20 ADD ADD DUP2 DUP2 MSTORE POP POP PUSH2 0x6964 JUMP JUMPDEST DUP10 PUSH1 0x1 PUSH1 0x1 PUSH1 0xA0 SHL SUB AND DUP9 PUSH1 0x1 PUSH1 0x1 PUSH1 0xA0 SHL SUB AND EQ ISZERO PUSH2 0x6964 JUMPI DUP2 PUSH1 0x1 PUSH1 0x1 PUSH1 0xA0 SHL SUB AND PUSH4 0x5CC7BC10 DUP9 DUP7 DUP5 DUP2 MLOAD DUP2 LT PUSH2 0x68D6 JUMPI INVALID JUMPDEST PUSH1 0x20 MUL PUSH1 0x20 ADD ADD MLOAD PUSH1 0x40 MLOAD DUP4 PUSH4 0xFFFFFFFF AND PUSH1 0xE0 SHL DUP2 MSTORE PUSH1 0x4 ADD PUSH2 0x68FB SWAP3 SWAP2 SWAP1 PUSH2 0xC88E JUMP JUMPDEST PUSH1 0x20 PUSH1 0x40 MLOAD DUP1 DUP4 SUB DUP2 DUP7 DUP1 EXTCODESIZE ISZERO DUP1 ISZERO PUSH2 0x6913 JUMPI PUSH1 0x0 DUP1 REVERT JUMPDEST POP GAS STATICCALL ISZERO DUP1 ISZERO PUSH2 0x6927 JUMPI RETURNDATASIZE PUSH1 0x0 DUP1 RETURNDATACOPY RETURNDATASIZE PUSH1 0x0 REVERT JUMPDEST POP POP POP POP PUSH1 0x40 MLOAD RETURNDATASIZE PUSH1 0x1F NOT PUSH1 0x1F DUP3 ADD AND DUP3 ADD DUP1 PUSH1 0x40 MSTORE POP DUP2 ADD SWAP1 PUSH2 0x694B SWAP2 SWAP1 PUSH2 0xB92E JUMP JUMPDEST DUP6 DUP3 DUP2 MLOAD DUP2 LT PUSH2 0x6957 JUMPI INVALID JUMPDEST PUSH1 0x20 MUL PUSH1 0x20 ADD ADD DUP2 DUP2 MSTORE POP POP JUMPDEST PUSH1 0x1 ADD PUSH2 0x67CD JUMP JUMPDEST DUP1 MLOAD PUSH1 0x40 DUP1 MLOAD PUSH1 0x60 DUP2 DUP2 ADD SWAP1 SWAP3 MSTORE SWAP1 SWAP2 SWAP1 PUSH2 0x4150 SWAP1 DUP1 PUSH2 0x6991 DUP10 DUP9 DUP11 PUSH1 0x80 DUP6 ADD PUSH2 0xC9E6 JUMP JUMPDEST PUSH1 0x40 MLOAD PUSH1 0x20 DUP2 DUP4 SUB SUB DUP2 MSTORE SWAP1 PUSH1 0x40 MSTORE DUP2 MSTORE PUSH1 0x20 ADD DUP9 DUP9 DUP9 PUSH1 0x40 MLOAD PUSH1 0x20 ADD PUSH2 0x69BA SWAP4 SWAP3 SWAP2 SWAP1 PUSH2 0xC9E6 JUMP JUMPDEST PUSH1 0x40 MLOAD PUSH1 0x20 DUP2 DUP4 SUB SUB DUP2 MSTORE SWAP1 PUSH1 0x40 MSTORE DUP2 MSTORE PUSH1 0x20 ADD PUSH2 0x96BA DUP2 MSTORE POP DUP5 PUSH2 0x86D7 JUMP JUMPDEST PUSH1 0x60 DUP4 MLOAD PUSH1 0x1 PUSH1 0x1 PUSH1 0x40 SHL SUB DUP2 GT DUP1 ISZERO PUSH2 0x69F3 JUMPI PUSH1 0x0 DUP1 REVERT JUMPDEST POP PUSH1 0x40 MLOAD SWAP1 DUP1 DUP3 MSTORE DUP1 PUSH1 0x20 MUL PUSH1 0x20 ADD DUP3 ADD PUSH1 0x40 MSTORE DUP1 ISZERO PUSH2 0x6A1D JUMPI DUP2 PUSH1 0x20 ADD PUSH1 0x20 DUP3 MUL DUP1 CALLDATASIZE DUP4 CALLDATACOPY ADD SWAP1 POP JUMPDEST POP SWAP1 POP PUSH1 0x0 JUMPDEST DUP5 MLOAD DUP2 EQ PUSH2 0x11B1 JUMPI PUSH32 0x0 PUSH1 0x1 PUSH1 0x1 PUSH1 0xA0 SHL SUB AND DUP6 DUP3 DUP2 MLOAD DUP2 LT PUSH2 0x6A61 JUMPI INVALID JUMPDEST PUSH1 0x20 MUL PUSH1 0x20 ADD ADD MLOAD PUSH1 0x1 PUSH1 0x1 PUSH1 0xA0 SHL SUB AND EQ PUSH2 0x6AAD JUMPI PUSH2 0x6AA8 DUP5 DUP5 DUP8 DUP5 DUP2 MLOAD DUP2 LT PUSH2 0x6A88 JUMPI INVALID JUMPDEST PUSH1 0x20 MUL PUSH1 0x20 ADD ADD MLOAD PUSH1 0x1 PUSH1 0x1 PUSH1 0xA0 SHL SUB AND PUSH2 0x9707 SWAP1 SWAP3 SWAP2 SWAP1 PUSH4 0xFFFFFFFF AND JUMP JUMPDEST PUSH2 0x6AB0 JUMP JUMPDEST PUSH1 0x0 JUMPDEST DUP3 DUP3 DUP2 MLOAD DUP2 LT PUSH2 0x6ABC JUMPI INVALID JUMPDEST PUSH1 0x20 SWAP1 DUP2 MUL SWAP2 SWAP1 SWAP2 ADD ADD MSTORE PUSH1 0x1 ADD PUSH2 0x6A23 JUMP JUMPDEST DUP1 MLOAD PUSH1 0x60 SWAP1 DUP1 PUSH1 0x1 PUSH1 0x1 PUSH1 0x40 SHL SUB DUP2 GT DUP1 ISZERO PUSH2 0x6AEA JUMPI PUSH1 0x0 DUP1 REVERT JUMPDEST POP PUSH1 0x40 MLOAD SWAP1 DUP1 DUP3 MSTORE DUP1 PUSH1 0x20 MUL PUSH1 0x20 ADD DUP3 ADD PUSH1 0x40 MSTORE DUP1 ISZERO PUSH2 0x6B14 JUMPI DUP2 PUSH1 0x20 ADD PUSH1 0x20 DUP3 MUL DUP1 CALLDATASIZE DUP4 CALLDATACOPY ADD SWAP1 POP JUMPDEST POP SWAP2 POP PUSH1 0x0 JUMPDEST DUP2 DUP2 LT ISZERO PUSH2 0x201A JUMPI DUP7 PUSH1 0x1 PUSH1 0x1 PUSH1 0xA0 SHL SUB AND PUSH4 0x838E6A22 PUSH3 0x493E0 DUP9 DUP9 DUP9 DUP7 DUP2 MLOAD DUP2 LT PUSH2 0x6B43 JUMPI INVALID JUMPDEST PUSH1 0x20 MUL PUSH1 0x20 ADD ADD MLOAD PUSH1 0x40 MLOAD DUP6 PUSH4 0xFFFFFFFF AND PUSH1 0xE0 SHL DUP2 MSTORE PUSH1 0x4 ADD PUSH2 0x6B69 SWAP4 SWAP3 SWAP2 SWAP1 PUSH2 0xC7F2 JUMP JUMPDEST PUSH1 0x20 PUSH1 0x40 MLOAD DUP1 DUP4 SUB DUP2 DUP8 DUP1 EXTCODESIZE ISZERO DUP1 ISZERO PUSH2 0x6B81 JUMPI PUSH1 0x0 DUP1 REVERT JUMPDEST POP DUP7 STATICCALL SWAP4 POP POP POP POP DUP1 ISZERO PUSH2 0x6BB2 JUMPI POP PUSH1 0x40 DUP1 MLOAD PUSH1 0x1F RETURNDATASIZE SWAP1 DUP2 ADD PUSH1 0x1F NOT AND DUP3 ADD SWAP1 SWAP3 MSTORE PUSH2 0x6BAF SWAP2 DUP2 ADD SWAP1 PUSH2 0xB92E JUMP JUMPDEST PUSH1 0x1 JUMPDEST PUSH2 0x6BE0 JUMPI RETURNDATASIZE DUP1 DUP1 ISZERO PUSH2 0x1FCA JUMPI PUSH1 0x40 MLOAD SWAP2 POP PUSH1 0x1F NOT PUSH1 0x3F RETURNDATASIZE ADD AND DUP3 ADD PUSH1 0x40 MSTORE RETURNDATASIZE DUP3 MSTORE RETURNDATASIZE PUSH1 0x0 PUSH1 0x20 DUP5 ADD RETURNDATACOPY PUSH2 0x1FCF JUMP JUMPDEST DUP1 DUP5 DUP4 DUP2 MLOAD DUP2 LT PUSH2 0x6BED JUMPI INVALID JUMPDEST PUSH1 0x20 MUL PUSH1 0x20 ADD ADD DUP2 DUP2 MSTORE POP POP POP PUSH1 0x1 ADD PUSH2 0x6B1A JUMP JUMPDEST PUSH1 0x0 PUSH1 0x60 PUSH2 0x6C10 DUP5 DUP7 PUSH2 0x7995 JUMP JUMPDEST DUP3 MLOAD DUP1 PUSH1 0x1 PUSH1 0x1 PUSH1 0x40 SHL SUB DUP2 GT DUP1 ISZERO PUSH2 0x6C28 JUMPI PUSH1 0x0 DUP1 REVERT JUMPDEST POP PUSH1 0x40 MLOAD SWAP1 DUP1 DUP3 MSTORE DUP1 PUSH1 0x20 MUL PUSH1 0x20 ADD DUP3 ADD PUSH1 0x40 MSTORE DUP1 ISZERO PUSH2 0x6C52 JUMPI DUP2 PUSH1 0x20 ADD PUSH1 0x20 DUP3 MUL DUP1 CALLDATASIZE DUP4 CALLDATACOPY ADD SWAP1 POP JUMPDEST POP SWAP2 POP PUSH2 0x6CBD PUSH1 0x40 MLOAD DUP1 PUSH1 0x60 ADD PUSH1 0x40 MSTORE DUP1 DUP10 DUP9 PUSH1 0x40 MLOAD PUSH1 0x20 ADD PUSH2 0x6C76 SWAP3 SWAP2 SWAP1 PUSH2 0xC6AA JUMP JUMPDEST PUSH1 0x40 MLOAD PUSH1 0x20 DUP2 DUP4 SUB SUB DUP2 MSTORE SWAP1 PUSH1 0x40 MSTORE DUP2 MSTORE PUSH1 0x20 ADD DUP10 DUP10 PUSH1 0x40 MLOAD PUSH1 0x20 ADD PUSH2 0x6C9D SWAP3 SWAP2 SWAP1 PUSH2 0xC6AA JUMP JUMPDEST PUSH1 0x40 MLOAD PUSH1 0x20 DUP2 DUP4 SUB SUB DUP2 MSTORE SWAP1 PUSH1 0x40 MSTORE DUP2 MSTORE PUSH1 0x20 ADD PUSH2 0x97D3 DUP2 MSTORE POP DUP6 PUSH2 0x86D7 JUMP JUMPDEST PUSH1 0x40 MLOAD PUSH4 0x901754D7 PUSH1 0xE0 SHL DUP2 MSTORE SWAP1 SWAP3 POP PUSH1 0x1 PUSH1 0x1 PUSH1 0xA0 SHL SUB DUP9 AND SWAP1 PUSH4 0x901754D7 SWAP1 PUSH2 0x5900 SWAP1 DUP10 SWAP1 DUP10 SWAP1 PUSH1 0x4 ADD PUSH2 0xC6AA JUMP JUMPDEST DUP1 MLOAD PUSH1 0x60 SWAP1 DUP1 PUSH1 0x1 PUSH1 0x1 PUSH1 0x40 SHL SUB DUP2 GT DUP1 ISZERO PUSH2 0x6D09 JUMPI PUSH1 0x0 DUP1 REVERT JUMPDEST POP PUSH1 0x40 MLOAD SWAP1 DUP1 DUP3 MSTORE DUP1 PUSH1 0x20 MUL PUSH1 0x20 ADD DUP3 ADD PUSH1 0x40 MSTORE DUP1 ISZERO PUSH2 0x6D33 JUMPI DUP2 PUSH1 0x20 ADD PUSH1 0x20 DUP3 MUL DUP1 CALLDATASIZE DUP4 CALLDATACOPY ADD SWAP1 POP JUMPDEST POP SWAP2 POP PUSH1 0x0 JUMPDEST DUP2 DUP2 LT ISZERO PUSH2 0x22FD JUMPI DUP6 PUSH1 0x1 PUSH1 0x1 PUSH1 0xA0 SHL SUB AND PUSH4 0x43C2E2F5 DUP7 PUSH1 0x0 DUP2 MLOAD DUP2 LT PUSH2 0x6D5D JUMPI INVALID JUMPDEST PUSH1 0x20 MUL PUSH1 0x20 ADD ADD MLOAD DUP8 PUSH1 0x1 DUP2 MLOAD DUP2 LT PUSH2 0x6D72 JUMPI INVALID JUMPDEST PUSH1 0x20 MUL PUSH1 0x20 ADD ADD MLOAD DUP8 DUP6 DUP2 MLOAD DUP2 LT PUSH2 0x6D86 JUMPI INVALID JUMPDEST PUSH1 0x20 MUL PUSH1 0x20 ADD ADD MLOAD PUSH1 0x40 MLOAD DUP5 PUSH4 0xFFFFFFFF AND PUSH1 0xE0 SHL DUP2 MSTORE PUSH1 0x4 ADD PUSH2 0x6DAC SWAP4 SWAP3 SWAP2 SWAP1 PUSH2 0xC7F2 JUMP JUMPDEST PUSH1 0x40 DUP1 MLOAD DUP1 DUP4 SUB DUP2 DUP7 DUP1 EXTCODESIZE ISZERO DUP1 ISZERO PUSH2 0x6DC3 JUMPI PUSH1 0x0 DUP1 REVERT JUMPDEST POP GAS STATICCALL SWAP3 POP POP POP DUP1 ISZERO PUSH2 0x6DF3 JUMPI POP PUSH1 0x40 DUP1 MLOAD PUSH1 0x1F RETURNDATASIZE SWAP1 DUP2 ADD PUSH1 0x1F NOT AND DUP3 ADD SWAP1 SWAP3 MSTORE PUSH2 0x6DF0 SWAP2 DUP2 ADD SWAP1 PUSH2 0xBDE1 JUMP JUMPDEST PUSH1 0x1 JUMPDEST PUSH2 0x6E21 JUMPI RETURNDATASIZE DUP1 DUP1 ISZERO PUSH2 0x2296 JUMPI PUSH1 0x40 MLOAD SWAP2 POP PUSH1 0x1F NOT PUSH1 0x3F RETURNDATASIZE ADD AND DUP3 ADD PUSH1 0x40 MSTORE RETURNDATASIZE DUP3 MSTORE RETURNDATASIZE PUSH1 0x0 PUSH1 0x20 DUP5 ADD RETURNDATACOPY PUSH2 0x229B JUMP JUMPDEST DUP2 DUP6 DUP5 DUP2 MLOAD DUP2 LT PUSH2 0x6E2E JUMPI INVALID JUMPDEST PUSH1 0x20 MUL PUSH1 0x20 ADD ADD DUP2 DUP2 MSTORE POP POP DUP5 DUP4 DUP2 MLOAD DUP2 LT PUSH2 0x6E46 JUMPI INVALID JUMPDEST PUSH1 0x20 MUL PUSH1 0x20 ADD ADD MLOAD PUSH1 0x0 EQ ISZERO PUSH2 0x6E5D JUMPI POP POP PUSH2 0x22FD JUMP JUMPDEST POP POP PUSH1 0x1 ADD PUSH2 0x6D39 JUMP JUMPDEST DUP1 MLOAD PUSH1 0x60 SWAP1 DUP1 PUSH1 0x1 PUSH1 0x1 PUSH1 0x40 SHL SUB DUP2 GT DUP1 ISZERO PUSH2 0x6E82 JUMPI PUSH1 0x0 DUP1 REVERT JUMPDEST POP PUSH1 0x40 MLOAD SWAP1 DUP1 DUP3 MSTORE DUP1 PUSH1 0x20 MUL PUSH1 0x20 ADD DUP3 ADD PUSH1 0x40 MSTORE DUP1 ISZERO PUSH2 0x6EAC JUMPI DUP2 PUSH1 0x20 ADD PUSH1 0x20 DUP3 MUL DUP1 CALLDATASIZE DUP4 CALLDATACOPY ADD SWAP1 POP JUMPDEST POP SWAP2 POP DUP6 PUSH1 0x1 PUSH1 0x1 PUSH1 0xA0 SHL SUB AND DUP5 PUSH1 0x0 DUP2 MLOAD DUP2 LT PUSH2 0x6EC6 JUMPI INVALID JUMPDEST PUSH1 0x20 MUL PUSH1 0x20 ADD ADD MLOAD PUSH1 0x1 PUSH1 0x1 PUSH1 0xA0 SHL SUB AND EQ ISZERO PUSH2 0x6F20 JUMPI PUSH20 0xEEEEEEEEEEEEEEEEEEEEEEEEEEEEEEEEEEEEEEEE DUP5 PUSH1 0x0 DUP2 MLOAD DUP2 LT PUSH2 0x6EFF JUMPI INVALID JUMPDEST PUSH1 0x20 MUL PUSH1 0x20 ADD ADD SWAP1 PUSH1 0x1 PUSH1 0x1 PUSH1 0xA0 SHL SUB AND SWAP1 DUP2 PUSH1 0x1 PUSH1 0x1 PUSH1 0xA0 SHL SUB AND DUP2 MSTORE POP POP JUMPDEST DUP6 PUSH1 0x1 PUSH1 0x1 PUSH1 0xA0 SHL SUB AND DUP5 PUSH1 0x1 DUP2 MLOAD DUP2 LT PUSH2 0x6F37 JUMPI INVALID JUMPDEST PUSH1 0x20 MUL PUSH1 0x20 ADD ADD MLOAD PUSH1 0x1 PUSH1 0x1 PUSH1 0xA0 SHL SUB AND EQ ISZERO PUSH2 0x6F91 JUMPI PUSH20 0xEEEEEEEEEEEEEEEEEEEEEEEEEEEEEEEEEEEEEEEE DUP5 PUSH1 0x1 DUP2 MLOAD DUP2 LT PUSH2 0x6F70 JUMPI INVALID JUMPDEST PUSH1 0x20 MUL PUSH1 0x20 ADD ADD SWAP1 PUSH1 0x1 PUSH1 0x1 PUSH1 0xA0 SHL SUB AND SWAP1 DUP2 PUSH1 0x1 PUSH1 0x1 PUSH1 0xA0 SHL SUB AND DUP2 MSTORE POP POP JUMPDEST PUSH1 0x0 JUMPDEST DUP2 DUP2 LT ISZERO PUSH2 0x201A JUMPI DUP6 PUSH1 0x1 PUSH1 0x1 PUSH1 0xA0 SHL SUB AND PUSH4 0x6E1A20BE DUP7 PUSH1 0x0 DUP2 MLOAD DUP2 LT PUSH2 0x6FB8 JUMPI INVALID JUMPDEST PUSH1 0x20 MUL PUSH1 0x20 ADD ADD MLOAD DUP8 PUSH1 0x1 DUP2 MLOAD DUP2 LT PUSH2 0x6FCD JUMPI INVALID JUMPDEST PUSH1 0x20 MUL PUSH1 0x20 ADD ADD MLOAD DUP8 DUP6 DUP2 MLOAD DUP2 LT PUSH2 0x6FE1 JUMPI INVALID JUMPDEST PUSH1 0x20 MUL PUSH1 0x20 ADD ADD MLOAD PUSH1 0x40 MLOAD DUP5 PUSH4 0xFFFFFFFF AND PUSH1 0xE0 SHL DUP2 MSTORE PUSH1 0x4 ADD PUSH2 0x7007 SWAP4 SWAP3 SWAP2 SWAP1 PUSH2 0xC7F2 JUMP JUMPDEST PUSH1 0x20 PUSH1 0x40 MLOAD DUP1 DUP4 SUB DUP2 DUP7 DUP1 EXTCODESIZE ISZERO DUP1 ISZERO PUSH2 0x701F JUMPI PUSH1 0x0 DUP1 REVERT JUMPDEST POP GAS STATICCALL SWAP3 POP POP POP DUP1 ISZERO PUSH2 0x704F JUMPI POP PUSH1 0x40 DUP1 MLOAD PUSH1 0x1F RETURNDATASIZE SWAP1 DUP2 ADD PUSH1 0x1F NOT AND DUP3 ADD SWAP1 SWAP3 MSTORE PUSH2 0x704C SWAP2 DUP2 ADD SWAP1 PUSH2 0xB92E JUMP JUMPDEST PUSH1 0x1 JUMPDEST PUSH2 0x707D JUMPI RETURNDATASIZE DUP1 DUP1 ISZERO PUSH2 0x1FCA JUMPI PUSH1 0x40 MLOAD SWAP2 POP PUSH1 0x1F NOT PUSH1 0x3F RETURNDATASIZE ADD AND DUP3 ADD PUSH1 0x40 MSTORE RETURNDATASIZE DUP3 MSTORE RETURNDATASIZE PUSH1 0x0 PUSH1 0x20 DUP5 ADD RETURNDATACOPY PUSH2 0x1FCF JUMP JUMPDEST DUP1 DUP5 DUP4 DUP2 MLOAD DUP2 LT PUSH2 0x708A JUMPI INVALID JUMPDEST PUSH1 0x20 MUL PUSH1 0x20 ADD ADD DUP2 DUP2 MSTORE POP POP DUP4 DUP3 DUP2 MLOAD DUP2 LT PUSH2 0x70A2 JUMPI INVALID JUMPDEST PUSH1 0x20 MUL PUSH1 0x20 ADD ADD MLOAD PUSH1 0x0 EQ ISZERO PUSH2 0x70B8 JUMPI POP PUSH2 0x201A JUMP JUMPDEST POP PUSH1 0x1 ADD PUSH2 0x6F94 JUMP JUMPDEST PUSH2 0x70C9 PUSH2 0xA5E6 JUMP JUMPDEST PUSH2 0x70D1 PUSH2 0xA5E6 JUMP JUMPDEST PUSH1 0x60 DUP4 PUSH1 0x1 PUSH1 0x1 PUSH1 0x40 SHL SUB DUP2 GT DUP1 ISZERO PUSH2 0x70E9 JUMPI PUSH1 0x0 DUP1 REVERT JUMPDEST POP PUSH1 0x40 MLOAD SWAP1 DUP1 DUP3 MSTORE DUP1 PUSH1 0x20 MUL PUSH1 0x20 ADD DUP3 ADD PUSH1 0x40 MSTORE DUP1 ISZERO PUSH2 0x7113 JUMPI DUP2 PUSH1 0x20 ADD PUSH1 0x20 DUP3 MUL DUP1 CALLDATASIZE DUP4 CALLDATACOPY ADD SWAP1 POP JUMPDEST POP SWAP1 POP PUSH1 0x0 JUMPDEST DUP5 DUP2 LT ISZERO PUSH2 0x7143 JUMPI PUSH1 0x0 NOT DUP3 DUP3 DUP2 MLOAD DUP2 LT PUSH2 0x7130 JUMPI INVALID JUMPDEST PUSH1 0x20 SWAP1 DUP2 MUL SWAP2 SWAP1 SWAP2 ADD ADD MSTORE PUSH1 0x1 ADD PUSH2 0x7119 JUMP JUMPDEST POP PUSH1 0x60 DUP5 PUSH1 0x1 PUSH1 0x1 PUSH1 0x40 SHL SUB DUP2 GT DUP1 ISZERO PUSH2 0x715C JUMPI PUSH1 0x0 DUP1 REVERT JUMPDEST POP PUSH1 0x40 MLOAD SWAP1 DUP1 DUP3 MSTORE DUP1 PUSH1 0x20 MUL PUSH1 0x20 ADD DUP3 ADD PUSH1 0x40 MSTORE DUP1 ISZERO PUSH2 0x7186 JUMPI DUP2 PUSH1 0x20 ADD PUSH1 0x20 DUP3 MUL DUP1 CALLDATASIZE DUP4 CALLDATACOPY ADD SWAP1 POP JUMPDEST POP SWAP1 POP PUSH1 0x0 JUMPDEST DUP6 DUP2 LT ISZERO PUSH2 0x71B6 JUMPI PUSH1 0x0 NOT DUP3 DUP3 DUP2 MLOAD DUP2 LT PUSH2 0x71A3 JUMPI INVALID JUMPDEST PUSH1 0x20 SWAP1 DUP2 MUL SWAP2 SWAP1 SWAP2 ADD ADD MSTORE PUSH1 0x1 ADD PUSH2 0x718C JUMP JUMPDEST POP PUSH1 0x0 JUMPDEST DUP7 MLOAD DUP2 LT ISZERO PUSH2 0x72E9 JUMPI PUSH1 0x0 PUSH1 0x60 ADDRESS PUSH1 0x1 PUSH1 0x1 PUSH1 0xA0 SHL SUB AND DUP10 DUP5 DUP2 MLOAD DUP2 LT PUSH2 0x71DD JUMPI INVALID JUMPDEST PUSH1 0x20 MUL PUSH1 0x20 ADD ADD MLOAD PUSH1 0x40 MLOAD PUSH2 0x71F2 SWAP2 SWAP1 PUSH2 0xC675 JUMP JUMPDEST PUSH1 0x0 PUSH1 0x40 MLOAD DUP1 DUP4 SUB DUP2 PUSH1 0x0 DUP7 GAS CALL SWAP2 POP POP RETURNDATASIZE DUP1 PUSH1 0x0 DUP2 EQ PUSH2 0x722F JUMPI PUSH1 0x40 MLOAD SWAP2 POP PUSH1 0x1F NOT PUSH1 0x3F RETURNDATASIZE ADD AND DUP3 ADD PUSH1 0x40 MSTORE RETURNDATASIZE DUP3 MSTORE RETURNDATASIZE PUSH1 0x0 PUSH1 0x20 DUP5 ADD RETURNDATACOPY PUSH2 0x7234 JUMP JUMPDEST PUSH1 0x60 SWAP2 POP JUMPDEST POP SWAP2 POP SWAP2 POP DUP2 ISZERO PUSH2 0x72DF JUMPI PUSH1 0x60 PUSH2 0x724B DUP3 DUP11 PUSH2 0x90C3 JUMP JUMPDEST SWAP1 POP PUSH1 0x0 DUP2 PUSH1 0x1 DUP12 SUB DUP2 MLOAD DUP2 LT PUSH2 0x725E JUMPI INVALID JUMPDEST PUSH1 0x20 MUL PUSH1 0x20 ADD ADD MLOAD SWAP1 POP PUSH1 0x0 DUP2 GT DUP1 ISZERO PUSH2 0x728D JUMPI POP DUP6 PUSH1 0x1 DUP12 SUB DUP2 MLOAD DUP2 LT PUSH2 0x7282 JUMPI INVALID JUMPDEST PUSH1 0x20 MUL PUSH1 0x20 ADD ADD MLOAD DUP2 LT JUMPDEST ISZERO PUSH2 0x72DC JUMPI DUP5 DUP9 MSTORE PUSH1 0x20 DUP9 ADD DUP4 SWAP1 MSTORE PUSH1 0x0 JUMPDEST DUP11 DUP2 LT ISZERO PUSH2 0x72DA JUMPI DUP3 DUP2 DUP2 MLOAD DUP2 LT PUSH2 0x72B3 JUMPI INVALID JUMPDEST PUSH1 0x20 MUL PUSH1 0x20 ADD ADD MLOAD DUP8 DUP3 DUP2 MLOAD DUP2 LT PUSH2 0x72C7 JUMPI INVALID JUMPDEST PUSH1 0x20 SWAP1 DUP2 MUL SWAP2 SWAP1 SWAP2 ADD ADD MSTORE PUSH1 0x1 ADD PUSH2 0x729F JUMP JUMPDEST POP JUMPDEST POP POP JUMPDEST POP POP PUSH1 0x1 ADD PUSH2 0x71BA JUMP JUMPDEST POP PUSH1 0x0 NOT DUP2 PUSH1 0x1 DUP8 SUB DUP2 MLOAD DUP2 LT PUSH2 0x72FC JUMPI INVALID JUMPDEST PUSH1 0x20 MUL PUSH1 0x20 ADD ADD MLOAD EQ ISZERO PUSH2 0x7310 JUMPI POP PUSH2 0x4477 JUMP JUMPDEST PUSH1 0x0 JUMPDEST DUP8 MLOAD DUP2 EQ PUSH2 0x2D06 JUMPI PUSH2 0x732A DUP9 DUP3 DUP2 MLOAD DUP2 LT PUSH2 0x4355 JUMPI INVALID JUMPDEST PUSH1 0x0 PUSH1 0x60 ADDRESS PUSH1 0x1 PUSH1 0x1 PUSH1 0xA0 SHL SUB AND DUP11 DUP5 DUP2 MLOAD DUP2 LT PUSH2 0x7344 JUMPI INVALID JUMPDEST PUSH1 0x20 MUL PUSH1 0x20 ADD ADD MLOAD PUSH1 0x40 MLOAD PUSH2 0x7359 SWAP2 SWAP1 PUSH2 0xC675 JUMP JUMPDEST PUSH1 0x0 PUSH1 0x40 MLOAD DUP1 DUP4 SUB DUP2 PUSH1 0x0 DUP7 GAS CALL SWAP2 POP POP RETURNDATASIZE DUP1 PUSH1 0x0 DUP2 EQ PUSH2 0x7396 JUMPI PUSH1 0x40 MLOAD SWAP2 POP PUSH1 0x1F NOT PUSH1 0x3F RETURNDATASIZE ADD AND DUP3 ADD PUSH1 0x40 MSTORE RETURNDATASIZE DUP3 MSTORE RETURNDATASIZE PUSH1 0x0 PUSH1 0x20 DUP5 ADD RETURNDATACOPY PUSH2 0x739B JUMP JUMPDEST PUSH1 0x60 SWAP2 POP JUMPDEST POP SWAP2 POP SWAP2 POP DUP2 ISZERO PUSH2 0x7446 JUMPI PUSH1 0x60 PUSH2 0x73B2 DUP3 DUP11 PUSH2 0x90C3 JUMP JUMPDEST SWAP1 POP PUSH1 0x0 DUP2 PUSH1 0x1 DUP12 SUB DUP2 MLOAD DUP2 LT PUSH2 0x73C5 JUMPI INVALID JUMPDEST PUSH1 0x20 MUL PUSH1 0x20 ADD ADD MLOAD SWAP1 POP PUSH1 0x0 DUP2 GT DUP1 ISZERO PUSH2 0x73F4 JUMPI POP DUP7 PUSH1 0x1 DUP12 SUB DUP2 MLOAD DUP2 LT PUSH2 0x73E9 JUMPI INVALID JUMPDEST PUSH1 0x20 MUL PUSH1 0x20 ADD ADD MLOAD DUP2 LT JUMPDEST ISZERO PUSH2 0x7443 JUMPI DUP5 DUP10 MSTORE PUSH1 0x20 DUP10 ADD DUP4 SWAP1 MSTORE PUSH1 0x0 JUMPDEST DUP11 DUP2 LT ISZERO PUSH2 0x7441 JUMPI DUP3 DUP2 DUP2 MLOAD DUP2 LT PUSH2 0x741A JUMPI INVALID JUMPDEST PUSH1 0x20 MUL PUSH1 0x20 ADD ADD MLOAD DUP9 DUP3 DUP2 MLOAD DUP2 LT PUSH2 0x742E JUMPI INVALID JUMPDEST PUSH1 0x20 SWAP1 DUP2 MUL SWAP2 SWAP1 SWAP2 ADD ADD MSTORE PUSH1 0x1 ADD PUSH2 0x7406 JUMP JUMPDEST POP JUMPDEST POP POP JUMPDEST POP POP PUSH1 0x1 ADD PUSH2 0x7313 JUMP JUMPDEST PUSH1 0x60 PUSH1 0x0 DUP4 PUSH1 0x1 PUSH1 0x1 PUSH1 0xA0 SHL SUB AND PUSH4 0xC45A0155 PUSH1 0x40 MLOAD DUP2 PUSH4 0xFFFFFFFF AND PUSH1 0xE0 SHL DUP2 MSTORE PUSH1 0x4 ADD PUSH1 0x20 PUSH1 0x40 MLOAD DUP1 DUP4 SUB DUP2 DUP7 DUP1 EXTCODESIZE ISZERO DUP1 ISZERO PUSH2 0x748D JUMPI PUSH1 0x0 DUP1 REVERT JUMPDEST POP GAS STATICCALL ISZERO DUP1 ISZERO PUSH2 0x74A1 JUMPI RETURNDATASIZE PUSH1 0x0 DUP1 RETURNDATACOPY RETURNDATASIZE PUSH1 0x0 REVERT JUMPDEST POP POP POP POP PUSH1 0x40 MLOAD RETURNDATASIZE PUSH1 0x1F NOT PUSH1 0x1F DUP3 ADD AND DUP3 ADD DUP1 PUSH1 0x40 MSTORE POP DUP2 ADD SWAP1 PUSH2 0x74C5 SWAP2 SWAP1 PUSH2 0xB190 JUMP JUMPDEST SWAP1 POP PUSH1 0x1 DUP4 MLOAD SUB PUSH1 0x1 PUSH1 0x1 PUSH1 0x40 SHL SUB DUP2 GT DUP1 ISZERO PUSH2 0x74E1 JUMPI PUSH1 0x0 DUP1 REVERT JUMPDEST POP PUSH1 0x40 MLOAD SWAP1 DUP1 DUP3 MSTORE DUP1 PUSH1 0x20 MUL PUSH1 0x20 ADD DUP3 ADD PUSH1 0x40 MSTORE DUP1 ISZERO PUSH2 0x750B JUMPI DUP2 PUSH1 0x20 ADD PUSH1 0x20 DUP3 MUL DUP1 CALLDATASIZE DUP4 CALLDATACOPY ADD SWAP1 POP JUMPDEST POP SWAP2 POP PUSH1 0x0 JUMPDEST DUP3 MLOAD DUP2 LT ISZERO PUSH2 0x7737 JUMPI PUSH1 0x60 DUP3 PUSH1 0x1 PUSH1 0x1 PUSH1 0xA0 SHL SUB AND PUSH4 0x5B1DC86F PUSH3 0x249F0 DUP8 DUP6 DUP2 MLOAD DUP2 LT PUSH2 0x753B JUMPI INVALID JUMPDEST PUSH1 0x20 MUL PUSH1 0x20 ADD ADD MLOAD DUP9 DUP7 PUSH1 0x1 ADD DUP2 MLOAD DUP2 LT PUSH2 0x7552 JUMPI INVALID JUMPDEST PUSH1 0x20 MUL PUSH1 0x20 ADD ADD MLOAD PUSH1 0x40 MLOAD DUP5 PUSH4 0xFFFFFFFF AND PUSH1 0xE0 SHL DUP2 MSTORE PUSH1 0x4 ADD PUSH2 0x7577 SWAP3 SWAP2 SWAP1 PUSH2 0xC6AA JUMP JUMPDEST PUSH1 0x0 PUSH1 0x40 MLOAD DUP1 DUP4 SUB DUP2 DUP8 DUP1 EXTCODESIZE ISZERO DUP1 ISZERO PUSH2 0x758F JUMPI PUSH1 0x0 DUP1 REVERT JUMPDEST POP DUP7 STATICCALL SWAP4 POP POP POP POP DUP1 ISZERO PUSH2 0x75C5 JUMPI POP PUSH1 0x40 MLOAD RETURNDATASIZE PUSH1 0x0 DUP3 RETURNDATACOPY PUSH1 0x1F RETURNDATASIZE SWAP1 DUP2 ADD PUSH1 0x1F NOT AND DUP3 ADD PUSH1 0x40 MSTORE PUSH2 0x75C2 SWAP2 SWAP1 DUP2 ADD SWAP1 PUSH2 0xB623 JUMP JUMPDEST PUSH1 0x1 JUMPDEST PUSH2 0x7633 JUMPI RETURNDATASIZE DUP1 DUP1 ISZERO PUSH2 0x75F3 JUMPI PUSH1 0x40 MLOAD SWAP2 POP PUSH1 0x1F NOT PUSH1 0x3F RETURNDATASIZE ADD AND DUP3 ADD PUSH1 0x40 MSTORE RETURNDATASIZE DUP3 MSTORE RETURNDATASIZE PUSH1 0x0 PUSH1 0x20 DUP5 ADD RETURNDATACOPY PUSH2 0x75F8 JUMP JUMPDEST PUSH1 0x60 SWAP2 POP JUMPDEST POP PUSH1 0x0 DUP1 JUMPDEST POP PUSH1 0x40 MLOAD SWAP1 DUP1 DUP3 MSTORE DUP1 PUSH1 0x20 MUL PUSH1 0x20 ADD DUP3 ADD PUSH1 0x40 MSTORE DUP1 ISZERO PUSH2 0x7627 JUMPI DUP2 PUSH1 0x20 ADD PUSH1 0x20 DUP3 MUL DUP1 CALLDATASIZE DUP4 CALLDATACOPY ADD SWAP1 POP JUMPDEST POP SWAP5 POP POP POP POP POP PUSH2 0x773A JUMP JUMPDEST DUP1 MLOAD PUSH2 0x7641 JUMPI PUSH1 0x0 DUP1 PUSH2 0x75FD JUMP JUMPDEST PUSH1 0x0 DUP1 JUMPDEST DUP3 MLOAD DUP2 LT ISZERO PUSH2 0x772B JUMPI PUSH1 0x0 DUP4 DUP3 DUP2 MLOAD DUP2 LT PUSH2 0x765C JUMPI INVALID JUMPDEST PUSH1 0x20 MUL PUSH1 0x20 ADD ADD MLOAD PUSH1 0x1 PUSH1 0x1 PUSH1 0xA0 SHL SUB AND PUSH4 0x18160DDD PUSH1 0x40 MLOAD DUP2 PUSH4 0xFFFFFFFF AND PUSH1 0xE0 SHL DUP2 MSTORE PUSH1 0x4 ADD PUSH1 0x20 PUSH1 0x40 MLOAD DUP1 DUP4 SUB DUP2 DUP7 DUP1 EXTCODESIZE ISZERO DUP1 ISZERO PUSH2 0x769C JUMPI PUSH1 0x0 DUP1 REVERT JUMPDEST POP GAS STATICCALL ISZERO DUP1 ISZERO PUSH2 0x76B0 JUMPI RETURNDATASIZE PUSH1 0x0 DUP1 RETURNDATACOPY RETURNDATASIZE PUSH1 0x0 REVERT JUMPDEST POP POP POP POP PUSH1 0x40 MLOAD RETURNDATASIZE PUSH1 0x1F NOT PUSH1 0x1F DUP3 ADD AND DUP3 ADD DUP1 PUSH1 0x40 MSTORE POP DUP2 ADD SWAP1 PUSH2 0x76D4 SWAP2 SWAP1 PUSH2 0xB92E JUMP JUMPDEST SWAP1 POP DUP3 DUP2 GT ISZERO PUSH2 0x7722 JUMPI DUP1 SWAP3 POP DUP4 DUP3 DUP2 MLOAD DUP2 LT PUSH2 0x76ED JUMPI INVALID JUMPDEST PUSH1 0x20 MUL PUSH1 0x20 ADD ADD MLOAD DUP9 DUP8 DUP2 MLOAD DUP2 LT PUSH2 0x7701 JUMPI INVALID JUMPDEST PUSH1 0x20 MUL PUSH1 0x20 ADD ADD SWAP1 PUSH1 0x1 PUSH1 0x1 PUSH1 0xA0 SHL SUB AND SWAP1 DUP2 PUSH1 0x1 PUSH1 0x1 PUSH1 0xA0 SHL SUB AND DUP2 MSTORE POP POP JUMPDEST POP PUSH1 0x1 ADD PUSH2 0x7645 JUMP JUMPDEST POP POP POP POP PUSH1 0x1 ADD PUSH2 0x7511 JUMP JUMPDEST POP POP JUMPDEST SWAP3 SWAP2 POP POP JUMP JUMPDEST PUSH1 0x0 PUSH1 0x60 DUP6 PUSH1 0x0 ADD MLOAD PUSH1 0x1 PUSH1 0x1 PUSH1 0xA0 SHL SUB AND PUSH4 0x21F8A721 DUP8 PUSH1 0x0 ADD MLOAD PUSH1 0x1 PUSH1 0x1 PUSH1 0xA0 SHL SUB AND PUSH4 0x9232494E PUSH1 0x40 MLOAD DUP2 PUSH4 0xFFFFFFFF AND PUSH1 0xE0 SHL DUP2 MSTORE PUSH1 0x4 ADD PUSH1 0x20 PUSH1 0x40 MLOAD DUP1 DUP4 SUB DUP2 DUP7 DUP1 EXTCODESIZE ISZERO DUP1 ISZERO PUSH2 0x7794 JUMPI PUSH1 0x0 DUP1 REVERT JUMPDEST POP GAS STATICCALL ISZERO DUP1 ISZERO PUSH2 0x77A8 JUMPI RETURNDATASIZE PUSH1 0x0 DUP1 RETURNDATACOPY RETURNDATASIZE PUSH1 0x0 REVERT JUMPDEST POP POP POP POP PUSH1 0x40 MLOAD RETURNDATASIZE PUSH1 0x1F NOT PUSH1 0x1F DUP3 ADD AND DUP3 ADD DUP1 PUSH1 0x40 MSTORE POP DUP2 ADD SWAP1 PUSH2 0x77CC SWAP2 SWAP1 PUSH2 0xB92E JUMP JUMPDEST PUSH1 0x40 MLOAD DUP3 PUSH4 0xFFFFFFFF AND PUSH1 0xE0 SHL DUP2 MSTORE PUSH1 0x4 ADD PUSH2 0x77E8 SWAP2 SWAP1 PUSH2 0xC9AA JUMP JUMPDEST PUSH1 0x20 PUSH1 0x40 MLOAD DUP1 DUP4 SUB DUP2 DUP7 DUP1 EXTCODESIZE ISZERO DUP1 ISZERO PUSH2 0x7800 JUMPI PUSH1 0x0 DUP1 REVERT JUMPDEST POP GAS STATICCALL ISZERO DUP1 ISZERO PUSH2 0x7814 JUMPI RETURNDATASIZE PUSH1 0x0 DUP1 RETURNDATACOPY RETURNDATASIZE PUSH1 0x0 REVERT JUMPDEST POP POP POP POP PUSH1 0x40 MLOAD RETURNDATASIZE PUSH1 0x1F NOT PUSH1 0x1F DUP3 ADD AND DUP3 ADD DUP1 PUSH1 0x40 MSTORE POP DUP2 ADD SWAP1 PUSH2 0x7838 SWAP2 SWAP1 PUSH2 0xB190 JUMP JUMPDEST SWAP2 POP DUP6 PUSH1 0x20 ADD MLOAD MLOAD PUSH1 0x0 EQ ISZERO PUSH2 0x784D JUMPI PUSH2 0x5EF3 JUMP JUMPDEST PUSH1 0x0 DUP1 JUMPDEST DUP8 PUSH1 0x20 ADD MLOAD MLOAD DUP2 LT ISZERO PUSH2 0x5EF0 JUMPI PUSH1 0x2 DUP9 PUSH1 0x20 ADD MLOAD DUP3 DUP2 MLOAD DUP2 LT PUSH2 0x7870 JUMPI INVALID JUMPDEST PUSH1 0x20 MUL PUSH1 0x20 ADD ADD MLOAD MLOAD LT ISZERO PUSH2 0x7884 JUMPI PUSH2 0x795E JUMP JUMPDEST DUP4 PUSH1 0x1 PUSH1 0x1 PUSH1 0xA0 SHL SUB AND PUSH4 0x7F9C0ECD PUSH3 0x493E0 DUP11 PUSH1 0x20 ADD MLOAD DUP5 DUP2 MLOAD DUP2 LT PUSH2 0x78A7 JUMPI INVALID JUMPDEST PUSH1 0x20 MUL PUSH1 0x20 ADD ADD MLOAD DUP9 PUSH1 0x1 DUP11 MLOAD SUB DUP2 MLOAD DUP2 LT PUSH2 0x78BF JUMPI INVALID JUMPDEST PUSH1 0x20 MUL PUSH1 0x20 ADD ADD MLOAD PUSH1 0x40 MLOAD DUP5 PUSH4 0xFFFFFFFF AND PUSH1 0xE0 SHL DUP2 MSTORE PUSH1 0x4 ADD PUSH2 0x78E4 SWAP3 SWAP2 SWAP1 PUSH2 0xC8E9 JUMP JUMPDEST PUSH1 0x20 PUSH1 0x40 MLOAD DUP1 DUP4 SUB DUP2 DUP8 DUP1 EXTCODESIZE ISZERO DUP1 ISZERO PUSH2 0x78FC JUMPI PUSH1 0x0 DUP1 REVERT JUMPDEST POP DUP7 STATICCALL SWAP4 POP POP POP POP DUP1 ISZERO PUSH2 0x792D JUMPI POP PUSH1 0x40 DUP1 MLOAD PUSH1 0x1F RETURNDATASIZE SWAP1 DUP2 ADD PUSH1 0x1F NOT AND DUP3 ADD SWAP1 SWAP3 MSTORE PUSH2 0x792A SWAP2 DUP2 ADD SWAP1 PUSH2 0xB92E JUMP JUMPDEST PUSH1 0x1 JUMPDEST PUSH2 0x7936 JUMPI PUSH2 0x795E JUMP JUMPDEST DUP3 DUP2 GT ISZERO PUSH2 0x795C JUMPI DUP1 SWAP3 POP DUP9 PUSH1 0x20 ADD MLOAD DUP3 DUP2 MLOAD DUP2 LT PUSH2 0x7951 JUMPI INVALID JUMPDEST PUSH1 0x20 MUL PUSH1 0x20 ADD ADD MLOAD SWAP4 POP JUMPDEST POP JUMPDEST PUSH1 0x1 ADD PUSH2 0x7851 JUMP JUMPDEST PUSH2 0x796E PUSH2 0xA578 JUMP JUMPDEST POP PUSH1 0x40 DUP1 MLOAD PUSH1 0x80 DUP2 ADD DUP3 MSTORE ADDRESS DUP1 DUP3 MSTORE PUSH1 0x0 PUSH1 0x20 DUP4 ADD DUP2 SWAP1 MSTORE SWAP3 DUP3 ADD MSTORE PUSH1 0x60 DUP2 ADD SWAP2 SWAP1 SWAP2 MSTORE SWAP1 JUMP JUMPDEST DUP1 PUSH1 0x1 PUSH1 0x1 PUSH1 0xA0 SHL SUB AND DUP3 PUSH1 0x1 PUSH1 0x1 PUSH1 0xA0 SHL SUB AND EQ ISZERO PUSH2 0x79D0 JUMPI PUSH1 0x40 MLOAD PUSH3 0x461BCD PUSH1 0xE5 SHL DUP2 MSTORE PUSH1 0x4 ADD PUSH2 0x79C7 SWAP1 PUSH2 0xCB0E JUMP JUMPDEST PUSH1 0x40 MLOAD DUP1 SWAP2 SUB SWAP1 REVERT JUMPDEST POP POP JUMP JUMPDEST PUSH1 0x40 DUP1 MLOAD PUSH1 0x1 DUP1 DUP3 MSTORE DUP2 DUP4 ADD SWAP1 SWAP3 MSTORE PUSH1 0x60 SWAP2 DUP3 SWAP2 SWAP1 DUP2 PUSH1 0x20 ADD JUMPDEST PUSH2 0x79F6 PUSH2 0xA642 JUMP JUMPDEST DUP2 MSTORE PUSH1 0x20 ADD SWAP1 PUSH1 0x1 SWAP1 SUB SWAP1 DUP2 PUSH2 0x79EE JUMPI SWAP1 POP POP SWAP1 POP PUSH1 0x40 MLOAD DUP1 PUSH1 0xA0 ADD PUSH1 0x40 MSTORE DUP1 DUP6 PUSH1 0x0 ADD MLOAD DUP2 MSTORE PUSH1 0x20 ADD PUSH1 0x0 DUP2 MSTORE PUSH1 0x20 ADD PUSH1 0x1 DUP2 MSTORE PUSH1 0x20 ADD DUP5 DUP2 MSTORE PUSH1 0x20 ADD PUSH1 0x40 MLOAD DUP1 PUSH1 0x20 ADD PUSH1 0x40 MSTORE DUP1 PUSH1 0x0 DUP2 MSTORE POP DUP2 MSTORE POP DUP2 PUSH1 0x0 DUP2 MLOAD DUP2 LT PUSH2 0x7A54 JUMPI INVALID JUMPDEST PUSH1 0x20 SWAP1 DUP2 MUL SWAP2 SWAP1 SWAP2 ADD ADD MSTORE SWAP4 SWAP3 POP POP POP JUMP JUMPDEST PUSH1 0x40 MLOAD PUSH4 0x3795FB1 PUSH1 0xE1 SHL DUP2 MSTORE PUSH1 0x0 SWAP1 PUSH1 0x1 PUSH1 0x1 PUSH1 0xA0 SHL SUB DUP5 AND SWAP1 PUSH4 0x6F2BF62 SWAP1 PUSH2 0x7A95 SWAP1 DUP6 SWAP1 PUSH1 0x4 ADD PUSH2 0xC681 JUMP JUMPDEST PUSH1 0x20 PUSH1 0x40 MLOAD DUP1 DUP4 SUB DUP2 DUP7 DUP1 EXTCODESIZE ISZERO DUP1 ISZERO PUSH2 0x7AAD JUMPI PUSH1 0x0 DUP1 REVERT JUMPDEST POP GAS STATICCALL ISZERO DUP1 ISZERO PUSH2 0x7AC1 JUMPI RETURNDATASIZE PUSH1 0x0 DUP1 RETURNDATACOPY RETURNDATASIZE PUSH1 0x0 REVERT JUMPDEST POP POP POP POP PUSH1 0x40 MLOAD RETURNDATASIZE PUSH1 0x1F NOT PUSH1 0x1F DUP3 ADD AND DUP3 ADD DUP1 PUSH1 0x40 MSTORE POP DUP2 ADD SWAP1 PUSH2 0x3CB5 SWAP2 SWAP1 PUSH2 0xB190 JUMP JUMPDEST PUSH1 0x0 DUP1 PUSH1 0x1 PUSH1 0x1 PUSH1 0xA0 SHL SUB DUP6 AND PUSH2 0x7AFB JUMPI PUSH2 0x103E JUMP JUMPDEST PUSH1 0x60 DUP6 PUSH1 0x1 PUSH1 0x1 PUSH1 0xA0 SHL SUB AND PUSH3 0x249F0 DUP7 DUP7 PUSH1 0x40 MLOAD PUSH1 0x24 ADD PUSH2 0x7B1D SWAP2 SWAP1 PUSH2 0xC9AA JUMP JUMPDEST PUSH1 0x40 DUP1 MLOAD PUSH1 0x1F NOT DUP2 DUP5 SUB ADD DUP2 MSTORE SWAP2 DUP2 MSTORE PUSH1 0x20 DUP3 ADD DUP1 MLOAD PUSH1 0x1 PUSH1 0x1 PUSH1 0xE0 SHL SUB AND PUSH1 0x1 PUSH1 0x1 PUSH1 0xE0 SHL SUB NOT SWAP1 SWAP5 AND SWAP4 SWAP1 SWAP4 OR SWAP1 SWAP3 MSTORE SWAP1 MLOAD PUSH2 0x7B5B SWAP2 SWAP1 PUSH2 0xC675 JUMP JUMPDEST PUSH1 0x0 PUSH1 0x40 MLOAD DUP1 DUP4 SUB DUP2 DUP7 DUP7 STATICCALL SWAP3 POP POP POP RETURNDATASIZE DUP1 PUSH1 0x0 DUP2 EQ PUSH2 0x7B97 JUMPI PUSH1 0x40 MLOAD SWAP2 POP PUSH1 0x1F NOT PUSH1 0x3F RETURNDATASIZE ADD AND DUP3 ADD PUSH1 0x40 MSTORE RETURNDATASIZE DUP3 MSTORE RETURNDATASIZE PUSH1 0x0 PUSH1 0x20 DUP5 ADD RETURNDATACOPY PUSH2 0x7B9C JUMP JUMPDEST PUSH1 0x60 SWAP2 POP JUMPDEST POP SWAP1 SWAP3 POP SWAP1 POP DUP2 ISZERO PUSH2 0x7BBF JUMPI DUP1 DUP1 PUSH1 0x20 ADD SWAP1 MLOAD DUP2 ADD SWAP1 PUSH2 0x7BBC SWAP2 SWAP1 PUSH2 0xB92E JUMP JUMPDEST SWAP3 POP JUMPDEST POP SWAP4 POP SWAP4 SWAP2 POP POP JUMP JUMPDEST PUSH1 0x0 DUP1 PUSH1 0x0 DUP1 DUP5 PUSH1 0x1 PUSH1 0x1 PUSH1 0xA0 SHL SUB AND PUSH4 0xD9638D36 DUP12 PUSH1 0x20 ADD MLOAD PUSH1 0x40 MLOAD DUP3 PUSH4 0xFFFFFFFF AND PUSH1 0xE0 SHL DUP2 MSTORE PUSH1 0x4 ADD PUSH2 0x7BFE SWAP2 SWAP1 PUSH2 0xC9AA JUMP JUMPDEST PUSH1 0xA0 PUSH1 0x40 MLOAD DUP1 DUP4 SUB DUP2 DUP7 DUP1 EXTCODESIZE ISZERO DUP1 ISZERO PUSH2 0x7C16 JUMPI PUSH1 0x0 DUP1 REVERT JUMPDEST POP GAS STATICCALL ISZERO DUP1 ISZERO PUSH2 0x7C2A JUMPI RETURNDATASIZE PUSH1 0x0 DUP1 RETURNDATACOPY RETURNDATASIZE PUSH1 0x0 REVERT JUMPDEST POP POP POP POP PUSH1 0x40 MLOAD RETURNDATASIZE PUSH1 0x1F NOT PUSH1 0x1F DUP3 ADD AND DUP3 ADD DUP1 PUSH1 0x40 MSTORE POP DUP2 ADD SWAP1 PUSH2 0x7C4E SWAP2 SWAP1 PUSH2 0xBE54 JUMP JUMPDEST SWAP5 POP SWAP5 POP POP POP SWAP3 POP PUSH1 0x0 PUSH3 0xF4240 SWAP1 POP DUP11 PUSH1 0x40 ADD MLOAD PUSH1 0x1 PUSH1 0x1 PUSH1 0xA0 SHL SUB AND DUP10 PUSH1 0x1 PUSH1 0x1 PUSH1 0xA0 SHL SUB AND EQ ISZERO PUSH2 0x7D76 JUMPI PUSH1 0x0 PUSH2 0x7C8D DUP10 PUSH5 0xE8D4A51000 PUSH2 0x9823 JUMP JUMPDEST SWAP1 POP PUSH1 0x0 PUSH2 0x7CB1 PUSH12 0x33B2E3C9FD0803CE8000000 PUSH2 0x7CAB DUP9 DUP6 PUSH2 0x9859 JUMP JUMPDEST SWAP1 PUSH2 0x9823 JUMP JUMPDEST SWAP1 POP DUP5 DUP2 LT PUSH2 0x7CC9 JUMPI PUSH1 0x0 SWAP7 POP POP POP POP POP POP POP PUSH2 0x4150 JUMP JUMPDEST PUSH1 0x0 PUSH2 0x7D58 PUSH8 0xDE0B6B3A7640000 PUSH2 0x7D52 DUP13 PUSH1 0x1 PUSH1 0x1 PUSH1 0xA0 SHL SUB AND PUSH4 0x568D4B6F PUSH1 0x40 MLOAD DUP2 PUSH4 0xFFFFFFFF AND PUSH1 0xE0 SHL DUP2 MSTORE PUSH1 0x4 ADD PUSH1 0x20 PUSH1 0x40 MLOAD DUP1 DUP4 SUB DUP2 DUP7 DUP1 EXTCODESIZE ISZERO DUP1 ISZERO PUSH2 0x7D13 JUMPI PUSH1 0x0 DUP1 REVERT JUMPDEST POP GAS STATICCALL ISZERO DUP1 ISZERO PUSH2 0x7D27 JUMPI RETURNDATASIZE PUSH1 0x0 DUP1 RETURNDATACOPY RETURNDATASIZE PUSH1 0x0 REVERT JUMPDEST POP POP POP POP PUSH1 0x40 MLOAD RETURNDATASIZE PUSH1 0x1F NOT PUSH1 0x1F DUP3 ADD AND DUP3 ADD DUP1 PUSH1 0x40 MSTORE POP DUP2 ADD SWAP1 PUSH2 0x7D4B SWAP2 SWAP1 PUSH2 0xB92E JUMP JUMPDEST DUP7 SWAP1 PUSH2 0x9823 JUMP JUMPDEST SWAP1 PUSH2 0x9875 JUMP JUMPDEST SWAP1 POP PUSH1 0x0 PUSH2 0x7D66 DUP5 DUP4 PUSH2 0x989F JUMP JUMPDEST SWAP9 POP PUSH2 0x4150 SWAP8 POP POP POP POP POP POP POP POP JUMP JUMPDEST DUP11 PUSH1 0x40 ADD MLOAD PUSH1 0x1 PUSH1 0x1 PUSH1 0xA0 SHL SUB AND DUP11 PUSH1 0x1 PUSH1 0x1 PUSH1 0xA0 SHL SUB AND EQ ISZERO PUSH2 0x7E76 JUMPI DUP8 DUP5 DUP2 GT ISZERO PUSH2 0x7DAB JUMPI PUSH1 0x0 SWAP6 POP POP POP POP POP POP PUSH2 0x4150 JUMP JUMPDEST PUSH1 0x0 PUSH2 0x7DC7 PUSH12 0x33B2E3C9FD0803CE8000000 PUSH2 0x7CAB DUP9 DUP6 PUSH2 0x989F JUMP JUMPDEST SWAP1 POP DUP4 DUP2 GT PUSH2 0x7DDF JUMPI PUSH1 0x0 SWAP7 POP POP POP POP POP POP POP PUSH2 0x4150 JUMP JUMPDEST PUSH1 0x0 PUSH2 0x7E64 DUP11 PUSH1 0x1 PUSH1 0x1 PUSH1 0xA0 SHL SUB AND PUSH4 0xFAE036D5 PUSH1 0x40 MLOAD DUP2 PUSH4 0xFFFFFFFF AND PUSH1 0xE0 SHL DUP2 MSTORE PUSH1 0x4 ADD PUSH1 0x20 PUSH1 0x40 MLOAD DUP1 DUP4 SUB DUP2 DUP7 DUP1 EXTCODESIZE ISZERO DUP1 ISZERO PUSH2 0x7E1D JUMPI PUSH1 0x0 DUP1 REVERT JUMPDEST POP GAS STATICCALL ISZERO DUP1 ISZERO PUSH2 0x7E31 JUMPI RETURNDATASIZE PUSH1 0x0 DUP1 RETURNDATACOPY RETURNDATASIZE PUSH1 0x0 REVERT JUMPDEST POP POP POP POP PUSH1 0x40 MLOAD RETURNDATASIZE PUSH1 0x1F NOT PUSH1 0x1F DUP3 ADD AND DUP3 ADD DUP1 PUSH1 0x40 MSTORE POP DUP2 ADD SWAP1 PUSH2 0x7E55 SWAP2 SWAP1 PUSH2 0xB92E JUMP JUMPDEST PUSH8 0xDE0B6B3A7640000 SWAP1 PUSH2 0x9859 JUMP JUMPDEST SWAP1 POP PUSH1 0x0 PUSH2 0x7D66 DUP3 PUSH2 0x7D52 DUP7 DUP9 PUSH2 0x9823 JUMP JUMPDEST POP PUSH1 0x0 SWAP11 SWAP10 POP POP POP POP POP POP POP POP POP POP JUMP JUMPDEST PUSH1 0x0 DUP1 PUSH1 0x0 DUP1 PUSH1 0x0 DUP8 DUP1 PUSH1 0x20 ADD SWAP1 MLOAD DUP2 ADD SWAP1 PUSH2 0x7EA3 SWAP2 SWAP1 PUSH2 0xB1E8 JUMP JUMPDEST SWAP4 POP SWAP4 POP SWAP4 POP SWAP4 POP DUP2 PUSH1 0x1 PUSH1 0x1 PUSH1 0xA0 SHL SUB AND DUP5 PUSH1 0x1 PUSH1 0x1 PUSH1 0xA0 SHL SUB AND EQ ISZERO PUSH2 0x7F8D JUMPI PUSH1 0x40 MLOAD PUSH4 0x51400F0B PUSH1 0xE1 SHL DUP2 MSTORE PUSH1 0x1 PUSH1 0x1 PUSH1 0xA0 SHL SUB DUP5 AND SWAP1 PUSH4 0xA2801E16 SWAP1 PUSH3 0x493E0 SWAP1 PUSH2 0x7EF6 SWAP1 DUP11 SWAP1 PUSH1 0x4 ADD PUSH2 0xC9AA JUMP JUMPDEST PUSH1 0x20 PUSH1 0x40 MLOAD DUP1 DUP4 SUB DUP2 DUP8 DUP1 EXTCODESIZE ISZERO DUP1 ISZERO PUSH2 0x7F0E JUMPI PUSH1 0x0 DUP1 REVERT JUMPDEST POP DUP7 STATICCALL SWAP4 POP POP POP POP DUP1 ISZERO PUSH2 0x7F3F JUMPI POP PUSH1 0x40 DUP1 MLOAD PUSH1 0x1F RETURNDATASIZE SWAP1 DUP2 ADD PUSH1 0x1F NOT AND DUP3 ADD SWAP1 SWAP3 MSTORE PUSH2 0x7F3C SWAP2 DUP2 ADD SWAP1 PUSH2 0xB92E JUMP JUMPDEST PUSH1 0x1 JUMPDEST PUSH2 0x7F81 JUMPI RETURNDATASIZE DUP1 DUP1 ISZERO PUSH2 0x7F6D JUMPI PUSH1 0x40 MLOAD SWAP2 POP PUSH1 0x1F NOT PUSH1 0x3F RETURNDATASIZE ADD AND DUP3 ADD PUSH1 0x40 MSTORE RETURNDATASIZE DUP3 MSTORE RETURNDATASIZE PUSH1 0x0 PUSH1 0x20 DUP5 ADD RETURNDATACOPY PUSH2 0x7F72 JUMP JUMPDEST PUSH1 0x60 SWAP2 POP JUMPDEST POP PUSH1 0x0 SWAP6 POP POP POP POP POP POP PUSH2 0x3CB5 JUMP JUMPDEST SWAP5 POP PUSH2 0x3CB5 SWAP4 POP POP POP POP JUMP JUMPDEST PUSH1 0x40 MLOAD PUSH4 0xCA19EBD9 PUSH1 0xE0 SHL DUP2 MSTORE PUSH1 0x1 PUSH1 0x1 PUSH1 0xA0 SHL SUB DUP3 AND SWAP1 PUSH4 0xCA19EBD9 SWAP1 PUSH3 0x493E0 SWAP1 PUSH2 0x7EF6 SWAP1 DUP8 SWAP1 DUP12 SWAP1 PUSH1 0x4 ADD PUSH2 0xC88E JUMP JUMPDEST PUSH1 0x0 DUP2 PUSH1 0x1 PUSH1 0x1 PUSH1 0xA0 SHL SUB AND PUSH4 0xD4B83992 PUSH1 0x40 MLOAD DUP2 PUSH4 0xFFFFFFFF AND PUSH1 0xE0 SHL DUP2 MSTORE PUSH1 0x4 ADD PUSH1 0x20 PUSH1 0x40 MLOAD DUP1 DUP4 SUB DUP2 DUP7 DUP1 EXTCODESIZE ISZERO DUP1 ISZERO PUSH2 0x7FFB JUMPI PUSH1 0x0 DUP1 REVERT JUMPDEST POP GAS STATICCALL ISZERO DUP1 ISZERO PUSH2 0x800F JUMPI RETURNDATASIZE PUSH1 0x0 DUP1 RETURNDATACOPY RETURNDATASIZE PUSH1 0x0 REVERT JUMPDEST POP POP POP POP PUSH1 0x40 MLOAD RETURNDATASIZE PUSH1 0x1F NOT PUSH1 0x1F DUP3 ADD AND DUP3 ADD DUP1 PUSH1 0x40 MSTORE POP DUP2 ADD SWAP1 PUSH2 0x8033 SWAP2 SWAP1 PUSH2 0xB190 JUMP JUMPDEST PUSH1 0x1 PUSH1 0x1 PUSH1 0xA0 SHL SUB AND PUSH4 0x21F8A721 PUSH1 0x40 MLOAD DUP2 PUSH4 0xFFFFFFFF AND PUSH1 0xE0 SHL DUP2 MSTORE PUSH1 0x4 ADD PUSH2 0x805C SWAP1 PUSH2 0xCB2B JUMP JUMPDEST PUSH1 0x20 PUSH1 0x40 MLOAD DUP1 DUP4 SUB DUP2 DUP7 DUP1 EXTCODESIZE ISZERO DUP1 ISZERO PUSH2 0x8074 JUMPI PUSH1 0x0 DUP1 REVERT JUMPDEST POP GAS STATICCALL ISZERO DUP1 ISZERO PUSH2 0x8088 JUMPI RETURNDATASIZE PUSH1 0x0 DUP1 RETURNDATACOPY RETURNDATASIZE PUSH1 0x0 REVERT JUMPDEST POP POP POP POP PUSH1 0x40 MLOAD RETURNDATASIZE PUSH1 0x1F NOT PUSH1 0x1F DUP3 ADD AND DUP3 ADD DUP1 PUSH1 0x40 MSTORE POP DUP2 ADD SWAP1 PUSH2 0x773A SWAP2 SWAP1 PUSH2 0xB190 JUMP JUMPDEST PUSH1 0x0 DUP1 PUSH2 0x80B8 DUP7 PUSH2 0x98BE JUMP JUMPDEST SWAP1 POP CHAINID PUSH1 0x1 DUP2 EQ ISZERO PUSH2 0x814F JUMPI PUSH1 0x40 MLOAD PUSH4 0xDC703E73 PUSH1 0xE0 SHL DUP2 MSTORE PUSH1 0x1 PUSH1 0x1 PUSH1 0xA0 SHL SUB DUP4 AND SWAP1 PUSH4 0xDC703E73 SWAP1 PUSH2 0x80F4 SWAP1 DUP10 SWAP1 DUP10 SWAP1 DUP10 SWAP1 PUSH1 0x4 ADD PUSH2 0xCC6F JUMP JUMPDEST PUSH1 0x60 PUSH1 0x40 MLOAD DUP1 DUP4 SUB DUP2 DUP7 DUP1 EXTCODESIZE ISZERO DUP1 ISZERO PUSH2 0x810C JUMPI PUSH1 0x0 DUP1 REVERT JUMPDEST POP GAS STATICCALL ISZERO DUP1 ISZERO PUSH2 0x8120 JUMPI RETURNDATASIZE PUSH1 0x0 DUP1 RETURNDATACOPY RETURNDATASIZE PUSH1 0x0 REVERT JUMPDEST POP POP POP POP PUSH1 0x40 MLOAD RETURNDATASIZE PUSH1 0x1F NOT PUSH1 0x1F DUP3 ADD AND DUP3 ADD DUP1 PUSH1 0x40 MSTORE POP DUP2 ADD SWAP1 PUSH2 0x8144 SWAP2 SWAP1 PUSH2 0xBE11 JUMP JUMPDEST POP SWAP1 SWAP4 POP PUSH2 0x201A SWAP1 POP JUMP JUMPDEST PUSH1 0x40 MLOAD PUSH4 0x3D142A8D PUSH1 0xE2 SHL DUP2 MSTORE PUSH1 0x1 PUSH1 0x1 PUSH1 0xA0 SHL SUB DUP4 AND SWAP1 PUSH4 0xF450AA34 SWAP1 PUSH2 0x817F SWAP1 DUP10 SWAP1 DUP10 SWAP1 DUP10 SWAP1 PUSH1 0x4 ADD PUSH2 0xCC6F JUMP JUMPDEST PUSH1 0x60 PUSH1 0x40 MLOAD DUP1 DUP4 SUB DUP2 DUP7 DUP1 EXTCODESIZE ISZERO DUP1 ISZERO PUSH2 0x8197 JUMPI PUSH1 0x0 DUP1 REVERT JUMPDEST POP GAS STATICCALL ISZERO DUP1 ISZERO PUSH2 0x81AB JUMPI RETURNDATASIZE PUSH1 0x0 DUP1 RETURNDATACOPY RETURNDATASIZE PUSH1 0x0 REVERT JUMPDEST POP POP POP POP PUSH1 0x40 MLOAD RETURNDATASIZE PUSH1 0x1F NOT PUSH1 0x1F DUP3 ADD AND DUP3 ADD DUP1 PUSH1 0x40 MSTORE POP DUP2 ADD SWAP1 PUSH2 0x81CF SWAP2 SWAP1 PUSH2 0xBE11 JUMP JUMPDEST POP SWAP1 SWAP9 SWAP8 POP POP POP POP POP POP POP POP JUMP JUMPDEST PUSH1 0x60 DUP3 MLOAD PUSH1 0x2 EQ ISZERO PUSH2 0x81F5 JUMPI PUSH2 0x46CE DUP6 DUP6 DUP6 DUP6 PUSH2 0x995A JUMP JUMPDEST DUP3 MLOAD PUSH1 0x3 EQ ISZERO PUSH2 0x820B JUMPI PUSH2 0x46CE DUP6 DUP6 DUP6 DUP6 PUSH2 0x9AAC JUMP JUMPDEST PUSH1 0x40 MLOAD PUSH3 0x461BCD PUSH1 0xE5 SHL DUP2 MSTORE PUSH1 0x4 ADD PUSH2 0x79C7 SWAP1 PUSH2 0xCB38 JUMP JUMPDEST PUSH1 0x0 DUP1 JUMPDEST DUP3 MLOAD DUP2 LT ISZERO PUSH2 0x8270 JUMPI PUSH1 0x0 PUSH1 0x1 PUSH1 0x1 PUSH1 0xA0 SHL SUB AND DUP4 DUP3 DUP2 MLOAD DUP2 LT PUSH2 0x8247 JUMPI INVALID JUMPDEST PUSH1 0x20 MUL PUSH1 0x20 ADD ADD MLOAD PUSH1 0x1 PUSH1 0x1 PUSH1 0xA0 SHL SUB AND EQ ISZERO PUSH2 0x8268 JUMPI PUSH1 0x0 SWAP2 POP POP PUSH2 0x131E JUMP JUMPDEST PUSH1 0x1 ADD PUSH2 0x8227 JUMP JUMPDEST POP PUSH1 0x1 SWAP3 SWAP2 POP POP JUMP JUMPDEST PUSH1 0x60 PUSH1 0x2 DUP4 MLOAD LT ISZERO DUP1 ISZERO PUSH2 0x8291 JUMPI POP DUP2 MLOAD PUSH1 0x1 ADD DUP4 MLOAD EQ JUMPDEST PUSH2 0x82AD JUMPI PUSH1 0x40 MLOAD PUSH3 0x461BCD PUSH1 0xE5 SHL DUP2 MSTORE PUSH1 0x4 ADD PUSH2 0x79C7 SWAP1 PUSH2 0xCB48 JUMP JUMPDEST DUP2 MLOAD PUSH1 0x3 MUL DUP4 MLOAD PUSH1 0x14 MUL ADD PUSH1 0x1 PUSH1 0x1 PUSH1 0x40 SHL SUB DUP2 GT DUP1 ISZERO PUSH2 0x82CD JUMPI PUSH1 0x0 DUP1 REVERT JUMPDEST POP PUSH1 0x40 MLOAD SWAP1 DUP1 DUP3 MSTORE DUP1 PUSH1 0x1F ADD PUSH1 0x1F NOT AND PUSH1 0x20 ADD DUP3 ADD PUSH1 0x40 MSTORE DUP1 ISZERO PUSH2 0x82F8 JUMPI PUSH1 0x20 DUP3 ADD DUP2 DUP1 CALLDATASIZE DUP4 CALLDATACOPY ADD SWAP1 POP JUMPDEST POP SWAP1 POP PUSH1 0x20 DUP2 ADD PUSH1 0x0 JUMPDEST DUP5 MLOAD DUP2 LT ISZERO PUSH2 0x7737 JUMPI DUP1 ISZERO PUSH2 0x83A7 JUMPI PUSH1 0x0 DUP5 PUSH1 0x1 DUP4 SUB DUP2 MLOAD DUP2 LT PUSH2 0x8322 JUMPI INVALID JUMPDEST PUSH1 0x20 MUL PUSH1 0x20 ADD ADD MLOAD PUSH1 0x1 PUSH1 0x1 PUSH1 0xA0 SHL SUB AND PUSH4 0xDDCA3F43 PUSH1 0x40 MLOAD DUP2 PUSH4 0xFFFFFFFF AND PUSH1 0xE0 SHL DUP2 MSTORE PUSH1 0x4 ADD PUSH1 0x20 PUSH1 0x40 MLOAD DUP1 DUP4 SUB DUP2 DUP7 DUP1 EXTCODESIZE ISZERO DUP1 ISZERO PUSH2 0x8362 JUMPI PUSH1 0x0 DUP1 REVERT JUMPDEST POP GAS STATICCALL ISZERO DUP1 ISZERO PUSH2 0x8376 JUMPI RETURNDATASIZE PUSH1 0x0 DUP1 RETURNDATACOPY RETURNDATASIZE PUSH1 0x0 REVERT JUMPDEST POP POP POP POP PUSH1 0x40 MLOAD RETURNDATASIZE PUSH1 0x1F NOT PUSH1 0x1F DUP3 ADD AND DUP3 ADD DUP1 PUSH1 0x40 MSTORE POP DUP2 ADD SWAP1 PUSH2 0x839A SWAP2 SWAP1 PUSH2 0xBD93 JUMP JUMPDEST PUSH1 0xE8 SHL DUP4 MSTORE POP PUSH1 0x3 SWAP1 SWAP2 ADD SWAP1 JUMPDEST PUSH1 0x0 DUP6 DUP3 DUP2 MLOAD DUP2 LT PUSH2 0x83B5 JUMPI INVALID JUMPDEST PUSH1 0x20 SWAP1 DUP2 MUL SWAP2 SWAP1 SWAP2 ADD ADD MLOAD PUSH1 0x60 SHL DUP4 MSTORE POP PUSH1 0x14 SWAP1 SWAP2 ADD SWAP1 PUSH1 0x1 ADD PUSH2 0x8302 JUMP JUMPDEST PUSH1 0x20 DUP2 ADD MLOAD PUSH1 0x0 SWAP1 PUSH1 0x60 SWAP1 DUP2 SWAP1 PUSH1 0x1 PUSH1 0x1 PUSH1 0xE0 SHL SUB NOT DUP2 AND PUSH4 0x1577DA33 PUSH1 0xE0 SHL EQ PUSH2 0x8403 JUMPI PUSH1 0x0 SWAP4 POP POP PUSH2 0x842F JUMP JUMPDEST DUP5 MLOAD PUSH1 0x3 NOT DUP2 ADD PUSH1 0x4 DUP8 ADD SWAP1 DUP2 MSTORE SWAP6 PUSH2 0x8424 SWAP2 DUP2 ADD PUSH1 0x20 ADD SWAP1 PUSH1 0x24 ADD PUSH2 0xB8B3 JUMP JUMPDEST PUSH1 0x1 SWAP6 POP SWAP1 SWAP4 POP SWAP2 POP POP JUMPDEST SWAP2 SWAP4 SWAP1 SWAP3 POP JUMP JUMPDEST PUSH1 0x0 DUP3 DUP3 MUL DUP4 ISZERO DUP1 ISZERO SWAP1 PUSH2 0x8453 JUMPI POP DUP3 DUP5 DUP3 DUP2 PUSH2 0x844F JUMPI INVALID JUMPDEST DIV EQ ISZERO JUMPDEST ISZERO PUSH2 0x8462 JUMPI PUSH1 0x0 SWAP2 POP POP PUSH2 0x773A JUMP JUMPDEST PUSH8 0x6F05B59D3B20000 DUP2 ADD DUP2 DUP2 LT ISZERO PUSH2 0x8480 JUMPI PUSH1 0x0 SWAP3 POP POP POP PUSH2 0x773A JUMP JUMPDEST PUSH8 0xDE0B6B3A7640000 SWAP1 DIV SWAP5 SWAP4 POP POP POP POP JUMP JUMPDEST PUSH1 0x60 DUP2 MLOAD PUSH1 0x1 PUSH1 0x1 PUSH1 0x40 SHL SUB DUP2 GT DUP1 ISZERO PUSH2 0x84AC JUMPI PUSH1 0x0 DUP1 REVERT JUMPDEST POP PUSH1 0x40 MLOAD SWAP1 DUP1 DUP3 MSTORE DUP1 PUSH1 0x20 MUL PUSH1 0x20 ADD DUP3 ADD PUSH1 0x40 MSTORE DUP1 ISZERO PUSH2 0x84D6 JUMPI DUP2 PUSH1 0x20 ADD PUSH1 0x20 DUP3 MUL DUP1 CALLDATASIZE DUP4 CALLDATACOPY ADD SWAP1 POP JUMPDEST POP SWAP1 POP PUSH1 0x0 JUMPDEST DUP3 MLOAD DUP2 LT ISZERO PUSH2 0x3A91 JUMPI DUP3 PUSH1 0x1 DUP3 DUP6 MLOAD SUB SUB DUP2 MLOAD DUP2 LT PUSH2 0x84F7 JUMPI INVALID JUMPDEST PUSH1 0x20 MUL PUSH1 0x20 ADD ADD MLOAD DUP3 DUP3 DUP2 MLOAD DUP2 LT PUSH2 0x850B JUMPI INVALID JUMPDEST PUSH1 0x1 PUSH1 0x1 PUSH1 0xA0 SHL SUB SWAP1 SWAP3 AND PUSH1 0x20 SWAP3 DUP4 MUL SWAP2 SWAP1 SWAP2 ADD SWAP1 SWAP2 ADD MSTORE PUSH1 0x1 ADD PUSH2 0x84DC JUMP JUMPDEST PUSH1 0x60 DUP2 MLOAD PUSH1 0x1 PUSH1 0x1 PUSH1 0x40 SHL SUB DUP2 GT DUP1 ISZERO PUSH2 0x8544 JUMPI PUSH1 0x0 DUP1 REVERT JUMPDEST POP PUSH1 0x40 MLOAD SWAP1 DUP1 DUP3 MSTORE DUP1 PUSH1 0x20 MUL PUSH1 0x20 ADD DUP3 ADD PUSH1 0x40 MSTORE DUP1 ISZERO PUSH2 0x856E JUMPI DUP2 PUSH1 0x20 ADD PUSH1 0x20 DUP3 MUL DUP1 CALLDATASIZE DUP4 CALLDATACOPY ADD SWAP1 POP JUMPDEST POP SWAP1 POP PUSH1 0x0 JUMPDEST DUP3 MLOAD DUP2 LT ISZERO PUSH2 0x3A91 JUMPI DUP3 PUSH1 0x1 DUP3 DUP6 MLOAD SUB SUB DUP2 MLOAD DUP2 LT PUSH2 0x858F JUMPI INVALID JUMPDEST PUSH1 0x20 MUL PUSH1 0x20 ADD ADD MLOAD DUP3 DUP3 DUP2 MLOAD DUP2 LT PUSH2 0x85A3 JUMPI INVALID JUMPDEST PUSH1 0x1 PUSH1 0x1 PUSH1 0xA0 SHL SUB SWAP1 SWAP3 AND PUSH1 0x20 SWAP3 DUP4 MUL SWAP2 SWAP1 SWAP2 ADD SWAP1 SWAP2 ADD MSTORE PUSH1 0x1 ADD PUSH2 0x8574 JUMP JUMPDEST PUSH1 0x0 DUP1 PUSH1 0x0 DUP6 DUP1 PUSH1 0x20 ADD SWAP1 MLOAD DUP2 ADD SWAP1 PUSH2 0x85DC SWAP2 SWAP1 PUSH2 0xB1AE JUMP JUMPDEST SWAP2 POP SWAP2 POP PUSH1 0x0 DUP6 DUP1 PUSH1 0x20 ADD SWAP1 MLOAD DUP2 ADD SWAP1 PUSH2 0x85F6 SWAP2 SWAP1 PUSH2 0xB190 JUMP JUMPDEST SWAP1 POP ADDRESS PUSH4 0xE8E4AF09 DUP4 DUP6 DUP5 PUSH2 0x860A DUP11 PUSH2 0x9CF0 JUMP JUMPDEST PUSH1 0x40 MLOAD DUP6 PUSH4 0xFFFFFFFF AND PUSH1 0xE0 SHL DUP2 MSTORE PUSH1 0x4 ADD PUSH2 0x8629 SWAP5 SWAP4 SWAP3 SWAP2 SWAP1 PUSH2 0xC6FA JUMP JUMPDEST PUSH1 0x0 PUSH1 0x40 MLOAD DUP1 DUP4 SUB DUP2 DUP7 DUP1 EXTCODESIZE ISZERO DUP1 ISZERO PUSH2 0x8641 JUMPI PUSH1 0x0 DUP1 REVERT JUMPDEST POP GAS STATICCALL SWAP3 POP POP POP DUP1 ISZERO PUSH2 0x8676 JUMPI POP PUSH1 0x40 MLOAD RETURNDATASIZE PUSH1 0x0 DUP3 RETURNDATACOPY PUSH1 0x1F RETURNDATASIZE SWAP1 DUP2 ADD PUSH1 0x1F NOT AND DUP3 ADD PUSH1 0x40 MSTORE PUSH2 0x8673 SWAP2 SWAP1 DUP2 ADD SWAP1 PUSH2 0xB87F JUMP JUMPDEST PUSH1 0x1 JUMPDEST PUSH2 0x86B7 JUMPI RETURNDATASIZE DUP1 DUP1 ISZERO PUSH2 0x86A4 JUMPI PUSH1 0x40 MLOAD SWAP2 POP PUSH1 0x1F NOT PUSH1 0x3F RETURNDATASIZE ADD AND DUP3 ADD PUSH1 0x40 MSTORE RETURNDATASIZE DUP3 MSTORE RETURNDATASIZE PUSH1 0x0 PUSH1 0x20 DUP5 ADD RETURNDATACOPY PUSH2 0x86A9 JUMP JUMPDEST PUSH1 0x60 SWAP2 POP JUMPDEST POP PUSH1 0x0 SWAP5 POP POP POP POP POP PUSH2 0x3CB5 JUMP JUMPDEST DUP1 PUSH1 0x0 DUP2 MLOAD DUP2 LT PUSH2 0x86C4 JUMPI INVALID JUMPDEST PUSH1 0x20 MUL PUSH1 0x20 ADD ADD MLOAD SWAP5 POP POP POP POP POP PUSH2 0x3CB5 JUMP JUMPDEST PUSH1 0x60 DUP2 MLOAD PUSH1 0x1 PUSH1 0x1 PUSH1 0x40 SHL SUB DUP2 GT DUP1 ISZERO PUSH2 0x86F0 JUMPI PUSH1 0x0 DUP1 REVERT JUMPDEST POP PUSH1 0x40 MLOAD SWAP1 DUP1 DUP3 MSTORE DUP1 PUSH1 0x20 MUL PUSH1 0x20 ADD DUP3 ADD PUSH1 0x40 MSTORE DUP1 ISZERO PUSH2 0x871A JUMPI DUP2 PUSH1 0x20 ADD PUSH1 0x20 DUP3 MUL DUP1 CALLDATASIZE DUP4 CALLDATACOPY ADD SWAP1 POP JUMPDEST POP SWAP1 POP DUP2 MLOAD PUSH1 0x0 EQ ISZERO PUSH2 0x872C JUMPI PUSH2 0x773A JUMP JUMPDEST PUSH1 0x0 PUSH2 0x875D DUP5 PUSH1 0x0 ADD MLOAD DUP6 PUSH1 0x20 ADD MLOAD DUP6 PUSH1 0x0 DUP2 MLOAD DUP2 LT PUSH2 0x8748 JUMPI INVALID JUMPDEST PUSH1 0x20 MUL PUSH1 0x20 ADD ADD MLOAD DUP8 PUSH1 0x40 ADD MLOAD PUSH4 0xFFFFFFFF AND JUMP JUMPDEST SWAP1 POP DUP1 PUSH2 0x876A JUMPI POP PUSH2 0x773A JUMP JUMPDEST PUSH1 0x0 PUSH2 0x8787 DUP6 PUSH1 0x20 ADD MLOAD DUP7 PUSH1 0x0 ADD MLOAD DUP5 DUP9 PUSH1 0x40 ADD MLOAD PUSH4 0xFFFFFFFF AND JUMP JUMPDEST SWAP1 POP DUP1 PUSH2 0x8795 JUMPI POP POP PUSH2 0x773A JUMP JUMPDEST PUSH1 0x0 JUMPDEST DUP5 MLOAD DUP2 LT ISZERO PUSH2 0x88E0 JUMPI PUSH1 0x0 DUP1 JUMPDEST PUSH1 0x5 DUP2 LT ISZERO PUSH2 0x8889 JUMPI PUSH2 0x87CC DUP8 DUP5 DUP2 MLOAD DUP2 LT PUSH2 0x87BD JUMPI INVALID JUMPDEST PUSH1 0x20 MUL PUSH1 0x20 ADD ADD MLOAD DUP6 DUP8 PUSH2 0x9D31 JUMP JUMPDEST SWAP5 POP DUP5 PUSH2 0x87D8 JUMPI PUSH2 0x8889 JUMP JUMPDEST PUSH2 0x87E7 PUSH2 0x2715 PUSH2 0x2710 DUP8 PUSH2 0x9D31 JUMP JUMPDEST SWAP5 POP DUP5 PUSH2 0x87F3 JUMPI PUSH2 0x8889 JUMP JUMPDEST PUSH1 0x0 PUSH2 0x8810 DUP10 PUSH1 0x20 ADD MLOAD DUP11 PUSH1 0x0 ADD MLOAD DUP9 DUP13 PUSH1 0x40 ADD MLOAD PUSH4 0xFFFFFFFF AND JUMP JUMPDEST SWAP1 POP DUP1 PUSH2 0x881D JUMPI POP PUSH2 0x8889 JUMP JUMPDEST DUP1 SWAP5 POP DUP8 DUP5 DUP2 MLOAD DUP2 LT PUSH2 0x882C JUMPI INVALID JUMPDEST PUSH1 0x20 MUL PUSH1 0x20 ADD ADD MLOAD DUP6 LT PUSH2 0x8880 JUMPI DUP8 DUP5 DUP2 MLOAD DUP2 LT PUSH2 0x8846 JUMPI INVALID JUMPDEST PUSH1 0x20 MUL PUSH1 0x20 ADD ADD MLOAD PUSH2 0x2710 DUP10 DUP7 DUP2 MLOAD DUP2 LT PUSH2 0x885D JUMPI INVALID JUMPDEST PUSH1 0x20 MUL PUSH1 0x20 ADD ADD MLOAD DUP8 SUB MUL DUP2 PUSH2 0x886F JUMPI INVALID JUMPDEST DIV SWAP3 POP PUSH1 0x5 DUP4 GT PUSH2 0x8880 JUMPI POP PUSH2 0x8889 JUMP JUMPDEST POP PUSH1 0x1 ADD PUSH2 0x87A5 JUMP JUMPDEST POP DUP1 ISZERO DUP1 PUSH2 0x8897 JUMPI POP PUSH1 0x5 DUP2 GT JUMPDEST ISZERO PUSH2 0x88A2 JUMPI POP PUSH2 0x88E0 JUMP JUMPDEST PUSH2 0x88C0 DUP7 DUP4 DUP2 MLOAD DUP2 LT PUSH2 0x88B1 JUMPI INVALID JUMPDEST PUSH1 0x20 MUL PUSH1 0x20 ADD ADD MLOAD DUP5 DUP7 PUSH2 0x9D31 JUMP JUMPDEST DUP6 DUP4 DUP2 MLOAD DUP2 LT PUSH2 0x88CC JUMPI INVALID JUMPDEST PUSH1 0x20 SWAP1 DUP2 MUL SWAP2 SWAP1 SWAP2 ADD ADD MSTORE POP PUSH1 0x1 ADD PUSH2 0x8798 JUMP JUMPDEST POP POP POP SWAP3 SWAP2 POP POP JUMP JUMPDEST PUSH1 0x40 DUP5 ADD MLOAD DUP2 MLOAD PUSH1 0x60 SWAP2 SWAP1 DUP3 DUP2 PUSH1 0x1 PUSH1 0x1 PUSH1 0x40 SHL SUB DUP2 GT DUP1 ISZERO PUSH2 0x890B JUMPI PUSH1 0x0 DUP1 REVERT JUMPDEST POP PUSH1 0x40 MLOAD SWAP1 DUP1 DUP3 MSTORE DUP1 PUSH1 0x20 MUL PUSH1 0x20 ADD DUP3 ADD PUSH1 0x40 MSTORE DUP1 ISZERO PUSH2 0x8935 JUMPI DUP2 PUSH1 0x20 ADD PUSH1 0x20 DUP3 MUL DUP1 CALLDATASIZE DUP4 CALLDATACOPY ADD SWAP1 POP JUMPDEST POP SWAP1 POP DUP8 PUSH1 0x0 ADD MLOAD PUSH1 0x1 PUSH1 0x1 PUSH1 0xA0 SHL SUB AND DUP8 PUSH1 0x1 PUSH1 0x1 PUSH1 0xA0 SHL SUB AND EQ DUP1 ISZERO PUSH2 0x8972 JUMPI POP DUP8 PUSH1 0x40 ADD MLOAD PUSH1 0x1 PUSH1 0x1 PUSH1 0xA0 SHL SUB AND DUP7 PUSH1 0x1 PUSH1 0x1 PUSH1 0xA0 SHL SUB AND EQ JUMPDEST ISZERO PUSH2 0x8A3B JUMPI PUSH1 0x0 JUMPDEST DUP3 DUP2 LT ISZERO PUSH2 0x8A30 JUMPI DUP4 PUSH1 0x1 PUSH1 0x1 PUSH1 0xA0 SHL SUB AND PUSH4 0xB0E38900 DUP8 DUP4 DUP2 MLOAD DUP2 LT PUSH2 0x899D JUMPI INVALID JUMPDEST PUSH1 0x20 MUL PUSH1 0x20 ADD ADD MLOAD PUSH1 0x40 MLOAD DUP3 PUSH4 0xFFFFFFFF AND PUSH1 0xE0 SHL DUP2 MSTORE PUSH1 0x4 ADD PUSH2 0x89C1 SWAP2 SWAP1 PUSH2 0xC9AA JUMP JUMPDEST PUSH1 0x20 PUSH1 0x40 MLOAD DUP1 DUP4 SUB DUP2 DUP7 DUP1 EXTCODESIZE ISZERO DUP1 ISZERO PUSH2 0x89D9 JUMPI PUSH1 0x0 DUP1 REVERT JUMPDEST POP GAS STATICCALL ISZERO DUP1 ISZERO PUSH2 0x89ED JUMPI RETURNDATASIZE PUSH1 0x0 DUP1 RETURNDATACOPY RETURNDATASIZE PUSH1 0x0 REVERT JUMPDEST POP POP POP POP PUSH1 0x40 MLOAD RETURNDATASIZE PUSH1 0x1F NOT PUSH1 0x1F DUP3 ADD AND DUP3 ADD DUP1 PUSH1 0x40 MSTORE POP DUP2 ADD SWAP1 PUSH2 0x8A11 SWAP2 SWAP1 PUSH2 0xB92E JUMP JUMPDEST DUP3 DUP3 DUP2 MLOAD DUP2 LT PUSH2 0x8A1D JUMPI INVALID JUMPDEST PUSH1 0x20 SWAP1 DUP2 MUL SWAP2 SWAP1 SWAP2 ADD ADD MSTORE PUSH1 0x1 ADD PUSH2 0x897A JUMP JUMPDEST POP SWAP3 POP PUSH2 0x1ACF SWAP2 POP POP JUMP JUMPDEST DUP8 PUSH1 0x40 ADD MLOAD PUSH1 0x1 PUSH1 0x1 PUSH1 0xA0 SHL SUB AND DUP8 PUSH1 0x1 PUSH1 0x1 PUSH1 0xA0 SHL SUB AND EQ DUP1 ISZERO PUSH2 0x8A6C JUMPI POP DUP8 MLOAD PUSH1 0x1 PUSH1 0x1 PUSH1 0xA0 SHL SUB DUP8 DUP2 AND SWAP2 AND EQ JUMPDEST ISZERO PUSH2 0x8B2A JUMPI PUSH1 0x0 JUMPDEST DUP3 DUP2 LT ISZERO PUSH2 0x8A30 JUMPI DUP4 PUSH1 0x1 PUSH1 0x1 PUSH1 0xA0 SHL SUB AND PUSH4 0xBB2952FC DUP8 DUP4 DUP2 MLOAD DUP2 LT PUSH2 0x8A97 JUMPI INVALID JUMPDEST PUSH1 0x20 MUL PUSH1 0x20 ADD ADD MLOAD PUSH1 0x40 MLOAD DUP3 PUSH4 0xFFFFFFFF AND PUSH1 0xE0 SHL DUP2 MSTORE PUSH1 0x4 ADD PUSH2 0x8ABB SWAP2 SWAP1 PUSH2 0xC9AA JUMP JUMPDEST PUSH1 0x20 PUSH1 0x40 MLOAD DUP1 DUP4 SUB DUP2 DUP7 DUP1 EXTCODESIZE ISZERO DUP1 ISZERO PUSH2 0x8AD3 JUMPI PUSH1 0x0 DUP1 REVERT JUMPDEST POP GAS STATICCALL ISZERO DUP1 ISZERO PUSH2 0x8AE7 JUMPI RETURNDATASIZE PUSH1 0x0 DUP1 RETURNDATACOPY RETURNDATASIZE PUSH1 0x0 REVERT JUMPDEST POP POP POP POP PUSH1 0x40 MLOAD RETURNDATASIZE PUSH1 0x1F NOT PUSH1 0x1F DUP3 ADD AND DUP3 ADD DUP1 PUSH1 0x40 MSTORE POP DUP2 ADD SWAP1 PUSH2 0x8B0B SWAP2 SWAP1 PUSH2 0xB92E JUMP JUMPDEST DUP3 DUP3 DUP2 MLOAD DUP2 LT PUSH2 0x8B17 JUMPI INVALID JUMPDEST PUSH1 0x20 SWAP1 DUP2 MUL SWAP2 SWAP1 SWAP2 ADD ADD MSTORE PUSH1 0x1 ADD PUSH2 0x8A74 JUMP JUMPDEST SWAP8 SWAP7 POP POP POP POP POP POP POP JUMP JUMPDEST PUSH1 0x0 PUSH2 0x1ACF DUP4 PUSH2 0x7D52 PUSH2 0x8B49 DUP3 PUSH1 0x1 PUSH2 0x989F JUMP JUMPDEST PUSH2 0x8B53 DUP9 DUP8 PUSH2 0x9823 JUMP JUMPDEST SWAP1 PUSH2 0x9859 JUMP JUMPDEST PUSH1 0x0 PUSH1 0x12 SWAP1 POP PUSH1 0x0 PUSH1 0x60 DUP4 PUSH1 0x1 PUSH1 0x1 PUSH1 0xA0 SHL SUB AND PUSH1 0x40 MLOAD DUP1 PUSH1 0x40 ADD PUSH1 0x40 MSTORE DUP1 PUSH1 0x4 DUP2 MSTORE PUSH1 0x20 ADD PUSH4 0x313CE567 PUSH1 0xE0 SHL DUP2 MSTORE POP PUSH1 0x40 MLOAD PUSH2 0x8B97 SWAP2 SWAP1 PUSH2 0xC675 JUMP JUMPDEST PUSH1 0x0 PUSH1 0x40 MLOAD DUP1 DUP4 SUB DUP2 DUP6 GAS STATICCALL SWAP2 POP POP RETURNDATASIZE DUP1 PUSH1 0x0 DUP2 EQ PUSH2 0x8BD2 JUMPI PUSH1 0x40 MLOAD SWAP2 POP PUSH1 0x1F NOT PUSH1 0x3F RETURNDATASIZE ADD AND DUP3 ADD PUSH1 0x40 MSTORE RETURNDATASIZE DUP3 MSTORE RETURNDATASIZE PUSH1 0x0 PUSH1 0x20 DUP5 ADD RETURNDATACOPY PUSH2 0x8BD7 JUMP JUMPDEST PUSH1 0x60 SWAP2 POP JUMPDEST POP SWAP2 POP SWAP2 POP DUP2 DUP1 ISZERO PUSH2 0x8BEB JUMPI POP PUSH1 0x20 DUP2 MLOAD LT ISZERO JUMPDEST ISZERO PUSH2 0x8BFE JUMPI PUSH2 0x8BFB DUP2 PUSH1 0x0 PUSH2 0x9D89 JUMP JUMPDEST SWAP3 POP JUMPDEST POP POP SWAP2 SWAP1 POP JUMP JUMPDEST PUSH1 0x0 DUP1 PUSH1 0x60 DUP6 DUP1 PUSH1 0x20 ADD SWAP1 MLOAD DUP2 ADD SWAP1 PUSH2 0x8C1E SWAP2 SWAP1 PUSH2 0xB2F0 JUMP JUMPDEST SWAP1 SWAP3 POP SWAP1 POP PUSH1 0x0 PUSH1 0x60 ADDRESS PUSH4 0x7B6B3CA5 PUSH1 0xE1 SHL DUP6 DUP6 PUSH2 0x8C3B DUP11 PUSH2 0x9CF0 JUMP JUMPDEST PUSH1 0x40 MLOAD PUSH1 0x24 ADD PUSH2 0x8C4D SWAP4 SWAP3 SWAP2 SWAP1 PUSH2 0xC83A JUMP JUMPDEST PUSH1 0x40 DUP1 MLOAD PUSH1 0x1F NOT DUP2 DUP5 SUB ADD DUP2 MSTORE SWAP2 DUP2 MSTORE PUSH1 0x20 DUP3 ADD DUP1 MLOAD PUSH1 0x1 PUSH1 0x1 PUSH1 0xE0 SHL SUB AND PUSH1 0x1 PUSH1 0x1 PUSH1 0xE0 SHL SUB NOT SWAP1 SWAP5 AND SWAP4 SWAP1 SWAP4 OR SWAP1 SWAP3 MSTORE SWAP1 MLOAD PUSH2 0x8C8B SWAP2 SWAP1 PUSH2 0xC675 JUMP JUMPDEST PUSH1 0x0 PUSH1 0x40 MLOAD DUP1 DUP4 SUB DUP2 DUP6 GAS STATICCALL SWAP2 POP POP RETURNDATASIZE DUP1 PUSH1 0x0 DUP2 EQ PUSH2 0x8CC6 JUMPI PUSH1 0x40 MLOAD SWAP2 POP PUSH1 0x1F NOT PUSH1 0x3F RETURNDATASIZE ADD AND DUP3 ADD PUSH1 0x40 MSTORE RETURNDATASIZE DUP3 MSTORE RETURNDATASIZE PUSH1 0x0 PUSH1 0x20 DUP5 ADD RETURNDATACOPY PUSH2 0x8CCB JUMP JUMPDEST PUSH1 0x60 SWAP2 POP JUMPDEST POP SWAP2 POP SWAP2 POP DUP2 PUSH2 0x8CE2 JUMPI PUSH1 0x0 SWAP5 POP POP POP POP POP PUSH2 0x3CB5 JUMP JUMPDEST DUP1 DUP1 PUSH1 0x20 ADD SWAP1 MLOAD DUP2 ADD SWAP1 PUSH2 0x8CF6 SWAP2 SWAP1 PUSH2 0xB87F JUMP JUMPDEST PUSH1 0x0 DUP2 MLOAD DUP2 LT PUSH2 0x8D02 JUMPI INVALID JUMPDEST PUSH1 0x20 MUL PUSH1 0x20 ADD ADD MLOAD SWAP5 POP POP POP POP POP SWAP4 SWAP3 POP POP POP JUMP JUMPDEST PUSH1 0x0 DUP1 PUSH1 0x0 DUP1 DUP5 PUSH1 0x1 PUSH1 0x1 PUSH1 0xA0 SHL SUB AND PUSH4 0xD9638D36 DUP12 PUSH1 0x20 ADD MLOAD PUSH1 0x40 MLOAD DUP3 PUSH4 0xFFFFFFFF AND PUSH1 0xE0 SHL DUP2 MSTORE PUSH1 0x4 ADD PUSH2 0x8D4D SWAP2 SWAP1 PUSH2 0xC9AA JUMP JUMPDEST PUSH1 0xA0 PUSH1 0x40 MLOAD DUP1 DUP4 SUB DUP2 DUP7 DUP1 EXTCODESIZE ISZERO DUP1 ISZERO PUSH2 0x8D65 JUMPI PUSH1 0x0 DUP1 REVERT JUMPDEST POP GAS STATICCALL ISZERO DUP1 ISZERO PUSH2 0x8D79 JUMPI RETURNDATASIZE PUSH1 0x0 DUP1 RETURNDATACOPY RETURNDATASIZE PUSH1 0x0 REVERT JUMPDEST POP POP POP POP PUSH1 0x40 MLOAD RETURNDATASIZE PUSH1 0x1F NOT PUSH1 0x1F DUP3 ADD AND DUP3 ADD DUP1 PUSH1 0x40 MSTORE POP DUP2 ADD SWAP1 PUSH2 0x8D9D SWAP2 SWAP1 PUSH2 0xBE54 JUMP JUMPDEST SWAP5 POP SWAP5 POP POP POP SWAP3 POP DUP10 PUSH1 0x40 ADD MLOAD PUSH1 0x1 PUSH1 0x1 PUSH1 0xA0 SHL SUB AND DUP9 PUSH1 0x1 PUSH1 0x1 PUSH1 0xA0 SHL SUB AND EQ ISZERO PUSH2 0x8EB4 JUMPI PUSH1 0x0 DUP8 SWAP1 POP PUSH1 0x0 PUSH2 0x8E4D DUP9 PUSH1 0x1 PUSH1 0x1 PUSH1 0xA0 SHL SUB AND PUSH4 0x568D4B6F PUSH1 0x40 MLOAD DUP2 PUSH4 0xFFFFFFFF AND PUSH1 0xE0 SHL DUP2 MSTORE PUSH1 0x4 ADD PUSH1 0x20 PUSH1 0x40 MLOAD DUP1 DUP4 SUB DUP2 DUP7 DUP1 EXTCODESIZE ISZERO DUP1 ISZERO PUSH2 0x8E06 JUMPI PUSH1 0x0 DUP1 REVERT JUMPDEST POP GAS STATICCALL ISZERO DUP1 ISZERO PUSH2 0x8E1A JUMPI RETURNDATASIZE PUSH1 0x0 DUP1 RETURNDATACOPY RETURNDATASIZE PUSH1 0x0 REVERT JUMPDEST POP POP POP POP PUSH1 0x40 MLOAD RETURNDATASIZE PUSH1 0x1F NOT PUSH1 0x1F DUP3 ADD AND DUP3 ADD DUP1 PUSH1 0x40 MSTORE POP DUP2 ADD SWAP1 PUSH2 0x8E3E SWAP2 SWAP1 PUSH2 0xB92E JUMP JUMPDEST PUSH8 0xDE0B6B3A7640000 SWAP1 PUSH2 0x989F JUMP JUMPDEST SWAP1 POP PUSH1 0x0 PUSH2 0x8E67 DUP3 PUSH2 0x7D52 DUP6 PUSH8 0xDE0B6B3A7640000 PUSH2 0x9823 JUMP JUMPDEST SWAP1 POP PUSH1 0x0 PUSH2 0x8E85 PUSH12 0x33B2E3C9FD0803CE8000000 PUSH2 0x7CAB DUP10 DUP6 PUSH2 0x9859 JUMP JUMPDEST SWAP1 POP DUP6 DUP2 LT PUSH2 0x8E9E JUMPI PUSH1 0x0 SWAP8 POP POP POP POP POP POP POP POP PUSH2 0x4150 JUMP JUMPDEST PUSH1 0x0 PUSH2 0x7D66 PUSH1 0x1 PUSH2 0x8B53 DUP6 PUSH5 0xE8D4A51000 PUSH2 0x9875 JUMP JUMPDEST DUP10 PUSH1 0x40 ADD MLOAD PUSH1 0x1 PUSH1 0x1 PUSH1 0xA0 SHL SUB AND DUP10 PUSH1 0x1 PUSH1 0x1 PUSH1 0xA0 SHL SUB AND EQ ISZERO PUSH2 0x8F99 JUMPI PUSH1 0x0 PUSH2 0x8EE3 DUP9 PUSH5 0xE8D4A51000 PUSH2 0x9823 JUMP JUMPDEST SWAP1 POP PUSH1 0x0 PUSH2 0x8F23 DUP9 PUSH1 0x1 PUSH1 0x1 PUSH1 0xA0 SHL SUB AND PUSH4 0xFAE036D5 PUSH1 0x40 MLOAD DUP2 PUSH4 0xFFFFFFFF AND PUSH1 0xE0 SHL DUP2 MSTORE PUSH1 0x4 ADD PUSH1 0x20 PUSH1 0x40 MLOAD DUP1 DUP4 SUB DUP2 DUP7 DUP1 EXTCODESIZE ISZERO DUP1 ISZERO PUSH2 0x7E1D JUMPI PUSH1 0x0 DUP1 REVERT JUMPDEST SWAP1 POP PUSH1 0x0 PUSH2 0x8F3D PUSH8 0xDE0B6B3A7640000 PUSH2 0x7D52 DUP6 DUP6 PUSH2 0x9823 JUMP JUMPDEST SWAP1 POP DUP6 DUP2 GT ISZERO PUSH2 0x8F56 JUMPI PUSH1 0x0 SWAP7 POP POP POP POP POP POP POP PUSH2 0x4150 JUMP JUMPDEST PUSH1 0x0 PUSH2 0x8F72 PUSH12 0x33B2E3C9FD0803CE8000000 PUSH2 0x7CAB DUP10 DUP6 PUSH2 0x989F JUMP JUMPDEST SWAP1 POP DUP5 DUP2 GT PUSH2 0x8F8B JUMPI PUSH1 0x0 SWAP8 POP POP POP POP POP POP POP POP PUSH2 0x4150 JUMP JUMPDEST POP SWAP6 POP PUSH2 0x4150 SWAP5 POP POP POP POP POP JUMP JUMPDEST POP PUSH1 0x0 SWAP10 SWAP9 POP POP POP POP POP POP POP POP POP JUMP JUMPDEST PUSH1 0x0 DUP1 PUSH1 0x0 PUSH1 0x60 DUP7 DUP1 PUSH1 0x20 ADD SWAP1 MLOAD DUP2 ADD SWAP1 PUSH2 0x8FC4 SWAP2 SWAP1 PUSH2 0xB249 JUMP JUMPDEST SWAP2 SWAP5 POP SWAP3 POP SWAP1 POP PUSH1 0x0 PUSH1 0x60 ADDRESS PUSH4 0x4092E6B1 PUSH1 0xE0 SHL DUP7 DUP7 DUP7 PUSH2 0x8FE4 DUP13 PUSH2 0x9CF0 JUMP JUMPDEST PUSH1 0x40 MLOAD PUSH1 0x24 ADD PUSH2 0x8FF7 SWAP5 SWAP4 SWAP3 SWAP2 SWAP1 PUSH2 0xC761 JUMP JUMPDEST PUSH1 0x40 DUP1 MLOAD PUSH1 0x1F NOT DUP2 DUP5 SUB ADD DUP2 MSTORE SWAP2 DUP2 MSTORE PUSH1 0x20 DUP3 ADD DUP1 MLOAD PUSH1 0x1 PUSH1 0x1 PUSH1 0xE0 SHL SUB AND PUSH1 0x1 PUSH1 0x1 PUSH1 0xE0 SHL SUB NOT SWAP1 SWAP5 AND SWAP4 SWAP1 SWAP4 OR SWAP1 SWAP3 MSTORE SWAP1 MLOAD PUSH2 0x9035 SWAP2 SWAP1 PUSH2 0xC675 JUMP JUMPDEST PUSH1 0x0 PUSH1 0x40 MLOAD DUP1 DUP4 SUB DUP2 DUP6 GAS STATICCALL SWAP2 POP POP RETURNDATASIZE DUP1 PUSH1 0x0 DUP2 EQ PUSH2 0x9070 JUMPI PUSH1 0x40 MLOAD SWAP2 POP PUSH1 0x1F NOT PUSH1 0x3F RETURNDATASIZE ADD AND DUP3 ADD PUSH1 0x40 MSTORE RETURNDATASIZE DUP3 MSTORE RETURNDATASIZE PUSH1 0x0 PUSH1 0x20 DUP5 ADD RETURNDATACOPY PUSH2 0x9075 JUMP JUMPDEST PUSH1 0x60 SWAP2 POP JUMPDEST POP SWAP2 POP SWAP2 POP DUP2 PUSH2 0x908D JUMPI PUSH1 0x0 SWAP6 POP POP POP POP POP POP PUSH2 0x3CB5 JUMP JUMPDEST DUP1 DUP1 PUSH1 0x20 ADD SWAP1 MLOAD DUP2 ADD SWAP1 PUSH2 0x90A1 SWAP2 SWAP1 PUSH2 0xB87F JUMP JUMPDEST PUSH1 0x0 DUP2 MLOAD DUP2 LT PUSH2 0x90AD JUMPI INVALID JUMPDEST PUSH1 0x20 MUL PUSH1 0x20 ADD ADD MLOAD SWAP6 POP POP POP POP POP POP SWAP4 SWAP3 POP POP POP JUMP JUMPDEST DUP2 MLOAD PUSH1 0x60 SWAP1 PUSH1 0x20 PUSH1 0x2 DUP5 ADD MUL DUP2 SUB SWAP1 DUP3 PUSH2 0x90DE DUP7 DUP5 DUP5 PUSH2 0x9D95 JUMP JUMPDEST SWAP1 POP PUSH2 0x90ED DUP2 PUSH1 0x0 PUSH1 0x20 PUSH2 0x9E2B JUMP JUMPDEST DUP1 DUP1 PUSH1 0x20 ADD SWAP1 MLOAD DUP2 ADD SWAP1 PUSH2 0x4150 SWAP2 SWAP1 PUSH2 0xB87F JUMP JUMPDEST PUSH1 0x0 JUMPDEST DUP2 MLOAD DUP2 LT ISZERO PUSH2 0x9147 JUMPI PUSH1 0x0 PUSH1 0x1 DUP3 DUP5 MLOAD SUB SUB PUSH1 0x20 MUL DUP5 MLOAD SUB SWAP1 POP PUSH1 0x0 DUP4 DUP4 DUP2 MLOAD DUP2 LT PUSH2 0x912C JUMPI INVALID JUMPDEST PUSH1 0x20 SWAP1 DUP2 MUL SWAP2 SWAP1 SWAP2 ADD ADD MLOAD SWAP2 DUP6 ADD SWAP2 SWAP1 SWAP2 MSTORE POP PUSH1 0x1 ADD PUSH2 0x9104 JUMP JUMPDEST POP POP POP JUMP JUMPDEST DUP1 MLOAD PUSH1 0x0 SWAP1 PUSH1 0x1 PUSH1 0x1 PUSH1 0xA0 SHL SUB DUP7 AND PUSH4 0x5E1E6325 DUP5 PUSH1 0x0 NOT DUP5 ADD DUP5 DUP2 LT PUSH2 0x916F JUMPI INVALID JUMPDEST PUSH1 0x20 MUL PUSH1 0x20 ADD ADD MLOAD DUP8 DUP8 PUSH1 0x40 MLOAD DUP5 PUSH4 0xFFFFFFFF AND PUSH1 0xE0 SHL DUP2 MSTORE PUSH1 0x4 ADD PUSH2 0x9197 SWAP4 SWAP3 SWAP2 SWAP1 PUSH2 0xCBFF JUMP JUMPDEST PUSH1 0x40 DUP1 MLOAD DUP1 DUP4 SUB DUP2 DUP7 DUP1 EXTCODESIZE ISZERO DUP1 ISZERO PUSH2 0x91AE JUMPI PUSH1 0x0 DUP1 REVERT JUMPDEST POP GAS STATICCALL ISZERO DUP1 ISZERO PUSH2 0x91C2 JUMPI RETURNDATASIZE PUSH1 0x0 DUP1 RETURNDATACOPY RETURNDATASIZE PUSH1 0x0 REVERT JUMPDEST POP POP POP POP PUSH1 0x40 MLOAD RETURNDATASIZE PUSH1 0x1F NOT PUSH1 0x1F DUP3 ADD AND DUP3 ADD DUP1 PUSH1 0x40 MSTORE POP DUP2 ADD SWAP1 PUSH2 0x8B2A SWAP2 SWAP1 PUSH2 0xBDB1 JUMP JUMPDEST PUSH1 0x0 DUP1 PUSH2 0x91F1 PUSH2 0xA600 JUMP JUMPDEST DUP6 DUP1 PUSH1 0x20 ADD SWAP1 MLOAD DUP2 ADD SWAP1 PUSH2 0x9205 SWAP2 SWAP1 PUSH2 0xBB5A JUMP JUMPDEST SWAP2 POP SWAP2 POP PUSH1 0x0 DUP6 DUP1 PUSH1 0x20 ADD SWAP1 MLOAD DUP2 ADD SWAP1 PUSH2 0x921F SWAP2 SWAP1 PUSH2 0xBB3C JUMP JUMPDEST SWAP1 POP PUSH1 0x0 PUSH1 0x60 ADDRESS PUSH4 0x205E01D7 PUSH1 0xE1 SHL DUP6 DUP8 DUP7 PUSH2 0x923A DUP13 PUSH2 0x9CF0 JUMP JUMPDEST PUSH1 0x40 MLOAD PUSH1 0x24 ADD PUSH2 0x8FF7 SWAP5 SWAP4 SWAP3 SWAP2 SWAP1 PUSH2 0xCB58 JUMP JUMPDEST PUSH1 0x0 DUP1 PUSH1 0x60 DUP7 PUSH1 0x1 PUSH1 0x1 PUSH1 0xA0 SHL SUB AND PUSH4 0x57A281DC DUP7 DUP7 PUSH1 0x40 MLOAD DUP4 PUSH4 0xFFFFFFFF AND PUSH1 0xE0 SHL DUP2 MSTORE PUSH1 0x4 ADD PUSH2 0x9280 SWAP3 SWAP2 SWAP1 PUSH2 0xC6AA JUMP JUMPDEST PUSH1 0x0 PUSH1 0x40 MLOAD DUP1 DUP4 SUB DUP2 DUP7 DUP1 EXTCODESIZE ISZERO DUP1 ISZERO PUSH2 0x9298 JUMPI PUSH1 0x0 DUP1 REVERT JUMPDEST POP GAS STATICCALL ISZERO DUP1 ISZERO PUSH2 0x92AC JUMPI RETURNDATASIZE PUSH1 0x0 DUP1 RETURNDATACOPY RETURNDATASIZE PUSH1 0x0 REVERT JUMPDEST POP POP POP POP PUSH1 0x40 MLOAD RETURNDATASIZE PUSH1 0x0 DUP3 RETURNDATACOPY PUSH1 0x1F RETURNDATASIZE SWAP1 DUP2 ADD PUSH1 0x1F NOT AND DUP3 ADD PUSH1 0x40 MSTORE PUSH2 0x92D4 SWAP2 SWAP1 DUP2 ADD SWAP1 PUSH2 0xB623 JUMP JUMPDEST SWAP1 POP PUSH1 0x1 SWAP2 POP DUP1 MLOAD PUSH1 0x0 EQ ISZERO PUSH2 0x936D JUMPI PUSH1 0x40 MLOAD PUSH4 0x15E8A077 PUSH1 0xE2 SHL DUP2 MSTORE PUSH1 0x1 PUSH1 0x1 PUSH1 0xA0 SHL SUB DUP9 AND SWAP1 PUSH4 0x57A281DC SWAP1 PUSH2 0x9312 SWAP1 DUP8 SWAP1 DUP10 SWAP1 PUSH1 0x4 ADD PUSH2 0xC6AA JUMP JUMPDEST PUSH1 0x0 PUSH1 0x40 MLOAD DUP1 DUP4 SUB DUP2 DUP7 DUP1 EXTCODESIZE ISZERO DUP1 ISZERO PUSH2 0x932A JUMPI PUSH1 0x0 DUP1 REVERT JUMPDEST POP GAS STATICCALL ISZERO DUP1 ISZERO PUSH2 0x933E JUMPI RETURNDATASIZE PUSH1 0x0 DUP1 RETURNDATACOPY RETURNDATASIZE PUSH1 0x0 REVERT JUMPDEST POP POP POP POP PUSH1 0x40 MLOAD RETURNDATASIZE PUSH1 0x0 DUP3 RETURNDATACOPY PUSH1 0x1F RETURNDATASIZE SWAP1 DUP2 ADD PUSH1 0x1F NOT AND DUP3 ADD PUSH1 0x40 MSTORE PUSH2 0x9366 SWAP2 SWAP1 DUP2 ADD SWAP1 PUSH2 0xB623 JUMP JUMPDEST SWAP1 POP PUSH1 0x0 SWAP2 POP JUMPDEST DUP1 MLOAD DUP7 LT PUSH2 0x9382 JUMPI PUSH1 0x0 DUP1 SWAP3 POP SWAP3 POP POP PUSH2 0x5EF3 JUMP JUMPDEST DUP1 DUP7 DUP2 MLOAD DUP2 LT PUSH2 0x938E JUMPI INVALID JUMPDEST PUSH1 0x20 MUL PUSH1 0x20 ADD ADD MLOAD SWAP3 POP POP SWAP5 POP SWAP5 SWAP3 POP POP POP JUMP JUMPDEST PUSH1 0x0 DUP1 PUSH1 0x0 DUP1 DUP7 DUP1 PUSH1 0x20 ADD SWAP1 MLOAD DUP2 ADD SWAP1 PUSH2 0x93BC SWAP2 SWAP1 PUSH2 0xB2AD JUMP JUMPDEST SWAP3 POP SWAP3 POP SWAP3 POP DUP1 ISZERO PUSH2 0x9460 JUMPI PUSH1 0x40 MLOAD PUSH4 0x3CD0243B PUSH1 0xE1 SHL DUP2 MSTORE PUSH1 0x1 PUSH1 0x1 PUSH1 0xA0 SHL SUB DUP4 AND SWAP1 PUSH4 0x79A04876 SWAP1 PUSH3 0x493E0 SWAP1 PUSH2 0x93FC SWAP1 PUSH1 0x0 SWAP1 DUP11 SWAP1 PUSH1 0x4 ADD PUSH2 0xC68F JUMP JUMPDEST PUSH1 0x40 DUP1 MLOAD DUP1 DUP4 SUB DUP2 DUP8 DUP1 EXTCODESIZE ISZERO DUP1 ISZERO PUSH2 0x9413 JUMPI PUSH1 0x0 DUP1 REVERT JUMPDEST POP DUP7 STATICCALL SWAP4 POP POP POP POP DUP1 ISZERO PUSH2 0x9444 JUMPI POP PUSH1 0x40 DUP1 MLOAD PUSH1 0x1F RETURNDATASIZE SWAP1 DUP2 ADD PUSH1 0x1F NOT AND DUP3 ADD SWAP1 SWAP3 MSTORE PUSH2 0x9441 SWAP2 DUP2 ADD SWAP1 PUSH2 0xBDE1 JUMP JUMPDEST PUSH1 0x1 JUMPDEST PUSH2 0x9454 JUMPI PUSH1 0x0 SWAP4 POP POP POP POP PUSH2 0x3CB5 JUMP JUMPDEST POP SWAP4 POP PUSH2 0x3CB5 SWAP3 POP POP POP JUMP JUMPDEST PUSH1 0x40 MLOAD PUSH4 0x66410A21 PUSH1 0xE0 SHL DUP2 MSTORE PUSH1 0x1 PUSH1 0x1 PUSH1 0xA0 SHL SUB DUP4 AND SWAP1 PUSH4 0x66410A21 SWAP1 PUSH3 0x493E0 SWAP1 PUSH2 0x93FC SWAP1 PUSH1 0x0 SWAP1 DUP11 SWAP1 PUSH1 0x4 ADD PUSH2 0xC68F JUMP JUMPDEST PUSH1 0x0 DUP1 PUSH2 0x949F PUSH2 0xA600 JUMP JUMPDEST DUP6 DUP1 PUSH1 0x20 ADD SWAP1 MLOAD DUP2 ADD SWAP1 PUSH2 0x94B3 SWAP2 SWAP1 PUSH2 0xBAC9 JUMP JUMPDEST PUSH1 0x40 DUP1 MLOAD PUSH1 0x1 DUP1 DUP3 MSTORE DUP2 DUP4 ADD SWAP1 SWAP3 MSTORE SWAP3 SWAP5 POP SWAP1 SWAP3 POP PUSH1 0x60 SWAP2 SWAP1 DUP2 PUSH1 0x20 ADD JUMPDEST PUSH2 0x94D9 PUSH2 0xA600 JUMP JUMPDEST DUP2 MSTORE PUSH1 0x20 ADD SWAP1 PUSH1 0x1 SWAP1 SUB SWAP1 DUP2 PUSH2 0x94D1 JUMPI SWAP1 POP POP SWAP1 POP DUP2 DUP2 PUSH1 0x0 DUP2 MLOAD DUP2 LT PUSH2 0x94FC JUMPI INVALID JUMPDEST PUSH1 0x20 SWAP1 DUP2 MUL SWAP2 SWAP1 SWAP2 ADD ADD MSTORE PUSH1 0x40 MLOAD PUSH4 0x26207F2D PUSH1 0xE2 SHL DUP2 MSTORE PUSH1 0x1 PUSH1 0x1 PUSH1 0xA0 SHL SUB DUP5 AND SWAP1 PUSH4 0x9881FCB4 SWAP1 PUSH2 0x9535 SWAP1 DUP9 SWAP1 DUP6 SWAP1 PUSH1 0x4 ADD PUSH2 0xCC4F JUMP JUMPDEST PUSH1 0x0 PUSH1 0x40 MLOAD DUP1 DUP4 SUB DUP2 DUP7 DUP1 EXTCODESIZE ISZERO DUP1 ISZERO PUSH2 0x954D JUMPI PUSH1 0x0 DUP1 REVERT JUMPDEST POP GAS STATICCALL ISZERO DUP1 ISZERO PUSH2 0x9561 JUMPI RETURNDATASIZE PUSH1 0x0 DUP1 RETURNDATACOPY RETURNDATASIZE PUSH1 0x0 REVERT JUMPDEST POP POP POP POP PUSH1 0x40 MLOAD RETURNDATASIZE PUSH1 0x0 DUP3 RETURNDATACOPY PUSH1 0x1F RETURNDATASIZE SWAP1 DUP2 ADD PUSH1 0x1F NOT AND DUP3 ADD PUSH1 0x40 MSTORE PUSH2 0x9589 SWAP2 SWAP1 DUP2 ADD SWAP1 PUSH2 0xB87F JUMP JUMPDEST PUSH1 0x1 DUP2 MLOAD DUP2 LT PUSH2 0x9595 JUMPI INVALID JUMPDEST PUSH1 0x20 MUL PUSH1 0x20 ADD ADD MLOAD SWAP4 POP POP POP POP SWAP4 SWAP3 POP POP POP JUMP JUMPDEST PUSH1 0x0 DUP1 PUSH1 0x0 DUP6 DUP1 PUSH1 0x20 ADD SWAP1 MLOAD DUP2 ADD SWAP1 PUSH2 0x95C2 SWAP2 SWAP1 PUSH2 0xB1AE JUMP JUMPDEST SWAP2 POP SWAP2 POP PUSH1 0x0 DUP6 DUP1 PUSH1 0x20 ADD SWAP1 MLOAD DUP2 ADD SWAP1 PUSH2 0x95DC SWAP2 SWAP1 PUSH2 0xB190 JUMP JUMPDEST SWAP1 POP ADDRESS PUSH4 0x30D6570D DUP4 DUP6 DUP5 PUSH2 0x860A DUP11 PUSH2 0x9CF0 JUMP JUMPDEST PUSH1 0x0 DUP1 PUSH1 0x60 DUP5 PUSH1 0x1 PUSH1 0x1 PUSH1 0xA0 SHL SUB AND PUSH4 0x70A08231 PUSH1 0xE0 SHL DUP6 PUSH1 0x40 MLOAD PUSH1 0x24 ADD PUSH2 0x9618 SWAP2 SWAP1 PUSH2 0xC681 JUMP JUMPDEST PUSH1 0x40 DUP1 MLOAD PUSH1 0x1F NOT DUP2 DUP5 SUB ADD DUP2 MSTORE SWAP2 DUP2 MSTORE PUSH1 0x20 DUP3 ADD DUP1 MLOAD PUSH1 0x1 PUSH1 0x1 PUSH1 0xE0 SHL SUB AND PUSH1 0x1 PUSH1 0x1 PUSH1 0xE0 SHL SUB NOT SWAP1 SWAP5 AND SWAP4 SWAP1 SWAP4 OR SWAP1 SWAP3 MSTORE SWAP1 MLOAD PUSH2 0x9656 SWAP2 SWAP1 PUSH2 0xC675 JUMP JUMPDEST PUSH1 0x0 PUSH1 0x40 MLOAD DUP1 DUP4 SUB DUP2 DUP6 GAS STATICCALL SWAP2 POP POP RETURNDATASIZE DUP1 PUSH1 0x0 DUP2 EQ PUSH2 0x9691 JUMPI PUSH1 0x40 MLOAD SWAP2 POP PUSH1 0x1F NOT PUSH1 0x3F RETURNDATASIZE ADD AND DUP3 ADD PUSH1 0x40 MSTORE RETURNDATASIZE DUP3 MSTORE RETURNDATASIZE PUSH1 0x0 PUSH1 0x20 DUP5 ADD RETURNDATACOPY PUSH2 0x9696 JUMP JUMPDEST PUSH1 0x60 SWAP2 POP JUMPDEST POP SWAP2 POP SWAP2 POP DUP2 DUP1 ISZERO PUSH2 0x96AA JUMPI POP PUSH1 0x20 DUP2 MLOAD LT ISZERO JUMPDEST ISZERO PUSH2 0x7737 JUMPI PUSH2 0x36E6 DUP2 PUSH1 0x0 PUSH2 0x9D89 JUMP JUMPDEST PUSH1 0x0 DUP1 PUSH1 0x0 DUP1 DUP7 DUP1 PUSH1 0x20 ADD SWAP1 MLOAD DUP2 ADD SWAP1 PUSH2 0x96D4 SWAP2 SWAP1 PUSH2 0xBAF9 JUMP JUMPDEST SWAP2 SWAP5 POP SWAP3 POP SWAP1 POP PUSH1 0x0 PUSH1 0x60 ADDRESS PUSH4 0x849489A1 PUSH1 0xE0 SHL DUP7 DUP7 DUP7 PUSH2 0x96F4 DUP13 PUSH2 0x9CF0 JUMP JUMPDEST PUSH1 0x40 MLOAD PUSH1 0x24 ADD PUSH2 0x8FF7 SWAP5 SWAP4 SWAP3 SWAP2 SWAP1 PUSH2 0xCA5E JUMP JUMPDEST PUSH1 0x0 DUP1 PUSH1 0x60 DUP6 PUSH1 0x1 PUSH1 0x1 PUSH1 0xA0 SHL SUB AND PUSH4 0xDD62ED3E PUSH1 0xE0 SHL DUP7 DUP7 PUSH1 0x40 MLOAD PUSH1 0x24 ADD PUSH2 0x9731 SWAP3 SWAP2 SWAP1 PUSH2 0xC6AA JUMP JUMPDEST PUSH1 0x40 DUP1 MLOAD PUSH1 0x1F NOT DUP2 DUP5 SUB ADD DUP2 MSTORE SWAP2 DUP2 MSTORE PUSH1 0x20 DUP3 ADD DUP1 MLOAD PUSH1 0x1 PUSH1 0x1 PUSH1 0xE0 SHL SUB AND PUSH1 0x1 PUSH1 0x1 PUSH1 0xE0 SHL SUB NOT SWAP1 SWAP5 AND SWAP4 SWAP1 SWAP4 OR SWAP1 SWAP3 MSTORE SWAP1 MLOAD PUSH2 0x976F SWAP2 SWAP1 PUSH2 0xC675 JUMP JUMPDEST PUSH1 0x0 PUSH1 0x40 MLOAD DUP1 DUP4 SUB DUP2 DUP6 GAS STATICCALL SWAP2 POP POP RETURNDATASIZE DUP1 PUSH1 0x0 DUP2 EQ PUSH2 0x97AA JUMPI PUSH1 0x40 MLOAD SWAP2 POP PUSH1 0x1F NOT PUSH1 0x3F RETURNDATASIZE ADD AND DUP3 ADD PUSH1 0x40 MSTORE RETURNDATASIZE DUP3 MSTORE RETURNDATASIZE PUSH1 0x0 PUSH1 0x20 DUP5 ADD RETURNDATACOPY PUSH2 0x97AF JUMP JUMPDEST PUSH1 0x60 SWAP2 POP JUMPDEST POP SWAP2 POP SWAP2 POP DUP2 DUP1 ISZERO PUSH2 0x97C3 JUMPI POP PUSH1 0x20 DUP2 MLOAD LT ISZERO JUMPDEST ISZERO PUSH2 0x22FD JUMPI PUSH2 0x4150 DUP2 PUSH1 0x0 PUSH2 0x9D89 JUMP JUMPDEST PUSH1 0x0 DUP1 PUSH1 0x0 DUP6 DUP1 PUSH1 0x20 ADD SWAP1 MLOAD DUP2 ADD SWAP1 PUSH2 0x97EC SWAP2 SWAP1 PUSH2 0xB1AE JUMP JUMPDEST SWAP2 POP SWAP2 POP PUSH1 0x0 DUP1 DUP7 DUP1 PUSH1 0x20 ADD SWAP1 MLOAD DUP2 ADD SWAP1 PUSH2 0x9807 SWAP2 SWAP1 PUSH2 0xB1AE JUMP JUMPDEST SWAP2 POP SWAP2 POP PUSH2 0x9817 DUP5 DUP5 DUP4 DUP10 PUSH2 0x4ED1 JUMP JUMPDEST SWAP9 SWAP8 POP POP POP POP POP POP POP POP JUMP JUMPDEST PUSH1 0x0 DUP3 PUSH2 0x9832 JUMPI POP PUSH1 0x0 PUSH2 0x773A JUMP JUMPDEST DUP3 DUP3 MUL DUP3 DUP5 DUP3 DUP2 PUSH2 0x983F JUMPI INVALID JUMPDEST DIV EQ PUSH2 0x3CB5 JUMPI PUSH2 0x3CB5 PUSH2 0x9854 PUSH1 0x1 DUP7 DUP7 PUSH2 0x9E36 JUMP JUMPDEST PUSH2 0x9E90 JUMP JUMPDEST PUSH1 0x0 DUP3 DUP3 ADD DUP4 DUP2 LT ISZERO PUSH2 0x3CB5 JUMPI PUSH2 0x3CB5 PUSH2 0x9854 PUSH1 0x0 DUP7 DUP7 PUSH2 0x9E36 JUMP JUMPDEST PUSH1 0x0 DUP2 PUSH2 0x988B JUMPI PUSH2 0x988B PUSH2 0x9854 PUSH1 0x3 DUP6 DUP6 PUSH2 0x9E36 JUMP JUMPDEST PUSH1 0x0 DUP3 DUP5 DUP2 PUSH2 0x9896 JUMPI INVALID JUMPDEST DIV SWAP5 SWAP4 POP POP POP POP JUMP JUMPDEST PUSH1 0x0 DUP3 DUP3 GT ISZERO PUSH2 0x98B8 JUMPI PUSH2 0x98B8 PUSH2 0x9854 PUSH1 0x2 DUP6 DUP6 PUSH2 0x9E36 JUMP JUMPDEST POP SWAP1 SUB SWAP1 JUMP JUMPDEST PUSH1 0x0 DUP2 PUSH1 0x1 PUSH1 0x1 PUSH1 0xA0 SHL SUB AND PUSH4 0xD4B83992 PUSH1 0x40 MLOAD DUP2 PUSH4 0xFFFFFFFF AND PUSH1 0xE0 SHL DUP2 MSTORE PUSH1 0x4 ADD PUSH1 0x20 PUSH1 0x40 MLOAD DUP1 DUP4 SUB DUP2 DUP7 DUP1 EXTCODESIZE ISZERO DUP1 ISZERO PUSH2 0x98F9 JUMPI PUSH1 0x0 DUP1 REVERT JUMPDEST POP GAS STATICCALL ISZERO DUP1 ISZERO PUSH2 0x990D JUMPI RETURNDATASIZE PUSH1 0x0 DUP1 RETURNDATACOPY RETURNDATASIZE PUSH1 0x0 REVERT JUMPDEST POP POP POP POP PUSH1 0x40 MLOAD RETURNDATASIZE PUSH1 0x1F NOT PUSH1 0x1F DUP3 ADD AND DUP3 ADD DUP1 PUSH1 0x40 MSTORE POP DUP2 ADD SWAP1 PUSH2 0x9931 SWAP2 SWAP1 PUSH2 0xB190 JUMP JUMPDEST PUSH1 0x1 PUSH1 0x1 PUSH1 0xA0 SHL SUB AND PUSH4 0x21F8A721 PUSH1 0x40 MLOAD DUP2 PUSH4 0xFFFFFFFF AND PUSH1 0xE0 SHL DUP2 MSTORE PUSH1 0x4 ADD PUSH2 0x805C SWAP1 PUSH2 0xCB1E JUMP JUMPDEST PUSH1 0x40 DUP1 MLOAD PUSH1 0x2 DUP1 DUP3 MSTORE PUSH1 0x60 DUP3 DUP2 ADD SWAP1 SWAP4 MSTORE DUP2 PUSH1 0x20 ADD JUMPDEST PUSH1 0x60 DUP2 MSTORE PUSH1 0x20 ADD SWAP1 PUSH1 0x1 SWAP1 SUB SWAP1 DUP2 PUSH2 0x9970 JUMPI SWAP1 POP POP SWAP1 POP PUSH2 0x998F PUSH2 0xA674 JUMP JUMPDEST PUSH2 0x9A0A PUSH1 0x40 MLOAD DUP1 PUSH1 0xA0 ADD PUSH1 0x40 MSTORE DUP1 DUP9 PUSH1 0x1 PUSH1 0x1 PUSH1 0xA0 SHL SUB AND DUP2 MSTORE PUSH1 0x20 ADD DUP8 PUSH1 0x1 PUSH1 0x1 PUSH1 0xA0 SHL SUB AND DUP2 MSTORE PUSH1 0x20 ADD DUP7 PUSH1 0x0 DUP2 MLOAD DUP2 LT PUSH2 0x99C8 JUMPI INVALID JUMPDEST PUSH1 0x20 MUL PUSH1 0x20 ADD ADD MLOAD PUSH1 0x1 PUSH1 0x1 PUSH1 0xA0 SHL SUB AND DUP2 MSTORE PUSH1 0x20 ADD DUP7 PUSH1 0x1 DUP2 MLOAD DUP2 LT PUSH2 0x99EB JUMPI INVALID JUMPDEST PUSH1 0x20 MUL PUSH1 0x20 ADD ADD MLOAD PUSH1 0x1 PUSH1 0x1 PUSH1 0xA0 SHL SUB AND DUP2 MSTORE PUSH1 0x20 ADD DUP6 DUP2 MSTORE POP PUSH2 0x9E98 JUMP JUMPDEST POP SWAP1 POP PUSH1 0x0 DUP1 JUMPDEST PUSH1 0x2 DUP2 LT ISZERO PUSH2 0xE95 JUMPI PUSH1 0x0 DUP4 DUP3 PUSH1 0x2 DUP2 LT PUSH2 0x9A28 JUMPI INVALID JUMPDEST PUSH1 0x20 MUL ADD MLOAD PUSH1 0x40 DUP1 MLOAD PUSH1 0x1 DUP1 DUP3 MSTORE DUP2 DUP4 ADD SWAP1 SWAP3 MSTORE SWAP2 SWAP3 POP DUP2 PUSH1 0x20 ADD PUSH1 0x20 DUP3 MUL DUP1 CALLDATASIZE DUP4 CALLDATACOPY ADD SWAP1 POP POP DUP6 DUP5 DUP2 MLOAD DUP2 LT PUSH2 0x9A5B JUMPI INVALID JUMPDEST PUSH1 0x20 MUL PUSH1 0x20 ADD ADD DUP2 SWAP1 MSTORE POP DUP1 DUP6 DUP5 DUP2 MLOAD DUP2 LT PUSH2 0x9A73 JUMPI INVALID JUMPDEST PUSH1 0x20 MUL PUSH1 0x20 ADD ADD MLOAD PUSH1 0x0 DUP2 MLOAD DUP2 LT PUSH2 0x9A87 JUMPI INVALID JUMPDEST PUSH1 0x1 PUSH1 0x1 PUSH1 0xA0 SHL SUB SWAP1 SWAP3 AND PUSH1 0x20 SWAP3 DUP4 MUL SWAP2 SWAP1 SWAP2 ADD SWAP1 SWAP2 ADD MSTORE POP PUSH1 0x1 SWAP2 DUP3 ADD SWAP2 ADD PUSH2 0x9A11 JUMP JUMPDEST PUSH1 0x40 DUP1 MLOAD PUSH1 0x4 DUP1 DUP3 MSTORE PUSH1 0xA0 DUP3 ADD SWAP1 SWAP3 MSTORE PUSH1 0x60 SWAP2 DUP2 PUSH1 0x20 ADD JUMPDEST PUSH1 0x60 DUP2 MSTORE PUSH1 0x20 ADD SWAP1 PUSH1 0x1 SWAP1 SUB SWAP1 DUP2 PUSH2 0x9AC4 JUMPI SWAP1 POP POP SWAP1 POP PUSH2 0x9AE3 PUSH2 0xA674 JUMP JUMPDEST PUSH2 0x9AEB PUSH2 0xA674 JUMP JUMPDEST PUSH2 0x9B66 PUSH1 0x40 MLOAD DUP1 PUSH1 0xA0 ADD PUSH1 0x40 MSTORE DUP1 DUP10 PUSH1 0x1 PUSH1 0x1 PUSH1 0xA0 SHL SUB AND DUP2 MSTORE PUSH1 0x20 ADD DUP9 PUSH1 0x1 PUSH1 0x1 PUSH1 0xA0 SHL SUB AND DUP2 MSTORE PUSH1 0x20 ADD DUP8 PUSH1 0x0 DUP2 MLOAD DUP2 LT PUSH2 0x9B24 JUMPI INVALID JUMPDEST PUSH1 0x20 MUL PUSH1 0x20 ADD ADD MLOAD PUSH1 0x1 PUSH1 0x1 PUSH1 0xA0 SHL SUB AND DUP2 MSTORE PUSH1 0x20 ADD DUP8 PUSH1 0x1 DUP2 MLOAD DUP2 LT PUSH2 0x9B47 JUMPI INVALID JUMPDEST PUSH1 0x20 MUL PUSH1 0x20 ADD ADD MLOAD PUSH1 0x1 PUSH1 0x1 PUSH1 0xA0 SHL SUB AND DUP2 MSTORE PUSH1 0x20 ADD DUP7 DUP2 MSTORE POP PUSH2 0x9E98 JUMP JUMPDEST SWAP2 POP SWAP2 POP PUSH2 0x9B72 PUSH2 0xA674 JUMP JUMPDEST PUSH2 0x9BFD PUSH1 0x40 MLOAD DUP1 PUSH1 0xA0 ADD PUSH1 0x40 MSTORE DUP1 DUP11 PUSH1 0x1 PUSH1 0x1 PUSH1 0xA0 SHL SUB AND DUP2 MSTORE PUSH1 0x20 ADD DUP10 PUSH1 0x1 PUSH1 0x1 PUSH1 0xA0 SHL SUB AND DUP2 MSTORE PUSH1 0x20 ADD DUP9 PUSH1 0x1 DUP2 MLOAD DUP2 LT PUSH2 0x9BAB JUMPI INVALID JUMPDEST PUSH1 0x20 MUL PUSH1 0x20 ADD ADD MLOAD PUSH1 0x1 PUSH1 0x1 PUSH1 0xA0 SHL SUB AND DUP2 MSTORE PUSH1 0x20 ADD DUP9 PUSH1 0x2 DUP2 MLOAD DUP2 LT PUSH2 0x9BCE JUMPI INVALID JUMPDEST PUSH1 0x20 MUL PUSH1 0x20 ADD ADD MLOAD PUSH1 0x1 PUSH1 0x1 PUSH1 0xA0 SHL SUB AND DUP2 MSTORE PUSH1 0x20 ADD DUP5 PUSH1 0x0 PUSH1 0x2 DUP2 LT PUSH2 0x9BF1 JUMPI INVALID JUMPDEST PUSH1 0x20 MUL ADD MLOAD SWAP1 MSTORE PUSH2 0x9E98 JUMP JUMPDEST POP SWAP1 POP PUSH1 0x0 DUP1 JUMPDEST PUSH1 0x2 DUP2 LT ISZERO PUSH2 0x16AB JUMPI PUSH1 0x0 JUMPDEST PUSH1 0x2 DUP2 LT ISZERO PUSH2 0x9CE7 JUMPI PUSH1 0x40 DUP1 MLOAD PUSH1 0x2 DUP1 DUP3 MSTORE PUSH1 0x60 DUP3 ADD DUP4 MSTORE SWAP1 SWAP2 PUSH1 0x20 DUP4 ADD SWAP1 DUP1 CALLDATASIZE DUP4 CALLDATACOPY ADD SWAP1 POP POP DUP8 DUP5 DUP2 MLOAD DUP2 LT PUSH2 0x9C43 JUMPI INVALID JUMPDEST PUSH1 0x20 MUL PUSH1 0x20 ADD ADD DUP2 SWAP1 MSTORE POP PUSH1 0x60 DUP8 DUP5 DUP2 MLOAD DUP2 LT PUSH2 0x9C5C JUMPI INVALID JUMPDEST PUSH1 0x20 MUL PUSH1 0x20 ADD ADD MLOAD SWAP1 POP DUP7 DUP4 PUSH1 0x2 DUP2 LT PUSH2 0x9C72 JUMPI INVALID JUMPDEST PUSH1 0x20 MUL ADD MLOAD DUP2 PUSH1 0x0 DUP2 MLOAD DUP2 LT PUSH2 0x9C84 JUMPI INVALID JUMPDEST PUSH1 0x20 MUL PUSH1 0x20 ADD ADD SWAP1 PUSH1 0x1 PUSH1 0x1 PUSH1 0xA0 SHL SUB AND SWAP1 DUP2 PUSH1 0x1 PUSH1 0x1 PUSH1 0xA0 SHL SUB AND DUP2 MSTORE POP POP DUP5 DUP3 PUSH1 0x2 DUP2 LT PUSH2 0x9CB0 JUMPI INVALID JUMPDEST PUSH1 0x20 MUL ADD MLOAD DUP2 PUSH1 0x1 DUP2 MLOAD DUP2 LT PUSH2 0x9CC2 JUMPI INVALID JUMPDEST PUSH1 0x1 PUSH1 0x1 PUSH1 0xA0 SHL SUB SWAP1 SWAP3 AND PUSH1 0x20 SWAP3 DUP4 MUL SWAP2 SWAP1 SWAP2 ADD SWAP1 SWAP2 ADD MSTORE POP PUSH1 0x1 SWAP3 DUP4 ADD SWAP3 ADD PUSH2 0x9C10 JUMP JUMPDEST POP PUSH1 0x1 ADD PUSH2 0x9C04 JUMP JUMPDEST PUSH1 0x40 DUP1 MLOAD PUSH1 0x1 DUP1 DUP3 MSTORE DUP2 DUP4 ADD SWAP1 SWAP3 MSTORE PUSH1 0x60 SWAP2 PUSH1 0x20 DUP1 DUP4 ADD SWAP1 DUP1 CALLDATASIZE DUP4 CALLDATACOPY ADD SWAP1 POP POP SWAP1 POP DUP2 DUP2 PUSH1 0x0 DUP2 MLOAD DUP2 LT PUSH2 0x9D20 JUMPI INVALID JUMPDEST PUSH1 0x20 MUL PUSH1 0x20 ADD ADD DUP2 DUP2 MSTORE POP POP SWAP2 SWAP1 POP JUMP JUMPDEST PUSH1 0x0 DUP4 ISZERO DUP1 PUSH2 0x9D3E JUMPI POP DUP2 ISZERO JUMPDEST DUP1 PUSH2 0x9D47 JUMPI POP DUP3 ISZERO JUMPDEST ISZERO PUSH2 0x9D54 JUMPI POP PUSH1 0x0 PUSH2 0x3CB5 JUMP JUMPDEST DUP4 DUP3 MUL DUP3 DUP6 DUP3 DUP2 PUSH2 0x9D61 JUMPI INVALID JUMPDEST DIV EQ PUSH2 0x9D71 JUMPI PUSH1 0x0 SWAP2 POP POP PUSH2 0x3CB5 JUMP JUMPDEST DUP4 PUSH1 0x1 DUP6 SUB DUP3 ADD DUP2 PUSH2 0x9D7F JUMPI INVALID JUMPDEST DIV SWAP6 SWAP5 POP POP POP POP POP JUMP JUMPDEST PUSH1 0x0 PUSH2 0x3CB5 DUP4 DUP4 PUSH2 0xA251 JUMP JUMPDEST PUSH1 0x60 DUP2 DUP4 GT ISZERO PUSH2 0x9DAE JUMPI PUSH2 0x9DAE PUSH2 0x9854 PUSH1 0x0 DUP6 DUP6 PUSH2 0xA27B JUMP JUMPDEST DUP4 MLOAD DUP3 GT ISZERO PUSH2 0x9DC7 JUMPI PUSH2 0x9DC7 PUSH2 0x9854 PUSH1 0x1 DUP5 DUP8 MLOAD PUSH2 0xA27B JUMP JUMPDEST DUP3 DUP3 SUB PUSH1 0x1 PUSH1 0x1 PUSH1 0x40 SHL SUB DUP2 GT DUP1 ISZERO PUSH2 0x9DDF JUMPI PUSH1 0x0 DUP1 REVERT JUMPDEST POP PUSH1 0x40 MLOAD SWAP1 DUP1 DUP3 MSTORE DUP1 PUSH1 0x1F ADD PUSH1 0x1F NOT AND PUSH1 0x20 ADD DUP3 ADD PUSH1 0x40 MSTORE DUP1 ISZERO PUSH2 0x9E0A JUMPI PUSH1 0x20 DUP3 ADD DUP2 DUP1 CALLDATASIZE DUP4 CALLDATACOPY ADD SWAP1 POP JUMPDEST POP SWAP1 POP PUSH2 0x3CB5 PUSH2 0x9E19 DUP3 PUSH2 0xA29A JUMP JUMPDEST DUP5 PUSH2 0x9E23 DUP8 PUSH2 0xA29A JUMP JUMPDEST ADD DUP4 MLOAD PUSH2 0xA2A0 JUMP JUMPDEST PUSH2 0x9147 DUP4 DUP4 DUP4 PUSH2 0xA345 JUMP JUMPDEST PUSH1 0x60 PUSH4 0xE946C1BB PUSH1 0xE0 SHL DUP5 DUP5 DUP5 PUSH1 0x40 MLOAD PUSH1 0x24 ADD PUSH2 0x9E55 SWAP4 SWAP3 SWAP2 SWAP1 PUSH2 0xCA6C JUMP JUMPDEST PUSH1 0x40 DUP1 MLOAD PUSH1 0x1F NOT DUP2 DUP5 SUB ADD DUP2 MSTORE SWAP2 SWAP1 MSTORE PUSH1 0x20 DUP2 ADD DUP1 MLOAD PUSH1 0x1 PUSH1 0x1 PUSH1 0xE0 SHL SUB AND PUSH1 0x1 PUSH1 0x1 PUSH1 0xE0 SHL SUB NOT SWAP1 SWAP4 AND SWAP3 SWAP1 SWAP3 OR SWAP1 SWAP2 MSTORE SWAP1 POP SWAP4 SWAP3 POP POP POP JUMP JUMPDEST DUP1 MLOAD PUSH1 0x20 DUP3 ADD REVERT JUMPDEST PUSH2 0x9EA0 PUSH2 0xA674 JUMP JUMPDEST PUSH2 0x9EA8 PUSH2 0xA674 JUMP JUMPDEST PUSH1 0x40 DUP1 MLOAD PUSH1 0x2 DUP1 DUP3 MSTORE PUSH1 0x60 DUP1 DUP4 ADD DUP5 MSTORE SWAP3 PUSH1 0x20 DUP4 ADD SWAP1 DUP1 CALLDATASIZE DUP4 CALLDATACOPY ADD SWAP1 POP POP SWAP1 POP DUP4 PUSH1 0x40 ADD MLOAD DUP2 PUSH1 0x0 DUP2 MLOAD DUP2 LT PUSH2 0x9EDA JUMPI INVALID JUMPDEST PUSH1 0x20 MUL PUSH1 0x20 ADD ADD SWAP1 PUSH1 0x1 PUSH1 0x1 PUSH1 0xA0 SHL SUB AND SWAP1 DUP2 PUSH1 0x1 PUSH1 0x1 PUSH1 0xA0 SHL SUB AND DUP2 MSTORE POP POP DUP4 PUSH1 0x60 ADD MLOAD DUP2 PUSH1 0x1 DUP2 MLOAD DUP2 LT PUSH2 0x9F0C JUMPI INVALID JUMPDEST PUSH1 0x1 PUSH1 0x1 PUSH1 0xA0 SHL SUB SWAP3 SWAP1 SWAP3 AND PUSH1 0x20 SWAP3 DUP4 MUL SWAP2 SWAP1 SWAP2 ADD SWAP1 SWAP2 ADD MSTORE PUSH1 0x40 DUP1 MLOAD PUSH1 0x1 DUP1 DUP3 MSTORE DUP2 DUP4 ADD SWAP1 SWAP3 MSTORE PUSH1 0x60 SWAP2 DUP2 PUSH1 0x20 ADD PUSH1 0x20 DUP3 MUL DUP1 CALLDATASIZE DUP4 CALLDATACOPY ADD SWAP1 POP POP SWAP1 POP DUP5 PUSH1 0x80 ADD MLOAD DUP2 PUSH1 0x0 DUP2 MLOAD DUP2 LT PUSH2 0x9F5B JUMPI INVALID JUMPDEST PUSH1 0x20 MUL PUSH1 0x20 ADD ADD DUP2 DUP2 MSTORE POP POP PUSH2 0x9F6F PUSH2 0xA692 JUMP JUMPDEST POP PUSH1 0x40 DUP1 MLOAD PUSH1 0x80 DUP2 ADD DUP3 MSTORE PUSH1 0x64 DUP2 MSTORE PUSH2 0x1F4 PUSH1 0x20 DUP3 ADD MSTORE PUSH2 0xBB8 SWAP2 DUP2 ADD SWAP2 SWAP1 SWAP2 MSTORE PUSH2 0x2710 PUSH1 0x60 DUP3 ADD MSTORE PUSH1 0x0 JUMPDEST PUSH1 0x4 DUP2 LT ISZERO PUSH2 0xA248 JUMPI PUSH1 0x0 DUP8 PUSH1 0x0 ADD MLOAD PUSH1 0x1 PUSH1 0x1 PUSH1 0xA0 SHL SUB AND PUSH4 0x1698EE82 DUP10 PUSH1 0x40 ADD MLOAD DUP11 PUSH1 0x60 ADD MLOAD DUP7 DUP7 PUSH1 0x4 DUP2 LT PUSH2 0x9FCF JUMPI INVALID JUMPDEST PUSH1 0x20 MUL ADD MLOAD PUSH1 0x40 MLOAD DUP5 PUSH4 0xFFFFFFFF AND PUSH1 0xE0 SHL DUP2 MSTORE PUSH1 0x4 ADD PUSH2 0x9FF2 SWAP4 SWAP3 SWAP2 SWAP1 PUSH2 0xC7CA JUMP JUMPDEST PUSH1 0x20 PUSH1 0x40 MLOAD DUP1 DUP4 SUB DUP2 DUP7 DUP1 EXTCODESIZE ISZERO DUP1 ISZERO PUSH2 0xA00A JUMPI PUSH1 0x0 DUP1 REVERT JUMPDEST POP GAS STATICCALL ISZERO DUP1 ISZERO PUSH2 0xA01E JUMPI RETURNDATASIZE PUSH1 0x0 DUP1 RETURNDATACOPY RETURNDATASIZE PUSH1 0x0 REVERT JUMPDEST POP POP POP POP PUSH1 0x40 MLOAD RETURNDATASIZE PUSH1 0x1F NOT PUSH1 0x1F DUP3 ADD AND DUP3 ADD DUP1 PUSH1 0x40 MSTORE POP DUP2 ADD SWAP1 PUSH2 0xA042 SWAP2 SWAP1 PUSH2 0xBA89 JUMP JUMPDEST SWAP1 POP PUSH2 0xA04D DUP2 PUSH2 0xA36C JUMP JUMPDEST PUSH2 0xA057 JUMPI POP PUSH2 0xA240 JUMP JUMPDEST PUSH1 0x40 DUP1 MLOAD PUSH1 0x1 DUP1 DUP3 MSTORE DUP2 DUP4 ADD SWAP1 SWAP3 MSTORE PUSH1 0x60 SWAP2 PUSH1 0x20 DUP1 DUP4 ADD SWAP1 DUP1 CALLDATASIZE DUP4 CALLDATACOPY ADD SWAP1 POP POP SWAP1 POP DUP2 DUP2 PUSH1 0x0 DUP2 MLOAD DUP2 LT PUSH2 0xA087 JUMPI INVALID JUMPDEST PUSH1 0x20 MUL PUSH1 0x20 ADD ADD SWAP1 PUSH1 0x1 PUSH1 0x1 PUSH1 0xA0 SHL SUB AND SWAP1 DUP2 PUSH1 0x1 PUSH1 0x1 PUSH1 0xA0 SHL SUB AND DUP2 MSTORE POP POP PUSH1 0x60 PUSH2 0xA0B3 DUP8 DUP4 PUSH2 0x8279 JUMP JUMPDEST SWAP1 POP DUP10 PUSH1 0x20 ADD MLOAD PUSH1 0x1 PUSH1 0x1 PUSH1 0xA0 SHL SUB AND PUSH4 0x551E2BDF PUSH3 0x6DDD0 DUP13 PUSH1 0x0 ADD MLOAD DUP5 DUP11 PUSH1 0x40 MLOAD DUP6 PUSH4 0xFFFFFFFF AND PUSH1 0xE0 SHL DUP2 MSTORE PUSH1 0x4 ADD PUSH2 0xA0F1 SWAP4 SWAP3 SWAP2 SWAP1 PUSH2 0xC9C6 JUMP JUMPDEST PUSH1 0x0 PUSH1 0x40 MLOAD DUP1 DUP4 SUB DUP2 DUP8 DUP1 EXTCODESIZE ISZERO DUP1 ISZERO PUSH2 0xA109 JUMPI PUSH1 0x0 DUP1 REVERT JUMPDEST POP DUP7 STATICCALL SWAP4 POP POP POP POP DUP1 ISZERO PUSH2 0xA11B JUMPI POP PUSH1 0x1 JUMPDEST PUSH2 0xA23C JUMPI RETURNDATASIZE DUP1 DUP1 ISZERO PUSH2 0xA149 JUMPI PUSH1 0x40 MLOAD SWAP2 POP PUSH1 0x1F NOT PUSH1 0x3F RETURNDATASIZE ADD AND DUP3 ADD PUSH1 0x40 MSTORE RETURNDATASIZE DUP3 MSTORE RETURNDATASIZE PUSH1 0x0 PUSH1 0x20 DUP5 ADD RETURNDATACOPY PUSH2 0xA14E JUMP JUMPDEST PUSH1 0x60 SWAP2 POP JUMPDEST POP PUSH1 0x0 PUSH1 0x60 PUSH2 0xA15C DUP4 PUSH2 0x83D4 JUMP JUMPDEST POP SWAP2 POP SWAP2 POP DUP2 ISZERO PUSH2 0xA238 JUMPI DUP11 MLOAD DUP2 MLOAD DUP3 SWAP1 PUSH1 0x0 SWAP1 PUSH2 0xA176 JUMPI INVALID JUMPDEST PUSH1 0x20 MUL PUSH1 0x20 ADD ADD MLOAD GT ISZERO PUSH2 0xA1D6 JUMPI DUP11 MLOAD PUSH1 0x20 DUP1 DUP14 ADD SWAP2 SWAP1 SWAP2 MSTORE DUP13 MLOAD PUSH1 0x1 PUSH1 0x1 PUSH1 0xA0 SHL SUB AND SWAP1 DUP14 ADD MSTORE DUP1 MLOAD DUP2 SWAP1 PUSH1 0x0 SWAP1 PUSH2 0xA1AB JUMPI INVALID JUMPDEST PUSH1 0x20 MUL PUSH1 0x20 ADD ADD MLOAD DUP12 PUSH1 0x0 PUSH1 0x2 DUP2 LT PUSH2 0xA1C0 JUMPI INVALID JUMPDEST PUSH1 0x20 MUL ADD MSTORE PUSH1 0x1 PUSH1 0x1 PUSH1 0xA0 SHL SUB DUP7 AND DUP13 MSTORE PUSH2 0xA238 JUMP JUMPDEST DUP11 PUSH1 0x1 PUSH1 0x20 MUL ADD MLOAD DUP2 PUSH1 0x0 DUP2 MLOAD DUP2 LT PUSH2 0xA1EB JUMPI INVALID JUMPDEST PUSH1 0x20 MUL PUSH1 0x20 ADD ADD MLOAD GT ISZERO PUSH2 0xA238 JUMPI DUP1 PUSH1 0x0 DUP2 MLOAD DUP2 LT PUSH2 0xA206 JUMPI INVALID JUMPDEST PUSH1 0x20 MUL PUSH1 0x20 ADD ADD MLOAD DUP12 PUSH1 0x1 PUSH1 0x2 DUP2 LT PUSH2 0xA21B JUMPI INVALID JUMPDEST PUSH1 0x20 MUL ADD MSTORE DUP6 DUP13 PUSH1 0x1 PUSH1 0x1 PUSH1 0x1 PUSH1 0xA0 SHL SUB SWAP1 SWAP3 AND PUSH1 0x20 SWAP3 SWAP1 SWAP3 MUL ADD MSTORE JUMPDEST POP POP POP JUMPDEST POP POP POP JUMPDEST PUSH1 0x1 ADD PUSH2 0x9F9B JUMP JUMPDEST POP POP POP POP SWAP2 POP SWAP2 JUMP JUMPDEST PUSH1 0x0 DUP2 PUSH1 0x20 ADD DUP4 MLOAD LT ISZERO PUSH2 0xA272 JUMPI PUSH2 0xA272 PUSH2 0x9854 PUSH1 0x5 DUP6 MLOAD DUP6 PUSH1 0x20 ADD PUSH2 0xA27B JUMP JUMPDEST POP ADD PUSH1 0x20 ADD MLOAD SWAP1 JUMP JUMPDEST PUSH1 0x60 PUSH4 0x28006595 PUSH1 0xE0 SHL DUP5 DUP5 DUP5 PUSH1 0x40 MLOAD PUSH1 0x24 ADD PUSH2 0x9E55 SWAP4 SWAP3 SWAP2 SWAP1 PUSH2 0xCA87 JUMP JUMPDEST PUSH1 0x20 ADD SWAP1 JUMP JUMPDEST PUSH1 0x20 DUP2 LT ISZERO PUSH2 0xA2CA JUMPI PUSH1 0x1 DUP2 PUSH1 0x20 SUB PUSH2 0x100 EXP SUB DUP1 NOT DUP4 MLOAD AND DUP2 DUP6 MLOAD AND DUP1 DUP3 OR DUP7 MSTORE POP POP POP PUSH2 0x9147 JUMP JUMPDEST DUP3 DUP3 EQ ISZERO PUSH2 0xA2D7 JUMPI PUSH2 0x9147 JUMP JUMPDEST DUP3 DUP3 GT ISZERO PUSH2 0xA311 JUMPI PUSH1 0x20 DUP2 SUB SWAP1 POP DUP1 DUP3 ADD DUP2 DUP5 ADD DUP2 MLOAD JUMPDEST DUP3 DUP6 LT ISZERO PUSH2 0xA309 JUMPI DUP5 MLOAD DUP7 MSTORE PUSH1 0x20 SWAP6 DUP7 ADD SWAP6 SWAP1 SWAP5 ADD SWAP4 PUSH2 0xA2EE JUMP JUMPDEST SWAP1 MSTORE POP PUSH2 0x9147 JUMP JUMPDEST PUSH1 0x20 DUP2 SUB SWAP1 POP DUP1 DUP3 ADD DUP2 DUP5 ADD DUP4 MLOAD JUMPDEST DUP2 DUP7 SLT ISZERO PUSH2 0xA33C JUMPI DUP3 MLOAD DUP3 MSTORE PUSH1 0x1F NOT SWAP3 DUP4 ADD SWAP3 SWAP1 SWAP2 ADD SWAP1 PUSH2 0xA320 JUMP JUMPDEST DUP6 MSTORE POP POP POP POP POP JUMP JUMPDEST DUP2 PUSH1 0x20 ADD DUP4 MLOAD LT ISZERO PUSH2 0xA364 JUMPI PUSH2 0xA364 PUSH2 0x9854 PUSH1 0x5 DUP6 MLOAD DUP6 PUSH1 0x20 ADD PUSH2 0xA27B JUMP JUMPDEST SWAP2 ADD PUSH1 0x20 ADD MSTORE JUMP JUMPDEST PUSH1 0x0 DUP2 EXTCODESIZE DUP1 PUSH2 0xA37F JUMPI PUSH1 0x0 SWAP2 POP POP PUSH2 0x131E JUMP JUMPDEST POP DUP2 PUSH1 0x1 PUSH1 0x1 PUSH1 0xA0 SHL SUB AND PUSH4 0xDFE1681 PUSH1 0x40 MLOAD DUP2 PUSH4 0xFFFFFFFF AND PUSH1 0xE0 SHL DUP2 MSTORE PUSH1 0x4 ADD PUSH1 0x20 PUSH1 0x40 MLOAD DUP1 DUP4 SUB DUP2 DUP7 DUP1 EXTCODESIZE ISZERO DUP1 ISZERO PUSH2 0xA3B9 JUMPI PUSH1 0x0 DUP1 REVERT JUMPDEST POP GAS STATICCALL ISZERO DUP1 ISZERO PUSH2 0xA3CD JUMPI RETURNDATASIZE PUSH1 0x0 DUP1 RETURNDATACOPY RETURNDATASIZE PUSH1 0x0 REVERT JUMPDEST POP POP POP POP PUSH1 0x40 MLOAD RETURNDATASIZE PUSH1 0x1F NOT PUSH1 0x1F DUP3 ADD AND DUP3 ADD DUP1 PUSH1 0x40 MSTORE POP DUP2 ADD SWAP1 PUSH2 0xA3F1 SWAP2 SWAP1 PUSH2 0xB190 JUMP JUMPDEST PUSH1 0x1 PUSH1 0x1 PUSH1 0xA0 SHL SUB AND PUSH4 0x70A08231 DUP4 PUSH1 0x40 MLOAD DUP3 PUSH4 0xFFFFFFFF AND PUSH1 0xE0 SHL DUP2 MSTORE PUSH1 0x4 ADD PUSH2 0xA41C SWAP2 SWAP1 PUSH2 0xC681 JUMP JUMPDEST PUSH1 0x20 PUSH1 0x40 MLOAD DUP1 DUP4 SUB DUP2 DUP7 DUP1 EXTCODESIZE ISZERO DUP1 ISZERO PUSH2 0xA434 JUMPI PUSH1 0x0 DUP1 REVERT JUMPDEST POP GAS STATICCALL ISZERO DUP1 ISZERO PUSH2 0xA448 JUMPI RETURNDATASIZE PUSH1 0x0 DUP1 RETURNDATACOPY RETURNDATASIZE PUSH1 0x0 REVERT JUMPDEST POP POP POP POP PUSH1 0x40 MLOAD RETURNDATASIZE PUSH1 0x1F NOT PUSH1 0x1F DUP3 ADD AND DUP3 ADD DUP1 PUSH1 0x40 MSTORE POP DUP2 ADD SWAP1 PUSH2 0xA46C SWAP2 SWAP1 PUSH2 0xB92E JUMP JUMPDEST PUSH2 0xA478 JUMPI POP PUSH1 0x0 PUSH2 0x131E JUMP JUMPDEST DUP2 PUSH1 0x1 PUSH1 0x1 PUSH1 0xA0 SHL SUB AND PUSH4 0xD21220A7 PUSH1 0x40 MLOAD DUP2 PUSH4 0xFFFFFFFF AND PUSH1 0xE0 SHL DUP2 MSTORE PUSH1 0x4 ADD PUSH1 0x20 PUSH1 0x40 MLOAD DUP1 DUP4 SUB DUP2 DUP7 DUP1 EXTCODESIZE ISZERO DUP1 ISZERO PUSH2 0xA4B1 JUMPI PUSH1 0x0 DUP1 REVERT JUMPDEST POP GAS STATICCALL ISZERO DUP1 ISZERO PUSH2 0xA4C5 JUMPI RETURNDATASIZE PUSH1 0x0 DUP1 RETURNDATACOPY RETURNDATASIZE PUSH1 0x0 REVERT JUMPDEST POP POP POP POP PUSH1 0x40 MLOAD RETURNDATASIZE PUSH1 0x1F NOT PUSH1 0x1F DUP3 ADD AND DUP3 ADD DUP1 PUSH1 0x40 MSTORE POP DUP2 ADD SWAP1 PUSH2 0xA4E9 SWAP2 SWAP1 PUSH2 0xB190 JUMP JUMPDEST PUSH1 0x1 PUSH1 0x1 PUSH1 0xA0 SHL SUB AND PUSH4 0x70A08231 DUP4 PUSH1 0x40 MLOAD DUP3 PUSH4 0xFFFFFFFF AND PUSH1 0xE0 SHL DUP2 MSTORE PUSH1 0x4 ADD PUSH2 0xA514 SWAP2 SWAP1 PUSH2 0xC681 JUMP JUMPDEST PUSH1 0x20 PUSH1 0x40 MLOAD DUP1 DUP4 SUB DUP2 DUP7 DUP1 EXTCODESIZE ISZERO DUP1 ISZERO PUSH2 0xA52C JUMPI PUSH1 0x0 DUP1 REVERT JUMPDEST POP GAS STATICCALL ISZERO DUP1 ISZERO PUSH2 0xA540 JUMPI RETURNDATASIZE PUSH1 0x0 DUP1 RETURNDATACOPY RETURNDATASIZE PUSH1 0x0 REVERT JUMPDEST POP POP POP POP PUSH1 0x40 MLOAD RETURNDATASIZE PUSH1 0x1F NOT PUSH1 0x1F DUP3 ADD AND DUP3 ADD DUP1 PUSH1 0x40 MSTORE POP DUP2 ADD SWAP1 PUSH2 0xA564 SWAP2 SWAP1 PUSH2 0xB92E JUMP JUMPDEST PUSH2 0xA570 JUMPI POP PUSH1 0x0 PUSH2 0x131E JUMP JUMPDEST POP PUSH1 0x1 SWAP2 SWAP1 POP JUMP JUMPDEST PUSH1 0x40 DUP1 MLOAD PUSH1 0x80 DUP2 ADD DUP3 MSTORE PUSH1 0x0 DUP1 DUP3 MSTORE PUSH1 0x20 DUP3 ADD DUP2 SWAP1 MSTORE SWAP2 DUP2 ADD DUP3 SWAP1 MSTORE PUSH1 0x60 DUP2 ADD SWAP2 SWAP1 SWAP2 MSTORE SWAP1 JUMP JUMPDEST PUSH1 0x40 MLOAD DUP1 PUSH1 0xA0 ADD PUSH1 0x40 MSTORE DUP1 PUSH1 0x0 DUP2 MSTORE PUSH1 0x20 ADD PUSH1 0x0 DUP2 MSTORE PUSH1 0x20 ADD PUSH1 0x0 DUP2 MSTORE PUSH1 0x20 ADD PUSH1 0x0 DUP2 MSTORE PUSH1 0x20 ADD PUSH1 0x0 DUP2 MSTORE POP SWAP1 JUMP JUMPDEST PUSH1 0x40 DUP1 MLOAD DUP1 DUP3 ADD SWAP1 SWAP2 MSTORE PUSH1 0x60 DUP2 MSTORE PUSH1 0x0 PUSH1 0x20 DUP3 ADD MSTORE SWAP1 JUMP JUMPDEST PUSH1 0x40 MLOAD DUP1 PUSH1 0x40 ADD PUSH1 0x40 MSTORE DUP1 PUSH1 0x0 DUP2 MSTORE PUSH1 0x20 ADD PUSH1 0x60 DUP2 MSTORE POP SWAP1 JUMP JUMPDEST PUSH1 0x40 DUP1 MLOAD PUSH1 0x60 DUP2 ADD DUP3 MSTORE PUSH1 0x0 DUP1 DUP3 MSTORE PUSH1 0x20 DUP3 ADD DUP2 SWAP1 MSTORE SWAP2 DUP2 ADD SWAP2 SWAP1 SWAP2 MSTORE SWAP1 JUMP JUMPDEST PUSH1 0x40 DUP1 MLOAD PUSH1 0x60 DUP2 ADD SWAP1 SWAP2 MSTORE PUSH1 0x0 DUP1 DUP3 MSTORE PUSH1 0x20 DUP3 ADD SWAP1 DUP2 MSTORE PUSH1 0x0 PUSH1 0x20 SWAP1 SWAP2 ADD MSTORE SWAP1 JUMP JUMPDEST PUSH1 0x40 MLOAD DUP1 PUSH1 0xA0 ADD PUSH1 0x40 MSTORE DUP1 PUSH1 0x0 DUP1 NOT AND DUP2 MSTORE PUSH1 0x20 ADD PUSH1 0x0 DUP2 MSTORE PUSH1 0x20 ADD PUSH1 0x0 DUP2 MSTORE PUSH1 0x20 ADD PUSH1 0x0 DUP2 MSTORE PUSH1 0x20 ADD PUSH1 0x60 DUP2 MSTORE POP SWAP1 JUMP JUMPDEST PUSH1 0x40 MLOAD DUP1 PUSH1 0x40 ADD PUSH1 0x40 MSTORE DUP1 PUSH1 0x2 SWAP1 PUSH1 0x20 DUP3 MUL DUP1 CALLDATASIZE DUP4 CALLDATACOPY POP SWAP2 SWAP3 SWAP2 POP POP JUMP JUMPDEST PUSH1 0x40 MLOAD DUP1 PUSH1 0x80 ADD PUSH1 0x40 MSTORE DUP1 PUSH1 0x4 SWAP1 PUSH1 0x20 DUP3 MUL DUP1 CALLDATASIZE DUP4 CALLDATACOPY POP SWAP2 SWAP3 SWAP2 POP POP JUMP JUMPDEST DUP1 CALLDATALOAD PUSH2 0x773A DUP2 PUSH2 0xCEBD JUMP JUMPDEST DUP1 MLOAD PUSH2 0x773A DUP2 PUSH2 0xCEBD JUMP JUMPDEST PUSH1 0x0 DUP3 PUSH1 0x1F DUP4 ADD SLT PUSH2 0xA6D7 JUMPI PUSH1 0x0 DUP1 REVERT JUMPDEST DUP2 CALLDATALOAD PUSH2 0xA6EA PUSH2 0xA6E5 DUP3 PUSH2 0xCD47 JUMP JUMPDEST PUSH2 0xCD21 JUMP JUMPDEST SWAP2 POP DUP2 DUP2 DUP4 MSTORE PUSH1 0x20 DUP5 ADD SWAP4 POP PUSH1 0x20 DUP2 ADD SWAP1 POP DUP4 DUP6 PUSH1 0x20 DUP5 MUL DUP3 ADD GT ISZERO PUSH2 0xA70F JUMPI PUSH1 0x0 DUP1 REVERT JUMPDEST PUSH1 0x0 JUMPDEST DUP4 DUP2 LT ISZERO PUSH2 0xA73B JUMPI DUP2 PUSH2 0xA725 DUP9 DUP3 PUSH2 0xA6B0 JUMP JUMPDEST DUP5 MSTORE POP PUSH1 0x20 SWAP3 DUP4 ADD SWAP3 SWAP2 SWAP1 SWAP2 ADD SWAP1 PUSH1 0x1 ADD PUSH2 0xA712 JUMP JUMPDEST POP POP POP POP SWAP3 SWAP2 POP POP JUMP JUMPDEST PUSH1 0x0 DUP3 PUSH1 0x1F DUP4 ADD SLT PUSH2 0xA756 JUMPI PUSH1 0x0 DUP1 REVERT JUMPDEST DUP2 MLOAD PUSH2 0xA764 PUSH2 0xA6E5 DUP3 PUSH2 0xCD47 JUMP JUMPDEST SWAP2 POP DUP2 DUP2 DUP4 MSTORE PUSH1 0x20 DUP5 ADD SWAP4 POP PUSH1 0x20 DUP2 ADD SWAP1 POP DUP4 DUP6 PUSH1 0x20 DUP5 MUL DUP3 ADD GT ISZERO PUSH2 0xA789 JUMPI PUSH1 0x0 DUP1 REVERT JUMPDEST PUSH1 0x0 JUMPDEST DUP4 DUP2 LT ISZERO PUSH2 0xA73B JUMPI DUP2 PUSH2 0xA79F DUP9 DUP3 PUSH2 0xA6BB JUMP JUMPDEST DUP5 MSTORE POP PUSH1 0x20 SWAP3 DUP4 ADD SWAP3 SWAP2 SWAP1 SWAP2 ADD SWAP1 PUSH1 0x1 ADD PUSH2 0xA78C JUMP JUMPDEST PUSH1 0x0 DUP3 PUSH1 0x1F DUP4 ADD SLT PUSH2 0xA7C6 JUMPI PUSH1 0x0 DUP1 REVERT JUMPDEST DUP2 CALLDATALOAD PUSH2 0xA7D4 PUSH2 0xA6E5 DUP3 PUSH2 0xCD47 JUMP JUMPDEST DUP2 DUP2 MSTORE PUSH1 0x20 SWAP4 DUP5 ADD SWAP4 SWAP1 SWAP3 POP DUP3 ADD DUP4 PUSH1 0x0 JUMPDEST DUP4 DUP2 LT ISZERO PUSH2 0xA73B JUMPI DUP2 CALLDATALOAD DUP7 ADD PUSH2 0xA7FC DUP9 DUP3 PUSH2 0xA6C6 JUMP JUMPDEST DUP5 MSTORE POP PUSH1 0x20 SWAP3 DUP4 ADD SWAP3 SWAP2 SWAP1 SWAP2 ADD SWAP1 PUSH1 0x1 ADD PUSH2 0xA7E6 JUMP JUMPDEST PUSH1 0x0 DUP1 DUP4 PUSH1 0x1F DUP5 ADD SLT PUSH2 0xA824 JUMPI PUSH1 0x0 DUP1 REVERT JUMPDEST POP DUP2 CALLDATALOAD PUSH1 0x1 PUSH1 0x1 PUSH1 0x40 SHL SUB DUP2 GT ISZERO PUSH2 0xA83B JUMPI PUSH1 0x0 DUP1 REVERT JUMPDEST PUSH1 0x20 DUP4 ADD SWAP2 POP DUP4 PUSH1 0x20 DUP3 MUL DUP4 ADD GT ISZERO PUSH2 0xA853 JUMPI PUSH1 0x0 DUP1 REVERT JUMPDEST SWAP3 POP SWAP3 SWAP1 POP JUMP JUMPDEST PUSH1 0x0 DUP3 PUSH1 0x1F DUP4 ADD SLT PUSH2 0xA86B JUMPI PUSH1 0x0 DUP1 REVERT JUMPDEST DUP2 CALLDATALOAD PUSH2 0xA879 PUSH2 0xA6E5 DUP3 PUSH2 0xCD47 JUMP JUMPDEST DUP2 DUP2 MSTORE PUSH1 0x20 SWAP4 DUP5 ADD SWAP4 SWAP1 SWAP3 POP DUP3 ADD DUP4 PUSH1 0x0 JUMPDEST DUP4 DUP2 LT ISZERO PUSH2 0xA73B JUMPI DUP2 CALLDATALOAD DUP7 ADD PUSH2 0xA8A1 DUP9 DUP3 PUSH2 0xABF1 JUMP JUMPDEST DUP5 MSTORE POP PUSH1 0x20 SWAP3 DUP4 ADD SWAP3 SWAP2 SWAP1 SWAP2 ADD SWAP1 PUSH1 0x1 ADD PUSH2 0xA88B JUMP JUMPDEST PUSH1 0x0 DUP3 PUSH1 0x1F DUP4 ADD SLT PUSH2 0xA8C8 JUMPI PUSH1 0x0 DUP1 REVERT JUMPDEST DUP2 CALLDATALOAD PUSH2 0xA8D6 PUSH2 0xA6E5 DUP3 PUSH2 0xCD47 JUMP JUMPDEST SWAP2 POP DUP2 DUP2 DUP4 MSTORE PUSH1 0x20 DUP5 ADD SWAP4 POP PUSH1 0x20 DUP2 ADD SWAP1 POP DUP4 DUP6 PUSH1 0x20 DUP5 MUL DUP3 ADD GT ISZERO PUSH2 0xA8FB JUMPI PUSH1 0x0 DUP1 REVERT JUMPDEST PUSH1 0x0 JUMPDEST DUP4 DUP2 LT ISZERO PUSH2 0xA73B JUMPI DUP2 PUSH2 0xA911 DUP9 DUP3 PUSH2 0xAC37 JUMP JUMPDEST DUP5 MSTORE POP PUSH1 0x20 SWAP3 DUP4 ADD SWAP3 SWAP2 SWAP1 SWAP2 ADD SWAP1 PUSH1 0x1 ADD PUSH2 0xA8FE JUMP JUMPDEST PUSH1 0x0 DUP3 PUSH1 0x1F DUP4 ADD SLT PUSH2 0xA938 JUMPI PUSH1 0x0 DUP1 REVERT JUMPDEST DUP2 MLOAD PUSH2 0xA946 PUSH2 0xA6E5 DUP3 PUSH2 0xCD47 JUMP JUMPDEST SWAP2 POP DUP2 DUP2 DUP4 MSTORE PUSH1 0x20 DUP5 ADD SWAP4 POP PUSH1 0x20 DUP2 ADD SWAP1 POP DUP4 DUP6 PUSH1 0x20 DUP5 MUL DUP3 ADD GT ISZERO PUSH2 0xA96B JUMPI PUSH1 0x0 DUP1 REVERT JUMPDEST PUSH1 0x0 JUMPDEST DUP4 DUP2 LT ISZERO PUSH2 0xA73B JUMPI DUP2 PUSH2 0xA981 DUP9 DUP3 PUSH2 0xABD0 JUMP JUMPDEST DUP5 MSTORE POP PUSH1 0x20 SWAP3 DUP4 ADD SWAP3 SWAP2 SWAP1 SWAP2 ADD SWAP1 PUSH1 0x1 ADD PUSH2 0xA96E JUMP JUMPDEST PUSH1 0x0 DUP3 PUSH1 0x1F DUP4 ADD SLT PUSH2 0xA9A8 JUMPI PUSH1 0x0 DUP1 REVERT JUMPDEST DUP2 CALLDATALOAD PUSH2 0xA9B6 PUSH2 0xA6E5 DUP3 PUSH2 0xCD47 JUMP JUMPDEST DUP2 DUP2 MSTORE PUSH1 0x20 SWAP4 DUP5 ADD SWAP4 SWAP1 SWAP3 POP DUP3 ADD DUP4 PUSH1 0x0 JUMPDEST DUP4 DUP2 LT ISZERO PUSH2 0xA73B JUMPI DUP2 CALLDATALOAD DUP7 ADD PUSH2 0xA9DE DUP9 DUP3 PUSH2 0xAD12 JUMP JUMPDEST DUP5 MSTORE POP PUSH1 0x20 SWAP3 DUP4 ADD SWAP3 SWAP2 SWAP1 SWAP2 ADD SWAP1 PUSH1 0x1 ADD PUSH2 0xA9C8 JUMP JUMPDEST PUSH1 0x0 DUP3 PUSH1 0x1F DUP4 ADD SLT PUSH2 0xAA05 JUMPI PUSH1 0x0 DUP1 REVERT JUMPDEST DUP2 CALLDATALOAD PUSH2 0xAA13 PUSH2 0xA6E5 DUP3 PUSH2 0xCD47 JUMP JUMPDEST SWAP2 POP DUP2 DUP2 DUP4 MSTORE PUSH1 0x20 DUP5 ADD SWAP4 POP PUSH1 0x20 DUP2 ADD SWAP1 POP DUP4 DUP6 PUSH2 0x180 DUP5 MUL DUP3 ADD GT ISZERO PUSH2 0xAA39 JUMPI PUSH1 0x0 DUP1 REVERT JUMPDEST PUSH1 0x0 JUMPDEST DUP4 DUP2 LT ISZERO PUSH2 0xA73B JUMPI DUP2 PUSH2 0xAA4F DUP9 DUP3 PUSH2 0xAECF JUMP JUMPDEST DUP5 MSTORE POP PUSH1 0x20 SWAP1 SWAP3 ADD SWAP2 PUSH2 0x180 SWAP2 SWAP1 SWAP2 ADD SWAP1 PUSH1 0x1 ADD PUSH2 0xAA3C JUMP JUMPDEST PUSH1 0x0 DUP3 PUSH1 0x1F DUP4 ADD SLT PUSH2 0xAA79 JUMPI PUSH1 0x0 DUP1 REVERT JUMPDEST DUP2 CALLDATALOAD PUSH2 0xAA87 PUSH2 0xA6E5 DUP3 PUSH2 0xCD47 JUMP JUMPDEST SWAP2 POP DUP2 DUP2 DUP4 MSTORE PUSH1 0x20 DUP5 ADD SWAP4 POP PUSH1 0x20 DUP2 ADD SWAP1 POP DUP4 DUP6 PUSH1 0x80 DUP5 MUL DUP3 ADD GT ISZERO PUSH2 0xAAAC JUMPI PUSH1 0x0 DUP1 REVERT JUMPDEST PUSH1 0x0 JUMPDEST DUP4 DUP2 LT ISZERO PUSH2 0xA73B JUMPI DUP2 PUSH2 0xAAC2 DUP9 DUP3 PUSH2 0xB072 JUMP JUMPDEST DUP5 MSTORE POP PUSH1 0x20 SWAP1 SWAP3 ADD SWAP2 PUSH1 0x80 SWAP2 SWAP1 SWAP2 ADD SWAP1 PUSH1 0x1 ADD PUSH2 0xAAAF JUMP JUMPDEST PUSH1 0x0 DUP3 PUSH1 0x1F DUP4 ADD SLT PUSH2 0xAAEB JUMPI PUSH1 0x0 DUP1 REVERT JUMPDEST DUP2 CALLDATALOAD PUSH2 0xAAF9 PUSH2 0xA6E5 DUP3 PUSH2 0xCD47 JUMP JUMPDEST SWAP2 POP DUP2 DUP2 DUP4 MSTORE PUSH1 0x20 DUP5 ADD SWAP4 POP PUSH1 0x20 DUP2 ADD SWAP1 POP DUP4 DUP6 PUSH1 0x20 DUP5 MUL DUP3 ADD GT ISZERO PUSH2 0xAB1E JUMPI PUSH1 0x0 DUP1 REVERT JUMPDEST PUSH1 0x0 JUMPDEST DUP4 DUP2 LT ISZERO PUSH2 0xA73B JUMPI DUP2 PUSH2 0xAB34 DUP9 DUP3 PUSH2 0xABC5 JUMP JUMPDEST DUP5 MSTORE POP PUSH1 0x20 SWAP3 DUP4 ADD SWAP3 SWAP2 SWAP1 SWAP2 ADD SWAP1 PUSH1 0x1 ADD PUSH2 0xAB21 JUMP JUMPDEST PUSH1 0x0 DUP3 PUSH1 0x1F DUP4 ADD SLT PUSH2 0xAB5B JUMPI PUSH1 0x0 DUP1 REVERT JUMPDEST DUP2 MLOAD PUSH2 0xAB69 PUSH2 0xA6E5 DUP3 PUSH2 0xCD47 JUMP JUMPDEST SWAP2 POP DUP2 DUP2 DUP4 MSTORE PUSH1 0x20 DUP5 ADD SWAP4 POP PUSH1 0x20 DUP2 ADD SWAP1 POP DUP4 DUP6 PUSH1 0x20 DUP5 MUL DUP3 ADD GT ISZERO PUSH2 0xAB8E JUMPI PUSH1 0x0 DUP1 REVERT JUMPDEST PUSH1 0x0 JUMPDEST DUP4 DUP2 LT ISZERO PUSH2 0xA73B JUMPI DUP2 PUSH2 0xABA4 DUP9 DUP3 PUSH2 0xABD0 JUMP JUMPDEST DUP5 MSTORE POP PUSH1 0x20 SWAP3 DUP4 ADD SWAP3 SWAP2 SWAP1 SWAP2 ADD SWAP1 PUSH1 0x1 ADD PUSH2 0xAB91 JUMP JUMPDEST DUP1 MLOAD PUSH2 0x773A DUP2 PUSH2 0xCED1 JUMP JUMPDEST DUP1 CALLDATALOAD PUSH2 0x773A DUP2 PUSH2 0xCEDA JUMP JUMPDEST DUP1 MLOAD PUSH2 0x773A DUP2 PUSH2 0xCEDA JUMP JUMPDEST DUP1 CALLDATALOAD PUSH2 0x773A DUP2 PUSH2 0xCEE3 JUMP JUMPDEST DUP1 MLOAD PUSH2 0x773A DUP2 PUSH2 0xCEE3 JUMP JUMPDEST PUSH1 0x0 DUP3 PUSH1 0x1F DUP4 ADD SLT PUSH2 0xAC02 JUMPI PUSH1 0x0 DUP1 REVERT JUMPDEST DUP2 CALLDATALOAD PUSH2 0xAC10 PUSH2 0xA6E5 DUP3 PUSH2 0xCD67 JUMP JUMPDEST SWAP2 POP DUP1 DUP3 MSTORE PUSH1 0x20 DUP4 ADD PUSH1 0x20 DUP4 ADD DUP6 DUP4 DUP4 ADD GT ISZERO PUSH2 0xAC2C JUMPI PUSH1 0x0 DUP1 REVERT JUMPDEST PUSH2 0x88E0 DUP4 DUP3 DUP5 PUSH2 0xCE5A JUMP JUMPDEST DUP1 CALLDATALOAD PUSH2 0x773A DUP2 PUSH2 0xCEEC JUMP JUMPDEST DUP1 MLOAD PUSH2 0x773A DUP2 PUSH2 0xCEEC JUMP JUMPDEST DUP1 MLOAD PUSH2 0x773A DUP2 PUSH2 0xCEF5 JUMP JUMPDEST DUP1 CALLDATALOAD PUSH2 0x773A DUP2 PUSH2 0xCF02 JUMP JUMPDEST DUP1 CALLDATALOAD PUSH2 0x773A DUP2 PUSH2 0xCF0F JUMP JUMPDEST DUP1 MLOAD PUSH2 0x773A DUP2 PUSH2 0xCF0F JUMP JUMPDEST PUSH1 0x0 PUSH1 0x40 DUP3 DUP5 SUB SLT ISZERO PUSH2 0xAC8B JUMPI PUSH1 0x0 DUP1 REVERT JUMPDEST PUSH2 0xAC95 PUSH1 0x40 PUSH2 0xCD21 JUMP JUMPDEST SWAP1 POP PUSH1 0x0 PUSH2 0xACA3 DUP5 DUP5 PUSH2 0xABC5 JUMP JUMPDEST DUP3 MSTORE POP PUSH1 0x20 PUSH2 0xACB4 DUP5 DUP5 DUP4 ADD PUSH2 0xA6B0 JUMP JUMPDEST PUSH1 0x20 DUP4 ADD MSTORE POP SWAP3 SWAP2 POP POP JUMP JUMPDEST PUSH1 0x0 PUSH1 0x40 DUP3 DUP5 SUB SLT ISZERO PUSH2 0xACD2 JUMPI PUSH1 0x0 DUP1 REVERT JUMPDEST PUSH2 0xACDC PUSH1 0x40 PUSH2 0xCD21 JUMP JUMPDEST SWAP1 POP PUSH1 0x0 PUSH2 0xACEA DUP5 DUP5 PUSH2 0xAC37 JUMP JUMPDEST DUP3 MSTORE POP PUSH1 0x20 DUP3 ADD CALLDATALOAD PUSH1 0x1 PUSH1 0x1 PUSH1 0x40 SHL SUB DUP2 GT ISZERO PUSH2 0xAD06 JUMPI PUSH1 0x0 DUP1 REVERT JUMPDEST PUSH2 0xACB4 DUP5 DUP3 DUP6 ADD PUSH2 0xA7B5 JUMP JUMPDEST PUSH1 0x0 PUSH1 0xA0 DUP3 DUP5 SUB SLT ISZERO PUSH2 0xAD24 JUMPI PUSH1 0x0 DUP1 REVERT JUMPDEST PUSH2 0xAD2E PUSH1 0xA0 PUSH2 0xCD21 JUMP JUMPDEST SWAP1 POP PUSH1 0x0 PUSH2 0xAD3C DUP5 DUP5 PUSH2 0xABC5 JUMP JUMPDEST DUP3 MSTORE POP PUSH1 0x20 PUSH2 0xAD4D DUP5 DUP5 DUP4 ADD PUSH2 0xABC5 JUMP JUMPDEST PUSH1 0x20 DUP4 ADD MSTORE POP PUSH1 0x40 PUSH2 0xAD61 DUP5 DUP3 DUP6 ADD PUSH2 0xABC5 JUMP JUMPDEST PUSH1 0x40 DUP4 ADD MSTORE POP PUSH1 0x60 PUSH2 0xAD75 DUP5 DUP3 DUP6 ADD PUSH2 0xABC5 JUMP JUMPDEST PUSH1 0x60 DUP4 ADD MSTORE POP PUSH1 0x80 DUP3 ADD CALLDATALOAD PUSH1 0x1 PUSH1 0x1 PUSH1 0x40 SHL SUB DUP2 GT ISZERO PUSH2 0xAD94 JUMPI PUSH1 0x0 DUP1 REVERT JUMPDEST PUSH2 0xADA0 DUP5 DUP3 DUP6 ADD PUSH2 0xABF1 JUMP JUMPDEST PUSH1 0x80 DUP4 ADD MSTORE POP SWAP3 SWAP2 POP POP JUMP JUMPDEST PUSH1 0x0 PUSH1 0x60 DUP3 DUP5 SUB SLT ISZERO PUSH2 0xADBE JUMPI PUSH1 0x0 DUP1 REVERT JUMPDEST PUSH2 0xADC8 PUSH1 0x60 PUSH2 0xCD21 JUMP JUMPDEST SWAP1 POP PUSH1 0x0 PUSH2 0xADD6 DUP5 DUP5 PUSH2 0xA6B0 JUMP JUMPDEST DUP3 MSTORE POP PUSH1 0x20 PUSH2 0xADE7 DUP5 DUP5 DUP4 ADD PUSH2 0xABDB JUMP JUMPDEST PUSH1 0x20 DUP4 ADD MSTORE POP PUSH1 0x40 PUSH2 0xADFB DUP5 DUP3 DUP6 ADD PUSH2 0xABDB JUMP JUMPDEST PUSH1 0x40 DUP4 ADD MSTORE POP SWAP3 SWAP2 POP POP JUMP JUMPDEST PUSH1 0x0 PUSH1 0x60 DUP3 DUP5 SUB SLT ISZERO PUSH2 0xAE19 JUMPI PUSH1 0x0 DUP1 REVERT JUMPDEST PUSH2 0xAE23 PUSH1 0x60 PUSH2 0xCD21 JUMP JUMPDEST SWAP1 POP PUSH1 0x0 PUSH2 0xAE31 DUP5 DUP5 PUSH2 0xA6BB JUMP JUMPDEST DUP3 MSTORE POP PUSH1 0x20 PUSH2 0xAE42 DUP5 DUP5 DUP4 ADD PUSH2 0xABE6 JUMP JUMPDEST PUSH1 0x20 DUP4 ADD MSTORE POP PUSH1 0x40 PUSH2 0xADFB DUP5 DUP3 DUP6 ADD PUSH2 0xABE6 JUMP JUMPDEST PUSH1 0x0 PUSH1 0x40 DUP3 DUP5 SUB SLT ISZERO PUSH2 0xAE68 JUMPI PUSH1 0x0 DUP1 REVERT JUMPDEST PUSH2 0xAE72 PUSH1 0x40 PUSH2 0xCD21 JUMP JUMPDEST SWAP1 POP PUSH1 0x0 PUSH2 0xACA3 DUP5 DUP5 PUSH2 0xA6B0 JUMP JUMPDEST PUSH1 0x0 PUSH1 0x60 DUP3 DUP5 SUB SLT ISZERO PUSH2 0xAE92 JUMPI PUSH1 0x0 DUP1 REVERT JUMPDEST PUSH2 0xAE9C PUSH1 0x60 PUSH2 0xCD21 JUMP JUMPDEST SWAP1 POP PUSH1 0x0 PUSH2 0xAEAA DUP5 DUP5 PUSH2 0xA6B0 JUMP JUMPDEST DUP3 MSTORE POP PUSH1 0x20 PUSH2 0xAEBB DUP5 DUP5 DUP4 ADD PUSH2 0xA6B0 JUMP JUMPDEST PUSH1 0x20 DUP4 ADD MSTORE POP PUSH1 0x40 PUSH2 0xADFB DUP5 DUP3 DUP6 ADD PUSH2 0xA6B0 JUMP JUMPDEST PUSH1 0x0 PUSH2 0x180 DUP3 DUP5 SUB SLT ISZERO PUSH2 0xAEE2 JUMPI PUSH1 0x0 DUP1 REVERT JUMPDEST PUSH2 0xAEED PUSH2 0x180 PUSH2 0xCD21 JUMP JUMPDEST SWAP1 POP PUSH1 0x0 PUSH2 0xAEFB DUP5 DUP5 PUSH2 0xAC37 JUMP JUMPDEST DUP3 MSTORE POP PUSH1 0x20 PUSH2 0xAF0C DUP5 DUP5 DUP4 ADD PUSH2 0xAC37 JUMP JUMPDEST PUSH1 0x20 DUP4 ADD MSTORE POP PUSH1 0x40 PUSH2 0xAF20 DUP5 DUP3 DUP6 ADD PUSH2 0xB130 JUMP JUMPDEST PUSH1 0x40 DUP4 ADD MSTORE POP PUSH1 0x60 PUSH2 0xAF34 DUP5 DUP3 DUP6 ADD PUSH2 0xB130 JUMP JUMPDEST PUSH1 0x60 DUP4 ADD MSTORE POP PUSH1 0x80 PUSH2 0xAF48 DUP5 DUP3 DUP6 ADD PUSH2 0xB130 JUMP JUMPDEST PUSH1 0x80 DUP4 ADD MSTORE POP PUSH1 0xA0 PUSH2 0xAF5C DUP5 DUP3 DUP6 ADD PUSH2 0xA6B0 JUMP JUMPDEST PUSH1 0xA0 DUP4 ADD MSTORE POP PUSH1 0xC0 PUSH2 0xAF70 DUP5 DUP3 DUP6 ADD PUSH2 0xA6B0 JUMP JUMPDEST PUSH1 0xC0 DUP4 ADD MSTORE POP PUSH1 0xE0 PUSH2 0xAF84 DUP5 DUP3 DUP6 ADD PUSH2 0xA6B0 JUMP JUMPDEST PUSH1 0xE0 DUP4 ADD MSTORE POP PUSH2 0x100 PUSH2 0xAF99 DUP5 DUP3 DUP6 ADD PUSH2 0xA6B0 JUMP JUMPDEST PUSH2 0x100 DUP4 ADD MSTORE POP PUSH2 0x120 PUSH2 0xAFAF DUP5 DUP3 DUP6 ADD PUSH2 0xABC5 JUMP JUMPDEST PUSH2 0x120 DUP4 ADD MSTORE POP PUSH2 0x140 PUSH2 0xAFC5 DUP5 DUP3 DUP6 ADD PUSH2 0xB151 JUMP JUMPDEST PUSH2 0x140 DUP4 ADD MSTORE POP PUSH2 0x160 PUSH2 0xAFDB DUP5 DUP3 DUP6 ADD PUSH2 0xABC5 JUMP JUMPDEST PUSH2 0x160 DUP4 ADD MSTORE POP SWAP3 SWAP2 POP POP JUMP JUMPDEST PUSH1 0x0 PUSH1 0x60 DUP3 DUP5 SUB SLT ISZERO PUSH2 0xAFFA JUMPI PUSH1 0x0 DUP1 REVERT JUMPDEST PUSH2 0xB004 PUSH1 0x60 PUSH2 0xCD21 JUMP JUMPDEST SWAP1 POP PUSH1 0x0 PUSH2 0xB012 DUP5 DUP5 PUSH2 0xA6B0 JUMP JUMPDEST DUP3 MSTORE POP PUSH1 0x20 PUSH2 0xAEBB DUP5 DUP5 DUP4 ADD PUSH2 0xABC5 JUMP JUMPDEST PUSH1 0x0 PUSH1 0x60 DUP3 DUP5 SUB SLT ISZERO PUSH2 0xB035 JUMPI PUSH1 0x0 DUP1 REVERT JUMPDEST PUSH2 0xB03F PUSH1 0x60 PUSH2 0xCD21 JUMP JUMPDEST SWAP1 POP PUSH1 0x0 PUSH2 0xB04D DUP5 DUP5 PUSH2 0xABD0 JUMP JUMPDEST DUP3 MSTORE POP PUSH1 0x20 PUSH2 0xB05E DUP5 DUP5 DUP4 ADD PUSH2 0xAC4D JUMP JUMPDEST PUSH1 0x20 DUP4 ADD MSTORE POP PUSH1 0x40 PUSH2 0xADFB DUP5 DUP3 DUP6 ADD PUSH2 0xB13B JUMP JUMPDEST PUSH1 0x0 PUSH1 0x80 DUP3 DUP5 SUB SLT ISZERO PUSH2 0xB084 JUMPI PUSH1 0x0 DUP1 REVERT JUMPDEST PUSH2 0xB08E PUSH1 0x80 PUSH2 0xCD21 JUMP JUMPDEST SWAP1 POP PUSH1 0x0 PUSH2 0xB09C DUP5 DUP5 PUSH2 0xAC58 JUMP JUMPDEST DUP3 MSTORE POP PUSH1 0x20 PUSH2 0xB0AD DUP5 DUP5 DUP4 ADD PUSH2 0xB15C JUMP JUMPDEST PUSH1 0x20 DUP4 ADD MSTORE POP PUSH1 0x40 PUSH2 0xB0C1 DUP5 DUP3 DUP6 ADD PUSH2 0xABC5 JUMP JUMPDEST PUSH1 0x40 DUP4 ADD MSTORE POP PUSH1 0x60 PUSH2 0xB0D5 DUP5 DUP3 DUP6 ADD PUSH2 0xABC5 JUMP JUMPDEST PUSH1 0x60 DUP4 ADD MSTORE POP SWAP3 SWAP2 POP POP JUMP JUMPDEST PUSH1 0x0 PUSH1 0x60 DUP3 DUP5 SUB SLT ISZERO PUSH2 0xB0F3 JUMPI PUSH1 0x0 DUP1 REVERT JUMPDEST PUSH2 0xB0FD PUSH1 0x60 PUSH2 0xCD21 JUMP JUMPDEST SWAP1 POP PUSH1 0x0 PUSH2 0xB10B DUP5 DUP5 PUSH2 0xA6BB JUMP JUMPDEST DUP3 MSTORE POP PUSH1 0x20 PUSH2 0xB11C DUP5 DUP5 DUP4 ADD PUSH2 0xA6BB JUMP JUMPDEST PUSH1 0x20 DUP4 ADD MSTORE POP PUSH1 0x40 PUSH2 0xADFB DUP5 DUP3 DUP6 ADD PUSH2 0xABBA JUMP JUMPDEST DUP1 CALLDATALOAD PUSH2 0x773A DUP2 PUSH2 0xCF18 JUMP JUMPDEST DUP1 MLOAD PUSH2 0x773A DUP2 PUSH2 0xCF18 JUMP JUMPDEST DUP1 MLOAD PUSH2 0x773A DUP2 PUSH2 0xCF21 JUMP JUMPDEST DUP1 CALLDATALOAD PUSH2 0x773A DUP2 PUSH2 0xCF2A JUMP JUMPDEST DUP1 CALLDATALOAD PUSH2 0x773A DUP2 PUSH2 0xCF33 JUMP JUMPDEST DUP1 MLOAD PUSH2 0x773A DUP2 PUSH2 0xCF33 JUMP JUMPDEST PUSH1 0x0 PUSH1 0x20 DUP3 DUP5 SUB SLT ISZERO PUSH2 0xB184 JUMPI PUSH1 0x0 DUP1 REVERT JUMPDEST PUSH1 0x0 PUSH2 0x1ACF DUP5 DUP5 PUSH2 0xA6B0 JUMP JUMPDEST PUSH1 0x0 PUSH1 0x20 DUP3 DUP5 SUB SLT ISZERO PUSH2 0xB1A2 JUMPI PUSH1 0x0 DUP1 REVERT JUMPDEST PUSH1 0x0 PUSH2 0x1ACF DUP5 DUP5 PUSH2 0xA6BB JUMP JUMPDEST PUSH1 0x0 DUP1 PUSH1 0x40 DUP4 DUP6 SUB SLT ISZERO PUSH2 0xB1C1 JUMPI PUSH1 0x0 DUP1 REVERT JUMPDEST PUSH1 0x0 PUSH2 0xB1CD DUP6 DUP6 PUSH2 0xA6BB JUMP JUMPDEST SWAP3 POP POP PUSH1 0x20 PUSH2 0xB1DE DUP6 DUP3 DUP7 ADD PUSH2 0xA6BB JUMP JUMPDEST SWAP2 POP POP SWAP3 POP SWAP3 SWAP1 POP JUMP JUMPDEST PUSH1 0x0 DUP1 PUSH1 0x0 DUP1 PUSH1 0x80 DUP6 DUP8 SUB SLT ISZERO PUSH2 0xB1FE JUMPI PUSH1 0x0 DUP1 REVERT JUMPDEST PUSH1 0x0 PUSH2 0xB20A DUP8 DUP8 PUSH2 0xA6BB JUMP JUMPDEST SWAP5 POP POP PUSH1 0x20 PUSH2 0xB21B DUP8 DUP3 DUP9 ADD PUSH2 0xA6BB JUMP JUMPDEST SWAP4 POP POP PUSH1 0x40 PUSH2 0xB22C DUP8 DUP3 DUP9 ADD PUSH2 0xA6BB JUMP JUMPDEST SWAP3 POP POP PUSH1 0x60 PUSH2 0xB23D DUP8 DUP3 DUP9 ADD PUSH2 0xA6BB JUMP JUMPDEST SWAP2 POP POP SWAP3 SWAP6 SWAP2 SWAP5 POP SWAP3 POP JUMP JUMPDEST PUSH1 0x0 DUP1 PUSH1 0x0 PUSH1 0x60 DUP5 DUP7 SUB SLT ISZERO PUSH2 0xB25E JUMPI PUSH1 0x0 DUP1 REVERT JUMPDEST PUSH1 0x0 PUSH2 0xB26A DUP7 DUP7 PUSH2 0xA6BB JUMP JUMPDEST SWAP4 POP POP PUSH1 0x20 PUSH2 0xB27B DUP7 DUP3 DUP8 ADD PUSH2 0xA6BB JUMP JUMPDEST SWAP3 POP POP PUSH1 0x40 DUP5 ADD MLOAD PUSH1 0x1 PUSH1 0x1 PUSH1 0x40 SHL SUB DUP2 GT ISZERO PUSH2 0xB297 JUMPI PUSH1 0x0 DUP1 REVERT JUMPDEST PUSH2 0xB2A3 DUP7 DUP3 DUP8 ADD PUSH2 0xA745 JUMP JUMPDEST SWAP2 POP POP SWAP3 POP SWAP3 POP SWAP3 JUMP JUMPDEST PUSH1 0x0 DUP1 PUSH1 0x0 PUSH1 0x60 DUP5 DUP7 SUB SLT ISZERO PUSH2 0xB2C2 JUMPI PUSH1 0x0 DUP1 REVERT JUMPDEST PUSH1 0x0 PUSH2 0xB2CE DUP7 DUP7 PUSH2 0xA6BB JUMP JUMPDEST SWAP4 POP POP PUSH1 0x20 PUSH2 0xB2DF DUP7 DUP3 DUP8 ADD PUSH2 0xA6BB JUMP JUMPDEST SWAP3 POP POP PUSH1 0x40 PUSH2 0xB2A3 DUP7 DUP3 DUP8 ADD PUSH2 0xABBA JUMP JUMPDEST PUSH1 0x0 DUP1 PUSH1 0x40 DUP4 DUP6 SUB SLT ISZERO PUSH2 0xB303 JUMPI PUSH1 0x0 DUP1 REVERT JUMPDEST PUSH1 0x0 PUSH2 0xB30F DUP6 DUP6 PUSH2 0xA6BB JUMP JUMPDEST SWAP3 POP POP PUSH1 0x20 DUP4 ADD MLOAD PUSH1 0x1 PUSH1 0x1 PUSH1 0x40 SHL SUB DUP2 GT ISZERO PUSH2 0xB32B JUMPI PUSH1 0x0 DUP1 REVERT JUMPDEST PUSH2 0xB1DE DUP6 DUP3 DUP7 ADD PUSH2 0xA745 JUMP JUMPDEST PUSH1 0x0 DUP1 PUSH1 0x0 DUP1 PUSH1 0x0 DUP1 PUSH1 0xC0 DUP8 DUP10 SUB SLT ISZERO PUSH2 0xB350 JUMPI PUSH1 0x0 DUP1 REVERT JUMPDEST PUSH1 0x0 PUSH2 0xB35C DUP10 DUP10 PUSH2 0xA6B0 JUMP JUMPDEST SWAP7 POP POP PUSH1 0x20 PUSH2 0xB36D DUP10 DUP3 DUP11 ADD PUSH2 0xA6B0 JUMP JUMPDEST SWAP6 POP POP PUSH1 0x40 PUSH2 0xB37E DUP10 DUP3 DUP11 ADD PUSH2 0xA6B0 JUMP JUMPDEST SWAP5 POP POP PUSH1 0x60 PUSH2 0xB38F DUP10 DUP3 DUP11 ADD PUSH2 0xA6B0 JUMP JUMPDEST SWAP4 POP POP PUSH1 0x80 PUSH2 0xB3A0 DUP10 DUP3 DUP11 ADD PUSH2 0xA6B0 JUMP JUMPDEST SWAP3 POP POP PUSH1 0xA0 DUP8 ADD CALLDATALOAD PUSH1 0x1 PUSH1 0x1 PUSH1 0x40 SHL SUB DUP2 GT ISZERO PUSH2 0xB3BC JUMPI PUSH1 0x0 DUP1 REVERT JUMPDEST PUSH2 0xB3C8 DUP10 DUP3 DUP11 ADD PUSH2 0xAADA JUMP JUMPDEST SWAP2 POP POP SWAP3 SWAP6 POP SWAP3 SWAP6 POP SWAP3 SWAP6 JUMP JUMPDEST PUSH1 0x0 DUP1 PUSH1 0x0 DUP1 PUSH1 0x0 PUSH1 0xA0 DUP7 DUP9 SUB SLT ISZERO PUSH2 0xB3ED JUMPI PUSH1 0x0 DUP1 REVERT JUMPDEST PUSH1 0x0 PUSH2 0xB3F9 DUP9 DUP9 PUSH2 0xA6B0 JUMP JUMPDEST SWAP6 POP POP PUSH1 0x20 PUSH2 0xB40A DUP9 DUP3 DUP10 ADD PUSH2 0xA6B0 JUMP JUMPDEST SWAP5 POP POP PUSH1 0x40 PUSH2 0xB41B DUP9 DUP3 DUP10 ADD PUSH2 0xA6B0 JUMP JUMPDEST SWAP4 POP POP PUSH1 0x60 PUSH2 0xB42C DUP9 DUP3 DUP10 ADD PUSH2 0xA6B0 JUMP JUMPDEST SWAP3 POP POP PUSH1 0x80 DUP7 ADD CALLDATALOAD PUSH1 0x1 PUSH1 0x1 PUSH1 0x40 SHL SUB DUP2 GT ISZERO PUSH2 0xB448 JUMPI PUSH1 0x0 DUP1 REVERT JUMPDEST PUSH2 0xB454 DUP9 DUP3 DUP10 ADD PUSH2 0xAADA JUMP JUMPDEST SWAP2 POP POP SWAP3 SWAP6 POP SWAP3 SWAP6 SWAP1 SWAP4 POP JUMP JUMPDEST PUSH1 0x0 DUP1 PUSH1 0x0 DUP1 PUSH1 0x80 DUP6 DUP8 SUB SLT ISZERO PUSH2 0xB477 JUMPI PUSH1 0x0 DUP1 REVERT JUMPDEST PUSH1 0x0 PUSH2 0xB483 DUP8 DUP8 PUSH2 0xA6B0 JUMP JUMPDEST SWAP5 POP POP PUSH1 0x20 PUSH2 0xB494 DUP8 DUP3 DUP9 ADD PUSH2 0xA6B0 JUMP JUMPDEST SWAP4 POP POP PUSH1 0x40 PUSH2 0xB4A5 DUP8 DUP3 DUP9 ADD PUSH2 0xA6B0 JUMP JUMPDEST SWAP3 POP POP PUSH1 0x60 DUP6 ADD CALLDATALOAD PUSH1 0x1 PUSH1 0x1 PUSH1 0x40 SHL SUB DUP2 GT ISZERO PUSH2 0xB4C1 JUMPI PUSH1 0x0 DUP1 REVERT JUMPDEST PUSH2 0xB23D DUP8 DUP3 DUP9 ADD PUSH2 0xAADA JUMP JUMPDEST PUSH1 0x0 DUP1 PUSH1 0x0 DUP1 PUSH1 0x80 DUP6 DUP8 SUB SLT ISZERO PUSH2 0xB4E3 JUMPI PUSH1 0x0 DUP1 REVERT JUMPDEST PUSH1 0x0 PUSH2 0xB4EF DUP8 DUP8 PUSH2 0xA6B0 JUMP JUMPDEST SWAP5 POP POP PUSH1 0x20 PUSH2 0xB500 DUP8 DUP3 DUP9 ADD PUSH2 0xA6B0 JUMP JUMPDEST SWAP4 POP POP PUSH1 0x40 PUSH2 0xB511 DUP8 DUP3 DUP9 ADD PUSH2 0xA6B0 JUMP JUMPDEST SWAP3 POP POP PUSH1 0x60 PUSH2 0xB23D DUP8 DUP3 DUP9 ADD PUSH2 0xABC5 JUMP JUMPDEST PUSH1 0x0 DUP1 PUSH1 0x0 DUP1 PUSH1 0x80 DUP6 DUP8 SUB SLT ISZERO PUSH2 0xB538 JUMPI PUSH1 0x0 DUP1 REVERT JUMPDEST PUSH1 0x0 PUSH2 0xB544 DUP8 DUP8 PUSH2 0xA6B0 JUMP JUMPDEST SWAP5 POP POP PUSH1 0x20 PUSH2 0xB555 DUP8 DUP3 DUP9 ADD PUSH2 0xA6B0 JUMP JUMPDEST SWAP4 POP POP PUSH1 0x40 DUP6 ADD CALLDATALOAD PUSH1 0x1 PUSH1 0x1 PUSH1 0x40 SHL SUB DUP2 GT ISZERO PUSH2 0xB571 JUMPI PUSH1 0x0 DUP1 REVERT JUMPDEST PUSH2 0xB4A5 DUP8 DUP3 DUP9 ADD PUSH2 0xA6C6 JUMP JUMPDEST PUSH1 0x0 DUP1 PUSH1 0x0 PUSH1 0x60 DUP5 DUP7 SUB SLT ISZERO PUSH2 0xB592 JUMPI PUSH1 0x0 DUP1 REVERT JUMPDEST PUSH1 0x0 PUSH2 0xB59E DUP7 DUP7 PUSH2 0xA6B0 JUMP JUMPDEST SWAP4 POP POP PUSH1 0x20 DUP5 ADD CALLDATALOAD PUSH1 0x1 PUSH1 0x1 PUSH1 0x40 SHL SUB DUP2 GT ISZERO PUSH2 0xB5BA JUMPI PUSH1 0x0 DUP1 REVERT JUMPDEST PUSH2 0xB5C6 DUP7 DUP3 DUP8 ADD PUSH2 0xA6C6 JUMP JUMPDEST SWAP3 POP POP PUSH1 0x40 DUP5 ADD CALLDATALOAD PUSH1 0x1 PUSH1 0x1 PUSH1 0x40 SHL SUB DUP2 GT ISZERO PUSH2 0xB5E2 JUMPI PUSH1 0x0 DUP1 REVERT JUMPDEST PUSH2 0xB2A3 DUP7 DUP3 DUP8 ADD PUSH2 0xAADA JUMP JUMPDEST PUSH1 0x0 DUP1 PUSH1 0x0 DUP1 PUSH1 0x0 PUSH1 0xA0 DUP7 DUP9 SUB SLT ISZERO PUSH2 0xB606 JUMPI PUSH1 0x0 DUP1 REVERT JUMPDEST PUSH1 0x0 PUSH2 0xB612 DUP9 DUP9 PUSH2 0xA6B0 JUMP JUMPDEST SWAP6 POP POP PUSH1 0x20 PUSH2 0xB40A DUP9 DUP3 DUP10 ADD PUSH2 0xABC5 JUMP JUMPDEST PUSH1 0x0 PUSH1 0x20 DUP3 DUP5 SUB SLT ISZERO PUSH2 0xB635 JUMPI PUSH1 0x0 DUP1 REVERT JUMPDEST DUP2 MLOAD PUSH1 0x1 PUSH1 0x1 PUSH1 0x40 SHL SUB DUP2 GT ISZERO PUSH2 0xB64B JUMPI PUSH1 0x0 DUP1 REVERT JUMPDEST PUSH2 0x1ACF DUP5 DUP3 DUP6 ADD PUSH2 0xA745 JUMP JUMPDEST PUSH1 0x0 DUP1 PUSH1 0x20 DUP4 DUP6 SUB SLT ISZERO PUSH2 0xB66A JUMPI PUSH1 0x0 DUP1 REVERT JUMPDEST DUP3 CALLDATALOAD PUSH1 0x1 PUSH1 0x1 PUSH1 0x40 SHL SUB DUP2 GT ISZERO PUSH2 0xB680 JUMPI PUSH1 0x0 DUP1 REVERT JUMPDEST PUSH2 0xB68C DUP6 DUP3 DUP7 ADD PUSH2 0xA812 JUMP JUMPDEST SWAP3 POP SWAP3 POP POP SWAP3 POP SWAP3 SWAP1 POP JUMP JUMPDEST PUSH1 0x0 DUP1 PUSH1 0x0 PUSH1 0x60 DUP5 DUP7 SUB SLT ISZERO PUSH2 0xB6AD JUMPI PUSH1 0x0 DUP1 REVERT JUMPDEST DUP4 CALLDATALOAD PUSH1 0x1 PUSH1 0x1 PUSH1 0x40 SHL SUB DUP2 GT ISZERO PUSH2 0xB6C3 JUMPI PUSH1 0x0 DUP1 REVERT JUMPDEST PUSH2 0xB6CF DUP7 DUP3 DUP8 ADD PUSH2 0xA85A JUMP JUMPDEST SWAP4 POP POP PUSH1 0x20 DUP5 ADD CALLDATALOAD PUSH1 0x1 PUSH1 0x1 PUSH1 0x40 SHL SUB DUP2 GT ISZERO PUSH2 0xB6EB JUMPI PUSH1 0x0 DUP1 REVERT JUMPDEST PUSH2 0xB6F7 DUP7 DUP3 DUP8 ADD PUSH2 0xA85A JUMP JUMPDEST SWAP3 POP POP PUSH1 0x40 PUSH2 0xB2A3 DUP7 DUP3 DUP8 ADD PUSH2 0xABC5 JUMP JUMPDEST PUSH1 0x0 PUSH1 0x20 DUP3 DUP5 SUB SLT ISZERO PUSH2 0xB71A JUMPI PUSH1 0x0 DUP1 REVERT JUMPDEST DUP2 CALLDATALOAD PUSH1 0x1 PUSH1 0x1 PUSH1 0x40 SHL SUB DUP2 GT ISZERO PUSH2 0xB730 JUMPI PUSH1 0x0 DUP1 REVERT JUMPDEST PUSH2 0x1ACF DUP5 DUP3 DUP6 ADD PUSH2 0xA8B7 JUMP JUMPDEST PUSH1 0x0 DUP1 PUSH1 0x40 DUP4 DUP6 SUB SLT ISZERO PUSH2 0xB74F JUMPI PUSH1 0x0 DUP1 REVERT JUMPDEST DUP3 CALLDATALOAD PUSH1 0x1 PUSH1 0x1 PUSH1 0x40 SHL SUB DUP2 GT ISZERO PUSH2 0xB765 JUMPI PUSH1 0x0 DUP1 REVERT JUMPDEST PUSH2 0xB771 DUP6 DUP3 DUP7 ADD PUSH2 0xA8B7 JUMP JUMPDEST SWAP3 POP POP PUSH1 0x20 PUSH2 0xB1DE DUP6 DUP3 DUP7 ADD PUSH2 0xA6B0 JUMP JUMPDEST PUSH1 0x0 DUP1 PUSH1 0x0 PUSH1 0x60 DUP5 DUP7 SUB SLT ISZERO PUSH2 0xB797 JUMPI PUSH1 0x0 DUP1 REVERT JUMPDEST DUP4 CALLDATALOAD PUSH1 0x1 PUSH1 0x1 PUSH1 0x40 SHL SUB DUP2 GT ISZERO PUSH2 0xB7AD JUMPI PUSH1 0x0 DUP1 REVERT JUMPDEST PUSH2 0xB7B9 DUP7 DUP3 DUP8 ADD PUSH2 0xA8B7 JUMP JUMPDEST SWAP4 POP POP PUSH1 0x20 PUSH2 0xB7CA DUP7 DUP3 DUP8 ADD PUSH2 0xA6B0 JUMP JUMPDEST SWAP3 POP POP PUSH1 0x40 PUSH2 0xB2A3 DUP7 DUP3 DUP8 ADD PUSH2 0xA6B0 JUMP JUMPDEST PUSH1 0x0 PUSH1 0x20 DUP3 DUP5 SUB SLT ISZERO PUSH2 0xB7ED JUMPI PUSH1 0x0 DUP1 REVERT JUMPDEST DUP2 MLOAD PUSH1 0x1 PUSH1 0x1 PUSH1 0x40 SHL SUB DUP2 GT ISZERO PUSH2 0xB803 JUMPI PUSH1 0x0 DUP1 REVERT JUMPDEST PUSH2 0x1ACF DUP5 DUP3 DUP6 ADD PUSH2 0xA927 JUMP JUMPDEST PUSH1 0x0 DUP1 PUSH1 0x0 PUSH1 0x60 DUP5 DUP7 SUB SLT ISZERO PUSH2 0xB824 JUMPI PUSH1 0x0 DUP1 REVERT JUMPDEST DUP4 CALLDATALOAD PUSH1 0x1 PUSH1 0x1 PUSH1 0x40 SHL SUB DUP2 GT ISZERO PUSH2 0xB83A JUMPI PUSH1 0x0 DUP1 REVERT JUMPDEST PUSH2 0xB846 DUP7 DUP3 DUP8 ADD PUSH2 0xA9F4 JUMP JUMPDEST SWAP4 POP POP PUSH1 0x20 DUP5 ADD CALLDATALOAD PUSH1 0x1 PUSH1 0x1 PUSH1 0x40 SHL SUB DUP2 GT ISZERO PUSH2 0xB862 JUMPI PUSH1 0x0 DUP1 REVERT JUMPDEST PUSH2 0xB86E DUP7 DUP3 DUP8 ADD PUSH2 0xAA68 JUMP JUMPDEST SWAP3 POP POP PUSH1 0x40 PUSH2 0xB2A3 DUP7 DUP3 DUP8 ADD PUSH2 0xAC37 JUMP JUMPDEST PUSH1 0x0 PUSH1 0x20 DUP3 DUP5 SUB SLT ISZERO PUSH2 0xB891 JUMPI PUSH1 0x0 DUP1 REVERT JUMPDEST DUP2 MLOAD PUSH1 0x1 PUSH1 0x1 PUSH1 0x40 SHL SUB DUP2 GT ISZERO PUSH2 0xB8A7 JUMPI PUSH1 0x0 DUP1 REVERT JUMPDEST PUSH2 0x1ACF DUP5 DUP3 DUP6 ADD PUSH2 0xAB4A JUMP JUMPDEST PUSH1 0x0 DUP1 PUSH1 0x40 DUP4 DUP6 SUB SLT ISZERO PUSH2 0xB8C6 JUMPI PUSH1 0x0 DUP1 REVERT JUMPDEST DUP3 MLOAD PUSH1 0x1 PUSH1 0x1 PUSH1 0x40 SHL SUB DUP2 GT ISZERO PUSH2 0xB8DC JUMPI PUSH1 0x0 DUP1 REVERT JUMPDEST PUSH2 0xB8E8 DUP6 DUP3 DUP7 ADD PUSH2 0xAB4A JUMP JUMPDEST SWAP3 POP POP PUSH1 0x20 DUP4 ADD MLOAD PUSH1 0x1 PUSH1 0x1 PUSH1 0x40 SHL SUB DUP2 GT ISZERO PUSH2 0xB904 JUMPI PUSH1 0x0 DUP1 REVERT JUMPDEST PUSH2 0xB1DE DUP6 DUP3 DUP7 ADD PUSH2 0xAB4A JUMP JUMPDEST PUSH1 0x0 PUSH1 0x20 DUP3 DUP5 SUB SLT ISZERO PUSH2 0xB922 JUMPI PUSH1 0x0 DUP1 REVERT JUMPDEST PUSH1 0x0 PUSH2 0x1ACF DUP5 DUP5 PUSH2 0xABBA JUMP JUMPDEST PUSH1 0x0 PUSH1 0x20 DUP3 DUP5 SUB SLT ISZERO PUSH2 0xB940 JUMPI PUSH1 0x0 DUP1 REVERT JUMPDEST PUSH1 0x0 PUSH2 0x1ACF DUP5 DUP5 PUSH2 0xABD0 JUMP JUMPDEST PUSH1 0x0 DUP1 PUSH1 0x0 DUP1 PUSH1 0x80 DUP6 DUP8 SUB SLT ISZERO PUSH2 0xB962 JUMPI PUSH1 0x0 DUP1 REVERT JUMPDEST PUSH1 0x0 PUSH2 0xB96E DUP8 DUP8 PUSH2 0xAC37 JUMP JUMPDEST SWAP5 POP POP PUSH1 0x20 DUP6 ADD CALLDATALOAD PUSH1 0x1 PUSH1 0x1 PUSH1 0x40 SHL SUB DUP2 GT ISZERO PUSH2 0xB98A JUMPI PUSH1 0x0 DUP1 REVERT JUMPDEST PUSH2 0xB555 DUP8 DUP3 DUP9 ADD PUSH2 0xA997 JUMP JUMPDEST PUSH1 0x0 DUP1 PUSH1 0x0 DUP1 PUSH1 0x80 DUP6 DUP8 SUB SLT ISZERO PUSH2 0xB9AC JUMPI PUSH1 0x0 DUP1 REVERT JUMPDEST PUSH1 0x0 PUSH2 0xB9B8 DUP8 DUP8 PUSH2 0xAC37 JUMP JUMPDEST SWAP5 POP POP PUSH1 0x20 PUSH2 0xB9C9 DUP8 DUP3 DUP9 ADD PUSH2 0xAC37 JUMP JUMPDEST SWAP4 POP POP PUSH1 0x40 PUSH2 0xB4A5 DUP8 DUP3 DUP9 ADD PUSH2 0xAC37 JUMP JUMPDEST PUSH1 0x0 DUP1 PUSH1 0x0 DUP1 PUSH1 0x80 DUP6 DUP8 SUB SLT ISZERO PUSH2 0xB9F0 JUMPI PUSH1 0x0 DUP1 REVERT JUMPDEST PUSH1 0x0 PUSH2 0xB544 DUP8 DUP8 PUSH2 0xAC37 JUMP JUMPDEST PUSH1 0x0 DUP1 PUSH1 0x0 DUP1 PUSH1 0x80 DUP6 DUP8 SUB SLT ISZERO PUSH2 0xBA12 JUMPI PUSH1 0x0 DUP1 REVERT JUMPDEST PUSH1 0x0 PUSH2 0xBA1E DUP8 DUP8 PUSH2 0xAC37 JUMP JUMPDEST SWAP5 POP POP PUSH1 0x20 PUSH2 0xBA2F DUP8 DUP3 DUP9 ADD PUSH2 0xABC5 JUMP JUMPDEST SWAP4 POP POP PUSH1 0x40 PUSH2 0xB4A5 DUP8 DUP3 DUP9 ADD PUSH2 0xABC5 JUMP JUMPDEST PUSH1 0x0 DUP1 PUSH1 0x0 PUSH1 0x60 DUP5 DUP7 SUB SLT ISZERO PUSH2 0xBA55 JUMPI PUSH1 0x0 DUP1 REVERT JUMPDEST PUSH1 0x0 PUSH2 0xBA61 DUP7 DUP7 PUSH2 0xAC37 JUMP JUMPDEST SWAP4 POP POP PUSH1 0x20 DUP5 ADD CALLDATALOAD PUSH1 0x1 PUSH1 0x1 PUSH1 0x40 SHL SUB DUP2 GT ISZERO PUSH2 0xBA7D JUMPI PUSH1 0x0 DUP1 REVERT JUMPDEST PUSH2 0xB5C6 DUP7 DUP3 DUP8 ADD PUSH2 0xA8B7 JUMP JUMPDEST PUSH1 0x0 PUSH1 0x20 DUP3 DUP5 SUB SLT ISZERO PUSH2 0xBA9B JUMPI PUSH1 0x0 DUP1 REVERT JUMPDEST PUSH1 0x0 PUSH2 0x1ACF DUP5 DUP5 PUSH2 0xAC42 JUMP JUMPDEST PUSH1 0x0 DUP1 PUSH1 0x0 DUP1 PUSH1 0x80 DUP6 DUP8 SUB SLT ISZERO PUSH2 0xBABD JUMPI PUSH1 0x0 DUP1 REVERT JUMPDEST PUSH1 0x0 PUSH2 0xB483 DUP8 DUP8 PUSH2 0xAC37 JUMP JUMPDEST PUSH1 0x0 DUP1 PUSH1 0x80 DUP4 DUP6 SUB SLT ISZERO PUSH2 0xBADC JUMPI PUSH1 0x0 DUP1 REVERT JUMPDEST PUSH1 0x0 PUSH2 0xBAE8 DUP6 DUP6 PUSH2 0xAC42 JUMP JUMPDEST SWAP3 POP POP PUSH1 0x20 PUSH2 0xB1DE DUP6 DUP3 DUP7 ADD PUSH2 0xB0E1 JUMP JUMPDEST PUSH1 0x0 DUP1 PUSH1 0x0 PUSH1 0x60 DUP5 DUP7 SUB SLT ISZERO PUSH2 0xBB0E JUMPI PUSH1 0x0 DUP1 REVERT JUMPDEST PUSH1 0x0 PUSH2 0xBB1A DUP7 DUP7 PUSH2 0xAC42 JUMP JUMPDEST SWAP4 POP POP PUSH1 0x20 PUSH2 0xBB2B DUP7 DUP3 DUP8 ADD PUSH2 0xA6BB JUMP JUMPDEST SWAP3 POP POP PUSH1 0x40 PUSH2 0xB2A3 DUP7 DUP3 DUP8 ADD PUSH2 0xA6BB JUMP JUMPDEST PUSH1 0x0 PUSH1 0x20 DUP3 DUP5 SUB SLT ISZERO PUSH2 0xBB4E JUMPI PUSH1 0x0 DUP1 REVERT JUMPDEST PUSH1 0x0 PUSH2 0x1ACF DUP5 DUP5 PUSH2 0xAC6E JUMP JUMPDEST PUSH1 0x0 DUP1 PUSH1 0x80 DUP4 DUP6 SUB SLT ISZERO PUSH2 0xBB6D JUMPI PUSH1 0x0 DUP1 REVERT JUMPDEST PUSH1 0x0 PUSH2 0xBB79 DUP6 DUP6 PUSH2 0xAC6E JUMP JUMPDEST SWAP3 POP POP PUSH1 0x20 PUSH2 0xB1DE DUP6 DUP3 DUP7 ADD PUSH2 0xAE07 JUMP JUMPDEST PUSH1 0x0 DUP1 PUSH1 0x0 DUP1 PUSH1 0xA0 DUP6 DUP8 SUB SLT ISZERO PUSH2 0xBBA0 JUMPI PUSH1 0x0 DUP1 REVERT JUMPDEST PUSH1 0x0 PUSH2 0xBBAC DUP8 DUP8 PUSH2 0xAC79 JUMP JUMPDEST SWAP5 POP POP PUSH1 0x40 PUSH2 0xBBBD DUP8 DUP3 DUP9 ADD PUSH2 0xA6B0 JUMP JUMPDEST SWAP4 POP POP PUSH1 0x60 PUSH2 0xBBCE DUP8 DUP3 DUP9 ADD PUSH2 0xA6B0 JUMP JUMPDEST SWAP3 POP POP PUSH1 0x80 DUP6 ADD CALLDATALOAD PUSH1 0x1 PUSH1 0x1 PUSH1 0x40 SHL SUB DUP2 GT ISZERO PUSH2 0xB4C1 JUMPI PUSH1 0x0 DUP1 REVERT JUMPDEST PUSH1 0x0 DUP1 PUSH1 0x0 DUP1 PUSH1 0x80 DUP6 DUP8 SUB SLT ISZERO PUSH2 0xBC00 JUMPI PUSH1 0x0 DUP1 REVERT JUMPDEST DUP5 CALLDATALOAD PUSH1 0x1 PUSH1 0x1 PUSH1 0x40 SHL SUB DUP2 GT ISZERO PUSH2 0xBC16 JUMPI PUSH1 0x0 DUP1 REVERT JUMPDEST PUSH2 0xB483 DUP8 DUP3 DUP9 ADD PUSH2 0xACC0 JUMP JUMPDEST PUSH1 0x0 DUP1 PUSH1 0x0 DUP1 PUSH1 0xC0 DUP6 DUP8 SUB SLT ISZERO PUSH2 0xBC38 JUMPI PUSH1 0x0 DUP1 REVERT JUMPDEST PUSH1 0x0 PUSH2 0xBC44 DUP8 DUP8 PUSH2 0xADAC JUMP JUMPDEST SWAP5 POP POP PUSH1 0x60 PUSH2 0xBC55 DUP8 DUP3 DUP9 ADD PUSH2 0xAC63 JUMP JUMPDEST SWAP4 POP POP PUSH1 0x80 PUSH2 0xBC66 DUP8 DUP3 DUP9 ADD PUSH2 0xAC63 JUMP JUMPDEST SWAP3 POP POP PUSH1 0xA0 DUP6 ADD CALLDATALOAD PUSH1 0x1 PUSH1 0x1 PUSH1 0x40 SHL SUB DUP2 GT ISZERO PUSH2 0xB4C1 JUMPI PUSH1 0x0 DUP1 REVERT JUMPDEST PUSH1 0x0 DUP1 PUSH1 0x0 DUP1 PUSH1 0xA0 DUP6 DUP8 SUB SLT ISZERO PUSH2 0xBC98 JUMPI PUSH1 0x0 DUP1 REVERT JUMPDEST PUSH1 0x0 PUSH2 0xBBAC DUP8 DUP8 PUSH2 0xAE56 JUMP JUMPDEST PUSH1 0x0 DUP1 PUSH1 0x0 DUP1 PUSH1 0xC0 DUP6 DUP8 SUB SLT ISZERO PUSH2 0xBCBA JUMPI PUSH1 0x0 DUP1 REVERT JUMPDEST PUSH1 0x0 PUSH2 0xBCC6 DUP8 DUP8 PUSH2 0xAE80 JUMP JUMPDEST SWAP5 POP POP PUSH1 0x60 PUSH2 0xBCD7 DUP8 DUP3 DUP9 ADD PUSH2 0xA6B0 JUMP JUMPDEST SWAP4 POP POP PUSH1 0x80 PUSH2 0xBC66 DUP8 DUP3 DUP9 ADD PUSH2 0xA6B0 JUMP JUMPDEST PUSH1 0x0 DUP1 PUSH1 0x0 PUSH2 0x220 DUP5 DUP7 SUB SLT ISZERO PUSH2 0xBCFE JUMPI PUSH1 0x0 DUP1 REVERT JUMPDEST PUSH1 0x0 PUSH2 0xBD0A DUP7 DUP7 PUSH2 0xAECF JUMP JUMPDEST SWAP4 POP POP PUSH2 0x180 PUSH2 0xBD1C DUP7 DUP3 DUP8 ADD PUSH2 0xB072 JUMP JUMPDEST SWAP3 POP POP PUSH2 0x200 PUSH2 0xB2A3 DUP7 DUP3 DUP8 ADD PUSH2 0xAC37 JUMP JUMPDEST PUSH1 0x0 DUP1 PUSH1 0x0 DUP1 PUSH1 0xC0 DUP6 DUP8 SUB SLT ISZERO PUSH2 0xBD44 JUMPI PUSH1 0x0 DUP1 REVERT JUMPDEST PUSH1 0x0 PUSH2 0xBCC6 DUP8 DUP8 PUSH2 0xAFE8 JUMP JUMPDEST PUSH1 0x0 DUP1 PUSH1 0x0 PUSH1 0xA0 DUP5 DUP7 SUB SLT ISZERO PUSH2 0xBD65 JUMPI PUSH1 0x0 DUP1 REVERT JUMPDEST PUSH1 0x0 PUSH2 0xBD71 DUP7 DUP7 PUSH2 0xB023 JUMP JUMPDEST SWAP4 POP POP PUSH1 0x60 PUSH2 0xBD82 DUP7 DUP3 DUP8 ADD PUSH2 0xB13B JUMP JUMPDEST SWAP3 POP POP PUSH1 0x80 PUSH2 0xB2A3 DUP7 DUP3 DUP8 ADD PUSH2 0xABBA JUMP JUMPDEST PUSH1 0x0 PUSH1 0x20 DUP3 DUP5 SUB SLT ISZERO PUSH2 0xBDA5 JUMPI PUSH1 0x0 DUP1 REVERT JUMPDEST PUSH1 0x0 PUSH2 0x1ACF DUP5 DUP5 PUSH2 0xB146 JUMP JUMPDEST PUSH1 0x0 DUP1 PUSH1 0x40 DUP4 DUP6 SUB SLT ISZERO PUSH2 0xBDC4 JUMPI PUSH1 0x0 DUP1 REVERT JUMPDEST PUSH1 0x0 PUSH2 0xBDD0 DUP6 DUP6 PUSH2 0xABD0 JUMP JUMPDEST SWAP3 POP POP PUSH1 0x20 PUSH2 0xB1DE DUP6 DUP3 DUP7 ADD PUSH2 0xABBA JUMP JUMPDEST PUSH1 0x0 DUP1 PUSH1 0x40 DUP4 DUP6 SUB SLT ISZERO PUSH2 0xBDF4 JUMPI PUSH1 0x0 DUP1 REVERT JUMPDEST PUSH1 0x0 PUSH2 0xBE00 DUP6 DUP6 PUSH2 0xABD0 JUMP JUMPDEST SWAP3 POP POP PUSH1 0x20 PUSH2 0xB1DE DUP6 DUP3 DUP7 ADD PUSH2 0xABD0 JUMP JUMPDEST PUSH1 0x0 DUP1 PUSH1 0x0 PUSH1 0x60 DUP5 DUP7 SUB SLT ISZERO PUSH2 0xBE26 JUMPI PUSH1 0x0 DUP1 REVERT JUMPDEST PUSH1 0x0 PUSH2 0xBE32 DUP7 DUP7 PUSH2 0xABD0 JUMP JUMPDEST SWAP4 POP POP PUSH1 0x20 PUSH2 0xBE43 DUP7 DUP3 DUP8 ADD PUSH2 0xABD0 JUMP JUMPDEST SWAP3 POP POP PUSH1 0x40 PUSH2 0xB2A3 DUP7 DUP3 DUP8 ADD PUSH2 0xABD0 JUMP JUMPDEST PUSH1 0x0 DUP1 PUSH1 0x0 DUP1 PUSH1 0x0 PUSH1 0xA0 DUP7 DUP9 SUB SLT ISZERO PUSH2 0xBE6C JUMPI PUSH1 0x0 DUP1 REVERT JUMPDEST PUSH1 0x0 PUSH2 0xBE78 DUP9 DUP9 PUSH2 0xABD0 JUMP JUMPDEST SWAP6 POP POP PUSH1 0x20 PUSH2 0xBE89 DUP9 DUP3 DUP10 ADD PUSH2 0xABD0 JUMP JUMPDEST SWAP5 POP POP PUSH1 0x40 PUSH2 0xBE9A DUP9 DUP3 DUP10 ADD PUSH2 0xABD0 JUMP JUMPDEST SWAP4 POP POP PUSH1 0x60 PUSH2 0xBEAB DUP9 DUP3 DUP10 ADD PUSH2 0xABD0 JUMP JUMPDEST SWAP3 POP POP PUSH1 0x80 PUSH2 0xB454 DUP9 DUP3 DUP10 ADD PUSH2 0xABD0 JUMP JUMPDEST PUSH1 0x0 PUSH1 0x20 DUP3 DUP5 SUB SLT ISZERO PUSH2 0xBECE JUMPI PUSH1 0x0 DUP1 REVERT JUMPDEST PUSH1 0x0 PUSH2 0x1ACF DUP5 DUP5 PUSH2 0xB167 JUMP JUMPDEST PUSH1 0x0 PUSH2 0xBEE6 DUP4 DUP4 PUSH2 0xBF41 JUMP JUMPDEST POP POP PUSH1 0x20 ADD SWAP1 JUMP JUMPDEST PUSH1 0x0 PUSH2 0xBEE6 DUP4 DUP4 PUSH2 0xC1C6 JUMP JUMPDEST PUSH1 0x0 PUSH2 0x3CB5 DUP4 DUP4 PUSH2 0xC1F7 JUMP JUMPDEST PUSH1 0x0 PUSH2 0x3CB5 DUP4 DUP4 PUSH2 0xC393 JUMP JUMPDEST PUSH1 0x0 PUSH2 0x3CB5 DUP4 DUP4 PUSH2 0xC3F8 JUMP JUMPDEST PUSH1 0x0 PUSH2 0xBF2A DUP4 DUP4 PUSH2 0xC60D JUMP JUMPDEST POP POP PUSH1 0x60 ADD SWAP1 JUMP JUMPDEST PUSH2 0xBF3B DUP2 PUSH2 0xCE23 JUMP JUMPDEST DUP3 MSTORE POP POP JUMP JUMPDEST PUSH2 0xBF3B DUP2 PUSH2 0xCD9B JUMP JUMPDEST PUSH1 0x0 PUSH2 0xBF55 DUP3 PUSH2 0xCD8E JUMP JUMPDEST PUSH2 0xBF5F DUP2 DUP6 PUSH2 0xCD92 JUMP JUMPDEST SWAP4 POP PUSH2 0xBF6A DUP4 PUSH2 0xA29A JUMP JUMPDEST DUP1 PUSH1 0x0 JUMPDEST DUP4 DUP2 LT ISZERO PUSH2 0xBF98 JUMPI DUP2 MLOAD PUSH2 0xBF82 DUP9 DUP3 PUSH2 0xBEDA JUMP JUMPDEST SWAP8 POP PUSH2 0xBF8D DUP4 PUSH2 0xA29A JUMP JUMPDEST SWAP3 POP POP PUSH1 0x1 ADD PUSH2 0xBF6E JUMP JUMPDEST POP SWAP5 SWAP6 SWAP5 POP POP POP POP POP JUMP JUMPDEST PUSH1 0x0 PUSH2 0xBFAE DUP3 PUSH2 0xCD8E JUMP JUMPDEST PUSH2 0xBFB8 DUP2 DUP6 PUSH2 0xCD92 JUMP JUMPDEST SWAP4 POP PUSH2 0xBFC3 DUP4 PUSH2 0xA29A JUMP JUMPDEST DUP1 PUSH1 0x0 JUMPDEST DUP4 DUP2 LT ISZERO PUSH2 0xBF98 JUMPI DUP2 MLOAD PUSH2 0xBFDB DUP9 DUP3 PUSH2 0xBEEE JUMP JUMPDEST SWAP8 POP PUSH2 0xBFE6 DUP4 PUSH2 0xA29A JUMP JUMPDEST SWAP3 POP POP PUSH1 0x1 ADD PUSH2 0xBFC7 JUMP JUMPDEST PUSH1 0x0 PUSH2 0xBFFC DUP3 PUSH2 0xCD8E JUMP JUMPDEST PUSH2 0xC006 DUP2 DUP6 PUSH2 0xCD92 JUMP JUMPDEST SWAP4 POP DUP4 PUSH1 0x20 DUP3 MUL DUP6 ADD PUSH2 0xC018 DUP6 PUSH2 0xA29A JUMP JUMPDEST DUP1 PUSH1 0x0 JUMPDEST DUP6 DUP2 LT ISZERO PUSH2 0xC052 JUMPI DUP5 DUP5 SUB DUP10 MSTORE DUP2 MLOAD PUSH2 0xC035 DUP6 DUP3 PUSH2 0xBEFA JUMP JUMPDEST SWAP5 POP PUSH2 0xC040 DUP4 PUSH2 0xA29A JUMP JUMPDEST PUSH1 0x20 SWAP11 SWAP1 SWAP11 ADD SWAP10 SWAP3 POP POP PUSH1 0x1 ADD PUSH2 0xC01C JUMP JUMPDEST POP SWAP2 SWAP8 SWAP7 POP POP POP POP POP POP POP JUMP JUMPDEST PUSH1 0x0 PUSH2 0xC06A DUP3 PUSH2 0xCD8E JUMP JUMPDEST PUSH2 0xC074 DUP2 DUP6 PUSH2 0xCD92 JUMP JUMPDEST SWAP4 POP DUP4 PUSH1 0x20 DUP3 MUL DUP6 ADD PUSH2 0xC086 DUP6 PUSH2 0xA29A JUMP JUMPDEST DUP1 PUSH1 0x0 JUMPDEST DUP6 DUP2 LT ISZERO PUSH2 0xC052 JUMPI DUP5 DUP5 SUB DUP10 MSTORE DUP2 MLOAD PUSH2 0xC0A3 DUP6 DUP3 PUSH2 0xBF06 JUMP JUMPDEST SWAP5 POP PUSH2 0xC0AE DUP4 PUSH2 0xA29A JUMP JUMPDEST PUSH1 0x20 SWAP11 SWAP1 SWAP11 ADD SWAP10 SWAP3 POP POP PUSH1 0x1 ADD PUSH2 0xC08A JUMP JUMPDEST PUSH1 0x0 PUSH2 0xC0CB DUP3 PUSH2 0xCD8E JUMP JUMPDEST PUSH2 0xC0D5 DUP2 DUP6 PUSH2 0xCD92 JUMP JUMPDEST SWAP4 POP DUP4 PUSH1 0x20 DUP3 MUL DUP6 ADD PUSH2 0xC0E7 DUP6 PUSH2 0xA29A JUMP JUMPDEST DUP1 PUSH1 0x0 JUMPDEST DUP6 DUP2 LT ISZERO PUSH2 0xC052 JUMPI DUP5 DUP5 SUB DUP10 MSTORE DUP2 MLOAD PUSH2 0xC104 DUP6 DUP3 PUSH2 0xBF12 JUMP JUMPDEST SWAP5 POP PUSH2 0xC10F DUP4 PUSH2 0xA29A JUMP JUMPDEST PUSH1 0x20 SWAP11 SWAP1 SWAP11 ADD SWAP10 SWAP3 POP POP PUSH1 0x1 ADD PUSH2 0xC0EB JUMP JUMPDEST PUSH1 0x0 PUSH2 0xC12C DUP3 PUSH2 0xCD8E JUMP JUMPDEST PUSH2 0xC136 DUP2 DUP6 PUSH2 0xCD92 JUMP JUMPDEST SWAP4 POP PUSH2 0xC141 DUP4 PUSH2 0xA29A JUMP JUMPDEST DUP1 PUSH1 0x0 JUMPDEST DUP4 DUP2 LT ISZERO PUSH2 0xBF98 JUMPI DUP2 MLOAD PUSH2 0xC159 DUP9 DUP3 PUSH2 0xBF1E JUMP JUMPDEST SWAP8 POP PUSH2 0xC164 DUP4 PUSH2 0xA29A JUMP JUMPDEST SWAP3 POP POP PUSH1 0x1 ADD PUSH2 0xC145 JUMP JUMPDEST PUSH1 0x0 PUSH2 0xC17A DUP3 PUSH2 0xCD8E JUMP JUMPDEST PUSH2 0xC184 DUP2 DUP6 PUSH2 0xCD92 JUMP JUMPDEST SWAP4 POP PUSH2 0xC18F DUP4 PUSH2 0xA29A JUMP JUMPDEST DUP1 PUSH1 0x0 JUMPDEST DUP4 DUP2 LT ISZERO PUSH2 0xBF98 JUMPI DUP2 MLOAD PUSH2 0xC1A7 DUP9 DUP3 PUSH2 0xBEEE JUMP JUMPDEST SWAP8 POP PUSH2 0xC1B2 DUP4 PUSH2 0xA29A JUMP JUMPDEST SWAP3 POP POP PUSH1 0x1 ADD PUSH2 0xC193 JUMP JUMPDEST PUSH2 0xBF3B DUP2 PUSH2 0xCDA6 JUMP JUMPDEST PUSH2 0xBF3B DUP2 PUSH2 0xCDAB JUMP JUMPDEST PUSH2 0xBF3B DUP2 PUSH2 0xCDAE JUMP JUMPDEST PUSH1 0x0 PUSH2 0xC1E4 DUP4 DUP6 PUSH2 0x131E JUMP JUMPDEST SWAP4 POP PUSH2 0xC1F1 DUP4 DUP6 DUP5 PUSH2 0xCE5A JUMP JUMPDEST POP POP ADD SWAP1 JUMP JUMPDEST PUSH1 0x0 PUSH2 0xC202 DUP3 PUSH2 0xCD8E JUMP JUMPDEST PUSH2 0xC20C DUP2 DUP6 PUSH2 0xCD92 JUMP JUMPDEST SWAP4 POP PUSH2 0xC21C DUP2 DUP6 PUSH1 0x20 DUP7 ADD PUSH2 0xCE66 JUMP JUMPDEST PUSH2 0xC225 DUP2 PUSH2 0xCE92 JUMP JUMPDEST SWAP1 SWAP4 ADD SWAP4 SWAP3 POP POP POP JUMP JUMPDEST PUSH1 0x0 PUSH2 0xC23A DUP3 PUSH2 0xCD8E JUMP JUMPDEST PUSH2 0xC244 DUP2 DUP6 PUSH2 0x131E JUMP JUMPDEST SWAP4 POP PUSH2 0xC254 DUP2 DUP6 PUSH1 0x20 DUP7 ADD PUSH2 0xCE66 JUMP JUMPDEST SWAP3 SWAP1 SWAP3 ADD SWAP3 SWAP2 POP POP JUMP JUMPDEST PUSH2 0xBF3B DUP2 PUSH2 0xCDBB JUMP JUMPDEST PUSH2 0xBF3B DUP2 PUSH2 0xCE2E JUMP JUMPDEST PUSH2 0xBF3B DUP2 PUSH2 0xCE39 JUMP JUMPDEST PUSH2 0xBF3B DUP2 PUSH2 0xCE44 JUMP JUMPDEST PUSH2 0xBF3B DUP2 PUSH2 0xCDE4 JUMP JUMPDEST PUSH2 0xBF3B DUP2 PUSH2 0xCE4F JUMP JUMPDEST PUSH1 0x0 PUSH2 0xC2A1 PUSH1 0x25 DUP4 PUSH2 0xCD92 JUMP JUMPDEST PUSH32 0x455243323042726964676553616D706C65722F494E56414C49445F544F4B454E DUP2 MSTORE PUSH5 0x2FA820A4A9 PUSH1 0xD9 SHL PUSH1 0x20 DUP3 ADD MSTORE PUSH1 0x40 ADD SWAP3 SWAP2 POP POP JUMP JUMPDEST PUSH9 0x22BC31B430B733B2B9 PUSH1 0xB9 SHL SWAP1 MSTORE JUMP JUMPDEST PUSH9 0xA6F2DCE8D0CAE8D2F PUSH1 0xBB SHL SWAP1 MSTORE JUMP JUMPDEST PUSH1 0x0 PUSH2 0xC30A PUSH1 0x2E DUP4 PUSH2 0xCD92 JUMP JUMPDEST PUSH32 0x556E6973776170563353616D706C65722F756E737570706F7274656420746F6B DUP2 MSTORE PUSH14 0xCADC40E0C2E8D040D8CADCCEE8D PUSH1 0x93 SHL PUSH1 0x20 DUP3 ADD MSTORE PUSH1 0x40 ADD SWAP3 SWAP2 POP POP JUMP JUMPDEST PUSH1 0x0 PUSH2 0xC35A PUSH1 0x24 DUP4 PUSH2 0xCD92 JUMP JUMPDEST PUSH32 0x556E69737761705633436F6D6D6F6E2F696E76616C69642070617468206C656E DUP2 MSTORE PUSH4 0x67746873 PUSH1 0xE0 SHL PUSH1 0x20 DUP3 ADD MSTORE PUSH1 0x40 ADD SWAP3 SWAP2 POP POP JUMP JUMPDEST DUP1 MLOAD PUSH1 0x0 SWAP1 PUSH1 0xA0 DUP5 ADD SWAP1 PUSH2 0xC3A7 DUP6 DUP3 PUSH2 0xC1C6 JUMP JUMPDEST POP PUSH1 0x20 DUP4 ADD MLOAD PUSH2 0xC3BA PUSH1 0x20 DUP7 ADD DUP3 PUSH2 0xC1C6 JUMP JUMPDEST POP PUSH1 0x40 DUP4 ADD MLOAD PUSH2 0xC3CD PUSH1 0x40 DUP7 ADD DUP3 PUSH2 0xC1C6 JUMP JUMPDEST POP PUSH1 0x60 DUP4 ADD MLOAD PUSH2 0xC3E0 PUSH1 0x60 DUP7 ADD DUP3 PUSH2 0xC1C6 JUMP JUMPDEST POP PUSH1 0x80 DUP4 ADD MLOAD DUP5 DUP3 SUB PUSH1 0x80 DUP7 ADD MSTORE PUSH2 0x36E6 DUP3 DUP3 PUSH2 0xC1F7 JUMP JUMPDEST DUP1 MLOAD PUSH1 0x40 DUP1 DUP5 MSTORE PUSH1 0x0 SWAP2 SWAP1 DUP5 ADD SWAP1 PUSH2 0xC410 DUP3 DUP3 PUSH2 0xC1F7 JUMP JUMPDEST SWAP2 POP POP PUSH1 0x20 DUP4 ADD MLOAD PUSH2 0x11B1 PUSH1 0x20 DUP7 ADD DUP3 PUSH2 0xC1BD JUMP JUMPDEST DUP1 MLOAD PUSH1 0x60 DUP4 ADD SWAP1 PUSH2 0xC436 DUP5 DUP3 PUSH2 0xBF41 JUMP JUMPDEST POP PUSH1 0x20 DUP3 ADD MLOAD PUSH2 0xC449 PUSH1 0x20 DUP6 ADD DUP3 PUSH2 0xC1CF JUMP JUMPDEST POP PUSH1 0x40 DUP3 ADD MLOAD PUSH2 0xC45C PUSH1 0x40 DUP6 ADD DUP3 PUSH2 0xC1CF JUMP JUMPDEST POP POP POP POP JUMP JUMPDEST DUP1 MLOAD PUSH1 0x80 DUP4 ADD SWAP1 PUSH2 0xC473 DUP5 DUP3 PUSH2 0xBF41 JUMP JUMPDEST POP PUSH1 0x20 DUP3 ADD MLOAD PUSH2 0xC486 PUSH1 0x20 DUP6 ADD DUP3 PUSH2 0xC1BD JUMP JUMPDEST POP PUSH1 0x40 DUP3 ADD MLOAD PUSH2 0xC499 PUSH1 0x40 DUP6 ADD DUP3 PUSH2 0xBF41 JUMP JUMPDEST POP PUSH1 0x60 DUP3 ADD MLOAD PUSH2 0xC45C PUSH1 0x60 DUP6 ADD DUP3 PUSH2 0xC1BD JUMP JUMPDEST DUP1 MLOAD PUSH1 0x0 SWAP1 PUSH1 0x40 DUP5 ADD SWAP1 PUSH2 0xC4C0 DUP6 DUP3 PUSH2 0xC1C6 JUMP JUMPDEST POP PUSH1 0x20 DUP4 ADD MLOAD DUP5 DUP3 SUB PUSH1 0x20 DUP7 ADD MSTORE PUSH2 0x36E6 DUP3 DUP3 PUSH2 0xC1F7 JUMP JUMPDEST DUP1 MLOAD PUSH2 0x180 DUP4 ADD SWAP1 PUSH2 0xC4EA DUP5 DUP3 PUSH2 0xC25E JUMP JUMPDEST POP PUSH1 0x20 DUP3 ADD MLOAD PUSH2 0xC4FD PUSH1 0x20 DUP6 ADD DUP3 PUSH2 0xC25E JUMP JUMPDEST POP PUSH1 0x40 DUP3 ADD MLOAD PUSH2 0xC510 PUSH1 0x40 DUP6 ADD DUP3 PUSH2 0xC644 JUMP JUMPDEST POP PUSH1 0x60 DUP3 ADD MLOAD PUSH2 0xC523 PUSH1 0x60 DUP6 ADD DUP3 PUSH2 0xC644 JUMP JUMPDEST POP PUSH1 0x80 DUP3 ADD MLOAD PUSH2 0xC536 PUSH1 0x80 DUP6 ADD DUP3 PUSH2 0xC644 JUMP JUMPDEST POP PUSH1 0xA0 DUP3 ADD MLOAD PUSH2 0xC549 PUSH1 0xA0 DUP6 ADD DUP3 PUSH2 0xBF41 JUMP JUMPDEST POP PUSH1 0xC0 DUP3 ADD MLOAD PUSH2 0xC55C PUSH1 0xC0 DUP6 ADD DUP3 PUSH2 0xBF41 JUMP JUMPDEST POP PUSH1 0xE0 DUP3 ADD MLOAD PUSH2 0xC56F PUSH1 0xE0 DUP6 ADD DUP3 PUSH2 0xBF41 JUMP JUMPDEST POP PUSH2 0x100 DUP3 ADD MLOAD PUSH2 0xC584 PUSH2 0x100 DUP6 ADD DUP3 PUSH2 0xBF41 JUMP JUMPDEST POP PUSH2 0x120 DUP3 ADD MLOAD PUSH2 0xC599 PUSH2 0x120 DUP6 ADD DUP3 PUSH2 0xC1C6 JUMP JUMPDEST POP PUSH2 0x140 DUP3 ADD MLOAD PUSH2 0xC5AE PUSH2 0x140 DUP6 ADD DUP3 PUSH2 0xC656 JUMP JUMPDEST POP PUSH2 0x160 DUP3 ADD MLOAD PUSH2 0xC45C PUSH2 0x160 DUP6 ADD DUP3 PUSH2 0xC1C6 JUMP JUMPDEST DUP1 MLOAD PUSH1 0x80 DUP4 ADD SWAP1 PUSH2 0xC5D4 DUP5 DUP3 PUSH2 0xC267 JUMP JUMPDEST POP PUSH1 0x20 DUP3 ADD MLOAD PUSH2 0xC5E7 PUSH1 0x20 DUP6 ADD DUP3 PUSH2 0xC65F JUMP JUMPDEST POP PUSH1 0x40 DUP3 ADD MLOAD PUSH2 0xC5FA PUSH1 0x40 DUP6 ADD DUP3 PUSH2 0xC1C6 JUMP JUMPDEST POP PUSH1 0x60 DUP3 ADD MLOAD PUSH2 0xC45C PUSH1 0x60 DUP6 ADD DUP3 PUSH2 0xC1C6 JUMP JUMPDEST DUP1 MLOAD PUSH1 0x60 DUP4 ADD SWAP1 PUSH2 0xC61E DUP5 DUP3 PUSH2 0xBF41 JUMP JUMPDEST POP PUSH1 0x20 DUP3 ADD MLOAD PUSH2 0xC631 PUSH1 0x20 DUP6 ADD DUP3 PUSH2 0xBF41 JUMP JUMPDEST POP PUSH1 0x40 DUP3 ADD MLOAD PUSH2 0xC45C PUSH1 0x40 DUP6 ADD DUP3 PUSH2 0xC1BD JUMP JUMPDEST PUSH2 0xBF3B DUP2 PUSH2 0xCDEA JUMP JUMPDEST PUSH2 0xBF3B DUP2 PUSH2 0xCE09 JUMP JUMPDEST PUSH2 0xBF3B DUP2 PUSH2 0xCE11 JUMP JUMPDEST PUSH2 0xBF3B DUP2 PUSH2 0xCE1D JUMP JUMPDEST PUSH1 0x0 PUSH2 0x1ACF DUP3 DUP5 DUP7 PUSH2 0xC1D8 JUMP JUMPDEST PUSH1 0x0 PUSH2 0x3CB5 DUP3 DUP5 PUSH2 0xC22F JUMP JUMPDEST PUSH1 0x20 DUP2 ADD PUSH2 0x773A DUP3 DUP5 PUSH2 0xBF41 JUMP JUMPDEST PUSH1 0x40 DUP2 ADD PUSH2 0xC69D DUP3 DUP6 PUSH2 0xBF32 JUMP JUMPDEST PUSH2 0x3CB5 PUSH1 0x20 DUP4 ADD DUP5 PUSH2 0xC1C6 JUMP JUMPDEST PUSH1 0x40 DUP2 ADD PUSH2 0xC6B8 DUP3 DUP6 PUSH2 0xBF41 JUMP JUMPDEST PUSH2 0x3CB5 PUSH1 0x20 DUP4 ADD DUP5 PUSH2 0xBF41 JUMP JUMPDEST PUSH1 0x80 DUP2 ADD PUSH2 0xC6D3 DUP3 DUP8 PUSH2 0xBF41 JUMP JUMPDEST PUSH2 0xC6E0 PUSH1 0x20 DUP4 ADD DUP7 PUSH2 0xBF41 JUMP JUMPDEST PUSH2 0xC6ED PUSH1 0x40 DUP4 ADD DUP6 PUSH2 0xBF41 JUMP JUMPDEST PUSH2 0x36E6 PUSH1 0x60 DUP4 ADD DUP5 PUSH2 0xBF41 JUMP JUMPDEST PUSH1 0x80 DUP2 ADD PUSH2 0xC708 DUP3 DUP8 PUSH2 0xBF41 JUMP JUMPDEST PUSH2 0xC715 PUSH1 0x20 DUP4 ADD DUP7 PUSH2 0xBF41 JUMP JUMPDEST PUSH2 0xC722 PUSH1 0x40 DUP4 ADD DUP6 PUSH2 0xBF41 JUMP JUMPDEST DUP2 DUP2 SUB PUSH1 0x60 DUP4 ADD MSTORE PUSH2 0x4150 DUP2 DUP5 PUSH2 0xC16F JUMP JUMPDEST PUSH1 0x60 DUP2 ADD PUSH2 0xC742 DUP3 DUP7 PUSH2 0xBF41 JUMP JUMPDEST PUSH2 0xC74F PUSH1 0x20 DUP4 ADD DUP6 PUSH2 0xBF41 JUMP JUMPDEST DUP2 DUP2 SUB PUSH1 0x40 DUP4 ADD MSTORE PUSH2 0x36E6 DUP2 DUP5 PUSH2 0xBF4A JUMP JUMPDEST PUSH1 0x80 DUP2 ADD PUSH2 0xC76F DUP3 DUP8 PUSH2 0xBF41 JUMP JUMPDEST PUSH2 0xC77C PUSH1 0x20 DUP4 ADD DUP7 PUSH2 0xBF41 JUMP JUMPDEST DUP2 DUP2 SUB PUSH1 0x40 DUP4 ADD MSTORE PUSH2 0xC78E DUP2 DUP6 PUSH2 0xBF4A JUMP JUMPDEST SWAP1 POP DUP2 DUP2 SUB PUSH1 0x60 DUP4 ADD MSTORE PUSH2 0x4150 DUP2 DUP5 PUSH2 0xC16F JUMP JUMPDEST PUSH1 0x60 DUP2 ADD PUSH2 0xC7B0 DUP3 DUP7 PUSH2 0xBF41 JUMP JUMPDEST PUSH2 0xC7BD PUSH1 0x20 DUP4 ADD DUP6 PUSH2 0xBF41 JUMP JUMPDEST PUSH2 0x1ACF PUSH1 0x40 DUP4 ADD DUP5 PUSH2 0xC1BD JUMP JUMPDEST PUSH1 0x60 DUP2 ADD PUSH2 0xC7D8 DUP3 DUP7 PUSH2 0xBF41 JUMP JUMPDEST PUSH2 0xC7E5 PUSH1 0x20 DUP4 ADD DUP6 PUSH2 0xBF41 JUMP JUMPDEST PUSH2 0x1ACF PUSH1 0x40 DUP4 ADD DUP5 PUSH2 0xC64D JUMP JUMPDEST PUSH1 0x60 DUP2 ADD PUSH2 0xC800 DUP3 DUP7 PUSH2 0xBF41 JUMP JUMPDEST PUSH2 0xC80D PUSH1 0x20 DUP4 ADD DUP6 PUSH2 0xBF41 JUMP JUMPDEST PUSH2 0x1ACF PUSH1 0x40 DUP4 ADD DUP5 PUSH2 0xC1C6 JUMP JUMPDEST PUSH1 0x40 DUP2 ADD PUSH2 0xC828 DUP3 DUP6 PUSH2 0xBF41 JUMP JUMPDEST DUP2 DUP2 SUB PUSH1 0x20 DUP4 ADD MSTORE PUSH2 0x1ACF DUP2 DUP5 PUSH2 0xBF4A JUMP JUMPDEST PUSH1 0x60 DUP2 ADD PUSH2 0xC848 DUP3 DUP7 PUSH2 0xBF41 JUMP JUMPDEST DUP2 DUP2 SUB PUSH1 0x20 DUP4 ADD MSTORE PUSH2 0xC85A DUP2 DUP6 PUSH2 0xBF4A JUMP JUMPDEST SWAP1 POP DUP2 DUP2 SUB PUSH1 0x40 DUP4 ADD MSTORE PUSH2 0x36E6 DUP2 DUP5 PUSH2 0xC16F JUMP JUMPDEST PUSH1 0x40 DUP2 ADD PUSH2 0xC87C DUP3 DUP6 PUSH2 0xBF41 JUMP JUMPDEST DUP2 DUP2 SUB PUSH1 0x20 DUP4 ADD MSTORE PUSH2 0x1ACF DUP2 DUP5 PUSH2 0xC16F JUMP JUMPDEST PUSH1 0x40 DUP2 ADD PUSH2 0xC69D DUP3 DUP6 PUSH2 0xBF41 JUMP JUMPDEST PUSH1 0x60 DUP2 ADD PUSH2 0xC8AA DUP3 DUP7 PUSH2 0xBF41 JUMP JUMPDEST PUSH2 0xC8B7 PUSH1 0x20 DUP4 ADD DUP6 PUSH2 0xC1C6 JUMP JUMPDEST PUSH2 0x1ACF PUSH1 0x40 DUP4 ADD DUP5 PUSH2 0xC28B JUMP JUMPDEST PUSH1 0x40 DUP1 DUP3 MSTORE DUP2 ADD PUSH2 0xC8D5 DUP2 DUP6 PUSH2 0xBF4A JUMP JUMPDEST SWAP1 POP DUP2 DUP2 SUB PUSH1 0x20 DUP4 ADD MSTORE PUSH2 0x1ACF DUP2 DUP5 PUSH2 0xC16F JUMP JUMPDEST PUSH1 0x40 DUP1 DUP3 MSTORE DUP2 ADD PUSH2 0xC8FA DUP2 DUP6 PUSH2 0xBF4A JUMP JUMPDEST SWAP1 POP PUSH2 0x3CB5 PUSH1 0x20 DUP4 ADD DUP5 PUSH2 0xC1C6 JUMP JUMPDEST PUSH1 0x40 DUP1 DUP3 MSTORE DUP2 ADD PUSH2 0xC8D5 DUP2 DUP6 PUSH2 0xBFA3 JUMP JUMPDEST PUSH1 0x60 DUP1 DUP3 MSTORE DUP2 ADD PUSH2 0xC92B DUP2 DUP7 PUSH2 0xBFF1 JUMP JUMPDEST SWAP1 POP DUP2 DUP2 SUB PUSH1 0x20 DUP4 ADD MSTORE PUSH2 0xC85A DUP2 DUP6 PUSH2 0xC16F JUMP JUMPDEST PUSH1 0x20 DUP1 DUP3 MSTORE DUP2 ADD PUSH2 0x3CB5 DUP2 DUP5 PUSH2 0xC0C0 JUMP JUMPDEST PUSH1 0x20 DUP1 DUP3 MSTORE DUP2 ADD PUSH2 0x3CB5 DUP2 DUP5 PUSH2 0xC16F JUMP JUMPDEST PUSH1 0x20 DUP2 ADD PUSH2 0x773A DUP3 DUP5 PUSH2 0xC1BD JUMP JUMPDEST PUSH1 0x60 DUP2 ADD PUSH2 0xC97D DUP3 DUP7 PUSH2 0xC1BD JUMP JUMPDEST PUSH2 0xC98A PUSH1 0x20 DUP4 ADD DUP6 PUSH2 0xBF41 JUMP JUMPDEST DUP2 DUP2 SUB PUSH1 0x40 DUP4 ADD MSTORE PUSH2 0x36E6 DUP2 DUP5 PUSH2 0xC16F JUMP JUMPDEST PUSH1 0x40 DUP2 ADD PUSH2 0xC87C DUP3 DUP6 PUSH2 0xC1BD JUMP JUMPDEST PUSH1 0x20 DUP2 ADD PUSH2 0x773A DUP3 DUP5 PUSH2 0xC1C6 JUMP JUMPDEST PUSH1 0x40 DUP2 ADD PUSH2 0xC87C DUP3 DUP6 PUSH2 0xC25E JUMP JUMPDEST PUSH1 0x60 DUP2 ADD PUSH2 0xC9D4 DUP3 DUP7 PUSH2 0xC25E JUMP JUMPDEST DUP2 DUP2 SUB PUSH1 0x20 DUP4 ADD MSTORE PUSH2 0xC85A DUP2 DUP6 PUSH2 0xC1F7 JUMP JUMPDEST PUSH1 0x60 DUP2 ADD PUSH2 0xC9F4 DUP3 DUP7 PUSH2 0xC25E JUMP JUMPDEST PUSH2 0xCA01 PUSH1 0x20 DUP4 ADD DUP6 PUSH2 0xBF41 JUMP JUMPDEST PUSH2 0x1ACF PUSH1 0x40 DUP4 ADD DUP5 PUSH2 0xBF41 JUMP JUMPDEST PUSH1 0x80 DUP2 ADD PUSH2 0xCA1C DUP3 DUP8 PUSH2 0xC25E JUMP JUMPDEST PUSH2 0xCA29 PUSH1 0x20 DUP4 ADD DUP7 PUSH2 0xBF41 JUMP JUMPDEST PUSH2 0xCA36 PUSH1 0x40 DUP4 ADD DUP6 PUSH2 0xBF41 JUMP JUMPDEST PUSH2 0x36E6 PUSH1 0x60 DUP4 ADD DUP5 PUSH2 0xC1C6 JUMP JUMPDEST PUSH1 0x80 DUP2 ADD PUSH2 0xCA51 DUP3 DUP6 PUSH2 0xC25E JUMP JUMPDEST PUSH2 0x3CB5 PUSH1 0x20 DUP4 ADD DUP5 PUSH2 0xC60D JUMP JUMPDEST PUSH1 0x80 DUP2 ADD PUSH2 0xC708 DUP3 DUP8 PUSH2 0xC25E JUMP JUMPDEST PUSH1 0x60 DUP2 ADD PUSH2 0xCA7A DUP3 DUP7 PUSH2 0xC267 JUMP JUMPDEST PUSH2 0xC80D PUSH1 0x20 DUP4 ADD DUP6 PUSH2 0xC1C6 JUMP JUMPDEST PUSH1 0x60 DUP2 ADD PUSH2 0xCA7A DUP3 DUP7 PUSH2 0xC270 JUMP JUMPDEST PUSH1 0xE0 DUP2 ADD PUSH2 0xCAA3 DUP3 DUP8 PUSH2 0xC279 JUMP JUMPDEST DUP2 DUP2 SUB PUSH1 0x20 DUP4 ADD MSTORE PUSH2 0xCAB5 DUP2 DUP7 PUSH2 0xC05F JUMP JUMPDEST SWAP1 POP DUP2 DUP2 SUB PUSH1 0x40 DUP4 ADD MSTORE PUSH2 0xCAC9 DUP2 DUP6 PUSH2 0xBF4A JUMP JUMPDEST SWAP1 POP PUSH2 0x36E6 PUSH1 0x60 DUP4 ADD DUP5 PUSH2 0xC462 JUMP JUMPDEST PUSH1 0x60 DUP2 ADD PUSH2 0xCAE6 DUP3 DUP7 PUSH2 0xC282 JUMP JUMPDEST PUSH2 0xC80D PUSH1 0x20 DUP4 ADD DUP6 PUSH2 0xC282 JUMP JUMPDEST PUSH1 0x80 DUP2 ADD PUSH2 0xCB01 DUP3 DUP6 PUSH2 0xC282 JUMP JUMPDEST PUSH2 0x3CB5 PUSH1 0x20 DUP4 ADD DUP5 PUSH2 0xC425 JUMP JUMPDEST PUSH1 0x20 DUP1 DUP3 MSTORE DUP2 ADD PUSH2 0x773A DUP2 PUSH2 0xC294 JUMP JUMPDEST PUSH1 0x20 DUP2 ADD PUSH2 0x131E DUP3 PUSH2 0xC2DB JUMP JUMPDEST PUSH1 0x20 DUP2 ADD PUSH2 0x131E DUP3 PUSH2 0xC2EC JUMP JUMPDEST PUSH1 0x20 DUP1 DUP3 MSTORE DUP2 ADD PUSH2 0x773A DUP2 PUSH2 0xC2FD JUMP JUMPDEST PUSH1 0x20 DUP1 DUP3 MSTORE DUP2 ADD PUSH2 0x773A DUP2 PUSH2 0xC34D JUMP JUMPDEST PUSH1 0xC0 DUP2 ADD PUSH2 0xCB66 DUP3 DUP8 PUSH2 0xC425 JUMP JUMPDEST PUSH2 0xCB73 PUSH1 0x60 DUP4 ADD DUP7 PUSH2 0xC282 JUMP JUMPDEST PUSH2 0xCB80 PUSH1 0x80 DUP4 ADD DUP6 PUSH2 0xC282 JUMP JUMPDEST DUP2 DUP2 SUB PUSH1 0xA0 DUP4 ADD MSTORE PUSH2 0x4150 DUP2 DUP5 PUSH2 0xC16F JUMP JUMPDEST PUSH1 0x60 DUP1 DUP3 MSTORE DUP2 ADD PUSH2 0xCBA3 DUP2 DUP7 PUSH2 0xC4AC JUMP JUMPDEST SWAP1 POP DUP2 DUP2 SUB PUSH1 0x20 DUP4 ADD MSTORE PUSH2 0xC85A DUP2 DUP6 PUSH2 0xC4AC JUMP JUMPDEST PUSH2 0x200 DUP2 ADD PUSH2 0xCBC6 DUP3 DUP6 PUSH2 0xC4D8 JUMP JUMPDEST PUSH2 0x3CB5 PUSH2 0x180 DUP4 ADD DUP5 PUSH2 0xC5C3 JUMP JUMPDEST PUSH2 0x220 DUP2 ADD PUSH2 0xCBE3 DUP3 DUP7 PUSH2 0xC4D8 JUMP JUMPDEST PUSH2 0xCBF1 PUSH2 0x180 DUP4 ADD DUP6 PUSH2 0xC5C3 JUMP JUMPDEST PUSH2 0x1ACF PUSH2 0x200 DUP4 ADD DUP5 PUSH2 0xC25E JUMP JUMPDEST PUSH1 0x60 DUP2 ADD PUSH2 0xC9F4 DUP3 DUP7 PUSH2 0xC1C6 JUMP JUMPDEST PUSH1 0x40 DUP2 ADD PUSH2 0xC828 DUP3 DUP6 PUSH2 0xC1C6 JUMP JUMPDEST PUSH1 0x60 DUP2 ADD PUSH2 0xCC29 DUP3 DUP7 PUSH2 0xC1C6 JUMP JUMPDEST DUP2 DUP2 SUB PUSH1 0x20 DUP4 ADD MSTORE PUSH2 0xCC3B DUP2 DUP6 PUSH2 0xBF4A JUMP JUMPDEST SWAP1 POP DUP2 DUP2 SUB PUSH1 0x40 DUP4 ADD MSTORE PUSH2 0x36E6 DUP2 DUP5 PUSH2 0xBF4A JUMP JUMPDEST PUSH1 0x40 DUP2 ADD PUSH2 0xCC5D DUP3 DUP6 PUSH2 0xC1C6 JUMP JUMPDEST DUP2 DUP2 SUB PUSH1 0x20 DUP4 ADD MSTORE PUSH2 0x1ACF DUP2 DUP5 PUSH2 0xC121 JUMP JUMPDEST PUSH1 0x60 DUP2 ADD PUSH2 0xCA7A DUP3 DUP7 PUSH2 0xC1C6 JUMP JUMPDEST PUSH1 0xC0 DUP2 ADD PUSH2 0xCC8B DUP3 DUP10 PUSH2 0xC1C6 JUMP JUMPDEST PUSH2 0xCC98 PUSH1 0x20 DUP4 ADD DUP9 PUSH2 0xC1C6 JUMP JUMPDEST PUSH2 0xCCA5 PUSH1 0x40 DUP4 ADD DUP8 PUSH2 0xC1C6 JUMP JUMPDEST PUSH2 0xCCB2 PUSH1 0x60 DUP4 ADD DUP7 PUSH2 0xC1C6 JUMP JUMPDEST PUSH2 0xCCBF PUSH1 0x80 DUP4 ADD DUP6 PUSH2 0xC1C6 JUMP JUMPDEST PUSH2 0x8B2A PUSH1 0xA0 DUP4 ADD DUP5 PUSH2 0xC1C6 JUMP JUMPDEST PUSH1 0x0 DUP1 DUP4 CALLDATALOAD PUSH1 0x1E NOT CALLDATASIZE DUP6 SWAP1 SUB ADD DUP2 SLT PUSH2 0xCCE4 JUMPI PUSH1 0x0 DUP1 REVERT JUMPDEST DUP1 DUP5 ADD SWAP3 POP DUP3 CALLDATALOAD SWAP2 POP PUSH1 0x1 PUSH1 0x1 PUSH1 0x40 SHL SUB DUP3 GT ISZERO PUSH2 0xCD01 JUMPI PUSH1 0x0 DUP1 REVERT JUMPDEST PUSH1 0x20 DUP4 ADD SWAP3 POP PUSH1 0x1 DUP3 MUL CALLDATASIZE SUB DUP4 SGT ISZERO PUSH2 0xCD19 JUMPI PUSH1 0x0 DUP1 REVERT JUMPDEST POP SWAP3 POP SWAP3 SWAP1 POP JUMP JUMPDEST PUSH1 0x40 MLOAD DUP2 DUP2 ADD PUSH1 0x1 PUSH1 0x1 PUSH1 0x40 SHL SUB DUP2 GT DUP3 DUP3 LT OR ISZERO PUSH2 0xCD3F JUMPI PUSH1 0x0 DUP1 REVERT JUMPDEST PUSH1 0x40 MSTORE SWAP2 SWAP1 POP JUMP JUMPDEST PUSH1 0x0 PUSH1 0x1 PUSH1 0x1 PUSH1 0x40 SHL SUB DUP3 GT ISZERO PUSH2 0xCD5D JUMPI PUSH1 0x0 DUP1 REVERT JUMPDEST POP PUSH1 0x20 SWAP1 DUP2 MUL ADD SWAP1 JUMP JUMPDEST PUSH1 0x0 PUSH1 0x1 PUSH1 0x1 PUSH1 0x40 SHL SUB DUP3 GT ISZERO PUSH2 0xCD7D JUMPI PUSH1 0x0 DUP1 REVERT JUMPDEST POP PUSH1 0x20 PUSH1 0x1F SWAP2 SWAP1 SWAP2 ADD PUSH1 0x1F NOT AND ADD SWAP1 JUMP JUMPDEST MLOAD SWAP1 JUMP JUMPDEST SWAP1 DUP2 MSTORE PUSH1 0x20 ADD SWAP1 JUMP JUMPDEST PUSH1 0x0 PUSH2 0x773A DUP3 PUSH2 0xCDFD JUMP JUMPDEST ISZERO ISZERO SWAP1 JUMP JUMPDEST SWAP1 JUMP JUMPDEST PUSH1 0x1 PUSH1 0x1 PUSH1 0xE0 SHL SUB NOT AND SWAP1 JUMP JUMPDEST PUSH1 0x0 PUSH2 0x773A DUP3 PUSH2 0xCD9B JUMP JUMPDEST DUP1 PUSH2 0x131E DUP2 PUSH2 0xCE9C JUMP JUMPDEST DUP1 PUSH2 0x131E DUP2 PUSH2 0xCEA9 JUMP JUMPDEST DUP1 PUSH2 0x131E DUP2 PUSH2 0xCEB3 JUMP JUMPDEST PUSH1 0xF SIGNEXTEND SWAP1 JUMP JUMPDEST PUSH1 0x1 PUSH1 0x1 PUSH1 0x80 SHL SUB AND SWAP1 JUMP JUMPDEST PUSH2 0xFFFF AND SWAP1 JUMP JUMPDEST PUSH1 0x1 PUSH1 0x1 PUSH1 0xA0 SHL SUB AND SWAP1 JUMP JUMPDEST PUSH3 0xFFFFFF AND SWAP1 JUMP JUMPDEST PUSH1 0x1 PUSH1 0x1 PUSH1 0x40 SHL SUB AND SWAP1 JUMP JUMPDEST PUSH1 0xFF AND SWAP1 JUMP JUMPDEST PUSH1 0x0 PUSH2 0x773A DUP3 PUSH2 0xCDBB JUMP JUMPDEST PUSH1 0x0 PUSH2 0x773A DUP3 PUSH2 0xCDC6 JUMP JUMPDEST PUSH1 0x0 PUSH2 0x773A DUP3 PUSH2 0xCDD0 JUMP JUMPDEST PUSH1 0x0 PUSH2 0x773A DUP3 PUSH2 0xCDDA JUMP JUMPDEST PUSH1 0x0 PUSH2 0x773A DUP3 PUSH2 0xCDF6 JUMP JUMPDEST DUP3 DUP2 DUP4 CALLDATACOPY POP PUSH1 0x0 SWAP2 ADD MSTORE JUMP JUMPDEST PUSH1 0x0 JUMPDEST DUP4 DUP2 LT ISZERO PUSH2 0xCE81 JUMPI DUP2 DUP2 ADD MLOAD DUP4 DUP3 ADD MSTORE PUSH1 0x20 ADD PUSH2 0xCE69 JUMP JUMPDEST DUP4 DUP2 GT ISZERO PUSH2 0xC45C JUMPI POP POP PUSH1 0x0 SWAP2 ADD MSTORE JUMP JUMPDEST PUSH1 0x1F ADD PUSH1 0x1F NOT AND SWAP1 JUMP JUMPDEST PUSH1 0x4 DUP2 LT PUSH2 0xCEA6 JUMPI INVALID JUMPDEST POP JUMP JUMPDEST PUSH1 0x8 DUP2 LT PUSH2 0xCEA6 JUMPI INVALID JUMPDEST PUSH1 0x2 DUP2 LT PUSH2 0xCEA6 JUMPI INVALID JUMPDEST PUSH2 0xCEC6 DUP2 PUSH2 0xCD9B JUMP JUMPDEST DUP2 EQ PUSH2 0xCEA6 JUMPI PUSH1 0x0 DUP1 REVERT JUMPDEST PUSH2 0xCEC6 DUP2 PUSH2 0xCDA6 JUMP JUMPDEST PUSH2 0xCEC6 DUP2 PUSH2 0xCDAB JUMP JUMPDEST PUSH2 0xCEC6 DUP2 PUSH2 0xCDAE JUMP JUMPDEST PUSH2 0xCEC6 DUP2 PUSH2 0xCDBB JUMP JUMPDEST PUSH1 0x5 DUP2 LT PUSH2 0xCEA6 JUMPI PUSH1 0x0 DUP1 REVERT JUMPDEST PUSH1 0x4 DUP2 LT PUSH2 0xCEA6 JUMPI PUSH1 0x0 DUP1 REVERT JUMPDEST PUSH2 0xCEC6 DUP2 PUSH2 0xCDE4 JUMP JUMPDEST PUSH2 0xCEC6 DUP2 PUSH2 0xCDEA JUMP JUMPDEST PUSH2 0xCEC6 DUP2 PUSH2 0xCE09 JUMP JUMPDEST PUSH2 0xCEC6 DUP2 PUSH2 0xCE11 JUMP JUMPDEST PUSH2 0xCEC6 DUP2 PUSH2 0xCE1D JUMP INVALID LOG2 PUSH5 0x6970667358 0x22 SLT KECCAK256 SWAP9 0x23 0xB1 0xD0 0xEC PUSH20 0xA395BC5AC48F93CC2C0218A5B102B3C4884CA302 LOG4 PUSH30 0x248EE0C064736F6C634300060C0033000000000000000000000000000000 "
            }
        }
    },
    "sourceTreeHashHex": "0x162fa3134952294eee60dbd33edbf8c2986c7cd9787fa2df7823e1e786149054",
    "compiler": {
        "name": "solc",
        "version": "0.6.12+commit.27d51765",
        "settings": {
            "remappings": [
                "@0x/contracts-utils=/Users/davidwalsh/code/0x-api/node_modules/@0x/contracts-utils",
                "@0x/contracts-erc20=/Users/davidwalsh/code/0x-api/node_modules/@0x/contracts-erc20",
                "@uniswap/v3-core=/Users/davidwalsh/code/0x-api/node_modules/@uniswap/v3-core",
                "@uniswap/v3-periphery=/Users/davidwalsh/code/0x-api/node_modules/@uniswap/v3-periphery"
            ],
            "optimizer": {
                "enabled": true,
                "runs": 200,
                "details": {
                    "yul": false,
                    "deduplicate": true
                }
            },
            "outputSelection": {
                "*": {
                    "*": [
                        "abi",
                        "devdoc",
                        "evm.bytecode.object",
                        "evm.bytecode.sourceMap",
                        "evm.deployedBytecode.object",
                        "evm.deployedBytecode.sourceMap"
                    ]
                }
            },
            "evmVersion": "istanbul"
        }
    },
    "chains": {}
}