{
    "schemaVersion": "2.0.0",
    "contractName": "BatchFillNativeOrdersFeature",
    "compilerOutput": {
        "abi": [
            {
                "inputs": [
                    {
                        "internalType": "address",
                        "name": "zeroExAddress",
                        "type": "address"
                    }
                ],
                "stateMutability": "nonpayable",
                "type": "constructor"
            },
            {
                "inputs": [],
                "name": "EIP712_DOMAIN_SEPARATOR",
                "outputs": [
                    {
                        "internalType": "bytes32",
                        "name": "",
                        "type": "bytes32"
                    }
                ],
                "stateMutability": "view",
                "type": "function"
            },
            {
                "inputs": [],
                "name": "FEATURE_NAME",
                "outputs": [
                    {
                        "internalType": "string",
                        "name": "",
                        "type": "string"
                    }
                ],
                "stateMutability": "view",
                "type": "function"
            },
            {
                "inputs": [],
                "name": "FEATURE_VERSION",
                "outputs": [
                    {
                        "internalType": "uint256",
                        "name": "",
                        "type": "uint256"
                    }
                ],
                "stateMutability": "view",
                "type": "function"
            },
            {
                "inputs": [
                    {
                        "components": [
                            {
                                "internalType": "contract IERC20TokenV06",
                                "name": "makerToken",
                                "type": "address"
                            },
                            {
                                "internalType": "contract IERC20TokenV06",
                                "name": "takerToken",
                                "type": "address"
                            },
                            {
                                "internalType": "uint128",
                                "name": "makerAmount",
                                "type": "uint128"
                            },
                            {
                                "internalType": "uint128",
                                "name": "takerAmount",
                                "type": "uint128"
                            },
                            {
                                "internalType": "uint128",
                                "name": "takerTokenFeeAmount",
                                "type": "uint128"
                            },
                            {
                                "internalType": "address",
                                "name": "maker",
                                "type": "address"
                            },
                            {
                                "internalType": "address",
                                "name": "taker",
                                "type": "address"
                            },
                            {
                                "internalType": "address",
                                "name": "sender",
                                "type": "address"
                            },
                            {
                                "internalType": "address",
                                "name": "feeRecipient",
                                "type": "address"
                            },
                            {
                                "internalType": "bytes32",
                                "name": "pool",
                                "type": "bytes32"
                            },
                            {
                                "internalType": "uint64",
                                "name": "expiry",
                                "type": "uint64"
                            },
                            {
                                "internalType": "uint256",
                                "name": "salt",
                                "type": "uint256"
                            }
                        ],
                        "internalType": "struct LibNativeOrder.LimitOrder[]",
                        "name": "orders",
                        "type": "tuple[]"
                    },
                    {
                        "components": [
                            {
                                "internalType": "enum LibSignature.SignatureType",
                                "name": "signatureType",
                                "type": "uint8"
                            },
                            {
                                "internalType": "uint8",
                                "name": "v",
                                "type": "uint8"
                            },
                            {
                                "internalType": "bytes32",
                                "name": "r",
                                "type": "bytes32"
                            },
                            {
                                "internalType": "bytes32",
                                "name": "s",
                                "type": "bytes32"
                            }
                        ],
                        "internalType": "struct LibSignature.Signature[]",
                        "name": "signatures",
                        "type": "tuple[]"
                    },
                    {
                        "internalType": "uint128[]",
                        "name": "takerTokenFillAmounts",
                        "type": "uint128[]"
                    },
                    {
                        "internalType": "bool",
                        "name": "revertIfIncomplete",
                        "type": "bool"
                    }
                ],
                "name": "batchFillLimitOrders",
                "outputs": [
                    {
                        "internalType": "uint128[]",
                        "name": "takerTokenFilledAmounts",
                        "type": "uint128[]"
                    },
                    {
                        "internalType": "uint128[]",
                        "name": "makerTokenFilledAmounts",
                        "type": "uint128[]"
                    }
                ],
                "stateMutability": "payable",
                "type": "function"
            },
            {
                "inputs": [
                    {
                        "components": [
                            {
                                "internalType": "contract IERC20TokenV06",
                                "name": "makerToken",
                                "type": "address"
                            },
                            {
                                "internalType": "contract IERC20TokenV06",
                                "name": "takerToken",
                                "type": "address"
                            },
                            {
                                "internalType": "uint128",
                                "name": "makerAmount",
                                "type": "uint128"
                            },
                            {
                                "internalType": "uint128",
                                "name": "takerAmount",
                                "type": "uint128"
                            },
                            {
                                "internalType": "address",
                                "name": "maker",
                                "type": "address"
                            },
                            {
                                "internalType": "address",
                                "name": "taker",
                                "type": "address"
                            },
                            {
                                "internalType": "address",
                                "name": "txOrigin",
                                "type": "address"
                            },
                            {
                                "internalType": "bytes32",
                                "name": "pool",
                                "type": "bytes32"
                            },
                            {
                                "internalType": "uint64",
                                "name": "expiry",
                                "type": "uint64"
                            },
                            {
                                "internalType": "uint256",
                                "name": "salt",
                                "type": "uint256"
                            }
                        ],
                        "internalType": "struct LibNativeOrder.RfqOrder[]",
                        "name": "orders",
                        "type": "tuple[]"
                    },
                    {
                        "components": [
                            {
                                "internalType": "enum LibSignature.SignatureType",
                                "name": "signatureType",
                                "type": "uint8"
                            },
                            {
                                "internalType": "uint8",
                                "name": "v",
                                "type": "uint8"
                            },
                            {
                                "internalType": "bytes32",
                                "name": "r",
                                "type": "bytes32"
                            },
                            {
                                "internalType": "bytes32",
                                "name": "s",
                                "type": "bytes32"
                            }
                        ],
                        "internalType": "struct LibSignature.Signature[]",
                        "name": "signatures",
                        "type": "tuple[]"
                    },
                    {
                        "internalType": "uint128[]",
                        "name": "takerTokenFillAmounts",
                        "type": "uint128[]"
                    },
                    {
                        "internalType": "bool",
                        "name": "revertIfIncomplete",
                        "type": "bool"
                    }
                ],
                "name": "batchFillRfqOrders",
                "outputs": [
                    {
                        "internalType": "uint128[]",
                        "name": "takerTokenFilledAmounts",
                        "type": "uint128[]"
                    },
                    {
                        "internalType": "uint128[]",
                        "name": "makerTokenFilledAmounts",
                        "type": "uint128[]"
                    }
                ],
                "stateMutability": "nonpayable",
                "type": "function"
            },
            {
                "inputs": [],
                "name": "migrate",
                "outputs": [
                    {
                        "internalType": "bytes4",
                        "name": "success",
                        "type": "bytes4"
                    }
                ],
                "stateMutability": "nonpayable",
                "type": "function"
            }
        ],
        "devdoc": {
            "details": "Feature for batch/market filling limit and RFQ orders.",
            "kind": "dev",
            "methods": {
                "batchFillLimitOrders((address,address,uint128,uint128,uint128,address,address,address,address,bytes32,uint64,uint256)[],(uint8,uint8,bytes32,bytes32)[],uint128[],bool)": {
                    "details": "Fills multiple limit orders.",
                    "params": {
                        "orders": "Array of limit orders.",
                        "revertIfIncomplete": "If true, reverts if this function fails to        fill the full fill amount for any individual order.",
                        "signatures": "Array of signatures corresponding to each order.",
                        "takerTokenFillAmounts": "Array of desired amounts to fill each order."
                    },
                    "returns": {
                        "makerTokenFilledAmounts": "Array of amounts filled, in maker token.",
                        "takerTokenFilledAmounts": "Array of amounts filled, in taker token."
                    }
                },
                "batchFillRfqOrders((address,address,uint128,uint128,address,address,address,bytes32,uint64,uint256)[],(uint8,uint8,bytes32,bytes32)[],uint128[],bool)": {
                    "details": "Fills multiple RFQ orders.",
                    "params": {
                        "orders": "Array of RFQ orders.",
                        "revertIfIncomplete": "If true, reverts if this function fails to        fill the full fill amount for any individual order.",
                        "signatures": "Array of signatures corresponding to each order.",
                        "takerTokenFillAmounts": "Array of desired amounts to fill each order."
                    },
                    "returns": {
                        "makerTokenFilledAmounts": "Array of amounts filled, in maker token.",
                        "takerTokenFilledAmounts": "Array of amounts filled, in taker token."
                    }
                },
                "migrate()": {
                    "details": "Initialize and register this feature.      Should be delegatecalled by `Migrate.migrate()`.",
                    "returns": {
                        "success": "`LibMigrate.SUCCESS` on success."
                    }
                }
            },
            "stateVariables": {
                "FEATURE_NAME": {
                    "details": "Name of this feature."
                },
                "FEATURE_VERSION": {
                    "details": "Version of this feature."
                }
            },
            "version": 1
        },
        "evm": {
            "bytecode": {
                "linkReferences": {},
                "object": "0x60e0604052620000136001600080620000f1565b60c0523480156200002357600080fd5b5060405162001c0138038062001c01833981016040819052620000469162000123565b3060601b60805260405181904690620000cc907f8b73c3c69bb8fe3d512ecc4cf759cc79239f7b179b0ffacaa9a75d522b39400f907f9e5dae0addaf20578aeb5d70341d092b53b4e14480ac5726438fd436df7ba427907f06c015bd22b4c69690933c1058878ebdfef31f9aaae40bbe86d8a09fe1b2972c908590879060200162000153565b60408051601f19818403018152919052805160209091012060a052506200017f915050565b6bffffffff0000000000000000604084901b1667ffffffff00000000602084901b161763ffffffff8216179392505050565b60006020828403121562000135578081fd5b81516001600160a01b03811681146200014c578182fd5b9392505050565b9485526020850193909352604084019190915260608301526001600160a01b0316608082015260a00190565b60805160601c60a05160c051611a4d620001b4600039806101315250806108c65280610ab9525080610de05250611a4d6000f3fe6080604052600436106100655760003560e01c806375103cb91161004357806375103cb9146100d85780638fd3ab80146100f8578063dab400f31461011a57610065565b8063031b905c1461006a5780631baaa00b146100955780636ae4b4f7146100b6575b600080fd5b34801561007657600080fd5b5061007f61012f565b60405161008c91906114c9565b60405180910390f35b6100a86100a3366004611000565b610153565b60405161008c92919061149b565b3480156100c257600080fd5b506100cb61052c565b60405161008c919061157e565b3480156100e457600080fd5b506100a86100f33660046110d4565b610565565b34801561010457600080fd5b5061010d61084b565b60405161008c91906114e8565b34801561012657600080fd5b5061007f6108c4565b7f000000000000000000000000000000000000000000000000000000000000000081565b606080878614801561016457508784145b6101a3576040517f08c379a000000000000000000000000000000000000000000000000000000000815260040161019a906115ef565b60405180910390fd5b8767ffffffffffffffff811180156101ba57600080fd5b506040519080825280602002602001820160405280156101e4578160200160208202803683370190505b5091508767ffffffffffffffff811180156101fe57600080fd5b50604051908082528060200260200182016040528015610228578160200160208202803683370190505b50905060006102c33a3073ffffffffffffffffffffffffffffffffffffffff1663487b5c206040518163ffffffff1660e01b815260040160206040518083038186803b15801561027757600080fd5b505afa15801561028b573d6000803e3d6000fd5b505050506040513d601f19601f820116820180604052508101906102af9190611344565b63ffffffff166108e890919063ffffffff16565b90506000805b808b14610514573063414e4ccf8d8d848181106102e257fe5b905061018002018c8c858181106102f557fe5b9050608002018b8b8681811061030757fe5b905060200201602081019061031c91906112ef565b33336040518663ffffffff1660e01b815260040161033e9594939291906116f5565b6040805180830381600087803b15801561035757600080fd5b505af19250505080156103a5575060408051601f3d9081017fffffffffffffffffffffffffffffffffffffffffffffffffffffffffffffffe01682019092526103a29181019061130b565b60015b6103ae57610401565b81818885815181106103bc57fe5b602002602001018886815181106103cf57fe5b6fffffffffffffffffffffffffffffffff9384166020918202929092010152911690526103fc8486610922565b935050505b858015610464575087878281811061041557fe5b905060200201602081019061042a91906112ef565b6fffffffffffffffffffffffffffffffff1685828151811061044857fe5b60200260200101516fffffffffffffffffffffffffffffffff16105b1561050c57600061049e6104998e8e8581811061047d57fe5b90506101800201803603810190610494919061113b565b61093e565b610ab5565b905061050a610505828885815181106104b357fe5b60200260200101516fffffffffffffffffffffffffffffffff168c8c878181106104d957fe5b90506020020160208101906104ee91906112ef565b6fffffffffffffffffffffffffffffffff16610b07565b610bc5565b505b6001016102c9565b5061051e81610bcd565b505097509795505050505050565b6040518060400160405280600981526020017f426174636846696c6c000000000000000000000000000000000000000000000081525081565b606080878614801561057657508784145b6105ac576040517f08c379a000000000000000000000000000000000000000000000000000000000815260040161019a90611672565b8767ffffffffffffffff811180156105c357600080fd5b506040519080825280602002602001820160405280156105ed578160200160208202803683370190505b5091508767ffffffffffffffff8111801561060757600080fd5b50604051908082528060200260200182016040528015610631578160200160208202803683370190505b50905060005b80891461083e573063a656186b8b8b8481811061065057fe5b905061014002018a8a8581811061066357fe5b90506080020189898681811061067557fe5b905060200201602081019061068a91906112ef565b336040518563ffffffff1660e01b81526004016106aa949392919061185f565b6040805180830381600087803b1580156106c357600080fd5b505af1925050508015610711575060408051601f3d9081017fffffffffffffffffffffffffffffffffffffffffffffffffffffffffffffffe016820190925261070e9181019061130b565b60015b61071a57610761565b818186858151811061072857fe5b6020026020010186868151811061073b57fe5b6fffffffffffffffffffffffffffffffff93841660209182029290920101529116905250505b8380156107c4575085858281811061077557fe5b905060200201602081019061078a91906112ef565b6fffffffffffffffffffffffffffffffff168382815181106107a857fe5b60200260200101516fffffffffffffffffffffffffffffffff16105b156108365760006107f96104998c8c858181106107dd57fe5b905061014002018036038101906107f49190611228565b610c73565b90506108346105058286858151811061080e57fe5b60200260200101516fffffffffffffffffffffffffffffffff168a8a878181106104d957fe5b505b600101610637565b5097509795505050505050565b60006108767f1baaa00b00000000000000000000000000000000000000000000000000000000610daa565b61089f7f75103cb900000000000000000000000000000000000000000000000000000000610daa565b507f2c64c5ef0000000000000000000000000000000000000000000000000000000090565b7f000000000000000000000000000000000000000000000000000000000000000081565b6000826108f75750600061091c565b8282028284828161090457fe5b04146109195761091961050560018686610e3d565b90505b92915050565b6000828201838110156109195761091961050560008686610e3d565b60006040517fce918627cb55462ddbb85e73de69a8b322f2bc88f4507c52fcad6d4c33c29d498152825173ffffffffffffffffffffffffffffffffffffffff166020820152602083015173ffffffffffffffffffffffffffffffffffffffff16604082015260408301516fffffffffffffffffffffffffffffffff16606082015260608301516fffffffffffffffffffffffffffffffff16608082015260808301516fffffffffffffffffffffffffffffffff1660a082015260a083015173ffffffffffffffffffffffffffffffffffffffff1660c082015260c083015173ffffffffffffffffffffffffffffffffffffffff1660e082015260e083015173ffffffffffffffffffffffffffffffffffffffff1661010082015261010083015173ffffffffffffffffffffffffffffffffffffffff1661012082015261012083015161014082015261014083015167ffffffffffffffff166101608201526101608301516101808201526101a08120915050919050565b60007f000000000000000000000000000000000000000000000000000000000000000082604051602001610aea92919061143c565b604051602081830303815290604052805190602001209050919050565b60607f1d44aa5d44fd7162f13b456f3c7766598d02f56029c083df67a6f11a6edd3c3e848484604051602401610b3f939291906114d2565b604080517fffffffffffffffffffffffffffffffffffffffffffffffffffffffffffffffe08184030181529190526020810180517bffffffffffffffffffffffffffffffffffffffffffffffffffffffff167fffffffff000000000000000000000000000000000000000000000000000000009093169290921790915290509392505050565b805160208201fd5b8034118015610bdc5750333014155b15610c70576000610bed3483610e5c565b905060003373ffffffffffffffffffffffffffffffffffffffff1682604051610c1590611472565b60006040518083038185875af1925050503d8060008114610c52576040519150601f19603f3d011682016040523d82523d6000602084013e610c57565b606091505b5050905080610c6d57610c6d6105053384610e7b565b50505b50565b60006040517fe593d3fdfa8b60e5e17a1b2204662ecbe15c23f2084b9ad5bae40359540a7da98152825173ffffffffffffffffffffffffffffffffffffffff166020820152602083015173ffffffffffffffffffffffffffffffffffffffff16604082015260408301516fffffffffffffffffffffffffffffffff16606082015260608301516fffffffffffffffffffffffffffffffff166080820152608083015173ffffffffffffffffffffffffffffffffffffffff1660a082015260a083015173ffffffffffffffffffffffffffffffffffffffff1660c082015260c083015173ffffffffffffffffffffffffffffffffffffffff1660e082015260e083015161010082015261010083015167ffffffffffffffff166101208201526101208301516101408201526101608120915050919050565b6040517f6eb224cb0000000000000000000000000000000000000000000000000000000081523090636eb224cb90610e089084907f000000000000000000000000000000000000000000000000000000000000000090600401611515565b600060405180830381600087803b158015610e2257600080fd5b505af1158015610e36573d6000803e3d6000fd5b5050505050565b606063e946c1bb60e01b848484604051602401610b3f9392919061155d565b600082821115610e7557610e7561050560028585610e3d565b50900390565b60607fbde95cc2119e0200d80642397198abfcf98e6e4dddd0de9c6320d86252ad40ab8383604051602401610eb1929190611475565b604080517fffffffffffffffffffffffffffffffffffffffffffffffffffffffffffffffe08184030181529190526020810180517bffffffffffffffffffffffffffffffffffffffffffffffffffffffff167fffffffff0000000000000000000000000000000000000000000000000000000090931692909217909152905092915050565b803561091c816119d7565b60008083601f840112610f52578182fd5b50813567ffffffffffffffff811115610f69578182fd5b602083019150836020608083028501011115610f8457600080fd5b9250929050565b60008083601f840112610f9c578182fd5b50813567ffffffffffffffff811115610fb3578182fd5b6020830191508360208083028501011115610f8457600080fd5b8035801515811461091c57600080fd5b803561091c816119f9565b803567ffffffffffffffff8116811461091c57600080fd5b60008060008060008060006080888a03121561101a578283fd5b873567ffffffffffffffff80821115611031578485fd5b818a0191508a601f830112611044578485fd5b813581811115611052578586fd5b8b602061018083028501011115611067578586fd5b602092830199509750908901359080821115611081578485fd5b61108d8b838c01610f41565b909750955060408a01359150808211156110a5578485fd5b506110b28a828b01610f8b565b90945092506110c690508960608a01610fcd565b905092959891949750929550565b60008060008060008060006080888a0312156110ee578283fd5b873567ffffffffffffffff80821115611105578485fd5b818a0191508a601f830112611118578485fd5b813581811115611126578586fd5b8b602061014083028501011115611067578586fd5b600061018080838503121561114e578182fd5b61115781611973565b90506111638484610f36565b81526111728460208501610f36565b60208201526111848460408501610fdd565b60408201526111968460608501610fdd565b60608201526111a88460808501610fdd565b60808201526111ba8460a08501610f36565b60a08201526111cc8460c08501610f36565b60c08201526111de8460e08501610f36565b60e08201526101006111f285828601610f36565b90820152610120838101359082015261014061121085828601610fe8565b90820152610160928301359281019290925250919050565b600061014080838503121561123b578182fd5b61124481611973565b90506112508484610f36565b815261125f8460208501610f36565b60208201526112718460408501610fdd565b60408201526112838460608501610fdd565b60608201526112958460808501610f36565b60808201526112a78460a08501610f36565b60a08201526112b98460c08501610f36565b60c082015260e083013560e08201526101006112d785828601610fe8565b90820152610120928301359281019290925250919050565b600060208284031215611300578081fd5b8135610919816119f9565b6000806040838503121561131d578182fd5b8251611328816119f9565b6020840151909250611339816119f9565b809150509250929050565b600060208284031215611355578081fd5b815163ffffffff81168114610919578182fd5b73ffffffffffffffffffffffffffffffffffffffff169052565b6000815180845260208085019450808401835b838110156113c35781516fffffffffffffffffffffffffffffffff1687529582019590820190600101611395565b509495945050505050565b8035600481106113dd57600080fd5b6113e6816119cd565b8252602081013560ff81168082146113fd57600080fd5b60208401525060408181013590830152606090810135910152565b6fffffffffffffffffffffffffffffffff169052565b67ffffffffffffffff169052565b7f190100000000000000000000000000000000000000000000000000000000000081526002810192909252602282015260420190565b90565b73ffffffffffffffffffffffffffffffffffffffff929092168252602082015260400190565b6000604082526114ae6040830185611382565b82810360208401526114c08185611382565b95945050505050565b90815260200190565b9283526020830191909152604082015260600190565b7fffffffff0000000000000000000000000000000000000000000000000000000091909116815260200190565b7fffffffff0000000000000000000000000000000000000000000000000000000092909216825273ffffffffffffffffffffffffffffffffffffffff16602082015260400190565b6060810161156a856119cd565b938152602081019290925260409091015290565b6000602080835283518082850152825b818110156115aa5785810183015185820160400152820161158e565b818111156115bb5783604083870101525b50601f017fffffffffffffffffffffffffffffffffffffffffffffffffffffffffffffffe016929092016040019392505050565b6020808252604b908201527f426174636846696c6c4e61746976654f7264657273466561747572653a3a626160408201527f74636846696c6c4c696d69744f72646572732f4d49534d4154434845445f415260608201527f5241595f4c454e47544853000000000000000000000000000000000000000000608082015260a00190565b60208082526049908201527f426174636846696c6c4e61746976654f7264657273466561747572653a3a626160408201527f74636846696c6c5266714f72646572732f4d49534d4154434845445f4152524160608201527f595f4c454e475448530000000000000000000000000000000000000000000000608082015260a00190565b6102608101602087016117118361170c838b610f36565b611368565b61171b818961199a565b905061172a6020840182611368565b5061173860408801886119a7565b6117456040840182611418565b5061175360608801886119a7565b6117606060840182611418565b5061176e60808801886119a7565b61177b6080840182611418565b5061178960a088018861199a565b61179660a0840182611368565b506117a460c088018861199a565b6117b160c0840182611368565b506117bf60e088018861199a565b6117cc60e0840182611368565b506101006117dc8189018961199a565b6117e882850182611368565b50506101208781013590830152610140611804818901896119b4565b6118108285018261142e565b5050610160878101359083015261182b6101808301876113ce565b611839610200830186611418565b611847610220830185611368565b611855610240830184611368565b9695505050505050565b6102008101602086016118768361170c838a610f36565b611880818861199a565b905061188f6020840182611368565b5061189d60408701876119a7565b6118aa6040840182611418565b506118b860608701876119a7565b6118c56060840182611418565b506118d3608087018761199a565b6118e06080840182611368565b506118ee60a087018761199a565b6118fb60a0840182611368565b5061190960c087018761199a565b61191660c0840182611368565b5060e086013560e0830152610100611930818801886119b4565b61193c8285018261142e565b505061012086810135908301526119576101408301866113ce565b6119656101c0830185611418565b6114c06101e0830184611368565b60405181810167ffffffffffffffff8111828210171561199257600080fd5b604052919050565b60008235610919816119d7565b60008235610919816119f9565b6000823567ffffffffffffffff81168114610919578182fd5b60048110610c7057fe5b73ffffffffffffffffffffffffffffffffffffffff81168114610c7057600080fd5b6fffffffffffffffffffffffffffffffff81168114610c7057600080fdfea2646970667358221220468a5bca7c07b19ea9c8e9e4fbb38847f05a9445111740a4b5a55cf8ce73a5d364736f6c634300060c0033",
                "opcodes": "PUSH1 0xE0 PUSH1 0x40 MSTORE PUSH3 0x13 PUSH1 0x1 PUSH1 0x0 DUP1 PUSH3 0xF1 JUMP JUMPDEST PUSH1 0xC0 MSTORE CALLVALUE DUP1 ISZERO PUSH3 0x23 JUMPI PUSH1 0x0 DUP1 REVERT JUMPDEST POP PUSH1 0x40 MLOAD PUSH3 0x1C01 CODESIZE SUB DUP1 PUSH3 0x1C01 DUP4 CODECOPY DUP2 ADD PUSH1 0x40 DUP2 SWAP1 MSTORE PUSH3 0x46 SWAP2 PUSH3 0x123 JUMP JUMPDEST ADDRESS PUSH1 0x60 SHL PUSH1 0x80 MSTORE PUSH1 0x40 MLOAD DUP2 SWAP1 CHAINID SWAP1 PUSH3 0xCC SWAP1 PUSH32 0x8B73C3C69BB8FE3D512ECC4CF759CC79239F7B179B0FFACAA9A75D522B39400F SWAP1 PUSH32 0x9E5DAE0ADDAF20578AEB5D70341D092B53B4E14480AC5726438FD436DF7BA427 SWAP1 PUSH32 0x6C015BD22B4C69690933C1058878EBDFEF31F9AAAE40BBE86D8A09FE1B2972C SWAP1 DUP6 SWAP1 DUP8 SWAP1 PUSH1 0x20 ADD PUSH3 0x153 JUMP JUMPDEST PUSH1 0x40 DUP1 MLOAD PUSH1 0x1F NOT DUP2 DUP5 SUB ADD DUP2 MSTORE SWAP2 SWAP1 MSTORE DUP1 MLOAD PUSH1 0x20 SWAP1 SWAP2 ADD KECCAK256 PUSH1 0xA0 MSTORE POP PUSH3 0x17F SWAP2 POP POP JUMP JUMPDEST PUSH12 0xFFFFFFFF0000000000000000 PUSH1 0x40 DUP5 SWAP1 SHL AND PUSH8 0xFFFFFFFF00000000 PUSH1 0x20 DUP5 SWAP1 SHL AND OR PUSH4 0xFFFFFFFF DUP3 AND OR SWAP4 SWAP3 POP POP POP JUMP JUMPDEST PUSH1 0x0 PUSH1 0x20 DUP3 DUP5 SUB SLT ISZERO PUSH3 0x135 JUMPI DUP1 DUP2 REVERT JUMPDEST DUP2 MLOAD PUSH1 0x1 PUSH1 0x1 PUSH1 0xA0 SHL SUB DUP2 AND DUP2 EQ PUSH3 0x14C JUMPI DUP2 DUP3 REVERT JUMPDEST SWAP4 SWAP3 POP POP POP JUMP JUMPDEST SWAP5 DUP6 MSTORE PUSH1 0x20 DUP6 ADD SWAP4 SWAP1 SWAP4 MSTORE PUSH1 0x40 DUP5 ADD SWAP2 SWAP1 SWAP2 MSTORE PUSH1 0x60 DUP4 ADD MSTORE PUSH1 0x1 PUSH1 0x1 PUSH1 0xA0 SHL SUB AND PUSH1 0x80 DUP3 ADD MSTORE PUSH1 0xA0 ADD SWAP1 JUMP JUMPDEST PUSH1 0x80 MLOAD PUSH1 0x60 SHR PUSH1 0xA0 MLOAD PUSH1 0xC0 MLOAD PUSH2 0x1A4D PUSH3 0x1B4 PUSH1 0x0 CODECOPY DUP1 PUSH2 0x131 MSTORE POP DUP1 PUSH2 0x8C6 MSTORE DUP1 PUSH2 0xAB9 MSTORE POP DUP1 PUSH2 0xDE0 MSTORE POP PUSH2 0x1A4D PUSH1 0x0 RETURN INVALID PUSH1 0x80 PUSH1 0x40 MSTORE PUSH1 0x4 CALLDATASIZE LT PUSH2 0x65 JUMPI PUSH1 0x0 CALLDATALOAD PUSH1 0xE0 SHR DUP1 PUSH4 0x75103CB9 GT PUSH2 0x43 JUMPI DUP1 PUSH4 0x75103CB9 EQ PUSH2 0xD8 JUMPI DUP1 PUSH4 0x8FD3AB80 EQ PUSH2 0xF8 JUMPI DUP1 PUSH4 0xDAB400F3 EQ PUSH2 0x11A JUMPI PUSH2 0x65 JUMP JUMPDEST DUP1 PUSH4 0x31B905C EQ PUSH2 0x6A JUMPI DUP1 PUSH4 0x1BAAA00B EQ PUSH2 0x95 JUMPI DUP1 PUSH4 0x6AE4B4F7 EQ PUSH2 0xB6 JUMPI JUMPDEST PUSH1 0x0 DUP1 REVERT JUMPDEST CALLVALUE DUP1 ISZERO PUSH2 0x76 JUMPI PUSH1 0x0 DUP1 REVERT JUMPDEST POP PUSH2 0x7F PUSH2 0x12F JUMP JUMPDEST PUSH1 0x40 MLOAD PUSH2 0x8C SWAP2 SWAP1 PUSH2 0x14C9 JUMP JUMPDEST PUSH1 0x40 MLOAD DUP1 SWAP2 SUB SWAP1 RETURN JUMPDEST PUSH2 0xA8 PUSH2 0xA3 CALLDATASIZE PUSH1 0x4 PUSH2 0x1000 JUMP JUMPDEST PUSH2 0x153 JUMP JUMPDEST PUSH1 0x40 MLOAD PUSH2 0x8C SWAP3 SWAP2 SWAP1 PUSH2 0x149B JUMP JUMPDEST CALLVALUE DUP1 ISZERO PUSH2 0xC2 JUMPI PUSH1 0x0 DUP1 REVERT JUMPDEST POP PUSH2 0xCB PUSH2 0x52C JUMP JUMPDEST PUSH1 0x40 MLOAD PUSH2 0x8C SWAP2 SWAP1 PUSH2 0x157E JUMP JUMPDEST CALLVALUE DUP1 ISZERO PUSH2 0xE4 JUMPI PUSH1 0x0 DUP1 REVERT JUMPDEST POP PUSH2 0xA8 PUSH2 0xF3 CALLDATASIZE PUSH1 0x4 PUSH2 0x10D4 JUMP JUMPDEST PUSH2 0x565 JUMP JUMPDEST CALLVALUE DUP1 ISZERO PUSH2 0x104 JUMPI PUSH1 0x0 DUP1 REVERT JUMPDEST POP PUSH2 0x10D PUSH2 0x84B JUMP JUMPDEST PUSH1 0x40 MLOAD PUSH2 0x8C SWAP2 SWAP1 PUSH2 0x14E8 JUMP JUMPDEST CALLVALUE DUP1 ISZERO PUSH2 0x126 JUMPI PUSH1 0x0 DUP1 REVERT JUMPDEST POP PUSH2 0x7F PUSH2 0x8C4 JUMP JUMPDEST PUSH32 0x0 DUP2 JUMP JUMPDEST PUSH1 0x60 DUP1 DUP8 DUP7 EQ DUP1 ISZERO PUSH2 0x164 JUMPI POP DUP8 DUP5 EQ JUMPDEST PUSH2 0x1A3 JUMPI PUSH1 0x40 MLOAD PUSH32 0x8C379A000000000000000000000000000000000000000000000000000000000 DUP2 MSTORE PUSH1 0x4 ADD PUSH2 0x19A SWAP1 PUSH2 0x15EF JUMP JUMPDEST PUSH1 0x40 MLOAD DUP1 SWAP2 SUB SWAP1 REVERT JUMPDEST DUP8 PUSH8 0xFFFFFFFFFFFFFFFF DUP2 GT DUP1 ISZERO PUSH2 0x1BA JUMPI PUSH1 0x0 DUP1 REVERT JUMPDEST POP PUSH1 0x40 MLOAD SWAP1 DUP1 DUP3 MSTORE DUP1 PUSH1 0x20 MUL PUSH1 0x20 ADD DUP3 ADD PUSH1 0x40 MSTORE DUP1 ISZERO PUSH2 0x1E4 JUMPI DUP2 PUSH1 0x20 ADD PUSH1 0x20 DUP3 MUL DUP1 CALLDATASIZE DUP4 CALLDATACOPY ADD SWAP1 POP JUMPDEST POP SWAP2 POP DUP8 PUSH8 0xFFFFFFFFFFFFFFFF DUP2 GT DUP1 ISZERO PUSH2 0x1FE JUMPI PUSH1 0x0 DUP1 REVERT JUMPDEST POP PUSH1 0x40 MLOAD SWAP1 DUP1 DUP3 MSTORE DUP1 PUSH1 0x20 MUL PUSH1 0x20 ADD DUP3 ADD PUSH1 0x40 MSTORE DUP1 ISZERO PUSH2 0x228 JUMPI DUP2 PUSH1 0x20 ADD PUSH1 0x20 DUP3 MUL DUP1 CALLDATASIZE DUP4 CALLDATACOPY ADD SWAP1 POP JUMPDEST POP SWAP1 POP PUSH1 0x0 PUSH2 0x2C3 GASPRICE ADDRESS PUSH20 0xFFFFFFFFFFFFFFFFFFFFFFFFFFFFFFFFFFFFFFFF AND PUSH4 0x487B5C20 PUSH1 0x40 MLOAD DUP2 PUSH4 0xFFFFFFFF AND PUSH1 0xE0 SHL DUP2 MSTORE PUSH1 0x4 ADD PUSH1 0x20 PUSH1 0x40 MLOAD DUP1 DUP4 SUB DUP2 DUP7 DUP1 EXTCODESIZE ISZERO DUP1 ISZERO PUSH2 0x277 JUMPI PUSH1 0x0 DUP1 REVERT JUMPDEST POP GAS STATICCALL ISZERO DUP1 ISZERO PUSH2 0x28B JUMPI RETURNDATASIZE PUSH1 0x0 DUP1 RETURNDATACOPY RETURNDATASIZE PUSH1 0x0 REVERT JUMPDEST POP POP POP POP PUSH1 0x40 MLOAD RETURNDATASIZE PUSH1 0x1F NOT PUSH1 0x1F DUP3 ADD AND DUP3 ADD DUP1 PUSH1 0x40 MSTORE POP DUP2 ADD SWAP1 PUSH2 0x2AF SWAP2 SWAP1 PUSH2 0x1344 JUMP JUMPDEST PUSH4 0xFFFFFFFF AND PUSH2 0x8E8 SWAP1 SWAP2 SWAP1 PUSH4 0xFFFFFFFF AND JUMP JUMPDEST SWAP1 POP PUSH1 0x0 DUP1 JUMPDEST DUP1 DUP12 EQ PUSH2 0x514 JUMPI ADDRESS PUSH4 0x414E4CCF DUP14 DUP14 DUP5 DUP2 DUP2 LT PUSH2 0x2E2 JUMPI INVALID JUMPDEST SWAP1 POP PUSH2 0x180 MUL ADD DUP13 DUP13 DUP6 DUP2 DUP2 LT PUSH2 0x2F5 JUMPI INVALID JUMPDEST SWAP1 POP PUSH1 0x80 MUL ADD DUP12 DUP12 DUP7 DUP2 DUP2 LT PUSH2 0x307 JUMPI INVALID JUMPDEST SWAP1 POP PUSH1 0x20 MUL ADD PUSH1 0x20 DUP2 ADD SWAP1 PUSH2 0x31C SWAP2 SWAP1 PUSH2 0x12EF JUMP JUMPDEST CALLER CALLER PUSH1 0x40 MLOAD DUP7 PUSH4 0xFFFFFFFF AND PUSH1 0xE0 SHL DUP2 MSTORE PUSH1 0x4 ADD PUSH2 0x33E SWAP6 SWAP5 SWAP4 SWAP3 SWAP2 SWAP1 PUSH2 0x16F5 JUMP JUMPDEST PUSH1 0x40 DUP1 MLOAD DUP1 DUP4 SUB DUP2 PUSH1 0x0 DUP8 DUP1 EXTCODESIZE ISZERO DUP1 ISZERO PUSH2 0x357 JUMPI PUSH1 0x0 DUP1 REVERT JUMPDEST POP GAS CALL SWAP3 POP POP POP DUP1 ISZERO PUSH2 0x3A5 JUMPI POP PUSH1 0x40 DUP1 MLOAD PUSH1 0x1F RETURNDATASIZE SWAP1 DUP2 ADD PUSH32 0xFFFFFFFFFFFFFFFFFFFFFFFFFFFFFFFFFFFFFFFFFFFFFFFFFFFFFFFFFFFFFFE0 AND DUP3 ADD SWAP1 SWAP3 MSTORE PUSH2 0x3A2 SWAP2 DUP2 ADD SWAP1 PUSH2 0x130B JUMP JUMPDEST PUSH1 0x1 JUMPDEST PUSH2 0x3AE JUMPI PUSH2 0x401 JUMP JUMPDEST DUP2 DUP2 DUP9 DUP6 DUP2 MLOAD DUP2 LT PUSH2 0x3BC JUMPI INVALID JUMPDEST PUSH1 0x20 MUL PUSH1 0x20 ADD ADD DUP9 DUP7 DUP2 MLOAD DUP2 LT PUSH2 0x3CF JUMPI INVALID JUMPDEST PUSH16 0xFFFFFFFFFFFFFFFFFFFFFFFFFFFFFFFF SWAP4 DUP5 AND PUSH1 0x20 SWAP2 DUP3 MUL SWAP3 SWAP1 SWAP3 ADD ADD MSTORE SWAP2 AND SWAP1 MSTORE PUSH2 0x3FC DUP5 DUP7 PUSH2 0x922 JUMP JUMPDEST SWAP4 POP POP POP JUMPDEST DUP6 DUP1 ISZERO PUSH2 0x464 JUMPI POP DUP8 DUP8 DUP3 DUP2 DUP2 LT PUSH2 0x415 JUMPI INVALID JUMPDEST SWAP1 POP PUSH1 0x20 MUL ADD PUSH1 0x20 DUP2 ADD SWAP1 PUSH2 0x42A SWAP2 SWAP1 PUSH2 0x12EF JUMP JUMPDEST PUSH16 0xFFFFFFFFFFFFFFFFFFFFFFFFFFFFFFFF AND DUP6 DUP3 DUP2 MLOAD DUP2 LT PUSH2 0x448 JUMPI INVALID JUMPDEST PUSH1 0x20 MUL PUSH1 0x20 ADD ADD MLOAD PUSH16 0xFFFFFFFFFFFFFFFFFFFFFFFFFFFFFFFF AND LT JUMPDEST ISZERO PUSH2 0x50C JUMPI PUSH1 0x0 PUSH2 0x49E PUSH2 0x499 DUP15 DUP15 DUP6 DUP2 DUP2 LT PUSH2 0x47D JUMPI INVALID JUMPDEST SWAP1 POP PUSH2 0x180 MUL ADD DUP1 CALLDATASIZE SUB DUP2 ADD SWAP1 PUSH2 0x494 SWAP2 SWAP1 PUSH2 0x113B JUMP JUMPDEST PUSH2 0x93E JUMP JUMPDEST PUSH2 0xAB5 JUMP JUMPDEST SWAP1 POP PUSH2 0x50A PUSH2 0x505 DUP3 DUP9 DUP6 DUP2 MLOAD DUP2 LT PUSH2 0x4B3 JUMPI INVALID JUMPDEST PUSH1 0x20 MUL PUSH1 0x20 ADD ADD MLOAD PUSH16 0xFFFFFFFFFFFFFFFFFFFFFFFFFFFFFFFF AND DUP13 DUP13 DUP8 DUP2 DUP2 LT PUSH2 0x4D9 JUMPI INVALID JUMPDEST SWAP1 POP PUSH1 0x20 MUL ADD PUSH1 0x20 DUP2 ADD SWAP1 PUSH2 0x4EE SWAP2 SWAP1 PUSH2 0x12EF JUMP JUMPDEST PUSH16 0xFFFFFFFFFFFFFFFFFFFFFFFFFFFFFFFF AND PUSH2 0xB07 JUMP JUMPDEST PUSH2 0xBC5 JUMP JUMPDEST POP JUMPDEST PUSH1 0x1 ADD PUSH2 0x2C9 JUMP JUMPDEST POP PUSH2 0x51E DUP2 PUSH2 0xBCD JUMP JUMPDEST POP POP SWAP8 POP SWAP8 SWAP6 POP POP POP POP POP POP JUMP JUMPDEST PUSH1 0x40 MLOAD DUP1 PUSH1 0x40 ADD PUSH1 0x40 MSTORE DUP1 PUSH1 0x9 DUP2 MSTORE PUSH1 0x20 ADD PUSH32 0x426174636846696C6C0000000000000000000000000000000000000000000000 DUP2 MSTORE POP DUP2 JUMP JUMPDEST PUSH1 0x60 DUP1 DUP8 DUP7 EQ DUP1 ISZERO PUSH2 0x576 JUMPI POP DUP8 DUP5 EQ JUMPDEST PUSH2 0x5AC JUMPI PUSH1 0x40 MLOAD PUSH32 0x8C379A000000000000000000000000000000000000000000000000000000000 DUP2 MSTORE PUSH1 0x4 ADD PUSH2 0x19A SWAP1 PUSH2 0x1672 JUMP JUMPDEST DUP8 PUSH8 0xFFFFFFFFFFFFFFFF DUP2 GT DUP1 ISZERO PUSH2 0x5C3 JUMPI PUSH1 0x0 DUP1 REVERT JUMPDEST POP PUSH1 0x40 MLOAD SWAP1 DUP1 DUP3 MSTORE DUP1 PUSH1 0x20 MUL PUSH1 0x20 ADD DUP3 ADD PUSH1 0x40 MSTORE DUP1 ISZERO PUSH2 0x5ED JUMPI DUP2 PUSH1 0x20 ADD PUSH1 0x20 DUP3 MUL DUP1 CALLDATASIZE DUP4 CALLDATACOPY ADD SWAP1 POP JUMPDEST POP SWAP2 POP DUP8 PUSH8 0xFFFFFFFFFFFFFFFF DUP2 GT DUP1 ISZERO PUSH2 0x607 JUMPI PUSH1 0x0 DUP1 REVERT JUMPDEST POP PUSH1 0x40 MLOAD SWAP1 DUP1 DUP3 MSTORE DUP1 PUSH1 0x20 MUL PUSH1 0x20 ADD DUP3 ADD PUSH1 0x40 MSTORE DUP1 ISZERO PUSH2 0x631 JUMPI DUP2 PUSH1 0x20 ADD PUSH1 0x20 DUP3 MUL DUP1 CALLDATASIZE DUP4 CALLDATACOPY ADD SWAP1 POP JUMPDEST POP SWAP1 POP PUSH1 0x0 JUMPDEST DUP1 DUP10 EQ PUSH2 0x83E JUMPI ADDRESS PUSH4 0xA656186B DUP12 DUP12 DUP5 DUP2 DUP2 LT PUSH2 0x650 JUMPI INVALID JUMPDEST SWAP1 POP PUSH2 0x140 MUL ADD DUP11 DUP11 DUP6 DUP2 DUP2 LT PUSH2 0x663 JUMPI INVALID JUMPDEST SWAP1 POP PUSH1 0x80 MUL ADD DUP10 DUP10 DUP7 DUP2 DUP2 LT PUSH2 0x675 JUMPI INVALID JUMPDEST SWAP1 POP PUSH1 0x20 MUL ADD PUSH1 0x20 DUP2 ADD SWAP1 PUSH2 0x68A SWAP2 SWAP1 PUSH2 0x12EF JUMP JUMPDEST CALLER PUSH1 0x40 MLOAD DUP6 PUSH4 0xFFFFFFFF AND PUSH1 0xE0 SHL DUP2 MSTORE PUSH1 0x4 ADD PUSH2 0x6AA SWAP5 SWAP4 SWAP3 SWAP2 SWAP1 PUSH2 0x185F JUMP JUMPDEST PUSH1 0x40 DUP1 MLOAD DUP1 DUP4 SUB DUP2 PUSH1 0x0 DUP8 DUP1 EXTCODESIZE ISZERO DUP1 ISZERO PUSH2 0x6C3 JUMPI PUSH1 0x0 DUP1 REVERT JUMPDEST POP GAS CALL SWAP3 POP POP POP DUP1 ISZERO PUSH2 0x711 JUMPI POP PUSH1 0x40 DUP1 MLOAD PUSH1 0x1F RETURNDATASIZE SWAP1 DUP2 ADD PUSH32 0xFFFFFFFFFFFFFFFFFFFFFFFFFFFFFFFFFFFFFFFFFFFFFFFFFFFFFFFFFFFFFFE0 AND DUP3 ADD SWAP1 SWAP3 MSTORE PUSH2 0x70E SWAP2 DUP2 ADD SWAP1 PUSH2 0x130B JUMP JUMPDEST PUSH1 0x1 JUMPDEST PUSH2 0x71A JUMPI PUSH2 0x761 JUMP JUMPDEST DUP2 DUP2 DUP7 DUP6 DUP2 MLOAD DUP2 LT PUSH2 0x728 JUMPI INVALID JUMPDEST PUSH1 0x20 MUL PUSH1 0x20 ADD ADD DUP7 DUP7 DUP2 MLOAD DUP2 LT PUSH2 0x73B JUMPI INVALID JUMPDEST PUSH16 0xFFFFFFFFFFFFFFFFFFFFFFFFFFFFFFFF SWAP4 DUP5 AND PUSH1 0x20 SWAP2 DUP3 MUL SWAP3 SWAP1 SWAP3 ADD ADD MSTORE SWAP2 AND SWAP1 MSTORE POP POP JUMPDEST DUP4 DUP1 ISZERO PUSH2 0x7C4 JUMPI POP DUP6 DUP6 DUP3 DUP2 DUP2 LT PUSH2 0x775 JUMPI INVALID JUMPDEST SWAP1 POP PUSH1 0x20 MUL ADD PUSH1 0x20 DUP2 ADD SWAP1 PUSH2 0x78A SWAP2 SWAP1 PUSH2 0x12EF JUMP JUMPDEST PUSH16 0xFFFFFFFFFFFFFFFFFFFFFFFFFFFFFFFF AND DUP4 DUP3 DUP2 MLOAD DUP2 LT PUSH2 0x7A8 JUMPI INVALID JUMPDEST PUSH1 0x20 MUL PUSH1 0x20 ADD ADD MLOAD PUSH16 0xFFFFFFFFFFFFFFFFFFFFFFFFFFFFFFFF AND LT JUMPDEST ISZERO PUSH2 0x836 JUMPI PUSH1 0x0 PUSH2 0x7F9 PUSH2 0x499 DUP13 DUP13 DUP6 DUP2 DUP2 LT PUSH2 0x7DD JUMPI INVALID JUMPDEST SWAP1 POP PUSH2 0x140 MUL ADD DUP1 CALLDATASIZE SUB DUP2 ADD SWAP1 PUSH2 0x7F4 SWAP2 SWAP1 PUSH2 0x1228 JUMP JUMPDEST PUSH2 0xC73 JUMP JUMPDEST SWAP1 POP PUSH2 0x834 PUSH2 0x505 DUP3 DUP7 DUP6 DUP2 MLOAD DUP2 LT PUSH2 0x80E JUMPI INVALID JUMPDEST PUSH1 0x20 MUL PUSH1 0x20 ADD ADD MLOAD PUSH16 0xFFFFFFFFFFFFFFFFFFFFFFFFFFFFFFFF AND DUP11 DUP11 DUP8 DUP2 DUP2 LT PUSH2 0x4D9 JUMPI INVALID JUMPDEST POP JUMPDEST PUSH1 0x1 ADD PUSH2 0x637 JUMP JUMPDEST POP SWAP8 POP SWAP8 SWAP6 POP POP POP POP POP POP JUMP JUMPDEST PUSH1 0x0 PUSH2 0x876 PUSH32 0x1BAAA00B00000000000000000000000000000000000000000000000000000000 PUSH2 0xDAA JUMP JUMPDEST PUSH2 0x89F PUSH32 0x75103CB900000000000000000000000000000000000000000000000000000000 PUSH2 0xDAA JUMP JUMPDEST POP PUSH32 0x2C64C5EF00000000000000000000000000000000000000000000000000000000 SWAP1 JUMP JUMPDEST PUSH32 0x0 DUP2 JUMP JUMPDEST PUSH1 0x0 DUP3 PUSH2 0x8F7 JUMPI POP PUSH1 0x0 PUSH2 0x91C JUMP JUMPDEST DUP3 DUP3 MUL DUP3 DUP5 DUP3 DUP2 PUSH2 0x904 JUMPI INVALID JUMPDEST DIV EQ PUSH2 0x919 JUMPI PUSH2 0x919 PUSH2 0x505 PUSH1 0x1 DUP7 DUP7 PUSH2 0xE3D JUMP JUMPDEST SWAP1 POP JUMPDEST SWAP3 SWAP2 POP POP JUMP JUMPDEST PUSH1 0x0 DUP3 DUP3 ADD DUP4 DUP2 LT ISZERO PUSH2 0x919 JUMPI PUSH2 0x919 PUSH2 0x505 PUSH1 0x0 DUP7 DUP7 PUSH2 0xE3D JUMP JUMPDEST PUSH1 0x0 PUSH1 0x40 MLOAD PUSH32 0xCE918627CB55462DDBB85E73DE69A8B322F2BC88F4507C52FCAD6D4C33C29D49 DUP2 MSTORE DUP3 MLOAD PUSH20 0xFFFFFFFFFFFFFFFFFFFFFFFFFFFFFFFFFFFFFFFF AND PUSH1 0x20 DUP3 ADD MSTORE PUSH1 0x20 DUP4 ADD MLOAD PUSH20 0xFFFFFFFFFFFFFFFFFFFFFFFFFFFFFFFFFFFFFFFF AND PUSH1 0x40 DUP3 ADD MSTORE PUSH1 0x40 DUP4 ADD MLOAD PUSH16 0xFFFFFFFFFFFFFFFFFFFFFFFFFFFFFFFF AND PUSH1 0x60 DUP3 ADD MSTORE PUSH1 0x60 DUP4 ADD MLOAD PUSH16 0xFFFFFFFFFFFFFFFFFFFFFFFFFFFFFFFF AND PUSH1 0x80 DUP3 ADD MSTORE PUSH1 0x80 DUP4 ADD MLOAD PUSH16 0xFFFFFFFFFFFFFFFFFFFFFFFFFFFFFFFF AND PUSH1 0xA0 DUP3 ADD MSTORE PUSH1 0xA0 DUP4 ADD MLOAD PUSH20 0xFFFFFFFFFFFFFFFFFFFFFFFFFFFFFFFFFFFFFFFF AND PUSH1 0xC0 DUP3 ADD MSTORE PUSH1 0xC0 DUP4 ADD MLOAD PUSH20 0xFFFFFFFFFFFFFFFFFFFFFFFFFFFFFFFFFFFFFFFF AND PUSH1 0xE0 DUP3 ADD MSTORE PUSH1 0xE0 DUP4 ADD MLOAD PUSH20 0xFFFFFFFFFFFFFFFFFFFFFFFFFFFFFFFFFFFFFFFF AND PUSH2 0x100 DUP3 ADD MSTORE PUSH2 0x100 DUP4 ADD MLOAD PUSH20 0xFFFFFFFFFFFFFFFFFFFFFFFFFFFFFFFFFFFFFFFF AND PUSH2 0x120 DUP3 ADD MSTORE PUSH2 0x120 DUP4 ADD MLOAD PUSH2 0x140 DUP3 ADD MSTORE PUSH2 0x140 DUP4 ADD MLOAD PUSH8 0xFFFFFFFFFFFFFFFF AND PUSH2 0x160 DUP3 ADD MSTORE PUSH2 0x160 DUP4 ADD MLOAD PUSH2 0x180 DUP3 ADD MSTORE PUSH2 0x1A0 DUP2 KECCAK256 SWAP2 POP POP SWAP2 SWAP1 POP JUMP JUMPDEST PUSH1 0x0 PUSH32 0x0 DUP3 PUSH1 0x40 MLOAD PUSH1 0x20 ADD PUSH2 0xAEA SWAP3 SWAP2 SWAP1 PUSH2 0x143C JUMP JUMPDEST PUSH1 0x40 MLOAD PUSH1 0x20 DUP2 DUP4 SUB SUB DUP2 MSTORE SWAP1 PUSH1 0x40 MSTORE DUP1 MLOAD SWAP1 PUSH1 0x20 ADD KECCAK256 SWAP1 POP SWAP2 SWAP1 POP JUMP JUMPDEST PUSH1 0x60 PUSH32 0x1D44AA5D44FD7162F13B456F3C7766598D02F56029C083DF67A6F11A6EDD3C3E DUP5 DUP5 DUP5 PUSH1 0x40 MLOAD PUSH1 0x24 ADD PUSH2 0xB3F SWAP4 SWAP3 SWAP2 SWAP1 PUSH2 0x14D2 JUMP JUMPDEST PUSH1 0x40 DUP1 MLOAD PUSH32 0xFFFFFFFFFFFFFFFFFFFFFFFFFFFFFFFFFFFFFFFFFFFFFFFFFFFFFFFFFFFFFFE0 DUP2 DUP5 SUB ADD DUP2 MSTORE SWAP2 SWAP1 MSTORE PUSH1 0x20 DUP2 ADD DUP1 MLOAD PUSH28 0xFFFFFFFFFFFFFFFFFFFFFFFFFFFFFFFFFFFFFFFFFFFFFFFFFFFFFFFF AND PUSH32 0xFFFFFFFF00000000000000000000000000000000000000000000000000000000 SWAP1 SWAP4 AND SWAP3 SWAP1 SWAP3 OR SWAP1 SWAP2 MSTORE SWAP1 POP SWAP4 SWAP3 POP POP POP JUMP JUMPDEST DUP1 MLOAD PUSH1 0x20 DUP3 ADD REVERT JUMPDEST DUP1 CALLVALUE GT DUP1 ISZERO PUSH2 0xBDC JUMPI POP CALLER ADDRESS EQ ISZERO JUMPDEST ISZERO PUSH2 0xC70 JUMPI PUSH1 0x0 PUSH2 0xBED CALLVALUE DUP4 PUSH2 0xE5C JUMP JUMPDEST SWAP1 POP PUSH1 0x0 CALLER PUSH20 0xFFFFFFFFFFFFFFFFFFFFFFFFFFFFFFFFFFFFFFFF AND DUP3 PUSH1 0x40 MLOAD PUSH2 0xC15 SWAP1 PUSH2 0x1472 JUMP JUMPDEST PUSH1 0x0 PUSH1 0x40 MLOAD DUP1 DUP4 SUB DUP2 DUP6 DUP8 GAS CALL SWAP3 POP POP POP RETURNDATASIZE DUP1 PUSH1 0x0 DUP2 EQ PUSH2 0xC52 JUMPI PUSH1 0x40 MLOAD SWAP2 POP PUSH1 0x1F NOT PUSH1 0x3F RETURNDATASIZE ADD AND DUP3 ADD PUSH1 0x40 MSTORE RETURNDATASIZE DUP3 MSTORE RETURNDATASIZE PUSH1 0x0 PUSH1 0x20 DUP5 ADD RETURNDATACOPY PUSH2 0xC57 JUMP JUMPDEST PUSH1 0x60 SWAP2 POP JUMPDEST POP POP SWAP1 POP DUP1 PUSH2 0xC6D JUMPI PUSH2 0xC6D PUSH2 0x505 CALLER DUP5 PUSH2 0xE7B JUMP JUMPDEST POP POP JUMPDEST POP JUMP JUMPDEST PUSH1 0x0 PUSH1 0x40 MLOAD PUSH32 0xE593D3FDFA8B60E5E17A1B2204662ECBE15C23F2084B9AD5BAE40359540A7DA9 DUP2 MSTORE DUP3 MLOAD PUSH20 0xFFFFFFFFFFFFFFFFFFFFFFFFFFFFFFFFFFFFFFFF AND PUSH1 0x20 DUP3 ADD MSTORE PUSH1 0x20 DUP4 ADD MLOAD PUSH20 0xFFFFFFFFFFFFFFFFFFFFFFFFFFFFFFFFFFFFFFFF AND PUSH1 0x40 DUP3 ADD MSTORE PUSH1 0x40 DUP4 ADD MLOAD PUSH16 0xFFFFFFFFFFFFFFFFFFFFFFFFFFFFFFFF AND PUSH1 0x60 DUP3 ADD MSTORE PUSH1 0x60 DUP4 ADD MLOAD PUSH16 0xFFFFFFFFFFFFFFFFFFFFFFFFFFFFFFFF AND PUSH1 0x80 DUP3 ADD MSTORE PUSH1 0x80 DUP4 ADD MLOAD PUSH20 0xFFFFFFFFFFFFFFFFFFFFFFFFFFFFFFFFFFFFFFFF AND PUSH1 0xA0 DUP3 ADD MSTORE PUSH1 0xA0 DUP4 ADD MLOAD PUSH20 0xFFFFFFFFFFFFFFFFFFFFFFFFFFFFFFFFFFFFFFFF AND PUSH1 0xC0 DUP3 ADD MSTORE PUSH1 0xC0 DUP4 ADD MLOAD PUSH20 0xFFFFFFFFFFFFFFFFFFFFFFFFFFFFFFFFFFFFFFFF AND PUSH1 0xE0 DUP3 ADD MSTORE PUSH1 0xE0 DUP4 ADD MLOAD PUSH2 0x100 DUP3 ADD MSTORE PUSH2 0x100 DUP4 ADD MLOAD PUSH8 0xFFFFFFFFFFFFFFFF AND PUSH2 0x120 DUP3 ADD MSTORE PUSH2 0x120 DUP4 ADD MLOAD PUSH2 0x140 DUP3 ADD MSTORE PUSH2 0x160 DUP2 KECCAK256 SWAP2 POP POP SWAP2 SWAP1 POP JUMP JUMPDEST PUSH1 0x40 MLOAD PUSH32 0x6EB224CB00000000000000000000000000000000000000000000000000000000 DUP2 MSTORE ADDRESS SWAP1 PUSH4 0x6EB224CB SWAP1 PUSH2 0xE08 SWAP1 DUP5 SWAP1 PUSH32 0x0 SWAP1 PUSH1 0x4 ADD PUSH2 0x1515 JUMP JUMPDEST PUSH1 0x0 PUSH1 0x40 MLOAD DUP1 DUP4 SUB DUP2 PUSH1 0x0 DUP8 DUP1 EXTCODESIZE ISZERO DUP1 ISZERO PUSH2 0xE22 JUMPI PUSH1 0x0 DUP1 REVERT JUMPDEST POP GAS CALL ISZERO DUP1 ISZERO PUSH2 0xE36 JUMPI RETURNDATASIZE PUSH1 0x0 DUP1 RETURNDATACOPY RETURNDATASIZE PUSH1 0x0 REVERT JUMPDEST POP POP POP POP POP JUMP JUMPDEST PUSH1 0x60 PUSH4 0xE946C1BB PUSH1 0xE0 SHL DUP5 DUP5 DUP5 PUSH1 0x40 MLOAD PUSH1 0x24 ADD PUSH2 0xB3F SWAP4 SWAP3 SWAP2 SWAP1 PUSH2 0x155D JUMP JUMPDEST PUSH1 0x0 DUP3 DUP3 GT ISZERO PUSH2 0xE75 JUMPI PUSH2 0xE75 PUSH2 0x505 PUSH1 0x2 DUP6 DUP6 PUSH2 0xE3D JUMP JUMPDEST POP SWAP1 SUB SWAP1 JUMP JUMPDEST PUSH1 0x60 PUSH32 0xBDE95CC2119E0200D80642397198ABFCF98E6E4DDDD0DE9C6320D86252AD40AB DUP4 DUP4 PUSH1 0x40 MLOAD PUSH1 0x24 ADD PUSH2 0xEB1 SWAP3 SWAP2 SWAP1 PUSH2 0x1475 JUMP JUMPDEST PUSH1 0x40 DUP1 MLOAD PUSH32 0xFFFFFFFFFFFFFFFFFFFFFFFFFFFFFFFFFFFFFFFFFFFFFFFFFFFFFFFFFFFFFFE0 DUP2 DUP5 SUB ADD DUP2 MSTORE SWAP2 SWAP1 MSTORE PUSH1 0x20 DUP2 ADD DUP1 MLOAD PUSH28 0xFFFFFFFFFFFFFFFFFFFFFFFFFFFFFFFFFFFFFFFFFFFFFFFFFFFFFFFF AND PUSH32 0xFFFFFFFF00000000000000000000000000000000000000000000000000000000 SWAP1 SWAP4 AND SWAP3 SWAP1 SWAP3 OR SWAP1 SWAP2 MSTORE SWAP1 POP SWAP3 SWAP2 POP POP JUMP JUMPDEST DUP1 CALLDATALOAD PUSH2 0x91C DUP2 PUSH2 0x19D7 JUMP JUMPDEST PUSH1 0x0 DUP1 DUP4 PUSH1 0x1F DUP5 ADD SLT PUSH2 0xF52 JUMPI DUP2 DUP3 REVERT JUMPDEST POP DUP2 CALLDATALOAD PUSH8 0xFFFFFFFFFFFFFFFF DUP2 GT ISZERO PUSH2 0xF69 JUMPI DUP2 DUP3 REVERT JUMPDEST PUSH1 0x20 DUP4 ADD SWAP2 POP DUP4 PUSH1 0x20 PUSH1 0x80 DUP4 MUL DUP6 ADD ADD GT ISZERO PUSH2 0xF84 JUMPI PUSH1 0x0 DUP1 REVERT JUMPDEST SWAP3 POP SWAP3 SWAP1 POP JUMP JUMPDEST PUSH1 0x0 DUP1 DUP4 PUSH1 0x1F DUP5 ADD SLT PUSH2 0xF9C JUMPI DUP2 DUP3 REVERT JUMPDEST POP DUP2 CALLDATALOAD PUSH8 0xFFFFFFFFFFFFFFFF DUP2 GT ISZERO PUSH2 0xFB3 JUMPI DUP2 DUP3 REVERT JUMPDEST PUSH1 0x20 DUP4 ADD SWAP2 POP DUP4 PUSH1 0x20 DUP1 DUP4 MUL DUP6 ADD ADD GT ISZERO PUSH2 0xF84 JUMPI PUSH1 0x0 DUP1 REVERT JUMPDEST DUP1 CALLDATALOAD DUP1 ISZERO ISZERO DUP2 EQ PUSH2 0x91C JUMPI PUSH1 0x0 DUP1 REVERT JUMPDEST DUP1 CALLDATALOAD PUSH2 0x91C DUP2 PUSH2 0x19F9 JUMP JUMPDEST DUP1 CALLDATALOAD PUSH8 0xFFFFFFFFFFFFFFFF DUP2 AND DUP2 EQ PUSH2 0x91C JUMPI PUSH1 0x0 DUP1 REVERT JUMPDEST PUSH1 0x0 DUP1 PUSH1 0x0 DUP1 PUSH1 0x0 DUP1 PUSH1 0x0 PUSH1 0x80 DUP9 DUP11 SUB SLT ISZERO PUSH2 0x101A JUMPI DUP3 DUP4 REVERT JUMPDEST DUP8 CALLDATALOAD PUSH8 0xFFFFFFFFFFFFFFFF DUP1 DUP3 GT ISZERO PUSH2 0x1031 JUMPI DUP5 DUP6 REVERT JUMPDEST DUP2 DUP11 ADD SWAP2 POP DUP11 PUSH1 0x1F DUP4 ADD SLT PUSH2 0x1044 JUMPI DUP5 DUP6 REVERT JUMPDEST DUP2 CALLDATALOAD DUP2 DUP2 GT ISZERO PUSH2 0x1052 JUMPI DUP6 DUP7 REVERT JUMPDEST DUP12 PUSH1 0x20 PUSH2 0x180 DUP4 MUL DUP6 ADD ADD GT ISZERO PUSH2 0x1067 JUMPI DUP6 DUP7 REVERT JUMPDEST PUSH1 0x20 SWAP3 DUP4 ADD SWAP10 POP SWAP8 POP SWAP1 DUP10 ADD CALLDATALOAD SWAP1 DUP1 DUP3 GT ISZERO PUSH2 0x1081 JUMPI DUP5 DUP6 REVERT JUMPDEST PUSH2 0x108D DUP12 DUP4 DUP13 ADD PUSH2 0xF41 JUMP JUMPDEST SWAP1 SWAP8 POP SWAP6 POP PUSH1 0x40 DUP11 ADD CALLDATALOAD SWAP2 POP DUP1 DUP3 GT ISZERO PUSH2 0x10A5 JUMPI DUP5 DUP6 REVERT JUMPDEST POP PUSH2 0x10B2 DUP11 DUP3 DUP12 ADD PUSH2 0xF8B JUMP JUMPDEST SWAP1 SWAP5 POP SWAP3 POP PUSH2 0x10C6 SWAP1 POP DUP10 PUSH1 0x60 DUP11 ADD PUSH2 0xFCD JUMP JUMPDEST SWAP1 POP SWAP3 SWAP6 SWAP9 SWAP2 SWAP5 SWAP8 POP SWAP3 SWAP6 POP JUMP JUMPDEST PUSH1 0x0 DUP1 PUSH1 0x0 DUP1 PUSH1 0x0 DUP1 PUSH1 0x0 PUSH1 0x80 DUP9 DUP11 SUB SLT ISZERO PUSH2 0x10EE JUMPI DUP3 DUP4 REVERT JUMPDEST DUP8 CALLDATALOAD PUSH8 0xFFFFFFFFFFFFFFFF DUP1 DUP3 GT ISZERO PUSH2 0x1105 JUMPI DUP5 DUP6 REVERT JUMPDEST DUP2 DUP11 ADD SWAP2 POP DUP11 PUSH1 0x1F DUP4 ADD SLT PUSH2 0x1118 JUMPI DUP5 DUP6 REVERT JUMPDEST DUP2 CALLDATALOAD DUP2 DUP2 GT ISZERO PUSH2 0x1126 JUMPI DUP6 DUP7 REVERT JUMPDEST DUP12 PUSH1 0x20 PUSH2 0x140 DUP4 MUL DUP6 ADD ADD GT ISZERO PUSH2 0x1067 JUMPI DUP6 DUP7 REVERT JUMPDEST PUSH1 0x0 PUSH2 0x180 DUP1 DUP4 DUP6 SUB SLT ISZERO PUSH2 0x114E JUMPI DUP2 DUP3 REVERT JUMPDEST PUSH2 0x1157 DUP2 PUSH2 0x1973 JUMP JUMPDEST SWAP1 POP PUSH2 0x1163 DUP5 DUP5 PUSH2 0xF36 JUMP JUMPDEST DUP2 MSTORE PUSH2 0x1172 DUP5 PUSH1 0x20 DUP6 ADD PUSH2 0xF36 JUMP JUMPDEST PUSH1 0x20 DUP3 ADD MSTORE PUSH2 0x1184 DUP5 PUSH1 0x40 DUP6 ADD PUSH2 0xFDD JUMP JUMPDEST PUSH1 0x40 DUP3 ADD MSTORE PUSH2 0x1196 DUP5 PUSH1 0x60 DUP6 ADD PUSH2 0xFDD JUMP JUMPDEST PUSH1 0x60 DUP3 ADD MSTORE PUSH2 0x11A8 DUP5 PUSH1 0x80 DUP6 ADD PUSH2 0xFDD JUMP JUMPDEST PUSH1 0x80 DUP3 ADD MSTORE PUSH2 0x11BA DUP5 PUSH1 0xA0 DUP6 ADD PUSH2 0xF36 JUMP JUMPDEST PUSH1 0xA0 DUP3 ADD MSTORE PUSH2 0x11CC DUP5 PUSH1 0xC0 DUP6 ADD PUSH2 0xF36 JUMP JUMPDEST PUSH1 0xC0 DUP3 ADD MSTORE PUSH2 0x11DE DUP5 PUSH1 0xE0 DUP6 ADD PUSH2 0xF36 JUMP JUMPDEST PUSH1 0xE0 DUP3 ADD MSTORE PUSH2 0x100 PUSH2 0x11F2 DUP6 DUP3 DUP7 ADD PUSH2 0xF36 JUMP JUMPDEST SWAP1 DUP3 ADD MSTORE PUSH2 0x120 DUP4 DUP2 ADD CALLDATALOAD SWAP1 DUP3 ADD MSTORE PUSH2 0x140 PUSH2 0x1210 DUP6 DUP3 DUP7 ADD PUSH2 0xFE8 JUMP JUMPDEST SWAP1 DUP3 ADD MSTORE PUSH2 0x160 SWAP3 DUP4 ADD CALLDATALOAD SWAP3 DUP2 ADD SWAP3 SWAP1 SWAP3 MSTORE POP SWAP2 SWAP1 POP JUMP JUMPDEST PUSH1 0x0 PUSH2 0x140 DUP1 DUP4 DUP6 SUB SLT ISZERO PUSH2 0x123B JUMPI DUP2 DUP3 REVERT JUMPDEST PUSH2 0x1244 DUP2 PUSH2 0x1973 JUMP JUMPDEST SWAP1 POP PUSH2 0x1250 DUP5 DUP5 PUSH2 0xF36 JUMP JUMPDEST DUP2 MSTORE PUSH2 0x125F DUP5 PUSH1 0x20 DUP6 ADD PUSH2 0xF36 JUMP JUMPDEST PUSH1 0x20 DUP3 ADD MSTORE PUSH2 0x1271 DUP5 PUSH1 0x40 DUP6 ADD PUSH2 0xFDD JUMP JUMPDEST PUSH1 0x40 DUP3 ADD MSTORE PUSH2 0x1283 DUP5 PUSH1 0x60 DUP6 ADD PUSH2 0xFDD JUMP JUMPDEST PUSH1 0x60 DUP3 ADD MSTORE PUSH2 0x1295 DUP5 PUSH1 0x80 DUP6 ADD PUSH2 0xF36 JUMP JUMPDEST PUSH1 0x80 DUP3 ADD MSTORE PUSH2 0x12A7 DUP5 PUSH1 0xA0 DUP6 ADD PUSH2 0xF36 JUMP JUMPDEST PUSH1 0xA0 DUP3 ADD MSTORE PUSH2 0x12B9 DUP5 PUSH1 0xC0 DUP6 ADD PUSH2 0xF36 JUMP JUMPDEST PUSH1 0xC0 DUP3 ADD MSTORE PUSH1 0xE0 DUP4 ADD CALLDATALOAD PUSH1 0xE0 DUP3 ADD MSTORE PUSH2 0x100 PUSH2 0x12D7 DUP6 DUP3 DUP7 ADD PUSH2 0xFE8 JUMP JUMPDEST SWAP1 DUP3 ADD MSTORE PUSH2 0x120 SWAP3 DUP4 ADD CALLDATALOAD SWAP3 DUP2 ADD SWAP3 SWAP1 SWAP3 MSTORE POP SWAP2 SWAP1 POP JUMP JUMPDEST PUSH1 0x0 PUSH1 0x20 DUP3 DUP5 SUB SLT ISZERO PUSH2 0x1300 JUMPI DUP1 DUP2 REVERT JUMPDEST DUP2 CALLDATALOAD PUSH2 0x919 DUP2 PUSH2 0x19F9 JUMP JUMPDEST PUSH1 0x0 DUP1 PUSH1 0x40 DUP4 DUP6 SUB SLT ISZERO PUSH2 0x131D JUMPI DUP2 DUP3 REVERT JUMPDEST DUP3 MLOAD PUSH2 0x1328 DUP2 PUSH2 0x19F9 JUMP JUMPDEST PUSH1 0x20 DUP5 ADD MLOAD SWAP1 SWAP3 POP PUSH2 0x1339 DUP2 PUSH2 0x19F9 JUMP JUMPDEST DUP1 SWAP2 POP POP SWAP3 POP SWAP3 SWAP1 POP JUMP JUMPDEST PUSH1 0x0 PUSH1 0x20 DUP3 DUP5 SUB SLT ISZERO PUSH2 0x1355 JUMPI DUP1 DUP2 REVERT JUMPDEST DUP2 MLOAD PUSH4 0xFFFFFFFF DUP2 AND DUP2 EQ PUSH2 0x919 JUMPI DUP2 DUP3 REVERT JUMPDEST PUSH20 0xFFFFFFFFFFFFFFFFFFFFFFFFFFFFFFFFFFFFFFFF AND SWAP1 MSTORE JUMP JUMPDEST PUSH1 0x0 DUP2 MLOAD DUP1 DUP5 MSTORE PUSH1 0x20 DUP1 DUP6 ADD SWAP5 POP DUP1 DUP5 ADD DUP4 JUMPDEST DUP4 DUP2 LT ISZERO PUSH2 0x13C3 JUMPI DUP2 MLOAD PUSH16 0xFFFFFFFFFFFFFFFFFFFFFFFFFFFFFFFF AND DUP8 MSTORE SWAP6 DUP3 ADD SWAP6 SWAP1 DUP3 ADD SWAP1 PUSH1 0x1 ADD PUSH2 0x1395 JUMP JUMPDEST POP SWAP5 SWAP6 SWAP5 POP POP POP POP POP JUMP JUMPDEST DUP1 CALLDATALOAD PUSH1 0x4 DUP2 LT PUSH2 0x13DD JUMPI PUSH1 0x0 DUP1 REVERT JUMPDEST PUSH2 0x13E6 DUP2 PUSH2 0x19CD JUMP JUMPDEST DUP3 MSTORE PUSH1 0x20 DUP2 ADD CALLDATALOAD PUSH1 0xFF DUP2 AND DUP1 DUP3 EQ PUSH2 0x13FD JUMPI PUSH1 0x0 DUP1 REVERT JUMPDEST PUSH1 0x20 DUP5 ADD MSTORE POP PUSH1 0x40 DUP2 DUP2 ADD CALLDATALOAD SWAP1 DUP4 ADD MSTORE PUSH1 0x60 SWAP1 DUP2 ADD CALLDATALOAD SWAP2 ADD MSTORE JUMP JUMPDEST PUSH16 0xFFFFFFFFFFFFFFFFFFFFFFFFFFFFFFFF AND SWAP1 MSTORE JUMP JUMPDEST PUSH8 0xFFFFFFFFFFFFFFFF AND SWAP1 MSTORE JUMP JUMPDEST PUSH32 0x1901000000000000000000000000000000000000000000000000000000000000 DUP2 MSTORE PUSH1 0x2 DUP2 ADD SWAP3 SWAP1 SWAP3 MSTORE PUSH1 0x22 DUP3 ADD MSTORE PUSH1 0x42 ADD SWAP1 JUMP JUMPDEST SWAP1 JUMP JUMPDEST PUSH20 0xFFFFFFFFFFFFFFFFFFFFFFFFFFFFFFFFFFFFFFFF SWAP3 SWAP1 SWAP3 AND DUP3 MSTORE PUSH1 0x20 DUP3 ADD MSTORE PUSH1 0x40 ADD SWAP1 JUMP JUMPDEST PUSH1 0x0 PUSH1 0x40 DUP3 MSTORE PUSH2 0x14AE PUSH1 0x40 DUP4 ADD DUP6 PUSH2 0x1382 JUMP JUMPDEST DUP3 DUP2 SUB PUSH1 0x20 DUP5 ADD MSTORE PUSH2 0x14C0 DUP2 DUP6 PUSH2 0x1382 JUMP JUMPDEST SWAP6 SWAP5 POP POP POP POP POP JUMP JUMPDEST SWAP1 DUP2 MSTORE PUSH1 0x20 ADD SWAP1 JUMP JUMPDEST SWAP3 DUP4 MSTORE PUSH1 0x20 DUP4 ADD SWAP2 SWAP1 SWAP2 MSTORE PUSH1 0x40 DUP3 ADD MSTORE PUSH1 0x60 ADD SWAP1 JUMP JUMPDEST PUSH32 0xFFFFFFFF00000000000000000000000000000000000000000000000000000000 SWAP2 SWAP1 SWAP2 AND DUP2 MSTORE PUSH1 0x20 ADD SWAP1 JUMP JUMPDEST PUSH32 0xFFFFFFFF00000000000000000000000000000000000000000000000000000000 SWAP3 SWAP1 SWAP3 AND DUP3 MSTORE PUSH20 0xFFFFFFFFFFFFFFFFFFFFFFFFFFFFFFFFFFFFFFFF AND PUSH1 0x20 DUP3 ADD MSTORE PUSH1 0x40 ADD SWAP1 JUMP JUMPDEST PUSH1 0x60 DUP2 ADD PUSH2 0x156A DUP6 PUSH2 0x19CD JUMP JUMPDEST SWAP4 DUP2 MSTORE PUSH1 0x20 DUP2 ADD SWAP3 SWAP1 SWAP3 MSTORE PUSH1 0x40 SWAP1 SWAP2 ADD MSTORE SWAP1 JUMP JUMPDEST PUSH1 0x0 PUSH1 0x20 DUP1 DUP4 MSTORE DUP4 MLOAD DUP1 DUP3 DUP6 ADD MSTORE DUP3 JUMPDEST DUP2 DUP2 LT ISZERO PUSH2 0x15AA JUMPI DUP6 DUP2 ADD DUP4 ADD MLOAD DUP6 DUP3 ADD PUSH1 0x40 ADD MSTORE DUP3 ADD PUSH2 0x158E JUMP JUMPDEST DUP2 DUP2 GT ISZERO PUSH2 0x15BB JUMPI DUP4 PUSH1 0x40 DUP4 DUP8 ADD ADD MSTORE JUMPDEST POP PUSH1 0x1F ADD PUSH32 0xFFFFFFFFFFFFFFFFFFFFFFFFFFFFFFFFFFFFFFFFFFFFFFFFFFFFFFFFFFFFFFE0 AND SWAP3 SWAP1 SWAP3 ADD PUSH1 0x40 ADD SWAP4 SWAP3 POP POP POP JUMP JUMPDEST PUSH1 0x20 DUP1 DUP3 MSTORE PUSH1 0x4B SWAP1 DUP3 ADD MSTORE PUSH32 0x426174636846696C6C4E61746976654F7264657273466561747572653A3A6261 PUSH1 0x40 DUP3 ADD MSTORE PUSH32 0x74636846696C6C4C696D69744F72646572732F4D49534D4154434845445F4152 PUSH1 0x60 DUP3 ADD MSTORE PUSH32 0x5241595F4C454E47544853000000000000000000000000000000000000000000 PUSH1 0x80 DUP3 ADD MSTORE PUSH1 0xA0 ADD SWAP1 JUMP JUMPDEST PUSH1 0x20 DUP1 DUP3 MSTORE PUSH1 0x49 SWAP1 DUP3 ADD MSTORE PUSH32 0x426174636846696C6C4E61746976654F7264657273466561747572653A3A6261 PUSH1 0x40 DUP3 ADD MSTORE PUSH32 0x74636846696C6C5266714F72646572732F4D49534D4154434845445F41525241 PUSH1 0x60 DUP3 ADD MSTORE PUSH32 0x595F4C454E475448530000000000000000000000000000000000000000000000 PUSH1 0x80 DUP3 ADD MSTORE PUSH1 0xA0 ADD SWAP1 JUMP JUMPDEST PUSH2 0x260 DUP2 ADD PUSH1 0x20 DUP8 ADD PUSH2 0x1711 DUP4 PUSH2 0x170C DUP4 DUP12 PUSH2 0xF36 JUMP JUMPDEST PUSH2 0x1368 JUMP JUMPDEST PUSH2 0x171B DUP2 DUP10 PUSH2 0x199A JUMP JUMPDEST SWAP1 POP PUSH2 0x172A PUSH1 0x20 DUP5 ADD DUP3 PUSH2 0x1368 JUMP JUMPDEST POP PUSH2 0x1738 PUSH1 0x40 DUP9 ADD DUP9 PUSH2 0x19A7 JUMP JUMPDEST PUSH2 0x1745 PUSH1 0x40 DUP5 ADD DUP3 PUSH2 0x1418 JUMP JUMPDEST POP PUSH2 0x1753 PUSH1 0x60 DUP9 ADD DUP9 PUSH2 0x19A7 JUMP JUMPDEST PUSH2 0x1760 PUSH1 0x60 DUP5 ADD DUP3 PUSH2 0x1418 JUMP JUMPDEST POP PUSH2 0x176E PUSH1 0x80 DUP9 ADD DUP9 PUSH2 0x19A7 JUMP JUMPDEST PUSH2 0x177B PUSH1 0x80 DUP5 ADD DUP3 PUSH2 0x1418 JUMP JUMPDEST POP PUSH2 0x1789 PUSH1 0xA0 DUP9 ADD DUP9 PUSH2 0x199A JUMP JUMPDEST PUSH2 0x1796 PUSH1 0xA0 DUP5 ADD DUP3 PUSH2 0x1368 JUMP JUMPDEST POP PUSH2 0x17A4 PUSH1 0xC0 DUP9 ADD DUP9 PUSH2 0x199A JUMP JUMPDEST PUSH2 0x17B1 PUSH1 0xC0 DUP5 ADD DUP3 PUSH2 0x1368 JUMP JUMPDEST POP PUSH2 0x17BF PUSH1 0xE0 DUP9 ADD DUP9 PUSH2 0x199A JUMP JUMPDEST PUSH2 0x17CC PUSH1 0xE0 DUP5 ADD DUP3 PUSH2 0x1368 JUMP JUMPDEST POP PUSH2 0x100 PUSH2 0x17DC DUP2 DUP10 ADD DUP10 PUSH2 0x199A JUMP JUMPDEST PUSH2 0x17E8 DUP3 DUP6 ADD DUP3 PUSH2 0x1368 JUMP JUMPDEST POP POP PUSH2 0x120 DUP8 DUP2 ADD CALLDATALOAD SWAP1 DUP4 ADD MSTORE PUSH2 0x140 PUSH2 0x1804 DUP2 DUP10 ADD DUP10 PUSH2 0x19B4 JUMP JUMPDEST PUSH2 0x1810 DUP3 DUP6 ADD DUP3 PUSH2 0x142E JUMP JUMPDEST POP POP PUSH2 0x160 DUP8 DUP2 ADD CALLDATALOAD SWAP1 DUP4 ADD MSTORE PUSH2 0x182B PUSH2 0x180 DUP4 ADD DUP8 PUSH2 0x13CE JUMP JUMPDEST PUSH2 0x1839 PUSH2 0x200 DUP4 ADD DUP7 PUSH2 0x1418 JUMP JUMPDEST PUSH2 0x1847 PUSH2 0x220 DUP4 ADD DUP6 PUSH2 0x1368 JUMP JUMPDEST PUSH2 0x1855 PUSH2 0x240 DUP4 ADD DUP5 PUSH2 0x1368 JUMP JUMPDEST SWAP7 SWAP6 POP POP POP POP POP POP JUMP JUMPDEST PUSH2 0x200 DUP2 ADD PUSH1 0x20 DUP7 ADD PUSH2 0x1876 DUP4 PUSH2 0x170C DUP4 DUP11 PUSH2 0xF36 JUMP JUMPDEST PUSH2 0x1880 DUP2 DUP9 PUSH2 0x199A JUMP JUMPDEST SWAP1 POP PUSH2 0x188F PUSH1 0x20 DUP5 ADD DUP3 PUSH2 0x1368 JUMP JUMPDEST POP PUSH2 0x189D PUSH1 0x40 DUP8 ADD DUP8 PUSH2 0x19A7 JUMP JUMPDEST PUSH2 0x18AA PUSH1 0x40 DUP5 ADD DUP3 PUSH2 0x1418 JUMP JUMPDEST POP PUSH2 0x18B8 PUSH1 0x60 DUP8 ADD DUP8 PUSH2 0x19A7 JUMP JUMPDEST PUSH2 0x18C5 PUSH1 0x60 DUP5 ADD DUP3 PUSH2 0x1418 JUMP JUMPDEST POP PUSH2 0x18D3 PUSH1 0x80 DUP8 ADD DUP8 PUSH2 0x199A JUMP JUMPDEST PUSH2 0x18E0 PUSH1 0x80 DUP5 ADD DUP3 PUSH2 0x1368 JUMP JUMPDEST POP PUSH2 0x18EE PUSH1 0xA0 DUP8 ADD DUP8 PUSH2 0x199A JUMP JUMPDEST PUSH2 0x18FB PUSH1 0xA0 DUP5 ADD DUP3 PUSH2 0x1368 JUMP JUMPDEST POP PUSH2 0x1909 PUSH1 0xC0 DUP8 ADD DUP8 PUSH2 0x199A JUMP JUMPDEST PUSH2 0x1916 PUSH1 0xC0 DUP5 ADD DUP3 PUSH2 0x1368 JUMP JUMPDEST POP PUSH1 0xE0 DUP7 ADD CALLDATALOAD PUSH1 0xE0 DUP4 ADD MSTORE PUSH2 0x100 PUSH2 0x1930 DUP2 DUP9 ADD DUP9 PUSH2 0x19B4 JUMP JUMPDEST PUSH2 0x193C DUP3 DUP6 ADD DUP3 PUSH2 0x142E JUMP JUMPDEST POP POP PUSH2 0x120 DUP7 DUP2 ADD CALLDATALOAD SWAP1 DUP4 ADD MSTORE PUSH2 0x1957 PUSH2 0x140 DUP4 ADD DUP7 PUSH2 0x13CE JUMP JUMPDEST PUSH2 0x1965 PUSH2 0x1C0 DUP4 ADD DUP6 PUSH2 0x1418 JUMP JUMPDEST PUSH2 0x14C0 PUSH2 0x1E0 DUP4 ADD DUP5 PUSH2 0x1368 JUMP JUMPDEST PUSH1 0x40 MLOAD DUP2 DUP2 ADD PUSH8 0xFFFFFFFFFFFFFFFF DUP2 GT DUP3 DUP3 LT OR ISZERO PUSH2 0x1992 JUMPI PUSH1 0x0 DUP1 REVERT JUMPDEST PUSH1 0x40 MSTORE SWAP2 SWAP1 POP JUMP JUMPDEST PUSH1 0x0 DUP3 CALLDATALOAD PUSH2 0x919 DUP2 PUSH2 0x19D7 JUMP JUMPDEST PUSH1 0x0 DUP3 CALLDATALOAD PUSH2 0x919 DUP2 PUSH2 0x19F9 JUMP JUMPDEST PUSH1 0x0 DUP3 CALLDATALOAD PUSH8 0xFFFFFFFFFFFFFFFF DUP2 AND DUP2 EQ PUSH2 0x919 JUMPI DUP2 DUP3 REVERT JUMPDEST PUSH1 0x4 DUP2 LT PUSH2 0xC70 JUMPI INVALID JUMPDEST PUSH20 0xFFFFFFFFFFFFFFFFFFFFFFFFFFFFFFFFFFFFFFFF DUP2 AND DUP2 EQ PUSH2 0xC70 JUMPI PUSH1 0x0 DUP1 REVERT JUMPDEST PUSH16 0xFFFFFFFFFFFFFFFFFFFFFFFFFFFFFFFF DUP2 AND DUP2 EQ PUSH2 0xC70 JUMPI PUSH1 0x0 DUP1 REVERT INVALID LOG2 PUSH5 0x6970667358 0x22 SLT KECCAK256 CHAINID DUP11 JUMPDEST 0xCA PUSH29 0x7B19EA9C8E9E4FBB38847F05A9445111740A4B5A55CF8CE73A5D36473 PUSH16 0x6C634300060C00330000000000000000 "
            },
            "methodIdentifiers": {
                "EIP712_DOMAIN_SEPARATOR()": "dab400f3",
                "FEATURE_NAME()": "6ae4b4f7",
                "FEATURE_VERSION()": "031b905c",
                "batchFillLimitOrders((address,address,uint128,uint128,uint128,address,address,address,address,bytes32,uint64,uint256)[],(uint8,uint8,bytes32,bytes32)[],uint128[],bool)": "1baaa00b",
                "batchFillRfqOrders((address,address,uint128,uint128,address,address,address,bytes32,uint64,uint256)[],(uint8,uint8,bytes32,bytes32)[],uint128[],bool)": "75103cb9",
                "migrate()": "8fd3ab80"
            }
        }
    },
    "sourceTreeHashHex": "0xb39c21786df9b9b7e45dbeca084295a0d7a355da83bfa2d78494ee4458f23427",
    "compiler": {
        "name": "solc",
        "version": "0.6.12+commit.27d51765",
        "settings": {
            "remappings": [
                "@0x/contracts-utils=/Users/michaelzhu/protocol/node_modules/@0x/contracts-utils",
                "@0x/contracts-erc20=/Users/michaelzhu/protocol/contracts/zero-ex/node_modules/@0x/contracts-erc20"
            ],
            "optimizer": {
                "enabled": true,
                "runs": 1000000,
                "details": {
                    "yul": true,
                    "deduplicate": true,
                    "cse": true,
                    "constantOptimizer": true
                }
            },
            "outputSelection": {
                "*": {
                    "*": [
                        "abi",
                        "devdoc",
                        "evm.bytecode.object",
                        "evm.bytecode.sourceMap",
                        "evm.deployedBytecode.object",
                        "evm.deployedBytecode.sourceMap",
                        "evm.methodIdentifiers"
                    ]
                }
            },
            "evmVersion": "istanbul"
        }
    },
    "chains": {}
}