{
    "schemaVersion": "2.0.0",
    "contractName": "FillQuoteTransformer",
    "compilerOutput": {
        "abi": [
            {
                "inputs": [
                    {
                        "internalType": "contract IBridgeAdapter",
                        "name": "bridgeAdapter_",
                        "type": "address"
                    },
                    {
                        "internalType": "contract INativeOrdersFeature",
                        "name": "zeroEx_",
                        "type": "address"
                    }
                ],
                "stateMutability": "nonpayable",
                "type": "constructor"
            },
            {
                "anonymous": false,
                "inputs": [
                    {
                        "indexed": false,
                        "internalType": "bytes32",
                        "name": "orderHash",
                        "type": "bytes32"
                    }
                ],
                "name": "ProtocolFeeUnfunded",
                "type": "event"
            },
            {
                "inputs": [],
                "name": "bridgeAdapter",
                "outputs": [
                    {
                        "internalType": "contract IBridgeAdapter",
                        "name": "",
                        "type": "address"
                    }
                ],
                "stateMutability": "view",
                "type": "function"
            },
            {
                "inputs": [],
                "name": "deployer",
                "outputs": [
                    {
                        "internalType": "address",
                        "name": "",
                        "type": "address"
                    }
                ],
                "stateMutability": "view",
                "type": "function"
            },
            {
                "inputs": [
                    {
                        "internalType": "address payable",
                        "name": "ethRecipient",
                        "type": "address"
                    }
                ],
                "name": "die",
                "outputs": [],
                "stateMutability": "nonpayable",
                "type": "function"
            },
            {
                "inputs": [
                    {
                        "components": [
                            {
                                "internalType": "address payable",
                                "name": "sender",
                                "type": "address"
                            },
                            {
                                "internalType": "address payable",
                                "name": "taker",
                                "type": "address"
                            },
                            {
                                "internalType": "bytes",
                                "name": "data",
                                "type": "bytes"
                            }
                        ],
                        "internalType": "struct IERC20Transformer.TransformContext",
                        "name": "context",
                        "type": "tuple"
                    }
                ],
                "name": "transform",
                "outputs": [
                    {
                        "internalType": "bytes4",
                        "name": "magicBytes",
                        "type": "bytes4"
                    }
                ],
                "stateMutability": "nonpayable",
                "type": "function"
            },
            {
                "inputs": [],
                "name": "zeroEx",
                "outputs": [
                    {
                        "internalType": "contract INativeOrdersFeature",
                        "name": "",
                        "type": "address"
                    }
                ],
                "stateMutability": "view",
                "type": "function"
            }
        ],
        "devdoc": {
            "details": "A transformer that fills an ERC20 market sell/buy quote.      This transformer shortcuts bridge orders and fills them directly",
            "events": {
                "ProtocolFeeUnfunded(bytes32)": {
                    "details": "Emitted when a trade is skipped due to a lack of funds      to pay the 0x Protocol fee.",
                    "params": {
                        "orderHash": "The hash of the order that was skipped."
                    }
                }
            },
            "kind": "dev",
            "methods": {
                "constructor": {
                    "details": "Create this contract.",
                    "params": {
                        "bridgeAdapter_": "The bridge adapter contract.",
                        "zeroEx_": "The Exchange Proxy contract."
                    }
                },
                "die(address)": {
                    "details": "Destruct this contract. Only callable by the deployer and will not      succeed in the context of a delegatecall (from another contract).",
                    "params": {
                        "ethRecipient": "The recipient of ETH held in this contract."
                    }
                },
                "transform((address,address,bytes))": {
                    "details": "Sell this contract's entire balance of of `sellToken` in exchange      for `buyToken` by filling `orders`. Protocol fees should be attached      to this call. `buyToken` and excess ETH will be transferred back to the caller.",
                    "params": {
                        "context": "Context information."
                    },
                    "returns": {
                        "magicBytes": "The success bytes (`LibERC20Transformer.TRANSFORMER_SUCCESS`)."
                    }
                }
            },
            "stateVariables": {
                "HIGH_BIT": {
                    "details": "The highest bit of a uint256 value."
                },
                "LOWER_255_BITS": {
                    "details": "Mask of the lower 255 bits of a uint256 value."
                },
                "REFUND_RECEIVER_SENDER": {
                    "details": "If `refundReceiver` is set to this address, unpsent      protocol fees will be sent to the sender."
                },
                "REFUND_RECEIVER_TAKER": {
                    "details": "If `refundReceiver` is set to this address, unpsent      protocol fees will be sent to the taker."
                },
                "bridgeAdapter": {
                    "details": "The BridgeAdapter address"
                },
                "zeroEx": {
                    "details": "The exchange proxy contract."
                }
            },
            "version": 1
        },
        "evm": {
            "bytecode": {
                "linkReferences": {},
                "object": "0x6101006040523480156200001257600080fd5b50604051620027a5380380620027a5833981016040819052620000359162000060565b33606090811b60805230811b60a0526001600160601b031992811b831660c0521b1660e052620000b7565b6000806040838503121562000073578182fd5b825162000080816200009e565b602084015190925062000093816200009e565b809150509250929050565b6001600160a01b0381168114620000b457600080fd5b50565b60805160601c60a05160601c60c05160601c60e05160601c612680620001256000398060d1528061026852806102c75280610ee25280610fa7528061119e52508061080e5280610cc55250806108b252806108e05250806108485280610876528061091f52506126806000f3fe608060405234801561001057600080fd5b50600436106100675760003560e01c8063be7dc09b11610050578063be7dc09b146100aa578063c9353cb5146100b2578063d5f39488146100c757610067565b806352ab413b1461006c578063832b24bb1461008a575b600080fd5b6100746100cf565b60405161008191906121cc565b60405180910390f35b61009d610098366004611e61565b6100f3565b6040516100819190612271565b61007461080c565b6100c56100c0366004611e2d565b610830565b005b61007461091d565b7f000000000000000000000000000000000000000000000000000000000000000081565b60006100fd6117e3565b61010a6040840184612520565b8101906101179190611e99565b9050610121611872565b610144826020015173ffffffffffffffffffffffffffffffffffffffff16610941565b8061016d575061016d826040015173ffffffffffffffffffffffffffffffffffffffff16610941565b156101c6576101c66101c160006101876040880188612520565b8080601f01602080910402602001604051908101604052809392919081815260200183838082843760009201919091525061097392505050565b610a2f565b8160c00151518260a00151518360800151518460600151510101146101fa576101fa6101c160016101876040880188612520565b602082015161021f9073ffffffffffffffffffffffffffffffffffffffff1630610a37565b608082015260008251600181111561023357fe5b14156102515761024b8260e001518260800151610b0e565b60e08301525b60a082015151608083015151011561037d576102b67f00000000000000000000000000000000000000000000000000000000000000008360e00151846020015173ffffffffffffffffffffffffffffffffffffffff16610b909092919063ffffffff16565b6080820151511561037d576103773a7f000000000000000000000000000000000000000000000000000000000000000073ffffffffffffffffffffffffffffffffffffffff1663487b5c206040518163ffffffff1660e01b815260040160206040518083038186803b15801561032b57600080fd5b505afa15801561033f573d6000803e3d6000fd5b505050506040513d601f19601f820116820180604052508101906103639190612001565b63ffffffff16610c6c90919063ffffffff16565b60608201525b47815260005b8260c00151518110156105b95760008351600181111561039f57fe5b14156103be578260e001518260400151106103b9576105b9565b6103d2565b8260e001518260200151106103d2576105b9565b8260c0015181815181106103e257fe5b60200260200101518260c0019060028111156103fa57fe5b9081600281111561040757fe5b8152505060008260a001518360c00151600281111561042257fe5b6003811061042c57fe5b6020020151905061043b6118b4565b60008460c00151600281111561044d57fe5b141561047c576104758560600151838151811061046657fe5b60200260200101518686610c9d565b905061052b565b60018460c00151600281111561048e57fe5b14156104b657610475856080015183815181106104a757fe5b60200260200101518686610e1c565b60028460c0015160028111156104c857fe5b14156104f0576104758560a0015183815181106104e157fe5b6020026020010151868661114b565b6040517f08c379a000000000000000000000000000000000000000000000000000000000815260040161052290612307565b60405180910390fd5b8051604085015161053b9161129d565b6040850152602080820151908501516105539161129d565b602085015260408101518451610568916112b9565b84528051608085015161057a916112b9565b608085015260a084015160c0850151600281111561059457fe5b6003811061059e57fe5b60200201805160019081019091529290920191506103839050565b506000825160018111156105c957fe5b14156105fe578160e00151816040015110156105f9576105f96101c1836020015183604001518560e001516112d8565b610628565b8160e0015181602001511015610628576106286101c1836040015183602001518560e00151611396565b805115801590610652575061010082015173ffffffffffffffffffffffffffffffffffffffff1615155b156107e15761010082015160009073ffffffffffffffffffffffffffffffffffffffff16600114156107025761068e6040860160208701611e2d565b73ffffffffffffffffffffffffffffffffffffffff1682600001516040516106b5906121c9565b60006040518083038185875af1925050503d80600081146106f2576040519150601f19603f3d011682016040523d82523d6000602084013e6106f7565b606091505b5050809150506107a8565b61010083015173ffffffffffffffffffffffffffffffffffffffff16600214156107335761068e6020860186611e2d565b82610100015173ffffffffffffffffffffffffffffffffffffffff168260000151604051610760906121c9565b60006040518083038185875af1925050503d806000811461079d576040519150601f19603f3d011682016040523d82523d6000602084013e6107a2565b606091505b50909150505b806107df576040517f08c379a00000000000000000000000000000000000000000000000000000000081526004016105229061233e565b505b507f13c9929e000000000000000000000000000000000000000000000000000000009150505b919050565b7f000000000000000000000000000000000000000000000000000000000000000081565b3373ffffffffffffffffffffffffffffffffffffffff7f0000000000000000000000000000000000000000000000000000000000000000161461089a5761089a6101c1337f00000000000000000000000000000000000000000000000000000000000000006113ce565b3073ffffffffffffffffffffffffffffffffffffffff7f00000000000000000000000000000000000000000000000000000000000000001614610904576109046101c1307f0000000000000000000000000000000000000000000000000000000000000000611404565b8073ffffffffffffffffffffffffffffffffffffffff16ff5b7f000000000000000000000000000000000000000000000000000000000000000081565b73ffffffffffffffffffffffffffffffffffffffff811673eeeeeeeeeeeeeeeeeeeeeeeeeeeeeeeeeeeeeeee14919050565b60607f505ff6a4f24a0aa989a95ffe4c8d435d76fb30dea162a3e3022e749867722deb83836040516024016109a99291906122e4565b604080517fffffffffffffffffffffffffffffffffffffffffffffffffffffffffffffffe08184030181529190526020810180517bffffffffffffffffffffffffffffffffffffffffffffffffffffffff167fffffffff000000000000000000000000000000000000000000000000000000009093169290921790915290505b92915050565b805160208201fd5b6000610a4283610941565b15610a65575073ffffffffffffffffffffffffffffffffffffffff811631610a29565b6040517f70a0823100000000000000000000000000000000000000000000000000000000815273ffffffffffffffffffffffffffffffffffffffff8416906370a0823190610ab79085906004016121cc565b60206040518083038186803b158015610acf57600080fd5b505afa158015610ae3573d6000803e3d6000fd5b505050506040513d601f19601f82011682018060405250810190610b079190611e49565b9392505050565b60007f80000000000000000000000000000000000000000000000000000000000000008084161415610b8957610b82670de0b6b3a7640000610b727f7fffffffffffffffffffffffffffffffffffffffffffffffffffffffffffffff86168261143a565b840281610b7b57fe5b048361143a565b9050610a29565b5090919050565b6040517fdd62ed3e000000000000000000000000000000000000000000000000000000008152819073ffffffffffffffffffffffffffffffffffffffff85169063dd62ed3e90610be690309087906004016121ed565b60206040518083038186803b158015610bfe57600080fd5b505afa158015610c12573d6000803e3d6000fd5b505050506040513d601f19601f82011682018060405250810190610c369190611e49565b1015610c6757610c6783837fffffffffffffffffffffffffffffffffffffffffffffffffffffffffffffffff611449565b505050565b600082610c7b57506000610a29565b82820282848281610c8857fe5b0414610b0757610b076101c1600186866114f5565b610ca56118b4565b6000610cbd8484876020015188604001516000611514565b9050600060607f000000000000000000000000000000000000000000000000000000000000000073ffffffffffffffffffffffffffffffffffffffff1663df2b273760e01b888860200151896040015187604051602401610d21949392919061239b565b604080517fffffffffffffffffffffffffffffffffffffffffffffffffffffffffffffffe08184030181529181526020820180517bffffffffffffffffffffffffffffffffffffffffffffffffffffffff167fffffffff00000000000000000000000000000000000000000000000000000000909416939093179092529051610daa91906121ad565b600060405180830381855af49150503d8060008114610de5576040519150601f19603f3d011682016040523d82523d6000602084013e610dea565b606091505b50915091508115610e125780806020019051810190610e099190611e49565b60208501528284525b5050509392505050565b610e246118b4565b6000610e8e610e8485858860000151606001516fffffffffffffffffffffffffffffffff168960000151604001516fffffffffffffffffffffffffffffffff168a60000151608001516fffffffffffffffffffffffffffffffff16611514565b866040015161143a565b9050826060015183600001511015610fa55784516040517fdd11d22500000000000000000000000000000000000000000000000000000000815260009173ffffffffffffffffffffffffffffffffffffffff7f0000000000000000000000000000000000000000000000000000000000000000169163dd11d22591610f1591600401612407565b60206040518083038186803b158015610f2d57600080fd5b505afa158015610f41573d6000803e3d6000fd5b505050506040513d601f19601f82011682018060405250810190610f659190611e49565b90507fb5d7e18f9bad5b40d7cf6bb45142dfbaef62527179ff5c249c6d6cc00176224d81604051610f969190612268565b60405180910390a15050610b07565b7f000000000000000000000000000000000000000000000000000000000000000073ffffffffffffffffffffffffffffffffffffffff1663f6274f66846060015187600001518860200151610ff9866115aa565b6040518563ffffffff1660e01b815260040161101793929190612416565b60408051808303818588803b15801561102f57600080fd5b505af19350505050801561107e575060408051601f3d9081017fffffffffffffffffffffffffffffffffffffffffffffffffffffffffffffffe016820190925261107b91810190611fc8565b60015b61108757611143565b8651608001516fffffffffffffffffffffffffffffffff161561111c576111196111006110fb846fffffffffffffffffffffffffffffffff168a60000151606001516fffffffffffffffffffffffffffffffff168b60000151608001516fffffffffffffffffffffffffffffffff166115d6565b6115aa565b6fffffffffffffffffffffffffffffffff8416906115f4565b91505b6fffffffffffffffffffffffffffffffff9182168452166020830152606083015160408301525b509392505050565b6111536118b4565b600061119a610e8485858860000151606001516fffffffffffffffffffffffffffffffff168960000151604001516fffffffffffffffffffffffffffffffff166000611514565b90507f000000000000000000000000000000000000000000000000000000000000000073ffffffffffffffffffffffffffffffffffffffff1663aa77476c866000015187602001516111eb856115aa565b6040518463ffffffff1660e01b815260040161120993929190612454565b6040805180830381600087803b15801561122257600080fd5b505af1925050508015611270575060408051601f3d9081017fffffffffffffffffffffffffffffffffffffffffffffffffffffffffffffffe016820190925261126d91810190611fc8565b60015b61127957611143565b6fffffffffffffffffffffffffffffffff9182168452166020830152509392505050565b600082820183811015610b0757610b076101c1600086866114f5565b6000828211156112d2576112d26101c1600285856114f5565b50900390565b60607fadc35ca636cd9f46b974d5bec4df8af095d0ae177ec6043620af588c03bdc6168484846040516024016113109392919061223a565b604080517fffffffffffffffffffffffffffffffffffffffffffffffffffffffffffffffe08184030181529190526020810180517bffffffffffffffffffffffffffffffffffffffffffffffffffffffff167fffffffff000000000000000000000000000000000000000000000000000000009093169290921790915290509392505050565b60607f498df3ae522acadbf67e6aa5fde156a5b74336950cd271175e7336907df120e38484846040516024016113109392919061223a565b60607f5cec653b364cca3880afa73ceff506d0651d11d26abbbe4a56460aa933b21b0883836040516024016109a99291906121ed565b60607fb5cf2cd09307d6c717473134badbb9761c2c97d7565566c2a71eba6cd6fc514d83836040516024016109a99291906121ed565b6000818310610b895781610b07565b606063095ea7b360e01b8383604051602401611466929190612214565b604080517fffffffffffffffffffffffffffffffffffffffffffffffffffffffffffffffe08184030181529190526020810180517bffffffffffffffffffffffffffffffffffffffffffffffffffffffff167fffffffff000000000000000000000000000000000000000000000000000000009093169290921790915290506114ef8482611649565b50505050565b606063e946c1bb60e01b8484846040516024016113109392919061229e565b6000808651600181111561152457fe5b141561156157604085015160e087015161153d916112b9565b9050811561155c5761155981611553868561129d565b866116e3565b90505b611589565b61158661157f86602001518860e001516112b990919063ffffffff16565b84866116e3565b90505b6115a0611596828661143a565b866080015161143a565b9695505050505050565b60006fffffffffffffffffffffffffffffffff8211156115d2576115d26101c1600384611707565b5090565b60006115ec836115e68685610c6c565b90611724565b949350505050565b60008282016fffffffffffffffffffffffffffffffff8085169082161015610b0757610b076101c16000866fffffffffffffffffffffffffffffffff16866fffffffffffffffffffffffffffffffff166114f5565b600060608373ffffffffffffffffffffffffffffffffffffffff168360405161167291906121ad565b6000604051808303816000865af19150503d80600081146116af576040519150601f19603f3d011682016040523d82523d6000602084013e6116b4565b606091505b50915091508180156116ca57506116ca8161174e565b156116d65750506116df565b6114ef81610a2f565b5050565b60006115ec836115e66116f78260016112b9565b6117018887610c6c565b9061129d565b606063c996af7b60e01b83836040516024016109a99291906122bf565b60008161173a5761173a6101c1600385856114f5565b600082848161174557fe5b04949350505050565b600081516000141561176257506001610807565b6020825110610807576000611778836000611793565b9050806001141561178d576001915050610807565b50919050565b6000610b078383600081602001835110156117bb576117bb6101c160058551856020016117c4565b50016020015190565b6060632800659560e01b848484604051602401611310939291906122d6565b6040805161012081019091528060008152602001600073ffffffffffffffffffffffffffffffffffffffff168152602001600073ffffffffffffffffffffffffffffffffffffffff1681526020016060815260200160608152602001606081526020016060815260200160008152602001600073ffffffffffffffffffffffffffffffffffffffff1681525090565b6040518060e0016040528060008152602001600081526020016000815260200160008152602001600081526020016118a86118d5565b81526020016000905290565b60405180606001604052806000815260200160008152602001600081525090565b60405180606001604052806003906020820280368337509192915050565b8035610a298161260a565b600082601f83011261190e578081fd5b813561192161191c826125b1565b61258a565b81815291506020808301908481018184028601820187101561194257600080fd5b6000805b8581101561196e5782356003811061195c578283fd5b85529383019391830191600101611946565b50505050505092915050565b6000601f838184011261198b578182fd5b823561199961191c826125b1565b818152925060208084019085810160005b8481101561196e578135880160807fffffffffffffffffffffffffffffffffffffffffffffffffffffffffffffffe08181848e030112156119ea57600080fd5b6119f38261258a565b8387013581526040808501358289015260608086013582840152938501359367ffffffffffffffff80861115611a2857600080fd5b85870196508f603f880112611a3c57600080fd5b89870135955080861115611a4f57600080fd5b50611a5f89858e8801160161258a565b93508484528e82868801011115611a7557600080fd5b848287018a8601376000948401890194909452509182015285525092820192908201906001016119aa565b600082601f830112611ab0578081fd5b8135611abe61191c826125b1565b818152915060208083019084810161022080850287018301881015611ae257600080fd5b6000805b86811015611b415782848b031215611afc578182fd5b611b06606061258a565b611b108b86611cba565b8152611b208b6101808701611da7565b81870152610200850135604082015286529484019492820192600101611ae6565b5050505050505092915050565b600082601f830112611b5e578081fd5b8135611b6c61191c826125b1565b81815291506020808301908481016101e080850287018301881015611b9057600080fd5b60005b8581101561196e5782890382811215611bab57600080fd5b6060611bb68161258a565b61014080841215611bc657600080fd5b611bcf8161258a565b9350611bdb8d886118f3565b8452611be98d8989016118f3565b888501526040611bfb8e828a01611e0a565b81860152611c0b8e858a01611e0a565b8486015260809350611c1f8e858a016118f3565b8486015260a09350611c338e858a016118f3565b8486015260c09350611c478e858a016118f3565b8486015260e0935083880135848601526101009350611c688e858a01611e15565b8486015261012093508388013584860152848352611c888e838a01611da7565b838a01526101c08801359083015250875250509383019391810191600101611b93565b803560028110610a2957600080fd5b6000610180808385031215611ccd578182fd5b611cd68161258a565b915050611ce383836118f3565b8152611cf283602084016118f3565b6020820152611d048360408401611e0a565b6040820152611d168360608401611e0a565b6060820152611d288360808401611e0a565b6080820152611d3a8360a084016118f3565b60a0820152611d4c8360c084016118f3565b60c0820152611d5e8360e084016118f3565b60e0820152610100611d72848285016118f3565b908201526101208281013590820152610140611d9084828501611e15565b818301525061016080830135818301525092915050565b600060808284031215611db8578081fd5b611dc2608061258a565b9050813560048110611dd357600080fd5b8152602082013560ff81168114611de957600080fd5b80602083015250604082013560408201526060820135606082015292915050565b8035610a298161262c565b803567ffffffffffffffff81168114610a2957600080fd5b600060208284031215611e3e578081fd5b8135610b078161260a565b600060208284031215611e5a578081fd5b5051919050565b600060208284031215611e72578081fd5b813567ffffffffffffffff811115611e88578182fd5b820160608185031215610b07578182fd5b600060208284031215611eaa578081fd5b813567ffffffffffffffff80821115611ec1578283fd5b8184019150610120808387031215611ed7578384fd5b611ee08161258a565b9050611eec8684611cab565b8152611efb86602085016118f3565b6020820152611f0d86604085016118f3565b6040820152606083013582811115611f23578485fd5b611f2f8782860161197a565b606083015250608083013582811115611f46578485fd5b611f5287828601611aa0565b60808301525060a083013582811115611f69578485fd5b611f7587828601611b4e565b60a08301525060c083013582811115611f8c578485fd5b611f98878286016118fe565b60c08301525060e083013560e08201526101009150611fb9868385016118f3565b91810191909152949350505050565b60008060408385031215611fda578081fd5b8251611fe58161262c565b6020840151909250611ff68161262c565b809150509250929050565b600060208284031215612012578081fd5b815163ffffffff81168114610b07578182fd5b73ffffffffffffffffffffffffffffffffffffffff169052565b600081518084526120578160208601602086016125d1565b601f017fffffffffffffffffffffffffffffffffffffffffffffffffffffffffffffffe0169290920160200192915050565b612094828251612025565b60208101516120a66020840182612025565b5060408101516120b96040840182612189565b5060608101516120cc6060840182612189565b5060808101516120df6080840182612189565b5060a08101516120f260a0840182612025565b5060c081015161210560c0840182612025565b5060e081015161211860e0840182612025565b506101008082015161212c82850182612025565b505061012081810151908301526101408082015161214c8285018261219f565b505061016090810151910152565b8051612165816125fd565b825260208181015160ff169083015260408082015190830152606090810151910152565b6fffffffffffffffffffffffffffffffff169052565b67ffffffffffffffff169052565b600082516121bf8184602087016125d1565b9190910192915050565b90565b73ffffffffffffffffffffffffffffffffffffffff91909116815260200190565b73ffffffffffffffffffffffffffffffffffffffff92831681529116602082015260400190565b73ffffffffffffffffffffffffffffffffffffffff929092168252602082015260400190565b73ffffffffffffffffffffffffffffffffffffffff9390931683526020830191909152604082015260600190565b90815260200190565b7fffffffff0000000000000000000000000000000000000000000000000000000091909116815260200190565b606081016122ab856125fd565b938152602081019290925260409091015290565b604081016122cc846125fd565b9281526020015290565b60608101600885106122ab57fe5b6000600284106122f057fe5b838252604060208301526115ec604083018461203f565b60208082526012908201527f494e56414c49445f4f524445525f545950450000000000000000000000000000604082015260600190565b6020808252602a908201527f46696c6c51756f74655472616e73666f726d65722f45544845525f5452414e5360408201527f4645525f46414c49454400000000000000000000000000000000000000000000606082015260800190565b60006080825285516080830152602086015160a0830152604086015160c08301526060860151608060e08401526123d661010084018261203f565b73ffffffffffffffffffffffffffffffffffffffff9687166020850152949095166040830152506060015292915050565b6101808101610a298284612089565b61022081016124258286612089565b61243361018083018561215a565b6fffffffffffffffffffffffffffffffff8316610200830152949350505050565b60006101e082019050612468828651612025565b602085015161247a6020840182612025565b50604085015161248d6040840182612189565b5060608501516124a06060840182612189565b5060808501516124b36080840182612025565b5060a08501516124c660a0840182612025565b5060c08501516124d960c0840182612025565b5060e085015160e0830152610100808601516124f78285018261219f565b5050610120858101519083015261251261014083018561215a565b6115ec6101c0830184612189565b60008083357fffffffffffffffffffffffffffffffffffffffffffffffffffffffffffffffe1843603018112612554578283fd5b83018035915067ffffffffffffffff82111561256e578283fd5b60200191503681900382131561258357600080fd5b9250929050565b60405181810167ffffffffffffffff811182821017156125a957600080fd5b604052919050565b600067ffffffffffffffff8211156125c7578081fd5b5060209081020190565b60005b838110156125ec5781810151838201526020016125d4565b838111156114ef5750506000910152565b6004811061260757fe5b50565b73ffffffffffffffffffffffffffffffffffffffff8116811461260757600080fd5b6fffffffffffffffffffffffffffffffff8116811461260757600080fdfea2646970667358221220bfe38a13d7de600dba050275392841167f43760555e289253bee8c22dfb0c7dc64736f6c634300060c0033",
                "opcodes": "PUSH2 0x100 PUSH1 0x40 MSTORE CALLVALUE DUP1 ISZERO PUSH3 0x12 JUMPI PUSH1 0x0 DUP1 REVERT JUMPDEST POP PUSH1 0x40 MLOAD PUSH3 0x27A5 CODESIZE SUB DUP1 PUSH3 0x27A5 DUP4 CODECOPY DUP2 ADD PUSH1 0x40 DUP2 SWAP1 MSTORE PUSH3 0x35 SWAP2 PUSH3 0x60 JUMP JUMPDEST CALLER PUSH1 0x60 SWAP1 DUP2 SHL PUSH1 0x80 MSTORE ADDRESS DUP2 SHL PUSH1 0xA0 MSTORE PUSH1 0x1 PUSH1 0x1 PUSH1 0x60 SHL SUB NOT SWAP3 DUP2 SHL DUP4 AND PUSH1 0xC0 MSTORE SHL AND PUSH1 0xE0 MSTORE PUSH3 0xB7 JUMP JUMPDEST PUSH1 0x0 DUP1 PUSH1 0x40 DUP4 DUP6 SUB SLT ISZERO PUSH3 0x73 JUMPI DUP2 DUP3 REVERT JUMPDEST DUP3 MLOAD PUSH3 0x80 DUP2 PUSH3 0x9E JUMP JUMPDEST PUSH1 0x20 DUP5 ADD MLOAD SWAP1 SWAP3 POP PUSH3 0x93 DUP2 PUSH3 0x9E JUMP JUMPDEST DUP1 SWAP2 POP POP SWAP3 POP SWAP3 SWAP1 POP JUMP JUMPDEST PUSH1 0x1 PUSH1 0x1 PUSH1 0xA0 SHL SUB DUP2 AND DUP2 EQ PUSH3 0xB4 JUMPI PUSH1 0x0 DUP1 REVERT JUMPDEST POP JUMP JUMPDEST PUSH1 0x80 MLOAD PUSH1 0x60 SHR PUSH1 0xA0 MLOAD PUSH1 0x60 SHR PUSH1 0xC0 MLOAD PUSH1 0x60 SHR PUSH1 0xE0 MLOAD PUSH1 0x60 SHR PUSH2 0x2680 PUSH3 0x125 PUSH1 0x0 CODECOPY DUP1 PUSH1 0xD1 MSTORE DUP1 PUSH2 0x268 MSTORE DUP1 PUSH2 0x2C7 MSTORE DUP1 PUSH2 0xEE2 MSTORE DUP1 PUSH2 0xFA7 MSTORE DUP1 PUSH2 0x119E MSTORE POP DUP1 PUSH2 0x80E MSTORE DUP1 PUSH2 0xCC5 MSTORE POP DUP1 PUSH2 0x8B2 MSTORE DUP1 PUSH2 0x8E0 MSTORE POP DUP1 PUSH2 0x848 MSTORE DUP1 PUSH2 0x876 MSTORE DUP1 PUSH2 0x91F MSTORE POP PUSH2 0x2680 PUSH1 0x0 RETURN INVALID PUSH1 0x80 PUSH1 0x40 MSTORE CALLVALUE DUP1 ISZERO PUSH2 0x10 JUMPI PUSH1 0x0 DUP1 REVERT JUMPDEST POP PUSH1 0x4 CALLDATASIZE LT PUSH2 0x67 JUMPI PUSH1 0x0 CALLDATALOAD PUSH1 0xE0 SHR DUP1 PUSH4 0xBE7DC09B GT PUSH2 0x50 JUMPI DUP1 PUSH4 0xBE7DC09B EQ PUSH2 0xAA JUMPI DUP1 PUSH4 0xC9353CB5 EQ PUSH2 0xB2 JUMPI DUP1 PUSH4 0xD5F39488 EQ PUSH2 0xC7 JUMPI PUSH2 0x67 JUMP JUMPDEST DUP1 PUSH4 0x52AB413B EQ PUSH2 0x6C JUMPI DUP1 PUSH4 0x832B24BB EQ PUSH2 0x8A JUMPI JUMPDEST PUSH1 0x0 DUP1 REVERT JUMPDEST PUSH2 0x74 PUSH2 0xCF JUMP JUMPDEST PUSH1 0x40 MLOAD PUSH2 0x81 SWAP2 SWAP1 PUSH2 0x21CC JUMP JUMPDEST PUSH1 0x40 MLOAD DUP1 SWAP2 SUB SWAP1 RETURN JUMPDEST PUSH2 0x9D PUSH2 0x98 CALLDATASIZE PUSH1 0x4 PUSH2 0x1E61 JUMP JUMPDEST PUSH2 0xF3 JUMP JUMPDEST PUSH1 0x40 MLOAD PUSH2 0x81 SWAP2 SWAP1 PUSH2 0x2271 JUMP JUMPDEST PUSH2 0x74 PUSH2 0x80C JUMP JUMPDEST PUSH2 0xC5 PUSH2 0xC0 CALLDATASIZE PUSH1 0x4 PUSH2 0x1E2D JUMP JUMPDEST PUSH2 0x830 JUMP JUMPDEST STOP JUMPDEST PUSH2 0x74 PUSH2 0x91D JUMP JUMPDEST PUSH32 0x0 DUP2 JUMP JUMPDEST PUSH1 0x0 PUSH2 0xFD PUSH2 0x17E3 JUMP JUMPDEST PUSH2 0x10A PUSH1 0x40 DUP5 ADD DUP5 PUSH2 0x2520 JUMP JUMPDEST DUP2 ADD SWAP1 PUSH2 0x117 SWAP2 SWAP1 PUSH2 0x1E99 JUMP JUMPDEST SWAP1 POP PUSH2 0x121 PUSH2 0x1872 JUMP JUMPDEST PUSH2 0x144 DUP3 PUSH1 0x20 ADD MLOAD PUSH20 0xFFFFFFFFFFFFFFFFFFFFFFFFFFFFFFFFFFFFFFFF AND PUSH2 0x941 JUMP JUMPDEST DUP1 PUSH2 0x16D JUMPI POP PUSH2 0x16D DUP3 PUSH1 0x40 ADD MLOAD PUSH20 0xFFFFFFFFFFFFFFFFFFFFFFFFFFFFFFFFFFFFFFFF AND PUSH2 0x941 JUMP JUMPDEST ISZERO PUSH2 0x1C6 JUMPI PUSH2 0x1C6 PUSH2 0x1C1 PUSH1 0x0 PUSH2 0x187 PUSH1 0x40 DUP9 ADD DUP9 PUSH2 0x2520 JUMP JUMPDEST DUP1 DUP1 PUSH1 0x1F ADD PUSH1 0x20 DUP1 SWAP2 DIV MUL PUSH1 0x20 ADD PUSH1 0x40 MLOAD SWAP1 DUP2 ADD PUSH1 0x40 MSTORE DUP1 SWAP4 SWAP3 SWAP2 SWAP1 DUP2 DUP2 MSTORE PUSH1 0x20 ADD DUP4 DUP4 DUP1 DUP3 DUP5 CALLDATACOPY PUSH1 0x0 SWAP3 ADD SWAP2 SWAP1 SWAP2 MSTORE POP PUSH2 0x973 SWAP3 POP POP POP JUMP JUMPDEST PUSH2 0xA2F JUMP JUMPDEST DUP2 PUSH1 0xC0 ADD MLOAD MLOAD DUP3 PUSH1 0xA0 ADD MLOAD MLOAD DUP4 PUSH1 0x80 ADD MLOAD MLOAD DUP5 PUSH1 0x60 ADD MLOAD MLOAD ADD ADD EQ PUSH2 0x1FA JUMPI PUSH2 0x1FA PUSH2 0x1C1 PUSH1 0x1 PUSH2 0x187 PUSH1 0x40 DUP9 ADD DUP9 PUSH2 0x2520 JUMP JUMPDEST PUSH1 0x20 DUP3 ADD MLOAD PUSH2 0x21F SWAP1 PUSH20 0xFFFFFFFFFFFFFFFFFFFFFFFFFFFFFFFFFFFFFFFF AND ADDRESS PUSH2 0xA37 JUMP JUMPDEST PUSH1 0x80 DUP3 ADD MSTORE PUSH1 0x0 DUP3 MLOAD PUSH1 0x1 DUP2 GT ISZERO PUSH2 0x233 JUMPI INVALID JUMPDEST EQ ISZERO PUSH2 0x251 JUMPI PUSH2 0x24B DUP3 PUSH1 0xE0 ADD MLOAD DUP3 PUSH1 0x80 ADD MLOAD PUSH2 0xB0E JUMP JUMPDEST PUSH1 0xE0 DUP4 ADD MSTORE JUMPDEST PUSH1 0xA0 DUP3 ADD MLOAD MLOAD PUSH1 0x80 DUP4 ADD MLOAD MLOAD ADD ISZERO PUSH2 0x37D JUMPI PUSH2 0x2B6 PUSH32 0x0 DUP4 PUSH1 0xE0 ADD MLOAD DUP5 PUSH1 0x20 ADD MLOAD PUSH20 0xFFFFFFFFFFFFFFFFFFFFFFFFFFFFFFFFFFFFFFFF AND PUSH2 0xB90 SWAP1 SWAP3 SWAP2 SWAP1 PUSH4 0xFFFFFFFF AND JUMP JUMPDEST PUSH1 0x80 DUP3 ADD MLOAD MLOAD ISZERO PUSH2 0x37D JUMPI PUSH2 0x377 GASPRICE PUSH32 0x0 PUSH20 0xFFFFFFFFFFFFFFFFFFFFFFFFFFFFFFFFFFFFFFFF AND PUSH4 0x487B5C20 PUSH1 0x40 MLOAD DUP2 PUSH4 0xFFFFFFFF AND PUSH1 0xE0 SHL DUP2 MSTORE PUSH1 0x4 ADD PUSH1 0x20 PUSH1 0x40 MLOAD DUP1 DUP4 SUB DUP2 DUP7 DUP1 EXTCODESIZE ISZERO DUP1 ISZERO PUSH2 0x32B JUMPI PUSH1 0x0 DUP1 REVERT JUMPDEST POP GAS STATICCALL ISZERO DUP1 ISZERO PUSH2 0x33F JUMPI RETURNDATASIZE PUSH1 0x0 DUP1 RETURNDATACOPY RETURNDATASIZE PUSH1 0x0 REVERT JUMPDEST POP POP POP POP PUSH1 0x40 MLOAD RETURNDATASIZE PUSH1 0x1F NOT PUSH1 0x1F DUP3 ADD AND DUP3 ADD DUP1 PUSH1 0x40 MSTORE POP DUP2 ADD SWAP1 PUSH2 0x363 SWAP2 SWAP1 PUSH2 0x2001 JUMP JUMPDEST PUSH4 0xFFFFFFFF AND PUSH2 0xC6C SWAP1 SWAP2 SWAP1 PUSH4 0xFFFFFFFF AND JUMP JUMPDEST PUSH1 0x60 DUP3 ADD MSTORE JUMPDEST SELFBALANCE DUP2 MSTORE PUSH1 0x0 JUMPDEST DUP3 PUSH1 0xC0 ADD MLOAD MLOAD DUP2 LT ISZERO PUSH2 0x5B9 JUMPI PUSH1 0x0 DUP4 MLOAD PUSH1 0x1 DUP2 GT ISZERO PUSH2 0x39F JUMPI INVALID JUMPDEST EQ ISZERO PUSH2 0x3BE JUMPI DUP3 PUSH1 0xE0 ADD MLOAD DUP3 PUSH1 0x40 ADD MLOAD LT PUSH2 0x3B9 JUMPI PUSH2 0x5B9 JUMP JUMPDEST PUSH2 0x3D2 JUMP JUMPDEST DUP3 PUSH1 0xE0 ADD MLOAD DUP3 PUSH1 0x20 ADD MLOAD LT PUSH2 0x3D2 JUMPI PUSH2 0x5B9 JUMP JUMPDEST DUP3 PUSH1 0xC0 ADD MLOAD DUP2 DUP2 MLOAD DUP2 LT PUSH2 0x3E2 JUMPI INVALID JUMPDEST PUSH1 0x20 MUL PUSH1 0x20 ADD ADD MLOAD DUP3 PUSH1 0xC0 ADD SWAP1 PUSH1 0x2 DUP2 GT ISZERO PUSH2 0x3FA JUMPI INVALID JUMPDEST SWAP1 DUP2 PUSH1 0x2 DUP2 GT ISZERO PUSH2 0x407 JUMPI INVALID JUMPDEST DUP2 MSTORE POP POP PUSH1 0x0 DUP3 PUSH1 0xA0 ADD MLOAD DUP4 PUSH1 0xC0 ADD MLOAD PUSH1 0x2 DUP2 GT ISZERO PUSH2 0x422 JUMPI INVALID JUMPDEST PUSH1 0x3 DUP2 LT PUSH2 0x42C JUMPI INVALID JUMPDEST PUSH1 0x20 MUL ADD MLOAD SWAP1 POP PUSH2 0x43B PUSH2 0x18B4 JUMP JUMPDEST PUSH1 0x0 DUP5 PUSH1 0xC0 ADD MLOAD PUSH1 0x2 DUP2 GT ISZERO PUSH2 0x44D JUMPI INVALID JUMPDEST EQ ISZERO PUSH2 0x47C JUMPI PUSH2 0x475 DUP6 PUSH1 0x60 ADD MLOAD DUP4 DUP2 MLOAD DUP2 LT PUSH2 0x466 JUMPI INVALID JUMPDEST PUSH1 0x20 MUL PUSH1 0x20 ADD ADD MLOAD DUP7 DUP7 PUSH2 0xC9D JUMP JUMPDEST SWAP1 POP PUSH2 0x52B JUMP JUMPDEST PUSH1 0x1 DUP5 PUSH1 0xC0 ADD MLOAD PUSH1 0x2 DUP2 GT ISZERO PUSH2 0x48E JUMPI INVALID JUMPDEST EQ ISZERO PUSH2 0x4B6 JUMPI PUSH2 0x475 DUP6 PUSH1 0x80 ADD MLOAD DUP4 DUP2 MLOAD DUP2 LT PUSH2 0x4A7 JUMPI INVALID JUMPDEST PUSH1 0x20 MUL PUSH1 0x20 ADD ADD MLOAD DUP7 DUP7 PUSH2 0xE1C JUMP JUMPDEST PUSH1 0x2 DUP5 PUSH1 0xC0 ADD MLOAD PUSH1 0x2 DUP2 GT ISZERO PUSH2 0x4C8 JUMPI INVALID JUMPDEST EQ ISZERO PUSH2 0x4F0 JUMPI PUSH2 0x475 DUP6 PUSH1 0xA0 ADD MLOAD DUP4 DUP2 MLOAD DUP2 LT PUSH2 0x4E1 JUMPI INVALID JUMPDEST PUSH1 0x20 MUL PUSH1 0x20 ADD ADD MLOAD DUP7 DUP7 PUSH2 0x114B JUMP JUMPDEST PUSH1 0x40 MLOAD PUSH32 0x8C379A000000000000000000000000000000000000000000000000000000000 DUP2 MSTORE PUSH1 0x4 ADD PUSH2 0x522 SWAP1 PUSH2 0x2307 JUMP JUMPDEST PUSH1 0x40 MLOAD DUP1 SWAP2 SUB SWAP1 REVERT JUMPDEST DUP1 MLOAD PUSH1 0x40 DUP6 ADD MLOAD PUSH2 0x53B SWAP2 PUSH2 0x129D JUMP JUMPDEST PUSH1 0x40 DUP6 ADD MSTORE PUSH1 0x20 DUP1 DUP3 ADD MLOAD SWAP1 DUP6 ADD MLOAD PUSH2 0x553 SWAP2 PUSH2 0x129D JUMP JUMPDEST PUSH1 0x20 DUP6 ADD MSTORE PUSH1 0x40 DUP2 ADD MLOAD DUP5 MLOAD PUSH2 0x568 SWAP2 PUSH2 0x12B9 JUMP JUMPDEST DUP5 MSTORE DUP1 MLOAD PUSH1 0x80 DUP6 ADD MLOAD PUSH2 0x57A SWAP2 PUSH2 0x12B9 JUMP JUMPDEST PUSH1 0x80 DUP6 ADD MSTORE PUSH1 0xA0 DUP5 ADD MLOAD PUSH1 0xC0 DUP6 ADD MLOAD PUSH1 0x2 DUP2 GT ISZERO PUSH2 0x594 JUMPI INVALID JUMPDEST PUSH1 0x3 DUP2 LT PUSH2 0x59E JUMPI INVALID JUMPDEST PUSH1 0x20 MUL ADD DUP1 MLOAD PUSH1 0x1 SWAP1 DUP2 ADD SWAP1 SWAP2 MSTORE SWAP3 SWAP1 SWAP3 ADD SWAP2 POP PUSH2 0x383 SWAP1 POP JUMP JUMPDEST POP PUSH1 0x0 DUP3 MLOAD PUSH1 0x1 DUP2 GT ISZERO PUSH2 0x5C9 JUMPI INVALID JUMPDEST EQ ISZERO PUSH2 0x5FE JUMPI DUP2 PUSH1 0xE0 ADD MLOAD DUP2 PUSH1 0x40 ADD MLOAD LT ISZERO PUSH2 0x5F9 JUMPI PUSH2 0x5F9 PUSH2 0x1C1 DUP4 PUSH1 0x20 ADD MLOAD DUP4 PUSH1 0x40 ADD MLOAD DUP6 PUSH1 0xE0 ADD MLOAD PUSH2 0x12D8 JUMP JUMPDEST PUSH2 0x628 JUMP JUMPDEST DUP2 PUSH1 0xE0 ADD MLOAD DUP2 PUSH1 0x20 ADD MLOAD LT ISZERO PUSH2 0x628 JUMPI PUSH2 0x628 PUSH2 0x1C1 DUP4 PUSH1 0x40 ADD MLOAD DUP4 PUSH1 0x20 ADD MLOAD DUP6 PUSH1 0xE0 ADD MLOAD PUSH2 0x1396 JUMP JUMPDEST DUP1 MLOAD ISZERO DUP1 ISZERO SWAP1 PUSH2 0x652 JUMPI POP PUSH2 0x100 DUP3 ADD MLOAD PUSH20 0xFFFFFFFFFFFFFFFFFFFFFFFFFFFFFFFFFFFFFFFF AND ISZERO ISZERO JUMPDEST ISZERO PUSH2 0x7E1 JUMPI PUSH2 0x100 DUP3 ADD MLOAD PUSH1 0x0 SWAP1 PUSH20 0xFFFFFFFFFFFFFFFFFFFFFFFFFFFFFFFFFFFFFFFF AND PUSH1 0x1 EQ ISZERO PUSH2 0x702 JUMPI PUSH2 0x68E PUSH1 0x40 DUP7 ADD PUSH1 0x20 DUP8 ADD PUSH2 0x1E2D JUMP JUMPDEST PUSH20 0xFFFFFFFFFFFFFFFFFFFFFFFFFFFFFFFFFFFFFFFF AND DUP3 PUSH1 0x0 ADD MLOAD PUSH1 0x40 MLOAD PUSH2 0x6B5 SWAP1 PUSH2 0x21C9 JUMP JUMPDEST PUSH1 0x0 PUSH1 0x40 MLOAD DUP1 DUP4 SUB DUP2 DUP6 DUP8 GAS CALL SWAP3 POP POP POP RETURNDATASIZE DUP1 PUSH1 0x0 DUP2 EQ PUSH2 0x6F2 JUMPI PUSH1 0x40 MLOAD SWAP2 POP PUSH1 0x1F NOT PUSH1 0x3F RETURNDATASIZE ADD AND DUP3 ADD PUSH1 0x40 MSTORE RETURNDATASIZE DUP3 MSTORE RETURNDATASIZE PUSH1 0x0 PUSH1 0x20 DUP5 ADD RETURNDATACOPY PUSH2 0x6F7 JUMP JUMPDEST PUSH1 0x60 SWAP2 POP JUMPDEST POP POP DUP1 SWAP2 POP POP PUSH2 0x7A8 JUMP JUMPDEST PUSH2 0x100 DUP4 ADD MLOAD PUSH20 0xFFFFFFFFFFFFFFFFFFFFFFFFFFFFFFFFFFFFFFFF AND PUSH1 0x2 EQ ISZERO PUSH2 0x733 JUMPI PUSH2 0x68E PUSH1 0x20 DUP7 ADD DUP7 PUSH2 0x1E2D JUMP JUMPDEST DUP3 PUSH2 0x100 ADD MLOAD PUSH20 0xFFFFFFFFFFFFFFFFFFFFFFFFFFFFFFFFFFFFFFFF AND DUP3 PUSH1 0x0 ADD MLOAD PUSH1 0x40 MLOAD PUSH2 0x760 SWAP1 PUSH2 0x21C9 JUMP JUMPDEST PUSH1 0x0 PUSH1 0x40 MLOAD DUP1 DUP4 SUB DUP2 DUP6 DUP8 GAS CALL SWAP3 POP POP POP RETURNDATASIZE DUP1 PUSH1 0x0 DUP2 EQ PUSH2 0x79D JUMPI PUSH1 0x40 MLOAD SWAP2 POP PUSH1 0x1F NOT PUSH1 0x3F RETURNDATASIZE ADD AND DUP3 ADD PUSH1 0x40 MSTORE RETURNDATASIZE DUP3 MSTORE RETURNDATASIZE PUSH1 0x0 PUSH1 0x20 DUP5 ADD RETURNDATACOPY PUSH2 0x7A2 JUMP JUMPDEST PUSH1 0x60 SWAP2 POP JUMPDEST POP SWAP1 SWAP2 POP POP JUMPDEST DUP1 PUSH2 0x7DF JUMPI PUSH1 0x40 MLOAD PUSH32 0x8C379A000000000000000000000000000000000000000000000000000000000 DUP2 MSTORE PUSH1 0x4 ADD PUSH2 0x522 SWAP1 PUSH2 0x233E JUMP JUMPDEST POP JUMPDEST POP PUSH32 0x13C9929E00000000000000000000000000000000000000000000000000000000 SWAP2 POP POP JUMPDEST SWAP2 SWAP1 POP JUMP JUMPDEST PUSH32 0x0 DUP2 JUMP JUMPDEST CALLER PUSH20 0xFFFFFFFFFFFFFFFFFFFFFFFFFFFFFFFFFFFFFFFF PUSH32 0x0 AND EQ PUSH2 0x89A JUMPI PUSH2 0x89A PUSH2 0x1C1 CALLER PUSH32 0x0 PUSH2 0x13CE JUMP JUMPDEST ADDRESS PUSH20 0xFFFFFFFFFFFFFFFFFFFFFFFFFFFFFFFFFFFFFFFF PUSH32 0x0 AND EQ PUSH2 0x904 JUMPI PUSH2 0x904 PUSH2 0x1C1 ADDRESS PUSH32 0x0 PUSH2 0x1404 JUMP JUMPDEST DUP1 PUSH20 0xFFFFFFFFFFFFFFFFFFFFFFFFFFFFFFFFFFFFFFFF AND SELFDESTRUCT JUMPDEST PUSH32 0x0 DUP2 JUMP JUMPDEST PUSH20 0xFFFFFFFFFFFFFFFFFFFFFFFFFFFFFFFFFFFFFFFF DUP2 AND PUSH20 0xEEEEEEEEEEEEEEEEEEEEEEEEEEEEEEEEEEEEEEEE EQ SWAP2 SWAP1 POP JUMP JUMPDEST PUSH1 0x60 PUSH32 0x505FF6A4F24A0AA989A95FFE4C8D435D76FB30DEA162A3E3022E749867722DEB DUP4 DUP4 PUSH1 0x40 MLOAD PUSH1 0x24 ADD PUSH2 0x9A9 SWAP3 SWAP2 SWAP1 PUSH2 0x22E4 JUMP JUMPDEST PUSH1 0x40 DUP1 MLOAD PUSH32 0xFFFFFFFFFFFFFFFFFFFFFFFFFFFFFFFFFFFFFFFFFFFFFFFFFFFFFFFFFFFFFFE0 DUP2 DUP5 SUB ADD DUP2 MSTORE SWAP2 SWAP1 MSTORE PUSH1 0x20 DUP2 ADD DUP1 MLOAD PUSH28 0xFFFFFFFFFFFFFFFFFFFFFFFFFFFFFFFFFFFFFFFFFFFFFFFFFFFFFFFF AND PUSH32 0xFFFFFFFF00000000000000000000000000000000000000000000000000000000 SWAP1 SWAP4 AND SWAP3 SWAP1 SWAP3 OR SWAP1 SWAP2 MSTORE SWAP1 POP JUMPDEST SWAP3 SWAP2 POP POP JUMP JUMPDEST DUP1 MLOAD PUSH1 0x20 DUP3 ADD REVERT JUMPDEST PUSH1 0x0 PUSH2 0xA42 DUP4 PUSH2 0x941 JUMP JUMPDEST ISZERO PUSH2 0xA65 JUMPI POP PUSH20 0xFFFFFFFFFFFFFFFFFFFFFFFFFFFFFFFFFFFFFFFF DUP2 AND BALANCE PUSH2 0xA29 JUMP JUMPDEST PUSH1 0x40 MLOAD PUSH32 0x70A0823100000000000000000000000000000000000000000000000000000000 DUP2 MSTORE PUSH20 0xFFFFFFFFFFFFFFFFFFFFFFFFFFFFFFFFFFFFFFFF DUP5 AND SWAP1 PUSH4 0x70A08231 SWAP1 PUSH2 0xAB7 SWAP1 DUP6 SWAP1 PUSH1 0x4 ADD PUSH2 0x21CC JUMP JUMPDEST PUSH1 0x20 PUSH1 0x40 MLOAD DUP1 DUP4 SUB DUP2 DUP7 DUP1 EXTCODESIZE ISZERO DUP1 ISZERO PUSH2 0xACF JUMPI PUSH1 0x0 DUP1 REVERT JUMPDEST POP GAS STATICCALL ISZERO DUP1 ISZERO PUSH2 0xAE3 JUMPI RETURNDATASIZE PUSH1 0x0 DUP1 RETURNDATACOPY RETURNDATASIZE PUSH1 0x0 REVERT JUMPDEST POP POP POP POP PUSH1 0x40 MLOAD RETURNDATASIZE PUSH1 0x1F NOT PUSH1 0x1F DUP3 ADD AND DUP3 ADD DUP1 PUSH1 0x40 MSTORE POP DUP2 ADD SWAP1 PUSH2 0xB07 SWAP2 SWAP1 PUSH2 0x1E49 JUMP JUMPDEST SWAP4 SWAP3 POP POP POP JUMP JUMPDEST PUSH1 0x0 PUSH32 0x8000000000000000000000000000000000000000000000000000000000000000 DUP1 DUP5 AND EQ ISZERO PUSH2 0xB89 JUMPI PUSH2 0xB82 PUSH8 0xDE0B6B3A7640000 PUSH2 0xB72 PUSH32 0x7FFFFFFFFFFFFFFFFFFFFFFFFFFFFFFFFFFFFFFFFFFFFFFFFFFFFFFFFFFFFFFF DUP7 AND DUP3 PUSH2 0x143A JUMP JUMPDEST DUP5 MUL DUP2 PUSH2 0xB7B JUMPI INVALID JUMPDEST DIV DUP4 PUSH2 0x143A JUMP JUMPDEST SWAP1 POP PUSH2 0xA29 JUMP JUMPDEST POP SWAP1 SWAP2 SWAP1 POP JUMP JUMPDEST PUSH1 0x40 MLOAD PUSH32 0xDD62ED3E00000000000000000000000000000000000000000000000000000000 DUP2 MSTORE DUP2 SWAP1 PUSH20 0xFFFFFFFFFFFFFFFFFFFFFFFFFFFFFFFFFFFFFFFF DUP6 AND SWAP1 PUSH4 0xDD62ED3E SWAP1 PUSH2 0xBE6 SWAP1 ADDRESS SWAP1 DUP8 SWAP1 PUSH1 0x4 ADD PUSH2 0x21ED JUMP JUMPDEST PUSH1 0x20 PUSH1 0x40 MLOAD DUP1 DUP4 SUB DUP2 DUP7 DUP1 EXTCODESIZE ISZERO DUP1 ISZERO PUSH2 0xBFE JUMPI PUSH1 0x0 DUP1 REVERT JUMPDEST POP GAS STATICCALL ISZERO DUP1 ISZERO PUSH2 0xC12 JUMPI RETURNDATASIZE PUSH1 0x0 DUP1 RETURNDATACOPY RETURNDATASIZE PUSH1 0x0 REVERT JUMPDEST POP POP POP POP PUSH1 0x40 MLOAD RETURNDATASIZE PUSH1 0x1F NOT PUSH1 0x1F DUP3 ADD AND DUP3 ADD DUP1 PUSH1 0x40 MSTORE POP DUP2 ADD SWAP1 PUSH2 0xC36 SWAP2 SWAP1 PUSH2 0x1E49 JUMP JUMPDEST LT ISZERO PUSH2 0xC67 JUMPI PUSH2 0xC67 DUP4 DUP4 PUSH32 0xFFFFFFFFFFFFFFFFFFFFFFFFFFFFFFFFFFFFFFFFFFFFFFFFFFFFFFFFFFFFFFFF PUSH2 0x1449 JUMP JUMPDEST POP POP POP JUMP JUMPDEST PUSH1 0x0 DUP3 PUSH2 0xC7B JUMPI POP PUSH1 0x0 PUSH2 0xA29 JUMP JUMPDEST DUP3 DUP3 MUL DUP3 DUP5 DUP3 DUP2 PUSH2 0xC88 JUMPI INVALID JUMPDEST DIV EQ PUSH2 0xB07 JUMPI PUSH2 0xB07 PUSH2 0x1C1 PUSH1 0x1 DUP7 DUP7 PUSH2 0x14F5 JUMP JUMPDEST PUSH2 0xCA5 PUSH2 0x18B4 JUMP JUMPDEST PUSH1 0x0 PUSH2 0xCBD DUP5 DUP5 DUP8 PUSH1 0x20 ADD MLOAD DUP9 PUSH1 0x40 ADD MLOAD PUSH1 0x0 PUSH2 0x1514 JUMP JUMPDEST SWAP1 POP PUSH1 0x0 PUSH1 0x60 PUSH32 0x0 PUSH20 0xFFFFFFFFFFFFFFFFFFFFFFFFFFFFFFFFFFFFFFFF AND PUSH4 0xDF2B2737 PUSH1 0xE0 SHL DUP9 DUP9 PUSH1 0x20 ADD MLOAD DUP10 PUSH1 0x40 ADD MLOAD DUP8 PUSH1 0x40 MLOAD PUSH1 0x24 ADD PUSH2 0xD21 SWAP5 SWAP4 SWAP3 SWAP2 SWAP1 PUSH2 0x239B JUMP JUMPDEST PUSH1 0x40 DUP1 MLOAD PUSH32 0xFFFFFFFFFFFFFFFFFFFFFFFFFFFFFFFFFFFFFFFFFFFFFFFFFFFFFFFFFFFFFFE0 DUP2 DUP5 SUB ADD DUP2 MSTORE SWAP2 DUP2 MSTORE PUSH1 0x20 DUP3 ADD DUP1 MLOAD PUSH28 0xFFFFFFFFFFFFFFFFFFFFFFFFFFFFFFFFFFFFFFFFFFFFFFFFFFFFFFFF AND PUSH32 0xFFFFFFFF00000000000000000000000000000000000000000000000000000000 SWAP1 SWAP5 AND SWAP4 SWAP1 SWAP4 OR SWAP1 SWAP3 MSTORE SWAP1 MLOAD PUSH2 0xDAA SWAP2 SWAP1 PUSH2 0x21AD JUMP JUMPDEST PUSH1 0x0 PUSH1 0x40 MLOAD DUP1 DUP4 SUB DUP2 DUP6 GAS DELEGATECALL SWAP2 POP POP RETURNDATASIZE DUP1 PUSH1 0x0 DUP2 EQ PUSH2 0xDE5 JUMPI PUSH1 0x40 MLOAD SWAP2 POP PUSH1 0x1F NOT PUSH1 0x3F RETURNDATASIZE ADD AND DUP3 ADD PUSH1 0x40 MSTORE RETURNDATASIZE DUP3 MSTORE RETURNDATASIZE PUSH1 0x0 PUSH1 0x20 DUP5 ADD RETURNDATACOPY PUSH2 0xDEA JUMP JUMPDEST PUSH1 0x60 SWAP2 POP JUMPDEST POP SWAP2 POP SWAP2 POP DUP2 ISZERO PUSH2 0xE12 JUMPI DUP1 DUP1 PUSH1 0x20 ADD SWAP1 MLOAD DUP2 ADD SWAP1 PUSH2 0xE09 SWAP2 SWAP1 PUSH2 0x1E49 JUMP JUMPDEST PUSH1 0x20 DUP6 ADD MSTORE DUP3 DUP5 MSTORE JUMPDEST POP POP POP SWAP4 SWAP3 POP POP POP JUMP JUMPDEST PUSH2 0xE24 PUSH2 0x18B4 JUMP JUMPDEST PUSH1 0x0 PUSH2 0xE8E PUSH2 0xE84 DUP6 DUP6 DUP9 PUSH1 0x0 ADD MLOAD PUSH1 0x60 ADD MLOAD PUSH16 0xFFFFFFFFFFFFFFFFFFFFFFFFFFFFFFFF AND DUP10 PUSH1 0x0 ADD MLOAD PUSH1 0x40 ADD MLOAD PUSH16 0xFFFFFFFFFFFFFFFFFFFFFFFFFFFFFFFF AND DUP11 PUSH1 0x0 ADD MLOAD PUSH1 0x80 ADD MLOAD PUSH16 0xFFFFFFFFFFFFFFFFFFFFFFFFFFFFFFFF AND PUSH2 0x1514 JUMP JUMPDEST DUP7 PUSH1 0x40 ADD MLOAD PUSH2 0x143A JUMP JUMPDEST SWAP1 POP DUP3 PUSH1 0x60 ADD MLOAD DUP4 PUSH1 0x0 ADD MLOAD LT ISZERO PUSH2 0xFA5 JUMPI DUP5 MLOAD PUSH1 0x40 MLOAD PUSH32 0xDD11D22500000000000000000000000000000000000000000000000000000000 DUP2 MSTORE PUSH1 0x0 SWAP2 PUSH20 0xFFFFFFFFFFFFFFFFFFFFFFFFFFFFFFFFFFFFFFFF PUSH32 0x0 AND SWAP2 PUSH4 0xDD11D225 SWAP2 PUSH2 0xF15 SWAP2 PUSH1 0x4 ADD PUSH2 0x2407 JUMP JUMPDEST PUSH1 0x20 PUSH1 0x40 MLOAD DUP1 DUP4 SUB DUP2 DUP7 DUP1 EXTCODESIZE ISZERO DUP1 ISZERO PUSH2 0xF2D JUMPI PUSH1 0x0 DUP1 REVERT JUMPDEST POP GAS STATICCALL ISZERO DUP1 ISZERO PUSH2 0xF41 JUMPI RETURNDATASIZE PUSH1 0x0 DUP1 RETURNDATACOPY RETURNDATASIZE PUSH1 0x0 REVERT JUMPDEST POP POP POP POP PUSH1 0x40 MLOAD RETURNDATASIZE PUSH1 0x1F NOT PUSH1 0x1F DUP3 ADD AND DUP3 ADD DUP1 PUSH1 0x40 MSTORE POP DUP2 ADD SWAP1 PUSH2 0xF65 SWAP2 SWAP1 PUSH2 0x1E49 JUMP JUMPDEST SWAP1 POP PUSH32 0xB5D7E18F9BAD5B40D7CF6BB45142DFBAEF62527179FF5C249C6D6CC00176224D DUP2 PUSH1 0x40 MLOAD PUSH2 0xF96 SWAP2 SWAP1 PUSH2 0x2268 JUMP JUMPDEST PUSH1 0x40 MLOAD DUP1 SWAP2 SUB SWAP1 LOG1 POP POP PUSH2 0xB07 JUMP JUMPDEST PUSH32 0x0 PUSH20 0xFFFFFFFFFFFFFFFFFFFFFFFFFFFFFFFFFFFFFFFF AND PUSH4 0xF6274F66 DUP5 PUSH1 0x60 ADD MLOAD DUP8 PUSH1 0x0 ADD MLOAD DUP9 PUSH1 0x20 ADD MLOAD PUSH2 0xFF9 DUP7 PUSH2 0x15AA JUMP JUMPDEST PUSH1 0x40 MLOAD DUP6 PUSH4 0xFFFFFFFF AND PUSH1 0xE0 SHL DUP2 MSTORE PUSH1 0x4 ADD PUSH2 0x1017 SWAP4 SWAP3 SWAP2 SWAP1 PUSH2 0x2416 JUMP JUMPDEST PUSH1 0x40 DUP1 MLOAD DUP1 DUP4 SUB DUP2 DUP6 DUP9 DUP1 EXTCODESIZE ISZERO DUP1 ISZERO PUSH2 0x102F JUMPI PUSH1 0x0 DUP1 REVERT JUMPDEST POP GAS CALL SWAP4 POP POP POP POP DUP1 ISZERO PUSH2 0x107E JUMPI POP PUSH1 0x40 DUP1 MLOAD PUSH1 0x1F RETURNDATASIZE SWAP1 DUP2 ADD PUSH32 0xFFFFFFFFFFFFFFFFFFFFFFFFFFFFFFFFFFFFFFFFFFFFFFFFFFFFFFFFFFFFFFE0 AND DUP3 ADD SWAP1 SWAP3 MSTORE PUSH2 0x107B SWAP2 DUP2 ADD SWAP1 PUSH2 0x1FC8 JUMP JUMPDEST PUSH1 0x1 JUMPDEST PUSH2 0x1087 JUMPI PUSH2 0x1143 JUMP JUMPDEST DUP7 MLOAD PUSH1 0x80 ADD MLOAD PUSH16 0xFFFFFFFFFFFFFFFFFFFFFFFFFFFFFFFF AND ISZERO PUSH2 0x111C JUMPI PUSH2 0x1119 PUSH2 0x1100 PUSH2 0x10FB DUP5 PUSH16 0xFFFFFFFFFFFFFFFFFFFFFFFFFFFFFFFF AND DUP11 PUSH1 0x0 ADD MLOAD PUSH1 0x60 ADD MLOAD PUSH16 0xFFFFFFFFFFFFFFFFFFFFFFFFFFFFFFFF AND DUP12 PUSH1 0x0 ADD MLOAD PUSH1 0x80 ADD MLOAD PUSH16 0xFFFFFFFFFFFFFFFFFFFFFFFFFFFFFFFF AND PUSH2 0x15D6 JUMP JUMPDEST PUSH2 0x15AA JUMP JUMPDEST PUSH16 0xFFFFFFFFFFFFFFFFFFFFFFFFFFFFFFFF DUP5 AND SWAP1 PUSH2 0x15F4 JUMP JUMPDEST SWAP2 POP JUMPDEST PUSH16 0xFFFFFFFFFFFFFFFFFFFFFFFFFFFFFFFF SWAP2 DUP3 AND DUP5 MSTORE AND PUSH1 0x20 DUP4 ADD MSTORE PUSH1 0x60 DUP4 ADD MLOAD PUSH1 0x40 DUP4 ADD MSTORE JUMPDEST POP SWAP4 SWAP3 POP POP POP JUMP JUMPDEST PUSH2 0x1153 PUSH2 0x18B4 JUMP JUMPDEST PUSH1 0x0 PUSH2 0x119A PUSH2 0xE84 DUP6 DUP6 DUP9 PUSH1 0x0 ADD MLOAD PUSH1 0x60 ADD MLOAD PUSH16 0xFFFFFFFFFFFFFFFFFFFFFFFFFFFFFFFF AND DUP10 PUSH1 0x0 ADD MLOAD PUSH1 0x40 ADD MLOAD PUSH16 0xFFFFFFFFFFFFFFFFFFFFFFFFFFFFFFFF AND PUSH1 0x0 PUSH2 0x1514 JUMP JUMPDEST SWAP1 POP PUSH32 0x0 PUSH20 0xFFFFFFFFFFFFFFFFFFFFFFFFFFFFFFFFFFFFFFFF AND PUSH4 0xAA77476C DUP7 PUSH1 0x0 ADD MLOAD DUP8 PUSH1 0x20 ADD MLOAD PUSH2 0x11EB DUP6 PUSH2 0x15AA JUMP JUMPDEST PUSH1 0x40 MLOAD DUP5 PUSH4 0xFFFFFFFF AND PUSH1 0xE0 SHL DUP2 MSTORE PUSH1 0x4 ADD PUSH2 0x1209 SWAP4 SWAP3 SWAP2 SWAP1 PUSH2 0x2454 JUMP JUMPDEST PUSH1 0x40 DUP1 MLOAD DUP1 DUP4 SUB DUP2 PUSH1 0x0 DUP8 DUP1 EXTCODESIZE ISZERO DUP1 ISZERO PUSH2 0x1222 JUMPI PUSH1 0x0 DUP1 REVERT JUMPDEST POP GAS CALL SWAP3 POP POP POP DUP1 ISZERO PUSH2 0x1270 JUMPI POP PUSH1 0x40 DUP1 MLOAD PUSH1 0x1F RETURNDATASIZE SWAP1 DUP2 ADD PUSH32 0xFFFFFFFFFFFFFFFFFFFFFFFFFFFFFFFFFFFFFFFFFFFFFFFFFFFFFFFFFFFFFFE0 AND DUP3 ADD SWAP1 SWAP3 MSTORE PUSH2 0x126D SWAP2 DUP2 ADD SWAP1 PUSH2 0x1FC8 JUMP JUMPDEST PUSH1 0x1 JUMPDEST PUSH2 0x1279 JUMPI PUSH2 0x1143 JUMP JUMPDEST PUSH16 0xFFFFFFFFFFFFFFFFFFFFFFFFFFFFFFFF SWAP2 DUP3 AND DUP5 MSTORE AND PUSH1 0x20 DUP4 ADD MSTORE POP SWAP4 SWAP3 POP POP POP JUMP JUMPDEST PUSH1 0x0 DUP3 DUP3 ADD DUP4 DUP2 LT ISZERO PUSH2 0xB07 JUMPI PUSH2 0xB07 PUSH2 0x1C1 PUSH1 0x0 DUP7 DUP7 PUSH2 0x14F5 JUMP JUMPDEST PUSH1 0x0 DUP3 DUP3 GT ISZERO PUSH2 0x12D2 JUMPI PUSH2 0x12D2 PUSH2 0x1C1 PUSH1 0x2 DUP6 DUP6 PUSH2 0x14F5 JUMP JUMPDEST POP SWAP1 SUB SWAP1 JUMP JUMPDEST PUSH1 0x60 PUSH32 0xADC35CA636CD9F46B974D5BEC4DF8AF095D0AE177EC6043620AF588C03BDC616 DUP5 DUP5 DUP5 PUSH1 0x40 MLOAD PUSH1 0x24 ADD PUSH2 0x1310 SWAP4 SWAP3 SWAP2 SWAP1 PUSH2 0x223A JUMP JUMPDEST PUSH1 0x40 DUP1 MLOAD PUSH32 0xFFFFFFFFFFFFFFFFFFFFFFFFFFFFFFFFFFFFFFFFFFFFFFFFFFFFFFFFFFFFFFE0 DUP2 DUP5 SUB ADD DUP2 MSTORE SWAP2 SWAP1 MSTORE PUSH1 0x20 DUP2 ADD DUP1 MLOAD PUSH28 0xFFFFFFFFFFFFFFFFFFFFFFFFFFFFFFFFFFFFFFFFFFFFFFFFFFFFFFFF AND PUSH32 0xFFFFFFFF00000000000000000000000000000000000000000000000000000000 SWAP1 SWAP4 AND SWAP3 SWAP1 SWAP3 OR SWAP1 SWAP2 MSTORE SWAP1 POP SWAP4 SWAP3 POP POP POP JUMP JUMPDEST PUSH1 0x60 PUSH32 0x498DF3AE522ACADBF67E6AA5FDE156A5B74336950CD271175E7336907DF120E3 DUP5 DUP5 DUP5 PUSH1 0x40 MLOAD PUSH1 0x24 ADD PUSH2 0x1310 SWAP4 SWAP3 SWAP2 SWAP1 PUSH2 0x223A JUMP JUMPDEST PUSH1 0x60 PUSH32 0x5CEC653B364CCA3880AFA73CEFF506D0651D11D26ABBBE4A56460AA933B21B08 DUP4 DUP4 PUSH1 0x40 MLOAD PUSH1 0x24 ADD PUSH2 0x9A9 SWAP3 SWAP2 SWAP1 PUSH2 0x21ED JUMP JUMPDEST PUSH1 0x60 PUSH32 0xB5CF2CD09307D6C717473134BADBB9761C2C97D7565566C2A71EBA6CD6FC514D DUP4 DUP4 PUSH1 0x40 MLOAD PUSH1 0x24 ADD PUSH2 0x9A9 SWAP3 SWAP2 SWAP1 PUSH2 0x21ED JUMP JUMPDEST PUSH1 0x0 DUP2 DUP4 LT PUSH2 0xB89 JUMPI DUP2 PUSH2 0xB07 JUMP JUMPDEST PUSH1 0x60 PUSH4 0x95EA7B3 PUSH1 0xE0 SHL DUP4 DUP4 PUSH1 0x40 MLOAD PUSH1 0x24 ADD PUSH2 0x1466 SWAP3 SWAP2 SWAP1 PUSH2 0x2214 JUMP JUMPDEST PUSH1 0x40 DUP1 MLOAD PUSH32 0xFFFFFFFFFFFFFFFFFFFFFFFFFFFFFFFFFFFFFFFFFFFFFFFFFFFFFFFFFFFFFFE0 DUP2 DUP5 SUB ADD DUP2 MSTORE SWAP2 SWAP1 MSTORE PUSH1 0x20 DUP2 ADD DUP1 MLOAD PUSH28 0xFFFFFFFFFFFFFFFFFFFFFFFFFFFFFFFFFFFFFFFFFFFFFFFFFFFFFFFF AND PUSH32 0xFFFFFFFF00000000000000000000000000000000000000000000000000000000 SWAP1 SWAP4 AND SWAP3 SWAP1 SWAP3 OR SWAP1 SWAP2 MSTORE SWAP1 POP PUSH2 0x14EF DUP5 DUP3 PUSH2 0x1649 JUMP JUMPDEST POP POP POP POP JUMP JUMPDEST PUSH1 0x60 PUSH4 0xE946C1BB PUSH1 0xE0 SHL DUP5 DUP5 DUP5 PUSH1 0x40 MLOAD PUSH1 0x24 ADD PUSH2 0x1310 SWAP4 SWAP3 SWAP2 SWAP1 PUSH2 0x229E JUMP JUMPDEST PUSH1 0x0 DUP1 DUP7 MLOAD PUSH1 0x1 DUP2 GT ISZERO PUSH2 0x1524 JUMPI INVALID JUMPDEST EQ ISZERO PUSH2 0x1561 JUMPI PUSH1 0x40 DUP6 ADD MLOAD PUSH1 0xE0 DUP8 ADD MLOAD PUSH2 0x153D SWAP2 PUSH2 0x12B9 JUMP JUMPDEST SWAP1 POP DUP2 ISZERO PUSH2 0x155C JUMPI PUSH2 0x1559 DUP2 PUSH2 0x1553 DUP7 DUP6 PUSH2 0x129D JUMP JUMPDEST DUP7 PUSH2 0x16E3 JUMP JUMPDEST SWAP1 POP JUMPDEST PUSH2 0x1589 JUMP JUMPDEST PUSH2 0x1586 PUSH2 0x157F DUP7 PUSH1 0x20 ADD MLOAD DUP9 PUSH1 0xE0 ADD MLOAD PUSH2 0x12B9 SWAP1 SWAP2 SWAP1 PUSH4 0xFFFFFFFF AND JUMP JUMPDEST DUP5 DUP7 PUSH2 0x16E3 JUMP JUMPDEST SWAP1 POP JUMPDEST PUSH2 0x15A0 PUSH2 0x1596 DUP3 DUP7 PUSH2 0x143A JUMP JUMPDEST DUP7 PUSH1 0x80 ADD MLOAD PUSH2 0x143A JUMP JUMPDEST SWAP7 SWAP6 POP POP POP POP POP POP JUMP JUMPDEST PUSH1 0x0 PUSH16 0xFFFFFFFFFFFFFFFFFFFFFFFFFFFFFFFF DUP3 GT ISZERO PUSH2 0x15D2 JUMPI PUSH2 0x15D2 PUSH2 0x1C1 PUSH1 0x3 DUP5 PUSH2 0x1707 JUMP JUMPDEST POP SWAP1 JUMP JUMPDEST PUSH1 0x0 PUSH2 0x15EC DUP4 PUSH2 0x15E6 DUP7 DUP6 PUSH2 0xC6C JUMP JUMPDEST SWAP1 PUSH2 0x1724 JUMP JUMPDEST SWAP5 SWAP4 POP POP POP POP JUMP JUMPDEST PUSH1 0x0 DUP3 DUP3 ADD PUSH16 0xFFFFFFFFFFFFFFFFFFFFFFFFFFFFFFFF DUP1 DUP6 AND SWAP1 DUP3 AND LT ISZERO PUSH2 0xB07 JUMPI PUSH2 0xB07 PUSH2 0x1C1 PUSH1 0x0 DUP7 PUSH16 0xFFFFFFFFFFFFFFFFFFFFFFFFFFFFFFFF AND DUP7 PUSH16 0xFFFFFFFFFFFFFFFFFFFFFFFFFFFFFFFF AND PUSH2 0x14F5 JUMP JUMPDEST PUSH1 0x0 PUSH1 0x60 DUP4 PUSH20 0xFFFFFFFFFFFFFFFFFFFFFFFFFFFFFFFFFFFFFFFF AND DUP4 PUSH1 0x40 MLOAD PUSH2 0x1672 SWAP2 SWAP1 PUSH2 0x21AD JUMP JUMPDEST PUSH1 0x0 PUSH1 0x40 MLOAD DUP1 DUP4 SUB DUP2 PUSH1 0x0 DUP7 GAS CALL SWAP2 POP POP RETURNDATASIZE DUP1 PUSH1 0x0 DUP2 EQ PUSH2 0x16AF JUMPI PUSH1 0x40 MLOAD SWAP2 POP PUSH1 0x1F NOT PUSH1 0x3F RETURNDATASIZE ADD AND DUP3 ADD PUSH1 0x40 MSTORE RETURNDATASIZE DUP3 MSTORE RETURNDATASIZE PUSH1 0x0 PUSH1 0x20 DUP5 ADD RETURNDATACOPY PUSH2 0x16B4 JUMP JUMPDEST PUSH1 0x60 SWAP2 POP JUMPDEST POP SWAP2 POP SWAP2 POP DUP2 DUP1 ISZERO PUSH2 0x16CA JUMPI POP PUSH2 0x16CA DUP2 PUSH2 0x174E JUMP JUMPDEST ISZERO PUSH2 0x16D6 JUMPI POP POP PUSH2 0x16DF JUMP JUMPDEST PUSH2 0x14EF DUP2 PUSH2 0xA2F JUMP JUMPDEST POP POP JUMP JUMPDEST PUSH1 0x0 PUSH2 0x15EC DUP4 PUSH2 0x15E6 PUSH2 0x16F7 DUP3 PUSH1 0x1 PUSH2 0x12B9 JUMP JUMPDEST PUSH2 0x1701 DUP9 DUP8 PUSH2 0xC6C JUMP JUMPDEST SWAP1 PUSH2 0x129D JUMP JUMPDEST PUSH1 0x60 PUSH4 0xC996AF7B PUSH1 0xE0 SHL DUP4 DUP4 PUSH1 0x40 MLOAD PUSH1 0x24 ADD PUSH2 0x9A9 SWAP3 SWAP2 SWAP1 PUSH2 0x22BF JUMP JUMPDEST PUSH1 0x0 DUP2 PUSH2 0x173A JUMPI PUSH2 0x173A PUSH2 0x1C1 PUSH1 0x3 DUP6 DUP6 PUSH2 0x14F5 JUMP JUMPDEST PUSH1 0x0 DUP3 DUP5 DUP2 PUSH2 0x1745 JUMPI INVALID JUMPDEST DIV SWAP5 SWAP4 POP POP POP POP JUMP JUMPDEST PUSH1 0x0 DUP2 MLOAD PUSH1 0x0 EQ ISZERO PUSH2 0x1762 JUMPI POP PUSH1 0x1 PUSH2 0x807 JUMP JUMPDEST PUSH1 0x20 DUP3 MLOAD LT PUSH2 0x807 JUMPI PUSH1 0x0 PUSH2 0x1778 DUP4 PUSH1 0x0 PUSH2 0x1793 JUMP JUMPDEST SWAP1 POP DUP1 PUSH1 0x1 EQ ISZERO PUSH2 0x178D JUMPI PUSH1 0x1 SWAP2 POP POP PUSH2 0x807 JUMP JUMPDEST POP SWAP2 SWAP1 POP JUMP JUMPDEST PUSH1 0x0 PUSH2 0xB07 DUP4 DUP4 PUSH1 0x0 DUP2 PUSH1 0x20 ADD DUP4 MLOAD LT ISZERO PUSH2 0x17BB JUMPI PUSH2 0x17BB PUSH2 0x1C1 PUSH1 0x5 DUP6 MLOAD DUP6 PUSH1 0x20 ADD PUSH2 0x17C4 JUMP JUMPDEST POP ADD PUSH1 0x20 ADD MLOAD SWAP1 JUMP JUMPDEST PUSH1 0x60 PUSH4 0x28006595 PUSH1 0xE0 SHL DUP5 DUP5 DUP5 PUSH1 0x40 MLOAD PUSH1 0x24 ADD PUSH2 0x1310 SWAP4 SWAP3 SWAP2 SWAP1 PUSH2 0x22D6 JUMP JUMPDEST PUSH1 0x40 DUP1 MLOAD PUSH2 0x120 DUP2 ADD SWAP1 SWAP2 MSTORE DUP1 PUSH1 0x0 DUP2 MSTORE PUSH1 0x20 ADD PUSH1 0x0 PUSH20 0xFFFFFFFFFFFFFFFFFFFFFFFFFFFFFFFFFFFFFFFF AND DUP2 MSTORE PUSH1 0x20 ADD PUSH1 0x0 PUSH20 0xFFFFFFFFFFFFFFFFFFFFFFFFFFFFFFFFFFFFFFFF AND DUP2 MSTORE PUSH1 0x20 ADD PUSH1 0x60 DUP2 MSTORE PUSH1 0x20 ADD PUSH1 0x60 DUP2 MSTORE PUSH1 0x20 ADD PUSH1 0x60 DUP2 MSTORE PUSH1 0x20 ADD PUSH1 0x60 DUP2 MSTORE PUSH1 0x20 ADD PUSH1 0x0 DUP2 MSTORE PUSH1 0x20 ADD PUSH1 0x0 PUSH20 0xFFFFFFFFFFFFFFFFFFFFFFFFFFFFFFFFFFFFFFFF AND DUP2 MSTORE POP SWAP1 JUMP JUMPDEST PUSH1 0x40 MLOAD DUP1 PUSH1 0xE0 ADD PUSH1 0x40 MSTORE DUP1 PUSH1 0x0 DUP2 MSTORE PUSH1 0x20 ADD PUSH1 0x0 DUP2 MSTORE PUSH1 0x20 ADD PUSH1 0x0 DUP2 MSTORE PUSH1 0x20 ADD PUSH1 0x0 DUP2 MSTORE PUSH1 0x20 ADD PUSH1 0x0 DUP2 MSTORE PUSH1 0x20 ADD PUSH2 0x18A8 PUSH2 0x18D5 JUMP JUMPDEST DUP2 MSTORE PUSH1 0x20 ADD PUSH1 0x0 SWAP1 MSTORE SWAP1 JUMP JUMPDEST PUSH1 0x40 MLOAD DUP1 PUSH1 0x60 ADD PUSH1 0x40 MSTORE DUP1 PUSH1 0x0 DUP2 MSTORE PUSH1 0x20 ADD PUSH1 0x0 DUP2 MSTORE PUSH1 0x20 ADD PUSH1 0x0 DUP2 MSTORE POP SWAP1 JUMP JUMPDEST PUSH1 0x40 MLOAD DUP1 PUSH1 0x60 ADD PUSH1 0x40 MSTORE DUP1 PUSH1 0x3 SWAP1 PUSH1 0x20 DUP3 MUL DUP1 CALLDATASIZE DUP4 CALLDATACOPY POP SWAP2 SWAP3 SWAP2 POP POP JUMP JUMPDEST DUP1 CALLDATALOAD PUSH2 0xA29 DUP2 PUSH2 0x260A JUMP JUMPDEST PUSH1 0x0 DUP3 PUSH1 0x1F DUP4 ADD SLT PUSH2 0x190E JUMPI DUP1 DUP2 REVERT JUMPDEST DUP2 CALLDATALOAD PUSH2 0x1921 PUSH2 0x191C DUP3 PUSH2 0x25B1 JUMP JUMPDEST PUSH2 0x258A JUMP JUMPDEST DUP2 DUP2 MSTORE SWAP2 POP PUSH1 0x20 DUP1 DUP4 ADD SWAP1 DUP5 DUP2 ADD DUP2 DUP5 MUL DUP7 ADD DUP3 ADD DUP8 LT ISZERO PUSH2 0x1942 JUMPI PUSH1 0x0 DUP1 REVERT JUMPDEST PUSH1 0x0 DUP1 JUMPDEST DUP6 DUP2 LT ISZERO PUSH2 0x196E JUMPI DUP3 CALLDATALOAD PUSH1 0x3 DUP2 LT PUSH2 0x195C JUMPI DUP3 DUP4 REVERT JUMPDEST DUP6 MSTORE SWAP4 DUP4 ADD SWAP4 SWAP2 DUP4 ADD SWAP2 PUSH1 0x1 ADD PUSH2 0x1946 JUMP JUMPDEST POP POP POP POP POP POP SWAP3 SWAP2 POP POP JUMP JUMPDEST PUSH1 0x0 PUSH1 0x1F DUP4 DUP2 DUP5 ADD SLT PUSH2 0x198B JUMPI DUP2 DUP3 REVERT JUMPDEST DUP3 CALLDATALOAD PUSH2 0x1999 PUSH2 0x191C DUP3 PUSH2 0x25B1 JUMP JUMPDEST DUP2 DUP2 MSTORE SWAP3 POP PUSH1 0x20 DUP1 DUP5 ADD SWAP1 DUP6 DUP2 ADD PUSH1 0x0 JUMPDEST DUP5 DUP2 LT ISZERO PUSH2 0x196E JUMPI DUP2 CALLDATALOAD DUP9 ADD PUSH1 0x80 PUSH32 0xFFFFFFFFFFFFFFFFFFFFFFFFFFFFFFFFFFFFFFFFFFFFFFFFFFFFFFFFFFFFFFE0 DUP2 DUP2 DUP5 DUP15 SUB ADD SLT ISZERO PUSH2 0x19EA JUMPI PUSH1 0x0 DUP1 REVERT JUMPDEST PUSH2 0x19F3 DUP3 PUSH2 0x258A JUMP JUMPDEST DUP4 DUP8 ADD CALLDATALOAD DUP2 MSTORE PUSH1 0x40 DUP1 DUP6 ADD CALLDATALOAD DUP3 DUP10 ADD MSTORE PUSH1 0x60 DUP1 DUP7 ADD CALLDATALOAD DUP3 DUP5 ADD MSTORE SWAP4 DUP6 ADD CALLDATALOAD SWAP4 PUSH8 0xFFFFFFFFFFFFFFFF DUP1 DUP7 GT ISZERO PUSH2 0x1A28 JUMPI PUSH1 0x0 DUP1 REVERT JUMPDEST DUP6 DUP8 ADD SWAP7 POP DUP16 PUSH1 0x3F DUP9 ADD SLT PUSH2 0x1A3C JUMPI PUSH1 0x0 DUP1 REVERT JUMPDEST DUP10 DUP8 ADD CALLDATALOAD SWAP6 POP DUP1 DUP7 GT ISZERO PUSH2 0x1A4F JUMPI PUSH1 0x0 DUP1 REVERT JUMPDEST POP PUSH2 0x1A5F DUP10 DUP6 DUP15 DUP9 ADD AND ADD PUSH2 0x258A JUMP JUMPDEST SWAP4 POP DUP5 DUP5 MSTORE DUP15 DUP3 DUP7 DUP9 ADD ADD GT ISZERO PUSH2 0x1A75 JUMPI PUSH1 0x0 DUP1 REVERT JUMPDEST DUP5 DUP3 DUP8 ADD DUP11 DUP7 ADD CALLDATACOPY PUSH1 0x0 SWAP5 DUP5 ADD DUP10 ADD SWAP5 SWAP1 SWAP5 MSTORE POP SWAP2 DUP3 ADD MSTORE DUP6 MSTORE POP SWAP3 DUP3 ADD SWAP3 SWAP1 DUP3 ADD SWAP1 PUSH1 0x1 ADD PUSH2 0x19AA JUMP JUMPDEST PUSH1 0x0 DUP3 PUSH1 0x1F DUP4 ADD SLT PUSH2 0x1AB0 JUMPI DUP1 DUP2 REVERT JUMPDEST DUP2 CALLDATALOAD PUSH2 0x1ABE PUSH2 0x191C DUP3 PUSH2 0x25B1 JUMP JUMPDEST DUP2 DUP2 MSTORE SWAP2 POP PUSH1 0x20 DUP1 DUP4 ADD SWAP1 DUP5 DUP2 ADD PUSH2 0x220 DUP1 DUP6 MUL DUP8 ADD DUP4 ADD DUP9 LT ISZERO PUSH2 0x1AE2 JUMPI PUSH1 0x0 DUP1 REVERT JUMPDEST PUSH1 0x0 DUP1 JUMPDEST DUP7 DUP2 LT ISZERO PUSH2 0x1B41 JUMPI DUP3 DUP5 DUP12 SUB SLT ISZERO PUSH2 0x1AFC JUMPI DUP2 DUP3 REVERT JUMPDEST PUSH2 0x1B06 PUSH1 0x60 PUSH2 0x258A JUMP JUMPDEST PUSH2 0x1B10 DUP12 DUP7 PUSH2 0x1CBA JUMP JUMPDEST DUP2 MSTORE PUSH2 0x1B20 DUP12 PUSH2 0x180 DUP8 ADD PUSH2 0x1DA7 JUMP JUMPDEST DUP2 DUP8 ADD MSTORE PUSH2 0x200 DUP6 ADD CALLDATALOAD PUSH1 0x40 DUP3 ADD MSTORE DUP7 MSTORE SWAP5 DUP5 ADD SWAP5 SWAP3 DUP3 ADD SWAP3 PUSH1 0x1 ADD PUSH2 0x1AE6 JUMP JUMPDEST POP POP POP POP POP POP POP SWAP3 SWAP2 POP POP JUMP JUMPDEST PUSH1 0x0 DUP3 PUSH1 0x1F DUP4 ADD SLT PUSH2 0x1B5E JUMPI DUP1 DUP2 REVERT JUMPDEST DUP2 CALLDATALOAD PUSH2 0x1B6C PUSH2 0x191C DUP3 PUSH2 0x25B1 JUMP JUMPDEST DUP2 DUP2 MSTORE SWAP2 POP PUSH1 0x20 DUP1 DUP4 ADD SWAP1 DUP5 DUP2 ADD PUSH2 0x1E0 DUP1 DUP6 MUL DUP8 ADD DUP4 ADD DUP9 LT ISZERO PUSH2 0x1B90 JUMPI PUSH1 0x0 DUP1 REVERT JUMPDEST PUSH1 0x0 JUMPDEST DUP6 DUP2 LT ISZERO PUSH2 0x196E JUMPI DUP3 DUP10 SUB DUP3 DUP2 SLT ISZERO PUSH2 0x1BAB JUMPI PUSH1 0x0 DUP1 REVERT JUMPDEST PUSH1 0x60 PUSH2 0x1BB6 DUP2 PUSH2 0x258A JUMP JUMPDEST PUSH2 0x140 DUP1 DUP5 SLT ISZERO PUSH2 0x1BC6 JUMPI PUSH1 0x0 DUP1 REVERT JUMPDEST PUSH2 0x1BCF DUP2 PUSH2 0x258A JUMP JUMPDEST SWAP4 POP PUSH2 0x1BDB DUP14 DUP9 PUSH2 0x18F3 JUMP JUMPDEST DUP5 MSTORE PUSH2 0x1BE9 DUP14 DUP10 DUP10 ADD PUSH2 0x18F3 JUMP JUMPDEST DUP9 DUP6 ADD MSTORE PUSH1 0x40 PUSH2 0x1BFB DUP15 DUP3 DUP11 ADD PUSH2 0x1E0A JUMP JUMPDEST DUP2 DUP7 ADD MSTORE PUSH2 0x1C0B DUP15 DUP6 DUP11 ADD PUSH2 0x1E0A JUMP JUMPDEST DUP5 DUP7 ADD MSTORE PUSH1 0x80 SWAP4 POP PUSH2 0x1C1F DUP15 DUP6 DUP11 ADD PUSH2 0x18F3 JUMP JUMPDEST DUP5 DUP7 ADD MSTORE PUSH1 0xA0 SWAP4 POP PUSH2 0x1C33 DUP15 DUP6 DUP11 ADD PUSH2 0x18F3 JUMP JUMPDEST DUP5 DUP7 ADD MSTORE PUSH1 0xC0 SWAP4 POP PUSH2 0x1C47 DUP15 DUP6 DUP11 ADD PUSH2 0x18F3 JUMP JUMPDEST DUP5 DUP7 ADD MSTORE PUSH1 0xE0 SWAP4 POP DUP4 DUP9 ADD CALLDATALOAD DUP5 DUP7 ADD MSTORE PUSH2 0x100 SWAP4 POP PUSH2 0x1C68 DUP15 DUP6 DUP11 ADD PUSH2 0x1E15 JUMP JUMPDEST DUP5 DUP7 ADD MSTORE PUSH2 0x120 SWAP4 POP DUP4 DUP9 ADD CALLDATALOAD DUP5 DUP7 ADD MSTORE DUP5 DUP4 MSTORE PUSH2 0x1C88 DUP15 DUP4 DUP11 ADD PUSH2 0x1DA7 JUMP JUMPDEST DUP4 DUP11 ADD MSTORE PUSH2 0x1C0 DUP9 ADD CALLDATALOAD SWAP1 DUP4 ADD MSTORE POP DUP8 MSTORE POP POP SWAP4 DUP4 ADD SWAP4 SWAP2 DUP2 ADD SWAP2 PUSH1 0x1 ADD PUSH2 0x1B93 JUMP JUMPDEST DUP1 CALLDATALOAD PUSH1 0x2 DUP2 LT PUSH2 0xA29 JUMPI PUSH1 0x0 DUP1 REVERT JUMPDEST PUSH1 0x0 PUSH2 0x180 DUP1 DUP4 DUP6 SUB SLT ISZERO PUSH2 0x1CCD JUMPI DUP2 DUP3 REVERT JUMPDEST PUSH2 0x1CD6 DUP2 PUSH2 0x258A JUMP JUMPDEST SWAP2 POP POP PUSH2 0x1CE3 DUP4 DUP4 PUSH2 0x18F3 JUMP JUMPDEST DUP2 MSTORE PUSH2 0x1CF2 DUP4 PUSH1 0x20 DUP5 ADD PUSH2 0x18F3 JUMP JUMPDEST PUSH1 0x20 DUP3 ADD MSTORE PUSH2 0x1D04 DUP4 PUSH1 0x40 DUP5 ADD PUSH2 0x1E0A JUMP JUMPDEST PUSH1 0x40 DUP3 ADD MSTORE PUSH2 0x1D16 DUP4 PUSH1 0x60 DUP5 ADD PUSH2 0x1E0A JUMP JUMPDEST PUSH1 0x60 DUP3 ADD MSTORE PUSH2 0x1D28 DUP4 PUSH1 0x80 DUP5 ADD PUSH2 0x1E0A JUMP JUMPDEST PUSH1 0x80 DUP3 ADD MSTORE PUSH2 0x1D3A DUP4 PUSH1 0xA0 DUP5 ADD PUSH2 0x18F3 JUMP JUMPDEST PUSH1 0xA0 DUP3 ADD MSTORE PUSH2 0x1D4C DUP4 PUSH1 0xC0 DUP5 ADD PUSH2 0x18F3 JUMP JUMPDEST PUSH1 0xC0 DUP3 ADD MSTORE PUSH2 0x1D5E DUP4 PUSH1 0xE0 DUP5 ADD PUSH2 0x18F3 JUMP JUMPDEST PUSH1 0xE0 DUP3 ADD MSTORE PUSH2 0x100 PUSH2 0x1D72 DUP5 DUP3 DUP6 ADD PUSH2 0x18F3 JUMP JUMPDEST SWAP1 DUP3 ADD MSTORE PUSH2 0x120 DUP3 DUP2 ADD CALLDATALOAD SWAP1 DUP3 ADD MSTORE PUSH2 0x140 PUSH2 0x1D90 DUP5 DUP3 DUP6 ADD PUSH2 0x1E15 JUMP JUMPDEST DUP2 DUP4 ADD MSTORE POP PUSH2 0x160 DUP1 DUP4 ADD CALLDATALOAD DUP2 DUP4 ADD MSTORE POP SWAP3 SWAP2 POP POP JUMP JUMPDEST PUSH1 0x0 PUSH1 0x80 DUP3 DUP5 SUB SLT ISZERO PUSH2 0x1DB8 JUMPI DUP1 DUP2 REVERT JUMPDEST PUSH2 0x1DC2 PUSH1 0x80 PUSH2 0x258A JUMP JUMPDEST SWAP1 POP DUP2 CALLDATALOAD PUSH1 0x4 DUP2 LT PUSH2 0x1DD3 JUMPI PUSH1 0x0 DUP1 REVERT JUMPDEST DUP2 MSTORE PUSH1 0x20 DUP3 ADD CALLDATALOAD PUSH1 0xFF DUP2 AND DUP2 EQ PUSH2 0x1DE9 JUMPI PUSH1 0x0 DUP1 REVERT JUMPDEST DUP1 PUSH1 0x20 DUP4 ADD MSTORE POP PUSH1 0x40 DUP3 ADD CALLDATALOAD PUSH1 0x40 DUP3 ADD MSTORE PUSH1 0x60 DUP3 ADD CALLDATALOAD PUSH1 0x60 DUP3 ADD MSTORE SWAP3 SWAP2 POP POP JUMP JUMPDEST DUP1 CALLDATALOAD PUSH2 0xA29 DUP2 PUSH2 0x262C JUMP JUMPDEST DUP1 CALLDATALOAD PUSH8 0xFFFFFFFFFFFFFFFF DUP2 AND DUP2 EQ PUSH2 0xA29 JUMPI PUSH1 0x0 DUP1 REVERT JUMPDEST PUSH1 0x0 PUSH1 0x20 DUP3 DUP5 SUB SLT ISZERO PUSH2 0x1E3E JUMPI DUP1 DUP2 REVERT JUMPDEST DUP2 CALLDATALOAD PUSH2 0xB07 DUP2 PUSH2 0x260A JUMP JUMPDEST PUSH1 0x0 PUSH1 0x20 DUP3 DUP5 SUB SLT ISZERO PUSH2 0x1E5A JUMPI DUP1 DUP2 REVERT JUMPDEST POP MLOAD SWAP2 SWAP1 POP JUMP JUMPDEST PUSH1 0x0 PUSH1 0x20 DUP3 DUP5 SUB SLT ISZERO PUSH2 0x1E72 JUMPI DUP1 DUP2 REVERT JUMPDEST DUP2 CALLDATALOAD PUSH8 0xFFFFFFFFFFFFFFFF DUP2 GT ISZERO PUSH2 0x1E88 JUMPI DUP2 DUP3 REVERT JUMPDEST DUP3 ADD PUSH1 0x60 DUP2 DUP6 SUB SLT ISZERO PUSH2 0xB07 JUMPI DUP2 DUP3 REVERT JUMPDEST PUSH1 0x0 PUSH1 0x20 DUP3 DUP5 SUB SLT ISZERO PUSH2 0x1EAA JUMPI DUP1 DUP2 REVERT JUMPDEST DUP2 CALLDATALOAD PUSH8 0xFFFFFFFFFFFFFFFF DUP1 DUP3 GT ISZERO PUSH2 0x1EC1 JUMPI DUP3 DUP4 REVERT JUMPDEST DUP2 DUP5 ADD SWAP2 POP PUSH2 0x120 DUP1 DUP4 DUP8 SUB SLT ISZERO PUSH2 0x1ED7 JUMPI DUP4 DUP5 REVERT JUMPDEST PUSH2 0x1EE0 DUP2 PUSH2 0x258A JUMP JUMPDEST SWAP1 POP PUSH2 0x1EEC DUP7 DUP5 PUSH2 0x1CAB JUMP JUMPDEST DUP2 MSTORE PUSH2 0x1EFB DUP7 PUSH1 0x20 DUP6 ADD PUSH2 0x18F3 JUMP JUMPDEST PUSH1 0x20 DUP3 ADD MSTORE PUSH2 0x1F0D DUP7 PUSH1 0x40 DUP6 ADD PUSH2 0x18F3 JUMP JUMPDEST PUSH1 0x40 DUP3 ADD MSTORE PUSH1 0x60 DUP4 ADD CALLDATALOAD DUP3 DUP2 GT ISZERO PUSH2 0x1F23 JUMPI DUP5 DUP6 REVERT JUMPDEST PUSH2 0x1F2F DUP8 DUP3 DUP7 ADD PUSH2 0x197A JUMP JUMPDEST PUSH1 0x60 DUP4 ADD MSTORE POP PUSH1 0x80 DUP4 ADD CALLDATALOAD DUP3 DUP2 GT ISZERO PUSH2 0x1F46 JUMPI DUP5 DUP6 REVERT JUMPDEST PUSH2 0x1F52 DUP8 DUP3 DUP7 ADD PUSH2 0x1AA0 JUMP JUMPDEST PUSH1 0x80 DUP4 ADD MSTORE POP PUSH1 0xA0 DUP4 ADD CALLDATALOAD DUP3 DUP2 GT ISZERO PUSH2 0x1F69 JUMPI DUP5 DUP6 REVERT JUMPDEST PUSH2 0x1F75 DUP8 DUP3 DUP7 ADD PUSH2 0x1B4E JUMP JUMPDEST PUSH1 0xA0 DUP4 ADD MSTORE POP PUSH1 0xC0 DUP4 ADD CALLDATALOAD DUP3 DUP2 GT ISZERO PUSH2 0x1F8C JUMPI DUP5 DUP6 REVERT JUMPDEST PUSH2 0x1F98 DUP8 DUP3 DUP7 ADD PUSH2 0x18FE JUMP JUMPDEST PUSH1 0xC0 DUP4 ADD MSTORE POP PUSH1 0xE0 DUP4 ADD CALLDATALOAD PUSH1 0xE0 DUP3 ADD MSTORE PUSH2 0x100 SWAP2 POP PUSH2 0x1FB9 DUP7 DUP4 DUP6 ADD PUSH2 0x18F3 JUMP JUMPDEST SWAP2 DUP2 ADD SWAP2 SWAP1 SWAP2 MSTORE SWAP5 SWAP4 POP POP POP POP JUMP JUMPDEST PUSH1 0x0 DUP1 PUSH1 0x40 DUP4 DUP6 SUB SLT ISZERO PUSH2 0x1FDA JUMPI DUP1 DUP2 REVERT JUMPDEST DUP3 MLOAD PUSH2 0x1FE5 DUP2 PUSH2 0x262C JUMP JUMPDEST PUSH1 0x20 DUP5 ADD MLOAD SWAP1 SWAP3 POP PUSH2 0x1FF6 DUP2 PUSH2 0x262C JUMP JUMPDEST DUP1 SWAP2 POP POP SWAP3 POP SWAP3 SWAP1 POP JUMP JUMPDEST PUSH1 0x0 PUSH1 0x20 DUP3 DUP5 SUB SLT ISZERO PUSH2 0x2012 JUMPI DUP1 DUP2 REVERT JUMPDEST DUP2 MLOAD PUSH4 0xFFFFFFFF DUP2 AND DUP2 EQ PUSH2 0xB07 JUMPI DUP2 DUP3 REVERT JUMPDEST PUSH20 0xFFFFFFFFFFFFFFFFFFFFFFFFFFFFFFFFFFFFFFFF AND SWAP1 MSTORE JUMP JUMPDEST PUSH1 0x0 DUP2 MLOAD DUP1 DUP5 MSTORE PUSH2 0x2057 DUP2 PUSH1 0x20 DUP7 ADD PUSH1 0x20 DUP7 ADD PUSH2 0x25D1 JUMP JUMPDEST PUSH1 0x1F ADD PUSH32 0xFFFFFFFFFFFFFFFFFFFFFFFFFFFFFFFFFFFFFFFFFFFFFFFFFFFFFFFFFFFFFFE0 AND SWAP3 SWAP1 SWAP3 ADD PUSH1 0x20 ADD SWAP3 SWAP2 POP POP JUMP JUMPDEST PUSH2 0x2094 DUP3 DUP3 MLOAD PUSH2 0x2025 JUMP JUMPDEST PUSH1 0x20 DUP2 ADD MLOAD PUSH2 0x20A6 PUSH1 0x20 DUP5 ADD DUP3 PUSH2 0x2025 JUMP JUMPDEST POP PUSH1 0x40 DUP2 ADD MLOAD PUSH2 0x20B9 PUSH1 0x40 DUP5 ADD DUP3 PUSH2 0x2189 JUMP JUMPDEST POP PUSH1 0x60 DUP2 ADD MLOAD PUSH2 0x20CC PUSH1 0x60 DUP5 ADD DUP3 PUSH2 0x2189 JUMP JUMPDEST POP PUSH1 0x80 DUP2 ADD MLOAD PUSH2 0x20DF PUSH1 0x80 DUP5 ADD DUP3 PUSH2 0x2189 JUMP JUMPDEST POP PUSH1 0xA0 DUP2 ADD MLOAD PUSH2 0x20F2 PUSH1 0xA0 DUP5 ADD DUP3 PUSH2 0x2025 JUMP JUMPDEST POP PUSH1 0xC0 DUP2 ADD MLOAD PUSH2 0x2105 PUSH1 0xC0 DUP5 ADD DUP3 PUSH2 0x2025 JUMP JUMPDEST POP PUSH1 0xE0 DUP2 ADD MLOAD PUSH2 0x2118 PUSH1 0xE0 DUP5 ADD DUP3 PUSH2 0x2025 JUMP JUMPDEST POP PUSH2 0x100 DUP1 DUP3 ADD MLOAD PUSH2 0x212C DUP3 DUP6 ADD DUP3 PUSH2 0x2025 JUMP JUMPDEST POP POP PUSH2 0x120 DUP2 DUP2 ADD MLOAD SWAP1 DUP4 ADD MSTORE PUSH2 0x140 DUP1 DUP3 ADD MLOAD PUSH2 0x214C DUP3 DUP6 ADD DUP3 PUSH2 0x219F JUMP JUMPDEST POP POP PUSH2 0x160 SWAP1 DUP2 ADD MLOAD SWAP2 ADD MSTORE JUMP JUMPDEST DUP1 MLOAD PUSH2 0x2165 DUP2 PUSH2 0x25FD JUMP JUMPDEST DUP3 MSTORE PUSH1 0x20 DUP2 DUP2 ADD MLOAD PUSH1 0xFF AND SWAP1 DUP4 ADD MSTORE PUSH1 0x40 DUP1 DUP3 ADD MLOAD SWAP1 DUP4 ADD MSTORE PUSH1 0x60 SWAP1 DUP2 ADD MLOAD SWAP2 ADD MSTORE JUMP JUMPDEST PUSH16 0xFFFFFFFFFFFFFFFFFFFFFFFFFFFFFFFF AND SWAP1 MSTORE JUMP JUMPDEST PUSH8 0xFFFFFFFFFFFFFFFF AND SWAP1 MSTORE JUMP JUMPDEST PUSH1 0x0 DUP3 MLOAD PUSH2 0x21BF DUP2 DUP5 PUSH1 0x20 DUP8 ADD PUSH2 0x25D1 JUMP JUMPDEST SWAP2 SWAP1 SWAP2 ADD SWAP3 SWAP2 POP POP JUMP JUMPDEST SWAP1 JUMP JUMPDEST PUSH20 0xFFFFFFFFFFFFFFFFFFFFFFFFFFFFFFFFFFFFFFFF SWAP2 SWAP1 SWAP2 AND DUP2 MSTORE PUSH1 0x20 ADD SWAP1 JUMP JUMPDEST PUSH20 0xFFFFFFFFFFFFFFFFFFFFFFFFFFFFFFFFFFFFFFFF SWAP3 DUP4 AND DUP2 MSTORE SWAP2 AND PUSH1 0x20 DUP3 ADD MSTORE PUSH1 0x40 ADD SWAP1 JUMP JUMPDEST PUSH20 0xFFFFFFFFFFFFFFFFFFFFFFFFFFFFFFFFFFFFFFFF SWAP3 SWAP1 SWAP3 AND DUP3 MSTORE PUSH1 0x20 DUP3 ADD MSTORE PUSH1 0x40 ADD SWAP1 JUMP JUMPDEST PUSH20 0xFFFFFFFFFFFFFFFFFFFFFFFFFFFFFFFFFFFFFFFF SWAP4 SWAP1 SWAP4 AND DUP4 MSTORE PUSH1 0x20 DUP4 ADD SWAP2 SWAP1 SWAP2 MSTORE PUSH1 0x40 DUP3 ADD MSTORE PUSH1 0x60 ADD SWAP1 JUMP JUMPDEST SWAP1 DUP2 MSTORE PUSH1 0x20 ADD SWAP1 JUMP JUMPDEST PUSH32 0xFFFFFFFF00000000000000000000000000000000000000000000000000000000 SWAP2 SWAP1 SWAP2 AND DUP2 MSTORE PUSH1 0x20 ADD SWAP1 JUMP JUMPDEST PUSH1 0x60 DUP2 ADD PUSH2 0x22AB DUP6 PUSH2 0x25FD JUMP JUMPDEST SWAP4 DUP2 MSTORE PUSH1 0x20 DUP2 ADD SWAP3 SWAP1 SWAP3 MSTORE PUSH1 0x40 SWAP1 SWAP2 ADD MSTORE SWAP1 JUMP JUMPDEST PUSH1 0x40 DUP2 ADD PUSH2 0x22CC DUP5 PUSH2 0x25FD JUMP JUMPDEST SWAP3 DUP2 MSTORE PUSH1 0x20 ADD MSTORE SWAP1 JUMP JUMPDEST PUSH1 0x60 DUP2 ADD PUSH1 0x8 DUP6 LT PUSH2 0x22AB JUMPI INVALID JUMPDEST PUSH1 0x0 PUSH1 0x2 DUP5 LT PUSH2 0x22F0 JUMPI INVALID JUMPDEST DUP4 DUP3 MSTORE PUSH1 0x40 PUSH1 0x20 DUP4 ADD MSTORE PUSH2 0x15EC PUSH1 0x40 DUP4 ADD DUP5 PUSH2 0x203F JUMP JUMPDEST PUSH1 0x20 DUP1 DUP3 MSTORE PUSH1 0x12 SWAP1 DUP3 ADD MSTORE PUSH32 0x494E56414C49445F4F524445525F545950450000000000000000000000000000 PUSH1 0x40 DUP3 ADD MSTORE PUSH1 0x60 ADD SWAP1 JUMP JUMPDEST PUSH1 0x20 DUP1 DUP3 MSTORE PUSH1 0x2A SWAP1 DUP3 ADD MSTORE PUSH32 0x46696C6C51756F74655472616E73666F726D65722F45544845525F5452414E53 PUSH1 0x40 DUP3 ADD MSTORE PUSH32 0x4645525F46414C49454400000000000000000000000000000000000000000000 PUSH1 0x60 DUP3 ADD MSTORE PUSH1 0x80 ADD SWAP1 JUMP JUMPDEST PUSH1 0x0 PUSH1 0x80 DUP3 MSTORE DUP6 MLOAD PUSH1 0x80 DUP4 ADD MSTORE PUSH1 0x20 DUP7 ADD MLOAD PUSH1 0xA0 DUP4 ADD MSTORE PUSH1 0x40 DUP7 ADD MLOAD PUSH1 0xC0 DUP4 ADD MSTORE PUSH1 0x60 DUP7 ADD MLOAD PUSH1 0x80 PUSH1 0xE0 DUP5 ADD MSTORE PUSH2 0x23D6 PUSH2 0x100 DUP5 ADD DUP3 PUSH2 0x203F JUMP JUMPDEST PUSH20 0xFFFFFFFFFFFFFFFFFFFFFFFFFFFFFFFFFFFFFFFF SWAP7 DUP8 AND PUSH1 0x20 DUP6 ADD MSTORE SWAP5 SWAP1 SWAP6 AND PUSH1 0x40 DUP4 ADD MSTORE POP PUSH1 0x60 ADD MSTORE SWAP3 SWAP2 POP POP JUMP JUMPDEST PUSH2 0x180 DUP2 ADD PUSH2 0xA29 DUP3 DUP5 PUSH2 0x2089 JUMP JUMPDEST PUSH2 0x220 DUP2 ADD PUSH2 0x2425 DUP3 DUP7 PUSH2 0x2089 JUMP JUMPDEST PUSH2 0x2433 PUSH2 0x180 DUP4 ADD DUP6 PUSH2 0x215A JUMP JUMPDEST PUSH16 0xFFFFFFFFFFFFFFFFFFFFFFFFFFFFFFFF DUP4 AND PUSH2 0x200 DUP4 ADD MSTORE SWAP5 SWAP4 POP POP POP POP JUMP JUMPDEST PUSH1 0x0 PUSH2 0x1E0 DUP3 ADD SWAP1 POP PUSH2 0x2468 DUP3 DUP7 MLOAD PUSH2 0x2025 JUMP JUMPDEST PUSH1 0x20 DUP6 ADD MLOAD PUSH2 0x247A PUSH1 0x20 DUP5 ADD DUP3 PUSH2 0x2025 JUMP JUMPDEST POP PUSH1 0x40 DUP6 ADD MLOAD PUSH2 0x248D PUSH1 0x40 DUP5 ADD DUP3 PUSH2 0x2189 JUMP JUMPDEST POP PUSH1 0x60 DUP6 ADD MLOAD PUSH2 0x24A0 PUSH1 0x60 DUP5 ADD DUP3 PUSH2 0x2189 JUMP JUMPDEST POP PUSH1 0x80 DUP6 ADD MLOAD PUSH2 0x24B3 PUSH1 0x80 DUP5 ADD DUP3 PUSH2 0x2025 JUMP JUMPDEST POP PUSH1 0xA0 DUP6 ADD MLOAD PUSH2 0x24C6 PUSH1 0xA0 DUP5 ADD DUP3 PUSH2 0x2025 JUMP JUMPDEST POP PUSH1 0xC0 DUP6 ADD MLOAD PUSH2 0x24D9 PUSH1 0xC0 DUP5 ADD DUP3 PUSH2 0x2025 JUMP JUMPDEST POP PUSH1 0xE0 DUP6 ADD MLOAD PUSH1 0xE0 DUP4 ADD MSTORE PUSH2 0x100 DUP1 DUP7 ADD MLOAD PUSH2 0x24F7 DUP3 DUP6 ADD DUP3 PUSH2 0x219F JUMP JUMPDEST POP POP PUSH2 0x120 DUP6 DUP2 ADD MLOAD SWAP1 DUP4 ADD MSTORE PUSH2 0x2512 PUSH2 0x140 DUP4 ADD DUP6 PUSH2 0x215A JUMP JUMPDEST PUSH2 0x15EC PUSH2 0x1C0 DUP4 ADD DUP5 PUSH2 0x2189 JUMP JUMPDEST PUSH1 0x0 DUP1 DUP4 CALLDATALOAD PUSH32 0xFFFFFFFFFFFFFFFFFFFFFFFFFFFFFFFFFFFFFFFFFFFFFFFFFFFFFFFFFFFFFFE1 DUP5 CALLDATASIZE SUB ADD DUP2 SLT PUSH2 0x2554 JUMPI DUP3 DUP4 REVERT JUMPDEST DUP4 ADD DUP1 CALLDATALOAD SWAP2 POP PUSH8 0xFFFFFFFFFFFFFFFF DUP3 GT ISZERO PUSH2 0x256E JUMPI DUP3 DUP4 REVERT JUMPDEST PUSH1 0x20 ADD SWAP2 POP CALLDATASIZE DUP2 SWAP1 SUB DUP3 SGT ISZERO PUSH2 0x2583 JUMPI PUSH1 0x0 DUP1 REVERT JUMPDEST SWAP3 POP SWAP3 SWAP1 POP JUMP JUMPDEST PUSH1 0x40 MLOAD DUP2 DUP2 ADD PUSH8 0xFFFFFFFFFFFFFFFF DUP2 GT DUP3 DUP3 LT OR ISZERO PUSH2 0x25A9 JUMPI PUSH1 0x0 DUP1 REVERT JUMPDEST PUSH1 0x40 MSTORE SWAP2 SWAP1 POP JUMP JUMPDEST PUSH1 0x0 PUSH8 0xFFFFFFFFFFFFFFFF DUP3 GT ISZERO PUSH2 0x25C7 JUMPI DUP1 DUP2 REVERT JUMPDEST POP PUSH1 0x20 SWAP1 DUP2 MUL ADD SWAP1 JUMP JUMPDEST PUSH1 0x0 JUMPDEST DUP4 DUP2 LT ISZERO PUSH2 0x25EC JUMPI DUP2 DUP2 ADD MLOAD DUP4 DUP3 ADD MSTORE PUSH1 0x20 ADD PUSH2 0x25D4 JUMP JUMPDEST DUP4 DUP2 GT ISZERO PUSH2 0x14EF JUMPI POP POP PUSH1 0x0 SWAP2 ADD MSTORE JUMP JUMPDEST PUSH1 0x4 DUP2 LT PUSH2 0x2607 JUMPI INVALID JUMPDEST POP JUMP JUMPDEST PUSH20 0xFFFFFFFFFFFFFFFFFFFFFFFFFFFFFFFFFFFFFFFF DUP2 AND DUP2 EQ PUSH2 0x2607 JUMPI PUSH1 0x0 DUP1 REVERT JUMPDEST PUSH16 0xFFFFFFFFFFFFFFFFFFFFFFFFFFFFFFFF DUP2 AND DUP2 EQ PUSH2 0x2607 JUMPI PUSH1 0x0 DUP1 REVERT INVALID LOG2 PUSH5 0x6970667358 0x22 SLT KECCAK256 0xBF 0xE3 DUP11 SGT 0xD7 0xDE PUSH1 0xD 0xBA SDIV MUL PUSH22 0x392841167F43760555E289253BEE8C22DFB0C7DC6473 PUSH16 0x6C634300060C00330000000000000000 "
            },
            "methodIdentifiers": {
                "bridgeAdapter()": "be7dc09b",
                "deployer()": "d5f39488",
                "die(address)": "c9353cb5",
                "transform((address,address,bytes))": "832b24bb",
                "zeroEx()": "52ab413b"
            }
        }
    },
    "sourceTreeHashHex": "0xc133297c0d360653b0ce9422c7541b01445303c1151e09c741874d2247f46460",
    "compiler": {
        "name": "solc",
        "version": "0.6.12+commit.27d51765",
        "settings": {
            "remappings": [
                "@0x/contracts-utils=/Users/michaelzhu/protocol/node_modules/@0x/contracts-utils",
                "@0x/contracts-erc20=/Users/michaelzhu/protocol/contracts/zero-ex/node_modules/@0x/contracts-erc20"
            ],
            "optimizer": {
                "enabled": true,
                "runs": 1000000,
                "details": {
                    "yul": true,
                    "deduplicate": true,
                    "cse": true,
                    "constantOptimizer": true
                }
            },
            "outputSelection": {
                "*": {
                    "*": [
                        "abi",
                        "devdoc",
                        "evm.bytecode.object",
                        "evm.bytecode.sourceMap",
                        "evm.deployedBytecode.object",
                        "evm.deployedBytecode.sourceMap",
                        "evm.methodIdentifiers"
                    ]
                }
            },
            "evmVersion": "istanbul"
        }
    },
    "chains": {}
}