{
    "schemaVersion": "2.0.0",
    "contractName": "InitialMigration",
    "compilerOutput": {
        "abi": [
            {
                "inputs": [
                    {
                        "internalType": "address",
                        "name": "initializeCaller_",
                        "type": "address"
                    }
                ],
                "stateMutability": "nonpayable",
                "type": "constructor"
            },
            {
                "inputs": [
                    {
                        "internalType": "address",
                        "name": "owner",
                        "type": "address"
                    },
                    {
                        "components": [
                            {
                                "internalType": "contract SimpleFunctionRegistryFeature",
                                "name": "registry",
                                "type": "address"
                            },
                            {
                                "internalType": "contract OwnableFeature",
                                "name": "ownable",
                                "type": "address"
                            }
                        ],
                        "internalType": "struct InitialMigration.BootstrapFeatures",
                        "name": "features",
                        "type": "tuple"
                    }
                ],
                "name": "bootstrap",
                "outputs": [
                    {
                        "internalType": "bytes4",
                        "name": "success",
                        "type": "bytes4"
                    }
                ],
                "stateMutability": "nonpayable",
                "type": "function"
            },
            {
                "inputs": [
                    {
                        "internalType": "address payable",
                        "name": "ethRecipient",
                        "type": "address"
                    }
                ],
                "name": "die",
                "outputs": [],
                "stateMutability": "nonpayable",
                "type": "function"
            },
            {
                "inputs": [],
                "name": "initializeCaller",
                "outputs": [
                    {
                        "internalType": "address",
                        "name": "",
                        "type": "address"
                    }
                ],
                "stateMutability": "view",
                "type": "function"
            },
            {
                "inputs": [
                    {
                        "internalType": "address payable",
                        "name": "owner",
                        "type": "address"
                    },
                    {
                        "internalType": "contract ZeroEx",
                        "name": "zeroEx",
                        "type": "address"
                    },
                    {
                        "components": [
                            {
                                "internalType": "contract SimpleFunctionRegistryFeature",
                                "name": "registry",
                                "type": "address"
                            },
                            {
                                "internalType": "contract OwnableFeature",
                                "name": "ownable",
                                "type": "address"
                            }
                        ],
                        "internalType": "struct InitialMigration.BootstrapFeatures",
                        "name": "features",
                        "type": "tuple"
                    }
                ],
                "name": "initializeZeroEx",
                "outputs": [
                    {
                        "internalType": "contract ZeroEx",
                        "name": "_zeroEx",
                        "type": "address"
                    }
                ],
                "stateMutability": "nonpayable",
                "type": "function"
            }
        ],
        "devdoc": {
            "details": "A contract for deploying and configuring a minimal ZeroEx contract.",
            "kind": "dev",
            "methods": {
                "bootstrap(address,(address,address))": {
                    "details": "Sets up the initial state of the `ZeroEx` contract.      The `ZeroEx` contract will delegatecall into this function.",
                    "params": {
                        "features": "Features to bootstrap into the proxy.",
                        "owner": "The new owner of the ZeroEx contract."
                    },
                    "returns": {
                        "success": "Magic bytes if successful."
                    }
                },
                "constructor": {
                    "details": "Instantiate this contract and set the allowed caller of `initializeZeroEx()`      to `initializeCaller_`.",
                    "params": {
                        "initializeCaller_": "The allowed caller of `initializeZeroEx()`."
                    }
                },
                "die(address)": {
                    "details": "Self-destructs this contract. Only callable by this contract.",
                    "params": {
                        "ethRecipient": "Who to transfer outstanding ETH to."
                    }
                },
                "initializeZeroEx(address,address,(address,address))": {
                    "details": "Initialize the `ZeroEx` contract with the minimum feature set,      transfers ownership to `owner`, then self-destructs.      Only callable by `initializeCaller` set in the contstructor.",
                    "params": {
                        "features": "Features to bootstrap into the proxy.",
                        "owner": "The owner of the contract.",
                        "zeroEx": "The instance of the ZeroEx contract. ZeroEx should        been constructed with this contract as the bootstrapper."
                    },
                    "returns": {
                        "_zeroEx": "The configured ZeroEx contract. Same as the `zeroEx` parameter."
                    }
                }
            },
            "stateVariables": {
                "_implementation": {
                    "details": "The real address of this contract."
                },
                "initializeCaller": {
                    "details": "The allowed caller of `initializeZeroEx()`. In production, this would be      the governor."
                }
            },
            "version": 1
        },
        "evm": {
            "bytecode": {
                "linkReferences": {},
                "object": "0x60c060405234801561001057600080fd5b50604051610afa380380610afa83398101604081905261002f9161004c565b6001600160601b0319606091821b1660805230901b60a05261007a565b60006020828403121561005d578081fd5b81516001600160a01b0381168114610073578182fd5b9392505050565b60805160601c60a05160601c610a526100a8600039806104cf5250806102aa52806102e65250610a526000f3fe608060405234801561001057600080fd5b506004361061004c5760003560e01c806308cf7934146100515780635f136a4a1461007a578063a23ce6ce1461008f578063c9353cb5146100a2575b600080fd5b61006461005f3660046107c6565b6100b7565b604051610071919061091f565b60405180910390f35b6100826102a8565b6040516100719190610857565b61008261009d36600461077f565b6102cc565b6100b56100b036600461075c565b6104b7565b005b80516040805160048152602481019091526020810180517bffffffffffffffffffffffffffffffffffffffffffffffffffffffff167ffb969b0a0000000000000000000000000000000000000000000000000000000017905260009161011c9161053f565b60208083015160408051600481526024810190915291820180517bffffffffffffffffffffffffffffffffffffffffffffffffffffffff167ffb969b0a000000000000000000000000000000000000000000000000000000001790526101819161053f565b6040517f9db64a400000000000000000000000000000000000000000000000000000000081523090639db64a40906101e0907f0ee8be1b000000000000000000000000000000000000000000000000000000009060009060040161094c565b600060405180830381600087803b1580156101fa57600080fd5b505af115801561020e573d6000803e3d6000fd5b50506040517ff2fde38b00000000000000000000000000000000000000000000000000000000815230925063f2fde38b915061024e908690600401610857565b600060405180830381600087803b15801561026857600080fd5b505af115801561027c573d6000803e3d6000fd5b507fd150751b000000000000000000000000000000000000000000000000000000009695505050505050565b7f000000000000000000000000000000000000000000000000000000000000000081565b60003373ffffffffffffffffffffffffffffffffffffffff7f00000000000000000000000000000000000000000000000000000000000000001614610346576040517f08c379a000000000000000000000000000000000000000000000000000000000815260040161033d90610994565b60405180910390fd5b8273ffffffffffffffffffffffffffffffffffffffff166373f208d5306308cf793460e01b878660405160240161037e929190610878565b604080517fffffffffffffffffffffffffffffffffffffffffffffffffffffffffffffffe08184030181529181526020820180517bffffffffffffffffffffffffffffffffffffffffffffffffffffffff167fffffffff000000000000000000000000000000000000000000000000000000009485161790525160e085901b909216825261040f92916004016108b1565b600060405180830381600087803b15801561042957600080fd5b505af115801561043d573d6000803e3d6000fd5b50506040517fc9353cb500000000000000000000000000000000000000000000000000000000815230925063c9353cb5915061047d908790600401610857565b600060405180830381600087803b15801561049757600080fd5b505af11580156104ab573d6000803e3d6000fd5b50949695505050505050565b3373ffffffffffffffffffffffffffffffffffffffff7f00000000000000000000000000000000000000000000000000000000000000001614610526576040517f08c379a000000000000000000000000000000000000000000000000000000000815260040161033d90610994565b8073ffffffffffffffffffffffffffffffffffffffff16ff5b600060608373ffffffffffffffffffffffffffffffffffffffff1683604051610568919061083b565b600060405180830381855af49150503d80600081146105a3576040519150601f19603f3d011682016040523d82523d6000602084013e6105a8565b606091505b50915091508115806105bc57508051602014155b8061061e575080517fd150751b00000000000000000000000000000000000000000000000000000000906105f990830160209081019084016107fb565b7fffffffff000000000000000000000000000000000000000000000000000000001614155b1561063557610635610630858361063b565b6106f6565b50505050565b60607fd19d65df6830e3cb0da1e12b8e9738e2dc473f830d8af813bcc031eb5a1675d183836040516024016106719291906108b1565b604080517fffffffffffffffffffffffffffffffffffffffffffffffffffffffffffffffe08184030181529190526020810180517bffffffffffffffffffffffffffffffffffffffffffffffffffffffff167fffffffff0000000000000000000000000000000000000000000000000000000090931692909217909152905092915050565b805160208201fd5b60006040828403121561070f578081fd5b6040516040810181811067ffffffffffffffff8211171561072e578283fd5b604052905080823561073f816109f7565b8152602083013561074f816109f7565b6020919091015292915050565b60006020828403121561076d578081fd5b8135610778816109f7565b9392505050565b600080600060808486031215610793578182fd5b833561079e816109f7565b925060208401356107ae816109f7565b91506107bd85604086016106fe565b90509250925092565b600080606083850312156107d8578182fd5b82356107e3816109f7565b91506107f284602085016106fe565b90509250929050565b60006020828403121561080c578081fd5b81517fffffffff0000000000000000000000000000000000000000000000000000000081168114610778578182fd5b6000825161084d8184602087016109cb565b9190910192915050565b73ffffffffffffffffffffffffffffffffffffffff91909116815260200190565b73ffffffffffffffffffffffffffffffffffffffff92831681528151831660208083019190915290910151909116604082015260600190565b600073ffffffffffffffffffffffffffffffffffffffff841682526040602083015282518060408401526108ec8160608501602087016109cb565b601f017fffffffffffffffffffffffffffffffffffffffffffffffffffffffffffffffe016919091016060019392505050565b7fffffffff0000000000000000000000000000000000000000000000000000000091909116815260200190565b7fffffffff0000000000000000000000000000000000000000000000000000000092909216825273ffffffffffffffffffffffffffffffffffffffff16602082015260400190565b6020808252601f908201527f496e697469616c4d6967726174696f6e2f494e56414c49445f53454e44455200604082015260600190565b60005b838110156109e65781810151838201526020016109ce565b838111156106355750506000910152565b73ffffffffffffffffffffffffffffffffffffffff81168114610a1957600080fd5b5056fea2646970667358221220a16f740e3543e464fb7b9ec07ebb663ade6c4e8e73c8add2a24ea1b0d4d96f6664736f6c634300060c0033",
                "opcodes": "PUSH1 0xC0 PUSH1 0x40 MSTORE CALLVALUE DUP1 ISZERO PUSH2 0x10 JUMPI PUSH1 0x0 DUP1 REVERT JUMPDEST POP PUSH1 0x40 MLOAD PUSH2 0xAFA CODESIZE SUB DUP1 PUSH2 0xAFA DUP4 CODECOPY DUP2 ADD PUSH1 0x40 DUP2 SWAP1 MSTORE PUSH2 0x2F SWAP2 PUSH2 0x4C JUMP JUMPDEST PUSH1 0x1 PUSH1 0x1 PUSH1 0x60 SHL SUB NOT PUSH1 0x60 SWAP2 DUP3 SHL AND PUSH1 0x80 MSTORE ADDRESS SWAP1 SHL PUSH1 0xA0 MSTORE PUSH2 0x7A JUMP JUMPDEST PUSH1 0x0 PUSH1 0x20 DUP3 DUP5 SUB SLT ISZERO PUSH2 0x5D JUMPI DUP1 DUP2 REVERT JUMPDEST DUP2 MLOAD PUSH1 0x1 PUSH1 0x1 PUSH1 0xA0 SHL SUB DUP2 AND DUP2 EQ PUSH2 0x73 JUMPI DUP2 DUP3 REVERT JUMPDEST SWAP4 SWAP3 POP POP POP JUMP JUMPDEST PUSH1 0x80 MLOAD PUSH1 0x60 SHR PUSH1 0xA0 MLOAD PUSH1 0x60 SHR PUSH2 0xA52 PUSH2 0xA8 PUSH1 0x0 CODECOPY DUP1 PUSH2 0x4CF MSTORE POP DUP1 PUSH2 0x2AA MSTORE DUP1 PUSH2 0x2E6 MSTORE POP PUSH2 0xA52 PUSH1 0x0 RETURN INVALID PUSH1 0x80 PUSH1 0x40 MSTORE CALLVALUE DUP1 ISZERO PUSH2 0x10 JUMPI PUSH1 0x0 DUP1 REVERT JUMPDEST POP PUSH1 0x4 CALLDATASIZE LT PUSH2 0x4C JUMPI PUSH1 0x0 CALLDATALOAD PUSH1 0xE0 SHR DUP1 PUSH4 0x8CF7934 EQ PUSH2 0x51 JUMPI DUP1 PUSH4 0x5F136A4A EQ PUSH2 0x7A JUMPI DUP1 PUSH4 0xA23CE6CE EQ PUSH2 0x8F JUMPI DUP1 PUSH4 0xC9353CB5 EQ PUSH2 0xA2 JUMPI JUMPDEST PUSH1 0x0 DUP1 REVERT JUMPDEST PUSH2 0x64 PUSH2 0x5F CALLDATASIZE PUSH1 0x4 PUSH2 0x7C6 JUMP JUMPDEST PUSH2 0xB7 JUMP JUMPDEST PUSH1 0x40 MLOAD PUSH2 0x71 SWAP2 SWAP1 PUSH2 0x91F JUMP JUMPDEST PUSH1 0x40 MLOAD DUP1 SWAP2 SUB SWAP1 RETURN JUMPDEST PUSH2 0x82 PUSH2 0x2A8 JUMP JUMPDEST PUSH1 0x40 MLOAD PUSH2 0x71 SWAP2 SWAP1 PUSH2 0x857 JUMP JUMPDEST PUSH2 0x82 PUSH2 0x9D CALLDATASIZE PUSH1 0x4 PUSH2 0x77F JUMP JUMPDEST PUSH2 0x2CC JUMP JUMPDEST PUSH2 0xB5 PUSH2 0xB0 CALLDATASIZE PUSH1 0x4 PUSH2 0x75C JUMP JUMPDEST PUSH2 0x4B7 JUMP JUMPDEST STOP JUMPDEST DUP1 MLOAD PUSH1 0x40 DUP1 MLOAD PUSH1 0x4 DUP2 MSTORE PUSH1 0x24 DUP2 ADD SWAP1 SWAP2 MSTORE PUSH1 0x20 DUP2 ADD DUP1 MLOAD PUSH28 0xFFFFFFFFFFFFFFFFFFFFFFFFFFFFFFFFFFFFFFFFFFFFFFFFFFFFFFFF AND PUSH32 0xFB969B0A00000000000000000000000000000000000000000000000000000000 OR SWAP1 MSTORE PUSH1 0x0 SWAP2 PUSH2 0x11C SWAP2 PUSH2 0x53F JUMP JUMPDEST PUSH1 0x20 DUP1 DUP4 ADD MLOAD PUSH1 0x40 DUP1 MLOAD PUSH1 0x4 DUP2 MSTORE PUSH1 0x24 DUP2 ADD SWAP1 SWAP2 MSTORE SWAP2 DUP3 ADD DUP1 MLOAD PUSH28 0xFFFFFFFFFFFFFFFFFFFFFFFFFFFFFFFFFFFFFFFFFFFFFFFFFFFFFFFF AND PUSH32 0xFB969B0A00000000000000000000000000000000000000000000000000000000 OR SWAP1 MSTORE PUSH2 0x181 SWAP2 PUSH2 0x53F JUMP JUMPDEST PUSH1 0x40 MLOAD PUSH32 0x9DB64A4000000000000000000000000000000000000000000000000000000000 DUP2 MSTORE ADDRESS SWAP1 PUSH4 0x9DB64A40 SWAP1 PUSH2 0x1E0 SWAP1 PUSH32 0xEE8BE1B00000000000000000000000000000000000000000000000000000000 SWAP1 PUSH1 0x0 SWAP1 PUSH1 0x4 ADD PUSH2 0x94C JUMP JUMPDEST PUSH1 0x0 PUSH1 0x40 MLOAD DUP1 DUP4 SUB DUP2 PUSH1 0x0 DUP8 DUP1 EXTCODESIZE ISZERO DUP1 ISZERO PUSH2 0x1FA JUMPI PUSH1 0x0 DUP1 REVERT JUMPDEST POP GAS CALL ISZERO DUP1 ISZERO PUSH2 0x20E JUMPI RETURNDATASIZE PUSH1 0x0 DUP1 RETURNDATACOPY RETURNDATASIZE PUSH1 0x0 REVERT JUMPDEST POP POP PUSH1 0x40 MLOAD PUSH32 0xF2FDE38B00000000000000000000000000000000000000000000000000000000 DUP2 MSTORE ADDRESS SWAP3 POP PUSH4 0xF2FDE38B SWAP2 POP PUSH2 0x24E SWAP1 DUP7 SWAP1 PUSH1 0x4 ADD PUSH2 0x857 JUMP JUMPDEST PUSH1 0x0 PUSH1 0x40 MLOAD DUP1 DUP4 SUB DUP2 PUSH1 0x0 DUP8 DUP1 EXTCODESIZE ISZERO DUP1 ISZERO PUSH2 0x268 JUMPI PUSH1 0x0 DUP1 REVERT JUMPDEST POP GAS CALL ISZERO DUP1 ISZERO PUSH2 0x27C JUMPI RETURNDATASIZE PUSH1 0x0 DUP1 RETURNDATACOPY RETURNDATASIZE PUSH1 0x0 REVERT JUMPDEST POP PUSH32 0xD150751B00000000000000000000000000000000000000000000000000000000 SWAP7 SWAP6 POP POP POP POP POP POP JUMP JUMPDEST PUSH32 0x0 DUP2 JUMP JUMPDEST PUSH1 0x0 CALLER PUSH20 0xFFFFFFFFFFFFFFFFFFFFFFFFFFFFFFFFFFFFFFFF PUSH32 0x0 AND EQ PUSH2 0x346 JUMPI PUSH1 0x40 MLOAD PUSH32 0x8C379A000000000000000000000000000000000000000000000000000000000 DUP2 MSTORE PUSH1 0x4 ADD PUSH2 0x33D SWAP1 PUSH2 0x994 JUMP JUMPDEST PUSH1 0x40 MLOAD DUP1 SWAP2 SUB SWAP1 REVERT JUMPDEST DUP3 PUSH20 0xFFFFFFFFFFFFFFFFFFFFFFFFFFFFFFFFFFFFFFFF AND PUSH4 0x73F208D5 ADDRESS PUSH4 0x8CF7934 PUSH1 0xE0 SHL DUP8 DUP7 PUSH1 0x40 MLOAD PUSH1 0x24 ADD PUSH2 0x37E SWAP3 SWAP2 SWAP1 PUSH2 0x878 JUMP JUMPDEST PUSH1 0x40 DUP1 MLOAD PUSH32 0xFFFFFFFFFFFFFFFFFFFFFFFFFFFFFFFFFFFFFFFFFFFFFFFFFFFFFFFFFFFFFFE0 DUP2 DUP5 SUB ADD DUP2 MSTORE SWAP2 DUP2 MSTORE PUSH1 0x20 DUP3 ADD DUP1 MLOAD PUSH28 0xFFFFFFFFFFFFFFFFFFFFFFFFFFFFFFFFFFFFFFFFFFFFFFFFFFFFFFFF AND PUSH32 0xFFFFFFFF00000000000000000000000000000000000000000000000000000000 SWAP5 DUP6 AND OR SWAP1 MSTORE MLOAD PUSH1 0xE0 DUP6 SWAP1 SHL SWAP1 SWAP3 AND DUP3 MSTORE PUSH2 0x40F SWAP3 SWAP2 PUSH1 0x4 ADD PUSH2 0x8B1 JUMP JUMPDEST PUSH1 0x0 PUSH1 0x40 MLOAD DUP1 DUP4 SUB DUP2 PUSH1 0x0 DUP8 DUP1 EXTCODESIZE ISZERO DUP1 ISZERO PUSH2 0x429 JUMPI PUSH1 0x0 DUP1 REVERT JUMPDEST POP GAS CALL ISZERO DUP1 ISZERO PUSH2 0x43D JUMPI RETURNDATASIZE PUSH1 0x0 DUP1 RETURNDATACOPY RETURNDATASIZE PUSH1 0x0 REVERT JUMPDEST POP POP PUSH1 0x40 MLOAD PUSH32 0xC9353CB500000000000000000000000000000000000000000000000000000000 DUP2 MSTORE ADDRESS SWAP3 POP PUSH4 0xC9353CB5 SWAP2 POP PUSH2 0x47D SWAP1 DUP8 SWAP1 PUSH1 0x4 ADD PUSH2 0x857 JUMP JUMPDEST PUSH1 0x0 PUSH1 0x40 MLOAD DUP1 DUP4 SUB DUP2 PUSH1 0x0 DUP8 DUP1 EXTCODESIZE ISZERO DUP1 ISZERO PUSH2 0x497 JUMPI PUSH1 0x0 DUP1 REVERT JUMPDEST POP GAS CALL ISZERO DUP1 ISZERO PUSH2 0x4AB JUMPI RETURNDATASIZE PUSH1 0x0 DUP1 RETURNDATACOPY RETURNDATASIZE PUSH1 0x0 REVERT JUMPDEST POP SWAP5 SWAP7 SWAP6 POP POP POP POP POP POP JUMP JUMPDEST CALLER PUSH20 0xFFFFFFFFFFFFFFFFFFFFFFFFFFFFFFFFFFFFFFFF PUSH32 0x0 AND EQ PUSH2 0x526 JUMPI PUSH1 0x40 MLOAD PUSH32 0x8C379A000000000000000000000000000000000000000000000000000000000 DUP2 MSTORE PUSH1 0x4 ADD PUSH2 0x33D SWAP1 PUSH2 0x994 JUMP JUMPDEST DUP1 PUSH20 0xFFFFFFFFFFFFFFFFFFFFFFFFFFFFFFFFFFFFFFFF AND SELFDESTRUCT JUMPDEST PUSH1 0x0 PUSH1 0x60 DUP4 PUSH20 0xFFFFFFFFFFFFFFFFFFFFFFFFFFFFFFFFFFFFFFFF AND DUP4 PUSH1 0x40 MLOAD PUSH2 0x568 SWAP2 SWAP1 PUSH2 0x83B JUMP JUMPDEST PUSH1 0x0 PUSH1 0x40 MLOAD DUP1 DUP4 SUB DUP2 DUP6 GAS DELEGATECALL SWAP2 POP POP RETURNDATASIZE DUP1 PUSH1 0x0 DUP2 EQ PUSH2 0x5A3 JUMPI PUSH1 0x40 MLOAD SWAP2 POP PUSH1 0x1F NOT PUSH1 0x3F RETURNDATASIZE ADD AND DUP3 ADD PUSH1 0x40 MSTORE RETURNDATASIZE DUP3 MSTORE RETURNDATASIZE PUSH1 0x0 PUSH1 0x20 DUP5 ADD RETURNDATACOPY PUSH2 0x5A8 JUMP JUMPDEST PUSH1 0x60 SWAP2 POP JUMPDEST POP SWAP2 POP SWAP2 POP DUP2 ISZERO DUP1 PUSH2 0x5BC JUMPI POP DUP1 MLOAD PUSH1 0x20 EQ ISZERO JUMPDEST DUP1 PUSH2 0x61E JUMPI POP DUP1 MLOAD PUSH32 0xD150751B00000000000000000000000000000000000000000000000000000000 SWAP1 PUSH2 0x5F9 SWAP1 DUP4 ADD PUSH1 0x20 SWAP1 DUP2 ADD SWAP1 DUP5 ADD PUSH2 0x7FB JUMP JUMPDEST PUSH32 0xFFFFFFFF00000000000000000000000000000000000000000000000000000000 AND EQ ISZERO JUMPDEST ISZERO PUSH2 0x635 JUMPI PUSH2 0x635 PUSH2 0x630 DUP6 DUP4 PUSH2 0x63B JUMP JUMPDEST PUSH2 0x6F6 JUMP JUMPDEST POP POP POP POP JUMP JUMPDEST PUSH1 0x60 PUSH32 0xD19D65DF6830E3CB0DA1E12B8E9738E2DC473F830D8AF813BCC031EB5A1675D1 DUP4 DUP4 PUSH1 0x40 MLOAD PUSH1 0x24 ADD PUSH2 0x671 SWAP3 SWAP2 SWAP1 PUSH2 0x8B1 JUMP JUMPDEST PUSH1 0x40 DUP1 MLOAD PUSH32 0xFFFFFFFFFFFFFFFFFFFFFFFFFFFFFFFFFFFFFFFFFFFFFFFFFFFFFFFFFFFFFFE0 DUP2 DUP5 SUB ADD DUP2 MSTORE SWAP2 SWAP1 MSTORE PUSH1 0x20 DUP2 ADD DUP1 MLOAD PUSH28 0xFFFFFFFFFFFFFFFFFFFFFFFFFFFFFFFFFFFFFFFFFFFFFFFFFFFFFFFF AND PUSH32 0xFFFFFFFF00000000000000000000000000000000000000000000000000000000 SWAP1 SWAP4 AND SWAP3 SWAP1 SWAP3 OR SWAP1 SWAP2 MSTORE SWAP1 POP SWAP3 SWAP2 POP POP JUMP JUMPDEST DUP1 MLOAD PUSH1 0x20 DUP3 ADD REVERT JUMPDEST PUSH1 0x0 PUSH1 0x40 DUP3 DUP5 SUB SLT ISZERO PUSH2 0x70F JUMPI DUP1 DUP2 REVERT JUMPDEST PUSH1 0x40 MLOAD PUSH1 0x40 DUP2 ADD DUP2 DUP2 LT PUSH8 0xFFFFFFFFFFFFFFFF DUP3 GT OR ISZERO PUSH2 0x72E JUMPI DUP3 DUP4 REVERT JUMPDEST PUSH1 0x40 MSTORE SWAP1 POP DUP1 DUP3 CALLDATALOAD PUSH2 0x73F DUP2 PUSH2 0x9F7 JUMP JUMPDEST DUP2 MSTORE PUSH1 0x20 DUP4 ADD CALLDATALOAD PUSH2 0x74F DUP2 PUSH2 0x9F7 JUMP JUMPDEST PUSH1 0x20 SWAP2 SWAP1 SWAP2 ADD MSTORE SWAP3 SWAP2 POP POP JUMP JUMPDEST PUSH1 0x0 PUSH1 0x20 DUP3 DUP5 SUB SLT ISZERO PUSH2 0x76D JUMPI DUP1 DUP2 REVERT JUMPDEST DUP2 CALLDATALOAD PUSH2 0x778 DUP2 PUSH2 0x9F7 JUMP JUMPDEST SWAP4 SWAP3 POP POP POP JUMP JUMPDEST PUSH1 0x0 DUP1 PUSH1 0x0 PUSH1 0x80 DUP5 DUP7 SUB SLT ISZERO PUSH2 0x793 JUMPI DUP2 DUP3 REVERT JUMPDEST DUP4 CALLDATALOAD PUSH2 0x79E DUP2 PUSH2 0x9F7 JUMP JUMPDEST SWAP3 POP PUSH1 0x20 DUP5 ADD CALLDATALOAD PUSH2 0x7AE DUP2 PUSH2 0x9F7 JUMP JUMPDEST SWAP2 POP PUSH2 0x7BD DUP6 PUSH1 0x40 DUP7 ADD PUSH2 0x6FE JUMP JUMPDEST SWAP1 POP SWAP3 POP SWAP3 POP SWAP3 JUMP JUMPDEST PUSH1 0x0 DUP1 PUSH1 0x60 DUP4 DUP6 SUB SLT ISZERO PUSH2 0x7D8 JUMPI DUP2 DUP3 REVERT JUMPDEST DUP3 CALLDATALOAD PUSH2 0x7E3 DUP2 PUSH2 0x9F7 JUMP JUMPDEST SWAP2 POP PUSH2 0x7F2 DUP5 PUSH1 0x20 DUP6 ADD PUSH2 0x6FE JUMP JUMPDEST SWAP1 POP SWAP3 POP SWAP3 SWAP1 POP JUMP JUMPDEST PUSH1 0x0 PUSH1 0x20 DUP3 DUP5 SUB SLT ISZERO PUSH2 0x80C JUMPI DUP1 DUP2 REVERT JUMPDEST DUP2 MLOAD PUSH32 0xFFFFFFFF00000000000000000000000000000000000000000000000000000000 DUP2 AND DUP2 EQ PUSH2 0x778 JUMPI DUP2 DUP3 REVERT JUMPDEST PUSH1 0x0 DUP3 MLOAD PUSH2 0x84D DUP2 DUP5 PUSH1 0x20 DUP8 ADD PUSH2 0x9CB JUMP JUMPDEST SWAP2 SWAP1 SWAP2 ADD SWAP3 SWAP2 POP POP JUMP JUMPDEST PUSH20 0xFFFFFFFFFFFFFFFFFFFFFFFFFFFFFFFFFFFFFFFF SWAP2 SWAP1 SWAP2 AND DUP2 MSTORE PUSH1 0x20 ADD SWAP1 JUMP JUMPDEST PUSH20 0xFFFFFFFFFFFFFFFFFFFFFFFFFFFFFFFFFFFFFFFF SWAP3 DUP4 AND DUP2 MSTORE DUP2 MLOAD DUP4 AND PUSH1 0x20 DUP1 DUP4 ADD SWAP2 SWAP1 SWAP2 MSTORE SWAP1 SWAP2 ADD MLOAD SWAP1 SWAP2 AND PUSH1 0x40 DUP3 ADD MSTORE PUSH1 0x60 ADD SWAP1 JUMP JUMPDEST PUSH1 0x0 PUSH20 0xFFFFFFFFFFFFFFFFFFFFFFFFFFFFFFFFFFFFFFFF DUP5 AND DUP3 MSTORE PUSH1 0x40 PUSH1 0x20 DUP4 ADD MSTORE DUP3 MLOAD DUP1 PUSH1 0x40 DUP5 ADD MSTORE PUSH2 0x8EC DUP2 PUSH1 0x60 DUP6 ADD PUSH1 0x20 DUP8 ADD PUSH2 0x9CB JUMP JUMPDEST PUSH1 0x1F ADD PUSH32 0xFFFFFFFFFFFFFFFFFFFFFFFFFFFFFFFFFFFFFFFFFFFFFFFFFFFFFFFFFFFFFFE0 AND SWAP2 SWAP1 SWAP2 ADD PUSH1 0x60 ADD SWAP4 SWAP3 POP POP POP JUMP JUMPDEST PUSH32 0xFFFFFFFF00000000000000000000000000000000000000000000000000000000 SWAP2 SWAP1 SWAP2 AND DUP2 MSTORE PUSH1 0x20 ADD SWAP1 JUMP JUMPDEST PUSH32 0xFFFFFFFF00000000000000000000000000000000000000000000000000000000 SWAP3 SWAP1 SWAP3 AND DUP3 MSTORE PUSH20 0xFFFFFFFFFFFFFFFFFFFFFFFFFFFFFFFFFFFFFFFF AND PUSH1 0x20 DUP3 ADD MSTORE PUSH1 0x40 ADD SWAP1 JUMP JUMPDEST PUSH1 0x20 DUP1 DUP3 MSTORE PUSH1 0x1F SWAP1 DUP3 ADD MSTORE PUSH32 0x496E697469616C4D6967726174696F6E2F494E56414C49445F53454E44455200 PUSH1 0x40 DUP3 ADD MSTORE PUSH1 0x60 ADD SWAP1 JUMP JUMPDEST PUSH1 0x0 JUMPDEST DUP4 DUP2 LT ISZERO PUSH2 0x9E6 JUMPI DUP2 DUP2 ADD MLOAD DUP4 DUP3 ADD MSTORE PUSH1 0x20 ADD PUSH2 0x9CE JUMP JUMPDEST DUP4 DUP2 GT ISZERO PUSH2 0x635 JUMPI POP POP PUSH1 0x0 SWAP2 ADD MSTORE JUMP JUMPDEST PUSH20 0xFFFFFFFFFFFFFFFFFFFFFFFFFFFFFFFFFFFFFFFF DUP2 AND DUP2 EQ PUSH2 0xA19 JUMPI PUSH1 0x0 DUP1 REVERT JUMPDEST POP JUMP INVALID LOG2 PUSH5 0x6970667358 0x22 SLT KECCAK256 LOG1 PUSH16 0x740E3543E464FB7B9EC07EBB663ADE6C 0x4E DUP15 PUSH20 0xC8ADD2A24EA1B0D4D96F6664736F6C634300060C STOP CALLER "
            },
            "methodIdentifiers": {
                "bootstrap(address,(address,address))": "08cf7934",
                "die(address)": "c9353cb5",
                "initializeCaller()": "5f136a4a",
                "initializeZeroEx(address,address,(address,address))": "a23ce6ce"
            }
        }
    },
    "sourceTreeHashHex": "0x168c39849d8b9c0c6fe2db4b39a8f9d0dce6bca6809904f8c7d95cfb85120f58",
    "compiler": {
        "name": "solc",
        "version": "0.6.12+commit.27d51765",
        "settings": {
            "remappings": [
                "@0x/contracts-utils=/Users/michaelzhu/protocol/node_modules/@0x/contracts-utils",
                "@0x/contracts-erc20=/Users/michaelzhu/protocol/contracts/zero-ex/node_modules/@0x/contracts-erc20"
            ],
            "optimizer": {
                "enabled": true,
                "runs": 1000000,
                "details": {
                    "yul": true,
                    "deduplicate": true,
                    "cse": true,
                    "constantOptimizer": true
                }
            },
            "outputSelection": {
                "*": {
                    "*": [
                        "abi",
                        "devdoc",
                        "evm.bytecode.object",
                        "evm.bytecode.sourceMap",
                        "evm.deployedBytecode.object",
                        "evm.deployedBytecode.sourceMap",
                        "evm.methodIdentifiers"
                    ]
                }
            },
            "evmVersion": "istanbul"
        }
    },
    "chains": {}
}