{
    "schemaVersion": "2.0.0",
    "contractName": "MetaTransactionsFeature",
    "compilerOutput": {
        "abi": [
            {
                "inputs": [
                    {
                        "internalType": "address",
                        "name": "zeroExAddress",
                        "type": "address"
                    },
                    {
                        "internalType": "bytes32",
                        "name": "greedyTokensBloomFilter",
                        "type": "bytes32"
                    }
                ],
                "stateMutability": "nonpayable",
                "type": "constructor"
            },
            {
                "anonymous": false,
                "inputs": [
                    {
                        "indexed": false,
                        "internalType": "bytes32",
                        "name": "hash",
                        "type": "bytes32"
                    },
                    {
                        "indexed": true,
                        "internalType": "bytes4",
                        "name": "selector",
                        "type": "bytes4"
                    },
                    {
                        "indexed": false,
                        "internalType": "address",
                        "name": "signer",
                        "type": "address"
                    },
                    {
                        "indexed": false,
                        "internalType": "address",
                        "name": "sender",
                        "type": "address"
                    }
                ],
                "name": "MetaTransactionExecuted",
                "type": "event"
            },
            {
                "inputs": [],
                "name": "EIP712_DOMAIN_SEPARATOR",
                "outputs": [
                    {
                        "internalType": "bytes32",
                        "name": "",
                        "type": "bytes32"
                    }
                ],
                "stateMutability": "view",
                "type": "function"
            },
            {
                "inputs": [],
                "name": "FEATURE_NAME",
                "outputs": [
                    {
                        "internalType": "string",
                        "name": "",
                        "type": "string"
                    }
                ],
                "stateMutability": "view",
                "type": "function"
            },
            {
                "inputs": [],
                "name": "FEATURE_VERSION",
                "outputs": [
                    {
                        "internalType": "uint256",
                        "name": "",
                        "type": "uint256"
                    }
                ],
                "stateMutability": "view",
                "type": "function"
            },
            {
                "inputs": [],
                "name": "GREEDY_TOKENS_BLOOM_FILTER",
                "outputs": [
                    {
                        "internalType": "bytes32",
                        "name": "",
                        "type": "bytes32"
                    }
                ],
                "stateMutability": "view",
                "type": "function"
            },
            {
                "inputs": [],
                "name": "MTX_EIP712_TYPEHASH",
                "outputs": [
                    {
                        "internalType": "bytes32",
                        "name": "",
                        "type": "bytes32"
                    }
                ],
                "stateMutability": "view",
                "type": "function"
            },
            {
                "inputs": [
                    {
                        "components": [
                            {
                                "internalType": "address payable",
                                "name": "signer",
                                "type": "address"
                            },
                            {
                                "internalType": "address",
                                "name": "sender",
                                "type": "address"
                            },
                            {
                                "internalType": "uint256",
                                "name": "minGasPrice",
                                "type": "uint256"
                            },
                            {
                                "internalType": "uint256",
                                "name": "maxGasPrice",
                                "type": "uint256"
                            },
                            {
                                "internalType": "uint256",
                                "name": "expirationTimeSeconds",
                                "type": "uint256"
                            },
                            {
                                "internalType": "uint256",
                                "name": "salt",
                                "type": "uint256"
                            },
                            {
                                "internalType": "bytes",
                                "name": "callData",
                                "type": "bytes"
                            },
                            {
                                "internalType": "uint256",
                                "name": "value",
                                "type": "uint256"
                            },
                            {
                                "internalType": "contract IERC20TokenV06",
                                "name": "feeToken",
                                "type": "address"
                            },
                            {
                                "internalType": "uint256",
                                "name": "feeAmount",
                                "type": "uint256"
                            }
                        ],
                        "internalType": "struct IMetaTransactionsFeature.MetaTransactionData[]",
                        "name": "mtxs",
                        "type": "tuple[]"
                    },
                    {
                        "components": [
                            {
                                "internalType": "enum LibSignature.SignatureType",
                                "name": "signatureType",
                                "type": "uint8"
                            },
                            {
                                "internalType": "uint8",
                                "name": "v",
                                "type": "uint8"
                            },
                            {
                                "internalType": "bytes32",
                                "name": "r",
                                "type": "bytes32"
                            },
                            {
                                "internalType": "bytes32",
                                "name": "s",
                                "type": "bytes32"
                            }
                        ],
                        "internalType": "struct LibSignature.Signature[]",
                        "name": "signatures",
                        "type": "tuple[]"
                    }
                ],
                "name": "batchExecuteMetaTransactions",
                "outputs": [
                    {
                        "internalType": "bytes[]",
                        "name": "returnResults",
                        "type": "bytes[]"
                    }
                ],
                "stateMutability": "payable",
                "type": "function"
            },
            {
                "inputs": [
                    {
                        "components": [
                            {
                                "internalType": "address payable",
                                "name": "signer",
                                "type": "address"
                            },
                            {
                                "internalType": "address",
                                "name": "sender",
                                "type": "address"
                            },
                            {
                                "internalType": "uint256",
                                "name": "minGasPrice",
                                "type": "uint256"
                            },
                            {
                                "internalType": "uint256",
                                "name": "maxGasPrice",
                                "type": "uint256"
                            },
                            {
                                "internalType": "uint256",
                                "name": "expirationTimeSeconds",
                                "type": "uint256"
                            },
                            {
                                "internalType": "uint256",
                                "name": "salt",
                                "type": "uint256"
                            },
                            {
                                "internalType": "bytes",
                                "name": "callData",
                                "type": "bytes"
                            },
                            {
                                "internalType": "uint256",
                                "name": "value",
                                "type": "uint256"
                            },
                            {
                                "internalType": "contract IERC20TokenV06",
                                "name": "feeToken",
                                "type": "address"
                            },
                            {
                                "internalType": "uint256",
                                "name": "feeAmount",
                                "type": "uint256"
                            }
                        ],
                        "internalType": "struct IMetaTransactionsFeature.MetaTransactionData",
                        "name": "mtx",
                        "type": "tuple"
                    },
                    {
                        "components": [
                            {
                                "internalType": "enum LibSignature.SignatureType",
                                "name": "signatureType",
                                "type": "uint8"
                            },
                            {
                                "internalType": "uint8",
                                "name": "v",
                                "type": "uint8"
                            },
                            {
                                "internalType": "bytes32",
                                "name": "r",
                                "type": "bytes32"
                            },
                            {
                                "internalType": "bytes32",
                                "name": "s",
                                "type": "bytes32"
                            }
                        ],
                        "internalType": "struct LibSignature.Signature",
                        "name": "signature",
                        "type": "tuple"
                    }
                ],
                "name": "executeMetaTransaction",
                "outputs": [
                    {
                        "internalType": "bytes",
                        "name": "returnResult",
                        "type": "bytes"
                    }
                ],
                "stateMutability": "payable",
                "type": "function"
            },
            {
                "inputs": [
                    {
                        "components": [
                            {
                                "internalType": "address payable",
                                "name": "signer",
                                "type": "address"
                            },
                            {
                                "internalType": "address",
                                "name": "sender",
                                "type": "address"
                            },
                            {
                                "internalType": "uint256",
                                "name": "minGasPrice",
                                "type": "uint256"
                            },
                            {
                                "internalType": "uint256",
                                "name": "maxGasPrice",
                                "type": "uint256"
                            },
                            {
                                "internalType": "uint256",
                                "name": "expirationTimeSeconds",
                                "type": "uint256"
                            },
                            {
                                "internalType": "uint256",
                                "name": "salt",
                                "type": "uint256"
                            },
                            {
                                "internalType": "bytes",
                                "name": "callData",
                                "type": "bytes"
                            },
                            {
                                "internalType": "uint256",
                                "name": "value",
                                "type": "uint256"
                            },
                            {
                                "internalType": "contract IERC20TokenV06",
                                "name": "feeToken",
                                "type": "address"
                            },
                            {
                                "internalType": "uint256",
                                "name": "feeAmount",
                                "type": "uint256"
                            }
                        ],
                        "internalType": "struct IMetaTransactionsFeature.MetaTransactionData",
                        "name": "mtx",
                        "type": "tuple"
                    }
                ],
                "name": "getMetaTransactionExecutedBlock",
                "outputs": [
                    {
                        "internalType": "uint256",
                        "name": "blockNumber",
                        "type": "uint256"
                    }
                ],
                "stateMutability": "view",
                "type": "function"
            },
            {
                "inputs": [
                    {
                        "components": [
                            {
                                "internalType": "address payable",
                                "name": "signer",
                                "type": "address"
                            },
                            {
                                "internalType": "address",
                                "name": "sender",
                                "type": "address"
                            },
                            {
                                "internalType": "uint256",
                                "name": "minGasPrice",
                                "type": "uint256"
                            },
                            {
                                "internalType": "uint256",
                                "name": "maxGasPrice",
                                "type": "uint256"
                            },
                            {
                                "internalType": "uint256",
                                "name": "expirationTimeSeconds",
                                "type": "uint256"
                            },
                            {
                                "internalType": "uint256",
                                "name": "salt",
                                "type": "uint256"
                            },
                            {
                                "internalType": "bytes",
                                "name": "callData",
                                "type": "bytes"
                            },
                            {
                                "internalType": "uint256",
                                "name": "value",
                                "type": "uint256"
                            },
                            {
                                "internalType": "contract IERC20TokenV06",
                                "name": "feeToken",
                                "type": "address"
                            },
                            {
                                "internalType": "uint256",
                                "name": "feeAmount",
                                "type": "uint256"
                            }
                        ],
                        "internalType": "struct IMetaTransactionsFeature.MetaTransactionData",
                        "name": "mtx",
                        "type": "tuple"
                    }
                ],
                "name": "getMetaTransactionHash",
                "outputs": [
                    {
                        "internalType": "bytes32",
                        "name": "mtxHash",
                        "type": "bytes32"
                    }
                ],
                "stateMutability": "view",
                "type": "function"
            },
            {
                "inputs": [
                    {
                        "internalType": "bytes32",
                        "name": "mtxHash",
                        "type": "bytes32"
                    }
                ],
                "name": "getMetaTransactionHashExecutedBlock",
                "outputs": [
                    {
                        "internalType": "uint256",
                        "name": "blockNumber",
                        "type": "uint256"
                    }
                ],
                "stateMutability": "view",
                "type": "function"
            },
            {
                "inputs": [],
                "name": "migrate",
                "outputs": [
                    {
                        "internalType": "bytes4",
                        "name": "success",
                        "type": "bytes4"
                    }
                ],
                "stateMutability": "nonpayable",
                "type": "function"
            }
        ],
        "devdoc": {
            "details": "MetaTransactions feature.",
            "kind": "dev",
            "methods": {
                "batchExecuteMetaTransactions((address,address,uint256,uint256,uint256,uint256,bytes,uint256,address,uint256)[],(uint8,uint8,bytes32,bytes32)[])": {
                    "details": "Execute multiple meta-transactions.",
                    "params": {
                        "mtxs": "The meta-transactions.",
                        "signatures": "The signature by each respective `mtx.signer`."
                    },
                    "returns": {
                        "returnResults": "The ABI-encoded results of the underlying calls."
                    }
                },
                "executeMetaTransaction((address,address,uint256,uint256,uint256,uint256,bytes,uint256,address,uint256),(uint8,uint8,bytes32,bytes32))": {
                    "details": "Execute a single meta-transaction.",
                    "params": {
                        "mtx": "The meta-transaction.",
                        "signature": "The signature by `mtx.signer`."
                    },
                    "returns": {
                        "returnResult": "The ABI-encoded result of the underlying call."
                    }
                },
                "getMetaTransactionExecutedBlock((address,address,uint256,uint256,uint256,uint256,bytes,uint256,address,uint256))": {
                    "details": "Get the block at which a meta-transaction has been executed.",
                    "params": {
                        "mtx": "The meta-transaction."
                    },
                    "returns": {
                        "blockNumber": "The block height when the meta-transactioin was executed."
                    }
                },
                "getMetaTransactionHash((address,address,uint256,uint256,uint256,uint256,bytes,uint256,address,uint256))": {
                    "details": "Get the EIP712 hash of a meta-transaction.",
                    "params": {
                        "mtx": "The meta-transaction."
                    },
                    "returns": {
                        "mtxHash": "The EIP712 hash of `mtx`."
                    }
                },
                "getMetaTransactionHashExecutedBlock(bytes32)": {
                    "details": "Get the block at which a meta-transaction hash has been executed.",
                    "params": {
                        "mtxHash": "The meta-transaction hash."
                    },
                    "returns": {
                        "blockNumber": "The block height when the meta-transactioin was executed."
                    }
                },
                "migrate()": {
                    "details": "Initialize and register this feature.      Should be delegatecalled by `Migrate.migrate()`.",
                    "returns": {
                        "success": "`LibMigrate.SUCCESS` on success."
                    }
                }
            },
            "stateVariables": {
                "FEATURE_NAME": {
                    "details": "Name of this feature."
                },
                "FEATURE_VERSION": {
                    "details": "Version of this feature."
                },
                "MTX_EIP712_TYPEHASH": {
                    "details": "EIP712 typehash of the `MetaTransactionData` struct."
                }
            },
            "version": 1
        },
        "evm": {
            "bytecode": {
                "linkReferences": {},
                "object": "0x6101206040526200001460018060006200011d565b60e0527fe866282978e74dc892efa3621df30a058ca4d374a338824c0b89f1dfdcb0ea04610100523480156200004957600080fd5b50604051620030fe380380620030fe8339810160408190526200006c916200014f565b3060601b608052604051819083904690620000f4907f8b73c3c69bb8fe3d512ecc4cf759cc79239f7b179b0ffacaa9a75d522b39400f907f9e5dae0addaf20578aeb5d70341d092b53b4e14480ac5726438fd436df7ba427907f06c015bd22b4c69690933c1058878ebdfef31f9aaae40bbe86d8a09fe1b2972c908590879060200162000189565b60408051601f19818403018152919052805160209091012060a052505060c05250620001b59050565b6bffffffff0000000000000000604084901b1667ffffffff00000000602084901b161763ffffffff8216179392505050565b6000806040838503121562000162578182fd5b82516001600160a01b038116811462000179578283fd5b6020939093015192949293505050565b9485526020850193909352604084019190915260608301526001600160a01b0316608082015260a00190565b60805160601c60a05160c05160e05161010051612ef76200020760003980610483528061068e5250806102045250806106b252806117425250806106d65280610ad8525080610a775250612ef76000f3fe6080604052600436106100bc5760003560e01c80638fd3ab8011610074578063d036092d1161004e578063d036092d146101c3578063d925a56d146101d8578063dab400f3146101ed576100bc565b80638fd3ab8014610161578063ae55049714610183578063c5579ec8146101a3576100bc565b80633fb2da38116100a55780633fb2da381461010c5780636ae4b4f71461012c57806372d17d0314610141576100bc565b8063031b905c146100c15780633d61ed3e146100ec575b600080fd5b3480156100cd57600080fd5b506100d6610202565b6040516100e39190612808565b60405180910390f35b6100ff6100fa36600461248a565b610226565b6040516100e39190612a02565b34801561011857600080fd5b506100d661012736600461244f565b610320565b34801561013857600080fd5b506100ff610334565b34801561014d57600080fd5b506100d661015c366004612272565b61036d565b34801561016d57600080fd5b50610176610388565b6040516100e3919061295b565b34801561018f57600080fd5b506100d661019e36600461244f565b61047c565b6101b66101b13660046121c1565b610512565b6040516100e3919061278a565b3480156101cf57600080fd5b506100d661068c565b3480156101e457600080fd5b506100d66106b0565b3480156101f957600080fd5b506100d66106d4565b7f000000000000000000000000000000000000000000000000000000000000000081565b6060600160006102346106f8565b8054909150828116156102965761029661029161028b600080368080601f01602080910402602001604051908101604052809392919081815260200183838082843760009201919091525092939250506107059050565b85610751565b61080c565b821781556102a2611bf0565b338152604081018690526102b58661047c565b6020820152606081018590526102ca81610814565b93505060006102d93447610a1c565b9050801561031057604051339082156108fc029083906000818181858888f1935050505015801561030e573d6000803e3d6000fd5b505b5080549119909116905592915050565b600061032e61015c8361047c565b92915050565b6040518060400160405280601081526020017f4d6574615472616e73616374696f6e730000000000000000000000000000000081525081565b6000610377610a34565b600092835260205250604090205490565b60006103b37f3d61ed3e00000000000000000000000000000000000000000000000000000000610a41565b6103dc7fc5579ec800000000000000000000000000000000000000000000000000000000610a41565b6104057f3fb2da3800000000000000000000000000000000000000000000000000000000610a41565b61042e7f72d17d0300000000000000000000000000000000000000000000000000000000610a41565b6104577fae55049700000000000000000000000000000000000000000000000000000000610a41565b507f2c64c5ef0000000000000000000000000000000000000000000000000000000090565b600061032e7f0000000000000000000000000000000000000000000000000000000000000000836000015184602001518560400151866060015187608001518860a001518960c00151805190602001208a60e001518b61010001518c61012001516040516020016104f79b9a9998979695949392919061283d565b60405160208183030381529060405280519060200120610ad4565b6060600160006105206106f8565b8054909150828116156105775761057761029161028b600080368080601f01602080910402602001604051908101604052809392919081815260200183838082843760009201919091525092939250506107059050565b8217815583518551146105935761059361029186518651610b26565b845167ffffffffffffffff811180156105ab57600080fd5b506040519080825280602002602001820160405280156105df57816020015b60608152602001906001900390816105ca5790505b50925060005b855181101561067f576105f6611bf0565b338152865187908390811061060757fe5b6020026020010151816040018190525061063387838151811061062657fe5b602002602001015161047c565b6020820152855186908390811061064657fe5b6020026020010151816060018190525061065f81610814565b85838151811061066b57fe5b6020908102919091010152506001016105e5565b5060006102d93447610a1c565b7f000000000000000000000000000000000000000000000000000000000000000081565b7f000000000000000000000000000000000000000000000000000000000000000081565b7f000000000000000000000000000000000000000000000000000000000000000081565b60008061032e6006610b5c565b60008160040183511015610726576107266102916003855185600401610b77565b5001602001517fffffffff000000000000000000000000000000000000000000000000000000001690565b60607fc7a7103e21e41a5c3158b3028d34cb9bb9593b10b1892f49d7187efa71219d4e83836040516024016107879291906129d0565b604080517fffffffffffffffffffffffffffffffffffffffffffffffffffffffffffffffe08184030181529190526020810180517bffffffffffffffffffffffffffffffffffffffffffffffffffffffff167fffffffff0000000000000000000000000000000000000000000000000000000090931692909217909152905092915050565b805160208201fd5b606061081f82610c1c565b43610828610a34565b60208085015160009081529190526040908190209190915582015161012001511561086d576040820151610100810151815184516101209093015161086d9390610dfd565b604082015160c00151610881906000610705565b7fffffffff0000000000000000000000000000000000000000000000000000000016608083018190527f415565b00000000000000000000000000000000000000000000000000000000014156108e1576108da8261100e565b90506109a4565b60808201517fffffffff00000000000000000000000000000000000000000000000000000000167ff6274f66000000000000000000000000000000000000000000000000000000001415610938576108da82611215565b60808201517fffffffff00000000000000000000000000000000000000000000000000000000167faa77476c00000000000000000000000000000000000000000000000000000000141561098f576108da82611339565b6109a4610291836020015184608001516113c7565b81608001517bffffffffffffffffffffffffffffffffffffffffffffffffffffffff19167f7f4fe3ff8ae440e1570c558da08440b26f89fb1c1f2910cd91ca6452955f121a8360200151846040015160000151856040015160200151604051610a0f93929190612811565b60405180910390a2919050565b6000818310610a2b5781610a2d565b825b9392505050565b60008061032e6005610b5c565b6040517f6eb224cb0000000000000000000000000000000000000000000000000000000081523090636eb224cb90610a9f9084907f000000000000000000000000000000000000000000000000000000000000000090600401612988565b600060405180830381600087803b158015610ab957600080fd5b505af1158015610acd573d6000803e3d6000fd5b5050505050565b60007f000000000000000000000000000000000000000000000000000000000000000082604051602001610b099291906126db565b604051602081830303815290604052805190602001209050919050565b60607f52974c3a86e985173f72e2fb84ba2bfca8fb3b7c5031eb8077ebd59458abf2a483836040516024016107879291906128fe565b60006080826007811115610b6c57fe5b600101901b92915050565b6060632800659560e01b848484604051602401610b9693929190612a4c565b604080517fffffffffffffffffffffffffffffffffffffffffffffffffffffffffffffffe08184030181529190526020810180517bffffffffffffffffffffffffffffffffffffffffffffffffffffffff167fffffffff000000000000000000000000000000000000000000000000000000009093169290921790915290509392505050565b60408101516020015173ffffffffffffffffffffffffffffffffffffffff1615801590610c815750806000015173ffffffffffffffffffffffffffffffffffffffff1681604001516020015173ffffffffffffffffffffffffffffffffffffffff1614155b15610ca457610ca4610291826020015183600001518460400151602001516113fd565b4281604001516080015111610ccd57610ccd610291826020015142846040015160800151611435565b3a8160400151604001511180610cea57503a816040015160600151105b15610d1257610d1261029182602001513a84604001516040015185604001516060015161146d565b4760a08201819052604082015160e001511115610d4757610d4761029182602001518360a00151846040015160e0015161152e565b80604001516000015173ffffffffffffffffffffffffffffffffffffffff16610d7882602001518360600151611566565b73ffffffffffffffffffffffffffffffffffffffff1614610dbe57610dbe61029160048360200151846040015160000151604051806020016040528060008152506116b7565b610dc6610a34565b6020808301516000908152919052604090205460c0820181905215610dfa57610dfa61029182602001518360c001516116f1565b50565b6000606073ffffffffffffffffffffffffffffffffffffffff8616301415610e5a576040517f08c379a0000000000000000000000000000000000000000000000000000000008152600401610e5190612ac9565b60405180910390fd5b610e6386611727565b15610f37576040517fdd62ed3e000000000000000000000000000000000000000000000000000000008152839073ffffffffffffffffffffffffffffffffffffffff88169063dd62ed3e90610ebe9089903090600401612711565b60206040518083038186803b158015610ed657600080fd5b505afa158015610eea573d6000803e3d6000fd5b505050506040513d601f19601f82011682018060405250810190610f0e91906125ca565b1015610f3757610f308686868660405180602001604052806000815250611767565b5050611008565b6040517f23b872dd00000000000000000000000000000000000000000000000000000000815273ffffffffffffffffffffffffffffffffffffffff8616600482015273ffffffffffffffffffffffffffffffffffffffff85166024820152836044820152600080606483600073ffffffffffffffffffffffffffffffffffffffff8c165af192503d806000602084013e60016020830151146020821015168115178416935083610ff1578082528192508060208301016040525b505081611005576110058686868685611767565b50505b50505050565b6060611018611c37565b604083015160c0015151606090601c0167ffffffffffffffff8111801561103e57600080fd5b506040519080825280601f01601f191660200182016040528015611069576020820181803683370190505b5090506060846040015160c00151905060a08151101561108557fe5b6020828101528051602482019060408401906110c690829084907ffffffffffffffffffffffffffffffffffffffffffffffffffffffffffffffffc0161182f565b838060200190518101906110da919061228a565b945050505050610a2d8360200151636259719260e01b6040518060c0016040528087604001516000015173ffffffffffffffffffffffffffffffffffffffff168152602001856000015173ffffffffffffffffffffffffffffffffffffffff168152602001856020015173ffffffffffffffffffffffffffffffffffffffff1681526020018560400151815260200185606001518152602001856080015181525060405160240161118b9190612d11565b604080517fffffffffffffffffffffffffffffffffffffffffffffffffffffffffffffffe08184030181529181526020820180517bffffffffffffffffffffffffffffffffffffffffffffffffffffffff167fffffffff00000000000000000000000000000000000000000000000000000000909416939093179092529086015160e00151611910565b606061121f611c92565b611227611cf6565b6000606061123c866040015160c0015161199c565b905080806020019051810190611252919061232d565b60208901516040808b015151905194985092965090945061132f9290917f414e4ccf00000000000000000000000000000000000000000000000000000000916112a5918991899189913390602401612b26565b604080517fffffffffffffffffffffffffffffffffffffffffffffffffffffffffffffffe08184030181529181526020820180517bffffffffffffffffffffffffffffffffffffffffffffffffffffffff167fffffffff00000000000000000000000000000000000000000000000000000000909416939093179092529089015160e00151611910565b9695505050505050565b6060611343611d1f565b61134b611cf6565b60006060611360866040015160c0015161199c565b90508080602001905181019061137691906124d7565b60208901516040808b015151905194985092965090945061132f9290917fa656186b00000000000000000000000000000000000000000000000000000000916112a591899189918991602401612c37565b60607f547a32a328d8a78dbe9bf090fa60ba3d4d1c6833a592a2c942666ce3249c121083836040516024016107879291906128a3565b60607fa78002a166fcae5236d89e3ff35c53dadb775f7818de4a020714cba4bf360822848484604051602401610b9693929190612811565b60607fbea726efdf9868bbc5755dce9f13d585b3cf731177be75300d15bb8f5e286158848484604051602401610b969392919061290c565b60607f6fec11a99ebb0ff14b6648f609f57864dadeba8b29869c4df2b3b76894147849858585856040516024016114a79493929190612922565b604080517fffffffffffffffffffffffffffffffffffffffffffffffffffffffffffffffe08184030181529190526020810180517bffffffffffffffffffffffffffffffffffffffffffffffffffffffff167fffffffff00000000000000000000000000000000000000000000000000000000909316929092179091529050949350505050565b60607f0a5ade45208123132815e1591a1c7e64045fd006152f5e85d100aee42ba02c75848484604051602401610b969392919061290c565b60006115728383611a09565b60028251600381111561158157fe5b14156115e957600183836020015184604001518560600151604051600081526020016040526040516115b6949392919061293d565b6020604051602081039080840390855afa1580156115d8573d6000803e3d6000fd5b50505060206040510351905061168e565b6003825160038111156115f857fe5b141561168e5760007f19457468657265756d205369676e6564204d6573736167653a0a33320000000060005283601c52603c60002090506001818460200151856040015186606001516040516000815260200160405260405161165e949392919061293d565b6020604051602081039080840390855afa158015611680573d6000803e3d6000fd5b505050602060405103519150505b73ffffffffffffffffffffffffffffffffffffffff811661032e5761032e610291600585611abd565b60607f4c7607a3ebba99c9acde0e2a04d88829f7001b63f028b796dda6ff02406ddad5858585856040516024016114a79493929190612a85565b60607ffe251a07f3cbffd23c1c1db9ec776d259099c832333d99ef48cacfa93a4d7b3283836040516024016107879291906128fe565b600081815260209020600160ff92831681901b929091161b177f000000000000000000000000000000000000000000000000000000000000000081161490565b6040517f89dd02e700000000000000000000000000000000000000000000000000000000815230906389dd02e7906117a9908890889088908890600401612a15565b600060405180830381600087803b1580156117c357600080fd5b505af19250505080156117d4575060015b610acd573d808015611802576040519150601f19603f3d011682016040523d82523d6000602084013e611807565b606091505b50611829610291878787878751600014156118225786611824565b875b611af3565b50610acd565b6020811015611876578151835160208390036101000a7fffffffffffffffffffffffffffffffffffffffffffffffffffffffffffffffff018019909216911617835261190b565b828214156118835761190b565b828211156118bd5760208103905080820181840181515b828510156118b557845186526020958601959094019361189a565b90525061190b565b60208103905080820181840183515b8186121561190657825182527fffffffffffffffffffffffffffffffffffffffffffffffffffffffffffffffe092830192909101906118cc565b855250505b505050565b606060003073ffffffffffffffffffffffffffffffffffffffff16838560405161193a91906126bf565b60006040518083038185875af1925050503d8060008114611977576040519150601f19603f3d011682016040523d82523d6000602084013e61197c565b606091505b50925090508061199457611994610291868685611bb8565b509392505050565b6060600482510367ffffffffffffffff811180156119b957600080fd5b506040519080825280601f01601f1916602001820160405280156119e4576020820181803683370190505b509050600080602484019150602083019050611a028183855161182f565b5050919050565b60408101517ffffffffffffffffffffffffffffffffebaaedce6af48a03bbfd25e8cd0364141111580611a60575060608101517f7fffffffffffffffffffffffffffffff5d576e7357a4501ddfe92f46681b20a111155b15611a7357611a73610291600584611abd565b600081516003811115611a8257fe5b1415611a9657611a96610291600384611abd565b600181516003811115611aa557fe5b1415611ab957611ab9610291600084611abd565b5050565b60607ff18f11f3027e735c758137924b262d4d3aff0037dcd785aca3c699fa05d960bd8383604051602401610787929190612a6e565b60607fdfdc6f57cf82bede92bcfdd44fedb82b2d5cecabf56ec21964db6ee2c3e82cf48686868686604051602401611b2f959493929190612738565b604080517fffffffffffffffffffffffffffffffffffffffffffffffffffffffffffffffe08184030181529190526020810180517bffffffffffffffffffffffffffffffffffffffffffffffffffffffff167fffffffff000000000000000000000000000000000000000000000000000000009093169290921790915290505b95945050505050565b60607fa9f0c547643c02afed4cf2699e794bc383effca840eed62fddb64a15a4e55bc4848484604051602401610b96939291906128d3565b6040805160e08101825260008082526020820152908101611c0f611d73565b8152602001611c1c611cf6565b81526000602082018190526040820181905260609091015290565b6040518060a00160405280600073ffffffffffffffffffffffffffffffffffffffff168152602001600073ffffffffffffffffffffffffffffffffffffffff1681526020016000815260200160008152602001606081525090565b6040805161018081018252600080825260208201819052918101829052606081018290526080810182905260a0810182905260c0810182905260e0810182905261010081018290526101208101829052610140810182905261016081019190915290565b604080516080810190915280600081526000602082018190526040820181905260609091015290565b6040805161014081018252600080825260208201819052918101829052606081018290526080810182905260a0810182905260c0810182905260e08101829052610100810182905261012081019190915290565b604051806101400160405280600073ffffffffffffffffffffffffffffffffffffffff168152602001600073ffffffffffffffffffffffffffffffffffffffff168152602001600081526020016000815260200160008152602001600081526020016060815260200160008152602001600073ffffffffffffffffffffffffffffffffffffffff168152602001600081525090565b803561032e81612e83565b805161032e81612e83565b600082601f830112611e2e578081fd5b8135611e41611e3c82612deb565b612dc4565b8181529150602080830190848101608080850287018301881015611e6457600080fd5b60005b85811015611e8b57611e7989846120c3565b85529383019391810191600101611e67565b50505050505092915050565b600082601f830112611ea7578081fd5b8151611eb5611e3c82612deb565b818152915060208083019084810160005b84811015611f5c57815187016040807fffffffffffffffffffffffffffffffffffffffffffffffffffffffffffffffe0838c03011215611f0557600080fd5b611f0e81612dc4565b611f1a8b878501612195565b8152908201519067ffffffffffffffff821115611f3657600080fd5b611f448b8784860101611fb5565b81870152865250509282019290820190600101611ec6565b505050505092915050565b600082601f830112611f77578081fd5b8135611f85611e3c82612e0b565b9150808252836020828501011115611f9c57600080fd5b8060208401602084013760009082016020015292915050565b600082601f830112611fc5578081fd5b8151611fd3611e3c82612e0b565b9150808252836020828501011115611fea57600080fd5b611ffb816020840160208601612e4d565b5092915050565b6000610140808385031215612015578182fd5b61201e81612dc4565b91505061202b8383611e08565b815261203a8360208401611e08565b602082015260408201356040820152606082013560608201526080820135608082015260a082013560a082015260c082013567ffffffffffffffff81111561208157600080fd5b61208d84828501611f67565b60c08301525060e082013560e08201526101006120ac84828501611e08565b818301525061012080830135818301525092915050565b6000608082840312156120d4578081fd5b6120de6080612dc4565b905081356120eb81612ea5565b815260208201356120fb81612eb2565b80602083015250604082013560408201526060820135606082015292915050565b60006080828403121561212d578081fd5b6121376080612dc4565b9050815161214481612ea5565b8152602082015161215481612eb2565b80602083015250604082015160408201526060820151606082015292915050565b80516fffffffffffffffffffffffffffffffff8116811461032e57600080fd5b805163ffffffff8116811461032e57600080fd5b805167ffffffffffffffff8116811461032e57600080fd5b600080604083850312156121d3578182fd5b823567ffffffffffffffff808211156121ea578384fd5b818501915085601f8301126121fd578384fd5b813561220b611e3c82612deb565b81815260208082019190858101885b85811015612243576122318c8484358b0101612002565b8552938201939082019060010161221a565b5091975088013594505050508082111561225b578283fd5b5061226885828601611e1e565b9150509250929050565b600060208284031215612283578081fd5b5035919050565b60006020828403121561229b578081fd5b815167ffffffffffffffff808211156122b2578283fd5b9083019060a082860312156122c5578283fd5b6122cf60a0612dc4565b6122d98684611e13565b81526122e88660208501611e13565b60208201526040830151604082015260608301516060820152608083015182811115612312578485fd5b61231e87828601611e97565b60808301525095945050505050565b6000806000838503610220811215612343578182fd5b61018080821215612352578283fd5b61235b81612dc4565b91506123678787611e13565b82526123768760208801611e13565b60208301526123888760408801612175565b604083015261239a8760608801612175565b60608301526123ac8760808801612175565b60808301526123be8760a08801611e13565b60a08301526123d08760c08801611e13565b60c08301526123e28760e08801611e13565b60e08301526101006123f688828901611e13565b908301526101208681015190830152610140612414888289016121a9565b81840152506101608087015181840152508194506124348782880161211c565b93505050612446856102008601612175565b90509250925092565b600060208284031215612460578081fd5b813567ffffffffffffffff811115612476578182fd5b61248284828501612002565b949350505050565b60008060a0838503121561249c578182fd5b823567ffffffffffffffff8111156124b2578283fd5b6124be85828601612002565b9250506124ce84602085016120c3565b90509250929050565b60008060008385036101e08112156124ed578182fd5b610140808212156124fc578283fd5b61250581612dc4565b91506125118787611e13565b82526125208760208801611e13565b60208301526125328760408801612175565b60408301526125448760608801612175565b60608301526125568760808801611e13565b60808301526125688760a08801611e13565b60a083015261257a8760c08801611e13565b60c083015260e086015160e0830152610100612598888289016121a9565b81840152506101208087015181840152508194506125b88782880161211c565b93505050612446856101c08601612175565b6000602082840312156125db578081fd5b5051919050565b600063ffffffff82511683526020820151604060208501526124826040850182612621565b73ffffffffffffffffffffffffffffffffffffffff169052565b60008151808452612639816020860160208601612e4d565b601f017fffffffffffffffffffffffffffffffffffffffffffffffffffffffffffffffe0169290920160200192915050565b80516004811061267757fe5b825260208181015160ff169083015260408082015190830152606090810151910152565b6fffffffffffffffffffffffffffffffff169052565b67ffffffffffffffff169052565b600082516126d1818460208701612e4d565b9190910192915050565b7f190100000000000000000000000000000000000000000000000000000000000081526002810192909252602282015260420190565b73ffffffffffffffffffffffffffffffffffffffff92831681529116602082015260400190565b600073ffffffffffffffffffffffffffffffffffffffff8088168352808716602084015280861660408401525083606083015260a0608083015261277f60a0830184612621565b979650505050505050565b6000602080830181845280855180835260408601915060408482028701019250838701855b828110156127fb577fffffffffffffffffffffffffffffffffffffffffffffffffffffffffffffffc08886030184526127e9858351612621565b945092850192908501906001016127af565b5092979650505050505050565b90815260200190565b92835273ffffffffffffffffffffffffffffffffffffffff918216602084015216604082015260600190565b9a8b5273ffffffffffffffffffffffffffffffffffffffff998a1660208c015297891660408b015260608a0196909652608089019490945260a088019290925260c087015260e08601526101008501529091166101208301526101408201526101600190565b9182527fffffffff0000000000000000000000000000000000000000000000000000000016602082015260400190565b6000848252606060208301526128ec6060830185612621565b828103604084015261132f8185612621565b918252602082015260400190565b9283526020830191909152604082015260600190565b93845260208401929092526040830152606082015260800190565b93845260ff9290921660208401526040830152606082015260800190565b7fffffffff0000000000000000000000000000000000000000000000000000000091909116815260200190565b7fffffffff0000000000000000000000000000000000000000000000000000000092909216825273ffffffffffffffffffffffffffffffffffffffff16602082015260400190565b7fffffffff00000000000000000000000000000000000000000000000000000000929092168252602082015260400190565b600060208252610a2d6020830184612621565b73ffffffffffffffffffffffffffffffffffffffff9485168152928416602084015292166040820152606081019190915260800190565b6060810160088510612a5a57fe5b938152602081019290925260409091015290565b60408101612a7b84612e79565b9281526020015290565b6000612a9086612e79565b85825284602083015273ffffffffffffffffffffffffffffffffffffffff841660408301526080606083015261132f6080830184612621565b60208082526024908201527f466978696e546f6b656e5370656e6465722f43414e4e4f545f494e564f4b455f60408201527f53454c4600000000000000000000000000000000000000000000000000000000606082015260800190565b600061026082019050612b3a828851612607565b6020870151612b4c6020840182612607565b506040870151612b5f604084018261269b565b506060870151612b72606084018261269b565b506080870151612b85608084018261269b565b5060a0870151612b9860a0840182612607565b5060c0870151612bab60c0840182612607565b5060e0870151612bbe60e0840182612607565b5061010080880151612bd282850182612607565b5050610120878101519083015261014080880151612bf2828501826126b1565b50506101608781015190830152612c0d61018083018761266b565b612c1b61020083018661269b565b612c29610220830185612607565b61132f610240830184612607565b600061020082019050612c4b828751612607565b6020860151612c5d6020840182612607565b506040860151612c70604084018261269b565b506060860151612c83606084018261269b565b506080860151612c966080840182612607565b5060a0860151612ca960a0840182612607565b5060c0860151612cbc60c0840182612607565b5060e086015160e083015261010080870151612cda828501826126b1565b50506101208681015190830152612cf561014083018661266b565b612d036101c083018561269b565b611baf6101e0830184612607565b6000602080835260e0830173ffffffffffffffffffffffffffffffffffffffff808651168386015280838701511660408601528060408701511660608601525060608501516080850152608085015160a085015260a085015160c080860152818151612d7d8185612808565b9350918401918391508085028201865b82811015612db7578582038452612da58286516125e2565b94870194938701939150600101612d8d565b5098975050505050505050565b60405181810167ffffffffffffffff81118282101715612de357600080fd5b604052919050565b600067ffffffffffffffff821115612e01578081fd5b5060209081020190565b600067ffffffffffffffff821115612e21578081fd5b50601f017fffffffffffffffffffffffffffffffffffffffffffffffffffffffffffffffe01660200190565b60005b83811015612e68578181015183820152602001612e50565b838111156110085750506000910152565b60068110610dfa57fe5b73ffffffffffffffffffffffffffffffffffffffff81168114610dfa57600080fd5b60048110610dfa57600080fd5b60ff81168114610dfa57600080fdfea26469706673582212207674255d0bc140b6a4d94a61f4b412482233613d8ec887eb2d42f510b030597f64736f6c634300060c0033",
                "opcodes": "PUSH2 0x120 PUSH1 0x40 MSTORE PUSH3 0x14 PUSH1 0x1 DUP1 PUSH1 0x0 PUSH3 0x11D JUMP JUMPDEST PUSH1 0xE0 MSTORE PUSH32 0xE866282978E74DC892EFA3621DF30A058CA4D374A338824C0B89F1DFDCB0EA04 PUSH2 0x100 MSTORE CALLVALUE DUP1 ISZERO PUSH3 0x49 JUMPI PUSH1 0x0 DUP1 REVERT JUMPDEST POP PUSH1 0x40 MLOAD PUSH3 0x30FE CODESIZE SUB DUP1 PUSH3 0x30FE DUP4 CODECOPY DUP2 ADD PUSH1 0x40 DUP2 SWAP1 MSTORE PUSH3 0x6C SWAP2 PUSH3 0x14F JUMP JUMPDEST ADDRESS PUSH1 0x60 SHL PUSH1 0x80 MSTORE PUSH1 0x40 MLOAD DUP2 SWAP1 DUP4 SWAP1 CHAINID SWAP1 PUSH3 0xF4 SWAP1 PUSH32 0x8B73C3C69BB8FE3D512ECC4CF759CC79239F7B179B0FFACAA9A75D522B39400F SWAP1 PUSH32 0x9E5DAE0ADDAF20578AEB5D70341D092B53B4E14480AC5726438FD436DF7BA427 SWAP1 PUSH32 0x6C015BD22B4C69690933C1058878EBDFEF31F9AAAE40BBE86D8A09FE1B2972C SWAP1 DUP6 SWAP1 DUP8 SWAP1 PUSH1 0x20 ADD PUSH3 0x189 JUMP JUMPDEST PUSH1 0x40 DUP1 MLOAD PUSH1 0x1F NOT DUP2 DUP5 SUB ADD DUP2 MSTORE SWAP2 SWAP1 MSTORE DUP1 MLOAD PUSH1 0x20 SWAP1 SWAP2 ADD KECCAK256 PUSH1 0xA0 MSTORE POP POP PUSH1 0xC0 MSTORE POP PUSH3 0x1B5 SWAP1 POP JUMP JUMPDEST PUSH12 0xFFFFFFFF0000000000000000 PUSH1 0x40 DUP5 SWAP1 SHL AND PUSH8 0xFFFFFFFF00000000 PUSH1 0x20 DUP5 SWAP1 SHL AND OR PUSH4 0xFFFFFFFF DUP3 AND OR SWAP4 SWAP3 POP POP POP JUMP JUMPDEST PUSH1 0x0 DUP1 PUSH1 0x40 DUP4 DUP6 SUB SLT ISZERO PUSH3 0x162 JUMPI DUP2 DUP3 REVERT JUMPDEST DUP3 MLOAD PUSH1 0x1 PUSH1 0x1 PUSH1 0xA0 SHL SUB DUP2 AND DUP2 EQ PUSH3 0x179 JUMPI DUP3 DUP4 REVERT JUMPDEST PUSH1 0x20 SWAP4 SWAP1 SWAP4 ADD MLOAD SWAP3 SWAP5 SWAP3 SWAP4 POP POP POP JUMP JUMPDEST SWAP5 DUP6 MSTORE PUSH1 0x20 DUP6 ADD SWAP4 SWAP1 SWAP4 MSTORE PUSH1 0x40 DUP5 ADD SWAP2 SWAP1 SWAP2 MSTORE PUSH1 0x60 DUP4 ADD MSTORE PUSH1 0x1 PUSH1 0x1 PUSH1 0xA0 SHL SUB AND PUSH1 0x80 DUP3 ADD MSTORE PUSH1 0xA0 ADD SWAP1 JUMP JUMPDEST PUSH1 0x80 MLOAD PUSH1 0x60 SHR PUSH1 0xA0 MLOAD PUSH1 0xC0 MLOAD PUSH1 0xE0 MLOAD PUSH2 0x100 MLOAD PUSH2 0x2EF7 PUSH3 0x207 PUSH1 0x0 CODECOPY DUP1 PUSH2 0x483 MSTORE DUP1 PUSH2 0x68E MSTORE POP DUP1 PUSH2 0x204 MSTORE POP DUP1 PUSH2 0x6B2 MSTORE DUP1 PUSH2 0x1742 MSTORE POP DUP1 PUSH2 0x6D6 MSTORE DUP1 PUSH2 0xAD8 MSTORE POP DUP1 PUSH2 0xA77 MSTORE POP PUSH2 0x2EF7 PUSH1 0x0 RETURN INVALID PUSH1 0x80 PUSH1 0x40 MSTORE PUSH1 0x4 CALLDATASIZE LT PUSH2 0xBC JUMPI PUSH1 0x0 CALLDATALOAD PUSH1 0xE0 SHR DUP1 PUSH4 0x8FD3AB80 GT PUSH2 0x74 JUMPI DUP1 PUSH4 0xD036092D GT PUSH2 0x4E JUMPI DUP1 PUSH4 0xD036092D EQ PUSH2 0x1C3 JUMPI DUP1 PUSH4 0xD925A56D EQ PUSH2 0x1D8 JUMPI DUP1 PUSH4 0xDAB400F3 EQ PUSH2 0x1ED JUMPI PUSH2 0xBC JUMP JUMPDEST DUP1 PUSH4 0x8FD3AB80 EQ PUSH2 0x161 JUMPI DUP1 PUSH4 0xAE550497 EQ PUSH2 0x183 JUMPI DUP1 PUSH4 0xC5579EC8 EQ PUSH2 0x1A3 JUMPI PUSH2 0xBC JUMP JUMPDEST DUP1 PUSH4 0x3FB2DA38 GT PUSH2 0xA5 JUMPI DUP1 PUSH4 0x3FB2DA38 EQ PUSH2 0x10C JUMPI DUP1 PUSH4 0x6AE4B4F7 EQ PUSH2 0x12C JUMPI DUP1 PUSH4 0x72D17D03 EQ PUSH2 0x141 JUMPI PUSH2 0xBC JUMP JUMPDEST DUP1 PUSH4 0x31B905C EQ PUSH2 0xC1 JUMPI DUP1 PUSH4 0x3D61ED3E EQ PUSH2 0xEC JUMPI JUMPDEST PUSH1 0x0 DUP1 REVERT JUMPDEST CALLVALUE DUP1 ISZERO PUSH2 0xCD JUMPI PUSH1 0x0 DUP1 REVERT JUMPDEST POP PUSH2 0xD6 PUSH2 0x202 JUMP JUMPDEST PUSH1 0x40 MLOAD PUSH2 0xE3 SWAP2 SWAP1 PUSH2 0x2808 JUMP JUMPDEST PUSH1 0x40 MLOAD DUP1 SWAP2 SUB SWAP1 RETURN JUMPDEST PUSH2 0xFF PUSH2 0xFA CALLDATASIZE PUSH1 0x4 PUSH2 0x248A JUMP JUMPDEST PUSH2 0x226 JUMP JUMPDEST PUSH1 0x40 MLOAD PUSH2 0xE3 SWAP2 SWAP1 PUSH2 0x2A02 JUMP JUMPDEST CALLVALUE DUP1 ISZERO PUSH2 0x118 JUMPI PUSH1 0x0 DUP1 REVERT JUMPDEST POP PUSH2 0xD6 PUSH2 0x127 CALLDATASIZE PUSH1 0x4 PUSH2 0x244F JUMP JUMPDEST PUSH2 0x320 JUMP JUMPDEST CALLVALUE DUP1 ISZERO PUSH2 0x138 JUMPI PUSH1 0x0 DUP1 REVERT JUMPDEST POP PUSH2 0xFF PUSH2 0x334 JUMP JUMPDEST CALLVALUE DUP1 ISZERO PUSH2 0x14D JUMPI PUSH1 0x0 DUP1 REVERT JUMPDEST POP PUSH2 0xD6 PUSH2 0x15C CALLDATASIZE PUSH1 0x4 PUSH2 0x2272 JUMP JUMPDEST PUSH2 0x36D JUMP JUMPDEST CALLVALUE DUP1 ISZERO PUSH2 0x16D JUMPI PUSH1 0x0 DUP1 REVERT JUMPDEST POP PUSH2 0x176 PUSH2 0x388 JUMP JUMPDEST PUSH1 0x40 MLOAD PUSH2 0xE3 SWAP2 SWAP1 PUSH2 0x295B JUMP JUMPDEST CALLVALUE DUP1 ISZERO PUSH2 0x18F JUMPI PUSH1 0x0 DUP1 REVERT JUMPDEST POP PUSH2 0xD6 PUSH2 0x19E CALLDATASIZE PUSH1 0x4 PUSH2 0x244F JUMP JUMPDEST PUSH2 0x47C JUMP JUMPDEST PUSH2 0x1B6 PUSH2 0x1B1 CALLDATASIZE PUSH1 0x4 PUSH2 0x21C1 JUMP JUMPDEST PUSH2 0x512 JUMP JUMPDEST PUSH1 0x40 MLOAD PUSH2 0xE3 SWAP2 SWAP1 PUSH2 0x278A JUMP JUMPDEST CALLVALUE DUP1 ISZERO PUSH2 0x1CF JUMPI PUSH1 0x0 DUP1 REVERT JUMPDEST POP PUSH2 0xD6 PUSH2 0x68C JUMP JUMPDEST CALLVALUE DUP1 ISZERO PUSH2 0x1E4 JUMPI PUSH1 0x0 DUP1 REVERT JUMPDEST POP PUSH2 0xD6 PUSH2 0x6B0 JUMP JUMPDEST CALLVALUE DUP1 ISZERO PUSH2 0x1F9 JUMPI PUSH1 0x0 DUP1 REVERT JUMPDEST POP PUSH2 0xD6 PUSH2 0x6D4 JUMP JUMPDEST PUSH32 0x0 DUP2 JUMP JUMPDEST PUSH1 0x60 PUSH1 0x1 PUSH1 0x0 PUSH2 0x234 PUSH2 0x6F8 JUMP JUMPDEST DUP1 SLOAD SWAP1 SWAP2 POP DUP3 DUP2 AND ISZERO PUSH2 0x296 JUMPI PUSH2 0x296 PUSH2 0x291 PUSH2 0x28B PUSH1 0x0 DUP1 CALLDATASIZE DUP1 DUP1 PUSH1 0x1F ADD PUSH1 0x20 DUP1 SWAP2 DIV MUL PUSH1 0x20 ADD PUSH1 0x40 MLOAD SWAP1 DUP2 ADD PUSH1 0x40 MSTORE DUP1 SWAP4 SWAP3 SWAP2 SWAP1 DUP2 DUP2 MSTORE PUSH1 0x20 ADD DUP4 DUP4 DUP1 DUP3 DUP5 CALLDATACOPY PUSH1 0x0 SWAP3 ADD SWAP2 SWAP1 SWAP2 MSTORE POP SWAP3 SWAP4 SWAP3 POP POP PUSH2 0x705 SWAP1 POP JUMP JUMPDEST DUP6 PUSH2 0x751 JUMP JUMPDEST PUSH2 0x80C JUMP JUMPDEST DUP3 OR DUP2 SSTORE PUSH2 0x2A2 PUSH2 0x1BF0 JUMP JUMPDEST CALLER DUP2 MSTORE PUSH1 0x40 DUP2 ADD DUP7 SWAP1 MSTORE PUSH2 0x2B5 DUP7 PUSH2 0x47C JUMP JUMPDEST PUSH1 0x20 DUP3 ADD MSTORE PUSH1 0x60 DUP2 ADD DUP6 SWAP1 MSTORE PUSH2 0x2CA DUP2 PUSH2 0x814 JUMP JUMPDEST SWAP4 POP POP PUSH1 0x0 PUSH2 0x2D9 CALLVALUE SELFBALANCE PUSH2 0xA1C JUMP JUMPDEST SWAP1 POP DUP1 ISZERO PUSH2 0x310 JUMPI PUSH1 0x40 MLOAD CALLER SWAP1 DUP3 ISZERO PUSH2 0x8FC MUL SWAP1 DUP4 SWAP1 PUSH1 0x0 DUP2 DUP2 DUP2 DUP6 DUP9 DUP9 CALL SWAP4 POP POP POP POP ISZERO DUP1 ISZERO PUSH2 0x30E JUMPI RETURNDATASIZE PUSH1 0x0 DUP1 RETURNDATACOPY RETURNDATASIZE PUSH1 0x0 REVERT JUMPDEST POP JUMPDEST POP DUP1 SLOAD SWAP2 NOT SWAP1 SWAP2 AND SWAP1 SSTORE SWAP3 SWAP2 POP POP JUMP JUMPDEST PUSH1 0x0 PUSH2 0x32E PUSH2 0x15C DUP4 PUSH2 0x47C JUMP JUMPDEST SWAP3 SWAP2 POP POP JUMP JUMPDEST PUSH1 0x40 MLOAD DUP1 PUSH1 0x40 ADD PUSH1 0x40 MSTORE DUP1 PUSH1 0x10 DUP2 MSTORE PUSH1 0x20 ADD PUSH32 0x4D6574615472616E73616374696F6E7300000000000000000000000000000000 DUP2 MSTORE POP DUP2 JUMP JUMPDEST PUSH1 0x0 PUSH2 0x377 PUSH2 0xA34 JUMP JUMPDEST PUSH1 0x0 SWAP3 DUP4 MSTORE PUSH1 0x20 MSTORE POP PUSH1 0x40 SWAP1 KECCAK256 SLOAD SWAP1 JUMP JUMPDEST PUSH1 0x0 PUSH2 0x3B3 PUSH32 0x3D61ED3E00000000000000000000000000000000000000000000000000000000 PUSH2 0xA41 JUMP JUMPDEST PUSH2 0x3DC PUSH32 0xC5579EC800000000000000000000000000000000000000000000000000000000 PUSH2 0xA41 JUMP JUMPDEST PUSH2 0x405 PUSH32 0x3FB2DA3800000000000000000000000000000000000000000000000000000000 PUSH2 0xA41 JUMP JUMPDEST PUSH2 0x42E PUSH32 0x72D17D0300000000000000000000000000000000000000000000000000000000 PUSH2 0xA41 JUMP JUMPDEST PUSH2 0x457 PUSH32 0xAE55049700000000000000000000000000000000000000000000000000000000 PUSH2 0xA41 JUMP JUMPDEST POP PUSH32 0x2C64C5EF00000000000000000000000000000000000000000000000000000000 SWAP1 JUMP JUMPDEST PUSH1 0x0 PUSH2 0x32E PUSH32 0x0 DUP4 PUSH1 0x0 ADD MLOAD DUP5 PUSH1 0x20 ADD MLOAD DUP6 PUSH1 0x40 ADD MLOAD DUP7 PUSH1 0x60 ADD MLOAD DUP8 PUSH1 0x80 ADD MLOAD DUP9 PUSH1 0xA0 ADD MLOAD DUP10 PUSH1 0xC0 ADD MLOAD DUP1 MLOAD SWAP1 PUSH1 0x20 ADD KECCAK256 DUP11 PUSH1 0xE0 ADD MLOAD DUP12 PUSH2 0x100 ADD MLOAD DUP13 PUSH2 0x120 ADD MLOAD PUSH1 0x40 MLOAD PUSH1 0x20 ADD PUSH2 0x4F7 SWAP12 SWAP11 SWAP10 SWAP9 SWAP8 SWAP7 SWAP6 SWAP5 SWAP4 SWAP3 SWAP2 SWAP1 PUSH2 0x283D JUMP JUMPDEST PUSH1 0x40 MLOAD PUSH1 0x20 DUP2 DUP4 SUB SUB DUP2 MSTORE SWAP1 PUSH1 0x40 MSTORE DUP1 MLOAD SWAP1 PUSH1 0x20 ADD KECCAK256 PUSH2 0xAD4 JUMP JUMPDEST PUSH1 0x60 PUSH1 0x1 PUSH1 0x0 PUSH2 0x520 PUSH2 0x6F8 JUMP JUMPDEST DUP1 SLOAD SWAP1 SWAP2 POP DUP3 DUP2 AND ISZERO PUSH2 0x577 JUMPI PUSH2 0x577 PUSH2 0x291 PUSH2 0x28B PUSH1 0x0 DUP1 CALLDATASIZE DUP1 DUP1 PUSH1 0x1F ADD PUSH1 0x20 DUP1 SWAP2 DIV MUL PUSH1 0x20 ADD PUSH1 0x40 MLOAD SWAP1 DUP2 ADD PUSH1 0x40 MSTORE DUP1 SWAP4 SWAP3 SWAP2 SWAP1 DUP2 DUP2 MSTORE PUSH1 0x20 ADD DUP4 DUP4 DUP1 DUP3 DUP5 CALLDATACOPY PUSH1 0x0 SWAP3 ADD SWAP2 SWAP1 SWAP2 MSTORE POP SWAP3 SWAP4 SWAP3 POP POP PUSH2 0x705 SWAP1 POP JUMP JUMPDEST DUP3 OR DUP2 SSTORE DUP4 MLOAD DUP6 MLOAD EQ PUSH2 0x593 JUMPI PUSH2 0x593 PUSH2 0x291 DUP7 MLOAD DUP7 MLOAD PUSH2 0xB26 JUMP JUMPDEST DUP5 MLOAD PUSH8 0xFFFFFFFFFFFFFFFF DUP2 GT DUP1 ISZERO PUSH2 0x5AB JUMPI PUSH1 0x0 DUP1 REVERT JUMPDEST POP PUSH1 0x40 MLOAD SWAP1 DUP1 DUP3 MSTORE DUP1 PUSH1 0x20 MUL PUSH1 0x20 ADD DUP3 ADD PUSH1 0x40 MSTORE DUP1 ISZERO PUSH2 0x5DF JUMPI DUP2 PUSH1 0x20 ADD JUMPDEST PUSH1 0x60 DUP2 MSTORE PUSH1 0x20 ADD SWAP1 PUSH1 0x1 SWAP1 SUB SWAP1 DUP2 PUSH2 0x5CA JUMPI SWAP1 POP JUMPDEST POP SWAP3 POP PUSH1 0x0 JUMPDEST DUP6 MLOAD DUP2 LT ISZERO PUSH2 0x67F JUMPI PUSH2 0x5F6 PUSH2 0x1BF0 JUMP JUMPDEST CALLER DUP2 MSTORE DUP7 MLOAD DUP8 SWAP1 DUP4 SWAP1 DUP2 LT PUSH2 0x607 JUMPI INVALID JUMPDEST PUSH1 0x20 MUL PUSH1 0x20 ADD ADD MLOAD DUP2 PUSH1 0x40 ADD DUP2 SWAP1 MSTORE POP PUSH2 0x633 DUP8 DUP4 DUP2 MLOAD DUP2 LT PUSH2 0x626 JUMPI INVALID JUMPDEST PUSH1 0x20 MUL PUSH1 0x20 ADD ADD MLOAD PUSH2 0x47C JUMP JUMPDEST PUSH1 0x20 DUP3 ADD MSTORE DUP6 MLOAD DUP7 SWAP1 DUP4 SWAP1 DUP2 LT PUSH2 0x646 JUMPI INVALID JUMPDEST PUSH1 0x20 MUL PUSH1 0x20 ADD ADD MLOAD DUP2 PUSH1 0x60 ADD DUP2 SWAP1 MSTORE POP PUSH2 0x65F DUP2 PUSH2 0x814 JUMP JUMPDEST DUP6 DUP4 DUP2 MLOAD DUP2 LT PUSH2 0x66B JUMPI INVALID JUMPDEST PUSH1 0x20 SWAP1 DUP2 MUL SWAP2 SWAP1 SWAP2 ADD ADD MSTORE POP PUSH1 0x1 ADD PUSH2 0x5E5 JUMP JUMPDEST POP PUSH1 0x0 PUSH2 0x2D9 CALLVALUE SELFBALANCE PUSH2 0xA1C JUMP JUMPDEST PUSH32 0x0 DUP2 JUMP JUMPDEST PUSH32 0x0 DUP2 JUMP JUMPDEST PUSH32 0x0 DUP2 JUMP JUMPDEST PUSH1 0x0 DUP1 PUSH2 0x32E PUSH1 0x6 PUSH2 0xB5C JUMP JUMPDEST PUSH1 0x0 DUP2 PUSH1 0x4 ADD DUP4 MLOAD LT ISZERO PUSH2 0x726 JUMPI PUSH2 0x726 PUSH2 0x291 PUSH1 0x3 DUP6 MLOAD DUP6 PUSH1 0x4 ADD PUSH2 0xB77 JUMP JUMPDEST POP ADD PUSH1 0x20 ADD MLOAD PUSH32 0xFFFFFFFF00000000000000000000000000000000000000000000000000000000 AND SWAP1 JUMP JUMPDEST PUSH1 0x60 PUSH32 0xC7A7103E21E41A5C3158B3028D34CB9BB9593B10B1892F49D7187EFA71219D4E DUP4 DUP4 PUSH1 0x40 MLOAD PUSH1 0x24 ADD PUSH2 0x787 SWAP3 SWAP2 SWAP1 PUSH2 0x29D0 JUMP JUMPDEST PUSH1 0x40 DUP1 MLOAD PUSH32 0xFFFFFFFFFFFFFFFFFFFFFFFFFFFFFFFFFFFFFFFFFFFFFFFFFFFFFFFFFFFFFFE0 DUP2 DUP5 SUB ADD DUP2 MSTORE SWAP2 SWAP1 MSTORE PUSH1 0x20 DUP2 ADD DUP1 MLOAD PUSH28 0xFFFFFFFFFFFFFFFFFFFFFFFFFFFFFFFFFFFFFFFFFFFFFFFFFFFFFFFF AND PUSH32 0xFFFFFFFF00000000000000000000000000000000000000000000000000000000 SWAP1 SWAP4 AND SWAP3 SWAP1 SWAP3 OR SWAP1 SWAP2 MSTORE SWAP1 POP SWAP3 SWAP2 POP POP JUMP JUMPDEST DUP1 MLOAD PUSH1 0x20 DUP3 ADD REVERT JUMPDEST PUSH1 0x60 PUSH2 0x81F DUP3 PUSH2 0xC1C JUMP JUMPDEST NUMBER PUSH2 0x828 PUSH2 0xA34 JUMP JUMPDEST PUSH1 0x20 DUP1 DUP6 ADD MLOAD PUSH1 0x0 SWAP1 DUP2 MSTORE SWAP2 SWAP1 MSTORE PUSH1 0x40 SWAP1 DUP2 SWAP1 KECCAK256 SWAP2 SWAP1 SWAP2 SSTORE DUP3 ADD MLOAD PUSH2 0x120 ADD MLOAD ISZERO PUSH2 0x86D JUMPI PUSH1 0x40 DUP3 ADD MLOAD PUSH2 0x100 DUP2 ADD MLOAD DUP2 MLOAD DUP5 MLOAD PUSH2 0x120 SWAP1 SWAP4 ADD MLOAD PUSH2 0x86D SWAP4 SWAP1 PUSH2 0xDFD JUMP JUMPDEST PUSH1 0x40 DUP3 ADD MLOAD PUSH1 0xC0 ADD MLOAD PUSH2 0x881 SWAP1 PUSH1 0x0 PUSH2 0x705 JUMP JUMPDEST PUSH32 0xFFFFFFFF00000000000000000000000000000000000000000000000000000000 AND PUSH1 0x80 DUP4 ADD DUP2 SWAP1 MSTORE PUSH32 0x415565B000000000000000000000000000000000000000000000000000000000 EQ ISZERO PUSH2 0x8E1 JUMPI PUSH2 0x8DA DUP3 PUSH2 0x100E JUMP JUMPDEST SWAP1 POP PUSH2 0x9A4 JUMP JUMPDEST PUSH1 0x80 DUP3 ADD MLOAD PUSH32 0xFFFFFFFF00000000000000000000000000000000000000000000000000000000 AND PUSH32 0xF6274F6600000000000000000000000000000000000000000000000000000000 EQ ISZERO PUSH2 0x938 JUMPI PUSH2 0x8DA DUP3 PUSH2 0x1215 JUMP JUMPDEST PUSH1 0x80 DUP3 ADD MLOAD PUSH32 0xFFFFFFFF00000000000000000000000000000000000000000000000000000000 AND PUSH32 0xAA77476C00000000000000000000000000000000000000000000000000000000 EQ ISZERO PUSH2 0x98F JUMPI PUSH2 0x8DA DUP3 PUSH2 0x1339 JUMP JUMPDEST PUSH2 0x9A4 PUSH2 0x291 DUP4 PUSH1 0x20 ADD MLOAD DUP5 PUSH1 0x80 ADD MLOAD PUSH2 0x13C7 JUMP JUMPDEST DUP2 PUSH1 0x80 ADD MLOAD PUSH28 0xFFFFFFFFFFFFFFFFFFFFFFFFFFFFFFFFFFFFFFFFFFFFFFFFFFFFFFFF NOT AND PUSH32 0x7F4FE3FF8AE440E1570C558DA08440B26F89FB1C1F2910CD91CA6452955F121A DUP4 PUSH1 0x20 ADD MLOAD DUP5 PUSH1 0x40 ADD MLOAD PUSH1 0x0 ADD MLOAD DUP6 PUSH1 0x40 ADD MLOAD PUSH1 0x20 ADD MLOAD PUSH1 0x40 MLOAD PUSH2 0xA0F SWAP4 SWAP3 SWAP2 SWAP1 PUSH2 0x2811 JUMP JUMPDEST PUSH1 0x40 MLOAD DUP1 SWAP2 SUB SWAP1 LOG2 SWAP2 SWAP1 POP JUMP JUMPDEST PUSH1 0x0 DUP2 DUP4 LT PUSH2 0xA2B JUMPI DUP2 PUSH2 0xA2D JUMP JUMPDEST DUP3 JUMPDEST SWAP4 SWAP3 POP POP POP JUMP JUMPDEST PUSH1 0x0 DUP1 PUSH2 0x32E PUSH1 0x5 PUSH2 0xB5C JUMP JUMPDEST PUSH1 0x40 MLOAD PUSH32 0x6EB224CB00000000000000000000000000000000000000000000000000000000 DUP2 MSTORE ADDRESS SWAP1 PUSH4 0x6EB224CB SWAP1 PUSH2 0xA9F SWAP1 DUP5 SWAP1 PUSH32 0x0 SWAP1 PUSH1 0x4 ADD PUSH2 0x2988 JUMP JUMPDEST PUSH1 0x0 PUSH1 0x40 MLOAD DUP1 DUP4 SUB DUP2 PUSH1 0x0 DUP8 DUP1 EXTCODESIZE ISZERO DUP1 ISZERO PUSH2 0xAB9 JUMPI PUSH1 0x0 DUP1 REVERT JUMPDEST POP GAS CALL ISZERO DUP1 ISZERO PUSH2 0xACD JUMPI RETURNDATASIZE PUSH1 0x0 DUP1 RETURNDATACOPY RETURNDATASIZE PUSH1 0x0 REVERT JUMPDEST POP POP POP POP POP JUMP JUMPDEST PUSH1 0x0 PUSH32 0x0 DUP3 PUSH1 0x40 MLOAD PUSH1 0x20 ADD PUSH2 0xB09 SWAP3 SWAP2 SWAP1 PUSH2 0x26DB JUMP JUMPDEST PUSH1 0x40 MLOAD PUSH1 0x20 DUP2 DUP4 SUB SUB DUP2 MSTORE SWAP1 PUSH1 0x40 MSTORE DUP1 MLOAD SWAP1 PUSH1 0x20 ADD KECCAK256 SWAP1 POP SWAP2 SWAP1 POP JUMP JUMPDEST PUSH1 0x60 PUSH32 0x52974C3A86E985173F72E2FB84BA2BFCA8FB3B7C5031EB8077EBD59458ABF2A4 DUP4 DUP4 PUSH1 0x40 MLOAD PUSH1 0x24 ADD PUSH2 0x787 SWAP3 SWAP2 SWAP1 PUSH2 0x28FE JUMP JUMPDEST PUSH1 0x0 PUSH1 0x80 DUP3 PUSH1 0x7 DUP2 GT ISZERO PUSH2 0xB6C JUMPI INVALID JUMPDEST PUSH1 0x1 ADD SWAP1 SHL SWAP3 SWAP2 POP POP JUMP JUMPDEST PUSH1 0x60 PUSH4 0x28006595 PUSH1 0xE0 SHL DUP5 DUP5 DUP5 PUSH1 0x40 MLOAD PUSH1 0x24 ADD PUSH2 0xB96 SWAP4 SWAP3 SWAP2 SWAP1 PUSH2 0x2A4C JUMP JUMPDEST PUSH1 0x40 DUP1 MLOAD PUSH32 0xFFFFFFFFFFFFFFFFFFFFFFFFFFFFFFFFFFFFFFFFFFFFFFFFFFFFFFFFFFFFFFE0 DUP2 DUP5 SUB ADD DUP2 MSTORE SWAP2 SWAP1 MSTORE PUSH1 0x20 DUP2 ADD DUP1 MLOAD PUSH28 0xFFFFFFFFFFFFFFFFFFFFFFFFFFFFFFFFFFFFFFFFFFFFFFFFFFFFFFFF AND PUSH32 0xFFFFFFFF00000000000000000000000000000000000000000000000000000000 SWAP1 SWAP4 AND SWAP3 SWAP1 SWAP3 OR SWAP1 SWAP2 MSTORE SWAP1 POP SWAP4 SWAP3 POP POP POP JUMP JUMPDEST PUSH1 0x40 DUP2 ADD MLOAD PUSH1 0x20 ADD MLOAD PUSH20 0xFFFFFFFFFFFFFFFFFFFFFFFFFFFFFFFFFFFFFFFF AND ISZERO DUP1 ISZERO SWAP1 PUSH2 0xC81 JUMPI POP DUP1 PUSH1 0x0 ADD MLOAD PUSH20 0xFFFFFFFFFFFFFFFFFFFFFFFFFFFFFFFFFFFFFFFF AND DUP2 PUSH1 0x40 ADD MLOAD PUSH1 0x20 ADD MLOAD PUSH20 0xFFFFFFFFFFFFFFFFFFFFFFFFFFFFFFFFFFFFFFFF AND EQ ISZERO JUMPDEST ISZERO PUSH2 0xCA4 JUMPI PUSH2 0xCA4 PUSH2 0x291 DUP3 PUSH1 0x20 ADD MLOAD DUP4 PUSH1 0x0 ADD MLOAD DUP5 PUSH1 0x40 ADD MLOAD PUSH1 0x20 ADD MLOAD PUSH2 0x13FD JUMP JUMPDEST TIMESTAMP DUP2 PUSH1 0x40 ADD MLOAD PUSH1 0x80 ADD MLOAD GT PUSH2 0xCCD JUMPI PUSH2 0xCCD PUSH2 0x291 DUP3 PUSH1 0x20 ADD MLOAD TIMESTAMP DUP5 PUSH1 0x40 ADD MLOAD PUSH1 0x80 ADD MLOAD PUSH2 0x1435 JUMP JUMPDEST GASPRICE DUP2 PUSH1 0x40 ADD MLOAD PUSH1 0x40 ADD MLOAD GT DUP1 PUSH2 0xCEA JUMPI POP GASPRICE DUP2 PUSH1 0x40 ADD MLOAD PUSH1 0x60 ADD MLOAD LT JUMPDEST ISZERO PUSH2 0xD12 JUMPI PUSH2 0xD12 PUSH2 0x291 DUP3 PUSH1 0x20 ADD MLOAD GASPRICE DUP5 PUSH1 0x40 ADD MLOAD PUSH1 0x40 ADD MLOAD DUP6 PUSH1 0x40 ADD MLOAD PUSH1 0x60 ADD MLOAD PUSH2 0x146D JUMP JUMPDEST SELFBALANCE PUSH1 0xA0 DUP3 ADD DUP2 SWAP1 MSTORE PUSH1 0x40 DUP3 ADD MLOAD PUSH1 0xE0 ADD MLOAD GT ISZERO PUSH2 0xD47 JUMPI PUSH2 0xD47 PUSH2 0x291 DUP3 PUSH1 0x20 ADD MLOAD DUP4 PUSH1 0xA0 ADD MLOAD DUP5 PUSH1 0x40 ADD MLOAD PUSH1 0xE0 ADD MLOAD PUSH2 0x152E JUMP JUMPDEST DUP1 PUSH1 0x40 ADD MLOAD PUSH1 0x0 ADD MLOAD PUSH20 0xFFFFFFFFFFFFFFFFFFFFFFFFFFFFFFFFFFFFFFFF AND PUSH2 0xD78 DUP3 PUSH1 0x20 ADD MLOAD DUP4 PUSH1 0x60 ADD MLOAD PUSH2 0x1566 JUMP JUMPDEST PUSH20 0xFFFFFFFFFFFFFFFFFFFFFFFFFFFFFFFFFFFFFFFF AND EQ PUSH2 0xDBE JUMPI PUSH2 0xDBE PUSH2 0x291 PUSH1 0x4 DUP4 PUSH1 0x20 ADD MLOAD DUP5 PUSH1 0x40 ADD MLOAD PUSH1 0x0 ADD MLOAD PUSH1 0x40 MLOAD DUP1 PUSH1 0x20 ADD PUSH1 0x40 MSTORE DUP1 PUSH1 0x0 DUP2 MSTORE POP PUSH2 0x16B7 JUMP JUMPDEST PUSH2 0xDC6 PUSH2 0xA34 JUMP JUMPDEST PUSH1 0x20 DUP1 DUP4 ADD MLOAD PUSH1 0x0 SWAP1 DUP2 MSTORE SWAP2 SWAP1 MSTORE PUSH1 0x40 SWAP1 KECCAK256 SLOAD PUSH1 0xC0 DUP3 ADD DUP2 SWAP1 MSTORE ISZERO PUSH2 0xDFA JUMPI PUSH2 0xDFA PUSH2 0x291 DUP3 PUSH1 0x20 ADD MLOAD DUP4 PUSH1 0xC0 ADD MLOAD PUSH2 0x16F1 JUMP JUMPDEST POP JUMP JUMPDEST PUSH1 0x0 PUSH1 0x60 PUSH20 0xFFFFFFFFFFFFFFFFFFFFFFFFFFFFFFFFFFFFFFFF DUP7 AND ADDRESS EQ ISZERO PUSH2 0xE5A JUMPI PUSH1 0x40 MLOAD PUSH32 0x8C379A000000000000000000000000000000000000000000000000000000000 DUP2 MSTORE PUSH1 0x4 ADD PUSH2 0xE51 SWAP1 PUSH2 0x2AC9 JUMP JUMPDEST PUSH1 0x40 MLOAD DUP1 SWAP2 SUB SWAP1 REVERT JUMPDEST PUSH2 0xE63 DUP7 PUSH2 0x1727 JUMP JUMPDEST ISZERO PUSH2 0xF37 JUMPI PUSH1 0x40 MLOAD PUSH32 0xDD62ED3E00000000000000000000000000000000000000000000000000000000 DUP2 MSTORE DUP4 SWAP1 PUSH20 0xFFFFFFFFFFFFFFFFFFFFFFFFFFFFFFFFFFFFFFFF DUP9 AND SWAP1 PUSH4 0xDD62ED3E SWAP1 PUSH2 0xEBE SWAP1 DUP10 SWAP1 ADDRESS SWAP1 PUSH1 0x4 ADD PUSH2 0x2711 JUMP JUMPDEST PUSH1 0x20 PUSH1 0x40 MLOAD DUP1 DUP4 SUB DUP2 DUP7 DUP1 EXTCODESIZE ISZERO DUP1 ISZERO PUSH2 0xED6 JUMPI PUSH1 0x0 DUP1 REVERT JUMPDEST POP GAS STATICCALL ISZERO DUP1 ISZERO PUSH2 0xEEA JUMPI RETURNDATASIZE PUSH1 0x0 DUP1 RETURNDATACOPY RETURNDATASIZE PUSH1 0x0 REVERT JUMPDEST POP POP POP POP PUSH1 0x40 MLOAD RETURNDATASIZE PUSH1 0x1F NOT PUSH1 0x1F DUP3 ADD AND DUP3 ADD DUP1 PUSH1 0x40 MSTORE POP DUP2 ADD SWAP1 PUSH2 0xF0E SWAP2 SWAP1 PUSH2 0x25CA JUMP JUMPDEST LT ISZERO PUSH2 0xF37 JUMPI PUSH2 0xF30 DUP7 DUP7 DUP7 DUP7 PUSH1 0x40 MLOAD DUP1 PUSH1 0x20 ADD PUSH1 0x40 MSTORE DUP1 PUSH1 0x0 DUP2 MSTORE POP PUSH2 0x1767 JUMP JUMPDEST POP POP PUSH2 0x1008 JUMP JUMPDEST PUSH1 0x40 MLOAD PUSH32 0x23B872DD00000000000000000000000000000000000000000000000000000000 DUP2 MSTORE PUSH20 0xFFFFFFFFFFFFFFFFFFFFFFFFFFFFFFFFFFFFFFFF DUP7 AND PUSH1 0x4 DUP3 ADD MSTORE PUSH20 0xFFFFFFFFFFFFFFFFFFFFFFFFFFFFFFFFFFFFFFFF DUP6 AND PUSH1 0x24 DUP3 ADD MSTORE DUP4 PUSH1 0x44 DUP3 ADD MSTORE PUSH1 0x0 DUP1 PUSH1 0x64 DUP4 PUSH1 0x0 PUSH20 0xFFFFFFFFFFFFFFFFFFFFFFFFFFFFFFFFFFFFFFFF DUP13 AND GAS CALL SWAP3 POP RETURNDATASIZE DUP1 PUSH1 0x0 PUSH1 0x20 DUP5 ADD RETURNDATACOPY PUSH1 0x1 PUSH1 0x20 DUP4 ADD MLOAD EQ PUSH1 0x20 DUP3 LT ISZERO AND DUP2 ISZERO OR DUP5 AND SWAP4 POP DUP4 PUSH2 0xFF1 JUMPI DUP1 DUP3 MSTORE DUP2 SWAP3 POP DUP1 PUSH1 0x20 DUP4 ADD ADD PUSH1 0x40 MSTORE JUMPDEST POP POP DUP2 PUSH2 0x1005 JUMPI PUSH2 0x1005 DUP7 DUP7 DUP7 DUP7 DUP6 PUSH2 0x1767 JUMP JUMPDEST POP POP JUMPDEST POP POP POP POP JUMP JUMPDEST PUSH1 0x60 PUSH2 0x1018 PUSH2 0x1C37 JUMP JUMPDEST PUSH1 0x40 DUP4 ADD MLOAD PUSH1 0xC0 ADD MLOAD MLOAD PUSH1 0x60 SWAP1 PUSH1 0x1C ADD PUSH8 0xFFFFFFFFFFFFFFFF DUP2 GT DUP1 ISZERO PUSH2 0x103E JUMPI PUSH1 0x0 DUP1 REVERT JUMPDEST POP PUSH1 0x40 MLOAD SWAP1 DUP1 DUP3 MSTORE DUP1 PUSH1 0x1F ADD PUSH1 0x1F NOT AND PUSH1 0x20 ADD DUP3 ADD PUSH1 0x40 MSTORE DUP1 ISZERO PUSH2 0x1069 JUMPI PUSH1 0x20 DUP3 ADD DUP2 DUP1 CALLDATASIZE DUP4 CALLDATACOPY ADD SWAP1 POP JUMPDEST POP SWAP1 POP PUSH1 0x60 DUP5 PUSH1 0x40 ADD MLOAD PUSH1 0xC0 ADD MLOAD SWAP1 POP PUSH1 0xA0 DUP2 MLOAD LT ISZERO PUSH2 0x1085 JUMPI INVALID JUMPDEST PUSH1 0x20 DUP3 DUP2 ADD MSTORE DUP1 MLOAD PUSH1 0x24 DUP3 ADD SWAP1 PUSH1 0x40 DUP5 ADD SWAP1 PUSH2 0x10C6 SWAP1 DUP3 SWAP1 DUP5 SWAP1 PUSH32 0xFFFFFFFFFFFFFFFFFFFFFFFFFFFFFFFFFFFFFFFFFFFFFFFFFFFFFFFFFFFFFFFC ADD PUSH2 0x182F JUMP JUMPDEST DUP4 DUP1 PUSH1 0x20 ADD SWAP1 MLOAD DUP2 ADD SWAP1 PUSH2 0x10DA SWAP2 SWAP1 PUSH2 0x228A JUMP JUMPDEST SWAP5 POP POP POP POP POP PUSH2 0xA2D DUP4 PUSH1 0x20 ADD MLOAD PUSH4 0x62597192 PUSH1 0xE0 SHL PUSH1 0x40 MLOAD DUP1 PUSH1 0xC0 ADD PUSH1 0x40 MSTORE DUP1 DUP8 PUSH1 0x40 ADD MLOAD PUSH1 0x0 ADD MLOAD PUSH20 0xFFFFFFFFFFFFFFFFFFFFFFFFFFFFFFFFFFFFFFFF AND DUP2 MSTORE PUSH1 0x20 ADD DUP6 PUSH1 0x0 ADD MLOAD PUSH20 0xFFFFFFFFFFFFFFFFFFFFFFFFFFFFFFFFFFFFFFFF AND DUP2 MSTORE PUSH1 0x20 ADD DUP6 PUSH1 0x20 ADD MLOAD PUSH20 0xFFFFFFFFFFFFFFFFFFFFFFFFFFFFFFFFFFFFFFFF AND DUP2 MSTORE PUSH1 0x20 ADD DUP6 PUSH1 0x40 ADD MLOAD DUP2 MSTORE PUSH1 0x20 ADD DUP6 PUSH1 0x60 ADD MLOAD DUP2 MSTORE PUSH1 0x20 ADD DUP6 PUSH1 0x80 ADD MLOAD DUP2 MSTORE POP PUSH1 0x40 MLOAD PUSH1 0x24 ADD PUSH2 0x118B SWAP2 SWAP1 PUSH2 0x2D11 JUMP JUMPDEST PUSH1 0x40 DUP1 MLOAD PUSH32 0xFFFFFFFFFFFFFFFFFFFFFFFFFFFFFFFFFFFFFFFFFFFFFFFFFFFFFFFFFFFFFFE0 DUP2 DUP5 SUB ADD DUP2 MSTORE SWAP2 DUP2 MSTORE PUSH1 0x20 DUP3 ADD DUP1 MLOAD PUSH28 0xFFFFFFFFFFFFFFFFFFFFFFFFFFFFFFFFFFFFFFFFFFFFFFFFFFFFFFFF AND PUSH32 0xFFFFFFFF00000000000000000000000000000000000000000000000000000000 SWAP1 SWAP5 AND SWAP4 SWAP1 SWAP4 OR SWAP1 SWAP3 MSTORE SWAP1 DUP7 ADD MLOAD PUSH1 0xE0 ADD MLOAD PUSH2 0x1910 JUMP JUMPDEST PUSH1 0x60 PUSH2 0x121F PUSH2 0x1C92 JUMP JUMPDEST PUSH2 0x1227 PUSH2 0x1CF6 JUMP JUMPDEST PUSH1 0x0 PUSH1 0x60 PUSH2 0x123C DUP7 PUSH1 0x40 ADD MLOAD PUSH1 0xC0 ADD MLOAD PUSH2 0x199C JUMP JUMPDEST SWAP1 POP DUP1 DUP1 PUSH1 0x20 ADD SWAP1 MLOAD DUP2 ADD SWAP1 PUSH2 0x1252 SWAP2 SWAP1 PUSH2 0x232D JUMP JUMPDEST PUSH1 0x20 DUP10 ADD MLOAD PUSH1 0x40 DUP1 DUP12 ADD MLOAD MLOAD SWAP1 MLOAD SWAP5 SWAP9 POP SWAP3 SWAP7 POP SWAP1 SWAP5 POP PUSH2 0x132F SWAP3 SWAP1 SWAP2 PUSH32 0x414E4CCF00000000000000000000000000000000000000000000000000000000 SWAP2 PUSH2 0x12A5 SWAP2 DUP10 SWAP2 DUP10 SWAP2 DUP10 SWAP2 CALLER SWAP1 PUSH1 0x24 ADD PUSH2 0x2B26 JUMP JUMPDEST PUSH1 0x40 DUP1 MLOAD PUSH32 0xFFFFFFFFFFFFFFFFFFFFFFFFFFFFFFFFFFFFFFFFFFFFFFFFFFFFFFFFFFFFFFE0 DUP2 DUP5 SUB ADD DUP2 MSTORE SWAP2 DUP2 MSTORE PUSH1 0x20 DUP3 ADD DUP1 MLOAD PUSH28 0xFFFFFFFFFFFFFFFFFFFFFFFFFFFFFFFFFFFFFFFFFFFFFFFFFFFFFFFF AND PUSH32 0xFFFFFFFF00000000000000000000000000000000000000000000000000000000 SWAP1 SWAP5 AND SWAP4 SWAP1 SWAP4 OR SWAP1 SWAP3 MSTORE SWAP1 DUP10 ADD MLOAD PUSH1 0xE0 ADD MLOAD PUSH2 0x1910 JUMP JUMPDEST SWAP7 SWAP6 POP POP POP POP POP POP JUMP JUMPDEST PUSH1 0x60 PUSH2 0x1343 PUSH2 0x1D1F JUMP JUMPDEST PUSH2 0x134B PUSH2 0x1CF6 JUMP JUMPDEST PUSH1 0x0 PUSH1 0x60 PUSH2 0x1360 DUP7 PUSH1 0x40 ADD MLOAD PUSH1 0xC0 ADD MLOAD PUSH2 0x199C JUMP JUMPDEST SWAP1 POP DUP1 DUP1 PUSH1 0x20 ADD SWAP1 MLOAD DUP2 ADD SWAP1 PUSH2 0x1376 SWAP2 SWAP1 PUSH2 0x24D7 JUMP JUMPDEST PUSH1 0x20 DUP10 ADD MLOAD PUSH1 0x40 DUP1 DUP12 ADD MLOAD MLOAD SWAP1 MLOAD SWAP5 SWAP9 POP SWAP3 SWAP7 POP SWAP1 SWAP5 POP PUSH2 0x132F SWAP3 SWAP1 SWAP2 PUSH32 0xA656186B00000000000000000000000000000000000000000000000000000000 SWAP2 PUSH2 0x12A5 SWAP2 DUP10 SWAP2 DUP10 SWAP2 DUP10 SWAP2 PUSH1 0x24 ADD PUSH2 0x2C37 JUMP JUMPDEST PUSH1 0x60 PUSH32 0x547A32A328D8A78DBE9BF090FA60BA3D4D1C6833A592A2C942666CE3249C1210 DUP4 DUP4 PUSH1 0x40 MLOAD PUSH1 0x24 ADD PUSH2 0x787 SWAP3 SWAP2 SWAP1 PUSH2 0x28A3 JUMP JUMPDEST PUSH1 0x60 PUSH32 0xA78002A166FCAE5236D89E3FF35C53DADB775F7818DE4A020714CBA4BF360822 DUP5 DUP5 DUP5 PUSH1 0x40 MLOAD PUSH1 0x24 ADD PUSH2 0xB96 SWAP4 SWAP3 SWAP2 SWAP1 PUSH2 0x2811 JUMP JUMPDEST PUSH1 0x60 PUSH32 0xBEA726EFDF9868BBC5755DCE9F13D585B3CF731177BE75300D15BB8F5E286158 DUP5 DUP5 DUP5 PUSH1 0x40 MLOAD PUSH1 0x24 ADD PUSH2 0xB96 SWAP4 SWAP3 SWAP2 SWAP1 PUSH2 0x290C JUMP JUMPDEST PUSH1 0x60 PUSH32 0x6FEC11A99EBB0FF14B6648F609F57864DADEBA8B29869C4DF2B3B76894147849 DUP6 DUP6 DUP6 DUP6 PUSH1 0x40 MLOAD PUSH1 0x24 ADD PUSH2 0x14A7 SWAP5 SWAP4 SWAP3 SWAP2 SWAP1 PUSH2 0x2922 JUMP JUMPDEST PUSH1 0x40 DUP1 MLOAD PUSH32 0xFFFFFFFFFFFFFFFFFFFFFFFFFFFFFFFFFFFFFFFFFFFFFFFFFFFFFFFFFFFFFFE0 DUP2 DUP5 SUB ADD DUP2 MSTORE SWAP2 SWAP1 MSTORE PUSH1 0x20 DUP2 ADD DUP1 MLOAD PUSH28 0xFFFFFFFFFFFFFFFFFFFFFFFFFFFFFFFFFFFFFFFFFFFFFFFFFFFFFFFF AND PUSH32 0xFFFFFFFF00000000000000000000000000000000000000000000000000000000 SWAP1 SWAP4 AND SWAP3 SWAP1 SWAP3 OR SWAP1 SWAP2 MSTORE SWAP1 POP SWAP5 SWAP4 POP POP POP POP JUMP JUMPDEST PUSH1 0x60 PUSH32 0xA5ADE45208123132815E1591A1C7E64045FD006152F5E85D100AEE42BA02C75 DUP5 DUP5 DUP5 PUSH1 0x40 MLOAD PUSH1 0x24 ADD PUSH2 0xB96 SWAP4 SWAP3 SWAP2 SWAP1 PUSH2 0x290C JUMP JUMPDEST PUSH1 0x0 PUSH2 0x1572 DUP4 DUP4 PUSH2 0x1A09 JUMP JUMPDEST PUSH1 0x2 DUP3 MLOAD PUSH1 0x3 DUP2 GT ISZERO PUSH2 0x1581 JUMPI INVALID JUMPDEST EQ ISZERO PUSH2 0x15E9 JUMPI PUSH1 0x1 DUP4 DUP4 PUSH1 0x20 ADD MLOAD DUP5 PUSH1 0x40 ADD MLOAD DUP6 PUSH1 0x60 ADD MLOAD PUSH1 0x40 MLOAD PUSH1 0x0 DUP2 MSTORE PUSH1 0x20 ADD PUSH1 0x40 MSTORE PUSH1 0x40 MLOAD PUSH2 0x15B6 SWAP5 SWAP4 SWAP3 SWAP2 SWAP1 PUSH2 0x293D JUMP JUMPDEST PUSH1 0x20 PUSH1 0x40 MLOAD PUSH1 0x20 DUP2 SUB SWAP1 DUP1 DUP5 SUB SWAP1 DUP6 GAS STATICCALL ISZERO DUP1 ISZERO PUSH2 0x15D8 JUMPI RETURNDATASIZE PUSH1 0x0 DUP1 RETURNDATACOPY RETURNDATASIZE PUSH1 0x0 REVERT JUMPDEST POP POP POP PUSH1 0x20 PUSH1 0x40 MLOAD SUB MLOAD SWAP1 POP PUSH2 0x168E JUMP JUMPDEST PUSH1 0x3 DUP3 MLOAD PUSH1 0x3 DUP2 GT ISZERO PUSH2 0x15F8 JUMPI INVALID JUMPDEST EQ ISZERO PUSH2 0x168E JUMPI PUSH1 0x0 PUSH32 0x19457468657265756D205369676E6564204D6573736167653A0A333200000000 PUSH1 0x0 MSTORE DUP4 PUSH1 0x1C MSTORE PUSH1 0x3C PUSH1 0x0 KECCAK256 SWAP1 POP PUSH1 0x1 DUP2 DUP5 PUSH1 0x20 ADD MLOAD DUP6 PUSH1 0x40 ADD MLOAD DUP7 PUSH1 0x60 ADD MLOAD PUSH1 0x40 MLOAD PUSH1 0x0 DUP2 MSTORE PUSH1 0x20 ADD PUSH1 0x40 MSTORE PUSH1 0x40 MLOAD PUSH2 0x165E SWAP5 SWAP4 SWAP3 SWAP2 SWAP1 PUSH2 0x293D JUMP JUMPDEST PUSH1 0x20 PUSH1 0x40 MLOAD PUSH1 0x20 DUP2 SUB SWAP1 DUP1 DUP5 SUB SWAP1 DUP6 GAS STATICCALL ISZERO DUP1 ISZERO PUSH2 0x1680 JUMPI RETURNDATASIZE PUSH1 0x0 DUP1 RETURNDATACOPY RETURNDATASIZE PUSH1 0x0 REVERT JUMPDEST POP POP POP PUSH1 0x20 PUSH1 0x40 MLOAD SUB MLOAD SWAP2 POP POP JUMPDEST PUSH20 0xFFFFFFFFFFFFFFFFFFFFFFFFFFFFFFFFFFFFFFFF DUP2 AND PUSH2 0x32E JUMPI PUSH2 0x32E PUSH2 0x291 PUSH1 0x5 DUP6 PUSH2 0x1ABD JUMP JUMPDEST PUSH1 0x60 PUSH32 0x4C7607A3EBBA99C9ACDE0E2A04D88829F7001B63F028B796DDA6FF02406DDAD5 DUP6 DUP6 DUP6 DUP6 PUSH1 0x40 MLOAD PUSH1 0x24 ADD PUSH2 0x14A7 SWAP5 SWAP4 SWAP3 SWAP2 SWAP1 PUSH2 0x2A85 JUMP JUMPDEST PUSH1 0x60 PUSH32 0xFE251A07F3CBFFD23C1C1DB9EC776D259099C832333D99EF48CACFA93A4D7B32 DUP4 DUP4 PUSH1 0x40 MLOAD PUSH1 0x24 ADD PUSH2 0x787 SWAP3 SWAP2 SWAP1 PUSH2 0x28FE JUMP JUMPDEST PUSH1 0x0 DUP2 DUP2 MSTORE PUSH1 0x20 SWAP1 KECCAK256 PUSH1 0x1 PUSH1 0xFF SWAP3 DUP4 AND DUP2 SWAP1 SHL SWAP3 SWAP1 SWAP2 AND SHL OR PUSH32 0x0 DUP2 AND EQ SWAP1 JUMP JUMPDEST PUSH1 0x40 MLOAD PUSH32 0x89DD02E700000000000000000000000000000000000000000000000000000000 DUP2 MSTORE ADDRESS SWAP1 PUSH4 0x89DD02E7 SWAP1 PUSH2 0x17A9 SWAP1 DUP9 SWAP1 DUP9 SWAP1 DUP9 SWAP1 DUP9 SWAP1 PUSH1 0x4 ADD PUSH2 0x2A15 JUMP JUMPDEST PUSH1 0x0 PUSH1 0x40 MLOAD DUP1 DUP4 SUB DUP2 PUSH1 0x0 DUP8 DUP1 EXTCODESIZE ISZERO DUP1 ISZERO PUSH2 0x17C3 JUMPI PUSH1 0x0 DUP1 REVERT JUMPDEST POP GAS CALL SWAP3 POP POP POP DUP1 ISZERO PUSH2 0x17D4 JUMPI POP PUSH1 0x1 JUMPDEST PUSH2 0xACD JUMPI RETURNDATASIZE DUP1 DUP1 ISZERO PUSH2 0x1802 JUMPI PUSH1 0x40 MLOAD SWAP2 POP PUSH1 0x1F NOT PUSH1 0x3F RETURNDATASIZE ADD AND DUP3 ADD PUSH1 0x40 MSTORE RETURNDATASIZE DUP3 MSTORE RETURNDATASIZE PUSH1 0x0 PUSH1 0x20 DUP5 ADD RETURNDATACOPY PUSH2 0x1807 JUMP JUMPDEST PUSH1 0x60 SWAP2 POP JUMPDEST POP PUSH2 0x1829 PUSH2 0x291 DUP8 DUP8 DUP8 DUP8 DUP8 MLOAD PUSH1 0x0 EQ ISZERO PUSH2 0x1822 JUMPI DUP7 PUSH2 0x1824 JUMP JUMPDEST DUP8 JUMPDEST PUSH2 0x1AF3 JUMP JUMPDEST POP PUSH2 0xACD JUMP JUMPDEST PUSH1 0x20 DUP2 LT ISZERO PUSH2 0x1876 JUMPI DUP2 MLOAD DUP4 MLOAD PUSH1 0x20 DUP4 SWAP1 SUB PUSH2 0x100 EXP PUSH32 0xFFFFFFFFFFFFFFFFFFFFFFFFFFFFFFFFFFFFFFFFFFFFFFFFFFFFFFFFFFFFFFFF ADD DUP1 NOT SWAP1 SWAP3 AND SWAP2 AND OR DUP4 MSTORE PUSH2 0x190B JUMP JUMPDEST DUP3 DUP3 EQ ISZERO PUSH2 0x1883 JUMPI PUSH2 0x190B JUMP JUMPDEST DUP3 DUP3 GT ISZERO PUSH2 0x18BD JUMPI PUSH1 0x20 DUP2 SUB SWAP1 POP DUP1 DUP3 ADD DUP2 DUP5 ADD DUP2 MLOAD JUMPDEST DUP3 DUP6 LT ISZERO PUSH2 0x18B5 JUMPI DUP5 MLOAD DUP7 MSTORE PUSH1 0x20 SWAP6 DUP7 ADD SWAP6 SWAP1 SWAP5 ADD SWAP4 PUSH2 0x189A JUMP JUMPDEST SWAP1 MSTORE POP PUSH2 0x190B JUMP JUMPDEST PUSH1 0x20 DUP2 SUB SWAP1 POP DUP1 DUP3 ADD DUP2 DUP5 ADD DUP4 MLOAD JUMPDEST DUP2 DUP7 SLT ISZERO PUSH2 0x1906 JUMPI DUP3 MLOAD DUP3 MSTORE PUSH32 0xFFFFFFFFFFFFFFFFFFFFFFFFFFFFFFFFFFFFFFFFFFFFFFFFFFFFFFFFFFFFFFE0 SWAP3 DUP4 ADD SWAP3 SWAP1 SWAP2 ADD SWAP1 PUSH2 0x18CC JUMP JUMPDEST DUP6 MSTORE POP POP JUMPDEST POP POP POP JUMP JUMPDEST PUSH1 0x60 PUSH1 0x0 ADDRESS PUSH20 0xFFFFFFFFFFFFFFFFFFFFFFFFFFFFFFFFFFFFFFFF AND DUP4 DUP6 PUSH1 0x40 MLOAD PUSH2 0x193A SWAP2 SWAP1 PUSH2 0x26BF JUMP JUMPDEST PUSH1 0x0 PUSH1 0x40 MLOAD DUP1 DUP4 SUB DUP2 DUP6 DUP8 GAS CALL SWAP3 POP POP POP RETURNDATASIZE DUP1 PUSH1 0x0 DUP2 EQ PUSH2 0x1977 JUMPI PUSH1 0x40 MLOAD SWAP2 POP PUSH1 0x1F NOT PUSH1 0x3F RETURNDATASIZE ADD AND DUP3 ADD PUSH1 0x40 MSTORE RETURNDATASIZE DUP3 MSTORE RETURNDATASIZE PUSH1 0x0 PUSH1 0x20 DUP5 ADD RETURNDATACOPY PUSH2 0x197C JUMP JUMPDEST PUSH1 0x60 SWAP2 POP JUMPDEST POP SWAP3 POP SWAP1 POP DUP1 PUSH2 0x1994 JUMPI PUSH2 0x1994 PUSH2 0x291 DUP7 DUP7 DUP6 PUSH2 0x1BB8 JUMP JUMPDEST POP SWAP4 SWAP3 POP POP POP JUMP JUMPDEST PUSH1 0x60 PUSH1 0x4 DUP3 MLOAD SUB PUSH8 0xFFFFFFFFFFFFFFFF DUP2 GT DUP1 ISZERO PUSH2 0x19B9 JUMPI PUSH1 0x0 DUP1 REVERT JUMPDEST POP PUSH1 0x40 MLOAD SWAP1 DUP1 DUP3 MSTORE DUP1 PUSH1 0x1F ADD PUSH1 0x1F NOT AND PUSH1 0x20 ADD DUP3 ADD PUSH1 0x40 MSTORE DUP1 ISZERO PUSH2 0x19E4 JUMPI PUSH1 0x20 DUP3 ADD DUP2 DUP1 CALLDATASIZE DUP4 CALLDATACOPY ADD SWAP1 POP JUMPDEST POP SWAP1 POP PUSH1 0x0 DUP1 PUSH1 0x24 DUP5 ADD SWAP2 POP PUSH1 0x20 DUP4 ADD SWAP1 POP PUSH2 0x1A02 DUP2 DUP4 DUP6 MLOAD PUSH2 0x182F JUMP JUMPDEST POP POP SWAP2 SWAP1 POP JUMP JUMPDEST PUSH1 0x40 DUP2 ADD MLOAD PUSH32 0xFFFFFFFFFFFFFFFFFFFFFFFFFFFFFFFEBAAEDCE6AF48A03BBFD25E8CD0364141 GT ISZERO DUP1 PUSH2 0x1A60 JUMPI POP PUSH1 0x60 DUP2 ADD MLOAD PUSH32 0x7FFFFFFFFFFFFFFFFFFFFFFFFFFFFFFF5D576E7357A4501DDFE92F46681B20A1 GT ISZERO JUMPDEST ISZERO PUSH2 0x1A73 JUMPI PUSH2 0x1A73 PUSH2 0x291 PUSH1 0x5 DUP5 PUSH2 0x1ABD JUMP JUMPDEST PUSH1 0x0 DUP2 MLOAD PUSH1 0x3 DUP2 GT ISZERO PUSH2 0x1A82 JUMPI INVALID JUMPDEST EQ ISZERO PUSH2 0x1A96 JUMPI PUSH2 0x1A96 PUSH2 0x291 PUSH1 0x3 DUP5 PUSH2 0x1ABD JUMP JUMPDEST PUSH1 0x1 DUP2 MLOAD PUSH1 0x3 DUP2 GT ISZERO PUSH2 0x1AA5 JUMPI INVALID JUMPDEST EQ ISZERO PUSH2 0x1AB9 JUMPI PUSH2 0x1AB9 PUSH2 0x291 PUSH1 0x0 DUP5 PUSH2 0x1ABD JUMP JUMPDEST POP POP JUMP JUMPDEST PUSH1 0x60 PUSH32 0xF18F11F3027E735C758137924B262D4D3AFF0037DCD785ACA3C699FA05D960BD DUP4 DUP4 PUSH1 0x40 MLOAD PUSH1 0x24 ADD PUSH2 0x787 SWAP3 SWAP2 SWAP1 PUSH2 0x2A6E JUMP JUMPDEST PUSH1 0x60 PUSH32 0xDFDC6F57CF82BEDE92BCFDD44FEDB82B2D5CECABF56EC21964DB6EE2C3E82CF4 DUP7 DUP7 DUP7 DUP7 DUP7 PUSH1 0x40 MLOAD PUSH1 0x24 ADD PUSH2 0x1B2F SWAP6 SWAP5 SWAP4 SWAP3 SWAP2 SWAP1 PUSH2 0x2738 JUMP JUMPDEST PUSH1 0x40 DUP1 MLOAD PUSH32 0xFFFFFFFFFFFFFFFFFFFFFFFFFFFFFFFFFFFFFFFFFFFFFFFFFFFFFFFFFFFFFFE0 DUP2 DUP5 SUB ADD DUP2 MSTORE SWAP2 SWAP1 MSTORE PUSH1 0x20 DUP2 ADD DUP1 MLOAD PUSH28 0xFFFFFFFFFFFFFFFFFFFFFFFFFFFFFFFFFFFFFFFFFFFFFFFFFFFFFFFF AND PUSH32 0xFFFFFFFF00000000000000000000000000000000000000000000000000000000 SWAP1 SWAP4 AND SWAP3 SWAP1 SWAP3 OR SWAP1 SWAP2 MSTORE SWAP1 POP JUMPDEST SWAP6 SWAP5 POP POP POP POP POP JUMP JUMPDEST PUSH1 0x60 PUSH32 0xA9F0C547643C02AFED4CF2699E794BC383EFFCA840EED62FDDB64A15A4E55BC4 DUP5 DUP5 DUP5 PUSH1 0x40 MLOAD PUSH1 0x24 ADD PUSH2 0xB96 SWAP4 SWAP3 SWAP2 SWAP1 PUSH2 0x28D3 JUMP JUMPDEST PUSH1 0x40 DUP1 MLOAD PUSH1 0xE0 DUP2 ADD DUP3 MSTORE PUSH1 0x0 DUP1 DUP3 MSTORE PUSH1 0x20 DUP3 ADD MSTORE SWAP1 DUP2 ADD PUSH2 0x1C0F PUSH2 0x1D73 JUMP JUMPDEST DUP2 MSTORE PUSH1 0x20 ADD PUSH2 0x1C1C PUSH2 0x1CF6 JUMP JUMPDEST DUP2 MSTORE PUSH1 0x0 PUSH1 0x20 DUP3 ADD DUP2 SWAP1 MSTORE PUSH1 0x40 DUP3 ADD DUP2 SWAP1 MSTORE PUSH1 0x60 SWAP1 SWAP2 ADD MSTORE SWAP1 JUMP JUMPDEST PUSH1 0x40 MLOAD DUP1 PUSH1 0xA0 ADD PUSH1 0x40 MSTORE DUP1 PUSH1 0x0 PUSH20 0xFFFFFFFFFFFFFFFFFFFFFFFFFFFFFFFFFFFFFFFF AND DUP2 MSTORE PUSH1 0x20 ADD PUSH1 0x0 PUSH20 0xFFFFFFFFFFFFFFFFFFFFFFFFFFFFFFFFFFFFFFFF AND DUP2 MSTORE PUSH1 0x20 ADD PUSH1 0x0 DUP2 MSTORE PUSH1 0x20 ADD PUSH1 0x0 DUP2 MSTORE PUSH1 0x20 ADD PUSH1 0x60 DUP2 MSTORE POP SWAP1 JUMP JUMPDEST PUSH1 0x40 DUP1 MLOAD PUSH2 0x180 DUP2 ADD DUP3 MSTORE PUSH1 0x0 DUP1 DUP3 MSTORE PUSH1 0x20 DUP3 ADD DUP2 SWAP1 MSTORE SWAP2 DUP2 ADD DUP3 SWAP1 MSTORE PUSH1 0x60 DUP2 ADD DUP3 SWAP1 MSTORE PUSH1 0x80 DUP2 ADD DUP3 SWAP1 MSTORE PUSH1 0xA0 DUP2 ADD DUP3 SWAP1 MSTORE PUSH1 0xC0 DUP2 ADD DUP3 SWAP1 MSTORE PUSH1 0xE0 DUP2 ADD DUP3 SWAP1 MSTORE PUSH2 0x100 DUP2 ADD DUP3 SWAP1 MSTORE PUSH2 0x120 DUP2 ADD DUP3 SWAP1 MSTORE PUSH2 0x140 DUP2 ADD DUP3 SWAP1 MSTORE PUSH2 0x160 DUP2 ADD SWAP2 SWAP1 SWAP2 MSTORE SWAP1 JUMP JUMPDEST PUSH1 0x40 DUP1 MLOAD PUSH1 0x80 DUP2 ADD SWAP1 SWAP2 MSTORE DUP1 PUSH1 0x0 DUP2 MSTORE PUSH1 0x0 PUSH1 0x20 DUP3 ADD DUP2 SWAP1 MSTORE PUSH1 0x40 DUP3 ADD DUP2 SWAP1 MSTORE PUSH1 0x60 SWAP1 SWAP2 ADD MSTORE SWAP1 JUMP JUMPDEST PUSH1 0x40 DUP1 MLOAD PUSH2 0x140 DUP2 ADD DUP3 MSTORE PUSH1 0x0 DUP1 DUP3 MSTORE PUSH1 0x20 DUP3 ADD DUP2 SWAP1 MSTORE SWAP2 DUP2 ADD DUP3 SWAP1 MSTORE PUSH1 0x60 DUP2 ADD DUP3 SWAP1 MSTORE PUSH1 0x80 DUP2 ADD DUP3 SWAP1 MSTORE PUSH1 0xA0 DUP2 ADD DUP3 SWAP1 MSTORE PUSH1 0xC0 DUP2 ADD DUP3 SWAP1 MSTORE PUSH1 0xE0 DUP2 ADD DUP3 SWAP1 MSTORE PUSH2 0x100 DUP2 ADD DUP3 SWAP1 MSTORE PUSH2 0x120 DUP2 ADD SWAP2 SWAP1 SWAP2 MSTORE SWAP1 JUMP JUMPDEST PUSH1 0x40 MLOAD DUP1 PUSH2 0x140 ADD PUSH1 0x40 MSTORE DUP1 PUSH1 0x0 PUSH20 0xFFFFFFFFFFFFFFFFFFFFFFFFFFFFFFFFFFFFFFFF AND DUP2 MSTORE PUSH1 0x20 ADD PUSH1 0x0 PUSH20 0xFFFFFFFFFFFFFFFFFFFFFFFFFFFFFFFFFFFFFFFF AND DUP2 MSTORE PUSH1 0x20 ADD PUSH1 0x0 DUP2 MSTORE PUSH1 0x20 ADD PUSH1 0x0 DUP2 MSTORE PUSH1 0x20 ADD PUSH1 0x0 DUP2 MSTORE PUSH1 0x20 ADD PUSH1 0x0 DUP2 MSTORE PUSH1 0x20 ADD PUSH1 0x60 DUP2 MSTORE PUSH1 0x20 ADD PUSH1 0x0 DUP2 MSTORE PUSH1 0x20 ADD PUSH1 0x0 PUSH20 0xFFFFFFFFFFFFFFFFFFFFFFFFFFFFFFFFFFFFFFFF AND DUP2 MSTORE PUSH1 0x20 ADD PUSH1 0x0 DUP2 MSTORE POP SWAP1 JUMP JUMPDEST DUP1 CALLDATALOAD PUSH2 0x32E DUP2 PUSH2 0x2E83 JUMP JUMPDEST DUP1 MLOAD PUSH2 0x32E DUP2 PUSH2 0x2E83 JUMP JUMPDEST PUSH1 0x0 DUP3 PUSH1 0x1F DUP4 ADD SLT PUSH2 0x1E2E JUMPI DUP1 DUP2 REVERT JUMPDEST DUP2 CALLDATALOAD PUSH2 0x1E41 PUSH2 0x1E3C DUP3 PUSH2 0x2DEB JUMP JUMPDEST PUSH2 0x2DC4 JUMP JUMPDEST DUP2 DUP2 MSTORE SWAP2 POP PUSH1 0x20 DUP1 DUP4 ADD SWAP1 DUP5 DUP2 ADD PUSH1 0x80 DUP1 DUP6 MUL DUP8 ADD DUP4 ADD DUP9 LT ISZERO PUSH2 0x1E64 JUMPI PUSH1 0x0 DUP1 REVERT JUMPDEST PUSH1 0x0 JUMPDEST DUP6 DUP2 LT ISZERO PUSH2 0x1E8B JUMPI PUSH2 0x1E79 DUP10 DUP5 PUSH2 0x20C3 JUMP JUMPDEST DUP6 MSTORE SWAP4 DUP4 ADD SWAP4 SWAP2 DUP2 ADD SWAP2 PUSH1 0x1 ADD PUSH2 0x1E67 JUMP JUMPDEST POP POP POP POP POP POP SWAP3 SWAP2 POP POP JUMP JUMPDEST PUSH1 0x0 DUP3 PUSH1 0x1F DUP4 ADD SLT PUSH2 0x1EA7 JUMPI DUP1 DUP2 REVERT JUMPDEST DUP2 MLOAD PUSH2 0x1EB5 PUSH2 0x1E3C DUP3 PUSH2 0x2DEB JUMP JUMPDEST DUP2 DUP2 MSTORE SWAP2 POP PUSH1 0x20 DUP1 DUP4 ADD SWAP1 DUP5 DUP2 ADD PUSH1 0x0 JUMPDEST DUP5 DUP2 LT ISZERO PUSH2 0x1F5C JUMPI DUP2 MLOAD DUP8 ADD PUSH1 0x40 DUP1 PUSH32 0xFFFFFFFFFFFFFFFFFFFFFFFFFFFFFFFFFFFFFFFFFFFFFFFFFFFFFFFFFFFFFFE0 DUP4 DUP13 SUB ADD SLT ISZERO PUSH2 0x1F05 JUMPI PUSH1 0x0 DUP1 REVERT JUMPDEST PUSH2 0x1F0E DUP2 PUSH2 0x2DC4 JUMP JUMPDEST PUSH2 0x1F1A DUP12 DUP8 DUP6 ADD PUSH2 0x2195 JUMP JUMPDEST DUP2 MSTORE SWAP1 DUP3 ADD MLOAD SWAP1 PUSH8 0xFFFFFFFFFFFFFFFF DUP3 GT ISZERO PUSH2 0x1F36 JUMPI PUSH1 0x0 DUP1 REVERT JUMPDEST PUSH2 0x1F44 DUP12 DUP8 DUP5 DUP7 ADD ADD PUSH2 0x1FB5 JUMP JUMPDEST DUP2 DUP8 ADD MSTORE DUP7 MSTORE POP POP SWAP3 DUP3 ADD SWAP3 SWAP1 DUP3 ADD SWAP1 PUSH1 0x1 ADD PUSH2 0x1EC6 JUMP JUMPDEST POP POP POP POP POP SWAP3 SWAP2 POP POP JUMP JUMPDEST PUSH1 0x0 DUP3 PUSH1 0x1F DUP4 ADD SLT PUSH2 0x1F77 JUMPI DUP1 DUP2 REVERT JUMPDEST DUP2 CALLDATALOAD PUSH2 0x1F85 PUSH2 0x1E3C DUP3 PUSH2 0x2E0B JUMP JUMPDEST SWAP2 POP DUP1 DUP3 MSTORE DUP4 PUSH1 0x20 DUP3 DUP6 ADD ADD GT ISZERO PUSH2 0x1F9C JUMPI PUSH1 0x0 DUP1 REVERT JUMPDEST DUP1 PUSH1 0x20 DUP5 ADD PUSH1 0x20 DUP5 ADD CALLDATACOPY PUSH1 0x0 SWAP1 DUP3 ADD PUSH1 0x20 ADD MSTORE SWAP3 SWAP2 POP POP JUMP JUMPDEST PUSH1 0x0 DUP3 PUSH1 0x1F DUP4 ADD SLT PUSH2 0x1FC5 JUMPI DUP1 DUP2 REVERT JUMPDEST DUP2 MLOAD PUSH2 0x1FD3 PUSH2 0x1E3C DUP3 PUSH2 0x2E0B JUMP JUMPDEST SWAP2 POP DUP1 DUP3 MSTORE DUP4 PUSH1 0x20 DUP3 DUP6 ADD ADD GT ISZERO PUSH2 0x1FEA JUMPI PUSH1 0x0 DUP1 REVERT JUMPDEST PUSH2 0x1FFB DUP2 PUSH1 0x20 DUP5 ADD PUSH1 0x20 DUP7 ADD PUSH2 0x2E4D JUMP JUMPDEST POP SWAP3 SWAP2 POP POP JUMP JUMPDEST PUSH1 0x0 PUSH2 0x140 DUP1 DUP4 DUP6 SUB SLT ISZERO PUSH2 0x2015 JUMPI DUP2 DUP3 REVERT JUMPDEST PUSH2 0x201E DUP2 PUSH2 0x2DC4 JUMP JUMPDEST SWAP2 POP POP PUSH2 0x202B DUP4 DUP4 PUSH2 0x1E08 JUMP JUMPDEST DUP2 MSTORE PUSH2 0x203A DUP4 PUSH1 0x20 DUP5 ADD PUSH2 0x1E08 JUMP JUMPDEST PUSH1 0x20 DUP3 ADD MSTORE PUSH1 0x40 DUP3 ADD CALLDATALOAD PUSH1 0x40 DUP3 ADD MSTORE PUSH1 0x60 DUP3 ADD CALLDATALOAD PUSH1 0x60 DUP3 ADD MSTORE PUSH1 0x80 DUP3 ADD CALLDATALOAD PUSH1 0x80 DUP3 ADD MSTORE PUSH1 0xA0 DUP3 ADD CALLDATALOAD PUSH1 0xA0 DUP3 ADD MSTORE PUSH1 0xC0 DUP3 ADD CALLDATALOAD PUSH8 0xFFFFFFFFFFFFFFFF DUP2 GT ISZERO PUSH2 0x2081 JUMPI PUSH1 0x0 DUP1 REVERT JUMPDEST PUSH2 0x208D DUP5 DUP3 DUP6 ADD PUSH2 0x1F67 JUMP JUMPDEST PUSH1 0xC0 DUP4 ADD MSTORE POP PUSH1 0xE0 DUP3 ADD CALLDATALOAD PUSH1 0xE0 DUP3 ADD MSTORE PUSH2 0x100 PUSH2 0x20AC DUP5 DUP3 DUP6 ADD PUSH2 0x1E08 JUMP JUMPDEST DUP2 DUP4 ADD MSTORE POP PUSH2 0x120 DUP1 DUP4 ADD CALLDATALOAD DUP2 DUP4 ADD MSTORE POP SWAP3 SWAP2 POP POP JUMP JUMPDEST PUSH1 0x0 PUSH1 0x80 DUP3 DUP5 SUB SLT ISZERO PUSH2 0x20D4 JUMPI DUP1 DUP2 REVERT JUMPDEST PUSH2 0x20DE PUSH1 0x80 PUSH2 0x2DC4 JUMP JUMPDEST SWAP1 POP DUP2 CALLDATALOAD PUSH2 0x20EB DUP2 PUSH2 0x2EA5 JUMP JUMPDEST DUP2 MSTORE PUSH1 0x20 DUP3 ADD CALLDATALOAD PUSH2 0x20FB DUP2 PUSH2 0x2EB2 JUMP JUMPDEST DUP1 PUSH1 0x20 DUP4 ADD MSTORE POP PUSH1 0x40 DUP3 ADD CALLDATALOAD PUSH1 0x40 DUP3 ADD MSTORE PUSH1 0x60 DUP3 ADD CALLDATALOAD PUSH1 0x60 DUP3 ADD MSTORE SWAP3 SWAP2 POP POP JUMP JUMPDEST PUSH1 0x0 PUSH1 0x80 DUP3 DUP5 SUB SLT ISZERO PUSH2 0x212D JUMPI DUP1 DUP2 REVERT JUMPDEST PUSH2 0x2137 PUSH1 0x80 PUSH2 0x2DC4 JUMP JUMPDEST SWAP1 POP DUP2 MLOAD PUSH2 0x2144 DUP2 PUSH2 0x2EA5 JUMP JUMPDEST DUP2 MSTORE PUSH1 0x20 DUP3 ADD MLOAD PUSH2 0x2154 DUP2 PUSH2 0x2EB2 JUMP JUMPDEST DUP1 PUSH1 0x20 DUP4 ADD MSTORE POP PUSH1 0x40 DUP3 ADD MLOAD PUSH1 0x40 DUP3 ADD MSTORE PUSH1 0x60 DUP3 ADD MLOAD PUSH1 0x60 DUP3 ADD MSTORE SWAP3 SWAP2 POP POP JUMP JUMPDEST DUP1 MLOAD PUSH16 0xFFFFFFFFFFFFFFFFFFFFFFFFFFFFFFFF DUP2 AND DUP2 EQ PUSH2 0x32E JUMPI PUSH1 0x0 DUP1 REVERT JUMPDEST DUP1 MLOAD PUSH4 0xFFFFFFFF DUP2 AND DUP2 EQ PUSH2 0x32E JUMPI PUSH1 0x0 DUP1 REVERT JUMPDEST DUP1 MLOAD PUSH8 0xFFFFFFFFFFFFFFFF DUP2 AND DUP2 EQ PUSH2 0x32E JUMPI PUSH1 0x0 DUP1 REVERT JUMPDEST PUSH1 0x0 DUP1 PUSH1 0x40 DUP4 DUP6 SUB SLT ISZERO PUSH2 0x21D3 JUMPI DUP2 DUP3 REVERT JUMPDEST DUP3 CALLDATALOAD PUSH8 0xFFFFFFFFFFFFFFFF DUP1 DUP3 GT ISZERO PUSH2 0x21EA JUMPI DUP4 DUP5 REVERT JUMPDEST DUP2 DUP6 ADD SWAP2 POP DUP6 PUSH1 0x1F DUP4 ADD SLT PUSH2 0x21FD JUMPI DUP4 DUP5 REVERT JUMPDEST DUP2 CALLDATALOAD PUSH2 0x220B PUSH2 0x1E3C DUP3 PUSH2 0x2DEB JUMP JUMPDEST DUP2 DUP2 MSTORE PUSH1 0x20 DUP1 DUP3 ADD SWAP2 SWAP1 DUP6 DUP2 ADD DUP9 JUMPDEST DUP6 DUP2 LT ISZERO PUSH2 0x2243 JUMPI PUSH2 0x2231 DUP13 DUP5 DUP5 CALLDATALOAD DUP12 ADD ADD PUSH2 0x2002 JUMP JUMPDEST DUP6 MSTORE SWAP4 DUP3 ADD SWAP4 SWAP1 DUP3 ADD SWAP1 PUSH1 0x1 ADD PUSH2 0x221A JUMP JUMPDEST POP SWAP2 SWAP8 POP DUP9 ADD CALLDATALOAD SWAP5 POP POP POP POP DUP1 DUP3 GT ISZERO PUSH2 0x225B JUMPI DUP3 DUP4 REVERT JUMPDEST POP PUSH2 0x2268 DUP6 DUP3 DUP7 ADD PUSH2 0x1E1E JUMP JUMPDEST SWAP2 POP POP SWAP3 POP SWAP3 SWAP1 POP JUMP JUMPDEST PUSH1 0x0 PUSH1 0x20 DUP3 DUP5 SUB SLT ISZERO PUSH2 0x2283 JUMPI DUP1 DUP2 REVERT JUMPDEST POP CALLDATALOAD SWAP2 SWAP1 POP JUMP JUMPDEST PUSH1 0x0 PUSH1 0x20 DUP3 DUP5 SUB SLT ISZERO PUSH2 0x229B JUMPI DUP1 DUP2 REVERT JUMPDEST DUP2 MLOAD PUSH8 0xFFFFFFFFFFFFFFFF DUP1 DUP3 GT ISZERO PUSH2 0x22B2 JUMPI DUP3 DUP4 REVERT JUMPDEST SWAP1 DUP4 ADD SWAP1 PUSH1 0xA0 DUP3 DUP7 SUB SLT ISZERO PUSH2 0x22C5 JUMPI DUP3 DUP4 REVERT JUMPDEST PUSH2 0x22CF PUSH1 0xA0 PUSH2 0x2DC4 JUMP JUMPDEST PUSH2 0x22D9 DUP7 DUP5 PUSH2 0x1E13 JUMP JUMPDEST DUP2 MSTORE PUSH2 0x22E8 DUP7 PUSH1 0x20 DUP6 ADD PUSH2 0x1E13 JUMP JUMPDEST PUSH1 0x20 DUP3 ADD MSTORE PUSH1 0x40 DUP4 ADD MLOAD PUSH1 0x40 DUP3 ADD MSTORE PUSH1 0x60 DUP4 ADD MLOAD PUSH1 0x60 DUP3 ADD MSTORE PUSH1 0x80 DUP4 ADD MLOAD DUP3 DUP2 GT ISZERO PUSH2 0x2312 JUMPI DUP5 DUP6 REVERT JUMPDEST PUSH2 0x231E DUP8 DUP3 DUP7 ADD PUSH2 0x1E97 JUMP JUMPDEST PUSH1 0x80 DUP4 ADD MSTORE POP SWAP6 SWAP5 POP POP POP POP POP JUMP JUMPDEST PUSH1 0x0 DUP1 PUSH1 0x0 DUP4 DUP6 SUB PUSH2 0x220 DUP2 SLT ISZERO PUSH2 0x2343 JUMPI DUP2 DUP3 REVERT JUMPDEST PUSH2 0x180 DUP1 DUP3 SLT ISZERO PUSH2 0x2352 JUMPI DUP3 DUP4 REVERT JUMPDEST PUSH2 0x235B DUP2 PUSH2 0x2DC4 JUMP JUMPDEST SWAP2 POP PUSH2 0x2367 DUP8 DUP8 PUSH2 0x1E13 JUMP JUMPDEST DUP3 MSTORE PUSH2 0x2376 DUP8 PUSH1 0x20 DUP9 ADD PUSH2 0x1E13 JUMP JUMPDEST PUSH1 0x20 DUP4 ADD MSTORE PUSH2 0x2388 DUP8 PUSH1 0x40 DUP9 ADD PUSH2 0x2175 JUMP JUMPDEST PUSH1 0x40 DUP4 ADD MSTORE PUSH2 0x239A DUP8 PUSH1 0x60 DUP9 ADD PUSH2 0x2175 JUMP JUMPDEST PUSH1 0x60 DUP4 ADD MSTORE PUSH2 0x23AC DUP8 PUSH1 0x80 DUP9 ADD PUSH2 0x2175 JUMP JUMPDEST PUSH1 0x80 DUP4 ADD MSTORE PUSH2 0x23BE DUP8 PUSH1 0xA0 DUP9 ADD PUSH2 0x1E13 JUMP JUMPDEST PUSH1 0xA0 DUP4 ADD MSTORE PUSH2 0x23D0 DUP8 PUSH1 0xC0 DUP9 ADD PUSH2 0x1E13 JUMP JUMPDEST PUSH1 0xC0 DUP4 ADD MSTORE PUSH2 0x23E2 DUP8 PUSH1 0xE0 DUP9 ADD PUSH2 0x1E13 JUMP JUMPDEST PUSH1 0xE0 DUP4 ADD MSTORE PUSH2 0x100 PUSH2 0x23F6 DUP9 DUP3 DUP10 ADD PUSH2 0x1E13 JUMP JUMPDEST SWAP1 DUP4 ADD MSTORE PUSH2 0x120 DUP7 DUP2 ADD MLOAD SWAP1 DUP4 ADD MSTORE PUSH2 0x140 PUSH2 0x2414 DUP9 DUP3 DUP10 ADD PUSH2 0x21A9 JUMP JUMPDEST DUP2 DUP5 ADD MSTORE POP PUSH2 0x160 DUP1 DUP8 ADD MLOAD DUP2 DUP5 ADD MSTORE POP DUP2 SWAP5 POP PUSH2 0x2434 DUP8 DUP3 DUP9 ADD PUSH2 0x211C JUMP JUMPDEST SWAP4 POP POP POP PUSH2 0x2446 DUP6 PUSH2 0x200 DUP7 ADD PUSH2 0x2175 JUMP JUMPDEST SWAP1 POP SWAP3 POP SWAP3 POP SWAP3 JUMP JUMPDEST PUSH1 0x0 PUSH1 0x20 DUP3 DUP5 SUB SLT ISZERO PUSH2 0x2460 JUMPI DUP1 DUP2 REVERT JUMPDEST DUP2 CALLDATALOAD PUSH8 0xFFFFFFFFFFFFFFFF DUP2 GT ISZERO PUSH2 0x2476 JUMPI DUP2 DUP3 REVERT JUMPDEST PUSH2 0x2482 DUP5 DUP3 DUP6 ADD PUSH2 0x2002 JUMP JUMPDEST SWAP5 SWAP4 POP POP POP POP JUMP JUMPDEST PUSH1 0x0 DUP1 PUSH1 0xA0 DUP4 DUP6 SUB SLT ISZERO PUSH2 0x249C JUMPI DUP2 DUP3 REVERT JUMPDEST DUP3 CALLDATALOAD PUSH8 0xFFFFFFFFFFFFFFFF DUP2 GT ISZERO PUSH2 0x24B2 JUMPI DUP3 DUP4 REVERT JUMPDEST PUSH2 0x24BE DUP6 DUP3 DUP7 ADD PUSH2 0x2002 JUMP JUMPDEST SWAP3 POP POP PUSH2 0x24CE DUP5 PUSH1 0x20 DUP6 ADD PUSH2 0x20C3 JUMP JUMPDEST SWAP1 POP SWAP3 POP SWAP3 SWAP1 POP JUMP JUMPDEST PUSH1 0x0 DUP1 PUSH1 0x0 DUP4 DUP6 SUB PUSH2 0x1E0 DUP2 SLT ISZERO PUSH2 0x24ED JUMPI DUP2 DUP3 REVERT JUMPDEST PUSH2 0x140 DUP1 DUP3 SLT ISZERO PUSH2 0x24FC JUMPI DUP3 DUP4 REVERT JUMPDEST PUSH2 0x2505 DUP2 PUSH2 0x2DC4 JUMP JUMPDEST SWAP2 POP PUSH2 0x2511 DUP8 DUP8 PUSH2 0x1E13 JUMP JUMPDEST DUP3 MSTORE PUSH2 0x2520 DUP8 PUSH1 0x20 DUP9 ADD PUSH2 0x1E13 JUMP JUMPDEST PUSH1 0x20 DUP4 ADD MSTORE PUSH2 0x2532 DUP8 PUSH1 0x40 DUP9 ADD PUSH2 0x2175 JUMP JUMPDEST PUSH1 0x40 DUP4 ADD MSTORE PUSH2 0x2544 DUP8 PUSH1 0x60 DUP9 ADD PUSH2 0x2175 JUMP JUMPDEST PUSH1 0x60 DUP4 ADD MSTORE PUSH2 0x2556 DUP8 PUSH1 0x80 DUP9 ADD PUSH2 0x1E13 JUMP JUMPDEST PUSH1 0x80 DUP4 ADD MSTORE PUSH2 0x2568 DUP8 PUSH1 0xA0 DUP9 ADD PUSH2 0x1E13 JUMP JUMPDEST PUSH1 0xA0 DUP4 ADD MSTORE PUSH2 0x257A DUP8 PUSH1 0xC0 DUP9 ADD PUSH2 0x1E13 JUMP JUMPDEST PUSH1 0xC0 DUP4 ADD MSTORE PUSH1 0xE0 DUP7 ADD MLOAD PUSH1 0xE0 DUP4 ADD MSTORE PUSH2 0x100 PUSH2 0x2598 DUP9 DUP3 DUP10 ADD PUSH2 0x21A9 JUMP JUMPDEST DUP2 DUP5 ADD MSTORE POP PUSH2 0x120 DUP1 DUP8 ADD MLOAD DUP2 DUP5 ADD MSTORE POP DUP2 SWAP5 POP PUSH2 0x25B8 DUP8 DUP3 DUP9 ADD PUSH2 0x211C JUMP JUMPDEST SWAP4 POP POP POP PUSH2 0x2446 DUP6 PUSH2 0x1C0 DUP7 ADD PUSH2 0x2175 JUMP JUMPDEST PUSH1 0x0 PUSH1 0x20 DUP3 DUP5 SUB SLT ISZERO PUSH2 0x25DB JUMPI DUP1 DUP2 REVERT JUMPDEST POP MLOAD SWAP2 SWAP1 POP JUMP JUMPDEST PUSH1 0x0 PUSH4 0xFFFFFFFF DUP3 MLOAD AND DUP4 MSTORE PUSH1 0x20 DUP3 ADD MLOAD PUSH1 0x40 PUSH1 0x20 DUP6 ADD MSTORE PUSH2 0x2482 PUSH1 0x40 DUP6 ADD DUP3 PUSH2 0x2621 JUMP JUMPDEST PUSH20 0xFFFFFFFFFFFFFFFFFFFFFFFFFFFFFFFFFFFFFFFF AND SWAP1 MSTORE JUMP JUMPDEST PUSH1 0x0 DUP2 MLOAD DUP1 DUP5 MSTORE PUSH2 0x2639 DUP2 PUSH1 0x20 DUP7 ADD PUSH1 0x20 DUP7 ADD PUSH2 0x2E4D JUMP JUMPDEST PUSH1 0x1F ADD PUSH32 0xFFFFFFFFFFFFFFFFFFFFFFFFFFFFFFFFFFFFFFFFFFFFFFFFFFFFFFFFFFFFFFE0 AND SWAP3 SWAP1 SWAP3 ADD PUSH1 0x20 ADD SWAP3 SWAP2 POP POP JUMP JUMPDEST DUP1 MLOAD PUSH1 0x4 DUP2 LT PUSH2 0x2677 JUMPI INVALID JUMPDEST DUP3 MSTORE PUSH1 0x20 DUP2 DUP2 ADD MLOAD PUSH1 0xFF AND SWAP1 DUP4 ADD MSTORE PUSH1 0x40 DUP1 DUP3 ADD MLOAD SWAP1 DUP4 ADD MSTORE PUSH1 0x60 SWAP1 DUP2 ADD MLOAD SWAP2 ADD MSTORE JUMP JUMPDEST PUSH16 0xFFFFFFFFFFFFFFFFFFFFFFFFFFFFFFFF AND SWAP1 MSTORE JUMP JUMPDEST PUSH8 0xFFFFFFFFFFFFFFFF AND SWAP1 MSTORE JUMP JUMPDEST PUSH1 0x0 DUP3 MLOAD PUSH2 0x26D1 DUP2 DUP5 PUSH1 0x20 DUP8 ADD PUSH2 0x2E4D JUMP JUMPDEST SWAP2 SWAP1 SWAP2 ADD SWAP3 SWAP2 POP POP JUMP JUMPDEST PUSH32 0x1901000000000000000000000000000000000000000000000000000000000000 DUP2 MSTORE PUSH1 0x2 DUP2 ADD SWAP3 SWAP1 SWAP3 MSTORE PUSH1 0x22 DUP3 ADD MSTORE PUSH1 0x42 ADD SWAP1 JUMP JUMPDEST PUSH20 0xFFFFFFFFFFFFFFFFFFFFFFFFFFFFFFFFFFFFFFFF SWAP3 DUP4 AND DUP2 MSTORE SWAP2 AND PUSH1 0x20 DUP3 ADD MSTORE PUSH1 0x40 ADD SWAP1 JUMP JUMPDEST PUSH1 0x0 PUSH20 0xFFFFFFFFFFFFFFFFFFFFFFFFFFFFFFFFFFFFFFFF DUP1 DUP9 AND DUP4 MSTORE DUP1 DUP8 AND PUSH1 0x20 DUP5 ADD MSTORE DUP1 DUP7 AND PUSH1 0x40 DUP5 ADD MSTORE POP DUP4 PUSH1 0x60 DUP4 ADD MSTORE PUSH1 0xA0 PUSH1 0x80 DUP4 ADD MSTORE PUSH2 0x277F PUSH1 0xA0 DUP4 ADD DUP5 PUSH2 0x2621 JUMP JUMPDEST SWAP8 SWAP7 POP POP POP POP POP POP POP JUMP JUMPDEST PUSH1 0x0 PUSH1 0x20 DUP1 DUP4 ADD DUP2 DUP5 MSTORE DUP1 DUP6 MLOAD DUP1 DUP4 MSTORE PUSH1 0x40 DUP7 ADD SWAP2 POP PUSH1 0x40 DUP5 DUP3 MUL DUP8 ADD ADD SWAP3 POP DUP4 DUP8 ADD DUP6 JUMPDEST DUP3 DUP2 LT ISZERO PUSH2 0x27FB JUMPI PUSH32 0xFFFFFFFFFFFFFFFFFFFFFFFFFFFFFFFFFFFFFFFFFFFFFFFFFFFFFFFFFFFFFFC0 DUP9 DUP7 SUB ADD DUP5 MSTORE PUSH2 0x27E9 DUP6 DUP4 MLOAD PUSH2 0x2621 JUMP JUMPDEST SWAP5 POP SWAP3 DUP6 ADD SWAP3 SWAP1 DUP6 ADD SWAP1 PUSH1 0x1 ADD PUSH2 0x27AF JUMP JUMPDEST POP SWAP3 SWAP8 SWAP7 POP POP POP POP POP POP POP JUMP JUMPDEST SWAP1 DUP2 MSTORE PUSH1 0x20 ADD SWAP1 JUMP JUMPDEST SWAP3 DUP4 MSTORE PUSH20 0xFFFFFFFFFFFFFFFFFFFFFFFFFFFFFFFFFFFFFFFF SWAP2 DUP3 AND PUSH1 0x20 DUP5 ADD MSTORE AND PUSH1 0x40 DUP3 ADD MSTORE PUSH1 0x60 ADD SWAP1 JUMP JUMPDEST SWAP11 DUP12 MSTORE PUSH20 0xFFFFFFFFFFFFFFFFFFFFFFFFFFFFFFFFFFFFFFFF SWAP10 DUP11 AND PUSH1 0x20 DUP13 ADD MSTORE SWAP8 DUP10 AND PUSH1 0x40 DUP12 ADD MSTORE PUSH1 0x60 DUP11 ADD SWAP7 SWAP1 SWAP7 MSTORE PUSH1 0x80 DUP10 ADD SWAP5 SWAP1 SWAP5 MSTORE PUSH1 0xA0 DUP9 ADD SWAP3 SWAP1 SWAP3 MSTORE PUSH1 0xC0 DUP8 ADD MSTORE PUSH1 0xE0 DUP7 ADD MSTORE PUSH2 0x100 DUP6 ADD MSTORE SWAP1 SWAP2 AND PUSH2 0x120 DUP4 ADD MSTORE PUSH2 0x140 DUP3 ADD MSTORE PUSH2 0x160 ADD SWAP1 JUMP JUMPDEST SWAP2 DUP3 MSTORE PUSH32 0xFFFFFFFF00000000000000000000000000000000000000000000000000000000 AND PUSH1 0x20 DUP3 ADD MSTORE PUSH1 0x40 ADD SWAP1 JUMP JUMPDEST PUSH1 0x0 DUP5 DUP3 MSTORE PUSH1 0x60 PUSH1 0x20 DUP4 ADD MSTORE PUSH2 0x28EC PUSH1 0x60 DUP4 ADD DUP6 PUSH2 0x2621 JUMP JUMPDEST DUP3 DUP2 SUB PUSH1 0x40 DUP5 ADD MSTORE PUSH2 0x132F DUP2 DUP6 PUSH2 0x2621 JUMP JUMPDEST SWAP2 DUP3 MSTORE PUSH1 0x20 DUP3 ADD MSTORE PUSH1 0x40 ADD SWAP1 JUMP JUMPDEST SWAP3 DUP4 MSTORE PUSH1 0x20 DUP4 ADD SWAP2 SWAP1 SWAP2 MSTORE PUSH1 0x40 DUP3 ADD MSTORE PUSH1 0x60 ADD SWAP1 JUMP JUMPDEST SWAP4 DUP5 MSTORE PUSH1 0x20 DUP5 ADD SWAP3 SWAP1 SWAP3 MSTORE PUSH1 0x40 DUP4 ADD MSTORE PUSH1 0x60 DUP3 ADD MSTORE PUSH1 0x80 ADD SWAP1 JUMP JUMPDEST SWAP4 DUP5 MSTORE PUSH1 0xFF SWAP3 SWAP1 SWAP3 AND PUSH1 0x20 DUP5 ADD MSTORE PUSH1 0x40 DUP4 ADD MSTORE PUSH1 0x60 DUP3 ADD MSTORE PUSH1 0x80 ADD SWAP1 JUMP JUMPDEST PUSH32 0xFFFFFFFF00000000000000000000000000000000000000000000000000000000 SWAP2 SWAP1 SWAP2 AND DUP2 MSTORE PUSH1 0x20 ADD SWAP1 JUMP JUMPDEST PUSH32 0xFFFFFFFF00000000000000000000000000000000000000000000000000000000 SWAP3 SWAP1 SWAP3 AND DUP3 MSTORE PUSH20 0xFFFFFFFFFFFFFFFFFFFFFFFFFFFFFFFFFFFFFFFF AND PUSH1 0x20 DUP3 ADD MSTORE PUSH1 0x40 ADD SWAP1 JUMP JUMPDEST PUSH32 0xFFFFFFFF00000000000000000000000000000000000000000000000000000000 SWAP3 SWAP1 SWAP3 AND DUP3 MSTORE PUSH1 0x20 DUP3 ADD MSTORE PUSH1 0x40 ADD SWAP1 JUMP JUMPDEST PUSH1 0x0 PUSH1 0x20 DUP3 MSTORE PUSH2 0xA2D PUSH1 0x20 DUP4 ADD DUP5 PUSH2 0x2621 JUMP JUMPDEST PUSH20 0xFFFFFFFFFFFFFFFFFFFFFFFFFFFFFFFFFFFFFFFF SWAP5 DUP6 AND DUP2 MSTORE SWAP3 DUP5 AND PUSH1 0x20 DUP5 ADD MSTORE SWAP3 AND PUSH1 0x40 DUP3 ADD MSTORE PUSH1 0x60 DUP2 ADD SWAP2 SWAP1 SWAP2 MSTORE PUSH1 0x80 ADD SWAP1 JUMP JUMPDEST PUSH1 0x60 DUP2 ADD PUSH1 0x8 DUP6 LT PUSH2 0x2A5A JUMPI INVALID JUMPDEST SWAP4 DUP2 MSTORE PUSH1 0x20 DUP2 ADD SWAP3 SWAP1 SWAP3 MSTORE PUSH1 0x40 SWAP1 SWAP2 ADD MSTORE SWAP1 JUMP JUMPDEST PUSH1 0x40 DUP2 ADD PUSH2 0x2A7B DUP5 PUSH2 0x2E79 JUMP JUMPDEST SWAP3 DUP2 MSTORE PUSH1 0x20 ADD MSTORE SWAP1 JUMP JUMPDEST PUSH1 0x0 PUSH2 0x2A90 DUP7 PUSH2 0x2E79 JUMP JUMPDEST DUP6 DUP3 MSTORE DUP5 PUSH1 0x20 DUP4 ADD MSTORE PUSH20 0xFFFFFFFFFFFFFFFFFFFFFFFFFFFFFFFFFFFFFFFF DUP5 AND PUSH1 0x40 DUP4 ADD MSTORE PUSH1 0x80 PUSH1 0x60 DUP4 ADD MSTORE PUSH2 0x132F PUSH1 0x80 DUP4 ADD DUP5 PUSH2 0x2621 JUMP JUMPDEST PUSH1 0x20 DUP1 DUP3 MSTORE PUSH1 0x24 SWAP1 DUP3 ADD MSTORE PUSH32 0x466978696E546F6B656E5370656E6465722F43414E4E4F545F494E564F4B455F PUSH1 0x40 DUP3 ADD MSTORE PUSH32 0x53454C4600000000000000000000000000000000000000000000000000000000 PUSH1 0x60 DUP3 ADD MSTORE PUSH1 0x80 ADD SWAP1 JUMP JUMPDEST PUSH1 0x0 PUSH2 0x260 DUP3 ADD SWAP1 POP PUSH2 0x2B3A DUP3 DUP9 MLOAD PUSH2 0x2607 JUMP JUMPDEST PUSH1 0x20 DUP8 ADD MLOAD PUSH2 0x2B4C PUSH1 0x20 DUP5 ADD DUP3 PUSH2 0x2607 JUMP JUMPDEST POP PUSH1 0x40 DUP8 ADD MLOAD PUSH2 0x2B5F PUSH1 0x40 DUP5 ADD DUP3 PUSH2 0x269B JUMP JUMPDEST POP PUSH1 0x60 DUP8 ADD MLOAD PUSH2 0x2B72 PUSH1 0x60 DUP5 ADD DUP3 PUSH2 0x269B JUMP JUMPDEST POP PUSH1 0x80 DUP8 ADD MLOAD PUSH2 0x2B85 PUSH1 0x80 DUP5 ADD DUP3 PUSH2 0x269B JUMP JUMPDEST POP PUSH1 0xA0 DUP8 ADD MLOAD PUSH2 0x2B98 PUSH1 0xA0 DUP5 ADD DUP3 PUSH2 0x2607 JUMP JUMPDEST POP PUSH1 0xC0 DUP8 ADD MLOAD PUSH2 0x2BAB PUSH1 0xC0 DUP5 ADD DUP3 PUSH2 0x2607 JUMP JUMPDEST POP PUSH1 0xE0 DUP8 ADD MLOAD PUSH2 0x2BBE PUSH1 0xE0 DUP5 ADD DUP3 PUSH2 0x2607 JUMP JUMPDEST POP PUSH2 0x100 DUP1 DUP9 ADD MLOAD PUSH2 0x2BD2 DUP3 DUP6 ADD DUP3 PUSH2 0x2607 JUMP JUMPDEST POP POP PUSH2 0x120 DUP8 DUP2 ADD MLOAD SWAP1 DUP4 ADD MSTORE PUSH2 0x140 DUP1 DUP9 ADD MLOAD PUSH2 0x2BF2 DUP3 DUP6 ADD DUP3 PUSH2 0x26B1 JUMP JUMPDEST POP POP PUSH2 0x160 DUP8 DUP2 ADD MLOAD SWAP1 DUP4 ADD MSTORE PUSH2 0x2C0D PUSH2 0x180 DUP4 ADD DUP8 PUSH2 0x266B JUMP JUMPDEST PUSH2 0x2C1B PUSH2 0x200 DUP4 ADD DUP7 PUSH2 0x269B JUMP JUMPDEST PUSH2 0x2C29 PUSH2 0x220 DUP4 ADD DUP6 PUSH2 0x2607 JUMP JUMPDEST PUSH2 0x132F PUSH2 0x240 DUP4 ADD DUP5 PUSH2 0x2607 JUMP JUMPDEST PUSH1 0x0 PUSH2 0x200 DUP3 ADD SWAP1 POP PUSH2 0x2C4B DUP3 DUP8 MLOAD PUSH2 0x2607 JUMP JUMPDEST PUSH1 0x20 DUP7 ADD MLOAD PUSH2 0x2C5D PUSH1 0x20 DUP5 ADD DUP3 PUSH2 0x2607 JUMP JUMPDEST POP PUSH1 0x40 DUP7 ADD MLOAD PUSH2 0x2C70 PUSH1 0x40 DUP5 ADD DUP3 PUSH2 0x269B JUMP JUMPDEST POP PUSH1 0x60 DUP7 ADD MLOAD PUSH2 0x2C83 PUSH1 0x60 DUP5 ADD DUP3 PUSH2 0x269B JUMP JUMPDEST POP PUSH1 0x80 DUP7 ADD MLOAD PUSH2 0x2C96 PUSH1 0x80 DUP5 ADD DUP3 PUSH2 0x2607 JUMP JUMPDEST POP PUSH1 0xA0 DUP7 ADD MLOAD PUSH2 0x2CA9 PUSH1 0xA0 DUP5 ADD DUP3 PUSH2 0x2607 JUMP JUMPDEST POP PUSH1 0xC0 DUP7 ADD MLOAD PUSH2 0x2CBC PUSH1 0xC0 DUP5 ADD DUP3 PUSH2 0x2607 JUMP JUMPDEST POP PUSH1 0xE0 DUP7 ADD MLOAD PUSH1 0xE0 DUP4 ADD MSTORE PUSH2 0x100 DUP1 DUP8 ADD MLOAD PUSH2 0x2CDA DUP3 DUP6 ADD DUP3 PUSH2 0x26B1 JUMP JUMPDEST POP POP PUSH2 0x120 DUP7 DUP2 ADD MLOAD SWAP1 DUP4 ADD MSTORE PUSH2 0x2CF5 PUSH2 0x140 DUP4 ADD DUP7 PUSH2 0x266B JUMP JUMPDEST PUSH2 0x2D03 PUSH2 0x1C0 DUP4 ADD DUP6 PUSH2 0x269B JUMP JUMPDEST PUSH2 0x1BAF PUSH2 0x1E0 DUP4 ADD DUP5 PUSH2 0x2607 JUMP JUMPDEST PUSH1 0x0 PUSH1 0x20 DUP1 DUP4 MSTORE PUSH1 0xE0 DUP4 ADD PUSH20 0xFFFFFFFFFFFFFFFFFFFFFFFFFFFFFFFFFFFFFFFF DUP1 DUP7 MLOAD AND DUP4 DUP7 ADD MSTORE DUP1 DUP4 DUP8 ADD MLOAD AND PUSH1 0x40 DUP7 ADD MSTORE DUP1 PUSH1 0x40 DUP8 ADD MLOAD AND PUSH1 0x60 DUP7 ADD MSTORE POP PUSH1 0x60 DUP6 ADD MLOAD PUSH1 0x80 DUP6 ADD MSTORE PUSH1 0x80 DUP6 ADD MLOAD PUSH1 0xA0 DUP6 ADD MSTORE PUSH1 0xA0 DUP6 ADD MLOAD PUSH1 0xC0 DUP1 DUP7 ADD MSTORE DUP2 DUP2 MLOAD PUSH2 0x2D7D DUP2 DUP6 PUSH2 0x2808 JUMP JUMPDEST SWAP4 POP SWAP2 DUP5 ADD SWAP2 DUP4 SWAP2 POP DUP1 DUP6 MUL DUP3 ADD DUP7 JUMPDEST DUP3 DUP2 LT ISZERO PUSH2 0x2DB7 JUMPI DUP6 DUP3 SUB DUP5 MSTORE PUSH2 0x2DA5 DUP3 DUP7 MLOAD PUSH2 0x25E2 JUMP JUMPDEST SWAP5 DUP8 ADD SWAP5 SWAP4 DUP8 ADD SWAP4 SWAP2 POP PUSH1 0x1 ADD PUSH2 0x2D8D JUMP JUMPDEST POP SWAP9 SWAP8 POP POP POP POP POP POP POP POP JUMP JUMPDEST PUSH1 0x40 MLOAD DUP2 DUP2 ADD PUSH8 0xFFFFFFFFFFFFFFFF DUP2 GT DUP3 DUP3 LT OR ISZERO PUSH2 0x2DE3 JUMPI PUSH1 0x0 DUP1 REVERT JUMPDEST PUSH1 0x40 MSTORE SWAP2 SWAP1 POP JUMP JUMPDEST PUSH1 0x0 PUSH8 0xFFFFFFFFFFFFFFFF DUP3 GT ISZERO PUSH2 0x2E01 JUMPI DUP1 DUP2 REVERT JUMPDEST POP PUSH1 0x20 SWAP1 DUP2 MUL ADD SWAP1 JUMP JUMPDEST PUSH1 0x0 PUSH8 0xFFFFFFFFFFFFFFFF DUP3 GT ISZERO PUSH2 0x2E21 JUMPI DUP1 DUP2 REVERT JUMPDEST POP PUSH1 0x1F ADD PUSH32 0xFFFFFFFFFFFFFFFFFFFFFFFFFFFFFFFFFFFFFFFFFFFFFFFFFFFFFFFFFFFFFFE0 AND PUSH1 0x20 ADD SWAP1 JUMP JUMPDEST PUSH1 0x0 JUMPDEST DUP4 DUP2 LT ISZERO PUSH2 0x2E68 JUMPI DUP2 DUP2 ADD MLOAD DUP4 DUP3 ADD MSTORE PUSH1 0x20 ADD PUSH2 0x2E50 JUMP JUMPDEST DUP4 DUP2 GT ISZERO PUSH2 0x1008 JUMPI POP POP PUSH1 0x0 SWAP2 ADD MSTORE JUMP JUMPDEST PUSH1 0x6 DUP2 LT PUSH2 0xDFA JUMPI INVALID JUMPDEST PUSH20 0xFFFFFFFFFFFFFFFFFFFFFFFFFFFFFFFFFFFFFFFF DUP2 AND DUP2 EQ PUSH2 0xDFA JUMPI PUSH1 0x0 DUP1 REVERT JUMPDEST PUSH1 0x4 DUP2 LT PUSH2 0xDFA JUMPI PUSH1 0x0 DUP1 REVERT JUMPDEST PUSH1 0xFF DUP2 AND DUP2 EQ PUSH2 0xDFA JUMPI PUSH1 0x0 DUP1 REVERT INVALID LOG2 PUSH5 0x6970667358 0x22 SLT KECCAK256 PUSH23 0x74255D0BC140B6A4D94A61F4B412482233613D8EC887EB 0x2D TIMESTAMP CREATE2 LT 0xB0 ADDRESS MSIZE PUSH32 0x64736F6C634300060C0033000000000000000000000000000000000000000000 "
            },
            "methodIdentifiers": {
                "EIP712_DOMAIN_SEPARATOR()": "dab400f3",
                "FEATURE_NAME()": "6ae4b4f7",
                "FEATURE_VERSION()": "031b905c",
                "GREEDY_TOKENS_BLOOM_FILTER()": "d925a56d",
                "MTX_EIP712_TYPEHASH()": "d036092d",
                "batchExecuteMetaTransactions((address,address,uint256,uint256,uint256,uint256,bytes,uint256,address,uint256)[],(uint8,uint8,bytes32,bytes32)[])": "c5579ec8",
                "executeMetaTransaction((address,address,uint256,uint256,uint256,uint256,bytes,uint256,address,uint256),(uint8,uint8,bytes32,bytes32))": "3d61ed3e",
                "getMetaTransactionExecutedBlock((address,address,uint256,uint256,uint256,uint256,bytes,uint256,address,uint256))": "3fb2da38",
                "getMetaTransactionHash((address,address,uint256,uint256,uint256,uint256,bytes,uint256,address,uint256))": "ae550497",
                "getMetaTransactionHashExecutedBlock(bytes32)": "72d17d03",
                "migrate()": "8fd3ab80"
            }
        }
    },
    "sourceTreeHashHex": "0x3e068e6e9945e4fd01e8296ceeb1877006d64f7b595b7da44bd8067067278a4e",
    "compiler": {
        "name": "solc",
        "version": "0.6.12+commit.27d51765",
        "settings": {
            "remappings": [
                "@0x/contracts-utils=/Users/michaelzhu/protocol/node_modules/@0x/contracts-utils",
                "@0x/contracts-erc20=/Users/michaelzhu/protocol/contracts/zero-ex/node_modules/@0x/contracts-erc20"
            ],
            "optimizer": {
                "enabled": true,
                "runs": 1000000,
                "details": {
                    "yul": true,
                    "deduplicate": true,
                    "cse": true,
                    "constantOptimizer": true
                }
            },
            "outputSelection": {
                "*": {
                    "*": [
                        "abi",
                        "devdoc",
                        "evm.bytecode.object",
                        "evm.bytecode.sourceMap",
                        "evm.deployedBytecode.object",
                        "evm.deployedBytecode.sourceMap",
                        "evm.methodIdentifiers"
                    ]
                }
            },
            "evmVersion": "istanbul"
        }
    },
    "chains": {}
}