{
    "schemaVersion": "2.0.0",
    "contractName": "NativeOrdersFeature",
    "compilerOutput": {
        "abi": [
            {
                "inputs": [
                    {
                        "internalType": "address",
                        "name": "zeroExAddress",
                        "type": "address"
                    },
                    {
                        "internalType": "contract IEtherTokenV06",
                        "name": "weth",
                        "type": "address"
                    },
                    {
                        "internalType": "contract IStaking",
                        "name": "staking",
                        "type": "address"
                    },
                    {
                        "internalType": "contract FeeCollectorController",
                        "name": "feeCollectorController",
                        "type": "address"
                    },
                    {
                        "internalType": "uint32",
                        "name": "protocolFeeMultiplier",
                        "type": "uint32"
                    },
                    {
                        "internalType": "bytes32",
                        "name": "greedyTokensBloomFilter",
                        "type": "bytes32"
                    }
                ],
                "stateMutability": "nonpayable",
                "type": "constructor"
            },
            {
                "anonymous": false,
                "inputs": [
                    {
                        "indexed": false,
                        "internalType": "bytes32",
                        "name": "orderHash",
                        "type": "bytes32"
                    },
                    {
                        "indexed": false,
                        "internalType": "address",
                        "name": "maker",
                        "type": "address"
                    },
                    {
                        "indexed": false,
                        "internalType": "address",
                        "name": "taker",
                        "type": "address"
                    },
                    {
                        "indexed": false,
                        "internalType": "address",
                        "name": "feeRecipient",
                        "type": "address"
                    },
                    {
                        "indexed": false,
                        "internalType": "address",
                        "name": "makerToken",
                        "type": "address"
                    },
                    {
                        "indexed": false,
                        "internalType": "address",
                        "name": "takerToken",
                        "type": "address"
                    },
                    {
                        "indexed": false,
                        "internalType": "uint128",
                        "name": "takerTokenFilledAmount",
                        "type": "uint128"
                    },
                    {
                        "indexed": false,
                        "internalType": "uint128",
                        "name": "makerTokenFilledAmount",
                        "type": "uint128"
                    },
                    {
                        "indexed": false,
                        "internalType": "uint128",
                        "name": "takerTokenFeeFilledAmount",
                        "type": "uint128"
                    },
                    {
                        "indexed": false,
                        "internalType": "uint256",
                        "name": "protocolFeePaid",
                        "type": "uint256"
                    },
                    {
                        "indexed": false,
                        "internalType": "bytes32",
                        "name": "pool",
                        "type": "bytes32"
                    }
                ],
                "name": "LimitOrderFilled",
                "type": "event"
            },
            {
                "anonymous": false,
                "inputs": [
                    {
                        "indexed": false,
                        "internalType": "bytes32",
                        "name": "orderHash",
                        "type": "bytes32"
                    },
                    {
                        "indexed": false,
                        "internalType": "address",
                        "name": "maker",
                        "type": "address"
                    }
                ],
                "name": "OrderCancelled",
                "type": "event"
            },
            {
                "anonymous": false,
                "inputs": [
                    {
                        "indexed": false,
                        "internalType": "address",
                        "name": "maker",
                        "type": "address"
                    },
                    {
                        "indexed": false,
                        "internalType": "address",
                        "name": "makerToken",
                        "type": "address"
                    },
                    {
                        "indexed": false,
                        "internalType": "address",
                        "name": "takerToken",
                        "type": "address"
                    },
                    {
                        "indexed": false,
                        "internalType": "uint256",
                        "name": "minValidSalt",
                        "type": "uint256"
                    }
                ],
                "name": "PairCancelledLimitOrders",
                "type": "event"
            },
            {
                "anonymous": false,
                "inputs": [
                    {
                        "indexed": false,
                        "internalType": "address",
                        "name": "maker",
                        "type": "address"
                    },
                    {
                        "indexed": false,
                        "internalType": "address",
                        "name": "makerToken",
                        "type": "address"
                    },
                    {
                        "indexed": false,
                        "internalType": "address",
                        "name": "takerToken",
                        "type": "address"
                    },
                    {
                        "indexed": false,
                        "internalType": "uint256",
                        "name": "minValidSalt",
                        "type": "uint256"
                    }
                ],
                "name": "PairCancelledRfqOrders",
                "type": "event"
            },
            {
                "anonymous": false,
                "inputs": [
                    {
                        "indexed": false,
                        "internalType": "bytes32",
                        "name": "orderHash",
                        "type": "bytes32"
                    },
                    {
                        "indexed": false,
                        "internalType": "address",
                        "name": "maker",
                        "type": "address"
                    },
                    {
                        "indexed": false,
                        "internalType": "address",
                        "name": "taker",
                        "type": "address"
                    },
                    {
                        "indexed": false,
                        "internalType": "address",
                        "name": "makerToken",
                        "type": "address"
                    },
                    {
                        "indexed": false,
                        "internalType": "address",
                        "name": "takerToken",
                        "type": "address"
                    },
                    {
                        "indexed": false,
                        "internalType": "uint128",
                        "name": "takerTokenFilledAmount",
                        "type": "uint128"
                    },
                    {
                        "indexed": false,
                        "internalType": "uint128",
                        "name": "makerTokenFilledAmount",
                        "type": "uint128"
                    },
                    {
                        "indexed": false,
                        "internalType": "bytes32",
                        "name": "pool",
                        "type": "bytes32"
                    }
                ],
                "name": "RfqOrderFilled",
                "type": "event"
            },
            {
                "anonymous": false,
                "inputs": [
                    {
                        "indexed": false,
                        "internalType": "address",
                        "name": "origin",
                        "type": "address"
                    },
                    {
                        "indexed": false,
                        "internalType": "address[]",
                        "name": "addrs",
                        "type": "address[]"
                    },
                    {
                        "indexed": false,
                        "internalType": "bool",
                        "name": "allowed",
                        "type": "bool"
                    }
                ],
                "name": "RfqOrderOriginsAllowed",
                "type": "event"
            },
            {
                "inputs": [],
                "name": "EIP712_DOMAIN_SEPARATOR",
                "outputs": [
                    {
                        "internalType": "bytes32",
                        "name": "",
                        "type": "bytes32"
                    }
                ],
                "stateMutability": "view",
                "type": "function"
            },
            {
                "inputs": [],
                "name": "FEATURE_NAME",
                "outputs": [
                    {
                        "internalType": "string",
                        "name": "",
                        "type": "string"
                    }
                ],
                "stateMutability": "view",
                "type": "function"
            },
            {
                "inputs": [],
                "name": "FEATURE_VERSION",
                "outputs": [
                    {
                        "internalType": "uint256",
                        "name": "",
                        "type": "uint256"
                    }
                ],
                "stateMutability": "view",
                "type": "function"
            },
            {
                "inputs": [],
                "name": "GREEDY_TOKENS_BLOOM_FILTER",
                "outputs": [
                    {
                        "internalType": "bytes32",
                        "name": "",
                        "type": "bytes32"
                    }
                ],
                "stateMutability": "view",
                "type": "function"
            },
            {
                "inputs": [],
                "name": "PROTOCOL_FEE_MULTIPLIER",
                "outputs": [
                    {
                        "internalType": "uint32",
                        "name": "",
                        "type": "uint32"
                    }
                ],
                "stateMutability": "view",
                "type": "function"
            },
            {
                "inputs": [
                    {
                        "components": [
                            {
                                "internalType": "contract IERC20TokenV06",
                                "name": "makerToken",
                                "type": "address"
                            },
                            {
                                "internalType": "contract IERC20TokenV06",
                                "name": "takerToken",
                                "type": "address"
                            },
                            {
                                "internalType": "uint128",
                                "name": "makerAmount",
                                "type": "uint128"
                            },
                            {
                                "internalType": "uint128",
                                "name": "takerAmount",
                                "type": "uint128"
                            },
                            {
                                "internalType": "uint128",
                                "name": "takerTokenFeeAmount",
                                "type": "uint128"
                            },
                            {
                                "internalType": "address",
                                "name": "maker",
                                "type": "address"
                            },
                            {
                                "internalType": "address",
                                "name": "taker",
                                "type": "address"
                            },
                            {
                                "internalType": "address",
                                "name": "sender",
                                "type": "address"
                            },
                            {
                                "internalType": "address",
                                "name": "feeRecipient",
                                "type": "address"
                            },
                            {
                                "internalType": "bytes32",
                                "name": "pool",
                                "type": "bytes32"
                            },
                            {
                                "internalType": "uint64",
                                "name": "expiry",
                                "type": "uint64"
                            },
                            {
                                "internalType": "uint256",
                                "name": "salt",
                                "type": "uint256"
                            }
                        ],
                        "internalType": "struct LibNativeOrder.LimitOrder",
                        "name": "order",
                        "type": "tuple"
                    },
                    {
                        "components": [
                            {
                                "internalType": "enum LibSignature.SignatureType",
                                "name": "signatureType",
                                "type": "uint8"
                            },
                            {
                                "internalType": "uint8",
                                "name": "v",
                                "type": "uint8"
                            },
                            {
                                "internalType": "bytes32",
                                "name": "r",
                                "type": "bytes32"
                            },
                            {
                                "internalType": "bytes32",
                                "name": "s",
                                "type": "bytes32"
                            }
                        ],
                        "internalType": "struct LibSignature.Signature",
                        "name": "signature",
                        "type": "tuple"
                    },
                    {
                        "internalType": "uint128",
                        "name": "takerTokenFillAmount",
                        "type": "uint128"
                    },
                    {
                        "internalType": "address",
                        "name": "taker",
                        "type": "address"
                    },
                    {
                        "internalType": "address",
                        "name": "sender",
                        "type": "address"
                    }
                ],
                "name": "_fillLimitOrder",
                "outputs": [
                    {
                        "internalType": "uint128",
                        "name": "takerTokenFilledAmount",
                        "type": "uint128"
                    },
                    {
                        "internalType": "uint128",
                        "name": "makerTokenFilledAmount",
                        "type": "uint128"
                    }
                ],
                "stateMutability": "payable",
                "type": "function"
            },
            {
                "inputs": [
                    {
                        "components": [
                            {
                                "internalType": "contract IERC20TokenV06",
                                "name": "makerToken",
                                "type": "address"
                            },
                            {
                                "internalType": "contract IERC20TokenV06",
                                "name": "takerToken",
                                "type": "address"
                            },
                            {
                                "internalType": "uint128",
                                "name": "makerAmount",
                                "type": "uint128"
                            },
                            {
                                "internalType": "uint128",
                                "name": "takerAmount",
                                "type": "uint128"
                            },
                            {
                                "internalType": "address",
                                "name": "maker",
                                "type": "address"
                            },
                            {
                                "internalType": "address",
                                "name": "taker",
                                "type": "address"
                            },
                            {
                                "internalType": "address",
                                "name": "txOrigin",
                                "type": "address"
                            },
                            {
                                "internalType": "bytes32",
                                "name": "pool",
                                "type": "bytes32"
                            },
                            {
                                "internalType": "uint64",
                                "name": "expiry",
                                "type": "uint64"
                            },
                            {
                                "internalType": "uint256",
                                "name": "salt",
                                "type": "uint256"
                            }
                        ],
                        "internalType": "struct LibNativeOrder.RfqOrder",
                        "name": "order",
                        "type": "tuple"
                    },
                    {
                        "components": [
                            {
                                "internalType": "enum LibSignature.SignatureType",
                                "name": "signatureType",
                                "type": "uint8"
                            },
                            {
                                "internalType": "uint8",
                                "name": "v",
                                "type": "uint8"
                            },
                            {
                                "internalType": "bytes32",
                                "name": "r",
                                "type": "bytes32"
                            },
                            {
                                "internalType": "bytes32",
                                "name": "s",
                                "type": "bytes32"
                            }
                        ],
                        "internalType": "struct LibSignature.Signature",
                        "name": "signature",
                        "type": "tuple"
                    },
                    {
                        "internalType": "uint128",
                        "name": "takerTokenFillAmount",
                        "type": "uint128"
                    },
                    {
                        "internalType": "address",
                        "name": "taker",
                        "type": "address"
                    }
                ],
                "name": "_fillRfqOrder",
                "outputs": [
                    {
                        "internalType": "uint128",
                        "name": "takerTokenFilledAmount",
                        "type": "uint128"
                    },
                    {
                        "internalType": "uint128",
                        "name": "makerTokenFilledAmount",
                        "type": "uint128"
                    }
                ],
                "stateMutability": "nonpayable",
                "type": "function"
            },
            {
                "inputs": [
                    {
                        "components": [
                            {
                                "internalType": "contract IERC20TokenV06",
                                "name": "makerToken",
                                "type": "address"
                            },
                            {
                                "internalType": "contract IERC20TokenV06",
                                "name": "takerToken",
                                "type": "address"
                            },
                            {
                                "internalType": "uint128",
                                "name": "makerAmount",
                                "type": "uint128"
                            },
                            {
                                "internalType": "uint128",
                                "name": "takerAmount",
                                "type": "uint128"
                            },
                            {
                                "internalType": "uint128",
                                "name": "takerTokenFeeAmount",
                                "type": "uint128"
                            },
                            {
                                "internalType": "address",
                                "name": "maker",
                                "type": "address"
                            },
                            {
                                "internalType": "address",
                                "name": "taker",
                                "type": "address"
                            },
                            {
                                "internalType": "address",
                                "name": "sender",
                                "type": "address"
                            },
                            {
                                "internalType": "address",
                                "name": "feeRecipient",
                                "type": "address"
                            },
                            {
                                "internalType": "bytes32",
                                "name": "pool",
                                "type": "bytes32"
                            },
                            {
                                "internalType": "uint64",
                                "name": "expiry",
                                "type": "uint64"
                            },
                            {
                                "internalType": "uint256",
                                "name": "salt",
                                "type": "uint256"
                            }
                        ],
                        "internalType": "struct LibNativeOrder.LimitOrder[]",
                        "name": "orders",
                        "type": "tuple[]"
                    }
                ],
                "name": "batchCancelLimitOrders",
                "outputs": [],
                "stateMutability": "nonpayable",
                "type": "function"
            },
            {
                "inputs": [
                    {
                        "internalType": "contract IERC20TokenV06[]",
                        "name": "makerTokens",
                        "type": "address[]"
                    },
                    {
                        "internalType": "contract IERC20TokenV06[]",
                        "name": "takerTokens",
                        "type": "address[]"
                    },
                    {
                        "internalType": "uint256[]",
                        "name": "minValidSalts",
                        "type": "uint256[]"
                    }
                ],
                "name": "batchCancelPairLimitOrders",
                "outputs": [],
                "stateMutability": "nonpayable",
                "type": "function"
            },
            {
                "inputs": [
                    {
                        "internalType": "contract IERC20TokenV06[]",
                        "name": "makerTokens",
                        "type": "address[]"
                    },
                    {
                        "internalType": "contract IERC20TokenV06[]",
                        "name": "takerTokens",
                        "type": "address[]"
                    },
                    {
                        "internalType": "uint256[]",
                        "name": "minValidSalts",
                        "type": "uint256[]"
                    }
                ],
                "name": "batchCancelPairRfqOrders",
                "outputs": [],
                "stateMutability": "nonpayable",
                "type": "function"
            },
            {
                "inputs": [
                    {
                        "components": [
                            {
                                "internalType": "contract IERC20TokenV06",
                                "name": "makerToken",
                                "type": "address"
                            },
                            {
                                "internalType": "contract IERC20TokenV06",
                                "name": "takerToken",
                                "type": "address"
                            },
                            {
                                "internalType": "uint128",
                                "name": "makerAmount",
                                "type": "uint128"
                            },
                            {
                                "internalType": "uint128",
                                "name": "takerAmount",
                                "type": "uint128"
                            },
                            {
                                "internalType": "address",
                                "name": "maker",
                                "type": "address"
                            },
                            {
                                "internalType": "address",
                                "name": "taker",
                                "type": "address"
                            },
                            {
                                "internalType": "address",
                                "name": "txOrigin",
                                "type": "address"
                            },
                            {
                                "internalType": "bytes32",
                                "name": "pool",
                                "type": "bytes32"
                            },
                            {
                                "internalType": "uint64",
                                "name": "expiry",
                                "type": "uint64"
                            },
                            {
                                "internalType": "uint256",
                                "name": "salt",
                                "type": "uint256"
                            }
                        ],
                        "internalType": "struct LibNativeOrder.RfqOrder[]",
                        "name": "orders",
                        "type": "tuple[]"
                    }
                ],
                "name": "batchCancelRfqOrders",
                "outputs": [],
                "stateMutability": "nonpayable",
                "type": "function"
            },
            {
                "inputs": [
                    {
                        "components": [
                            {
                                "internalType": "contract IERC20TokenV06",
                                "name": "makerToken",
                                "type": "address"
                            },
                            {
                                "internalType": "contract IERC20TokenV06",
                                "name": "takerToken",
                                "type": "address"
                            },
                            {
                                "internalType": "uint128",
                                "name": "makerAmount",
                                "type": "uint128"
                            },
                            {
                                "internalType": "uint128",
                                "name": "takerAmount",
                                "type": "uint128"
                            },
                            {
                                "internalType": "uint128",
                                "name": "takerTokenFeeAmount",
                                "type": "uint128"
                            },
                            {
                                "internalType": "address",
                                "name": "maker",
                                "type": "address"
                            },
                            {
                                "internalType": "address",
                                "name": "taker",
                                "type": "address"
                            },
                            {
                                "internalType": "address",
                                "name": "sender",
                                "type": "address"
                            },
                            {
                                "internalType": "address",
                                "name": "feeRecipient",
                                "type": "address"
                            },
                            {
                                "internalType": "bytes32",
                                "name": "pool",
                                "type": "bytes32"
                            },
                            {
                                "internalType": "uint64",
                                "name": "expiry",
                                "type": "uint64"
                            },
                            {
                                "internalType": "uint256",
                                "name": "salt",
                                "type": "uint256"
                            }
                        ],
                        "internalType": "struct LibNativeOrder.LimitOrder[]",
                        "name": "orders",
                        "type": "tuple[]"
                    },
                    {
                        "components": [
                            {
                                "internalType": "enum LibSignature.SignatureType",
                                "name": "signatureType",
                                "type": "uint8"
                            },
                            {
                                "internalType": "uint8",
                                "name": "v",
                                "type": "uint8"
                            },
                            {
                                "internalType": "bytes32",
                                "name": "r",
                                "type": "bytes32"
                            },
                            {
                                "internalType": "bytes32",
                                "name": "s",
                                "type": "bytes32"
                            }
                        ],
                        "internalType": "struct LibSignature.Signature[]",
                        "name": "signatures",
                        "type": "tuple[]"
                    }
                ],
                "name": "batchGetLimitOrderRelevantStates",
                "outputs": [
                    {
                        "components": [
                            {
                                "internalType": "bytes32",
                                "name": "orderHash",
                                "type": "bytes32"
                            },
                            {
                                "internalType": "enum LibNativeOrder.OrderStatus",
                                "name": "status",
                                "type": "uint8"
                            },
                            {
                                "internalType": "uint128",
                                "name": "takerTokenFilledAmount",
                                "type": "uint128"
                            }
                        ],
                        "internalType": "struct LibNativeOrder.OrderInfo[]",
                        "name": "orderInfos",
                        "type": "tuple[]"
                    },
                    {
                        "internalType": "uint128[]",
                        "name": "actualFillableTakerTokenAmounts",
                        "type": "uint128[]"
                    },
                    {
                        "internalType": "bool[]",
                        "name": "isSignatureValids",
                        "type": "bool[]"
                    }
                ],
                "stateMutability": "view",
                "type": "function"
            },
            {
                "inputs": [
                    {
                        "components": [
                            {
                                "internalType": "contract IERC20TokenV06",
                                "name": "makerToken",
                                "type": "address"
                            },
                            {
                                "internalType": "contract IERC20TokenV06",
                                "name": "takerToken",
                                "type": "address"
                            },
                            {
                                "internalType": "uint128",
                                "name": "makerAmount",
                                "type": "uint128"
                            },
                            {
                                "internalType": "uint128",
                                "name": "takerAmount",
                                "type": "uint128"
                            },
                            {
                                "internalType": "address",
                                "name": "maker",
                                "type": "address"
                            },
                            {
                                "internalType": "address",
                                "name": "taker",
                                "type": "address"
                            },
                            {
                                "internalType": "address",
                                "name": "txOrigin",
                                "type": "address"
                            },
                            {
                                "internalType": "bytes32",
                                "name": "pool",
                                "type": "bytes32"
                            },
                            {
                                "internalType": "uint64",
                                "name": "expiry",
                                "type": "uint64"
                            },
                            {
                                "internalType": "uint256",
                                "name": "salt",
                                "type": "uint256"
                            }
                        ],
                        "internalType": "struct LibNativeOrder.RfqOrder[]",
                        "name": "orders",
                        "type": "tuple[]"
                    },
                    {
                        "components": [
                            {
                                "internalType": "enum LibSignature.SignatureType",
                                "name": "signatureType",
                                "type": "uint8"
                            },
                            {
                                "internalType": "uint8",
                                "name": "v",
                                "type": "uint8"
                            },
                            {
                                "internalType": "bytes32",
                                "name": "r",
                                "type": "bytes32"
                            },
                            {
                                "internalType": "bytes32",
                                "name": "s",
                                "type": "bytes32"
                            }
                        ],
                        "internalType": "struct LibSignature.Signature[]",
                        "name": "signatures",
                        "type": "tuple[]"
                    }
                ],
                "name": "batchGetRfqOrderRelevantStates",
                "outputs": [
                    {
                        "components": [
                            {
                                "internalType": "bytes32",
                                "name": "orderHash",
                                "type": "bytes32"
                            },
                            {
                                "internalType": "enum LibNativeOrder.OrderStatus",
                                "name": "status",
                                "type": "uint8"
                            },
                            {
                                "internalType": "uint128",
                                "name": "takerTokenFilledAmount",
                                "type": "uint128"
                            }
                        ],
                        "internalType": "struct LibNativeOrder.OrderInfo[]",
                        "name": "orderInfos",
                        "type": "tuple[]"
                    },
                    {
                        "internalType": "uint128[]",
                        "name": "actualFillableTakerTokenAmounts",
                        "type": "uint128[]"
                    },
                    {
                        "internalType": "bool[]",
                        "name": "isSignatureValids",
                        "type": "bool[]"
                    }
                ],
                "stateMutability": "view",
                "type": "function"
            },
            {
                "inputs": [
                    {
                        "components": [
                            {
                                "internalType": "contract IERC20TokenV06",
                                "name": "makerToken",
                                "type": "address"
                            },
                            {
                                "internalType": "contract IERC20TokenV06",
                                "name": "takerToken",
                                "type": "address"
                            },
                            {
                                "internalType": "uint128",
                                "name": "makerAmount",
                                "type": "uint128"
                            },
                            {
                                "internalType": "uint128",
                                "name": "takerAmount",
                                "type": "uint128"
                            },
                            {
                                "internalType": "uint128",
                                "name": "takerTokenFeeAmount",
                                "type": "uint128"
                            },
                            {
                                "internalType": "address",
                                "name": "maker",
                                "type": "address"
                            },
                            {
                                "internalType": "address",
                                "name": "taker",
                                "type": "address"
                            },
                            {
                                "internalType": "address",
                                "name": "sender",
                                "type": "address"
                            },
                            {
                                "internalType": "address",
                                "name": "feeRecipient",
                                "type": "address"
                            },
                            {
                                "internalType": "bytes32",
                                "name": "pool",
                                "type": "bytes32"
                            },
                            {
                                "internalType": "uint64",
                                "name": "expiry",
                                "type": "uint64"
                            },
                            {
                                "internalType": "uint256",
                                "name": "salt",
                                "type": "uint256"
                            }
                        ],
                        "internalType": "struct LibNativeOrder.LimitOrder",
                        "name": "order",
                        "type": "tuple"
                    }
                ],
                "name": "cancelLimitOrder",
                "outputs": [],
                "stateMutability": "nonpayable",
                "type": "function"
            },
            {
                "inputs": [
                    {
                        "internalType": "contract IERC20TokenV06",
                        "name": "makerToken",
                        "type": "address"
                    },
                    {
                        "internalType": "contract IERC20TokenV06",
                        "name": "takerToken",
                        "type": "address"
                    },
                    {
                        "internalType": "uint256",
                        "name": "minValidSalt",
                        "type": "uint256"
                    }
                ],
                "name": "cancelPairLimitOrders",
                "outputs": [],
                "stateMutability": "nonpayable",
                "type": "function"
            },
            {
                "inputs": [
                    {
                        "internalType": "contract IERC20TokenV06",
                        "name": "makerToken",
                        "type": "address"
                    },
                    {
                        "internalType": "contract IERC20TokenV06",
                        "name": "takerToken",
                        "type": "address"
                    },
                    {
                        "internalType": "uint256",
                        "name": "minValidSalt",
                        "type": "uint256"
                    }
                ],
                "name": "cancelPairRfqOrders",
                "outputs": [],
                "stateMutability": "nonpayable",
                "type": "function"
            },
            {
                "inputs": [
                    {
                        "components": [
                            {
                                "internalType": "contract IERC20TokenV06",
                                "name": "makerToken",
                                "type": "address"
                            },
                            {
                                "internalType": "contract IERC20TokenV06",
                                "name": "takerToken",
                                "type": "address"
                            },
                            {
                                "internalType": "uint128",
                                "name": "makerAmount",
                                "type": "uint128"
                            },
                            {
                                "internalType": "uint128",
                                "name": "takerAmount",
                                "type": "uint128"
                            },
                            {
                                "internalType": "address",
                                "name": "maker",
                                "type": "address"
                            },
                            {
                                "internalType": "address",
                                "name": "taker",
                                "type": "address"
                            },
                            {
                                "internalType": "address",
                                "name": "txOrigin",
                                "type": "address"
                            },
                            {
                                "internalType": "bytes32",
                                "name": "pool",
                                "type": "bytes32"
                            },
                            {
                                "internalType": "uint64",
                                "name": "expiry",
                                "type": "uint64"
                            },
                            {
                                "internalType": "uint256",
                                "name": "salt",
                                "type": "uint256"
                            }
                        ],
                        "internalType": "struct LibNativeOrder.RfqOrder",
                        "name": "order",
                        "type": "tuple"
                    }
                ],
                "name": "cancelRfqOrder",
                "outputs": [],
                "stateMutability": "nonpayable",
                "type": "function"
            },
            {
                "inputs": [
                    {
                        "components": [
                            {
                                "internalType": "contract IERC20TokenV06",
                                "name": "makerToken",
                                "type": "address"
                            },
                            {
                                "internalType": "contract IERC20TokenV06",
                                "name": "takerToken",
                                "type": "address"
                            },
                            {
                                "internalType": "uint128",
                                "name": "makerAmount",
                                "type": "uint128"
                            },
                            {
                                "internalType": "uint128",
                                "name": "takerAmount",
                                "type": "uint128"
                            },
                            {
                                "internalType": "uint128",
                                "name": "takerTokenFeeAmount",
                                "type": "uint128"
                            },
                            {
                                "internalType": "address",
                                "name": "maker",
                                "type": "address"
                            },
                            {
                                "internalType": "address",
                                "name": "taker",
                                "type": "address"
                            },
                            {
                                "internalType": "address",
                                "name": "sender",
                                "type": "address"
                            },
                            {
                                "internalType": "address",
                                "name": "feeRecipient",
                                "type": "address"
                            },
                            {
                                "internalType": "bytes32",
                                "name": "pool",
                                "type": "bytes32"
                            },
                            {
                                "internalType": "uint64",
                                "name": "expiry",
                                "type": "uint64"
                            },
                            {
                                "internalType": "uint256",
                                "name": "salt",
                                "type": "uint256"
                            }
                        ],
                        "internalType": "struct LibNativeOrder.LimitOrder",
                        "name": "order",
                        "type": "tuple"
                    },
                    {
                        "components": [
                            {
                                "internalType": "enum LibSignature.SignatureType",
                                "name": "signatureType",
                                "type": "uint8"
                            },
                            {
                                "internalType": "uint8",
                                "name": "v",
                                "type": "uint8"
                            },
                            {
                                "internalType": "bytes32",
                                "name": "r",
                                "type": "bytes32"
                            },
                            {
                                "internalType": "bytes32",
                                "name": "s",
                                "type": "bytes32"
                            }
                        ],
                        "internalType": "struct LibSignature.Signature",
                        "name": "signature",
                        "type": "tuple"
                    },
                    {
                        "internalType": "uint128",
                        "name": "takerTokenFillAmount",
                        "type": "uint128"
                    }
                ],
                "name": "fillLimitOrder",
                "outputs": [
                    {
                        "internalType": "uint128",
                        "name": "takerTokenFilledAmount",
                        "type": "uint128"
                    },
                    {
                        "internalType": "uint128",
                        "name": "makerTokenFilledAmount",
                        "type": "uint128"
                    }
                ],
                "stateMutability": "payable",
                "type": "function"
            },
            {
                "inputs": [
                    {
                        "components": [
                            {
                                "internalType": "contract IERC20TokenV06",
                                "name": "makerToken",
                                "type": "address"
                            },
                            {
                                "internalType": "contract IERC20TokenV06",
                                "name": "takerToken",
                                "type": "address"
                            },
                            {
                                "internalType": "uint128",
                                "name": "makerAmount",
                                "type": "uint128"
                            },
                            {
                                "internalType": "uint128",
                                "name": "takerAmount",
                                "type": "uint128"
                            },
                            {
                                "internalType": "uint128",
                                "name": "takerTokenFeeAmount",
                                "type": "uint128"
                            },
                            {
                                "internalType": "address",
                                "name": "maker",
                                "type": "address"
                            },
                            {
                                "internalType": "address",
                                "name": "taker",
                                "type": "address"
                            },
                            {
                                "internalType": "address",
                                "name": "sender",
                                "type": "address"
                            },
                            {
                                "internalType": "address",
                                "name": "feeRecipient",
                                "type": "address"
                            },
                            {
                                "internalType": "bytes32",
                                "name": "pool",
                                "type": "bytes32"
                            },
                            {
                                "internalType": "uint64",
                                "name": "expiry",
                                "type": "uint64"
                            },
                            {
                                "internalType": "uint256",
                                "name": "salt",
                                "type": "uint256"
                            }
                        ],
                        "internalType": "struct LibNativeOrder.LimitOrder",
                        "name": "order",
                        "type": "tuple"
                    },
                    {
                        "components": [
                            {
                                "internalType": "enum LibSignature.SignatureType",
                                "name": "signatureType",
                                "type": "uint8"
                            },
                            {
                                "internalType": "uint8",
                                "name": "v",
                                "type": "uint8"
                            },
                            {
                                "internalType": "bytes32",
                                "name": "r",
                                "type": "bytes32"
                            },
                            {
                                "internalType": "bytes32",
                                "name": "s",
                                "type": "bytes32"
                            }
                        ],
                        "internalType": "struct LibSignature.Signature",
                        "name": "signature",
                        "type": "tuple"
                    },
                    {
                        "internalType": "uint128",
                        "name": "takerTokenFillAmount",
                        "type": "uint128"
                    }
                ],
                "name": "fillOrKillLimitOrder",
                "outputs": [
                    {
                        "internalType": "uint128",
                        "name": "makerTokenFilledAmount",
                        "type": "uint128"
                    }
                ],
                "stateMutability": "payable",
                "type": "function"
            },
            {
                "inputs": [
                    {
                        "components": [
                            {
                                "internalType": "contract IERC20TokenV06",
                                "name": "makerToken",
                                "type": "address"
                            },
                            {
                                "internalType": "contract IERC20TokenV06",
                                "name": "takerToken",
                                "type": "address"
                            },
                            {
                                "internalType": "uint128",
                                "name": "makerAmount",
                                "type": "uint128"
                            },
                            {
                                "internalType": "uint128",
                                "name": "takerAmount",
                                "type": "uint128"
                            },
                            {
                                "internalType": "address",
                                "name": "maker",
                                "type": "address"
                            },
                            {
                                "internalType": "address",
                                "name": "taker",
                                "type": "address"
                            },
                            {
                                "internalType": "address",
                                "name": "txOrigin",
                                "type": "address"
                            },
                            {
                                "internalType": "bytes32",
                                "name": "pool",
                                "type": "bytes32"
                            },
                            {
                                "internalType": "uint64",
                                "name": "expiry",
                                "type": "uint64"
                            },
                            {
                                "internalType": "uint256",
                                "name": "salt",
                                "type": "uint256"
                            }
                        ],
                        "internalType": "struct LibNativeOrder.RfqOrder",
                        "name": "order",
                        "type": "tuple"
                    },
                    {
                        "components": [
                            {
                                "internalType": "enum LibSignature.SignatureType",
                                "name": "signatureType",
                                "type": "uint8"
                            },
                            {
                                "internalType": "uint8",
                                "name": "v",
                                "type": "uint8"
                            },
                            {
                                "internalType": "bytes32",
                                "name": "r",
                                "type": "bytes32"
                            },
                            {
                                "internalType": "bytes32",
                                "name": "s",
                                "type": "bytes32"
                            }
                        ],
                        "internalType": "struct LibSignature.Signature",
                        "name": "signature",
                        "type": "tuple"
                    },
                    {
                        "internalType": "uint128",
                        "name": "takerTokenFillAmount",
                        "type": "uint128"
                    }
                ],
                "name": "fillOrKillRfqOrder",
                "outputs": [
                    {
                        "internalType": "uint128",
                        "name": "makerTokenFilledAmount",
                        "type": "uint128"
                    }
                ],
                "stateMutability": "nonpayable",
                "type": "function"
            },
            {
                "inputs": [
                    {
                        "components": [
                            {
                                "internalType": "contract IERC20TokenV06",
                                "name": "makerToken",
                                "type": "address"
                            },
                            {
                                "internalType": "contract IERC20TokenV06",
                                "name": "takerToken",
                                "type": "address"
                            },
                            {
                                "internalType": "uint128",
                                "name": "makerAmount",
                                "type": "uint128"
                            },
                            {
                                "internalType": "uint128",
                                "name": "takerAmount",
                                "type": "uint128"
                            },
                            {
                                "internalType": "address",
                                "name": "maker",
                                "type": "address"
                            },
                            {
                                "internalType": "address",
                                "name": "taker",
                                "type": "address"
                            },
                            {
                                "internalType": "address",
                                "name": "txOrigin",
                                "type": "address"
                            },
                            {
                                "internalType": "bytes32",
                                "name": "pool",
                                "type": "bytes32"
                            },
                            {
                                "internalType": "uint64",
                                "name": "expiry",
                                "type": "uint64"
                            },
                            {
                                "internalType": "uint256",
                                "name": "salt",
                                "type": "uint256"
                            }
                        ],
                        "internalType": "struct LibNativeOrder.RfqOrder",
                        "name": "order",
                        "type": "tuple"
                    },
                    {
                        "components": [
                            {
                                "internalType": "enum LibSignature.SignatureType",
                                "name": "signatureType",
                                "type": "uint8"
                            },
                            {
                                "internalType": "uint8",
                                "name": "v",
                                "type": "uint8"
                            },
                            {
                                "internalType": "bytes32",
                                "name": "r",
                                "type": "bytes32"
                            },
                            {
                                "internalType": "bytes32",
                                "name": "s",
                                "type": "bytes32"
                            }
                        ],
                        "internalType": "struct LibSignature.Signature",
                        "name": "signature",
                        "type": "tuple"
                    },
                    {
                        "internalType": "uint128",
                        "name": "takerTokenFillAmount",
                        "type": "uint128"
                    }
                ],
                "name": "fillRfqOrder",
                "outputs": [
                    {
                        "internalType": "uint128",
                        "name": "takerTokenFilledAmount",
                        "type": "uint128"
                    },
                    {
                        "internalType": "uint128",
                        "name": "makerTokenFilledAmount",
                        "type": "uint128"
                    }
                ],
                "stateMutability": "nonpayable",
                "type": "function"
            },
            {
                "inputs": [
                    {
                        "components": [
                            {
                                "internalType": "contract IERC20TokenV06",
                                "name": "makerToken",
                                "type": "address"
                            },
                            {
                                "internalType": "contract IERC20TokenV06",
                                "name": "takerToken",
                                "type": "address"
                            },
                            {
                                "internalType": "uint128",
                                "name": "makerAmount",
                                "type": "uint128"
                            },
                            {
                                "internalType": "uint128",
                                "name": "takerAmount",
                                "type": "uint128"
                            },
                            {
                                "internalType": "uint128",
                                "name": "takerTokenFeeAmount",
                                "type": "uint128"
                            },
                            {
                                "internalType": "address",
                                "name": "maker",
                                "type": "address"
                            },
                            {
                                "internalType": "address",
                                "name": "taker",
                                "type": "address"
                            },
                            {
                                "internalType": "address",
                                "name": "sender",
                                "type": "address"
                            },
                            {
                                "internalType": "address",
                                "name": "feeRecipient",
                                "type": "address"
                            },
                            {
                                "internalType": "bytes32",
                                "name": "pool",
                                "type": "bytes32"
                            },
                            {
                                "internalType": "uint64",
                                "name": "expiry",
                                "type": "uint64"
                            },
                            {
                                "internalType": "uint256",
                                "name": "salt",
                                "type": "uint256"
                            }
                        ],
                        "internalType": "struct LibNativeOrder.LimitOrder",
                        "name": "order",
                        "type": "tuple"
                    }
                ],
                "name": "getLimitOrderHash",
                "outputs": [
                    {
                        "internalType": "bytes32",
                        "name": "orderHash",
                        "type": "bytes32"
                    }
                ],
                "stateMutability": "view",
                "type": "function"
            },
            {
                "inputs": [
                    {
                        "components": [
                            {
                                "internalType": "contract IERC20TokenV06",
                                "name": "makerToken",
                                "type": "address"
                            },
                            {
                                "internalType": "contract IERC20TokenV06",
                                "name": "takerToken",
                                "type": "address"
                            },
                            {
                                "internalType": "uint128",
                                "name": "makerAmount",
                                "type": "uint128"
                            },
                            {
                                "internalType": "uint128",
                                "name": "takerAmount",
                                "type": "uint128"
                            },
                            {
                                "internalType": "uint128",
                                "name": "takerTokenFeeAmount",
                                "type": "uint128"
                            },
                            {
                                "internalType": "address",
                                "name": "maker",
                                "type": "address"
                            },
                            {
                                "internalType": "address",
                                "name": "taker",
                                "type": "address"
                            },
                            {
                                "internalType": "address",
                                "name": "sender",
                                "type": "address"
                            },
                            {
                                "internalType": "address",
                                "name": "feeRecipient",
                                "type": "address"
                            },
                            {
                                "internalType": "bytes32",
                                "name": "pool",
                                "type": "bytes32"
                            },
                            {
                                "internalType": "uint64",
                                "name": "expiry",
                                "type": "uint64"
                            },
                            {
                                "internalType": "uint256",
                                "name": "salt",
                                "type": "uint256"
                            }
                        ],
                        "internalType": "struct LibNativeOrder.LimitOrder",
                        "name": "order",
                        "type": "tuple"
                    }
                ],
                "name": "getLimitOrderInfo",
                "outputs": [
                    {
                        "components": [
                            {
                                "internalType": "bytes32",
                                "name": "orderHash",
                                "type": "bytes32"
                            },
                            {
                                "internalType": "enum LibNativeOrder.OrderStatus",
                                "name": "status",
                                "type": "uint8"
                            },
                            {
                                "internalType": "uint128",
                                "name": "takerTokenFilledAmount",
                                "type": "uint128"
                            }
                        ],
                        "internalType": "struct LibNativeOrder.OrderInfo",
                        "name": "orderInfo",
                        "type": "tuple"
                    }
                ],
                "stateMutability": "view",
                "type": "function"
            },
            {
                "inputs": [
                    {
                        "components": [
                            {
                                "internalType": "contract IERC20TokenV06",
                                "name": "makerToken",
                                "type": "address"
                            },
                            {
                                "internalType": "contract IERC20TokenV06",
                                "name": "takerToken",
                                "type": "address"
                            },
                            {
                                "internalType": "uint128",
                                "name": "makerAmount",
                                "type": "uint128"
                            },
                            {
                                "internalType": "uint128",
                                "name": "takerAmount",
                                "type": "uint128"
                            },
                            {
                                "internalType": "uint128",
                                "name": "takerTokenFeeAmount",
                                "type": "uint128"
                            },
                            {
                                "internalType": "address",
                                "name": "maker",
                                "type": "address"
                            },
                            {
                                "internalType": "address",
                                "name": "taker",
                                "type": "address"
                            },
                            {
                                "internalType": "address",
                                "name": "sender",
                                "type": "address"
                            },
                            {
                                "internalType": "address",
                                "name": "feeRecipient",
                                "type": "address"
                            },
                            {
                                "internalType": "bytes32",
                                "name": "pool",
                                "type": "bytes32"
                            },
                            {
                                "internalType": "uint64",
                                "name": "expiry",
                                "type": "uint64"
                            },
                            {
                                "internalType": "uint256",
                                "name": "salt",
                                "type": "uint256"
                            }
                        ],
                        "internalType": "struct LibNativeOrder.LimitOrder",
                        "name": "order",
                        "type": "tuple"
                    },
                    {
                        "components": [
                            {
                                "internalType": "enum LibSignature.SignatureType",
                                "name": "signatureType",
                                "type": "uint8"
                            },
                            {
                                "internalType": "uint8",
                                "name": "v",
                                "type": "uint8"
                            },
                            {
                                "internalType": "bytes32",
                                "name": "r",
                                "type": "bytes32"
                            },
                            {
                                "internalType": "bytes32",
                                "name": "s",
                                "type": "bytes32"
                            }
                        ],
                        "internalType": "struct LibSignature.Signature",
                        "name": "signature",
                        "type": "tuple"
                    }
                ],
                "name": "getLimitOrderRelevantState",
                "outputs": [
                    {
                        "components": [
                            {
                                "internalType": "bytes32",
                                "name": "orderHash",
                                "type": "bytes32"
                            },
                            {
                                "internalType": "enum LibNativeOrder.OrderStatus",
                                "name": "status",
                                "type": "uint8"
                            },
                            {
                                "internalType": "uint128",
                                "name": "takerTokenFilledAmount",
                                "type": "uint128"
                            }
                        ],
                        "internalType": "struct LibNativeOrder.OrderInfo",
                        "name": "orderInfo",
                        "type": "tuple"
                    },
                    {
                        "internalType": "uint128",
                        "name": "actualFillableTakerTokenAmount",
                        "type": "uint128"
                    },
                    {
                        "internalType": "bool",
                        "name": "isSignatureValid",
                        "type": "bool"
                    }
                ],
                "stateMutability": "view",
                "type": "function"
            },
            {
                "inputs": [],
                "name": "getProtocolFeeMultiplier",
                "outputs": [
                    {
                        "internalType": "uint32",
                        "name": "multiplier",
                        "type": "uint32"
                    }
                ],
                "stateMutability": "view",
                "type": "function"
            },
            {
                "inputs": [
                    {
                        "components": [
                            {
                                "internalType": "contract IERC20TokenV06",
                                "name": "makerToken",
                                "type": "address"
                            },
                            {
                                "internalType": "contract IERC20TokenV06",
                                "name": "takerToken",
                                "type": "address"
                            },
                            {
                                "internalType": "uint128",
                                "name": "makerAmount",
                                "type": "uint128"
                            },
                            {
                                "internalType": "uint128",
                                "name": "takerAmount",
                                "type": "uint128"
                            },
                            {
                                "internalType": "address",
                                "name": "maker",
                                "type": "address"
                            },
                            {
                                "internalType": "address",
                                "name": "taker",
                                "type": "address"
                            },
                            {
                                "internalType": "address",
                                "name": "txOrigin",
                                "type": "address"
                            },
                            {
                                "internalType": "bytes32",
                                "name": "pool",
                                "type": "bytes32"
                            },
                            {
                                "internalType": "uint64",
                                "name": "expiry",
                                "type": "uint64"
                            },
                            {
                                "internalType": "uint256",
                                "name": "salt",
                                "type": "uint256"
                            }
                        ],
                        "internalType": "struct LibNativeOrder.RfqOrder",
                        "name": "order",
                        "type": "tuple"
                    }
                ],
                "name": "getRfqOrderHash",
                "outputs": [
                    {
                        "internalType": "bytes32",
                        "name": "orderHash",
                        "type": "bytes32"
                    }
                ],
                "stateMutability": "view",
                "type": "function"
            },
            {
                "inputs": [
                    {
                        "components": [
                            {
                                "internalType": "contract IERC20TokenV06",
                                "name": "makerToken",
                                "type": "address"
                            },
                            {
                                "internalType": "contract IERC20TokenV06",
                                "name": "takerToken",
                                "type": "address"
                            },
                            {
                                "internalType": "uint128",
                                "name": "makerAmount",
                                "type": "uint128"
                            },
                            {
                                "internalType": "uint128",
                                "name": "takerAmount",
                                "type": "uint128"
                            },
                            {
                                "internalType": "address",
                                "name": "maker",
                                "type": "address"
                            },
                            {
                                "internalType": "address",
                                "name": "taker",
                                "type": "address"
                            },
                            {
                                "internalType": "address",
                                "name": "txOrigin",
                                "type": "address"
                            },
                            {
                                "internalType": "bytes32",
                                "name": "pool",
                                "type": "bytes32"
                            },
                            {
                                "internalType": "uint64",
                                "name": "expiry",
                                "type": "uint64"
                            },
                            {
                                "internalType": "uint256",
                                "name": "salt",
                                "type": "uint256"
                            }
                        ],
                        "internalType": "struct LibNativeOrder.RfqOrder",
                        "name": "order",
                        "type": "tuple"
                    }
                ],
                "name": "getRfqOrderInfo",
                "outputs": [
                    {
                        "components": [
                            {
                                "internalType": "bytes32",
                                "name": "orderHash",
                                "type": "bytes32"
                            },
                            {
                                "internalType": "enum LibNativeOrder.OrderStatus",
                                "name": "status",
                                "type": "uint8"
                            },
                            {
                                "internalType": "uint128",
                                "name": "takerTokenFilledAmount",
                                "type": "uint128"
                            }
                        ],
                        "internalType": "struct LibNativeOrder.OrderInfo",
                        "name": "orderInfo",
                        "type": "tuple"
                    }
                ],
                "stateMutability": "view",
                "type": "function"
            },
            {
                "inputs": [
                    {
                        "components": [
                            {
                                "internalType": "contract IERC20TokenV06",
                                "name": "makerToken",
                                "type": "address"
                            },
                            {
                                "internalType": "contract IERC20TokenV06",
                                "name": "takerToken",
                                "type": "address"
                            },
                            {
                                "internalType": "uint128",
                                "name": "makerAmount",
                                "type": "uint128"
                            },
                            {
                                "internalType": "uint128",
                                "name": "takerAmount",
                                "type": "uint128"
                            },
                            {
                                "internalType": "address",
                                "name": "maker",
                                "type": "address"
                            },
                            {
                                "internalType": "address",
                                "name": "taker",
                                "type": "address"
                            },
                            {
                                "internalType": "address",
                                "name": "txOrigin",
                                "type": "address"
                            },
                            {
                                "internalType": "bytes32",
                                "name": "pool",
                                "type": "bytes32"
                            },
                            {
                                "internalType": "uint64",
                                "name": "expiry",
                                "type": "uint64"
                            },
                            {
                                "internalType": "uint256",
                                "name": "salt",
                                "type": "uint256"
                            }
                        ],
                        "internalType": "struct LibNativeOrder.RfqOrder",
                        "name": "order",
                        "type": "tuple"
                    },
                    {
                        "components": [
                            {
                                "internalType": "enum LibSignature.SignatureType",
                                "name": "signatureType",
                                "type": "uint8"
                            },
                            {
                                "internalType": "uint8",
                                "name": "v",
                                "type": "uint8"
                            },
                            {
                                "internalType": "bytes32",
                                "name": "r",
                                "type": "bytes32"
                            },
                            {
                                "internalType": "bytes32",
                                "name": "s",
                                "type": "bytes32"
                            }
                        ],
                        "internalType": "struct LibSignature.Signature",
                        "name": "signature",
                        "type": "tuple"
                    }
                ],
                "name": "getRfqOrderRelevantState",
                "outputs": [
                    {
                        "components": [
                            {
                                "internalType": "bytes32",
                                "name": "orderHash",
                                "type": "bytes32"
                            },
                            {
                                "internalType": "enum LibNativeOrder.OrderStatus",
                                "name": "status",
                                "type": "uint8"
                            },
                            {
                                "internalType": "uint128",
                                "name": "takerTokenFilledAmount",
                                "type": "uint128"
                            }
                        ],
                        "internalType": "struct LibNativeOrder.OrderInfo",
                        "name": "orderInfo",
                        "type": "tuple"
                    },
                    {
                        "internalType": "uint128",
                        "name": "actualFillableTakerTokenAmount",
                        "type": "uint128"
                    },
                    {
                        "internalType": "bool",
                        "name": "isSignatureValid",
                        "type": "bool"
                    }
                ],
                "stateMutability": "view",
                "type": "function"
            },
            {
                "inputs": [],
                "name": "migrate",
                "outputs": [
                    {
                        "internalType": "bytes4",
                        "name": "success",
                        "type": "bytes4"
                    }
                ],
                "stateMutability": "nonpayable",
                "type": "function"
            },
            {
                "inputs": [
                    {
                        "internalType": "address[]",
                        "name": "origins",
                        "type": "address[]"
                    },
                    {
                        "internalType": "bool",
                        "name": "allowed",
                        "type": "bool"
                    }
                ],
                "name": "registerAllowedRfqOrigins",
                "outputs": [],
                "stateMutability": "nonpayable",
                "type": "function"
            },
            {
                "inputs": [
                    {
                        "internalType": "bytes32[]",
                        "name": "poolIds",
                        "type": "bytes32[]"
                    }
                ],
                "name": "transferProtocolFeesForPools",
                "outputs": [],
                "stateMutability": "nonpayable",
                "type": "function"
            }
        ],
        "devdoc": {
            "details": "Feature for interacting with limit and RFQ orders.",
            "kind": "dev",
            "methods": {
                "_fillLimitOrder((address,address,uint128,uint128,uint128,address,address,address,address,bytes32,uint64,uint256),(uint8,uint8,bytes32,bytes32),uint128,address,address)": {
                    "details": "Fill a limit order. Internal variant. ETH protocol fees can be      attached to this call.",
                    "params": {
                        "order": "The limit order.",
                        "sender": "The order sender.",
                        "signature": "The order signature.",
                        "taker": "The order taker.",
                        "takerTokenFillAmount": "Maximum taker token to fill this order with."
                    },
                    "returns": {
                        "makerTokenFilledAmount": "How much maker token was filled.",
                        "takerTokenFilledAmount": "How much maker token was filled."
                    }
                },
                "_fillRfqOrder((address,address,uint128,uint128,address,address,address,bytes32,uint64,uint256),(uint8,uint8,bytes32,bytes32),uint128,address)": {
                    "details": "Fill an RFQ order. Internal variant. ETH protocol fees can be      attached to this call. Any unspent ETH will be refunded to      `msg.sender` (not `sender`).",
                    "params": {
                        "order": "The RFQ order.",
                        "signature": "The order signature.",
                        "taker": "The order taker.",
                        "takerTokenFillAmount": "Maximum taker token to fill this order with."
                    },
                    "returns": {
                        "makerTokenFilledAmount": "How much maker token was filled.",
                        "takerTokenFilledAmount": "How much maker token was filled."
                    }
                },
                "batchCancelLimitOrders((address,address,uint128,uint128,uint128,address,address,address,address,bytes32,uint64,uint256)[])": {
                    "details": "Cancel multiple limit orders. The caller must be the maker.      Silently succeeds if the order has already been cancelled.",
                    "params": {
                        "orders": "The limit orders."
                    }
                },
                "batchCancelPairLimitOrders(address[],address[],uint256[])": {
                    "details": "Cancel all limit orders for a given maker and pair with a salt less      than the value provided. The caller must be the maker. Subsequent      calls to this function with the same caller and pair require the      new salt to be >= the old salt.",
                    "params": {
                        "makerTokens": "The maker tokens.",
                        "minValidSalts": "The new minimum valid salts.",
                        "takerTokens": "The taker tokens."
                    }
                },
                "batchCancelPairRfqOrders(address[],address[],uint256[])": {
                    "details": "Cancel all RFQ orders for a given maker and pair with a salt less      than the value provided. The caller must be the maker. Subsequent      calls to this function with the same caller and pair require the      new salt to be >= the old salt.",
                    "params": {
                        "makerTokens": "The maker tokens.",
                        "minValidSalts": "The new minimum valid salts.",
                        "takerTokens": "The taker tokens."
                    }
                },
                "batchCancelRfqOrders((address,address,uint128,uint128,address,address,address,bytes32,uint64,uint256)[])": {
                    "details": "Cancel multiple RFQ orders. The caller must be the maker.      Silently succeeds if the order has already been cancelled.",
                    "params": {
                        "orders": "The RFQ orders."
                    }
                },
                "batchGetLimitOrderRelevantStates((address,address,uint128,uint128,uint128,address,address,address,address,bytes32,uint64,uint256)[],(uint8,uint8,bytes32,bytes32)[])": {
                    "details": "Batch version of `getLimitOrderRelevantState()`, without reverting.      Orders that would normally cause `getLimitOrderRelevantState()`      to revert will have empty results.",
                    "params": {
                        "orders": "The limit orders.",
                        "signatures": "The order signatures."
                    },
                    "returns": {
                        "actualFillableTakerTokenAmounts": "How much of each order is fillable         based on maker funds, in taker tokens.",
                        "isSignatureValids": "Whether each signature is valid for the order.",
                        "orderInfos": "Info about the orders."
                    }
                },
                "batchGetRfqOrderRelevantStates((address,address,uint128,uint128,address,address,address,bytes32,uint64,uint256)[],(uint8,uint8,bytes32,bytes32)[])": {
                    "details": "Batch version of `getRfqOrderRelevantState()`, without reverting.      Orders that would normally cause `getRfqOrderRelevantState()`      to revert will have empty results.",
                    "params": {
                        "orders": "The RFQ orders.",
                        "signatures": "The order signatures."
                    },
                    "returns": {
                        "actualFillableTakerTokenAmounts": "How much of each order is fillable         based on maker funds, in taker tokens.",
                        "isSignatureValids": "Whether each signature is valid for the order.",
                        "orderInfos": "Info about the orders."
                    }
                },
                "cancelLimitOrder((address,address,uint128,uint128,uint128,address,address,address,address,bytes32,uint64,uint256))": {
                    "details": "Cancel a single limit order. The caller must be the maker.      Silently succeeds if the order has already been cancelled.",
                    "params": {
                        "order": "The limit order."
                    }
                },
                "cancelPairLimitOrders(address,address,uint256)": {
                    "details": "Cancel all limit orders for a given maker and pair with a salt less      than the value provided. The caller must be the maker. Subsequent      calls to this function with the same caller and pair require the      new salt to be >= the old salt.",
                    "params": {
                        "makerToken": "The maker token.",
                        "minValidSalt": "The new minimum valid salt.",
                        "takerToken": "The taker token."
                    }
                },
                "cancelPairRfqOrders(address,address,uint256)": {
                    "details": "Cancel all RFQ orders for a given maker and pair with a salt less      than the value provided. The caller must be the maker. Subsequent      calls to this function with the same caller and pair require the      new salt to be >= the old salt.",
                    "params": {
                        "makerToken": "The maker token.",
                        "minValidSalt": "The new minimum valid salt.",
                        "takerToken": "The taker token."
                    }
                },
                "cancelRfqOrder((address,address,uint128,uint128,address,address,address,bytes32,uint64,uint256))": {
                    "details": "Cancel a single RFQ order. The caller must be the maker.      Silently succeeds if the order has already been cancelled.",
                    "params": {
                        "order": "The RFQ order."
                    }
                },
                "fillLimitOrder((address,address,uint128,uint128,uint128,address,address,address,address,bytes32,uint64,uint256),(uint8,uint8,bytes32,bytes32),uint128)": {
                    "details": "Fill a limit order. The taker and sender will be the caller.",
                    "params": {
                        "order": "The limit order. ETH protocol fees can be      attached to this call. Any unspent ETH will be refunded to      the caller.",
                        "signature": "The order signature.",
                        "takerTokenFillAmount": "Maximum taker token amount to fill this order with."
                    },
                    "returns": {
                        "makerTokenFilledAmount": "How much maker token was filled.",
                        "takerTokenFilledAmount": "How much maker token was filled."
                    }
                },
                "fillOrKillLimitOrder((address,address,uint128,uint128,uint128,address,address,address,address,bytes32,uint64,uint256),(uint8,uint8,bytes32,bytes32),uint128)": {
                    "details": "Fill an RFQ order for exactly `takerTokenFillAmount` taker tokens.      The taker will be the caller. ETH protocol fees can be      attached to this call. Any unspent ETH will be refunded to      the caller.",
                    "params": {
                        "order": "The limit order.",
                        "signature": "The order signature.",
                        "takerTokenFillAmount": "How much taker token to fill this order with."
                    },
                    "returns": {
                        "makerTokenFilledAmount": "How much maker token was filled."
                    }
                },
                "fillOrKillRfqOrder((address,address,uint128,uint128,address,address,address,bytes32,uint64,uint256),(uint8,uint8,bytes32,bytes32),uint128)": {
                    "details": "Fill an RFQ order for exactly `takerTokenFillAmount` taker tokens.      The taker will be the caller. ETH protocol fees can be      attached to this call. Any unspent ETH will be refunded to      the caller.",
                    "params": {
                        "order": "The RFQ order.",
                        "signature": "The order signature.",
                        "takerTokenFillAmount": "How much taker token to fill this order with."
                    },
                    "returns": {
                        "makerTokenFilledAmount": "How much maker token was filled."
                    }
                },
                "fillRfqOrder((address,address,uint128,uint128,address,address,address,bytes32,uint64,uint256),(uint8,uint8,bytes32,bytes32),uint128)": {
                    "details": "Fill an RFQ order for up to `takerTokenFillAmount` taker tokens.      The taker will be the caller. ETH should be attached to pay the      protocol fee.",
                    "params": {
                        "order": "The RFQ order.",
                        "signature": "The order signature.",
                        "takerTokenFillAmount": "Maximum taker token amount to fill this order with."
                    },
                    "returns": {
                        "makerTokenFilledAmount": "How much maker token was filled.",
                        "takerTokenFilledAmount": "How much maker token was filled."
                    }
                },
                "getLimitOrderHash((address,address,uint128,uint128,uint128,address,address,address,address,bytes32,uint64,uint256))": {
                    "details": "Get the canonical hash of a limit order.",
                    "params": {
                        "order": "The limit order."
                    },
                    "returns": {
                        "orderHash": "The order hash."
                    }
                },
                "getLimitOrderInfo((address,address,uint128,uint128,uint128,address,address,address,address,bytes32,uint64,uint256))": {
                    "details": "Get the order info for a limit order.",
                    "params": {
                        "order": "The limit order."
                    },
                    "returns": {
                        "orderInfo": "Info about the order."
                    }
                },
                "getLimitOrderRelevantState((address,address,uint128,uint128,uint128,address,address,address,address,bytes32,uint64,uint256),(uint8,uint8,bytes32,bytes32))": {
                    "details": "Get order info, fillable amount, and signature validity for a limit order.      Fillable amount is determined using balances and allowances of the maker.",
                    "params": {
                        "order": "The limit order.",
                        "signature": "The order signature."
                    },
                    "returns": {
                        "actualFillableTakerTokenAmount": "How much of the order is fillable         based on maker funds, in taker tokens.",
                        "isSignatureValid": "Whether the signature is valid.",
                        "orderInfo": "Info about the order."
                    }
                },
                "getProtocolFeeMultiplier()": {
                    "details": "Get the protocol fee multiplier. This should be multiplied by the      gas price to arrive at the required protocol fee to fill a native order.",
                    "returns": {
                        "multiplier": "The protocol fee multiplier."
                    }
                },
                "getRfqOrderHash((address,address,uint128,uint128,address,address,address,bytes32,uint64,uint256))": {
                    "details": "Get the canonical hash of an RFQ order.",
                    "params": {
                        "order": "The RFQ order."
                    },
                    "returns": {
                        "orderHash": "The order hash."
                    }
                },
                "getRfqOrderInfo((address,address,uint128,uint128,address,address,address,bytes32,uint64,uint256))": {
                    "details": "Get the order info for an RFQ order.",
                    "params": {
                        "order": "The RFQ order."
                    },
                    "returns": {
                        "orderInfo": "Info about the order."
                    }
                },
                "getRfqOrderRelevantState((address,address,uint128,uint128,address,address,address,bytes32,uint64,uint256),(uint8,uint8,bytes32,bytes32))": {
                    "details": "Get order info, fillable amount, and signature validity for an RFQ order.      Fillable amount is determined using balances and allowances of the maker.",
                    "params": {
                        "order": "The RFQ order.",
                        "signature": "The order signature."
                    },
                    "returns": {
                        "actualFillableTakerTokenAmount": "How much of the order is fillable         based on maker funds, in taker tokens.",
                        "isSignatureValid": "Whether the signature is valid.",
                        "orderInfo": "Info about the order."
                    }
                },
                "migrate()": {
                    "details": "Initialize and register this feature.      Should be delegatecalled by `Migrate.migrate()`.",
                    "returns": {
                        "success": "`LibMigrate.SUCCESS` on success."
                    }
                },
                "registerAllowedRfqOrigins(address[],bool)": {
                    "details": "Mark what tx.origin addresses are allowed to fill an order that      specifies the message sender as its txOrigin.",
                    "params": {
                        "allowed": "True to register, false to unregister.",
                        "origins": "An array of origin addresses to update."
                    }
                },
                "transferProtocolFeesForPools(bytes32[])": {
                    "details": "Transfers protocol fees from the `FeeCollector` pools into      the staking contract.",
                    "params": {
                        "poolIds": "Staking pool IDs"
                    }
                }
            },
            "stateVariables": {
                "FEATURE_NAME": {
                    "details": "Name of this feature."
                },
                "FEATURE_VERSION": {
                    "details": "Version of this feature."
                }
            },
            "version": 1
        },
        "evm": {
            "bytecode": {
                "linkReferences": {},
                "object": "0x6101a0604052620000146001600081620001df565b610180523480156200002557600080fd5b50604051620056bb380380620056bb833981016040819052620000489162000211565b85858585858584848484838383838d898181808260004690507f8b73c3c69bb8fe3d512ecc4cf759cc79239f7b179b0ffacaa9a75d522b39400f7f9e5dae0addaf20578aeb5d70341d092b53b4e14480ac5726438fd436df7ba4277f06c015bd22b4c69690933c1058878ebdfef31f9aaae40bbe86d8a09fe1b2972c8385604051602001620000dc959493929190620002b8565b60408051601f19818403018152828252805160209182012060805260a0959095526001600160601b031960608c901b1660e052633c9506a360e21b8252516001600160a01b038b16985063f2541a8c975060048083019750949550939084900301915082905086803b1580156200015257600080fd5b505afa15801562000167573d6000803e3d6000fd5b505050506040513d601f19601f820116820180604052508101906200018d91906200029f565b61010052606093841b6001600160601b03199081166101205292841b909216610140525060e01b6001600160e01b03191660c05230901b6101605250620002fd9e505050505050505050505050505050565b6bffffffff0000000000000000604084901b1667ffffffff00000000602084901b161763ffffffff8216179392505050565b60008060008060008060c087890312156200022a578182fd5b86516200023781620002e4565b60208801519096506200024a81620002e4565b60408801519095506200025d81620002e4565b60608801519094506200027081620002e4565b608088015190935063ffffffff811681146200028a578283fd5b8092505060a087015190509295509295509295565b600060208284031215620002b1578081fd5b5051919050565b9485526020850193909352604084019190915260608301526001600160a01b0316608082015260a00190565b6001600160a01b0381168114620002fa57600080fd5b50565b60805160a05160c05160e01c60e05160601c610100516101205160601c6101405160601c6101605160601c6101805161532e6200038d600039806105eb525080612c215250806122515250806121625250806138a95250806120d55280613888525080610ad252806112c2528061385c525080611a0852806139d2525080611a2c5280611cc9525061532e6000f3fe6080604052600436106101d85760003560e01c80639548088911610102578063b4658bfb11610095578063dd11d22511610064578063dd11d2251461055b578063f6274f661461057b578063f6e0f6a51461058e578063fe55a3ef146105ae576101d8565b8063b4658bfb146104f1578063d0a55fb014610511578063d925a56d14610531578063dab400f314610546576101d8565b8063a656186b116100d1578063a656186b14610462578063aa77476c14610482578063ad354eeb146104a2578063b09f1fb1146104d1576101d8565b806395480889146103ed5780639a4f809c1461040d5780639baa45a81461042d578063a0edcef51461044d576101d8565b8063414e4ccf1161017a5780637d49ec1a116101495780637d49ec1a1461037857806386a0c8d7146103985780638fd3ab80146103b85780639240529c146103da576101d8565b8063414e4ccf146102e6578063438cdfc514610307578063487b5c20146103345780636ae4b4f714610356576101d8565b80631fb09795116101b65780631fb097951461024a578063346693c51461027957806337f381d8146102a65780633cd2f026146102c6576101d8565b8063016a6d65146101dd578063031b905c146102135780630f0e8cf714610228575b600080fd5b3480156101e957600080fd5b506101fd6101f83660046145ac565b6105ce565b60405161020a9190614b33565b60405180910390f35b34801561021f57600080fd5b506101fd6105e9565b34801561023457600080fd5b5061024861024336600461409a565b61060d565b005b34801561025657600080fd5b5061026a610265366004614414565b6106bc565b60405161020a93929190615099565b34801561028557600080fd5b506102996102943660046145ac565b6107b9565b60405161020a919061508b565b3480156102b257600080fd5b5061026a6102c13660046145c8565b610871565b3480156102d257600080fd5b506102486102e136600461402b565b610961565b6102f96102f43660046144bd565b610994565b60405161020a9291906151e4565b34801561031357600080fd5b506103276103223660046145fe565b610a3e565b60405161020a91906151c7565b34801561034057600080fd5b50610349610ad0565b60405161020a9190615215565b34801561036257600080fd5b5061036b610af4565b60405161020a9190614d71565b34801561038457600080fd5b506102486103933660046143f8565b610b2d565b3480156103a457600080fd5b506102486103b336600461409a565b610b95565b3480156103c457600080fd5b506103cd610c35565b60405161020a9190614cb5565b6103276103e8366004614472565b61105d565b3480156103f957600080fd5b506102996104083660046143f8565b611120565b34801561041957600080fd5b506102486104283660046143b8565b6111ab565b34801561043957600080fd5b5061024861044836600461420a565b611290565b34801561045957600080fd5b506103496112c0565b34801561046e57600080fd5b506102f961047d36600461463e565b6112e4565b34801561048e57600080fd5b506102f961049d3660046145fe565b611327565b3480156104ae57600080fd5b506104c26104bd3660046142a9565b611356565b60405161020a93929190614a8f565b3480156104dd57600080fd5b506102486104ec366004613f7c565b6115bc565b3480156104fd57600080fd5b506104c261050c366004614175565b6116d5565b34801561051d57600080fd5b5061024861052c3660046143b8565b611930565b34801561053d57600080fd5b506101fd611a06565b34801561055257600080fd5b506101fd611a2a565b34801561056757600080fd5b506101fd6105763660046143f8565b611a4e565b6102f9610589366004614472565b611a5c565b34801561059a57600080fd5b506102486105a936600461430b565b611afa565b3480156105ba57600080fd5b506102486105c93660046145ac565b611b2a565b60006105e16105dc83611b8e565b611cc5565b90505b919050565b7f000000000000000000000000000000000000000000000000000000000000000081565b8151835114801561061f575080518351145b61065e576040517f08c379a000000000000000000000000000000000000000000000000000000000815260040161065590614e3e565b60405180910390fd5b60005b83518110156106b6576106ae84828151811061067957fe5b602002602001015184838151811061068d57fe5b60200260200101518484815181106106a157fe5b60200260200101516111ab565b600101610661565b50505050565b6106c4613c1a565b6000806106d085611120565b92506107616040518060a001604052808760a0015173ffffffffffffffffffffffffffffffffffffffff168152602001876000015173ffffffffffffffffffffffffffffffffffffffff16815260200187604001516fffffffffffffffffffffffffffffffff16815260200187606001516fffffffffffffffffffffffffffffffff16815260200185815250611d17565b835190925061077e906107793687900387018761469b565b611e40565b73ffffffffffffffffffffffffffffffffffffffff168560a0015173ffffffffffffffffffffffffffffffffffffffff161490509250925092565b6107c1613c1a565b6107ca826105ce565b815260006107d6611f97565b608084015173ffffffffffffffffffffffffffffffffffffffff90811660009081526002929092016020908152604080842087518416855282528084208288015190931684529190529020546060840151610100850151610120860151929350610844928592919085611fa4565b60c083015173ffffffffffffffffffffffffffffffffffffffff1661086b57600060208301525b50919050565b610879613c1a565b600080610885856107b9565b92506109166040518060a00160405280876080015173ffffffffffffffffffffffffffffffffffffffff168152602001876000015173ffffffffffffffffffffffffffffffffffffffff16815260200187604001516fffffffffffffffffffffffffffffffff16815260200187606001516fffffffffffffffffffffffffffffffff16815260200185815250611d17565b9150610926836000015185611e40565b73ffffffffffffffffffffffffffffffffffffffff16856080015173ffffffffffffffffffffffffffffffffffffffff161490509250925092565b60005b8181101561098f5761098783838381811061097b57fe5b90506020020135612095565b600101610964565b505050565b6000803330146109af576109af6109aa336122e3565b61239b565b6109b7613c3c565b610a246040518060a001604052808a8152602001898152602001886fffffffffffffffffffffffffffffffff1681526020018773ffffffffffffffffffffffffffffffffffffffff1681526020018673ffffffffffffffffffffffffffffffffffffffff168152506123a3565b602081015160409091015190999098509650505050505050565b6000610a48613c3c565b610a548585853361274f565b9050826fffffffffffffffffffffffffffffffff1681602001516fffffffffffffffffffffffffffffffff161015610ac457610ac46109aa610a95876105ce565b83602001516fffffffffffffffffffffffffffffffff16866fffffffffffffffffffffffffffffffff16612a82565b60400151949350505050565b7f000000000000000000000000000000000000000000000000000000000000000090565b6040518060400160405280600b81526020017f4c696d69744f726465727300000000000000000000000000000000000000000081525081565b6000610b3882611a4e565b90508160a0015173ffffffffffffffffffffffffffffffffffffffff163373ffffffffffffffffffffffffffffffffffffffff1614610b8357610b836109aa82338560a00151612b40565b610b91818360a00151612b78565b5050565b81518351148015610ba7575080518351145b610bdd576040517f08c379a000000000000000000000000000000000000000000000000000000000815260040161065590614e3e565b60005b83518110156106b657610c2d848281518110610bf857fe5b6020026020010151848381518110610c0c57fe5b6020026020010151848481518110610c2057fe5b6020026020010151611930565b600101610be0565b6000610c607f3cd2f02600000000000000000000000000000000000000000000000000000000612beb565b610c897ff6274f6600000000000000000000000000000000000000000000000000000000612beb565b610cb27faa77476c00000000000000000000000000000000000000000000000000000000612beb565b610cdb7f9240529c00000000000000000000000000000000000000000000000000000000612beb565b610d047f438cdfc500000000000000000000000000000000000000000000000000000000612beb565b610d2d7f414e4ccf00000000000000000000000000000000000000000000000000000000612beb565b610d567fa656186b00000000000000000000000000000000000000000000000000000000612beb565b610d7f7f7d49ec1a00000000000000000000000000000000000000000000000000000000612beb565b610da87ffe55a3ef00000000000000000000000000000000000000000000000000000000612beb565b610dd17f9baa45a800000000000000000000000000000000000000000000000000000000612beb565b610dfa7ff6e0f6a500000000000000000000000000000000000000000000000000000000612beb565b610e237fd0a55fb000000000000000000000000000000000000000000000000000000000612beb565b610e4c7f86a0c8d700000000000000000000000000000000000000000000000000000000612beb565b610e757f9a4f809c00000000000000000000000000000000000000000000000000000000612beb565b610e9e7f0f0e8cf700000000000000000000000000000000000000000000000000000000612beb565b610ec77f9548088900000000000000000000000000000000000000000000000000000000612beb565b610ef07f346693c500000000000000000000000000000000000000000000000000000000612beb565b610f197fdd11d22500000000000000000000000000000000000000000000000000000000612beb565b610f427f016a6d6500000000000000000000000000000000000000000000000000000000612beb565b610f6b7f487b5c2000000000000000000000000000000000000000000000000000000000612beb565b610f947fb09f1fb100000000000000000000000000000000000000000000000000000000612beb565b610fbd7f1fb0979500000000000000000000000000000000000000000000000000000000612beb565b610fe67f37f381d800000000000000000000000000000000000000000000000000000000612beb565b61100f7fb4658bfb00000000000000000000000000000000000000000000000000000000612beb565b6110387fad354eeb00000000000000000000000000000000000000000000000000000000612beb565b507f2c64c5ef0000000000000000000000000000000000000000000000000000000090565b6000611067613c3c565b6110d46040518060a00160405280878152602001868152602001856fffffffffffffffffffffffffffffffff1681526020013373ffffffffffffffffffffffffffffffffffffffff1681526020013373ffffffffffffffffffffffffffffffffffffffff168152506123a3565b9050826fffffffffffffffffffffffffffffffff1681602001516fffffffffffffffffffffffffffffffff161015611115576111156109aa610a9587611a4e565b8051610ac490612c77565b611128613c1a565b61113182611a4e565b8152600061113d611f97565b60a084015173ffffffffffffffffffffffffffffffffffffffff9081166000908152600192909201602090815260408084208751841685528252808420828801519093168452919052902054606084015161014085015161016086015192935061086b928592919085611fa4565b60006111b5611f97565b336000908152600282016020908152604080832073ffffffffffffffffffffffffffffffffffffffff898116855290835281842090881684529091529020549091508281111561120c5761120c6109aa8483612d1a565b336000818152600284016020908152604080832073ffffffffffffffffffffffffffffffffffffffff8a81168552908352818420908916845290915290819020859055517ffe7ffb1edfe79f4df716cb2dcad21cf2f31b104d816a7976ba1e6e4653c1efb19161128191889088908890614947565b60405180910390a15050505050565b60005b8151811015610b91576112b88282815181106112ab57fe5b6020026020010151610b2d565b600101611293565b7f000000000000000000000000000000000000000000000000000000000000000081565b6000803330146112fa576112fa6109aa336122e3565b611302613c3c565b61130e8787878761274f565b6020810151604090910151909890975095505050505050565b600080611332613c3c565b61133e8686863361274f565b60208101516040909101519097909650945050505050565b60608080858414611393576040517f08c379a000000000000000000000000000000000000000000000000000000000815260040161065590614d84565b8567ffffffffffffffff811180156113aa57600080fd5b506040519080825280602002602001820160405280156113e457816020015b6113d1613c1a565b8152602001906001900390816113c95790505b5092508567ffffffffffffffff811180156113fe57600080fd5b50604051908082528060200260200182016040528015611428578160200160208202803683370190505b5091508567ffffffffffffffff8111801561144257600080fd5b5060405190808252806020026020018201604052801561146c578160200160208202803683370190505b50905060005b868110156115b157306337f381d889898481811061148c57fe5b9050610140020188888581811061149f57fe5b9050608002016040518363ffffffff1660e01b81526004016114c29291906150cf565b60a06040518083038186803b1580156114da57600080fd5b505afa925050508015611528575060408051601f3d9081017fffffffffffffffffffffffffffffffffffffffffffffffffffffffffffffffe016820190925261152591810190614530565b60015b611531576115a9565b8287858151811061153e57fe5b60200260200101819052508186858151811061155657fe5b60200260200101906fffffffffffffffffffffffffffffffff1690816fffffffffffffffffffffffffffffffff16815250508085858151811061159557fe5b911515602092830291909101909101525050505b600101611472565b509450945094915050565b3332146115f5576040517f08c379a000000000000000000000000000000000000000000000000000000000815260040161065590614de1565b60006115ff611f97565b905060005b8351811015611694573360009081526003830160205260408120855185929087908590811061162f57fe5b60209081029190910181015173ffffffffffffffffffffffffffffffffffffffff16825281019190915260400160002080547fffffffffffffffffffffffffffffffffffffffffffffffffffffffffffffff0016911515919091179055600101611604565b507f02dfead5eb769b298e82dd9650b31c40559a3d42701dbf53c931bc2682847c313384846040516116c89392919061497e565b60405180910390a1505050565b60608080858414611712576040517f08c379a000000000000000000000000000000000000000000000000000000000815260040161065590614d84565b8567ffffffffffffffff8111801561172957600080fd5b5060405190808252806020026020018201604052801561176357816020015b611750613c1a565b8152602001906001900390816117485790505b5092508567ffffffffffffffff8111801561177d57600080fd5b506040519080825280602002602001820160405280156117a7578160200160208202803683370190505b5091508567ffffffffffffffff811180156117c157600080fd5b506040519080825280602002602001820160405280156117eb578160200160208202803683370190505b50905060005b868110156115b15730631fb0979589898481811061180b57fe5b9050610180020188888581811061181e57fe5b9050608002016040518363ffffffff1660e01b8152600401611841929190614f55565b60a06040518083038186803b15801561185957600080fd5b505afa9250505080156118a7575060408051601f3d9081017fffffffffffffffffffffffffffffffffffffffffffffffffffffffffffffffe01682019092526118a491810190614530565b60015b6118b057611928565b828785815181106118bd57fe5b6020026020010181905250818685815181106118d557fe5b60200260200101906fffffffffffffffffffffffffffffffff1690816fffffffffffffffffffffffffffffffff16815250508085858151811061191457fe5b911515602092830291909101909101525050505b6001016117f1565b600061193a611f97565b336000908152600182016020908152604080832073ffffffffffffffffffffffffffffffffffffffff8981168552908352818420908816845290915290205490915082811115611991576119916109aa8483612d1a565b336000818152600184016020908152604080832073ffffffffffffffffffffffffffffffffffffffff8a81168552908352818420908916845290915290819020859055517fa91fe7ae62fce669df2c7f880f8c14d178531aae72515558e5c948e37c32a5729161128191889088908890614947565b7f000000000000000000000000000000000000000000000000000000000000000081565b7f000000000000000000000000000000000000000000000000000000000000000081565b60006105e16105dc83612dd5565b600080611a67613c3c565b611ad46040518060a00160405280888152602001878152602001866fffffffffffffffffffffffffffffffff1681526020013373ffffffffffffffffffffffffffffffffffffffff1681526020013373ffffffffffffffffffffffffffffffffffffffff168152506123a3565b9050611ae38160000151612c77565b602081015160409091015190969095509350505050565b60005b8151811015610b9157611b22828281518110611b1557fe5b6020026020010151611b2a565b600101611afd565b6000611b35826105ce565b9050816080015173ffffffffffffffffffffffffffffffffffffffff163373ffffffffffffffffffffffffffffffffffffffff1614611b8057611b806109aa82338560800151612b40565b610b91818360800151612b78565b60006040517fe593d3fdfa8b60e5e17a1b2204662ecbe15c23f2084b9ad5bae40359540a7da98152825173ffffffffffffffffffffffffffffffffffffffff166020820152602083015173ffffffffffffffffffffffffffffffffffffffff16604082015260408301516fffffffffffffffffffffffffffffffff16606082015260608301516fffffffffffffffffffffffffffffffff166080820152608083015173ffffffffffffffffffffffffffffffffffffffff1660a082015260a083015173ffffffffffffffffffffffffffffffffffffffff1660c082015260c083015173ffffffffffffffffffffffffffffffffffffffff1660e082015260e083015161010082015261010083015167ffffffffffffffff166101208201526101208301516101408201526101608120915050919050565b60007f000000000000000000000000000000000000000000000000000000000000000082604051602001611cfa9291906148bc565b604051602081830303815290604052805190602001209050919050565b600081604001516fffffffffffffffffffffffffffffffff1660001480611d52575060608201516fffffffffffffffffffffffffffffffff16155b15611d5f575060006105e4565b60018260800151602001516004811115611d7557fe5b14611d82575060006105e4565b6000611ddb8360800151604001518460600151036fffffffffffffffffffffffffffffffff1684606001516fffffffffffffffffffffffffffffffff1685604001516fffffffffffffffffffffffffffffffff16612f4c565b9050611df881611df385602001518660000151612f6a565b61309c565b9050611e39611e348285604001516fffffffffffffffffffffffffffffffff1686606001516fffffffffffffffffffffffffffffffff166130b2565b6130d6565b9392505050565b6000611e4c8383613102565b600282516003811115611e5b57fe5b1415611ec35760018383602001518460400151856060015160405160008152602001604052604051611e909493929190614c97565b6020604051602081039080840390855afa158015611eb2573d6000803e3d6000fd5b505050602060405103519050611f68565b600382516003811115611ed257fe5b1415611f685760007f19457468657265756d205369676e6564204d6573736167653a0a33320000000060005283601c52603c600020905060018184602001518560400151866060015160405160008152602001604052604051611f389493929190614c97565b6020604051602081039080840390855afa158015611f5a573d6000803e3d6000fd5b505050602060405103519150505b73ffffffffffffffffffffffffffffffffffffffff8116611f9157611f916109aa6005856131ae565b92915050565b600080611f9160076131e4565b6000611fae611f97565b865160009081526020829052604090819020546fffffffffffffffffffffffffffffffff808216928a0183905292935091871611612005576020870160025b90816004811115611ffa57fe5b81525050505061208e565b7f800000000000000000000000000000000000000000000000000000000000000081161561203857602087016003611fed565b504267ffffffffffffffff168467ffffffffffffffff1611612072576020860160045b9081600481111561206857fe5b815250505061208e565b828211156120855760208601600361205b565b50600160208601525b5050505050565b6040517f319bed9a00000000000000000000000000000000000000000000000000000000815260009073ffffffffffffffffffffffffffffffffffffffff7f0000000000000000000000000000000000000000000000000000000000000000169063319bed9a9061210a908590600401614b33565b602060405180830381600087803b15801561212457600080fd5b505af1158015612138573d6000803e3d6000fd5b505050506040513d601f19601f8201168201806040525081019061215c919061439c565b905060007f000000000000000000000000000000000000000000000000000000000000000073ffffffffffffffffffffffffffffffffffffffff166370a08231836040518263ffffffff1660e01b81526004016121b991906148f5565b60206040518083038186803b1580156121d157600080fd5b505afa1580156121e5573d6000803e3d6000fd5b505050506040513d601f19601f8201168201806040525081019061220991906146b6565b9050600181111561098f576040517fa3b4a32700000000000000000000000000000000000000000000000000000000815273ffffffffffffffffffffffffffffffffffffffff7f0000000000000000000000000000000000000000000000000000000000000000169063a3b4a327906122ac90859081907fffffffffffffffffffffffffffffffffffffffffffffffffffffffffffffffff870190600401614916565b600060405180830381600087803b1580156122c657600080fd5b505af11580156122da573d6000803e3d6000fd5b50505050505050565b60607ff0ec779b0bcda6d84abf99ee2c67647d1100ebbb553a9c2d1c2ba1579592832c8260405160240161231791906148f5565b604080517fffffffffffffffffffffffffffffffffffffffffffffffffffffffffffffffe08184030181529190526020810180517bffffffffffffffffffffffffffffffffffffffffffffffffffffffff167fffffffff00000000000000000000000000000000000000000000000000000000909316929092179091529050919050565b805160208201fd5b6123ab613c3c565b6123b3613c1a565b82516123be90611120565b90506001816020015160048111156123d257fe5b146123f7576123f76109aa8260000151836020015160048111156123f257fe5b6131ff565b825160c0015173ffffffffffffffffffffffffffffffffffffffff16158015906124595750826060015173ffffffffffffffffffffffffffffffffffffffff16836000015160c0015173ffffffffffffffffffffffffffffffffffffffff1614155b1561247c5761247c6109aa82600001518560600151866000015160c00151613235565b825160e0015173ffffffffffffffffffffffffffffffffffffffff16158015906124de5750826080015173ffffffffffffffffffffffffffffffffffffffff16836000015160e0015173ffffffffffffffffffffffffffffffffffffffff1614155b15612501576125016109aa82600001518560800151866000015160e0015161326d565b600061251582600001518560200151611e40565b9050836000015160a0015173ffffffffffffffffffffffffffffffffffffffff168173ffffffffffffffffffffffffffffffffffffffff1614612569578151845160a00151612569916109aa9184906132a5565b508251610120015161257a906132dd565b8252604080516101208101825282518152845160a09081015173ffffffffffffffffffffffffffffffffffffffff908116602080850191909152606080890151831685870152885151831681860152885190910151909116608084015286518401516fffffffffffffffffffffffffffffffff9081169284019290925286510151811660c083015285830151811660e083015291830151909116610100820152612623906133b2565b6fffffffffffffffffffffffffffffffff9081166040850152908116602084015283516080015116156126da576126a582602001516fffffffffffffffffffffffffffffffff168460000151606001516fffffffffffffffffffffffffffffffff168560000151608001516fffffffffffffffffffffffffffffffff16612f4c565b6fffffffffffffffffffffffffffffffff1660608084018290528451602081015191860151610100909101516126da9361352d565b8051835160a08101516060808701516101008401518451602080870151908a01516040808c0151968c01518c51610120909a015191517fab614d2b738543c0ea21f56347cf696a3a0c42a7cbec3212a5ca22a4dcff21249b6127419b909a99939091614b8c565b60405180910390a150919050565b612757613c3c565b61275f613c1a565b612768866107b9565b905060018160200151600481111561277c57fe5b1461279c5761279c6109aa8260000151836020015160048111156123f257fe5b60006127a6611f97565b60c088015190915073ffffffffffffffffffffffffffffffffffffffff16321480159061280a575060c087015173ffffffffffffffffffffffffffffffffffffffff166000908152600382016020908152604080832032845290915290205460ff16155b15612825576128256109aa8360000151328a60c00151613734565b5060a086015173ffffffffffffffffffffffffffffffffffffffff161580159061287f57508273ffffffffffffffffffffffffffffffffffffffff168660a0015173ffffffffffffffffffffffffffffffffffffffff1614155b1561289a5761289a6109aa8260000151858960a00151613235565b60006128aa826000015187611e40565b9050866080015173ffffffffffffffffffffffffffffffffffffffff168173ffffffffffffffffffffffffffffffffffffffff16146128f9576128f96109aa8360000151838a608001516132a5565b506129fe60405180610120016040528083600001518152602001886080015173ffffffffffffffffffffffffffffffffffffffff1681526020018573ffffffffffffffffffffffffffffffffffffffff168152602001886000015173ffffffffffffffffffffffffffffffffffffffff168152602001886020015173ffffffffffffffffffffffffffffffffffffffff16815260200188604001516fffffffffffffffffffffffffffffffff16815260200188606001516fffffffffffffffffffffffffffffffff168152602001866fffffffffffffffffffffffffffffffff16815260200183604001516fffffffffffffffffffffffffffffffff168152506133b2565b6fffffffffffffffffffffffffffffffff9081166040808601829052929091166020808601829052845160808b01518b51928c015160e08d015196517f829fa99d94dc4636925b38632e625736a614c154d55006b7ab6bea979c210c3297612a7197949693958c95909492909190614c0c565b60405180910390a150949350505050565b60607f21948612b5ef214ec0508df4901600e07a810a371be76b25d59ade73826e3d97848484604051602401612aba93929190614c70565b604080517fffffffffffffffffffffffffffffffffffffffffffffffffffffffffffffffe08184030181529190526020810180517bffffffffffffffffffffffffffffffffffffffffffffffffffffffff167fffffffff000000000000000000000000000000000000000000000000000000009093169290921790915290509392505050565b60607f88b2c08e4a5f57d416ad23dad18c20497ccfe684b1379b28fd564adaf582b80f848484604051602401612aba93929190614b60565b6000612b82611f97565b6000848152602082905260409081902080547f8000000000000000000000000000000000000000000000000000000000000000179055519091507fa6eb7cdc219e1518ced964e9a34e61d68a94e4f1569db3e84256ba981ba52753906116c89085908590614b3c565b6040517f6eb224cb0000000000000000000000000000000000000000000000000000000081523090636eb224cb90612c499084907f000000000000000000000000000000000000000000000000000000000000000090600401614ce2565b600060405180830381600087803b158015612c6357600080fd5b505af115801561208e573d6000803e3d6000fd5b8034118015612c865750333014155b15612d17576000612c97348361376c565b905060003373ffffffffffffffffffffffffffffffffffffffff1682604051612cbf906148f2565b60006040518083038185875af1925050503d8060008114612cfc576040519150601f19603f3d011682016040523d82523d6000602084013e612d01565b606091505b505090508061098f5761098f6109aa338461378b565b50565b60607fb12bc7e7d341f4431d6faf05f991ee3b779183e341b24243064e10c886cd18738383604051602401612d50929190615207565b604080517fffffffffffffffffffffffffffffffffffffffffffffffffffffffffffffffe08184030181529190526020810180517bffffffffffffffffffffffffffffffffffffffffffffffffffffffff167fffffffff0000000000000000000000000000000000000000000000000000000090931692909217909152905092915050565b60006040517fce918627cb55462ddbb85e73de69a8b322f2bc88f4507c52fcad6d4c33c29d498152825173ffffffffffffffffffffffffffffffffffffffff166020820152602083015173ffffffffffffffffffffffffffffffffffffffff16604082015260408301516fffffffffffffffffffffffffffffffff16606082015260608301516fffffffffffffffffffffffffffffffff16608082015260808301516fffffffffffffffffffffffffffffffff1660a082015260a083015173ffffffffffffffffffffffffffffffffffffffff1660c082015260c083015173ffffffffffffffffffffffffffffffffffffffff1660e082015260e083015173ffffffffffffffffffffffffffffffffffffffff1661010082015261010083015173ffffffffffffffffffffffffffffffffffffffff1661012082015261012083015161014082015261014083015167ffffffffffffffff166101608201526101608301516101808201526101a08120915050919050565b6000612f6283612f5c86856137c1565b906137f2565b949350505050565b6000611e398373ffffffffffffffffffffffffffffffffffffffff1663dd62ed3e84306040518363ffffffff1660e01b8152600401612faa9291906149f0565b60206040518083038186803b158015612fc257600080fd5b505afa158015612fd6573d6000803e3d6000fd5b505050506040513d601f19601f82011682018060405250810190612ffa91906146b6565b6040517f70a0823100000000000000000000000000000000000000000000000000000000815273ffffffffffffffffffffffffffffffffffffffff8616906370a082319061304c9087906004016148f5565b60206040518083038186803b15801561306457600080fd5b505afa158015613078573d6000803e3d6000fd5b505050506040513d601f19601f82011682018060405250810190611df391906146b6565b60008183106130ab5781611e39565b5090919050565b6000612f6283612f5c6130c682600161376c565b6130d088876137c1565b9061381c565b60006fffffffffffffffffffffffffffffffff8211156130fe576130fe6109aa600384613838565b5090565b60408101517ffffffffffffffffffffffffffffffffebaaedce6af48a03bbfd25e8cd0364141111580613159575060608101517f7fffffffffffffffffffffffffffffff5d576e7357a4501ddfe92f46681b20a111155b1561316c5761316c6109aa6005846131ae565b60008151600381111561317b57fe5b141561318f5761318f6109aa6003846131ae565b60018151600381111561319e57fe5b1415610b9157610b916109aa6000845b60607ff18f11f3027e735c758137924b262d4d3aff0037dcd785aca3c699fa05d960bd8383604051602401612d50929190614d63565b600060808260078111156131f457fe5b600101901b92915050565b60607f47ab394e41470191eaf9fa542e84ac483a12665fbd616eb8d1c022ced6c940008383604051602401612d50929190614c86565b60607f5d3300180a4547b3e27137be832d3ebf56f1ba5ebb30dd580999c61f77fa6396848484604051602401612aba93929190614b60565b60607f15e6a383bb02d79ee933b927fbecba78cdde16cba84b94a99661f44bcce3b736848484604051602401612aba93929190614b60565b60607ff13e65d925201525f3d71a731833b19bb26e44cfbd97caf72a366b73866f7124848484604051602401612aba93929190614b60565b6000806132e8613855565b9050806132f95760009150506105e4565b600061330484613881565b905060008173ffffffffffffffffffffffffffffffffffffffff168360405161332c906148f2565b60006040518083038185875af1925050503d8060008114613369576040519150601f19603f3d011682016040523d82523d6000602084013e61336e565b606091505b50509050806133a9576040517f08c379a000000000000000000000000000000000000000000000000000000000815260040161065590614ef8565b50909392505050565b6000806133f08360e001516133eb8561010001518660c001516fffffffffffffffffffffffffffffffff166138ce90919063ffffffff16565b61392f565b915061343b826fffffffffffffffffffffffffffffffff168460c001516fffffffffffffffffffffffffffffffff168560a001516fffffffffffffffffffffffffffffffff16612f4c565b90506fffffffffffffffffffffffffffffffff8216158061346c57506fffffffffffffffffffffffffffffffff8116155b1561347c57506000905080613528565b61010083015161349e906fffffffffffffffffffffffffffffffff1683613962565b6fffffffffffffffffffffffffffffffff166134b8611f97565b600001600085600001518152602001908152602001600020819055506134fe836080015184604001518560200151856fffffffffffffffffffffffffffffffff1661352d565b613528836060015184602001518560400151846fffffffffffffffffffffffffffffffff1661352d565b915091565b6000606073ffffffffffffffffffffffffffffffffffffffff8616301415613581576040517f08c379a000000000000000000000000000000000000000000000000000000000815260040161065590614e9b565b61358a866139b7565b1561365e576040517fdd62ed3e000000000000000000000000000000000000000000000000000000008152839073ffffffffffffffffffffffffffffffffffffffff88169063dd62ed3e906135e590899030906004016149f0565b60206040518083038186803b1580156135fd57600080fd5b505afa158015613611573d6000803e3d6000fd5b505050506040513d601f19601f8201168201806040525081019061363591906146b6565b101561365e5761365786868686604051806020016040528060008152506139f7565b50506106b6565b6040517f23b872dd00000000000000000000000000000000000000000000000000000000815273ffffffffffffffffffffffffffffffffffffffff8616600482015273ffffffffffffffffffffffffffffffffffffffff85166024820152836044820152600080606483600073ffffffffffffffffffffffffffffffffffffffff8c165af192503d806000602084013e60016020830151146020821015168115178416935083613718578082528192508060208301016040525b50508161372c5761372c86868686856139f7565b505050505050565b60607fc0972f3cc4234ca2091de7e7bc7081494bd29ac280167d66f0d44168973b1634848484604051602401612aba93929190614b60565b600082821115613785576137856109aa60028585613abf565b50900390565b60607fbde95cc2119e0200d80642397198abfcf98e6e4dddd0de9c6320d86252ad40ab8383604051602401612d50929190614a69565b6000826137d057506000611f91565b828202828482816137dd57fe5b0414611e3957611e396109aa60018686613abf565b600081613808576138086109aa60038585613abf565b600082848161381357fe5b04949350505050565b600082820183811015611e3957611e396109aa60008686613abf565b606063c996af7b60e01b8383604051602401612d50929190614d4c565b63ffffffff7f0000000000000000000000000000000000000000000000000000000000000000163a0290565b60006105e17f00000000000000000000000000000000000000000000000000000000000000007f000000000000000000000000000000000000000000000000000000000000000084613ade565b6000826fffffffffffffffffffffffffffffffff16826fffffffffffffffffffffffffffffffff161115613785576137856109aa6002856fffffffffffffffffffffffffffffffff16856fffffffffffffffffffffffffffffffff16613abf565b6000816fffffffffffffffffffffffffffffffff16836fffffffffffffffffffffffffffffffff16106130ab5781611e39565b60008282016fffffffffffffffffffffffffffffffff8085169082161015611e3957611e396109aa6000866fffffffffffffffffffffffffffffffff16866fffffffffffffffffffffffffffffffff16613abf565b600081815260209020600160ff92831681901b929091161b177f000000000000000000000000000000000000000000000000000000000000000081161490565b6040517f89dd02e700000000000000000000000000000000000000000000000000000000815230906389dd02e790613a39908890889088908890600401614947565b600060405180830381600087803b158015613a5357600080fd5b505af1925050508015613a64575060015b61208e573d808015613a92576040519150601f19603f3d011682016040523d82523d6000602084013e613a97565b606091505b50613ab96109aa87878787875160001415613ab25786613ab4565b875b613b56565b5061208e565b606063e946c1bb60e01b848484604051602401612aba93929190614d2a565b604051600090613b18907fff0000000000000000000000000000000000000000000000000000000000000090869085908790602001614858565b604080517fffffffffffffffffffffffffffffffffffffffffffffffffffffffffffffffe08184030181529190528051602090910120949350505050565b60607fdfdc6f57cf82bede92bcfdd44fedb82b2d5cecabf56ec21964db6ee2c3e82cf48686868686604051602401613b92959493929190614a17565b604080517fffffffffffffffffffffffffffffffffffffffffffffffffffffffffffffffe08184030181529190526020810180517bffffffffffffffffffffffffffffffffffffffffffffffffffffffff167fffffffff0000000000000000000000000000000000000000000000000000000090931692909217909152905095945050505050565b6040805160608101909152600080825260208201908152600060209091015290565b60408051608081018252600080825260208201819052918101829052606081019190915290565b8035611f91816152aa565b600082601f830112613c7e578081fd5b8135613c91613c8c8261524d565b615226565b818152915060208083019084810181840286018201871015613cb257600080fd5b60005b84811015613cda578135613cc8816152aa565b84529282019290820190600101613cb5565b505050505092915050565b60008083601f840112613cf6578182fd5b50813567ffffffffffffffff811115613d0d578182fd5b602083019150836020608083028501011115613d2857600080fd5b9250929050565b8035611f91816152cc565b6000610180808385031215613d4d578182fd5b613d5681615226565b915050613d638383613c63565b8152613d728360208401613c63565b6020820152613d848360408401613f48565b6040820152613d968360608401613f48565b6060820152613da88360808401613f48565b6080820152613dba8360a08401613c63565b60a0820152613dcc8360c08401613c63565b60c0820152613dde8360e08401613c63565b60e0820152610100613df284828501613c63565b908201526101208281013590820152610140613e1084828501613f53565b818301525061016080830135818301525092915050565b6000610140808385031215613e3a578182fd5b613e4381615226565b915050613e508383613c63565b8152613e5f8360208401613c63565b6020820152613e718360408401613f48565b6040820152613e838360608401613f48565b6060820152613e958360808401613c63565b6080820152613ea78360a08401613c63565b60a0820152613eb98360c08401613c63565b60c082015260e082013560e0820152610100613ed784828501613f53565b818301525061012080830135818301525092915050565b600060808284031215613eff578081fd5b613f096080615226565b9050813560048110613f1a57600080fd5b8152613f298360208401613f6b565b6020820152604082013560408201526060820135606082015292915050565b8035611f91816152da565b803567ffffffffffffffff81168114611f9157600080fd5b803560ff81168114611f9157600080fd5b60008060408385031215613f8e578182fd5b823567ffffffffffffffff811115613fa4578283fd5b8301601f81018513613fb4578283fd5b8035613fc2613c8c8261524d565b808282526020808301925080850189828387028801011115613fe2578788fd5b8795505b8486101561400d578035613ff9816152aa565b845260019590950194928101928101613fe6565b5081965061401d89828a01613d2f565b955050505050509250929050565b6000806020838503121561403d578182fd5b823567ffffffffffffffff80821115614054578384fd5b818501915085601f830112614067578384fd5b813581811115614075578485fd5b8660208083028501011115614088578485fd5b60209290920196919550909350505050565b6000806000606084860312156140ae578081fd5b833567ffffffffffffffff808211156140c5578283fd5b6140d187838801613c6e565b94506020915081860135818111156140e7578384fd5b6140f388828901613c6e565b945050604086013581811115614107578384fd5b86019050601f81018713614119578283fd5b8035614127613c8c8261524d565b81815283810190838501858402850186018b1015614143578687fd5b8694505b83851015614165578035835260019490940193918501918501614147565b5080955050505050509250925092565b6000806000806040858703121561418a578182fd5b843567ffffffffffffffff808211156141a1578384fd5b818701915087601f8301126141b4578384fd5b8135818111156141c2578485fd5b886020610180830285010111156141d7578485fd5b6020928301965094509086013590808211156141f1578384fd5b506141fe87828801613ce5565b95989497509550505050565b6000602080838503121561421c578182fd5b823567ffffffffffffffff811115614232578283fd5b8301601f81018513614242578283fd5b8035614250613c8c8261524d565b81815283810190838501610180808502860187018a101561426f578788fd5b8795505b8486101561429b576142858a83613d3a565b8452600195909501949286019290810190614273565b509098975050505050505050565b600080600080604085870312156142be578182fd5b843567ffffffffffffffff808211156142d5578384fd5b818701915087601f8301126142e8578384fd5b8135818111156142f6578485fd5b886020610140830285010111156141d7578485fd5b6000602080838503121561431d578182fd5b823567ffffffffffffffff811115614333578283fd5b8301601f81018513614343578283fd5b8035614351613c8c8261524d565b81815283810190838501610140808502860187018a1015614370578788fd5b8795505b8486101561429b576143868a83613e27565b8452600195909501949286019290810190614374565b6000602082840312156143ad578081fd5b8151611e39816152aa565b6000806000606084860312156143cc578081fd5b83356143d7816152aa565b925060208401356143e7816152aa565b929592945050506040919091013590565b6000610180828403121561440a578081fd5b611e398383613d3a565b600080828403610200811215614428578283fd5b6144328585613d3a565b925060807ffffffffffffffffffffffffffffffffffffffffffffffffffffffffffffffe8082011215614463578182fd5b50610180830190509250929050565b60008060006102208486031215614487578081fd5b6144918585613d3a565b92506144a1856101808601613eee565b91506102008401356144b2816152da565b809150509250925092565b600080600080600061026086880312156144d5578283fd5b6144df8787613d3a565b94506144ef876101808801613eee565b9350610200860135614500816152da565b9250610220860135614511816152aa565b9150610240860135614522816152aa565b809150509295509295909350565b600080600083850360a0811215614545578182fd5b6060811215614552578182fd5b5061455d6060615226565b84518152602085015160058110614572578283fd5b60208201526040850151614585816152da565b6040820152606085015190935061459b816152da565b60808501519092506144b2816152cc565b600061014082840312156145be578081fd5b611e398383613e27565b6000806101c083850312156145db578182fd5b6145e58484613e27565b91506145f5846101408501613eee565b90509250929050565b60008060006101e08486031215614613578081fd5b61461d8585613e27565b925061462d856101408601613eee565b91506101c08401356144b2816152da565b6000806000806102008587031215614654578182fd5b61465e8686613e27565b935061466e866101408701613eee565b92506101c085013561467f816152da565b91506101e0850135614690816152aa565b939692955090935050565b6000608082840312156146ac578081fd5b611e398383613eee565b6000602082840312156146c7578081fd5b5051919050565b60006146da83836147bb565b505060600190565b6fffffffffffffffffffffffffffffffff16815260200190565b73ffffffffffffffffffffffffffffffffffffffff169052565b6000815180845260208085019450808401835b83811015614747578151151587529582019590820190600101614729565b509495945050505050565b60008151808452815b818110156147775760208185018101518683018201520161475b565b818111156147885782602083870101525b50601f017fffffffffffffffffffffffffffffffffffffffffffffffffffffffffffffffe0169290920160200192915050565b805182526020810151600581106147ce57fe5b60208301526040908101516fffffffffffffffffffffffffffffffff16910152565b8035600481106147ff57600080fd5b614808816152a0565b82526040810160ff61481d8260208501613f6b565b166020840152356040830152606090810135910152565b6fffffffffffffffffffffffffffffffff169052565b67ffffffffffffffff169052565b7fff0000000000000000000000000000000000000000000000000000000000000094909416845260609290921b7fffffffffffffffffffffffffffffffffffffffff0000000000000000000000001660018401526015830152603582015260550190565b7f190100000000000000000000000000000000000000000000000000000000000081526002810192909252602282015260420190565b90565b73ffffffffffffffffffffffffffffffffffffffff91909116815260200190565b73ffffffffffffffffffffffffffffffffffffffff9384168152919092166020820152604081019190915260600190565b73ffffffffffffffffffffffffffffffffffffffff9485168152928416602084015292166040820152606081019190915260800190565b60006060820173ffffffffffffffffffffffffffffffffffffffff808716845260206060818601528287518085526080870191508289019450855b818110156149d75785518516835294830194918301916001016149b9565b5050809450505050508215156040830152949350505050565b73ffffffffffffffffffffffffffffffffffffffff92831681529116602082015260400190565b600073ffffffffffffffffffffffffffffffffffffffff8088168352808716602084015280861660408401525083606083015260a06080830152614a5e60a0830184614752565b979650505050505050565b73ffffffffffffffffffffffffffffffffffffffff929092168252602082015260400190565b60006060820160608352808651614aa68184614b33565b915060209250828801845b82811015614ad257614ac48483516146ce565b935090840190600101614ab1565b50505083810382850152808651614ae98184614b33565b91508388019250845b81811015614b1357614b058385516146e2565b938501939250600101614af2565b50508481036040860152614b278187614716565b98975050505050505050565b90815260200190565b91825273ffffffffffffffffffffffffffffffffffffffff16602082015260400190565b92835273ffffffffffffffffffffffffffffffffffffffff918216602084015216604082015260600190565b9a8b5273ffffffffffffffffffffffffffffffffffffffff998a1660208c015297891660408b015295881660608a015293871660808901529190951660a08701526fffffffffffffffffffffffffffffffff94851660c0870152841660e08601529092166101008401526101208301919091526101408201526101600190565b97885273ffffffffffffffffffffffffffffffffffffffff968716602089015294861660408801529285166060870152931660808501526fffffffffffffffffffffffffffffffff92831660a085015290911660c083015260e08201526101000190565b9283526020830191909152604082015260600190565b91825260ff16602082015260400190565b93845260ff9290921660208401526040830152606082015260800190565b7fffffffff0000000000000000000000000000000000000000000000000000000091909116815260200190565b7fffffffff0000000000000000000000000000000000000000000000000000000092909216825273ffffffffffffffffffffffffffffffffffffffff16602082015260400190565b6060810160048510614d3857fe5b938152602081019290925260409091015290565b60408101614d59846152a0565b9281526020015290565b6040810160068410614d5957fe5b600060208252611e396020830184614752565b6020808252602c908201527f4e61746976654f7264657273466561747572652f4d49534d4154434845445f4160408201527f525241595f4c454e475448530000000000000000000000000000000000000000606082015260800190565b60208082526027908201527f4e61746976654f7264657273466561747572652f4e4f5f434f4e54524143545f60408201527f4f524947494e5300000000000000000000000000000000000000000000000000606082015260800190565b60208082526038908201527f4e61746976654f7264657273466561747572652f4d49534d4154434845445f5060408201527f4149525f4f52444552535f41525241595f4c454e475448530000000000000000606082015260800190565b60208082526024908201527f466978696e546f6b656e5370656e6465722f43414e4e4f545f494e564f4b455f60408201527f53454c4600000000000000000000000000000000000000000000000000000000606082015260800190565b60208082526027908201527f466978696e50726f746f636f6c466565732f45544845525f5452414e5346455260408201527f5f46414c49454400000000000000000000000000000000000000000000000000606082015260800190565b610200810160208401614f7183614f6c8388613c63565b6146fc565b614f7b818661526d565b9050614f8a60208401826146fc565b50614f98604085018561527a565b614fa56040840182614834565b50614fb3606085018561527a565b614fc06060840182614834565b50614fce608085018561527a565b614fdb6080840182614834565b50614fe960a085018561526d565b614ff660a08401826146fc565b5061500460c085018561526d565b61501160c08401826146fc565b5061501f60e085018561526d565b61502c60e08401826146fc565b5061010061503c8186018661526d565b615048828501826146fc565b5050610120848101359083015261014061506481860186615287565b6150708285018261484a565b50506101608481013590830152611e396101808301846147f0565b60608101611f9182846147bb565b60a081016150a782866147bb565b6fffffffffffffffffffffffffffffffff841660608301528215156080830152949350505050565b6101c08101602084016150e683614f6c8388613c63565b6150f0818661526d565b90506150ff60208401826146fc565b5061510d604085018561527a565b61511a6040840182614834565b50615128606085018561527a565b6151356060840182614834565b50615143608085018561526d565b61515060808401826146fc565b5061515e60a085018561526d565b61516b60a08401826146fc565b5061517960c085018561526d565b61518660c08401826146fc565b5060e084013560e08301526101006151a081860186615287565b6151ac8285018261484a565b50506101208481013590830152611e396101408301846147f0565b6fffffffffffffffffffffffffffffffff91909116815260200190565b6fffffffffffffffffffffffffffffffff92831681529116602082015260400190565b918252602082015260400190565b63ffffffff91909116815260200190565b60405181810167ffffffffffffffff8111828210171561524557600080fd5b604052919050565b600067ffffffffffffffff821115615263578081fd5b5060209081020190565b60008235611e39816152aa565b60008235611e39816152da565b6000823567ffffffffffffffff81168114611e39578182fd5b60048110612d1757fe5b73ffffffffffffffffffffffffffffffffffffffff81168114612d1757600080fd5b8015158114612d1757600080fd5b6fffffffffffffffffffffffffffffffff81168114612d1757600080fdfea26469706673582212207be86ebfe95c4272ef9fd60e01d1026d9fd06dd80ea122231fa85912daab50c564736f6c634300060c0033",
                "opcodes": "PUSH2 0x1A0 PUSH1 0x40 MSTORE PUSH3 0x14 PUSH1 0x1 PUSH1 0x0 DUP2 PUSH3 0x1DF JUMP JUMPDEST PUSH2 0x180 MSTORE CALLVALUE DUP1 ISZERO PUSH3 0x25 JUMPI PUSH1 0x0 DUP1 REVERT JUMPDEST POP PUSH1 0x40 MLOAD PUSH3 0x56BB CODESIZE SUB DUP1 PUSH3 0x56BB DUP4 CODECOPY DUP2 ADD PUSH1 0x40 DUP2 SWAP1 MSTORE PUSH3 0x48 SWAP2 PUSH3 0x211 JUMP JUMPDEST DUP6 DUP6 DUP6 DUP6 DUP6 DUP6 DUP5 DUP5 DUP5 DUP5 DUP4 DUP4 DUP4 DUP4 DUP14 DUP10 DUP2 DUP2 DUP1 DUP3 PUSH1 0x0 CHAINID SWAP1 POP PUSH32 0x8B73C3C69BB8FE3D512ECC4CF759CC79239F7B179B0FFACAA9A75D522B39400F PUSH32 0x9E5DAE0ADDAF20578AEB5D70341D092B53B4E14480AC5726438FD436DF7BA427 PUSH32 0x6C015BD22B4C69690933C1058878EBDFEF31F9AAAE40BBE86D8A09FE1B2972C DUP4 DUP6 PUSH1 0x40 MLOAD PUSH1 0x20 ADD PUSH3 0xDC SWAP6 SWAP5 SWAP4 SWAP3 SWAP2 SWAP1 PUSH3 0x2B8 JUMP JUMPDEST PUSH1 0x40 DUP1 MLOAD PUSH1 0x1F NOT DUP2 DUP5 SUB ADD DUP2 MSTORE DUP3 DUP3 MSTORE DUP1 MLOAD PUSH1 0x20 SWAP2 DUP3 ADD KECCAK256 PUSH1 0x80 MSTORE PUSH1 0xA0 SWAP6 SWAP1 SWAP6 MSTORE PUSH1 0x1 PUSH1 0x1 PUSH1 0x60 SHL SUB NOT PUSH1 0x60 DUP13 SWAP1 SHL AND PUSH1 0xE0 MSTORE PUSH4 0x3C9506A3 PUSH1 0xE2 SHL DUP3 MSTORE MLOAD PUSH1 0x1 PUSH1 0x1 PUSH1 0xA0 SHL SUB DUP12 AND SWAP9 POP PUSH4 0xF2541A8C SWAP8 POP PUSH1 0x4 DUP1 DUP4 ADD SWAP8 POP SWAP5 SWAP6 POP SWAP4 SWAP1 DUP5 SWAP1 SUB ADD SWAP2 POP DUP3 SWAP1 POP DUP7 DUP1 EXTCODESIZE ISZERO DUP1 ISZERO PUSH3 0x152 JUMPI PUSH1 0x0 DUP1 REVERT JUMPDEST POP GAS STATICCALL ISZERO DUP1 ISZERO PUSH3 0x167 JUMPI RETURNDATASIZE PUSH1 0x0 DUP1 RETURNDATACOPY RETURNDATASIZE PUSH1 0x0 REVERT JUMPDEST POP POP POP POP PUSH1 0x40 MLOAD RETURNDATASIZE PUSH1 0x1F NOT PUSH1 0x1F DUP3 ADD AND DUP3 ADD DUP1 PUSH1 0x40 MSTORE POP DUP2 ADD SWAP1 PUSH3 0x18D SWAP2 SWAP1 PUSH3 0x29F JUMP JUMPDEST PUSH2 0x100 MSTORE PUSH1 0x60 SWAP4 DUP5 SHL PUSH1 0x1 PUSH1 0x1 PUSH1 0x60 SHL SUB NOT SWAP1 DUP2 AND PUSH2 0x120 MSTORE SWAP3 DUP5 SHL SWAP1 SWAP3 AND PUSH2 0x140 MSTORE POP PUSH1 0xE0 SHL PUSH1 0x1 PUSH1 0x1 PUSH1 0xE0 SHL SUB NOT AND PUSH1 0xC0 MSTORE ADDRESS SWAP1 SHL PUSH2 0x160 MSTORE POP PUSH3 0x2FD SWAP15 POP POP POP POP POP POP POP POP POP POP POP POP POP POP POP JUMP JUMPDEST PUSH12 0xFFFFFFFF0000000000000000 PUSH1 0x40 DUP5 SWAP1 SHL AND PUSH8 0xFFFFFFFF00000000 PUSH1 0x20 DUP5 SWAP1 SHL AND OR PUSH4 0xFFFFFFFF DUP3 AND OR SWAP4 SWAP3 POP POP POP JUMP JUMPDEST PUSH1 0x0 DUP1 PUSH1 0x0 DUP1 PUSH1 0x0 DUP1 PUSH1 0xC0 DUP8 DUP10 SUB SLT ISZERO PUSH3 0x22A JUMPI DUP2 DUP3 REVERT JUMPDEST DUP7 MLOAD PUSH3 0x237 DUP2 PUSH3 0x2E4 JUMP JUMPDEST PUSH1 0x20 DUP9 ADD MLOAD SWAP1 SWAP7 POP PUSH3 0x24A DUP2 PUSH3 0x2E4 JUMP JUMPDEST PUSH1 0x40 DUP9 ADD MLOAD SWAP1 SWAP6 POP PUSH3 0x25D DUP2 PUSH3 0x2E4 JUMP JUMPDEST PUSH1 0x60 DUP9 ADD MLOAD SWAP1 SWAP5 POP PUSH3 0x270 DUP2 PUSH3 0x2E4 JUMP JUMPDEST PUSH1 0x80 DUP9 ADD MLOAD SWAP1 SWAP4 POP PUSH4 0xFFFFFFFF DUP2 AND DUP2 EQ PUSH3 0x28A JUMPI DUP3 DUP4 REVERT JUMPDEST DUP1 SWAP3 POP POP PUSH1 0xA0 DUP8 ADD MLOAD SWAP1 POP SWAP3 SWAP6 POP SWAP3 SWAP6 POP SWAP3 SWAP6 JUMP JUMPDEST PUSH1 0x0 PUSH1 0x20 DUP3 DUP5 SUB SLT ISZERO PUSH3 0x2B1 JUMPI DUP1 DUP2 REVERT JUMPDEST POP MLOAD SWAP2 SWAP1 POP JUMP JUMPDEST SWAP5 DUP6 MSTORE PUSH1 0x20 DUP6 ADD SWAP4 SWAP1 SWAP4 MSTORE PUSH1 0x40 DUP5 ADD SWAP2 SWAP1 SWAP2 MSTORE PUSH1 0x60 DUP4 ADD MSTORE PUSH1 0x1 PUSH1 0x1 PUSH1 0xA0 SHL SUB AND PUSH1 0x80 DUP3 ADD MSTORE PUSH1 0xA0 ADD SWAP1 JUMP JUMPDEST PUSH1 0x1 PUSH1 0x1 PUSH1 0xA0 SHL SUB DUP2 AND DUP2 EQ PUSH3 0x2FA JUMPI PUSH1 0x0 DUP1 REVERT JUMPDEST POP JUMP JUMPDEST PUSH1 0x80 MLOAD PUSH1 0xA0 MLOAD PUSH1 0xC0 MLOAD PUSH1 0xE0 SHR PUSH1 0xE0 MLOAD PUSH1 0x60 SHR PUSH2 0x100 MLOAD PUSH2 0x120 MLOAD PUSH1 0x60 SHR PUSH2 0x140 MLOAD PUSH1 0x60 SHR PUSH2 0x160 MLOAD PUSH1 0x60 SHR PUSH2 0x180 MLOAD PUSH2 0x532E PUSH3 0x38D PUSH1 0x0 CODECOPY DUP1 PUSH2 0x5EB MSTORE POP DUP1 PUSH2 0x2C21 MSTORE POP DUP1 PUSH2 0x2251 MSTORE POP DUP1 PUSH2 0x2162 MSTORE POP DUP1 PUSH2 0x38A9 MSTORE POP DUP1 PUSH2 0x20D5 MSTORE DUP1 PUSH2 0x3888 MSTORE POP DUP1 PUSH2 0xAD2 MSTORE DUP1 PUSH2 0x12C2 MSTORE DUP1 PUSH2 0x385C MSTORE POP DUP1 PUSH2 0x1A08 MSTORE DUP1 PUSH2 0x39D2 MSTORE POP DUP1 PUSH2 0x1A2C MSTORE DUP1 PUSH2 0x1CC9 MSTORE POP PUSH2 0x532E PUSH1 0x0 RETURN INVALID PUSH1 0x80 PUSH1 0x40 MSTORE PUSH1 0x4 CALLDATASIZE LT PUSH2 0x1D8 JUMPI PUSH1 0x0 CALLDATALOAD PUSH1 0xE0 SHR DUP1 PUSH4 0x95480889 GT PUSH2 0x102 JUMPI DUP1 PUSH4 0xB4658BFB GT PUSH2 0x95 JUMPI DUP1 PUSH4 0xDD11D225 GT PUSH2 0x64 JUMPI DUP1 PUSH4 0xDD11D225 EQ PUSH2 0x55B JUMPI DUP1 PUSH4 0xF6274F66 EQ PUSH2 0x57B JUMPI DUP1 PUSH4 0xF6E0F6A5 EQ PUSH2 0x58E JUMPI DUP1 PUSH4 0xFE55A3EF EQ PUSH2 0x5AE JUMPI PUSH2 0x1D8 JUMP JUMPDEST DUP1 PUSH4 0xB4658BFB EQ PUSH2 0x4F1 JUMPI DUP1 PUSH4 0xD0A55FB0 EQ PUSH2 0x511 JUMPI DUP1 PUSH4 0xD925A56D EQ PUSH2 0x531 JUMPI DUP1 PUSH4 0xDAB400F3 EQ PUSH2 0x546 JUMPI PUSH2 0x1D8 JUMP JUMPDEST DUP1 PUSH4 0xA656186B GT PUSH2 0xD1 JUMPI DUP1 PUSH4 0xA656186B EQ PUSH2 0x462 JUMPI DUP1 PUSH4 0xAA77476C EQ PUSH2 0x482 JUMPI DUP1 PUSH4 0xAD354EEB EQ PUSH2 0x4A2 JUMPI DUP1 PUSH4 0xB09F1FB1 EQ PUSH2 0x4D1 JUMPI PUSH2 0x1D8 JUMP JUMPDEST DUP1 PUSH4 0x95480889 EQ PUSH2 0x3ED JUMPI DUP1 PUSH4 0x9A4F809C EQ PUSH2 0x40D JUMPI DUP1 PUSH4 0x9BAA45A8 EQ PUSH2 0x42D JUMPI DUP1 PUSH4 0xA0EDCEF5 EQ PUSH2 0x44D JUMPI PUSH2 0x1D8 JUMP JUMPDEST DUP1 PUSH4 0x414E4CCF GT PUSH2 0x17A JUMPI DUP1 PUSH4 0x7D49EC1A GT PUSH2 0x149 JUMPI DUP1 PUSH4 0x7D49EC1A EQ PUSH2 0x378 JUMPI DUP1 PUSH4 0x86A0C8D7 EQ PUSH2 0x398 JUMPI DUP1 PUSH4 0x8FD3AB80 EQ PUSH2 0x3B8 JUMPI DUP1 PUSH4 0x9240529C EQ PUSH2 0x3DA JUMPI PUSH2 0x1D8 JUMP JUMPDEST DUP1 PUSH4 0x414E4CCF EQ PUSH2 0x2E6 JUMPI DUP1 PUSH4 0x438CDFC5 EQ PUSH2 0x307 JUMPI DUP1 PUSH4 0x487B5C20 EQ PUSH2 0x334 JUMPI DUP1 PUSH4 0x6AE4B4F7 EQ PUSH2 0x356 JUMPI PUSH2 0x1D8 JUMP JUMPDEST DUP1 PUSH4 0x1FB09795 GT PUSH2 0x1B6 JUMPI DUP1 PUSH4 0x1FB09795 EQ PUSH2 0x24A JUMPI DUP1 PUSH4 0x346693C5 EQ PUSH2 0x279 JUMPI DUP1 PUSH4 0x37F381D8 EQ PUSH2 0x2A6 JUMPI DUP1 PUSH4 0x3CD2F026 EQ PUSH2 0x2C6 JUMPI PUSH2 0x1D8 JUMP JUMPDEST DUP1 PUSH4 0x16A6D65 EQ PUSH2 0x1DD JUMPI DUP1 PUSH4 0x31B905C EQ PUSH2 0x213 JUMPI DUP1 PUSH4 0xF0E8CF7 EQ PUSH2 0x228 JUMPI JUMPDEST PUSH1 0x0 DUP1 REVERT JUMPDEST CALLVALUE DUP1 ISZERO PUSH2 0x1E9 JUMPI PUSH1 0x0 DUP1 REVERT JUMPDEST POP PUSH2 0x1FD PUSH2 0x1F8 CALLDATASIZE PUSH1 0x4 PUSH2 0x45AC JUMP JUMPDEST PUSH2 0x5CE JUMP JUMPDEST PUSH1 0x40 MLOAD PUSH2 0x20A SWAP2 SWAP1 PUSH2 0x4B33 JUMP JUMPDEST PUSH1 0x40 MLOAD DUP1 SWAP2 SUB SWAP1 RETURN JUMPDEST CALLVALUE DUP1 ISZERO PUSH2 0x21F JUMPI PUSH1 0x0 DUP1 REVERT JUMPDEST POP PUSH2 0x1FD PUSH2 0x5E9 JUMP JUMPDEST CALLVALUE DUP1 ISZERO PUSH2 0x234 JUMPI PUSH1 0x0 DUP1 REVERT JUMPDEST POP PUSH2 0x248 PUSH2 0x243 CALLDATASIZE PUSH1 0x4 PUSH2 0x409A JUMP JUMPDEST PUSH2 0x60D JUMP JUMPDEST STOP JUMPDEST CALLVALUE DUP1 ISZERO PUSH2 0x256 JUMPI PUSH1 0x0 DUP1 REVERT JUMPDEST POP PUSH2 0x26A PUSH2 0x265 CALLDATASIZE PUSH1 0x4 PUSH2 0x4414 JUMP JUMPDEST PUSH2 0x6BC JUMP JUMPDEST PUSH1 0x40 MLOAD PUSH2 0x20A SWAP4 SWAP3 SWAP2 SWAP1 PUSH2 0x5099 JUMP JUMPDEST CALLVALUE DUP1 ISZERO PUSH2 0x285 JUMPI PUSH1 0x0 DUP1 REVERT JUMPDEST POP PUSH2 0x299 PUSH2 0x294 CALLDATASIZE PUSH1 0x4 PUSH2 0x45AC JUMP JUMPDEST PUSH2 0x7B9 JUMP JUMPDEST PUSH1 0x40 MLOAD PUSH2 0x20A SWAP2 SWAP1 PUSH2 0x508B JUMP JUMPDEST CALLVALUE DUP1 ISZERO PUSH2 0x2B2 JUMPI PUSH1 0x0 DUP1 REVERT JUMPDEST POP PUSH2 0x26A PUSH2 0x2C1 CALLDATASIZE PUSH1 0x4 PUSH2 0x45C8 JUMP JUMPDEST PUSH2 0x871 JUMP JUMPDEST CALLVALUE DUP1 ISZERO PUSH2 0x2D2 JUMPI PUSH1 0x0 DUP1 REVERT JUMPDEST POP PUSH2 0x248 PUSH2 0x2E1 CALLDATASIZE PUSH1 0x4 PUSH2 0x402B JUMP JUMPDEST PUSH2 0x961 JUMP JUMPDEST PUSH2 0x2F9 PUSH2 0x2F4 CALLDATASIZE PUSH1 0x4 PUSH2 0x44BD JUMP JUMPDEST PUSH2 0x994 JUMP JUMPDEST PUSH1 0x40 MLOAD PUSH2 0x20A SWAP3 SWAP2 SWAP1 PUSH2 0x51E4 JUMP JUMPDEST CALLVALUE DUP1 ISZERO PUSH2 0x313 JUMPI PUSH1 0x0 DUP1 REVERT JUMPDEST POP PUSH2 0x327 PUSH2 0x322 CALLDATASIZE PUSH1 0x4 PUSH2 0x45FE JUMP JUMPDEST PUSH2 0xA3E JUMP JUMPDEST PUSH1 0x40 MLOAD PUSH2 0x20A SWAP2 SWAP1 PUSH2 0x51C7 JUMP JUMPDEST CALLVALUE DUP1 ISZERO PUSH2 0x340 JUMPI PUSH1 0x0 DUP1 REVERT JUMPDEST POP PUSH2 0x349 PUSH2 0xAD0 JUMP JUMPDEST PUSH1 0x40 MLOAD PUSH2 0x20A SWAP2 SWAP1 PUSH2 0x5215 JUMP JUMPDEST CALLVALUE DUP1 ISZERO PUSH2 0x362 JUMPI PUSH1 0x0 DUP1 REVERT JUMPDEST POP PUSH2 0x36B PUSH2 0xAF4 JUMP JUMPDEST PUSH1 0x40 MLOAD PUSH2 0x20A SWAP2 SWAP1 PUSH2 0x4D71 JUMP JUMPDEST CALLVALUE DUP1 ISZERO PUSH2 0x384 JUMPI PUSH1 0x0 DUP1 REVERT JUMPDEST POP PUSH2 0x248 PUSH2 0x393 CALLDATASIZE PUSH1 0x4 PUSH2 0x43F8 JUMP JUMPDEST PUSH2 0xB2D JUMP JUMPDEST CALLVALUE DUP1 ISZERO PUSH2 0x3A4 JUMPI PUSH1 0x0 DUP1 REVERT JUMPDEST POP PUSH2 0x248 PUSH2 0x3B3 CALLDATASIZE PUSH1 0x4 PUSH2 0x409A JUMP JUMPDEST PUSH2 0xB95 JUMP JUMPDEST CALLVALUE DUP1 ISZERO PUSH2 0x3C4 JUMPI PUSH1 0x0 DUP1 REVERT JUMPDEST POP PUSH2 0x3CD PUSH2 0xC35 JUMP JUMPDEST PUSH1 0x40 MLOAD PUSH2 0x20A SWAP2 SWAP1 PUSH2 0x4CB5 JUMP JUMPDEST PUSH2 0x327 PUSH2 0x3E8 CALLDATASIZE PUSH1 0x4 PUSH2 0x4472 JUMP JUMPDEST PUSH2 0x105D JUMP JUMPDEST CALLVALUE DUP1 ISZERO PUSH2 0x3F9 JUMPI PUSH1 0x0 DUP1 REVERT JUMPDEST POP PUSH2 0x299 PUSH2 0x408 CALLDATASIZE PUSH1 0x4 PUSH2 0x43F8 JUMP JUMPDEST PUSH2 0x1120 JUMP JUMPDEST CALLVALUE DUP1 ISZERO PUSH2 0x419 JUMPI PUSH1 0x0 DUP1 REVERT JUMPDEST POP PUSH2 0x248 PUSH2 0x428 CALLDATASIZE PUSH1 0x4 PUSH2 0x43B8 JUMP JUMPDEST PUSH2 0x11AB JUMP JUMPDEST CALLVALUE DUP1 ISZERO PUSH2 0x439 JUMPI PUSH1 0x0 DUP1 REVERT JUMPDEST POP PUSH2 0x248 PUSH2 0x448 CALLDATASIZE PUSH1 0x4 PUSH2 0x420A JUMP JUMPDEST PUSH2 0x1290 JUMP JUMPDEST CALLVALUE DUP1 ISZERO PUSH2 0x459 JUMPI PUSH1 0x0 DUP1 REVERT JUMPDEST POP PUSH2 0x349 PUSH2 0x12C0 JUMP JUMPDEST CALLVALUE DUP1 ISZERO PUSH2 0x46E JUMPI PUSH1 0x0 DUP1 REVERT JUMPDEST POP PUSH2 0x2F9 PUSH2 0x47D CALLDATASIZE PUSH1 0x4 PUSH2 0x463E JUMP JUMPDEST PUSH2 0x12E4 JUMP JUMPDEST CALLVALUE DUP1 ISZERO PUSH2 0x48E JUMPI PUSH1 0x0 DUP1 REVERT JUMPDEST POP PUSH2 0x2F9 PUSH2 0x49D CALLDATASIZE PUSH1 0x4 PUSH2 0x45FE JUMP JUMPDEST PUSH2 0x1327 JUMP JUMPDEST CALLVALUE DUP1 ISZERO PUSH2 0x4AE JUMPI PUSH1 0x0 DUP1 REVERT JUMPDEST POP PUSH2 0x4C2 PUSH2 0x4BD CALLDATASIZE PUSH1 0x4 PUSH2 0x42A9 JUMP JUMPDEST PUSH2 0x1356 JUMP JUMPDEST PUSH1 0x40 MLOAD PUSH2 0x20A SWAP4 SWAP3 SWAP2 SWAP1 PUSH2 0x4A8F JUMP JUMPDEST CALLVALUE DUP1 ISZERO PUSH2 0x4DD JUMPI PUSH1 0x0 DUP1 REVERT JUMPDEST POP PUSH2 0x248 PUSH2 0x4EC CALLDATASIZE PUSH1 0x4 PUSH2 0x3F7C JUMP JUMPDEST PUSH2 0x15BC JUMP JUMPDEST CALLVALUE DUP1 ISZERO PUSH2 0x4FD JUMPI PUSH1 0x0 DUP1 REVERT JUMPDEST POP PUSH2 0x4C2 PUSH2 0x50C CALLDATASIZE PUSH1 0x4 PUSH2 0x4175 JUMP JUMPDEST PUSH2 0x16D5 JUMP JUMPDEST CALLVALUE DUP1 ISZERO PUSH2 0x51D JUMPI PUSH1 0x0 DUP1 REVERT JUMPDEST POP PUSH2 0x248 PUSH2 0x52C CALLDATASIZE PUSH1 0x4 PUSH2 0x43B8 JUMP JUMPDEST PUSH2 0x1930 JUMP JUMPDEST CALLVALUE DUP1 ISZERO PUSH2 0x53D JUMPI PUSH1 0x0 DUP1 REVERT JUMPDEST POP PUSH2 0x1FD PUSH2 0x1A06 JUMP JUMPDEST CALLVALUE DUP1 ISZERO PUSH2 0x552 JUMPI PUSH1 0x0 DUP1 REVERT JUMPDEST POP PUSH2 0x1FD PUSH2 0x1A2A JUMP JUMPDEST CALLVALUE DUP1 ISZERO PUSH2 0x567 JUMPI PUSH1 0x0 DUP1 REVERT JUMPDEST POP PUSH2 0x1FD PUSH2 0x576 CALLDATASIZE PUSH1 0x4 PUSH2 0x43F8 JUMP JUMPDEST PUSH2 0x1A4E JUMP JUMPDEST PUSH2 0x2F9 PUSH2 0x589 CALLDATASIZE PUSH1 0x4 PUSH2 0x4472 JUMP JUMPDEST PUSH2 0x1A5C JUMP JUMPDEST CALLVALUE DUP1 ISZERO PUSH2 0x59A JUMPI PUSH1 0x0 DUP1 REVERT JUMPDEST POP PUSH2 0x248 PUSH2 0x5A9 CALLDATASIZE PUSH1 0x4 PUSH2 0x430B JUMP JUMPDEST PUSH2 0x1AFA JUMP JUMPDEST CALLVALUE DUP1 ISZERO PUSH2 0x5BA JUMPI PUSH1 0x0 DUP1 REVERT JUMPDEST POP PUSH2 0x248 PUSH2 0x5C9 CALLDATASIZE PUSH1 0x4 PUSH2 0x45AC JUMP JUMPDEST PUSH2 0x1B2A JUMP JUMPDEST PUSH1 0x0 PUSH2 0x5E1 PUSH2 0x5DC DUP4 PUSH2 0x1B8E JUMP JUMPDEST PUSH2 0x1CC5 JUMP JUMPDEST SWAP1 POP JUMPDEST SWAP2 SWAP1 POP JUMP JUMPDEST PUSH32 0x0 DUP2 JUMP JUMPDEST DUP2 MLOAD DUP4 MLOAD EQ DUP1 ISZERO PUSH2 0x61F JUMPI POP DUP1 MLOAD DUP4 MLOAD EQ JUMPDEST PUSH2 0x65E JUMPI PUSH1 0x40 MLOAD PUSH32 0x8C379A000000000000000000000000000000000000000000000000000000000 DUP2 MSTORE PUSH1 0x4 ADD PUSH2 0x655 SWAP1 PUSH2 0x4E3E JUMP JUMPDEST PUSH1 0x40 MLOAD DUP1 SWAP2 SUB SWAP1 REVERT JUMPDEST PUSH1 0x0 JUMPDEST DUP4 MLOAD DUP2 LT ISZERO PUSH2 0x6B6 JUMPI PUSH2 0x6AE DUP5 DUP3 DUP2 MLOAD DUP2 LT PUSH2 0x679 JUMPI INVALID JUMPDEST PUSH1 0x20 MUL PUSH1 0x20 ADD ADD MLOAD DUP5 DUP4 DUP2 MLOAD DUP2 LT PUSH2 0x68D JUMPI INVALID JUMPDEST PUSH1 0x20 MUL PUSH1 0x20 ADD ADD MLOAD DUP5 DUP5 DUP2 MLOAD DUP2 LT PUSH2 0x6A1 JUMPI INVALID JUMPDEST PUSH1 0x20 MUL PUSH1 0x20 ADD ADD MLOAD PUSH2 0x11AB JUMP JUMPDEST PUSH1 0x1 ADD PUSH2 0x661 JUMP JUMPDEST POP POP POP POP JUMP JUMPDEST PUSH2 0x6C4 PUSH2 0x3C1A JUMP JUMPDEST PUSH1 0x0 DUP1 PUSH2 0x6D0 DUP6 PUSH2 0x1120 JUMP JUMPDEST SWAP3 POP PUSH2 0x761 PUSH1 0x40 MLOAD DUP1 PUSH1 0xA0 ADD PUSH1 0x40 MSTORE DUP1 DUP8 PUSH1 0xA0 ADD MLOAD PUSH20 0xFFFFFFFFFFFFFFFFFFFFFFFFFFFFFFFFFFFFFFFF AND DUP2 MSTORE PUSH1 0x20 ADD DUP8 PUSH1 0x0 ADD MLOAD PUSH20 0xFFFFFFFFFFFFFFFFFFFFFFFFFFFFFFFFFFFFFFFF AND DUP2 MSTORE PUSH1 0x20 ADD DUP8 PUSH1 0x40 ADD MLOAD PUSH16 0xFFFFFFFFFFFFFFFFFFFFFFFFFFFFFFFF AND DUP2 MSTORE PUSH1 0x20 ADD DUP8 PUSH1 0x60 ADD MLOAD PUSH16 0xFFFFFFFFFFFFFFFFFFFFFFFFFFFFFFFF AND DUP2 MSTORE PUSH1 0x20 ADD DUP6 DUP2 MSTORE POP PUSH2 0x1D17 JUMP JUMPDEST DUP4 MLOAD SWAP1 SWAP3 POP PUSH2 0x77E SWAP1 PUSH2 0x779 CALLDATASIZE DUP8 SWAP1 SUB DUP8 ADD DUP8 PUSH2 0x469B JUMP JUMPDEST PUSH2 0x1E40 JUMP JUMPDEST PUSH20 0xFFFFFFFFFFFFFFFFFFFFFFFFFFFFFFFFFFFFFFFF AND DUP6 PUSH1 0xA0 ADD MLOAD PUSH20 0xFFFFFFFFFFFFFFFFFFFFFFFFFFFFFFFFFFFFFFFF AND EQ SWAP1 POP SWAP3 POP SWAP3 POP SWAP3 JUMP JUMPDEST PUSH2 0x7C1 PUSH2 0x3C1A JUMP JUMPDEST PUSH2 0x7CA DUP3 PUSH2 0x5CE JUMP JUMPDEST DUP2 MSTORE PUSH1 0x0 PUSH2 0x7D6 PUSH2 0x1F97 JUMP JUMPDEST PUSH1 0x80 DUP5 ADD MLOAD PUSH20 0xFFFFFFFFFFFFFFFFFFFFFFFFFFFFFFFFFFFFFFFF SWAP1 DUP2 AND PUSH1 0x0 SWAP1 DUP2 MSTORE PUSH1 0x2 SWAP3 SWAP1 SWAP3 ADD PUSH1 0x20 SWAP1 DUP2 MSTORE PUSH1 0x40 DUP1 DUP5 KECCAK256 DUP8 MLOAD DUP5 AND DUP6 MSTORE DUP3 MSTORE DUP1 DUP5 KECCAK256 DUP3 DUP9 ADD MLOAD SWAP1 SWAP4 AND DUP5 MSTORE SWAP2 SWAP1 MSTORE SWAP1 KECCAK256 SLOAD PUSH1 0x60 DUP5 ADD MLOAD PUSH2 0x100 DUP6 ADD MLOAD PUSH2 0x120 DUP7 ADD MLOAD SWAP3 SWAP4 POP PUSH2 0x844 SWAP3 DUP6 SWAP3 SWAP2 SWAP1 DUP6 PUSH2 0x1FA4 JUMP JUMPDEST PUSH1 0xC0 DUP4 ADD MLOAD PUSH20 0xFFFFFFFFFFFFFFFFFFFFFFFFFFFFFFFFFFFFFFFF AND PUSH2 0x86B JUMPI PUSH1 0x0 PUSH1 0x20 DUP4 ADD MSTORE JUMPDEST POP SWAP2 SWAP1 POP JUMP JUMPDEST PUSH2 0x879 PUSH2 0x3C1A JUMP JUMPDEST PUSH1 0x0 DUP1 PUSH2 0x885 DUP6 PUSH2 0x7B9 JUMP JUMPDEST SWAP3 POP PUSH2 0x916 PUSH1 0x40 MLOAD DUP1 PUSH1 0xA0 ADD PUSH1 0x40 MSTORE DUP1 DUP8 PUSH1 0x80 ADD MLOAD PUSH20 0xFFFFFFFFFFFFFFFFFFFFFFFFFFFFFFFFFFFFFFFF AND DUP2 MSTORE PUSH1 0x20 ADD DUP8 PUSH1 0x0 ADD MLOAD PUSH20 0xFFFFFFFFFFFFFFFFFFFFFFFFFFFFFFFFFFFFFFFF AND DUP2 MSTORE PUSH1 0x20 ADD DUP8 PUSH1 0x40 ADD MLOAD PUSH16 0xFFFFFFFFFFFFFFFFFFFFFFFFFFFFFFFF AND DUP2 MSTORE PUSH1 0x20 ADD DUP8 PUSH1 0x60 ADD MLOAD PUSH16 0xFFFFFFFFFFFFFFFFFFFFFFFFFFFFFFFF AND DUP2 MSTORE PUSH1 0x20 ADD DUP6 DUP2 MSTORE POP PUSH2 0x1D17 JUMP JUMPDEST SWAP2 POP PUSH2 0x926 DUP4 PUSH1 0x0 ADD MLOAD DUP6 PUSH2 0x1E40 JUMP JUMPDEST PUSH20 0xFFFFFFFFFFFFFFFFFFFFFFFFFFFFFFFFFFFFFFFF AND DUP6 PUSH1 0x80 ADD MLOAD PUSH20 0xFFFFFFFFFFFFFFFFFFFFFFFFFFFFFFFFFFFFFFFF AND EQ SWAP1 POP SWAP3 POP SWAP3 POP SWAP3 JUMP JUMPDEST PUSH1 0x0 JUMPDEST DUP2 DUP2 LT ISZERO PUSH2 0x98F JUMPI PUSH2 0x987 DUP4 DUP4 DUP4 DUP2 DUP2 LT PUSH2 0x97B JUMPI INVALID JUMPDEST SWAP1 POP PUSH1 0x20 MUL ADD CALLDATALOAD PUSH2 0x2095 JUMP JUMPDEST PUSH1 0x1 ADD PUSH2 0x964 JUMP JUMPDEST POP POP POP JUMP JUMPDEST PUSH1 0x0 DUP1 CALLER ADDRESS EQ PUSH2 0x9AF JUMPI PUSH2 0x9AF PUSH2 0x9AA CALLER PUSH2 0x22E3 JUMP JUMPDEST PUSH2 0x239B JUMP JUMPDEST PUSH2 0x9B7 PUSH2 0x3C3C JUMP JUMPDEST PUSH2 0xA24 PUSH1 0x40 MLOAD DUP1 PUSH1 0xA0 ADD PUSH1 0x40 MSTORE DUP1 DUP11 DUP2 MSTORE PUSH1 0x20 ADD DUP10 DUP2 MSTORE PUSH1 0x20 ADD DUP9 PUSH16 0xFFFFFFFFFFFFFFFFFFFFFFFFFFFFFFFF AND DUP2 MSTORE PUSH1 0x20 ADD DUP8 PUSH20 0xFFFFFFFFFFFFFFFFFFFFFFFFFFFFFFFFFFFFFFFF AND DUP2 MSTORE PUSH1 0x20 ADD DUP7 PUSH20 0xFFFFFFFFFFFFFFFFFFFFFFFFFFFFFFFFFFFFFFFF AND DUP2 MSTORE POP PUSH2 0x23A3 JUMP JUMPDEST PUSH1 0x20 DUP2 ADD MLOAD PUSH1 0x40 SWAP1 SWAP2 ADD MLOAD SWAP1 SWAP10 SWAP1 SWAP9 POP SWAP7 POP POP POP POP POP POP POP JUMP JUMPDEST PUSH1 0x0 PUSH2 0xA48 PUSH2 0x3C3C JUMP JUMPDEST PUSH2 0xA54 DUP6 DUP6 DUP6 CALLER PUSH2 0x274F JUMP JUMPDEST SWAP1 POP DUP3 PUSH16 0xFFFFFFFFFFFFFFFFFFFFFFFFFFFFFFFF AND DUP2 PUSH1 0x20 ADD MLOAD PUSH16 0xFFFFFFFFFFFFFFFFFFFFFFFFFFFFFFFF AND LT ISZERO PUSH2 0xAC4 JUMPI PUSH2 0xAC4 PUSH2 0x9AA PUSH2 0xA95 DUP8 PUSH2 0x5CE JUMP JUMPDEST DUP4 PUSH1 0x20 ADD MLOAD PUSH16 0xFFFFFFFFFFFFFFFFFFFFFFFFFFFFFFFF AND DUP7 PUSH16 0xFFFFFFFFFFFFFFFFFFFFFFFFFFFFFFFF AND PUSH2 0x2A82 JUMP JUMPDEST PUSH1 0x40 ADD MLOAD SWAP5 SWAP4 POP POP POP POP JUMP JUMPDEST PUSH32 0x0 SWAP1 JUMP JUMPDEST PUSH1 0x40 MLOAD DUP1 PUSH1 0x40 ADD PUSH1 0x40 MSTORE DUP1 PUSH1 0xB DUP2 MSTORE PUSH1 0x20 ADD PUSH32 0x4C696D69744F7264657273000000000000000000000000000000000000000000 DUP2 MSTORE POP DUP2 JUMP JUMPDEST PUSH1 0x0 PUSH2 0xB38 DUP3 PUSH2 0x1A4E JUMP JUMPDEST SWAP1 POP DUP2 PUSH1 0xA0 ADD MLOAD PUSH20 0xFFFFFFFFFFFFFFFFFFFFFFFFFFFFFFFFFFFFFFFF AND CALLER PUSH20 0xFFFFFFFFFFFFFFFFFFFFFFFFFFFFFFFFFFFFFFFF AND EQ PUSH2 0xB83 JUMPI PUSH2 0xB83 PUSH2 0x9AA DUP3 CALLER DUP6 PUSH1 0xA0 ADD MLOAD PUSH2 0x2B40 JUMP JUMPDEST PUSH2 0xB91 DUP2 DUP4 PUSH1 0xA0 ADD MLOAD PUSH2 0x2B78 JUMP JUMPDEST POP POP JUMP JUMPDEST DUP2 MLOAD DUP4 MLOAD EQ DUP1 ISZERO PUSH2 0xBA7 JUMPI POP DUP1 MLOAD DUP4 MLOAD EQ JUMPDEST PUSH2 0xBDD JUMPI PUSH1 0x40 MLOAD PUSH32 0x8C379A000000000000000000000000000000000000000000000000000000000 DUP2 MSTORE PUSH1 0x4 ADD PUSH2 0x655 SWAP1 PUSH2 0x4E3E JUMP JUMPDEST PUSH1 0x0 JUMPDEST DUP4 MLOAD DUP2 LT ISZERO PUSH2 0x6B6 JUMPI PUSH2 0xC2D DUP5 DUP3 DUP2 MLOAD DUP2 LT PUSH2 0xBF8 JUMPI INVALID JUMPDEST PUSH1 0x20 MUL PUSH1 0x20 ADD ADD MLOAD DUP5 DUP4 DUP2 MLOAD DUP2 LT PUSH2 0xC0C JUMPI INVALID JUMPDEST PUSH1 0x20 MUL PUSH1 0x20 ADD ADD MLOAD DUP5 DUP5 DUP2 MLOAD DUP2 LT PUSH2 0xC20 JUMPI INVALID JUMPDEST PUSH1 0x20 MUL PUSH1 0x20 ADD ADD MLOAD PUSH2 0x1930 JUMP JUMPDEST PUSH1 0x1 ADD PUSH2 0xBE0 JUMP JUMPDEST PUSH1 0x0 PUSH2 0xC60 PUSH32 0x3CD2F02600000000000000000000000000000000000000000000000000000000 PUSH2 0x2BEB JUMP JUMPDEST PUSH2 0xC89 PUSH32 0xF6274F6600000000000000000000000000000000000000000000000000000000 PUSH2 0x2BEB JUMP JUMPDEST PUSH2 0xCB2 PUSH32 0xAA77476C00000000000000000000000000000000000000000000000000000000 PUSH2 0x2BEB JUMP JUMPDEST PUSH2 0xCDB PUSH32 0x9240529C00000000000000000000000000000000000000000000000000000000 PUSH2 0x2BEB JUMP JUMPDEST PUSH2 0xD04 PUSH32 0x438CDFC500000000000000000000000000000000000000000000000000000000 PUSH2 0x2BEB JUMP JUMPDEST PUSH2 0xD2D PUSH32 0x414E4CCF00000000000000000000000000000000000000000000000000000000 PUSH2 0x2BEB JUMP JUMPDEST PUSH2 0xD56 PUSH32 0xA656186B00000000000000000000000000000000000000000000000000000000 PUSH2 0x2BEB JUMP JUMPDEST PUSH2 0xD7F PUSH32 0x7D49EC1A00000000000000000000000000000000000000000000000000000000 PUSH2 0x2BEB JUMP JUMPDEST PUSH2 0xDA8 PUSH32 0xFE55A3EF00000000000000000000000000000000000000000000000000000000 PUSH2 0x2BEB JUMP JUMPDEST PUSH2 0xDD1 PUSH32 0x9BAA45A800000000000000000000000000000000000000000000000000000000 PUSH2 0x2BEB JUMP JUMPDEST PUSH2 0xDFA PUSH32 0xF6E0F6A500000000000000000000000000000000000000000000000000000000 PUSH2 0x2BEB JUMP JUMPDEST PUSH2 0xE23 PUSH32 0xD0A55FB000000000000000000000000000000000000000000000000000000000 PUSH2 0x2BEB JUMP JUMPDEST PUSH2 0xE4C PUSH32 0x86A0C8D700000000000000000000000000000000000000000000000000000000 PUSH2 0x2BEB JUMP JUMPDEST PUSH2 0xE75 PUSH32 0x9A4F809C00000000000000000000000000000000000000000000000000000000 PUSH2 0x2BEB JUMP JUMPDEST PUSH2 0xE9E PUSH32 0xF0E8CF700000000000000000000000000000000000000000000000000000000 PUSH2 0x2BEB JUMP JUMPDEST PUSH2 0xEC7 PUSH32 0x9548088900000000000000000000000000000000000000000000000000000000 PUSH2 0x2BEB JUMP JUMPDEST PUSH2 0xEF0 PUSH32 0x346693C500000000000000000000000000000000000000000000000000000000 PUSH2 0x2BEB JUMP JUMPDEST PUSH2 0xF19 PUSH32 0xDD11D22500000000000000000000000000000000000000000000000000000000 PUSH2 0x2BEB JUMP JUMPDEST PUSH2 0xF42 PUSH32 0x16A6D6500000000000000000000000000000000000000000000000000000000 PUSH2 0x2BEB JUMP JUMPDEST PUSH2 0xF6B PUSH32 0x487B5C2000000000000000000000000000000000000000000000000000000000 PUSH2 0x2BEB JUMP JUMPDEST PUSH2 0xF94 PUSH32 0xB09F1FB100000000000000000000000000000000000000000000000000000000 PUSH2 0x2BEB JUMP JUMPDEST PUSH2 0xFBD PUSH32 0x1FB0979500000000000000000000000000000000000000000000000000000000 PUSH2 0x2BEB JUMP JUMPDEST PUSH2 0xFE6 PUSH32 0x37F381D800000000000000000000000000000000000000000000000000000000 PUSH2 0x2BEB JUMP JUMPDEST PUSH2 0x100F PUSH32 0xB4658BFB00000000000000000000000000000000000000000000000000000000 PUSH2 0x2BEB JUMP JUMPDEST PUSH2 0x1038 PUSH32 0xAD354EEB00000000000000000000000000000000000000000000000000000000 PUSH2 0x2BEB JUMP JUMPDEST POP PUSH32 0x2C64C5EF00000000000000000000000000000000000000000000000000000000 SWAP1 JUMP JUMPDEST PUSH1 0x0 PUSH2 0x1067 PUSH2 0x3C3C JUMP JUMPDEST PUSH2 0x10D4 PUSH1 0x40 MLOAD DUP1 PUSH1 0xA0 ADD PUSH1 0x40 MSTORE DUP1 DUP8 DUP2 MSTORE PUSH1 0x20 ADD DUP7 DUP2 MSTORE PUSH1 0x20 ADD DUP6 PUSH16 0xFFFFFFFFFFFFFFFFFFFFFFFFFFFFFFFF AND DUP2 MSTORE PUSH1 0x20 ADD CALLER PUSH20 0xFFFFFFFFFFFFFFFFFFFFFFFFFFFFFFFFFFFFFFFF AND DUP2 MSTORE PUSH1 0x20 ADD CALLER PUSH20 0xFFFFFFFFFFFFFFFFFFFFFFFFFFFFFFFFFFFFFFFF AND DUP2 MSTORE POP PUSH2 0x23A3 JUMP JUMPDEST SWAP1 POP DUP3 PUSH16 0xFFFFFFFFFFFFFFFFFFFFFFFFFFFFFFFF AND DUP2 PUSH1 0x20 ADD MLOAD PUSH16 0xFFFFFFFFFFFFFFFFFFFFFFFFFFFFFFFF AND LT ISZERO PUSH2 0x1115 JUMPI PUSH2 0x1115 PUSH2 0x9AA PUSH2 0xA95 DUP8 PUSH2 0x1A4E JUMP JUMPDEST DUP1 MLOAD PUSH2 0xAC4 SWAP1 PUSH2 0x2C77 JUMP JUMPDEST PUSH2 0x1128 PUSH2 0x3C1A JUMP JUMPDEST PUSH2 0x1131 DUP3 PUSH2 0x1A4E JUMP JUMPDEST DUP2 MSTORE PUSH1 0x0 PUSH2 0x113D PUSH2 0x1F97 JUMP JUMPDEST PUSH1 0xA0 DUP5 ADD MLOAD PUSH20 0xFFFFFFFFFFFFFFFFFFFFFFFFFFFFFFFFFFFFFFFF SWAP1 DUP2 AND PUSH1 0x0 SWAP1 DUP2 MSTORE PUSH1 0x1 SWAP3 SWAP1 SWAP3 ADD PUSH1 0x20 SWAP1 DUP2 MSTORE PUSH1 0x40 DUP1 DUP5 KECCAK256 DUP8 MLOAD DUP5 AND DUP6 MSTORE DUP3 MSTORE DUP1 DUP5 KECCAK256 DUP3 DUP9 ADD MLOAD SWAP1 SWAP4 AND DUP5 MSTORE SWAP2 SWAP1 MSTORE SWAP1 KECCAK256 SLOAD PUSH1 0x60 DUP5 ADD MLOAD PUSH2 0x140 DUP6 ADD MLOAD PUSH2 0x160 DUP7 ADD MLOAD SWAP3 SWAP4 POP PUSH2 0x86B SWAP3 DUP6 SWAP3 SWAP2 SWAP1 DUP6 PUSH2 0x1FA4 JUMP JUMPDEST PUSH1 0x0 PUSH2 0x11B5 PUSH2 0x1F97 JUMP JUMPDEST CALLER PUSH1 0x0 SWAP1 DUP2 MSTORE PUSH1 0x2 DUP3 ADD PUSH1 0x20 SWAP1 DUP2 MSTORE PUSH1 0x40 DUP1 DUP4 KECCAK256 PUSH20 0xFFFFFFFFFFFFFFFFFFFFFFFFFFFFFFFFFFFFFFFF DUP10 DUP2 AND DUP6 MSTORE SWAP1 DUP4 MSTORE DUP2 DUP5 KECCAK256 SWAP1 DUP9 AND DUP5 MSTORE SWAP1 SWAP2 MSTORE SWAP1 KECCAK256 SLOAD SWAP1 SWAP2 POP DUP3 DUP2 GT ISZERO PUSH2 0x120C JUMPI PUSH2 0x120C PUSH2 0x9AA DUP5 DUP4 PUSH2 0x2D1A JUMP JUMPDEST CALLER PUSH1 0x0 DUP2 DUP2 MSTORE PUSH1 0x2 DUP5 ADD PUSH1 0x20 SWAP1 DUP2 MSTORE PUSH1 0x40 DUP1 DUP4 KECCAK256 PUSH20 0xFFFFFFFFFFFFFFFFFFFFFFFFFFFFFFFFFFFFFFFF DUP11 DUP2 AND DUP6 MSTORE SWAP1 DUP4 MSTORE DUP2 DUP5 KECCAK256 SWAP1 DUP10 AND DUP5 MSTORE SWAP1 SWAP2 MSTORE SWAP1 DUP2 SWAP1 KECCAK256 DUP6 SWAP1 SSTORE MLOAD PUSH32 0xFE7FFB1EDFE79F4DF716CB2DCAD21CF2F31B104D816A7976BA1E6E4653C1EFB1 SWAP2 PUSH2 0x1281 SWAP2 DUP9 SWAP1 DUP9 SWAP1 DUP9 SWAP1 PUSH2 0x4947 JUMP JUMPDEST PUSH1 0x40 MLOAD DUP1 SWAP2 SUB SWAP1 LOG1 POP POP POP POP POP JUMP JUMPDEST PUSH1 0x0 JUMPDEST DUP2 MLOAD DUP2 LT ISZERO PUSH2 0xB91 JUMPI PUSH2 0x12B8 DUP3 DUP3 DUP2 MLOAD DUP2 LT PUSH2 0x12AB JUMPI INVALID JUMPDEST PUSH1 0x20 MUL PUSH1 0x20 ADD ADD MLOAD PUSH2 0xB2D JUMP JUMPDEST PUSH1 0x1 ADD PUSH2 0x1293 JUMP JUMPDEST PUSH32 0x0 DUP2 JUMP JUMPDEST PUSH1 0x0 DUP1 CALLER ADDRESS EQ PUSH2 0x12FA JUMPI PUSH2 0x12FA PUSH2 0x9AA CALLER PUSH2 0x22E3 JUMP JUMPDEST PUSH2 0x1302 PUSH2 0x3C3C JUMP JUMPDEST PUSH2 0x130E DUP8 DUP8 DUP8 DUP8 PUSH2 0x274F JUMP JUMPDEST PUSH1 0x20 DUP2 ADD MLOAD PUSH1 0x40 SWAP1 SWAP2 ADD MLOAD SWAP1 SWAP9 SWAP1 SWAP8 POP SWAP6 POP POP POP POP POP POP JUMP JUMPDEST PUSH1 0x0 DUP1 PUSH2 0x1332 PUSH2 0x3C3C JUMP JUMPDEST PUSH2 0x133E DUP7 DUP7 DUP7 CALLER PUSH2 0x274F JUMP JUMPDEST PUSH1 0x20 DUP2 ADD MLOAD PUSH1 0x40 SWAP1 SWAP2 ADD MLOAD SWAP1 SWAP8 SWAP1 SWAP7 POP SWAP5 POP POP POP POP POP JUMP JUMPDEST PUSH1 0x60 DUP1 DUP1 DUP6 DUP5 EQ PUSH2 0x1393 JUMPI PUSH1 0x40 MLOAD PUSH32 0x8C379A000000000000000000000000000000000000000000000000000000000 DUP2 MSTORE PUSH1 0x4 ADD PUSH2 0x655 SWAP1 PUSH2 0x4D84 JUMP JUMPDEST DUP6 PUSH8 0xFFFFFFFFFFFFFFFF DUP2 GT DUP1 ISZERO PUSH2 0x13AA JUMPI PUSH1 0x0 DUP1 REVERT JUMPDEST POP PUSH1 0x40 MLOAD SWAP1 DUP1 DUP3 MSTORE DUP1 PUSH1 0x20 MUL PUSH1 0x20 ADD DUP3 ADD PUSH1 0x40 MSTORE DUP1 ISZERO PUSH2 0x13E4 JUMPI DUP2 PUSH1 0x20 ADD JUMPDEST PUSH2 0x13D1 PUSH2 0x3C1A JUMP JUMPDEST DUP2 MSTORE PUSH1 0x20 ADD SWAP1 PUSH1 0x1 SWAP1 SUB SWAP1 DUP2 PUSH2 0x13C9 JUMPI SWAP1 POP JUMPDEST POP SWAP3 POP DUP6 PUSH8 0xFFFFFFFFFFFFFFFF DUP2 GT DUP1 ISZERO PUSH2 0x13FE JUMPI PUSH1 0x0 DUP1 REVERT JUMPDEST POP PUSH1 0x40 MLOAD SWAP1 DUP1 DUP3 MSTORE DUP1 PUSH1 0x20 MUL PUSH1 0x20 ADD DUP3 ADD PUSH1 0x40 MSTORE DUP1 ISZERO PUSH2 0x1428 JUMPI DUP2 PUSH1 0x20 ADD PUSH1 0x20 DUP3 MUL DUP1 CALLDATASIZE DUP4 CALLDATACOPY ADD SWAP1 POP JUMPDEST POP SWAP2 POP DUP6 PUSH8 0xFFFFFFFFFFFFFFFF DUP2 GT DUP1 ISZERO PUSH2 0x1442 JUMPI PUSH1 0x0 DUP1 REVERT JUMPDEST POP PUSH1 0x40 MLOAD SWAP1 DUP1 DUP3 MSTORE DUP1 PUSH1 0x20 MUL PUSH1 0x20 ADD DUP3 ADD PUSH1 0x40 MSTORE DUP1 ISZERO PUSH2 0x146C JUMPI DUP2 PUSH1 0x20 ADD PUSH1 0x20 DUP3 MUL DUP1 CALLDATASIZE DUP4 CALLDATACOPY ADD SWAP1 POP JUMPDEST POP SWAP1 POP PUSH1 0x0 JUMPDEST DUP7 DUP2 LT ISZERO PUSH2 0x15B1 JUMPI ADDRESS PUSH4 0x37F381D8 DUP10 DUP10 DUP5 DUP2 DUP2 LT PUSH2 0x148C JUMPI INVALID JUMPDEST SWAP1 POP PUSH2 0x140 MUL ADD DUP9 DUP9 DUP6 DUP2 DUP2 LT PUSH2 0x149F JUMPI INVALID JUMPDEST SWAP1 POP PUSH1 0x80 MUL ADD PUSH1 0x40 MLOAD DUP4 PUSH4 0xFFFFFFFF AND PUSH1 0xE0 SHL DUP2 MSTORE PUSH1 0x4 ADD PUSH2 0x14C2 SWAP3 SWAP2 SWAP1 PUSH2 0x50CF JUMP JUMPDEST PUSH1 0xA0 PUSH1 0x40 MLOAD DUP1 DUP4 SUB DUP2 DUP7 DUP1 EXTCODESIZE ISZERO DUP1 ISZERO PUSH2 0x14DA JUMPI PUSH1 0x0 DUP1 REVERT JUMPDEST POP GAS STATICCALL SWAP3 POP POP POP DUP1 ISZERO PUSH2 0x1528 JUMPI POP PUSH1 0x40 DUP1 MLOAD PUSH1 0x1F RETURNDATASIZE SWAP1 DUP2 ADD PUSH32 0xFFFFFFFFFFFFFFFFFFFFFFFFFFFFFFFFFFFFFFFFFFFFFFFFFFFFFFFFFFFFFFE0 AND DUP3 ADD SWAP1 SWAP3 MSTORE PUSH2 0x1525 SWAP2 DUP2 ADD SWAP1 PUSH2 0x4530 JUMP JUMPDEST PUSH1 0x1 JUMPDEST PUSH2 0x1531 JUMPI PUSH2 0x15A9 JUMP JUMPDEST DUP3 DUP8 DUP6 DUP2 MLOAD DUP2 LT PUSH2 0x153E JUMPI INVALID JUMPDEST PUSH1 0x20 MUL PUSH1 0x20 ADD ADD DUP2 SWAP1 MSTORE POP DUP2 DUP7 DUP6 DUP2 MLOAD DUP2 LT PUSH2 0x1556 JUMPI INVALID JUMPDEST PUSH1 0x20 MUL PUSH1 0x20 ADD ADD SWAP1 PUSH16 0xFFFFFFFFFFFFFFFFFFFFFFFFFFFFFFFF AND SWAP1 DUP2 PUSH16 0xFFFFFFFFFFFFFFFFFFFFFFFFFFFFFFFF AND DUP2 MSTORE POP POP DUP1 DUP6 DUP6 DUP2 MLOAD DUP2 LT PUSH2 0x1595 JUMPI INVALID JUMPDEST SWAP2 ISZERO ISZERO PUSH1 0x20 SWAP3 DUP4 MUL SWAP2 SWAP1 SWAP2 ADD SWAP1 SWAP2 ADD MSTORE POP POP POP JUMPDEST PUSH1 0x1 ADD PUSH2 0x1472 JUMP JUMPDEST POP SWAP5 POP SWAP5 POP SWAP5 SWAP2 POP POP JUMP JUMPDEST CALLER ORIGIN EQ PUSH2 0x15F5 JUMPI PUSH1 0x40 MLOAD PUSH32 0x8C379A000000000000000000000000000000000000000000000000000000000 DUP2 MSTORE PUSH1 0x4 ADD PUSH2 0x655 SWAP1 PUSH2 0x4DE1 JUMP JUMPDEST PUSH1 0x0 PUSH2 0x15FF PUSH2 0x1F97 JUMP JUMPDEST SWAP1 POP PUSH1 0x0 JUMPDEST DUP4 MLOAD DUP2 LT ISZERO PUSH2 0x1694 JUMPI CALLER PUSH1 0x0 SWAP1 DUP2 MSTORE PUSH1 0x3 DUP4 ADD PUSH1 0x20 MSTORE PUSH1 0x40 DUP2 KECCAK256 DUP6 MLOAD DUP6 SWAP3 SWAP1 DUP8 SWAP1 DUP6 SWAP1 DUP2 LT PUSH2 0x162F JUMPI INVALID JUMPDEST PUSH1 0x20 SWAP1 DUP2 MUL SWAP2 SWAP1 SWAP2 ADD DUP2 ADD MLOAD PUSH20 0xFFFFFFFFFFFFFFFFFFFFFFFFFFFFFFFFFFFFFFFF AND DUP3 MSTORE DUP2 ADD SWAP2 SWAP1 SWAP2 MSTORE PUSH1 0x40 ADD PUSH1 0x0 KECCAK256 DUP1 SLOAD PUSH32 0xFFFFFFFFFFFFFFFFFFFFFFFFFFFFFFFFFFFFFFFFFFFFFFFFFFFFFFFFFFFFFF00 AND SWAP2 ISZERO ISZERO SWAP2 SWAP1 SWAP2 OR SWAP1 SSTORE PUSH1 0x1 ADD PUSH2 0x1604 JUMP JUMPDEST POP PUSH32 0x2DFEAD5EB769B298E82DD9650B31C40559A3D42701DBF53C931BC2682847C31 CALLER DUP5 DUP5 PUSH1 0x40 MLOAD PUSH2 0x16C8 SWAP4 SWAP3 SWAP2 SWAP1 PUSH2 0x497E JUMP JUMPDEST PUSH1 0x40 MLOAD DUP1 SWAP2 SUB SWAP1 LOG1 POP POP POP JUMP JUMPDEST PUSH1 0x60 DUP1 DUP1 DUP6 DUP5 EQ PUSH2 0x1712 JUMPI PUSH1 0x40 MLOAD PUSH32 0x8C379A000000000000000000000000000000000000000000000000000000000 DUP2 MSTORE PUSH1 0x4 ADD PUSH2 0x655 SWAP1 PUSH2 0x4D84 JUMP JUMPDEST DUP6 PUSH8 0xFFFFFFFFFFFFFFFF DUP2 GT DUP1 ISZERO PUSH2 0x1729 JUMPI PUSH1 0x0 DUP1 REVERT JUMPDEST POP PUSH1 0x40 MLOAD SWAP1 DUP1 DUP3 MSTORE DUP1 PUSH1 0x20 MUL PUSH1 0x20 ADD DUP3 ADD PUSH1 0x40 MSTORE DUP1 ISZERO PUSH2 0x1763 JUMPI DUP2 PUSH1 0x20 ADD JUMPDEST PUSH2 0x1750 PUSH2 0x3C1A JUMP JUMPDEST DUP2 MSTORE PUSH1 0x20 ADD SWAP1 PUSH1 0x1 SWAP1 SUB SWAP1 DUP2 PUSH2 0x1748 JUMPI SWAP1 POP JUMPDEST POP SWAP3 POP DUP6 PUSH8 0xFFFFFFFFFFFFFFFF DUP2 GT DUP1 ISZERO PUSH2 0x177D JUMPI PUSH1 0x0 DUP1 REVERT JUMPDEST POP PUSH1 0x40 MLOAD SWAP1 DUP1 DUP3 MSTORE DUP1 PUSH1 0x20 MUL PUSH1 0x20 ADD DUP3 ADD PUSH1 0x40 MSTORE DUP1 ISZERO PUSH2 0x17A7 JUMPI DUP2 PUSH1 0x20 ADD PUSH1 0x20 DUP3 MUL DUP1 CALLDATASIZE DUP4 CALLDATACOPY ADD SWAP1 POP JUMPDEST POP SWAP2 POP DUP6 PUSH8 0xFFFFFFFFFFFFFFFF DUP2 GT DUP1 ISZERO PUSH2 0x17C1 JUMPI PUSH1 0x0 DUP1 REVERT JUMPDEST POP PUSH1 0x40 MLOAD SWAP1 DUP1 DUP3 MSTORE DUP1 PUSH1 0x20 MUL PUSH1 0x20 ADD DUP3 ADD PUSH1 0x40 MSTORE DUP1 ISZERO PUSH2 0x17EB JUMPI DUP2 PUSH1 0x20 ADD PUSH1 0x20 DUP3 MUL DUP1 CALLDATASIZE DUP4 CALLDATACOPY ADD SWAP1 POP JUMPDEST POP SWAP1 POP PUSH1 0x0 JUMPDEST DUP7 DUP2 LT ISZERO PUSH2 0x15B1 JUMPI ADDRESS PUSH4 0x1FB09795 DUP10 DUP10 DUP5 DUP2 DUP2 LT PUSH2 0x180B JUMPI INVALID JUMPDEST SWAP1 POP PUSH2 0x180 MUL ADD DUP9 DUP9 DUP6 DUP2 DUP2 LT PUSH2 0x181E JUMPI INVALID JUMPDEST SWAP1 POP PUSH1 0x80 MUL ADD PUSH1 0x40 MLOAD DUP4 PUSH4 0xFFFFFFFF AND PUSH1 0xE0 SHL DUP2 MSTORE PUSH1 0x4 ADD PUSH2 0x1841 SWAP3 SWAP2 SWAP1 PUSH2 0x4F55 JUMP JUMPDEST PUSH1 0xA0 PUSH1 0x40 MLOAD DUP1 DUP4 SUB DUP2 DUP7 DUP1 EXTCODESIZE ISZERO DUP1 ISZERO PUSH2 0x1859 JUMPI PUSH1 0x0 DUP1 REVERT JUMPDEST POP GAS STATICCALL SWAP3 POP POP POP DUP1 ISZERO PUSH2 0x18A7 JUMPI POP PUSH1 0x40 DUP1 MLOAD PUSH1 0x1F RETURNDATASIZE SWAP1 DUP2 ADD PUSH32 0xFFFFFFFFFFFFFFFFFFFFFFFFFFFFFFFFFFFFFFFFFFFFFFFFFFFFFFFFFFFFFFE0 AND DUP3 ADD SWAP1 SWAP3 MSTORE PUSH2 0x18A4 SWAP2 DUP2 ADD SWAP1 PUSH2 0x4530 JUMP JUMPDEST PUSH1 0x1 JUMPDEST PUSH2 0x18B0 JUMPI PUSH2 0x1928 JUMP JUMPDEST DUP3 DUP8 DUP6 DUP2 MLOAD DUP2 LT PUSH2 0x18BD JUMPI INVALID JUMPDEST PUSH1 0x20 MUL PUSH1 0x20 ADD ADD DUP2 SWAP1 MSTORE POP DUP2 DUP7 DUP6 DUP2 MLOAD DUP2 LT PUSH2 0x18D5 JUMPI INVALID JUMPDEST PUSH1 0x20 MUL PUSH1 0x20 ADD ADD SWAP1 PUSH16 0xFFFFFFFFFFFFFFFFFFFFFFFFFFFFFFFF AND SWAP1 DUP2 PUSH16 0xFFFFFFFFFFFFFFFFFFFFFFFFFFFFFFFF AND DUP2 MSTORE POP POP DUP1 DUP6 DUP6 DUP2 MLOAD DUP2 LT PUSH2 0x1914 JUMPI INVALID JUMPDEST SWAP2 ISZERO ISZERO PUSH1 0x20 SWAP3 DUP4 MUL SWAP2 SWAP1 SWAP2 ADD SWAP1 SWAP2 ADD MSTORE POP POP POP JUMPDEST PUSH1 0x1 ADD PUSH2 0x17F1 JUMP JUMPDEST PUSH1 0x0 PUSH2 0x193A PUSH2 0x1F97 JUMP JUMPDEST CALLER PUSH1 0x0 SWAP1 DUP2 MSTORE PUSH1 0x1 DUP3 ADD PUSH1 0x20 SWAP1 DUP2 MSTORE PUSH1 0x40 DUP1 DUP4 KECCAK256 PUSH20 0xFFFFFFFFFFFFFFFFFFFFFFFFFFFFFFFFFFFFFFFF DUP10 DUP2 AND DUP6 MSTORE SWAP1 DUP4 MSTORE DUP2 DUP5 KECCAK256 SWAP1 DUP9 AND DUP5 MSTORE SWAP1 SWAP2 MSTORE SWAP1 KECCAK256 SLOAD SWAP1 SWAP2 POP DUP3 DUP2 GT ISZERO PUSH2 0x1991 JUMPI PUSH2 0x1991 PUSH2 0x9AA DUP5 DUP4 PUSH2 0x2D1A JUMP JUMPDEST CALLER PUSH1 0x0 DUP2 DUP2 MSTORE PUSH1 0x1 DUP5 ADD PUSH1 0x20 SWAP1 DUP2 MSTORE PUSH1 0x40 DUP1 DUP4 KECCAK256 PUSH20 0xFFFFFFFFFFFFFFFFFFFFFFFFFFFFFFFFFFFFFFFF DUP11 DUP2 AND DUP6 MSTORE SWAP1 DUP4 MSTORE DUP2 DUP5 KECCAK256 SWAP1 DUP10 AND DUP5 MSTORE SWAP1 SWAP2 MSTORE SWAP1 DUP2 SWAP1 KECCAK256 DUP6 SWAP1 SSTORE MLOAD PUSH32 0xA91FE7AE62FCE669DF2C7F880F8C14D178531AAE72515558E5C948E37C32A572 SWAP2 PUSH2 0x1281 SWAP2 DUP9 SWAP1 DUP9 SWAP1 DUP9 SWAP1 PUSH2 0x4947 JUMP JUMPDEST PUSH32 0x0 DUP2 JUMP JUMPDEST PUSH32 0x0 DUP2 JUMP JUMPDEST PUSH1 0x0 PUSH2 0x5E1 PUSH2 0x5DC DUP4 PUSH2 0x2DD5 JUMP JUMPDEST PUSH1 0x0 DUP1 PUSH2 0x1A67 PUSH2 0x3C3C JUMP JUMPDEST PUSH2 0x1AD4 PUSH1 0x40 MLOAD DUP1 PUSH1 0xA0 ADD PUSH1 0x40 MSTORE DUP1 DUP9 DUP2 MSTORE PUSH1 0x20 ADD DUP8 DUP2 MSTORE PUSH1 0x20 ADD DUP7 PUSH16 0xFFFFFFFFFFFFFFFFFFFFFFFFFFFFFFFF AND DUP2 MSTORE PUSH1 0x20 ADD CALLER PUSH20 0xFFFFFFFFFFFFFFFFFFFFFFFFFFFFFFFFFFFFFFFF AND DUP2 MSTORE PUSH1 0x20 ADD CALLER PUSH20 0xFFFFFFFFFFFFFFFFFFFFFFFFFFFFFFFFFFFFFFFF AND DUP2 MSTORE POP PUSH2 0x23A3 JUMP JUMPDEST SWAP1 POP PUSH2 0x1AE3 DUP2 PUSH1 0x0 ADD MLOAD PUSH2 0x2C77 JUMP JUMPDEST PUSH1 0x20 DUP2 ADD MLOAD PUSH1 0x40 SWAP1 SWAP2 ADD MLOAD SWAP1 SWAP7 SWAP1 SWAP6 POP SWAP4 POP POP POP POP JUMP JUMPDEST PUSH1 0x0 JUMPDEST DUP2 MLOAD DUP2 LT ISZERO PUSH2 0xB91 JUMPI PUSH2 0x1B22 DUP3 DUP3 DUP2 MLOAD DUP2 LT PUSH2 0x1B15 JUMPI INVALID JUMPDEST PUSH1 0x20 MUL PUSH1 0x20 ADD ADD MLOAD PUSH2 0x1B2A JUMP JUMPDEST PUSH1 0x1 ADD PUSH2 0x1AFD JUMP JUMPDEST PUSH1 0x0 PUSH2 0x1B35 DUP3 PUSH2 0x5CE JUMP JUMPDEST SWAP1 POP DUP2 PUSH1 0x80 ADD MLOAD PUSH20 0xFFFFFFFFFFFFFFFFFFFFFFFFFFFFFFFFFFFFFFFF AND CALLER PUSH20 0xFFFFFFFFFFFFFFFFFFFFFFFFFFFFFFFFFFFFFFFF AND EQ PUSH2 0x1B80 JUMPI PUSH2 0x1B80 PUSH2 0x9AA DUP3 CALLER DUP6 PUSH1 0x80 ADD MLOAD PUSH2 0x2B40 JUMP JUMPDEST PUSH2 0xB91 DUP2 DUP4 PUSH1 0x80 ADD MLOAD PUSH2 0x2B78 JUMP JUMPDEST PUSH1 0x0 PUSH1 0x40 MLOAD PUSH32 0xE593D3FDFA8B60E5E17A1B2204662ECBE15C23F2084B9AD5BAE40359540A7DA9 DUP2 MSTORE DUP3 MLOAD PUSH20 0xFFFFFFFFFFFFFFFFFFFFFFFFFFFFFFFFFFFFFFFF AND PUSH1 0x20 DUP3 ADD MSTORE PUSH1 0x20 DUP4 ADD MLOAD PUSH20 0xFFFFFFFFFFFFFFFFFFFFFFFFFFFFFFFFFFFFFFFF AND PUSH1 0x40 DUP3 ADD MSTORE PUSH1 0x40 DUP4 ADD MLOAD PUSH16 0xFFFFFFFFFFFFFFFFFFFFFFFFFFFFFFFF AND PUSH1 0x60 DUP3 ADD MSTORE PUSH1 0x60 DUP4 ADD MLOAD PUSH16 0xFFFFFFFFFFFFFFFFFFFFFFFFFFFFFFFF AND PUSH1 0x80 DUP3 ADD MSTORE PUSH1 0x80 DUP4 ADD MLOAD PUSH20 0xFFFFFFFFFFFFFFFFFFFFFFFFFFFFFFFFFFFFFFFF AND PUSH1 0xA0 DUP3 ADD MSTORE PUSH1 0xA0 DUP4 ADD MLOAD PUSH20 0xFFFFFFFFFFFFFFFFFFFFFFFFFFFFFFFFFFFFFFFF AND PUSH1 0xC0 DUP3 ADD MSTORE PUSH1 0xC0 DUP4 ADD MLOAD PUSH20 0xFFFFFFFFFFFFFFFFFFFFFFFFFFFFFFFFFFFFFFFF AND PUSH1 0xE0 DUP3 ADD MSTORE PUSH1 0xE0 DUP4 ADD MLOAD PUSH2 0x100 DUP3 ADD MSTORE PUSH2 0x100 DUP4 ADD MLOAD PUSH8 0xFFFFFFFFFFFFFFFF AND PUSH2 0x120 DUP3 ADD MSTORE PUSH2 0x120 DUP4 ADD MLOAD PUSH2 0x140 DUP3 ADD MSTORE PUSH2 0x160 DUP2 KECCAK256 SWAP2 POP POP SWAP2 SWAP1 POP JUMP JUMPDEST PUSH1 0x0 PUSH32 0x0 DUP3 PUSH1 0x40 MLOAD PUSH1 0x20 ADD PUSH2 0x1CFA SWAP3 SWAP2 SWAP1 PUSH2 0x48BC JUMP JUMPDEST PUSH1 0x40 MLOAD PUSH1 0x20 DUP2 DUP4 SUB SUB DUP2 MSTORE SWAP1 PUSH1 0x40 MSTORE DUP1 MLOAD SWAP1 PUSH1 0x20 ADD KECCAK256 SWAP1 POP SWAP2 SWAP1 POP JUMP JUMPDEST PUSH1 0x0 DUP2 PUSH1 0x40 ADD MLOAD PUSH16 0xFFFFFFFFFFFFFFFFFFFFFFFFFFFFFFFF AND PUSH1 0x0 EQ DUP1 PUSH2 0x1D52 JUMPI POP PUSH1 0x60 DUP3 ADD MLOAD PUSH16 0xFFFFFFFFFFFFFFFFFFFFFFFFFFFFFFFF AND ISZERO JUMPDEST ISZERO PUSH2 0x1D5F JUMPI POP PUSH1 0x0 PUSH2 0x5E4 JUMP JUMPDEST PUSH1 0x1 DUP3 PUSH1 0x80 ADD MLOAD PUSH1 0x20 ADD MLOAD PUSH1 0x4 DUP2 GT ISZERO PUSH2 0x1D75 JUMPI INVALID JUMPDEST EQ PUSH2 0x1D82 JUMPI POP PUSH1 0x0 PUSH2 0x5E4 JUMP JUMPDEST PUSH1 0x0 PUSH2 0x1DDB DUP4 PUSH1 0x80 ADD MLOAD PUSH1 0x40 ADD MLOAD DUP5 PUSH1 0x60 ADD MLOAD SUB PUSH16 0xFFFFFFFFFFFFFFFFFFFFFFFFFFFFFFFF AND DUP5 PUSH1 0x60 ADD MLOAD PUSH16 0xFFFFFFFFFFFFFFFFFFFFFFFFFFFFFFFF AND DUP6 PUSH1 0x40 ADD MLOAD PUSH16 0xFFFFFFFFFFFFFFFFFFFFFFFFFFFFFFFF AND PUSH2 0x2F4C JUMP JUMPDEST SWAP1 POP PUSH2 0x1DF8 DUP2 PUSH2 0x1DF3 DUP6 PUSH1 0x20 ADD MLOAD DUP7 PUSH1 0x0 ADD MLOAD PUSH2 0x2F6A JUMP JUMPDEST PUSH2 0x309C JUMP JUMPDEST SWAP1 POP PUSH2 0x1E39 PUSH2 0x1E34 DUP3 DUP6 PUSH1 0x40 ADD MLOAD PUSH16 0xFFFFFFFFFFFFFFFFFFFFFFFFFFFFFFFF AND DUP7 PUSH1 0x60 ADD MLOAD PUSH16 0xFFFFFFFFFFFFFFFFFFFFFFFFFFFFFFFF AND PUSH2 0x30B2 JUMP JUMPDEST PUSH2 0x30D6 JUMP JUMPDEST SWAP4 SWAP3 POP POP POP JUMP JUMPDEST PUSH1 0x0 PUSH2 0x1E4C DUP4 DUP4 PUSH2 0x3102 JUMP JUMPDEST PUSH1 0x2 DUP3 MLOAD PUSH1 0x3 DUP2 GT ISZERO PUSH2 0x1E5B JUMPI INVALID JUMPDEST EQ ISZERO PUSH2 0x1EC3 JUMPI PUSH1 0x1 DUP4 DUP4 PUSH1 0x20 ADD MLOAD DUP5 PUSH1 0x40 ADD MLOAD DUP6 PUSH1 0x60 ADD MLOAD PUSH1 0x40 MLOAD PUSH1 0x0 DUP2 MSTORE PUSH1 0x20 ADD PUSH1 0x40 MSTORE PUSH1 0x40 MLOAD PUSH2 0x1E90 SWAP5 SWAP4 SWAP3 SWAP2 SWAP1 PUSH2 0x4C97 JUMP JUMPDEST PUSH1 0x20 PUSH1 0x40 MLOAD PUSH1 0x20 DUP2 SUB SWAP1 DUP1 DUP5 SUB SWAP1 DUP6 GAS STATICCALL ISZERO DUP1 ISZERO PUSH2 0x1EB2 JUMPI RETURNDATASIZE PUSH1 0x0 DUP1 RETURNDATACOPY RETURNDATASIZE PUSH1 0x0 REVERT JUMPDEST POP POP POP PUSH1 0x20 PUSH1 0x40 MLOAD SUB MLOAD SWAP1 POP PUSH2 0x1F68 JUMP JUMPDEST PUSH1 0x3 DUP3 MLOAD PUSH1 0x3 DUP2 GT ISZERO PUSH2 0x1ED2 JUMPI INVALID JUMPDEST EQ ISZERO PUSH2 0x1F68 JUMPI PUSH1 0x0 PUSH32 0x19457468657265756D205369676E6564204D6573736167653A0A333200000000 PUSH1 0x0 MSTORE DUP4 PUSH1 0x1C MSTORE PUSH1 0x3C PUSH1 0x0 KECCAK256 SWAP1 POP PUSH1 0x1 DUP2 DUP5 PUSH1 0x20 ADD MLOAD DUP6 PUSH1 0x40 ADD MLOAD DUP7 PUSH1 0x60 ADD MLOAD PUSH1 0x40 MLOAD PUSH1 0x0 DUP2 MSTORE PUSH1 0x20 ADD PUSH1 0x40 MSTORE PUSH1 0x40 MLOAD PUSH2 0x1F38 SWAP5 SWAP4 SWAP3 SWAP2 SWAP1 PUSH2 0x4C97 JUMP JUMPDEST PUSH1 0x20 PUSH1 0x40 MLOAD PUSH1 0x20 DUP2 SUB SWAP1 DUP1 DUP5 SUB SWAP1 DUP6 GAS STATICCALL ISZERO DUP1 ISZERO PUSH2 0x1F5A JUMPI RETURNDATASIZE PUSH1 0x0 DUP1 RETURNDATACOPY RETURNDATASIZE PUSH1 0x0 REVERT JUMPDEST POP POP POP PUSH1 0x20 PUSH1 0x40 MLOAD SUB MLOAD SWAP2 POP POP JUMPDEST PUSH20 0xFFFFFFFFFFFFFFFFFFFFFFFFFFFFFFFFFFFFFFFF DUP2 AND PUSH2 0x1F91 JUMPI PUSH2 0x1F91 PUSH2 0x9AA PUSH1 0x5 DUP6 PUSH2 0x31AE JUMP JUMPDEST SWAP3 SWAP2 POP POP JUMP JUMPDEST PUSH1 0x0 DUP1 PUSH2 0x1F91 PUSH1 0x7 PUSH2 0x31E4 JUMP JUMPDEST PUSH1 0x0 PUSH2 0x1FAE PUSH2 0x1F97 JUMP JUMPDEST DUP7 MLOAD PUSH1 0x0 SWAP1 DUP2 MSTORE PUSH1 0x20 DUP3 SWAP1 MSTORE PUSH1 0x40 SWAP1 DUP2 SWAP1 KECCAK256 SLOAD PUSH16 0xFFFFFFFFFFFFFFFFFFFFFFFFFFFFFFFF DUP1 DUP3 AND SWAP3 DUP11 ADD DUP4 SWAP1 MSTORE SWAP3 SWAP4 POP SWAP2 DUP8 AND GT PUSH2 0x2005 JUMPI PUSH1 0x20 DUP8 ADD PUSH1 0x2 JUMPDEST SWAP1 DUP2 PUSH1 0x4 DUP2 GT ISZERO PUSH2 0x1FFA JUMPI INVALID JUMPDEST DUP2 MSTORE POP POP POP POP PUSH2 0x208E JUMP JUMPDEST PUSH32 0x8000000000000000000000000000000000000000000000000000000000000000 DUP2 AND ISZERO PUSH2 0x2038 JUMPI PUSH1 0x20 DUP8 ADD PUSH1 0x3 PUSH2 0x1FED JUMP JUMPDEST POP TIMESTAMP PUSH8 0xFFFFFFFFFFFFFFFF AND DUP5 PUSH8 0xFFFFFFFFFFFFFFFF AND GT PUSH2 0x2072 JUMPI PUSH1 0x20 DUP7 ADD PUSH1 0x4 JUMPDEST SWAP1 DUP2 PUSH1 0x4 DUP2 GT ISZERO PUSH2 0x2068 JUMPI INVALID JUMPDEST DUP2 MSTORE POP POP POP PUSH2 0x208E JUMP JUMPDEST DUP3 DUP3 GT ISZERO PUSH2 0x2085 JUMPI PUSH1 0x20 DUP7 ADD PUSH1 0x3 PUSH2 0x205B JUMP JUMPDEST POP PUSH1 0x1 PUSH1 0x20 DUP7 ADD MSTORE JUMPDEST POP POP POP POP POP JUMP JUMPDEST PUSH1 0x40 MLOAD PUSH32 0x319BED9A00000000000000000000000000000000000000000000000000000000 DUP2 MSTORE PUSH1 0x0 SWAP1 PUSH20 0xFFFFFFFFFFFFFFFFFFFFFFFFFFFFFFFFFFFFFFFF PUSH32 0x0 AND SWAP1 PUSH4 0x319BED9A SWAP1 PUSH2 0x210A SWAP1 DUP6 SWAP1 PUSH1 0x4 ADD PUSH2 0x4B33 JUMP JUMPDEST PUSH1 0x20 PUSH1 0x40 MLOAD DUP1 DUP4 SUB DUP2 PUSH1 0x0 DUP8 DUP1 EXTCODESIZE ISZERO DUP1 ISZERO PUSH2 0x2124 JUMPI PUSH1 0x0 DUP1 REVERT JUMPDEST POP GAS CALL ISZERO DUP1 ISZERO PUSH2 0x2138 JUMPI RETURNDATASIZE PUSH1 0x0 DUP1 RETURNDATACOPY RETURNDATASIZE PUSH1 0x0 REVERT JUMPDEST POP POP POP POP PUSH1 0x40 MLOAD RETURNDATASIZE PUSH1 0x1F NOT PUSH1 0x1F DUP3 ADD AND DUP3 ADD DUP1 PUSH1 0x40 MSTORE POP DUP2 ADD SWAP1 PUSH2 0x215C SWAP2 SWAP1 PUSH2 0x439C JUMP JUMPDEST SWAP1 POP PUSH1 0x0 PUSH32 0x0 PUSH20 0xFFFFFFFFFFFFFFFFFFFFFFFFFFFFFFFFFFFFFFFF AND PUSH4 0x70A08231 DUP4 PUSH1 0x40 MLOAD DUP3 PUSH4 0xFFFFFFFF AND PUSH1 0xE0 SHL DUP2 MSTORE PUSH1 0x4 ADD PUSH2 0x21B9 SWAP2 SWAP1 PUSH2 0x48F5 JUMP JUMPDEST PUSH1 0x20 PUSH1 0x40 MLOAD DUP1 DUP4 SUB DUP2 DUP7 DUP1 EXTCODESIZE ISZERO DUP1 ISZERO PUSH2 0x21D1 JUMPI PUSH1 0x0 DUP1 REVERT JUMPDEST POP GAS STATICCALL ISZERO DUP1 ISZERO PUSH2 0x21E5 JUMPI RETURNDATASIZE PUSH1 0x0 DUP1 RETURNDATACOPY RETURNDATASIZE PUSH1 0x0 REVERT JUMPDEST POP POP POP POP PUSH1 0x40 MLOAD RETURNDATASIZE PUSH1 0x1F NOT PUSH1 0x1F DUP3 ADD AND DUP3 ADD DUP1 PUSH1 0x40 MSTORE POP DUP2 ADD SWAP1 PUSH2 0x2209 SWAP2 SWAP1 PUSH2 0x46B6 JUMP JUMPDEST SWAP1 POP PUSH1 0x1 DUP2 GT ISZERO PUSH2 0x98F JUMPI PUSH1 0x40 MLOAD PUSH32 0xA3B4A32700000000000000000000000000000000000000000000000000000000 DUP2 MSTORE PUSH20 0xFFFFFFFFFFFFFFFFFFFFFFFFFFFFFFFFFFFFFFFF PUSH32 0x0 AND SWAP1 PUSH4 0xA3B4A327 SWAP1 PUSH2 0x22AC SWAP1 DUP6 SWAP1 DUP2 SWAP1 PUSH32 0xFFFFFFFFFFFFFFFFFFFFFFFFFFFFFFFFFFFFFFFFFFFFFFFFFFFFFFFFFFFFFFFF DUP8 ADD SWAP1 PUSH1 0x4 ADD PUSH2 0x4916 JUMP JUMPDEST PUSH1 0x0 PUSH1 0x40 MLOAD DUP1 DUP4 SUB DUP2 PUSH1 0x0 DUP8 DUP1 EXTCODESIZE ISZERO DUP1 ISZERO PUSH2 0x22C6 JUMPI PUSH1 0x0 DUP1 REVERT JUMPDEST POP GAS CALL ISZERO DUP1 ISZERO PUSH2 0x22DA JUMPI RETURNDATASIZE PUSH1 0x0 DUP1 RETURNDATACOPY RETURNDATASIZE PUSH1 0x0 REVERT JUMPDEST POP POP POP POP POP POP POP JUMP JUMPDEST PUSH1 0x60 PUSH32 0xF0EC779B0BCDA6D84ABF99EE2C67647D1100EBBB553A9C2D1C2BA1579592832C DUP3 PUSH1 0x40 MLOAD PUSH1 0x24 ADD PUSH2 0x2317 SWAP2 SWAP1 PUSH2 0x48F5 JUMP JUMPDEST PUSH1 0x40 DUP1 MLOAD PUSH32 0xFFFFFFFFFFFFFFFFFFFFFFFFFFFFFFFFFFFFFFFFFFFFFFFFFFFFFFFFFFFFFFE0 DUP2 DUP5 SUB ADD DUP2 MSTORE SWAP2 SWAP1 MSTORE PUSH1 0x20 DUP2 ADD DUP1 MLOAD PUSH28 0xFFFFFFFFFFFFFFFFFFFFFFFFFFFFFFFFFFFFFFFFFFFFFFFFFFFFFFFF AND PUSH32 0xFFFFFFFF00000000000000000000000000000000000000000000000000000000 SWAP1 SWAP4 AND SWAP3 SWAP1 SWAP3 OR SWAP1 SWAP2 MSTORE SWAP1 POP SWAP2 SWAP1 POP JUMP JUMPDEST DUP1 MLOAD PUSH1 0x20 DUP3 ADD REVERT JUMPDEST PUSH2 0x23AB PUSH2 0x3C3C JUMP JUMPDEST PUSH2 0x23B3 PUSH2 0x3C1A JUMP JUMPDEST DUP3 MLOAD PUSH2 0x23BE SWAP1 PUSH2 0x1120 JUMP JUMPDEST SWAP1 POP PUSH1 0x1 DUP2 PUSH1 0x20 ADD MLOAD PUSH1 0x4 DUP2 GT ISZERO PUSH2 0x23D2 JUMPI INVALID JUMPDEST EQ PUSH2 0x23F7 JUMPI PUSH2 0x23F7 PUSH2 0x9AA DUP3 PUSH1 0x0 ADD MLOAD DUP4 PUSH1 0x20 ADD MLOAD PUSH1 0x4 DUP2 GT ISZERO PUSH2 0x23F2 JUMPI INVALID JUMPDEST PUSH2 0x31FF JUMP JUMPDEST DUP3 MLOAD PUSH1 0xC0 ADD MLOAD PUSH20 0xFFFFFFFFFFFFFFFFFFFFFFFFFFFFFFFFFFFFFFFF AND ISZERO DUP1 ISZERO SWAP1 PUSH2 0x2459 JUMPI POP DUP3 PUSH1 0x60 ADD MLOAD PUSH20 0xFFFFFFFFFFFFFFFFFFFFFFFFFFFFFFFFFFFFFFFF AND DUP4 PUSH1 0x0 ADD MLOAD PUSH1 0xC0 ADD MLOAD PUSH20 0xFFFFFFFFFFFFFFFFFFFFFFFFFFFFFFFFFFFFFFFF AND EQ ISZERO JUMPDEST ISZERO PUSH2 0x247C JUMPI PUSH2 0x247C PUSH2 0x9AA DUP3 PUSH1 0x0 ADD MLOAD DUP6 PUSH1 0x60 ADD MLOAD DUP7 PUSH1 0x0 ADD MLOAD PUSH1 0xC0 ADD MLOAD PUSH2 0x3235 JUMP JUMPDEST DUP3 MLOAD PUSH1 0xE0 ADD MLOAD PUSH20 0xFFFFFFFFFFFFFFFFFFFFFFFFFFFFFFFFFFFFFFFF AND ISZERO DUP1 ISZERO SWAP1 PUSH2 0x24DE JUMPI POP DUP3 PUSH1 0x80 ADD MLOAD PUSH20 0xFFFFFFFFFFFFFFFFFFFFFFFFFFFFFFFFFFFFFFFF AND DUP4 PUSH1 0x0 ADD MLOAD PUSH1 0xE0 ADD MLOAD PUSH20 0xFFFFFFFFFFFFFFFFFFFFFFFFFFFFFFFFFFFFFFFF AND EQ ISZERO JUMPDEST ISZERO PUSH2 0x2501 JUMPI PUSH2 0x2501 PUSH2 0x9AA DUP3 PUSH1 0x0 ADD MLOAD DUP6 PUSH1 0x80 ADD MLOAD DUP7 PUSH1 0x0 ADD MLOAD PUSH1 0xE0 ADD MLOAD PUSH2 0x326D JUMP JUMPDEST PUSH1 0x0 PUSH2 0x2515 DUP3 PUSH1 0x0 ADD MLOAD DUP6 PUSH1 0x20 ADD MLOAD PUSH2 0x1E40 JUMP JUMPDEST SWAP1 POP DUP4 PUSH1 0x0 ADD MLOAD PUSH1 0xA0 ADD MLOAD PUSH20 0xFFFFFFFFFFFFFFFFFFFFFFFFFFFFFFFFFFFFFFFF AND DUP2 PUSH20 0xFFFFFFFFFFFFFFFFFFFFFFFFFFFFFFFFFFFFFFFF AND EQ PUSH2 0x2569 JUMPI DUP2 MLOAD DUP5 MLOAD PUSH1 0xA0 ADD MLOAD PUSH2 0x2569 SWAP2 PUSH2 0x9AA SWAP2 DUP5 SWAP1 PUSH2 0x32A5 JUMP JUMPDEST POP DUP3 MLOAD PUSH2 0x120 ADD MLOAD PUSH2 0x257A SWAP1 PUSH2 0x32DD JUMP JUMPDEST DUP3 MSTORE PUSH1 0x40 DUP1 MLOAD PUSH2 0x120 DUP2 ADD DUP3 MSTORE DUP3 MLOAD DUP2 MSTORE DUP5 MLOAD PUSH1 0xA0 SWAP1 DUP2 ADD MLOAD PUSH20 0xFFFFFFFFFFFFFFFFFFFFFFFFFFFFFFFFFFFFFFFF SWAP1 DUP2 AND PUSH1 0x20 DUP1 DUP6 ADD SWAP2 SWAP1 SWAP2 MSTORE PUSH1 0x60 DUP1 DUP10 ADD MLOAD DUP4 AND DUP6 DUP8 ADD MSTORE DUP9 MLOAD MLOAD DUP4 AND DUP2 DUP7 ADD MSTORE DUP9 MLOAD SWAP1 SWAP2 ADD MLOAD SWAP1 SWAP2 AND PUSH1 0x80 DUP5 ADD MSTORE DUP7 MLOAD DUP5 ADD MLOAD PUSH16 0xFFFFFFFFFFFFFFFFFFFFFFFFFFFFFFFF SWAP1 DUP2 AND SWAP3 DUP5 ADD SWAP3 SWAP1 SWAP3 MSTORE DUP7 MLOAD ADD MLOAD DUP2 AND PUSH1 0xC0 DUP4 ADD MSTORE DUP6 DUP4 ADD MLOAD DUP2 AND PUSH1 0xE0 DUP4 ADD MSTORE SWAP2 DUP4 ADD MLOAD SWAP1 SWAP2 AND PUSH2 0x100 DUP3 ADD MSTORE PUSH2 0x2623 SWAP1 PUSH2 0x33B2 JUMP JUMPDEST PUSH16 0xFFFFFFFFFFFFFFFFFFFFFFFFFFFFFFFF SWAP1 DUP2 AND PUSH1 0x40 DUP6 ADD MSTORE SWAP1 DUP2 AND PUSH1 0x20 DUP5 ADD MSTORE DUP4 MLOAD PUSH1 0x80 ADD MLOAD AND ISZERO PUSH2 0x26DA JUMPI PUSH2 0x26A5 DUP3 PUSH1 0x20 ADD MLOAD PUSH16 0xFFFFFFFFFFFFFFFFFFFFFFFFFFFFFFFF AND DUP5 PUSH1 0x0 ADD MLOAD PUSH1 0x60 ADD MLOAD PUSH16 0xFFFFFFFFFFFFFFFFFFFFFFFFFFFFFFFF AND DUP6 PUSH1 0x0 ADD MLOAD PUSH1 0x80 ADD MLOAD PUSH16 0xFFFFFFFFFFFFFFFFFFFFFFFFFFFFFFFF AND PUSH2 0x2F4C JUMP JUMPDEST PUSH16 0xFFFFFFFFFFFFFFFFFFFFFFFFFFFFFFFF AND PUSH1 0x60 DUP1 DUP5 ADD DUP3 SWAP1 MSTORE DUP5 MLOAD PUSH1 0x20 DUP2 ADD MLOAD SWAP2 DUP7 ADD MLOAD PUSH2 0x100 SWAP1 SWAP2 ADD MLOAD PUSH2 0x26DA SWAP4 PUSH2 0x352D JUMP JUMPDEST DUP1 MLOAD DUP4 MLOAD PUSH1 0xA0 DUP2 ADD MLOAD PUSH1 0x60 DUP1 DUP8 ADD MLOAD PUSH2 0x100 DUP5 ADD MLOAD DUP5 MLOAD PUSH1 0x20 DUP1 DUP8 ADD MLOAD SWAP1 DUP11 ADD MLOAD PUSH1 0x40 DUP1 DUP13 ADD MLOAD SWAP7 DUP13 ADD MLOAD DUP13 MLOAD PUSH2 0x120 SWAP1 SWAP11 ADD MLOAD SWAP2 MLOAD PUSH32 0xAB614D2B738543C0EA21F56347CF696A3A0C42A7CBEC3212A5CA22A4DCFF2124 SWAP12 PUSH2 0x2741 SWAP12 SWAP1 SWAP11 SWAP10 SWAP4 SWAP1 SWAP2 PUSH2 0x4B8C JUMP JUMPDEST PUSH1 0x40 MLOAD DUP1 SWAP2 SUB SWAP1 LOG1 POP SWAP2 SWAP1 POP JUMP JUMPDEST PUSH2 0x2757 PUSH2 0x3C3C JUMP JUMPDEST PUSH2 0x275F PUSH2 0x3C1A JUMP JUMPDEST PUSH2 0x2768 DUP7 PUSH2 0x7B9 JUMP JUMPDEST SWAP1 POP PUSH1 0x1 DUP2 PUSH1 0x20 ADD MLOAD PUSH1 0x4 DUP2 GT ISZERO PUSH2 0x277C JUMPI INVALID JUMPDEST EQ PUSH2 0x279C JUMPI PUSH2 0x279C PUSH2 0x9AA DUP3 PUSH1 0x0 ADD MLOAD DUP4 PUSH1 0x20 ADD MLOAD PUSH1 0x4 DUP2 GT ISZERO PUSH2 0x23F2 JUMPI INVALID JUMPDEST PUSH1 0x0 PUSH2 0x27A6 PUSH2 0x1F97 JUMP JUMPDEST PUSH1 0xC0 DUP9 ADD MLOAD SWAP1 SWAP2 POP PUSH20 0xFFFFFFFFFFFFFFFFFFFFFFFFFFFFFFFFFFFFFFFF AND ORIGIN EQ DUP1 ISZERO SWAP1 PUSH2 0x280A JUMPI POP PUSH1 0xC0 DUP8 ADD MLOAD PUSH20 0xFFFFFFFFFFFFFFFFFFFFFFFFFFFFFFFFFFFFFFFF AND PUSH1 0x0 SWAP1 DUP2 MSTORE PUSH1 0x3 DUP3 ADD PUSH1 0x20 SWAP1 DUP2 MSTORE PUSH1 0x40 DUP1 DUP4 KECCAK256 ORIGIN DUP5 MSTORE SWAP1 SWAP2 MSTORE SWAP1 KECCAK256 SLOAD PUSH1 0xFF AND ISZERO JUMPDEST ISZERO PUSH2 0x2825 JUMPI PUSH2 0x2825 PUSH2 0x9AA DUP4 PUSH1 0x0 ADD MLOAD ORIGIN DUP11 PUSH1 0xC0 ADD MLOAD PUSH2 0x3734 JUMP JUMPDEST POP PUSH1 0xA0 DUP7 ADD MLOAD PUSH20 0xFFFFFFFFFFFFFFFFFFFFFFFFFFFFFFFFFFFFFFFF AND ISZERO DUP1 ISZERO SWAP1 PUSH2 0x287F JUMPI POP DUP3 PUSH20 0xFFFFFFFFFFFFFFFFFFFFFFFFFFFFFFFFFFFFFFFF AND DUP7 PUSH1 0xA0 ADD MLOAD PUSH20 0xFFFFFFFFFFFFFFFFFFFFFFFFFFFFFFFFFFFFFFFF AND EQ ISZERO JUMPDEST ISZERO PUSH2 0x289A JUMPI PUSH2 0x289A PUSH2 0x9AA DUP3 PUSH1 0x0 ADD MLOAD DUP6 DUP10 PUSH1 0xA0 ADD MLOAD PUSH2 0x3235 JUMP JUMPDEST PUSH1 0x0 PUSH2 0x28AA DUP3 PUSH1 0x0 ADD MLOAD DUP8 PUSH2 0x1E40 JUMP JUMPDEST SWAP1 POP DUP7 PUSH1 0x80 ADD MLOAD PUSH20 0xFFFFFFFFFFFFFFFFFFFFFFFFFFFFFFFFFFFFFFFF AND DUP2 PUSH20 0xFFFFFFFFFFFFFFFFFFFFFFFFFFFFFFFFFFFFFFFF AND EQ PUSH2 0x28F9 JUMPI PUSH2 0x28F9 PUSH2 0x9AA DUP4 PUSH1 0x0 ADD MLOAD DUP4 DUP11 PUSH1 0x80 ADD MLOAD PUSH2 0x32A5 JUMP JUMPDEST POP PUSH2 0x29FE PUSH1 0x40 MLOAD DUP1 PUSH2 0x120 ADD PUSH1 0x40 MSTORE DUP1 DUP4 PUSH1 0x0 ADD MLOAD DUP2 MSTORE PUSH1 0x20 ADD DUP9 PUSH1 0x80 ADD MLOAD PUSH20 0xFFFFFFFFFFFFFFFFFFFFFFFFFFFFFFFFFFFFFFFF AND DUP2 MSTORE PUSH1 0x20 ADD DUP6 PUSH20 0xFFFFFFFFFFFFFFFFFFFFFFFFFFFFFFFFFFFFFFFF AND DUP2 MSTORE PUSH1 0x20 ADD DUP9 PUSH1 0x0 ADD MLOAD PUSH20 0xFFFFFFFFFFFFFFFFFFFFFFFFFFFFFFFFFFFFFFFF AND DUP2 MSTORE PUSH1 0x20 ADD DUP9 PUSH1 0x20 ADD MLOAD PUSH20 0xFFFFFFFFFFFFFFFFFFFFFFFFFFFFFFFFFFFFFFFF AND DUP2 MSTORE PUSH1 0x20 ADD DUP9 PUSH1 0x40 ADD MLOAD PUSH16 0xFFFFFFFFFFFFFFFFFFFFFFFFFFFFFFFF AND DUP2 MSTORE PUSH1 0x20 ADD DUP9 PUSH1 0x60 ADD MLOAD PUSH16 0xFFFFFFFFFFFFFFFFFFFFFFFFFFFFFFFF AND DUP2 MSTORE PUSH1 0x20 ADD DUP7 PUSH16 0xFFFFFFFFFFFFFFFFFFFFFFFFFFFFFFFF AND DUP2 MSTORE PUSH1 0x20 ADD DUP4 PUSH1 0x40 ADD MLOAD PUSH16 0xFFFFFFFFFFFFFFFFFFFFFFFFFFFFFFFF AND DUP2 MSTORE POP PUSH2 0x33B2 JUMP JUMPDEST PUSH16 0xFFFFFFFFFFFFFFFFFFFFFFFFFFFFFFFF SWAP1 DUP2 AND PUSH1 0x40 DUP1 DUP7 ADD DUP3 SWAP1 MSTORE SWAP3 SWAP1 SWAP2 AND PUSH1 0x20 DUP1 DUP7 ADD DUP3 SWAP1 MSTORE DUP5 MLOAD PUSH1 0x80 DUP12 ADD MLOAD DUP12 MLOAD SWAP3 DUP13 ADD MLOAD PUSH1 0xE0 DUP14 ADD MLOAD SWAP7 MLOAD PUSH32 0x829FA99D94DC4636925B38632E625736A614C154D55006B7AB6BEA979C210C32 SWAP8 PUSH2 0x2A71 SWAP8 SWAP5 SWAP7 SWAP4 SWAP6 DUP13 SWAP6 SWAP1 SWAP5 SWAP3 SWAP1 SWAP2 SWAP1 PUSH2 0x4C0C JUMP JUMPDEST PUSH1 0x40 MLOAD DUP1 SWAP2 SUB SWAP1 LOG1 POP SWAP5 SWAP4 POP POP POP POP JUMP JUMPDEST PUSH1 0x60 PUSH32 0x21948612B5EF214EC0508DF4901600E07A810A371BE76B25D59ADE73826E3D97 DUP5 DUP5 DUP5 PUSH1 0x40 MLOAD PUSH1 0x24 ADD PUSH2 0x2ABA SWAP4 SWAP3 SWAP2 SWAP1 PUSH2 0x4C70 JUMP JUMPDEST PUSH1 0x40 DUP1 MLOAD PUSH32 0xFFFFFFFFFFFFFFFFFFFFFFFFFFFFFFFFFFFFFFFFFFFFFFFFFFFFFFFFFFFFFFE0 DUP2 DUP5 SUB ADD DUP2 MSTORE SWAP2 SWAP1 MSTORE PUSH1 0x20 DUP2 ADD DUP1 MLOAD PUSH28 0xFFFFFFFFFFFFFFFFFFFFFFFFFFFFFFFFFFFFFFFFFFFFFFFFFFFFFFFF AND PUSH32 0xFFFFFFFF00000000000000000000000000000000000000000000000000000000 SWAP1 SWAP4 AND SWAP3 SWAP1 SWAP3 OR SWAP1 SWAP2 MSTORE SWAP1 POP SWAP4 SWAP3 POP POP POP JUMP JUMPDEST PUSH1 0x60 PUSH32 0x88B2C08E4A5F57D416AD23DAD18C20497CCFE684B1379B28FD564ADAF582B80F DUP5 DUP5 DUP5 PUSH1 0x40 MLOAD PUSH1 0x24 ADD PUSH2 0x2ABA SWAP4 SWAP3 SWAP2 SWAP1 PUSH2 0x4B60 JUMP JUMPDEST PUSH1 0x0 PUSH2 0x2B82 PUSH2 0x1F97 JUMP JUMPDEST PUSH1 0x0 DUP5 DUP2 MSTORE PUSH1 0x20 DUP3 SWAP1 MSTORE PUSH1 0x40 SWAP1 DUP2 SWAP1 KECCAK256 DUP1 SLOAD PUSH32 0x8000000000000000000000000000000000000000000000000000000000000000 OR SWAP1 SSTORE MLOAD SWAP1 SWAP2 POP PUSH32 0xA6EB7CDC219E1518CED964E9A34E61D68A94E4F1569DB3E84256BA981BA52753 SWAP1 PUSH2 0x16C8 SWAP1 DUP6 SWAP1 DUP6 SWAP1 PUSH2 0x4B3C JUMP JUMPDEST PUSH1 0x40 MLOAD PUSH32 0x6EB224CB00000000000000000000000000000000000000000000000000000000 DUP2 MSTORE ADDRESS SWAP1 PUSH4 0x6EB224CB SWAP1 PUSH2 0x2C49 SWAP1 DUP5 SWAP1 PUSH32 0x0 SWAP1 PUSH1 0x4 ADD PUSH2 0x4CE2 JUMP JUMPDEST PUSH1 0x0 PUSH1 0x40 MLOAD DUP1 DUP4 SUB DUP2 PUSH1 0x0 DUP8 DUP1 EXTCODESIZE ISZERO DUP1 ISZERO PUSH2 0x2C63 JUMPI PUSH1 0x0 DUP1 REVERT JUMPDEST POP GAS CALL ISZERO DUP1 ISZERO PUSH2 0x208E JUMPI RETURNDATASIZE PUSH1 0x0 DUP1 RETURNDATACOPY RETURNDATASIZE PUSH1 0x0 REVERT JUMPDEST DUP1 CALLVALUE GT DUP1 ISZERO PUSH2 0x2C86 JUMPI POP CALLER ADDRESS EQ ISZERO JUMPDEST ISZERO PUSH2 0x2D17 JUMPI PUSH1 0x0 PUSH2 0x2C97 CALLVALUE DUP4 PUSH2 0x376C JUMP JUMPDEST SWAP1 POP PUSH1 0x0 CALLER PUSH20 0xFFFFFFFFFFFFFFFFFFFFFFFFFFFFFFFFFFFFFFFF AND DUP3 PUSH1 0x40 MLOAD PUSH2 0x2CBF SWAP1 PUSH2 0x48F2 JUMP JUMPDEST PUSH1 0x0 PUSH1 0x40 MLOAD DUP1 DUP4 SUB DUP2 DUP6 DUP8 GAS CALL SWAP3 POP POP POP RETURNDATASIZE DUP1 PUSH1 0x0 DUP2 EQ PUSH2 0x2CFC JUMPI PUSH1 0x40 MLOAD SWAP2 POP PUSH1 0x1F NOT PUSH1 0x3F RETURNDATASIZE ADD AND DUP3 ADD PUSH1 0x40 MSTORE RETURNDATASIZE DUP3 MSTORE RETURNDATASIZE PUSH1 0x0 PUSH1 0x20 DUP5 ADD RETURNDATACOPY PUSH2 0x2D01 JUMP JUMPDEST PUSH1 0x60 SWAP2 POP JUMPDEST POP POP SWAP1 POP DUP1 PUSH2 0x98F JUMPI PUSH2 0x98F PUSH2 0x9AA CALLER DUP5 PUSH2 0x378B JUMP JUMPDEST POP JUMP JUMPDEST PUSH1 0x60 PUSH32 0xB12BC7E7D341F4431D6FAF05F991EE3B779183E341B24243064E10C886CD1873 DUP4 DUP4 PUSH1 0x40 MLOAD PUSH1 0x24 ADD PUSH2 0x2D50 SWAP3 SWAP2 SWAP1 PUSH2 0x5207 JUMP JUMPDEST PUSH1 0x40 DUP1 MLOAD PUSH32 0xFFFFFFFFFFFFFFFFFFFFFFFFFFFFFFFFFFFFFFFFFFFFFFFFFFFFFFFFFFFFFFE0 DUP2 DUP5 SUB ADD DUP2 MSTORE SWAP2 SWAP1 MSTORE PUSH1 0x20 DUP2 ADD DUP1 MLOAD PUSH28 0xFFFFFFFFFFFFFFFFFFFFFFFFFFFFFFFFFFFFFFFFFFFFFFFFFFFFFFFF AND PUSH32 0xFFFFFFFF00000000000000000000000000000000000000000000000000000000 SWAP1 SWAP4 AND SWAP3 SWAP1 SWAP3 OR SWAP1 SWAP2 MSTORE SWAP1 POP SWAP3 SWAP2 POP POP JUMP JUMPDEST PUSH1 0x0 PUSH1 0x40 MLOAD PUSH32 0xCE918627CB55462DDBB85E73DE69A8B322F2BC88F4507C52FCAD6D4C33C29D49 DUP2 MSTORE DUP3 MLOAD PUSH20 0xFFFFFFFFFFFFFFFFFFFFFFFFFFFFFFFFFFFFFFFF AND PUSH1 0x20 DUP3 ADD MSTORE PUSH1 0x20 DUP4 ADD MLOAD PUSH20 0xFFFFFFFFFFFFFFFFFFFFFFFFFFFFFFFFFFFFFFFF AND PUSH1 0x40 DUP3 ADD MSTORE PUSH1 0x40 DUP4 ADD MLOAD PUSH16 0xFFFFFFFFFFFFFFFFFFFFFFFFFFFFFFFF AND PUSH1 0x60 DUP3 ADD MSTORE PUSH1 0x60 DUP4 ADD MLOAD PUSH16 0xFFFFFFFFFFFFFFFFFFFFFFFFFFFFFFFF AND PUSH1 0x80 DUP3 ADD MSTORE PUSH1 0x80 DUP4 ADD MLOAD PUSH16 0xFFFFFFFFFFFFFFFFFFFFFFFFFFFFFFFF AND PUSH1 0xA0 DUP3 ADD MSTORE PUSH1 0xA0 DUP4 ADD MLOAD PUSH20 0xFFFFFFFFFFFFFFFFFFFFFFFFFFFFFFFFFFFFFFFF AND PUSH1 0xC0 DUP3 ADD MSTORE PUSH1 0xC0 DUP4 ADD MLOAD PUSH20 0xFFFFFFFFFFFFFFFFFFFFFFFFFFFFFFFFFFFFFFFF AND PUSH1 0xE0 DUP3 ADD MSTORE PUSH1 0xE0 DUP4 ADD MLOAD PUSH20 0xFFFFFFFFFFFFFFFFFFFFFFFFFFFFFFFFFFFFFFFF AND PUSH2 0x100 DUP3 ADD MSTORE PUSH2 0x100 DUP4 ADD MLOAD PUSH20 0xFFFFFFFFFFFFFFFFFFFFFFFFFFFFFFFFFFFFFFFF AND PUSH2 0x120 DUP3 ADD MSTORE PUSH2 0x120 DUP4 ADD MLOAD PUSH2 0x140 DUP3 ADD MSTORE PUSH2 0x140 DUP4 ADD MLOAD PUSH8 0xFFFFFFFFFFFFFFFF AND PUSH2 0x160 DUP3 ADD MSTORE PUSH2 0x160 DUP4 ADD MLOAD PUSH2 0x180 DUP3 ADD MSTORE PUSH2 0x1A0 DUP2 KECCAK256 SWAP2 POP POP SWAP2 SWAP1 POP JUMP JUMPDEST PUSH1 0x0 PUSH2 0x2F62 DUP4 PUSH2 0x2F5C DUP7 DUP6 PUSH2 0x37C1 JUMP JUMPDEST SWAP1 PUSH2 0x37F2 JUMP JUMPDEST SWAP5 SWAP4 POP POP POP POP JUMP JUMPDEST PUSH1 0x0 PUSH2 0x1E39 DUP4 PUSH20 0xFFFFFFFFFFFFFFFFFFFFFFFFFFFFFFFFFFFFFFFF AND PUSH4 0xDD62ED3E DUP5 ADDRESS PUSH1 0x40 MLOAD DUP4 PUSH4 0xFFFFFFFF AND PUSH1 0xE0 SHL DUP2 MSTORE PUSH1 0x4 ADD PUSH2 0x2FAA SWAP3 SWAP2 SWAP1 PUSH2 0x49F0 JUMP JUMPDEST PUSH1 0x20 PUSH1 0x40 MLOAD DUP1 DUP4 SUB DUP2 DUP7 DUP1 EXTCODESIZE ISZERO DUP1 ISZERO PUSH2 0x2FC2 JUMPI PUSH1 0x0 DUP1 REVERT JUMPDEST POP GAS STATICCALL ISZERO DUP1 ISZERO PUSH2 0x2FD6 JUMPI RETURNDATASIZE PUSH1 0x0 DUP1 RETURNDATACOPY RETURNDATASIZE PUSH1 0x0 REVERT JUMPDEST POP POP POP POP PUSH1 0x40 MLOAD RETURNDATASIZE PUSH1 0x1F NOT PUSH1 0x1F DUP3 ADD AND DUP3 ADD DUP1 PUSH1 0x40 MSTORE POP DUP2 ADD SWAP1 PUSH2 0x2FFA SWAP2 SWAP1 PUSH2 0x46B6 JUMP JUMPDEST PUSH1 0x40 MLOAD PUSH32 0x70A0823100000000000000000000000000000000000000000000000000000000 DUP2 MSTORE PUSH20 0xFFFFFFFFFFFFFFFFFFFFFFFFFFFFFFFFFFFFFFFF DUP7 AND SWAP1 PUSH4 0x70A08231 SWAP1 PUSH2 0x304C SWAP1 DUP8 SWAP1 PUSH1 0x4 ADD PUSH2 0x48F5 JUMP JUMPDEST PUSH1 0x20 PUSH1 0x40 MLOAD DUP1 DUP4 SUB DUP2 DUP7 DUP1 EXTCODESIZE ISZERO DUP1 ISZERO PUSH2 0x3064 JUMPI PUSH1 0x0 DUP1 REVERT JUMPDEST POP GAS STATICCALL ISZERO DUP1 ISZERO PUSH2 0x3078 JUMPI RETURNDATASIZE PUSH1 0x0 DUP1 RETURNDATACOPY RETURNDATASIZE PUSH1 0x0 REVERT JUMPDEST POP POP POP POP PUSH1 0x40 MLOAD RETURNDATASIZE PUSH1 0x1F NOT PUSH1 0x1F DUP3 ADD AND DUP3 ADD DUP1 PUSH1 0x40 MSTORE POP DUP2 ADD SWAP1 PUSH2 0x1DF3 SWAP2 SWAP1 PUSH2 0x46B6 JUMP JUMPDEST PUSH1 0x0 DUP2 DUP4 LT PUSH2 0x30AB JUMPI DUP2 PUSH2 0x1E39 JUMP JUMPDEST POP SWAP1 SWAP2 SWAP1 POP JUMP JUMPDEST PUSH1 0x0 PUSH2 0x2F62 DUP4 PUSH2 0x2F5C PUSH2 0x30C6 DUP3 PUSH1 0x1 PUSH2 0x376C JUMP JUMPDEST PUSH2 0x30D0 DUP9 DUP8 PUSH2 0x37C1 JUMP JUMPDEST SWAP1 PUSH2 0x381C JUMP JUMPDEST PUSH1 0x0 PUSH16 0xFFFFFFFFFFFFFFFFFFFFFFFFFFFFFFFF DUP3 GT ISZERO PUSH2 0x30FE JUMPI PUSH2 0x30FE PUSH2 0x9AA PUSH1 0x3 DUP5 PUSH2 0x3838 JUMP JUMPDEST POP SWAP1 JUMP JUMPDEST PUSH1 0x40 DUP2 ADD MLOAD PUSH32 0xFFFFFFFFFFFFFFFFFFFFFFFFFFFFFFFEBAAEDCE6AF48A03BBFD25E8CD0364141 GT ISZERO DUP1 PUSH2 0x3159 JUMPI POP PUSH1 0x60 DUP2 ADD MLOAD PUSH32 0x7FFFFFFFFFFFFFFFFFFFFFFFFFFFFFFF5D576E7357A4501DDFE92F46681B20A1 GT ISZERO JUMPDEST ISZERO PUSH2 0x316C JUMPI PUSH2 0x316C PUSH2 0x9AA PUSH1 0x5 DUP5 PUSH2 0x31AE JUMP JUMPDEST PUSH1 0x0 DUP2 MLOAD PUSH1 0x3 DUP2 GT ISZERO PUSH2 0x317B JUMPI INVALID JUMPDEST EQ ISZERO PUSH2 0x318F JUMPI PUSH2 0x318F PUSH2 0x9AA PUSH1 0x3 DUP5 PUSH2 0x31AE JUMP JUMPDEST PUSH1 0x1 DUP2 MLOAD PUSH1 0x3 DUP2 GT ISZERO PUSH2 0x319E JUMPI INVALID JUMPDEST EQ ISZERO PUSH2 0xB91 JUMPI PUSH2 0xB91 PUSH2 0x9AA PUSH1 0x0 DUP5 JUMPDEST PUSH1 0x60 PUSH32 0xF18F11F3027E735C758137924B262D4D3AFF0037DCD785ACA3C699FA05D960BD DUP4 DUP4 PUSH1 0x40 MLOAD PUSH1 0x24 ADD PUSH2 0x2D50 SWAP3 SWAP2 SWAP1 PUSH2 0x4D63 JUMP JUMPDEST PUSH1 0x0 PUSH1 0x80 DUP3 PUSH1 0x7 DUP2 GT ISZERO PUSH2 0x31F4 JUMPI INVALID JUMPDEST PUSH1 0x1 ADD SWAP1 SHL SWAP3 SWAP2 POP POP JUMP JUMPDEST PUSH1 0x60 PUSH32 0x47AB394E41470191EAF9FA542E84AC483A12665FBD616EB8D1C022CED6C94000 DUP4 DUP4 PUSH1 0x40 MLOAD PUSH1 0x24 ADD PUSH2 0x2D50 SWAP3 SWAP2 SWAP1 PUSH2 0x4C86 JUMP JUMPDEST PUSH1 0x60 PUSH32 0x5D3300180A4547B3E27137BE832D3EBF56F1BA5EBB30DD580999C61F77FA6396 DUP5 DUP5 DUP5 PUSH1 0x40 MLOAD PUSH1 0x24 ADD PUSH2 0x2ABA SWAP4 SWAP3 SWAP2 SWAP1 PUSH2 0x4B60 JUMP JUMPDEST PUSH1 0x60 PUSH32 0x15E6A383BB02D79EE933B927FBECBA78CDDE16CBA84B94A99661F44BCCE3B736 DUP5 DUP5 DUP5 PUSH1 0x40 MLOAD PUSH1 0x24 ADD PUSH2 0x2ABA SWAP4 SWAP3 SWAP2 SWAP1 PUSH2 0x4B60 JUMP JUMPDEST PUSH1 0x60 PUSH32 0xF13E65D925201525F3D71A731833B19BB26E44CFBD97CAF72A366B73866F7124 DUP5 DUP5 DUP5 PUSH1 0x40 MLOAD PUSH1 0x24 ADD PUSH2 0x2ABA SWAP4 SWAP3 SWAP2 SWAP1 PUSH2 0x4B60 JUMP JUMPDEST PUSH1 0x0 DUP1 PUSH2 0x32E8 PUSH2 0x3855 JUMP JUMPDEST SWAP1 POP DUP1 PUSH2 0x32F9 JUMPI PUSH1 0x0 SWAP2 POP POP PUSH2 0x5E4 JUMP JUMPDEST PUSH1 0x0 PUSH2 0x3304 DUP5 PUSH2 0x3881 JUMP JUMPDEST SWAP1 POP PUSH1 0x0 DUP2 PUSH20 0xFFFFFFFFFFFFFFFFFFFFFFFFFFFFFFFFFFFFFFFF AND DUP4 PUSH1 0x40 MLOAD PUSH2 0x332C SWAP1 PUSH2 0x48F2 JUMP JUMPDEST PUSH1 0x0 PUSH1 0x40 MLOAD DUP1 DUP4 SUB DUP2 DUP6 DUP8 GAS CALL SWAP3 POP POP POP RETURNDATASIZE DUP1 PUSH1 0x0 DUP2 EQ PUSH2 0x3369 JUMPI PUSH1 0x40 MLOAD SWAP2 POP PUSH1 0x1F NOT PUSH1 0x3F RETURNDATASIZE ADD AND DUP3 ADD PUSH1 0x40 MSTORE RETURNDATASIZE DUP3 MSTORE RETURNDATASIZE PUSH1 0x0 PUSH1 0x20 DUP5 ADD RETURNDATACOPY PUSH2 0x336E JUMP JUMPDEST PUSH1 0x60 SWAP2 POP JUMPDEST POP POP SWAP1 POP DUP1 PUSH2 0x33A9 JUMPI PUSH1 0x40 MLOAD PUSH32 0x8C379A000000000000000000000000000000000000000000000000000000000 DUP2 MSTORE PUSH1 0x4 ADD PUSH2 0x655 SWAP1 PUSH2 0x4EF8 JUMP JUMPDEST POP SWAP1 SWAP4 SWAP3 POP POP POP JUMP JUMPDEST PUSH1 0x0 DUP1 PUSH2 0x33F0 DUP4 PUSH1 0xE0 ADD MLOAD PUSH2 0x33EB DUP6 PUSH2 0x100 ADD MLOAD DUP7 PUSH1 0xC0 ADD MLOAD PUSH16 0xFFFFFFFFFFFFFFFFFFFFFFFFFFFFFFFF AND PUSH2 0x38CE SWAP1 SWAP2 SWAP1 PUSH4 0xFFFFFFFF AND JUMP JUMPDEST PUSH2 0x392F JUMP JUMPDEST SWAP2 POP PUSH2 0x343B DUP3 PUSH16 0xFFFFFFFFFFFFFFFFFFFFFFFFFFFFFFFF AND DUP5 PUSH1 0xC0 ADD MLOAD PUSH16 0xFFFFFFFFFFFFFFFFFFFFFFFFFFFFFFFF AND DUP6 PUSH1 0xA0 ADD MLOAD PUSH16 0xFFFFFFFFFFFFFFFFFFFFFFFFFFFFFFFF AND PUSH2 0x2F4C JUMP JUMPDEST SWAP1 POP PUSH16 0xFFFFFFFFFFFFFFFFFFFFFFFFFFFFFFFF DUP3 AND ISZERO DUP1 PUSH2 0x346C JUMPI POP PUSH16 0xFFFFFFFFFFFFFFFFFFFFFFFFFFFFFFFF DUP2 AND ISZERO JUMPDEST ISZERO PUSH2 0x347C JUMPI POP PUSH1 0x0 SWAP1 POP DUP1 PUSH2 0x3528 JUMP JUMPDEST PUSH2 0x100 DUP4 ADD MLOAD PUSH2 0x349E SWAP1 PUSH16 0xFFFFFFFFFFFFFFFFFFFFFFFFFFFFFFFF AND DUP4 PUSH2 0x3962 JUMP JUMPDEST PUSH16 0xFFFFFFFFFFFFFFFFFFFFFFFFFFFFFFFF AND PUSH2 0x34B8 PUSH2 0x1F97 JUMP JUMPDEST PUSH1 0x0 ADD PUSH1 0x0 DUP6 PUSH1 0x0 ADD MLOAD DUP2 MSTORE PUSH1 0x20 ADD SWAP1 DUP2 MSTORE PUSH1 0x20 ADD PUSH1 0x0 KECCAK256 DUP2 SWAP1 SSTORE POP PUSH2 0x34FE DUP4 PUSH1 0x80 ADD MLOAD DUP5 PUSH1 0x40 ADD MLOAD DUP6 PUSH1 0x20 ADD MLOAD DUP6 PUSH16 0xFFFFFFFFFFFFFFFFFFFFFFFFFFFFFFFF AND PUSH2 0x352D JUMP JUMPDEST PUSH2 0x3528 DUP4 PUSH1 0x60 ADD MLOAD DUP5 PUSH1 0x20 ADD MLOAD DUP6 PUSH1 0x40 ADD MLOAD DUP5 PUSH16 0xFFFFFFFFFFFFFFFFFFFFFFFFFFFFFFFF AND PUSH2 0x352D JUMP JUMPDEST SWAP2 POP SWAP2 JUMP JUMPDEST PUSH1 0x0 PUSH1 0x60 PUSH20 0xFFFFFFFFFFFFFFFFFFFFFFFFFFFFFFFFFFFFFFFF DUP7 AND ADDRESS EQ ISZERO PUSH2 0x3581 JUMPI PUSH1 0x40 MLOAD PUSH32 0x8C379A000000000000000000000000000000000000000000000000000000000 DUP2 MSTORE PUSH1 0x4 ADD PUSH2 0x655 SWAP1 PUSH2 0x4E9B JUMP JUMPDEST PUSH2 0x358A DUP7 PUSH2 0x39B7 JUMP JUMPDEST ISZERO PUSH2 0x365E JUMPI PUSH1 0x40 MLOAD PUSH32 0xDD62ED3E00000000000000000000000000000000000000000000000000000000 DUP2 MSTORE DUP4 SWAP1 PUSH20 0xFFFFFFFFFFFFFFFFFFFFFFFFFFFFFFFFFFFFFFFF DUP9 AND SWAP1 PUSH4 0xDD62ED3E SWAP1 PUSH2 0x35E5 SWAP1 DUP10 SWAP1 ADDRESS SWAP1 PUSH1 0x4 ADD PUSH2 0x49F0 JUMP JUMPDEST PUSH1 0x20 PUSH1 0x40 MLOAD DUP1 DUP4 SUB DUP2 DUP7 DUP1 EXTCODESIZE ISZERO DUP1 ISZERO PUSH2 0x35FD JUMPI PUSH1 0x0 DUP1 REVERT JUMPDEST POP GAS STATICCALL ISZERO DUP1 ISZERO PUSH2 0x3611 JUMPI RETURNDATASIZE PUSH1 0x0 DUP1 RETURNDATACOPY RETURNDATASIZE PUSH1 0x0 REVERT JUMPDEST POP POP POP POP PUSH1 0x40 MLOAD RETURNDATASIZE PUSH1 0x1F NOT PUSH1 0x1F DUP3 ADD AND DUP3 ADD DUP1 PUSH1 0x40 MSTORE POP DUP2 ADD SWAP1 PUSH2 0x3635 SWAP2 SWAP1 PUSH2 0x46B6 JUMP JUMPDEST LT ISZERO PUSH2 0x365E JUMPI PUSH2 0x3657 DUP7 DUP7 DUP7 DUP7 PUSH1 0x40 MLOAD DUP1 PUSH1 0x20 ADD PUSH1 0x40 MSTORE DUP1 PUSH1 0x0 DUP2 MSTORE POP PUSH2 0x39F7 JUMP JUMPDEST POP POP PUSH2 0x6B6 JUMP JUMPDEST PUSH1 0x40 MLOAD PUSH32 0x23B872DD00000000000000000000000000000000000000000000000000000000 DUP2 MSTORE PUSH20 0xFFFFFFFFFFFFFFFFFFFFFFFFFFFFFFFFFFFFFFFF DUP7 AND PUSH1 0x4 DUP3 ADD MSTORE PUSH20 0xFFFFFFFFFFFFFFFFFFFFFFFFFFFFFFFFFFFFFFFF DUP6 AND PUSH1 0x24 DUP3 ADD MSTORE DUP4 PUSH1 0x44 DUP3 ADD MSTORE PUSH1 0x0 DUP1 PUSH1 0x64 DUP4 PUSH1 0x0 PUSH20 0xFFFFFFFFFFFFFFFFFFFFFFFFFFFFFFFFFFFFFFFF DUP13 AND GAS CALL SWAP3 POP RETURNDATASIZE DUP1 PUSH1 0x0 PUSH1 0x20 DUP5 ADD RETURNDATACOPY PUSH1 0x1 PUSH1 0x20 DUP4 ADD MLOAD EQ PUSH1 0x20 DUP3 LT ISZERO AND DUP2 ISZERO OR DUP5 AND SWAP4 POP DUP4 PUSH2 0x3718 JUMPI DUP1 DUP3 MSTORE DUP2 SWAP3 POP DUP1 PUSH1 0x20 DUP4 ADD ADD PUSH1 0x40 MSTORE JUMPDEST POP POP DUP2 PUSH2 0x372C JUMPI PUSH2 0x372C DUP7 DUP7 DUP7 DUP7 DUP6 PUSH2 0x39F7 JUMP JUMPDEST POP POP POP POP POP POP JUMP JUMPDEST PUSH1 0x60 PUSH32 0xC0972F3CC4234CA2091DE7E7BC7081494BD29AC280167D66F0D44168973B1634 DUP5 DUP5 DUP5 PUSH1 0x40 MLOAD PUSH1 0x24 ADD PUSH2 0x2ABA SWAP4 SWAP3 SWAP2 SWAP1 PUSH2 0x4B60 JUMP JUMPDEST PUSH1 0x0 DUP3 DUP3 GT ISZERO PUSH2 0x3785 JUMPI PUSH2 0x3785 PUSH2 0x9AA PUSH1 0x2 DUP6 DUP6 PUSH2 0x3ABF JUMP JUMPDEST POP SWAP1 SUB SWAP1 JUMP JUMPDEST PUSH1 0x60 PUSH32 0xBDE95CC2119E0200D80642397198ABFCF98E6E4DDDD0DE9C6320D86252AD40AB DUP4 DUP4 PUSH1 0x40 MLOAD PUSH1 0x24 ADD PUSH2 0x2D50 SWAP3 SWAP2 SWAP1 PUSH2 0x4A69 JUMP JUMPDEST PUSH1 0x0 DUP3 PUSH2 0x37D0 JUMPI POP PUSH1 0x0 PUSH2 0x1F91 JUMP JUMPDEST DUP3 DUP3 MUL DUP3 DUP5 DUP3 DUP2 PUSH2 0x37DD JUMPI INVALID JUMPDEST DIV EQ PUSH2 0x1E39 JUMPI PUSH2 0x1E39 PUSH2 0x9AA PUSH1 0x1 DUP7 DUP7 PUSH2 0x3ABF JUMP JUMPDEST PUSH1 0x0 DUP2 PUSH2 0x3808 JUMPI PUSH2 0x3808 PUSH2 0x9AA PUSH1 0x3 DUP6 DUP6 PUSH2 0x3ABF JUMP JUMPDEST PUSH1 0x0 DUP3 DUP5 DUP2 PUSH2 0x3813 JUMPI INVALID JUMPDEST DIV SWAP5 SWAP4 POP POP POP POP JUMP JUMPDEST PUSH1 0x0 DUP3 DUP3 ADD DUP4 DUP2 LT ISZERO PUSH2 0x1E39 JUMPI PUSH2 0x1E39 PUSH2 0x9AA PUSH1 0x0 DUP7 DUP7 PUSH2 0x3ABF JUMP JUMPDEST PUSH1 0x60 PUSH4 0xC996AF7B PUSH1 0xE0 SHL DUP4 DUP4 PUSH1 0x40 MLOAD PUSH1 0x24 ADD PUSH2 0x2D50 SWAP3 SWAP2 SWAP1 PUSH2 0x4D4C JUMP JUMPDEST PUSH4 0xFFFFFFFF PUSH32 0x0 AND GASPRICE MUL SWAP1 JUMP JUMPDEST PUSH1 0x0 PUSH2 0x5E1 PUSH32 0x0 PUSH32 0x0 DUP5 PUSH2 0x3ADE JUMP JUMPDEST PUSH1 0x0 DUP3 PUSH16 0xFFFFFFFFFFFFFFFFFFFFFFFFFFFFFFFF AND DUP3 PUSH16 0xFFFFFFFFFFFFFFFFFFFFFFFFFFFFFFFF AND GT ISZERO PUSH2 0x3785 JUMPI PUSH2 0x3785 PUSH2 0x9AA PUSH1 0x2 DUP6 PUSH16 0xFFFFFFFFFFFFFFFFFFFFFFFFFFFFFFFF AND DUP6 PUSH16 0xFFFFFFFFFFFFFFFFFFFFFFFFFFFFFFFF AND PUSH2 0x3ABF JUMP JUMPDEST PUSH1 0x0 DUP2 PUSH16 0xFFFFFFFFFFFFFFFFFFFFFFFFFFFFFFFF AND DUP4 PUSH16 0xFFFFFFFFFFFFFFFFFFFFFFFFFFFFFFFF AND LT PUSH2 0x30AB JUMPI DUP2 PUSH2 0x1E39 JUMP JUMPDEST PUSH1 0x0 DUP3 DUP3 ADD PUSH16 0xFFFFFFFFFFFFFFFFFFFFFFFFFFFFFFFF DUP1 DUP6 AND SWAP1 DUP3 AND LT ISZERO PUSH2 0x1E39 JUMPI PUSH2 0x1E39 PUSH2 0x9AA PUSH1 0x0 DUP7 PUSH16 0xFFFFFFFFFFFFFFFFFFFFFFFFFFFFFFFF AND DUP7 PUSH16 0xFFFFFFFFFFFFFFFFFFFFFFFFFFFFFFFF AND PUSH2 0x3ABF JUMP JUMPDEST PUSH1 0x0 DUP2 DUP2 MSTORE PUSH1 0x20 SWAP1 KECCAK256 PUSH1 0x1 PUSH1 0xFF SWAP3 DUP4 AND DUP2 SWAP1 SHL SWAP3 SWAP1 SWAP2 AND SHL OR PUSH32 0x0 DUP2 AND EQ SWAP1 JUMP JUMPDEST PUSH1 0x40 MLOAD PUSH32 0x89DD02E700000000000000000000000000000000000000000000000000000000 DUP2 MSTORE ADDRESS SWAP1 PUSH4 0x89DD02E7 SWAP1 PUSH2 0x3A39 SWAP1 DUP9 SWAP1 DUP9 SWAP1 DUP9 SWAP1 DUP9 SWAP1 PUSH1 0x4 ADD PUSH2 0x4947 JUMP JUMPDEST PUSH1 0x0 PUSH1 0x40 MLOAD DUP1 DUP4 SUB DUP2 PUSH1 0x0 DUP8 DUP1 EXTCODESIZE ISZERO DUP1 ISZERO PUSH2 0x3A53 JUMPI PUSH1 0x0 DUP1 REVERT JUMPDEST POP GAS CALL SWAP3 POP POP POP DUP1 ISZERO PUSH2 0x3A64 JUMPI POP PUSH1 0x1 JUMPDEST PUSH2 0x208E JUMPI RETURNDATASIZE DUP1 DUP1 ISZERO PUSH2 0x3A92 JUMPI PUSH1 0x40 MLOAD SWAP2 POP PUSH1 0x1F NOT PUSH1 0x3F RETURNDATASIZE ADD AND DUP3 ADD PUSH1 0x40 MSTORE RETURNDATASIZE DUP3 MSTORE RETURNDATASIZE PUSH1 0x0 PUSH1 0x20 DUP5 ADD RETURNDATACOPY PUSH2 0x3A97 JUMP JUMPDEST PUSH1 0x60 SWAP2 POP JUMPDEST POP PUSH2 0x3AB9 PUSH2 0x9AA DUP8 DUP8 DUP8 DUP8 DUP8 MLOAD PUSH1 0x0 EQ ISZERO PUSH2 0x3AB2 JUMPI DUP7 PUSH2 0x3AB4 JUMP JUMPDEST DUP8 JUMPDEST PUSH2 0x3B56 JUMP JUMPDEST POP PUSH2 0x208E JUMP JUMPDEST PUSH1 0x60 PUSH4 0xE946C1BB PUSH1 0xE0 SHL DUP5 DUP5 DUP5 PUSH1 0x40 MLOAD PUSH1 0x24 ADD PUSH2 0x2ABA SWAP4 SWAP3 SWAP2 SWAP1 PUSH2 0x4D2A JUMP JUMPDEST PUSH1 0x40 MLOAD PUSH1 0x0 SWAP1 PUSH2 0x3B18 SWAP1 PUSH32 0xFF00000000000000000000000000000000000000000000000000000000000000 SWAP1 DUP7 SWAP1 DUP6 SWAP1 DUP8 SWAP1 PUSH1 0x20 ADD PUSH2 0x4858 JUMP JUMPDEST PUSH1 0x40 DUP1 MLOAD PUSH32 0xFFFFFFFFFFFFFFFFFFFFFFFFFFFFFFFFFFFFFFFFFFFFFFFFFFFFFFFFFFFFFFE0 DUP2 DUP5 SUB ADD DUP2 MSTORE SWAP2 SWAP1 MSTORE DUP1 MLOAD PUSH1 0x20 SWAP1 SWAP2 ADD KECCAK256 SWAP5 SWAP4 POP POP POP POP JUMP JUMPDEST PUSH1 0x60 PUSH32 0xDFDC6F57CF82BEDE92BCFDD44FEDB82B2D5CECABF56EC21964DB6EE2C3E82CF4 DUP7 DUP7 DUP7 DUP7 DUP7 PUSH1 0x40 MLOAD PUSH1 0x24 ADD PUSH2 0x3B92 SWAP6 SWAP5 SWAP4 SWAP3 SWAP2 SWAP1 PUSH2 0x4A17 JUMP JUMPDEST PUSH1 0x40 DUP1 MLOAD PUSH32 0xFFFFFFFFFFFFFFFFFFFFFFFFFFFFFFFFFFFFFFFFFFFFFFFFFFFFFFFFFFFFFFE0 DUP2 DUP5 SUB ADD DUP2 MSTORE SWAP2 SWAP1 MSTORE PUSH1 0x20 DUP2 ADD DUP1 MLOAD PUSH28 0xFFFFFFFFFFFFFFFFFFFFFFFFFFFFFFFFFFFFFFFFFFFFFFFFFFFFFFFF AND PUSH32 0xFFFFFFFF00000000000000000000000000000000000000000000000000000000 SWAP1 SWAP4 AND SWAP3 SWAP1 SWAP3 OR SWAP1 SWAP2 MSTORE SWAP1 POP SWAP6 SWAP5 POP POP POP POP POP JUMP JUMPDEST PUSH1 0x40 DUP1 MLOAD PUSH1 0x60 DUP2 ADD SWAP1 SWAP2 MSTORE PUSH1 0x0 DUP1 DUP3 MSTORE PUSH1 0x20 DUP3 ADD SWAP1 DUP2 MSTORE PUSH1 0x0 PUSH1 0x20 SWAP1 SWAP2 ADD MSTORE SWAP1 JUMP JUMPDEST PUSH1 0x40 DUP1 MLOAD PUSH1 0x80 DUP2 ADD DUP3 MSTORE PUSH1 0x0 DUP1 DUP3 MSTORE PUSH1 0x20 DUP3 ADD DUP2 SWAP1 MSTORE SWAP2 DUP2 ADD DUP3 SWAP1 MSTORE PUSH1 0x60 DUP2 ADD SWAP2 SWAP1 SWAP2 MSTORE SWAP1 JUMP JUMPDEST DUP1 CALLDATALOAD PUSH2 0x1F91 DUP2 PUSH2 0x52AA JUMP JUMPDEST PUSH1 0x0 DUP3 PUSH1 0x1F DUP4 ADD SLT PUSH2 0x3C7E JUMPI DUP1 DUP2 REVERT JUMPDEST DUP2 CALLDATALOAD PUSH2 0x3C91 PUSH2 0x3C8C DUP3 PUSH2 0x524D JUMP JUMPDEST PUSH2 0x5226 JUMP JUMPDEST DUP2 DUP2 MSTORE SWAP2 POP PUSH1 0x20 DUP1 DUP4 ADD SWAP1 DUP5 DUP2 ADD DUP2 DUP5 MUL DUP7 ADD DUP3 ADD DUP8 LT ISZERO PUSH2 0x3CB2 JUMPI PUSH1 0x0 DUP1 REVERT JUMPDEST PUSH1 0x0 JUMPDEST DUP5 DUP2 LT ISZERO PUSH2 0x3CDA JUMPI DUP2 CALLDATALOAD PUSH2 0x3CC8 DUP2 PUSH2 0x52AA JUMP JUMPDEST DUP5 MSTORE SWAP3 DUP3 ADD SWAP3 SWAP1 DUP3 ADD SWAP1 PUSH1 0x1 ADD PUSH2 0x3CB5 JUMP JUMPDEST POP POP POP POP POP SWAP3 SWAP2 POP POP JUMP JUMPDEST PUSH1 0x0 DUP1 DUP4 PUSH1 0x1F DUP5 ADD SLT PUSH2 0x3CF6 JUMPI DUP2 DUP3 REVERT JUMPDEST POP DUP2 CALLDATALOAD PUSH8 0xFFFFFFFFFFFFFFFF DUP2 GT ISZERO PUSH2 0x3D0D JUMPI DUP2 DUP3 REVERT JUMPDEST PUSH1 0x20 DUP4 ADD SWAP2 POP DUP4 PUSH1 0x20 PUSH1 0x80 DUP4 MUL DUP6 ADD ADD GT ISZERO PUSH2 0x3D28 JUMPI PUSH1 0x0 DUP1 REVERT JUMPDEST SWAP3 POP SWAP3 SWAP1 POP JUMP JUMPDEST DUP1 CALLDATALOAD PUSH2 0x1F91 DUP2 PUSH2 0x52CC JUMP JUMPDEST PUSH1 0x0 PUSH2 0x180 DUP1 DUP4 DUP6 SUB SLT ISZERO PUSH2 0x3D4D JUMPI DUP2 DUP3 REVERT JUMPDEST PUSH2 0x3D56 DUP2 PUSH2 0x5226 JUMP JUMPDEST SWAP2 POP POP PUSH2 0x3D63 DUP4 DUP4 PUSH2 0x3C63 JUMP JUMPDEST DUP2 MSTORE PUSH2 0x3D72 DUP4 PUSH1 0x20 DUP5 ADD PUSH2 0x3C63 JUMP JUMPDEST PUSH1 0x20 DUP3 ADD MSTORE PUSH2 0x3D84 DUP4 PUSH1 0x40 DUP5 ADD PUSH2 0x3F48 JUMP JUMPDEST PUSH1 0x40 DUP3 ADD MSTORE PUSH2 0x3D96 DUP4 PUSH1 0x60 DUP5 ADD PUSH2 0x3F48 JUMP JUMPDEST PUSH1 0x60 DUP3 ADD MSTORE PUSH2 0x3DA8 DUP4 PUSH1 0x80 DUP5 ADD PUSH2 0x3F48 JUMP JUMPDEST PUSH1 0x80 DUP3 ADD MSTORE PUSH2 0x3DBA DUP4 PUSH1 0xA0 DUP5 ADD PUSH2 0x3C63 JUMP JUMPDEST PUSH1 0xA0 DUP3 ADD MSTORE PUSH2 0x3DCC DUP4 PUSH1 0xC0 DUP5 ADD PUSH2 0x3C63 JUMP JUMPDEST PUSH1 0xC0 DUP3 ADD MSTORE PUSH2 0x3DDE DUP4 PUSH1 0xE0 DUP5 ADD PUSH2 0x3C63 JUMP JUMPDEST PUSH1 0xE0 DUP3 ADD MSTORE PUSH2 0x100 PUSH2 0x3DF2 DUP5 DUP3 DUP6 ADD PUSH2 0x3C63 JUMP JUMPDEST SWAP1 DUP3 ADD MSTORE PUSH2 0x120 DUP3 DUP2 ADD CALLDATALOAD SWAP1 DUP3 ADD MSTORE PUSH2 0x140 PUSH2 0x3E10 DUP5 DUP3 DUP6 ADD PUSH2 0x3F53 JUMP JUMPDEST DUP2 DUP4 ADD MSTORE POP PUSH2 0x160 DUP1 DUP4 ADD CALLDATALOAD DUP2 DUP4 ADD MSTORE POP SWAP3 SWAP2 POP POP JUMP JUMPDEST PUSH1 0x0 PUSH2 0x140 DUP1 DUP4 DUP6 SUB SLT ISZERO PUSH2 0x3E3A JUMPI DUP2 DUP3 REVERT JUMPDEST PUSH2 0x3E43 DUP2 PUSH2 0x5226 JUMP JUMPDEST SWAP2 POP POP PUSH2 0x3E50 DUP4 DUP4 PUSH2 0x3C63 JUMP JUMPDEST DUP2 MSTORE PUSH2 0x3E5F DUP4 PUSH1 0x20 DUP5 ADD PUSH2 0x3C63 JUMP JUMPDEST PUSH1 0x20 DUP3 ADD MSTORE PUSH2 0x3E71 DUP4 PUSH1 0x40 DUP5 ADD PUSH2 0x3F48 JUMP JUMPDEST PUSH1 0x40 DUP3 ADD MSTORE PUSH2 0x3E83 DUP4 PUSH1 0x60 DUP5 ADD PUSH2 0x3F48 JUMP JUMPDEST PUSH1 0x60 DUP3 ADD MSTORE PUSH2 0x3E95 DUP4 PUSH1 0x80 DUP5 ADD PUSH2 0x3C63 JUMP JUMPDEST PUSH1 0x80 DUP3 ADD MSTORE PUSH2 0x3EA7 DUP4 PUSH1 0xA0 DUP5 ADD PUSH2 0x3C63 JUMP JUMPDEST PUSH1 0xA0 DUP3 ADD MSTORE PUSH2 0x3EB9 DUP4 PUSH1 0xC0 DUP5 ADD PUSH2 0x3C63 JUMP JUMPDEST PUSH1 0xC0 DUP3 ADD MSTORE PUSH1 0xE0 DUP3 ADD CALLDATALOAD PUSH1 0xE0 DUP3 ADD MSTORE PUSH2 0x100 PUSH2 0x3ED7 DUP5 DUP3 DUP6 ADD PUSH2 0x3F53 JUMP JUMPDEST DUP2 DUP4 ADD MSTORE POP PUSH2 0x120 DUP1 DUP4 ADD CALLDATALOAD DUP2 DUP4 ADD MSTORE POP SWAP3 SWAP2 POP POP JUMP JUMPDEST PUSH1 0x0 PUSH1 0x80 DUP3 DUP5 SUB SLT ISZERO PUSH2 0x3EFF JUMPI DUP1 DUP2 REVERT JUMPDEST PUSH2 0x3F09 PUSH1 0x80 PUSH2 0x5226 JUMP JUMPDEST SWAP1 POP DUP2 CALLDATALOAD PUSH1 0x4 DUP2 LT PUSH2 0x3F1A JUMPI PUSH1 0x0 DUP1 REVERT JUMPDEST DUP2 MSTORE PUSH2 0x3F29 DUP4 PUSH1 0x20 DUP5 ADD PUSH2 0x3F6B JUMP JUMPDEST PUSH1 0x20 DUP3 ADD MSTORE PUSH1 0x40 DUP3 ADD CALLDATALOAD PUSH1 0x40 DUP3 ADD MSTORE PUSH1 0x60 DUP3 ADD CALLDATALOAD PUSH1 0x60 DUP3 ADD MSTORE SWAP3 SWAP2 POP POP JUMP JUMPDEST DUP1 CALLDATALOAD PUSH2 0x1F91 DUP2 PUSH2 0x52DA JUMP JUMPDEST DUP1 CALLDATALOAD PUSH8 0xFFFFFFFFFFFFFFFF DUP2 AND DUP2 EQ PUSH2 0x1F91 JUMPI PUSH1 0x0 DUP1 REVERT JUMPDEST DUP1 CALLDATALOAD PUSH1 0xFF DUP2 AND DUP2 EQ PUSH2 0x1F91 JUMPI PUSH1 0x0 DUP1 REVERT JUMPDEST PUSH1 0x0 DUP1 PUSH1 0x40 DUP4 DUP6 SUB SLT ISZERO PUSH2 0x3F8E JUMPI DUP2 DUP3 REVERT JUMPDEST DUP3 CALLDATALOAD PUSH8 0xFFFFFFFFFFFFFFFF DUP2 GT ISZERO PUSH2 0x3FA4 JUMPI DUP3 DUP4 REVERT JUMPDEST DUP4 ADD PUSH1 0x1F DUP2 ADD DUP6 SGT PUSH2 0x3FB4 JUMPI DUP3 DUP4 REVERT JUMPDEST DUP1 CALLDATALOAD PUSH2 0x3FC2 PUSH2 0x3C8C DUP3 PUSH2 0x524D JUMP JUMPDEST DUP1 DUP3 DUP3 MSTORE PUSH1 0x20 DUP1 DUP4 ADD SWAP3 POP DUP1 DUP6 ADD DUP10 DUP3 DUP4 DUP8 MUL DUP9 ADD ADD GT ISZERO PUSH2 0x3FE2 JUMPI DUP8 DUP9 REVERT JUMPDEST DUP8 SWAP6 POP JUMPDEST DUP5 DUP7 LT ISZERO PUSH2 0x400D JUMPI DUP1 CALLDATALOAD PUSH2 0x3FF9 DUP2 PUSH2 0x52AA JUMP JUMPDEST DUP5 MSTORE PUSH1 0x1 SWAP6 SWAP1 SWAP6 ADD SWAP5 SWAP3 DUP2 ADD SWAP3 DUP2 ADD PUSH2 0x3FE6 JUMP JUMPDEST POP DUP2 SWAP7 POP PUSH2 0x401D DUP10 DUP3 DUP11 ADD PUSH2 0x3D2F JUMP JUMPDEST SWAP6 POP POP POP POP POP POP SWAP3 POP SWAP3 SWAP1 POP JUMP JUMPDEST PUSH1 0x0 DUP1 PUSH1 0x20 DUP4 DUP6 SUB SLT ISZERO PUSH2 0x403D JUMPI DUP2 DUP3 REVERT JUMPDEST DUP3 CALLDATALOAD PUSH8 0xFFFFFFFFFFFFFFFF DUP1 DUP3 GT ISZERO PUSH2 0x4054 JUMPI DUP4 DUP5 REVERT JUMPDEST DUP2 DUP6 ADD SWAP2 POP DUP6 PUSH1 0x1F DUP4 ADD SLT PUSH2 0x4067 JUMPI DUP4 DUP5 REVERT JUMPDEST DUP2 CALLDATALOAD DUP2 DUP2 GT ISZERO PUSH2 0x4075 JUMPI DUP5 DUP6 REVERT JUMPDEST DUP7 PUSH1 0x20 DUP1 DUP4 MUL DUP6 ADD ADD GT ISZERO PUSH2 0x4088 JUMPI DUP5 DUP6 REVERT JUMPDEST PUSH1 0x20 SWAP3 SWAP1 SWAP3 ADD SWAP7 SWAP2 SWAP6 POP SWAP1 SWAP4 POP POP POP POP JUMP JUMPDEST PUSH1 0x0 DUP1 PUSH1 0x0 PUSH1 0x60 DUP5 DUP7 SUB SLT ISZERO PUSH2 0x40AE JUMPI DUP1 DUP2 REVERT JUMPDEST DUP4 CALLDATALOAD PUSH8 0xFFFFFFFFFFFFFFFF DUP1 DUP3 GT ISZERO PUSH2 0x40C5 JUMPI DUP3 DUP4 REVERT JUMPDEST PUSH2 0x40D1 DUP8 DUP4 DUP9 ADD PUSH2 0x3C6E JUMP JUMPDEST SWAP5 POP PUSH1 0x20 SWAP2 POP DUP2 DUP7 ADD CALLDATALOAD DUP2 DUP2 GT ISZERO PUSH2 0x40E7 JUMPI DUP4 DUP5 REVERT JUMPDEST PUSH2 0x40F3 DUP9 DUP3 DUP10 ADD PUSH2 0x3C6E JUMP JUMPDEST SWAP5 POP POP PUSH1 0x40 DUP7 ADD CALLDATALOAD DUP2 DUP2 GT ISZERO PUSH2 0x4107 JUMPI DUP4 DUP5 REVERT JUMPDEST DUP7 ADD SWAP1 POP PUSH1 0x1F DUP2 ADD DUP8 SGT PUSH2 0x4119 JUMPI DUP3 DUP4 REVERT JUMPDEST DUP1 CALLDATALOAD PUSH2 0x4127 PUSH2 0x3C8C DUP3 PUSH2 0x524D JUMP JUMPDEST DUP2 DUP2 MSTORE DUP4 DUP2 ADD SWAP1 DUP4 DUP6 ADD DUP6 DUP5 MUL DUP6 ADD DUP7 ADD DUP12 LT ISZERO PUSH2 0x4143 JUMPI DUP7 DUP8 REVERT JUMPDEST DUP7 SWAP5 POP JUMPDEST DUP4 DUP6 LT ISZERO PUSH2 0x4165 JUMPI DUP1 CALLDATALOAD DUP4 MSTORE PUSH1 0x1 SWAP5 SWAP1 SWAP5 ADD SWAP4 SWAP2 DUP6 ADD SWAP2 DUP6 ADD PUSH2 0x4147 JUMP JUMPDEST POP DUP1 SWAP6 POP POP POP POP POP POP SWAP3 POP SWAP3 POP SWAP3 JUMP JUMPDEST PUSH1 0x0 DUP1 PUSH1 0x0 DUP1 PUSH1 0x40 DUP6 DUP8 SUB SLT ISZERO PUSH2 0x418A JUMPI DUP2 DUP3 REVERT JUMPDEST DUP5 CALLDATALOAD PUSH8 0xFFFFFFFFFFFFFFFF DUP1 DUP3 GT ISZERO PUSH2 0x41A1 JUMPI DUP4 DUP5 REVERT JUMPDEST DUP2 DUP8 ADD SWAP2 POP DUP8 PUSH1 0x1F DUP4 ADD SLT PUSH2 0x41B4 JUMPI DUP4 DUP5 REVERT JUMPDEST DUP2 CALLDATALOAD DUP2 DUP2 GT ISZERO PUSH2 0x41C2 JUMPI DUP5 DUP6 REVERT JUMPDEST DUP9 PUSH1 0x20 PUSH2 0x180 DUP4 MUL DUP6 ADD ADD GT ISZERO PUSH2 0x41D7 JUMPI DUP5 DUP6 REVERT JUMPDEST PUSH1 0x20 SWAP3 DUP4 ADD SWAP7 POP SWAP5 POP SWAP1 DUP7 ADD CALLDATALOAD SWAP1 DUP1 DUP3 GT ISZERO PUSH2 0x41F1 JUMPI DUP4 DUP5 REVERT JUMPDEST POP PUSH2 0x41FE DUP8 DUP3 DUP9 ADD PUSH2 0x3CE5 JUMP JUMPDEST SWAP6 SWAP9 SWAP5 SWAP8 POP SWAP6 POP POP POP POP JUMP JUMPDEST PUSH1 0x0 PUSH1 0x20 DUP1 DUP4 DUP6 SUB SLT ISZERO PUSH2 0x421C JUMPI DUP2 DUP3 REVERT JUMPDEST DUP3 CALLDATALOAD PUSH8 0xFFFFFFFFFFFFFFFF DUP2 GT ISZERO PUSH2 0x4232 JUMPI DUP3 DUP4 REVERT JUMPDEST DUP4 ADD PUSH1 0x1F DUP2 ADD DUP6 SGT PUSH2 0x4242 JUMPI DUP3 DUP4 REVERT JUMPDEST DUP1 CALLDATALOAD PUSH2 0x4250 PUSH2 0x3C8C DUP3 PUSH2 0x524D JUMP JUMPDEST DUP2 DUP2 MSTORE DUP4 DUP2 ADD SWAP1 DUP4 DUP6 ADD PUSH2 0x180 DUP1 DUP6 MUL DUP7 ADD DUP8 ADD DUP11 LT ISZERO PUSH2 0x426F JUMPI DUP8 DUP9 REVERT JUMPDEST DUP8 SWAP6 POP JUMPDEST DUP5 DUP7 LT ISZERO PUSH2 0x429B JUMPI PUSH2 0x4285 DUP11 DUP4 PUSH2 0x3D3A JUMP JUMPDEST DUP5 MSTORE PUSH1 0x1 SWAP6 SWAP1 SWAP6 ADD SWAP5 SWAP3 DUP7 ADD SWAP3 SWAP1 DUP2 ADD SWAP1 PUSH2 0x4273 JUMP JUMPDEST POP SWAP1 SWAP9 SWAP8 POP POP POP POP POP POP POP POP JUMP JUMPDEST PUSH1 0x0 DUP1 PUSH1 0x0 DUP1 PUSH1 0x40 DUP6 DUP8 SUB SLT ISZERO PUSH2 0x42BE JUMPI DUP2 DUP3 REVERT JUMPDEST DUP5 CALLDATALOAD PUSH8 0xFFFFFFFFFFFFFFFF DUP1 DUP3 GT ISZERO PUSH2 0x42D5 JUMPI DUP4 DUP5 REVERT JUMPDEST DUP2 DUP8 ADD SWAP2 POP DUP8 PUSH1 0x1F DUP4 ADD SLT PUSH2 0x42E8 JUMPI DUP4 DUP5 REVERT JUMPDEST DUP2 CALLDATALOAD DUP2 DUP2 GT ISZERO PUSH2 0x42F6 JUMPI DUP5 DUP6 REVERT JUMPDEST DUP9 PUSH1 0x20 PUSH2 0x140 DUP4 MUL DUP6 ADD ADD GT ISZERO PUSH2 0x41D7 JUMPI DUP5 DUP6 REVERT JUMPDEST PUSH1 0x0 PUSH1 0x20 DUP1 DUP4 DUP6 SUB SLT ISZERO PUSH2 0x431D JUMPI DUP2 DUP3 REVERT JUMPDEST DUP3 CALLDATALOAD PUSH8 0xFFFFFFFFFFFFFFFF DUP2 GT ISZERO PUSH2 0x4333 JUMPI DUP3 DUP4 REVERT JUMPDEST DUP4 ADD PUSH1 0x1F DUP2 ADD DUP6 SGT PUSH2 0x4343 JUMPI DUP3 DUP4 REVERT JUMPDEST DUP1 CALLDATALOAD PUSH2 0x4351 PUSH2 0x3C8C DUP3 PUSH2 0x524D JUMP JUMPDEST DUP2 DUP2 MSTORE DUP4 DUP2 ADD SWAP1 DUP4 DUP6 ADD PUSH2 0x140 DUP1 DUP6 MUL DUP7 ADD DUP8 ADD DUP11 LT ISZERO PUSH2 0x4370 JUMPI DUP8 DUP9 REVERT JUMPDEST DUP8 SWAP6 POP JUMPDEST DUP5 DUP7 LT ISZERO PUSH2 0x429B JUMPI PUSH2 0x4386 DUP11 DUP4 PUSH2 0x3E27 JUMP JUMPDEST DUP5 MSTORE PUSH1 0x1 SWAP6 SWAP1 SWAP6 ADD SWAP5 SWAP3 DUP7 ADD SWAP3 SWAP1 DUP2 ADD SWAP1 PUSH2 0x4374 JUMP JUMPDEST PUSH1 0x0 PUSH1 0x20 DUP3 DUP5 SUB SLT ISZERO PUSH2 0x43AD JUMPI DUP1 DUP2 REVERT JUMPDEST DUP2 MLOAD PUSH2 0x1E39 DUP2 PUSH2 0x52AA JUMP JUMPDEST PUSH1 0x0 DUP1 PUSH1 0x0 PUSH1 0x60 DUP5 DUP7 SUB SLT ISZERO PUSH2 0x43CC JUMPI DUP1 DUP2 REVERT JUMPDEST DUP4 CALLDATALOAD PUSH2 0x43D7 DUP2 PUSH2 0x52AA JUMP JUMPDEST SWAP3 POP PUSH1 0x20 DUP5 ADD CALLDATALOAD PUSH2 0x43E7 DUP2 PUSH2 0x52AA JUMP JUMPDEST SWAP3 SWAP6 SWAP3 SWAP5 POP POP POP PUSH1 0x40 SWAP2 SWAP1 SWAP2 ADD CALLDATALOAD SWAP1 JUMP JUMPDEST PUSH1 0x0 PUSH2 0x180 DUP3 DUP5 SUB SLT ISZERO PUSH2 0x440A JUMPI DUP1 DUP2 REVERT JUMPDEST PUSH2 0x1E39 DUP4 DUP4 PUSH2 0x3D3A JUMP JUMPDEST PUSH1 0x0 DUP1 DUP3 DUP5 SUB PUSH2 0x200 DUP2 SLT ISZERO PUSH2 0x4428 JUMPI DUP3 DUP4 REVERT JUMPDEST PUSH2 0x4432 DUP6 DUP6 PUSH2 0x3D3A JUMP JUMPDEST SWAP3 POP PUSH1 0x80 PUSH32 0xFFFFFFFFFFFFFFFFFFFFFFFFFFFFFFFFFFFFFFFFFFFFFFFFFFFFFFFFFFFFFE80 DUP3 ADD SLT ISZERO PUSH2 0x4463 JUMPI DUP2 DUP3 REVERT JUMPDEST POP PUSH2 0x180 DUP4 ADD SWAP1 POP SWAP3 POP SWAP3 SWAP1 POP JUMP JUMPDEST PUSH1 0x0 DUP1 PUSH1 0x0 PUSH2 0x220 DUP5 DUP7 SUB SLT ISZERO PUSH2 0x4487 JUMPI DUP1 DUP2 REVERT JUMPDEST PUSH2 0x4491 DUP6 DUP6 PUSH2 0x3D3A JUMP JUMPDEST SWAP3 POP PUSH2 0x44A1 DUP6 PUSH2 0x180 DUP7 ADD PUSH2 0x3EEE JUMP JUMPDEST SWAP2 POP PUSH2 0x200 DUP5 ADD CALLDATALOAD PUSH2 0x44B2 DUP2 PUSH2 0x52DA JUMP JUMPDEST DUP1 SWAP2 POP POP SWAP3 POP SWAP3 POP SWAP3 JUMP JUMPDEST PUSH1 0x0 DUP1 PUSH1 0x0 DUP1 PUSH1 0x0 PUSH2 0x260 DUP7 DUP9 SUB SLT ISZERO PUSH2 0x44D5 JUMPI DUP3 DUP4 REVERT JUMPDEST PUSH2 0x44DF DUP8 DUP8 PUSH2 0x3D3A JUMP JUMPDEST SWAP5 POP PUSH2 0x44EF DUP8 PUSH2 0x180 DUP9 ADD PUSH2 0x3EEE JUMP JUMPDEST SWAP4 POP PUSH2 0x200 DUP7 ADD CALLDATALOAD PUSH2 0x4500 DUP2 PUSH2 0x52DA JUMP JUMPDEST SWAP3 POP PUSH2 0x220 DUP7 ADD CALLDATALOAD PUSH2 0x4511 DUP2 PUSH2 0x52AA JUMP JUMPDEST SWAP2 POP PUSH2 0x240 DUP7 ADD CALLDATALOAD PUSH2 0x4522 DUP2 PUSH2 0x52AA JUMP JUMPDEST DUP1 SWAP2 POP POP SWAP3 SWAP6 POP SWAP3 SWAP6 SWAP1 SWAP4 POP JUMP JUMPDEST PUSH1 0x0 DUP1 PUSH1 0x0 DUP4 DUP6 SUB PUSH1 0xA0 DUP2 SLT ISZERO PUSH2 0x4545 JUMPI DUP2 DUP3 REVERT JUMPDEST PUSH1 0x60 DUP2 SLT ISZERO PUSH2 0x4552 JUMPI DUP2 DUP3 REVERT JUMPDEST POP PUSH2 0x455D PUSH1 0x60 PUSH2 0x5226 JUMP JUMPDEST DUP5 MLOAD DUP2 MSTORE PUSH1 0x20 DUP6 ADD MLOAD PUSH1 0x5 DUP2 LT PUSH2 0x4572 JUMPI DUP3 DUP4 REVERT JUMPDEST PUSH1 0x20 DUP3 ADD MSTORE PUSH1 0x40 DUP6 ADD MLOAD PUSH2 0x4585 DUP2 PUSH2 0x52DA JUMP JUMPDEST PUSH1 0x40 DUP3 ADD MSTORE PUSH1 0x60 DUP6 ADD MLOAD SWAP1 SWAP4 POP PUSH2 0x459B DUP2 PUSH2 0x52DA JUMP JUMPDEST PUSH1 0x80 DUP6 ADD MLOAD SWAP1 SWAP3 POP PUSH2 0x44B2 DUP2 PUSH2 0x52CC JUMP JUMPDEST PUSH1 0x0 PUSH2 0x140 DUP3 DUP5 SUB SLT ISZERO PUSH2 0x45BE JUMPI DUP1 DUP2 REVERT JUMPDEST PUSH2 0x1E39 DUP4 DUP4 PUSH2 0x3E27 JUMP JUMPDEST PUSH1 0x0 DUP1 PUSH2 0x1C0 DUP4 DUP6 SUB SLT ISZERO PUSH2 0x45DB JUMPI DUP2 DUP3 REVERT JUMPDEST PUSH2 0x45E5 DUP5 DUP5 PUSH2 0x3E27 JUMP JUMPDEST SWAP2 POP PUSH2 0x45F5 DUP5 PUSH2 0x140 DUP6 ADD PUSH2 0x3EEE JUMP JUMPDEST SWAP1 POP SWAP3 POP SWAP3 SWAP1 POP JUMP JUMPDEST PUSH1 0x0 DUP1 PUSH1 0x0 PUSH2 0x1E0 DUP5 DUP7 SUB SLT ISZERO PUSH2 0x4613 JUMPI DUP1 DUP2 REVERT JUMPDEST PUSH2 0x461D DUP6 DUP6 PUSH2 0x3E27 JUMP JUMPDEST SWAP3 POP PUSH2 0x462D DUP6 PUSH2 0x140 DUP7 ADD PUSH2 0x3EEE JUMP JUMPDEST SWAP2 POP PUSH2 0x1C0 DUP5 ADD CALLDATALOAD PUSH2 0x44B2 DUP2 PUSH2 0x52DA JUMP JUMPDEST PUSH1 0x0 DUP1 PUSH1 0x0 DUP1 PUSH2 0x200 DUP6 DUP8 SUB SLT ISZERO PUSH2 0x4654 JUMPI DUP2 DUP3 REVERT JUMPDEST PUSH2 0x465E DUP7 DUP7 PUSH2 0x3E27 JUMP JUMPDEST SWAP4 POP PUSH2 0x466E DUP7 PUSH2 0x140 DUP8 ADD PUSH2 0x3EEE JUMP JUMPDEST SWAP3 POP PUSH2 0x1C0 DUP6 ADD CALLDATALOAD PUSH2 0x467F DUP2 PUSH2 0x52DA JUMP JUMPDEST SWAP2 POP PUSH2 0x1E0 DUP6 ADD CALLDATALOAD PUSH2 0x4690 DUP2 PUSH2 0x52AA JUMP JUMPDEST SWAP4 SWAP7 SWAP3 SWAP6 POP SWAP1 SWAP4 POP POP JUMP JUMPDEST PUSH1 0x0 PUSH1 0x80 DUP3 DUP5 SUB SLT ISZERO PUSH2 0x46AC JUMPI DUP1 DUP2 REVERT JUMPDEST PUSH2 0x1E39 DUP4 DUP4 PUSH2 0x3EEE JUMP JUMPDEST PUSH1 0x0 PUSH1 0x20 DUP3 DUP5 SUB SLT ISZERO PUSH2 0x46C7 JUMPI DUP1 DUP2 REVERT JUMPDEST POP MLOAD SWAP2 SWAP1 POP JUMP JUMPDEST PUSH1 0x0 PUSH2 0x46DA DUP4 DUP4 PUSH2 0x47BB JUMP JUMPDEST POP POP PUSH1 0x60 ADD SWAP1 JUMP JUMPDEST PUSH16 0xFFFFFFFFFFFFFFFFFFFFFFFFFFFFFFFF AND DUP2 MSTORE PUSH1 0x20 ADD SWAP1 JUMP JUMPDEST PUSH20 0xFFFFFFFFFFFFFFFFFFFFFFFFFFFFFFFFFFFFFFFF AND SWAP1 MSTORE JUMP JUMPDEST PUSH1 0x0 DUP2 MLOAD DUP1 DUP5 MSTORE PUSH1 0x20 DUP1 DUP6 ADD SWAP5 POP DUP1 DUP5 ADD DUP4 JUMPDEST DUP4 DUP2 LT ISZERO PUSH2 0x4747 JUMPI DUP2 MLOAD ISZERO ISZERO DUP8 MSTORE SWAP6 DUP3 ADD SWAP6 SWAP1 DUP3 ADD SWAP1 PUSH1 0x1 ADD PUSH2 0x4729 JUMP JUMPDEST POP SWAP5 SWAP6 SWAP5 POP POP POP POP POP JUMP JUMPDEST PUSH1 0x0 DUP2 MLOAD DUP1 DUP5 MSTORE DUP2 JUMPDEST DUP2 DUP2 LT ISZERO PUSH2 0x4777 JUMPI PUSH1 0x20 DUP2 DUP6 ADD DUP2 ADD MLOAD DUP7 DUP4 ADD DUP3 ADD MSTORE ADD PUSH2 0x475B JUMP JUMPDEST DUP2 DUP2 GT ISZERO PUSH2 0x4788 JUMPI DUP3 PUSH1 0x20 DUP4 DUP8 ADD ADD MSTORE JUMPDEST POP PUSH1 0x1F ADD PUSH32 0xFFFFFFFFFFFFFFFFFFFFFFFFFFFFFFFFFFFFFFFFFFFFFFFFFFFFFFFFFFFFFFE0 AND SWAP3 SWAP1 SWAP3 ADD PUSH1 0x20 ADD SWAP3 SWAP2 POP POP JUMP JUMPDEST DUP1 MLOAD DUP3 MSTORE PUSH1 0x20 DUP2 ADD MLOAD PUSH1 0x5 DUP2 LT PUSH2 0x47CE JUMPI INVALID JUMPDEST PUSH1 0x20 DUP4 ADD MSTORE PUSH1 0x40 SWAP1 DUP2 ADD MLOAD PUSH16 0xFFFFFFFFFFFFFFFFFFFFFFFFFFFFFFFF AND SWAP2 ADD MSTORE JUMP JUMPDEST DUP1 CALLDATALOAD PUSH1 0x4 DUP2 LT PUSH2 0x47FF JUMPI PUSH1 0x0 DUP1 REVERT JUMPDEST PUSH2 0x4808 DUP2 PUSH2 0x52A0 JUMP JUMPDEST DUP3 MSTORE PUSH1 0x40 DUP2 ADD PUSH1 0xFF PUSH2 0x481D DUP3 PUSH1 0x20 DUP6 ADD PUSH2 0x3F6B JUMP JUMPDEST AND PUSH1 0x20 DUP5 ADD MSTORE CALLDATALOAD PUSH1 0x40 DUP4 ADD MSTORE PUSH1 0x60 SWAP1 DUP2 ADD CALLDATALOAD SWAP2 ADD MSTORE JUMP JUMPDEST PUSH16 0xFFFFFFFFFFFFFFFFFFFFFFFFFFFFFFFF AND SWAP1 MSTORE JUMP JUMPDEST PUSH8 0xFFFFFFFFFFFFFFFF AND SWAP1 MSTORE JUMP JUMPDEST PUSH32 0xFF00000000000000000000000000000000000000000000000000000000000000 SWAP5 SWAP1 SWAP5 AND DUP5 MSTORE PUSH1 0x60 SWAP3 SWAP1 SWAP3 SHL PUSH32 0xFFFFFFFFFFFFFFFFFFFFFFFFFFFFFFFFFFFFFFFF000000000000000000000000 AND PUSH1 0x1 DUP5 ADD MSTORE PUSH1 0x15 DUP4 ADD MSTORE PUSH1 0x35 DUP3 ADD MSTORE PUSH1 0x55 ADD SWAP1 JUMP JUMPDEST PUSH32 0x1901000000000000000000000000000000000000000000000000000000000000 DUP2 MSTORE PUSH1 0x2 DUP2 ADD SWAP3 SWAP1 SWAP3 MSTORE PUSH1 0x22 DUP3 ADD MSTORE PUSH1 0x42 ADD SWAP1 JUMP JUMPDEST SWAP1 JUMP JUMPDEST PUSH20 0xFFFFFFFFFFFFFFFFFFFFFFFFFFFFFFFFFFFFFFFF SWAP2 SWAP1 SWAP2 AND DUP2 MSTORE PUSH1 0x20 ADD SWAP1 JUMP JUMPDEST PUSH20 0xFFFFFFFFFFFFFFFFFFFFFFFFFFFFFFFFFFFFFFFF SWAP4 DUP5 AND DUP2 MSTORE SWAP2 SWAP1 SWAP3 AND PUSH1 0x20 DUP3 ADD MSTORE PUSH1 0x40 DUP2 ADD SWAP2 SWAP1 SWAP2 MSTORE PUSH1 0x60 ADD SWAP1 JUMP JUMPDEST PUSH20 0xFFFFFFFFFFFFFFFFFFFFFFFFFFFFFFFFFFFFFFFF SWAP5 DUP6 AND DUP2 MSTORE SWAP3 DUP5 AND PUSH1 0x20 DUP5 ADD MSTORE SWAP3 AND PUSH1 0x40 DUP3 ADD MSTORE PUSH1 0x60 DUP2 ADD SWAP2 SWAP1 SWAP2 MSTORE PUSH1 0x80 ADD SWAP1 JUMP JUMPDEST PUSH1 0x0 PUSH1 0x60 DUP3 ADD PUSH20 0xFFFFFFFFFFFFFFFFFFFFFFFFFFFFFFFFFFFFFFFF DUP1 DUP8 AND DUP5 MSTORE PUSH1 0x20 PUSH1 0x60 DUP2 DUP7 ADD MSTORE DUP3 DUP8 MLOAD DUP1 DUP6 MSTORE PUSH1 0x80 DUP8 ADD SWAP2 POP DUP3 DUP10 ADD SWAP5 POP DUP6 JUMPDEST DUP2 DUP2 LT ISZERO PUSH2 0x49D7 JUMPI DUP6 MLOAD DUP6 AND DUP4 MSTORE SWAP5 DUP4 ADD SWAP5 SWAP2 DUP4 ADD SWAP2 PUSH1 0x1 ADD PUSH2 0x49B9 JUMP JUMPDEST POP POP DUP1 SWAP5 POP POP POP POP POP DUP3 ISZERO ISZERO PUSH1 0x40 DUP4 ADD MSTORE SWAP5 SWAP4 POP POP POP POP JUMP JUMPDEST PUSH20 0xFFFFFFFFFFFFFFFFFFFFFFFFFFFFFFFFFFFFFFFF SWAP3 DUP4 AND DUP2 MSTORE SWAP2 AND PUSH1 0x20 DUP3 ADD MSTORE PUSH1 0x40 ADD SWAP1 JUMP JUMPDEST PUSH1 0x0 PUSH20 0xFFFFFFFFFFFFFFFFFFFFFFFFFFFFFFFFFFFFFFFF DUP1 DUP9 AND DUP4 MSTORE DUP1 DUP8 AND PUSH1 0x20 DUP5 ADD MSTORE DUP1 DUP7 AND PUSH1 0x40 DUP5 ADD MSTORE POP DUP4 PUSH1 0x60 DUP4 ADD MSTORE PUSH1 0xA0 PUSH1 0x80 DUP4 ADD MSTORE PUSH2 0x4A5E PUSH1 0xA0 DUP4 ADD DUP5 PUSH2 0x4752 JUMP JUMPDEST SWAP8 SWAP7 POP POP POP POP POP POP POP JUMP JUMPDEST PUSH20 0xFFFFFFFFFFFFFFFFFFFFFFFFFFFFFFFFFFFFFFFF SWAP3 SWAP1 SWAP3 AND DUP3 MSTORE PUSH1 0x20 DUP3 ADD MSTORE PUSH1 0x40 ADD SWAP1 JUMP JUMPDEST PUSH1 0x0 PUSH1 0x60 DUP3 ADD PUSH1 0x60 DUP4 MSTORE DUP1 DUP7 MLOAD PUSH2 0x4AA6 DUP2 DUP5 PUSH2 0x4B33 JUMP JUMPDEST SWAP2 POP PUSH1 0x20 SWAP3 POP DUP3 DUP9 ADD DUP5 JUMPDEST DUP3 DUP2 LT ISZERO PUSH2 0x4AD2 JUMPI PUSH2 0x4AC4 DUP5 DUP4 MLOAD PUSH2 0x46CE JUMP JUMPDEST SWAP4 POP SWAP1 DUP5 ADD SWAP1 PUSH1 0x1 ADD PUSH2 0x4AB1 JUMP JUMPDEST POP POP POP DUP4 DUP2 SUB DUP3 DUP6 ADD MSTORE DUP1 DUP7 MLOAD PUSH2 0x4AE9 DUP2 DUP5 PUSH2 0x4B33 JUMP JUMPDEST SWAP2 POP DUP4 DUP9 ADD SWAP3 POP DUP5 JUMPDEST DUP2 DUP2 LT ISZERO PUSH2 0x4B13 JUMPI PUSH2 0x4B05 DUP4 DUP6 MLOAD PUSH2 0x46E2 JUMP JUMPDEST SWAP4 DUP6 ADD SWAP4 SWAP3 POP PUSH1 0x1 ADD PUSH2 0x4AF2 JUMP JUMPDEST POP POP DUP5 DUP2 SUB PUSH1 0x40 DUP7 ADD MSTORE PUSH2 0x4B27 DUP2 DUP8 PUSH2 0x4716 JUMP JUMPDEST SWAP9 SWAP8 POP POP POP POP POP POP POP POP JUMP JUMPDEST SWAP1 DUP2 MSTORE PUSH1 0x20 ADD SWAP1 JUMP JUMPDEST SWAP2 DUP3 MSTORE PUSH20 0xFFFFFFFFFFFFFFFFFFFFFFFFFFFFFFFFFFFFFFFF AND PUSH1 0x20 DUP3 ADD MSTORE PUSH1 0x40 ADD SWAP1 JUMP JUMPDEST SWAP3 DUP4 MSTORE PUSH20 0xFFFFFFFFFFFFFFFFFFFFFFFFFFFFFFFFFFFFFFFF SWAP2 DUP3 AND PUSH1 0x20 DUP5 ADD MSTORE AND PUSH1 0x40 DUP3 ADD MSTORE PUSH1 0x60 ADD SWAP1 JUMP JUMPDEST SWAP11 DUP12 MSTORE PUSH20 0xFFFFFFFFFFFFFFFFFFFFFFFFFFFFFFFFFFFFFFFF SWAP10 DUP11 AND PUSH1 0x20 DUP13 ADD MSTORE SWAP8 DUP10 AND PUSH1 0x40 DUP12 ADD MSTORE SWAP6 DUP9 AND PUSH1 0x60 DUP11 ADD MSTORE SWAP4 DUP8 AND PUSH1 0x80 DUP10 ADD MSTORE SWAP2 SWAP1 SWAP6 AND PUSH1 0xA0 DUP8 ADD MSTORE PUSH16 0xFFFFFFFFFFFFFFFFFFFFFFFFFFFFFFFF SWAP5 DUP6 AND PUSH1 0xC0 DUP8 ADD MSTORE DUP5 AND PUSH1 0xE0 DUP7 ADD MSTORE SWAP1 SWAP3 AND PUSH2 0x100 DUP5 ADD MSTORE PUSH2 0x120 DUP4 ADD SWAP2 SWAP1 SWAP2 MSTORE PUSH2 0x140 DUP3 ADD MSTORE PUSH2 0x160 ADD SWAP1 JUMP JUMPDEST SWAP8 DUP9 MSTORE PUSH20 0xFFFFFFFFFFFFFFFFFFFFFFFFFFFFFFFFFFFFFFFF SWAP7 DUP8 AND PUSH1 0x20 DUP10 ADD MSTORE SWAP5 DUP7 AND PUSH1 0x40 DUP9 ADD MSTORE SWAP3 DUP6 AND PUSH1 0x60 DUP8 ADD MSTORE SWAP4 AND PUSH1 0x80 DUP6 ADD MSTORE PUSH16 0xFFFFFFFFFFFFFFFFFFFFFFFFFFFFFFFF SWAP3 DUP4 AND PUSH1 0xA0 DUP6 ADD MSTORE SWAP1 SWAP2 AND PUSH1 0xC0 DUP4 ADD MSTORE PUSH1 0xE0 DUP3 ADD MSTORE PUSH2 0x100 ADD SWAP1 JUMP JUMPDEST SWAP3 DUP4 MSTORE PUSH1 0x20 DUP4 ADD SWAP2 SWAP1 SWAP2 MSTORE PUSH1 0x40 DUP3 ADD MSTORE PUSH1 0x60 ADD SWAP1 JUMP JUMPDEST SWAP2 DUP3 MSTORE PUSH1 0xFF AND PUSH1 0x20 DUP3 ADD MSTORE PUSH1 0x40 ADD SWAP1 JUMP JUMPDEST SWAP4 DUP5 MSTORE PUSH1 0xFF SWAP3 SWAP1 SWAP3 AND PUSH1 0x20 DUP5 ADD MSTORE PUSH1 0x40 DUP4 ADD MSTORE PUSH1 0x60 DUP3 ADD MSTORE PUSH1 0x80 ADD SWAP1 JUMP JUMPDEST PUSH32 0xFFFFFFFF00000000000000000000000000000000000000000000000000000000 SWAP2 SWAP1 SWAP2 AND DUP2 MSTORE PUSH1 0x20 ADD SWAP1 JUMP JUMPDEST PUSH32 0xFFFFFFFF00000000000000000000000000000000000000000000000000000000 SWAP3 SWAP1 SWAP3 AND DUP3 MSTORE PUSH20 0xFFFFFFFFFFFFFFFFFFFFFFFFFFFFFFFFFFFFFFFF AND PUSH1 0x20 DUP3 ADD MSTORE PUSH1 0x40 ADD SWAP1 JUMP JUMPDEST PUSH1 0x60 DUP2 ADD PUSH1 0x4 DUP6 LT PUSH2 0x4D38 JUMPI INVALID JUMPDEST SWAP4 DUP2 MSTORE PUSH1 0x20 DUP2 ADD SWAP3 SWAP1 SWAP3 MSTORE PUSH1 0x40 SWAP1 SWAP2 ADD MSTORE SWAP1 JUMP JUMPDEST PUSH1 0x40 DUP2 ADD PUSH2 0x4D59 DUP5 PUSH2 0x52A0 JUMP JUMPDEST SWAP3 DUP2 MSTORE PUSH1 0x20 ADD MSTORE SWAP1 JUMP JUMPDEST PUSH1 0x40 DUP2 ADD PUSH1 0x6 DUP5 LT PUSH2 0x4D59 JUMPI INVALID JUMPDEST PUSH1 0x0 PUSH1 0x20 DUP3 MSTORE PUSH2 0x1E39 PUSH1 0x20 DUP4 ADD DUP5 PUSH2 0x4752 JUMP JUMPDEST PUSH1 0x20 DUP1 DUP3 MSTORE PUSH1 0x2C SWAP1 DUP3 ADD MSTORE PUSH32 0x4E61746976654F7264657273466561747572652F4D49534D4154434845445F41 PUSH1 0x40 DUP3 ADD MSTORE PUSH32 0x525241595F4C454E475448530000000000000000000000000000000000000000 PUSH1 0x60 DUP3 ADD MSTORE PUSH1 0x80 ADD SWAP1 JUMP JUMPDEST PUSH1 0x20 DUP1 DUP3 MSTORE PUSH1 0x27 SWAP1 DUP3 ADD MSTORE PUSH32 0x4E61746976654F7264657273466561747572652F4E4F5F434F4E54524143545F PUSH1 0x40 DUP3 ADD MSTORE PUSH32 0x4F524947494E5300000000000000000000000000000000000000000000000000 PUSH1 0x60 DUP3 ADD MSTORE PUSH1 0x80 ADD SWAP1 JUMP JUMPDEST PUSH1 0x20 DUP1 DUP3 MSTORE PUSH1 0x38 SWAP1 DUP3 ADD MSTORE PUSH32 0x4E61746976654F7264657273466561747572652F4D49534D4154434845445F50 PUSH1 0x40 DUP3 ADD MSTORE PUSH32 0x4149525F4F52444552535F41525241595F4C454E475448530000000000000000 PUSH1 0x60 DUP3 ADD MSTORE PUSH1 0x80 ADD SWAP1 JUMP JUMPDEST PUSH1 0x20 DUP1 DUP3 MSTORE PUSH1 0x24 SWAP1 DUP3 ADD MSTORE PUSH32 0x466978696E546F6B656E5370656E6465722F43414E4E4F545F494E564F4B455F PUSH1 0x40 DUP3 ADD MSTORE PUSH32 0x53454C4600000000000000000000000000000000000000000000000000000000 PUSH1 0x60 DUP3 ADD MSTORE PUSH1 0x80 ADD SWAP1 JUMP JUMPDEST PUSH1 0x20 DUP1 DUP3 MSTORE PUSH1 0x27 SWAP1 DUP3 ADD MSTORE PUSH32 0x466978696E50726F746F636F6C466565732F45544845525F5452414E53464552 PUSH1 0x40 DUP3 ADD MSTORE PUSH32 0x5F46414C49454400000000000000000000000000000000000000000000000000 PUSH1 0x60 DUP3 ADD MSTORE PUSH1 0x80 ADD SWAP1 JUMP JUMPDEST PUSH2 0x200 DUP2 ADD PUSH1 0x20 DUP5 ADD PUSH2 0x4F71 DUP4 PUSH2 0x4F6C DUP4 DUP9 PUSH2 0x3C63 JUMP JUMPDEST PUSH2 0x46FC JUMP JUMPDEST PUSH2 0x4F7B DUP2 DUP7 PUSH2 0x526D JUMP JUMPDEST SWAP1 POP PUSH2 0x4F8A PUSH1 0x20 DUP5 ADD DUP3 PUSH2 0x46FC JUMP JUMPDEST POP PUSH2 0x4F98 PUSH1 0x40 DUP6 ADD DUP6 PUSH2 0x527A JUMP JUMPDEST PUSH2 0x4FA5 PUSH1 0x40 DUP5 ADD DUP3 PUSH2 0x4834 JUMP JUMPDEST POP PUSH2 0x4FB3 PUSH1 0x60 DUP6 ADD DUP6 PUSH2 0x527A JUMP JUMPDEST PUSH2 0x4FC0 PUSH1 0x60 DUP5 ADD DUP3 PUSH2 0x4834 JUMP JUMPDEST POP PUSH2 0x4FCE PUSH1 0x80 DUP6 ADD DUP6 PUSH2 0x527A JUMP JUMPDEST PUSH2 0x4FDB PUSH1 0x80 DUP5 ADD DUP3 PUSH2 0x4834 JUMP JUMPDEST POP PUSH2 0x4FE9 PUSH1 0xA0 DUP6 ADD DUP6 PUSH2 0x526D JUMP JUMPDEST PUSH2 0x4FF6 PUSH1 0xA0 DUP5 ADD DUP3 PUSH2 0x46FC JUMP JUMPDEST POP PUSH2 0x5004 PUSH1 0xC0 DUP6 ADD DUP6 PUSH2 0x526D JUMP JUMPDEST PUSH2 0x5011 PUSH1 0xC0 DUP5 ADD DUP3 PUSH2 0x46FC JUMP JUMPDEST POP PUSH2 0x501F PUSH1 0xE0 DUP6 ADD DUP6 PUSH2 0x526D JUMP JUMPDEST PUSH2 0x502C PUSH1 0xE0 DUP5 ADD DUP3 PUSH2 0x46FC JUMP JUMPDEST POP PUSH2 0x100 PUSH2 0x503C DUP2 DUP7 ADD DUP7 PUSH2 0x526D JUMP JUMPDEST PUSH2 0x5048 DUP3 DUP6 ADD DUP3 PUSH2 0x46FC JUMP JUMPDEST POP POP PUSH2 0x120 DUP5 DUP2 ADD CALLDATALOAD SWAP1 DUP4 ADD MSTORE PUSH2 0x140 PUSH2 0x5064 DUP2 DUP7 ADD DUP7 PUSH2 0x5287 JUMP JUMPDEST PUSH2 0x5070 DUP3 DUP6 ADD DUP3 PUSH2 0x484A JUMP JUMPDEST POP POP PUSH2 0x160 DUP5 DUP2 ADD CALLDATALOAD SWAP1 DUP4 ADD MSTORE PUSH2 0x1E39 PUSH2 0x180 DUP4 ADD DUP5 PUSH2 0x47F0 JUMP JUMPDEST PUSH1 0x60 DUP2 ADD PUSH2 0x1F91 DUP3 DUP5 PUSH2 0x47BB JUMP JUMPDEST PUSH1 0xA0 DUP2 ADD PUSH2 0x50A7 DUP3 DUP7 PUSH2 0x47BB JUMP JUMPDEST PUSH16 0xFFFFFFFFFFFFFFFFFFFFFFFFFFFFFFFF DUP5 AND PUSH1 0x60 DUP4 ADD MSTORE DUP3 ISZERO ISZERO PUSH1 0x80 DUP4 ADD MSTORE SWAP5 SWAP4 POP POP POP POP JUMP JUMPDEST PUSH2 0x1C0 DUP2 ADD PUSH1 0x20 DUP5 ADD PUSH2 0x50E6 DUP4 PUSH2 0x4F6C DUP4 DUP9 PUSH2 0x3C63 JUMP JUMPDEST PUSH2 0x50F0 DUP2 DUP7 PUSH2 0x526D JUMP JUMPDEST SWAP1 POP PUSH2 0x50FF PUSH1 0x20 DUP5 ADD DUP3 PUSH2 0x46FC JUMP JUMPDEST POP PUSH2 0x510D PUSH1 0x40 DUP6 ADD DUP6 PUSH2 0x527A JUMP JUMPDEST PUSH2 0x511A PUSH1 0x40 DUP5 ADD DUP3 PUSH2 0x4834 JUMP JUMPDEST POP PUSH2 0x5128 PUSH1 0x60 DUP6 ADD DUP6 PUSH2 0x527A JUMP JUMPDEST PUSH2 0x5135 PUSH1 0x60 DUP5 ADD DUP3 PUSH2 0x4834 JUMP JUMPDEST POP PUSH2 0x5143 PUSH1 0x80 DUP6 ADD DUP6 PUSH2 0x526D JUMP JUMPDEST PUSH2 0x5150 PUSH1 0x80 DUP5 ADD DUP3 PUSH2 0x46FC JUMP JUMPDEST POP PUSH2 0x515E PUSH1 0xA0 DUP6 ADD DUP6 PUSH2 0x526D JUMP JUMPDEST PUSH2 0x516B PUSH1 0xA0 DUP5 ADD DUP3 PUSH2 0x46FC JUMP JUMPDEST POP PUSH2 0x5179 PUSH1 0xC0 DUP6 ADD DUP6 PUSH2 0x526D JUMP JUMPDEST PUSH2 0x5186 PUSH1 0xC0 DUP5 ADD DUP3 PUSH2 0x46FC JUMP JUMPDEST POP PUSH1 0xE0 DUP5 ADD CALLDATALOAD PUSH1 0xE0 DUP4 ADD MSTORE PUSH2 0x100 PUSH2 0x51A0 DUP2 DUP7 ADD DUP7 PUSH2 0x5287 JUMP JUMPDEST PUSH2 0x51AC DUP3 DUP6 ADD DUP3 PUSH2 0x484A JUMP JUMPDEST POP POP PUSH2 0x120 DUP5 DUP2 ADD CALLDATALOAD SWAP1 DUP4 ADD MSTORE PUSH2 0x1E39 PUSH2 0x140 DUP4 ADD DUP5 PUSH2 0x47F0 JUMP JUMPDEST PUSH16 0xFFFFFFFFFFFFFFFFFFFFFFFFFFFFFFFF SWAP2 SWAP1 SWAP2 AND DUP2 MSTORE PUSH1 0x20 ADD SWAP1 JUMP JUMPDEST PUSH16 0xFFFFFFFFFFFFFFFFFFFFFFFFFFFFFFFF SWAP3 DUP4 AND DUP2 MSTORE SWAP2 AND PUSH1 0x20 DUP3 ADD MSTORE PUSH1 0x40 ADD SWAP1 JUMP JUMPDEST SWAP2 DUP3 MSTORE PUSH1 0x20 DUP3 ADD MSTORE PUSH1 0x40 ADD SWAP1 JUMP JUMPDEST PUSH4 0xFFFFFFFF SWAP2 SWAP1 SWAP2 AND DUP2 MSTORE PUSH1 0x20 ADD SWAP1 JUMP JUMPDEST PUSH1 0x40 MLOAD DUP2 DUP2 ADD PUSH8 0xFFFFFFFFFFFFFFFF DUP2 GT DUP3 DUP3 LT OR ISZERO PUSH2 0x5245 JUMPI PUSH1 0x0 DUP1 REVERT JUMPDEST PUSH1 0x40 MSTORE SWAP2 SWAP1 POP JUMP JUMPDEST PUSH1 0x0 PUSH8 0xFFFFFFFFFFFFFFFF DUP3 GT ISZERO PUSH2 0x5263 JUMPI DUP1 DUP2 REVERT JUMPDEST POP PUSH1 0x20 SWAP1 DUP2 MUL ADD SWAP1 JUMP JUMPDEST PUSH1 0x0 DUP3 CALLDATALOAD PUSH2 0x1E39 DUP2 PUSH2 0x52AA JUMP JUMPDEST PUSH1 0x0 DUP3 CALLDATALOAD PUSH2 0x1E39 DUP2 PUSH2 0x52DA JUMP JUMPDEST PUSH1 0x0 DUP3 CALLDATALOAD PUSH8 0xFFFFFFFFFFFFFFFF DUP2 AND DUP2 EQ PUSH2 0x1E39 JUMPI DUP2 DUP3 REVERT JUMPDEST PUSH1 0x4 DUP2 LT PUSH2 0x2D17 JUMPI INVALID JUMPDEST PUSH20 0xFFFFFFFFFFFFFFFFFFFFFFFFFFFFFFFFFFFFFFFF DUP2 AND DUP2 EQ PUSH2 0x2D17 JUMPI PUSH1 0x0 DUP1 REVERT JUMPDEST DUP1 ISZERO ISZERO DUP2 EQ PUSH2 0x2D17 JUMPI PUSH1 0x0 DUP1 REVERT JUMPDEST PUSH16 0xFFFFFFFFFFFFFFFFFFFFFFFFFFFFFFFF DUP2 AND DUP2 EQ PUSH2 0x2D17 JUMPI PUSH1 0x0 DUP1 REVERT INVALID LOG2 PUSH5 0x6970667358 0x22 SLT KECCAK256 PUSH28 0xE86EBFE95C4272EF9FD60E01D1026D9FD06DD80EA122231FA85912DA 0xAB POP 0xC5 PUSH5 0x736F6C6343 STOP MOD 0xC STOP CALLER "
            },
            "methodIdentifiers": {
                "EIP712_DOMAIN_SEPARATOR()": "dab400f3",
                "FEATURE_NAME()": "6ae4b4f7",
                "FEATURE_VERSION()": "031b905c",
                "GREEDY_TOKENS_BLOOM_FILTER()": "d925a56d",
                "PROTOCOL_FEE_MULTIPLIER()": "a0edcef5",
                "_fillLimitOrder((address,address,uint128,uint128,uint128,address,address,address,address,bytes32,uint64,uint256),(uint8,uint8,bytes32,bytes32),uint128,address,address)": "414e4ccf",
                "_fillRfqOrder((address,address,uint128,uint128,address,address,address,bytes32,uint64,uint256),(uint8,uint8,bytes32,bytes32),uint128,address)": "a656186b",
                "batchCancelLimitOrders((address,address,uint128,uint128,uint128,address,address,address,address,bytes32,uint64,uint256)[])": "9baa45a8",
                "batchCancelPairLimitOrders(address[],address[],uint256[])": "86a0c8d7",
                "batchCancelPairRfqOrders(address[],address[],uint256[])": "0f0e8cf7",
                "batchCancelRfqOrders((address,address,uint128,uint128,address,address,address,bytes32,uint64,uint256)[])": "f6e0f6a5",
                "batchGetLimitOrderRelevantStates((address,address,uint128,uint128,uint128,address,address,address,address,bytes32,uint64,uint256)[],(uint8,uint8,bytes32,bytes32)[])": "b4658bfb",
                "batchGetRfqOrderRelevantStates((address,address,uint128,uint128,address,address,address,bytes32,uint64,uint256)[],(uint8,uint8,bytes32,bytes32)[])": "ad354eeb",
                "cancelLimitOrder((address,address,uint128,uint128,uint128,address,address,address,address,bytes32,uint64,uint256))": "7d49ec1a",
                "cancelPairLimitOrders(address,address,uint256)": "d0a55fb0",
                "cancelPairRfqOrders(address,address,uint256)": "9a4f809c",
                "cancelRfqOrder((address,address,uint128,uint128,address,address,address,bytes32,uint64,uint256))": "fe55a3ef",
                "fillLimitOrder((address,address,uint128,uint128,uint128,address,address,address,address,bytes32,uint64,uint256),(uint8,uint8,bytes32,bytes32),uint128)": "f6274f66",
                "fillOrKillLimitOrder((address,address,uint128,uint128,uint128,address,address,address,address,bytes32,uint64,uint256),(uint8,uint8,bytes32,bytes32),uint128)": "9240529c",
                "fillOrKillRfqOrder((address,address,uint128,uint128,address,address,address,bytes32,uint64,uint256),(uint8,uint8,bytes32,bytes32),uint128)": "438cdfc5",
                "fillRfqOrder((address,address,uint128,uint128,address,address,address,bytes32,uint64,uint256),(uint8,uint8,bytes32,bytes32),uint128)": "aa77476c",
                "getLimitOrderHash((address,address,uint128,uint128,uint128,address,address,address,address,bytes32,uint64,uint256))": "dd11d225",
                "getLimitOrderInfo((address,address,uint128,uint128,uint128,address,address,address,address,bytes32,uint64,uint256))": "95480889",
                "getLimitOrderRelevantState((address,address,uint128,uint128,uint128,address,address,address,address,bytes32,uint64,uint256),(uint8,uint8,bytes32,bytes32))": "1fb09795",
                "getProtocolFeeMultiplier()": "487b5c20",
                "getRfqOrderHash((address,address,uint128,uint128,address,address,address,bytes32,uint64,uint256))": "016a6d65",
                "getRfqOrderInfo((address,address,uint128,uint128,address,address,address,bytes32,uint64,uint256))": "346693c5",
                "getRfqOrderRelevantState((address,address,uint128,uint128,address,address,address,bytes32,uint64,uint256),(uint8,uint8,bytes32,bytes32))": "37f381d8",
                "migrate()": "8fd3ab80",
                "registerAllowedRfqOrigins(address[],bool)": "b09f1fb1",
                "transferProtocolFeesForPools(bytes32[])": "3cd2f026"
            }
        }
    },
    "sourceTreeHashHex": "0x2cdbdee95e24b2edc0fdfbf1a87bac79afa9e5c27a642f4ba9fbb9ce08747b1a",
    "compiler": {
        "name": "solc",
        "version": "0.6.12+commit.27d51765",
        "settings": {
            "remappings": [
                "@0x/contracts-utils=/Users/michaelzhu/protocol/node_modules/@0x/contracts-utils",
                "@0x/contracts-erc20=/Users/michaelzhu/protocol/contracts/zero-ex/node_modules/@0x/contracts-erc20"
            ],
            "optimizer": {
                "enabled": true,
                "runs": 1000000,
                "details": {
                    "yul": true,
                    "deduplicate": true,
                    "cse": true,
                    "constantOptimizer": true
                }
            },
            "outputSelection": {
                "*": {
                    "*": [
                        "abi",
                        "devdoc",
                        "evm.bytecode.object",
                        "evm.bytecode.sourceMap",
                        "evm.deployedBytecode.object",
                        "evm.deployedBytecode.sourceMap",
                        "evm.methodIdentifiers"
                    ]
                }
            },
            "evmVersion": "istanbul"
        }
    },
    "chains": {}
}