{
    "schemaVersion": "2.0.0",
    "contractName": "PermissionlessTransformerDeployer",
    "compilerOutput": {
        "abi": [
            {
                "anonymous": false,
                "inputs": [
                    {
                        "indexed": false,
                        "internalType": "address",
                        "name": "deployedAddress",
                        "type": "address"
                    },
                    {
                        "indexed": false,
                        "internalType": "bytes32",
                        "name": "salt",
                        "type": "bytes32"
                    },
                    {
                        "indexed": false,
                        "internalType": "address",
                        "name": "sender",
                        "type": "address"
                    }
                ],
                "name": "Deployed",
                "type": "event"
            },
            {
                "inputs": [
                    {
                        "internalType": "bytes",
                        "name": "bytecode",
                        "type": "bytes"
                    },
                    {
                        "internalType": "bytes32",
                        "name": "salt",
                        "type": "bytes32"
                    }
                ],
                "name": "deploy",
                "outputs": [
                    {
                        "internalType": "address",
                        "name": "deployedAddress",
                        "type": "address"
                    }
                ],
                "stateMutability": "payable",
                "type": "function"
            },
            {
                "inputs": [
                    {
                        "internalType": "address",
                        "name": "target",
                        "type": "address"
                    }
                ],
                "name": "isDelegateCallSafe",
                "outputs": [
                    {
                        "internalType": "bool",
                        "name": "",
                        "type": "bool"
                    }
                ],
                "stateMutability": "view",
                "type": "function"
            },
            {
                "inputs": [
                    {
                        "internalType": "address",
                        "name": "",
                        "type": "address"
                    }
                ],
                "name": "toDeploymentSalt",
                "outputs": [
                    {
                        "internalType": "bytes32",
                        "name": "",
                        "type": "bytes32"
                    }
                ],
                "stateMutability": "view",
                "type": "function"
            },
            {
                "inputs": [
                    {
                        "internalType": "address",
                        "name": "",
                        "type": "address"
                    }
                ],
                "name": "toInitCodeHash",
                "outputs": [
                    {
                        "internalType": "bytes32",
                        "name": "",
                        "type": "bytes32"
                    }
                ],
                "stateMutability": "view",
                "type": "function"
            }
        ],
        "devdoc": {
            "details": "Deployer contract for ERC20 transformers.",
            "events": {
                "Deployed(address,bytes32,address)": {
                    "details": "Emitted when a contract is deployed via `deploy()`.",
                    "params": {
                        "deployedAddress": "The address of the deployed contract.",
                        "salt": "The deployment salt.",
                        "sender": "The caller of `deploy()`."
                    }
                }
            },
            "kind": "dev",
            "methods": {
                "deploy(bytes,bytes32)": {
                    "details": "Deploy a new contract. Any attached ETH will be forwarded."
                },
                "isDelegateCallSafe(address)": {
                    "details": "Checks whether a given address is safe to be called via      delegatecall. A contract is considered unsafe if it includes any      of the following opcodes: CALLCODE, DELEGATECALL, SELFDESTRUCT,      CREATE, CREATE2, SLOAD, and STORE. This code is adapted from      https://github.com/dharma-eng/dharma-smart-wallet/blob/master/contracts/helpers/IndestructibleRegistry.sol",
                    "params": {
                        "target": "The address to check."
                    },
                    "returns": {
                        "_0": "True if the contract is considered safe for delegatecall."
                    }
                }
            },
            "version": 1
        },
        "evm": {
            "bytecode": {
                "linkReferences": {},
                "object": "0x608060405234801561001057600080fd5b506106b3806100206000396000f3fe60806040526004361061003f5760003560e01c80634af63f02146100445780635d42a5f21461006d5780638cd09f0c1461009a578063d253c0d7146100c7575b600080fd5b610057610052366004610443565b6100e7565b6040516100649190610501565b60405180910390f35b34801561007957600080fd5b5061008d610088366004610408565b610202565b604051610064919061055d565b3480156100a657600080fd5b506100ba6100b5366004610408565b610214565b6040516100649190610552565b3480156100d357600080fd5b5061008d6100e2366004610408565b6103f6565b60008183516020850134f5905073ffffffffffffffffffffffffffffffffffffffff811661014a576040517f08c379a0000000000000000000000000000000000000000000000000000000008152600401610141906105c3565b60405180910390fd5b61015381610214565b610189576040517f08c379a000000000000000000000000000000000000000000000000000000000815260040161014190610566565b73ffffffffffffffffffffffffffffffffffffffff811660009081526020818152604080832085905585518683012060019092529182902055517ffa86dcef4390d6a0f7edde563410fc44e4c2d382b4c6699cce5ebc4071abcc95906101f490839085903390610522565b60405180910390a192915050565b60006020819052908152604090205481565b6000813b8061024f576040517f08c379a000000000000000000000000000000000000000000000000000000000815260040161014190610620565b60608167ffffffffffffffff8111801561026857600080fd5b506040519080825280601f01601f191660200182016040528015610293576020820181803683370190505b50905081600060208301863c600160005b82518110156103e85760008382815181106102bb57fe5b016020015160f81c9050605f811180156102d8575060808160ff16105b15610308577fffffffffffffffffffffffffffffffffffffffffffffffffffffffffffffffa10160ff16016103e0565b82156103cd578060ff1660fe148061032357508060ff1660f3145b8061033157508060ff1660fd145b8061033f57508060ff166056145b8061034b575060ff8116155b1561035a5760009250506103e0565b8060ff1660f2148061036f57508060ff1660f4145b8061037d57508060ff1660ff145b8061038b57508060ff1660f0145b8061039957508060ff1660f5145b806103a757508060ff166054145b806103b557508060ff166055145b156103c8576000955050505050506103f1565b6103de565b8060ff16605b14156103de57600192505b505b6001016102a4565b50600193505050505b919050565b60016020526000908152604090205481565b600060208284031215610419578081fd5b813573ffffffffffffffffffffffffffffffffffffffff8116811461043c578182fd5b9392505050565b60008060408385031215610455578081fd5b823567ffffffffffffffff8082111561046c578283fd5b818501915085601f83011261047f578283fd5b81358181111561048d578384fd5b6040516020807fffffffffffffffffffffffffffffffffffffffffffffffffffffffffffffffe0601f85011683010182811085821117156104cc578687fd5b60405282825284830181018910156104e2578586fd5b8281860182840137918101820194909452929694909201359450505050565b73ffffffffffffffffffffffffffffffffffffffff91909116815260200190565b73ffffffffffffffffffffffffffffffffffffffff93841681526020810192909252909116604082015260600190565b901515815260200190565b90815260200190565b6020808252602d908201527f5065726d697373696f6e6c6573735472616e73666f726d65724465706c6f796560408201527f722f554e534146455f434f444500000000000000000000000000000000000000606082015260800190565b6020808252602f908201527f5065726d697373696f6e6c6573735472616e73666f726d65724465706c6f796560408201527f722f4445504c4f595f4641494c45440000000000000000000000000000000000606082015260800190565b60208082526029908201527f5065726d697373696f6e6c6573735472616e73666f726d65724465706c6f796560408201527f722f4e4f5f434f4445000000000000000000000000000000000000000000000060608201526080019056fea2646970667358221220fe10b59f02e7dc2e605b625f97d69a0784c26c02e35c98b2083104982c5f770664736f6c634300060c0033",
                "opcodes": "PUSH1 0x80 PUSH1 0x40 MSTORE CALLVALUE DUP1 ISZERO PUSH2 0x10 JUMPI PUSH1 0x0 DUP1 REVERT JUMPDEST POP PUSH2 0x6B3 DUP1 PUSH2 0x20 PUSH1 0x0 CODECOPY PUSH1 0x0 RETURN INVALID PUSH1 0x80 PUSH1 0x40 MSTORE PUSH1 0x4 CALLDATASIZE LT PUSH2 0x3F JUMPI PUSH1 0x0 CALLDATALOAD PUSH1 0xE0 SHR DUP1 PUSH4 0x4AF63F02 EQ PUSH2 0x44 JUMPI DUP1 PUSH4 0x5D42A5F2 EQ PUSH2 0x6D JUMPI DUP1 PUSH4 0x8CD09F0C EQ PUSH2 0x9A JUMPI DUP1 PUSH4 0xD253C0D7 EQ PUSH2 0xC7 JUMPI JUMPDEST PUSH1 0x0 DUP1 REVERT JUMPDEST PUSH2 0x57 PUSH2 0x52 CALLDATASIZE PUSH1 0x4 PUSH2 0x443 JUMP JUMPDEST PUSH2 0xE7 JUMP JUMPDEST PUSH1 0x40 MLOAD PUSH2 0x64 SWAP2 SWAP1 PUSH2 0x501 JUMP JUMPDEST PUSH1 0x40 MLOAD DUP1 SWAP2 SUB SWAP1 RETURN JUMPDEST CALLVALUE DUP1 ISZERO PUSH2 0x79 JUMPI PUSH1 0x0 DUP1 REVERT JUMPDEST POP PUSH2 0x8D PUSH2 0x88 CALLDATASIZE PUSH1 0x4 PUSH2 0x408 JUMP JUMPDEST PUSH2 0x202 JUMP JUMPDEST PUSH1 0x40 MLOAD PUSH2 0x64 SWAP2 SWAP1 PUSH2 0x55D JUMP JUMPDEST CALLVALUE DUP1 ISZERO PUSH2 0xA6 JUMPI PUSH1 0x0 DUP1 REVERT JUMPDEST POP PUSH2 0xBA PUSH2 0xB5 CALLDATASIZE PUSH1 0x4 PUSH2 0x408 JUMP JUMPDEST PUSH2 0x214 JUMP JUMPDEST PUSH1 0x40 MLOAD PUSH2 0x64 SWAP2 SWAP1 PUSH2 0x552 JUMP JUMPDEST CALLVALUE DUP1 ISZERO PUSH2 0xD3 JUMPI PUSH1 0x0 DUP1 REVERT JUMPDEST POP PUSH2 0x8D PUSH2 0xE2 CALLDATASIZE PUSH1 0x4 PUSH2 0x408 JUMP JUMPDEST PUSH2 0x3F6 JUMP JUMPDEST PUSH1 0x0 DUP2 DUP4 MLOAD PUSH1 0x20 DUP6 ADD CALLVALUE CREATE2 SWAP1 POP PUSH20 0xFFFFFFFFFFFFFFFFFFFFFFFFFFFFFFFFFFFFFFFF DUP2 AND PUSH2 0x14A JUMPI PUSH1 0x40 MLOAD PUSH32 0x8C379A000000000000000000000000000000000000000000000000000000000 DUP2 MSTORE PUSH1 0x4 ADD PUSH2 0x141 SWAP1 PUSH2 0x5C3 JUMP JUMPDEST PUSH1 0x40 MLOAD DUP1 SWAP2 SUB SWAP1 REVERT JUMPDEST PUSH2 0x153 DUP2 PUSH2 0x214 JUMP JUMPDEST PUSH2 0x189 JUMPI PUSH1 0x40 MLOAD PUSH32 0x8C379A000000000000000000000000000000000000000000000000000000000 DUP2 MSTORE PUSH1 0x4 ADD PUSH2 0x141 SWAP1 PUSH2 0x566 JUMP JUMPDEST PUSH20 0xFFFFFFFFFFFFFFFFFFFFFFFFFFFFFFFFFFFFFFFF DUP2 AND PUSH1 0x0 SWAP1 DUP2 MSTORE PUSH1 0x20 DUP2 DUP2 MSTORE PUSH1 0x40 DUP1 DUP4 KECCAK256 DUP6 SWAP1 SSTORE DUP6 MLOAD DUP7 DUP4 ADD KECCAK256 PUSH1 0x1 SWAP1 SWAP3 MSTORE SWAP2 DUP3 SWAP1 KECCAK256 SSTORE MLOAD PUSH32 0xFA86DCEF4390D6A0F7EDDE563410FC44E4C2D382B4C6699CCE5EBC4071ABCC95 SWAP1 PUSH2 0x1F4 SWAP1 DUP4 SWAP1 DUP6 SWAP1 CALLER SWAP1 PUSH2 0x522 JUMP JUMPDEST PUSH1 0x40 MLOAD DUP1 SWAP2 SUB SWAP1 LOG1 SWAP3 SWAP2 POP POP JUMP JUMPDEST PUSH1 0x0 PUSH1 0x20 DUP2 SWAP1 MSTORE SWAP1 DUP2 MSTORE PUSH1 0x40 SWAP1 KECCAK256 SLOAD DUP2 JUMP JUMPDEST PUSH1 0x0 DUP2 EXTCODESIZE DUP1 PUSH2 0x24F JUMPI PUSH1 0x40 MLOAD PUSH32 0x8C379A000000000000000000000000000000000000000000000000000000000 DUP2 MSTORE PUSH1 0x4 ADD PUSH2 0x141 SWAP1 PUSH2 0x620 JUMP JUMPDEST PUSH1 0x60 DUP2 PUSH8 0xFFFFFFFFFFFFFFFF DUP2 GT DUP1 ISZERO PUSH2 0x268 JUMPI PUSH1 0x0 DUP1 REVERT JUMPDEST POP PUSH1 0x40 MLOAD SWAP1 DUP1 DUP3 MSTORE DUP1 PUSH1 0x1F ADD PUSH1 0x1F NOT AND PUSH1 0x20 ADD DUP3 ADD PUSH1 0x40 MSTORE DUP1 ISZERO PUSH2 0x293 JUMPI PUSH1 0x20 DUP3 ADD DUP2 DUP1 CALLDATASIZE DUP4 CALLDATACOPY ADD SWAP1 POP JUMPDEST POP SWAP1 POP DUP2 PUSH1 0x0 PUSH1 0x20 DUP4 ADD DUP7 EXTCODECOPY PUSH1 0x1 PUSH1 0x0 JUMPDEST DUP3 MLOAD DUP2 LT ISZERO PUSH2 0x3E8 JUMPI PUSH1 0x0 DUP4 DUP3 DUP2 MLOAD DUP2 LT PUSH2 0x2BB JUMPI INVALID JUMPDEST ADD PUSH1 0x20 ADD MLOAD PUSH1 0xF8 SHR SWAP1 POP PUSH1 0x5F DUP2 GT DUP1 ISZERO PUSH2 0x2D8 JUMPI POP PUSH1 0x80 DUP2 PUSH1 0xFF AND LT JUMPDEST ISZERO PUSH2 0x308 JUMPI PUSH32 0xFFFFFFFFFFFFFFFFFFFFFFFFFFFFFFFFFFFFFFFFFFFFFFFFFFFFFFFFFFFFFFA1 ADD PUSH1 0xFF AND ADD PUSH2 0x3E0 JUMP JUMPDEST DUP3 ISZERO PUSH2 0x3CD JUMPI DUP1 PUSH1 0xFF AND PUSH1 0xFE EQ DUP1 PUSH2 0x323 JUMPI POP DUP1 PUSH1 0xFF AND PUSH1 0xF3 EQ JUMPDEST DUP1 PUSH2 0x331 JUMPI POP DUP1 PUSH1 0xFF AND PUSH1 0xFD EQ JUMPDEST DUP1 PUSH2 0x33F JUMPI POP DUP1 PUSH1 0xFF AND PUSH1 0x56 EQ JUMPDEST DUP1 PUSH2 0x34B JUMPI POP PUSH1 0xFF DUP2 AND ISZERO JUMPDEST ISZERO PUSH2 0x35A JUMPI PUSH1 0x0 SWAP3 POP POP PUSH2 0x3E0 JUMP JUMPDEST DUP1 PUSH1 0xFF AND PUSH1 0xF2 EQ DUP1 PUSH2 0x36F JUMPI POP DUP1 PUSH1 0xFF AND PUSH1 0xF4 EQ JUMPDEST DUP1 PUSH2 0x37D JUMPI POP DUP1 PUSH1 0xFF AND PUSH1 0xFF EQ JUMPDEST DUP1 PUSH2 0x38B JUMPI POP DUP1 PUSH1 0xFF AND PUSH1 0xF0 EQ JUMPDEST DUP1 PUSH2 0x399 JUMPI POP DUP1 PUSH1 0xFF AND PUSH1 0xF5 EQ JUMPDEST DUP1 PUSH2 0x3A7 JUMPI POP DUP1 PUSH1 0xFF AND PUSH1 0x54 EQ JUMPDEST DUP1 PUSH2 0x3B5 JUMPI POP DUP1 PUSH1 0xFF AND PUSH1 0x55 EQ JUMPDEST ISZERO PUSH2 0x3C8 JUMPI PUSH1 0x0 SWAP6 POP POP POP POP POP POP PUSH2 0x3F1 JUMP JUMPDEST PUSH2 0x3DE JUMP JUMPDEST DUP1 PUSH1 0xFF AND PUSH1 0x5B EQ ISZERO PUSH2 0x3DE JUMPI PUSH1 0x1 SWAP3 POP JUMPDEST POP JUMPDEST PUSH1 0x1 ADD PUSH2 0x2A4 JUMP JUMPDEST POP PUSH1 0x1 SWAP4 POP POP POP POP JUMPDEST SWAP2 SWAP1 POP JUMP JUMPDEST PUSH1 0x1 PUSH1 0x20 MSTORE PUSH1 0x0 SWAP1 DUP2 MSTORE PUSH1 0x40 SWAP1 KECCAK256 SLOAD DUP2 JUMP JUMPDEST PUSH1 0x0 PUSH1 0x20 DUP3 DUP5 SUB SLT ISZERO PUSH2 0x419 JUMPI DUP1 DUP2 REVERT JUMPDEST DUP2 CALLDATALOAD PUSH20 0xFFFFFFFFFFFFFFFFFFFFFFFFFFFFFFFFFFFFFFFF DUP2 AND DUP2 EQ PUSH2 0x43C JUMPI DUP2 DUP3 REVERT JUMPDEST SWAP4 SWAP3 POP POP POP JUMP JUMPDEST PUSH1 0x0 DUP1 PUSH1 0x40 DUP4 DUP6 SUB SLT ISZERO PUSH2 0x455 JUMPI DUP1 DUP2 REVERT JUMPDEST DUP3 CALLDATALOAD PUSH8 0xFFFFFFFFFFFFFFFF DUP1 DUP3 GT ISZERO PUSH2 0x46C JUMPI DUP3 DUP4 REVERT JUMPDEST DUP2 DUP6 ADD SWAP2 POP DUP6 PUSH1 0x1F DUP4 ADD SLT PUSH2 0x47F JUMPI DUP3 DUP4 REVERT JUMPDEST DUP2 CALLDATALOAD DUP2 DUP2 GT ISZERO PUSH2 0x48D JUMPI DUP4 DUP5 REVERT JUMPDEST PUSH1 0x40 MLOAD PUSH1 0x20 DUP1 PUSH32 0xFFFFFFFFFFFFFFFFFFFFFFFFFFFFFFFFFFFFFFFFFFFFFFFFFFFFFFFFFFFFFFE0 PUSH1 0x1F DUP6 ADD AND DUP4 ADD ADD DUP3 DUP2 LT DUP6 DUP3 GT OR ISZERO PUSH2 0x4CC JUMPI DUP7 DUP8 REVERT JUMPDEST PUSH1 0x40 MSTORE DUP3 DUP3 MSTORE DUP5 DUP4 ADD DUP2 ADD DUP10 LT ISZERO PUSH2 0x4E2 JUMPI DUP6 DUP7 REVERT JUMPDEST DUP3 DUP2 DUP7 ADD DUP3 DUP5 ADD CALLDATACOPY SWAP2 DUP2 ADD DUP3 ADD SWAP5 SWAP1 SWAP5 MSTORE SWAP3 SWAP7 SWAP5 SWAP1 SWAP3 ADD CALLDATALOAD SWAP5 POP POP POP POP JUMP JUMPDEST PUSH20 0xFFFFFFFFFFFFFFFFFFFFFFFFFFFFFFFFFFFFFFFF SWAP2 SWAP1 SWAP2 AND DUP2 MSTORE PUSH1 0x20 ADD SWAP1 JUMP JUMPDEST PUSH20 0xFFFFFFFFFFFFFFFFFFFFFFFFFFFFFFFFFFFFFFFF SWAP4 DUP5 AND DUP2 MSTORE PUSH1 0x20 DUP2 ADD SWAP3 SWAP1 SWAP3 MSTORE SWAP1 SWAP2 AND PUSH1 0x40 DUP3 ADD MSTORE PUSH1 0x60 ADD SWAP1 JUMP JUMPDEST SWAP1 ISZERO ISZERO DUP2 MSTORE PUSH1 0x20 ADD SWAP1 JUMP JUMPDEST SWAP1 DUP2 MSTORE PUSH1 0x20 ADD SWAP1 JUMP JUMPDEST PUSH1 0x20 DUP1 DUP3 MSTORE PUSH1 0x2D SWAP1 DUP3 ADD MSTORE PUSH32 0x5065726D697373696F6E6C6573735472616E73666F726D65724465706C6F7965 PUSH1 0x40 DUP3 ADD MSTORE PUSH32 0x722F554E534146455F434F444500000000000000000000000000000000000000 PUSH1 0x60 DUP3 ADD MSTORE PUSH1 0x80 ADD SWAP1 JUMP JUMPDEST PUSH1 0x20 DUP1 DUP3 MSTORE PUSH1 0x2F SWAP1 DUP3 ADD MSTORE PUSH32 0x5065726D697373696F6E6C6573735472616E73666F726D65724465706C6F7965 PUSH1 0x40 DUP3 ADD MSTORE PUSH32 0x722F4445504C4F595F4641494C45440000000000000000000000000000000000 PUSH1 0x60 DUP3 ADD MSTORE PUSH1 0x80 ADD SWAP1 JUMP JUMPDEST PUSH1 0x20 DUP1 DUP3 MSTORE PUSH1 0x29 SWAP1 DUP3 ADD MSTORE PUSH32 0x5065726D697373696F6E6C6573735472616E73666F726D65724465706C6F7965 PUSH1 0x40 DUP3 ADD MSTORE PUSH32 0x722F4E4F5F434F44450000000000000000000000000000000000000000000000 PUSH1 0x60 DUP3 ADD MSTORE PUSH1 0x80 ADD SWAP1 JUMP INVALID LOG2 PUSH5 0x6970667358 0x22 SLT KECCAK256 INVALID LT 0xB5 SWAP16 MUL 0xE7 0xDC 0x2E PUSH1 0x5B PUSH3 0x5F97D6 SWAP11 SMOD DUP5 0xC2 PUSH13 0x2E35C98B2083104982C5F7706 PUSH5 0x736F6C6343 STOP MOD 0xC STOP CALLER "
            },
            "methodIdentifiers": {
                "deploy(bytes,bytes32)": "4af63f02",
                "isDelegateCallSafe(address)": "8cd09f0c",
                "toDeploymentSalt(address)": "5d42a5f2",
                "toInitCodeHash(address)": "d253c0d7"
            }
        }
    },
    "sourceTreeHashHex": "0x5bfc4d181d273cd280f2829f17b2adb4adaaf44d6af3c8afc34910dbeee0b413",
    "compiler": {
        "name": "solc",
        "version": "0.6.12+commit.27d51765",
        "settings": {
            "remappings": [
                "@0x/contracts-utils=/Users/michaelzhu/protocol/node_modules/@0x/contracts-utils",
                "@0x/contracts-erc20=/Users/michaelzhu/protocol/contracts/zero-ex/node_modules/@0x/contracts-erc20"
            ],
            "optimizer": {
                "enabled": true,
                "runs": 1000000,
                "details": {
                    "yul": true,
                    "deduplicate": true,
                    "cse": true,
                    "constantOptimizer": true
                }
            },
            "outputSelection": {
                "*": {
                    "*": [
                        "abi",
                        "devdoc",
                        "evm.bytecode.object",
                        "evm.bytecode.sourceMap",
                        "evm.deployedBytecode.object",
                        "evm.deployedBytecode.sourceMap",
                        "evm.methodIdentifiers"
                    ]
                }
            },
            "evmVersion": "istanbul"
        }
    },
    "chains": {}
}