{
    "schemaVersion": "2.0.0",
    "contractName": "TestFullMigration",
    "compilerOutput": {
        "abi": [
            {
                "inputs": [
                    {
                        "internalType": "address payable",
                        "name": "deployer",
                        "type": "address"
                    }
                ],
                "stateMutability": "nonpayable",
                "type": "constructor"
            },
            {
                "inputs": [
                    {
                        "internalType": "address payable",
                        "name": "ethRecipient",
                        "type": "address"
                    }
                ],
                "name": "die",
                "outputs": [],
                "stateMutability": "nonpayable",
                "type": "function"
            },
            {
                "inputs": [],
                "name": "dieRecipient",
                "outputs": [
                    {
                        "internalType": "address",
                        "name": "",
                        "type": "address"
                    }
                ],
                "stateMutability": "view",
                "type": "function"
            },
            {
                "inputs": [],
                "name": "getBootstrapper",
                "outputs": [
                    {
                        "internalType": "address",
                        "name": "bootstrapper",
                        "type": "address"
                    }
                ],
                "stateMutability": "view",
                "type": "function"
            },
            {
                "inputs": [],
                "name": "initializeCaller",
                "outputs": [
                    {
                        "internalType": "address",
                        "name": "",
                        "type": "address"
                    }
                ],
                "stateMutability": "view",
                "type": "function"
            },
            {
                "inputs": [
                    {
                        "internalType": "address payable",
                        "name": "owner",
                        "type": "address"
                    },
                    {
                        "internalType": "contract ZeroEx",
                        "name": "zeroEx",
                        "type": "address"
                    },
                    {
                        "components": [
                            {
                                "internalType": "contract SimpleFunctionRegistryFeature",
                                "name": "registry",
                                "type": "address"
                            },
                            {
                                "internalType": "contract OwnableFeature",
                                "name": "ownable",
                                "type": "address"
                            },
                            {
                                "internalType": "contract TokenSpenderFeature",
                                "name": "tokenSpender",
                                "type": "address"
                            },
                            {
                                "internalType": "contract TransformERC20Feature",
                                "name": "transformERC20",
                                "type": "address"
                            },
                            {
                                "internalType": "contract MetaTransactionsFeature",
                                "name": "metaTransactions",
                                "type": "address"
                            },
                            {
                                "internalType": "contract NativeOrdersFeature",
                                "name": "nativeOrders",
                                "type": "address"
                            }
                        ],
                        "internalType": "struct FullMigration.Features",
                        "name": "features",
                        "type": "tuple"
                    },
                    {
                        "components": [
                            {
                                "internalType": "address",
                                "name": "transformerDeployer",
                                "type": "address"
                            }
                        ],
                        "internalType": "struct FullMigration.MigrateOpts",
                        "name": "migrateOpts",
                        "type": "tuple"
                    }
                ],
                "name": "migrateZeroEx",
                "outputs": [
                    {
                        "internalType": "contract ZeroEx",
                        "name": "_zeroEx",
                        "type": "address"
                    }
                ],
                "stateMutability": "nonpayable",
                "type": "function"
            }
        ],
        "devdoc": {
            "kind": "dev",
            "methods": {
                "die(address)": {
                    "details": "Destroy this contract. Only callable from ourselves (from `initializeZeroEx()`).",
                    "params": {
                        "ethRecipient": "Receiver of any ETH in this contract."
                    }
                },
                "getBootstrapper()": {
                    "details": "Retrieve the bootstrapper address to use when constructing `ZeroEx`.",
                    "returns": {
                        "bootstrapper": "The bootstrapper address."
                    }
                },
                "migrateZeroEx(address,address,(address,address,address,address,address,address),(address))": {
                    "details": "Initialize the `ZeroEx` contract with the full feature set,      transfer ownership to `owner`, then self-destruct.",
                    "params": {
                        "features": "Features to add to the proxy.",
                        "migrateOpts": "Parameters needed to initialize features.",
                        "owner": "The owner of the contract.",
                        "zeroEx": "The instance of the ZeroEx contract. ZeroEx should        been constructed with this contract as the bootstrapper."
                    },
                    "returns": {
                        "_zeroEx": "The configured ZeroEx contract. Same as the `zeroEx` parameter."
                    }
                }
            },
            "version": 1
        },
        "evm": {
            "bytecode": {
                "linkReferences": {},
                "object": "0x60a060405234801561001057600080fd5b5060405161255238038061255283398101604081905261002f916100ad565b6001600160601b0319606082901b1660805260405181903090610051906100a0565b61005b91906100db565b604051809103906000f080158015610077573d6000803e3d6000fd5b50600080546001600160a01b0319166001600160a01b0392909216919091179055506100ef9050565b610afa80611a5883390190565b6000602082840312156100be578081fd5b81516001600160a01b03811681146100d4578182fd5b9392505050565b6001600160a01b0391909116815260200190565b60805160601c6119486101106000398060dc528061030d52506119486000f3fe608060405234801561001057600080fd5b50600436106100675760003560e01c80639b7e25a9116100505780639b7e25a91461009d578063b3d31735146100a5578063c9353cb5146100ad57610067565b8063329798a41461006c5780635f136a4a14610095575b600080fd5b61007f61007a36600461093a565b6100c2565b60405161008c9190610a48565b60405180910390f35b61007f61030b565b61007f61032f565b61007f61034b565b6100c06100bb366004610917565b610367565b005b60003373ffffffffffffffffffffffffffffffffffffffff7f0000000000000000000000000000000000000000000000000000000000000000161461013c576040517f08c379a000000000000000000000000000000000000000000000000000000000815260040161013390610b41565b60405180910390fd5b600054604080518082018252855173ffffffffffffffffffffffffffffffffffffffff908116825260208088015182169083015291517fa23ce6ce000000000000000000000000000000000000000000000000000000008152919092169163a23ce6ce916101b1913091899190600401610a69565b602060405180830381600087803b1580156101cb57600080fd5b505af11580156101df573d6000803e3d6000fd5b505050506040513d601f19601f820116820180604052508101906102039190610a2c565b50610210848685856103ae565b6040517ff2fde38b00000000000000000000000000000000000000000000000000000000815273ffffffffffffffffffffffffffffffffffffffff85169063f2fde38b90610262908890600401610a48565b600060405180830381600087803b15801561027c57600080fd5b505af1158015610290573d6000803e3d6000fd5b50506040517fc9353cb500000000000000000000000000000000000000000000000000000000815230925063c9353cb591506102d0908890600401610a48565b600060405180830381600087803b1580156102ea57600080fd5b505af11580156102fe573d6000803e3d6000fd5b5095979650505050505050565b7f000000000000000000000000000000000000000000000000000000000000000081565b60015473ffffffffffffffffffffffffffffffffffffffff1681565b60005473ffffffffffffffffffffffffffffffffffffffff1690565b600180547fffffffffffffffffffffffff00000000000000000000000000000000000000001673ffffffffffffffffffffffffffffffffffffffff92909216919091179055565b60405184906000906103bf906108c9565b604051809103906000f0801580156103db573d6000803e3d6000fd5b506040517f42f1181e00000000000000000000000000000000000000000000000000000000815290915073ffffffffffffffffffffffffffffffffffffffff8216906342f1181e90610431908990600401610a48565b600060405180830381600087803b15801561044b57600080fd5b505af115801561045f573d6000803e3d6000fd5b50506040517ff2fde38b00000000000000000000000000000000000000000000000000000000815273ffffffffffffffffffffffffffffffffffffffff8416925063f2fde38b91506104b5908890600401610a48565b600060405180830381600087803b1580156104cf57600080fd5b505af11580156104e3573d6000803e3d6000fd5b505050508173ffffffffffffffffffffffffffffffffffffffff1663261fe679856040015163ce5494bb60e01b846040516024016105219190610a48565b604080517fffffffffffffffffffffffffffffffffffffffffffffffffffffffffffffffe08184030181529181526020820180517bffffffffffffffffffffffffffffffffffffffffffffffffffffffff167fffffffff000000000000000000000000000000000000000000000000000000009485161790525160e085901b90921682526105b492913090600401610aa8565b600060405180830381600087803b1580156105ce57600080fd5b505af11580156105e2573d6000803e3d6000fd5b5050506060850151845160405173ffffffffffffffffffffffffffffffffffffffff8616945063261fe67993507fce5494bb000000000000000000000000000000000000000000000000000000009161063d91602401610a48565b604080517fffffffffffffffffffffffffffffffffffffffffffffffffffffffffffffffe08184030181529181526020820180517bffffffffffffffffffffffffffffffffffffffffffffffffffffffff167fffffffff000000000000000000000000000000000000000000000000000000009485161790525160e085901b90921682526106d092913090600401610aa8565b600060405180830381600087803b1580156106ea57600080fd5b505af11580156106fe573d6000803e3d6000fd5b50505060808401516040805160048082526024820183526020820180517bffffffffffffffffffffffffffffffffffffffffffffffffffffffff167f8fd3ab800000000000000000000000000000000000000000000000000000000017905291517f261fe67900000000000000000000000000000000000000000000000000000000815273ffffffffffffffffffffffffffffffffffffffff8616945063261fe679936107b093909291309101610aa8565b600060405180830381600087803b1580156107ca57600080fd5b505af11580156107de573d6000803e3d6000fd5b50505060a08401516040805160048082526024820183526020820180517bffffffffffffffffffffffffffffffffffffffffffffffffffffffff167f8fd3ab800000000000000000000000000000000000000000000000000000000017905291517f261fe67900000000000000000000000000000000000000000000000000000000815273ffffffffffffffffffffffffffffffffffffffff8616945063261fe6799361089093909291309101610aa8565b600060405180830381600087803b1580156108aa57600080fd5b505af11580156108be573d6000803e3d6000fd5b505050505050505050565b610d4e80610bc583390190565b80356108e181610b9f565b92915050565b6000602082840312156108f8578081fd5b6109026020610b78565b9050813561090f81610b9f565b815292915050565b600060208284031215610928578081fd5b813561093381610b9f565b9392505050565b600080600080848603610120811215610951578384fd5b853561095c81610b9f565b9450602086013561096c81610b9f565b935060c07fffffffffffffffffffffffffffffffffffffffffffffffffffffffffffffffc08201121561099d578283fd5b506109a860c0610b78565b6109b587604088016108d6565b81526109c487606088016108d6565b60208201526109d687608088016108d6565b60408201526109e88760a088016108d6565b60608201526109fa8760c088016108d6565b6080820152610a0c8760e088016108d6565b60a08201529150610a218661010087016108e7565b905092959194509250565b600060208284031215610a3d578081fd5b815161093381610b9f565b73ffffffffffffffffffffffffffffffffffffffff91909116815260200190565b73ffffffffffffffffffffffffffffffffffffffff93841681529183166020808401919091528151841660408401520151909116606082015260800190565b600073ffffffffffffffffffffffffffffffffffffffff808616835260206060818501528551806060860152835b81811015610af257878101830151868201608001528201610ad6565b81811115610b035784608083880101525b509490911660408401525050601f919091017fffffffffffffffffffffffffffffffffffffffffffffffffffffffffffffffe0160160800192915050565b6020808252601c908201527f46756c6c4d6967726174696f6e2f494e56414c49445f53454e44455200000000604082015260600190565b60405181810167ffffffffffffffff81118282101715610b9757600080fd5b604052919050565b73ffffffffffffffffffffffffffffffffffffffff81168114610bc157600080fd5b5056fe608060405234801561001057600080fd5b50600080546001600160a01b03191633179055610d1c806100326000396000f3fe608060405234801561001057600080fd5b50600436106100a35760003560e01c80639ad2674411610076578063bca8c7b51161005b578063bca8c7b514610134578063d39de6e914610154578063f2fde38b14610169576100a3565b80639ad2674414610101578063b918161114610114576100a3565b806342f1181e146100a8578063494503d4146100bd57806370712939146100e65780638da5cb5b146100f9575b600080fd5b6100bb6100b6366004610aa2565b61017c565b005b6100d06100cb366004610b70565b610190565b6040516100dd9190610b98565b60405180910390f35b6100bb6100f4366004610aa2565b6101c4565b6100d061027e565b6100bb61010f366004610b45565b61029a565b610127610122366004610aa2565b6102ac565b6040516100dd9190610c3a565b610147610142366004610ac5565b6102c1565b6040516100dd9190610c45565b61015c610351565b6040516100dd9190610be0565b6100bb610177366004610aa2565b6103c0565b610184610463565b61018d816104ac565b50565b6002818154811061019d57fe5b60009182526020909120015473ffffffffffffffffffffffffffffffffffffffff16905081565b6101cc610463565b73ffffffffffffffffffffffffffffffffffffffff811660009081526001602052604090205460ff1661020a5761020a610205826105dd565b61067c565b60005b60025481101561027a578173ffffffffffffffffffffffffffffffffffffffff166002828154811061023b57fe5b60009182526020909120015473ffffffffffffffffffffffffffffffffffffffff1614156102725761026d8282610684565b61027a565b60010161020d565b5050565b60005473ffffffffffffffffffffffffffffffffffffffff1681565b6102a2610463565b61027a8282610684565b60016020526000908152604090205460ff1681565b60606102cb6108ff565b60008473ffffffffffffffffffffffffffffffffffffffff1684846040516102f4929190610b88565b6000604051808303816000865af19150503d8060008114610331576040519150601f19603f3d011682016040523d82523d6000602084013e610336565b606091505b509250905080610349576103498261067c565b509392505050565b606060028054806020026020016040519081016040528092919081815260200182805480156103b657602002820191906000526020600020905b815473ffffffffffffffffffffffffffffffffffffffff16815260019091019060200180831161038b575b5050505050905090565b6103c8610463565b73ffffffffffffffffffffffffffffffffffffffff81166103f3576103ee610205610922565b61018d565b600080547fffffffffffffffffffffffff00000000000000000000000000000000000000001673ffffffffffffffffffffffffffffffffffffffff83169081178255604051909133917f8be0079c531659141344cd1fd0a4f28419497f9722a3daafe3b4186f6b6457e09190a350565b60005473ffffffffffffffffffffffffffffffffffffffff1633146104aa576000546104aa9061020590339073ffffffffffffffffffffffffffffffffffffffff16610959565b565b73ffffffffffffffffffffffffffffffffffffffff81166104d2576104d26102056109fb565b73ffffffffffffffffffffffffffffffffffffffff811660009081526001602052604090205460ff161561050c5761050c61020582610a32565b73ffffffffffffffffffffffffffffffffffffffff8116600081815260016020819052604080832080547fffffffffffffffffffffffffffffffffffffffffffffffffffffffffffffff00168317905560028054928301815583527f405787fa12a823e0f2b7631cc41b3ba8828b3321ca811111fa75cd3aa3bb5ace90910180547fffffffffffffffffffffffff00000000000000000000000000000000000000001684179055513392917f3147867c59d17e8fa9d522465651d44aae0a9e38f902f3475b97e58072f0ed4c91a350565b606063eb5108a260e01b826040516024016105f89190610b98565b604080517fffffffffffffffffffffffffffffffffffffffffffffffffffffffffffffffe08184030181529190526020810180517bffffffffffffffffffffffffffffffffffffffffffffffffffffffff167fffffffff00000000000000000000000000000000000000000000000000000000909316929092179091529050919050565b805160208201fd5b73ffffffffffffffffffffffffffffffffffffffff821660009081526001602052604090205460ff166106bd576106bd610205836105dd565b60025481106106d8576106d861020582600280549050610a4d565b8173ffffffffffffffffffffffffffffffffffffffff16600282815481106106fc57fe5b60009182526020909120015473ffffffffffffffffffffffffffffffffffffffff161461075e5761075e6102056002838154811061073657fe5b60009182526020909120015473ffffffffffffffffffffffffffffffffffffffff1684610a6a565b73ffffffffffffffffffffffffffffffffffffffff8216600090815260016020526040902080547fffffffffffffffffffffffffffffffffffffffffffffffffffffffffffffff00169055600280547fffffffffffffffffffffffffffffffffffffffffffffffffffffffffffffffff81019081106107d957fe5b6000918252602090912001546002805473ffffffffffffffffffffffffffffffffffffffff909216918390811061080c57fe5b9060005260206000200160006101000a81548173ffffffffffffffffffffffffffffffffffffffff021916908373ffffffffffffffffffffffffffffffffffffffff160217905550600280548061085f57fe5b60008281526020812082017fffffffffffffffffffffffffffffffffffffffffffffffffffffffffffffffff90810180547fffffffffffffffffffffffff0000000000000000000000000000000000000000169055909101909155604051339173ffffffffffffffffffffffffffffffffffffffff8516917f1f32c1b084e2de0713b8fb16bd46bb9df710a3dbeae2f3ca93af46e016dcc6b09190a35050565b3360009081526001602052604090205460ff166104aa576104aa61020533610a87565b60408051808201909152600481527fe69edc3e00000000000000000000000000000000000000000000000000000000602082015290565b6060631de45ad160e01b8383604051602401610976929190610bb9565b604080517fffffffffffffffffffffffffffffffffffffffffffffffffffffffffffffffe08184030181529190526020810180517bffffffffffffffffffffffffffffffffffffffffffffffffffffffff167fffffffff0000000000000000000000000000000000000000000000000000000090931692909217909152905092915050565b60408051808201909152600481527f57654fe400000000000000000000000000000000000000000000000000000000602082015290565b606063de16f1a060e01b826040516024016105f89190610b98565b606063e9f8377160e01b8383604051602401610976929190610cb6565b606063140a84db60e01b8383604051602401610976929190610bb9565b606063b65a25b960e01b826040516024016105f89190610b98565b600060208284031215610ab3578081fd5b8135610abe81610cc4565b9392505050565b600080600060408486031215610ad9578182fd5b8335610ae481610cc4565b9250602084013567ffffffffffffffff80821115610b00578384fd5b818601915086601f830112610b13578384fd5b813581811115610b21578485fd5b876020828501011115610b32578485fd5b6020830194508093505050509250925092565b60008060408385031215610b57578182fd5b8235610b6281610cc4565b946020939093013593505050565b600060208284031215610b81578081fd5b5035919050565b6000828483379101908152919050565b73ffffffffffffffffffffffffffffffffffffffff91909116815260200190565b73ffffffffffffffffffffffffffffffffffffffff92831681529116602082015260400190565b6020808252825182820181905260009190848201906040850190845b81811015610c2e57835173ffffffffffffffffffffffffffffffffffffffff1683529284019291840191600101610bfc565b50909695505050505050565b901515815260200190565b6000602080835283518082850152825b81811015610c7157858101830151858201604001528201610c55565b81811115610c825783604083870101525b50601f017fffffffffffffffffffffffffffffffffffffffffffffffffffffffffffffffe016929092016040019392505050565b918252602082015260400190565b73ffffffffffffffffffffffffffffffffffffffff8116811461018d57600080fdfea2646970667358221220c65c269172307c3233f41d02063dd36016fa933e6b4e9ff0e9ffda27b61fa40764736f6c634300060c0033a26469706673582212205591f8acbb72bf9612d309182958bffba1711f51d33f8fc577af71b6c80c349164736f6c634300060c003360c060405234801561001057600080fd5b50604051610afa380380610afa83398101604081905261002f9161004c565b6001600160601b0319606091821b1660805230901b60a05261007a565b60006020828403121561005d578081fd5b81516001600160a01b0381168114610073578182fd5b9392505050565b60805160601c60a05160601c610a526100a8600039806104cf5250806102aa52806102e65250610a526000f3fe608060405234801561001057600080fd5b506004361061004c5760003560e01c806308cf7934146100515780635f136a4a1461007a578063a23ce6ce1461008f578063c9353cb5146100a2575b600080fd5b61006461005f3660046107c6565b6100b7565b604051610071919061091f565b60405180910390f35b6100826102a8565b6040516100719190610857565b61008261009d36600461077f565b6102cc565b6100b56100b036600461075c565b6104b7565b005b80516040805160048152602481019091526020810180517bffffffffffffffffffffffffffffffffffffffffffffffffffffffff167ffb969b0a0000000000000000000000000000000000000000000000000000000017905260009161011c9161053f565b60208083015160408051600481526024810190915291820180517bffffffffffffffffffffffffffffffffffffffffffffffffffffffff167ffb969b0a000000000000000000000000000000000000000000000000000000001790526101819161053f565b6040517f9db64a400000000000000000000000000000000000000000000000000000000081523090639db64a40906101e0907f0ee8be1b000000000000000000000000000000000000000000000000000000009060009060040161094c565b600060405180830381600087803b1580156101fa57600080fd5b505af115801561020e573d6000803e3d6000fd5b50506040517ff2fde38b00000000000000000000000000000000000000000000000000000000815230925063f2fde38b915061024e908690600401610857565b600060405180830381600087803b15801561026857600080fd5b505af115801561027c573d6000803e3d6000fd5b507fd150751b000000000000000000000000000000000000000000000000000000009695505050505050565b7f000000000000000000000000000000000000000000000000000000000000000081565b60003373ffffffffffffffffffffffffffffffffffffffff7f00000000000000000000000000000000000000000000000000000000000000001614610346576040517f08c379a000000000000000000000000000000000000000000000000000000000815260040161033d90610994565b60405180910390fd5b8273ffffffffffffffffffffffffffffffffffffffff166373f208d5306308cf793460e01b878660405160240161037e929190610878565b604080517fffffffffffffffffffffffffffffffffffffffffffffffffffffffffffffffe08184030181529181526020820180517bffffffffffffffffffffffffffffffffffffffffffffffffffffffff167fffffffff000000000000000000000000000000000000000000000000000000009485161790525160e085901b909216825261040f92916004016108b1565b600060405180830381600087803b15801561042957600080fd5b505af115801561043d573d6000803e3d6000fd5b50506040517fc9353cb500000000000000000000000000000000000000000000000000000000815230925063c9353cb5915061047d908790600401610857565b600060405180830381600087803b15801561049757600080fd5b505af11580156104ab573d6000803e3d6000fd5b50949695505050505050565b3373ffffffffffffffffffffffffffffffffffffffff7f00000000000000000000000000000000000000000000000000000000000000001614610526576040517f08c379a000000000000000000000000000000000000000000000000000000000815260040161033d90610994565b8073ffffffffffffffffffffffffffffffffffffffff16ff5b600060608373ffffffffffffffffffffffffffffffffffffffff1683604051610568919061083b565b600060405180830381855af49150503d80600081146105a3576040519150601f19603f3d011682016040523d82523d6000602084013e6105a8565b606091505b50915091508115806105bc57508051602014155b8061061e575080517fd150751b00000000000000000000000000000000000000000000000000000000906105f990830160209081019084016107fb565b7fffffffff000000000000000000000000000000000000000000000000000000001614155b1561063557610635610630858361063b565b6106f6565b50505050565b60607fd19d65df6830e3cb0da1e12b8e9738e2dc473f830d8af813bcc031eb5a1675d183836040516024016106719291906108b1565b604080517fffffffffffffffffffffffffffffffffffffffffffffffffffffffffffffffe08184030181529190526020810180517bffffffffffffffffffffffffffffffffffffffffffffffffffffffff167fffffffff0000000000000000000000000000000000000000000000000000000090931692909217909152905092915050565b805160208201fd5b60006040828403121561070f578081fd5b6040516040810181811067ffffffffffffffff8211171561072e578283fd5b604052905080823561073f816109f7565b8152602083013561074f816109f7565b6020919091015292915050565b60006020828403121561076d578081fd5b8135610778816109f7565b9392505050565b600080600060808486031215610793578182fd5b833561079e816109f7565b925060208401356107ae816109f7565b91506107bd85604086016106fe565b90509250925092565b600080606083850312156107d8578182fd5b82356107e3816109f7565b91506107f284602085016106fe565b90509250929050565b60006020828403121561080c578081fd5b81517fffffffff0000000000000000000000000000000000000000000000000000000081168114610778578182fd5b6000825161084d8184602087016109cb565b9190910192915050565b73ffffffffffffffffffffffffffffffffffffffff91909116815260200190565b73ffffffffffffffffffffffffffffffffffffffff92831681528151831660208083019190915290910151909116604082015260600190565b600073ffffffffffffffffffffffffffffffffffffffff841682526040602083015282518060408401526108ec8160608501602087016109cb565b601f017fffffffffffffffffffffffffffffffffffffffffffffffffffffffffffffffe016919091016060019392505050565b7fffffffff0000000000000000000000000000000000000000000000000000000091909116815260200190565b7fffffffff0000000000000000000000000000000000000000000000000000000092909216825273ffffffffffffffffffffffffffffffffffffffff16602082015260400190565b6020808252601f908201527f496e697469616c4d6967726174696f6e2f494e56414c49445f53454e44455200604082015260600190565b60005b838110156109e65781810151838201526020016109ce565b838111156106355750506000910152565b73ffffffffffffffffffffffffffffffffffffffff81168114610a1957600080fd5b5056fea2646970667358221220a16f740e3543e464fb7b9ec07ebb663ade6c4e8e73c8add2a24ea1b0d4d96f6664736f6c634300060c0033",
                "opcodes": "PUSH1 0xA0 PUSH1 0x40 MSTORE CALLVALUE DUP1 ISZERO PUSH2 0x10 JUMPI PUSH1 0x0 DUP1 REVERT JUMPDEST POP PUSH1 0x40 MLOAD PUSH2 0x2552 CODESIZE SUB DUP1 PUSH2 0x2552 DUP4 CODECOPY DUP2 ADD PUSH1 0x40 DUP2 SWAP1 MSTORE PUSH2 0x2F SWAP2 PUSH2 0xAD JUMP JUMPDEST PUSH1 0x1 PUSH1 0x1 PUSH1 0x60 SHL SUB NOT PUSH1 0x60 DUP3 SWAP1 SHL AND PUSH1 0x80 MSTORE PUSH1 0x40 MLOAD DUP2 SWAP1 ADDRESS SWAP1 PUSH2 0x51 SWAP1 PUSH2 0xA0 JUMP JUMPDEST PUSH2 0x5B SWAP2 SWAP1 PUSH2 0xDB JUMP JUMPDEST PUSH1 0x40 MLOAD DUP1 SWAP2 SUB SWAP1 PUSH1 0x0 CREATE DUP1 ISZERO DUP1 ISZERO PUSH2 0x77 JUMPI RETURNDATASIZE PUSH1 0x0 DUP1 RETURNDATACOPY RETURNDATASIZE PUSH1 0x0 REVERT JUMPDEST POP PUSH1 0x0 DUP1 SLOAD PUSH1 0x1 PUSH1 0x1 PUSH1 0xA0 SHL SUB NOT AND PUSH1 0x1 PUSH1 0x1 PUSH1 0xA0 SHL SUB SWAP3 SWAP1 SWAP3 AND SWAP2 SWAP1 SWAP2 OR SWAP1 SSTORE POP PUSH2 0xEF SWAP1 POP JUMP JUMPDEST PUSH2 0xAFA DUP1 PUSH2 0x1A58 DUP4 CODECOPY ADD SWAP1 JUMP JUMPDEST PUSH1 0x0 PUSH1 0x20 DUP3 DUP5 SUB SLT ISZERO PUSH2 0xBE JUMPI DUP1 DUP2 REVERT JUMPDEST DUP2 MLOAD PUSH1 0x1 PUSH1 0x1 PUSH1 0xA0 SHL SUB DUP2 AND DUP2 EQ PUSH2 0xD4 JUMPI DUP2 DUP3 REVERT JUMPDEST SWAP4 SWAP3 POP POP POP JUMP JUMPDEST PUSH1 0x1 PUSH1 0x1 PUSH1 0xA0 SHL SUB SWAP2 SWAP1 SWAP2 AND DUP2 MSTORE PUSH1 0x20 ADD SWAP1 JUMP JUMPDEST PUSH1 0x80 MLOAD PUSH1 0x60 SHR PUSH2 0x1948 PUSH2 0x110 PUSH1 0x0 CODECOPY DUP1 PUSH1 0xDC MSTORE DUP1 PUSH2 0x30D MSTORE POP PUSH2 0x1948 PUSH1 0x0 RETURN INVALID PUSH1 0x80 PUSH1 0x40 MSTORE CALLVALUE DUP1 ISZERO PUSH2 0x10 JUMPI PUSH1 0x0 DUP1 REVERT JUMPDEST POP PUSH1 0x4 CALLDATASIZE LT PUSH2 0x67 JUMPI PUSH1 0x0 CALLDATALOAD PUSH1 0xE0 SHR DUP1 PUSH4 0x9B7E25A9 GT PUSH2 0x50 JUMPI DUP1 PUSH4 0x9B7E25A9 EQ PUSH2 0x9D JUMPI DUP1 PUSH4 0xB3D31735 EQ PUSH2 0xA5 JUMPI DUP1 PUSH4 0xC9353CB5 EQ PUSH2 0xAD JUMPI PUSH2 0x67 JUMP JUMPDEST DUP1 PUSH4 0x329798A4 EQ PUSH2 0x6C JUMPI DUP1 PUSH4 0x5F136A4A EQ PUSH2 0x95 JUMPI JUMPDEST PUSH1 0x0 DUP1 REVERT JUMPDEST PUSH2 0x7F PUSH2 0x7A CALLDATASIZE PUSH1 0x4 PUSH2 0x93A JUMP JUMPDEST PUSH2 0xC2 JUMP JUMPDEST PUSH1 0x40 MLOAD PUSH2 0x8C SWAP2 SWAP1 PUSH2 0xA48 JUMP JUMPDEST PUSH1 0x40 MLOAD DUP1 SWAP2 SUB SWAP1 RETURN JUMPDEST PUSH2 0x7F PUSH2 0x30B JUMP JUMPDEST PUSH2 0x7F PUSH2 0x32F JUMP JUMPDEST PUSH2 0x7F PUSH2 0x34B JUMP JUMPDEST PUSH2 0xC0 PUSH2 0xBB CALLDATASIZE PUSH1 0x4 PUSH2 0x917 JUMP JUMPDEST PUSH2 0x367 JUMP JUMPDEST STOP JUMPDEST PUSH1 0x0 CALLER PUSH20 0xFFFFFFFFFFFFFFFFFFFFFFFFFFFFFFFFFFFFFFFF PUSH32 0x0 AND EQ PUSH2 0x13C JUMPI PUSH1 0x40 MLOAD PUSH32 0x8C379A000000000000000000000000000000000000000000000000000000000 DUP2 MSTORE PUSH1 0x4 ADD PUSH2 0x133 SWAP1 PUSH2 0xB41 JUMP JUMPDEST PUSH1 0x40 MLOAD DUP1 SWAP2 SUB SWAP1 REVERT JUMPDEST PUSH1 0x0 SLOAD PUSH1 0x40 DUP1 MLOAD DUP1 DUP3 ADD DUP3 MSTORE DUP6 MLOAD PUSH20 0xFFFFFFFFFFFFFFFFFFFFFFFFFFFFFFFFFFFFFFFF SWAP1 DUP2 AND DUP3 MSTORE PUSH1 0x20 DUP1 DUP9 ADD MLOAD DUP3 AND SWAP1 DUP4 ADD MSTORE SWAP2 MLOAD PUSH32 0xA23CE6CE00000000000000000000000000000000000000000000000000000000 DUP2 MSTORE SWAP2 SWAP1 SWAP3 AND SWAP2 PUSH4 0xA23CE6CE SWAP2 PUSH2 0x1B1 SWAP2 ADDRESS SWAP2 DUP10 SWAP2 SWAP1 PUSH1 0x4 ADD PUSH2 0xA69 JUMP JUMPDEST PUSH1 0x20 PUSH1 0x40 MLOAD DUP1 DUP4 SUB DUP2 PUSH1 0x0 DUP8 DUP1 EXTCODESIZE ISZERO DUP1 ISZERO PUSH2 0x1CB JUMPI PUSH1 0x0 DUP1 REVERT JUMPDEST POP GAS CALL ISZERO DUP1 ISZERO PUSH2 0x1DF JUMPI RETURNDATASIZE PUSH1 0x0 DUP1 RETURNDATACOPY RETURNDATASIZE PUSH1 0x0 REVERT JUMPDEST POP POP POP POP PUSH1 0x40 MLOAD RETURNDATASIZE PUSH1 0x1F NOT PUSH1 0x1F DUP3 ADD AND DUP3 ADD DUP1 PUSH1 0x40 MSTORE POP DUP2 ADD SWAP1 PUSH2 0x203 SWAP2 SWAP1 PUSH2 0xA2C JUMP JUMPDEST POP PUSH2 0x210 DUP5 DUP7 DUP6 DUP6 PUSH2 0x3AE JUMP JUMPDEST PUSH1 0x40 MLOAD PUSH32 0xF2FDE38B00000000000000000000000000000000000000000000000000000000 DUP2 MSTORE PUSH20 0xFFFFFFFFFFFFFFFFFFFFFFFFFFFFFFFFFFFFFFFF DUP6 AND SWAP1 PUSH4 0xF2FDE38B SWAP1 PUSH2 0x262 SWAP1 DUP9 SWAP1 PUSH1 0x4 ADD PUSH2 0xA48 JUMP JUMPDEST PUSH1 0x0 PUSH1 0x40 MLOAD DUP1 DUP4 SUB DUP2 PUSH1 0x0 DUP8 DUP1 EXTCODESIZE ISZERO DUP1 ISZERO PUSH2 0x27C JUMPI PUSH1 0x0 DUP1 REVERT JUMPDEST POP GAS CALL ISZERO DUP1 ISZERO PUSH2 0x290 JUMPI RETURNDATASIZE PUSH1 0x0 DUP1 RETURNDATACOPY RETURNDATASIZE PUSH1 0x0 REVERT JUMPDEST POP POP PUSH1 0x40 MLOAD PUSH32 0xC9353CB500000000000000000000000000000000000000000000000000000000 DUP2 MSTORE ADDRESS SWAP3 POP PUSH4 0xC9353CB5 SWAP2 POP PUSH2 0x2D0 SWAP1 DUP9 SWAP1 PUSH1 0x4 ADD PUSH2 0xA48 JUMP JUMPDEST PUSH1 0x0 PUSH1 0x40 MLOAD DUP1 DUP4 SUB DUP2 PUSH1 0x0 DUP8 DUP1 EXTCODESIZE ISZERO DUP1 ISZERO PUSH2 0x2EA JUMPI PUSH1 0x0 DUP1 REVERT JUMPDEST POP GAS CALL ISZERO DUP1 ISZERO PUSH2 0x2FE JUMPI RETURNDATASIZE PUSH1 0x0 DUP1 RETURNDATACOPY RETURNDATASIZE PUSH1 0x0 REVERT JUMPDEST POP SWAP6 SWAP8 SWAP7 POP POP POP POP POP POP POP JUMP JUMPDEST PUSH32 0x0 DUP2 JUMP JUMPDEST PUSH1 0x1 SLOAD PUSH20 0xFFFFFFFFFFFFFFFFFFFFFFFFFFFFFFFFFFFFFFFF AND DUP2 JUMP JUMPDEST PUSH1 0x0 SLOAD PUSH20 0xFFFFFFFFFFFFFFFFFFFFFFFFFFFFFFFFFFFFFFFF AND SWAP1 JUMP JUMPDEST PUSH1 0x1 DUP1 SLOAD PUSH32 0xFFFFFFFFFFFFFFFFFFFFFFFF0000000000000000000000000000000000000000 AND PUSH20 0xFFFFFFFFFFFFFFFFFFFFFFFFFFFFFFFFFFFFFFFF SWAP3 SWAP1 SWAP3 AND SWAP2 SWAP1 SWAP2 OR SWAP1 SSTORE JUMP JUMPDEST PUSH1 0x40 MLOAD DUP5 SWAP1 PUSH1 0x0 SWAP1 PUSH2 0x3BF SWAP1 PUSH2 0x8C9 JUMP JUMPDEST PUSH1 0x40 MLOAD DUP1 SWAP2 SUB SWAP1 PUSH1 0x0 CREATE DUP1 ISZERO DUP1 ISZERO PUSH2 0x3DB JUMPI RETURNDATASIZE PUSH1 0x0 DUP1 RETURNDATACOPY RETURNDATASIZE PUSH1 0x0 REVERT JUMPDEST POP PUSH1 0x40 MLOAD PUSH32 0x42F1181E00000000000000000000000000000000000000000000000000000000 DUP2 MSTORE SWAP1 SWAP2 POP PUSH20 0xFFFFFFFFFFFFFFFFFFFFFFFFFFFFFFFFFFFFFFFF DUP3 AND SWAP1 PUSH4 0x42F1181E SWAP1 PUSH2 0x431 SWAP1 DUP10 SWAP1 PUSH1 0x4 ADD PUSH2 0xA48 JUMP JUMPDEST PUSH1 0x0 PUSH1 0x40 MLOAD DUP1 DUP4 SUB DUP2 PUSH1 0x0 DUP8 DUP1 EXTCODESIZE ISZERO DUP1 ISZERO PUSH2 0x44B JUMPI PUSH1 0x0 DUP1 REVERT JUMPDEST POP GAS CALL ISZERO DUP1 ISZERO PUSH2 0x45F JUMPI RETURNDATASIZE PUSH1 0x0 DUP1 RETURNDATACOPY RETURNDATASIZE PUSH1 0x0 REVERT JUMPDEST POP POP PUSH1 0x40 MLOAD PUSH32 0xF2FDE38B00000000000000000000000000000000000000000000000000000000 DUP2 MSTORE PUSH20 0xFFFFFFFFFFFFFFFFFFFFFFFFFFFFFFFFFFFFFFFF DUP5 AND SWAP3 POP PUSH4 0xF2FDE38B SWAP2 POP PUSH2 0x4B5 SWAP1 DUP9 SWAP1 PUSH1 0x4 ADD PUSH2 0xA48 JUMP JUMPDEST PUSH1 0x0 PUSH1 0x40 MLOAD DUP1 DUP4 SUB DUP2 PUSH1 0x0 DUP8 DUP1 EXTCODESIZE ISZERO DUP1 ISZERO PUSH2 0x4CF JUMPI PUSH1 0x0 DUP1 REVERT JUMPDEST POP GAS CALL ISZERO DUP1 ISZERO PUSH2 0x4E3 JUMPI RETURNDATASIZE PUSH1 0x0 DUP1 RETURNDATACOPY RETURNDATASIZE PUSH1 0x0 REVERT JUMPDEST POP POP POP POP DUP2 PUSH20 0xFFFFFFFFFFFFFFFFFFFFFFFFFFFFFFFFFFFFFFFF AND PUSH4 0x261FE679 DUP6 PUSH1 0x40 ADD MLOAD PUSH4 0xCE5494BB PUSH1 0xE0 SHL DUP5 PUSH1 0x40 MLOAD PUSH1 0x24 ADD PUSH2 0x521 SWAP2 SWAP1 PUSH2 0xA48 JUMP JUMPDEST PUSH1 0x40 DUP1 MLOAD PUSH32 0xFFFFFFFFFFFFFFFFFFFFFFFFFFFFFFFFFFFFFFFFFFFFFFFFFFFFFFFFFFFFFFE0 DUP2 DUP5 SUB ADD DUP2 MSTORE SWAP2 DUP2 MSTORE PUSH1 0x20 DUP3 ADD DUP1 MLOAD PUSH28 0xFFFFFFFFFFFFFFFFFFFFFFFFFFFFFFFFFFFFFFFFFFFFFFFFFFFFFFFF AND PUSH32 0xFFFFFFFF00000000000000000000000000000000000000000000000000000000 SWAP5 DUP6 AND OR SWAP1 MSTORE MLOAD PUSH1 0xE0 DUP6 SWAP1 SHL SWAP1 SWAP3 AND DUP3 MSTORE PUSH2 0x5B4 SWAP3 SWAP2 ADDRESS SWAP1 PUSH1 0x4 ADD PUSH2 0xAA8 JUMP JUMPDEST PUSH1 0x0 PUSH1 0x40 MLOAD DUP1 DUP4 SUB DUP2 PUSH1 0x0 DUP8 DUP1 EXTCODESIZE ISZERO DUP1 ISZERO PUSH2 0x5CE JUMPI PUSH1 0x0 DUP1 REVERT JUMPDEST POP GAS CALL ISZERO DUP1 ISZERO PUSH2 0x5E2 JUMPI RETURNDATASIZE PUSH1 0x0 DUP1 RETURNDATACOPY RETURNDATASIZE PUSH1 0x0 REVERT JUMPDEST POP POP POP PUSH1 0x60 DUP6 ADD MLOAD DUP5 MLOAD PUSH1 0x40 MLOAD PUSH20 0xFFFFFFFFFFFFFFFFFFFFFFFFFFFFFFFFFFFFFFFF DUP7 AND SWAP5 POP PUSH4 0x261FE679 SWAP4 POP PUSH32 0xCE5494BB00000000000000000000000000000000000000000000000000000000 SWAP2 PUSH2 0x63D SWAP2 PUSH1 0x24 ADD PUSH2 0xA48 JUMP JUMPDEST PUSH1 0x40 DUP1 MLOAD PUSH32 0xFFFFFFFFFFFFFFFFFFFFFFFFFFFFFFFFFFFFFFFFFFFFFFFFFFFFFFFFFFFFFFE0 DUP2 DUP5 SUB ADD DUP2 MSTORE SWAP2 DUP2 MSTORE PUSH1 0x20 DUP3 ADD DUP1 MLOAD PUSH28 0xFFFFFFFFFFFFFFFFFFFFFFFFFFFFFFFFFFFFFFFFFFFFFFFFFFFFFFFF AND PUSH32 0xFFFFFFFF00000000000000000000000000000000000000000000000000000000 SWAP5 DUP6 AND OR SWAP1 MSTORE MLOAD PUSH1 0xE0 DUP6 SWAP1 SHL SWAP1 SWAP3 AND DUP3 MSTORE PUSH2 0x6D0 SWAP3 SWAP2 ADDRESS SWAP1 PUSH1 0x4 ADD PUSH2 0xAA8 JUMP JUMPDEST PUSH1 0x0 PUSH1 0x40 MLOAD DUP1 DUP4 SUB DUP2 PUSH1 0x0 DUP8 DUP1 EXTCODESIZE ISZERO DUP1 ISZERO PUSH2 0x6EA JUMPI PUSH1 0x0 DUP1 REVERT JUMPDEST POP GAS CALL ISZERO DUP1 ISZERO PUSH2 0x6FE JUMPI RETURNDATASIZE PUSH1 0x0 DUP1 RETURNDATACOPY RETURNDATASIZE PUSH1 0x0 REVERT JUMPDEST POP POP POP PUSH1 0x80 DUP5 ADD MLOAD PUSH1 0x40 DUP1 MLOAD PUSH1 0x4 DUP1 DUP3 MSTORE PUSH1 0x24 DUP3 ADD DUP4 MSTORE PUSH1 0x20 DUP3 ADD DUP1 MLOAD PUSH28 0xFFFFFFFFFFFFFFFFFFFFFFFFFFFFFFFFFFFFFFFFFFFFFFFFFFFFFFFF AND PUSH32 0x8FD3AB8000000000000000000000000000000000000000000000000000000000 OR SWAP1 MSTORE SWAP2 MLOAD PUSH32 0x261FE67900000000000000000000000000000000000000000000000000000000 DUP2 MSTORE PUSH20 0xFFFFFFFFFFFFFFFFFFFFFFFFFFFFFFFFFFFFFFFF DUP7 AND SWAP5 POP PUSH4 0x261FE679 SWAP4 PUSH2 0x7B0 SWAP4 SWAP1 SWAP3 SWAP2 ADDRESS SWAP2 ADD PUSH2 0xAA8 JUMP JUMPDEST PUSH1 0x0 PUSH1 0x40 MLOAD DUP1 DUP4 SUB DUP2 PUSH1 0x0 DUP8 DUP1 EXTCODESIZE ISZERO DUP1 ISZERO PUSH2 0x7CA JUMPI PUSH1 0x0 DUP1 REVERT JUMPDEST POP GAS CALL ISZERO DUP1 ISZERO PUSH2 0x7DE JUMPI RETURNDATASIZE PUSH1 0x0 DUP1 RETURNDATACOPY RETURNDATASIZE PUSH1 0x0 REVERT JUMPDEST POP POP POP PUSH1 0xA0 DUP5 ADD MLOAD PUSH1 0x40 DUP1 MLOAD PUSH1 0x4 DUP1 DUP3 MSTORE PUSH1 0x24 DUP3 ADD DUP4 MSTORE PUSH1 0x20 DUP3 ADD DUP1 MLOAD PUSH28 0xFFFFFFFFFFFFFFFFFFFFFFFFFFFFFFFFFFFFFFFFFFFFFFFFFFFFFFFF AND PUSH32 0x8FD3AB8000000000000000000000000000000000000000000000000000000000 OR SWAP1 MSTORE SWAP2 MLOAD PUSH32 0x261FE67900000000000000000000000000000000000000000000000000000000 DUP2 MSTORE PUSH20 0xFFFFFFFFFFFFFFFFFFFFFFFFFFFFFFFFFFFFFFFF DUP7 AND SWAP5 POP PUSH4 0x261FE679 SWAP4 PUSH2 0x890 SWAP4 SWAP1 SWAP3 SWAP2 ADDRESS SWAP2 ADD PUSH2 0xAA8 JUMP JUMPDEST PUSH1 0x0 PUSH1 0x40 MLOAD DUP1 DUP4 SUB DUP2 PUSH1 0x0 DUP8 DUP1 EXTCODESIZE ISZERO DUP1 ISZERO PUSH2 0x8AA JUMPI PUSH1 0x0 DUP1 REVERT JUMPDEST POP GAS CALL ISZERO DUP1 ISZERO PUSH2 0x8BE JUMPI RETURNDATASIZE PUSH1 0x0 DUP1 RETURNDATACOPY RETURNDATASIZE PUSH1 0x0 REVERT JUMPDEST POP POP POP POP POP POP POP POP POP JUMP JUMPDEST PUSH2 0xD4E DUP1 PUSH2 0xBC5 DUP4 CODECOPY ADD SWAP1 JUMP JUMPDEST DUP1 CALLDATALOAD PUSH2 0x8E1 DUP2 PUSH2 0xB9F JUMP JUMPDEST SWAP3 SWAP2 POP POP JUMP JUMPDEST PUSH1 0x0 PUSH1 0x20 DUP3 DUP5 SUB SLT ISZERO PUSH2 0x8F8 JUMPI DUP1 DUP2 REVERT JUMPDEST PUSH2 0x902 PUSH1 0x20 PUSH2 0xB78 JUMP JUMPDEST SWAP1 POP DUP2 CALLDATALOAD PUSH2 0x90F DUP2 PUSH2 0xB9F JUMP JUMPDEST DUP2 MSTORE SWAP3 SWAP2 POP POP JUMP JUMPDEST PUSH1 0x0 PUSH1 0x20 DUP3 DUP5 SUB SLT ISZERO PUSH2 0x928 JUMPI DUP1 DUP2 REVERT JUMPDEST DUP2 CALLDATALOAD PUSH2 0x933 DUP2 PUSH2 0xB9F JUMP JUMPDEST SWAP4 SWAP3 POP POP POP JUMP JUMPDEST PUSH1 0x0 DUP1 PUSH1 0x0 DUP1 DUP5 DUP7 SUB PUSH2 0x120 DUP2 SLT ISZERO PUSH2 0x951 JUMPI DUP4 DUP5 REVERT JUMPDEST DUP6 CALLDATALOAD PUSH2 0x95C DUP2 PUSH2 0xB9F JUMP JUMPDEST SWAP5 POP PUSH1 0x20 DUP7 ADD CALLDATALOAD PUSH2 0x96C DUP2 PUSH2 0xB9F JUMP JUMPDEST SWAP4 POP PUSH1 0xC0 PUSH32 0xFFFFFFFFFFFFFFFFFFFFFFFFFFFFFFFFFFFFFFFFFFFFFFFFFFFFFFFFFFFFFFC0 DUP3 ADD SLT ISZERO PUSH2 0x99D JUMPI DUP3 DUP4 REVERT JUMPDEST POP PUSH2 0x9A8 PUSH1 0xC0 PUSH2 0xB78 JUMP JUMPDEST PUSH2 0x9B5 DUP8 PUSH1 0x40 DUP9 ADD PUSH2 0x8D6 JUMP JUMPDEST DUP2 MSTORE PUSH2 0x9C4 DUP8 PUSH1 0x60 DUP9 ADD PUSH2 0x8D6 JUMP JUMPDEST PUSH1 0x20 DUP3 ADD MSTORE PUSH2 0x9D6 DUP8 PUSH1 0x80 DUP9 ADD PUSH2 0x8D6 JUMP JUMPDEST PUSH1 0x40 DUP3 ADD MSTORE PUSH2 0x9E8 DUP8 PUSH1 0xA0 DUP9 ADD PUSH2 0x8D6 JUMP JUMPDEST PUSH1 0x60 DUP3 ADD MSTORE PUSH2 0x9FA DUP8 PUSH1 0xC0 DUP9 ADD PUSH2 0x8D6 JUMP JUMPDEST PUSH1 0x80 DUP3 ADD MSTORE PUSH2 0xA0C DUP8 PUSH1 0xE0 DUP9 ADD PUSH2 0x8D6 JUMP JUMPDEST PUSH1 0xA0 DUP3 ADD MSTORE SWAP2 POP PUSH2 0xA21 DUP7 PUSH2 0x100 DUP8 ADD PUSH2 0x8E7 JUMP JUMPDEST SWAP1 POP SWAP3 SWAP6 SWAP2 SWAP5 POP SWAP3 POP JUMP JUMPDEST PUSH1 0x0 PUSH1 0x20 DUP3 DUP5 SUB SLT ISZERO PUSH2 0xA3D JUMPI DUP1 DUP2 REVERT JUMPDEST DUP2 MLOAD PUSH2 0x933 DUP2 PUSH2 0xB9F JUMP JUMPDEST PUSH20 0xFFFFFFFFFFFFFFFFFFFFFFFFFFFFFFFFFFFFFFFF SWAP2 SWAP1 SWAP2 AND DUP2 MSTORE PUSH1 0x20 ADD SWAP1 JUMP JUMPDEST PUSH20 0xFFFFFFFFFFFFFFFFFFFFFFFFFFFFFFFFFFFFFFFF SWAP4 DUP5 AND DUP2 MSTORE SWAP2 DUP4 AND PUSH1 0x20 DUP1 DUP5 ADD SWAP2 SWAP1 SWAP2 MSTORE DUP2 MLOAD DUP5 AND PUSH1 0x40 DUP5 ADD MSTORE ADD MLOAD SWAP1 SWAP2 AND PUSH1 0x60 DUP3 ADD MSTORE PUSH1 0x80 ADD SWAP1 JUMP JUMPDEST PUSH1 0x0 PUSH20 0xFFFFFFFFFFFFFFFFFFFFFFFFFFFFFFFFFFFFFFFF DUP1 DUP7 AND DUP4 MSTORE PUSH1 0x20 PUSH1 0x60 DUP2 DUP6 ADD MSTORE DUP6 MLOAD DUP1 PUSH1 0x60 DUP7 ADD MSTORE DUP4 JUMPDEST DUP2 DUP2 LT ISZERO PUSH2 0xAF2 JUMPI DUP8 DUP2 ADD DUP4 ADD MLOAD DUP7 DUP3 ADD PUSH1 0x80 ADD MSTORE DUP3 ADD PUSH2 0xAD6 JUMP JUMPDEST DUP2 DUP2 GT ISZERO PUSH2 0xB03 JUMPI DUP5 PUSH1 0x80 DUP4 DUP9 ADD ADD MSTORE JUMPDEST POP SWAP5 SWAP1 SWAP2 AND PUSH1 0x40 DUP5 ADD MSTORE POP POP PUSH1 0x1F SWAP2 SWAP1 SWAP2 ADD PUSH32 0xFFFFFFFFFFFFFFFFFFFFFFFFFFFFFFFFFFFFFFFFFFFFFFFFFFFFFFFFFFFFFFE0 AND ADD PUSH1 0x80 ADD SWAP3 SWAP2 POP POP JUMP JUMPDEST PUSH1 0x20 DUP1 DUP3 MSTORE PUSH1 0x1C SWAP1 DUP3 ADD MSTORE PUSH32 0x46756C6C4D6967726174696F6E2F494E56414C49445F53454E44455200000000 PUSH1 0x40 DUP3 ADD MSTORE PUSH1 0x60 ADD SWAP1 JUMP JUMPDEST PUSH1 0x40 MLOAD DUP2 DUP2 ADD PUSH8 0xFFFFFFFFFFFFFFFF DUP2 GT DUP3 DUP3 LT OR ISZERO PUSH2 0xB97 JUMPI PUSH1 0x0 DUP1 REVERT JUMPDEST PUSH1 0x40 MSTORE SWAP2 SWAP1 POP JUMP JUMPDEST PUSH20 0xFFFFFFFFFFFFFFFFFFFFFFFFFFFFFFFFFFFFFFFF DUP2 AND DUP2 EQ PUSH2 0xBC1 JUMPI PUSH1 0x0 DUP1 REVERT JUMPDEST POP JUMP INVALID PUSH1 0x80 PUSH1 0x40 MSTORE CALLVALUE DUP1 ISZERO PUSH2 0x10 JUMPI PUSH1 0x0 DUP1 REVERT JUMPDEST POP PUSH1 0x0 DUP1 SLOAD PUSH1 0x1 PUSH1 0x1 PUSH1 0xA0 SHL SUB NOT AND CALLER OR SWAP1 SSTORE PUSH2 0xD1C DUP1 PUSH2 0x32 PUSH1 0x0 CODECOPY PUSH1 0x0 RETURN INVALID PUSH1 0x80 PUSH1 0x40 MSTORE CALLVALUE DUP1 ISZERO PUSH2 0x10 JUMPI PUSH1 0x0 DUP1 REVERT JUMPDEST POP PUSH1 0x4 CALLDATASIZE LT PUSH2 0xA3 JUMPI PUSH1 0x0 CALLDATALOAD PUSH1 0xE0 SHR DUP1 PUSH4 0x9AD26744 GT PUSH2 0x76 JUMPI DUP1 PUSH4 0xBCA8C7B5 GT PUSH2 0x5B JUMPI DUP1 PUSH4 0xBCA8C7B5 EQ PUSH2 0x134 JUMPI DUP1 PUSH4 0xD39DE6E9 EQ PUSH2 0x154 JUMPI DUP1 PUSH4 0xF2FDE38B EQ PUSH2 0x169 JUMPI PUSH2 0xA3 JUMP JUMPDEST DUP1 PUSH4 0x9AD26744 EQ PUSH2 0x101 JUMPI DUP1 PUSH4 0xB9181611 EQ PUSH2 0x114 JUMPI PUSH2 0xA3 JUMP JUMPDEST DUP1 PUSH4 0x42F1181E EQ PUSH2 0xA8 JUMPI DUP1 PUSH4 0x494503D4 EQ PUSH2 0xBD JUMPI DUP1 PUSH4 0x70712939 EQ PUSH2 0xE6 JUMPI DUP1 PUSH4 0x8DA5CB5B EQ PUSH2 0xF9 JUMPI JUMPDEST PUSH1 0x0 DUP1 REVERT JUMPDEST PUSH2 0xBB PUSH2 0xB6 CALLDATASIZE PUSH1 0x4 PUSH2 0xAA2 JUMP JUMPDEST PUSH2 0x17C JUMP JUMPDEST STOP JUMPDEST PUSH2 0xD0 PUSH2 0xCB CALLDATASIZE PUSH1 0x4 PUSH2 0xB70 JUMP JUMPDEST PUSH2 0x190 JUMP JUMPDEST PUSH1 0x40 MLOAD PUSH2 0xDD SWAP2 SWAP1 PUSH2 0xB98 JUMP JUMPDEST PUSH1 0x40 MLOAD DUP1 SWAP2 SUB SWAP1 RETURN JUMPDEST PUSH2 0xBB PUSH2 0xF4 CALLDATASIZE PUSH1 0x4 PUSH2 0xAA2 JUMP JUMPDEST PUSH2 0x1C4 JUMP JUMPDEST PUSH2 0xD0 PUSH2 0x27E JUMP JUMPDEST PUSH2 0xBB PUSH2 0x10F CALLDATASIZE PUSH1 0x4 PUSH2 0xB45 JUMP JUMPDEST PUSH2 0x29A JUMP JUMPDEST PUSH2 0x127 PUSH2 0x122 CALLDATASIZE PUSH1 0x4 PUSH2 0xAA2 JUMP JUMPDEST PUSH2 0x2AC JUMP JUMPDEST PUSH1 0x40 MLOAD PUSH2 0xDD SWAP2 SWAP1 PUSH2 0xC3A JUMP JUMPDEST PUSH2 0x147 PUSH2 0x142 CALLDATASIZE PUSH1 0x4 PUSH2 0xAC5 JUMP JUMPDEST PUSH2 0x2C1 JUMP JUMPDEST PUSH1 0x40 MLOAD PUSH2 0xDD SWAP2 SWAP1 PUSH2 0xC45 JUMP JUMPDEST PUSH2 0x15C PUSH2 0x351 JUMP JUMPDEST PUSH1 0x40 MLOAD PUSH2 0xDD SWAP2 SWAP1 PUSH2 0xBE0 JUMP JUMPDEST PUSH2 0xBB PUSH2 0x177 CALLDATASIZE PUSH1 0x4 PUSH2 0xAA2 JUMP JUMPDEST PUSH2 0x3C0 JUMP JUMPDEST PUSH2 0x184 PUSH2 0x463 JUMP JUMPDEST PUSH2 0x18D DUP2 PUSH2 0x4AC JUMP JUMPDEST POP JUMP JUMPDEST PUSH1 0x2 DUP2 DUP2 SLOAD DUP2 LT PUSH2 0x19D JUMPI INVALID JUMPDEST PUSH1 0x0 SWAP2 DUP3 MSTORE PUSH1 0x20 SWAP1 SWAP2 KECCAK256 ADD SLOAD PUSH20 0xFFFFFFFFFFFFFFFFFFFFFFFFFFFFFFFFFFFFFFFF AND SWAP1 POP DUP2 JUMP JUMPDEST PUSH2 0x1CC PUSH2 0x463 JUMP JUMPDEST PUSH20 0xFFFFFFFFFFFFFFFFFFFFFFFFFFFFFFFFFFFFFFFF DUP2 AND PUSH1 0x0 SWAP1 DUP2 MSTORE PUSH1 0x1 PUSH1 0x20 MSTORE PUSH1 0x40 SWAP1 KECCAK256 SLOAD PUSH1 0xFF AND PUSH2 0x20A JUMPI PUSH2 0x20A PUSH2 0x205 DUP3 PUSH2 0x5DD JUMP JUMPDEST PUSH2 0x67C JUMP JUMPDEST PUSH1 0x0 JUMPDEST PUSH1 0x2 SLOAD DUP2 LT ISZERO PUSH2 0x27A JUMPI DUP2 PUSH20 0xFFFFFFFFFFFFFFFFFFFFFFFFFFFFFFFFFFFFFFFF AND PUSH1 0x2 DUP3 DUP2 SLOAD DUP2 LT PUSH2 0x23B JUMPI INVALID JUMPDEST PUSH1 0x0 SWAP2 DUP3 MSTORE PUSH1 0x20 SWAP1 SWAP2 KECCAK256 ADD SLOAD PUSH20 0xFFFFFFFFFFFFFFFFFFFFFFFFFFFFFFFFFFFFFFFF AND EQ ISZERO PUSH2 0x272 JUMPI PUSH2 0x26D DUP3 DUP3 PUSH2 0x684 JUMP JUMPDEST PUSH2 0x27A JUMP JUMPDEST PUSH1 0x1 ADD PUSH2 0x20D JUMP JUMPDEST POP POP JUMP JUMPDEST PUSH1 0x0 SLOAD PUSH20 0xFFFFFFFFFFFFFFFFFFFFFFFFFFFFFFFFFFFFFFFF AND DUP2 JUMP JUMPDEST PUSH2 0x2A2 PUSH2 0x463 JUMP JUMPDEST PUSH2 0x27A DUP3 DUP3 PUSH2 0x684 JUMP JUMPDEST PUSH1 0x1 PUSH1 0x20 MSTORE PUSH1 0x0 SWAP1 DUP2 MSTORE PUSH1 0x40 SWAP1 KECCAK256 SLOAD PUSH1 0xFF AND DUP2 JUMP JUMPDEST PUSH1 0x60 PUSH2 0x2CB PUSH2 0x8FF JUMP JUMPDEST PUSH1 0x0 DUP5 PUSH20 0xFFFFFFFFFFFFFFFFFFFFFFFFFFFFFFFFFFFFFFFF AND DUP5 DUP5 PUSH1 0x40 MLOAD PUSH2 0x2F4 SWAP3 SWAP2 SWAP1 PUSH2 0xB88 JUMP JUMPDEST PUSH1 0x0 PUSH1 0x40 MLOAD DUP1 DUP4 SUB DUP2 PUSH1 0x0 DUP7 GAS CALL SWAP2 POP POP RETURNDATASIZE DUP1 PUSH1 0x0 DUP2 EQ PUSH2 0x331 JUMPI PUSH1 0x40 MLOAD SWAP2 POP PUSH1 0x1F NOT PUSH1 0x3F RETURNDATASIZE ADD AND DUP3 ADD PUSH1 0x40 MSTORE RETURNDATASIZE DUP3 MSTORE RETURNDATASIZE PUSH1 0x0 PUSH1 0x20 DUP5 ADD RETURNDATACOPY PUSH2 0x336 JUMP JUMPDEST PUSH1 0x60 SWAP2 POP JUMPDEST POP SWAP3 POP SWAP1 POP DUP1 PUSH2 0x349 JUMPI PUSH2 0x349 DUP3 PUSH2 0x67C JUMP JUMPDEST POP SWAP4 SWAP3 POP POP POP JUMP JUMPDEST PUSH1 0x60 PUSH1 0x2 DUP1 SLOAD DUP1 PUSH1 0x20 MUL PUSH1 0x20 ADD PUSH1 0x40 MLOAD SWAP1 DUP2 ADD PUSH1 0x40 MSTORE DUP1 SWAP3 SWAP2 SWAP1 DUP2 DUP2 MSTORE PUSH1 0x20 ADD DUP3 DUP1 SLOAD DUP1 ISZERO PUSH2 0x3B6 JUMPI PUSH1 0x20 MUL DUP3 ADD SWAP2 SWAP1 PUSH1 0x0 MSTORE PUSH1 0x20 PUSH1 0x0 KECCAK256 SWAP1 JUMPDEST DUP2 SLOAD PUSH20 0xFFFFFFFFFFFFFFFFFFFFFFFFFFFFFFFFFFFFFFFF AND DUP2 MSTORE PUSH1 0x1 SWAP1 SWAP2 ADD SWAP1 PUSH1 0x20 ADD DUP1 DUP4 GT PUSH2 0x38B JUMPI JUMPDEST POP POP POP POP POP SWAP1 POP SWAP1 JUMP JUMPDEST PUSH2 0x3C8 PUSH2 0x463 JUMP JUMPDEST PUSH20 0xFFFFFFFFFFFFFFFFFFFFFFFFFFFFFFFFFFFFFFFF DUP2 AND PUSH2 0x3F3 JUMPI PUSH2 0x3EE PUSH2 0x205 PUSH2 0x922 JUMP JUMPDEST PUSH2 0x18D JUMP JUMPDEST PUSH1 0x0 DUP1 SLOAD PUSH32 0xFFFFFFFFFFFFFFFFFFFFFFFF0000000000000000000000000000000000000000 AND PUSH20 0xFFFFFFFFFFFFFFFFFFFFFFFFFFFFFFFFFFFFFFFF DUP4 AND SWAP1 DUP2 OR DUP3 SSTORE PUSH1 0x40 MLOAD SWAP1 SWAP2 CALLER SWAP2 PUSH32 0x8BE0079C531659141344CD1FD0A4F28419497F9722A3DAAFE3B4186F6B6457E0 SWAP2 SWAP1 LOG3 POP JUMP JUMPDEST PUSH1 0x0 SLOAD PUSH20 0xFFFFFFFFFFFFFFFFFFFFFFFFFFFFFFFFFFFFFFFF AND CALLER EQ PUSH2 0x4AA JUMPI PUSH1 0x0 SLOAD PUSH2 0x4AA SWAP1 PUSH2 0x205 SWAP1 CALLER SWAP1 PUSH20 0xFFFFFFFFFFFFFFFFFFFFFFFFFFFFFFFFFFFFFFFF AND PUSH2 0x959 JUMP JUMPDEST JUMP JUMPDEST PUSH20 0xFFFFFFFFFFFFFFFFFFFFFFFFFFFFFFFFFFFFFFFF DUP2 AND PUSH2 0x4D2 JUMPI PUSH2 0x4D2 PUSH2 0x205 PUSH2 0x9FB JUMP JUMPDEST PUSH20 0xFFFFFFFFFFFFFFFFFFFFFFFFFFFFFFFFFFFFFFFF DUP2 AND PUSH1 0x0 SWAP1 DUP2 MSTORE PUSH1 0x1 PUSH1 0x20 MSTORE PUSH1 0x40 SWAP1 KECCAK256 SLOAD PUSH1 0xFF AND ISZERO PUSH2 0x50C JUMPI PUSH2 0x50C PUSH2 0x205 DUP3 PUSH2 0xA32 JUMP JUMPDEST PUSH20 0xFFFFFFFFFFFFFFFFFFFFFFFFFFFFFFFFFFFFFFFF DUP2 AND PUSH1 0x0 DUP2 DUP2 MSTORE PUSH1 0x1 PUSH1 0x20 DUP2 SWAP1 MSTORE PUSH1 0x40 DUP1 DUP4 KECCAK256 DUP1 SLOAD PUSH32 0xFFFFFFFFFFFFFFFFFFFFFFFFFFFFFFFFFFFFFFFFFFFFFFFFFFFFFFFFFFFFFF00 AND DUP4 OR SWAP1 SSTORE PUSH1 0x2 DUP1 SLOAD SWAP3 DUP4 ADD DUP2 SSTORE DUP4 MSTORE PUSH32 0x405787FA12A823E0F2B7631CC41B3BA8828B3321CA811111FA75CD3AA3BB5ACE SWAP1 SWAP2 ADD DUP1 SLOAD PUSH32 0xFFFFFFFFFFFFFFFFFFFFFFFF0000000000000000000000000000000000000000 AND DUP5 OR SWAP1 SSTORE MLOAD CALLER SWAP3 SWAP2 PUSH32 0x3147867C59D17E8FA9D522465651D44AAE0A9E38F902F3475B97E58072F0ED4C SWAP2 LOG3 POP JUMP JUMPDEST PUSH1 0x60 PUSH4 0xEB5108A2 PUSH1 0xE0 SHL DUP3 PUSH1 0x40 MLOAD PUSH1 0x24 ADD PUSH2 0x5F8 SWAP2 SWAP1 PUSH2 0xB98 JUMP JUMPDEST PUSH1 0x40 DUP1 MLOAD PUSH32 0xFFFFFFFFFFFFFFFFFFFFFFFFFFFFFFFFFFFFFFFFFFFFFFFFFFFFFFFFFFFFFFE0 DUP2 DUP5 SUB ADD DUP2 MSTORE SWAP2 SWAP1 MSTORE PUSH1 0x20 DUP2 ADD DUP1 MLOAD PUSH28 0xFFFFFFFFFFFFFFFFFFFFFFFFFFFFFFFFFFFFFFFFFFFFFFFFFFFFFFFF AND PUSH32 0xFFFFFFFF00000000000000000000000000000000000000000000000000000000 SWAP1 SWAP4 AND SWAP3 SWAP1 SWAP3 OR SWAP1 SWAP2 MSTORE SWAP1 POP SWAP2 SWAP1 POP JUMP JUMPDEST DUP1 MLOAD PUSH1 0x20 DUP3 ADD REVERT JUMPDEST PUSH20 0xFFFFFFFFFFFFFFFFFFFFFFFFFFFFFFFFFFFFFFFF DUP3 AND PUSH1 0x0 SWAP1 DUP2 MSTORE PUSH1 0x1 PUSH1 0x20 MSTORE PUSH1 0x40 SWAP1 KECCAK256 SLOAD PUSH1 0xFF AND PUSH2 0x6BD JUMPI PUSH2 0x6BD PUSH2 0x205 DUP4 PUSH2 0x5DD JUMP JUMPDEST PUSH1 0x2 SLOAD DUP2 LT PUSH2 0x6D8 JUMPI PUSH2 0x6D8 PUSH2 0x205 DUP3 PUSH1 0x2 DUP1 SLOAD SWAP1 POP PUSH2 0xA4D JUMP JUMPDEST DUP2 PUSH20 0xFFFFFFFFFFFFFFFFFFFFFFFFFFFFFFFFFFFFFFFF AND PUSH1 0x2 DUP3 DUP2 SLOAD DUP2 LT PUSH2 0x6FC JUMPI INVALID JUMPDEST PUSH1 0x0 SWAP2 DUP3 MSTORE PUSH1 0x20 SWAP1 SWAP2 KECCAK256 ADD SLOAD PUSH20 0xFFFFFFFFFFFFFFFFFFFFFFFFFFFFFFFFFFFFFFFF AND EQ PUSH2 0x75E JUMPI PUSH2 0x75E PUSH2 0x205 PUSH1 0x2 DUP4 DUP2 SLOAD DUP2 LT PUSH2 0x736 JUMPI INVALID JUMPDEST PUSH1 0x0 SWAP2 DUP3 MSTORE PUSH1 0x20 SWAP1 SWAP2 KECCAK256 ADD SLOAD PUSH20 0xFFFFFFFFFFFFFFFFFFFFFFFFFFFFFFFFFFFFFFFF AND DUP5 PUSH2 0xA6A JUMP JUMPDEST PUSH20 0xFFFFFFFFFFFFFFFFFFFFFFFFFFFFFFFFFFFFFFFF DUP3 AND PUSH1 0x0 SWAP1 DUP2 MSTORE PUSH1 0x1 PUSH1 0x20 MSTORE PUSH1 0x40 SWAP1 KECCAK256 DUP1 SLOAD PUSH32 0xFFFFFFFFFFFFFFFFFFFFFFFFFFFFFFFFFFFFFFFFFFFFFFFFFFFFFFFFFFFFFF00 AND SWAP1 SSTORE PUSH1 0x2 DUP1 SLOAD PUSH32 0xFFFFFFFFFFFFFFFFFFFFFFFFFFFFFFFFFFFFFFFFFFFFFFFFFFFFFFFFFFFFFFFF DUP2 ADD SWAP1 DUP2 LT PUSH2 0x7D9 JUMPI INVALID JUMPDEST PUSH1 0x0 SWAP2 DUP3 MSTORE PUSH1 0x20 SWAP1 SWAP2 KECCAK256 ADD SLOAD PUSH1 0x2 DUP1 SLOAD PUSH20 0xFFFFFFFFFFFFFFFFFFFFFFFFFFFFFFFFFFFFFFFF SWAP1 SWAP3 AND SWAP2 DUP4 SWAP1 DUP2 LT PUSH2 0x80C JUMPI INVALID JUMPDEST SWAP1 PUSH1 0x0 MSTORE PUSH1 0x20 PUSH1 0x0 KECCAK256 ADD PUSH1 0x0 PUSH2 0x100 EXP DUP2 SLOAD DUP2 PUSH20 0xFFFFFFFFFFFFFFFFFFFFFFFFFFFFFFFFFFFFFFFF MUL NOT AND SWAP1 DUP4 PUSH20 0xFFFFFFFFFFFFFFFFFFFFFFFFFFFFFFFFFFFFFFFF AND MUL OR SWAP1 SSTORE POP PUSH1 0x2 DUP1 SLOAD DUP1 PUSH2 0x85F JUMPI INVALID JUMPDEST PUSH1 0x0 DUP3 DUP2 MSTORE PUSH1 0x20 DUP2 KECCAK256 DUP3 ADD PUSH32 0xFFFFFFFFFFFFFFFFFFFFFFFFFFFFFFFFFFFFFFFFFFFFFFFFFFFFFFFFFFFFFFFF SWAP1 DUP2 ADD DUP1 SLOAD PUSH32 0xFFFFFFFFFFFFFFFFFFFFFFFF0000000000000000000000000000000000000000 AND SWAP1 SSTORE SWAP1 SWAP2 ADD SWAP1 SWAP2 SSTORE PUSH1 0x40 MLOAD CALLER SWAP2 PUSH20 0xFFFFFFFFFFFFFFFFFFFFFFFFFFFFFFFFFFFFFFFF DUP6 AND SWAP2 PUSH32 0x1F32C1B084E2DE0713B8FB16BD46BB9DF710A3DBEAE2F3CA93AF46E016DCC6B0 SWAP2 SWAP1 LOG3 POP POP JUMP JUMPDEST CALLER PUSH1 0x0 SWAP1 DUP2 MSTORE PUSH1 0x1 PUSH1 0x20 MSTORE PUSH1 0x40 SWAP1 KECCAK256 SLOAD PUSH1 0xFF AND PUSH2 0x4AA JUMPI PUSH2 0x4AA PUSH2 0x205 CALLER PUSH2 0xA87 JUMP JUMPDEST PUSH1 0x40 DUP1 MLOAD DUP1 DUP3 ADD SWAP1 SWAP2 MSTORE PUSH1 0x4 DUP2 MSTORE PUSH32 0xE69EDC3E00000000000000000000000000000000000000000000000000000000 PUSH1 0x20 DUP3 ADD MSTORE SWAP1 JUMP JUMPDEST PUSH1 0x60 PUSH4 0x1DE45AD1 PUSH1 0xE0 SHL DUP4 DUP4 PUSH1 0x40 MLOAD PUSH1 0x24 ADD PUSH2 0x976 SWAP3 SWAP2 SWAP1 PUSH2 0xBB9 JUMP JUMPDEST PUSH1 0x40 DUP1 MLOAD PUSH32 0xFFFFFFFFFFFFFFFFFFFFFFFFFFFFFFFFFFFFFFFFFFFFFFFFFFFFFFFFFFFFFFE0 DUP2 DUP5 SUB ADD DUP2 MSTORE SWAP2 SWAP1 MSTORE PUSH1 0x20 DUP2 ADD DUP1 MLOAD PUSH28 0xFFFFFFFFFFFFFFFFFFFFFFFFFFFFFFFFFFFFFFFFFFFFFFFFFFFFFFFF AND PUSH32 0xFFFFFFFF00000000000000000000000000000000000000000000000000000000 SWAP1 SWAP4 AND SWAP3 SWAP1 SWAP3 OR SWAP1 SWAP2 MSTORE SWAP1 POP SWAP3 SWAP2 POP POP JUMP JUMPDEST PUSH1 0x40 DUP1 MLOAD DUP1 DUP3 ADD SWAP1 SWAP2 MSTORE PUSH1 0x4 DUP2 MSTORE PUSH32 0x57654FE400000000000000000000000000000000000000000000000000000000 PUSH1 0x20 DUP3 ADD MSTORE SWAP1 JUMP JUMPDEST PUSH1 0x60 PUSH4 0xDE16F1A0 PUSH1 0xE0 SHL DUP3 PUSH1 0x40 MLOAD PUSH1 0x24 ADD PUSH2 0x5F8 SWAP2 SWAP1 PUSH2 0xB98 JUMP JUMPDEST PUSH1 0x60 PUSH4 0xE9F83771 PUSH1 0xE0 SHL DUP4 DUP4 PUSH1 0x40 MLOAD PUSH1 0x24 ADD PUSH2 0x976 SWAP3 SWAP2 SWAP1 PUSH2 0xCB6 JUMP JUMPDEST PUSH1 0x60 PUSH4 0x140A84DB PUSH1 0xE0 SHL DUP4 DUP4 PUSH1 0x40 MLOAD PUSH1 0x24 ADD PUSH2 0x976 SWAP3 SWAP2 SWAP1 PUSH2 0xBB9 JUMP JUMPDEST PUSH1 0x60 PUSH4 0xB65A25B9 PUSH1 0xE0 SHL DUP3 PUSH1 0x40 MLOAD PUSH1 0x24 ADD PUSH2 0x5F8 SWAP2 SWAP1 PUSH2 0xB98 JUMP JUMPDEST PUSH1 0x0 PUSH1 0x20 DUP3 DUP5 SUB SLT ISZERO PUSH2 0xAB3 JUMPI DUP1 DUP2 REVERT JUMPDEST DUP2 CALLDATALOAD PUSH2 0xABE DUP2 PUSH2 0xCC4 JUMP JUMPDEST SWAP4 SWAP3 POP POP POP JUMP JUMPDEST PUSH1 0x0 DUP1 PUSH1 0x0 PUSH1 0x40 DUP5 DUP7 SUB SLT ISZERO PUSH2 0xAD9 JUMPI DUP2 DUP3 REVERT JUMPDEST DUP4 CALLDATALOAD PUSH2 0xAE4 DUP2 PUSH2 0xCC4 JUMP JUMPDEST SWAP3 POP PUSH1 0x20 DUP5 ADD CALLDATALOAD PUSH8 0xFFFFFFFFFFFFFFFF DUP1 DUP3 GT ISZERO PUSH2 0xB00 JUMPI DUP4 DUP5 REVERT JUMPDEST DUP2 DUP7 ADD SWAP2 POP DUP7 PUSH1 0x1F DUP4 ADD SLT PUSH2 0xB13 JUMPI DUP4 DUP5 REVERT JUMPDEST DUP2 CALLDATALOAD DUP2 DUP2 GT ISZERO PUSH2 0xB21 JUMPI DUP5 DUP6 REVERT JUMPDEST DUP8 PUSH1 0x20 DUP3 DUP6 ADD ADD GT ISZERO PUSH2 0xB32 JUMPI DUP5 DUP6 REVERT JUMPDEST PUSH1 0x20 DUP4 ADD SWAP5 POP DUP1 SWAP4 POP POP POP POP SWAP3 POP SWAP3 POP SWAP3 JUMP JUMPDEST PUSH1 0x0 DUP1 PUSH1 0x40 DUP4 DUP6 SUB SLT ISZERO PUSH2 0xB57 JUMPI DUP2 DUP3 REVERT JUMPDEST DUP3 CALLDATALOAD PUSH2 0xB62 DUP2 PUSH2 0xCC4 JUMP JUMPDEST SWAP5 PUSH1 0x20 SWAP4 SWAP1 SWAP4 ADD CALLDATALOAD SWAP4 POP POP POP JUMP JUMPDEST PUSH1 0x0 PUSH1 0x20 DUP3 DUP5 SUB SLT ISZERO PUSH2 0xB81 JUMPI DUP1 DUP2 REVERT JUMPDEST POP CALLDATALOAD SWAP2 SWAP1 POP JUMP JUMPDEST PUSH1 0x0 DUP3 DUP5 DUP4 CALLDATACOPY SWAP2 ADD SWAP1 DUP2 MSTORE SWAP2 SWAP1 POP JUMP JUMPDEST PUSH20 0xFFFFFFFFFFFFFFFFFFFFFFFFFFFFFFFFFFFFFFFF SWAP2 SWAP1 SWAP2 AND DUP2 MSTORE PUSH1 0x20 ADD SWAP1 JUMP JUMPDEST PUSH20 0xFFFFFFFFFFFFFFFFFFFFFFFFFFFFFFFFFFFFFFFF SWAP3 DUP4 AND DUP2 MSTORE SWAP2 AND PUSH1 0x20 DUP3 ADD MSTORE PUSH1 0x40 ADD SWAP1 JUMP JUMPDEST PUSH1 0x20 DUP1 DUP3 MSTORE DUP3 MLOAD DUP3 DUP3 ADD DUP2 SWAP1 MSTORE PUSH1 0x0 SWAP2 SWAP1 DUP5 DUP3 ADD SWAP1 PUSH1 0x40 DUP6 ADD SWAP1 DUP5 JUMPDEST DUP2 DUP2 LT ISZERO PUSH2 0xC2E JUMPI DUP4 MLOAD PUSH20 0xFFFFFFFFFFFFFFFFFFFFFFFFFFFFFFFFFFFFFFFF AND DUP4 MSTORE SWAP3 DUP5 ADD SWAP3 SWAP2 DUP5 ADD SWAP2 PUSH1 0x1 ADD PUSH2 0xBFC JUMP JUMPDEST POP SWAP1 SWAP7 SWAP6 POP POP POP POP POP POP JUMP JUMPDEST SWAP1 ISZERO ISZERO DUP2 MSTORE PUSH1 0x20 ADD SWAP1 JUMP JUMPDEST PUSH1 0x0 PUSH1 0x20 DUP1 DUP4 MSTORE DUP4 MLOAD DUP1 DUP3 DUP6 ADD MSTORE DUP3 JUMPDEST DUP2 DUP2 LT ISZERO PUSH2 0xC71 JUMPI DUP6 DUP2 ADD DUP4 ADD MLOAD DUP6 DUP3 ADD PUSH1 0x40 ADD MSTORE DUP3 ADD PUSH2 0xC55 JUMP JUMPDEST DUP2 DUP2 GT ISZERO PUSH2 0xC82 JUMPI DUP4 PUSH1 0x40 DUP4 DUP8 ADD ADD MSTORE JUMPDEST POP PUSH1 0x1F ADD PUSH32 0xFFFFFFFFFFFFFFFFFFFFFFFFFFFFFFFFFFFFFFFFFFFFFFFFFFFFFFFFFFFFFFE0 AND SWAP3 SWAP1 SWAP3 ADD PUSH1 0x40 ADD SWAP4 SWAP3 POP POP POP JUMP JUMPDEST SWAP2 DUP3 MSTORE PUSH1 0x20 DUP3 ADD MSTORE PUSH1 0x40 ADD SWAP1 JUMP JUMPDEST PUSH20 0xFFFFFFFFFFFFFFFFFFFFFFFFFFFFFFFFFFFFFFFF DUP2 AND DUP2 EQ PUSH2 0x18D JUMPI PUSH1 0x0 DUP1 REVERT INVALID LOG2 PUSH5 0x6970667358 0x22 SLT KECCAK256 0xC6 0x5C 0x26 SWAP2 PUSH19 0x307C3233F41D02063DD36016FA933E6B4E9FF0 0xE9 SELFDESTRUCT 0xDA 0x27 0xB6 0x1F LOG4 SMOD PUSH5 0x736F6C6343 STOP MOD 0xC STOP CALLER LOG2 PUSH5 0x6970667358 0x22 SLT KECCAK256 SSTORE SWAP2 0xF8 0xAC 0xBB PUSH19 0xBF9612D309182958BFFBA1711F51D33F8FC577 0xAF PUSH18 0xB6C80C349164736F6C634300060C003360C0 PUSH1 0x40 MSTORE CALLVALUE DUP1 ISZERO PUSH2 0x10 JUMPI PUSH1 0x0 DUP1 REVERT JUMPDEST POP PUSH1 0x40 MLOAD PUSH2 0xAFA CODESIZE SUB DUP1 PUSH2 0xAFA DUP4 CODECOPY DUP2 ADD PUSH1 0x40 DUP2 SWAP1 MSTORE PUSH2 0x2F SWAP2 PUSH2 0x4C JUMP JUMPDEST PUSH1 0x1 PUSH1 0x1 PUSH1 0x60 SHL SUB NOT PUSH1 0x60 SWAP2 DUP3 SHL AND PUSH1 0x80 MSTORE ADDRESS SWAP1 SHL PUSH1 0xA0 MSTORE PUSH2 0x7A JUMP JUMPDEST PUSH1 0x0 PUSH1 0x20 DUP3 DUP5 SUB SLT ISZERO PUSH2 0x5D JUMPI DUP1 DUP2 REVERT JUMPDEST DUP2 MLOAD PUSH1 0x1 PUSH1 0x1 PUSH1 0xA0 SHL SUB DUP2 AND DUP2 EQ PUSH2 0x73 JUMPI DUP2 DUP3 REVERT JUMPDEST SWAP4 SWAP3 POP POP POP JUMP JUMPDEST PUSH1 0x80 MLOAD PUSH1 0x60 SHR PUSH1 0xA0 MLOAD PUSH1 0x60 SHR PUSH2 0xA52 PUSH2 0xA8 PUSH1 0x0 CODECOPY DUP1 PUSH2 0x4CF MSTORE POP DUP1 PUSH2 0x2AA MSTORE DUP1 PUSH2 0x2E6 MSTORE POP PUSH2 0xA52 PUSH1 0x0 RETURN INVALID PUSH1 0x80 PUSH1 0x40 MSTORE CALLVALUE DUP1 ISZERO PUSH2 0x10 JUMPI PUSH1 0x0 DUP1 REVERT JUMPDEST POP PUSH1 0x4 CALLDATASIZE LT PUSH2 0x4C JUMPI PUSH1 0x0 CALLDATALOAD PUSH1 0xE0 SHR DUP1 PUSH4 0x8CF7934 EQ PUSH2 0x51 JUMPI DUP1 PUSH4 0x5F136A4A EQ PUSH2 0x7A JUMPI DUP1 PUSH4 0xA23CE6CE EQ PUSH2 0x8F JUMPI DUP1 PUSH4 0xC9353CB5 EQ PUSH2 0xA2 JUMPI JUMPDEST PUSH1 0x0 DUP1 REVERT JUMPDEST PUSH2 0x64 PUSH2 0x5F CALLDATASIZE PUSH1 0x4 PUSH2 0x7C6 JUMP JUMPDEST PUSH2 0xB7 JUMP JUMPDEST PUSH1 0x40 MLOAD PUSH2 0x71 SWAP2 SWAP1 PUSH2 0x91F JUMP JUMPDEST PUSH1 0x40 MLOAD DUP1 SWAP2 SUB SWAP1 RETURN JUMPDEST PUSH2 0x82 PUSH2 0x2A8 JUMP JUMPDEST PUSH1 0x40 MLOAD PUSH2 0x71 SWAP2 SWAP1 PUSH2 0x857 JUMP JUMPDEST PUSH2 0x82 PUSH2 0x9D CALLDATASIZE PUSH1 0x4 PUSH2 0x77F JUMP JUMPDEST PUSH2 0x2CC JUMP JUMPDEST PUSH2 0xB5 PUSH2 0xB0 CALLDATASIZE PUSH1 0x4 PUSH2 0x75C JUMP JUMPDEST PUSH2 0x4B7 JUMP JUMPDEST STOP JUMPDEST DUP1 MLOAD PUSH1 0x40 DUP1 MLOAD PUSH1 0x4 DUP2 MSTORE PUSH1 0x24 DUP2 ADD SWAP1 SWAP2 MSTORE PUSH1 0x20 DUP2 ADD DUP1 MLOAD PUSH28 0xFFFFFFFFFFFFFFFFFFFFFFFFFFFFFFFFFFFFFFFFFFFFFFFFFFFFFFFF AND PUSH32 0xFB969B0A00000000000000000000000000000000000000000000000000000000 OR SWAP1 MSTORE PUSH1 0x0 SWAP2 PUSH2 0x11C SWAP2 PUSH2 0x53F JUMP JUMPDEST PUSH1 0x20 DUP1 DUP4 ADD MLOAD PUSH1 0x40 DUP1 MLOAD PUSH1 0x4 DUP2 MSTORE PUSH1 0x24 DUP2 ADD SWAP1 SWAP2 MSTORE SWAP2 DUP3 ADD DUP1 MLOAD PUSH28 0xFFFFFFFFFFFFFFFFFFFFFFFFFFFFFFFFFFFFFFFFFFFFFFFFFFFFFFFF AND PUSH32 0xFB969B0A00000000000000000000000000000000000000000000000000000000 OR SWAP1 MSTORE PUSH2 0x181 SWAP2 PUSH2 0x53F JUMP JUMPDEST PUSH1 0x40 MLOAD PUSH32 0x9DB64A4000000000000000000000000000000000000000000000000000000000 DUP2 MSTORE ADDRESS SWAP1 PUSH4 0x9DB64A40 SWAP1 PUSH2 0x1E0 SWAP1 PUSH32 0xEE8BE1B00000000000000000000000000000000000000000000000000000000 SWAP1 PUSH1 0x0 SWAP1 PUSH1 0x4 ADD PUSH2 0x94C JUMP JUMPDEST PUSH1 0x0 PUSH1 0x40 MLOAD DUP1 DUP4 SUB DUP2 PUSH1 0x0 DUP8 DUP1 EXTCODESIZE ISZERO DUP1 ISZERO PUSH2 0x1FA JUMPI PUSH1 0x0 DUP1 REVERT JUMPDEST POP GAS CALL ISZERO DUP1 ISZERO PUSH2 0x20E JUMPI RETURNDATASIZE PUSH1 0x0 DUP1 RETURNDATACOPY RETURNDATASIZE PUSH1 0x0 REVERT JUMPDEST POP POP PUSH1 0x40 MLOAD PUSH32 0xF2FDE38B00000000000000000000000000000000000000000000000000000000 DUP2 MSTORE ADDRESS SWAP3 POP PUSH4 0xF2FDE38B SWAP2 POP PUSH2 0x24E SWAP1 DUP7 SWAP1 PUSH1 0x4 ADD PUSH2 0x857 JUMP JUMPDEST PUSH1 0x0 PUSH1 0x40 MLOAD DUP1 DUP4 SUB DUP2 PUSH1 0x0 DUP8 DUP1 EXTCODESIZE ISZERO DUP1 ISZERO PUSH2 0x268 JUMPI PUSH1 0x0 DUP1 REVERT JUMPDEST POP GAS CALL ISZERO DUP1 ISZERO PUSH2 0x27C JUMPI RETURNDATASIZE PUSH1 0x0 DUP1 RETURNDATACOPY RETURNDATASIZE PUSH1 0x0 REVERT JUMPDEST POP PUSH32 0xD150751B00000000000000000000000000000000000000000000000000000000 SWAP7 SWAP6 POP POP POP POP POP POP JUMP JUMPDEST PUSH32 0x0 DUP2 JUMP JUMPDEST PUSH1 0x0 CALLER PUSH20 0xFFFFFFFFFFFFFFFFFFFFFFFFFFFFFFFFFFFFFFFF PUSH32 0x0 AND EQ PUSH2 0x346 JUMPI PUSH1 0x40 MLOAD PUSH32 0x8C379A000000000000000000000000000000000000000000000000000000000 DUP2 MSTORE PUSH1 0x4 ADD PUSH2 0x33D SWAP1 PUSH2 0x994 JUMP JUMPDEST PUSH1 0x40 MLOAD DUP1 SWAP2 SUB SWAP1 REVERT JUMPDEST DUP3 PUSH20 0xFFFFFFFFFFFFFFFFFFFFFFFFFFFFFFFFFFFFFFFF AND PUSH4 0x73F208D5 ADDRESS PUSH4 0x8CF7934 PUSH1 0xE0 SHL DUP8 DUP7 PUSH1 0x40 MLOAD PUSH1 0x24 ADD PUSH2 0x37E SWAP3 SWAP2 SWAP1 PUSH2 0x878 JUMP JUMPDEST PUSH1 0x40 DUP1 MLOAD PUSH32 0xFFFFFFFFFFFFFFFFFFFFFFFFFFFFFFFFFFFFFFFFFFFFFFFFFFFFFFFFFFFFFFE0 DUP2 DUP5 SUB ADD DUP2 MSTORE SWAP2 DUP2 MSTORE PUSH1 0x20 DUP3 ADD DUP1 MLOAD PUSH28 0xFFFFFFFFFFFFFFFFFFFFFFFFFFFFFFFFFFFFFFFFFFFFFFFFFFFFFFFF AND PUSH32 0xFFFFFFFF00000000000000000000000000000000000000000000000000000000 SWAP5 DUP6 AND OR SWAP1 MSTORE MLOAD PUSH1 0xE0 DUP6 SWAP1 SHL SWAP1 SWAP3 AND DUP3 MSTORE PUSH2 0x40F SWAP3 SWAP2 PUSH1 0x4 ADD PUSH2 0x8B1 JUMP JUMPDEST PUSH1 0x0 PUSH1 0x40 MLOAD DUP1 DUP4 SUB DUP2 PUSH1 0x0 DUP8 DUP1 EXTCODESIZE ISZERO DUP1 ISZERO PUSH2 0x429 JUMPI PUSH1 0x0 DUP1 REVERT JUMPDEST POP GAS CALL ISZERO DUP1 ISZERO PUSH2 0x43D JUMPI RETURNDATASIZE PUSH1 0x0 DUP1 RETURNDATACOPY RETURNDATASIZE PUSH1 0x0 REVERT JUMPDEST POP POP PUSH1 0x40 MLOAD PUSH32 0xC9353CB500000000000000000000000000000000000000000000000000000000 DUP2 MSTORE ADDRESS SWAP3 POP PUSH4 0xC9353CB5 SWAP2 POP PUSH2 0x47D SWAP1 DUP8 SWAP1 PUSH1 0x4 ADD PUSH2 0x857 JUMP JUMPDEST PUSH1 0x0 PUSH1 0x40 MLOAD DUP1 DUP4 SUB DUP2 PUSH1 0x0 DUP8 DUP1 EXTCODESIZE ISZERO DUP1 ISZERO PUSH2 0x497 JUMPI PUSH1 0x0 DUP1 REVERT JUMPDEST POP GAS CALL ISZERO DUP1 ISZERO PUSH2 0x4AB JUMPI RETURNDATASIZE PUSH1 0x0 DUP1 RETURNDATACOPY RETURNDATASIZE PUSH1 0x0 REVERT JUMPDEST POP SWAP5 SWAP7 SWAP6 POP POP POP POP POP POP JUMP JUMPDEST CALLER PUSH20 0xFFFFFFFFFFFFFFFFFFFFFFFFFFFFFFFFFFFFFFFF PUSH32 0x0 AND EQ PUSH2 0x526 JUMPI PUSH1 0x40 MLOAD PUSH32 0x8C379A000000000000000000000000000000000000000000000000000000000 DUP2 MSTORE PUSH1 0x4 ADD PUSH2 0x33D SWAP1 PUSH2 0x994 JUMP JUMPDEST DUP1 PUSH20 0xFFFFFFFFFFFFFFFFFFFFFFFFFFFFFFFFFFFFFFFF AND SELFDESTRUCT JUMPDEST PUSH1 0x0 PUSH1 0x60 DUP4 PUSH20 0xFFFFFFFFFFFFFFFFFFFFFFFFFFFFFFFFFFFFFFFF AND DUP4 PUSH1 0x40 MLOAD PUSH2 0x568 SWAP2 SWAP1 PUSH2 0x83B JUMP JUMPDEST PUSH1 0x0 PUSH1 0x40 MLOAD DUP1 DUP4 SUB DUP2 DUP6 GAS DELEGATECALL SWAP2 POP POP RETURNDATASIZE DUP1 PUSH1 0x0 DUP2 EQ PUSH2 0x5A3 JUMPI PUSH1 0x40 MLOAD SWAP2 POP PUSH1 0x1F NOT PUSH1 0x3F RETURNDATASIZE ADD AND DUP3 ADD PUSH1 0x40 MSTORE RETURNDATASIZE DUP3 MSTORE RETURNDATASIZE PUSH1 0x0 PUSH1 0x20 DUP5 ADD RETURNDATACOPY PUSH2 0x5A8 JUMP JUMPDEST PUSH1 0x60 SWAP2 POP JUMPDEST POP SWAP2 POP SWAP2 POP DUP2 ISZERO DUP1 PUSH2 0x5BC JUMPI POP DUP1 MLOAD PUSH1 0x20 EQ ISZERO JUMPDEST DUP1 PUSH2 0x61E JUMPI POP DUP1 MLOAD PUSH32 0xD150751B00000000000000000000000000000000000000000000000000000000 SWAP1 PUSH2 0x5F9 SWAP1 DUP4 ADD PUSH1 0x20 SWAP1 DUP2 ADD SWAP1 DUP5 ADD PUSH2 0x7FB JUMP JUMPDEST PUSH32 0xFFFFFFFF00000000000000000000000000000000000000000000000000000000 AND EQ ISZERO JUMPDEST ISZERO PUSH2 0x635 JUMPI PUSH2 0x635 PUSH2 0x630 DUP6 DUP4 PUSH2 0x63B JUMP JUMPDEST PUSH2 0x6F6 JUMP JUMPDEST POP POP POP POP JUMP JUMPDEST PUSH1 0x60 PUSH32 0xD19D65DF6830E3CB0DA1E12B8E9738E2DC473F830D8AF813BCC031EB5A1675D1 DUP4 DUP4 PUSH1 0x40 MLOAD PUSH1 0x24 ADD PUSH2 0x671 SWAP3 SWAP2 SWAP1 PUSH2 0x8B1 JUMP JUMPDEST PUSH1 0x40 DUP1 MLOAD PUSH32 0xFFFFFFFFFFFFFFFFFFFFFFFFFFFFFFFFFFFFFFFFFFFFFFFFFFFFFFFFFFFFFFE0 DUP2 DUP5 SUB ADD DUP2 MSTORE SWAP2 SWAP1 MSTORE PUSH1 0x20 DUP2 ADD DUP1 MLOAD PUSH28 0xFFFFFFFFFFFFFFFFFFFFFFFFFFFFFFFFFFFFFFFFFFFFFFFFFFFFFFFF AND PUSH32 0xFFFFFFFF00000000000000000000000000000000000000000000000000000000 SWAP1 SWAP4 AND SWAP3 SWAP1 SWAP3 OR SWAP1 SWAP2 MSTORE SWAP1 POP SWAP3 SWAP2 POP POP JUMP JUMPDEST DUP1 MLOAD PUSH1 0x20 DUP3 ADD REVERT JUMPDEST PUSH1 0x0 PUSH1 0x40 DUP3 DUP5 SUB SLT ISZERO PUSH2 0x70F JUMPI DUP1 DUP2 REVERT JUMPDEST PUSH1 0x40 MLOAD PUSH1 0x40 DUP2 ADD DUP2 DUP2 LT PUSH8 0xFFFFFFFFFFFFFFFF DUP3 GT OR ISZERO PUSH2 0x72E JUMPI DUP3 DUP4 REVERT JUMPDEST PUSH1 0x40 MSTORE SWAP1 POP DUP1 DUP3 CALLDATALOAD PUSH2 0x73F DUP2 PUSH2 0x9F7 JUMP JUMPDEST DUP2 MSTORE PUSH1 0x20 DUP4 ADD CALLDATALOAD PUSH2 0x74F DUP2 PUSH2 0x9F7 JUMP JUMPDEST PUSH1 0x20 SWAP2 SWAP1 SWAP2 ADD MSTORE SWAP3 SWAP2 POP POP JUMP JUMPDEST PUSH1 0x0 PUSH1 0x20 DUP3 DUP5 SUB SLT ISZERO PUSH2 0x76D JUMPI DUP1 DUP2 REVERT JUMPDEST DUP2 CALLDATALOAD PUSH2 0x778 DUP2 PUSH2 0x9F7 JUMP JUMPDEST SWAP4 SWAP3 POP POP POP JUMP JUMPDEST PUSH1 0x0 DUP1 PUSH1 0x0 PUSH1 0x80 DUP5 DUP7 SUB SLT ISZERO PUSH2 0x793 JUMPI DUP2 DUP3 REVERT JUMPDEST DUP4 CALLDATALOAD PUSH2 0x79E DUP2 PUSH2 0x9F7 JUMP JUMPDEST SWAP3 POP PUSH1 0x20 DUP5 ADD CALLDATALOAD PUSH2 0x7AE DUP2 PUSH2 0x9F7 JUMP JUMPDEST SWAP2 POP PUSH2 0x7BD DUP6 PUSH1 0x40 DUP7 ADD PUSH2 0x6FE JUMP JUMPDEST SWAP1 POP SWAP3 POP SWAP3 POP SWAP3 JUMP JUMPDEST PUSH1 0x0 DUP1 PUSH1 0x60 DUP4 DUP6 SUB SLT ISZERO PUSH2 0x7D8 JUMPI DUP2 DUP3 REVERT JUMPDEST DUP3 CALLDATALOAD PUSH2 0x7E3 DUP2 PUSH2 0x9F7 JUMP JUMPDEST SWAP2 POP PUSH2 0x7F2 DUP5 PUSH1 0x20 DUP6 ADD PUSH2 0x6FE JUMP JUMPDEST SWAP1 POP SWAP3 POP SWAP3 SWAP1 POP JUMP JUMPDEST PUSH1 0x0 PUSH1 0x20 DUP3 DUP5 SUB SLT ISZERO PUSH2 0x80C JUMPI DUP1 DUP2 REVERT JUMPDEST DUP2 MLOAD PUSH32 0xFFFFFFFF00000000000000000000000000000000000000000000000000000000 DUP2 AND DUP2 EQ PUSH2 0x778 JUMPI DUP2 DUP3 REVERT JUMPDEST PUSH1 0x0 DUP3 MLOAD PUSH2 0x84D DUP2 DUP5 PUSH1 0x20 DUP8 ADD PUSH2 0x9CB JUMP JUMPDEST SWAP2 SWAP1 SWAP2 ADD SWAP3 SWAP2 POP POP JUMP JUMPDEST PUSH20 0xFFFFFFFFFFFFFFFFFFFFFFFFFFFFFFFFFFFFFFFF SWAP2 SWAP1 SWAP2 AND DUP2 MSTORE PUSH1 0x20 ADD SWAP1 JUMP JUMPDEST PUSH20 0xFFFFFFFFFFFFFFFFFFFFFFFFFFFFFFFFFFFFFFFF SWAP3 DUP4 AND DUP2 MSTORE DUP2 MLOAD DUP4 AND PUSH1 0x20 DUP1 DUP4 ADD SWAP2 SWAP1 SWAP2 MSTORE SWAP1 SWAP2 ADD MLOAD SWAP1 SWAP2 AND PUSH1 0x40 DUP3 ADD MSTORE PUSH1 0x60 ADD SWAP1 JUMP JUMPDEST PUSH1 0x0 PUSH20 0xFFFFFFFFFFFFFFFFFFFFFFFFFFFFFFFFFFFFFFFF DUP5 AND DUP3 MSTORE PUSH1 0x40 PUSH1 0x20 DUP4 ADD MSTORE DUP3 MLOAD DUP1 PUSH1 0x40 DUP5 ADD MSTORE PUSH2 0x8EC DUP2 PUSH1 0x60 DUP6 ADD PUSH1 0x20 DUP8 ADD PUSH2 0x9CB JUMP JUMPDEST PUSH1 0x1F ADD PUSH32 0xFFFFFFFFFFFFFFFFFFFFFFFFFFFFFFFFFFFFFFFFFFFFFFFFFFFFFFFFFFFFFFE0 AND SWAP2 SWAP1 SWAP2 ADD PUSH1 0x60 ADD SWAP4 SWAP3 POP POP POP JUMP JUMPDEST PUSH32 0xFFFFFFFF00000000000000000000000000000000000000000000000000000000 SWAP2 SWAP1 SWAP2 AND DUP2 MSTORE PUSH1 0x20 ADD SWAP1 JUMP JUMPDEST PUSH32 0xFFFFFFFF00000000000000000000000000000000000000000000000000000000 SWAP3 SWAP1 SWAP3 AND DUP3 MSTORE PUSH20 0xFFFFFFFFFFFFFFFFFFFFFFFFFFFFFFFFFFFFFFFF AND PUSH1 0x20 DUP3 ADD MSTORE PUSH1 0x40 ADD SWAP1 JUMP JUMPDEST PUSH1 0x20 DUP1 DUP3 MSTORE PUSH1 0x1F SWAP1 DUP3 ADD MSTORE PUSH32 0x496E697469616C4D6967726174696F6E2F494E56414C49445F53454E44455200 PUSH1 0x40 DUP3 ADD MSTORE PUSH1 0x60 ADD SWAP1 JUMP JUMPDEST PUSH1 0x0 JUMPDEST DUP4 DUP2 LT ISZERO PUSH2 0x9E6 JUMPI DUP2 DUP2 ADD MLOAD DUP4 DUP3 ADD MSTORE PUSH1 0x20 ADD PUSH2 0x9CE JUMP JUMPDEST DUP4 DUP2 GT ISZERO PUSH2 0x635 JUMPI POP POP PUSH1 0x0 SWAP2 ADD MSTORE JUMP JUMPDEST PUSH20 0xFFFFFFFFFFFFFFFFFFFFFFFFFFFFFFFFFFFFFFFF DUP2 AND DUP2 EQ PUSH2 0xA19 JUMPI PUSH1 0x0 DUP1 REVERT JUMPDEST POP JUMP INVALID LOG2 PUSH5 0x6970667358 0x22 SLT KECCAK256 LOG1 PUSH16 0x740E3543E464FB7B9EC07EBB663ADE6C 0x4E DUP15 PUSH20 0xC8ADD2A24EA1B0D4D96F6664736F6C634300060C STOP CALLER "
            },
            "methodIdentifiers": {
                "die(address)": "c9353cb5",
                "dieRecipient()": "9b7e25a9",
                "getBootstrapper()": "b3d31735",
                "initializeCaller()": "5f136a4a",
                "migrateZeroEx(address,address,(address,address,address,address,address,address),(address))": "329798a4"
            }
        }
    },
    "sourceTreeHashHex": "0x966543384f637797b3eed5e7d585210ec1a4f07d1d7cf7c1e2cfccb089e71498",
    "compiler": {
        "name": "solc",
        "version": "0.6.12+commit.27d51765",
        "settings": {
            "remappings": [
                "@0x/contracts-utils=/Users/michaelzhu/protocol/node_modules/@0x/contracts-utils",
                "@0x/contracts-erc20=/Users/michaelzhu/protocol/contracts/zero-ex/node_modules/@0x/contracts-erc20"
            ],
            "optimizer": {
                "enabled": true,
                "runs": 1000000,
                "details": {
                    "yul": true,
                    "deduplicate": true,
                    "cse": true,
                    "constantOptimizer": true
                }
            },
            "outputSelection": {
                "*": {
                    "*": [
                        "abi",
                        "devdoc",
                        "evm.bytecode.object",
                        "evm.bytecode.sourceMap",
                        "evm.deployedBytecode.object",
                        "evm.deployedBytecode.sourceMap",
                        "evm.methodIdentifiers"
                    ]
                }
            },
            "evmVersion": "istanbul"
        }
    },
    "chains": {}
}