{
    "schemaVersion": "2.0.0",
    "contractName": "TestLibNativeOrder",
    "compilerOutput": {
        "abi": [
            {
                "inputs": [
                    {
                        "components": [
                            {
                                "internalType": "contract IERC20TokenV06",
                                "name": "makerToken",
                                "type": "address"
                            },
                            {
                                "internalType": "contract IERC20TokenV06",
                                "name": "takerToken",
                                "type": "address"
                            },
                            {
                                "internalType": "uint128",
                                "name": "makerAmount",
                                "type": "uint128"
                            },
                            {
                                "internalType": "uint128",
                                "name": "takerAmount",
                                "type": "uint128"
                            },
                            {
                                "internalType": "uint128",
                                "name": "takerTokenFeeAmount",
                                "type": "uint128"
                            },
                            {
                                "internalType": "address",
                                "name": "maker",
                                "type": "address"
                            },
                            {
                                "internalType": "address",
                                "name": "taker",
                                "type": "address"
                            },
                            {
                                "internalType": "address",
                                "name": "sender",
                                "type": "address"
                            },
                            {
                                "internalType": "address",
                                "name": "feeRecipient",
                                "type": "address"
                            },
                            {
                                "internalType": "bytes32",
                                "name": "pool",
                                "type": "bytes32"
                            },
                            {
                                "internalType": "uint64",
                                "name": "expiry",
                                "type": "uint64"
                            },
                            {
                                "internalType": "uint256",
                                "name": "salt",
                                "type": "uint256"
                            }
                        ],
                        "internalType": "struct LibNativeOrder.LimitOrder",
                        "name": "order",
                        "type": "tuple"
                    }
                ],
                "name": "getLimitOrderStructHash",
                "outputs": [
                    {
                        "internalType": "bytes32",
                        "name": "structHash",
                        "type": "bytes32"
                    }
                ],
                "stateMutability": "pure",
                "type": "function"
            },
            {
                "inputs": [
                    {
                        "components": [
                            {
                                "internalType": "contract IERC20TokenV06",
                                "name": "makerToken",
                                "type": "address"
                            },
                            {
                                "internalType": "contract IERC20TokenV06",
                                "name": "takerToken",
                                "type": "address"
                            },
                            {
                                "internalType": "uint128",
                                "name": "makerAmount",
                                "type": "uint128"
                            },
                            {
                                "internalType": "uint128",
                                "name": "takerAmount",
                                "type": "uint128"
                            },
                            {
                                "internalType": "address",
                                "name": "maker",
                                "type": "address"
                            },
                            {
                                "internalType": "address",
                                "name": "taker",
                                "type": "address"
                            },
                            {
                                "internalType": "address",
                                "name": "txOrigin",
                                "type": "address"
                            },
                            {
                                "internalType": "bytes32",
                                "name": "pool",
                                "type": "bytes32"
                            },
                            {
                                "internalType": "uint64",
                                "name": "expiry",
                                "type": "uint64"
                            },
                            {
                                "internalType": "uint256",
                                "name": "salt",
                                "type": "uint256"
                            }
                        ],
                        "internalType": "struct LibNativeOrder.RfqOrder",
                        "name": "order",
                        "type": "tuple"
                    }
                ],
                "name": "getRfqOrderStructHash",
                "outputs": [
                    {
                        "internalType": "bytes32",
                        "name": "structHash",
                        "type": "bytes32"
                    }
                ],
                "stateMutability": "pure",
                "type": "function"
            }
        ],
        "devdoc": {
            "kind": "dev",
            "methods": {},
            "version": 1
        },
        "evm": {
            "bytecode": {
                "linkReferences": {},
                "object": "0x608060405234801561001057600080fd5b506105fd806100206000396000f3fe608060405234801561001057600080fd5b50600436106100365760003560e01c8063548279151461003b578063ad54a59814610064575b600080fd5b61004e6100493660046104be565b610077565b60405161005b9190610597565b60405180910390f35b61004e6100723660046103b9565b610096565b600061009061008b368490038401846104d0565b6100af565b92915050565b60006100906100aa368490038401846103d1565b6101e6565b60006040517fe593d3fdfa8b60e5e17a1b2204662ecbe15c23f2084b9ad5bae40359540a7da98152825173ffffffffffffffffffffffffffffffffffffffff166020820152602083015173ffffffffffffffffffffffffffffffffffffffff16604082015260408301516fffffffffffffffffffffffffffffffff16606082015260608301516fffffffffffffffffffffffffffffffff166080820152608083015173ffffffffffffffffffffffffffffffffffffffff1660a082015260a083015173ffffffffffffffffffffffffffffffffffffffff1660c082015260c083015173ffffffffffffffffffffffffffffffffffffffff1660e082015260e083015161010082015261010083015167ffffffffffffffff166101208201526101208301516101408201526101608120915050919050565b60006040517fce918627cb55462ddbb85e73de69a8b322f2bc88f4507c52fcad6d4c33c29d498152825173ffffffffffffffffffffffffffffffffffffffff166020820152602083015173ffffffffffffffffffffffffffffffffffffffff16604082015260408301516fffffffffffffffffffffffffffffffff16606082015260608301516fffffffffffffffffffffffffffffffff16608082015260808301516fffffffffffffffffffffffffffffffff1660a082015260a083015173ffffffffffffffffffffffffffffffffffffffff1660c082015260c083015173ffffffffffffffffffffffffffffffffffffffff1660e082015260e083015173ffffffffffffffffffffffffffffffffffffffff1661010082015261010083015173ffffffffffffffffffffffffffffffffffffffff1661012082015261012083015161014082015261014083015167ffffffffffffffff166101608201526101608301516101808201526101a08120915050919050565b803573ffffffffffffffffffffffffffffffffffffffff8116811461009057600080fd5b80356fffffffffffffffffffffffffffffffff8116811461009057600080fd5b803567ffffffffffffffff8116811461009057600080fd5b600061018082840312156103cb578081fd5b50919050565b60006101808083850312156103e4578182fd5b6103ed816105a0565b90506103f9848461035d565b8152610408846020850161035d565b602082015261041a8460408501610381565b604082015261042c8460608501610381565b606082015261043e8460808501610381565b60808201526104508460a0850161035d565b60a08201526104628460c0850161035d565b60c08201526104748460e0850161035d565b60e08201526101006104888582860161035d565b9082015261012083810135908201526101406104a6858286016103a1565b90820152610160928301359281019290925250919050565b600061014082840312156103cb578081fd5b60006101408083850312156104e3578182fd5b6104ec816105a0565b90506104f8848461035d565b8152610507846020850161035d565b60208201526105198460408501610381565b604082015261052b8460608501610381565b606082015261053d846080850161035d565b608082015261054f8460a0850161035d565b60a08201526105618460c0850161035d565b60c082015260e083013560e082015261010061057f858286016103a1565b90820152610120928301359281019290925250919050565b90815260200190565b60405181810167ffffffffffffffff811182821017156105bf57600080fd5b60405291905056fea26469706673582212207499e5e175b6fa2c339b5e4f0e2db5b0eae9da113523e49f3164446b3e9d656164736f6c634300060c0033",
                "opcodes": "PUSH1 0x80 PUSH1 0x40 MSTORE CALLVALUE DUP1 ISZERO PUSH2 0x10 JUMPI PUSH1 0x0 DUP1 REVERT JUMPDEST POP PUSH2 0x5FD DUP1 PUSH2 0x20 PUSH1 0x0 CODECOPY PUSH1 0x0 RETURN INVALID PUSH1 0x80 PUSH1 0x40 MSTORE CALLVALUE DUP1 ISZERO PUSH2 0x10 JUMPI PUSH1 0x0 DUP1 REVERT JUMPDEST POP PUSH1 0x4 CALLDATASIZE LT PUSH2 0x36 JUMPI PUSH1 0x0 CALLDATALOAD PUSH1 0xE0 SHR DUP1 PUSH4 0x54827915 EQ PUSH2 0x3B JUMPI DUP1 PUSH4 0xAD54A598 EQ PUSH2 0x64 JUMPI JUMPDEST PUSH1 0x0 DUP1 REVERT JUMPDEST PUSH2 0x4E PUSH2 0x49 CALLDATASIZE PUSH1 0x4 PUSH2 0x4BE JUMP JUMPDEST PUSH2 0x77 JUMP JUMPDEST PUSH1 0x40 MLOAD PUSH2 0x5B SWAP2 SWAP1 PUSH2 0x597 JUMP JUMPDEST PUSH1 0x40 MLOAD DUP1 SWAP2 SUB SWAP1 RETURN JUMPDEST PUSH2 0x4E PUSH2 0x72 CALLDATASIZE PUSH1 0x4 PUSH2 0x3B9 JUMP JUMPDEST PUSH2 0x96 JUMP JUMPDEST PUSH1 0x0 PUSH2 0x90 PUSH2 0x8B CALLDATASIZE DUP5 SWAP1 SUB DUP5 ADD DUP5 PUSH2 0x4D0 JUMP JUMPDEST PUSH2 0xAF JUMP JUMPDEST SWAP3 SWAP2 POP POP JUMP JUMPDEST PUSH1 0x0 PUSH2 0x90 PUSH2 0xAA CALLDATASIZE DUP5 SWAP1 SUB DUP5 ADD DUP5 PUSH2 0x3D1 JUMP JUMPDEST PUSH2 0x1E6 JUMP JUMPDEST PUSH1 0x0 PUSH1 0x40 MLOAD PUSH32 0xE593D3FDFA8B60E5E17A1B2204662ECBE15C23F2084B9AD5BAE40359540A7DA9 DUP2 MSTORE DUP3 MLOAD PUSH20 0xFFFFFFFFFFFFFFFFFFFFFFFFFFFFFFFFFFFFFFFF AND PUSH1 0x20 DUP3 ADD MSTORE PUSH1 0x20 DUP4 ADD MLOAD PUSH20 0xFFFFFFFFFFFFFFFFFFFFFFFFFFFFFFFFFFFFFFFF AND PUSH1 0x40 DUP3 ADD MSTORE PUSH1 0x40 DUP4 ADD MLOAD PUSH16 0xFFFFFFFFFFFFFFFFFFFFFFFFFFFFFFFF AND PUSH1 0x60 DUP3 ADD MSTORE PUSH1 0x60 DUP4 ADD MLOAD PUSH16 0xFFFFFFFFFFFFFFFFFFFFFFFFFFFFFFFF AND PUSH1 0x80 DUP3 ADD MSTORE PUSH1 0x80 DUP4 ADD MLOAD PUSH20 0xFFFFFFFFFFFFFFFFFFFFFFFFFFFFFFFFFFFFFFFF AND PUSH1 0xA0 DUP3 ADD MSTORE PUSH1 0xA0 DUP4 ADD MLOAD PUSH20 0xFFFFFFFFFFFFFFFFFFFFFFFFFFFFFFFFFFFFFFFF AND PUSH1 0xC0 DUP3 ADD MSTORE PUSH1 0xC0 DUP4 ADD MLOAD PUSH20 0xFFFFFFFFFFFFFFFFFFFFFFFFFFFFFFFFFFFFFFFF AND PUSH1 0xE0 DUP3 ADD MSTORE PUSH1 0xE0 DUP4 ADD MLOAD PUSH2 0x100 DUP3 ADD MSTORE PUSH2 0x100 DUP4 ADD MLOAD PUSH8 0xFFFFFFFFFFFFFFFF AND PUSH2 0x120 DUP3 ADD MSTORE PUSH2 0x120 DUP4 ADD MLOAD PUSH2 0x140 DUP3 ADD MSTORE PUSH2 0x160 DUP2 KECCAK256 SWAP2 POP POP SWAP2 SWAP1 POP JUMP JUMPDEST PUSH1 0x0 PUSH1 0x40 MLOAD PUSH32 0xCE918627CB55462DDBB85E73DE69A8B322F2BC88F4507C52FCAD6D4C33C29D49 DUP2 MSTORE DUP3 MLOAD PUSH20 0xFFFFFFFFFFFFFFFFFFFFFFFFFFFFFFFFFFFFFFFF AND PUSH1 0x20 DUP3 ADD MSTORE PUSH1 0x20 DUP4 ADD MLOAD PUSH20 0xFFFFFFFFFFFFFFFFFFFFFFFFFFFFFFFFFFFFFFFF AND PUSH1 0x40 DUP3 ADD MSTORE PUSH1 0x40 DUP4 ADD MLOAD PUSH16 0xFFFFFFFFFFFFFFFFFFFFFFFFFFFFFFFF AND PUSH1 0x60 DUP3 ADD MSTORE PUSH1 0x60 DUP4 ADD MLOAD PUSH16 0xFFFFFFFFFFFFFFFFFFFFFFFFFFFFFFFF AND PUSH1 0x80 DUP3 ADD MSTORE PUSH1 0x80 DUP4 ADD MLOAD PUSH16 0xFFFFFFFFFFFFFFFFFFFFFFFFFFFFFFFF AND PUSH1 0xA0 DUP3 ADD MSTORE PUSH1 0xA0 DUP4 ADD MLOAD PUSH20 0xFFFFFFFFFFFFFFFFFFFFFFFFFFFFFFFFFFFFFFFF AND PUSH1 0xC0 DUP3 ADD MSTORE PUSH1 0xC0 DUP4 ADD MLOAD PUSH20 0xFFFFFFFFFFFFFFFFFFFFFFFFFFFFFFFFFFFFFFFF AND PUSH1 0xE0 DUP3 ADD MSTORE PUSH1 0xE0 DUP4 ADD MLOAD PUSH20 0xFFFFFFFFFFFFFFFFFFFFFFFFFFFFFFFFFFFFFFFF AND PUSH2 0x100 DUP3 ADD MSTORE PUSH2 0x100 DUP4 ADD MLOAD PUSH20 0xFFFFFFFFFFFFFFFFFFFFFFFFFFFFFFFFFFFFFFFF AND PUSH2 0x120 DUP3 ADD MSTORE PUSH2 0x120 DUP4 ADD MLOAD PUSH2 0x140 DUP3 ADD MSTORE PUSH2 0x140 DUP4 ADD MLOAD PUSH8 0xFFFFFFFFFFFFFFFF AND PUSH2 0x160 DUP3 ADD MSTORE PUSH2 0x160 DUP4 ADD MLOAD PUSH2 0x180 DUP3 ADD MSTORE PUSH2 0x1A0 DUP2 KECCAK256 SWAP2 POP POP SWAP2 SWAP1 POP JUMP JUMPDEST DUP1 CALLDATALOAD PUSH20 0xFFFFFFFFFFFFFFFFFFFFFFFFFFFFFFFFFFFFFFFF DUP2 AND DUP2 EQ PUSH2 0x90 JUMPI PUSH1 0x0 DUP1 REVERT JUMPDEST DUP1 CALLDATALOAD PUSH16 0xFFFFFFFFFFFFFFFFFFFFFFFFFFFFFFFF DUP2 AND DUP2 EQ PUSH2 0x90 JUMPI PUSH1 0x0 DUP1 REVERT JUMPDEST DUP1 CALLDATALOAD PUSH8 0xFFFFFFFFFFFFFFFF DUP2 AND DUP2 EQ PUSH2 0x90 JUMPI PUSH1 0x0 DUP1 REVERT JUMPDEST PUSH1 0x0 PUSH2 0x180 DUP3 DUP5 SUB SLT ISZERO PUSH2 0x3CB JUMPI DUP1 DUP2 REVERT JUMPDEST POP SWAP2 SWAP1 POP JUMP JUMPDEST PUSH1 0x0 PUSH2 0x180 DUP1 DUP4 DUP6 SUB SLT ISZERO PUSH2 0x3E4 JUMPI DUP2 DUP3 REVERT JUMPDEST PUSH2 0x3ED DUP2 PUSH2 0x5A0 JUMP JUMPDEST SWAP1 POP PUSH2 0x3F9 DUP5 DUP5 PUSH2 0x35D JUMP JUMPDEST DUP2 MSTORE PUSH2 0x408 DUP5 PUSH1 0x20 DUP6 ADD PUSH2 0x35D JUMP JUMPDEST PUSH1 0x20 DUP3 ADD MSTORE PUSH2 0x41A DUP5 PUSH1 0x40 DUP6 ADD PUSH2 0x381 JUMP JUMPDEST PUSH1 0x40 DUP3 ADD MSTORE PUSH2 0x42C DUP5 PUSH1 0x60 DUP6 ADD PUSH2 0x381 JUMP JUMPDEST PUSH1 0x60 DUP3 ADD MSTORE PUSH2 0x43E DUP5 PUSH1 0x80 DUP6 ADD PUSH2 0x381 JUMP JUMPDEST PUSH1 0x80 DUP3 ADD MSTORE PUSH2 0x450 DUP5 PUSH1 0xA0 DUP6 ADD PUSH2 0x35D JUMP JUMPDEST PUSH1 0xA0 DUP3 ADD MSTORE PUSH2 0x462 DUP5 PUSH1 0xC0 DUP6 ADD PUSH2 0x35D JUMP JUMPDEST PUSH1 0xC0 DUP3 ADD MSTORE PUSH2 0x474 DUP5 PUSH1 0xE0 DUP6 ADD PUSH2 0x35D JUMP JUMPDEST PUSH1 0xE0 DUP3 ADD MSTORE PUSH2 0x100 PUSH2 0x488 DUP6 DUP3 DUP7 ADD PUSH2 0x35D JUMP JUMPDEST SWAP1 DUP3 ADD MSTORE PUSH2 0x120 DUP4 DUP2 ADD CALLDATALOAD SWAP1 DUP3 ADD MSTORE PUSH2 0x140 PUSH2 0x4A6 DUP6 DUP3 DUP7 ADD PUSH2 0x3A1 JUMP JUMPDEST SWAP1 DUP3 ADD MSTORE PUSH2 0x160 SWAP3 DUP4 ADD CALLDATALOAD SWAP3 DUP2 ADD SWAP3 SWAP1 SWAP3 MSTORE POP SWAP2 SWAP1 POP JUMP JUMPDEST PUSH1 0x0 PUSH2 0x140 DUP3 DUP5 SUB SLT ISZERO PUSH2 0x3CB JUMPI DUP1 DUP2 REVERT JUMPDEST PUSH1 0x0 PUSH2 0x140 DUP1 DUP4 DUP6 SUB SLT ISZERO PUSH2 0x4E3 JUMPI DUP2 DUP3 REVERT JUMPDEST PUSH2 0x4EC DUP2 PUSH2 0x5A0 JUMP JUMPDEST SWAP1 POP PUSH2 0x4F8 DUP5 DUP5 PUSH2 0x35D JUMP JUMPDEST DUP2 MSTORE PUSH2 0x507 DUP5 PUSH1 0x20 DUP6 ADD PUSH2 0x35D JUMP JUMPDEST PUSH1 0x20 DUP3 ADD MSTORE PUSH2 0x519 DUP5 PUSH1 0x40 DUP6 ADD PUSH2 0x381 JUMP JUMPDEST PUSH1 0x40 DUP3 ADD MSTORE PUSH2 0x52B DUP5 PUSH1 0x60 DUP6 ADD PUSH2 0x381 JUMP JUMPDEST PUSH1 0x60 DUP3 ADD MSTORE PUSH2 0x53D DUP5 PUSH1 0x80 DUP6 ADD PUSH2 0x35D JUMP JUMPDEST PUSH1 0x80 DUP3 ADD MSTORE PUSH2 0x54F DUP5 PUSH1 0xA0 DUP6 ADD PUSH2 0x35D JUMP JUMPDEST PUSH1 0xA0 DUP3 ADD MSTORE PUSH2 0x561 DUP5 PUSH1 0xC0 DUP6 ADD PUSH2 0x35D JUMP JUMPDEST PUSH1 0xC0 DUP3 ADD MSTORE PUSH1 0xE0 DUP4 ADD CALLDATALOAD PUSH1 0xE0 DUP3 ADD MSTORE PUSH2 0x100 PUSH2 0x57F DUP6 DUP3 DUP7 ADD PUSH2 0x3A1 JUMP JUMPDEST SWAP1 DUP3 ADD MSTORE PUSH2 0x120 SWAP3 DUP4 ADD CALLDATALOAD SWAP3 DUP2 ADD SWAP3 SWAP1 SWAP3 MSTORE POP SWAP2 SWAP1 POP JUMP JUMPDEST SWAP1 DUP2 MSTORE PUSH1 0x20 ADD SWAP1 JUMP JUMPDEST PUSH1 0x40 MLOAD DUP2 DUP2 ADD PUSH8 0xFFFFFFFFFFFFFFFF DUP2 GT DUP3 DUP3 LT OR ISZERO PUSH2 0x5BF JUMPI PUSH1 0x0 DUP1 REVERT JUMPDEST PUSH1 0x40 MSTORE SWAP2 SWAP1 POP JUMP INVALID LOG2 PUSH5 0x6970667358 0x22 SLT KECCAK256 PUSH21 0x99E5E175B6FA2C339B5E4F0E2DB5B0EAE9DA113523 0xE4 SWAP16 BALANCE PUSH5 0x446B3E9D65 PUSH2 0x6473 PUSH16 0x6C634300060C00330000000000000000 "
            },
            "methodIdentifiers": {
                "getLimitOrderStructHash((address,address,uint128,uint128,uint128,address,address,address,address,bytes32,uint64,uint256))": "ad54a598",
                "getRfqOrderStructHash((address,address,uint128,uint128,address,address,address,bytes32,uint64,uint256))": "54827915"
            }
        }
    },
    "sourceTreeHashHex": "0x88c95bb75f4da0e204c821a78885dec73aace6ce155b562337d3919d6f303d84",
    "compiler": {
        "name": "solc",
        "version": "0.6.12+commit.27d51765",
        "settings": {
            "remappings": [
                "@0x/contracts-utils=/Users/michaelzhu/protocol/node_modules/@0x/contracts-utils",
                "@0x/contracts-erc20=/Users/michaelzhu/protocol/contracts/zero-ex/node_modules/@0x/contracts-erc20"
            ],
            "optimizer": {
                "enabled": true,
                "runs": 1000000,
                "details": {
                    "yul": true,
                    "deduplicate": true,
                    "cse": true,
                    "constantOptimizer": true
                }
            },
            "outputSelection": {
                "*": {
                    "*": [
                        "abi",
                        "devdoc",
                        "evm.bytecode.object",
                        "evm.bytecode.sourceMap",
                        "evm.deployedBytecode.object",
                        "evm.deployedBytecode.sourceMap",
                        "evm.methodIdentifiers"
                    ]
                }
            },
            "evmVersion": "istanbul"
        }
    },
    "chains": {}
}