{
    "schemaVersion": "2.0.0",
    "contractName": "TestPermissionlessTransformerDeployerSuicidal",
    "compilerOutput": {
        "abi": [
            {
                "inputs": [],
                "name": "kill",
                "outputs": [],
                "stateMutability": "nonpayable",
                "type": "function"
            }
        ],
        "devdoc": {
            "kind": "dev",
            "methods": {},
            "version": 1
        },
        "evm": {
            "bytecode": {
                "linkReferences": {},
                "object": "0x6080604052348015600f57600080fd5b50606e80601d6000396000f3fe6080604052348015600f57600080fd5b506004361060285760003560e01c806341c0e1b514602d575b600080fd5b60336035565b005b33fffea2646970667358221220ab85a0b9cf6edca2d068defd0ed9670f376ba82209aad3e16c639c4b1a552f4b64736f6c634300060c0033",
                "opcodes": "PUSH1 0x80 PUSH1 0x40 MSTORE CALLVALUE DUP1 ISZERO PUSH1 0xF JUMPI PUSH1 0x0 DUP1 REVERT JUMPDEST POP PUSH1 0x6E DUP1 PUSH1 0x1D PUSH1 0x0 CODECOPY PUSH1 0x0 RETURN INVALID PUSH1 0x80 PUSH1 0x40 MSTORE CALLVALUE DUP1 ISZERO PUSH1 0xF JUMPI PUSH1 0x0 DUP1 REVERT JUMPDEST POP PUSH1 0x4 CALLDATASIZE LT PUSH1 0x28 JUMPI PUSH1 0x0 CALLDATALOAD PUSH1 0xE0 SHR DUP1 PUSH4 0x41C0E1B5 EQ PUSH1 0x2D JUMPI JUMPDEST PUSH1 0x0 DUP1 REVERT JUMPDEST PUSH1 0x33 PUSH1 0x35 JUMP JUMPDEST STOP JUMPDEST CALLER SELFDESTRUCT INVALID LOG2 PUSH5 0x6970667358 0x22 SLT KECCAK256 0xAB DUP6 LOG0 0xB9 0xCF PUSH15 0xDCA2D068DEFD0ED9670F376BA82209 0xAA 0xD3 0xE1 PUSH13 0x639C4B1A552F4B64736F6C6343 STOP MOD 0xC STOP CALLER "
            },
            "methodIdentifiers": {
                "kill()": "41c0e1b5"
            }
        }
    },
    "sourceTreeHashHex": "0xc0680529fe2cf338bbd8ab89fa5bb02ce1933165e0b913a9ef832522a22f4c38",
    "compiler": {
        "name": "solc",
        "version": "0.6.12+commit.27d51765",
        "settings": {
            "remappings": [
                "@0x/contracts-utils=/Users/michaelzhu/protocol/node_modules/@0x/contracts-utils",
                "@0x/contracts-erc20=/Users/michaelzhu/protocol/contracts/zero-ex/node_modules/@0x/contracts-erc20"
            ],
            "optimizer": {
                "enabled": true,
                "runs": 1000000,
                "details": {
                    "yul": true,
                    "deduplicate": true,
                    "cse": true,
                    "constantOptimizer": true
                }
            },
            "outputSelection": {
                "*": {
                    "*": [
                        "abi",
                        "devdoc",
                        "evm.bytecode.object",
                        "evm.bytecode.sourceMap",
                        "evm.deployedBytecode.object",
                        "evm.deployedBytecode.sourceMap",
                        "evm.methodIdentifiers"
                    ]
                }
            },
            "evmVersion": "istanbul"
        }
    },
    "chains": {}
}