{
    "schemaVersion": "2.0.0",
    "contractName": "TestTokenSpenderERC20Token",
    "compilerOutput": {
        "abi": [
            {
                "anonymous": false,
                "inputs": [
                    {
                        "indexed": false,
                        "internalType": "address",
                        "name": "sender",
                        "type": "address"
                    },
                    {
                        "indexed": false,
                        "internalType": "address",
                        "name": "from",
                        "type": "address"
                    },
                    {
                        "indexed": false,
                        "internalType": "address",
                        "name": "to",
                        "type": "address"
                    },
                    {
                        "indexed": false,
                        "internalType": "uint256",
                        "name": "amount",
                        "type": "uint256"
                    }
                ],
                "name": "TransferFromCalled",
                "type": "event"
            },
            {
                "inputs": [
                    {
                        "internalType": "address",
                        "name": "",
                        "type": "address"
                    },
                    {
                        "internalType": "address",
                        "name": "",
                        "type": "address"
                    }
                ],
                "name": "allowance",
                "outputs": [
                    {
                        "internalType": "uint256",
                        "name": "",
                        "type": "uint256"
                    }
                ],
                "stateMutability": "view",
                "type": "function"
            },
            {
                "inputs": [
                    {
                        "internalType": "address",
                        "name": "spender",
                        "type": "address"
                    },
                    {
                        "internalType": "uint256",
                        "name": "amount",
                        "type": "uint256"
                    }
                ],
                "name": "approve",
                "outputs": [
                    {
                        "internalType": "bool",
                        "name": "",
                        "type": "bool"
                    }
                ],
                "stateMutability": "nonpayable",
                "type": "function"
            },
            {
                "inputs": [
                    {
                        "internalType": "address",
                        "name": "owner",
                        "type": "address"
                    },
                    {
                        "internalType": "address",
                        "name": "spender",
                        "type": "address"
                    },
                    {
                        "internalType": "uint256",
                        "name": "amount",
                        "type": "uint256"
                    }
                ],
                "name": "approveAs",
                "outputs": [
                    {
                        "internalType": "bool",
                        "name": "",
                        "type": "bool"
                    }
                ],
                "stateMutability": "nonpayable",
                "type": "function"
            },
            {
                "inputs": [
                    {
                        "internalType": "address",
                        "name": "",
                        "type": "address"
                    }
                ],
                "name": "balanceOf",
                "outputs": [
                    {
                        "internalType": "uint256",
                        "name": "",
                        "type": "uint256"
                    }
                ],
                "stateMutability": "view",
                "type": "function"
            },
            {
                "inputs": [
                    {
                        "internalType": "address",
                        "name": "owner",
                        "type": "address"
                    },
                    {
                        "internalType": "uint256",
                        "name": "amount",
                        "type": "uint256"
                    }
                ],
                "name": "burn",
                "outputs": [],
                "stateMutability": "nonpayable",
                "type": "function"
            },
            {
                "inputs": [
                    {
                        "internalType": "address",
                        "name": "owner",
                        "type": "address"
                    },
                    {
                        "internalType": "address",
                        "name": "spender",
                        "type": "address"
                    }
                ],
                "name": "getSpendableAmount",
                "outputs": [
                    {
                        "internalType": "uint256",
                        "name": "",
                        "type": "uint256"
                    }
                ],
                "stateMutability": "view",
                "type": "function"
            },
            {
                "inputs": [
                    {
                        "internalType": "address",
                        "name": "owner",
                        "type": "address"
                    },
                    {
                        "internalType": "uint256",
                        "name": "amount",
                        "type": "uint256"
                    }
                ],
                "name": "mint",
                "outputs": [],
                "stateMutability": "nonpayable",
                "type": "function"
            },
            {
                "inputs": [
                    {
                        "internalType": "address",
                        "name": "owner",
                        "type": "address"
                    },
                    {
                        "internalType": "uint256",
                        "name": "balance",
                        "type": "uint256"
                    },
                    {
                        "internalType": "address",
                        "name": "spender",
                        "type": "address"
                    },
                    {
                        "internalType": "uint256",
                        "name": "allowance_",
                        "type": "uint256"
                    }
                ],
                "name": "setBalanceAndAllowanceOf",
                "outputs": [],
                "stateMutability": "nonpayable",
                "type": "function"
            },
            {
                "inputs": [
                    {
                        "internalType": "bool",
                        "name": "isGreedy",
                        "type": "bool"
                    }
                ],
                "name": "setGreedyRevert",
                "outputs": [],
                "stateMutability": "nonpayable",
                "type": "function"
            },
            {
                "inputs": [
                    {
                        "internalType": "address",
                        "name": "to",
                        "type": "address"
                    },
                    {
                        "internalType": "uint256",
                        "name": "amount",
                        "type": "uint256"
                    }
                ],
                "name": "transfer",
                "outputs": [
                    {
                        "internalType": "bool",
                        "name": "",
                        "type": "bool"
                    }
                ],
                "stateMutability": "nonpayable",
                "type": "function"
            },
            {
                "inputs": [
                    {
                        "internalType": "address",
                        "name": "from",
                        "type": "address"
                    },
                    {
                        "internalType": "address",
                        "name": "to",
                        "type": "address"
                    },
                    {
                        "internalType": "uint256",
                        "name": "amount",
                        "type": "uint256"
                    }
                ],
                "name": "transferFrom",
                "outputs": [
                    {
                        "internalType": "bool",
                        "name": "",
                        "type": "bool"
                    }
                ],
                "stateMutability": "nonpayable",
                "type": "function"
            }
        ],
        "devdoc": {
            "kind": "dev",
            "methods": {},
            "version": 1
        },
        "evm": {
            "bytecode": {
                "linkReferences": {},
                "object": "0x608060405234801561001057600080fd5b506107f3806100206000396000f3fe608060405234801561001057600080fd5b50600436106100c95760003560e01c80633a73bf27116100815780639dc29fac1161005b5780639dc29fac1461018b578063a9059cbb1461019e578063dd62ed3e146101b1576100c9565b80633a73bf271461015257806340c10f191461016557806370a0823114610178576100c9565b80631decf162116100b25780631decf1621461010a57806323b872dd1461011f5780632724ed4b14610132576100c9565b8063095ea7b3146100ce578063111c4724146100f7575b600080fd5b6100e16100dc366004610604565b6101c4565b6040516100ee91906106ca565b60405180910390f35b6100e16101053660046105c4565b6101ff565b61011d610118366004610673565b61023e565b005b6100e161012d3660046105c4565b61026f565b610145610140366004610590565b610371565b6040516100ee919061078f565b61011d61016036600461062e565b610417565b61011d610173366004610604565b610457565b610145610186366004610575565b610486565b61011d610199366004610604565b610498565b6100e16101ac366004610604565b610527565b6101456101bf366004610590565b610534565b33600090815260016020818152604080842073ffffffffffffffffffffffffffffffffffffffff871685529091529091208290555b92915050565b73ffffffffffffffffffffffffffffffffffffffff808416600090815260016020818152604080842094871684529390529190208290555b9392505050565b600280547fffffffffffffffffffffffffffffffffffffffffffffffffffffffffffffff0016911515919091179055565b60007ff50c935f8b94f9688106353b0b0d3e83df3859504445a159e212dfbf936aa433338585856040516102a69493929190610693565b60405180910390a16105398214156102ba57005b61053a8214156102cc57506000610237565b61053b82141561031e5760025460ff16156102e357fe5b6040517f08c379a000000000000000000000000000000000000000000000000000000000815260040161031590610732565b60405180910390fd5b61053c82141561033d5760025460ff161561033557fe5b506000610237565b61053d82148061034e575061053e82145b156103675761053d821460008181526020849052604090f35b5060019392505050565b73ffffffffffffffffffffffffffffffffffffffff808316600081815260016020908152604080832094861683529381528382205492825281905291822054106103ed5773ffffffffffffffffffffffffffffffffffffffff808416600090815260016020908152604080832093861683529290522054610237565b505073ffffffffffffffffffffffffffffffffffffffff1660009081526020819052604090205490565b73ffffffffffffffffffffffffffffffffffffffff9384166000908152602081815260408083209590955560018152848220939095168152919093522055565b73ffffffffffffffffffffffffffffffffffffffff909116600090815260208190526040902080549091019055565b60006020819052908152604090205481565b73ffffffffffffffffffffffffffffffffffffffff82166000908152602081905260409020548111156104f7576040517f08c379a0000000000000000000000000000000000000000000000000000000008152600401610315906106d5565b73ffffffffffffffffffffffffffffffffffffffff90911660009081526020819052604090208054919091039055565b600061023733848461026f565b600160209081526000928352604080842090915290825290205481565b803573ffffffffffffffffffffffffffffffffffffffff811681146101f957600080fd5b600060208284031215610586578081fd5b6102378383610551565b600080604083850312156105a2578081fd5b6105ac8484610551565b91506105bb8460208501610551565b90509250929050565b6000806000606084860312156105d8578081fd5b83356105e381610798565b925060208401356105f381610798565b929592945050506040919091013590565b60008060408385031215610616578182fd5b6106208484610551565b946020939093013593505050565b60008060008060808587031215610643578081fd5b61064d8686610551565b9350602085013592506106638660408701610551565b9396929550929360600135925050565b600060208284031215610684578081fd5b81358015158114610237578182fd5b73ffffffffffffffffffffffffffffffffffffffff9485168152928416602084015292166040820152606081019190915260800190565b901515815260200190565b60208082526029908201527f546573744d696e7461626c654552433230546f6b656e2f494e5355464649434960408201527f454e545f46554e44530000000000000000000000000000000000000000000000606082015260800190565b60208082526021908201527f54657374546f6b656e5370656e6465724552433230546f6b656e2f526576657260408201527f7400000000000000000000000000000000000000000000000000000000000000606082015260800190565b90815260200190565b73ffffffffffffffffffffffffffffffffffffffff811681146107ba57600080fd5b5056fea2646970667358221220d3903ce3eca1b5af604eca1cc75dec95117cbbdffafdd567653fde23eace1dc364736f6c634300060c0033",
                "opcodes": "PUSH1 0x80 PUSH1 0x40 MSTORE CALLVALUE DUP1 ISZERO PUSH2 0x10 JUMPI PUSH1 0x0 DUP1 REVERT JUMPDEST POP PUSH2 0x7F3 DUP1 PUSH2 0x20 PUSH1 0x0 CODECOPY PUSH1 0x0 RETURN INVALID PUSH1 0x80 PUSH1 0x40 MSTORE CALLVALUE DUP1 ISZERO PUSH2 0x10 JUMPI PUSH1 0x0 DUP1 REVERT JUMPDEST POP PUSH1 0x4 CALLDATASIZE LT PUSH2 0xC9 JUMPI PUSH1 0x0 CALLDATALOAD PUSH1 0xE0 SHR DUP1 PUSH4 0x3A73BF27 GT PUSH2 0x81 JUMPI DUP1 PUSH4 0x9DC29FAC GT PUSH2 0x5B JUMPI DUP1 PUSH4 0x9DC29FAC EQ PUSH2 0x18B JUMPI DUP1 PUSH4 0xA9059CBB EQ PUSH2 0x19E JUMPI DUP1 PUSH4 0xDD62ED3E EQ PUSH2 0x1B1 JUMPI PUSH2 0xC9 JUMP JUMPDEST DUP1 PUSH4 0x3A73BF27 EQ PUSH2 0x152 JUMPI DUP1 PUSH4 0x40C10F19 EQ PUSH2 0x165 JUMPI DUP1 PUSH4 0x70A08231 EQ PUSH2 0x178 JUMPI PUSH2 0xC9 JUMP JUMPDEST DUP1 PUSH4 0x1DECF162 GT PUSH2 0xB2 JUMPI DUP1 PUSH4 0x1DECF162 EQ PUSH2 0x10A JUMPI DUP1 PUSH4 0x23B872DD EQ PUSH2 0x11F JUMPI DUP1 PUSH4 0x2724ED4B EQ PUSH2 0x132 JUMPI PUSH2 0xC9 JUMP JUMPDEST DUP1 PUSH4 0x95EA7B3 EQ PUSH2 0xCE JUMPI DUP1 PUSH4 0x111C4724 EQ PUSH2 0xF7 JUMPI JUMPDEST PUSH1 0x0 DUP1 REVERT JUMPDEST PUSH2 0xE1 PUSH2 0xDC CALLDATASIZE PUSH1 0x4 PUSH2 0x604 JUMP JUMPDEST PUSH2 0x1C4 JUMP JUMPDEST PUSH1 0x40 MLOAD PUSH2 0xEE SWAP2 SWAP1 PUSH2 0x6CA JUMP JUMPDEST PUSH1 0x40 MLOAD DUP1 SWAP2 SUB SWAP1 RETURN JUMPDEST PUSH2 0xE1 PUSH2 0x105 CALLDATASIZE PUSH1 0x4 PUSH2 0x5C4 JUMP JUMPDEST PUSH2 0x1FF JUMP JUMPDEST PUSH2 0x11D PUSH2 0x118 CALLDATASIZE PUSH1 0x4 PUSH2 0x673 JUMP JUMPDEST PUSH2 0x23E JUMP JUMPDEST STOP JUMPDEST PUSH2 0xE1 PUSH2 0x12D CALLDATASIZE PUSH1 0x4 PUSH2 0x5C4 JUMP JUMPDEST PUSH2 0x26F JUMP JUMPDEST PUSH2 0x145 PUSH2 0x140 CALLDATASIZE PUSH1 0x4 PUSH2 0x590 JUMP JUMPDEST PUSH2 0x371 JUMP JUMPDEST PUSH1 0x40 MLOAD PUSH2 0xEE SWAP2 SWAP1 PUSH2 0x78F JUMP JUMPDEST PUSH2 0x11D PUSH2 0x160 CALLDATASIZE PUSH1 0x4 PUSH2 0x62E JUMP JUMPDEST PUSH2 0x417 JUMP JUMPDEST PUSH2 0x11D PUSH2 0x173 CALLDATASIZE PUSH1 0x4 PUSH2 0x604 JUMP JUMPDEST PUSH2 0x457 JUMP JUMPDEST PUSH2 0x145 PUSH2 0x186 CALLDATASIZE PUSH1 0x4 PUSH2 0x575 JUMP JUMPDEST PUSH2 0x486 JUMP JUMPDEST PUSH2 0x11D PUSH2 0x199 CALLDATASIZE PUSH1 0x4 PUSH2 0x604 JUMP JUMPDEST PUSH2 0x498 JUMP JUMPDEST PUSH2 0xE1 PUSH2 0x1AC CALLDATASIZE PUSH1 0x4 PUSH2 0x604 JUMP JUMPDEST PUSH2 0x527 JUMP JUMPDEST PUSH2 0x145 PUSH2 0x1BF CALLDATASIZE PUSH1 0x4 PUSH2 0x590 JUMP JUMPDEST PUSH2 0x534 JUMP JUMPDEST CALLER PUSH1 0x0 SWAP1 DUP2 MSTORE PUSH1 0x1 PUSH1 0x20 DUP2 DUP2 MSTORE PUSH1 0x40 DUP1 DUP5 KECCAK256 PUSH20 0xFFFFFFFFFFFFFFFFFFFFFFFFFFFFFFFFFFFFFFFF DUP8 AND DUP6 MSTORE SWAP1 SWAP2 MSTORE SWAP1 SWAP2 KECCAK256 DUP3 SWAP1 SSTORE JUMPDEST SWAP3 SWAP2 POP POP JUMP JUMPDEST PUSH20 0xFFFFFFFFFFFFFFFFFFFFFFFFFFFFFFFFFFFFFFFF DUP1 DUP5 AND PUSH1 0x0 SWAP1 DUP2 MSTORE PUSH1 0x1 PUSH1 0x20 DUP2 DUP2 MSTORE PUSH1 0x40 DUP1 DUP5 KECCAK256 SWAP5 DUP8 AND DUP5 MSTORE SWAP4 SWAP1 MSTORE SWAP2 SWAP1 KECCAK256 DUP3 SWAP1 SSTORE JUMPDEST SWAP4 SWAP3 POP POP POP JUMP JUMPDEST PUSH1 0x2 DUP1 SLOAD PUSH32 0xFFFFFFFFFFFFFFFFFFFFFFFFFFFFFFFFFFFFFFFFFFFFFFFFFFFFFFFFFFFFFF00 AND SWAP2 ISZERO ISZERO SWAP2 SWAP1 SWAP2 OR SWAP1 SSTORE JUMP JUMPDEST PUSH1 0x0 PUSH32 0xF50C935F8B94F9688106353B0B0D3E83DF3859504445A159E212DFBF936AA433 CALLER DUP6 DUP6 DUP6 PUSH1 0x40 MLOAD PUSH2 0x2A6 SWAP5 SWAP4 SWAP3 SWAP2 SWAP1 PUSH2 0x693 JUMP JUMPDEST PUSH1 0x40 MLOAD DUP1 SWAP2 SUB SWAP1 LOG1 PUSH2 0x539 DUP3 EQ ISZERO PUSH2 0x2BA JUMPI STOP JUMPDEST PUSH2 0x53A DUP3 EQ ISZERO PUSH2 0x2CC JUMPI POP PUSH1 0x0 PUSH2 0x237 JUMP JUMPDEST PUSH2 0x53B DUP3 EQ ISZERO PUSH2 0x31E JUMPI PUSH1 0x2 SLOAD PUSH1 0xFF AND ISZERO PUSH2 0x2E3 JUMPI INVALID JUMPDEST PUSH1 0x40 MLOAD PUSH32 0x8C379A000000000000000000000000000000000000000000000000000000000 DUP2 MSTORE PUSH1 0x4 ADD PUSH2 0x315 SWAP1 PUSH2 0x732 JUMP JUMPDEST PUSH1 0x40 MLOAD DUP1 SWAP2 SUB SWAP1 REVERT JUMPDEST PUSH2 0x53C DUP3 EQ ISZERO PUSH2 0x33D JUMPI PUSH1 0x2 SLOAD PUSH1 0xFF AND ISZERO PUSH2 0x335 JUMPI INVALID JUMPDEST POP PUSH1 0x0 PUSH2 0x237 JUMP JUMPDEST PUSH2 0x53D DUP3 EQ DUP1 PUSH2 0x34E JUMPI POP PUSH2 0x53E DUP3 EQ JUMPDEST ISZERO PUSH2 0x367 JUMPI PUSH2 0x53D DUP3 EQ PUSH1 0x0 DUP2 DUP2 MSTORE PUSH1 0x20 DUP5 SWAP1 MSTORE PUSH1 0x40 SWAP1 RETURN JUMPDEST POP PUSH1 0x1 SWAP4 SWAP3 POP POP POP JUMP JUMPDEST PUSH20 0xFFFFFFFFFFFFFFFFFFFFFFFFFFFFFFFFFFFFFFFF DUP1 DUP4 AND PUSH1 0x0 DUP2 DUP2 MSTORE PUSH1 0x1 PUSH1 0x20 SWAP1 DUP2 MSTORE PUSH1 0x40 DUP1 DUP4 KECCAK256 SWAP5 DUP7 AND DUP4 MSTORE SWAP4 DUP2 MSTORE DUP4 DUP3 KECCAK256 SLOAD SWAP3 DUP3 MSTORE DUP2 SWAP1 MSTORE SWAP2 DUP3 KECCAK256 SLOAD LT PUSH2 0x3ED JUMPI PUSH20 0xFFFFFFFFFFFFFFFFFFFFFFFFFFFFFFFFFFFFFFFF DUP1 DUP5 AND PUSH1 0x0 SWAP1 DUP2 MSTORE PUSH1 0x1 PUSH1 0x20 SWAP1 DUP2 MSTORE PUSH1 0x40 DUP1 DUP4 KECCAK256 SWAP4 DUP7 AND DUP4 MSTORE SWAP3 SWAP1 MSTORE KECCAK256 SLOAD PUSH2 0x237 JUMP JUMPDEST POP POP PUSH20 0xFFFFFFFFFFFFFFFFFFFFFFFFFFFFFFFFFFFFFFFF AND PUSH1 0x0 SWAP1 DUP2 MSTORE PUSH1 0x20 DUP2 SWAP1 MSTORE PUSH1 0x40 SWAP1 KECCAK256 SLOAD SWAP1 JUMP JUMPDEST PUSH20 0xFFFFFFFFFFFFFFFFFFFFFFFFFFFFFFFFFFFFFFFF SWAP4 DUP5 AND PUSH1 0x0 SWAP1 DUP2 MSTORE PUSH1 0x20 DUP2 DUP2 MSTORE PUSH1 0x40 DUP1 DUP4 KECCAK256 SWAP6 SWAP1 SWAP6 SSTORE PUSH1 0x1 DUP2 MSTORE DUP5 DUP3 KECCAK256 SWAP4 SWAP1 SWAP6 AND DUP2 MSTORE SWAP2 SWAP1 SWAP4 MSTORE KECCAK256 SSTORE JUMP JUMPDEST PUSH20 0xFFFFFFFFFFFFFFFFFFFFFFFFFFFFFFFFFFFFFFFF SWAP1 SWAP2 AND PUSH1 0x0 SWAP1 DUP2 MSTORE PUSH1 0x20 DUP2 SWAP1 MSTORE PUSH1 0x40 SWAP1 KECCAK256 DUP1 SLOAD SWAP1 SWAP2 ADD SWAP1 SSTORE JUMP JUMPDEST PUSH1 0x0 PUSH1 0x20 DUP2 SWAP1 MSTORE SWAP1 DUP2 MSTORE PUSH1 0x40 SWAP1 KECCAK256 SLOAD DUP2 JUMP JUMPDEST PUSH20 0xFFFFFFFFFFFFFFFFFFFFFFFFFFFFFFFFFFFFFFFF DUP3 AND PUSH1 0x0 SWAP1 DUP2 MSTORE PUSH1 0x20 DUP2 SWAP1 MSTORE PUSH1 0x40 SWAP1 KECCAK256 SLOAD DUP2 GT ISZERO PUSH2 0x4F7 JUMPI PUSH1 0x40 MLOAD PUSH32 0x8C379A000000000000000000000000000000000000000000000000000000000 DUP2 MSTORE PUSH1 0x4 ADD PUSH2 0x315 SWAP1 PUSH2 0x6D5 JUMP JUMPDEST PUSH20 0xFFFFFFFFFFFFFFFFFFFFFFFFFFFFFFFFFFFFFFFF SWAP1 SWAP2 AND PUSH1 0x0 SWAP1 DUP2 MSTORE PUSH1 0x20 DUP2 SWAP1 MSTORE PUSH1 0x40 SWAP1 KECCAK256 DUP1 SLOAD SWAP2 SWAP1 SWAP2 SUB SWAP1 SSTORE JUMP JUMPDEST PUSH1 0x0 PUSH2 0x237 CALLER DUP5 DUP5 PUSH2 0x26F JUMP JUMPDEST PUSH1 0x1 PUSH1 0x20 SWAP1 DUP2 MSTORE PUSH1 0x0 SWAP3 DUP4 MSTORE PUSH1 0x40 DUP1 DUP5 KECCAK256 SWAP1 SWAP2 MSTORE SWAP1 DUP3 MSTORE SWAP1 KECCAK256 SLOAD DUP2 JUMP JUMPDEST DUP1 CALLDATALOAD PUSH20 0xFFFFFFFFFFFFFFFFFFFFFFFFFFFFFFFFFFFFFFFF DUP2 AND DUP2 EQ PUSH2 0x1F9 JUMPI PUSH1 0x0 DUP1 REVERT JUMPDEST PUSH1 0x0 PUSH1 0x20 DUP3 DUP5 SUB SLT ISZERO PUSH2 0x586 JUMPI DUP1 DUP2 REVERT JUMPDEST PUSH2 0x237 DUP4 DUP4 PUSH2 0x551 JUMP JUMPDEST PUSH1 0x0 DUP1 PUSH1 0x40 DUP4 DUP6 SUB SLT ISZERO PUSH2 0x5A2 JUMPI DUP1 DUP2 REVERT JUMPDEST PUSH2 0x5AC DUP5 DUP5 PUSH2 0x551 JUMP JUMPDEST SWAP2 POP PUSH2 0x5BB DUP5 PUSH1 0x20 DUP6 ADD PUSH2 0x551 JUMP JUMPDEST SWAP1 POP SWAP3 POP SWAP3 SWAP1 POP JUMP JUMPDEST PUSH1 0x0 DUP1 PUSH1 0x0 PUSH1 0x60 DUP5 DUP7 SUB SLT ISZERO PUSH2 0x5D8 JUMPI DUP1 DUP2 REVERT JUMPDEST DUP4 CALLDATALOAD PUSH2 0x5E3 DUP2 PUSH2 0x798 JUMP JUMPDEST SWAP3 POP PUSH1 0x20 DUP5 ADD CALLDATALOAD PUSH2 0x5F3 DUP2 PUSH2 0x798 JUMP JUMPDEST SWAP3 SWAP6 SWAP3 SWAP5 POP POP POP PUSH1 0x40 SWAP2 SWAP1 SWAP2 ADD CALLDATALOAD SWAP1 JUMP JUMPDEST PUSH1 0x0 DUP1 PUSH1 0x40 DUP4 DUP6 SUB SLT ISZERO PUSH2 0x616 JUMPI DUP2 DUP3 REVERT JUMPDEST PUSH2 0x620 DUP5 DUP5 PUSH2 0x551 JUMP JUMPDEST SWAP5 PUSH1 0x20 SWAP4 SWAP1 SWAP4 ADD CALLDATALOAD SWAP4 POP POP POP JUMP JUMPDEST PUSH1 0x0 DUP1 PUSH1 0x0 DUP1 PUSH1 0x80 DUP6 DUP8 SUB SLT ISZERO PUSH2 0x643 JUMPI DUP1 DUP2 REVERT JUMPDEST PUSH2 0x64D DUP7 DUP7 PUSH2 0x551 JUMP JUMPDEST SWAP4 POP PUSH1 0x20 DUP6 ADD CALLDATALOAD SWAP3 POP PUSH2 0x663 DUP7 PUSH1 0x40 DUP8 ADD PUSH2 0x551 JUMP JUMPDEST SWAP4 SWAP7 SWAP3 SWAP6 POP SWAP3 SWAP4 PUSH1 0x60 ADD CALLDATALOAD SWAP3 POP POP JUMP JUMPDEST PUSH1 0x0 PUSH1 0x20 DUP3 DUP5 SUB SLT ISZERO PUSH2 0x684 JUMPI DUP1 DUP2 REVERT JUMPDEST DUP2 CALLDATALOAD DUP1 ISZERO ISZERO DUP2 EQ PUSH2 0x237 JUMPI DUP2 DUP3 REVERT JUMPDEST PUSH20 0xFFFFFFFFFFFFFFFFFFFFFFFFFFFFFFFFFFFFFFFF SWAP5 DUP6 AND DUP2 MSTORE SWAP3 DUP5 AND PUSH1 0x20 DUP5 ADD MSTORE SWAP3 AND PUSH1 0x40 DUP3 ADD MSTORE PUSH1 0x60 DUP2 ADD SWAP2 SWAP1 SWAP2 MSTORE PUSH1 0x80 ADD SWAP1 JUMP JUMPDEST SWAP1 ISZERO ISZERO DUP2 MSTORE PUSH1 0x20 ADD SWAP1 JUMP JUMPDEST PUSH1 0x20 DUP1 DUP3 MSTORE PUSH1 0x29 SWAP1 DUP3 ADD MSTORE PUSH32 0x546573744D696E7461626C654552433230546F6B656E2F494E53554646494349 PUSH1 0x40 DUP3 ADD MSTORE PUSH32 0x454E545F46554E44530000000000000000000000000000000000000000000000 PUSH1 0x60 DUP3 ADD MSTORE PUSH1 0x80 ADD SWAP1 JUMP JUMPDEST PUSH1 0x20 DUP1 DUP3 MSTORE PUSH1 0x21 SWAP1 DUP3 ADD MSTORE PUSH32 0x54657374546F6B656E5370656E6465724552433230546F6B656E2F5265766572 PUSH1 0x40 DUP3 ADD MSTORE PUSH32 0x7400000000000000000000000000000000000000000000000000000000000000 PUSH1 0x60 DUP3 ADD MSTORE PUSH1 0x80 ADD SWAP1 JUMP JUMPDEST SWAP1 DUP2 MSTORE PUSH1 0x20 ADD SWAP1 JUMP JUMPDEST PUSH20 0xFFFFFFFFFFFFFFFFFFFFFFFFFFFFFFFFFFFFFFFF DUP2 AND DUP2 EQ PUSH2 0x7BA JUMPI PUSH1 0x0 DUP1 REVERT JUMPDEST POP JUMP INVALID LOG2 PUSH5 0x6970667358 0x22 SLT KECCAK256 0xD3 SWAP1 EXTCODECOPY 0xE3 0xEC LOG1 0xB5 0xAF PUSH1 0x4E 0xCA SHR 0xC7 0x5D 0xEC SWAP6 GT PUSH29 0xBBDFFAFDD567653FDE23EACE1DC364736F6C634300060C003300000000 "
            },
            "methodIdentifiers": {
                "allowance(address,address)": "dd62ed3e",
                "approve(address,uint256)": "095ea7b3",
                "approveAs(address,address,uint256)": "111c4724",
                "balanceOf(address)": "70a08231",
                "burn(address,uint256)": "9dc29fac",
                "getSpendableAmount(address,address)": "2724ed4b",
                "mint(address,uint256)": "40c10f19",
                "setBalanceAndAllowanceOf(address,uint256,address,uint256)": "3a73bf27",
                "setGreedyRevert(bool)": "1decf162",
                "transfer(address,uint256)": "a9059cbb",
                "transferFrom(address,address,uint256)": "23b872dd"
            }
        }
    },
    "sourceTreeHashHex": "0x39dc978c3f8efa1cfc95653174c5af8e5a785eb76c58d967f0a05a95566ae4ae",
    "compiler": {
        "name": "solc",
        "version": "0.6.12+commit.27d51765",
        "settings": {
            "remappings": [
                "@0x/contracts-utils=/Users/michaelzhu/protocol/node_modules/@0x/contracts-utils",
                "@0x/contracts-erc20=/Users/michaelzhu/protocol/contracts/zero-ex/node_modules/@0x/contracts-erc20"
            ],
            "optimizer": {
                "enabled": true,
                "runs": 1000000,
                "details": {
                    "yul": true,
                    "deduplicate": true,
                    "cse": true,
                    "constantOptimizer": true
                }
            },
            "outputSelection": {
                "*": {
                    "*": [
                        "abi",
                        "devdoc",
                        "evm.bytecode.object",
                        "evm.bytecode.sourceMap",
                        "evm.deployedBytecode.object",
                        "evm.deployedBytecode.sourceMap",
                        "evm.methodIdentifiers"
                    ]
                }
            },
            "evmVersion": "istanbul"
        }
    },
    "chains": {}
}