{
    "schemaVersion": "2.0.0",
    "contractName": "TestLibSignature",
    "compilerOutput": {
        "abi": [
            {
                "inputs": [
                    {
                        "internalType": "bytes32",
                        "name": "hash",
                        "type": "bytes32"
                    },
                    {
                        "components": [
                            {
                                "internalType": "enum LibSignature.SignatureType",
                                "name": "signatureType",
                                "type": "uint8"
                            },
                            {
                                "internalType": "uint8",
                                "name": "v",
                                "type": "uint8"
                            },
                            {
                                "internalType": "bytes32",
                                "name": "r",
                                "type": "bytes32"
                            },
                            {
                                "internalType": "bytes32",
                                "name": "s",
                                "type": "bytes32"
                            }
                        ],
                        "internalType": "struct LibSignature.Signature",
                        "name": "signature",
                        "type": "tuple"
                    }
                ],
                "name": "getSignerOfHash",
                "outputs": [
                    {
                        "internalType": "address",
                        "name": "signer",
                        "type": "address"
                    }
                ],
                "stateMutability": "pure",
                "type": "function"
            }
        ],
        "devdoc": {
            "kind": "dev",
            "methods": {},
            "version": 1
        },
        "evm": {
            "bytecode": {
                "linkReferences": {},
                "object": "0x608060405234801561001057600080fd5b506104a2806100206000396000f3fe608060405234801561001057600080fd5b506004361061002b5760003560e01c8063a8309be514610030575b600080fd5b61004361003e366004610349565b610059565b6040516100509190610415565b60405180910390f35b60006100738361006e3685900385018561039d565b61007c565b90505b92915050565b600061008883836101d2565b60028251600381111561009757fe5b14156100ff57600183836020015184604001518560600151604051600081526020016040526040516100cc9493929190610436565b6020604051602081039080840390855afa1580156100ee573d6000803e3d6000fd5b5050506020604051035190506101a4565b60038251600381111561010e57fe5b14156101a45760007f19457468657265756d205369676e6564204d6573736167653a0a33320000000060005283601c52603c6000209050600181846020015185604001518660600151604051600081526020016040526040516101749493929190610436565b6020604051602081039080840390855afa158015610196573d6000803e3d6000fd5b505050602060405103519150505b73ffffffffffffffffffffffffffffffffffffffff8116610076576100766101cd600585610286565b610341565b60408101517ffffffffffffffffffffffffffffffffebaaedce6af48a03bbfd25e8cd0364141111580610229575060608101517f7fffffffffffffffffffffffffffffff5d576e7357a4501ddfe92f46681b20a111155b1561023c5761023c6101cd600584610286565b60008151600381111561024b57fe5b141561025f5761025f6101cd600384610286565b60018151600381111561026e57fe5b1415610282576102826101cd600084610286565b5050565b60607ff18f11f3027e735c758137924b262d4d3aff0037dcd785aca3c699fa05d960bd83836040516024016102bc929190610454565b604080517fffffffffffffffffffffffffffffffffffffffffffffffffffffffffffffffe08184030181529190526020810180517bffffffffffffffffffffffffffffffffffffffffffffffffffffffff167fffffffff0000000000000000000000000000000000000000000000000000000090931692909217909152905092915050565b805160208201fd5b60008082840360a081121561035c578283fd5b8335925060807fffffffffffffffffffffffffffffffffffffffffffffffffffffffffffffffe08201121561038f578182fd5b506020830190509250929050565b6000608082840312156103ae578081fd5b6040516080810181811067ffffffffffffffff821117156103cd578283fd5b6040528235600481106103de578283fd5b8152602083013560ff811681146103f3578283fd5b6020820152604083810135908201526060928301359281019290925250919050565b73ffffffffffffffffffffffffffffffffffffffff91909116815260200190565b93845260ff9290921660208401526040830152606082015260800190565b604081016006841061046257fe5b928152602001529056fea26469706673582212209cb47798379a7c90bda46e17e8d82f7d439b1a3b0716cd9b42d9d6e5e480879064736f6c634300060c0033",
                "opcodes": "PUSH1 0x80 PUSH1 0x40 MSTORE CALLVALUE DUP1 ISZERO PUSH2 0x10 JUMPI PUSH1 0x0 DUP1 REVERT JUMPDEST POP PUSH2 0x4A2 DUP1 PUSH2 0x20 PUSH1 0x0 CODECOPY PUSH1 0x0 RETURN INVALID PUSH1 0x80 PUSH1 0x40 MSTORE CALLVALUE DUP1 ISZERO PUSH2 0x10 JUMPI PUSH1 0x0 DUP1 REVERT JUMPDEST POP PUSH1 0x4 CALLDATASIZE LT PUSH2 0x2B JUMPI PUSH1 0x0 CALLDATALOAD PUSH1 0xE0 SHR DUP1 PUSH4 0xA8309BE5 EQ PUSH2 0x30 JUMPI JUMPDEST PUSH1 0x0 DUP1 REVERT JUMPDEST PUSH2 0x43 PUSH2 0x3E CALLDATASIZE PUSH1 0x4 PUSH2 0x349 JUMP JUMPDEST PUSH2 0x59 JUMP JUMPDEST PUSH1 0x40 MLOAD PUSH2 0x50 SWAP2 SWAP1 PUSH2 0x415 JUMP JUMPDEST PUSH1 0x40 MLOAD DUP1 SWAP2 SUB SWAP1 RETURN JUMPDEST PUSH1 0x0 PUSH2 0x73 DUP4 PUSH2 0x6E CALLDATASIZE DUP6 SWAP1 SUB DUP6 ADD DUP6 PUSH2 0x39D JUMP JUMPDEST PUSH2 0x7C JUMP JUMPDEST SWAP1 POP JUMPDEST SWAP3 SWAP2 POP POP JUMP JUMPDEST PUSH1 0x0 PUSH2 0x88 DUP4 DUP4 PUSH2 0x1D2 JUMP JUMPDEST PUSH1 0x2 DUP3 MLOAD PUSH1 0x3 DUP2 GT ISZERO PUSH2 0x97 JUMPI INVALID JUMPDEST EQ ISZERO PUSH2 0xFF JUMPI PUSH1 0x1 DUP4 DUP4 PUSH1 0x20 ADD MLOAD DUP5 PUSH1 0x40 ADD MLOAD DUP6 PUSH1 0x60 ADD MLOAD PUSH1 0x40 MLOAD PUSH1 0x0 DUP2 MSTORE PUSH1 0x20 ADD PUSH1 0x40 MSTORE PUSH1 0x40 MLOAD PUSH2 0xCC SWAP5 SWAP4 SWAP3 SWAP2 SWAP1 PUSH2 0x436 JUMP JUMPDEST PUSH1 0x20 PUSH1 0x40 MLOAD PUSH1 0x20 DUP2 SUB SWAP1 DUP1 DUP5 SUB SWAP1 DUP6 GAS STATICCALL ISZERO DUP1 ISZERO PUSH2 0xEE JUMPI RETURNDATASIZE PUSH1 0x0 DUP1 RETURNDATACOPY RETURNDATASIZE PUSH1 0x0 REVERT JUMPDEST POP POP POP PUSH1 0x20 PUSH1 0x40 MLOAD SUB MLOAD SWAP1 POP PUSH2 0x1A4 JUMP JUMPDEST PUSH1 0x3 DUP3 MLOAD PUSH1 0x3 DUP2 GT ISZERO PUSH2 0x10E JUMPI INVALID JUMPDEST EQ ISZERO PUSH2 0x1A4 JUMPI PUSH1 0x0 PUSH32 0x19457468657265756D205369676E6564204D6573736167653A0A333200000000 PUSH1 0x0 MSTORE DUP4 PUSH1 0x1C MSTORE PUSH1 0x3C PUSH1 0x0 KECCAK256 SWAP1 POP PUSH1 0x1 DUP2 DUP5 PUSH1 0x20 ADD MLOAD DUP6 PUSH1 0x40 ADD MLOAD DUP7 PUSH1 0x60 ADD MLOAD PUSH1 0x40 MLOAD PUSH1 0x0 DUP2 MSTORE PUSH1 0x20 ADD PUSH1 0x40 MSTORE PUSH1 0x40 MLOAD PUSH2 0x174 SWAP5 SWAP4 SWAP3 SWAP2 SWAP1 PUSH2 0x436 JUMP JUMPDEST PUSH1 0x20 PUSH1 0x40 MLOAD PUSH1 0x20 DUP2 SUB SWAP1 DUP1 DUP5 SUB SWAP1 DUP6 GAS STATICCALL ISZERO DUP1 ISZERO PUSH2 0x196 JUMPI RETURNDATASIZE PUSH1 0x0 DUP1 RETURNDATACOPY RETURNDATASIZE PUSH1 0x0 REVERT JUMPDEST POP POP POP PUSH1 0x20 PUSH1 0x40 MLOAD SUB MLOAD SWAP2 POP POP JUMPDEST PUSH20 0xFFFFFFFFFFFFFFFFFFFFFFFFFFFFFFFFFFFFFFFF DUP2 AND PUSH2 0x76 JUMPI PUSH2 0x76 PUSH2 0x1CD PUSH1 0x5 DUP6 PUSH2 0x286 JUMP JUMPDEST PUSH2 0x341 JUMP JUMPDEST PUSH1 0x40 DUP2 ADD MLOAD PUSH32 0xFFFFFFFFFFFFFFFFFFFFFFFFFFFFFFFEBAAEDCE6AF48A03BBFD25E8CD0364141 GT ISZERO DUP1 PUSH2 0x229 JUMPI POP PUSH1 0x60 DUP2 ADD MLOAD PUSH32 0x7FFFFFFFFFFFFFFFFFFFFFFFFFFFFFFF5D576E7357A4501DDFE92F46681B20A1 GT ISZERO JUMPDEST ISZERO PUSH2 0x23C JUMPI PUSH2 0x23C PUSH2 0x1CD PUSH1 0x5 DUP5 PUSH2 0x286 JUMP JUMPDEST PUSH1 0x0 DUP2 MLOAD PUSH1 0x3 DUP2 GT ISZERO PUSH2 0x24B JUMPI INVALID JUMPDEST EQ ISZERO PUSH2 0x25F JUMPI PUSH2 0x25F PUSH2 0x1CD PUSH1 0x3 DUP5 PUSH2 0x286 JUMP JUMPDEST PUSH1 0x1 DUP2 MLOAD PUSH1 0x3 DUP2 GT ISZERO PUSH2 0x26E JUMPI INVALID JUMPDEST EQ ISZERO PUSH2 0x282 JUMPI PUSH2 0x282 PUSH2 0x1CD PUSH1 0x0 DUP5 PUSH2 0x286 JUMP JUMPDEST POP POP JUMP JUMPDEST PUSH1 0x60 PUSH32 0xF18F11F3027E735C758137924B262D4D3AFF0037DCD785ACA3C699FA05D960BD DUP4 DUP4 PUSH1 0x40 MLOAD PUSH1 0x24 ADD PUSH2 0x2BC SWAP3 SWAP2 SWAP1 PUSH2 0x454 JUMP JUMPDEST PUSH1 0x40 DUP1 MLOAD PUSH32 0xFFFFFFFFFFFFFFFFFFFFFFFFFFFFFFFFFFFFFFFFFFFFFFFFFFFFFFFFFFFFFFE0 DUP2 DUP5 SUB ADD DUP2 MSTORE SWAP2 SWAP1 MSTORE PUSH1 0x20 DUP2 ADD DUP1 MLOAD PUSH28 0xFFFFFFFFFFFFFFFFFFFFFFFFFFFFFFFFFFFFFFFFFFFFFFFFFFFFFFFF AND PUSH32 0xFFFFFFFF00000000000000000000000000000000000000000000000000000000 SWAP1 SWAP4 AND SWAP3 SWAP1 SWAP3 OR SWAP1 SWAP2 MSTORE SWAP1 POP SWAP3 SWAP2 POP POP JUMP JUMPDEST DUP1 MLOAD PUSH1 0x20 DUP3 ADD REVERT JUMPDEST PUSH1 0x0 DUP1 DUP3 DUP5 SUB PUSH1 0xA0 DUP2 SLT ISZERO PUSH2 0x35C JUMPI DUP3 DUP4 REVERT JUMPDEST DUP4 CALLDATALOAD SWAP3 POP PUSH1 0x80 PUSH32 0xFFFFFFFFFFFFFFFFFFFFFFFFFFFFFFFFFFFFFFFFFFFFFFFFFFFFFFFFFFFFFFE0 DUP3 ADD SLT ISZERO PUSH2 0x38F JUMPI DUP2 DUP3 REVERT JUMPDEST POP PUSH1 0x20 DUP4 ADD SWAP1 POP SWAP3 POP SWAP3 SWAP1 POP JUMP JUMPDEST PUSH1 0x0 PUSH1 0x80 DUP3 DUP5 SUB SLT ISZERO PUSH2 0x3AE JUMPI DUP1 DUP2 REVERT JUMPDEST PUSH1 0x40 MLOAD PUSH1 0x80 DUP2 ADD DUP2 DUP2 LT PUSH8 0xFFFFFFFFFFFFFFFF DUP3 GT OR ISZERO PUSH2 0x3CD JUMPI DUP3 DUP4 REVERT JUMPDEST PUSH1 0x40 MSTORE DUP3 CALLDATALOAD PUSH1 0x4 DUP2 LT PUSH2 0x3DE JUMPI DUP3 DUP4 REVERT JUMPDEST DUP2 MSTORE PUSH1 0x20 DUP4 ADD CALLDATALOAD PUSH1 0xFF DUP2 AND DUP2 EQ PUSH2 0x3F3 JUMPI DUP3 DUP4 REVERT JUMPDEST PUSH1 0x20 DUP3 ADD MSTORE PUSH1 0x40 DUP4 DUP2 ADD CALLDATALOAD SWAP1 DUP3 ADD MSTORE PUSH1 0x60 SWAP3 DUP4 ADD CALLDATALOAD SWAP3 DUP2 ADD SWAP3 SWAP1 SWAP3 MSTORE POP SWAP2 SWAP1 POP JUMP JUMPDEST PUSH20 0xFFFFFFFFFFFFFFFFFFFFFFFFFFFFFFFFFFFFFFFF SWAP2 SWAP1 SWAP2 AND DUP2 MSTORE PUSH1 0x20 ADD SWAP1 JUMP JUMPDEST SWAP4 DUP5 MSTORE PUSH1 0xFF SWAP3 SWAP1 SWAP3 AND PUSH1 0x20 DUP5 ADD MSTORE PUSH1 0x40 DUP4 ADD MSTORE PUSH1 0x60 DUP3 ADD MSTORE PUSH1 0x80 ADD SWAP1 JUMP JUMPDEST PUSH1 0x40 DUP2 ADD PUSH1 0x6 DUP5 LT PUSH2 0x462 JUMPI INVALID JUMPDEST SWAP3 DUP2 MSTORE PUSH1 0x20 ADD MSTORE SWAP1 JUMP INVALID LOG2 PUSH5 0x6970667358 0x22 SLT KECCAK256 SWAP13 0xB4 PUSH24 0x98379A7C90BDA46E17E8D82F7D439B1A3B0716CD9B42D9D6 0xE5 0xE4 DUP1 DUP8 SWAP1 PUSH5 0x736F6C6343 STOP MOD 0xC STOP CALLER "
            },
            "methodIdentifiers": {
                "getSignerOfHash(bytes32,(uint8,uint8,bytes32,bytes32))": "a8309be5"
            }
        }
    },
    "sourceTreeHashHex": "0x893f7a3736715ec9bc7cc8d2e44dc0a05eb11e1594860d0315953ea751c95c58",
    "compiler": {
        "name": "solc",
        "version": "0.6.12+commit.27d51765",
        "settings": {
            "remappings": [
                "@0x/contracts-utils=/Users/michaelzhu/protocol/node_modules/@0x/contracts-utils",
                "@0x/contracts-erc20=/Users/michaelzhu/protocol/contracts/zero-ex/node_modules/@0x/contracts-erc20"
            ],
            "optimizer": {
                "enabled": true,
                "runs": 1000000,
                "details": {
                    "yul": true,
                    "deduplicate": true,
                    "cse": true,
                    "constantOptimizer": true
                }
            },
            "outputSelection": {
                "*": {
                    "*": [
                        "abi",
                        "devdoc",
                        "evm.bytecode.object",
                        "evm.bytecode.sourceMap",
                        "evm.deployedBytecode.object",
                        "evm.deployedBytecode.sourceMap",
                        "evm.methodIdentifiers"
                    ]
                }
            },
            "evmVersion": "istanbul"
        }
    },
    "chains": {}
}