{
    "schemaVersion": "2.0.0",
    "contractName": "TestRfqOriginRegistration",
    "compilerOutput": {
        "abi": [
            {
                "inputs": [
                    {
                        "internalType": "contract INativeOrdersFeature",
                        "name": "feature",
                        "type": "address"
                    },
                    {
                        "internalType": "address[]",
                        "name": "origins",
                        "type": "address[]"
                    },
                    {
                        "internalType": "bool",
                        "name": "allowed",
                        "type": "bool"
                    }
                ],
                "name": "registerAllowedRfqOrigins",
                "outputs": [],
                "stateMutability": "nonpayable",
                "type": "function"
            }
        ],
        "devdoc": {
            "kind": "dev",
            "methods": {},
            "version": 1
        },
        "evm": {
            "bytecode": {
                "linkReferences": {},
                "object": "0x608060405234801561001057600080fd5b506102b7806100206000396000f3fe608060405234801561001057600080fd5b506004361061002b5760003560e01c8063564fc11914610030575b600080fd5b61004361003e3660046100f1565b610045565b005b6040517fb09f1fb100000000000000000000000000000000000000000000000000000000815273ffffffffffffffffffffffffffffffffffffffff84169063b09f1fb19061009990859085906004016101b4565b600060405180830381600087803b1580156100b357600080fd5b505af11580156100c7573d6000803e3d6000fd5b50505050505050565b80356100db8161025c565b92915050565b803580151581146100db57600080fd5b600080600060608486031215610105578283fd5b83356101108161025c565b925060208481013567ffffffffffffffff81111561012c578384fd5b8501601f8101871361013c578384fd5b803561014f61014a8261023c565b610215565b81815283810190838501858402850186018b101561016b578788fd5b8794505b83851015610195576101818b826100d0565b83526001949094019391850191850161016f565b5080965050505050506101ab85604086016100e1565b90509250925092565b604080825283519082018190526000906020906060840190828701845b8281101561020357815173ffffffffffffffffffffffffffffffffffffffff16845292840192908401906001016101d1565b50505093151592019190915250919050565b60405181810167ffffffffffffffff8111828210171561023457600080fd5b604052919050565b600067ffffffffffffffff821115610252578081fd5b5060209081020190565b73ffffffffffffffffffffffffffffffffffffffff8116811461027e57600080fd5b5056fea264697066735822122021e981b600353ba30537a17d07058622a0c9daae23ccb1adc08ec9a44807189a64736f6c634300060c0033",
                "opcodes": "PUSH1 0x80 PUSH1 0x40 MSTORE CALLVALUE DUP1 ISZERO PUSH2 0x10 JUMPI PUSH1 0x0 DUP1 REVERT JUMPDEST POP PUSH2 0x2B7 DUP1 PUSH2 0x20 PUSH1 0x0 CODECOPY PUSH1 0x0 RETURN INVALID PUSH1 0x80 PUSH1 0x40 MSTORE CALLVALUE DUP1 ISZERO PUSH2 0x10 JUMPI PUSH1 0x0 DUP1 REVERT JUMPDEST POP PUSH1 0x4 CALLDATASIZE LT PUSH2 0x2B JUMPI PUSH1 0x0 CALLDATALOAD PUSH1 0xE0 SHR DUP1 PUSH4 0x564FC119 EQ PUSH2 0x30 JUMPI JUMPDEST PUSH1 0x0 DUP1 REVERT JUMPDEST PUSH2 0x43 PUSH2 0x3E CALLDATASIZE PUSH1 0x4 PUSH2 0xF1 JUMP JUMPDEST PUSH2 0x45 JUMP JUMPDEST STOP JUMPDEST PUSH1 0x40 MLOAD PUSH32 0xB09F1FB100000000000000000000000000000000000000000000000000000000 DUP2 MSTORE PUSH20 0xFFFFFFFFFFFFFFFFFFFFFFFFFFFFFFFFFFFFFFFF DUP5 AND SWAP1 PUSH4 0xB09F1FB1 SWAP1 PUSH2 0x99 SWAP1 DUP6 SWAP1 DUP6 SWAP1 PUSH1 0x4 ADD PUSH2 0x1B4 JUMP JUMPDEST PUSH1 0x0 PUSH1 0x40 MLOAD DUP1 DUP4 SUB DUP2 PUSH1 0x0 DUP8 DUP1 EXTCODESIZE ISZERO DUP1 ISZERO PUSH2 0xB3 JUMPI PUSH1 0x0 DUP1 REVERT JUMPDEST POP GAS CALL ISZERO DUP1 ISZERO PUSH2 0xC7 JUMPI RETURNDATASIZE PUSH1 0x0 DUP1 RETURNDATACOPY RETURNDATASIZE PUSH1 0x0 REVERT JUMPDEST POP POP POP POP POP POP POP JUMP JUMPDEST DUP1 CALLDATALOAD PUSH2 0xDB DUP2 PUSH2 0x25C JUMP JUMPDEST SWAP3 SWAP2 POP POP JUMP JUMPDEST DUP1 CALLDATALOAD DUP1 ISZERO ISZERO DUP2 EQ PUSH2 0xDB JUMPI PUSH1 0x0 DUP1 REVERT JUMPDEST PUSH1 0x0 DUP1 PUSH1 0x0 PUSH1 0x60 DUP5 DUP7 SUB SLT ISZERO PUSH2 0x105 JUMPI DUP3 DUP4 REVERT JUMPDEST DUP4 CALLDATALOAD PUSH2 0x110 DUP2 PUSH2 0x25C JUMP JUMPDEST SWAP3 POP PUSH1 0x20 DUP5 DUP2 ADD CALLDATALOAD PUSH8 0xFFFFFFFFFFFFFFFF DUP2 GT ISZERO PUSH2 0x12C JUMPI DUP4 DUP5 REVERT JUMPDEST DUP6 ADD PUSH1 0x1F DUP2 ADD DUP8 SGT PUSH2 0x13C JUMPI DUP4 DUP5 REVERT JUMPDEST DUP1 CALLDATALOAD PUSH2 0x14F PUSH2 0x14A DUP3 PUSH2 0x23C JUMP JUMPDEST PUSH2 0x215 JUMP JUMPDEST DUP2 DUP2 MSTORE DUP4 DUP2 ADD SWAP1 DUP4 DUP6 ADD DUP6 DUP5 MUL DUP6 ADD DUP7 ADD DUP12 LT ISZERO PUSH2 0x16B JUMPI DUP8 DUP9 REVERT JUMPDEST DUP8 SWAP5 POP JUMPDEST DUP4 DUP6 LT ISZERO PUSH2 0x195 JUMPI PUSH2 0x181 DUP12 DUP3 PUSH2 0xD0 JUMP JUMPDEST DUP4 MSTORE PUSH1 0x1 SWAP5 SWAP1 SWAP5 ADD SWAP4 SWAP2 DUP6 ADD SWAP2 DUP6 ADD PUSH2 0x16F JUMP JUMPDEST POP DUP1 SWAP7 POP POP POP POP POP POP PUSH2 0x1AB DUP6 PUSH1 0x40 DUP7 ADD PUSH2 0xE1 JUMP JUMPDEST SWAP1 POP SWAP3 POP SWAP3 POP SWAP3 JUMP JUMPDEST PUSH1 0x40 DUP1 DUP3 MSTORE DUP4 MLOAD SWAP1 DUP3 ADD DUP2 SWAP1 MSTORE PUSH1 0x0 SWAP1 PUSH1 0x20 SWAP1 PUSH1 0x60 DUP5 ADD SWAP1 DUP3 DUP8 ADD DUP5 JUMPDEST DUP3 DUP2 LT ISZERO PUSH2 0x203 JUMPI DUP2 MLOAD PUSH20 0xFFFFFFFFFFFFFFFFFFFFFFFFFFFFFFFFFFFFFFFF AND DUP5 MSTORE SWAP3 DUP5 ADD SWAP3 SWAP1 DUP5 ADD SWAP1 PUSH1 0x1 ADD PUSH2 0x1D1 JUMP JUMPDEST POP POP POP SWAP4 ISZERO ISZERO SWAP3 ADD SWAP2 SWAP1 SWAP2 MSTORE POP SWAP2 SWAP1 POP JUMP JUMPDEST PUSH1 0x40 MLOAD DUP2 DUP2 ADD PUSH8 0xFFFFFFFFFFFFFFFF DUP2 GT DUP3 DUP3 LT OR ISZERO PUSH2 0x234 JUMPI PUSH1 0x0 DUP1 REVERT JUMPDEST PUSH1 0x40 MSTORE SWAP2 SWAP1 POP JUMP JUMPDEST PUSH1 0x0 PUSH8 0xFFFFFFFFFFFFFFFF DUP3 GT ISZERO PUSH2 0x252 JUMPI DUP1 DUP2 REVERT JUMPDEST POP PUSH1 0x20 SWAP1 DUP2 MUL ADD SWAP1 JUMP JUMPDEST PUSH20 0xFFFFFFFFFFFFFFFFFFFFFFFFFFFFFFFFFFFFFFFF DUP2 AND DUP2 EQ PUSH2 0x27E JUMPI PUSH1 0x0 DUP1 REVERT JUMPDEST POP JUMP INVALID LOG2 PUSH5 0x6970667358 0x22 SLT KECCAK256 0x21 0xE9 DUP2 0xB6 STOP CALLDATALOAD EXTCODESIZE LOG3 SDIV CALLDATACOPY LOG1 PUSH30 0x7058622A0C9DAAE23CCB1ADC08EC9A44807189A64736F6C634300060C00 CALLER "
            },
            "methodIdentifiers": {
                "registerAllowedRfqOrigins(address,address[],bool)": "564fc119"
            }
        }
    },
    "sourceTreeHashHex": "0xe7f44ae906dd6b7816b17c863916101a4a47a959776ce304258c82482d4a1381",
    "compiler": {
        "name": "solc",
        "version": "0.6.12+commit.27d51765",
        "settings": {
            "remappings": [
                "@0x/contracts-utils=/Users/michaelzhu/protocol/node_modules/@0x/contracts-utils",
                "@0x/contracts-erc20=/Users/michaelzhu/protocol/contracts/zero-ex/node_modules/@0x/contracts-erc20"
            ],
            "optimizer": {
                "enabled": true,
                "runs": 1000000,
                "details": {
                    "yul": true,
                    "deduplicate": true,
                    "cse": true,
                    "constantOptimizer": true
                }
            },
            "outputSelection": {
                "*": {
                    "*": [
                        "abi",
                        "devdoc",
                        "evm.bytecode.object",
                        "evm.bytecode.sourceMap",
                        "evm.deployedBytecode.object",
                        "evm.deployedBytecode.sourceMap",
                        "evm.methodIdentifiers"
                    ]
                }
            },
            "evmVersion": "istanbul"
        }
    },
    "chains": {}
}