{
    "schemaVersion": "2.0.0",
    "contractName": "TestMetaTransactionsNativeOrdersFeature",
    "compilerOutput": {
        "abi": [
            {
                "inputs": [],
                "stateMutability": "nonpayable",
                "type": "constructor"
            },
            {
                "anonymous": false,
                "inputs": [
                    {
                        "components": [
                            {
                                "internalType": "contract IERC20TokenV06",
                                "name": "makerToken",
                                "type": "address"
                            },
                            {
                                "internalType": "contract IERC20TokenV06",
                                "name": "takerToken",
                                "type": "address"
                            },
                            {
                                "internalType": "uint128",
                                "name": "makerAmount",
                                "type": "uint128"
                            },
                            {
                                "internalType": "uint128",
                                "name": "takerAmount",
                                "type": "uint128"
                            },
                            {
                                "internalType": "uint128",
                                "name": "takerTokenFeeAmount",
                                "type": "uint128"
                            },
                            {
                                "internalType": "address",
                                "name": "maker",
                                "type": "address"
                            },
                            {
                                "internalType": "address",
                                "name": "taker",
                                "type": "address"
                            },
                            {
                                "internalType": "address",
                                "name": "sender",
                                "type": "address"
                            },
                            {
                                "internalType": "address",
                                "name": "feeRecipient",
                                "type": "address"
                            },
                            {
                                "internalType": "bytes32",
                                "name": "pool",
                                "type": "bytes32"
                            },
                            {
                                "internalType": "uint64",
                                "name": "expiry",
                                "type": "uint64"
                            },
                            {
                                "internalType": "uint256",
                                "name": "salt",
                                "type": "uint256"
                            }
                        ],
                        "indexed": false,
                        "internalType": "struct LibNativeOrder.LimitOrder",
                        "name": "order",
                        "type": "tuple"
                    },
                    {
                        "indexed": false,
                        "internalType": "enum LibSignature.SignatureType",
                        "name": "signatureType",
                        "type": "uint8"
                    },
                    {
                        "indexed": false,
                        "internalType": "uint8",
                        "name": "v",
                        "type": "uint8"
                    },
                    {
                        "indexed": false,
                        "internalType": "bytes32",
                        "name": "r",
                        "type": "bytes32"
                    },
                    {
                        "indexed": false,
                        "internalType": "bytes32",
                        "name": "s",
                        "type": "bytes32"
                    },
                    {
                        "indexed": false,
                        "internalType": "uint128",
                        "name": "takerTokenFillAmount",
                        "type": "uint128"
                    },
                    {
                        "indexed": false,
                        "internalType": "address",
                        "name": "taker",
                        "type": "address"
                    },
                    {
                        "indexed": false,
                        "internalType": "address",
                        "name": "sender",
                        "type": "address"
                    }
                ],
                "name": "FillLimitOrderCalled",
                "type": "event"
            },
            {
                "anonymous": false,
                "inputs": [
                    {
                        "components": [
                            {
                                "internalType": "contract IERC20TokenV06",
                                "name": "makerToken",
                                "type": "address"
                            },
                            {
                                "internalType": "contract IERC20TokenV06",
                                "name": "takerToken",
                                "type": "address"
                            },
                            {
                                "internalType": "uint128",
                                "name": "makerAmount",
                                "type": "uint128"
                            },
                            {
                                "internalType": "uint128",
                                "name": "takerAmount",
                                "type": "uint128"
                            },
                            {
                                "internalType": "address",
                                "name": "maker",
                                "type": "address"
                            },
                            {
                                "internalType": "address",
                                "name": "taker",
                                "type": "address"
                            },
                            {
                                "internalType": "address",
                                "name": "txOrigin",
                                "type": "address"
                            },
                            {
                                "internalType": "bytes32",
                                "name": "pool",
                                "type": "bytes32"
                            },
                            {
                                "internalType": "uint64",
                                "name": "expiry",
                                "type": "uint64"
                            },
                            {
                                "internalType": "uint256",
                                "name": "salt",
                                "type": "uint256"
                            }
                        ],
                        "indexed": false,
                        "internalType": "struct LibNativeOrder.RfqOrder",
                        "name": "order",
                        "type": "tuple"
                    },
                    {
                        "indexed": false,
                        "internalType": "enum LibSignature.SignatureType",
                        "name": "signatureType",
                        "type": "uint8"
                    },
                    {
                        "indexed": false,
                        "internalType": "uint8",
                        "name": "v",
                        "type": "uint8"
                    },
                    {
                        "indexed": false,
                        "internalType": "bytes32",
                        "name": "r",
                        "type": "bytes32"
                    },
                    {
                        "indexed": false,
                        "internalType": "bytes32",
                        "name": "s",
                        "type": "bytes32"
                    },
                    {
                        "indexed": false,
                        "internalType": "uint128",
                        "name": "takerTokenFillAmount",
                        "type": "uint128"
                    },
                    {
                        "indexed": false,
                        "internalType": "address",
                        "name": "taker",
                        "type": "address"
                    }
                ],
                "name": "FillRfqOrderCalled",
                "type": "event"
            },
            {
                "anonymous": false,
                "inputs": [
                    {
                        "indexed": false,
                        "internalType": "bytes32",
                        "name": "orderHash",
                        "type": "bytes32"
                    },
                    {
                        "indexed": false,
                        "internalType": "address",
                        "name": "maker",
                        "type": "address"
                    },
                    {
                        "indexed": false,
                        "internalType": "address",
                        "name": "taker",
                        "type": "address"
                    },
                    {
                        "indexed": false,
                        "internalType": "address",
                        "name": "feeRecipient",
                        "type": "address"
                    },
                    {
                        "indexed": false,
                        "internalType": "address",
                        "name": "makerToken",
                        "type": "address"
                    },
                    {
                        "indexed": false,
                        "internalType": "address",
                        "name": "takerToken",
                        "type": "address"
                    },
                    {
                        "indexed": false,
                        "internalType": "uint128",
                        "name": "takerTokenFilledAmount",
                        "type": "uint128"
                    },
                    {
                        "indexed": false,
                        "internalType": "uint128",
                        "name": "makerTokenFilledAmount",
                        "type": "uint128"
                    },
                    {
                        "indexed": false,
                        "internalType": "uint128",
                        "name": "takerTokenFeeFilledAmount",
                        "type": "uint128"
                    },
                    {
                        "indexed": false,
                        "internalType": "uint256",
                        "name": "protocolFeePaid",
                        "type": "uint256"
                    },
                    {
                        "indexed": false,
                        "internalType": "bytes32",
                        "name": "pool",
                        "type": "bytes32"
                    }
                ],
                "name": "LimitOrderFilled",
                "type": "event"
            },
            {
                "anonymous": false,
                "inputs": [
                    {
                        "indexed": false,
                        "internalType": "bytes32",
                        "name": "orderHash",
                        "type": "bytes32"
                    },
                    {
                        "indexed": false,
                        "internalType": "address",
                        "name": "maker",
                        "type": "address"
                    }
                ],
                "name": "OrderCancelled",
                "type": "event"
            },
            {
                "anonymous": false,
                "inputs": [
                    {
                        "indexed": false,
                        "internalType": "address",
                        "name": "maker",
                        "type": "address"
                    },
                    {
                        "indexed": false,
                        "internalType": "address",
                        "name": "makerToken",
                        "type": "address"
                    },
                    {
                        "indexed": false,
                        "internalType": "address",
                        "name": "takerToken",
                        "type": "address"
                    },
                    {
                        "indexed": false,
                        "internalType": "uint256",
                        "name": "minValidSalt",
                        "type": "uint256"
                    }
                ],
                "name": "PairCancelledLimitOrders",
                "type": "event"
            },
            {
                "anonymous": false,
                "inputs": [
                    {
                        "indexed": false,
                        "internalType": "address",
                        "name": "maker",
                        "type": "address"
                    },
                    {
                        "indexed": false,
                        "internalType": "address",
                        "name": "makerToken",
                        "type": "address"
                    },
                    {
                        "indexed": false,
                        "internalType": "address",
                        "name": "takerToken",
                        "type": "address"
                    },
                    {
                        "indexed": false,
                        "internalType": "uint256",
                        "name": "minValidSalt",
                        "type": "uint256"
                    }
                ],
                "name": "PairCancelledRfqOrders",
                "type": "event"
            },
            {
                "anonymous": false,
                "inputs": [
                    {
                        "indexed": false,
                        "internalType": "bytes32",
                        "name": "orderHash",
                        "type": "bytes32"
                    },
                    {
                        "indexed": false,
                        "internalType": "address",
                        "name": "maker",
                        "type": "address"
                    },
                    {
                        "indexed": false,
                        "internalType": "address",
                        "name": "taker",
                        "type": "address"
                    },
                    {
                        "indexed": false,
                        "internalType": "address",
                        "name": "makerToken",
                        "type": "address"
                    },
                    {
                        "indexed": false,
                        "internalType": "address",
                        "name": "takerToken",
                        "type": "address"
                    },
                    {
                        "indexed": false,
                        "internalType": "uint128",
                        "name": "takerTokenFilledAmount",
                        "type": "uint128"
                    },
                    {
                        "indexed": false,
                        "internalType": "uint128",
                        "name": "makerTokenFilledAmount",
                        "type": "uint128"
                    },
                    {
                        "indexed": false,
                        "internalType": "bytes32",
                        "name": "pool",
                        "type": "bytes32"
                    }
                ],
                "name": "RfqOrderFilled",
                "type": "event"
            },
            {
                "anonymous": false,
                "inputs": [
                    {
                        "indexed": false,
                        "internalType": "address",
                        "name": "origin",
                        "type": "address"
                    },
                    {
                        "indexed": false,
                        "internalType": "address[]",
                        "name": "addrs",
                        "type": "address[]"
                    },
                    {
                        "indexed": false,
                        "internalType": "bool",
                        "name": "allowed",
                        "type": "bool"
                    }
                ],
                "name": "RfqOrderOriginsAllowed",
                "type": "event"
            },
            {
                "inputs": [],
                "name": "EIP712_DOMAIN_SEPARATOR",
                "outputs": [
                    {
                        "internalType": "bytes32",
                        "name": "",
                        "type": "bytes32"
                    }
                ],
                "stateMutability": "view",
                "type": "function"
            },
            {
                "inputs": [],
                "name": "FEATURE_NAME",
                "outputs": [
                    {
                        "internalType": "string",
                        "name": "",
                        "type": "string"
                    }
                ],
                "stateMutability": "view",
                "type": "function"
            },
            {
                "inputs": [],
                "name": "FEATURE_VERSION",
                "outputs": [
                    {
                        "internalType": "uint256",
                        "name": "",
                        "type": "uint256"
                    }
                ],
                "stateMutability": "view",
                "type": "function"
            },
            {
                "inputs": [],
                "name": "GREEDY_TOKENS_BLOOM_FILTER",
                "outputs": [
                    {
                        "internalType": "bytes32",
                        "name": "",
                        "type": "bytes32"
                    }
                ],
                "stateMutability": "view",
                "type": "function"
            },
            {
                "inputs": [],
                "name": "PROTOCOL_FEE_MULTIPLIER",
                "outputs": [
                    {
                        "internalType": "uint32",
                        "name": "",
                        "type": "uint32"
                    }
                ],
                "stateMutability": "view",
                "type": "function"
            },
            {
                "inputs": [
                    {
                        "components": [
                            {
                                "internalType": "contract IERC20TokenV06",
                                "name": "makerToken",
                                "type": "address"
                            },
                            {
                                "internalType": "contract IERC20TokenV06",
                                "name": "takerToken",
                                "type": "address"
                            },
                            {
                                "internalType": "uint128",
                                "name": "makerAmount",
                                "type": "uint128"
                            },
                            {
                                "internalType": "uint128",
                                "name": "takerAmount",
                                "type": "uint128"
                            },
                            {
                                "internalType": "uint128",
                                "name": "takerTokenFeeAmount",
                                "type": "uint128"
                            },
                            {
                                "internalType": "address",
                                "name": "maker",
                                "type": "address"
                            },
                            {
                                "internalType": "address",
                                "name": "taker",
                                "type": "address"
                            },
                            {
                                "internalType": "address",
                                "name": "sender",
                                "type": "address"
                            },
                            {
                                "internalType": "address",
                                "name": "feeRecipient",
                                "type": "address"
                            },
                            {
                                "internalType": "bytes32",
                                "name": "pool",
                                "type": "bytes32"
                            },
                            {
                                "internalType": "uint64",
                                "name": "expiry",
                                "type": "uint64"
                            },
                            {
                                "internalType": "uint256",
                                "name": "salt",
                                "type": "uint256"
                            }
                        ],
                        "internalType": "struct LibNativeOrder.LimitOrder",
                        "name": "order",
                        "type": "tuple"
                    },
                    {
                        "components": [
                            {
                                "internalType": "enum LibSignature.SignatureType",
                                "name": "signatureType",
                                "type": "uint8"
                            },
                            {
                                "internalType": "uint8",
                                "name": "v",
                                "type": "uint8"
                            },
                            {
                                "internalType": "bytes32",
                                "name": "r",
                                "type": "bytes32"
                            },
                            {
                                "internalType": "bytes32",
                                "name": "s",
                                "type": "bytes32"
                            }
                        ],
                        "internalType": "struct LibSignature.Signature",
                        "name": "signature",
                        "type": "tuple"
                    },
                    {
                        "internalType": "uint128",
                        "name": "takerTokenFillAmount",
                        "type": "uint128"
                    },
                    {
                        "internalType": "address",
                        "name": "taker",
                        "type": "address"
                    },
                    {
                        "internalType": "address",
                        "name": "sender",
                        "type": "address"
                    }
                ],
                "name": "_fillLimitOrder",
                "outputs": [
                    {
                        "internalType": "uint128",
                        "name": "takerTokenFilledAmount",
                        "type": "uint128"
                    },
                    {
                        "internalType": "uint128",
                        "name": "makerTokenFilledAmount",
                        "type": "uint128"
                    }
                ],
                "stateMutability": "payable",
                "type": "function"
            },
            {
                "inputs": [
                    {
                        "components": [
                            {
                                "internalType": "contract IERC20TokenV06",
                                "name": "makerToken",
                                "type": "address"
                            },
                            {
                                "internalType": "contract IERC20TokenV06",
                                "name": "takerToken",
                                "type": "address"
                            },
                            {
                                "internalType": "uint128",
                                "name": "makerAmount",
                                "type": "uint128"
                            },
                            {
                                "internalType": "uint128",
                                "name": "takerAmount",
                                "type": "uint128"
                            },
                            {
                                "internalType": "address",
                                "name": "maker",
                                "type": "address"
                            },
                            {
                                "internalType": "address",
                                "name": "taker",
                                "type": "address"
                            },
                            {
                                "internalType": "address",
                                "name": "txOrigin",
                                "type": "address"
                            },
                            {
                                "internalType": "bytes32",
                                "name": "pool",
                                "type": "bytes32"
                            },
                            {
                                "internalType": "uint64",
                                "name": "expiry",
                                "type": "uint64"
                            },
                            {
                                "internalType": "uint256",
                                "name": "salt",
                                "type": "uint256"
                            }
                        ],
                        "internalType": "struct LibNativeOrder.RfqOrder",
                        "name": "order",
                        "type": "tuple"
                    },
                    {
                        "components": [
                            {
                                "internalType": "enum LibSignature.SignatureType",
                                "name": "signatureType",
                                "type": "uint8"
                            },
                            {
                                "internalType": "uint8",
                                "name": "v",
                                "type": "uint8"
                            },
                            {
                                "internalType": "bytes32",
                                "name": "r",
                                "type": "bytes32"
                            },
                            {
                                "internalType": "bytes32",
                                "name": "s",
                                "type": "bytes32"
                            }
                        ],
                        "internalType": "struct LibSignature.Signature",
                        "name": "signature",
                        "type": "tuple"
                    },
                    {
                        "internalType": "uint128",
                        "name": "takerTokenFillAmount",
                        "type": "uint128"
                    },
                    {
                        "internalType": "address",
                        "name": "taker",
                        "type": "address"
                    }
                ],
                "name": "_fillRfqOrder",
                "outputs": [
                    {
                        "internalType": "uint128",
                        "name": "takerTokenFilledAmount",
                        "type": "uint128"
                    },
                    {
                        "internalType": "uint128",
                        "name": "makerTokenFilledAmount",
                        "type": "uint128"
                    }
                ],
                "stateMutability": "nonpayable",
                "type": "function"
            },
            {
                "inputs": [
                    {
                        "components": [
                            {
                                "internalType": "contract IERC20TokenV06",
                                "name": "makerToken",
                                "type": "address"
                            },
                            {
                                "internalType": "contract IERC20TokenV06",
                                "name": "takerToken",
                                "type": "address"
                            },
                            {
                                "internalType": "uint128",
                                "name": "makerAmount",
                                "type": "uint128"
                            },
                            {
                                "internalType": "uint128",
                                "name": "takerAmount",
                                "type": "uint128"
                            },
                            {
                                "internalType": "uint128",
                                "name": "takerTokenFeeAmount",
                                "type": "uint128"
                            },
                            {
                                "internalType": "address",
                                "name": "maker",
                                "type": "address"
                            },
                            {
                                "internalType": "address",
                                "name": "taker",
                                "type": "address"
                            },
                            {
                                "internalType": "address",
                                "name": "sender",
                                "type": "address"
                            },
                            {
                                "internalType": "address",
                                "name": "feeRecipient",
                                "type": "address"
                            },
                            {
                                "internalType": "bytes32",
                                "name": "pool",
                                "type": "bytes32"
                            },
                            {
                                "internalType": "uint64",
                                "name": "expiry",
                                "type": "uint64"
                            },
                            {
                                "internalType": "uint256",
                                "name": "salt",
                                "type": "uint256"
                            }
                        ],
                        "internalType": "struct LibNativeOrder.LimitOrder[]",
                        "name": "orders",
                        "type": "tuple[]"
                    }
                ],
                "name": "batchCancelLimitOrders",
                "outputs": [],
                "stateMutability": "nonpayable",
                "type": "function"
            },
            {
                "inputs": [
                    {
                        "internalType": "contract IERC20TokenV06[]",
                        "name": "makerTokens",
                        "type": "address[]"
                    },
                    {
                        "internalType": "contract IERC20TokenV06[]",
                        "name": "takerTokens",
                        "type": "address[]"
                    },
                    {
                        "internalType": "uint256[]",
                        "name": "minValidSalts",
                        "type": "uint256[]"
                    }
                ],
                "name": "batchCancelPairLimitOrders",
                "outputs": [],
                "stateMutability": "nonpayable",
                "type": "function"
            },
            {
                "inputs": [
                    {
                        "internalType": "contract IERC20TokenV06[]",
                        "name": "makerTokens",
                        "type": "address[]"
                    },
                    {
                        "internalType": "contract IERC20TokenV06[]",
                        "name": "takerTokens",
                        "type": "address[]"
                    },
                    {
                        "internalType": "uint256[]",
                        "name": "minValidSalts",
                        "type": "uint256[]"
                    }
                ],
                "name": "batchCancelPairRfqOrders",
                "outputs": [],
                "stateMutability": "nonpayable",
                "type": "function"
            },
            {
                "inputs": [
                    {
                        "components": [
                            {
                                "internalType": "contract IERC20TokenV06",
                                "name": "makerToken",
                                "type": "address"
                            },
                            {
                                "internalType": "contract IERC20TokenV06",
                                "name": "takerToken",
                                "type": "address"
                            },
                            {
                                "internalType": "uint128",
                                "name": "makerAmount",
                                "type": "uint128"
                            },
                            {
                                "internalType": "uint128",
                                "name": "takerAmount",
                                "type": "uint128"
                            },
                            {
                                "internalType": "address",
                                "name": "maker",
                                "type": "address"
                            },
                            {
                                "internalType": "address",
                                "name": "taker",
                                "type": "address"
                            },
                            {
                                "internalType": "address",
                                "name": "txOrigin",
                                "type": "address"
                            },
                            {
                                "internalType": "bytes32",
                                "name": "pool",
                                "type": "bytes32"
                            },
                            {
                                "internalType": "uint64",
                                "name": "expiry",
                                "type": "uint64"
                            },
                            {
                                "internalType": "uint256",
                                "name": "salt",
                                "type": "uint256"
                            }
                        ],
                        "internalType": "struct LibNativeOrder.RfqOrder[]",
                        "name": "orders",
                        "type": "tuple[]"
                    }
                ],
                "name": "batchCancelRfqOrders",
                "outputs": [],
                "stateMutability": "nonpayable",
                "type": "function"
            },
            {
                "inputs": [
                    {
                        "components": [
                            {
                                "internalType": "contract IERC20TokenV06",
                                "name": "makerToken",
                                "type": "address"
                            },
                            {
                                "internalType": "contract IERC20TokenV06",
                                "name": "takerToken",
                                "type": "address"
                            },
                            {
                                "internalType": "uint128",
                                "name": "makerAmount",
                                "type": "uint128"
                            },
                            {
                                "internalType": "uint128",
                                "name": "takerAmount",
                                "type": "uint128"
                            },
                            {
                                "internalType": "uint128",
                                "name": "takerTokenFeeAmount",
                                "type": "uint128"
                            },
                            {
                                "internalType": "address",
                                "name": "maker",
                                "type": "address"
                            },
                            {
                                "internalType": "address",
                                "name": "taker",
                                "type": "address"
                            },
                            {
                                "internalType": "address",
                                "name": "sender",
                                "type": "address"
                            },
                            {
                                "internalType": "address",
                                "name": "feeRecipient",
                                "type": "address"
                            },
                            {
                                "internalType": "bytes32",
                                "name": "pool",
                                "type": "bytes32"
                            },
                            {
                                "internalType": "uint64",
                                "name": "expiry",
                                "type": "uint64"
                            },
                            {
                                "internalType": "uint256",
                                "name": "salt",
                                "type": "uint256"
                            }
                        ],
                        "internalType": "struct LibNativeOrder.LimitOrder[]",
                        "name": "orders",
                        "type": "tuple[]"
                    },
                    {
                        "components": [
                            {
                                "internalType": "enum LibSignature.SignatureType",
                                "name": "signatureType",
                                "type": "uint8"
                            },
                            {
                                "internalType": "uint8",
                                "name": "v",
                                "type": "uint8"
                            },
                            {
                                "internalType": "bytes32",
                                "name": "r",
                                "type": "bytes32"
                            },
                            {
                                "internalType": "bytes32",
                                "name": "s",
                                "type": "bytes32"
                            }
                        ],
                        "internalType": "struct LibSignature.Signature[]",
                        "name": "signatures",
                        "type": "tuple[]"
                    }
                ],
                "name": "batchGetLimitOrderRelevantStates",
                "outputs": [
                    {
                        "components": [
                            {
                                "internalType": "bytes32",
                                "name": "orderHash",
                                "type": "bytes32"
                            },
                            {
                                "internalType": "enum LibNativeOrder.OrderStatus",
                                "name": "status",
                                "type": "uint8"
                            },
                            {
                                "internalType": "uint128",
                                "name": "takerTokenFilledAmount",
                                "type": "uint128"
                            }
                        ],
                        "internalType": "struct LibNativeOrder.OrderInfo[]",
                        "name": "orderInfos",
                        "type": "tuple[]"
                    },
                    {
                        "internalType": "uint128[]",
                        "name": "actualFillableTakerTokenAmounts",
                        "type": "uint128[]"
                    },
                    {
                        "internalType": "bool[]",
                        "name": "isSignatureValids",
                        "type": "bool[]"
                    }
                ],
                "stateMutability": "view",
                "type": "function"
            },
            {
                "inputs": [
                    {
                        "components": [
                            {
                                "internalType": "contract IERC20TokenV06",
                                "name": "makerToken",
                                "type": "address"
                            },
                            {
                                "internalType": "contract IERC20TokenV06",
                                "name": "takerToken",
                                "type": "address"
                            },
                            {
                                "internalType": "uint128",
                                "name": "makerAmount",
                                "type": "uint128"
                            },
                            {
                                "internalType": "uint128",
                                "name": "takerAmount",
                                "type": "uint128"
                            },
                            {
                                "internalType": "address",
                                "name": "maker",
                                "type": "address"
                            },
                            {
                                "internalType": "address",
                                "name": "taker",
                                "type": "address"
                            },
                            {
                                "internalType": "address",
                                "name": "txOrigin",
                                "type": "address"
                            },
                            {
                                "internalType": "bytes32",
                                "name": "pool",
                                "type": "bytes32"
                            },
                            {
                                "internalType": "uint64",
                                "name": "expiry",
                                "type": "uint64"
                            },
                            {
                                "internalType": "uint256",
                                "name": "salt",
                                "type": "uint256"
                            }
                        ],
                        "internalType": "struct LibNativeOrder.RfqOrder[]",
                        "name": "orders",
                        "type": "tuple[]"
                    },
                    {
                        "components": [
                            {
                                "internalType": "enum LibSignature.SignatureType",
                                "name": "signatureType",
                                "type": "uint8"
                            },
                            {
                                "internalType": "uint8",
                                "name": "v",
                                "type": "uint8"
                            },
                            {
                                "internalType": "bytes32",
                                "name": "r",
                                "type": "bytes32"
                            },
                            {
                                "internalType": "bytes32",
                                "name": "s",
                                "type": "bytes32"
                            }
                        ],
                        "internalType": "struct LibSignature.Signature[]",
                        "name": "signatures",
                        "type": "tuple[]"
                    }
                ],
                "name": "batchGetRfqOrderRelevantStates",
                "outputs": [
                    {
                        "components": [
                            {
                                "internalType": "bytes32",
                                "name": "orderHash",
                                "type": "bytes32"
                            },
                            {
                                "internalType": "enum LibNativeOrder.OrderStatus",
                                "name": "status",
                                "type": "uint8"
                            },
                            {
                                "internalType": "uint128",
                                "name": "takerTokenFilledAmount",
                                "type": "uint128"
                            }
                        ],
                        "internalType": "struct LibNativeOrder.OrderInfo[]",
                        "name": "orderInfos",
                        "type": "tuple[]"
                    },
                    {
                        "internalType": "uint128[]",
                        "name": "actualFillableTakerTokenAmounts",
                        "type": "uint128[]"
                    },
                    {
                        "internalType": "bool[]",
                        "name": "isSignatureValids",
                        "type": "bool[]"
                    }
                ],
                "stateMutability": "view",
                "type": "function"
            },
            {
                "inputs": [
                    {
                        "components": [
                            {
                                "internalType": "contract IERC20TokenV06",
                                "name": "makerToken",
                                "type": "address"
                            },
                            {
                                "internalType": "contract IERC20TokenV06",
                                "name": "takerToken",
                                "type": "address"
                            },
                            {
                                "internalType": "uint128",
                                "name": "makerAmount",
                                "type": "uint128"
                            },
                            {
                                "internalType": "uint128",
                                "name": "takerAmount",
                                "type": "uint128"
                            },
                            {
                                "internalType": "uint128",
                                "name": "takerTokenFeeAmount",
                                "type": "uint128"
                            },
                            {
                                "internalType": "address",
                                "name": "maker",
                                "type": "address"
                            },
                            {
                                "internalType": "address",
                                "name": "taker",
                                "type": "address"
                            },
                            {
                                "internalType": "address",
                                "name": "sender",
                                "type": "address"
                            },
                            {
                                "internalType": "address",
                                "name": "feeRecipient",
                                "type": "address"
                            },
                            {
                                "internalType": "bytes32",
                                "name": "pool",
                                "type": "bytes32"
                            },
                            {
                                "internalType": "uint64",
                                "name": "expiry",
                                "type": "uint64"
                            },
                            {
                                "internalType": "uint256",
                                "name": "salt",
                                "type": "uint256"
                            }
                        ],
                        "internalType": "struct LibNativeOrder.LimitOrder",
                        "name": "order",
                        "type": "tuple"
                    }
                ],
                "name": "cancelLimitOrder",
                "outputs": [],
                "stateMutability": "nonpayable",
                "type": "function"
            },
            {
                "inputs": [
                    {
                        "internalType": "contract IERC20TokenV06",
                        "name": "makerToken",
                        "type": "address"
                    },
                    {
                        "internalType": "contract IERC20TokenV06",
                        "name": "takerToken",
                        "type": "address"
                    },
                    {
                        "internalType": "uint256",
                        "name": "minValidSalt",
                        "type": "uint256"
                    }
                ],
                "name": "cancelPairLimitOrders",
                "outputs": [],
                "stateMutability": "nonpayable",
                "type": "function"
            },
            {
                "inputs": [
                    {
                        "internalType": "contract IERC20TokenV06",
                        "name": "makerToken",
                        "type": "address"
                    },
                    {
                        "internalType": "contract IERC20TokenV06",
                        "name": "takerToken",
                        "type": "address"
                    },
                    {
                        "internalType": "uint256",
                        "name": "minValidSalt",
                        "type": "uint256"
                    }
                ],
                "name": "cancelPairRfqOrders",
                "outputs": [],
                "stateMutability": "nonpayable",
                "type": "function"
            },
            {
                "inputs": [
                    {
                        "components": [
                            {
                                "internalType": "contract IERC20TokenV06",
                                "name": "makerToken",
                                "type": "address"
                            },
                            {
                                "internalType": "contract IERC20TokenV06",
                                "name": "takerToken",
                                "type": "address"
                            },
                            {
                                "internalType": "uint128",
                                "name": "makerAmount",
                                "type": "uint128"
                            },
                            {
                                "internalType": "uint128",
                                "name": "takerAmount",
                                "type": "uint128"
                            },
                            {
                                "internalType": "address",
                                "name": "maker",
                                "type": "address"
                            },
                            {
                                "internalType": "address",
                                "name": "taker",
                                "type": "address"
                            },
                            {
                                "internalType": "address",
                                "name": "txOrigin",
                                "type": "address"
                            },
                            {
                                "internalType": "bytes32",
                                "name": "pool",
                                "type": "bytes32"
                            },
                            {
                                "internalType": "uint64",
                                "name": "expiry",
                                "type": "uint64"
                            },
                            {
                                "internalType": "uint256",
                                "name": "salt",
                                "type": "uint256"
                            }
                        ],
                        "internalType": "struct LibNativeOrder.RfqOrder",
                        "name": "order",
                        "type": "tuple"
                    }
                ],
                "name": "cancelRfqOrder",
                "outputs": [],
                "stateMutability": "nonpayable",
                "type": "function"
            },
            {
                "inputs": [
                    {
                        "components": [
                            {
                                "internalType": "contract IERC20TokenV06",
                                "name": "makerToken",
                                "type": "address"
                            },
                            {
                                "internalType": "contract IERC20TokenV06",
                                "name": "takerToken",
                                "type": "address"
                            },
                            {
                                "internalType": "uint128",
                                "name": "makerAmount",
                                "type": "uint128"
                            },
                            {
                                "internalType": "uint128",
                                "name": "takerAmount",
                                "type": "uint128"
                            },
                            {
                                "internalType": "uint128",
                                "name": "takerTokenFeeAmount",
                                "type": "uint128"
                            },
                            {
                                "internalType": "address",
                                "name": "maker",
                                "type": "address"
                            },
                            {
                                "internalType": "address",
                                "name": "taker",
                                "type": "address"
                            },
                            {
                                "internalType": "address",
                                "name": "sender",
                                "type": "address"
                            },
                            {
                                "internalType": "address",
                                "name": "feeRecipient",
                                "type": "address"
                            },
                            {
                                "internalType": "bytes32",
                                "name": "pool",
                                "type": "bytes32"
                            },
                            {
                                "internalType": "uint64",
                                "name": "expiry",
                                "type": "uint64"
                            },
                            {
                                "internalType": "uint256",
                                "name": "salt",
                                "type": "uint256"
                            }
                        ],
                        "internalType": "struct LibNativeOrder.LimitOrder",
                        "name": "order",
                        "type": "tuple"
                    },
                    {
                        "components": [
                            {
                                "internalType": "enum LibSignature.SignatureType",
                                "name": "signatureType",
                                "type": "uint8"
                            },
                            {
                                "internalType": "uint8",
                                "name": "v",
                                "type": "uint8"
                            },
                            {
                                "internalType": "bytes32",
                                "name": "r",
                                "type": "bytes32"
                            },
                            {
                                "internalType": "bytes32",
                                "name": "s",
                                "type": "bytes32"
                            }
                        ],
                        "internalType": "struct LibSignature.Signature",
                        "name": "signature",
                        "type": "tuple"
                    },
                    {
                        "internalType": "uint128",
                        "name": "takerTokenFillAmount",
                        "type": "uint128"
                    }
                ],
                "name": "fillLimitOrder",
                "outputs": [
                    {
                        "internalType": "uint128",
                        "name": "takerTokenFilledAmount",
                        "type": "uint128"
                    },
                    {
                        "internalType": "uint128",
                        "name": "makerTokenFilledAmount",
                        "type": "uint128"
                    }
                ],
                "stateMutability": "payable",
                "type": "function"
            },
            {
                "inputs": [
                    {
                        "components": [
                            {
                                "internalType": "contract IERC20TokenV06",
                                "name": "makerToken",
                                "type": "address"
                            },
                            {
                                "internalType": "contract IERC20TokenV06",
                                "name": "takerToken",
                                "type": "address"
                            },
                            {
                                "internalType": "uint128",
                                "name": "makerAmount",
                                "type": "uint128"
                            },
                            {
                                "internalType": "uint128",
                                "name": "takerAmount",
                                "type": "uint128"
                            },
                            {
                                "internalType": "uint128",
                                "name": "takerTokenFeeAmount",
                                "type": "uint128"
                            },
                            {
                                "internalType": "address",
                                "name": "maker",
                                "type": "address"
                            },
                            {
                                "internalType": "address",
                                "name": "taker",
                                "type": "address"
                            },
                            {
                                "internalType": "address",
                                "name": "sender",
                                "type": "address"
                            },
                            {
                                "internalType": "address",
                                "name": "feeRecipient",
                                "type": "address"
                            },
                            {
                                "internalType": "bytes32",
                                "name": "pool",
                                "type": "bytes32"
                            },
                            {
                                "internalType": "uint64",
                                "name": "expiry",
                                "type": "uint64"
                            },
                            {
                                "internalType": "uint256",
                                "name": "salt",
                                "type": "uint256"
                            }
                        ],
                        "internalType": "struct LibNativeOrder.LimitOrder",
                        "name": "order",
                        "type": "tuple"
                    },
                    {
                        "components": [
                            {
                                "internalType": "enum LibSignature.SignatureType",
                                "name": "signatureType",
                                "type": "uint8"
                            },
                            {
                                "internalType": "uint8",
                                "name": "v",
                                "type": "uint8"
                            },
                            {
                                "internalType": "bytes32",
                                "name": "r",
                                "type": "bytes32"
                            },
                            {
                                "internalType": "bytes32",
                                "name": "s",
                                "type": "bytes32"
                            }
                        ],
                        "internalType": "struct LibSignature.Signature",
                        "name": "signature",
                        "type": "tuple"
                    },
                    {
                        "internalType": "uint128",
                        "name": "takerTokenFillAmount",
                        "type": "uint128"
                    }
                ],
                "name": "fillOrKillLimitOrder",
                "outputs": [
                    {
                        "internalType": "uint128",
                        "name": "makerTokenFilledAmount",
                        "type": "uint128"
                    }
                ],
                "stateMutability": "payable",
                "type": "function"
            },
            {
                "inputs": [
                    {
                        "components": [
                            {
                                "internalType": "contract IERC20TokenV06",
                                "name": "makerToken",
                                "type": "address"
                            },
                            {
                                "internalType": "contract IERC20TokenV06",
                                "name": "takerToken",
                                "type": "address"
                            },
                            {
                                "internalType": "uint128",
                                "name": "makerAmount",
                                "type": "uint128"
                            },
                            {
                                "internalType": "uint128",
                                "name": "takerAmount",
                                "type": "uint128"
                            },
                            {
                                "internalType": "address",
                                "name": "maker",
                                "type": "address"
                            },
                            {
                                "internalType": "address",
                                "name": "taker",
                                "type": "address"
                            },
                            {
                                "internalType": "address",
                                "name": "txOrigin",
                                "type": "address"
                            },
                            {
                                "internalType": "bytes32",
                                "name": "pool",
                                "type": "bytes32"
                            },
                            {
                                "internalType": "uint64",
                                "name": "expiry",
                                "type": "uint64"
                            },
                            {
                                "internalType": "uint256",
                                "name": "salt",
                                "type": "uint256"
                            }
                        ],
                        "internalType": "struct LibNativeOrder.RfqOrder",
                        "name": "order",
                        "type": "tuple"
                    },
                    {
                        "components": [
                            {
                                "internalType": "enum LibSignature.SignatureType",
                                "name": "signatureType",
                                "type": "uint8"
                            },
                            {
                                "internalType": "uint8",
                                "name": "v",
                                "type": "uint8"
                            },
                            {
                                "internalType": "bytes32",
                                "name": "r",
                                "type": "bytes32"
                            },
                            {
                                "internalType": "bytes32",
                                "name": "s",
                                "type": "bytes32"
                            }
                        ],
                        "internalType": "struct LibSignature.Signature",
                        "name": "signature",
                        "type": "tuple"
                    },
                    {
                        "internalType": "uint128",
                        "name": "takerTokenFillAmount",
                        "type": "uint128"
                    }
                ],
                "name": "fillOrKillRfqOrder",
                "outputs": [
                    {
                        "internalType": "uint128",
                        "name": "makerTokenFilledAmount",
                        "type": "uint128"
                    }
                ],
                "stateMutability": "nonpayable",
                "type": "function"
            },
            {
                "inputs": [
                    {
                        "components": [
                            {
                                "internalType": "contract IERC20TokenV06",
                                "name": "makerToken",
                                "type": "address"
                            },
                            {
                                "internalType": "contract IERC20TokenV06",
                                "name": "takerToken",
                                "type": "address"
                            },
                            {
                                "internalType": "uint128",
                                "name": "makerAmount",
                                "type": "uint128"
                            },
                            {
                                "internalType": "uint128",
                                "name": "takerAmount",
                                "type": "uint128"
                            },
                            {
                                "internalType": "address",
                                "name": "maker",
                                "type": "address"
                            },
                            {
                                "internalType": "address",
                                "name": "taker",
                                "type": "address"
                            },
                            {
                                "internalType": "address",
                                "name": "txOrigin",
                                "type": "address"
                            },
                            {
                                "internalType": "bytes32",
                                "name": "pool",
                                "type": "bytes32"
                            },
                            {
                                "internalType": "uint64",
                                "name": "expiry",
                                "type": "uint64"
                            },
                            {
                                "internalType": "uint256",
                                "name": "salt",
                                "type": "uint256"
                            }
                        ],
                        "internalType": "struct LibNativeOrder.RfqOrder",
                        "name": "order",
                        "type": "tuple"
                    },
                    {
                        "components": [
                            {
                                "internalType": "enum LibSignature.SignatureType",
                                "name": "signatureType",
                                "type": "uint8"
                            },
                            {
                                "internalType": "uint8",
                                "name": "v",
                                "type": "uint8"
                            },
                            {
                                "internalType": "bytes32",
                                "name": "r",
                                "type": "bytes32"
                            },
                            {
                                "internalType": "bytes32",
                                "name": "s",
                                "type": "bytes32"
                            }
                        ],
                        "internalType": "struct LibSignature.Signature",
                        "name": "signature",
                        "type": "tuple"
                    },
                    {
                        "internalType": "uint128",
                        "name": "takerTokenFillAmount",
                        "type": "uint128"
                    }
                ],
                "name": "fillRfqOrder",
                "outputs": [
                    {
                        "internalType": "uint128",
                        "name": "takerTokenFilledAmount",
                        "type": "uint128"
                    },
                    {
                        "internalType": "uint128",
                        "name": "makerTokenFilledAmount",
                        "type": "uint128"
                    }
                ],
                "stateMutability": "nonpayable",
                "type": "function"
            },
            {
                "inputs": [
                    {
                        "components": [
                            {
                                "internalType": "contract IERC20TokenV06",
                                "name": "makerToken",
                                "type": "address"
                            },
                            {
                                "internalType": "contract IERC20TokenV06",
                                "name": "takerToken",
                                "type": "address"
                            },
                            {
                                "internalType": "uint128",
                                "name": "makerAmount",
                                "type": "uint128"
                            },
                            {
                                "internalType": "uint128",
                                "name": "takerAmount",
                                "type": "uint128"
                            },
                            {
                                "internalType": "uint128",
                                "name": "takerTokenFeeAmount",
                                "type": "uint128"
                            },
                            {
                                "internalType": "address",
                                "name": "maker",
                                "type": "address"
                            },
                            {
                                "internalType": "address",
                                "name": "taker",
                                "type": "address"
                            },
                            {
                                "internalType": "address",
                                "name": "sender",
                                "type": "address"
                            },
                            {
                                "internalType": "address",
                                "name": "feeRecipient",
                                "type": "address"
                            },
                            {
                                "internalType": "bytes32",
                                "name": "pool",
                                "type": "bytes32"
                            },
                            {
                                "internalType": "uint64",
                                "name": "expiry",
                                "type": "uint64"
                            },
                            {
                                "internalType": "uint256",
                                "name": "salt",
                                "type": "uint256"
                            }
                        ],
                        "internalType": "struct LibNativeOrder.LimitOrder",
                        "name": "order",
                        "type": "tuple"
                    }
                ],
                "name": "getLimitOrderHash",
                "outputs": [
                    {
                        "internalType": "bytes32",
                        "name": "orderHash",
                        "type": "bytes32"
                    }
                ],
                "stateMutability": "view",
                "type": "function"
            },
            {
                "inputs": [
                    {
                        "components": [
                            {
                                "internalType": "contract IERC20TokenV06",
                                "name": "makerToken",
                                "type": "address"
                            },
                            {
                                "internalType": "contract IERC20TokenV06",
                                "name": "takerToken",
                                "type": "address"
                            },
                            {
                                "internalType": "uint128",
                                "name": "makerAmount",
                                "type": "uint128"
                            },
                            {
                                "internalType": "uint128",
                                "name": "takerAmount",
                                "type": "uint128"
                            },
                            {
                                "internalType": "uint128",
                                "name": "takerTokenFeeAmount",
                                "type": "uint128"
                            },
                            {
                                "internalType": "address",
                                "name": "maker",
                                "type": "address"
                            },
                            {
                                "internalType": "address",
                                "name": "taker",
                                "type": "address"
                            },
                            {
                                "internalType": "address",
                                "name": "sender",
                                "type": "address"
                            },
                            {
                                "internalType": "address",
                                "name": "feeRecipient",
                                "type": "address"
                            },
                            {
                                "internalType": "bytes32",
                                "name": "pool",
                                "type": "bytes32"
                            },
                            {
                                "internalType": "uint64",
                                "name": "expiry",
                                "type": "uint64"
                            },
                            {
                                "internalType": "uint256",
                                "name": "salt",
                                "type": "uint256"
                            }
                        ],
                        "internalType": "struct LibNativeOrder.LimitOrder",
                        "name": "order",
                        "type": "tuple"
                    }
                ],
                "name": "getLimitOrderInfo",
                "outputs": [
                    {
                        "components": [
                            {
                                "internalType": "bytes32",
                                "name": "orderHash",
                                "type": "bytes32"
                            },
                            {
                                "internalType": "enum LibNativeOrder.OrderStatus",
                                "name": "status",
                                "type": "uint8"
                            },
                            {
                                "internalType": "uint128",
                                "name": "takerTokenFilledAmount",
                                "type": "uint128"
                            }
                        ],
                        "internalType": "struct LibNativeOrder.OrderInfo",
                        "name": "orderInfo",
                        "type": "tuple"
                    }
                ],
                "stateMutability": "view",
                "type": "function"
            },
            {
                "inputs": [
                    {
                        "components": [
                            {
                                "internalType": "contract IERC20TokenV06",
                                "name": "makerToken",
                                "type": "address"
                            },
                            {
                                "internalType": "contract IERC20TokenV06",
                                "name": "takerToken",
                                "type": "address"
                            },
                            {
                                "internalType": "uint128",
                                "name": "makerAmount",
                                "type": "uint128"
                            },
                            {
                                "internalType": "uint128",
                                "name": "takerAmount",
                                "type": "uint128"
                            },
                            {
                                "internalType": "uint128",
                                "name": "takerTokenFeeAmount",
                                "type": "uint128"
                            },
                            {
                                "internalType": "address",
                                "name": "maker",
                                "type": "address"
                            },
                            {
                                "internalType": "address",
                                "name": "taker",
                                "type": "address"
                            },
                            {
                                "internalType": "address",
                                "name": "sender",
                                "type": "address"
                            },
                            {
                                "internalType": "address",
                                "name": "feeRecipient",
                                "type": "address"
                            },
                            {
                                "internalType": "bytes32",
                                "name": "pool",
                                "type": "bytes32"
                            },
                            {
                                "internalType": "uint64",
                                "name": "expiry",
                                "type": "uint64"
                            },
                            {
                                "internalType": "uint256",
                                "name": "salt",
                                "type": "uint256"
                            }
                        ],
                        "internalType": "struct LibNativeOrder.LimitOrder",
                        "name": "order",
                        "type": "tuple"
                    },
                    {
                        "components": [
                            {
                                "internalType": "enum LibSignature.SignatureType",
                                "name": "signatureType",
                                "type": "uint8"
                            },
                            {
                                "internalType": "uint8",
                                "name": "v",
                                "type": "uint8"
                            },
                            {
                                "internalType": "bytes32",
                                "name": "r",
                                "type": "bytes32"
                            },
                            {
                                "internalType": "bytes32",
                                "name": "s",
                                "type": "bytes32"
                            }
                        ],
                        "internalType": "struct LibSignature.Signature",
                        "name": "signature",
                        "type": "tuple"
                    }
                ],
                "name": "getLimitOrderRelevantState",
                "outputs": [
                    {
                        "components": [
                            {
                                "internalType": "bytes32",
                                "name": "orderHash",
                                "type": "bytes32"
                            },
                            {
                                "internalType": "enum LibNativeOrder.OrderStatus",
                                "name": "status",
                                "type": "uint8"
                            },
                            {
                                "internalType": "uint128",
                                "name": "takerTokenFilledAmount",
                                "type": "uint128"
                            }
                        ],
                        "internalType": "struct LibNativeOrder.OrderInfo",
                        "name": "orderInfo",
                        "type": "tuple"
                    },
                    {
                        "internalType": "uint128",
                        "name": "actualFillableTakerTokenAmount",
                        "type": "uint128"
                    },
                    {
                        "internalType": "bool",
                        "name": "isSignatureValid",
                        "type": "bool"
                    }
                ],
                "stateMutability": "view",
                "type": "function"
            },
            {
                "inputs": [],
                "name": "getProtocolFeeMultiplier",
                "outputs": [
                    {
                        "internalType": "uint32",
                        "name": "multiplier",
                        "type": "uint32"
                    }
                ],
                "stateMutability": "view",
                "type": "function"
            },
            {
                "inputs": [
                    {
                        "components": [
                            {
                                "internalType": "contract IERC20TokenV06",
                                "name": "makerToken",
                                "type": "address"
                            },
                            {
                                "internalType": "contract IERC20TokenV06",
                                "name": "takerToken",
                                "type": "address"
                            },
                            {
                                "internalType": "uint128",
                                "name": "makerAmount",
                                "type": "uint128"
                            },
                            {
                                "internalType": "uint128",
                                "name": "takerAmount",
                                "type": "uint128"
                            },
                            {
                                "internalType": "address",
                                "name": "maker",
                                "type": "address"
                            },
                            {
                                "internalType": "address",
                                "name": "taker",
                                "type": "address"
                            },
                            {
                                "internalType": "address",
                                "name": "txOrigin",
                                "type": "address"
                            },
                            {
                                "internalType": "bytes32",
                                "name": "pool",
                                "type": "bytes32"
                            },
                            {
                                "internalType": "uint64",
                                "name": "expiry",
                                "type": "uint64"
                            },
                            {
                                "internalType": "uint256",
                                "name": "salt",
                                "type": "uint256"
                            }
                        ],
                        "internalType": "struct LibNativeOrder.RfqOrder",
                        "name": "order",
                        "type": "tuple"
                    }
                ],
                "name": "getRfqOrderHash",
                "outputs": [
                    {
                        "internalType": "bytes32",
                        "name": "orderHash",
                        "type": "bytes32"
                    }
                ],
                "stateMutability": "view",
                "type": "function"
            },
            {
                "inputs": [
                    {
                        "components": [
                            {
                                "internalType": "contract IERC20TokenV06",
                                "name": "makerToken",
                                "type": "address"
                            },
                            {
                                "internalType": "contract IERC20TokenV06",
                                "name": "takerToken",
                                "type": "address"
                            },
                            {
                                "internalType": "uint128",
                                "name": "makerAmount",
                                "type": "uint128"
                            },
                            {
                                "internalType": "uint128",
                                "name": "takerAmount",
                                "type": "uint128"
                            },
                            {
                                "internalType": "address",
                                "name": "maker",
                                "type": "address"
                            },
                            {
                                "internalType": "address",
                                "name": "taker",
                                "type": "address"
                            },
                            {
                                "internalType": "address",
                                "name": "txOrigin",
                                "type": "address"
                            },
                            {
                                "internalType": "bytes32",
                                "name": "pool",
                                "type": "bytes32"
                            },
                            {
                                "internalType": "uint64",
                                "name": "expiry",
                                "type": "uint64"
                            },
                            {
                                "internalType": "uint256",
                                "name": "salt",
                                "type": "uint256"
                            }
                        ],
                        "internalType": "struct LibNativeOrder.RfqOrder",
                        "name": "order",
                        "type": "tuple"
                    }
                ],
                "name": "getRfqOrderInfo",
                "outputs": [
                    {
                        "components": [
                            {
                                "internalType": "bytes32",
                                "name": "orderHash",
                                "type": "bytes32"
                            },
                            {
                                "internalType": "enum LibNativeOrder.OrderStatus",
                                "name": "status",
                                "type": "uint8"
                            },
                            {
                                "internalType": "uint128",
                                "name": "takerTokenFilledAmount",
                                "type": "uint128"
                            }
                        ],
                        "internalType": "struct LibNativeOrder.OrderInfo",
                        "name": "orderInfo",
                        "type": "tuple"
                    }
                ],
                "stateMutability": "view",
                "type": "function"
            },
            {
                "inputs": [
                    {
                        "components": [
                            {
                                "internalType": "contract IERC20TokenV06",
                                "name": "makerToken",
                                "type": "address"
                            },
                            {
                                "internalType": "contract IERC20TokenV06",
                                "name": "takerToken",
                                "type": "address"
                            },
                            {
                                "internalType": "uint128",
                                "name": "makerAmount",
                                "type": "uint128"
                            },
                            {
                                "internalType": "uint128",
                                "name": "takerAmount",
                                "type": "uint128"
                            },
                            {
                                "internalType": "address",
                                "name": "maker",
                                "type": "address"
                            },
                            {
                                "internalType": "address",
                                "name": "taker",
                                "type": "address"
                            },
                            {
                                "internalType": "address",
                                "name": "txOrigin",
                                "type": "address"
                            },
                            {
                                "internalType": "bytes32",
                                "name": "pool",
                                "type": "bytes32"
                            },
                            {
                                "internalType": "uint64",
                                "name": "expiry",
                                "type": "uint64"
                            },
                            {
                                "internalType": "uint256",
                                "name": "salt",
                                "type": "uint256"
                            }
                        ],
                        "internalType": "struct LibNativeOrder.RfqOrder",
                        "name": "order",
                        "type": "tuple"
                    },
                    {
                        "components": [
                            {
                                "internalType": "enum LibSignature.SignatureType",
                                "name": "signatureType",
                                "type": "uint8"
                            },
                            {
                                "internalType": "uint8",
                                "name": "v",
                                "type": "uint8"
                            },
                            {
                                "internalType": "bytes32",
                                "name": "r",
                                "type": "bytes32"
                            },
                            {
                                "internalType": "bytes32",
                                "name": "s",
                                "type": "bytes32"
                            }
                        ],
                        "internalType": "struct LibSignature.Signature",
                        "name": "signature",
                        "type": "tuple"
                    }
                ],
                "name": "getRfqOrderRelevantState",
                "outputs": [
                    {
                        "components": [
                            {
                                "internalType": "bytes32",
                                "name": "orderHash",
                                "type": "bytes32"
                            },
                            {
                                "internalType": "enum LibNativeOrder.OrderStatus",
                                "name": "status",
                                "type": "uint8"
                            },
                            {
                                "internalType": "uint128",
                                "name": "takerTokenFilledAmount",
                                "type": "uint128"
                            }
                        ],
                        "internalType": "struct LibNativeOrder.OrderInfo",
                        "name": "orderInfo",
                        "type": "tuple"
                    },
                    {
                        "internalType": "uint128",
                        "name": "actualFillableTakerTokenAmount",
                        "type": "uint128"
                    },
                    {
                        "internalType": "bool",
                        "name": "isSignatureValid",
                        "type": "bool"
                    }
                ],
                "stateMutability": "view",
                "type": "function"
            },
            {
                "inputs": [],
                "name": "migrate",
                "outputs": [
                    {
                        "internalType": "bytes4",
                        "name": "success",
                        "type": "bytes4"
                    }
                ],
                "stateMutability": "nonpayable",
                "type": "function"
            },
            {
                "inputs": [
                    {
                        "internalType": "address[]",
                        "name": "origins",
                        "type": "address[]"
                    },
                    {
                        "internalType": "bool",
                        "name": "allowed",
                        "type": "bool"
                    }
                ],
                "name": "registerAllowedRfqOrigins",
                "outputs": [],
                "stateMutability": "nonpayable",
                "type": "function"
            },
            {
                "inputs": [
                    {
                        "internalType": "bytes32[]",
                        "name": "poolIds",
                        "type": "bytes32[]"
                    }
                ],
                "name": "transferProtocolFeesForPools",
                "outputs": [],
                "stateMutability": "nonpayable",
                "type": "function"
            }
        ],
        "devdoc": {
            "kind": "dev",
            "methods": {
                "_fillLimitOrder((address,address,uint128,uint128,uint128,address,address,address,address,bytes32,uint64,uint256),(uint8,uint8,bytes32,bytes32),uint128,address,address)": {
                    "details": "Fill a limit order. Internal variant. ETH protocol fees can be      attached to this call.",
                    "params": {
                        "order": "The limit order.",
                        "sender": "The order sender.",
                        "signature": "The order signature.",
                        "taker": "The order taker.",
                        "takerTokenFillAmount": "Maximum taker token to fill this order with."
                    },
                    "returns": {
                        "makerTokenFilledAmount": "How much maker token was filled.",
                        "takerTokenFilledAmount": "How much maker token was filled."
                    }
                },
                "_fillRfqOrder((address,address,uint128,uint128,address,address,address,bytes32,uint64,uint256),(uint8,uint8,bytes32,bytes32),uint128,address)": {
                    "details": "Fill an RFQ order. Internal variant. ETH protocol fees can be      attached to this call. Any unspent ETH will be refunded to      `msg.sender` (not `sender`).",
                    "params": {
                        "order": "The RFQ order.",
                        "signature": "The order signature.",
                        "taker": "The order taker.",
                        "takerTokenFillAmount": "Maximum taker token to fill this order with."
                    },
                    "returns": {
                        "makerTokenFilledAmount": "How much maker token was filled.",
                        "takerTokenFilledAmount": "How much maker token was filled."
                    }
                },
                "batchCancelLimitOrders((address,address,uint128,uint128,uint128,address,address,address,address,bytes32,uint64,uint256)[])": {
                    "details": "Cancel multiple limit orders. The caller must be the maker.      Silently succeeds if the order has already been cancelled.",
                    "params": {
                        "orders": "The limit orders."
                    }
                },
                "batchCancelPairLimitOrders(address[],address[],uint256[])": {
                    "details": "Cancel all limit orders for a given maker and pair with a salt less      than the value provided. The caller must be the maker. Subsequent      calls to this function with the same caller and pair require the      new salt to be >= the old salt.",
                    "params": {
                        "makerTokens": "The maker tokens.",
                        "minValidSalts": "The new minimum valid salts.",
                        "takerTokens": "The taker tokens."
                    }
                },
                "batchCancelPairRfqOrders(address[],address[],uint256[])": {
                    "details": "Cancel all RFQ orders for a given maker and pair with a salt less      than the value provided. The caller must be the maker. Subsequent      calls to this function with the same caller and pair require the      new salt to be >= the old salt.",
                    "params": {
                        "makerTokens": "The maker tokens.",
                        "minValidSalts": "The new minimum valid salts.",
                        "takerTokens": "The taker tokens."
                    }
                },
                "batchCancelRfqOrders((address,address,uint128,uint128,address,address,address,bytes32,uint64,uint256)[])": {
                    "details": "Cancel multiple RFQ orders. The caller must be the maker.      Silently succeeds if the order has already been cancelled.",
                    "params": {
                        "orders": "The RFQ orders."
                    }
                },
                "batchGetLimitOrderRelevantStates((address,address,uint128,uint128,uint128,address,address,address,address,bytes32,uint64,uint256)[],(uint8,uint8,bytes32,bytes32)[])": {
                    "details": "Batch version of `getLimitOrderRelevantState()`, without reverting.      Orders that would normally cause `getLimitOrderRelevantState()`      to revert will have empty results.",
                    "params": {
                        "orders": "The limit orders.",
                        "signatures": "The order signatures."
                    },
                    "returns": {
                        "actualFillableTakerTokenAmounts": "How much of each order is fillable         based on maker funds, in taker tokens.",
                        "isSignatureValids": "Whether each signature is valid for the order.",
                        "orderInfos": "Info about the orders."
                    }
                },
                "batchGetRfqOrderRelevantStates((address,address,uint128,uint128,address,address,address,bytes32,uint64,uint256)[],(uint8,uint8,bytes32,bytes32)[])": {
                    "details": "Batch version of `getRfqOrderRelevantState()`, without reverting.      Orders that would normally cause `getRfqOrderRelevantState()`      to revert will have empty results.",
                    "params": {
                        "orders": "The RFQ orders.",
                        "signatures": "The order signatures."
                    },
                    "returns": {
                        "actualFillableTakerTokenAmounts": "How much of each order is fillable         based on maker funds, in taker tokens.",
                        "isSignatureValids": "Whether each signature is valid for the order.",
                        "orderInfos": "Info about the orders."
                    }
                },
                "cancelLimitOrder((address,address,uint128,uint128,uint128,address,address,address,address,bytes32,uint64,uint256))": {
                    "details": "Cancel a single limit order. The caller must be the maker.      Silently succeeds if the order has already been cancelled.",
                    "params": {
                        "order": "The limit order."
                    }
                },
                "cancelPairLimitOrders(address,address,uint256)": {
                    "details": "Cancel all limit orders for a given maker and pair with a salt less      than the value provided. The caller must be the maker. Subsequent      calls to this function with the same caller and pair require the      new salt to be >= the old salt.",
                    "params": {
                        "makerToken": "The maker token.",
                        "minValidSalt": "The new minimum valid salt.",
                        "takerToken": "The taker token."
                    }
                },
                "cancelPairRfqOrders(address,address,uint256)": {
                    "details": "Cancel all RFQ orders for a given maker and pair with a salt less      than the value provided. The caller must be the maker. Subsequent      calls to this function with the same caller and pair require the      new salt to be >= the old salt.",
                    "params": {
                        "makerToken": "The maker token.",
                        "minValidSalt": "The new minimum valid salt.",
                        "takerToken": "The taker token."
                    }
                },
                "cancelRfqOrder((address,address,uint128,uint128,address,address,address,bytes32,uint64,uint256))": {
                    "details": "Cancel a single RFQ order. The caller must be the maker.      Silently succeeds if the order has already been cancelled.",
                    "params": {
                        "order": "The RFQ order."
                    }
                },
                "fillLimitOrder((address,address,uint128,uint128,uint128,address,address,address,address,bytes32,uint64,uint256),(uint8,uint8,bytes32,bytes32),uint128)": {
                    "details": "Fill a limit order. The taker and sender will be the caller.",
                    "params": {
                        "order": "The limit order. ETH protocol fees can be      attached to this call. Any unspent ETH will be refunded to      the caller.",
                        "signature": "The order signature.",
                        "takerTokenFillAmount": "Maximum taker token amount to fill this order with."
                    },
                    "returns": {
                        "makerTokenFilledAmount": "How much maker token was filled.",
                        "takerTokenFilledAmount": "How much maker token was filled."
                    }
                },
                "fillOrKillLimitOrder((address,address,uint128,uint128,uint128,address,address,address,address,bytes32,uint64,uint256),(uint8,uint8,bytes32,bytes32),uint128)": {
                    "details": "Fill an RFQ order for exactly `takerTokenFillAmount` taker tokens.      The taker will be the caller. ETH protocol fees can be      attached to this call. Any unspent ETH will be refunded to      the caller.",
                    "params": {
                        "order": "The limit order.",
                        "signature": "The order signature.",
                        "takerTokenFillAmount": "How much taker token to fill this order with."
                    },
                    "returns": {
                        "makerTokenFilledAmount": "How much maker token was filled."
                    }
                },
                "fillOrKillRfqOrder((address,address,uint128,uint128,address,address,address,bytes32,uint64,uint256),(uint8,uint8,bytes32,bytes32),uint128)": {
                    "details": "Fill an RFQ order for exactly `takerTokenFillAmount` taker tokens.      The taker will be the caller. ETH protocol fees can be      attached to this call. Any unspent ETH will be refunded to      the caller.",
                    "params": {
                        "order": "The RFQ order.",
                        "signature": "The order signature.",
                        "takerTokenFillAmount": "How much taker token to fill this order with."
                    },
                    "returns": {
                        "makerTokenFilledAmount": "How much maker token was filled."
                    }
                },
                "fillRfqOrder((address,address,uint128,uint128,address,address,address,bytes32,uint64,uint256),(uint8,uint8,bytes32,bytes32),uint128)": {
                    "details": "Fill an RFQ order for up to `takerTokenFillAmount` taker tokens.      The taker will be the caller. ETH should be attached to pay the      protocol fee.",
                    "params": {
                        "order": "The RFQ order.",
                        "signature": "The order signature.",
                        "takerTokenFillAmount": "Maximum taker token amount to fill this order with."
                    },
                    "returns": {
                        "makerTokenFilledAmount": "How much maker token was filled.",
                        "takerTokenFilledAmount": "How much maker token was filled."
                    }
                },
                "getLimitOrderHash((address,address,uint128,uint128,uint128,address,address,address,address,bytes32,uint64,uint256))": {
                    "details": "Get the canonical hash of a limit order.",
                    "params": {
                        "order": "The limit order."
                    },
                    "returns": {
                        "orderHash": "The order hash."
                    }
                },
                "getLimitOrderInfo((address,address,uint128,uint128,uint128,address,address,address,address,bytes32,uint64,uint256))": {
                    "details": "Get the order info for a limit order.",
                    "params": {
                        "order": "The limit order."
                    },
                    "returns": {
                        "orderInfo": "Info about the order."
                    }
                },
                "getLimitOrderRelevantState((address,address,uint128,uint128,uint128,address,address,address,address,bytes32,uint64,uint256),(uint8,uint8,bytes32,bytes32))": {
                    "details": "Get order info, fillable amount, and signature validity for a limit order.      Fillable amount is determined using balances and allowances of the maker.",
                    "params": {
                        "order": "The limit order.",
                        "signature": "The order signature."
                    },
                    "returns": {
                        "actualFillableTakerTokenAmount": "How much of the order is fillable         based on maker funds, in taker tokens.",
                        "isSignatureValid": "Whether the signature is valid.",
                        "orderInfo": "Info about the order."
                    }
                },
                "getProtocolFeeMultiplier()": {
                    "details": "Get the protocol fee multiplier. This should be multiplied by the      gas price to arrive at the required protocol fee to fill a native order.",
                    "returns": {
                        "multiplier": "The protocol fee multiplier."
                    }
                },
                "getRfqOrderHash((address,address,uint128,uint128,address,address,address,bytes32,uint64,uint256))": {
                    "details": "Get the canonical hash of an RFQ order.",
                    "params": {
                        "order": "The RFQ order."
                    },
                    "returns": {
                        "orderHash": "The order hash."
                    }
                },
                "getRfqOrderInfo((address,address,uint128,uint128,address,address,address,bytes32,uint64,uint256))": {
                    "details": "Get the order info for an RFQ order.",
                    "params": {
                        "order": "The RFQ order."
                    },
                    "returns": {
                        "orderInfo": "Info about the order."
                    }
                },
                "getRfqOrderRelevantState((address,address,uint128,uint128,address,address,address,bytes32,uint64,uint256),(uint8,uint8,bytes32,bytes32))": {
                    "details": "Get order info, fillable amount, and signature validity for an RFQ order.      Fillable amount is determined using balances and allowances of the maker.",
                    "params": {
                        "order": "The RFQ order.",
                        "signature": "The order signature."
                    },
                    "returns": {
                        "actualFillableTakerTokenAmount": "How much of the order is fillable         based on maker funds, in taker tokens.",
                        "isSignatureValid": "Whether the signature is valid.",
                        "orderInfo": "Info about the order."
                    }
                },
                "migrate()": {
                    "details": "Initialize and register this feature.      Should be delegatecalled by `Migrate.migrate()`.",
                    "returns": {
                        "success": "`LibMigrate.SUCCESS` on success."
                    }
                },
                "registerAllowedRfqOrigins(address[],bool)": {
                    "details": "Mark what tx.origin addresses are allowed to fill an order that      specifies the message sender as its txOrigin.",
                    "params": {
                        "allowed": "True to register, false to unregister.",
                        "origins": "An array of origin addresses to update."
                    }
                },
                "transferProtocolFeesForPools(bytes32[])": {
                    "details": "Transfers protocol fees from the `FeeCollector` pools into      the staking contract.",
                    "params": {
                        "poolIds": "Staking pool IDs"
                    }
                }
            },
            "version": 1
        },
        "evm": {
            "bytecode": {
                "linkReferences": {},
                "object": "0x6101a0604052620000146001600081620001f4565b610180523480156200002557600080fd5b506000806000604051620000399062000226565b604051809103906000f08015801562000056573d6000803e3d6000fd5b5060008060001b85858585858584848484838383838d898181808260004690507f8b73c3c69bb8fe3d512ecc4cf759cc79239f7b179b0ffacaa9a75d522b39400f7f9e5dae0addaf20578aeb5d70341d092b53b4e14480ac5726438fd436df7ba4277f06c015bd22b4c69690933c1058878ebdfef31f9aaae40bbe86d8a09fe1b2972c8385604051602001620000f19594939291906200024c565b60408051601f19818403018152828252805160209182012060805260a0959095526001600160601b031960608c901b1660e052633c9506a360e21b8252516001600160a01b038b16985063f2541a8c975060048083019750949550939084900301915082905086803b1580156200016757600080fd5b505afa1580156200017c573d6000803e3d6000fd5b505050506040513d601f19601f82011682018060405250810190620001a2919062000233565b61010052606093841b6001600160601b03199081166101205292841b909216610140525060e01b6001600160e01b03191660c05230901b6101605250620002789e505050505050505050505050505050565b6bffffffff0000000000000000604084901b1667ffffffff00000000602084901b161763ffffffff8216179392505050565b60ae806200578083390190565b60006020828403121562000245578081fd5b5051919050565b9485526020850193909352604084019190915260608301526001600160a01b0316608082015260a00190565b60805160a05160c05160e01c60e05160601c610100516101205160601c6101405160601c6101605160601c6101805161547862000308600039806105eb5250806127a95250806122385250806121495250806138c15250806120bc52806138a0525080610a96528061128652806138745250806119ef5280613901525080611a135280611cb052506154786000f3fe6080604052600436106101d85760003560e01c80639548088911610102578063b4658bfb11610095578063dd11d22511610064578063dd11d2251461055b578063f6274f661461057b578063f6e0f6a51461058e578063fe55a3ef146105ae576101d8565b8063b4658bfb146104f1578063d0a55fb014610511578063d925a56d14610531578063dab400f314610546576101d8565b8063a656186b116100d1578063a656186b14610462578063aa77476c14610482578063ad354eeb146104a2578063b09f1fb1146104d1576101d8565b806395480889146103ed5780639a4f809c1461040d5780639baa45a81461042d578063a0edcef51461044d576101d8565b8063414e4ccf1161017a5780637d49ec1a116101495780637d49ec1a1461037857806386a0c8d7146103985780638fd3ab80146103b85780639240529c146103da576101d8565b8063414e4ccf146102e6578063438cdfc514610307578063487b5c20146103345780636ae4b4f714610356576101d8565b80631fb09795116101b65780631fb097951461024a578063346693c51461027957806337f381d8146102a65780633cd2f026146102c6576101d8565b8063016a6d65146101dd578063031b905c146102135780630f0e8cf714610228575b600080fd5b3480156101e957600080fd5b506101fd6101f83660046144db565b6105ce565b60405161020a9190614a42565b60405180910390f35b34801561021f57600080fd5b506101fd6105e9565b34801561023457600080fd5b50610248610243366004613fc9565b61060d565b005b34801561025657600080fd5b5061026a610265366004614343565b6106bc565b60405161020a939291906150e1565b34801561028557600080fd5b506102996102943660046144db565b6107b9565b60405161020a91906150d3565b3480156102b257600080fd5b5061026a6102c13660046144f7565b610871565b3480156102d257600080fd5b506102486102e1366004613f5a565b610961565b6102f96102f43660046143ec565b610994565b60405161020a92919061532e565b34801561031357600080fd5b5061032761032236600461452d565b6109fd565b60405161020a9190615311565b34801561034057600080fd5b50610349610a94565b60405161020a919061535f565b34801561036257600080fd5b5061036b610ab8565b60405161020a9190614c7f565b34801561038457600080fd5b50610248610393366004614327565b610af1565b3480156103a457600080fd5b506102486103b3366004613fc9565b610b59565b3480156103c457600080fd5b506103cd610bf9565b60405161020a9190614bc4565b6103276103e83660046143a1565b611021565b3480156103f957600080fd5b50610299610408366004614327565b6110e4565b34801561041957600080fd5b506102486104283660046142e7565b61116f565b34801561043957600080fd5b50610248610448366004614139565b611254565b34801561045957600080fd5b50610349611284565b34801561046e57600080fd5b506102f961047d36600461456d565b6112a8565b34801561048e57600080fd5b506102f961049d36600461452d565b61130e565b3480156104ae57600080fd5b506104c26104bd3660046141d8565b61133d565b60405161020a939291906149a4565b3480156104dd57600080fd5b506102486104ec366004613eab565b6115a3565b3480156104fd57600080fd5b506104c261050c3660046140a4565b6116bc565b34801561051d57600080fd5b5061024861052c3660046142e7565b611917565b34801561053d57600080fd5b506101fd6119ed565b34801561055257600080fd5b506101fd611a11565b34801561056757600080fd5b506101fd610576366004614327565b611a35565b6102f96105893660046143a1565b611a43565b34801561059a57600080fd5b506102486105a936600461423a565b611ae1565b3480156105ba57600080fd5b506102486105c93660046144db565b611b11565b60006105e16105dc83611b75565b611cac565b90505b919050565b7f000000000000000000000000000000000000000000000000000000000000000081565b8151835114801561061f575080518351145b61065e576040517f08c379a000000000000000000000000000000000000000000000000000000000815260040161065590614d4c565b60405180910390fd5b60005b83518110156106b6576106ae84828151811061067957fe5b602002602001015184838151811061068d57fe5b60200260200101518484815181106106a157fe5b602002602001015161116f565b600101610661565b50505050565b6106c4613b49565b6000806106d0856110e4565b92506107616040518060a001604052808760a0015173ffffffffffffffffffffffffffffffffffffffff168152602001876000015173ffffffffffffffffffffffffffffffffffffffff16815260200187604001516fffffffffffffffffffffffffffffffff16815260200187606001516fffffffffffffffffffffffffffffffff16815260200185815250611cfe565b835190925061077e90610779368790038701876145ca565b611e27565b73ffffffffffffffffffffffffffffffffffffffff168560a0015173ffffffffffffffffffffffffffffffffffffffff161490509250925092565b6107c1613b49565b6107ca826105ce565b815260006107d6611f7e565b608084015173ffffffffffffffffffffffffffffffffffffffff90811660009081526002929092016020908152604080842087518416855282528084208288015190931684529190529020546060840151610100850151610120860151929350610844928592919085611f8b565b60c083015173ffffffffffffffffffffffffffffffffffffffff1661086b57600060208301525b50919050565b610879613b49565b600080610885856107b9565b92506109166040518060a00160405280876080015173ffffffffffffffffffffffffffffffffffffffff168152602001876000015173ffffffffffffffffffffffffffffffffffffffff16815260200187604001516fffffffffffffffffffffffffffffffff16815260200187606001516fffffffffffffffffffffffffffffffff16815260200185815250611cfe565b9150610926836000015185611e27565b73ffffffffffffffffffffffffffffffffffffffff16856080015173ffffffffffffffffffffffffffffffffffffffff161490509250925092565b60005b8181101561098f5761098783838381811061097b57fe5b9050602002013561207c565b600101610964565b505050565b6000807f74fece103e7470a8798099e7fd4af1eea16d523b4dbe60d7dc30ecf3519dba65878760000151886020015189604001518a606001518a8a8a6040516109e4989796959493929190614f99565b60405180910390a1506000966105399650945050505050565b6000610a07613b6b565b610a13858585336122ca565b9050826fffffffffffffffffffffffffffffffff1681602001516fffffffffffffffffffffffffffffffff161015610a8857610a88610a83610a54876105ce565b83602001516fffffffffffffffffffffffffffffffff16866fffffffffffffffffffffffffffffffff16612602565b6126c0565b60400151949350505050565b7f000000000000000000000000000000000000000000000000000000000000000090565b6040518060400160405280600b81526020017f4c696d69744f726465727300000000000000000000000000000000000000000081525081565b6000610afc82611a35565b90508160a0015173ffffffffffffffffffffffffffffffffffffffff163373ffffffffffffffffffffffffffffffffffffffff1614610b4757610b47610a8382338560a001516126c8565b610b55818360a00151612700565b5050565b81518351148015610b6b575080518351145b610ba1576040517f08c379a000000000000000000000000000000000000000000000000000000000815260040161065590614d4c565b60005b83518110156106b657610bf1848281518110610bbc57fe5b6020026020010151848381518110610bd057fe5b6020026020010151848481518110610be457fe5b6020026020010151611917565b600101610ba4565b6000610c247f3cd2f02600000000000000000000000000000000000000000000000000000000612773565b610c4d7ff6274f6600000000000000000000000000000000000000000000000000000000612773565b610c767faa77476c00000000000000000000000000000000000000000000000000000000612773565b610c9f7f9240529c00000000000000000000000000000000000000000000000000000000612773565b610cc87f438cdfc500000000000000000000000000000000000000000000000000000000612773565b610cf17f414e4ccf00000000000000000000000000000000000000000000000000000000612773565b610d1a7fa656186b00000000000000000000000000000000000000000000000000000000612773565b610d437f7d49ec1a00000000000000000000000000000000000000000000000000000000612773565b610d6c7ffe55a3ef00000000000000000000000000000000000000000000000000000000612773565b610d957f9baa45a800000000000000000000000000000000000000000000000000000000612773565b610dbe7ff6e0f6a500000000000000000000000000000000000000000000000000000000612773565b610de77fd0a55fb000000000000000000000000000000000000000000000000000000000612773565b610e107f86a0c8d700000000000000000000000000000000000000000000000000000000612773565b610e397f9a4f809c00000000000000000000000000000000000000000000000000000000612773565b610e627f0f0e8cf700000000000000000000000000000000000000000000000000000000612773565b610e8b7f9548088900000000000000000000000000000000000000000000000000000000612773565b610eb47f346693c500000000000000000000000000000000000000000000000000000000612773565b610edd7fdd11d22500000000000000000000000000000000000000000000000000000000612773565b610f067f016a6d6500000000000000000000000000000000000000000000000000000000612773565b610f2f7f487b5c2000000000000000000000000000000000000000000000000000000000612773565b610f587fb09f1fb100000000000000000000000000000000000000000000000000000000612773565b610f817f1fb0979500000000000000000000000000000000000000000000000000000000612773565b610faa7f37f381d800000000000000000000000000000000000000000000000000000000612773565b610fd37fb4658bfb00000000000000000000000000000000000000000000000000000000612773565b610ffc7fad354eeb00000000000000000000000000000000000000000000000000000000612773565b507f2c64c5ef0000000000000000000000000000000000000000000000000000000090565b600061102b613b6b565b6110986040518060a00160405280878152602001868152602001856fffffffffffffffffffffffffffffffff1681526020013373ffffffffffffffffffffffffffffffffffffffff1681526020013373ffffffffffffffffffffffffffffffffffffffff168152506127ff565b9050826fffffffffffffffffffffffffffffffff1681602001516fffffffffffffffffffffffffffffffff1610156110d9576110d9610a83610a5487611a35565b8051610a8890612ba6565b6110ec613b49565b6110f582611a35565b81526000611101611f7e565b60a084015173ffffffffffffffffffffffffffffffffffffffff9081166000908152600192909201602090815260408084208751841685528252808420828801519093168452919052902054606084015161014085015161016086015192935061086b928592919085611f8b565b6000611179611f7e565b336000908152600282016020908152604080832073ffffffffffffffffffffffffffffffffffffffff89811685529083528184209088168452909152902054909150828111156111d0576111d0610a838483612c49565b336000818152600284016020908152604080832073ffffffffffffffffffffffffffffffffffffffff8a81168552908352818420908916845290915290819020859055517ffe7ffb1edfe79f4df716cb2dcad21cf2f31b104d816a7976ba1e6e4653c1efb1916112459188908890889061485c565b60405180910390a15050505050565b60005b8151811015610b555761127c82828151811061126f57fe5b6020026020010151610af1565b600101611257565b7f000000000000000000000000000000000000000000000000000000000000000081565b6000807fc03fa343c060fc606d5055416dcc7b6a43c24a30ee1f6f3e3ffd0c617aca241b86866000015187602001518860400151896060015189896040516112f6979695949392919061520f565b60405180910390a15060009561053995509350505050565b600080611319613b6b565b611325868686336122ca565b60208101516040909101519097909650945050505050565b6060808085841461137a576040517f08c379a000000000000000000000000000000000000000000000000000000000815260040161065590614c92565b8567ffffffffffffffff8111801561139157600080fd5b506040519080825280602002602001820160405280156113cb57816020015b6113b8613b49565b8152602001906001900390816113b05790505b5092508567ffffffffffffffff811180156113e557600080fd5b5060405190808252806020026020018201604052801561140f578160200160208202803683370190505b5091508567ffffffffffffffff8111801561142957600080fd5b50604051908082528060200260200182016040528015611453578160200160208202803683370190505b50905060005b8681101561159857306337f381d889898481811061147357fe5b9050610140020188888581811061148657fe5b9050608002016040518363ffffffff1660e01b81526004016114a9929190615117565b60a06040518083038186803b1580156114c157600080fd5b505afa92505050801561150f575060408051601f3d9081017fffffffffffffffffffffffffffffffffffffffffffffffffffffffffffffffe016820190925261150c9181019061445f565b60015b61151857611590565b8287858151811061152557fe5b60200260200101819052508186858151811061153d57fe5b60200260200101906fffffffffffffffffffffffffffffffff1690816fffffffffffffffffffffffffffffffff16815250508085858151811061157c57fe5b911515602092830291909101909101525050505b600101611459565b509450945094915050565b3332146115dc576040517f08c379a000000000000000000000000000000000000000000000000000000000815260040161065590614cef565b60006115e6611f7e565b905060005b835181101561167b573360009081526003830160205260408120855185929087908590811061161657fe5b60209081029190910181015173ffffffffffffffffffffffffffffffffffffffff16825281019190915260400160002080547fffffffffffffffffffffffffffffffffffffffffffffffffffffffffffffff00169115159190911790556001016115eb565b507f02dfead5eb769b298e82dd9650b31c40559a3d42701dbf53c931bc2682847c313384846040516116af93929190614893565b60405180910390a1505050565b606080808584146116f9576040517f08c379a000000000000000000000000000000000000000000000000000000000815260040161065590614c92565b8567ffffffffffffffff8111801561171057600080fd5b5060405190808252806020026020018201604052801561174a57816020015b611737613b49565b81526020019060019003908161172f5790505b5092508567ffffffffffffffff8111801561176457600080fd5b5060405190808252806020026020018201604052801561178e578160200160208202803683370190505b5091508567ffffffffffffffff811180156117a857600080fd5b506040519080825280602002602001820160405280156117d2578160200160208202803683370190505b50905060005b868110156115985730631fb097958989848181106117f257fe5b9050610180020188888581811061180557fe5b9050608002016040518363ffffffff1660e01b8152600401611828929190614e63565b60a06040518083038186803b15801561184057600080fd5b505afa92505050801561188e575060408051601f3d9081017fffffffffffffffffffffffffffffffffffffffffffffffffffffffffffffffe016820190925261188b9181019061445f565b60015b6118975761190f565b828785815181106118a457fe5b6020026020010181905250818685815181106118bc57fe5b60200260200101906fffffffffffffffffffffffffffffffff1690816fffffffffffffffffffffffffffffffff1681525050808585815181106118fb57fe5b911515602092830291909101909101525050505b6001016117d8565b6000611921611f7e565b336000908152600182016020908152604080832073ffffffffffffffffffffffffffffffffffffffff898116855290835281842090881684529091529020549091508281111561197857611978610a838483612c49565b336000818152600184016020908152604080832073ffffffffffffffffffffffffffffffffffffffff8a81168552908352818420908916845290915290819020859055517fa91fe7ae62fce669df2c7f880f8c14d178531aae72515558e5c948e37c32a572916112459188908890889061485c565b7f000000000000000000000000000000000000000000000000000000000000000081565b7f000000000000000000000000000000000000000000000000000000000000000081565b60006105e16105dc83612d04565b600080611a4e613b6b565b611abb6040518060a00160405280888152602001878152602001866fffffffffffffffffffffffffffffffff1681526020013373ffffffffffffffffffffffffffffffffffffffff1681526020013373ffffffffffffffffffffffffffffffffffffffff168152506127ff565b9050611aca8160000151612ba6565b602081015160409091015190969095509350505050565b60005b8151811015610b5557611b09828281518110611afc57fe5b6020026020010151611b11565b600101611ae4565b6000611b1c826105ce565b9050816080015173ffffffffffffffffffffffffffffffffffffffff163373ffffffffffffffffffffffffffffffffffffffff1614611b6757611b67610a83823385608001516126c8565b610b55818360800151612700565b60006040517fe593d3fdfa8b60e5e17a1b2204662ecbe15c23f2084b9ad5bae40359540a7da98152825173ffffffffffffffffffffffffffffffffffffffff166020820152602083015173ffffffffffffffffffffffffffffffffffffffff16604082015260408301516fffffffffffffffffffffffffffffffff16606082015260608301516fffffffffffffffffffffffffffffffff166080820152608083015173ffffffffffffffffffffffffffffffffffffffff1660a082015260a083015173ffffffffffffffffffffffffffffffffffffffff1660c082015260c083015173ffffffffffffffffffffffffffffffffffffffff1660e082015260e083015161010082015261010083015167ffffffffffffffff166101208201526101208301516101408201526101608120915050919050565b60007f000000000000000000000000000000000000000000000000000000000000000082604051602001611ce19291906147d1565b604051602081830303815290604052805190602001209050919050565b600081604001516fffffffffffffffffffffffffffffffff1660001480611d39575060608201516fffffffffffffffffffffffffffffffff16155b15611d46575060006105e4565b60018260800151602001516004811115611d5c57fe5b14611d69575060006105e4565b6000611dc28360800151604001518460600151036fffffffffffffffffffffffffffffffff1684606001516fffffffffffffffffffffffffffffffff1685604001516fffffffffffffffffffffffffffffffff16612e7b565b9050611ddf81611dda85602001518660000151612e99565b612fcb565b9050611e20611e1b8285604001516fffffffffffffffffffffffffffffffff1686606001516fffffffffffffffffffffffffffffffff16612fe1565b613005565b9392505050565b6000611e338383613031565b600282516003811115611e4257fe5b1415611eaa5760018383602001518460400151856060015160405160008152602001604052604051611e779493929190614ba6565b6020604051602081039080840390855afa158015611e99573d6000803e3d6000fd5b505050602060405103519050611f4f565b600382516003811115611eb957fe5b1415611f4f5760007f19457468657265756d205369676e6564204d6573736167653a0a33320000000060005283601c52603c600020905060018184602001518560400151866060015160405160008152602001604052604051611f1f9493929190614ba6565b6020604051602081039080840390855afa158015611f41573d6000803e3d6000fd5b505050602060405103519150505b73ffffffffffffffffffffffffffffffffffffffff8116611f7857611f78610a836005856130dd565b92915050565b600080611f786007613113565b6000611f95611f7e565b865160009081526020829052604090819020546fffffffffffffffffffffffffffffffff808216928a0183905292935091871611611fec576020870160025b90816004811115611fe157fe5b815250505050612075565b7f800000000000000000000000000000000000000000000000000000000000000081161561201f57602087016003611fd4565b504267ffffffffffffffff168467ffffffffffffffff1611612059576020860160045b9081600481111561204f57fe5b8152505050612075565b8282111561206c57602086016003612042565b50600160208601525b5050505050565b6040517f319bed9a00000000000000000000000000000000000000000000000000000000815260009073ffffffffffffffffffffffffffffffffffffffff7f0000000000000000000000000000000000000000000000000000000000000000169063319bed9a906120f1908590600401614a42565b602060405180830381600087803b15801561210b57600080fd5b505af115801561211f573d6000803e3d6000fd5b505050506040513d601f19601f8201168201806040525081019061214391906142cb565b905060007f000000000000000000000000000000000000000000000000000000000000000073ffffffffffffffffffffffffffffffffffffffff166370a08231836040518263ffffffff1660e01b81526004016121a0919061480a565b60206040518083038186803b1580156121b857600080fd5b505afa1580156121cc573d6000803e3d6000fd5b505050506040513d601f19601f820116820180604052508101906121f091906145e5565b9050600181111561098f576040517fa3b4a32700000000000000000000000000000000000000000000000000000000815273ffffffffffffffffffffffffffffffffffffffff7f0000000000000000000000000000000000000000000000000000000000000000169063a3b4a3279061229390859081907fffffffffffffffffffffffffffffffffffffffffffffffffffffffffffffffff87019060040161482b565b600060405180830381600087803b1580156122ad57600080fd5b505af11580156122c1573d6000803e3d6000fd5b50505050505050565b6122d2613b6b565b6122da613b49565b6122e3866107b9565b90506001816020015160048111156122f757fe5b1461231c5761231c610a8382600001518360200151600481111561231757fe5b61312e565b6000612326611f7e565b60c088015190915073ffffffffffffffffffffffffffffffffffffffff16321480159061238a575060c087015173ffffffffffffffffffffffffffffffffffffffff166000908152600382016020908152604080832032845290915290205460ff16155b156123a5576123a5610a838360000151328a60c00151613164565b5060a086015173ffffffffffffffffffffffffffffffffffffffff16158015906123ff57508273ffffffffffffffffffffffffffffffffffffffff168660a0015173ffffffffffffffffffffffffffffffffffffffff1614155b1561241a5761241a610a838260000151858960a0015161319c565b600061242a826000015187611e27565b9050866080015173ffffffffffffffffffffffffffffffffffffffff168173ffffffffffffffffffffffffffffffffffffffff161461247957612479610a838360000151838a608001516131d4565b5061257e60405180610120016040528083600001518152602001886080015173ffffffffffffffffffffffffffffffffffffffff1681526020018573ffffffffffffffffffffffffffffffffffffffff168152602001886000015173ffffffffffffffffffffffffffffffffffffffff168152602001886020015173ffffffffffffffffffffffffffffffffffffffff16815260200188604001516fffffffffffffffffffffffffffffffff16815260200188606001516fffffffffffffffffffffffffffffffff168152602001866fffffffffffffffffffffffffffffffff16815260200183604001516fffffffffffffffffffffffffffffffff1681525061320c565b6fffffffffffffffffffffffffffffffff9081166040808601829052929091166020808601829052845160808b01518b51928c015160e08d015196517f829fa99d94dc4636925b38632e625736a614c154d55006b7ab6bea979c210c32976125f197949693958c95909492909190614b1b565b60405180910390a150949350505050565b60607f21948612b5ef214ec0508df4901600e07a810a371be76b25d59ade73826e3d9784848460405160240161263a93929190614b7f565b604080517fffffffffffffffffffffffffffffffffffffffffffffffffffffffffffffffe08184030181529190526020810180517bffffffffffffffffffffffffffffffffffffffffffffffffffffffff167fffffffff000000000000000000000000000000000000000000000000000000009093169290921790915290509392505050565b805160208201fd5b60607f88b2c08e4a5f57d416ad23dad18c20497ccfe684b1379b28fd564adaf582b80f84848460405160240161263a93929190614a6f565b600061270a611f7e565b6000848152602082905260409081902080547f8000000000000000000000000000000000000000000000000000000000000000179055519091507fa6eb7cdc219e1518ced964e9a34e61d68a94e4f1569db3e84256ba981ba52753906116af9085908590614a4b565b6040517f6eb224cb0000000000000000000000000000000000000000000000000000000081523090636eb224cb906127d19084907f000000000000000000000000000000000000000000000000000000000000000090600401614bf1565b600060405180830381600087803b1580156127eb57600080fd5b505af1158015612075573d6000803e3d6000fd5b612807613b6b565b61280f613b49565b825161281a906110e4565b905060018160200151600481111561282e57fe5b1461284e5761284e610a8382600001518360200151600481111561231757fe5b825160c0015173ffffffffffffffffffffffffffffffffffffffff16158015906128b05750826060015173ffffffffffffffffffffffffffffffffffffffff16836000015160c0015173ffffffffffffffffffffffffffffffffffffffff1614155b156128d3576128d3610a8382600001518560600151866000015160c0015161319c565b825160e0015173ffffffffffffffffffffffffffffffffffffffff16158015906129355750826080015173ffffffffffffffffffffffffffffffffffffffff16836000015160e0015173ffffffffffffffffffffffffffffffffffffffff1614155b1561295857612958610a8382600001518560800151866000015160e00151613387565b600061296c82600001518560200151611e27565b9050836000015160a0015173ffffffffffffffffffffffffffffffffffffffff168173ffffffffffffffffffffffffffffffffffffffff16146129c0578151845160a001516129c091610a839184906131d4565b50825161012001516129d1906133bf565b8252604080516101208101825282518152845160a09081015173ffffffffffffffffffffffffffffffffffffffff908116602080850191909152606080890151831685870152885151831681860152885190910151909116608084015286518401516fffffffffffffffffffffffffffffffff9081169284019290925286510151811660c083015285830151811660e083015291830151909116610100820152612a7a9061320c565b6fffffffffffffffffffffffffffffffff908116604085015290811660208401528351608001511615612b3157612afc82602001516fffffffffffffffffffffffffffffffff168460000151606001516fffffffffffffffffffffffffffffffff168560000151608001516fffffffffffffffffffffffffffffffff16612e7b565b6fffffffffffffffffffffffffffffffff166060808401829052845160208101519186015161010090910151612b3193613494565b8051835160a08101516060808701516101008401518451602080870151908a01516040808c0151968c01518c51610120909a015191517fab614d2b738543c0ea21f56347cf696a3a0c42a7cbec3212a5ca22a4dcff21249b612b989b909a99939091614a9b565b60405180910390a150919050565b8034118015612bb55750333014155b15612c46576000612bc6348361369b565b905060003373ffffffffffffffffffffffffffffffffffffffff1682604051612bee90614807565b60006040518083038185875af1925050503d8060008114612c2b576040519150601f19603f3d011682016040523d82523d6000602084013e612c30565b606091505b505090508061098f5761098f610a8333846136ba565b50565b60607fb12bc7e7d341f4431d6faf05f991ee3b779183e341b24243064e10c886cd18738383604051602401612c7f929190615351565b604080517fffffffffffffffffffffffffffffffffffffffffffffffffffffffffffffffe08184030181529190526020810180517bffffffffffffffffffffffffffffffffffffffffffffffffffffffff167fffffffff0000000000000000000000000000000000000000000000000000000090931692909217909152905092915050565b60006040517fce918627cb55462ddbb85e73de69a8b322f2bc88f4507c52fcad6d4c33c29d498152825173ffffffffffffffffffffffffffffffffffffffff166020820152602083015173ffffffffffffffffffffffffffffffffffffffff16604082015260408301516fffffffffffffffffffffffffffffffff16606082015260608301516fffffffffffffffffffffffffffffffff16608082015260808301516fffffffffffffffffffffffffffffffff1660a082015260a083015173ffffffffffffffffffffffffffffffffffffffff1660c082015260c083015173ffffffffffffffffffffffffffffffffffffffff1660e082015260e083015173ffffffffffffffffffffffffffffffffffffffff1661010082015261010083015173ffffffffffffffffffffffffffffffffffffffff1661012082015261012083015161014082015261014083015167ffffffffffffffff166101608201526101608301516101808201526101a08120915050919050565b6000612e9183612e8b86856136f0565b90613721565b949350505050565b6000611e208373ffffffffffffffffffffffffffffffffffffffff1663dd62ed3e84306040518363ffffffff1660e01b8152600401612ed9929190614905565b60206040518083038186803b158015612ef157600080fd5b505afa158015612f05573d6000803e3d6000fd5b505050506040513d601f19601f82011682018060405250810190612f2991906145e5565b6040517f70a0823100000000000000000000000000000000000000000000000000000000815273ffffffffffffffffffffffffffffffffffffffff8616906370a0823190612f7b90879060040161480a565b60206040518083038186803b158015612f9357600080fd5b505afa158015612fa7573d6000803e3d6000fd5b505050506040513d601f19601f82011682018060405250810190611dda91906145e5565b6000818310612fda5781611e20565b5090919050565b6000612e9183612e8b612ff582600161369b565b612fff88876136f0565b9061374b565b60006fffffffffffffffffffffffffffffffff82111561302d5761302d610a83600384613767565b5090565b60408101517ffffffffffffffffffffffffffffffffebaaedce6af48a03bbfd25e8cd0364141111580613088575060608101517f7fffffffffffffffffffffffffffffff5d576e7357a4501ddfe92f46681b20a111155b1561309b5761309b610a836005846130dd565b6000815160038111156130aa57fe5b14156130be576130be610a836003846130dd565b6001815160038111156130cd57fe5b1415610b5557610b55610a836000845b60607ff18f11f3027e735c758137924b262d4d3aff0037dcd785aca3c699fa05d960bd8383604051602401612c7f929190614c71565b6000608082600781111561312357fe5b600101901b92915050565b60607f47ab394e41470191eaf9fa542e84ac483a12665fbd616eb8d1c022ced6c940008383604051602401612c7f929190614b95565b60607fc0972f3cc4234ca2091de7e7bc7081494bd29ac280167d66f0d44168973b163484848460405160240161263a93929190614a6f565b60607f5d3300180a4547b3e27137be832d3ebf56f1ba5ebb30dd580999c61f77fa639684848460405160240161263a93929190614a6f565b60607ff13e65d925201525f3d71a731833b19bb26e44cfbd97caf72a366b73866f712484848460405160240161263a93929190614a6f565b60008061324a8360e001516132458561010001518660c001516fffffffffffffffffffffffffffffffff1661378490919063ffffffff16565b6137e5565b9150613295826fffffffffffffffffffffffffffffffff168460c001516fffffffffffffffffffffffffffffffff168560a001516fffffffffffffffffffffffffffffffff16612e7b565b90506fffffffffffffffffffffffffffffffff821615806132c657506fffffffffffffffffffffffffffffffff8116155b156132d657506000905080613382565b6101008301516132f8906fffffffffffffffffffffffffffffffff1683613818565b6fffffffffffffffffffffffffffffffff16613312611f7e565b60000160008560000151815260200190815260200160002081905550613358836080015184604001518560200151856fffffffffffffffffffffffffffffffff16613494565b613382836060015184602001518560400151846fffffffffffffffffffffffffffffffff16613494565b915091565b60607f15e6a383bb02d79ee933b927fbecba78cdde16cba84b94a99661f44bcce3b73684848460405160240161263a93929190614a6f565b6000806133ca61386d565b9050806133db5760009150506105e4565b60006133e684613899565b905060008173ffffffffffffffffffffffffffffffffffffffff168360405161340e90614807565b60006040518083038185875af1925050503d806000811461344b576040519150601f19603f3d011682016040523d82523d6000602084013e613450565b606091505b505090508061348b576040517f08c379a000000000000000000000000000000000000000000000000000000000815260040161065590614e06565b50909392505050565b6000606073ffffffffffffffffffffffffffffffffffffffff86163014156134e8576040517f08c379a000000000000000000000000000000000000000000000000000000000815260040161065590614da9565b6134f1866138e6565b156135c5576040517fdd62ed3e000000000000000000000000000000000000000000000000000000008152839073ffffffffffffffffffffffffffffffffffffffff88169063dd62ed3e9061354c9089903090600401614905565b60206040518083038186803b15801561356457600080fd5b505afa158015613578573d6000803e3d6000fd5b505050506040513d601f19601f8201168201806040525081019061359c91906145e5565b10156135c5576135be8686868660405180602001604052806000815250613926565b50506106b6565b6040517f23b872dd00000000000000000000000000000000000000000000000000000000815273ffffffffffffffffffffffffffffffffffffffff8616600482015273ffffffffffffffffffffffffffffffffffffffff85166024820152836044820152600080606483600073ffffffffffffffffffffffffffffffffffffffff8c165af192503d806000602084013e6001602083015114602082101516811517841693508361367f578082528192508060208301016040525b505081613693576136938686868685613926565b505050505050565b6000828211156136b4576136b4610a83600285856139ee565b50900390565b60607fbde95cc2119e0200d80642397198abfcf98e6e4dddd0de9c6320d86252ad40ab8383604051602401612c7f92919061497e565b6000826136ff57506000611f78565b8282028284828161370c57fe5b0414611e2057611e20610a83600186866139ee565b60008161373757613737610a83600385856139ee565b600082848161374257fe5b04949350505050565b600082820183811015611e2057611e20610a83600086866139ee565b606063c996af7b60e01b8383604051602401612c7f929190614c5a565b6000826fffffffffffffffffffffffffffffffff16826fffffffffffffffffffffffffffffffff1611156136b4576136b4610a836002856fffffffffffffffffffffffffffffffff16856fffffffffffffffffffffffffffffffff166139ee565b6000816fffffffffffffffffffffffffffffffff16836fffffffffffffffffffffffffffffffff1610612fda5781611e20565b60008282016fffffffffffffffffffffffffffffffff8085169082161015611e2057611e20610a836000866fffffffffffffffffffffffffffffffff16866fffffffffffffffffffffffffffffffff166139ee565b63ffffffff7f0000000000000000000000000000000000000000000000000000000000000000163a0290565b60006105e17f00000000000000000000000000000000000000000000000000000000000000007f000000000000000000000000000000000000000000000000000000000000000084613a0d565b600081815260209020600160ff92831681901b929091161b177f000000000000000000000000000000000000000000000000000000000000000081161490565b6040517f89dd02e700000000000000000000000000000000000000000000000000000000815230906389dd02e79061396890889088908890889060040161485c565b600060405180830381600087803b15801561398257600080fd5b505af1925050508015613993575060015b612075573d8080156139c1576040519150601f19603f3d011682016040523d82523d6000602084013e6139c6565b606091505b506139e8610a83878787878751600014156139e157866139e3565b875b613a85565b50612075565b606063e946c1bb60e01b84848460405160240161263a93929190614c39565b604051600090613a47907fff000000000000000000000000000000000000000000000000000000000000009086908590879060200161476d565b604080517fffffffffffffffffffffffffffffffffffffffffffffffffffffffffffffffe08184030181529190528051602090910120949350505050565b60607fdfdc6f57cf82bede92bcfdd44fedb82b2d5cecabf56ec21964db6ee2c3e82cf48686868686604051602401613ac195949392919061492c565b604080517fffffffffffffffffffffffffffffffffffffffffffffffffffffffffffffffe08184030181529190526020810180517bffffffffffffffffffffffffffffffffffffffffffffffffffffffff167fffffffff0000000000000000000000000000000000000000000000000000000090931692909217909152905095945050505050565b6040805160608101909152600080825260208201908152600060209091015290565b60408051608081018252600080825260208201819052918101829052606081019190915290565b8035611f78816153f4565b600082601f830112613bad578081fd5b8135613bc0613bbb82615397565b615370565b818152915060208083019084810181840286018201871015613be157600080fd5b60005b84811015613c09578135613bf7816153f4565b84529282019290820190600101613be4565b505050505092915050565b60008083601f840112613c25578182fd5b50813567ffffffffffffffff811115613c3c578182fd5b602083019150836020608083028501011115613c5757600080fd5b9250929050565b8035611f7881615416565b6000610180808385031215613c7c578182fd5b613c8581615370565b915050613c928383613b92565b8152613ca18360208401613b92565b6020820152613cb38360408401613e77565b6040820152613cc58360608401613e77565b6060820152613cd78360808401613e77565b6080820152613ce98360a08401613b92565b60a0820152613cfb8360c08401613b92565b60c0820152613d0d8360e08401613b92565b60e0820152610100613d2184828501613b92565b908201526101208281013590820152610140613d3f84828501613e82565b818301525061016080830135818301525092915050565b6000610140808385031215613d69578182fd5b613d7281615370565b915050613d7f8383613b92565b8152613d8e8360208401613b92565b6020820152613da08360408401613e77565b6040820152613db28360608401613e77565b6060820152613dc48360808401613b92565b6080820152613dd68360a08401613b92565b60a0820152613de88360c08401613b92565b60c082015260e082013560e0820152610100613e0684828501613e82565b818301525061012080830135818301525092915050565b600060808284031215613e2e578081fd5b613e386080615370565b9050813560048110613e4957600080fd5b8152613e588360208401613e9a565b6020820152604082013560408201526060820135606082015292915050565b8035611f7881615424565b803567ffffffffffffffff81168114611f7857600080fd5b803560ff81168114611f7857600080fd5b60008060408385031215613ebd578182fd5b823567ffffffffffffffff811115613ed3578283fd5b8301601f81018513613ee3578283fd5b8035613ef1613bbb82615397565b808282526020808301925080850189828387028801011115613f11578788fd5b8795505b84861015613f3c578035613f28816153f4565b845260019590950194928101928101613f15565b50819650613f4c89828a01613c5e565b955050505050509250929050565b60008060208385031215613f6c578182fd5b823567ffffffffffffffff80821115613f83578384fd5b818501915085601f830112613f96578384fd5b813581811115613fa4578485fd5b8660208083028501011115613fb7578485fd5b60209290920196919550909350505050565b600080600060608486031215613fdd578081fd5b833567ffffffffffffffff80821115613ff4578283fd5b61400087838801613b9d565b9450602091508186013581811115614016578384fd5b61402288828901613b9d565b945050604086013581811115614036578384fd5b86019050601f81018713614048578283fd5b8035614056613bbb82615397565b81815283810190838501858402850186018b1015614072578687fd5b8694505b83851015614094578035835260019490940193918501918501614076565b5080955050505050509250925092565b600080600080604085870312156140b9578182fd5b843567ffffffffffffffff808211156140d0578384fd5b818701915087601f8301126140e3578384fd5b8135818111156140f1578485fd5b88602061018083028501011115614106578485fd5b602092830196509450908601359080821115614120578384fd5b5061412d87828801613c14565b95989497509550505050565b6000602080838503121561414b578182fd5b823567ffffffffffffffff811115614161578283fd5b8301601f81018513614171578283fd5b803561417f613bbb82615397565b81815283810190838501610180808502860187018a101561419e578788fd5b8795505b848610156141ca576141b48a83613c69565b84526001959095019492860192908101906141a2565b509098975050505050505050565b600080600080604085870312156141ed578182fd5b843567ffffffffffffffff80821115614204578384fd5b818701915087601f830112614217578384fd5b813581811115614225578485fd5b88602061014083028501011115614106578485fd5b6000602080838503121561424c578182fd5b823567ffffffffffffffff811115614262578283fd5b8301601f81018513614272578283fd5b8035614280613bbb82615397565b81815283810190838501610140808502860187018a101561429f578788fd5b8795505b848610156141ca576142b58a83613d56565b84526001959095019492860192908101906142a3565b6000602082840312156142dc578081fd5b8151611e20816153f4565b6000806000606084860312156142fb578081fd5b8335614306816153f4565b92506020840135614316816153f4565b929592945050506040919091013590565b60006101808284031215614339578081fd5b611e208383613c69565b600080828403610200811215614357578283fd5b6143618585613c69565b925060807ffffffffffffffffffffffffffffffffffffffffffffffffffffffffffffffe8082011215614392578182fd5b50610180830190509250929050565b600080600061022084860312156143b6578081fd5b6143c08585613c69565b92506143d0856101808601613e1d565b91506102008401356143e181615424565b809150509250925092565b60008060008060006102608688031215614404578283fd5b61440e8787613c69565b945061441e876101808801613e1d565b935061020086013561442f81615424565b9250610220860135614440816153f4565b9150610240860135614451816153f4565b809150509295509295909350565b600080600083850360a0811215614474578182fd5b6060811215614481578182fd5b5061448c6060615370565b845181526020850151600581106144a1578283fd5b602082015260408501516144b481615424565b604082015260608501519093506144ca81615424565b60808501519092506143e181615416565b600061014082840312156144ed578081fd5b611e208383613d56565b6000806101c0838503121561450a578182fd5b6145148484613d56565b9150614524846101408501613e1d565b90509250929050565b60008060006101e08486031215614542578081fd5b61454c8585613d56565b925061455c856101408601613e1d565b91506101c08401356143e181615424565b6000806000806102008587031215614583578182fd5b61458d8686613d56565b935061459d866101408701613e1d565b92506101c08501356145ae81615424565b91506101e08501356145bf816153f4565b939692955090935050565b6000608082840312156145db578081fd5b611e208383613e1d565b6000602082840312156145f6578081fd5b5051919050565b73ffffffffffffffffffffffffffffffffffffffff169052565b6000815180845260208085019450808401835b8381101561464857815115158752958201959082019060010161462a565b509495945050505050565b60008151808452815b818110156146785760208185018101518683018201520161465c565b818111156146895782602083870101525b50601f017fffffffffffffffffffffffffffffffffffffffffffffffffffffffffffffffe0169290920160200192915050565b6146c5816153ea565b9052565b805182526020810151600581106146dc57fe5b60208301526040908101516fffffffffffffffffffffffffffffffff16910152565b80356004811061470d57600080fd5b614716816153ea565b82526040810160ff61472b8260208501613e9a565b166020840152356040830152606090810135910152565b6fffffffffffffffffffffffffffffffff169052565b67ffffffffffffffff169052565b60ff169052565b7fff0000000000000000000000000000000000000000000000000000000000000094909416845260609290921b7fffffffffffffffffffffffffffffffffffffffff0000000000000000000000001660018401526015830152603582015260550190565b7f190100000000000000000000000000000000000000000000000000000000000081526002810192909252602282015260420190565b90565b73ffffffffffffffffffffffffffffffffffffffff91909116815260200190565b73ffffffffffffffffffffffffffffffffffffffff9384168152919092166020820152604081019190915260600190565b73ffffffffffffffffffffffffffffffffffffffff9485168152928416602084015292166040820152606081019190915260800190565b60006060820173ffffffffffffffffffffffffffffffffffffffff808716845260206060818601528287518085526080870191508289019450855b818110156148ec5785518516835294830194918301916001016148ce565b5050809450505050508215156040830152949350505050565b73ffffffffffffffffffffffffffffffffffffffff92831681529116602082015260400190565b600073ffffffffffffffffffffffffffffffffffffffff8088168352808716602084015280861660408401525083606083015260a0608083015261497360a0830184614653565b979650505050505050565b73ffffffffffffffffffffffffffffffffffffffff929092168252602082015260400190565b60608082528451828201819052600091906020906080850190828901855b828110156149e5576149d58483516146c9565b92850192908401906001016149c2565b505050848103828601528651808252908201925086820190845b81811015614a2257614a12858451614742565b93830193918301916001016149ff565b505050508281036040840152614a388185614617565b9695505050505050565b90815260200190565b91825273ffffffffffffffffffffffffffffffffffffffff16602082015260400190565b92835273ffffffffffffffffffffffffffffffffffffffff918216602084015216604082015260600190565b9a8b5273ffffffffffffffffffffffffffffffffffffffff998a1660208c015297891660408b015295881660608a015293871660808901529190951660a08701526fffffffffffffffffffffffffffffffff94851660c0870152841660e08601529092166101008401526101208301919091526101408201526101600190565b97885273ffffffffffffffffffffffffffffffffffffffff968716602089015294861660408801529285166060870152931660808501526fffffffffffffffffffffffffffffffff92831660a085015290911660c083015260e08201526101000190565b9283526020830191909152604082015260600190565b91825260ff16602082015260400190565b93845260ff9290921660208401526040830152606082015260800190565b7fffffffff0000000000000000000000000000000000000000000000000000000091909116815260200190565b7fffffffff0000000000000000000000000000000000000000000000000000000092909216825273ffffffffffffffffffffffffffffffffffffffff16602082015260400190565b60608101614c46856153ea565b938152602081019290925260409091015290565b60408101614c67846153ea565b9281526020015290565b6040810160068410614c6757fe5b600060208252611e206020830184614653565b6020808252602c908201527f4e61746976654f7264657273466561747572652f4d49534d4154434845445f4160408201527f525241595f4c454e475448530000000000000000000000000000000000000000606082015260800190565b60208082526027908201527f4e61746976654f7264657273466561747572652f4e4f5f434f4e54524143545f60408201527f4f524947494e5300000000000000000000000000000000000000000000000000606082015260800190565b60208082526038908201527f4e61746976654f7264657273466561747572652f4d49534d4154434845445f5060408201527f4149525f4f52444552535f41525241595f4c454e475448530000000000000000606082015260800190565b60208082526024908201527f466978696e546f6b656e5370656e6465722f43414e4e4f545f494e564f4b455f60408201527f53454c4600000000000000000000000000000000000000000000000000000000606082015260800190565b60208082526027908201527f466978696e50726f746f636f6c466565732f45544845525f5452414e5346455260408201527f5f46414c49454400000000000000000000000000000000000000000000000000606082015260800190565b610200810160208401614e7f83614e7a8388613b92565b6145fd565b614e8981866153b7565b9050614e9860208401826145fd565b50614ea660408501856153c4565b614eb36040840182614742565b50614ec160608501856153c4565b614ece6060840182614742565b50614edc60808501856153c4565b614ee96080840182614742565b50614ef760a08501856153b7565b614f0460a08401826145fd565b50614f1260c08501856153b7565b614f1f60c08401826145fd565b50614f2d60e08501856153b7565b614f3a60e08401826145fd565b50610100614f4a818601866153b7565b614f56828501826145fd565b50506101208481013590830152610140614f72818601866153d1565b614f7e82850182614758565b50506101608481013590830152611e206101808301846146fe565b600061026082019050614fad828b516145fd565b60208a0151614fbf60208401826145fd565b5060408a0151614fd26040840182614742565b5060608a0151614fe56060840182614742565b5060808a0151614ff86080840182614742565b5060a08a015161500b60a08401826145fd565b5060c08a015161501e60c08401826145fd565b5060e08a015161503160e08401826145fd565b50610100808b0151615045828501826145fd565b50506101208a81015190830152610140808b015161506582850182614758565b50506101608a8101519083015261508061018083018a6146bc565b61508e6101a0830189614766565b866101c0830152856101e08301526150aa610200830186614742565b6150b86102208301856145fd565b6150c66102408301846145fd565b9998505050505050505050565b60608101611f7882846146c9565b60a081016150ef82866146c9565b6fffffffffffffffffffffffffffffffff841660608301528215156080830152949350505050565b6101c081016020840161512e83614e7a8388613b92565b61513881866153b7565b905061514760208401826145fd565b5061515560408501856153c4565b6151626040840182614742565b5061517060608501856153c4565b61517d6060840182614742565b5061518b60808501856153b7565b61519860808401826145fd565b506151a660a08501856153b7565b6151b360a08401826145fd565b506151c160c08501856153b7565b6151ce60c08401826145fd565b5060e084013560e08301526101006151e8818601866153d1565b6151f482850182614758565b50506101208481013590830152611e206101408301846146fe565b600061020082019050615223828a516145fd565b602089015161523560208401826145fd565b5060408901516152486040840182614742565b50606089015161525b6060840182614742565b50608089015161526e60808401826145fd565b5060a089015161528160a08401826145fd565b5060c089015161529460c08401826145fd565b5060e089015160e0830152610100808a01516152b282850182614758565b505061012089810151908301526152cd6101408301896146bc565b6152db610160830188614766565b85610180830152846101a08301526152f76101c0830185614742565b6153056101e08301846145fd565b98975050505050505050565b6fffffffffffffffffffffffffffffffff91909116815260200190565b6fffffffffffffffffffffffffffffffff92831681529116602082015260400190565b918252602082015260400190565b63ffffffff91909116815260200190565b60405181810167ffffffffffffffff8111828210171561538f57600080fd5b604052919050565b600067ffffffffffffffff8211156153ad578081fd5b5060209081020190565b60008235611e20816153f4565b60008235611e2081615424565b6000823567ffffffffffffffff81168114611e20578182fd5b60048110612c4657fe5b73ffffffffffffffffffffffffffffffffffffffff81168114612c4657600080fd5b8015158114612c4657600080fd5b6fffffffffffffffffffffffffffffffff81168114612c4657600080fdfea2646970667358221220b54fd32859ed221c7f181a158cde8ed76b8d2b4d12d60873513c033cc8a166b064736f6c634300060c0033608060405260008055348015601357600080fd5b50608c806100226000396000f3fe6080604052348015600f57600080fd5b506004361060285760003560e01c8063f2541a8c14602d575b600080fd5b60336047565b604051603e9190604d565b60405180910390f35b60005481565b9081526020019056fea2646970667358221220f19f3ce46f71535f1f66f7173ab789a3d95978f00c48cebc2d457a2d0752831264736f6c634300060c0033",
                "opcodes": "PUSH2 0x1A0 PUSH1 0x40 MSTORE PUSH3 0x14 PUSH1 0x1 PUSH1 0x0 DUP2 PUSH3 0x1F4 JUMP JUMPDEST PUSH2 0x180 MSTORE CALLVALUE DUP1 ISZERO PUSH3 0x25 JUMPI PUSH1 0x0 DUP1 REVERT JUMPDEST POP PUSH1 0x0 DUP1 PUSH1 0x0 PUSH1 0x40 MLOAD PUSH3 0x39 SWAP1 PUSH3 0x226 JUMP JUMPDEST PUSH1 0x40 MLOAD DUP1 SWAP2 SUB SWAP1 PUSH1 0x0 CREATE DUP1 ISZERO DUP1 ISZERO PUSH3 0x56 JUMPI RETURNDATASIZE PUSH1 0x0 DUP1 RETURNDATACOPY RETURNDATASIZE PUSH1 0x0 REVERT JUMPDEST POP PUSH1 0x0 DUP1 PUSH1 0x0 SHL DUP6 DUP6 DUP6 DUP6 DUP6 DUP6 DUP5 DUP5 DUP5 DUP5 DUP4 DUP4 DUP4 DUP4 DUP14 DUP10 DUP2 DUP2 DUP1 DUP3 PUSH1 0x0 CHAINID SWAP1 POP PUSH32 0x8B73C3C69BB8FE3D512ECC4CF759CC79239F7B179B0FFACAA9A75D522B39400F PUSH32 0x9E5DAE0ADDAF20578AEB5D70341D092B53B4E14480AC5726438FD436DF7BA427 PUSH32 0x6C015BD22B4C69690933C1058878EBDFEF31F9AAAE40BBE86D8A09FE1B2972C DUP4 DUP6 PUSH1 0x40 MLOAD PUSH1 0x20 ADD PUSH3 0xF1 SWAP6 SWAP5 SWAP4 SWAP3 SWAP2 SWAP1 PUSH3 0x24C JUMP JUMPDEST PUSH1 0x40 DUP1 MLOAD PUSH1 0x1F NOT DUP2 DUP5 SUB ADD DUP2 MSTORE DUP3 DUP3 MSTORE DUP1 MLOAD PUSH1 0x20 SWAP2 DUP3 ADD KECCAK256 PUSH1 0x80 MSTORE PUSH1 0xA0 SWAP6 SWAP1 SWAP6 MSTORE PUSH1 0x1 PUSH1 0x1 PUSH1 0x60 SHL SUB NOT PUSH1 0x60 DUP13 SWAP1 SHL AND PUSH1 0xE0 MSTORE PUSH4 0x3C9506A3 PUSH1 0xE2 SHL DUP3 MSTORE MLOAD PUSH1 0x1 PUSH1 0x1 PUSH1 0xA0 SHL SUB DUP12 AND SWAP9 POP PUSH4 0xF2541A8C SWAP8 POP PUSH1 0x4 DUP1 DUP4 ADD SWAP8 POP SWAP5 SWAP6 POP SWAP4 SWAP1 DUP5 SWAP1 SUB ADD SWAP2 POP DUP3 SWAP1 POP DUP7 DUP1 EXTCODESIZE ISZERO DUP1 ISZERO PUSH3 0x167 JUMPI PUSH1 0x0 DUP1 REVERT JUMPDEST POP GAS STATICCALL ISZERO DUP1 ISZERO PUSH3 0x17C JUMPI RETURNDATASIZE PUSH1 0x0 DUP1 RETURNDATACOPY RETURNDATASIZE PUSH1 0x0 REVERT JUMPDEST POP POP POP POP PUSH1 0x40 MLOAD RETURNDATASIZE PUSH1 0x1F NOT PUSH1 0x1F DUP3 ADD AND DUP3 ADD DUP1 PUSH1 0x40 MSTORE POP DUP2 ADD SWAP1 PUSH3 0x1A2 SWAP2 SWAP1 PUSH3 0x233 JUMP JUMPDEST PUSH2 0x100 MSTORE PUSH1 0x60 SWAP4 DUP5 SHL PUSH1 0x1 PUSH1 0x1 PUSH1 0x60 SHL SUB NOT SWAP1 DUP2 AND PUSH2 0x120 MSTORE SWAP3 DUP5 SHL SWAP1 SWAP3 AND PUSH2 0x140 MSTORE POP PUSH1 0xE0 SHL PUSH1 0x1 PUSH1 0x1 PUSH1 0xE0 SHL SUB NOT AND PUSH1 0xC0 MSTORE ADDRESS SWAP1 SHL PUSH2 0x160 MSTORE POP PUSH3 0x278 SWAP15 POP POP POP POP POP POP POP POP POP POP POP POP POP POP POP JUMP JUMPDEST PUSH12 0xFFFFFFFF0000000000000000 PUSH1 0x40 DUP5 SWAP1 SHL AND PUSH8 0xFFFFFFFF00000000 PUSH1 0x20 DUP5 SWAP1 SHL AND OR PUSH4 0xFFFFFFFF DUP3 AND OR SWAP4 SWAP3 POP POP POP JUMP JUMPDEST PUSH1 0xAE DUP1 PUSH3 0x5780 DUP4 CODECOPY ADD SWAP1 JUMP JUMPDEST PUSH1 0x0 PUSH1 0x20 DUP3 DUP5 SUB SLT ISZERO PUSH3 0x245 JUMPI DUP1 DUP2 REVERT JUMPDEST POP MLOAD SWAP2 SWAP1 POP JUMP JUMPDEST SWAP5 DUP6 MSTORE PUSH1 0x20 DUP6 ADD SWAP4 SWAP1 SWAP4 MSTORE PUSH1 0x40 DUP5 ADD SWAP2 SWAP1 SWAP2 MSTORE PUSH1 0x60 DUP4 ADD MSTORE PUSH1 0x1 PUSH1 0x1 PUSH1 0xA0 SHL SUB AND PUSH1 0x80 DUP3 ADD MSTORE PUSH1 0xA0 ADD SWAP1 JUMP JUMPDEST PUSH1 0x80 MLOAD PUSH1 0xA0 MLOAD PUSH1 0xC0 MLOAD PUSH1 0xE0 SHR PUSH1 0xE0 MLOAD PUSH1 0x60 SHR PUSH2 0x100 MLOAD PUSH2 0x120 MLOAD PUSH1 0x60 SHR PUSH2 0x140 MLOAD PUSH1 0x60 SHR PUSH2 0x160 MLOAD PUSH1 0x60 SHR PUSH2 0x180 MLOAD PUSH2 0x5478 PUSH3 0x308 PUSH1 0x0 CODECOPY DUP1 PUSH2 0x5EB MSTORE POP DUP1 PUSH2 0x27A9 MSTORE POP DUP1 PUSH2 0x2238 MSTORE POP DUP1 PUSH2 0x2149 MSTORE POP DUP1 PUSH2 0x38C1 MSTORE POP DUP1 PUSH2 0x20BC MSTORE DUP1 PUSH2 0x38A0 MSTORE POP DUP1 PUSH2 0xA96 MSTORE DUP1 PUSH2 0x1286 MSTORE DUP1 PUSH2 0x3874 MSTORE POP DUP1 PUSH2 0x19EF MSTORE DUP1 PUSH2 0x3901 MSTORE POP DUP1 PUSH2 0x1A13 MSTORE DUP1 PUSH2 0x1CB0 MSTORE POP PUSH2 0x5478 PUSH1 0x0 RETURN INVALID PUSH1 0x80 PUSH1 0x40 MSTORE PUSH1 0x4 CALLDATASIZE LT PUSH2 0x1D8 JUMPI PUSH1 0x0 CALLDATALOAD PUSH1 0xE0 SHR DUP1 PUSH4 0x95480889 GT PUSH2 0x102 JUMPI DUP1 PUSH4 0xB4658BFB GT PUSH2 0x95 JUMPI DUP1 PUSH4 0xDD11D225 GT PUSH2 0x64 JUMPI DUP1 PUSH4 0xDD11D225 EQ PUSH2 0x55B JUMPI DUP1 PUSH4 0xF6274F66 EQ PUSH2 0x57B JUMPI DUP1 PUSH4 0xF6E0F6A5 EQ PUSH2 0x58E JUMPI DUP1 PUSH4 0xFE55A3EF EQ PUSH2 0x5AE JUMPI PUSH2 0x1D8 JUMP JUMPDEST DUP1 PUSH4 0xB4658BFB EQ PUSH2 0x4F1 JUMPI DUP1 PUSH4 0xD0A55FB0 EQ PUSH2 0x511 JUMPI DUP1 PUSH4 0xD925A56D EQ PUSH2 0x531 JUMPI DUP1 PUSH4 0xDAB400F3 EQ PUSH2 0x546 JUMPI PUSH2 0x1D8 JUMP JUMPDEST DUP1 PUSH4 0xA656186B GT PUSH2 0xD1 JUMPI DUP1 PUSH4 0xA656186B EQ PUSH2 0x462 JUMPI DUP1 PUSH4 0xAA77476C EQ PUSH2 0x482 JUMPI DUP1 PUSH4 0xAD354EEB EQ PUSH2 0x4A2 JUMPI DUP1 PUSH4 0xB09F1FB1 EQ PUSH2 0x4D1 JUMPI PUSH2 0x1D8 JUMP JUMPDEST DUP1 PUSH4 0x95480889 EQ PUSH2 0x3ED JUMPI DUP1 PUSH4 0x9A4F809C EQ PUSH2 0x40D JUMPI DUP1 PUSH4 0x9BAA45A8 EQ PUSH2 0x42D JUMPI DUP1 PUSH4 0xA0EDCEF5 EQ PUSH2 0x44D JUMPI PUSH2 0x1D8 JUMP JUMPDEST DUP1 PUSH4 0x414E4CCF GT PUSH2 0x17A JUMPI DUP1 PUSH4 0x7D49EC1A GT PUSH2 0x149 JUMPI DUP1 PUSH4 0x7D49EC1A EQ PUSH2 0x378 JUMPI DUP1 PUSH4 0x86A0C8D7 EQ PUSH2 0x398 JUMPI DUP1 PUSH4 0x8FD3AB80 EQ PUSH2 0x3B8 JUMPI DUP1 PUSH4 0x9240529C EQ PUSH2 0x3DA JUMPI PUSH2 0x1D8 JUMP JUMPDEST DUP1 PUSH4 0x414E4CCF EQ PUSH2 0x2E6 JUMPI DUP1 PUSH4 0x438CDFC5 EQ PUSH2 0x307 JUMPI DUP1 PUSH4 0x487B5C20 EQ PUSH2 0x334 JUMPI DUP1 PUSH4 0x6AE4B4F7 EQ PUSH2 0x356 JUMPI PUSH2 0x1D8 JUMP JUMPDEST DUP1 PUSH4 0x1FB09795 GT PUSH2 0x1B6 JUMPI DUP1 PUSH4 0x1FB09795 EQ PUSH2 0x24A JUMPI DUP1 PUSH4 0x346693C5 EQ PUSH2 0x279 JUMPI DUP1 PUSH4 0x37F381D8 EQ PUSH2 0x2A6 JUMPI DUP1 PUSH4 0x3CD2F026 EQ PUSH2 0x2C6 JUMPI PUSH2 0x1D8 JUMP JUMPDEST DUP1 PUSH4 0x16A6D65 EQ PUSH2 0x1DD JUMPI DUP1 PUSH4 0x31B905C EQ PUSH2 0x213 JUMPI DUP1 PUSH4 0xF0E8CF7 EQ PUSH2 0x228 JUMPI JUMPDEST PUSH1 0x0 DUP1 REVERT JUMPDEST CALLVALUE DUP1 ISZERO PUSH2 0x1E9 JUMPI PUSH1 0x0 DUP1 REVERT JUMPDEST POP PUSH2 0x1FD PUSH2 0x1F8 CALLDATASIZE PUSH1 0x4 PUSH2 0x44DB JUMP JUMPDEST PUSH2 0x5CE JUMP JUMPDEST PUSH1 0x40 MLOAD PUSH2 0x20A SWAP2 SWAP1 PUSH2 0x4A42 JUMP JUMPDEST PUSH1 0x40 MLOAD DUP1 SWAP2 SUB SWAP1 RETURN JUMPDEST CALLVALUE DUP1 ISZERO PUSH2 0x21F JUMPI PUSH1 0x0 DUP1 REVERT JUMPDEST POP PUSH2 0x1FD PUSH2 0x5E9 JUMP JUMPDEST CALLVALUE DUP1 ISZERO PUSH2 0x234 JUMPI PUSH1 0x0 DUP1 REVERT JUMPDEST POP PUSH2 0x248 PUSH2 0x243 CALLDATASIZE PUSH1 0x4 PUSH2 0x3FC9 JUMP JUMPDEST PUSH2 0x60D JUMP JUMPDEST STOP JUMPDEST CALLVALUE DUP1 ISZERO PUSH2 0x256 JUMPI PUSH1 0x0 DUP1 REVERT JUMPDEST POP PUSH2 0x26A PUSH2 0x265 CALLDATASIZE PUSH1 0x4 PUSH2 0x4343 JUMP JUMPDEST PUSH2 0x6BC JUMP JUMPDEST PUSH1 0x40 MLOAD PUSH2 0x20A SWAP4 SWAP3 SWAP2 SWAP1 PUSH2 0x50E1 JUMP JUMPDEST CALLVALUE DUP1 ISZERO PUSH2 0x285 JUMPI PUSH1 0x0 DUP1 REVERT JUMPDEST POP PUSH2 0x299 PUSH2 0x294 CALLDATASIZE PUSH1 0x4 PUSH2 0x44DB JUMP JUMPDEST PUSH2 0x7B9 JUMP JUMPDEST PUSH1 0x40 MLOAD PUSH2 0x20A SWAP2 SWAP1 PUSH2 0x50D3 JUMP JUMPDEST CALLVALUE DUP1 ISZERO PUSH2 0x2B2 JUMPI PUSH1 0x0 DUP1 REVERT JUMPDEST POP PUSH2 0x26A PUSH2 0x2C1 CALLDATASIZE PUSH1 0x4 PUSH2 0x44F7 JUMP JUMPDEST PUSH2 0x871 JUMP JUMPDEST CALLVALUE DUP1 ISZERO PUSH2 0x2D2 JUMPI PUSH1 0x0 DUP1 REVERT JUMPDEST POP PUSH2 0x248 PUSH2 0x2E1 CALLDATASIZE PUSH1 0x4 PUSH2 0x3F5A JUMP JUMPDEST PUSH2 0x961 JUMP JUMPDEST PUSH2 0x2F9 PUSH2 0x2F4 CALLDATASIZE PUSH1 0x4 PUSH2 0x43EC JUMP JUMPDEST PUSH2 0x994 JUMP JUMPDEST PUSH1 0x40 MLOAD PUSH2 0x20A SWAP3 SWAP2 SWAP1 PUSH2 0x532E JUMP JUMPDEST CALLVALUE DUP1 ISZERO PUSH2 0x313 JUMPI PUSH1 0x0 DUP1 REVERT JUMPDEST POP PUSH2 0x327 PUSH2 0x322 CALLDATASIZE PUSH1 0x4 PUSH2 0x452D JUMP JUMPDEST PUSH2 0x9FD JUMP JUMPDEST PUSH1 0x40 MLOAD PUSH2 0x20A SWAP2 SWAP1 PUSH2 0x5311 JUMP JUMPDEST CALLVALUE DUP1 ISZERO PUSH2 0x340 JUMPI PUSH1 0x0 DUP1 REVERT JUMPDEST POP PUSH2 0x349 PUSH2 0xA94 JUMP JUMPDEST PUSH1 0x40 MLOAD PUSH2 0x20A SWAP2 SWAP1 PUSH2 0x535F JUMP JUMPDEST CALLVALUE DUP1 ISZERO PUSH2 0x362 JUMPI PUSH1 0x0 DUP1 REVERT JUMPDEST POP PUSH2 0x36B PUSH2 0xAB8 JUMP JUMPDEST PUSH1 0x40 MLOAD PUSH2 0x20A SWAP2 SWAP1 PUSH2 0x4C7F JUMP JUMPDEST CALLVALUE DUP1 ISZERO PUSH2 0x384 JUMPI PUSH1 0x0 DUP1 REVERT JUMPDEST POP PUSH2 0x248 PUSH2 0x393 CALLDATASIZE PUSH1 0x4 PUSH2 0x4327 JUMP JUMPDEST PUSH2 0xAF1 JUMP JUMPDEST CALLVALUE DUP1 ISZERO PUSH2 0x3A4 JUMPI PUSH1 0x0 DUP1 REVERT JUMPDEST POP PUSH2 0x248 PUSH2 0x3B3 CALLDATASIZE PUSH1 0x4 PUSH2 0x3FC9 JUMP JUMPDEST PUSH2 0xB59 JUMP JUMPDEST CALLVALUE DUP1 ISZERO PUSH2 0x3C4 JUMPI PUSH1 0x0 DUP1 REVERT JUMPDEST POP PUSH2 0x3CD PUSH2 0xBF9 JUMP JUMPDEST PUSH1 0x40 MLOAD PUSH2 0x20A SWAP2 SWAP1 PUSH2 0x4BC4 JUMP JUMPDEST PUSH2 0x327 PUSH2 0x3E8 CALLDATASIZE PUSH1 0x4 PUSH2 0x43A1 JUMP JUMPDEST PUSH2 0x1021 JUMP JUMPDEST CALLVALUE DUP1 ISZERO PUSH2 0x3F9 JUMPI PUSH1 0x0 DUP1 REVERT JUMPDEST POP PUSH2 0x299 PUSH2 0x408 CALLDATASIZE PUSH1 0x4 PUSH2 0x4327 JUMP JUMPDEST PUSH2 0x10E4 JUMP JUMPDEST CALLVALUE DUP1 ISZERO PUSH2 0x419 JUMPI PUSH1 0x0 DUP1 REVERT JUMPDEST POP PUSH2 0x248 PUSH2 0x428 CALLDATASIZE PUSH1 0x4 PUSH2 0x42E7 JUMP JUMPDEST PUSH2 0x116F JUMP JUMPDEST CALLVALUE DUP1 ISZERO PUSH2 0x439 JUMPI PUSH1 0x0 DUP1 REVERT JUMPDEST POP PUSH2 0x248 PUSH2 0x448 CALLDATASIZE PUSH1 0x4 PUSH2 0x4139 JUMP JUMPDEST PUSH2 0x1254 JUMP JUMPDEST CALLVALUE DUP1 ISZERO PUSH2 0x459 JUMPI PUSH1 0x0 DUP1 REVERT JUMPDEST POP PUSH2 0x349 PUSH2 0x1284 JUMP JUMPDEST CALLVALUE DUP1 ISZERO PUSH2 0x46E JUMPI PUSH1 0x0 DUP1 REVERT JUMPDEST POP PUSH2 0x2F9 PUSH2 0x47D CALLDATASIZE PUSH1 0x4 PUSH2 0x456D JUMP JUMPDEST PUSH2 0x12A8 JUMP JUMPDEST CALLVALUE DUP1 ISZERO PUSH2 0x48E JUMPI PUSH1 0x0 DUP1 REVERT JUMPDEST POP PUSH2 0x2F9 PUSH2 0x49D CALLDATASIZE PUSH1 0x4 PUSH2 0x452D JUMP JUMPDEST PUSH2 0x130E JUMP JUMPDEST CALLVALUE DUP1 ISZERO PUSH2 0x4AE JUMPI PUSH1 0x0 DUP1 REVERT JUMPDEST POP PUSH2 0x4C2 PUSH2 0x4BD CALLDATASIZE PUSH1 0x4 PUSH2 0x41D8 JUMP JUMPDEST PUSH2 0x133D JUMP JUMPDEST PUSH1 0x40 MLOAD PUSH2 0x20A SWAP4 SWAP3 SWAP2 SWAP1 PUSH2 0x49A4 JUMP JUMPDEST CALLVALUE DUP1 ISZERO PUSH2 0x4DD JUMPI PUSH1 0x0 DUP1 REVERT JUMPDEST POP PUSH2 0x248 PUSH2 0x4EC CALLDATASIZE PUSH1 0x4 PUSH2 0x3EAB JUMP JUMPDEST PUSH2 0x15A3 JUMP JUMPDEST CALLVALUE DUP1 ISZERO PUSH2 0x4FD JUMPI PUSH1 0x0 DUP1 REVERT JUMPDEST POP PUSH2 0x4C2 PUSH2 0x50C CALLDATASIZE PUSH1 0x4 PUSH2 0x40A4 JUMP JUMPDEST PUSH2 0x16BC JUMP JUMPDEST CALLVALUE DUP1 ISZERO PUSH2 0x51D JUMPI PUSH1 0x0 DUP1 REVERT JUMPDEST POP PUSH2 0x248 PUSH2 0x52C CALLDATASIZE PUSH1 0x4 PUSH2 0x42E7 JUMP JUMPDEST PUSH2 0x1917 JUMP JUMPDEST CALLVALUE DUP1 ISZERO PUSH2 0x53D JUMPI PUSH1 0x0 DUP1 REVERT JUMPDEST POP PUSH2 0x1FD PUSH2 0x19ED JUMP JUMPDEST CALLVALUE DUP1 ISZERO PUSH2 0x552 JUMPI PUSH1 0x0 DUP1 REVERT JUMPDEST POP PUSH2 0x1FD PUSH2 0x1A11 JUMP JUMPDEST CALLVALUE DUP1 ISZERO PUSH2 0x567 JUMPI PUSH1 0x0 DUP1 REVERT JUMPDEST POP PUSH2 0x1FD PUSH2 0x576 CALLDATASIZE PUSH1 0x4 PUSH2 0x4327 JUMP JUMPDEST PUSH2 0x1A35 JUMP JUMPDEST PUSH2 0x2F9 PUSH2 0x589 CALLDATASIZE PUSH1 0x4 PUSH2 0x43A1 JUMP JUMPDEST PUSH2 0x1A43 JUMP JUMPDEST CALLVALUE DUP1 ISZERO PUSH2 0x59A JUMPI PUSH1 0x0 DUP1 REVERT JUMPDEST POP PUSH2 0x248 PUSH2 0x5A9 CALLDATASIZE PUSH1 0x4 PUSH2 0x423A JUMP JUMPDEST PUSH2 0x1AE1 JUMP JUMPDEST CALLVALUE DUP1 ISZERO PUSH2 0x5BA JUMPI PUSH1 0x0 DUP1 REVERT JUMPDEST POP PUSH2 0x248 PUSH2 0x5C9 CALLDATASIZE PUSH1 0x4 PUSH2 0x44DB JUMP JUMPDEST PUSH2 0x1B11 JUMP JUMPDEST PUSH1 0x0 PUSH2 0x5E1 PUSH2 0x5DC DUP4 PUSH2 0x1B75 JUMP JUMPDEST PUSH2 0x1CAC JUMP JUMPDEST SWAP1 POP JUMPDEST SWAP2 SWAP1 POP JUMP JUMPDEST PUSH32 0x0 DUP2 JUMP JUMPDEST DUP2 MLOAD DUP4 MLOAD EQ DUP1 ISZERO PUSH2 0x61F JUMPI POP DUP1 MLOAD DUP4 MLOAD EQ JUMPDEST PUSH2 0x65E JUMPI PUSH1 0x40 MLOAD PUSH32 0x8C379A000000000000000000000000000000000000000000000000000000000 DUP2 MSTORE PUSH1 0x4 ADD PUSH2 0x655 SWAP1 PUSH2 0x4D4C JUMP JUMPDEST PUSH1 0x40 MLOAD DUP1 SWAP2 SUB SWAP1 REVERT JUMPDEST PUSH1 0x0 JUMPDEST DUP4 MLOAD DUP2 LT ISZERO PUSH2 0x6B6 JUMPI PUSH2 0x6AE DUP5 DUP3 DUP2 MLOAD DUP2 LT PUSH2 0x679 JUMPI INVALID JUMPDEST PUSH1 0x20 MUL PUSH1 0x20 ADD ADD MLOAD DUP5 DUP4 DUP2 MLOAD DUP2 LT PUSH2 0x68D JUMPI INVALID JUMPDEST PUSH1 0x20 MUL PUSH1 0x20 ADD ADD MLOAD DUP5 DUP5 DUP2 MLOAD DUP2 LT PUSH2 0x6A1 JUMPI INVALID JUMPDEST PUSH1 0x20 MUL PUSH1 0x20 ADD ADD MLOAD PUSH2 0x116F JUMP JUMPDEST PUSH1 0x1 ADD PUSH2 0x661 JUMP JUMPDEST POP POP POP POP JUMP JUMPDEST PUSH2 0x6C4 PUSH2 0x3B49 JUMP JUMPDEST PUSH1 0x0 DUP1 PUSH2 0x6D0 DUP6 PUSH2 0x10E4 JUMP JUMPDEST SWAP3 POP PUSH2 0x761 PUSH1 0x40 MLOAD DUP1 PUSH1 0xA0 ADD PUSH1 0x40 MSTORE DUP1 DUP8 PUSH1 0xA0 ADD MLOAD PUSH20 0xFFFFFFFFFFFFFFFFFFFFFFFFFFFFFFFFFFFFFFFF AND DUP2 MSTORE PUSH1 0x20 ADD DUP8 PUSH1 0x0 ADD MLOAD PUSH20 0xFFFFFFFFFFFFFFFFFFFFFFFFFFFFFFFFFFFFFFFF AND DUP2 MSTORE PUSH1 0x20 ADD DUP8 PUSH1 0x40 ADD MLOAD PUSH16 0xFFFFFFFFFFFFFFFFFFFFFFFFFFFFFFFF AND DUP2 MSTORE PUSH1 0x20 ADD DUP8 PUSH1 0x60 ADD MLOAD PUSH16 0xFFFFFFFFFFFFFFFFFFFFFFFFFFFFFFFF AND DUP2 MSTORE PUSH1 0x20 ADD DUP6 DUP2 MSTORE POP PUSH2 0x1CFE JUMP JUMPDEST DUP4 MLOAD SWAP1 SWAP3 POP PUSH2 0x77E SWAP1 PUSH2 0x779 CALLDATASIZE DUP8 SWAP1 SUB DUP8 ADD DUP8 PUSH2 0x45CA JUMP JUMPDEST PUSH2 0x1E27 JUMP JUMPDEST PUSH20 0xFFFFFFFFFFFFFFFFFFFFFFFFFFFFFFFFFFFFFFFF AND DUP6 PUSH1 0xA0 ADD MLOAD PUSH20 0xFFFFFFFFFFFFFFFFFFFFFFFFFFFFFFFFFFFFFFFF AND EQ SWAP1 POP SWAP3 POP SWAP3 POP SWAP3 JUMP JUMPDEST PUSH2 0x7C1 PUSH2 0x3B49 JUMP JUMPDEST PUSH2 0x7CA DUP3 PUSH2 0x5CE JUMP JUMPDEST DUP2 MSTORE PUSH1 0x0 PUSH2 0x7D6 PUSH2 0x1F7E JUMP JUMPDEST PUSH1 0x80 DUP5 ADD MLOAD PUSH20 0xFFFFFFFFFFFFFFFFFFFFFFFFFFFFFFFFFFFFFFFF SWAP1 DUP2 AND PUSH1 0x0 SWAP1 DUP2 MSTORE PUSH1 0x2 SWAP3 SWAP1 SWAP3 ADD PUSH1 0x20 SWAP1 DUP2 MSTORE PUSH1 0x40 DUP1 DUP5 KECCAK256 DUP8 MLOAD DUP5 AND DUP6 MSTORE DUP3 MSTORE DUP1 DUP5 KECCAK256 DUP3 DUP9 ADD MLOAD SWAP1 SWAP4 AND DUP5 MSTORE SWAP2 SWAP1 MSTORE SWAP1 KECCAK256 SLOAD PUSH1 0x60 DUP5 ADD MLOAD PUSH2 0x100 DUP6 ADD MLOAD PUSH2 0x120 DUP7 ADD MLOAD SWAP3 SWAP4 POP PUSH2 0x844 SWAP3 DUP6 SWAP3 SWAP2 SWAP1 DUP6 PUSH2 0x1F8B JUMP JUMPDEST PUSH1 0xC0 DUP4 ADD MLOAD PUSH20 0xFFFFFFFFFFFFFFFFFFFFFFFFFFFFFFFFFFFFFFFF AND PUSH2 0x86B JUMPI PUSH1 0x0 PUSH1 0x20 DUP4 ADD MSTORE JUMPDEST POP SWAP2 SWAP1 POP JUMP JUMPDEST PUSH2 0x879 PUSH2 0x3B49 JUMP JUMPDEST PUSH1 0x0 DUP1 PUSH2 0x885 DUP6 PUSH2 0x7B9 JUMP JUMPDEST SWAP3 POP PUSH2 0x916 PUSH1 0x40 MLOAD DUP1 PUSH1 0xA0 ADD PUSH1 0x40 MSTORE DUP1 DUP8 PUSH1 0x80 ADD MLOAD PUSH20 0xFFFFFFFFFFFFFFFFFFFFFFFFFFFFFFFFFFFFFFFF AND DUP2 MSTORE PUSH1 0x20 ADD DUP8 PUSH1 0x0 ADD MLOAD PUSH20 0xFFFFFFFFFFFFFFFFFFFFFFFFFFFFFFFFFFFFFFFF AND DUP2 MSTORE PUSH1 0x20 ADD DUP8 PUSH1 0x40 ADD MLOAD PUSH16 0xFFFFFFFFFFFFFFFFFFFFFFFFFFFFFFFF AND DUP2 MSTORE PUSH1 0x20 ADD DUP8 PUSH1 0x60 ADD MLOAD PUSH16 0xFFFFFFFFFFFFFFFFFFFFFFFFFFFFFFFF AND DUP2 MSTORE PUSH1 0x20 ADD DUP6 DUP2 MSTORE POP PUSH2 0x1CFE JUMP JUMPDEST SWAP2 POP PUSH2 0x926 DUP4 PUSH1 0x0 ADD MLOAD DUP6 PUSH2 0x1E27 JUMP JUMPDEST PUSH20 0xFFFFFFFFFFFFFFFFFFFFFFFFFFFFFFFFFFFFFFFF AND DUP6 PUSH1 0x80 ADD MLOAD PUSH20 0xFFFFFFFFFFFFFFFFFFFFFFFFFFFFFFFFFFFFFFFF AND EQ SWAP1 POP SWAP3 POP SWAP3 POP SWAP3 JUMP JUMPDEST PUSH1 0x0 JUMPDEST DUP2 DUP2 LT ISZERO PUSH2 0x98F JUMPI PUSH2 0x987 DUP4 DUP4 DUP4 DUP2 DUP2 LT PUSH2 0x97B JUMPI INVALID JUMPDEST SWAP1 POP PUSH1 0x20 MUL ADD CALLDATALOAD PUSH2 0x207C JUMP JUMPDEST PUSH1 0x1 ADD PUSH2 0x964 JUMP JUMPDEST POP POP POP JUMP JUMPDEST PUSH1 0x0 DUP1 PUSH32 0x74FECE103E7470A8798099E7FD4AF1EEA16D523B4DBE60D7DC30ECF3519DBA65 DUP8 DUP8 PUSH1 0x0 ADD MLOAD DUP9 PUSH1 0x20 ADD MLOAD DUP10 PUSH1 0x40 ADD MLOAD DUP11 PUSH1 0x60 ADD MLOAD DUP11 DUP11 DUP11 PUSH1 0x40 MLOAD PUSH2 0x9E4 SWAP9 SWAP8 SWAP7 SWAP6 SWAP5 SWAP4 SWAP3 SWAP2 SWAP1 PUSH2 0x4F99 JUMP JUMPDEST PUSH1 0x40 MLOAD DUP1 SWAP2 SUB SWAP1 LOG1 POP PUSH1 0x0 SWAP7 PUSH2 0x539 SWAP7 POP SWAP5 POP POP POP POP POP JUMP JUMPDEST PUSH1 0x0 PUSH2 0xA07 PUSH2 0x3B6B JUMP JUMPDEST PUSH2 0xA13 DUP6 DUP6 DUP6 CALLER PUSH2 0x22CA JUMP JUMPDEST SWAP1 POP DUP3 PUSH16 0xFFFFFFFFFFFFFFFFFFFFFFFFFFFFFFFF AND DUP2 PUSH1 0x20 ADD MLOAD PUSH16 0xFFFFFFFFFFFFFFFFFFFFFFFFFFFFFFFF AND LT ISZERO PUSH2 0xA88 JUMPI PUSH2 0xA88 PUSH2 0xA83 PUSH2 0xA54 DUP8 PUSH2 0x5CE JUMP JUMPDEST DUP4 PUSH1 0x20 ADD MLOAD PUSH16 0xFFFFFFFFFFFFFFFFFFFFFFFFFFFFFFFF AND DUP7 PUSH16 0xFFFFFFFFFFFFFFFFFFFFFFFFFFFFFFFF AND PUSH2 0x2602 JUMP JUMPDEST PUSH2 0x26C0 JUMP JUMPDEST PUSH1 0x40 ADD MLOAD SWAP5 SWAP4 POP POP POP POP JUMP JUMPDEST PUSH32 0x0 SWAP1 JUMP JUMPDEST PUSH1 0x40 MLOAD DUP1 PUSH1 0x40 ADD PUSH1 0x40 MSTORE DUP1 PUSH1 0xB DUP2 MSTORE PUSH1 0x20 ADD PUSH32 0x4C696D69744F7264657273000000000000000000000000000000000000000000 DUP2 MSTORE POP DUP2 JUMP JUMPDEST PUSH1 0x0 PUSH2 0xAFC DUP3 PUSH2 0x1A35 JUMP JUMPDEST SWAP1 POP DUP2 PUSH1 0xA0 ADD MLOAD PUSH20 0xFFFFFFFFFFFFFFFFFFFFFFFFFFFFFFFFFFFFFFFF AND CALLER PUSH20 0xFFFFFFFFFFFFFFFFFFFFFFFFFFFFFFFFFFFFFFFF AND EQ PUSH2 0xB47 JUMPI PUSH2 0xB47 PUSH2 0xA83 DUP3 CALLER DUP6 PUSH1 0xA0 ADD MLOAD PUSH2 0x26C8 JUMP JUMPDEST PUSH2 0xB55 DUP2 DUP4 PUSH1 0xA0 ADD MLOAD PUSH2 0x2700 JUMP JUMPDEST POP POP JUMP JUMPDEST DUP2 MLOAD DUP4 MLOAD EQ DUP1 ISZERO PUSH2 0xB6B JUMPI POP DUP1 MLOAD DUP4 MLOAD EQ JUMPDEST PUSH2 0xBA1 JUMPI PUSH1 0x40 MLOAD PUSH32 0x8C379A000000000000000000000000000000000000000000000000000000000 DUP2 MSTORE PUSH1 0x4 ADD PUSH2 0x655 SWAP1 PUSH2 0x4D4C JUMP JUMPDEST PUSH1 0x0 JUMPDEST DUP4 MLOAD DUP2 LT ISZERO PUSH2 0x6B6 JUMPI PUSH2 0xBF1 DUP5 DUP3 DUP2 MLOAD DUP2 LT PUSH2 0xBBC JUMPI INVALID JUMPDEST PUSH1 0x20 MUL PUSH1 0x20 ADD ADD MLOAD DUP5 DUP4 DUP2 MLOAD DUP2 LT PUSH2 0xBD0 JUMPI INVALID JUMPDEST PUSH1 0x20 MUL PUSH1 0x20 ADD ADD MLOAD DUP5 DUP5 DUP2 MLOAD DUP2 LT PUSH2 0xBE4 JUMPI INVALID JUMPDEST PUSH1 0x20 MUL PUSH1 0x20 ADD ADD MLOAD PUSH2 0x1917 JUMP JUMPDEST PUSH1 0x1 ADD PUSH2 0xBA4 JUMP JUMPDEST PUSH1 0x0 PUSH2 0xC24 PUSH32 0x3CD2F02600000000000000000000000000000000000000000000000000000000 PUSH2 0x2773 JUMP JUMPDEST PUSH2 0xC4D PUSH32 0xF6274F6600000000000000000000000000000000000000000000000000000000 PUSH2 0x2773 JUMP JUMPDEST PUSH2 0xC76 PUSH32 0xAA77476C00000000000000000000000000000000000000000000000000000000 PUSH2 0x2773 JUMP JUMPDEST PUSH2 0xC9F PUSH32 0x9240529C00000000000000000000000000000000000000000000000000000000 PUSH2 0x2773 JUMP JUMPDEST PUSH2 0xCC8 PUSH32 0x438CDFC500000000000000000000000000000000000000000000000000000000 PUSH2 0x2773 JUMP JUMPDEST PUSH2 0xCF1 PUSH32 0x414E4CCF00000000000000000000000000000000000000000000000000000000 PUSH2 0x2773 JUMP JUMPDEST PUSH2 0xD1A PUSH32 0xA656186B00000000000000000000000000000000000000000000000000000000 PUSH2 0x2773 JUMP JUMPDEST PUSH2 0xD43 PUSH32 0x7D49EC1A00000000000000000000000000000000000000000000000000000000 PUSH2 0x2773 JUMP JUMPDEST PUSH2 0xD6C PUSH32 0xFE55A3EF00000000000000000000000000000000000000000000000000000000 PUSH2 0x2773 JUMP JUMPDEST PUSH2 0xD95 PUSH32 0x9BAA45A800000000000000000000000000000000000000000000000000000000 PUSH2 0x2773 JUMP JUMPDEST PUSH2 0xDBE PUSH32 0xF6E0F6A500000000000000000000000000000000000000000000000000000000 PUSH2 0x2773 JUMP JUMPDEST PUSH2 0xDE7 PUSH32 0xD0A55FB000000000000000000000000000000000000000000000000000000000 PUSH2 0x2773 JUMP JUMPDEST PUSH2 0xE10 PUSH32 0x86A0C8D700000000000000000000000000000000000000000000000000000000 PUSH2 0x2773 JUMP JUMPDEST PUSH2 0xE39 PUSH32 0x9A4F809C00000000000000000000000000000000000000000000000000000000 PUSH2 0x2773 JUMP JUMPDEST PUSH2 0xE62 PUSH32 0xF0E8CF700000000000000000000000000000000000000000000000000000000 PUSH2 0x2773 JUMP JUMPDEST PUSH2 0xE8B PUSH32 0x9548088900000000000000000000000000000000000000000000000000000000 PUSH2 0x2773 JUMP JUMPDEST PUSH2 0xEB4 PUSH32 0x346693C500000000000000000000000000000000000000000000000000000000 PUSH2 0x2773 JUMP JUMPDEST PUSH2 0xEDD PUSH32 0xDD11D22500000000000000000000000000000000000000000000000000000000 PUSH2 0x2773 JUMP JUMPDEST PUSH2 0xF06 PUSH32 0x16A6D6500000000000000000000000000000000000000000000000000000000 PUSH2 0x2773 JUMP JUMPDEST PUSH2 0xF2F PUSH32 0x487B5C2000000000000000000000000000000000000000000000000000000000 PUSH2 0x2773 JUMP JUMPDEST PUSH2 0xF58 PUSH32 0xB09F1FB100000000000000000000000000000000000000000000000000000000 PUSH2 0x2773 JUMP JUMPDEST PUSH2 0xF81 PUSH32 0x1FB0979500000000000000000000000000000000000000000000000000000000 PUSH2 0x2773 JUMP JUMPDEST PUSH2 0xFAA PUSH32 0x37F381D800000000000000000000000000000000000000000000000000000000 PUSH2 0x2773 JUMP JUMPDEST PUSH2 0xFD3 PUSH32 0xB4658BFB00000000000000000000000000000000000000000000000000000000 PUSH2 0x2773 JUMP JUMPDEST PUSH2 0xFFC PUSH32 0xAD354EEB00000000000000000000000000000000000000000000000000000000 PUSH2 0x2773 JUMP JUMPDEST POP PUSH32 0x2C64C5EF00000000000000000000000000000000000000000000000000000000 SWAP1 JUMP JUMPDEST PUSH1 0x0 PUSH2 0x102B PUSH2 0x3B6B JUMP JUMPDEST PUSH2 0x1098 PUSH1 0x40 MLOAD DUP1 PUSH1 0xA0 ADD PUSH1 0x40 MSTORE DUP1 DUP8 DUP2 MSTORE PUSH1 0x20 ADD DUP7 DUP2 MSTORE PUSH1 0x20 ADD DUP6 PUSH16 0xFFFFFFFFFFFFFFFFFFFFFFFFFFFFFFFF AND DUP2 MSTORE PUSH1 0x20 ADD CALLER PUSH20 0xFFFFFFFFFFFFFFFFFFFFFFFFFFFFFFFFFFFFFFFF AND DUP2 MSTORE PUSH1 0x20 ADD CALLER PUSH20 0xFFFFFFFFFFFFFFFFFFFFFFFFFFFFFFFFFFFFFFFF AND DUP2 MSTORE POP PUSH2 0x27FF JUMP JUMPDEST SWAP1 POP DUP3 PUSH16 0xFFFFFFFFFFFFFFFFFFFFFFFFFFFFFFFF AND DUP2 PUSH1 0x20 ADD MLOAD PUSH16 0xFFFFFFFFFFFFFFFFFFFFFFFFFFFFFFFF AND LT ISZERO PUSH2 0x10D9 JUMPI PUSH2 0x10D9 PUSH2 0xA83 PUSH2 0xA54 DUP8 PUSH2 0x1A35 JUMP JUMPDEST DUP1 MLOAD PUSH2 0xA88 SWAP1 PUSH2 0x2BA6 JUMP JUMPDEST PUSH2 0x10EC PUSH2 0x3B49 JUMP JUMPDEST PUSH2 0x10F5 DUP3 PUSH2 0x1A35 JUMP JUMPDEST DUP2 MSTORE PUSH1 0x0 PUSH2 0x1101 PUSH2 0x1F7E JUMP JUMPDEST PUSH1 0xA0 DUP5 ADD MLOAD PUSH20 0xFFFFFFFFFFFFFFFFFFFFFFFFFFFFFFFFFFFFFFFF SWAP1 DUP2 AND PUSH1 0x0 SWAP1 DUP2 MSTORE PUSH1 0x1 SWAP3 SWAP1 SWAP3 ADD PUSH1 0x20 SWAP1 DUP2 MSTORE PUSH1 0x40 DUP1 DUP5 KECCAK256 DUP8 MLOAD DUP5 AND DUP6 MSTORE DUP3 MSTORE DUP1 DUP5 KECCAK256 DUP3 DUP9 ADD MLOAD SWAP1 SWAP4 AND DUP5 MSTORE SWAP2 SWAP1 MSTORE SWAP1 KECCAK256 SLOAD PUSH1 0x60 DUP5 ADD MLOAD PUSH2 0x140 DUP6 ADD MLOAD PUSH2 0x160 DUP7 ADD MLOAD SWAP3 SWAP4 POP PUSH2 0x86B SWAP3 DUP6 SWAP3 SWAP2 SWAP1 DUP6 PUSH2 0x1F8B JUMP JUMPDEST PUSH1 0x0 PUSH2 0x1179 PUSH2 0x1F7E JUMP JUMPDEST CALLER PUSH1 0x0 SWAP1 DUP2 MSTORE PUSH1 0x2 DUP3 ADD PUSH1 0x20 SWAP1 DUP2 MSTORE PUSH1 0x40 DUP1 DUP4 KECCAK256 PUSH20 0xFFFFFFFFFFFFFFFFFFFFFFFFFFFFFFFFFFFFFFFF DUP10 DUP2 AND DUP6 MSTORE SWAP1 DUP4 MSTORE DUP2 DUP5 KECCAK256 SWAP1 DUP9 AND DUP5 MSTORE SWAP1 SWAP2 MSTORE SWAP1 KECCAK256 SLOAD SWAP1 SWAP2 POP DUP3 DUP2 GT ISZERO PUSH2 0x11D0 JUMPI PUSH2 0x11D0 PUSH2 0xA83 DUP5 DUP4 PUSH2 0x2C49 JUMP JUMPDEST CALLER PUSH1 0x0 DUP2 DUP2 MSTORE PUSH1 0x2 DUP5 ADD PUSH1 0x20 SWAP1 DUP2 MSTORE PUSH1 0x40 DUP1 DUP4 KECCAK256 PUSH20 0xFFFFFFFFFFFFFFFFFFFFFFFFFFFFFFFFFFFFFFFF DUP11 DUP2 AND DUP6 MSTORE SWAP1 DUP4 MSTORE DUP2 DUP5 KECCAK256 SWAP1 DUP10 AND DUP5 MSTORE SWAP1 SWAP2 MSTORE SWAP1 DUP2 SWAP1 KECCAK256 DUP6 SWAP1 SSTORE MLOAD PUSH32 0xFE7FFB1EDFE79F4DF716CB2DCAD21CF2F31B104D816A7976BA1E6E4653C1EFB1 SWAP2 PUSH2 0x1245 SWAP2 DUP9 SWAP1 DUP9 SWAP1 DUP9 SWAP1 PUSH2 0x485C JUMP JUMPDEST PUSH1 0x40 MLOAD DUP1 SWAP2 SUB SWAP1 LOG1 POP POP POP POP POP JUMP JUMPDEST PUSH1 0x0 JUMPDEST DUP2 MLOAD DUP2 LT ISZERO PUSH2 0xB55 JUMPI PUSH2 0x127C DUP3 DUP3 DUP2 MLOAD DUP2 LT PUSH2 0x126F JUMPI INVALID JUMPDEST PUSH1 0x20 MUL PUSH1 0x20 ADD ADD MLOAD PUSH2 0xAF1 JUMP JUMPDEST PUSH1 0x1 ADD PUSH2 0x1257 JUMP JUMPDEST PUSH32 0x0 DUP2 JUMP JUMPDEST PUSH1 0x0 DUP1 PUSH32 0xC03FA343C060FC606D5055416DCC7B6A43C24A30EE1F6F3E3FFD0C617ACA241B DUP7 DUP7 PUSH1 0x0 ADD MLOAD DUP8 PUSH1 0x20 ADD MLOAD DUP9 PUSH1 0x40 ADD MLOAD DUP10 PUSH1 0x60 ADD MLOAD DUP10 DUP10 PUSH1 0x40 MLOAD PUSH2 0x12F6 SWAP8 SWAP7 SWAP6 SWAP5 SWAP4 SWAP3 SWAP2 SWAP1 PUSH2 0x520F JUMP JUMPDEST PUSH1 0x40 MLOAD DUP1 SWAP2 SUB SWAP1 LOG1 POP PUSH1 0x0 SWAP6 PUSH2 0x539 SWAP6 POP SWAP4 POP POP POP POP JUMP JUMPDEST PUSH1 0x0 DUP1 PUSH2 0x1319 PUSH2 0x3B6B JUMP JUMPDEST PUSH2 0x1325 DUP7 DUP7 DUP7 CALLER PUSH2 0x22CA JUMP JUMPDEST PUSH1 0x20 DUP2 ADD MLOAD PUSH1 0x40 SWAP1 SWAP2 ADD MLOAD SWAP1 SWAP8 SWAP1 SWAP7 POP SWAP5 POP POP POP POP POP JUMP JUMPDEST PUSH1 0x60 DUP1 DUP1 DUP6 DUP5 EQ PUSH2 0x137A JUMPI PUSH1 0x40 MLOAD PUSH32 0x8C379A000000000000000000000000000000000000000000000000000000000 DUP2 MSTORE PUSH1 0x4 ADD PUSH2 0x655 SWAP1 PUSH2 0x4C92 JUMP JUMPDEST DUP6 PUSH8 0xFFFFFFFFFFFFFFFF DUP2 GT DUP1 ISZERO PUSH2 0x1391 JUMPI PUSH1 0x0 DUP1 REVERT JUMPDEST POP PUSH1 0x40 MLOAD SWAP1 DUP1 DUP3 MSTORE DUP1 PUSH1 0x20 MUL PUSH1 0x20 ADD DUP3 ADD PUSH1 0x40 MSTORE DUP1 ISZERO PUSH2 0x13CB JUMPI DUP2 PUSH1 0x20 ADD JUMPDEST PUSH2 0x13B8 PUSH2 0x3B49 JUMP JUMPDEST DUP2 MSTORE PUSH1 0x20 ADD SWAP1 PUSH1 0x1 SWAP1 SUB SWAP1 DUP2 PUSH2 0x13B0 JUMPI SWAP1 POP JUMPDEST POP SWAP3 POP DUP6 PUSH8 0xFFFFFFFFFFFFFFFF DUP2 GT DUP1 ISZERO PUSH2 0x13E5 JUMPI PUSH1 0x0 DUP1 REVERT JUMPDEST POP PUSH1 0x40 MLOAD SWAP1 DUP1 DUP3 MSTORE DUP1 PUSH1 0x20 MUL PUSH1 0x20 ADD DUP3 ADD PUSH1 0x40 MSTORE DUP1 ISZERO PUSH2 0x140F JUMPI DUP2 PUSH1 0x20 ADD PUSH1 0x20 DUP3 MUL DUP1 CALLDATASIZE DUP4 CALLDATACOPY ADD SWAP1 POP JUMPDEST POP SWAP2 POP DUP6 PUSH8 0xFFFFFFFFFFFFFFFF DUP2 GT DUP1 ISZERO PUSH2 0x1429 JUMPI PUSH1 0x0 DUP1 REVERT JUMPDEST POP PUSH1 0x40 MLOAD SWAP1 DUP1 DUP3 MSTORE DUP1 PUSH1 0x20 MUL PUSH1 0x20 ADD DUP3 ADD PUSH1 0x40 MSTORE DUP1 ISZERO PUSH2 0x1453 JUMPI DUP2 PUSH1 0x20 ADD PUSH1 0x20 DUP3 MUL DUP1 CALLDATASIZE DUP4 CALLDATACOPY ADD SWAP1 POP JUMPDEST POP SWAP1 POP PUSH1 0x0 JUMPDEST DUP7 DUP2 LT ISZERO PUSH2 0x1598 JUMPI ADDRESS PUSH4 0x37F381D8 DUP10 DUP10 DUP5 DUP2 DUP2 LT PUSH2 0x1473 JUMPI INVALID JUMPDEST SWAP1 POP PUSH2 0x140 MUL ADD DUP9 DUP9 DUP6 DUP2 DUP2 LT PUSH2 0x1486 JUMPI INVALID JUMPDEST SWAP1 POP PUSH1 0x80 MUL ADD PUSH1 0x40 MLOAD DUP4 PUSH4 0xFFFFFFFF AND PUSH1 0xE0 SHL DUP2 MSTORE PUSH1 0x4 ADD PUSH2 0x14A9 SWAP3 SWAP2 SWAP1 PUSH2 0x5117 JUMP JUMPDEST PUSH1 0xA0 PUSH1 0x40 MLOAD DUP1 DUP4 SUB DUP2 DUP7 DUP1 EXTCODESIZE ISZERO DUP1 ISZERO PUSH2 0x14C1 JUMPI PUSH1 0x0 DUP1 REVERT JUMPDEST POP GAS STATICCALL SWAP3 POP POP POP DUP1 ISZERO PUSH2 0x150F JUMPI POP PUSH1 0x40 DUP1 MLOAD PUSH1 0x1F RETURNDATASIZE SWAP1 DUP2 ADD PUSH32 0xFFFFFFFFFFFFFFFFFFFFFFFFFFFFFFFFFFFFFFFFFFFFFFFFFFFFFFFFFFFFFFE0 AND DUP3 ADD SWAP1 SWAP3 MSTORE PUSH2 0x150C SWAP2 DUP2 ADD SWAP1 PUSH2 0x445F JUMP JUMPDEST PUSH1 0x1 JUMPDEST PUSH2 0x1518 JUMPI PUSH2 0x1590 JUMP JUMPDEST DUP3 DUP8 DUP6 DUP2 MLOAD DUP2 LT PUSH2 0x1525 JUMPI INVALID JUMPDEST PUSH1 0x20 MUL PUSH1 0x20 ADD ADD DUP2 SWAP1 MSTORE POP DUP2 DUP7 DUP6 DUP2 MLOAD DUP2 LT PUSH2 0x153D JUMPI INVALID JUMPDEST PUSH1 0x20 MUL PUSH1 0x20 ADD ADD SWAP1 PUSH16 0xFFFFFFFFFFFFFFFFFFFFFFFFFFFFFFFF AND SWAP1 DUP2 PUSH16 0xFFFFFFFFFFFFFFFFFFFFFFFFFFFFFFFF AND DUP2 MSTORE POP POP DUP1 DUP6 DUP6 DUP2 MLOAD DUP2 LT PUSH2 0x157C JUMPI INVALID JUMPDEST SWAP2 ISZERO ISZERO PUSH1 0x20 SWAP3 DUP4 MUL SWAP2 SWAP1 SWAP2 ADD SWAP1 SWAP2 ADD MSTORE POP POP POP JUMPDEST PUSH1 0x1 ADD PUSH2 0x1459 JUMP JUMPDEST POP SWAP5 POP SWAP5 POP SWAP5 SWAP2 POP POP JUMP JUMPDEST CALLER ORIGIN EQ PUSH2 0x15DC JUMPI PUSH1 0x40 MLOAD PUSH32 0x8C379A000000000000000000000000000000000000000000000000000000000 DUP2 MSTORE PUSH1 0x4 ADD PUSH2 0x655 SWAP1 PUSH2 0x4CEF JUMP JUMPDEST PUSH1 0x0 PUSH2 0x15E6 PUSH2 0x1F7E JUMP JUMPDEST SWAP1 POP PUSH1 0x0 JUMPDEST DUP4 MLOAD DUP2 LT ISZERO PUSH2 0x167B JUMPI CALLER PUSH1 0x0 SWAP1 DUP2 MSTORE PUSH1 0x3 DUP4 ADD PUSH1 0x20 MSTORE PUSH1 0x40 DUP2 KECCAK256 DUP6 MLOAD DUP6 SWAP3 SWAP1 DUP8 SWAP1 DUP6 SWAP1 DUP2 LT PUSH2 0x1616 JUMPI INVALID JUMPDEST PUSH1 0x20 SWAP1 DUP2 MUL SWAP2 SWAP1 SWAP2 ADD DUP2 ADD MLOAD PUSH20 0xFFFFFFFFFFFFFFFFFFFFFFFFFFFFFFFFFFFFFFFF AND DUP3 MSTORE DUP2 ADD SWAP2 SWAP1 SWAP2 MSTORE PUSH1 0x40 ADD PUSH1 0x0 KECCAK256 DUP1 SLOAD PUSH32 0xFFFFFFFFFFFFFFFFFFFFFFFFFFFFFFFFFFFFFFFFFFFFFFFFFFFFFFFFFFFFFF00 AND SWAP2 ISZERO ISZERO SWAP2 SWAP1 SWAP2 OR SWAP1 SSTORE PUSH1 0x1 ADD PUSH2 0x15EB JUMP JUMPDEST POP PUSH32 0x2DFEAD5EB769B298E82DD9650B31C40559A3D42701DBF53C931BC2682847C31 CALLER DUP5 DUP5 PUSH1 0x40 MLOAD PUSH2 0x16AF SWAP4 SWAP3 SWAP2 SWAP1 PUSH2 0x4893 JUMP JUMPDEST PUSH1 0x40 MLOAD DUP1 SWAP2 SUB SWAP1 LOG1 POP POP POP JUMP JUMPDEST PUSH1 0x60 DUP1 DUP1 DUP6 DUP5 EQ PUSH2 0x16F9 JUMPI PUSH1 0x40 MLOAD PUSH32 0x8C379A000000000000000000000000000000000000000000000000000000000 DUP2 MSTORE PUSH1 0x4 ADD PUSH2 0x655 SWAP1 PUSH2 0x4C92 JUMP JUMPDEST DUP6 PUSH8 0xFFFFFFFFFFFFFFFF DUP2 GT DUP1 ISZERO PUSH2 0x1710 JUMPI PUSH1 0x0 DUP1 REVERT JUMPDEST POP PUSH1 0x40 MLOAD SWAP1 DUP1 DUP3 MSTORE DUP1 PUSH1 0x20 MUL PUSH1 0x20 ADD DUP3 ADD PUSH1 0x40 MSTORE DUP1 ISZERO PUSH2 0x174A JUMPI DUP2 PUSH1 0x20 ADD JUMPDEST PUSH2 0x1737 PUSH2 0x3B49 JUMP JUMPDEST DUP2 MSTORE PUSH1 0x20 ADD SWAP1 PUSH1 0x1 SWAP1 SUB SWAP1 DUP2 PUSH2 0x172F JUMPI SWAP1 POP JUMPDEST POP SWAP3 POP DUP6 PUSH8 0xFFFFFFFFFFFFFFFF DUP2 GT DUP1 ISZERO PUSH2 0x1764 JUMPI PUSH1 0x0 DUP1 REVERT JUMPDEST POP PUSH1 0x40 MLOAD SWAP1 DUP1 DUP3 MSTORE DUP1 PUSH1 0x20 MUL PUSH1 0x20 ADD DUP3 ADD PUSH1 0x40 MSTORE DUP1 ISZERO PUSH2 0x178E JUMPI DUP2 PUSH1 0x20 ADD PUSH1 0x20 DUP3 MUL DUP1 CALLDATASIZE DUP4 CALLDATACOPY ADD SWAP1 POP JUMPDEST POP SWAP2 POP DUP6 PUSH8 0xFFFFFFFFFFFFFFFF DUP2 GT DUP1 ISZERO PUSH2 0x17A8 JUMPI PUSH1 0x0 DUP1 REVERT JUMPDEST POP PUSH1 0x40 MLOAD SWAP1 DUP1 DUP3 MSTORE DUP1 PUSH1 0x20 MUL PUSH1 0x20 ADD DUP3 ADD PUSH1 0x40 MSTORE DUP1 ISZERO PUSH2 0x17D2 JUMPI DUP2 PUSH1 0x20 ADD PUSH1 0x20 DUP3 MUL DUP1 CALLDATASIZE DUP4 CALLDATACOPY ADD SWAP1 POP JUMPDEST POP SWAP1 POP PUSH1 0x0 JUMPDEST DUP7 DUP2 LT ISZERO PUSH2 0x1598 JUMPI ADDRESS PUSH4 0x1FB09795 DUP10 DUP10 DUP5 DUP2 DUP2 LT PUSH2 0x17F2 JUMPI INVALID JUMPDEST SWAP1 POP PUSH2 0x180 MUL ADD DUP9 DUP9 DUP6 DUP2 DUP2 LT PUSH2 0x1805 JUMPI INVALID JUMPDEST SWAP1 POP PUSH1 0x80 MUL ADD PUSH1 0x40 MLOAD DUP4 PUSH4 0xFFFFFFFF AND PUSH1 0xE0 SHL DUP2 MSTORE PUSH1 0x4 ADD PUSH2 0x1828 SWAP3 SWAP2 SWAP1 PUSH2 0x4E63 JUMP JUMPDEST PUSH1 0xA0 PUSH1 0x40 MLOAD DUP1 DUP4 SUB DUP2 DUP7 DUP1 EXTCODESIZE ISZERO DUP1 ISZERO PUSH2 0x1840 JUMPI PUSH1 0x0 DUP1 REVERT JUMPDEST POP GAS STATICCALL SWAP3 POP POP POP DUP1 ISZERO PUSH2 0x188E JUMPI POP PUSH1 0x40 DUP1 MLOAD PUSH1 0x1F RETURNDATASIZE SWAP1 DUP2 ADD PUSH32 0xFFFFFFFFFFFFFFFFFFFFFFFFFFFFFFFFFFFFFFFFFFFFFFFFFFFFFFFFFFFFFFE0 AND DUP3 ADD SWAP1 SWAP3 MSTORE PUSH2 0x188B SWAP2 DUP2 ADD SWAP1 PUSH2 0x445F JUMP JUMPDEST PUSH1 0x1 JUMPDEST PUSH2 0x1897 JUMPI PUSH2 0x190F JUMP JUMPDEST DUP3 DUP8 DUP6 DUP2 MLOAD DUP2 LT PUSH2 0x18A4 JUMPI INVALID JUMPDEST PUSH1 0x20 MUL PUSH1 0x20 ADD ADD DUP2 SWAP1 MSTORE POP DUP2 DUP7 DUP6 DUP2 MLOAD DUP2 LT PUSH2 0x18BC JUMPI INVALID JUMPDEST PUSH1 0x20 MUL PUSH1 0x20 ADD ADD SWAP1 PUSH16 0xFFFFFFFFFFFFFFFFFFFFFFFFFFFFFFFF AND SWAP1 DUP2 PUSH16 0xFFFFFFFFFFFFFFFFFFFFFFFFFFFFFFFF AND DUP2 MSTORE POP POP DUP1 DUP6 DUP6 DUP2 MLOAD DUP2 LT PUSH2 0x18FB JUMPI INVALID JUMPDEST SWAP2 ISZERO ISZERO PUSH1 0x20 SWAP3 DUP4 MUL SWAP2 SWAP1 SWAP2 ADD SWAP1 SWAP2 ADD MSTORE POP POP POP JUMPDEST PUSH1 0x1 ADD PUSH2 0x17D8 JUMP JUMPDEST PUSH1 0x0 PUSH2 0x1921 PUSH2 0x1F7E JUMP JUMPDEST CALLER PUSH1 0x0 SWAP1 DUP2 MSTORE PUSH1 0x1 DUP3 ADD PUSH1 0x20 SWAP1 DUP2 MSTORE PUSH1 0x40 DUP1 DUP4 KECCAK256 PUSH20 0xFFFFFFFFFFFFFFFFFFFFFFFFFFFFFFFFFFFFFFFF DUP10 DUP2 AND DUP6 MSTORE SWAP1 DUP4 MSTORE DUP2 DUP5 KECCAK256 SWAP1 DUP9 AND DUP5 MSTORE SWAP1 SWAP2 MSTORE SWAP1 KECCAK256 SLOAD SWAP1 SWAP2 POP DUP3 DUP2 GT ISZERO PUSH2 0x1978 JUMPI PUSH2 0x1978 PUSH2 0xA83 DUP5 DUP4 PUSH2 0x2C49 JUMP JUMPDEST CALLER PUSH1 0x0 DUP2 DUP2 MSTORE PUSH1 0x1 DUP5 ADD PUSH1 0x20 SWAP1 DUP2 MSTORE PUSH1 0x40 DUP1 DUP4 KECCAK256 PUSH20 0xFFFFFFFFFFFFFFFFFFFFFFFFFFFFFFFFFFFFFFFF DUP11 DUP2 AND DUP6 MSTORE SWAP1 DUP4 MSTORE DUP2 DUP5 KECCAK256 SWAP1 DUP10 AND DUP5 MSTORE SWAP1 SWAP2 MSTORE SWAP1 DUP2 SWAP1 KECCAK256 DUP6 SWAP1 SSTORE MLOAD PUSH32 0xA91FE7AE62FCE669DF2C7F880F8C14D178531AAE72515558E5C948E37C32A572 SWAP2 PUSH2 0x1245 SWAP2 DUP9 SWAP1 DUP9 SWAP1 DUP9 SWAP1 PUSH2 0x485C JUMP JUMPDEST PUSH32 0x0 DUP2 JUMP JUMPDEST PUSH32 0x0 DUP2 JUMP JUMPDEST PUSH1 0x0 PUSH2 0x5E1 PUSH2 0x5DC DUP4 PUSH2 0x2D04 JUMP JUMPDEST PUSH1 0x0 DUP1 PUSH2 0x1A4E PUSH2 0x3B6B JUMP JUMPDEST PUSH2 0x1ABB PUSH1 0x40 MLOAD DUP1 PUSH1 0xA0 ADD PUSH1 0x40 MSTORE DUP1 DUP9 DUP2 MSTORE PUSH1 0x20 ADD DUP8 DUP2 MSTORE PUSH1 0x20 ADD DUP7 PUSH16 0xFFFFFFFFFFFFFFFFFFFFFFFFFFFFFFFF AND DUP2 MSTORE PUSH1 0x20 ADD CALLER PUSH20 0xFFFFFFFFFFFFFFFFFFFFFFFFFFFFFFFFFFFFFFFF AND DUP2 MSTORE PUSH1 0x20 ADD CALLER PUSH20 0xFFFFFFFFFFFFFFFFFFFFFFFFFFFFFFFFFFFFFFFF AND DUP2 MSTORE POP PUSH2 0x27FF JUMP JUMPDEST SWAP1 POP PUSH2 0x1ACA DUP2 PUSH1 0x0 ADD MLOAD PUSH2 0x2BA6 JUMP JUMPDEST PUSH1 0x20 DUP2 ADD MLOAD PUSH1 0x40 SWAP1 SWAP2 ADD MLOAD SWAP1 SWAP7 SWAP1 SWAP6 POP SWAP4 POP POP POP POP JUMP JUMPDEST PUSH1 0x0 JUMPDEST DUP2 MLOAD DUP2 LT ISZERO PUSH2 0xB55 JUMPI PUSH2 0x1B09 DUP3 DUP3 DUP2 MLOAD DUP2 LT PUSH2 0x1AFC JUMPI INVALID JUMPDEST PUSH1 0x20 MUL PUSH1 0x20 ADD ADD MLOAD PUSH2 0x1B11 JUMP JUMPDEST PUSH1 0x1 ADD PUSH2 0x1AE4 JUMP JUMPDEST PUSH1 0x0 PUSH2 0x1B1C DUP3 PUSH2 0x5CE JUMP JUMPDEST SWAP1 POP DUP2 PUSH1 0x80 ADD MLOAD PUSH20 0xFFFFFFFFFFFFFFFFFFFFFFFFFFFFFFFFFFFFFFFF AND CALLER PUSH20 0xFFFFFFFFFFFFFFFFFFFFFFFFFFFFFFFFFFFFFFFF AND EQ PUSH2 0x1B67 JUMPI PUSH2 0x1B67 PUSH2 0xA83 DUP3 CALLER DUP6 PUSH1 0x80 ADD MLOAD PUSH2 0x26C8 JUMP JUMPDEST PUSH2 0xB55 DUP2 DUP4 PUSH1 0x80 ADD MLOAD PUSH2 0x2700 JUMP JUMPDEST PUSH1 0x0 PUSH1 0x40 MLOAD PUSH32 0xE593D3FDFA8B60E5E17A1B2204662ECBE15C23F2084B9AD5BAE40359540A7DA9 DUP2 MSTORE DUP3 MLOAD PUSH20 0xFFFFFFFFFFFFFFFFFFFFFFFFFFFFFFFFFFFFFFFF AND PUSH1 0x20 DUP3 ADD MSTORE PUSH1 0x20 DUP4 ADD MLOAD PUSH20 0xFFFFFFFFFFFFFFFFFFFFFFFFFFFFFFFFFFFFFFFF AND PUSH1 0x40 DUP3 ADD MSTORE PUSH1 0x40 DUP4 ADD MLOAD PUSH16 0xFFFFFFFFFFFFFFFFFFFFFFFFFFFFFFFF AND PUSH1 0x60 DUP3 ADD MSTORE PUSH1 0x60 DUP4 ADD MLOAD PUSH16 0xFFFFFFFFFFFFFFFFFFFFFFFFFFFFFFFF AND PUSH1 0x80 DUP3 ADD MSTORE PUSH1 0x80 DUP4 ADD MLOAD PUSH20 0xFFFFFFFFFFFFFFFFFFFFFFFFFFFFFFFFFFFFFFFF AND PUSH1 0xA0 DUP3 ADD MSTORE PUSH1 0xA0 DUP4 ADD MLOAD PUSH20 0xFFFFFFFFFFFFFFFFFFFFFFFFFFFFFFFFFFFFFFFF AND PUSH1 0xC0 DUP3 ADD MSTORE PUSH1 0xC0 DUP4 ADD MLOAD PUSH20 0xFFFFFFFFFFFFFFFFFFFFFFFFFFFFFFFFFFFFFFFF AND PUSH1 0xE0 DUP3 ADD MSTORE PUSH1 0xE0 DUP4 ADD MLOAD PUSH2 0x100 DUP3 ADD MSTORE PUSH2 0x100 DUP4 ADD MLOAD PUSH8 0xFFFFFFFFFFFFFFFF AND PUSH2 0x120 DUP3 ADD MSTORE PUSH2 0x120 DUP4 ADD MLOAD PUSH2 0x140 DUP3 ADD MSTORE PUSH2 0x160 DUP2 KECCAK256 SWAP2 POP POP SWAP2 SWAP1 POP JUMP JUMPDEST PUSH1 0x0 PUSH32 0x0 DUP3 PUSH1 0x40 MLOAD PUSH1 0x20 ADD PUSH2 0x1CE1 SWAP3 SWAP2 SWAP1 PUSH2 0x47D1 JUMP JUMPDEST PUSH1 0x40 MLOAD PUSH1 0x20 DUP2 DUP4 SUB SUB DUP2 MSTORE SWAP1 PUSH1 0x40 MSTORE DUP1 MLOAD SWAP1 PUSH1 0x20 ADD KECCAK256 SWAP1 POP SWAP2 SWAP1 POP JUMP JUMPDEST PUSH1 0x0 DUP2 PUSH1 0x40 ADD MLOAD PUSH16 0xFFFFFFFFFFFFFFFFFFFFFFFFFFFFFFFF AND PUSH1 0x0 EQ DUP1 PUSH2 0x1D39 JUMPI POP PUSH1 0x60 DUP3 ADD MLOAD PUSH16 0xFFFFFFFFFFFFFFFFFFFFFFFFFFFFFFFF AND ISZERO JUMPDEST ISZERO PUSH2 0x1D46 JUMPI POP PUSH1 0x0 PUSH2 0x5E4 JUMP JUMPDEST PUSH1 0x1 DUP3 PUSH1 0x80 ADD MLOAD PUSH1 0x20 ADD MLOAD PUSH1 0x4 DUP2 GT ISZERO PUSH2 0x1D5C JUMPI INVALID JUMPDEST EQ PUSH2 0x1D69 JUMPI POP PUSH1 0x0 PUSH2 0x5E4 JUMP JUMPDEST PUSH1 0x0 PUSH2 0x1DC2 DUP4 PUSH1 0x80 ADD MLOAD PUSH1 0x40 ADD MLOAD DUP5 PUSH1 0x60 ADD MLOAD SUB PUSH16 0xFFFFFFFFFFFFFFFFFFFFFFFFFFFFFFFF AND DUP5 PUSH1 0x60 ADD MLOAD PUSH16 0xFFFFFFFFFFFFFFFFFFFFFFFFFFFFFFFF AND DUP6 PUSH1 0x40 ADD MLOAD PUSH16 0xFFFFFFFFFFFFFFFFFFFFFFFFFFFFFFFF AND PUSH2 0x2E7B JUMP JUMPDEST SWAP1 POP PUSH2 0x1DDF DUP2 PUSH2 0x1DDA DUP6 PUSH1 0x20 ADD MLOAD DUP7 PUSH1 0x0 ADD MLOAD PUSH2 0x2E99 JUMP JUMPDEST PUSH2 0x2FCB JUMP JUMPDEST SWAP1 POP PUSH2 0x1E20 PUSH2 0x1E1B DUP3 DUP6 PUSH1 0x40 ADD MLOAD PUSH16 0xFFFFFFFFFFFFFFFFFFFFFFFFFFFFFFFF AND DUP7 PUSH1 0x60 ADD MLOAD PUSH16 0xFFFFFFFFFFFFFFFFFFFFFFFFFFFFFFFF AND PUSH2 0x2FE1 JUMP JUMPDEST PUSH2 0x3005 JUMP JUMPDEST SWAP4 SWAP3 POP POP POP JUMP JUMPDEST PUSH1 0x0 PUSH2 0x1E33 DUP4 DUP4 PUSH2 0x3031 JUMP JUMPDEST PUSH1 0x2 DUP3 MLOAD PUSH1 0x3 DUP2 GT ISZERO PUSH2 0x1E42 JUMPI INVALID JUMPDEST EQ ISZERO PUSH2 0x1EAA JUMPI PUSH1 0x1 DUP4 DUP4 PUSH1 0x20 ADD MLOAD DUP5 PUSH1 0x40 ADD MLOAD DUP6 PUSH1 0x60 ADD MLOAD PUSH1 0x40 MLOAD PUSH1 0x0 DUP2 MSTORE PUSH1 0x20 ADD PUSH1 0x40 MSTORE PUSH1 0x40 MLOAD PUSH2 0x1E77 SWAP5 SWAP4 SWAP3 SWAP2 SWAP1 PUSH2 0x4BA6 JUMP JUMPDEST PUSH1 0x20 PUSH1 0x40 MLOAD PUSH1 0x20 DUP2 SUB SWAP1 DUP1 DUP5 SUB SWAP1 DUP6 GAS STATICCALL ISZERO DUP1 ISZERO PUSH2 0x1E99 JUMPI RETURNDATASIZE PUSH1 0x0 DUP1 RETURNDATACOPY RETURNDATASIZE PUSH1 0x0 REVERT JUMPDEST POP POP POP PUSH1 0x20 PUSH1 0x40 MLOAD SUB MLOAD SWAP1 POP PUSH2 0x1F4F JUMP JUMPDEST PUSH1 0x3 DUP3 MLOAD PUSH1 0x3 DUP2 GT ISZERO PUSH2 0x1EB9 JUMPI INVALID JUMPDEST EQ ISZERO PUSH2 0x1F4F JUMPI PUSH1 0x0 PUSH32 0x19457468657265756D205369676E6564204D6573736167653A0A333200000000 PUSH1 0x0 MSTORE DUP4 PUSH1 0x1C MSTORE PUSH1 0x3C PUSH1 0x0 KECCAK256 SWAP1 POP PUSH1 0x1 DUP2 DUP5 PUSH1 0x20 ADD MLOAD DUP6 PUSH1 0x40 ADD MLOAD DUP7 PUSH1 0x60 ADD MLOAD PUSH1 0x40 MLOAD PUSH1 0x0 DUP2 MSTORE PUSH1 0x20 ADD PUSH1 0x40 MSTORE PUSH1 0x40 MLOAD PUSH2 0x1F1F SWAP5 SWAP4 SWAP3 SWAP2 SWAP1 PUSH2 0x4BA6 JUMP JUMPDEST PUSH1 0x20 PUSH1 0x40 MLOAD PUSH1 0x20 DUP2 SUB SWAP1 DUP1 DUP5 SUB SWAP1 DUP6 GAS STATICCALL ISZERO DUP1 ISZERO PUSH2 0x1F41 JUMPI RETURNDATASIZE PUSH1 0x0 DUP1 RETURNDATACOPY RETURNDATASIZE PUSH1 0x0 REVERT JUMPDEST POP POP POP PUSH1 0x20 PUSH1 0x40 MLOAD SUB MLOAD SWAP2 POP POP JUMPDEST PUSH20 0xFFFFFFFFFFFFFFFFFFFFFFFFFFFFFFFFFFFFFFFF DUP2 AND PUSH2 0x1F78 JUMPI PUSH2 0x1F78 PUSH2 0xA83 PUSH1 0x5 DUP6 PUSH2 0x30DD JUMP JUMPDEST SWAP3 SWAP2 POP POP JUMP JUMPDEST PUSH1 0x0 DUP1 PUSH2 0x1F78 PUSH1 0x7 PUSH2 0x3113 JUMP JUMPDEST PUSH1 0x0 PUSH2 0x1F95 PUSH2 0x1F7E JUMP JUMPDEST DUP7 MLOAD PUSH1 0x0 SWAP1 DUP2 MSTORE PUSH1 0x20 DUP3 SWAP1 MSTORE PUSH1 0x40 SWAP1 DUP2 SWAP1 KECCAK256 SLOAD PUSH16 0xFFFFFFFFFFFFFFFFFFFFFFFFFFFFFFFF DUP1 DUP3 AND SWAP3 DUP11 ADD DUP4 SWAP1 MSTORE SWAP3 SWAP4 POP SWAP2 DUP8 AND GT PUSH2 0x1FEC JUMPI PUSH1 0x20 DUP8 ADD PUSH1 0x2 JUMPDEST SWAP1 DUP2 PUSH1 0x4 DUP2 GT ISZERO PUSH2 0x1FE1 JUMPI INVALID JUMPDEST DUP2 MSTORE POP POP POP POP PUSH2 0x2075 JUMP JUMPDEST PUSH32 0x8000000000000000000000000000000000000000000000000000000000000000 DUP2 AND ISZERO PUSH2 0x201F JUMPI PUSH1 0x20 DUP8 ADD PUSH1 0x3 PUSH2 0x1FD4 JUMP JUMPDEST POP TIMESTAMP PUSH8 0xFFFFFFFFFFFFFFFF AND DUP5 PUSH8 0xFFFFFFFFFFFFFFFF AND GT PUSH2 0x2059 JUMPI PUSH1 0x20 DUP7 ADD PUSH1 0x4 JUMPDEST SWAP1 DUP2 PUSH1 0x4 DUP2 GT ISZERO PUSH2 0x204F JUMPI INVALID JUMPDEST DUP2 MSTORE POP POP POP PUSH2 0x2075 JUMP JUMPDEST DUP3 DUP3 GT ISZERO PUSH2 0x206C JUMPI PUSH1 0x20 DUP7 ADD PUSH1 0x3 PUSH2 0x2042 JUMP JUMPDEST POP PUSH1 0x1 PUSH1 0x20 DUP7 ADD MSTORE JUMPDEST POP POP POP POP POP JUMP JUMPDEST PUSH1 0x40 MLOAD PUSH32 0x319BED9A00000000000000000000000000000000000000000000000000000000 DUP2 MSTORE PUSH1 0x0 SWAP1 PUSH20 0xFFFFFFFFFFFFFFFFFFFFFFFFFFFFFFFFFFFFFFFF PUSH32 0x0 AND SWAP1 PUSH4 0x319BED9A SWAP1 PUSH2 0x20F1 SWAP1 DUP6 SWAP1 PUSH1 0x4 ADD PUSH2 0x4A42 JUMP JUMPDEST PUSH1 0x20 PUSH1 0x40 MLOAD DUP1 DUP4 SUB DUP2 PUSH1 0x0 DUP8 DUP1 EXTCODESIZE ISZERO DUP1 ISZERO PUSH2 0x210B JUMPI PUSH1 0x0 DUP1 REVERT JUMPDEST POP GAS CALL ISZERO DUP1 ISZERO PUSH2 0x211F JUMPI RETURNDATASIZE PUSH1 0x0 DUP1 RETURNDATACOPY RETURNDATASIZE PUSH1 0x0 REVERT JUMPDEST POP POP POP POP PUSH1 0x40 MLOAD RETURNDATASIZE PUSH1 0x1F NOT PUSH1 0x1F DUP3 ADD AND DUP3 ADD DUP1 PUSH1 0x40 MSTORE POP DUP2 ADD SWAP1 PUSH2 0x2143 SWAP2 SWAP1 PUSH2 0x42CB JUMP JUMPDEST SWAP1 POP PUSH1 0x0 PUSH32 0x0 PUSH20 0xFFFFFFFFFFFFFFFFFFFFFFFFFFFFFFFFFFFFFFFF AND PUSH4 0x70A08231 DUP4 PUSH1 0x40 MLOAD DUP3 PUSH4 0xFFFFFFFF AND PUSH1 0xE0 SHL DUP2 MSTORE PUSH1 0x4 ADD PUSH2 0x21A0 SWAP2 SWAP1 PUSH2 0x480A JUMP JUMPDEST PUSH1 0x20 PUSH1 0x40 MLOAD DUP1 DUP4 SUB DUP2 DUP7 DUP1 EXTCODESIZE ISZERO DUP1 ISZERO PUSH2 0x21B8 JUMPI PUSH1 0x0 DUP1 REVERT JUMPDEST POP GAS STATICCALL ISZERO DUP1 ISZERO PUSH2 0x21CC JUMPI RETURNDATASIZE PUSH1 0x0 DUP1 RETURNDATACOPY RETURNDATASIZE PUSH1 0x0 REVERT JUMPDEST POP POP POP POP PUSH1 0x40 MLOAD RETURNDATASIZE PUSH1 0x1F NOT PUSH1 0x1F DUP3 ADD AND DUP3 ADD DUP1 PUSH1 0x40 MSTORE POP DUP2 ADD SWAP1 PUSH2 0x21F0 SWAP2 SWAP1 PUSH2 0x45E5 JUMP JUMPDEST SWAP1 POP PUSH1 0x1 DUP2 GT ISZERO PUSH2 0x98F JUMPI PUSH1 0x40 MLOAD PUSH32 0xA3B4A32700000000000000000000000000000000000000000000000000000000 DUP2 MSTORE PUSH20 0xFFFFFFFFFFFFFFFFFFFFFFFFFFFFFFFFFFFFFFFF PUSH32 0x0 AND SWAP1 PUSH4 0xA3B4A327 SWAP1 PUSH2 0x2293 SWAP1 DUP6 SWAP1 DUP2 SWAP1 PUSH32 0xFFFFFFFFFFFFFFFFFFFFFFFFFFFFFFFFFFFFFFFFFFFFFFFFFFFFFFFFFFFFFFFF DUP8 ADD SWAP1 PUSH1 0x4 ADD PUSH2 0x482B JUMP JUMPDEST PUSH1 0x0 PUSH1 0x40 MLOAD DUP1 DUP4 SUB DUP2 PUSH1 0x0 DUP8 DUP1 EXTCODESIZE ISZERO DUP1 ISZERO PUSH2 0x22AD JUMPI PUSH1 0x0 DUP1 REVERT JUMPDEST POP GAS CALL ISZERO DUP1 ISZERO PUSH2 0x22C1 JUMPI RETURNDATASIZE PUSH1 0x0 DUP1 RETURNDATACOPY RETURNDATASIZE PUSH1 0x0 REVERT JUMPDEST POP POP POP POP POP POP POP JUMP JUMPDEST PUSH2 0x22D2 PUSH2 0x3B6B JUMP JUMPDEST PUSH2 0x22DA PUSH2 0x3B49 JUMP JUMPDEST PUSH2 0x22E3 DUP7 PUSH2 0x7B9 JUMP JUMPDEST SWAP1 POP PUSH1 0x1 DUP2 PUSH1 0x20 ADD MLOAD PUSH1 0x4 DUP2 GT ISZERO PUSH2 0x22F7 JUMPI INVALID JUMPDEST EQ PUSH2 0x231C JUMPI PUSH2 0x231C PUSH2 0xA83 DUP3 PUSH1 0x0 ADD MLOAD DUP4 PUSH1 0x20 ADD MLOAD PUSH1 0x4 DUP2 GT ISZERO PUSH2 0x2317 JUMPI INVALID JUMPDEST PUSH2 0x312E JUMP JUMPDEST PUSH1 0x0 PUSH2 0x2326 PUSH2 0x1F7E JUMP JUMPDEST PUSH1 0xC0 DUP9 ADD MLOAD SWAP1 SWAP2 POP PUSH20 0xFFFFFFFFFFFFFFFFFFFFFFFFFFFFFFFFFFFFFFFF AND ORIGIN EQ DUP1 ISZERO SWAP1 PUSH2 0x238A JUMPI POP PUSH1 0xC0 DUP8 ADD MLOAD PUSH20 0xFFFFFFFFFFFFFFFFFFFFFFFFFFFFFFFFFFFFFFFF AND PUSH1 0x0 SWAP1 DUP2 MSTORE PUSH1 0x3 DUP3 ADD PUSH1 0x20 SWAP1 DUP2 MSTORE PUSH1 0x40 DUP1 DUP4 KECCAK256 ORIGIN DUP5 MSTORE SWAP1 SWAP2 MSTORE SWAP1 KECCAK256 SLOAD PUSH1 0xFF AND ISZERO JUMPDEST ISZERO PUSH2 0x23A5 JUMPI PUSH2 0x23A5 PUSH2 0xA83 DUP4 PUSH1 0x0 ADD MLOAD ORIGIN DUP11 PUSH1 0xC0 ADD MLOAD PUSH2 0x3164 JUMP JUMPDEST POP PUSH1 0xA0 DUP7 ADD MLOAD PUSH20 0xFFFFFFFFFFFFFFFFFFFFFFFFFFFFFFFFFFFFFFFF AND ISZERO DUP1 ISZERO SWAP1 PUSH2 0x23FF JUMPI POP DUP3 PUSH20 0xFFFFFFFFFFFFFFFFFFFFFFFFFFFFFFFFFFFFFFFF AND DUP7 PUSH1 0xA0 ADD MLOAD PUSH20 0xFFFFFFFFFFFFFFFFFFFFFFFFFFFFFFFFFFFFFFFF AND EQ ISZERO JUMPDEST ISZERO PUSH2 0x241A JUMPI PUSH2 0x241A PUSH2 0xA83 DUP3 PUSH1 0x0 ADD MLOAD DUP6 DUP10 PUSH1 0xA0 ADD MLOAD PUSH2 0x319C JUMP JUMPDEST PUSH1 0x0 PUSH2 0x242A DUP3 PUSH1 0x0 ADD MLOAD DUP8 PUSH2 0x1E27 JUMP JUMPDEST SWAP1 POP DUP7 PUSH1 0x80 ADD MLOAD PUSH20 0xFFFFFFFFFFFFFFFFFFFFFFFFFFFFFFFFFFFFFFFF AND DUP2 PUSH20 0xFFFFFFFFFFFFFFFFFFFFFFFFFFFFFFFFFFFFFFFF AND EQ PUSH2 0x2479 JUMPI PUSH2 0x2479 PUSH2 0xA83 DUP4 PUSH1 0x0 ADD MLOAD DUP4 DUP11 PUSH1 0x80 ADD MLOAD PUSH2 0x31D4 JUMP JUMPDEST POP PUSH2 0x257E PUSH1 0x40 MLOAD DUP1 PUSH2 0x120 ADD PUSH1 0x40 MSTORE DUP1 DUP4 PUSH1 0x0 ADD MLOAD DUP2 MSTORE PUSH1 0x20 ADD DUP9 PUSH1 0x80 ADD MLOAD PUSH20 0xFFFFFFFFFFFFFFFFFFFFFFFFFFFFFFFFFFFFFFFF AND DUP2 MSTORE PUSH1 0x20 ADD DUP6 PUSH20 0xFFFFFFFFFFFFFFFFFFFFFFFFFFFFFFFFFFFFFFFF AND DUP2 MSTORE PUSH1 0x20 ADD DUP9 PUSH1 0x0 ADD MLOAD PUSH20 0xFFFFFFFFFFFFFFFFFFFFFFFFFFFFFFFFFFFFFFFF AND DUP2 MSTORE PUSH1 0x20 ADD DUP9 PUSH1 0x20 ADD MLOAD PUSH20 0xFFFFFFFFFFFFFFFFFFFFFFFFFFFFFFFFFFFFFFFF AND DUP2 MSTORE PUSH1 0x20 ADD DUP9 PUSH1 0x40 ADD MLOAD PUSH16 0xFFFFFFFFFFFFFFFFFFFFFFFFFFFFFFFF AND DUP2 MSTORE PUSH1 0x20 ADD DUP9 PUSH1 0x60 ADD MLOAD PUSH16 0xFFFFFFFFFFFFFFFFFFFFFFFFFFFFFFFF AND DUP2 MSTORE PUSH1 0x20 ADD DUP7 PUSH16 0xFFFFFFFFFFFFFFFFFFFFFFFFFFFFFFFF AND DUP2 MSTORE PUSH1 0x20 ADD DUP4 PUSH1 0x40 ADD MLOAD PUSH16 0xFFFFFFFFFFFFFFFFFFFFFFFFFFFFFFFF AND DUP2 MSTORE POP PUSH2 0x320C JUMP JUMPDEST PUSH16 0xFFFFFFFFFFFFFFFFFFFFFFFFFFFFFFFF SWAP1 DUP2 AND PUSH1 0x40 DUP1 DUP7 ADD DUP3 SWAP1 MSTORE SWAP3 SWAP1 SWAP2 AND PUSH1 0x20 DUP1 DUP7 ADD DUP3 SWAP1 MSTORE DUP5 MLOAD PUSH1 0x80 DUP12 ADD MLOAD DUP12 MLOAD SWAP3 DUP13 ADD MLOAD PUSH1 0xE0 DUP14 ADD MLOAD SWAP7 MLOAD PUSH32 0x829FA99D94DC4636925B38632E625736A614C154D55006B7AB6BEA979C210C32 SWAP8 PUSH2 0x25F1 SWAP8 SWAP5 SWAP7 SWAP4 SWAP6 DUP13 SWAP6 SWAP1 SWAP5 SWAP3 SWAP1 SWAP2 SWAP1 PUSH2 0x4B1B JUMP JUMPDEST PUSH1 0x40 MLOAD DUP1 SWAP2 SUB SWAP1 LOG1 POP SWAP5 SWAP4 POP POP POP POP JUMP JUMPDEST PUSH1 0x60 PUSH32 0x21948612B5EF214EC0508DF4901600E07A810A371BE76B25D59ADE73826E3D97 DUP5 DUP5 DUP5 PUSH1 0x40 MLOAD PUSH1 0x24 ADD PUSH2 0x263A SWAP4 SWAP3 SWAP2 SWAP1 PUSH2 0x4B7F JUMP JUMPDEST PUSH1 0x40 DUP1 MLOAD PUSH32 0xFFFFFFFFFFFFFFFFFFFFFFFFFFFFFFFFFFFFFFFFFFFFFFFFFFFFFFFFFFFFFFE0 DUP2 DUP5 SUB ADD DUP2 MSTORE SWAP2 SWAP1 MSTORE PUSH1 0x20 DUP2 ADD DUP1 MLOAD PUSH28 0xFFFFFFFFFFFFFFFFFFFFFFFFFFFFFFFFFFFFFFFFFFFFFFFFFFFFFFFF AND PUSH32 0xFFFFFFFF00000000000000000000000000000000000000000000000000000000 SWAP1 SWAP4 AND SWAP3 SWAP1 SWAP3 OR SWAP1 SWAP2 MSTORE SWAP1 POP SWAP4 SWAP3 POP POP POP JUMP JUMPDEST DUP1 MLOAD PUSH1 0x20 DUP3 ADD REVERT JUMPDEST PUSH1 0x60 PUSH32 0x88B2C08E4A5F57D416AD23DAD18C20497CCFE684B1379B28FD564ADAF582B80F DUP5 DUP5 DUP5 PUSH1 0x40 MLOAD PUSH1 0x24 ADD PUSH2 0x263A SWAP4 SWAP3 SWAP2 SWAP1 PUSH2 0x4A6F JUMP JUMPDEST PUSH1 0x0 PUSH2 0x270A PUSH2 0x1F7E JUMP JUMPDEST PUSH1 0x0 DUP5 DUP2 MSTORE PUSH1 0x20 DUP3 SWAP1 MSTORE PUSH1 0x40 SWAP1 DUP2 SWAP1 KECCAK256 DUP1 SLOAD PUSH32 0x8000000000000000000000000000000000000000000000000000000000000000 OR SWAP1 SSTORE MLOAD SWAP1 SWAP2 POP PUSH32 0xA6EB7CDC219E1518CED964E9A34E61D68A94E4F1569DB3E84256BA981BA52753 SWAP1 PUSH2 0x16AF SWAP1 DUP6 SWAP1 DUP6 SWAP1 PUSH2 0x4A4B JUMP JUMPDEST PUSH1 0x40 MLOAD PUSH32 0x6EB224CB00000000000000000000000000000000000000000000000000000000 DUP2 MSTORE ADDRESS SWAP1 PUSH4 0x6EB224CB SWAP1 PUSH2 0x27D1 SWAP1 DUP5 SWAP1 PUSH32 0x0 SWAP1 PUSH1 0x4 ADD PUSH2 0x4BF1 JUMP JUMPDEST PUSH1 0x0 PUSH1 0x40 MLOAD DUP1 DUP4 SUB DUP2 PUSH1 0x0 DUP8 DUP1 EXTCODESIZE ISZERO DUP1 ISZERO PUSH2 0x27EB JUMPI PUSH1 0x0 DUP1 REVERT JUMPDEST POP GAS CALL ISZERO DUP1 ISZERO PUSH2 0x2075 JUMPI RETURNDATASIZE PUSH1 0x0 DUP1 RETURNDATACOPY RETURNDATASIZE PUSH1 0x0 REVERT JUMPDEST PUSH2 0x2807 PUSH2 0x3B6B JUMP JUMPDEST PUSH2 0x280F PUSH2 0x3B49 JUMP JUMPDEST DUP3 MLOAD PUSH2 0x281A SWAP1 PUSH2 0x10E4 JUMP JUMPDEST SWAP1 POP PUSH1 0x1 DUP2 PUSH1 0x20 ADD MLOAD PUSH1 0x4 DUP2 GT ISZERO PUSH2 0x282E JUMPI INVALID JUMPDEST EQ PUSH2 0x284E JUMPI PUSH2 0x284E PUSH2 0xA83 DUP3 PUSH1 0x0 ADD MLOAD DUP4 PUSH1 0x20 ADD MLOAD PUSH1 0x4 DUP2 GT ISZERO PUSH2 0x2317 JUMPI INVALID JUMPDEST DUP3 MLOAD PUSH1 0xC0 ADD MLOAD PUSH20 0xFFFFFFFFFFFFFFFFFFFFFFFFFFFFFFFFFFFFFFFF AND ISZERO DUP1 ISZERO SWAP1 PUSH2 0x28B0 JUMPI POP DUP3 PUSH1 0x60 ADD MLOAD PUSH20 0xFFFFFFFFFFFFFFFFFFFFFFFFFFFFFFFFFFFFFFFF AND DUP4 PUSH1 0x0 ADD MLOAD PUSH1 0xC0 ADD MLOAD PUSH20 0xFFFFFFFFFFFFFFFFFFFFFFFFFFFFFFFFFFFFFFFF AND EQ ISZERO JUMPDEST ISZERO PUSH2 0x28D3 JUMPI PUSH2 0x28D3 PUSH2 0xA83 DUP3 PUSH1 0x0 ADD MLOAD DUP6 PUSH1 0x60 ADD MLOAD DUP7 PUSH1 0x0 ADD MLOAD PUSH1 0xC0 ADD MLOAD PUSH2 0x319C JUMP JUMPDEST DUP3 MLOAD PUSH1 0xE0 ADD MLOAD PUSH20 0xFFFFFFFFFFFFFFFFFFFFFFFFFFFFFFFFFFFFFFFF AND ISZERO DUP1 ISZERO SWAP1 PUSH2 0x2935 JUMPI POP DUP3 PUSH1 0x80 ADD MLOAD PUSH20 0xFFFFFFFFFFFFFFFFFFFFFFFFFFFFFFFFFFFFFFFF AND DUP4 PUSH1 0x0 ADD MLOAD PUSH1 0xE0 ADD MLOAD PUSH20 0xFFFFFFFFFFFFFFFFFFFFFFFFFFFFFFFFFFFFFFFF AND EQ ISZERO JUMPDEST ISZERO PUSH2 0x2958 JUMPI PUSH2 0x2958 PUSH2 0xA83 DUP3 PUSH1 0x0 ADD MLOAD DUP6 PUSH1 0x80 ADD MLOAD DUP7 PUSH1 0x0 ADD MLOAD PUSH1 0xE0 ADD MLOAD PUSH2 0x3387 JUMP JUMPDEST PUSH1 0x0 PUSH2 0x296C DUP3 PUSH1 0x0 ADD MLOAD DUP6 PUSH1 0x20 ADD MLOAD PUSH2 0x1E27 JUMP JUMPDEST SWAP1 POP DUP4 PUSH1 0x0 ADD MLOAD PUSH1 0xA0 ADD MLOAD PUSH20 0xFFFFFFFFFFFFFFFFFFFFFFFFFFFFFFFFFFFFFFFF AND DUP2 PUSH20 0xFFFFFFFFFFFFFFFFFFFFFFFFFFFFFFFFFFFFFFFF AND EQ PUSH2 0x29C0 JUMPI DUP2 MLOAD DUP5 MLOAD PUSH1 0xA0 ADD MLOAD PUSH2 0x29C0 SWAP2 PUSH2 0xA83 SWAP2 DUP5 SWAP1 PUSH2 0x31D4 JUMP JUMPDEST POP DUP3 MLOAD PUSH2 0x120 ADD MLOAD PUSH2 0x29D1 SWAP1 PUSH2 0x33BF JUMP JUMPDEST DUP3 MSTORE PUSH1 0x40 DUP1 MLOAD PUSH2 0x120 DUP2 ADD DUP3 MSTORE DUP3 MLOAD DUP2 MSTORE DUP5 MLOAD PUSH1 0xA0 SWAP1 DUP2 ADD MLOAD PUSH20 0xFFFFFFFFFFFFFFFFFFFFFFFFFFFFFFFFFFFFFFFF SWAP1 DUP2 AND PUSH1 0x20 DUP1 DUP6 ADD SWAP2 SWAP1 SWAP2 MSTORE PUSH1 0x60 DUP1 DUP10 ADD MLOAD DUP4 AND DUP6 DUP8 ADD MSTORE DUP9 MLOAD MLOAD DUP4 AND DUP2 DUP7 ADD MSTORE DUP9 MLOAD SWAP1 SWAP2 ADD MLOAD SWAP1 SWAP2 AND PUSH1 0x80 DUP5 ADD MSTORE DUP7 MLOAD DUP5 ADD MLOAD PUSH16 0xFFFFFFFFFFFFFFFFFFFFFFFFFFFFFFFF SWAP1 DUP2 AND SWAP3 DUP5 ADD SWAP3 SWAP1 SWAP3 MSTORE DUP7 MLOAD ADD MLOAD DUP2 AND PUSH1 0xC0 DUP4 ADD MSTORE DUP6 DUP4 ADD MLOAD DUP2 AND PUSH1 0xE0 DUP4 ADD MSTORE SWAP2 DUP4 ADD MLOAD SWAP1 SWAP2 AND PUSH2 0x100 DUP3 ADD MSTORE PUSH2 0x2A7A SWAP1 PUSH2 0x320C JUMP JUMPDEST PUSH16 0xFFFFFFFFFFFFFFFFFFFFFFFFFFFFFFFF SWAP1 DUP2 AND PUSH1 0x40 DUP6 ADD MSTORE SWAP1 DUP2 AND PUSH1 0x20 DUP5 ADD MSTORE DUP4 MLOAD PUSH1 0x80 ADD MLOAD AND ISZERO PUSH2 0x2B31 JUMPI PUSH2 0x2AFC DUP3 PUSH1 0x20 ADD MLOAD PUSH16 0xFFFFFFFFFFFFFFFFFFFFFFFFFFFFFFFF AND DUP5 PUSH1 0x0 ADD MLOAD PUSH1 0x60 ADD MLOAD PUSH16 0xFFFFFFFFFFFFFFFFFFFFFFFFFFFFFFFF AND DUP6 PUSH1 0x0 ADD MLOAD PUSH1 0x80 ADD MLOAD PUSH16 0xFFFFFFFFFFFFFFFFFFFFFFFFFFFFFFFF AND PUSH2 0x2E7B JUMP JUMPDEST PUSH16 0xFFFFFFFFFFFFFFFFFFFFFFFFFFFFFFFF AND PUSH1 0x60 DUP1 DUP5 ADD DUP3 SWAP1 MSTORE DUP5 MLOAD PUSH1 0x20 DUP2 ADD MLOAD SWAP2 DUP7 ADD MLOAD PUSH2 0x100 SWAP1 SWAP2 ADD MLOAD PUSH2 0x2B31 SWAP4 PUSH2 0x3494 JUMP JUMPDEST DUP1 MLOAD DUP4 MLOAD PUSH1 0xA0 DUP2 ADD MLOAD PUSH1 0x60 DUP1 DUP8 ADD MLOAD PUSH2 0x100 DUP5 ADD MLOAD DUP5 MLOAD PUSH1 0x20 DUP1 DUP8 ADD MLOAD SWAP1 DUP11 ADD MLOAD PUSH1 0x40 DUP1 DUP13 ADD MLOAD SWAP7 DUP13 ADD MLOAD DUP13 MLOAD PUSH2 0x120 SWAP1 SWAP11 ADD MLOAD SWAP2 MLOAD PUSH32 0xAB614D2B738543C0EA21F56347CF696A3A0C42A7CBEC3212A5CA22A4DCFF2124 SWAP12 PUSH2 0x2B98 SWAP12 SWAP1 SWAP11 SWAP10 SWAP4 SWAP1 SWAP2 PUSH2 0x4A9B JUMP JUMPDEST PUSH1 0x40 MLOAD DUP1 SWAP2 SUB SWAP1 LOG1 POP SWAP2 SWAP1 POP JUMP JUMPDEST DUP1 CALLVALUE GT DUP1 ISZERO PUSH2 0x2BB5 JUMPI POP CALLER ADDRESS EQ ISZERO JUMPDEST ISZERO PUSH2 0x2C46 JUMPI PUSH1 0x0 PUSH2 0x2BC6 CALLVALUE DUP4 PUSH2 0x369B JUMP JUMPDEST SWAP1 POP PUSH1 0x0 CALLER PUSH20 0xFFFFFFFFFFFFFFFFFFFFFFFFFFFFFFFFFFFFFFFF AND DUP3 PUSH1 0x40 MLOAD PUSH2 0x2BEE SWAP1 PUSH2 0x4807 JUMP JUMPDEST PUSH1 0x0 PUSH1 0x40 MLOAD DUP1 DUP4 SUB DUP2 DUP6 DUP8 GAS CALL SWAP3 POP POP POP RETURNDATASIZE DUP1 PUSH1 0x0 DUP2 EQ PUSH2 0x2C2B JUMPI PUSH1 0x40 MLOAD SWAP2 POP PUSH1 0x1F NOT PUSH1 0x3F RETURNDATASIZE ADD AND DUP3 ADD PUSH1 0x40 MSTORE RETURNDATASIZE DUP3 MSTORE RETURNDATASIZE PUSH1 0x0 PUSH1 0x20 DUP5 ADD RETURNDATACOPY PUSH2 0x2C30 JUMP JUMPDEST PUSH1 0x60 SWAP2 POP JUMPDEST POP POP SWAP1 POP DUP1 PUSH2 0x98F JUMPI PUSH2 0x98F PUSH2 0xA83 CALLER DUP5 PUSH2 0x36BA JUMP JUMPDEST POP JUMP JUMPDEST PUSH1 0x60 PUSH32 0xB12BC7E7D341F4431D6FAF05F991EE3B779183E341B24243064E10C886CD1873 DUP4 DUP4 PUSH1 0x40 MLOAD PUSH1 0x24 ADD PUSH2 0x2C7F SWAP3 SWAP2 SWAP1 PUSH2 0x5351 JUMP JUMPDEST PUSH1 0x40 DUP1 MLOAD PUSH32 0xFFFFFFFFFFFFFFFFFFFFFFFFFFFFFFFFFFFFFFFFFFFFFFFFFFFFFFFFFFFFFFE0 DUP2 DUP5 SUB ADD DUP2 MSTORE SWAP2 SWAP1 MSTORE PUSH1 0x20 DUP2 ADD DUP1 MLOAD PUSH28 0xFFFFFFFFFFFFFFFFFFFFFFFFFFFFFFFFFFFFFFFFFFFFFFFFFFFFFFFF AND PUSH32 0xFFFFFFFF00000000000000000000000000000000000000000000000000000000 SWAP1 SWAP4 AND SWAP3 SWAP1 SWAP3 OR SWAP1 SWAP2 MSTORE SWAP1 POP SWAP3 SWAP2 POP POP JUMP JUMPDEST PUSH1 0x0 PUSH1 0x40 MLOAD PUSH32 0xCE918627CB55462DDBB85E73DE69A8B322F2BC88F4507C52FCAD6D4C33C29D49 DUP2 MSTORE DUP3 MLOAD PUSH20 0xFFFFFFFFFFFFFFFFFFFFFFFFFFFFFFFFFFFFFFFF AND PUSH1 0x20 DUP3 ADD MSTORE PUSH1 0x20 DUP4 ADD MLOAD PUSH20 0xFFFFFFFFFFFFFFFFFFFFFFFFFFFFFFFFFFFFFFFF AND PUSH1 0x40 DUP3 ADD MSTORE PUSH1 0x40 DUP4 ADD MLOAD PUSH16 0xFFFFFFFFFFFFFFFFFFFFFFFFFFFFFFFF AND PUSH1 0x60 DUP3 ADD MSTORE PUSH1 0x60 DUP4 ADD MLOAD PUSH16 0xFFFFFFFFFFFFFFFFFFFFFFFFFFFFFFFF AND PUSH1 0x80 DUP3 ADD MSTORE PUSH1 0x80 DUP4 ADD MLOAD PUSH16 0xFFFFFFFFFFFFFFFFFFFFFFFFFFFFFFFF AND PUSH1 0xA0 DUP3 ADD MSTORE PUSH1 0xA0 DUP4 ADD MLOAD PUSH20 0xFFFFFFFFFFFFFFFFFFFFFFFFFFFFFFFFFFFFFFFF AND PUSH1 0xC0 DUP3 ADD MSTORE PUSH1 0xC0 DUP4 ADD MLOAD PUSH20 0xFFFFFFFFFFFFFFFFFFFFFFFFFFFFFFFFFFFFFFFF AND PUSH1 0xE0 DUP3 ADD MSTORE PUSH1 0xE0 DUP4 ADD MLOAD PUSH20 0xFFFFFFFFFFFFFFFFFFFFFFFFFFFFFFFFFFFFFFFF AND PUSH2 0x100 DUP3 ADD MSTORE PUSH2 0x100 DUP4 ADD MLOAD PUSH20 0xFFFFFFFFFFFFFFFFFFFFFFFFFFFFFFFFFFFFFFFF AND PUSH2 0x120 DUP3 ADD MSTORE PUSH2 0x120 DUP4 ADD MLOAD PUSH2 0x140 DUP3 ADD MSTORE PUSH2 0x140 DUP4 ADD MLOAD PUSH8 0xFFFFFFFFFFFFFFFF AND PUSH2 0x160 DUP3 ADD MSTORE PUSH2 0x160 DUP4 ADD MLOAD PUSH2 0x180 DUP3 ADD MSTORE PUSH2 0x1A0 DUP2 KECCAK256 SWAP2 POP POP SWAP2 SWAP1 POP JUMP JUMPDEST PUSH1 0x0 PUSH2 0x2E91 DUP4 PUSH2 0x2E8B DUP7 DUP6 PUSH2 0x36F0 JUMP JUMPDEST SWAP1 PUSH2 0x3721 JUMP JUMPDEST SWAP5 SWAP4 POP POP POP POP JUMP JUMPDEST PUSH1 0x0 PUSH2 0x1E20 DUP4 PUSH20 0xFFFFFFFFFFFFFFFFFFFFFFFFFFFFFFFFFFFFFFFF AND PUSH4 0xDD62ED3E DUP5 ADDRESS PUSH1 0x40 MLOAD DUP4 PUSH4 0xFFFFFFFF AND PUSH1 0xE0 SHL DUP2 MSTORE PUSH1 0x4 ADD PUSH2 0x2ED9 SWAP3 SWAP2 SWAP1 PUSH2 0x4905 JUMP JUMPDEST PUSH1 0x20 PUSH1 0x40 MLOAD DUP1 DUP4 SUB DUP2 DUP7 DUP1 EXTCODESIZE ISZERO DUP1 ISZERO PUSH2 0x2EF1 JUMPI PUSH1 0x0 DUP1 REVERT JUMPDEST POP GAS STATICCALL ISZERO DUP1 ISZERO PUSH2 0x2F05 JUMPI RETURNDATASIZE PUSH1 0x0 DUP1 RETURNDATACOPY RETURNDATASIZE PUSH1 0x0 REVERT JUMPDEST POP POP POP POP PUSH1 0x40 MLOAD RETURNDATASIZE PUSH1 0x1F NOT PUSH1 0x1F DUP3 ADD AND DUP3 ADD DUP1 PUSH1 0x40 MSTORE POP DUP2 ADD SWAP1 PUSH2 0x2F29 SWAP2 SWAP1 PUSH2 0x45E5 JUMP JUMPDEST PUSH1 0x40 MLOAD PUSH32 0x70A0823100000000000000000000000000000000000000000000000000000000 DUP2 MSTORE PUSH20 0xFFFFFFFFFFFFFFFFFFFFFFFFFFFFFFFFFFFFFFFF DUP7 AND SWAP1 PUSH4 0x70A08231 SWAP1 PUSH2 0x2F7B SWAP1 DUP8 SWAP1 PUSH1 0x4 ADD PUSH2 0x480A JUMP JUMPDEST PUSH1 0x20 PUSH1 0x40 MLOAD DUP1 DUP4 SUB DUP2 DUP7 DUP1 EXTCODESIZE ISZERO DUP1 ISZERO PUSH2 0x2F93 JUMPI PUSH1 0x0 DUP1 REVERT JUMPDEST POP GAS STATICCALL ISZERO DUP1 ISZERO PUSH2 0x2FA7 JUMPI RETURNDATASIZE PUSH1 0x0 DUP1 RETURNDATACOPY RETURNDATASIZE PUSH1 0x0 REVERT JUMPDEST POP POP POP POP PUSH1 0x40 MLOAD RETURNDATASIZE PUSH1 0x1F NOT PUSH1 0x1F DUP3 ADD AND DUP3 ADD DUP1 PUSH1 0x40 MSTORE POP DUP2 ADD SWAP1 PUSH2 0x1DDA SWAP2 SWAP1 PUSH2 0x45E5 JUMP JUMPDEST PUSH1 0x0 DUP2 DUP4 LT PUSH2 0x2FDA JUMPI DUP2 PUSH2 0x1E20 JUMP JUMPDEST POP SWAP1 SWAP2 SWAP1 POP JUMP JUMPDEST PUSH1 0x0 PUSH2 0x2E91 DUP4 PUSH2 0x2E8B PUSH2 0x2FF5 DUP3 PUSH1 0x1 PUSH2 0x369B JUMP JUMPDEST PUSH2 0x2FFF DUP9 DUP8 PUSH2 0x36F0 JUMP JUMPDEST SWAP1 PUSH2 0x374B JUMP JUMPDEST PUSH1 0x0 PUSH16 0xFFFFFFFFFFFFFFFFFFFFFFFFFFFFFFFF DUP3 GT ISZERO PUSH2 0x302D JUMPI PUSH2 0x302D PUSH2 0xA83 PUSH1 0x3 DUP5 PUSH2 0x3767 JUMP JUMPDEST POP SWAP1 JUMP JUMPDEST PUSH1 0x40 DUP2 ADD MLOAD PUSH32 0xFFFFFFFFFFFFFFFFFFFFFFFFFFFFFFFEBAAEDCE6AF48A03BBFD25E8CD0364141 GT ISZERO DUP1 PUSH2 0x3088 JUMPI POP PUSH1 0x60 DUP2 ADD MLOAD PUSH32 0x7FFFFFFFFFFFFFFFFFFFFFFFFFFFFFFF5D576E7357A4501DDFE92F46681B20A1 GT ISZERO JUMPDEST ISZERO PUSH2 0x309B JUMPI PUSH2 0x309B PUSH2 0xA83 PUSH1 0x5 DUP5 PUSH2 0x30DD JUMP JUMPDEST PUSH1 0x0 DUP2 MLOAD PUSH1 0x3 DUP2 GT ISZERO PUSH2 0x30AA JUMPI INVALID JUMPDEST EQ ISZERO PUSH2 0x30BE JUMPI PUSH2 0x30BE PUSH2 0xA83 PUSH1 0x3 DUP5 PUSH2 0x30DD JUMP JUMPDEST PUSH1 0x1 DUP2 MLOAD PUSH1 0x3 DUP2 GT ISZERO PUSH2 0x30CD JUMPI INVALID JUMPDEST EQ ISZERO PUSH2 0xB55 JUMPI PUSH2 0xB55 PUSH2 0xA83 PUSH1 0x0 DUP5 JUMPDEST PUSH1 0x60 PUSH32 0xF18F11F3027E735C758137924B262D4D3AFF0037DCD785ACA3C699FA05D960BD DUP4 DUP4 PUSH1 0x40 MLOAD PUSH1 0x24 ADD PUSH2 0x2C7F SWAP3 SWAP2 SWAP1 PUSH2 0x4C71 JUMP JUMPDEST PUSH1 0x0 PUSH1 0x80 DUP3 PUSH1 0x7 DUP2 GT ISZERO PUSH2 0x3123 JUMPI INVALID JUMPDEST PUSH1 0x1 ADD SWAP1 SHL SWAP3 SWAP2 POP POP JUMP JUMPDEST PUSH1 0x60 PUSH32 0x47AB394E41470191EAF9FA542E84AC483A12665FBD616EB8D1C022CED6C94000 DUP4 DUP4 PUSH1 0x40 MLOAD PUSH1 0x24 ADD PUSH2 0x2C7F SWAP3 SWAP2 SWAP1 PUSH2 0x4B95 JUMP JUMPDEST PUSH1 0x60 PUSH32 0xC0972F3CC4234CA2091DE7E7BC7081494BD29AC280167D66F0D44168973B1634 DUP5 DUP5 DUP5 PUSH1 0x40 MLOAD PUSH1 0x24 ADD PUSH2 0x263A SWAP4 SWAP3 SWAP2 SWAP1 PUSH2 0x4A6F JUMP JUMPDEST PUSH1 0x60 PUSH32 0x5D3300180A4547B3E27137BE832D3EBF56F1BA5EBB30DD580999C61F77FA6396 DUP5 DUP5 DUP5 PUSH1 0x40 MLOAD PUSH1 0x24 ADD PUSH2 0x263A SWAP4 SWAP3 SWAP2 SWAP1 PUSH2 0x4A6F JUMP JUMPDEST PUSH1 0x60 PUSH32 0xF13E65D925201525F3D71A731833B19BB26E44CFBD97CAF72A366B73866F7124 DUP5 DUP5 DUP5 PUSH1 0x40 MLOAD PUSH1 0x24 ADD PUSH2 0x263A SWAP4 SWAP3 SWAP2 SWAP1 PUSH2 0x4A6F JUMP JUMPDEST PUSH1 0x0 DUP1 PUSH2 0x324A DUP4 PUSH1 0xE0 ADD MLOAD PUSH2 0x3245 DUP6 PUSH2 0x100 ADD MLOAD DUP7 PUSH1 0xC0 ADD MLOAD PUSH16 0xFFFFFFFFFFFFFFFFFFFFFFFFFFFFFFFF AND PUSH2 0x3784 SWAP1 SWAP2 SWAP1 PUSH4 0xFFFFFFFF AND JUMP JUMPDEST PUSH2 0x37E5 JUMP JUMPDEST SWAP2 POP PUSH2 0x3295 DUP3 PUSH16 0xFFFFFFFFFFFFFFFFFFFFFFFFFFFFFFFF AND DUP5 PUSH1 0xC0 ADD MLOAD PUSH16 0xFFFFFFFFFFFFFFFFFFFFFFFFFFFFFFFF AND DUP6 PUSH1 0xA0 ADD MLOAD PUSH16 0xFFFFFFFFFFFFFFFFFFFFFFFFFFFFFFFF AND PUSH2 0x2E7B JUMP JUMPDEST SWAP1 POP PUSH16 0xFFFFFFFFFFFFFFFFFFFFFFFFFFFFFFFF DUP3 AND ISZERO DUP1 PUSH2 0x32C6 JUMPI POP PUSH16 0xFFFFFFFFFFFFFFFFFFFFFFFFFFFFFFFF DUP2 AND ISZERO JUMPDEST ISZERO PUSH2 0x32D6 JUMPI POP PUSH1 0x0 SWAP1 POP DUP1 PUSH2 0x3382 JUMP JUMPDEST PUSH2 0x100 DUP4 ADD MLOAD PUSH2 0x32F8 SWAP1 PUSH16 0xFFFFFFFFFFFFFFFFFFFFFFFFFFFFFFFF AND DUP4 PUSH2 0x3818 JUMP JUMPDEST PUSH16 0xFFFFFFFFFFFFFFFFFFFFFFFFFFFFFFFF AND PUSH2 0x3312 PUSH2 0x1F7E JUMP JUMPDEST PUSH1 0x0 ADD PUSH1 0x0 DUP6 PUSH1 0x0 ADD MLOAD DUP2 MSTORE PUSH1 0x20 ADD SWAP1 DUP2 MSTORE PUSH1 0x20 ADD PUSH1 0x0 KECCAK256 DUP2 SWAP1 SSTORE POP PUSH2 0x3358 DUP4 PUSH1 0x80 ADD MLOAD DUP5 PUSH1 0x40 ADD MLOAD DUP6 PUSH1 0x20 ADD MLOAD DUP6 PUSH16 0xFFFFFFFFFFFFFFFFFFFFFFFFFFFFFFFF AND PUSH2 0x3494 JUMP JUMPDEST PUSH2 0x3382 DUP4 PUSH1 0x60 ADD MLOAD DUP5 PUSH1 0x20 ADD MLOAD DUP6 PUSH1 0x40 ADD MLOAD DUP5 PUSH16 0xFFFFFFFFFFFFFFFFFFFFFFFFFFFFFFFF AND PUSH2 0x3494 JUMP JUMPDEST SWAP2 POP SWAP2 JUMP JUMPDEST PUSH1 0x60 PUSH32 0x15E6A383BB02D79EE933B927FBECBA78CDDE16CBA84B94A99661F44BCCE3B736 DUP5 DUP5 DUP5 PUSH1 0x40 MLOAD PUSH1 0x24 ADD PUSH2 0x263A SWAP4 SWAP3 SWAP2 SWAP1 PUSH2 0x4A6F JUMP JUMPDEST PUSH1 0x0 DUP1 PUSH2 0x33CA PUSH2 0x386D JUMP JUMPDEST SWAP1 POP DUP1 PUSH2 0x33DB JUMPI PUSH1 0x0 SWAP2 POP POP PUSH2 0x5E4 JUMP JUMPDEST PUSH1 0x0 PUSH2 0x33E6 DUP5 PUSH2 0x3899 JUMP JUMPDEST SWAP1 POP PUSH1 0x0 DUP2 PUSH20 0xFFFFFFFFFFFFFFFFFFFFFFFFFFFFFFFFFFFFFFFF AND DUP4 PUSH1 0x40 MLOAD PUSH2 0x340E SWAP1 PUSH2 0x4807 JUMP JUMPDEST PUSH1 0x0 PUSH1 0x40 MLOAD DUP1 DUP4 SUB DUP2 DUP6 DUP8 GAS CALL SWAP3 POP POP POP RETURNDATASIZE DUP1 PUSH1 0x0 DUP2 EQ PUSH2 0x344B JUMPI PUSH1 0x40 MLOAD SWAP2 POP PUSH1 0x1F NOT PUSH1 0x3F RETURNDATASIZE ADD AND DUP3 ADD PUSH1 0x40 MSTORE RETURNDATASIZE DUP3 MSTORE RETURNDATASIZE PUSH1 0x0 PUSH1 0x20 DUP5 ADD RETURNDATACOPY PUSH2 0x3450 JUMP JUMPDEST PUSH1 0x60 SWAP2 POP JUMPDEST POP POP SWAP1 POP DUP1 PUSH2 0x348B JUMPI PUSH1 0x40 MLOAD PUSH32 0x8C379A000000000000000000000000000000000000000000000000000000000 DUP2 MSTORE PUSH1 0x4 ADD PUSH2 0x655 SWAP1 PUSH2 0x4E06 JUMP JUMPDEST POP SWAP1 SWAP4 SWAP3 POP POP POP JUMP JUMPDEST PUSH1 0x0 PUSH1 0x60 PUSH20 0xFFFFFFFFFFFFFFFFFFFFFFFFFFFFFFFFFFFFFFFF DUP7 AND ADDRESS EQ ISZERO PUSH2 0x34E8 JUMPI PUSH1 0x40 MLOAD PUSH32 0x8C379A000000000000000000000000000000000000000000000000000000000 DUP2 MSTORE PUSH1 0x4 ADD PUSH2 0x655 SWAP1 PUSH2 0x4DA9 JUMP JUMPDEST PUSH2 0x34F1 DUP7 PUSH2 0x38E6 JUMP JUMPDEST ISZERO PUSH2 0x35C5 JUMPI PUSH1 0x40 MLOAD PUSH32 0xDD62ED3E00000000000000000000000000000000000000000000000000000000 DUP2 MSTORE DUP4 SWAP1 PUSH20 0xFFFFFFFFFFFFFFFFFFFFFFFFFFFFFFFFFFFFFFFF DUP9 AND SWAP1 PUSH4 0xDD62ED3E SWAP1 PUSH2 0x354C SWAP1 DUP10 SWAP1 ADDRESS SWAP1 PUSH1 0x4 ADD PUSH2 0x4905 JUMP JUMPDEST PUSH1 0x20 PUSH1 0x40 MLOAD DUP1 DUP4 SUB DUP2 DUP7 DUP1 EXTCODESIZE ISZERO DUP1 ISZERO PUSH2 0x3564 JUMPI PUSH1 0x0 DUP1 REVERT JUMPDEST POP GAS STATICCALL ISZERO DUP1 ISZERO PUSH2 0x3578 JUMPI RETURNDATASIZE PUSH1 0x0 DUP1 RETURNDATACOPY RETURNDATASIZE PUSH1 0x0 REVERT JUMPDEST POP POP POP POP PUSH1 0x40 MLOAD RETURNDATASIZE PUSH1 0x1F NOT PUSH1 0x1F DUP3 ADD AND DUP3 ADD DUP1 PUSH1 0x40 MSTORE POP DUP2 ADD SWAP1 PUSH2 0x359C SWAP2 SWAP1 PUSH2 0x45E5 JUMP JUMPDEST LT ISZERO PUSH2 0x35C5 JUMPI PUSH2 0x35BE DUP7 DUP7 DUP7 DUP7 PUSH1 0x40 MLOAD DUP1 PUSH1 0x20 ADD PUSH1 0x40 MSTORE DUP1 PUSH1 0x0 DUP2 MSTORE POP PUSH2 0x3926 JUMP JUMPDEST POP POP PUSH2 0x6B6 JUMP JUMPDEST PUSH1 0x40 MLOAD PUSH32 0x23B872DD00000000000000000000000000000000000000000000000000000000 DUP2 MSTORE PUSH20 0xFFFFFFFFFFFFFFFFFFFFFFFFFFFFFFFFFFFFFFFF DUP7 AND PUSH1 0x4 DUP3 ADD MSTORE PUSH20 0xFFFFFFFFFFFFFFFFFFFFFFFFFFFFFFFFFFFFFFFF DUP6 AND PUSH1 0x24 DUP3 ADD MSTORE DUP4 PUSH1 0x44 DUP3 ADD MSTORE PUSH1 0x0 DUP1 PUSH1 0x64 DUP4 PUSH1 0x0 PUSH20 0xFFFFFFFFFFFFFFFFFFFFFFFFFFFFFFFFFFFFFFFF DUP13 AND GAS CALL SWAP3 POP RETURNDATASIZE DUP1 PUSH1 0x0 PUSH1 0x20 DUP5 ADD RETURNDATACOPY PUSH1 0x1 PUSH1 0x20 DUP4 ADD MLOAD EQ PUSH1 0x20 DUP3 LT ISZERO AND DUP2 ISZERO OR DUP5 AND SWAP4 POP DUP4 PUSH2 0x367F JUMPI DUP1 DUP3 MSTORE DUP2 SWAP3 POP DUP1 PUSH1 0x20 DUP4 ADD ADD PUSH1 0x40 MSTORE JUMPDEST POP POP DUP2 PUSH2 0x3693 JUMPI PUSH2 0x3693 DUP7 DUP7 DUP7 DUP7 DUP6 PUSH2 0x3926 JUMP JUMPDEST POP POP POP POP POP POP JUMP JUMPDEST PUSH1 0x0 DUP3 DUP3 GT ISZERO PUSH2 0x36B4 JUMPI PUSH2 0x36B4 PUSH2 0xA83 PUSH1 0x2 DUP6 DUP6 PUSH2 0x39EE JUMP JUMPDEST POP SWAP1 SUB SWAP1 JUMP JUMPDEST PUSH1 0x60 PUSH32 0xBDE95CC2119E0200D80642397198ABFCF98E6E4DDDD0DE9C6320D86252AD40AB DUP4 DUP4 PUSH1 0x40 MLOAD PUSH1 0x24 ADD PUSH2 0x2C7F SWAP3 SWAP2 SWAP1 PUSH2 0x497E JUMP JUMPDEST PUSH1 0x0 DUP3 PUSH2 0x36FF JUMPI POP PUSH1 0x0 PUSH2 0x1F78 JUMP JUMPDEST DUP3 DUP3 MUL DUP3 DUP5 DUP3 DUP2 PUSH2 0x370C JUMPI INVALID JUMPDEST DIV EQ PUSH2 0x1E20 JUMPI PUSH2 0x1E20 PUSH2 0xA83 PUSH1 0x1 DUP7 DUP7 PUSH2 0x39EE JUMP JUMPDEST PUSH1 0x0 DUP2 PUSH2 0x3737 JUMPI PUSH2 0x3737 PUSH2 0xA83 PUSH1 0x3 DUP6 DUP6 PUSH2 0x39EE JUMP JUMPDEST PUSH1 0x0 DUP3 DUP5 DUP2 PUSH2 0x3742 JUMPI INVALID JUMPDEST DIV SWAP5 SWAP4 POP POP POP POP JUMP JUMPDEST PUSH1 0x0 DUP3 DUP3 ADD DUP4 DUP2 LT ISZERO PUSH2 0x1E20 JUMPI PUSH2 0x1E20 PUSH2 0xA83 PUSH1 0x0 DUP7 DUP7 PUSH2 0x39EE JUMP JUMPDEST PUSH1 0x60 PUSH4 0xC996AF7B PUSH1 0xE0 SHL DUP4 DUP4 PUSH1 0x40 MLOAD PUSH1 0x24 ADD PUSH2 0x2C7F SWAP3 SWAP2 SWAP1 PUSH2 0x4C5A JUMP JUMPDEST PUSH1 0x0 DUP3 PUSH16 0xFFFFFFFFFFFFFFFFFFFFFFFFFFFFFFFF AND DUP3 PUSH16 0xFFFFFFFFFFFFFFFFFFFFFFFFFFFFFFFF AND GT ISZERO PUSH2 0x36B4 JUMPI PUSH2 0x36B4 PUSH2 0xA83 PUSH1 0x2 DUP6 PUSH16 0xFFFFFFFFFFFFFFFFFFFFFFFFFFFFFFFF AND DUP6 PUSH16 0xFFFFFFFFFFFFFFFFFFFFFFFFFFFFFFFF AND PUSH2 0x39EE JUMP JUMPDEST PUSH1 0x0 DUP2 PUSH16 0xFFFFFFFFFFFFFFFFFFFFFFFFFFFFFFFF AND DUP4 PUSH16 0xFFFFFFFFFFFFFFFFFFFFFFFFFFFFFFFF AND LT PUSH2 0x2FDA JUMPI DUP2 PUSH2 0x1E20 JUMP JUMPDEST PUSH1 0x0 DUP3 DUP3 ADD PUSH16 0xFFFFFFFFFFFFFFFFFFFFFFFFFFFFFFFF DUP1 DUP6 AND SWAP1 DUP3 AND LT ISZERO PUSH2 0x1E20 JUMPI PUSH2 0x1E20 PUSH2 0xA83 PUSH1 0x0 DUP7 PUSH16 0xFFFFFFFFFFFFFFFFFFFFFFFFFFFFFFFF AND DUP7 PUSH16 0xFFFFFFFFFFFFFFFFFFFFFFFFFFFFFFFF AND PUSH2 0x39EE JUMP JUMPDEST PUSH4 0xFFFFFFFF PUSH32 0x0 AND GASPRICE MUL SWAP1 JUMP JUMPDEST PUSH1 0x0 PUSH2 0x5E1 PUSH32 0x0 PUSH32 0x0 DUP5 PUSH2 0x3A0D JUMP JUMPDEST PUSH1 0x0 DUP2 DUP2 MSTORE PUSH1 0x20 SWAP1 KECCAK256 PUSH1 0x1 PUSH1 0xFF SWAP3 DUP4 AND DUP2 SWAP1 SHL SWAP3 SWAP1 SWAP2 AND SHL OR PUSH32 0x0 DUP2 AND EQ SWAP1 JUMP JUMPDEST PUSH1 0x40 MLOAD PUSH32 0x89DD02E700000000000000000000000000000000000000000000000000000000 DUP2 MSTORE ADDRESS SWAP1 PUSH4 0x89DD02E7 SWAP1 PUSH2 0x3968 SWAP1 DUP9 SWAP1 DUP9 SWAP1 DUP9 SWAP1 DUP9 SWAP1 PUSH1 0x4 ADD PUSH2 0x485C JUMP JUMPDEST PUSH1 0x0 PUSH1 0x40 MLOAD DUP1 DUP4 SUB DUP2 PUSH1 0x0 DUP8 DUP1 EXTCODESIZE ISZERO DUP1 ISZERO PUSH2 0x3982 JUMPI PUSH1 0x0 DUP1 REVERT JUMPDEST POP GAS CALL SWAP3 POP POP POP DUP1 ISZERO PUSH2 0x3993 JUMPI POP PUSH1 0x1 JUMPDEST PUSH2 0x2075 JUMPI RETURNDATASIZE DUP1 DUP1 ISZERO PUSH2 0x39C1 JUMPI PUSH1 0x40 MLOAD SWAP2 POP PUSH1 0x1F NOT PUSH1 0x3F RETURNDATASIZE ADD AND DUP3 ADD PUSH1 0x40 MSTORE RETURNDATASIZE DUP3 MSTORE RETURNDATASIZE PUSH1 0x0 PUSH1 0x20 DUP5 ADD RETURNDATACOPY PUSH2 0x39C6 JUMP JUMPDEST PUSH1 0x60 SWAP2 POP JUMPDEST POP PUSH2 0x39E8 PUSH2 0xA83 DUP8 DUP8 DUP8 DUP8 DUP8 MLOAD PUSH1 0x0 EQ ISZERO PUSH2 0x39E1 JUMPI DUP7 PUSH2 0x39E3 JUMP JUMPDEST DUP8 JUMPDEST PUSH2 0x3A85 JUMP JUMPDEST POP PUSH2 0x2075 JUMP JUMPDEST PUSH1 0x60 PUSH4 0xE946C1BB PUSH1 0xE0 SHL DUP5 DUP5 DUP5 PUSH1 0x40 MLOAD PUSH1 0x24 ADD PUSH2 0x263A SWAP4 SWAP3 SWAP2 SWAP1 PUSH2 0x4C39 JUMP JUMPDEST PUSH1 0x40 MLOAD PUSH1 0x0 SWAP1 PUSH2 0x3A47 SWAP1 PUSH32 0xFF00000000000000000000000000000000000000000000000000000000000000 SWAP1 DUP7 SWAP1 DUP6 SWAP1 DUP8 SWAP1 PUSH1 0x20 ADD PUSH2 0x476D JUMP JUMPDEST PUSH1 0x40 DUP1 MLOAD PUSH32 0xFFFFFFFFFFFFFFFFFFFFFFFFFFFFFFFFFFFFFFFFFFFFFFFFFFFFFFFFFFFFFFE0 DUP2 DUP5 SUB ADD DUP2 MSTORE SWAP2 SWAP1 MSTORE DUP1 MLOAD PUSH1 0x20 SWAP1 SWAP2 ADD KECCAK256 SWAP5 SWAP4 POP POP POP POP JUMP JUMPDEST PUSH1 0x60 PUSH32 0xDFDC6F57CF82BEDE92BCFDD44FEDB82B2D5CECABF56EC21964DB6EE2C3E82CF4 DUP7 DUP7 DUP7 DUP7 DUP7 PUSH1 0x40 MLOAD PUSH1 0x24 ADD PUSH2 0x3AC1 SWAP6 SWAP5 SWAP4 SWAP3 SWAP2 SWAP1 PUSH2 0x492C JUMP JUMPDEST PUSH1 0x40 DUP1 MLOAD PUSH32 0xFFFFFFFFFFFFFFFFFFFFFFFFFFFFFFFFFFFFFFFFFFFFFFFFFFFFFFFFFFFFFFE0 DUP2 DUP5 SUB ADD DUP2 MSTORE SWAP2 SWAP1 MSTORE PUSH1 0x20 DUP2 ADD DUP1 MLOAD PUSH28 0xFFFFFFFFFFFFFFFFFFFFFFFFFFFFFFFFFFFFFFFFFFFFFFFFFFFFFFFF AND PUSH32 0xFFFFFFFF00000000000000000000000000000000000000000000000000000000 SWAP1 SWAP4 AND SWAP3 SWAP1 SWAP3 OR SWAP1 SWAP2 MSTORE SWAP1 POP SWAP6 SWAP5 POP POP POP POP POP JUMP JUMPDEST PUSH1 0x40 DUP1 MLOAD PUSH1 0x60 DUP2 ADD SWAP1 SWAP2 MSTORE PUSH1 0x0 DUP1 DUP3 MSTORE PUSH1 0x20 DUP3 ADD SWAP1 DUP2 MSTORE PUSH1 0x0 PUSH1 0x20 SWAP1 SWAP2 ADD MSTORE SWAP1 JUMP JUMPDEST PUSH1 0x40 DUP1 MLOAD PUSH1 0x80 DUP2 ADD DUP3 MSTORE PUSH1 0x0 DUP1 DUP3 MSTORE PUSH1 0x20 DUP3 ADD DUP2 SWAP1 MSTORE SWAP2 DUP2 ADD DUP3 SWAP1 MSTORE PUSH1 0x60 DUP2 ADD SWAP2 SWAP1 SWAP2 MSTORE SWAP1 JUMP JUMPDEST DUP1 CALLDATALOAD PUSH2 0x1F78 DUP2 PUSH2 0x53F4 JUMP JUMPDEST PUSH1 0x0 DUP3 PUSH1 0x1F DUP4 ADD SLT PUSH2 0x3BAD JUMPI DUP1 DUP2 REVERT JUMPDEST DUP2 CALLDATALOAD PUSH2 0x3BC0 PUSH2 0x3BBB DUP3 PUSH2 0x5397 JUMP JUMPDEST PUSH2 0x5370 JUMP JUMPDEST DUP2 DUP2 MSTORE SWAP2 POP PUSH1 0x20 DUP1 DUP4 ADD SWAP1 DUP5 DUP2 ADD DUP2 DUP5 MUL DUP7 ADD DUP3 ADD DUP8 LT ISZERO PUSH2 0x3BE1 JUMPI PUSH1 0x0 DUP1 REVERT JUMPDEST PUSH1 0x0 JUMPDEST DUP5 DUP2 LT ISZERO PUSH2 0x3C09 JUMPI DUP2 CALLDATALOAD PUSH2 0x3BF7 DUP2 PUSH2 0x53F4 JUMP JUMPDEST DUP5 MSTORE SWAP3 DUP3 ADD SWAP3 SWAP1 DUP3 ADD SWAP1 PUSH1 0x1 ADD PUSH2 0x3BE4 JUMP JUMPDEST POP POP POP POP POP SWAP3 SWAP2 POP POP JUMP JUMPDEST PUSH1 0x0 DUP1 DUP4 PUSH1 0x1F DUP5 ADD SLT PUSH2 0x3C25 JUMPI DUP2 DUP3 REVERT JUMPDEST POP DUP2 CALLDATALOAD PUSH8 0xFFFFFFFFFFFFFFFF DUP2 GT ISZERO PUSH2 0x3C3C JUMPI DUP2 DUP3 REVERT JUMPDEST PUSH1 0x20 DUP4 ADD SWAP2 POP DUP4 PUSH1 0x20 PUSH1 0x80 DUP4 MUL DUP6 ADD ADD GT ISZERO PUSH2 0x3C57 JUMPI PUSH1 0x0 DUP1 REVERT JUMPDEST SWAP3 POP SWAP3 SWAP1 POP JUMP JUMPDEST DUP1 CALLDATALOAD PUSH2 0x1F78 DUP2 PUSH2 0x5416 JUMP JUMPDEST PUSH1 0x0 PUSH2 0x180 DUP1 DUP4 DUP6 SUB SLT ISZERO PUSH2 0x3C7C JUMPI DUP2 DUP3 REVERT JUMPDEST PUSH2 0x3C85 DUP2 PUSH2 0x5370 JUMP JUMPDEST SWAP2 POP POP PUSH2 0x3C92 DUP4 DUP4 PUSH2 0x3B92 JUMP JUMPDEST DUP2 MSTORE PUSH2 0x3CA1 DUP4 PUSH1 0x20 DUP5 ADD PUSH2 0x3B92 JUMP JUMPDEST PUSH1 0x20 DUP3 ADD MSTORE PUSH2 0x3CB3 DUP4 PUSH1 0x40 DUP5 ADD PUSH2 0x3E77 JUMP JUMPDEST PUSH1 0x40 DUP3 ADD MSTORE PUSH2 0x3CC5 DUP4 PUSH1 0x60 DUP5 ADD PUSH2 0x3E77 JUMP JUMPDEST PUSH1 0x60 DUP3 ADD MSTORE PUSH2 0x3CD7 DUP4 PUSH1 0x80 DUP5 ADD PUSH2 0x3E77 JUMP JUMPDEST PUSH1 0x80 DUP3 ADD MSTORE PUSH2 0x3CE9 DUP4 PUSH1 0xA0 DUP5 ADD PUSH2 0x3B92 JUMP JUMPDEST PUSH1 0xA0 DUP3 ADD MSTORE PUSH2 0x3CFB DUP4 PUSH1 0xC0 DUP5 ADD PUSH2 0x3B92 JUMP JUMPDEST PUSH1 0xC0 DUP3 ADD MSTORE PUSH2 0x3D0D DUP4 PUSH1 0xE0 DUP5 ADD PUSH2 0x3B92 JUMP JUMPDEST PUSH1 0xE0 DUP3 ADD MSTORE PUSH2 0x100 PUSH2 0x3D21 DUP5 DUP3 DUP6 ADD PUSH2 0x3B92 JUMP JUMPDEST SWAP1 DUP3 ADD MSTORE PUSH2 0x120 DUP3 DUP2 ADD CALLDATALOAD SWAP1 DUP3 ADD MSTORE PUSH2 0x140 PUSH2 0x3D3F DUP5 DUP3 DUP6 ADD PUSH2 0x3E82 JUMP JUMPDEST DUP2 DUP4 ADD MSTORE POP PUSH2 0x160 DUP1 DUP4 ADD CALLDATALOAD DUP2 DUP4 ADD MSTORE POP SWAP3 SWAP2 POP POP JUMP JUMPDEST PUSH1 0x0 PUSH2 0x140 DUP1 DUP4 DUP6 SUB SLT ISZERO PUSH2 0x3D69 JUMPI DUP2 DUP3 REVERT JUMPDEST PUSH2 0x3D72 DUP2 PUSH2 0x5370 JUMP JUMPDEST SWAP2 POP POP PUSH2 0x3D7F DUP4 DUP4 PUSH2 0x3B92 JUMP JUMPDEST DUP2 MSTORE PUSH2 0x3D8E DUP4 PUSH1 0x20 DUP5 ADD PUSH2 0x3B92 JUMP JUMPDEST PUSH1 0x20 DUP3 ADD MSTORE PUSH2 0x3DA0 DUP4 PUSH1 0x40 DUP5 ADD PUSH2 0x3E77 JUMP JUMPDEST PUSH1 0x40 DUP3 ADD MSTORE PUSH2 0x3DB2 DUP4 PUSH1 0x60 DUP5 ADD PUSH2 0x3E77 JUMP JUMPDEST PUSH1 0x60 DUP3 ADD MSTORE PUSH2 0x3DC4 DUP4 PUSH1 0x80 DUP5 ADD PUSH2 0x3B92 JUMP JUMPDEST PUSH1 0x80 DUP3 ADD MSTORE PUSH2 0x3DD6 DUP4 PUSH1 0xA0 DUP5 ADD PUSH2 0x3B92 JUMP JUMPDEST PUSH1 0xA0 DUP3 ADD MSTORE PUSH2 0x3DE8 DUP4 PUSH1 0xC0 DUP5 ADD PUSH2 0x3B92 JUMP JUMPDEST PUSH1 0xC0 DUP3 ADD MSTORE PUSH1 0xE0 DUP3 ADD CALLDATALOAD PUSH1 0xE0 DUP3 ADD MSTORE PUSH2 0x100 PUSH2 0x3E06 DUP5 DUP3 DUP6 ADD PUSH2 0x3E82 JUMP JUMPDEST DUP2 DUP4 ADD MSTORE POP PUSH2 0x120 DUP1 DUP4 ADD CALLDATALOAD DUP2 DUP4 ADD MSTORE POP SWAP3 SWAP2 POP POP JUMP JUMPDEST PUSH1 0x0 PUSH1 0x80 DUP3 DUP5 SUB SLT ISZERO PUSH2 0x3E2E JUMPI DUP1 DUP2 REVERT JUMPDEST PUSH2 0x3E38 PUSH1 0x80 PUSH2 0x5370 JUMP JUMPDEST SWAP1 POP DUP2 CALLDATALOAD PUSH1 0x4 DUP2 LT PUSH2 0x3E49 JUMPI PUSH1 0x0 DUP1 REVERT JUMPDEST DUP2 MSTORE PUSH2 0x3E58 DUP4 PUSH1 0x20 DUP5 ADD PUSH2 0x3E9A JUMP JUMPDEST PUSH1 0x20 DUP3 ADD MSTORE PUSH1 0x40 DUP3 ADD CALLDATALOAD PUSH1 0x40 DUP3 ADD MSTORE PUSH1 0x60 DUP3 ADD CALLDATALOAD PUSH1 0x60 DUP3 ADD MSTORE SWAP3 SWAP2 POP POP JUMP JUMPDEST DUP1 CALLDATALOAD PUSH2 0x1F78 DUP2 PUSH2 0x5424 JUMP JUMPDEST DUP1 CALLDATALOAD PUSH8 0xFFFFFFFFFFFFFFFF DUP2 AND DUP2 EQ PUSH2 0x1F78 JUMPI PUSH1 0x0 DUP1 REVERT JUMPDEST DUP1 CALLDATALOAD PUSH1 0xFF DUP2 AND DUP2 EQ PUSH2 0x1F78 JUMPI PUSH1 0x0 DUP1 REVERT JUMPDEST PUSH1 0x0 DUP1 PUSH1 0x40 DUP4 DUP6 SUB SLT ISZERO PUSH2 0x3EBD JUMPI DUP2 DUP3 REVERT JUMPDEST DUP3 CALLDATALOAD PUSH8 0xFFFFFFFFFFFFFFFF DUP2 GT ISZERO PUSH2 0x3ED3 JUMPI DUP3 DUP4 REVERT JUMPDEST DUP4 ADD PUSH1 0x1F DUP2 ADD DUP6 SGT PUSH2 0x3EE3 JUMPI DUP3 DUP4 REVERT JUMPDEST DUP1 CALLDATALOAD PUSH2 0x3EF1 PUSH2 0x3BBB DUP3 PUSH2 0x5397 JUMP JUMPDEST DUP1 DUP3 DUP3 MSTORE PUSH1 0x20 DUP1 DUP4 ADD SWAP3 POP DUP1 DUP6 ADD DUP10 DUP3 DUP4 DUP8 MUL DUP9 ADD ADD GT ISZERO PUSH2 0x3F11 JUMPI DUP8 DUP9 REVERT JUMPDEST DUP8 SWAP6 POP JUMPDEST DUP5 DUP7 LT ISZERO PUSH2 0x3F3C JUMPI DUP1 CALLDATALOAD PUSH2 0x3F28 DUP2 PUSH2 0x53F4 JUMP JUMPDEST DUP5 MSTORE PUSH1 0x1 SWAP6 SWAP1 SWAP6 ADD SWAP5 SWAP3 DUP2 ADD SWAP3 DUP2 ADD PUSH2 0x3F15 JUMP JUMPDEST POP DUP2 SWAP7 POP PUSH2 0x3F4C DUP10 DUP3 DUP11 ADD PUSH2 0x3C5E JUMP JUMPDEST SWAP6 POP POP POP POP POP POP SWAP3 POP SWAP3 SWAP1 POP JUMP JUMPDEST PUSH1 0x0 DUP1 PUSH1 0x20 DUP4 DUP6 SUB SLT ISZERO PUSH2 0x3F6C JUMPI DUP2 DUP3 REVERT JUMPDEST DUP3 CALLDATALOAD PUSH8 0xFFFFFFFFFFFFFFFF DUP1 DUP3 GT ISZERO PUSH2 0x3F83 JUMPI DUP4 DUP5 REVERT JUMPDEST DUP2 DUP6 ADD SWAP2 POP DUP6 PUSH1 0x1F DUP4 ADD SLT PUSH2 0x3F96 JUMPI DUP4 DUP5 REVERT JUMPDEST DUP2 CALLDATALOAD DUP2 DUP2 GT ISZERO PUSH2 0x3FA4 JUMPI DUP5 DUP6 REVERT JUMPDEST DUP7 PUSH1 0x20 DUP1 DUP4 MUL DUP6 ADD ADD GT ISZERO PUSH2 0x3FB7 JUMPI DUP5 DUP6 REVERT JUMPDEST PUSH1 0x20 SWAP3 SWAP1 SWAP3 ADD SWAP7 SWAP2 SWAP6 POP SWAP1 SWAP4 POP POP POP POP JUMP JUMPDEST PUSH1 0x0 DUP1 PUSH1 0x0 PUSH1 0x60 DUP5 DUP7 SUB SLT ISZERO PUSH2 0x3FDD JUMPI DUP1 DUP2 REVERT JUMPDEST DUP4 CALLDATALOAD PUSH8 0xFFFFFFFFFFFFFFFF DUP1 DUP3 GT ISZERO PUSH2 0x3FF4 JUMPI DUP3 DUP4 REVERT JUMPDEST PUSH2 0x4000 DUP8 DUP4 DUP9 ADD PUSH2 0x3B9D JUMP JUMPDEST SWAP5 POP PUSH1 0x20 SWAP2 POP DUP2 DUP7 ADD CALLDATALOAD DUP2 DUP2 GT ISZERO PUSH2 0x4016 JUMPI DUP4 DUP5 REVERT JUMPDEST PUSH2 0x4022 DUP9 DUP3 DUP10 ADD PUSH2 0x3B9D JUMP JUMPDEST SWAP5 POP POP PUSH1 0x40 DUP7 ADD CALLDATALOAD DUP2 DUP2 GT ISZERO PUSH2 0x4036 JUMPI DUP4 DUP5 REVERT JUMPDEST DUP7 ADD SWAP1 POP PUSH1 0x1F DUP2 ADD DUP8 SGT PUSH2 0x4048 JUMPI DUP3 DUP4 REVERT JUMPDEST DUP1 CALLDATALOAD PUSH2 0x4056 PUSH2 0x3BBB DUP3 PUSH2 0x5397 JUMP JUMPDEST DUP2 DUP2 MSTORE DUP4 DUP2 ADD SWAP1 DUP4 DUP6 ADD DUP6 DUP5 MUL DUP6 ADD DUP7 ADD DUP12 LT ISZERO PUSH2 0x4072 JUMPI DUP7 DUP8 REVERT JUMPDEST DUP7 SWAP5 POP JUMPDEST DUP4 DUP6 LT ISZERO PUSH2 0x4094 JUMPI DUP1 CALLDATALOAD DUP4 MSTORE PUSH1 0x1 SWAP5 SWAP1 SWAP5 ADD SWAP4 SWAP2 DUP6 ADD SWAP2 DUP6 ADD PUSH2 0x4076 JUMP JUMPDEST POP DUP1 SWAP6 POP POP POP POP POP POP SWAP3 POP SWAP3 POP SWAP3 JUMP JUMPDEST PUSH1 0x0 DUP1 PUSH1 0x0 DUP1 PUSH1 0x40 DUP6 DUP8 SUB SLT ISZERO PUSH2 0x40B9 JUMPI DUP2 DUP3 REVERT JUMPDEST DUP5 CALLDATALOAD PUSH8 0xFFFFFFFFFFFFFFFF DUP1 DUP3 GT ISZERO PUSH2 0x40D0 JUMPI DUP4 DUP5 REVERT JUMPDEST DUP2 DUP8 ADD SWAP2 POP DUP8 PUSH1 0x1F DUP4 ADD SLT PUSH2 0x40E3 JUMPI DUP4 DUP5 REVERT JUMPDEST DUP2 CALLDATALOAD DUP2 DUP2 GT ISZERO PUSH2 0x40F1 JUMPI DUP5 DUP6 REVERT JUMPDEST DUP9 PUSH1 0x20 PUSH2 0x180 DUP4 MUL DUP6 ADD ADD GT ISZERO PUSH2 0x4106 JUMPI DUP5 DUP6 REVERT JUMPDEST PUSH1 0x20 SWAP3 DUP4 ADD SWAP7 POP SWAP5 POP SWAP1 DUP7 ADD CALLDATALOAD SWAP1 DUP1 DUP3 GT ISZERO PUSH2 0x4120 JUMPI DUP4 DUP5 REVERT JUMPDEST POP PUSH2 0x412D DUP8 DUP3 DUP9 ADD PUSH2 0x3C14 JUMP JUMPDEST SWAP6 SWAP9 SWAP5 SWAP8 POP SWAP6 POP POP POP POP JUMP JUMPDEST PUSH1 0x0 PUSH1 0x20 DUP1 DUP4 DUP6 SUB SLT ISZERO PUSH2 0x414B JUMPI DUP2 DUP3 REVERT JUMPDEST DUP3 CALLDATALOAD PUSH8 0xFFFFFFFFFFFFFFFF DUP2 GT ISZERO PUSH2 0x4161 JUMPI DUP3 DUP4 REVERT JUMPDEST DUP4 ADD PUSH1 0x1F DUP2 ADD DUP6 SGT PUSH2 0x4171 JUMPI DUP3 DUP4 REVERT JUMPDEST DUP1 CALLDATALOAD PUSH2 0x417F PUSH2 0x3BBB DUP3 PUSH2 0x5397 JUMP JUMPDEST DUP2 DUP2 MSTORE DUP4 DUP2 ADD SWAP1 DUP4 DUP6 ADD PUSH2 0x180 DUP1 DUP6 MUL DUP7 ADD DUP8 ADD DUP11 LT ISZERO PUSH2 0x419E JUMPI DUP8 DUP9 REVERT JUMPDEST DUP8 SWAP6 POP JUMPDEST DUP5 DUP7 LT ISZERO PUSH2 0x41CA JUMPI PUSH2 0x41B4 DUP11 DUP4 PUSH2 0x3C69 JUMP JUMPDEST DUP5 MSTORE PUSH1 0x1 SWAP6 SWAP1 SWAP6 ADD SWAP5 SWAP3 DUP7 ADD SWAP3 SWAP1 DUP2 ADD SWAP1 PUSH2 0x41A2 JUMP JUMPDEST POP SWAP1 SWAP9 SWAP8 POP POP POP POP POP POP POP POP JUMP JUMPDEST PUSH1 0x0 DUP1 PUSH1 0x0 DUP1 PUSH1 0x40 DUP6 DUP8 SUB SLT ISZERO PUSH2 0x41ED JUMPI DUP2 DUP3 REVERT JUMPDEST DUP5 CALLDATALOAD PUSH8 0xFFFFFFFFFFFFFFFF DUP1 DUP3 GT ISZERO PUSH2 0x4204 JUMPI DUP4 DUP5 REVERT JUMPDEST DUP2 DUP8 ADD SWAP2 POP DUP8 PUSH1 0x1F DUP4 ADD SLT PUSH2 0x4217 JUMPI DUP4 DUP5 REVERT JUMPDEST DUP2 CALLDATALOAD DUP2 DUP2 GT ISZERO PUSH2 0x4225 JUMPI DUP5 DUP6 REVERT JUMPDEST DUP9 PUSH1 0x20 PUSH2 0x140 DUP4 MUL DUP6 ADD ADD GT ISZERO PUSH2 0x4106 JUMPI DUP5 DUP6 REVERT JUMPDEST PUSH1 0x0 PUSH1 0x20 DUP1 DUP4 DUP6 SUB SLT ISZERO PUSH2 0x424C JUMPI DUP2 DUP3 REVERT JUMPDEST DUP3 CALLDATALOAD PUSH8 0xFFFFFFFFFFFFFFFF DUP2 GT ISZERO PUSH2 0x4262 JUMPI DUP3 DUP4 REVERT JUMPDEST DUP4 ADD PUSH1 0x1F DUP2 ADD DUP6 SGT PUSH2 0x4272 JUMPI DUP3 DUP4 REVERT JUMPDEST DUP1 CALLDATALOAD PUSH2 0x4280 PUSH2 0x3BBB DUP3 PUSH2 0x5397 JUMP JUMPDEST DUP2 DUP2 MSTORE DUP4 DUP2 ADD SWAP1 DUP4 DUP6 ADD PUSH2 0x140 DUP1 DUP6 MUL DUP7 ADD DUP8 ADD DUP11 LT ISZERO PUSH2 0x429F JUMPI DUP8 DUP9 REVERT JUMPDEST DUP8 SWAP6 POP JUMPDEST DUP5 DUP7 LT ISZERO PUSH2 0x41CA JUMPI PUSH2 0x42B5 DUP11 DUP4 PUSH2 0x3D56 JUMP JUMPDEST DUP5 MSTORE PUSH1 0x1 SWAP6 SWAP1 SWAP6 ADD SWAP5 SWAP3 DUP7 ADD SWAP3 SWAP1 DUP2 ADD SWAP1 PUSH2 0x42A3 JUMP JUMPDEST PUSH1 0x0 PUSH1 0x20 DUP3 DUP5 SUB SLT ISZERO PUSH2 0x42DC JUMPI DUP1 DUP2 REVERT JUMPDEST DUP2 MLOAD PUSH2 0x1E20 DUP2 PUSH2 0x53F4 JUMP JUMPDEST PUSH1 0x0 DUP1 PUSH1 0x0 PUSH1 0x60 DUP5 DUP7 SUB SLT ISZERO PUSH2 0x42FB JUMPI DUP1 DUP2 REVERT JUMPDEST DUP4 CALLDATALOAD PUSH2 0x4306 DUP2 PUSH2 0x53F4 JUMP JUMPDEST SWAP3 POP PUSH1 0x20 DUP5 ADD CALLDATALOAD PUSH2 0x4316 DUP2 PUSH2 0x53F4 JUMP JUMPDEST SWAP3 SWAP6 SWAP3 SWAP5 POP POP POP PUSH1 0x40 SWAP2 SWAP1 SWAP2 ADD CALLDATALOAD SWAP1 JUMP JUMPDEST PUSH1 0x0 PUSH2 0x180 DUP3 DUP5 SUB SLT ISZERO PUSH2 0x4339 JUMPI DUP1 DUP2 REVERT JUMPDEST PUSH2 0x1E20 DUP4 DUP4 PUSH2 0x3C69 JUMP JUMPDEST PUSH1 0x0 DUP1 DUP3 DUP5 SUB PUSH2 0x200 DUP2 SLT ISZERO PUSH2 0x4357 JUMPI DUP3 DUP4 REVERT JUMPDEST PUSH2 0x4361 DUP6 DUP6 PUSH2 0x3C69 JUMP JUMPDEST SWAP3 POP PUSH1 0x80 PUSH32 0xFFFFFFFFFFFFFFFFFFFFFFFFFFFFFFFFFFFFFFFFFFFFFFFFFFFFFFFFFFFFFE80 DUP3 ADD SLT ISZERO PUSH2 0x4392 JUMPI DUP2 DUP3 REVERT JUMPDEST POP PUSH2 0x180 DUP4 ADD SWAP1 POP SWAP3 POP SWAP3 SWAP1 POP JUMP JUMPDEST PUSH1 0x0 DUP1 PUSH1 0x0 PUSH2 0x220 DUP5 DUP7 SUB SLT ISZERO PUSH2 0x43B6 JUMPI DUP1 DUP2 REVERT JUMPDEST PUSH2 0x43C0 DUP6 DUP6 PUSH2 0x3C69 JUMP JUMPDEST SWAP3 POP PUSH2 0x43D0 DUP6 PUSH2 0x180 DUP7 ADD PUSH2 0x3E1D JUMP JUMPDEST SWAP2 POP PUSH2 0x200 DUP5 ADD CALLDATALOAD PUSH2 0x43E1 DUP2 PUSH2 0x5424 JUMP JUMPDEST DUP1 SWAP2 POP POP SWAP3 POP SWAP3 POP SWAP3 JUMP JUMPDEST PUSH1 0x0 DUP1 PUSH1 0x0 DUP1 PUSH1 0x0 PUSH2 0x260 DUP7 DUP9 SUB SLT ISZERO PUSH2 0x4404 JUMPI DUP3 DUP4 REVERT JUMPDEST PUSH2 0x440E DUP8 DUP8 PUSH2 0x3C69 JUMP JUMPDEST SWAP5 POP PUSH2 0x441E DUP8 PUSH2 0x180 DUP9 ADD PUSH2 0x3E1D JUMP JUMPDEST SWAP4 POP PUSH2 0x200 DUP7 ADD CALLDATALOAD PUSH2 0x442F DUP2 PUSH2 0x5424 JUMP JUMPDEST SWAP3 POP PUSH2 0x220 DUP7 ADD CALLDATALOAD PUSH2 0x4440 DUP2 PUSH2 0x53F4 JUMP JUMPDEST SWAP2 POP PUSH2 0x240 DUP7 ADD CALLDATALOAD PUSH2 0x4451 DUP2 PUSH2 0x53F4 JUMP JUMPDEST DUP1 SWAP2 POP POP SWAP3 SWAP6 POP SWAP3 SWAP6 SWAP1 SWAP4 POP JUMP JUMPDEST PUSH1 0x0 DUP1 PUSH1 0x0 DUP4 DUP6 SUB PUSH1 0xA0 DUP2 SLT ISZERO PUSH2 0x4474 JUMPI DUP2 DUP3 REVERT JUMPDEST PUSH1 0x60 DUP2 SLT ISZERO PUSH2 0x4481 JUMPI DUP2 DUP3 REVERT JUMPDEST POP PUSH2 0x448C PUSH1 0x60 PUSH2 0x5370 JUMP JUMPDEST DUP5 MLOAD DUP2 MSTORE PUSH1 0x20 DUP6 ADD MLOAD PUSH1 0x5 DUP2 LT PUSH2 0x44A1 JUMPI DUP3 DUP4 REVERT JUMPDEST PUSH1 0x20 DUP3 ADD MSTORE PUSH1 0x40 DUP6 ADD MLOAD PUSH2 0x44B4 DUP2 PUSH2 0x5424 JUMP JUMPDEST PUSH1 0x40 DUP3 ADD MSTORE PUSH1 0x60 DUP6 ADD MLOAD SWAP1 SWAP4 POP PUSH2 0x44CA DUP2 PUSH2 0x5424 JUMP JUMPDEST PUSH1 0x80 DUP6 ADD MLOAD SWAP1 SWAP3 POP PUSH2 0x43E1 DUP2 PUSH2 0x5416 JUMP JUMPDEST PUSH1 0x0 PUSH2 0x140 DUP3 DUP5 SUB SLT ISZERO PUSH2 0x44ED JUMPI DUP1 DUP2 REVERT JUMPDEST PUSH2 0x1E20 DUP4 DUP4 PUSH2 0x3D56 JUMP JUMPDEST PUSH1 0x0 DUP1 PUSH2 0x1C0 DUP4 DUP6 SUB SLT ISZERO PUSH2 0x450A JUMPI DUP2 DUP3 REVERT JUMPDEST PUSH2 0x4514 DUP5 DUP5 PUSH2 0x3D56 JUMP JUMPDEST SWAP2 POP PUSH2 0x4524 DUP5 PUSH2 0x140 DUP6 ADD PUSH2 0x3E1D JUMP JUMPDEST SWAP1 POP SWAP3 POP SWAP3 SWAP1 POP JUMP JUMPDEST PUSH1 0x0 DUP1 PUSH1 0x0 PUSH2 0x1E0 DUP5 DUP7 SUB SLT ISZERO PUSH2 0x4542 JUMPI DUP1 DUP2 REVERT JUMPDEST PUSH2 0x454C DUP6 DUP6 PUSH2 0x3D56 JUMP JUMPDEST SWAP3 POP PUSH2 0x455C DUP6 PUSH2 0x140 DUP7 ADD PUSH2 0x3E1D JUMP JUMPDEST SWAP2 POP PUSH2 0x1C0 DUP5 ADD CALLDATALOAD PUSH2 0x43E1 DUP2 PUSH2 0x5424 JUMP JUMPDEST PUSH1 0x0 DUP1 PUSH1 0x0 DUP1 PUSH2 0x200 DUP6 DUP8 SUB SLT ISZERO PUSH2 0x4583 JUMPI DUP2 DUP3 REVERT JUMPDEST PUSH2 0x458D DUP7 DUP7 PUSH2 0x3D56 JUMP JUMPDEST SWAP4 POP PUSH2 0x459D DUP7 PUSH2 0x140 DUP8 ADD PUSH2 0x3E1D JUMP JUMPDEST SWAP3 POP PUSH2 0x1C0 DUP6 ADD CALLDATALOAD PUSH2 0x45AE DUP2 PUSH2 0x5424 JUMP JUMPDEST SWAP2 POP PUSH2 0x1E0 DUP6 ADD CALLDATALOAD PUSH2 0x45BF DUP2 PUSH2 0x53F4 JUMP JUMPDEST SWAP4 SWAP7 SWAP3 SWAP6 POP SWAP1 SWAP4 POP POP JUMP JUMPDEST PUSH1 0x0 PUSH1 0x80 DUP3 DUP5 SUB SLT ISZERO PUSH2 0x45DB JUMPI DUP1 DUP2 REVERT JUMPDEST PUSH2 0x1E20 DUP4 DUP4 PUSH2 0x3E1D JUMP JUMPDEST PUSH1 0x0 PUSH1 0x20 DUP3 DUP5 SUB SLT ISZERO PUSH2 0x45F6 JUMPI DUP1 DUP2 REVERT JUMPDEST POP MLOAD SWAP2 SWAP1 POP JUMP JUMPDEST PUSH20 0xFFFFFFFFFFFFFFFFFFFFFFFFFFFFFFFFFFFFFFFF AND SWAP1 MSTORE JUMP JUMPDEST PUSH1 0x0 DUP2 MLOAD DUP1 DUP5 MSTORE PUSH1 0x20 DUP1 DUP6 ADD SWAP5 POP DUP1 DUP5 ADD DUP4 JUMPDEST DUP4 DUP2 LT ISZERO PUSH2 0x4648 JUMPI DUP2 MLOAD ISZERO ISZERO DUP8 MSTORE SWAP6 DUP3 ADD SWAP6 SWAP1 DUP3 ADD SWAP1 PUSH1 0x1 ADD PUSH2 0x462A JUMP JUMPDEST POP SWAP5 SWAP6 SWAP5 POP POP POP POP POP JUMP JUMPDEST PUSH1 0x0 DUP2 MLOAD DUP1 DUP5 MSTORE DUP2 JUMPDEST DUP2 DUP2 LT ISZERO PUSH2 0x4678 JUMPI PUSH1 0x20 DUP2 DUP6 ADD DUP2 ADD MLOAD DUP7 DUP4 ADD DUP3 ADD MSTORE ADD PUSH2 0x465C JUMP JUMPDEST DUP2 DUP2 GT ISZERO PUSH2 0x4689 JUMPI DUP3 PUSH1 0x20 DUP4 DUP8 ADD ADD MSTORE JUMPDEST POP PUSH1 0x1F ADD PUSH32 0xFFFFFFFFFFFFFFFFFFFFFFFFFFFFFFFFFFFFFFFFFFFFFFFFFFFFFFFFFFFFFFE0 AND SWAP3 SWAP1 SWAP3 ADD PUSH1 0x20 ADD SWAP3 SWAP2 POP POP JUMP JUMPDEST PUSH2 0x46C5 DUP2 PUSH2 0x53EA JUMP JUMPDEST SWAP1 MSTORE JUMP JUMPDEST DUP1 MLOAD DUP3 MSTORE PUSH1 0x20 DUP2 ADD MLOAD PUSH1 0x5 DUP2 LT PUSH2 0x46DC JUMPI INVALID JUMPDEST PUSH1 0x20 DUP4 ADD MSTORE PUSH1 0x40 SWAP1 DUP2 ADD MLOAD PUSH16 0xFFFFFFFFFFFFFFFFFFFFFFFFFFFFFFFF AND SWAP2 ADD MSTORE JUMP JUMPDEST DUP1 CALLDATALOAD PUSH1 0x4 DUP2 LT PUSH2 0x470D JUMPI PUSH1 0x0 DUP1 REVERT JUMPDEST PUSH2 0x4716 DUP2 PUSH2 0x53EA JUMP JUMPDEST DUP3 MSTORE PUSH1 0x40 DUP2 ADD PUSH1 0xFF PUSH2 0x472B DUP3 PUSH1 0x20 DUP6 ADD PUSH2 0x3E9A JUMP JUMPDEST AND PUSH1 0x20 DUP5 ADD MSTORE CALLDATALOAD PUSH1 0x40 DUP4 ADD MSTORE PUSH1 0x60 SWAP1 DUP2 ADD CALLDATALOAD SWAP2 ADD MSTORE JUMP JUMPDEST PUSH16 0xFFFFFFFFFFFFFFFFFFFFFFFFFFFFFFFF AND SWAP1 MSTORE JUMP JUMPDEST PUSH8 0xFFFFFFFFFFFFFFFF AND SWAP1 MSTORE JUMP JUMPDEST PUSH1 0xFF AND SWAP1 MSTORE JUMP JUMPDEST PUSH32 0xFF00000000000000000000000000000000000000000000000000000000000000 SWAP5 SWAP1 SWAP5 AND DUP5 MSTORE PUSH1 0x60 SWAP3 SWAP1 SWAP3 SHL PUSH32 0xFFFFFFFFFFFFFFFFFFFFFFFFFFFFFFFFFFFFFFFF000000000000000000000000 AND PUSH1 0x1 DUP5 ADD MSTORE PUSH1 0x15 DUP4 ADD MSTORE PUSH1 0x35 DUP3 ADD MSTORE PUSH1 0x55 ADD SWAP1 JUMP JUMPDEST PUSH32 0x1901000000000000000000000000000000000000000000000000000000000000 DUP2 MSTORE PUSH1 0x2 DUP2 ADD SWAP3 SWAP1 SWAP3 MSTORE PUSH1 0x22 DUP3 ADD MSTORE PUSH1 0x42 ADD SWAP1 JUMP JUMPDEST SWAP1 JUMP JUMPDEST PUSH20 0xFFFFFFFFFFFFFFFFFFFFFFFFFFFFFFFFFFFFFFFF SWAP2 SWAP1 SWAP2 AND DUP2 MSTORE PUSH1 0x20 ADD SWAP1 JUMP JUMPDEST PUSH20 0xFFFFFFFFFFFFFFFFFFFFFFFFFFFFFFFFFFFFFFFF SWAP4 DUP5 AND DUP2 MSTORE SWAP2 SWAP1 SWAP3 AND PUSH1 0x20 DUP3 ADD MSTORE PUSH1 0x40 DUP2 ADD SWAP2 SWAP1 SWAP2 MSTORE PUSH1 0x60 ADD SWAP1 JUMP JUMPDEST PUSH20 0xFFFFFFFFFFFFFFFFFFFFFFFFFFFFFFFFFFFFFFFF SWAP5 DUP6 AND DUP2 MSTORE SWAP3 DUP5 AND PUSH1 0x20 DUP5 ADD MSTORE SWAP3 AND PUSH1 0x40 DUP3 ADD MSTORE PUSH1 0x60 DUP2 ADD SWAP2 SWAP1 SWAP2 MSTORE PUSH1 0x80 ADD SWAP1 JUMP JUMPDEST PUSH1 0x0 PUSH1 0x60 DUP3 ADD PUSH20 0xFFFFFFFFFFFFFFFFFFFFFFFFFFFFFFFFFFFFFFFF DUP1 DUP8 AND DUP5 MSTORE PUSH1 0x20 PUSH1 0x60 DUP2 DUP7 ADD MSTORE DUP3 DUP8 MLOAD DUP1 DUP6 MSTORE PUSH1 0x80 DUP8 ADD SWAP2 POP DUP3 DUP10 ADD SWAP5 POP DUP6 JUMPDEST DUP2 DUP2 LT ISZERO PUSH2 0x48EC JUMPI DUP6 MLOAD DUP6 AND DUP4 MSTORE SWAP5 DUP4 ADD SWAP5 SWAP2 DUP4 ADD SWAP2 PUSH1 0x1 ADD PUSH2 0x48CE JUMP JUMPDEST POP POP DUP1 SWAP5 POP POP POP POP POP DUP3 ISZERO ISZERO PUSH1 0x40 DUP4 ADD MSTORE SWAP5 SWAP4 POP POP POP POP JUMP JUMPDEST PUSH20 0xFFFFFFFFFFFFFFFFFFFFFFFFFFFFFFFFFFFFFFFF SWAP3 DUP4 AND DUP2 MSTORE SWAP2 AND PUSH1 0x20 DUP3 ADD MSTORE PUSH1 0x40 ADD SWAP1 JUMP JUMPDEST PUSH1 0x0 PUSH20 0xFFFFFFFFFFFFFFFFFFFFFFFFFFFFFFFFFFFFFFFF DUP1 DUP9 AND DUP4 MSTORE DUP1 DUP8 AND PUSH1 0x20 DUP5 ADD MSTORE DUP1 DUP7 AND PUSH1 0x40 DUP5 ADD MSTORE POP DUP4 PUSH1 0x60 DUP4 ADD MSTORE PUSH1 0xA0 PUSH1 0x80 DUP4 ADD MSTORE PUSH2 0x4973 PUSH1 0xA0 DUP4 ADD DUP5 PUSH2 0x4653 JUMP JUMPDEST SWAP8 SWAP7 POP POP POP POP POP POP POP JUMP JUMPDEST PUSH20 0xFFFFFFFFFFFFFFFFFFFFFFFFFFFFFFFFFFFFFFFF SWAP3 SWAP1 SWAP3 AND DUP3 MSTORE PUSH1 0x20 DUP3 ADD MSTORE PUSH1 0x40 ADD SWAP1 JUMP JUMPDEST PUSH1 0x60 DUP1 DUP3 MSTORE DUP5 MLOAD DUP3 DUP3 ADD DUP2 SWAP1 MSTORE PUSH1 0x0 SWAP2 SWAP1 PUSH1 0x20 SWAP1 PUSH1 0x80 DUP6 ADD SWAP1 DUP3 DUP10 ADD DUP6 JUMPDEST DUP3 DUP2 LT ISZERO PUSH2 0x49E5 JUMPI PUSH2 0x49D5 DUP5 DUP4 MLOAD PUSH2 0x46C9 JUMP JUMPDEST SWAP3 DUP6 ADD SWAP3 SWAP1 DUP5 ADD SWAP1 PUSH1 0x1 ADD PUSH2 0x49C2 JUMP JUMPDEST POP POP POP DUP5 DUP2 SUB DUP3 DUP7 ADD MSTORE DUP7 MLOAD DUP1 DUP3 MSTORE SWAP1 DUP3 ADD SWAP3 POP DUP7 DUP3 ADD SWAP1 DUP5 JUMPDEST DUP2 DUP2 LT ISZERO PUSH2 0x4A22 JUMPI PUSH2 0x4A12 DUP6 DUP5 MLOAD PUSH2 0x4742 JUMP JUMPDEST SWAP4 DUP4 ADD SWAP4 SWAP2 DUP4 ADD SWAP2 PUSH1 0x1 ADD PUSH2 0x49FF JUMP JUMPDEST POP POP POP POP DUP3 DUP2 SUB PUSH1 0x40 DUP5 ADD MSTORE PUSH2 0x4A38 DUP2 DUP6 PUSH2 0x4617 JUMP JUMPDEST SWAP7 SWAP6 POP POP POP POP POP POP JUMP JUMPDEST SWAP1 DUP2 MSTORE PUSH1 0x20 ADD SWAP1 JUMP JUMPDEST SWAP2 DUP3 MSTORE PUSH20 0xFFFFFFFFFFFFFFFFFFFFFFFFFFFFFFFFFFFFFFFF AND PUSH1 0x20 DUP3 ADD MSTORE PUSH1 0x40 ADD SWAP1 JUMP JUMPDEST SWAP3 DUP4 MSTORE PUSH20 0xFFFFFFFFFFFFFFFFFFFFFFFFFFFFFFFFFFFFFFFF SWAP2 DUP3 AND PUSH1 0x20 DUP5 ADD MSTORE AND PUSH1 0x40 DUP3 ADD MSTORE PUSH1 0x60 ADD SWAP1 JUMP JUMPDEST SWAP11 DUP12 MSTORE PUSH20 0xFFFFFFFFFFFFFFFFFFFFFFFFFFFFFFFFFFFFFFFF SWAP10 DUP11 AND PUSH1 0x20 DUP13 ADD MSTORE SWAP8 DUP10 AND PUSH1 0x40 DUP12 ADD MSTORE SWAP6 DUP9 AND PUSH1 0x60 DUP11 ADD MSTORE SWAP4 DUP8 AND PUSH1 0x80 DUP10 ADD MSTORE SWAP2 SWAP1 SWAP6 AND PUSH1 0xA0 DUP8 ADD MSTORE PUSH16 0xFFFFFFFFFFFFFFFFFFFFFFFFFFFFFFFF SWAP5 DUP6 AND PUSH1 0xC0 DUP8 ADD MSTORE DUP5 AND PUSH1 0xE0 DUP7 ADD MSTORE SWAP1 SWAP3 AND PUSH2 0x100 DUP5 ADD MSTORE PUSH2 0x120 DUP4 ADD SWAP2 SWAP1 SWAP2 MSTORE PUSH2 0x140 DUP3 ADD MSTORE PUSH2 0x160 ADD SWAP1 JUMP JUMPDEST SWAP8 DUP9 MSTORE PUSH20 0xFFFFFFFFFFFFFFFFFFFFFFFFFFFFFFFFFFFFFFFF SWAP7 DUP8 AND PUSH1 0x20 DUP10 ADD MSTORE SWAP5 DUP7 AND PUSH1 0x40 DUP9 ADD MSTORE SWAP3 DUP6 AND PUSH1 0x60 DUP8 ADD MSTORE SWAP4 AND PUSH1 0x80 DUP6 ADD MSTORE PUSH16 0xFFFFFFFFFFFFFFFFFFFFFFFFFFFFFFFF SWAP3 DUP4 AND PUSH1 0xA0 DUP6 ADD MSTORE SWAP1 SWAP2 AND PUSH1 0xC0 DUP4 ADD MSTORE PUSH1 0xE0 DUP3 ADD MSTORE PUSH2 0x100 ADD SWAP1 JUMP JUMPDEST SWAP3 DUP4 MSTORE PUSH1 0x20 DUP4 ADD SWAP2 SWAP1 SWAP2 MSTORE PUSH1 0x40 DUP3 ADD MSTORE PUSH1 0x60 ADD SWAP1 JUMP JUMPDEST SWAP2 DUP3 MSTORE PUSH1 0xFF AND PUSH1 0x20 DUP3 ADD MSTORE PUSH1 0x40 ADD SWAP1 JUMP JUMPDEST SWAP4 DUP5 MSTORE PUSH1 0xFF SWAP3 SWAP1 SWAP3 AND PUSH1 0x20 DUP5 ADD MSTORE PUSH1 0x40 DUP4 ADD MSTORE PUSH1 0x60 DUP3 ADD MSTORE PUSH1 0x80 ADD SWAP1 JUMP JUMPDEST PUSH32 0xFFFFFFFF00000000000000000000000000000000000000000000000000000000 SWAP2 SWAP1 SWAP2 AND DUP2 MSTORE PUSH1 0x20 ADD SWAP1 JUMP JUMPDEST PUSH32 0xFFFFFFFF00000000000000000000000000000000000000000000000000000000 SWAP3 SWAP1 SWAP3 AND DUP3 MSTORE PUSH20 0xFFFFFFFFFFFFFFFFFFFFFFFFFFFFFFFFFFFFFFFF AND PUSH1 0x20 DUP3 ADD MSTORE PUSH1 0x40 ADD SWAP1 JUMP JUMPDEST PUSH1 0x60 DUP2 ADD PUSH2 0x4C46 DUP6 PUSH2 0x53EA JUMP JUMPDEST SWAP4 DUP2 MSTORE PUSH1 0x20 DUP2 ADD SWAP3 SWAP1 SWAP3 MSTORE PUSH1 0x40 SWAP1 SWAP2 ADD MSTORE SWAP1 JUMP JUMPDEST PUSH1 0x40 DUP2 ADD PUSH2 0x4C67 DUP5 PUSH2 0x53EA JUMP JUMPDEST SWAP3 DUP2 MSTORE PUSH1 0x20 ADD MSTORE SWAP1 JUMP JUMPDEST PUSH1 0x40 DUP2 ADD PUSH1 0x6 DUP5 LT PUSH2 0x4C67 JUMPI INVALID JUMPDEST PUSH1 0x0 PUSH1 0x20 DUP3 MSTORE PUSH2 0x1E20 PUSH1 0x20 DUP4 ADD DUP5 PUSH2 0x4653 JUMP JUMPDEST PUSH1 0x20 DUP1 DUP3 MSTORE PUSH1 0x2C SWAP1 DUP3 ADD MSTORE PUSH32 0x4E61746976654F7264657273466561747572652F4D49534D4154434845445F41 PUSH1 0x40 DUP3 ADD MSTORE PUSH32 0x525241595F4C454E475448530000000000000000000000000000000000000000 PUSH1 0x60 DUP3 ADD MSTORE PUSH1 0x80 ADD SWAP1 JUMP JUMPDEST PUSH1 0x20 DUP1 DUP3 MSTORE PUSH1 0x27 SWAP1 DUP3 ADD MSTORE PUSH32 0x4E61746976654F7264657273466561747572652F4E4F5F434F4E54524143545F PUSH1 0x40 DUP3 ADD MSTORE PUSH32 0x4F524947494E5300000000000000000000000000000000000000000000000000 PUSH1 0x60 DUP3 ADD MSTORE PUSH1 0x80 ADD SWAP1 JUMP JUMPDEST PUSH1 0x20 DUP1 DUP3 MSTORE PUSH1 0x38 SWAP1 DUP3 ADD MSTORE PUSH32 0x4E61746976654F7264657273466561747572652F4D49534D4154434845445F50 PUSH1 0x40 DUP3 ADD MSTORE PUSH32 0x4149525F4F52444552535F41525241595F4C454E475448530000000000000000 PUSH1 0x60 DUP3 ADD MSTORE PUSH1 0x80 ADD SWAP1 JUMP JUMPDEST PUSH1 0x20 DUP1 DUP3 MSTORE PUSH1 0x24 SWAP1 DUP3 ADD MSTORE PUSH32 0x466978696E546F6B656E5370656E6465722F43414E4E4F545F494E564F4B455F PUSH1 0x40 DUP3 ADD MSTORE PUSH32 0x53454C4600000000000000000000000000000000000000000000000000000000 PUSH1 0x60 DUP3 ADD MSTORE PUSH1 0x80 ADD SWAP1 JUMP JUMPDEST PUSH1 0x20 DUP1 DUP3 MSTORE PUSH1 0x27 SWAP1 DUP3 ADD MSTORE PUSH32 0x466978696E50726F746F636F6C466565732F45544845525F5452414E53464552 PUSH1 0x40 DUP3 ADD MSTORE PUSH32 0x5F46414C49454400000000000000000000000000000000000000000000000000 PUSH1 0x60 DUP3 ADD MSTORE PUSH1 0x80 ADD SWAP1 JUMP JUMPDEST PUSH2 0x200 DUP2 ADD PUSH1 0x20 DUP5 ADD PUSH2 0x4E7F DUP4 PUSH2 0x4E7A DUP4 DUP9 PUSH2 0x3B92 JUMP JUMPDEST PUSH2 0x45FD JUMP JUMPDEST PUSH2 0x4E89 DUP2 DUP7 PUSH2 0x53B7 JUMP JUMPDEST SWAP1 POP PUSH2 0x4E98 PUSH1 0x20 DUP5 ADD DUP3 PUSH2 0x45FD JUMP JUMPDEST POP PUSH2 0x4EA6 PUSH1 0x40 DUP6 ADD DUP6 PUSH2 0x53C4 JUMP JUMPDEST PUSH2 0x4EB3 PUSH1 0x40 DUP5 ADD DUP3 PUSH2 0x4742 JUMP JUMPDEST POP PUSH2 0x4EC1 PUSH1 0x60 DUP6 ADD DUP6 PUSH2 0x53C4 JUMP JUMPDEST PUSH2 0x4ECE PUSH1 0x60 DUP5 ADD DUP3 PUSH2 0x4742 JUMP JUMPDEST POP PUSH2 0x4EDC PUSH1 0x80 DUP6 ADD DUP6 PUSH2 0x53C4 JUMP JUMPDEST PUSH2 0x4EE9 PUSH1 0x80 DUP5 ADD DUP3 PUSH2 0x4742 JUMP JUMPDEST POP PUSH2 0x4EF7 PUSH1 0xA0 DUP6 ADD DUP6 PUSH2 0x53B7 JUMP JUMPDEST PUSH2 0x4F04 PUSH1 0xA0 DUP5 ADD DUP3 PUSH2 0x45FD JUMP JUMPDEST POP PUSH2 0x4F12 PUSH1 0xC0 DUP6 ADD DUP6 PUSH2 0x53B7 JUMP JUMPDEST PUSH2 0x4F1F PUSH1 0xC0 DUP5 ADD DUP3 PUSH2 0x45FD JUMP JUMPDEST POP PUSH2 0x4F2D PUSH1 0xE0 DUP6 ADD DUP6 PUSH2 0x53B7 JUMP JUMPDEST PUSH2 0x4F3A PUSH1 0xE0 DUP5 ADD DUP3 PUSH2 0x45FD JUMP JUMPDEST POP PUSH2 0x100 PUSH2 0x4F4A DUP2 DUP7 ADD DUP7 PUSH2 0x53B7 JUMP JUMPDEST PUSH2 0x4F56 DUP3 DUP6 ADD DUP3 PUSH2 0x45FD JUMP JUMPDEST POP POP PUSH2 0x120 DUP5 DUP2 ADD CALLDATALOAD SWAP1 DUP4 ADD MSTORE PUSH2 0x140 PUSH2 0x4F72 DUP2 DUP7 ADD DUP7 PUSH2 0x53D1 JUMP JUMPDEST PUSH2 0x4F7E DUP3 DUP6 ADD DUP3 PUSH2 0x4758 JUMP JUMPDEST POP POP PUSH2 0x160 DUP5 DUP2 ADD CALLDATALOAD SWAP1 DUP4 ADD MSTORE PUSH2 0x1E20 PUSH2 0x180 DUP4 ADD DUP5 PUSH2 0x46FE JUMP JUMPDEST PUSH1 0x0 PUSH2 0x260 DUP3 ADD SWAP1 POP PUSH2 0x4FAD DUP3 DUP12 MLOAD PUSH2 0x45FD JUMP JUMPDEST PUSH1 0x20 DUP11 ADD MLOAD PUSH2 0x4FBF PUSH1 0x20 DUP5 ADD DUP3 PUSH2 0x45FD JUMP JUMPDEST POP PUSH1 0x40 DUP11 ADD MLOAD PUSH2 0x4FD2 PUSH1 0x40 DUP5 ADD DUP3 PUSH2 0x4742 JUMP JUMPDEST POP PUSH1 0x60 DUP11 ADD MLOAD PUSH2 0x4FE5 PUSH1 0x60 DUP5 ADD DUP3 PUSH2 0x4742 JUMP JUMPDEST POP PUSH1 0x80 DUP11 ADD MLOAD PUSH2 0x4FF8 PUSH1 0x80 DUP5 ADD DUP3 PUSH2 0x4742 JUMP JUMPDEST POP PUSH1 0xA0 DUP11 ADD MLOAD PUSH2 0x500B PUSH1 0xA0 DUP5 ADD DUP3 PUSH2 0x45FD JUMP JUMPDEST POP PUSH1 0xC0 DUP11 ADD MLOAD PUSH2 0x501E PUSH1 0xC0 DUP5 ADD DUP3 PUSH2 0x45FD JUMP JUMPDEST POP PUSH1 0xE0 DUP11 ADD MLOAD PUSH2 0x5031 PUSH1 0xE0 DUP5 ADD DUP3 PUSH2 0x45FD JUMP JUMPDEST POP PUSH2 0x100 DUP1 DUP12 ADD MLOAD PUSH2 0x5045 DUP3 DUP6 ADD DUP3 PUSH2 0x45FD JUMP JUMPDEST POP POP PUSH2 0x120 DUP11 DUP2 ADD MLOAD SWAP1 DUP4 ADD MSTORE PUSH2 0x140 DUP1 DUP12 ADD MLOAD PUSH2 0x5065 DUP3 DUP6 ADD DUP3 PUSH2 0x4758 JUMP JUMPDEST POP POP PUSH2 0x160 DUP11 DUP2 ADD MLOAD SWAP1 DUP4 ADD MSTORE PUSH2 0x5080 PUSH2 0x180 DUP4 ADD DUP11 PUSH2 0x46BC JUMP JUMPDEST PUSH2 0x508E PUSH2 0x1A0 DUP4 ADD DUP10 PUSH2 0x4766 JUMP JUMPDEST DUP7 PUSH2 0x1C0 DUP4 ADD MSTORE DUP6 PUSH2 0x1E0 DUP4 ADD MSTORE PUSH2 0x50AA PUSH2 0x200 DUP4 ADD DUP7 PUSH2 0x4742 JUMP JUMPDEST PUSH2 0x50B8 PUSH2 0x220 DUP4 ADD DUP6 PUSH2 0x45FD JUMP JUMPDEST PUSH2 0x50C6 PUSH2 0x240 DUP4 ADD DUP5 PUSH2 0x45FD JUMP JUMPDEST SWAP10 SWAP9 POP POP POP POP POP POP POP POP POP JUMP JUMPDEST PUSH1 0x60 DUP2 ADD PUSH2 0x1F78 DUP3 DUP5 PUSH2 0x46C9 JUMP JUMPDEST PUSH1 0xA0 DUP2 ADD PUSH2 0x50EF DUP3 DUP7 PUSH2 0x46C9 JUMP JUMPDEST PUSH16 0xFFFFFFFFFFFFFFFFFFFFFFFFFFFFFFFF DUP5 AND PUSH1 0x60 DUP4 ADD MSTORE DUP3 ISZERO ISZERO PUSH1 0x80 DUP4 ADD MSTORE SWAP5 SWAP4 POP POP POP POP JUMP JUMPDEST PUSH2 0x1C0 DUP2 ADD PUSH1 0x20 DUP5 ADD PUSH2 0x512E DUP4 PUSH2 0x4E7A DUP4 DUP9 PUSH2 0x3B92 JUMP JUMPDEST PUSH2 0x5138 DUP2 DUP7 PUSH2 0x53B7 JUMP JUMPDEST SWAP1 POP PUSH2 0x5147 PUSH1 0x20 DUP5 ADD DUP3 PUSH2 0x45FD JUMP JUMPDEST POP PUSH2 0x5155 PUSH1 0x40 DUP6 ADD DUP6 PUSH2 0x53C4 JUMP JUMPDEST PUSH2 0x5162 PUSH1 0x40 DUP5 ADD DUP3 PUSH2 0x4742 JUMP JUMPDEST POP PUSH2 0x5170 PUSH1 0x60 DUP6 ADD DUP6 PUSH2 0x53C4 JUMP JUMPDEST PUSH2 0x517D PUSH1 0x60 DUP5 ADD DUP3 PUSH2 0x4742 JUMP JUMPDEST POP PUSH2 0x518B PUSH1 0x80 DUP6 ADD DUP6 PUSH2 0x53B7 JUMP JUMPDEST PUSH2 0x5198 PUSH1 0x80 DUP5 ADD DUP3 PUSH2 0x45FD JUMP JUMPDEST POP PUSH2 0x51A6 PUSH1 0xA0 DUP6 ADD DUP6 PUSH2 0x53B7 JUMP JUMPDEST PUSH2 0x51B3 PUSH1 0xA0 DUP5 ADD DUP3 PUSH2 0x45FD JUMP JUMPDEST POP PUSH2 0x51C1 PUSH1 0xC0 DUP6 ADD DUP6 PUSH2 0x53B7 JUMP JUMPDEST PUSH2 0x51CE PUSH1 0xC0 DUP5 ADD DUP3 PUSH2 0x45FD JUMP JUMPDEST POP PUSH1 0xE0 DUP5 ADD CALLDATALOAD PUSH1 0xE0 DUP4 ADD MSTORE PUSH2 0x100 PUSH2 0x51E8 DUP2 DUP7 ADD DUP7 PUSH2 0x53D1 JUMP JUMPDEST PUSH2 0x51F4 DUP3 DUP6 ADD DUP3 PUSH2 0x4758 JUMP JUMPDEST POP POP PUSH2 0x120 DUP5 DUP2 ADD CALLDATALOAD SWAP1 DUP4 ADD MSTORE PUSH2 0x1E20 PUSH2 0x140 DUP4 ADD DUP5 PUSH2 0x46FE JUMP JUMPDEST PUSH1 0x0 PUSH2 0x200 DUP3 ADD SWAP1 POP PUSH2 0x5223 DUP3 DUP11 MLOAD PUSH2 0x45FD JUMP JUMPDEST PUSH1 0x20 DUP10 ADD MLOAD PUSH2 0x5235 PUSH1 0x20 DUP5 ADD DUP3 PUSH2 0x45FD JUMP JUMPDEST POP PUSH1 0x40 DUP10 ADD MLOAD PUSH2 0x5248 PUSH1 0x40 DUP5 ADD DUP3 PUSH2 0x4742 JUMP JUMPDEST POP PUSH1 0x60 DUP10 ADD MLOAD PUSH2 0x525B PUSH1 0x60 DUP5 ADD DUP3 PUSH2 0x4742 JUMP JUMPDEST POP PUSH1 0x80 DUP10 ADD MLOAD PUSH2 0x526E PUSH1 0x80 DUP5 ADD DUP3 PUSH2 0x45FD JUMP JUMPDEST POP PUSH1 0xA0 DUP10 ADD MLOAD PUSH2 0x5281 PUSH1 0xA0 DUP5 ADD DUP3 PUSH2 0x45FD JUMP JUMPDEST POP PUSH1 0xC0 DUP10 ADD MLOAD PUSH2 0x5294 PUSH1 0xC0 DUP5 ADD DUP3 PUSH2 0x45FD JUMP JUMPDEST POP PUSH1 0xE0 DUP10 ADD MLOAD PUSH1 0xE0 DUP4 ADD MSTORE PUSH2 0x100 DUP1 DUP11 ADD MLOAD PUSH2 0x52B2 DUP3 DUP6 ADD DUP3 PUSH2 0x4758 JUMP JUMPDEST POP POP PUSH2 0x120 DUP10 DUP2 ADD MLOAD SWAP1 DUP4 ADD MSTORE PUSH2 0x52CD PUSH2 0x140 DUP4 ADD DUP10 PUSH2 0x46BC JUMP JUMPDEST PUSH2 0x52DB PUSH2 0x160 DUP4 ADD DUP9 PUSH2 0x4766 JUMP JUMPDEST DUP6 PUSH2 0x180 DUP4 ADD MSTORE DUP5 PUSH2 0x1A0 DUP4 ADD MSTORE PUSH2 0x52F7 PUSH2 0x1C0 DUP4 ADD DUP6 PUSH2 0x4742 JUMP JUMPDEST PUSH2 0x5305 PUSH2 0x1E0 DUP4 ADD DUP5 PUSH2 0x45FD JUMP JUMPDEST SWAP9 SWAP8 POP POP POP POP POP POP POP POP JUMP JUMPDEST PUSH16 0xFFFFFFFFFFFFFFFFFFFFFFFFFFFFFFFF SWAP2 SWAP1 SWAP2 AND DUP2 MSTORE PUSH1 0x20 ADD SWAP1 JUMP JUMPDEST PUSH16 0xFFFFFFFFFFFFFFFFFFFFFFFFFFFFFFFF SWAP3 DUP4 AND DUP2 MSTORE SWAP2 AND PUSH1 0x20 DUP3 ADD MSTORE PUSH1 0x40 ADD SWAP1 JUMP JUMPDEST SWAP2 DUP3 MSTORE PUSH1 0x20 DUP3 ADD MSTORE PUSH1 0x40 ADD SWAP1 JUMP JUMPDEST PUSH4 0xFFFFFFFF SWAP2 SWAP1 SWAP2 AND DUP2 MSTORE PUSH1 0x20 ADD SWAP1 JUMP JUMPDEST PUSH1 0x40 MLOAD DUP2 DUP2 ADD PUSH8 0xFFFFFFFFFFFFFFFF DUP2 GT DUP3 DUP3 LT OR ISZERO PUSH2 0x538F JUMPI PUSH1 0x0 DUP1 REVERT JUMPDEST PUSH1 0x40 MSTORE SWAP2 SWAP1 POP JUMP JUMPDEST PUSH1 0x0 PUSH8 0xFFFFFFFFFFFFFFFF DUP3 GT ISZERO PUSH2 0x53AD JUMPI DUP1 DUP2 REVERT JUMPDEST POP PUSH1 0x20 SWAP1 DUP2 MUL ADD SWAP1 JUMP JUMPDEST PUSH1 0x0 DUP3 CALLDATALOAD PUSH2 0x1E20 DUP2 PUSH2 0x53F4 JUMP JUMPDEST PUSH1 0x0 DUP3 CALLDATALOAD PUSH2 0x1E20 DUP2 PUSH2 0x5424 JUMP JUMPDEST PUSH1 0x0 DUP3 CALLDATALOAD PUSH8 0xFFFFFFFFFFFFFFFF DUP2 AND DUP2 EQ PUSH2 0x1E20 JUMPI DUP2 DUP3 REVERT JUMPDEST PUSH1 0x4 DUP2 LT PUSH2 0x2C46 JUMPI INVALID JUMPDEST PUSH20 0xFFFFFFFFFFFFFFFFFFFFFFFFFFFFFFFFFFFFFFFF DUP2 AND DUP2 EQ PUSH2 0x2C46 JUMPI PUSH1 0x0 DUP1 REVERT JUMPDEST DUP1 ISZERO ISZERO DUP2 EQ PUSH2 0x2C46 JUMPI PUSH1 0x0 DUP1 REVERT JUMPDEST PUSH16 0xFFFFFFFFFFFFFFFFFFFFFFFFFFFFFFFF DUP2 AND DUP2 EQ PUSH2 0x2C46 JUMPI PUSH1 0x0 DUP1 REVERT INVALID LOG2 PUSH5 0x6970667358 0x22 SLT KECCAK256 0xB5 0x4F 0xD3 0x28 MSIZE 0xED 0x22 SHR PUSH32 0x181A158CDE8ED76B8D2B4D12D60873513C033CC8A166B064736F6C634300060C STOP CALLER PUSH1 0x80 PUSH1 0x40 MSTORE PUSH1 0x0 DUP1 SSTORE CALLVALUE DUP1 ISZERO PUSH1 0x13 JUMPI PUSH1 0x0 DUP1 REVERT JUMPDEST POP PUSH1 0x8C DUP1 PUSH2 0x22 PUSH1 0x0 CODECOPY PUSH1 0x0 RETURN INVALID PUSH1 0x80 PUSH1 0x40 MSTORE CALLVALUE DUP1 ISZERO PUSH1 0xF JUMPI PUSH1 0x0 DUP1 REVERT JUMPDEST POP PUSH1 0x4 CALLDATASIZE LT PUSH1 0x28 JUMPI PUSH1 0x0 CALLDATALOAD PUSH1 0xE0 SHR DUP1 PUSH4 0xF2541A8C EQ PUSH1 0x2D JUMPI JUMPDEST PUSH1 0x0 DUP1 REVERT JUMPDEST PUSH1 0x33 PUSH1 0x47 JUMP JUMPDEST PUSH1 0x40 MLOAD PUSH1 0x3E SWAP2 SWAP1 PUSH1 0x4D JUMP JUMPDEST PUSH1 0x40 MLOAD DUP1 SWAP2 SUB SWAP1 RETURN JUMPDEST PUSH1 0x0 SLOAD DUP2 JUMP JUMPDEST SWAP1 DUP2 MSTORE PUSH1 0x20 ADD SWAP1 JUMP INVALID LOG2 PUSH5 0x6970667358 0x22 SLT KECCAK256 CALL SWAP16 EXTCODECOPY 0xE4 PUSH16 0x71535F1F66F7173AB789A3D95978F00C 0x48 0xCE 0xBC 0x2D GASLIMIT PUSH27 0x2D0752831264736F6C634300060C00330000000000000000000000 "
            },
            "methodIdentifiers": {
                "EIP712_DOMAIN_SEPARATOR()": "dab400f3",
                "FEATURE_NAME()": "6ae4b4f7",
                "FEATURE_VERSION()": "031b905c",
                "GREEDY_TOKENS_BLOOM_FILTER()": "d925a56d",
                "PROTOCOL_FEE_MULTIPLIER()": "a0edcef5",
                "_fillLimitOrder((address,address,uint128,uint128,uint128,address,address,address,address,bytes32,uint64,uint256),(uint8,uint8,bytes32,bytes32),uint128,address,address)": "414e4ccf",
                "_fillRfqOrder((address,address,uint128,uint128,address,address,address,bytes32,uint64,uint256),(uint8,uint8,bytes32,bytes32),uint128,address)": "a656186b",
                "batchCancelLimitOrders((address,address,uint128,uint128,uint128,address,address,address,address,bytes32,uint64,uint256)[])": "9baa45a8",
                "batchCancelPairLimitOrders(address[],address[],uint256[])": "86a0c8d7",
                "batchCancelPairRfqOrders(address[],address[],uint256[])": "0f0e8cf7",
                "batchCancelRfqOrders((address,address,uint128,uint128,address,address,address,bytes32,uint64,uint256)[])": "f6e0f6a5",
                "batchGetLimitOrderRelevantStates((address,address,uint128,uint128,uint128,address,address,address,address,bytes32,uint64,uint256)[],(uint8,uint8,bytes32,bytes32)[])": "b4658bfb",
                "batchGetRfqOrderRelevantStates((address,address,uint128,uint128,address,address,address,bytes32,uint64,uint256)[],(uint8,uint8,bytes32,bytes32)[])": "ad354eeb",
                "cancelLimitOrder((address,address,uint128,uint128,uint128,address,address,address,address,bytes32,uint64,uint256))": "7d49ec1a",
                "cancelPairLimitOrders(address,address,uint256)": "d0a55fb0",
                "cancelPairRfqOrders(address,address,uint256)": "9a4f809c",
                "cancelRfqOrder((address,address,uint128,uint128,address,address,address,bytes32,uint64,uint256))": "fe55a3ef",
                "fillLimitOrder((address,address,uint128,uint128,uint128,address,address,address,address,bytes32,uint64,uint256),(uint8,uint8,bytes32,bytes32),uint128)": "f6274f66",
                "fillOrKillLimitOrder((address,address,uint128,uint128,uint128,address,address,address,address,bytes32,uint64,uint256),(uint8,uint8,bytes32,bytes32),uint128)": "9240529c",
                "fillOrKillRfqOrder((address,address,uint128,uint128,address,address,address,bytes32,uint64,uint256),(uint8,uint8,bytes32,bytes32),uint128)": "438cdfc5",
                "fillRfqOrder((address,address,uint128,uint128,address,address,address,bytes32,uint64,uint256),(uint8,uint8,bytes32,bytes32),uint128)": "aa77476c",
                "getLimitOrderHash((address,address,uint128,uint128,uint128,address,address,address,address,bytes32,uint64,uint256))": "dd11d225",
                "getLimitOrderInfo((address,address,uint128,uint128,uint128,address,address,address,address,bytes32,uint64,uint256))": "95480889",
                "getLimitOrderRelevantState((address,address,uint128,uint128,uint128,address,address,address,address,bytes32,uint64,uint256),(uint8,uint8,bytes32,bytes32))": "1fb09795",
                "getProtocolFeeMultiplier()": "487b5c20",
                "getRfqOrderHash((address,address,uint128,uint128,address,address,address,bytes32,uint64,uint256))": "016a6d65",
                "getRfqOrderInfo((address,address,uint128,uint128,address,address,address,bytes32,uint64,uint256))": "346693c5",
                "getRfqOrderRelevantState((address,address,uint128,uint128,address,address,address,bytes32,uint64,uint256),(uint8,uint8,bytes32,bytes32))": "37f381d8",
                "migrate()": "8fd3ab80",
                "registerAllowedRfqOrigins(address[],bool)": "b09f1fb1",
                "transferProtocolFeesForPools(bytes32[])": "3cd2f026"
            }
        }
    },
    "sourceTreeHashHex": "0x5d3eb33f89d79d14a450a3b4cf95ed48518518655ca88d98974f926c7e1c9026",
    "compiler": {
        "name": "solc",
        "version": "0.6.12+commit.27d51765",
        "settings": {
            "remappings": [
                "@0x/contracts-utils=/Users/michaelzhu/protocol/node_modules/@0x/contracts-utils",
                "@0x/contracts-erc20=/Users/michaelzhu/protocol/contracts/zero-ex/node_modules/@0x/contracts-erc20"
            ],
            "optimizer": {
                "enabled": true,
                "runs": 1000000,
                "details": {
                    "yul": true,
                    "deduplicate": true,
                    "cse": true,
                    "constantOptimizer": true
                }
            },
            "outputSelection": {
                "*": {
                    "*": [
                        "abi",
                        "devdoc",
                        "evm.bytecode.object",
                        "evm.bytecode.sourceMap",
                        "evm.deployedBytecode.object",
                        "evm.deployedBytecode.sourceMap",
                        "evm.methodIdentifiers"
                    ]
                }
            },
            "evmVersion": "istanbul"
        }
    },
    "chains": {}
}