{
    "schemaVersion": "2.0.0",
    "contractName": "UniswapFeature",
    "compilerOutput": {
        "abi": [
            {
                "inputs": [
                    {
                        "internalType": "contract IEtherTokenV06",
                        "name": "weth",
                        "type": "address"
                    },
                    {
                        "internalType": "contract IAllowanceTarget",
                        "name": "allowanceTarget",
                        "type": "address"
                    },
                    {
                        "internalType": "bytes32",
                        "name": "greedyTokensBloomFilter",
                        "type": "bytes32"
                    }
                ],
                "stateMutability": "nonpayable",
                "type": "constructor"
            },
            {
                "inputs": [],
                "name": "FEATURE_NAME",
                "outputs": [
                    {
                        "internalType": "string",
                        "name": "",
                        "type": "string"
                    }
                ],
                "stateMutability": "view",
                "type": "function"
            },
            {
                "inputs": [],
                "name": "FEATURE_VERSION",
                "outputs": [
                    {
                        "internalType": "uint256",
                        "name": "",
                        "type": "uint256"
                    }
                ],
                "stateMutability": "view",
                "type": "function"
            },
            {
                "inputs": [],
                "name": "GREEDY_TOKENS_BLOOM_FILTER",
                "outputs": [
                    {
                        "internalType": "bytes32",
                        "name": "",
                        "type": "bytes32"
                    }
                ],
                "stateMutability": "view",
                "type": "function"
            },
            {
                "inputs": [],
                "name": "migrate",
                "outputs": [
                    {
                        "internalType": "bytes4",
                        "name": "success",
                        "type": "bytes4"
                    }
                ],
                "stateMutability": "nonpayable",
                "type": "function"
            },
            {
                "inputs": [
                    {
                        "internalType": "contract IERC20TokenV06[]",
                        "name": "tokens",
                        "type": "address[]"
                    },
                    {
                        "internalType": "uint256",
                        "name": "sellAmount",
                        "type": "uint256"
                    },
                    {
                        "internalType": "uint256",
                        "name": "minBuyAmount",
                        "type": "uint256"
                    },
                    {
                        "internalType": "bool",
                        "name": "isSushi",
                        "type": "bool"
                    }
                ],
                "name": "sellToUniswap",
                "outputs": [
                    {
                        "internalType": "uint256",
                        "name": "buyAmount",
                        "type": "uint256"
                    }
                ],
                "stateMutability": "payable",
                "type": "function"
            }
        ],
        "devdoc": {
            "details": "VIP uniswap fill functions.",
            "kind": "dev",
            "methods": {
                "constructor": {
                    "details": "Construct this contract.",
                    "params": {
                        "allowanceTarget": "The AllowanceTarget contract.",
                        "greedyTokensBloomFilter": "The bloom filter for greedy tokens.",
                        "weth": "The WETH contract."
                    }
                },
                "migrate()": {
                    "details": "Initialize and register this feature.      Should be delegatecalled by `Migrate.migrate()`.",
                    "returns": {
                        "success": "`LibMigrate.SUCCESS` on success."
                    }
                },
                "sellToUniswap(address[],uint256,uint256,bool)": {
                    "details": "Efficiently sell directly to uniswap/sushiswap.",
                    "params": {
                        "isSushi": "Use sushiswap if true.",
                        "minBuyAmount": "Minimum amount of `tokens[-1]` to buy.",
                        "sellAmount": "of `tokens[0]` Amount to sell.",
                        "tokens": "Sell path."
                    },
                    "returns": {
                        "buyAmount": "Amount of `tokens[-1]` bought."
                    }
                }
            },
            "stateVariables": {
                "ALLOWANCE_TARGET": {
                    "details": "AllowanceTarget instance."
                },
                "FEATURE_NAME": {
                    "details": "Name of this feature."
                },
                "FEATURE_VERSION": {
                    "details": "Version of this feature."
                },
                "GREEDY_TOKENS_BLOOM_FILTER": {
                    "details": "A bloom filter for tokens that consume all gas when `transferFrom()` fails."
                },
                "WETH": {
                    "details": "WETH contract."
                }
            },
            "version": 1
        },
        "evm": {
            "bytecode": {
                "linkReferences": {},
                "object": "0x6101206040526100116001808061006b565b60a05234801561002057600080fd5b50604051610d59380380610d5983398101604081905261003f9161009d565b30606090811b60805292831b6001600160601b031990811660e0529190921b166101005260c0526100f7565b6bffffffff0000000000000000604084901b1667ffffffff00000000602084901b161763ffffffff8216179392505050565b6000806000606084860312156100b1578283fd5b83516100bc816100df565b60208501519093506100cd816100df565b80925050604084015190509250925092565b6001600160a01b03811681146100f457600080fd5b50565b60805160601c60a05160c05160e05160601c6101005160601c610c16610143600039806102465250806102215250806101a5528061026b52508060f85250806109685250610c166000f3fe60806040526004361061005a5760003560e01c80638fd3ab80116100435780638fd3ab80146100ac578063d925a56d146100ce578063d9627aa4146100e35761005a565b8063031b905c1461005f5780636ae4b4f71461008a575b600080fd5b34801561006b57600080fd5b506100746100f6565b6040516100819190610a5d565b60405180910390f35b34801561009657600080fd5b5061009f61011a565b6040516100819190610adb565b3480156100b857600080fd5b506100c1610153565b6040516100819190610a66565b3480156100da57600080fd5b506100746101a3565b6100746100f13660046109c5565b6101c7565b7f000000000000000000000000000000000000000000000000000000000000000081565b6040518060400160405280600e81526020017f556e69737761704665617475726500000000000000000000000000000000000081525081565b600061017e7fd9627aa400000000000000000000000000000000000000000000000000000000610932565b507f2c64c5ef0000000000000000000000000000000000000000000000000000000090565b7f000000000000000000000000000000000000000000000000000000000000000081565b60006001851161020c576040517f08c379a000000000000000000000000000000000000000000000000000000000815260040161020390610b4c565b60405180910390fd5b506004803560248101610a0052610a208390527f0000000000000000000000000000000000000000000000000000000000000000610a40527f0000000000000000000000000000000000000000000000000000000000000000610a60527f0000000000000000000000000000000000000000000000000000000000000000610a805284917fffffffffffffffffffffffffffffffffffffffffffffffffffffffffffffffff91013501600080805b8381101561055e576102cb816105e1565b6102d7600183016105e1565b93506102e284610606565b6102eb82610606565b108380610303576102fc868461062e565b9050600094505b836103d95773eeeeeeeeeeeeeeeeeeeeeeeeeeeeeeeeeeeeeeee831480156103c1578b341461033157600080fd5b610a405193507fd0e30db000000000000000000000000000000000000000000000000000000000610b00526000806004610b008f885af161037457610374610743565b7fa9059cbb00000000000000000000000000000000000000000000000000000000610b005281610b04528b610b24526000806044610b006000885af16103bc576103bc610743565b6103d7565b34156103cc57600080fd5b6103d78c838661074d565b505b7f0902f1ac00000000000000000000000000000000000000000000000000000000610b00526040610c006004610b00845afa61041757610417610743565b60403d101561042557600080fd5b8792506000808315801561044457610c20519250610c00519150610451565b610c00519250610c205191505b506e01000000000000000000000000000085111561046e57600080fd5b6103e585026103e883028101828202049a5050505060009250866001850114600081146104c45773eeeeeeeeeeeeeeeeeeeeeeeeeeeeeeeeeeeeeeee871480156104ba573094506104be565b3394505b506104df565b6104d96104d3600287016105e1565b8861062e565b95508593505b507f022c0d9f00000000000000000000000000000000000000000000000000000000610b005281801561051c576000610b045288610b2452610528565b88610b04526000610b24525b5082610b44526080610b64526000610b845260008060a4610b006000855af161055357610553610743565b5050506001016102ba565b505073eeeeeeeeeeeeeeeeeeeeeeeeeeeeeeeeeeeeeeee8114156105da577f2e1a7d4d00000000000000000000000000000000000000000000000000000000610b005282610b04526000806024610b006000610a40515af16105c2576105c2610743565b6000806000610b0086335af16105da576105da610743565b50506108ef565b610a005173ffffffffffffffffffffffffffffffffffffffff60209290920201351690565b8073eeeeeeeeeeeeeeeeeeeeeeeeeeeeeeeeeeeeeeee8114156106295750610a40515b919050565b600061063982610606565b915061064483610606565b9250828210801561065e5783610b145282610b0052610669565b82610b145283610b00525b506028610b0c20610a205180156106ce577fffc0aee478e3658e2610c5f7a4a2e1777ce9e4f2ac0000000000000000000000610b005281610b15527fe18a34eb0e04b04f7a0ac29a6e80748dca96319b42c54d679cb821dca90c6303610b355261071e565b7fff5c69bee701ef814a2b6a3edd4b1652cb9cc5aa6f0000000000000000000000610b005281610b15527f96e8ac4277198ff8b6f785478aa9a39f403cb768dd02cbee326c3e7da348845f610b35525b50506055610b002073ffffffffffffffffffffffffffffffffffffffff169392505050565b3d6000803e3d6000fd5b610756816108c4565b156107ce577fdd62ed3e00000000000000000000000000000000000000000000000000000000610b005233610b045230610b24526020610c006044610b00845afa806107a4576107a4610743565b5060203d10156107b357600080fd5b82610c005110156107ce576107c983838361083e565b610839565b7f23b872dd00000000000000000000000000000000000000000000000000000000610b005233610b045281610b245282610b44526020610c006064610b006000855af13d6001610c0051146020821015168115178216915050806108375761083784848461083e565b505b505050565b7fbca8c7b500000000000000000000000000000000000000000000000000000000610b005280610b04526040610b24526064610b44527f23b872dd00000000000000000000000000000000000000000000000000000000610b645233610b685281610b885282610ba85260008060c8610b006000610a60515af161083957610839610743565b600081600052600161010083061b60016101006020600020061b1780610a8051821614915050919050565b82811015610929576040517f08c379a000000000000000000000000000000000000000000000000000000000815260040161020390610ba9565b95945050505050565b6040517f6eb224cb0000000000000000000000000000000000000000000000000000000081523090636eb224cb906109909084907f000000000000000000000000000000000000000000000000000000000000000090600401610a93565b600060405180830381600087803b1580156109aa57600080fd5b505af11580156109be573d6000803e3d6000fd5b5050505050565b6000806000806000608086880312156109dc578081fd5b853567ffffffffffffffff808211156109f3578283fd5b818801915088601f830112610a06578283fd5b813581811115610a14578384fd5b8960208083028501011115610a27578384fd5b6020928301975095505086013592506040860135915060608601358015158114610a4f578182fd5b809150509295509295909350565b90815260200190565b7fffffffff0000000000000000000000000000000000000000000000000000000091909116815260200190565b7fffffffff0000000000000000000000000000000000000000000000000000000092909216825273ffffffffffffffffffffffffffffffffffffffff16602082015260400190565b6000602080835283518082850152825b81811015610b0757858101830151858201604001528201610aeb565b81811115610b185783604083870101525b50601f017fffffffffffffffffffffffffffffffffffffffffffffffffffffffffffffffe016929092016040019392505050565b60208082526022908201527f556e6973776170466561747572652f496e76616c6964546f6b656e734c656e6760408201527f7468000000000000000000000000000000000000000000000000000000000000606082015260800190565b6020808252601a908201527f556e6973776170466561747572652f556e646572426f7567687400000000000060408201526060019056fea2646970667358221220f1e6b806918be3e90643bb0dfce612e29e7d369ede1c1aa524e03f5c60d4f20864736f6c634300060c0033",
                "opcodes": "PUSH2 0x120 PUSH1 0x40 MSTORE PUSH2 0x11 PUSH1 0x1 DUP1 DUP1 PUSH2 0x6B JUMP JUMPDEST PUSH1 0xA0 MSTORE CALLVALUE DUP1 ISZERO PUSH2 0x20 JUMPI PUSH1 0x0 DUP1 REVERT JUMPDEST POP PUSH1 0x40 MLOAD PUSH2 0xD59 CODESIZE SUB DUP1 PUSH2 0xD59 DUP4 CODECOPY DUP2 ADD PUSH1 0x40 DUP2 SWAP1 MSTORE PUSH2 0x3F SWAP2 PUSH2 0x9D JUMP JUMPDEST ADDRESS PUSH1 0x60 SWAP1 DUP2 SHL PUSH1 0x80 MSTORE SWAP3 DUP4 SHL PUSH1 0x1 PUSH1 0x1 PUSH1 0x60 SHL SUB NOT SWAP1 DUP2 AND PUSH1 0xE0 MSTORE SWAP2 SWAP1 SWAP3 SHL AND PUSH2 0x100 MSTORE PUSH1 0xC0 MSTORE PUSH2 0xF7 JUMP JUMPDEST PUSH12 0xFFFFFFFF0000000000000000 PUSH1 0x40 DUP5 SWAP1 SHL AND PUSH8 0xFFFFFFFF00000000 PUSH1 0x20 DUP5 SWAP1 SHL AND OR PUSH4 0xFFFFFFFF DUP3 AND OR SWAP4 SWAP3 POP POP POP JUMP JUMPDEST PUSH1 0x0 DUP1 PUSH1 0x0 PUSH1 0x60 DUP5 DUP7 SUB SLT ISZERO PUSH2 0xB1 JUMPI DUP3 DUP4 REVERT JUMPDEST DUP4 MLOAD PUSH2 0xBC DUP2 PUSH2 0xDF JUMP JUMPDEST PUSH1 0x20 DUP6 ADD MLOAD SWAP1 SWAP4 POP PUSH2 0xCD DUP2 PUSH2 0xDF JUMP JUMPDEST DUP1 SWAP3 POP POP PUSH1 0x40 DUP5 ADD MLOAD SWAP1 POP SWAP3 POP SWAP3 POP SWAP3 JUMP JUMPDEST PUSH1 0x1 PUSH1 0x1 PUSH1 0xA0 SHL SUB DUP2 AND DUP2 EQ PUSH2 0xF4 JUMPI PUSH1 0x0 DUP1 REVERT JUMPDEST POP JUMP JUMPDEST PUSH1 0x80 MLOAD PUSH1 0x60 SHR PUSH1 0xA0 MLOAD PUSH1 0xC0 MLOAD PUSH1 0xE0 MLOAD PUSH1 0x60 SHR PUSH2 0x100 MLOAD PUSH1 0x60 SHR PUSH2 0xC16 PUSH2 0x143 PUSH1 0x0 CODECOPY DUP1 PUSH2 0x246 MSTORE POP DUP1 PUSH2 0x221 MSTORE POP DUP1 PUSH2 0x1A5 MSTORE DUP1 PUSH2 0x26B MSTORE POP DUP1 PUSH1 0xF8 MSTORE POP DUP1 PUSH2 0x968 MSTORE POP PUSH2 0xC16 PUSH1 0x0 RETURN INVALID PUSH1 0x80 PUSH1 0x40 MSTORE PUSH1 0x4 CALLDATASIZE LT PUSH2 0x5A JUMPI PUSH1 0x0 CALLDATALOAD PUSH1 0xE0 SHR DUP1 PUSH4 0x8FD3AB80 GT PUSH2 0x43 JUMPI DUP1 PUSH4 0x8FD3AB80 EQ PUSH2 0xAC JUMPI DUP1 PUSH4 0xD925A56D EQ PUSH2 0xCE JUMPI DUP1 PUSH4 0xD9627AA4 EQ PUSH2 0xE3 JUMPI PUSH2 0x5A JUMP JUMPDEST DUP1 PUSH4 0x31B905C EQ PUSH2 0x5F JUMPI DUP1 PUSH4 0x6AE4B4F7 EQ PUSH2 0x8A JUMPI JUMPDEST PUSH1 0x0 DUP1 REVERT JUMPDEST CALLVALUE DUP1 ISZERO PUSH2 0x6B JUMPI PUSH1 0x0 DUP1 REVERT JUMPDEST POP PUSH2 0x74 PUSH2 0xF6 JUMP JUMPDEST PUSH1 0x40 MLOAD PUSH2 0x81 SWAP2 SWAP1 PUSH2 0xA5D JUMP JUMPDEST PUSH1 0x40 MLOAD DUP1 SWAP2 SUB SWAP1 RETURN JUMPDEST CALLVALUE DUP1 ISZERO PUSH2 0x96 JUMPI PUSH1 0x0 DUP1 REVERT JUMPDEST POP PUSH2 0x9F PUSH2 0x11A JUMP JUMPDEST PUSH1 0x40 MLOAD PUSH2 0x81 SWAP2 SWAP1 PUSH2 0xADB JUMP JUMPDEST CALLVALUE DUP1 ISZERO PUSH2 0xB8 JUMPI PUSH1 0x0 DUP1 REVERT JUMPDEST POP PUSH2 0xC1 PUSH2 0x153 JUMP JUMPDEST PUSH1 0x40 MLOAD PUSH2 0x81 SWAP2 SWAP1 PUSH2 0xA66 JUMP JUMPDEST CALLVALUE DUP1 ISZERO PUSH2 0xDA JUMPI PUSH1 0x0 DUP1 REVERT JUMPDEST POP PUSH2 0x74 PUSH2 0x1A3 JUMP JUMPDEST PUSH2 0x74 PUSH2 0xF1 CALLDATASIZE PUSH1 0x4 PUSH2 0x9C5 JUMP JUMPDEST PUSH2 0x1C7 JUMP JUMPDEST PUSH32 0x0 DUP2 JUMP JUMPDEST PUSH1 0x40 MLOAD DUP1 PUSH1 0x40 ADD PUSH1 0x40 MSTORE DUP1 PUSH1 0xE DUP2 MSTORE PUSH1 0x20 ADD PUSH32 0x556E697377617046656174757265000000000000000000000000000000000000 DUP2 MSTORE POP DUP2 JUMP JUMPDEST PUSH1 0x0 PUSH2 0x17E PUSH32 0xD9627AA400000000000000000000000000000000000000000000000000000000 PUSH2 0x932 JUMP JUMPDEST POP PUSH32 0x2C64C5EF00000000000000000000000000000000000000000000000000000000 SWAP1 JUMP JUMPDEST PUSH32 0x0 DUP2 JUMP JUMPDEST PUSH1 0x0 PUSH1 0x1 DUP6 GT PUSH2 0x20C JUMPI PUSH1 0x40 MLOAD PUSH32 0x8C379A000000000000000000000000000000000000000000000000000000000 DUP2 MSTORE PUSH1 0x4 ADD PUSH2 0x203 SWAP1 PUSH2 0xB4C JUMP JUMPDEST PUSH1 0x40 MLOAD DUP1 SWAP2 SUB SWAP1 REVERT JUMPDEST POP PUSH1 0x4 DUP1 CALLDATALOAD PUSH1 0x24 DUP2 ADD PUSH2 0xA00 MSTORE PUSH2 0xA20 DUP4 SWAP1 MSTORE PUSH32 0x0 PUSH2 0xA40 MSTORE PUSH32 0x0 PUSH2 0xA60 MSTORE PUSH32 0x0 PUSH2 0xA80 MSTORE DUP5 SWAP2 PUSH32 0xFFFFFFFFFFFFFFFFFFFFFFFFFFFFFFFFFFFFFFFFFFFFFFFFFFFFFFFFFFFFFFFF SWAP2 ADD CALLDATALOAD ADD PUSH1 0x0 DUP1 DUP1 JUMPDEST DUP4 DUP2 LT ISZERO PUSH2 0x55E JUMPI PUSH2 0x2CB DUP2 PUSH2 0x5E1 JUMP JUMPDEST PUSH2 0x2D7 PUSH1 0x1 DUP4 ADD PUSH2 0x5E1 JUMP JUMPDEST SWAP4 POP PUSH2 0x2E2 DUP5 PUSH2 0x606 JUMP JUMPDEST PUSH2 0x2EB DUP3 PUSH2 0x606 JUMP JUMPDEST LT DUP4 DUP1 PUSH2 0x303 JUMPI PUSH2 0x2FC DUP7 DUP5 PUSH2 0x62E JUMP JUMPDEST SWAP1 POP PUSH1 0x0 SWAP5 POP JUMPDEST DUP4 PUSH2 0x3D9 JUMPI PUSH20 0xEEEEEEEEEEEEEEEEEEEEEEEEEEEEEEEEEEEEEEEE DUP4 EQ DUP1 ISZERO PUSH2 0x3C1 JUMPI DUP12 CALLVALUE EQ PUSH2 0x331 JUMPI PUSH1 0x0 DUP1 REVERT JUMPDEST PUSH2 0xA40 MLOAD SWAP4 POP PUSH32 0xD0E30DB000000000000000000000000000000000000000000000000000000000 PUSH2 0xB00 MSTORE PUSH1 0x0 DUP1 PUSH1 0x4 PUSH2 0xB00 DUP16 DUP9 GAS CALL PUSH2 0x374 JUMPI PUSH2 0x374 PUSH2 0x743 JUMP JUMPDEST PUSH32 0xA9059CBB00000000000000000000000000000000000000000000000000000000 PUSH2 0xB00 MSTORE DUP2 PUSH2 0xB04 MSTORE DUP12 PUSH2 0xB24 MSTORE PUSH1 0x0 DUP1 PUSH1 0x44 PUSH2 0xB00 PUSH1 0x0 DUP9 GAS CALL PUSH2 0x3BC JUMPI PUSH2 0x3BC PUSH2 0x743 JUMP JUMPDEST PUSH2 0x3D7 JUMP JUMPDEST CALLVALUE ISZERO PUSH2 0x3CC JUMPI PUSH1 0x0 DUP1 REVERT JUMPDEST PUSH2 0x3D7 DUP13 DUP4 DUP7 PUSH2 0x74D JUMP JUMPDEST POP JUMPDEST PUSH32 0x902F1AC00000000000000000000000000000000000000000000000000000000 PUSH2 0xB00 MSTORE PUSH1 0x40 PUSH2 0xC00 PUSH1 0x4 PUSH2 0xB00 DUP5 GAS STATICCALL PUSH2 0x417 JUMPI PUSH2 0x417 PUSH2 0x743 JUMP JUMPDEST PUSH1 0x40 RETURNDATASIZE LT ISZERO PUSH2 0x425 JUMPI PUSH1 0x0 DUP1 REVERT JUMPDEST DUP8 SWAP3 POP PUSH1 0x0 DUP1 DUP4 ISZERO DUP1 ISZERO PUSH2 0x444 JUMPI PUSH2 0xC20 MLOAD SWAP3 POP PUSH2 0xC00 MLOAD SWAP2 POP PUSH2 0x451 JUMP JUMPDEST PUSH2 0xC00 MLOAD SWAP3 POP PUSH2 0xC20 MLOAD SWAP2 POP JUMPDEST POP PUSH15 0x10000000000000000000000000000 DUP6 GT ISZERO PUSH2 0x46E JUMPI PUSH1 0x0 DUP1 REVERT JUMPDEST PUSH2 0x3E5 DUP6 MUL PUSH2 0x3E8 DUP4 MUL DUP2 ADD DUP3 DUP3 MUL DIV SWAP11 POP POP POP POP PUSH1 0x0 SWAP3 POP DUP7 PUSH1 0x1 DUP6 ADD EQ PUSH1 0x0 DUP2 EQ PUSH2 0x4C4 JUMPI PUSH20 0xEEEEEEEEEEEEEEEEEEEEEEEEEEEEEEEEEEEEEEEE DUP8 EQ DUP1 ISZERO PUSH2 0x4BA JUMPI ADDRESS SWAP5 POP PUSH2 0x4BE JUMP JUMPDEST CALLER SWAP5 POP JUMPDEST POP PUSH2 0x4DF JUMP JUMPDEST PUSH2 0x4D9 PUSH2 0x4D3 PUSH1 0x2 DUP8 ADD PUSH2 0x5E1 JUMP JUMPDEST DUP9 PUSH2 0x62E JUMP JUMPDEST SWAP6 POP DUP6 SWAP4 POP JUMPDEST POP PUSH32 0x22C0D9F00000000000000000000000000000000000000000000000000000000 PUSH2 0xB00 MSTORE DUP2 DUP1 ISZERO PUSH2 0x51C JUMPI PUSH1 0x0 PUSH2 0xB04 MSTORE DUP9 PUSH2 0xB24 MSTORE PUSH2 0x528 JUMP JUMPDEST DUP9 PUSH2 0xB04 MSTORE PUSH1 0x0 PUSH2 0xB24 MSTORE JUMPDEST POP DUP3 PUSH2 0xB44 MSTORE PUSH1 0x80 PUSH2 0xB64 MSTORE PUSH1 0x0 PUSH2 0xB84 MSTORE PUSH1 0x0 DUP1 PUSH1 0xA4 PUSH2 0xB00 PUSH1 0x0 DUP6 GAS CALL PUSH2 0x553 JUMPI PUSH2 0x553 PUSH2 0x743 JUMP JUMPDEST POP POP POP PUSH1 0x1 ADD PUSH2 0x2BA JUMP JUMPDEST POP POP PUSH20 0xEEEEEEEEEEEEEEEEEEEEEEEEEEEEEEEEEEEEEEEE DUP2 EQ ISZERO PUSH2 0x5DA JUMPI PUSH32 0x2E1A7D4D00000000000000000000000000000000000000000000000000000000 PUSH2 0xB00 MSTORE DUP3 PUSH2 0xB04 MSTORE PUSH1 0x0 DUP1 PUSH1 0x24 PUSH2 0xB00 PUSH1 0x0 PUSH2 0xA40 MLOAD GAS CALL PUSH2 0x5C2 JUMPI PUSH2 0x5C2 PUSH2 0x743 JUMP JUMPDEST PUSH1 0x0 DUP1 PUSH1 0x0 PUSH2 0xB00 DUP7 CALLER GAS CALL PUSH2 0x5DA JUMPI PUSH2 0x5DA PUSH2 0x743 JUMP JUMPDEST POP POP PUSH2 0x8EF JUMP JUMPDEST PUSH2 0xA00 MLOAD PUSH20 0xFFFFFFFFFFFFFFFFFFFFFFFFFFFFFFFFFFFFFFFF PUSH1 0x20 SWAP3 SWAP1 SWAP3 MUL ADD CALLDATALOAD AND SWAP1 JUMP JUMPDEST DUP1 PUSH20 0xEEEEEEEEEEEEEEEEEEEEEEEEEEEEEEEEEEEEEEEE DUP2 EQ ISZERO PUSH2 0x629 JUMPI POP PUSH2 0xA40 MLOAD JUMPDEST SWAP2 SWAP1 POP JUMP JUMPDEST PUSH1 0x0 PUSH2 0x639 DUP3 PUSH2 0x606 JUMP JUMPDEST SWAP2 POP PUSH2 0x644 DUP4 PUSH2 0x606 JUMP JUMPDEST SWAP3 POP DUP3 DUP3 LT DUP1 ISZERO PUSH2 0x65E JUMPI DUP4 PUSH2 0xB14 MSTORE DUP3 PUSH2 0xB00 MSTORE PUSH2 0x669 JUMP JUMPDEST DUP3 PUSH2 0xB14 MSTORE DUP4 PUSH2 0xB00 MSTORE JUMPDEST POP PUSH1 0x28 PUSH2 0xB0C KECCAK256 PUSH2 0xA20 MLOAD DUP1 ISZERO PUSH2 0x6CE JUMPI PUSH32 0xFFC0AEE478E3658E2610C5F7A4A2E1777CE9E4F2AC0000000000000000000000 PUSH2 0xB00 MSTORE DUP2 PUSH2 0xB15 MSTORE PUSH32 0xE18A34EB0E04B04F7A0AC29A6E80748DCA96319B42C54D679CB821DCA90C6303 PUSH2 0xB35 MSTORE PUSH2 0x71E JUMP JUMPDEST PUSH32 0xFF5C69BEE701EF814A2B6A3EDD4B1652CB9CC5AA6F0000000000000000000000 PUSH2 0xB00 MSTORE DUP2 PUSH2 0xB15 MSTORE PUSH32 0x96E8AC4277198FF8B6F785478AA9A39F403CB768DD02CBEE326C3E7DA348845F PUSH2 0xB35 MSTORE JUMPDEST POP POP PUSH1 0x55 PUSH2 0xB00 KECCAK256 PUSH20 0xFFFFFFFFFFFFFFFFFFFFFFFFFFFFFFFFFFFFFFFF AND SWAP4 SWAP3 POP POP POP JUMP JUMPDEST RETURNDATASIZE PUSH1 0x0 DUP1 RETURNDATACOPY RETURNDATASIZE PUSH1 0x0 REVERT JUMPDEST PUSH2 0x756 DUP2 PUSH2 0x8C4 JUMP JUMPDEST ISZERO PUSH2 0x7CE JUMPI PUSH32 0xDD62ED3E00000000000000000000000000000000000000000000000000000000 PUSH2 0xB00 MSTORE CALLER PUSH2 0xB04 MSTORE ADDRESS PUSH2 0xB24 MSTORE PUSH1 0x20 PUSH2 0xC00 PUSH1 0x44 PUSH2 0xB00 DUP5 GAS STATICCALL DUP1 PUSH2 0x7A4 JUMPI PUSH2 0x7A4 PUSH2 0x743 JUMP JUMPDEST POP PUSH1 0x20 RETURNDATASIZE LT ISZERO PUSH2 0x7B3 JUMPI PUSH1 0x0 DUP1 REVERT JUMPDEST DUP3 PUSH2 0xC00 MLOAD LT ISZERO PUSH2 0x7CE JUMPI PUSH2 0x7C9 DUP4 DUP4 DUP4 PUSH2 0x83E JUMP JUMPDEST PUSH2 0x839 JUMP JUMPDEST PUSH32 0x23B872DD00000000000000000000000000000000000000000000000000000000 PUSH2 0xB00 MSTORE CALLER PUSH2 0xB04 MSTORE DUP2 PUSH2 0xB24 MSTORE DUP3 PUSH2 0xB44 MSTORE PUSH1 0x20 PUSH2 0xC00 PUSH1 0x64 PUSH2 0xB00 PUSH1 0x0 DUP6 GAS CALL RETURNDATASIZE PUSH1 0x1 PUSH2 0xC00 MLOAD EQ PUSH1 0x20 DUP3 LT ISZERO AND DUP2 ISZERO OR DUP3 AND SWAP2 POP POP DUP1 PUSH2 0x837 JUMPI PUSH2 0x837 DUP5 DUP5 DUP5 PUSH2 0x83E JUMP JUMPDEST POP JUMPDEST POP POP POP JUMP JUMPDEST PUSH32 0xBCA8C7B500000000000000000000000000000000000000000000000000000000 PUSH2 0xB00 MSTORE DUP1 PUSH2 0xB04 MSTORE PUSH1 0x40 PUSH2 0xB24 MSTORE PUSH1 0x64 PUSH2 0xB44 MSTORE PUSH32 0x23B872DD00000000000000000000000000000000000000000000000000000000 PUSH2 0xB64 MSTORE CALLER PUSH2 0xB68 MSTORE DUP2 PUSH2 0xB88 MSTORE DUP3 PUSH2 0xBA8 MSTORE PUSH1 0x0 DUP1 PUSH1 0xC8 PUSH2 0xB00 PUSH1 0x0 PUSH2 0xA60 MLOAD GAS CALL PUSH2 0x839 JUMPI PUSH2 0x839 PUSH2 0x743 JUMP JUMPDEST PUSH1 0x0 DUP2 PUSH1 0x0 MSTORE PUSH1 0x1 PUSH2 0x100 DUP4 MOD SHL PUSH1 0x1 PUSH2 0x100 PUSH1 0x20 PUSH1 0x0 KECCAK256 MOD SHL OR DUP1 PUSH2 0xA80 MLOAD DUP3 AND EQ SWAP2 POP POP SWAP2 SWAP1 POP JUMP JUMPDEST DUP3 DUP2 LT ISZERO PUSH2 0x929 JUMPI PUSH1 0x40 MLOAD PUSH32 0x8C379A000000000000000000000000000000000000000000000000000000000 DUP2 MSTORE PUSH1 0x4 ADD PUSH2 0x203 SWAP1 PUSH2 0xBA9 JUMP JUMPDEST SWAP6 SWAP5 POP POP POP POP POP JUMP JUMPDEST PUSH1 0x40 MLOAD PUSH32 0x6EB224CB00000000000000000000000000000000000000000000000000000000 DUP2 MSTORE ADDRESS SWAP1 PUSH4 0x6EB224CB SWAP1 PUSH2 0x990 SWAP1 DUP5 SWAP1 PUSH32 0x0 SWAP1 PUSH1 0x4 ADD PUSH2 0xA93 JUMP JUMPDEST PUSH1 0x0 PUSH1 0x40 MLOAD DUP1 DUP4 SUB DUP2 PUSH1 0x0 DUP8 DUP1 EXTCODESIZE ISZERO DUP1 ISZERO PUSH2 0x9AA JUMPI PUSH1 0x0 DUP1 REVERT JUMPDEST POP GAS CALL ISZERO DUP1 ISZERO PUSH2 0x9BE JUMPI RETURNDATASIZE PUSH1 0x0 DUP1 RETURNDATACOPY RETURNDATASIZE PUSH1 0x0 REVERT JUMPDEST POP POP POP POP POP JUMP JUMPDEST PUSH1 0x0 DUP1 PUSH1 0x0 DUP1 PUSH1 0x0 PUSH1 0x80 DUP7 DUP9 SUB SLT ISZERO PUSH2 0x9DC JUMPI DUP1 DUP2 REVERT JUMPDEST DUP6 CALLDATALOAD PUSH8 0xFFFFFFFFFFFFFFFF DUP1 DUP3 GT ISZERO PUSH2 0x9F3 JUMPI DUP3 DUP4 REVERT JUMPDEST DUP2 DUP9 ADD SWAP2 POP DUP9 PUSH1 0x1F DUP4 ADD SLT PUSH2 0xA06 JUMPI DUP3 DUP4 REVERT JUMPDEST DUP2 CALLDATALOAD DUP2 DUP2 GT ISZERO PUSH2 0xA14 JUMPI DUP4 DUP5 REVERT JUMPDEST DUP10 PUSH1 0x20 DUP1 DUP4 MUL DUP6 ADD ADD GT ISZERO PUSH2 0xA27 JUMPI DUP4 DUP5 REVERT JUMPDEST PUSH1 0x20 SWAP3 DUP4 ADD SWAP8 POP SWAP6 POP POP DUP7 ADD CALLDATALOAD SWAP3 POP PUSH1 0x40 DUP7 ADD CALLDATALOAD SWAP2 POP PUSH1 0x60 DUP7 ADD CALLDATALOAD DUP1 ISZERO ISZERO DUP2 EQ PUSH2 0xA4F JUMPI DUP2 DUP3 REVERT JUMPDEST DUP1 SWAP2 POP POP SWAP3 SWAP6 POP SWAP3 SWAP6 SWAP1 SWAP4 POP JUMP JUMPDEST SWAP1 DUP2 MSTORE PUSH1 0x20 ADD SWAP1 JUMP JUMPDEST PUSH32 0xFFFFFFFF00000000000000000000000000000000000000000000000000000000 SWAP2 SWAP1 SWAP2 AND DUP2 MSTORE PUSH1 0x20 ADD SWAP1 JUMP JUMPDEST PUSH32 0xFFFFFFFF00000000000000000000000000000000000000000000000000000000 SWAP3 SWAP1 SWAP3 AND DUP3 MSTORE PUSH20 0xFFFFFFFFFFFFFFFFFFFFFFFFFFFFFFFFFFFFFFFF AND PUSH1 0x20 DUP3 ADD MSTORE PUSH1 0x40 ADD SWAP1 JUMP JUMPDEST PUSH1 0x0 PUSH1 0x20 DUP1 DUP4 MSTORE DUP4 MLOAD DUP1 DUP3 DUP6 ADD MSTORE DUP3 JUMPDEST DUP2 DUP2 LT ISZERO PUSH2 0xB07 JUMPI DUP6 DUP2 ADD DUP4 ADD MLOAD DUP6 DUP3 ADD PUSH1 0x40 ADD MSTORE DUP3 ADD PUSH2 0xAEB JUMP JUMPDEST DUP2 DUP2 GT ISZERO PUSH2 0xB18 JUMPI DUP4 PUSH1 0x40 DUP4 DUP8 ADD ADD MSTORE JUMPDEST POP PUSH1 0x1F ADD PUSH32 0xFFFFFFFFFFFFFFFFFFFFFFFFFFFFFFFFFFFFFFFFFFFFFFFFFFFFFFFFFFFFFFE0 AND SWAP3 SWAP1 SWAP3 ADD PUSH1 0x40 ADD SWAP4 SWAP3 POP POP POP JUMP JUMPDEST PUSH1 0x20 DUP1 DUP3 MSTORE PUSH1 0x22 SWAP1 DUP3 ADD MSTORE PUSH32 0x556E6973776170466561747572652F496E76616C6964546F6B656E734C656E67 PUSH1 0x40 DUP3 ADD MSTORE PUSH32 0x7468000000000000000000000000000000000000000000000000000000000000 PUSH1 0x60 DUP3 ADD MSTORE PUSH1 0x80 ADD SWAP1 JUMP JUMPDEST PUSH1 0x20 DUP1 DUP3 MSTORE PUSH1 0x1A SWAP1 DUP3 ADD MSTORE PUSH32 0x556E6973776170466561747572652F556E646572426F75676874000000000000 PUSH1 0x40 DUP3 ADD MSTORE PUSH1 0x60 ADD SWAP1 JUMP INVALID LOG2 PUSH5 0x6970667358 0x22 SLT KECCAK256 CALL 0xE6 0xB8 MOD SWAP2 DUP12 0xE3 0xE9 MOD NUMBER 0xBB 0xD 0xFC 0xE6 SLT 0xE2 SWAP15 PUSH30 0x369EDE1C1AA524E03F5C60D4F20864736F6C634300060C00330000000000 "
            },
            "methodIdentifiers": {
                "FEATURE_NAME()": "6ae4b4f7",
                "FEATURE_VERSION()": "031b905c",
                "GREEDY_TOKENS_BLOOM_FILTER()": "d925a56d",
                "migrate()": "8fd3ab80",
                "sellToUniswap(address[],uint256,uint256,bool)": "d9627aa4"
            }
        }
    },
    "sourceTreeHashHex": "0xb2e30613c34660d364cd35918a4c96973c22ef8f4ab186931729770ac0134c02",
    "compiler": {
        "name": "solc",
        "version": "0.6.12+commit.27d51765",
        "settings": {
            "remappings": [
                "@0x/contracts-utils=/Users/michaelzhu/protocol/node_modules/@0x/contracts-utils",
                "@0x/contracts-erc20=/Users/michaelzhu/protocol/contracts/zero-ex/node_modules/@0x/contracts-erc20"
            ],
            "optimizer": {
                "enabled": true,
                "runs": 1000000,
                "details": {
                    "yul": true,
                    "deduplicate": true,
                    "cse": true,
                    "constantOptimizer": true
                }
            },
            "outputSelection": {
                "*": {
                    "*": [
                        "abi",
                        "devdoc",
                        "evm.bytecode.object",
                        "evm.bytecode.sourceMap",
                        "evm.deployedBytecode.object",
                        "evm.deployedBytecode.sourceMap",
                        "evm.methodIdentifiers"
                    ]
                }
            },
            "evmVersion": "istanbul"
        }
    },
    "chains": {}
}