{
    "schemaVersion": "2.0.0",
    "contractName": "FakeTaker",
    "compilerOutput": {
        "abi": [
            {
                "inputs": [
                    {
                        "internalType": "address payable",
                        "name": "to",
                        "type": "address"
                    },
                    {
                        "internalType": "bytes",
                        "name": "data",
                        "type": "bytes"
                    }
                ],
                "name": "execute",
                "outputs": [
                    {
                        "components": [
                            {
                                "internalType": "bool",
                                "name": "success",
                                "type": "bool"
                            },
                            {
                                "internalType": "bytes",
                                "name": "resultData",
                                "type": "bytes"
                            },
                            {
                                "internalType": "uint256",
                                "name": "gasUsed",
                                "type": "uint256"
                            }
                        ],
                        "internalType": "struct FakeTaker.Result",
                        "name": "result",
                        "type": "tuple"
                    }
                ],
                "stateMutability": "payable",
                "type": "function"
            }
        ],
        "devdoc": {
            "kind": "dev",
            "methods": {},
            "version": 1
        },
        "evm": {
            "bytecode": {
                "linkReferences": {},
                "object": "0x608060405234801561001057600080fd5b50610356806100206000396000f3fe6080604052600436106100225760003560e01c80631cff79cd1461002e57610029565b3661002957005b600080fd5b61004161003c366004610157565b610057565b60405161004e919061027a565b60405180910390f35b61005f6100da565b60005a9050846001600160a01b031634858560405161007f929190610265565b60006040518083038185875af1925050503d80600081146100bc576040519150601f19603f3d011682016040523d82523d6000602084013e6100c1565b606091505b506020840152151582525a900360408201529392505050565b604051806060016040528060001515815260200160608152602001600081525090565b803561010881610309565b92915050565b60008083601f84011261012057600080fd5b50813567ffffffffffffffff81111561013857600080fd5b60208301915083600182028301111561015057600080fd5b9250929050565b60008060006040848603121561016c57600080fd5b600061017886866100fd565b935050602084013567ffffffffffffffff81111561019557600080fd5b6101a18682870161010e565b92509250509250925092565b6101b6816102af565b82525050565b60006101c8838561029f565b93506101d58385846102c3565b50500190565b60006101e682610292565b6101f08185610296565b93506102008185602086016102cf565b610209816102ff565b9093019392505050565b8051600090606084019061022785826101ad565b506020830151848203602086015261023f82826101db565b9150506040830151610254604086018261025c565b509392505050565b6101b6816102c0565b60006102728284866101bc565b949350505050565b6020808252810161028b8184610213565b9392505050565b5190565b90815260200190565b919050565b6000610108826102b4565b151590565b6001600160a01b031690565b90565b82818337506000910152565b60005b838110156102ea5781810151838201526020016102d2565b838111156102f9576000848401525b50505050565b601f01601f191690565b610312816102a4565b811461031d57600080fd5b5056fea2646970667358221220a593ee45fc798f9605c32613583fe9c63e32d20546b98c832a9c6b6e1af5934f64736f6c634300060c0033",
                "opcodes": "PUSH1 0x80 PUSH1 0x40 MSTORE CALLVALUE DUP1 ISZERO PUSH2 0x10 JUMPI PUSH1 0x0 DUP1 REVERT JUMPDEST POP PUSH2 0x356 DUP1 PUSH2 0x20 PUSH1 0x0 CODECOPY PUSH1 0x0 RETURN INVALID PUSH1 0x80 PUSH1 0x40 MSTORE PUSH1 0x4 CALLDATASIZE LT PUSH2 0x22 JUMPI PUSH1 0x0 CALLDATALOAD PUSH1 0xE0 SHR DUP1 PUSH4 0x1CFF79CD EQ PUSH2 0x2E JUMPI PUSH2 0x29 JUMP JUMPDEST CALLDATASIZE PUSH2 0x29 JUMPI STOP JUMPDEST PUSH1 0x0 DUP1 REVERT JUMPDEST PUSH2 0x41 PUSH2 0x3C CALLDATASIZE PUSH1 0x4 PUSH2 0x157 JUMP JUMPDEST PUSH2 0x57 JUMP JUMPDEST PUSH1 0x40 MLOAD PUSH2 0x4E SWAP2 SWAP1 PUSH2 0x27A JUMP JUMPDEST PUSH1 0x40 MLOAD DUP1 SWAP2 SUB SWAP1 RETURN JUMPDEST PUSH2 0x5F PUSH2 0xDA JUMP JUMPDEST PUSH1 0x0 GAS SWAP1 POP DUP5 PUSH1 0x1 PUSH1 0x1 PUSH1 0xA0 SHL SUB AND CALLVALUE DUP6 DUP6 PUSH1 0x40 MLOAD PUSH2 0x7F SWAP3 SWAP2 SWAP1 PUSH2 0x265 JUMP JUMPDEST PUSH1 0x0 PUSH1 0x40 MLOAD DUP1 DUP4 SUB DUP2 DUP6 DUP8 GAS CALL SWAP3 POP POP POP RETURNDATASIZE DUP1 PUSH1 0x0 DUP2 EQ PUSH2 0xBC JUMPI PUSH1 0x40 MLOAD SWAP2 POP PUSH1 0x1F NOT PUSH1 0x3F RETURNDATASIZE ADD AND DUP3 ADD PUSH1 0x40 MSTORE RETURNDATASIZE DUP3 MSTORE RETURNDATASIZE PUSH1 0x0 PUSH1 0x20 DUP5 ADD RETURNDATACOPY PUSH2 0xC1 JUMP JUMPDEST PUSH1 0x60 SWAP2 POP JUMPDEST POP PUSH1 0x20 DUP5 ADD MSTORE ISZERO ISZERO DUP3 MSTORE GAS SWAP1 SUB PUSH1 0x40 DUP3 ADD MSTORE SWAP4 SWAP3 POP POP POP JUMP JUMPDEST PUSH1 0x40 MLOAD DUP1 PUSH1 0x60 ADD PUSH1 0x40 MSTORE DUP1 PUSH1 0x0 ISZERO ISZERO DUP2 MSTORE PUSH1 0x20 ADD PUSH1 0x60 DUP2 MSTORE PUSH1 0x20 ADD PUSH1 0x0 DUP2 MSTORE POP SWAP1 JUMP JUMPDEST DUP1 CALLDATALOAD PUSH2 0x108 DUP2 PUSH2 0x309 JUMP JUMPDEST SWAP3 SWAP2 POP POP JUMP JUMPDEST PUSH1 0x0 DUP1 DUP4 PUSH1 0x1F DUP5 ADD SLT PUSH2 0x120 JUMPI PUSH1 0x0 DUP1 REVERT JUMPDEST POP DUP2 CALLDATALOAD PUSH8 0xFFFFFFFFFFFFFFFF DUP2 GT ISZERO PUSH2 0x138 JUMPI PUSH1 0x0 DUP1 REVERT JUMPDEST PUSH1 0x20 DUP4 ADD SWAP2 POP DUP4 PUSH1 0x1 DUP3 MUL DUP4 ADD GT ISZERO PUSH2 0x150 JUMPI PUSH1 0x0 DUP1 REVERT JUMPDEST SWAP3 POP SWAP3 SWAP1 POP JUMP JUMPDEST PUSH1 0x0 DUP1 PUSH1 0x0 PUSH1 0x40 DUP5 DUP7 SUB SLT ISZERO PUSH2 0x16C JUMPI PUSH1 0x0 DUP1 REVERT JUMPDEST PUSH1 0x0 PUSH2 0x178 DUP7 DUP7 PUSH2 0xFD JUMP JUMPDEST SWAP4 POP POP PUSH1 0x20 DUP5 ADD CALLDATALOAD PUSH8 0xFFFFFFFFFFFFFFFF DUP2 GT ISZERO PUSH2 0x195 JUMPI PUSH1 0x0 DUP1 REVERT JUMPDEST PUSH2 0x1A1 DUP7 DUP3 DUP8 ADD PUSH2 0x10E JUMP JUMPDEST SWAP3 POP SWAP3 POP POP SWAP3 POP SWAP3 POP SWAP3 JUMP JUMPDEST PUSH2 0x1B6 DUP2 PUSH2 0x2AF JUMP JUMPDEST DUP3 MSTORE POP POP JUMP JUMPDEST PUSH1 0x0 PUSH2 0x1C8 DUP4 DUP6 PUSH2 0x29F JUMP JUMPDEST SWAP4 POP PUSH2 0x1D5 DUP4 DUP6 DUP5 PUSH2 0x2C3 JUMP JUMPDEST POP POP ADD SWAP1 JUMP JUMPDEST PUSH1 0x0 PUSH2 0x1E6 DUP3 PUSH2 0x292 JUMP JUMPDEST PUSH2 0x1F0 DUP2 DUP6 PUSH2 0x296 JUMP JUMPDEST SWAP4 POP PUSH2 0x200 DUP2 DUP6 PUSH1 0x20 DUP7 ADD PUSH2 0x2CF JUMP JUMPDEST PUSH2 0x209 DUP2 PUSH2 0x2FF JUMP JUMPDEST SWAP1 SWAP4 ADD SWAP4 SWAP3 POP POP POP JUMP JUMPDEST DUP1 MLOAD PUSH1 0x0 SWAP1 PUSH1 0x60 DUP5 ADD SWAP1 PUSH2 0x227 DUP6 DUP3 PUSH2 0x1AD JUMP JUMPDEST POP PUSH1 0x20 DUP4 ADD MLOAD DUP5 DUP3 SUB PUSH1 0x20 DUP7 ADD MSTORE PUSH2 0x23F DUP3 DUP3 PUSH2 0x1DB JUMP JUMPDEST SWAP2 POP POP PUSH1 0x40 DUP4 ADD MLOAD PUSH2 0x254 PUSH1 0x40 DUP7 ADD DUP3 PUSH2 0x25C JUMP JUMPDEST POP SWAP4 SWAP3 POP POP POP JUMP JUMPDEST PUSH2 0x1B6 DUP2 PUSH2 0x2C0 JUMP JUMPDEST PUSH1 0x0 PUSH2 0x272 DUP3 DUP5 DUP7 PUSH2 0x1BC JUMP JUMPDEST SWAP5 SWAP4 POP POP POP POP JUMP JUMPDEST PUSH1 0x20 DUP1 DUP3 MSTORE DUP2 ADD PUSH2 0x28B DUP2 DUP5 PUSH2 0x213 JUMP JUMPDEST SWAP4 SWAP3 POP POP POP JUMP JUMPDEST MLOAD SWAP1 JUMP JUMPDEST SWAP1 DUP2 MSTORE PUSH1 0x20 ADD SWAP1 JUMP JUMPDEST SWAP2 SWAP1 POP JUMP JUMPDEST PUSH1 0x0 PUSH2 0x108 DUP3 PUSH2 0x2B4 JUMP JUMPDEST ISZERO ISZERO SWAP1 JUMP JUMPDEST PUSH1 0x1 PUSH1 0x1 PUSH1 0xA0 SHL SUB AND SWAP1 JUMP JUMPDEST SWAP1 JUMP JUMPDEST DUP3 DUP2 DUP4 CALLDATACOPY POP PUSH1 0x0 SWAP2 ADD MSTORE JUMP JUMPDEST PUSH1 0x0 JUMPDEST DUP4 DUP2 LT ISZERO PUSH2 0x2EA JUMPI DUP2 DUP2 ADD MLOAD DUP4 DUP3 ADD MSTORE PUSH1 0x20 ADD PUSH2 0x2D2 JUMP JUMPDEST DUP4 DUP2 GT ISZERO PUSH2 0x2F9 JUMPI PUSH1 0x0 DUP5 DUP5 ADD MSTORE JUMPDEST POP POP POP POP JUMP JUMPDEST PUSH1 0x1F ADD PUSH1 0x1F NOT AND SWAP1 JUMP JUMPDEST PUSH2 0x312 DUP2 PUSH2 0x2A4 JUMP JUMPDEST DUP2 EQ PUSH2 0x31D JUMPI PUSH1 0x0 DUP1 REVERT JUMPDEST POP JUMP INVALID LOG2 PUSH5 0x6970667358 0x22 SLT KECCAK256 0xA5 SWAP4 0xEE GASLIMIT 0xFC PUSH26 0x8F9605C32613583FE9C63E32D20546B98C832A9C6B6E1AF5934F PUSH5 0x736F6C6343 STOP MOD 0xC STOP CALLER "
            }
        }
    },
    "sourceTreeHashHex": "0xabea81cf011ba92f004a38162489bf66b7e0035df5006100fa3d4c51180b8ae3",
    "compiler": {
        "name": "solc",
        "version": "0.6.12+commit.27d51765",
        "settings": {
            "remappings": [
                "@0x/contracts-utils=/Users/davidwalsh/code/0x-api/node_modules/@0x/contracts-utils",
                "@0x/contracts-erc20=/Users/davidwalsh/code/0x-api/node_modules/@0x/contracts-erc20",
                "@uniswap/v3-core=/Users/davidwalsh/code/0x-api/node_modules/@uniswap/v3-core",
                "@uniswap/v3-periphery=/Users/davidwalsh/code/0x-api/node_modules/@uniswap/v3-periphery"
            ],
            "optimizer": {
                "enabled": true,
                "runs": 200,
                "details": {
                    "yul": false,
                    "deduplicate": true
                }
            },
            "outputSelection": {
                "*": {
                    "*": [
                        "abi",
                        "devdoc",
                        "evm.bytecode.object",
                        "evm.bytecode.sourceMap",
                        "evm.deployedBytecode.object",
                        "evm.deployedBytecode.sourceMap"
                    ]
                }
            },
            "evmVersion": "istanbul"
        }
    },
    "chains": {}
}