{
    "abi": [
        {
            "inputs": [
                {
                    "internalType": "contract IStaking",
                    "name": "stakingProxy_",
                    "type": "address"
                },
                {
                    "components": [
                        {
                            "internalType": "uint256",
                            "name": "votingPeriod",
                            "type": "uint256"
                        },
                        {
                            "internalType": "uint256",
                            "name": "proposalThreshold",
                            "type": "uint256"
                        },
                        {
                            "internalType": "uint256",
                            "name": "quorumThreshold",
                            "type": "uint256"
                        },
                        {
                            "internalType": "bytes32",
                            "name": "defaultPoolId",
                            "type": "bytes32"
                        }
                    ],
                    "internalType": "struct IZrxTreasury.TreasuryParameters",
                    "name": "params",
                    "type": "tuple"
                }
            ],
            "stateMutability": "nonpayable",
            "type": "constructor"
        },
        {
            "anonymous": false,
            "inputs": [
                {
                    "indexed": false,
                    "internalType": "address",
                    "name": "proposer",
                    "type": "address"
                },
                {
                    "indexed": false,
                    "internalType": "bytes32[]",
                    "name": "operatedPoolIds",
                    "type": "bytes32[]"
                },
                {
                    "indexed": false,
                    "internalType": "uint256",
                    "name": "proposalId",
                    "type": "uint256"
                },
                {
                    "components": [
                        {
                            "internalType": "address",
                            "name": "target",
                            "type": "address"
                        },
                        {
                            "internalType": "bytes",
                            "name": "data",
                            "type": "bytes"
                        },
                        {
                            "internalType": "uint256",
                            "name": "value",
                            "type": "uint256"
                        }
                    ],
                    "indexed": false,
                    "internalType": "struct IZrxTreasury.ProposedAction[]",
                    "name": "actions",
                    "type": "tuple[]"
                },
                {
                    "indexed": false,
                    "internalType": "uint256",
                    "name": "executionEpoch",
                    "type": "uint256"
                },
                {
                    "indexed": false,
                    "internalType": "string",
                    "name": "description",
                    "type": "string"
                }
            ],
            "name": "ProposalCreated",
            "type": "event"
        },
        {
            "anonymous": false,
            "inputs": [
                {
                    "indexed": false,
                    "internalType": "uint256",
                    "name": "proposalId",
                    "type": "uint256"
                }
            ],
            "name": "ProposalExecuted",
            "type": "event"
        },
        {
            "anonymous": false,
            "inputs": [
                {
                    "indexed": false,
                    "internalType": "address",
                    "name": "voter",
                    "type": "address"
                },
                {
                    "indexed": false,
                    "internalType": "bytes32[]",
                    "name": "operatedPoolIds",
                    "type": "bytes32[]"
                },
                {
                    "indexed": false,
                    "internalType": "uint256",
                    "name": "proposalId",
                    "type": "uint256"
                },
                {
                    "indexed": false,
                    "internalType": "bool",
                    "name": "support",
                    "type": "bool"
                },
                {
                    "indexed": false,
                    "internalType": "uint256",
                    "name": "votingPower",
                    "type": "uint256"
                }
            ],
            "name": "VoteCast",
            "type": "event"
        },
        {
            "inputs": [
                {
                    "internalType": "uint256",
                    "name": "proposalId",
                    "type": "uint256"
                },
                {
                    "internalType": "bool",
                    "name": "support",
                    "type": "bool"
                },
                {
                    "internalType": "bytes32[]",
                    "name": "operatedPoolIds",
                    "type": "bytes32[]"
                }
            ],
            "name": "castVote",
            "outputs": [],
            "stateMutability": "nonpayable",
            "type": "function"
        },
        {
            "inputs": [
                {
                    "internalType": "uint256",
                    "name": "proposalId",
                    "type": "uint256"
                },
                {
                    "internalType": "bool",
                    "name": "support",
                    "type": "bool"
                },
                {
                    "internalType": "bytes32[]",
                    "name": "operatedPoolIds",
                    "type": "bytes32[]"
                },
                {
                    "internalType": "uint8",
                    "name": "v",
                    "type": "uint8"
                },
                {
                    "internalType": "bytes32",
                    "name": "r",
                    "type": "bytes32"
                },
                {
                    "internalType": "bytes32",
                    "name": "s",
                    "type": "bytes32"
                }
            ],
            "name": "castVoteBySignature",
            "outputs": [],
            "stateMutability": "nonpayable",
            "type": "function"
        },
        {
            "inputs": [],
            "name": "defaultPoolId",
            "outputs": [
                {
                    "internalType": "bytes32",
                    "name": "",
                    "type": "bytes32"
                }
            ],
            "stateMutability": "view",
            "type": "function"
        },
        {
            "inputs": [],
            "name": "defaultPoolOperator",
            "outputs": [
                {
                    "internalType": "contract DefaultPoolOperator",
                    "name": "",
                    "type": "address"
                }
            ],
            "stateMutability": "view",
            "type": "function"
        },
        {
            "inputs": [
                {
                    "internalType": "uint256",
                    "name": "proposalId",
                    "type": "uint256"
                },
                {
                    "components": [
                        {
                            "internalType": "address",
                            "name": "target",
                            "type": "address"
                        },
                        {
                            "internalType": "bytes",
                            "name": "data",
                            "type": "bytes"
                        },
                        {
                            "internalType": "uint256",
                            "name": "value",
                            "type": "uint256"
                        }
                    ],
                    "internalType": "struct IZrxTreasury.ProposedAction[]",
                    "name": "actions",
                    "type": "tuple[]"
                }
            ],
            "name": "execute",
            "outputs": [],
            "stateMutability": "payable",
            "type": "function"
        },
        {
            "inputs": [
                {
                    "internalType": "address",
                    "name": "account",
                    "type": "address"
                },
                {
                    "internalType": "bytes32[]",
                    "name": "operatedPoolIds",
                    "type": "bytes32[]"
                }
            ],
            "name": "getVotingPower",
            "outputs": [
                {
                    "internalType": "uint256",
                    "name": "votingPower",
                    "type": "uint256"
                }
            ],
            "stateMutability": "view",
            "type": "function"
        },
        {
            "inputs": [
                {
                    "internalType": "uint256",
                    "name": "",
                    "type": "uint256"
                },
                {
                    "internalType": "address",
                    "name": "",
                    "type": "address"
                }
            ],
            "name": "hasVoted",
            "outputs": [
                {
                    "internalType": "bool",
                    "name": "",
                    "type": "bool"
                }
            ],
            "stateMutability": "view",
            "type": "function"
        },
        {
            "inputs": [],
            "name": "proposalCount",
            "outputs": [
                {
                    "internalType": "uint256",
                    "name": "count",
                    "type": "uint256"
                }
            ],
            "stateMutability": "view",
            "type": "function"
        },
        {
            "inputs": [],
            "name": "proposalThreshold",
            "outputs": [
                {
                    "internalType": "uint256",
                    "name": "",
                    "type": "uint256"
                }
            ],
            "stateMutability": "view",
            "type": "function"
        },
        {
            "inputs": [
                {
                    "internalType": "uint256",
                    "name": "",
                    "type": "uint256"
                }
            ],
            "name": "proposals",
            "outputs": [
                {
                    "internalType": "bytes32",
                    "name": "actionsHash",
                    "type": "bytes32"
                },
                {
                    "internalType": "uint256",
                    "name": "executionEpoch",
                    "type": "uint256"
                },
                {
                    "internalType": "uint256",
                    "name": "voteEpoch",
                    "type": "uint256"
                },
                {
                    "internalType": "uint256",
                    "name": "votesFor",
                    "type": "uint256"
                },
                {
                    "internalType": "uint256",
                    "name": "votesAgainst",
                    "type": "uint256"
                },
                {
                    "internalType": "bool",
                    "name": "executed",
                    "type": "bool"
                }
            ],
            "stateMutability": "view",
            "type": "function"
        },
        {
            "inputs": [
                {
                    "components": [
                        {
                            "internalType": "address",
                            "name": "target",
                            "type": "address"
                        },
                        {
                            "internalType": "bytes",
                            "name": "data",
                            "type": "bytes"
                        },
                        {
                            "internalType": "uint256",
                            "name": "value",
                            "type": "uint256"
                        }
                    ],
                    "internalType": "struct IZrxTreasury.ProposedAction[]",
                    "name": "actions",
                    "type": "tuple[]"
                },
                {
                    "internalType": "uint256",
                    "name": "executionEpoch",
                    "type": "uint256"
                },
                {
                    "internalType": "string",
                    "name": "description",
                    "type": "string"
                },
                {
                    "internalType": "bytes32[]",
                    "name": "operatedPoolIds",
                    "type": "bytes32[]"
                }
            ],
            "name": "propose",
            "outputs": [
                {
                    "internalType": "uint256",
                    "name": "proposalId",
                    "type": "uint256"
                }
            ],
            "stateMutability": "nonpayable",
            "type": "function"
        },
        {
            "inputs": [],
            "name": "quorumThreshold",
            "outputs": [
                {
                    "internalType": "uint256",
                    "name": "",
                    "type": "uint256"
                }
            ],
            "stateMutability": "view",
            "type": "function"
        },
        {
            "inputs": [],
            "name": "stakingProxy",
            "outputs": [
                {
                    "internalType": "contract IStaking",
                    "name": "",
                    "type": "address"
                }
            ],
            "stateMutability": "view",
            "type": "function"
        },
        {
            "inputs": [
                {
                    "internalType": "uint256",
                    "name": "newProposalThreshold",
                    "type": "uint256"
                },
                {
                    "internalType": "uint256",
                    "name": "newQuorumThreshold",
                    "type": "uint256"
                }
            ],
            "name": "updateThresholds",
            "outputs": [],
            "stateMutability": "nonpayable",
            "type": "function"
        },
        {
            "inputs": [],
            "name": "votingPeriod",
            "outputs": [
                {
                    "internalType": "uint256",
                    "name": "",
                    "type": "uint256"
                }
            ],
            "stateMutability": "view",
            "type": "function"
        },
        {
            "stateMutability": "payable",
            "type": "receive"
        }
    ],
    "bytecode": {
        "object": "0x6101206040523480156200001257600080fd5b5060405162002971380380620029718339810160408190526200003591620002a7565b816001600160a01b031663634038016040518163ffffffff1660e01b815260040160206040518083038186803b1580156200006f57600080fd5b505afa15801562000084573d6000803e3d6000fd5b505050506040513d601f19601f82011682018060405250810190620000aa919062000369565b815110620000d55760405162461bcd60e51b8152600401620000cc90620003b7565b60405180910390fd5b606082811b6001600160601b031916608052815160e0526020820151600055604082015160015581015160c0526200010c62000290565b6060820151604051634bcc3f6760e01b81526001600160a01b03851691634bcc3f67916200013e919060040162000382565b604080518083038186803b1580156200015657600080fd5b505afa1580156200016b573d6000803e3d6000fd5b505050506040513d601f19601f8201168201806040525081019062000191919062000319565b805160601b6001600160601b03191660a05260408051808201909152600c81526b5a727820547265617375727960a01b60209091015290507f8b73c3c69bb8fe3d512ecc4cf759cc79239f7b179b0ffacaa9a75d522b39400f7f87d04f8a70a96e82e2eff0013aa6d23b3d03d655fecd921b5c27439303237317620002156200028c565b60408051808201825260058152640312e302e360dc1b602091820152905162000266949392917f06c015bd22b4c69690933c1058878ebdfef31f9aaae40bbe86d8a09fe1b2972c913091016200038b565b60408051601f19818403018152919052805160209091012061010052506200042e915050565b4690565b604080518082019091526000808252602082015290565b60008082840360a0811215620002bb578283fd5b8351620002c88162000415565b92506080601f1982011215620002dc578182fd5b50620002e96080620003ee565b60208401518152604084015160208201526060840151604082015260808401516060820152809150509250929050565b6000604082840312156200032b578081fd5b620003376040620003ee565b8251620003448162000415565b8152602083015163ffffffff811681146200035d578283fd5b60208201529392505050565b6000602082840312156200037b578081fd5b5051919050565b90815260200190565b9485526020850193909352604084019190915260608301526001600160a01b0316608082015260a00190565b60208082526016908201527f564f54494e475f504552494f445f544f4f5f4c4f4e4700000000000000000000604082015260600190565b6040518181016001600160401b03811182821017156200040d57600080fd5b604052919050565b6001600160a01b03811681146200042b57600080fd5b50565b60805160601c60a05160601c60c05160e051610100516124c6620004ab60003980610b2352508061030a52806115c35250806106ad5280610a3c525080610a1852508061032e52806105ae528061067052806107ec52806109145280610c5b5280610f13528061119452806114fa52806115e452506124c66000f3fe6080604052600436106100ec5760003560e01c80639de38af21161008a578063d438a3ce11610059578063d438a3ce1461024d578063d73ceb3a1461026d578063da35c6641461028d578063dfe1e6b2146102a2576100f3565b80639de38af2146101ee578063a0edbcbb14610203578063b58131b014610218578063c14b8e9c1461022d576100f3565b806343859632116100c65780634385963214610177578063662bede3146101a45780637b7a91dd146101b95780637c29cb1a146101ce576100f3565b8063013cf08b146100f857806302a251a31461013357806322f80d1114610155576100f3565b366100f357005b600080fd5b34801561010457600080fd5b50610118610113366004611a88565b6102c2565b60405161012a96959493929190611f09565b60405180910390f35b34801561013f57600080fd5b50610148610308565b60405161012a9190611ee3565b34801561016157600080fd5b5061016a61032c565b60405161012a9190611f51565b34801561018357600080fd5b50610197610192366004611ab8565b610350565b60405161012a9190611ed8565b6101b76101b2366004611ae7565b610370565b005b3480156101c557600080fd5b506101486105a3565b3480156101da57600080fd5b506101486101e9366004611903565b6105a9565b3480156101fa57600080fd5b5061016a610a16565b34801561020f57600080fd5b50610148610a3a565b34801561022457600080fd5b50610148610a5e565b34801561023957600080fd5b506101b7610248366004611bfa565b610a64565b34801561025957600080fd5b506101b7610268366004611b79565b610aa8565b34801561027957600080fd5b50610148610288366004611951565b610bd6565b34801561029957600080fd5b50610148610e1a565b3480156102ae57600080fd5b506101b76102bd366004611b22565b610e20565b600281815481106102cf57fe5b60009182526020909120600690910201805460018201546002830154600384015460048501546005909501549395509193909260ff1686565b7f000000000000000000000000000000000000000000000000000000000000000081565b7f000000000000000000000000000000000000000000000000000000000000000081565b600360209081526000928352604080842090915290825290205460ff1681565b610378610e1a565b82106103b9576040517f08c379a00000000000000000000000000000000000000000000000000000000081526004016103b0906120cd565b60405180910390fd5b6103c1611690565b600283815481106103ce57fe5b60009182526020918290206040805160c081018252600690930290910180548352600181015493830193909352600283015490820152600382015460608201526004820154608082015260059091015460ff16151560a082015290506104348183610e31565b60016002848154811061044357fe5b6000918252602082206006919091020160050180547fffffffffffffffffffffffffffffffffffffffffffffffffffffffffffffff0016921515929092179091555b82518114610566576104956116cb565b8382815181106104a157fe5b602002602001015190506000816000015173ffffffffffffffffffffffffffffffffffffffff16826040015183602001516040516104df9190611d5f565b60006040518083038185875af1925050503d806000811461051c576040519150601f19603f3d011682016040523d82523d6000602084013e610521565b606091505b505090508061055c576040517f08c379a00000000000000000000000000000000000000000000000000000000081526004016103b090611f94565b5050600101610485565b507f712ae1383f79ac853f8d882153778e0260ef8f03b504e2866e0593e04d2b291f836040516105969190611ee3565b60405180910390a1505050565b60015481565b6000807f000000000000000000000000000000000000000000000000000000000000000073ffffffffffffffffffffffffffffffffffffffff166344a6958b8560016040518363ffffffff1660e01b8152600401610608929190611e91565b60606040518083038186803b15801561062057600080fd5b505afa158015610634573d6000803e3d6000fd5b505050506040513d601f19601f820116820180604052508101906106589190611a29565b602001516bffffffffffffffffffffffff16905060007f000000000000000000000000000000000000000000000000000000000000000073ffffffffffffffffffffffffffffffffffffffff1663f252b7a1867f00000000000000000000000000000000000000000000000000000000000000006040518363ffffffff1660e01b81526004016106e9929190611e6b565b60606040518083038186803b15801561070157600080fd5b505afa158015610715573d6000803e3d6000fd5b505050506040513d601f19601f820116820180604052508101906107399190611a29565b602001516bffffffffffffffffffffffff169050610762600261075c8484610fea565b90611012565b925060005b84518114610a0c5760005b8181146107e15785818151811061078557fe5b602002602001015186838151811061079957fe5b602002602001015114156107d9576040517f08c379a00000000000000000000000000000000000000000000000000000000081526004016103b090612104565b600101610772565b506107ea611702565b7f000000000000000000000000000000000000000000000000000000000000000073ffffffffffffffffffffffffffffffffffffffff16634bcc3f6787848151811061083257fe5b60200260200101516040518263ffffffff1660e01b81526004016108569190611ee3565b604080518083038186803b15801561086d57600080fd5b505afa158015610881573d6000803e3d6000fd5b505050506040513d601f19601f820116820180604052508101906108a591906119df565b90508673ffffffffffffffffffffffffffffffffffffffff16816000015173ffffffffffffffffffffffffffffffffffffffff1614610910576040517f08c379a00000000000000000000000000000000000000000000000000000000081526004016103b090612204565b60007f000000000000000000000000000000000000000000000000000000000000000073ffffffffffffffffffffffffffffffffffffffff16633e4ad73288858151811061095a57fe5b60200260200101516040518263ffffffff1660e01b815260040161097e9190611ee3565b60606040518083038186803b15801561099657600080fd5b505afa1580156109aa573d6000803e3d6000fd5b505050506040513d601f19601f820116820180604052508101906109ce9190611a29565b60200151905060006109ef6bffffffffffffffffffffffff83166002611012565b90506109fb8782610fea565b965050600190920191506107679050565b5050505b92915050565b7f000000000000000000000000000000000000000000000000000000000000000081565b7f000000000000000000000000000000000000000000000000000000000000000081565b60005481565b333014610a9d576040517f08c379a00000000000000000000000000000000000000000000000000000000081526004016103b09061205f565b600091909155600155565b60007f1e5642e3d26f0a340fb17e122193a3cd21b85477a8a2fb82e99ef31fa9927bd5878787604051602001610ade9190611d29565b60405160208183030381529060405280519060200120604051602001610b079493929190611eec565b60405160208183030381529060405280519060200120905060007f000000000000000000000000000000000000000000000000000000000000000082604051602001610b54929190611d7b565b604051602081830303815290604052805190602001209050600060018287878760405160008152602001604052604051610b919493929190611f33565b6020604051602081039080840390855afa158015610bb3573d6000803e3d6000fd5b505050602060405103519050610bcb818a8a8a61103c565b505050505050505050565b60008054610be433846105a9565b1015610c1c576040517f08c379a00000000000000000000000000000000000000000000000000000000081526004016103b090612352565b6000855111610c57576040517f08c379a00000000000000000000000000000000000000000000000000000000081526004016103b090611fcb565b60007f000000000000000000000000000000000000000000000000000000000000000073ffffffffffffffffffffffffffffffffffffffff1663766718086040518163ffffffff1660e01b815260040160206040518083038186803b158015610cbf57600080fd5b505afa158015610cd3573d6000803e3d6000fd5b505050506040513d601f19601f82011682018060405250810190610cf79190611aa0565b905080600201851015610d36576040517f08c379a00000000000000000000000000000000000000000000000000000000081526004016103b0906121cd565b610d3e610e1a565b600280546001810182556000919091526040519193506006027f405787fa12a823e0f2b7631cc41b3ba8828b3321ca811111fa75cd3aa3bb5ace0190610d88908890602001611ec5565b604080517fffffffffffffffffffffffffffffffffffffffffffffffffffffffffffffffe08184030181529082905280516020909101208255600182018790556002808401908301557f7e5c3a7773c4f27d279f6b711be3046cadedc9b136ca15d4d06e3aa7ec95340a90610e08903390879087908c908c908c90611db1565b60405180910390a15050949350505050565b60025490565b610e2c3384848461103c565b505050565b8151604051610e44908390602001611ec5565b6040516020818303038152906040528051906020012014610e91576040517f08c379a00000000000000000000000000000000000000000000000000000000081526004016103b090612261565b610e9a826113f7565b610ed0576040517f08c379a00000000000000000000000000000000000000000000000000000000081526004016103b090612139565b8160a0015115610f0c576040517f08c379a00000000000000000000000000000000000000000000000000000000081526004016103b090612002565b81602001517f000000000000000000000000000000000000000000000000000000000000000073ffffffffffffffffffffffffffffffffffffffff1663766718086040518163ffffffff1660e01b815260040160206040518083038186803b158015610f7757600080fd5b505afa158015610f8b573d6000803e3d6000fd5b505050506040513d601f19601f82011682018060405250810190610faf9190611aa0565b14610fe6576040517f08c379a00000000000000000000000000000000000000000000000000000000081526004016103b0906122f5565b5050565b60008282018381101561100b5761100b61100660008686611448565b6114ed565b9392505050565b6000816110285761102861100660038585611448565b600082848161103357fe5b04949350505050565b611044610e1a565b831061107c576040517f08c379a00000000000000000000000000000000000000000000000000000000081526004016103b0906123af565b600083815260036020908152604080832073ffffffffffffffffffffffffffffffffffffffff8816845290915290205460ff16156110e6576040517f08c379a00000000000000000000000000000000000000000000000000000000081526004016103b090612096565b6110ee611690565b600284815481106110fb57fe5b60009182526020918290206040805160c08101825260069093029091018054835260018101548385015260028101548383015260038101546060840152600480820154608085015260059091015460ff16151560a084015281517f76671808000000000000000000000000000000000000000000000000000000008152915192945073ffffffffffffffffffffffffffffffffffffffff7f000000000000000000000000000000000000000000000000000000000000000016936376671808938383019391929091829003018186803b1580156111d757600080fd5b505afa1580156111eb573d6000803e3d6000fd5b505050506040513d601f19601f8201168201806040525081019061120f9190611aa0565b8160400151141580611229575061122981604001516114f5565b15611260576040517f08c379a00000000000000000000000000000000000000000000000000000000081526004016103b0906122be565b600061126c86846105a9565b9050806112a5576040517f08c379a00000000000000000000000000000000000000000000000000000000081526004016103b090612196565b8315611303576112dc81600287815481106112bc57fe5b906000526020600020906006020160030154610fea90919063ffffffff16565b600286815481106112e957fe5b906000526020600020906006020160030181905550611357565b611334816002878154811061131457fe5b906000526020600020906006020160040154610fea90919063ffffffff16565b6002868154811061134157fe5b9060005260206000209060060201600401819055505b600085815260036020908152604080832073ffffffffffffffffffffffffffffffffffffffff8a1684529091529081902080547fffffffffffffffffffffffffffffffffffffffffffffffffffffffffffffff00166001179055517f42beae5df566d9e7bf8de84274b353b28960a4fa51cbd2eec30cd42cbb4cf104906113e79088908690899089908790611e1f565b60405180910390a1505050505050565b600061140682604001516114f5565b61141257506000611443565b816080015182606001511161142957506000611443565b6001548260600151101561143f57506000611443565b5060015b919050565b606063e946c1bb60e01b84848460405160240161146793929190611f72565b604080517fffffffffffffffffffffffffffffffffffffffffffffffffffffffffffffffe08184030181529190526020810180517bffffffffffffffffffffffffffffffffffffffffffffffffffffffff167fffffffff000000000000000000000000000000000000000000000000000000009093169290921790915290509392505050565b805160208201fd5b6000807f000000000000000000000000000000000000000000000000000000000000000073ffffffffffffffffffffffffffffffffffffffff1663766718086040518163ffffffff1660e01b815260040160206040518083038186803b15801561155e57600080fd5b505afa158015611572573d6000803e3d6000fd5b505050506040513d601f19601f820116820180604052508101906115969190611aa0565b9050828110156115aa576000915050611443565b828111156115bc576001915050611443565b60006116867f00000000000000000000000000000000000000000000000000000000000000007f000000000000000000000000000000000000000000000000000000000000000073ffffffffffffffffffffffffffffffffffffffff1663587da0236040518163ffffffff1660e01b815260040160206040518083038186803b15801561164857600080fd5b505afa15801561165c573d6000803e3d6000fd5b505050506040513d601f19601f820116820180604052508101906116809190611aa0565b90610fea565b4211949350505050565b6040518060c0016040528060008019168152602001600081526020016000815260200160008152602001600081526020016000151581525090565b6040518060600160405280600073ffffffffffffffffffffffffffffffffffffffff16815260200160608152602001600081525090565b604080518082019091526000808252602082015290565b8035610a108161245d565b600082601f830112611734578081fd5b81356117476117428261240d565b6123e6565b81815291506020808301908481018184028601820187101561176857600080fd5b60005b848110156117875781358452928201929082019060010161176b565b505050505092915050565b600082601f8301126117a2578081fd5b81356117b06117428261240d565b818152915060208083019084810160005b8481101561178757813587016060807fffffffffffffffffffffffffffffffffffffffffffffffffffffffffffffffe0838c0301121561180057600080fd5b611809816123e6565b6118158b878501611719565b815260408084013567ffffffffffffffff81111561183257600080fd5b6118408d8983880101611860565b8884015250919092013590820152845292820192908201906001016117c1565b600082601f830112611870578081fd5b813567ffffffffffffffff811115611886578182fd5b6118b760207fffffffffffffffffffffffffffffffffffffffffffffffffffffffffffffffe0601f840116016123e6565b91508082528360208285010111156118ce57600080fd5b8060208401602084013760009082016020015292915050565b80516bffffffffffffffffffffffff81168114610a1057600080fd5b60008060408385031215611915578182fd5b82356119208161245d565b9150602083013567ffffffffffffffff81111561193b578182fd5b61194785828601611724565b9150509250929050565b60008060008060808587031215611966578182fd5b843567ffffffffffffffff8082111561197d578384fd5b61198988838901611792565b95506020870135945060408701359150808211156119a5578384fd5b6119b188838901611860565b935060608701359150808211156119c6578283fd5b506119d387828801611724565b91505092959194509250565b6000604082840312156119f0578081fd5b6119fa60406123e6565b8251611a058161245d565b8152602083015163ffffffff81168114611a1d578283fd5b60208201529392505050565b600060608284031215611a3a578081fd5b611a4460606123e6565b825167ffffffffffffffff81168114611a5b578283fd5b8152611a6a84602085016118e7565b6020820152611a7c84604085016118e7565b60408201529392505050565b600060208284031215611a99578081fd5b5035919050565b600060208284031215611ab1578081fd5b5051919050565b60008060408385031215611aca578182fd5b823591506020830135611adc8161245d565b809150509250929050565b60008060408385031215611af9578182fd5b82359150602083013567ffffffffffffffff811115611b16578182fd5b61194785828601611792565b600080600060608486031215611b36578081fd5b833592506020840135611b4881612482565b9150604084013567ffffffffffffffff811115611b63578182fd5b611b6f86828701611724565b9150509250925092565b60008060008060008060c08789031215611b91578384fd5b863595506020870135611ba381612482565b9450604087013567ffffffffffffffff811115611bbe578485fd5b611bca89828a01611724565b945050606087013560ff81168114611be0578283fd5b9598949750929560808101359460a0909101359350915050565b60008060408385031215611c0c578182fd5b50508035926020909101359150565b6000815180845260208085019450808401835b83811015611c4a57815187529582019590820190600101611c2e565b509495945050505050565b6000815180845260208085018081965082840281019150828601855b85811015611cd25782840389528151606073ffffffffffffffffffffffffffffffffffffffff8251168652868201518188880152611cb182880182611cdf565b60409384015197909301969096525098850198935090840190600101611c71565b5091979650505050505050565b60008151808452611cf781602086016020860161242d565b601f017fffffffffffffffffffffffffffffffffffffffffffffffffffffffffffffffe0169290920160200192915050565b815160009082906020808601845b83811015611d5357815185529382019390820190600101611d37565b50929695505050505050565b60008251611d7181846020870161242d565b9190910192915050565b7f190100000000000000000000000000000000000000000000000000000000000081526002810192909252602282015260420190565b600073ffffffffffffffffffffffffffffffffffffffff8816825260c06020830152611de060c0830188611c1b565b8660408401528281036060840152611df88187611c55565b905084608084015282810360a0840152611e128185611cdf565b9998505050505050505050565b600073ffffffffffffffffffffffffffffffffffffffff8716825260a06020830152611e4e60a0830187611c1b565b604083019590955250911515606083015260809091015292915050565b73ffffffffffffffffffffffffffffffffffffffff929092168252602082015260400190565b73ffffffffffffffffffffffffffffffffffffffff831681526040810160028310611eb857fe5b8260208301529392505050565b60006020825261100b6020830184611c55565b901515815260200190565b90815260200190565b938452602084019290925215156040830152606082015260800190565b9586526020860194909452604085019290925260608401526080830152151560a082015260c00190565b93845260ff9290921660208401526040830152606082015260800190565b73ffffffffffffffffffffffffffffffffffffffff91909116815260200190565b6060810160048510611f8057fe5b938152602081019290925260409091015290565b6020808252601f908201527f657865637574652f414354494f4e5f455845435554494f4e5f4641494c454400604082015260600190565b6020808252601b908201527f70726f706f73652f4e4f5f414354494f4e535f50524f504f5345440000000000604082015260600190565b60208082526033908201527f5f61737365727450726f706f73616c45786563757461626c652f50524f504f5360408201527f414c5f414c52454144595f455845435554454400000000000000000000000000606082015260800190565b6020808252601a908201527f7570646174655468726573686f6c64732f4f4e4c595f53454c46000000000000604082015260600190565b60208082526017908201527f5f63617374566f74652f414c52454144595f564f544544000000000000000000604082015260600190565b6020808252601b908201527f657865637574652f494e56414c49445f50524f504f53414c5f49440000000000604082015260600190565b6020808252818101527f676574566f74696e67506f7765722f4455504c49434154455f504f4f4c5f4944604082015260600190565b60208082526031908201527f5f61737365727450726f706f73616c45786563757461626c652f50524f504f5360408201527f414c5f4841535f4e4f545f504153534544000000000000000000000000000000606082015260800190565b60208082526019908201527f5f63617374566f74652f4e4f5f564f54494e475f504f57455200000000000000604082015260600190565b6020808252601f908201527f70726f706f73652f494e56414c49445f455845435554494f4e5f45504f434800604082015260600190565b6020808252602b908201527f676574566f74696e67506f7765722f504f4f4c5f4e4f545f4f5045524154454460408201527f5f42595f4143434f554e54000000000000000000000000000000000000000000606082015260800190565b60208082526029908201527f5f61737365727450726f706f73616c45786563757461626c652f494e56414c4960408201527f445f414354494f4e530000000000000000000000000000000000000000000000606082015260800190565b6020808252601a908201527f5f63617374566f74652f564f54494e475f49535f434c4f534544000000000000604082015260600190565b60208082526033908201527f5f61737365727450726f706f73616c45786563757461626c652f43414e4e4f5460408201527f5f455845435554455f544849535f45504f434800000000000000000000000000606082015260800190565b60208082526021908201527f70726f706f73652f494e53554646494349454e545f564f54494e475f504f574560408201527f5200000000000000000000000000000000000000000000000000000000000000606082015260800190565b6020808252601d908201527f5f63617374566f74652f494e56414c49445f50524f504f53414c5f4944000000604082015260600190565b60405181810167ffffffffffffffff8111828210171561240557600080fd5b604052919050565b600067ffffffffffffffff821115612423578081fd5b5060209081020190565b60005b83811015612448578181015183820152602001612430565b83811115612457576000848401525b50505050565b73ffffffffffffffffffffffffffffffffffffffff8116811461247f57600080fd5b50565b801515811461247f57600080fdfea2646970667358221220bca235c8f095b77f42f1e2bc10f5938a1a36700a901d9e80b4743d9cab8439e064736f6c634300060c0033",
        "linkReferences": {}
    },
    "methodIdentifiers": {
        "castVote(uint256,bool,bytes32[])": "dfe1e6b2",
        "castVoteBySignature(uint256,bool,bytes32[],uint8,bytes32,bytes32)": "d438a3ce",
        "defaultPoolId()": "a0edbcbb",
        "defaultPoolOperator()": "9de38af2",
        "execute(uint256,(address,bytes,uint256)[])": "662bede3",
        "getVotingPower(address,bytes32[])": "7c29cb1a",
        "hasVoted(uint256,address)": "43859632",
        "proposalCount()": "da35c664",
        "proposalThreshold()": "b58131b0",
        "proposals(uint256)": "013cf08b",
        "propose((address,bytes,uint256)[],uint256,string,bytes32[])": "d73ceb3a",
        "quorumThreshold()": "7b7a91dd",
        "stakingProxy()": "22f80d11",
        "updateThresholds(uint256,uint256)": "c14b8e9c",
        "votingPeriod()": "02a251a3"
    },
    "id": 16
}