{
    "schemaVersion": "2.0.0",
    "contractName": "CurveLiquidityProvider",
    "compilerOutput": {
        "abi": [
            {
                "anonymous": false,
                "inputs": [
                    {
                        "indexed": false,
                        "internalType": "contract IERC20TokenV06",
                        "name": "inputToken",
                        "type": "address"
                    },
                    {
                        "indexed": false,
                        "internalType": "contract IERC20TokenV06",
                        "name": "outputToken",
                        "type": "address"
                    },
                    {
                        "indexed": false,
                        "internalType": "uint256",
                        "name": "inputTokenAmount",
                        "type": "uint256"
                    },
                    {
                        "indexed": false,
                        "internalType": "uint256",
                        "name": "outputTokenAmount",
                        "type": "uint256"
                    },
                    {
                        "indexed": false,
                        "internalType": "bytes32",
                        "name": "sourceId",
                        "type": "bytes32"
                    },
                    {
                        "indexed": false,
                        "internalType": "address",
                        "name": "sourceAddress",
                        "type": "address"
                    },
                    {
                        "indexed": false,
                        "internalType": "address",
                        "name": "sender",
                        "type": "address"
                    },
                    {
                        "indexed": false,
                        "internalType": "address",
                        "name": "recipient",
                        "type": "address"
                    }
                ],
                "name": "LiquidityProviderFill",
                "type": "event"
            },
            {
                "inputs": [
                    {
                        "internalType": "contract IERC20TokenV06",
                        "name": "",
                        "type": "address"
                    },
                    {
                        "internalType": "contract IERC20TokenV06",
                        "name": "",
                        "type": "address"
                    },
                    {
                        "internalType": "uint256",
                        "name": "",
                        "type": "uint256"
                    }
                ],
                "name": "getSellQuote",
                "outputs": [
                    {
                        "internalType": "uint256",
                        "name": "",
                        "type": "uint256"
                    }
                ],
                "stateMutability": "view",
                "type": "function"
            },
            {
                "inputs": [
                    {
                        "internalType": "contract IERC20TokenV06",
                        "name": "outputToken",
                        "type": "address"
                    },
                    {
                        "internalType": "address",
                        "name": "recipient",
                        "type": "address"
                    },
                    {
                        "internalType": "uint256",
                        "name": "minBuyAmount",
                        "type": "uint256"
                    },
                    {
                        "internalType": "bytes",
                        "name": "auxiliaryData",
                        "type": "bytes"
                    }
                ],
                "name": "sellEthForToken",
                "outputs": [
                    {
                        "internalType": "uint256",
                        "name": "boughtAmount",
                        "type": "uint256"
                    }
                ],
                "stateMutability": "payable",
                "type": "function"
            },
            {
                "inputs": [
                    {
                        "internalType": "contract IERC20TokenV06",
                        "name": "inputToken",
                        "type": "address"
                    },
                    {
                        "internalType": "address payable",
                        "name": "recipient",
                        "type": "address"
                    },
                    {
                        "internalType": "uint256",
                        "name": "minBuyAmount",
                        "type": "uint256"
                    },
                    {
                        "internalType": "bytes",
                        "name": "auxiliaryData",
                        "type": "bytes"
                    }
                ],
                "name": "sellTokenForEth",
                "outputs": [
                    {
                        "internalType": "uint256",
                        "name": "boughtAmount",
                        "type": "uint256"
                    }
                ],
                "stateMutability": "nonpayable",
                "type": "function"
            },
            {
                "inputs": [
                    {
                        "internalType": "contract IERC20TokenV06",
                        "name": "inputToken",
                        "type": "address"
                    },
                    {
                        "internalType": "contract IERC20TokenV06",
                        "name": "outputToken",
                        "type": "address"
                    },
                    {
                        "internalType": "address",
                        "name": "recipient",
                        "type": "address"
                    },
                    {
                        "internalType": "uint256",
                        "name": "minBuyAmount",
                        "type": "uint256"
                    },
                    {
                        "internalType": "bytes",
                        "name": "auxiliaryData",
                        "type": "bytes"
                    }
                ],
                "name": "sellTokenForToken",
                "outputs": [
                    {
                        "internalType": "uint256",
                        "name": "boughtAmount",
                        "type": "uint256"
                    }
                ],
                "stateMutability": "nonpayable",
                "type": "function"
            }
        ],
        "devdoc": {
            "kind": "dev",
            "methods": {
                "getSellQuote(address,address,uint256)": {
                    "details": "Quotes the amount of `outputToken` that would be obtained by      selling `sellAmount` of `inputToken`."
                },
                "sellEthForToken(address,address,uint256,bytes)": {
                    "details": "Trades ETH for token. ETH must either be attached to this function      call or sent to the contract prior to calling this function to      trigger the trade.",
                    "params": {
                        "auxiliaryData": "Arbitrary auxiliary data supplied to the contract.",
                        "minBuyAmount": "The minimum acceptable amount of `outputToken` to buy.",
                        "outputToken": "The token being bought.",
                        "recipient": "The recipient of the bought tokens."
                    },
                    "returns": {
                        "boughtAmount": "The amount of `outputToken` bought."
                    }
                },
                "sellTokenForEth(address,address,uint256,bytes)": {
                    "details": "Trades token for ETH. The token must be sent to the contract prior      to calling this function to trigger the trade.",
                    "params": {
                        "auxiliaryData": "Arbitrary auxiliary data supplied to the contract.",
                        "inputToken": "The token being sold.",
                        "minBuyAmount": "The minimum acceptable amount of ETH to buy.",
                        "recipient": "The recipient of the bought tokens."
                    },
                    "returns": {
                        "boughtAmount": "The amount of ETH bought."
                    }
                },
                "sellTokenForToken(address,address,address,uint256,bytes)": {
                    "details": "Trades `inputToken` for `outputToken`. The amount of `inputToken`      to sell must be transferred to the contract prior to calling this      function to trigger the trade.",
                    "params": {
                        "auxiliaryData": "Arbitrary auxiliary data supplied to the contract.",
                        "inputToken": "The token being sold.",
                        "minBuyAmount": "The minimum acceptable amount of `outputToken` to buy.",
                        "outputToken": "The token being bought.",
                        "recipient": "The recipient of the bought tokens."
                    },
                    "returns": {
                        "boughtAmount": "The amount of `outputToken` bought."
                    }
                }
            },
            "version": 1
        },
        "evm": {
            "bytecode": {
                "linkReferences": {},
                "object": "0x608060405234801561001057600080fd5b50610f3b806100206000396000f3fe6080604052600436106100435760003560e01c8063343fbcdd1461004f57806365d02b041461008557806369be90ec146100a5578063b52e8458146100c55761004a565b3661004a57005b600080fd5b34801561005b57600080fd5b5061006f61006a366004610b83565b6100d8565b60405161007c9190610ed7565b60405180910390f35b34801561009157600080fd5b5061006f6100a0366004610b00565b610115565b3480156100b157600080fd5b5061006f6100c0366004610a8f565b6101e8565b61006f6100d3366004610a8f565b6102d9565b60006040517f08c379a000000000000000000000000000000000000000000000000000000000815260040161010c90610e7a565b60405180910390fd5b6000610120876103a7565b1580156101335750610131866103a7565b155b610169576040517f08c379a000000000000000000000000000000000000000000000000000000000815260040161010c90610dc0565b61018187878661017b86880188610bc3565b896103da565b9050838110156101bd576040517f08c379a000000000000000000000000000000000000000000000000000000000815260040161010c90610e1d565b6101de73ffffffffffffffffffffffffffffffffffffffff871686836105f6565b9695505050505050565b60006101f3866103a7565b1561022a576040517f08c379a000000000000000000000000000000000000000000000000000000000815260040161010c90610dc0565b6102508673eeeeeeeeeeeeeeeeeeeeeeeeeeeeeeeeeeeeeeee8661017b86880188610bc3565b90508381101561028c576040517f08c379a000000000000000000000000000000000000000000000000000000000815260040161010c90610e1d565b60405173ffffffffffffffffffffffffffffffffffffffff86169082156108fc029083906000818181858888f193505050501580156102cf573d6000803e3d6000fd5b5095945050505050565b60006102e4866103a7565b1561031b576040517f08c379a000000000000000000000000000000000000000000000000000000000815260040161010c90610dc0565b61034173eeeeeeeeeeeeeeeeeeeeeeeeeeeeeeeeeeeeeeee878661017b86880188610bc3565b90508381101561037d576040517f08c379a000000000000000000000000000000000000000000000000000000000815260040161010c90610e1d565b61039e73ffffffffffffffffffffffffffffffffffffffff871686836105f6565b95945050505050565b73ffffffffffffffffffffffffffffffffffffffff811673eeeeeeeeeeeeeeeeeeeeeeeeeeeeeeeeeeeeeeee145b919050565b6000806103e787306106a2565b90506103f2876103a7565b61041a57835161041a9073ffffffffffffffffffffffffffffffffffffffff8916908361077b565b60006060856000015173ffffffffffffffffffffffffffffffffffffffff166104428a6103a7565b61044d57600061044f565b835b876020015188604001518960600151878c6040516024016104739493929190610d9d565b604080517fffffffffffffffffffffffffffffffffffffffffffffffffffffffffffffffe08184030181529181526020820180517bffffffffffffffffffffffffffffffffffffffffffffffffffffffff167fffffffff000000000000000000000000000000000000000000000000000000009094169390931790925290516104fc9190610c7d565b60006040518083038185875af1925050503d8060008114610539576040519150601f19603f3d011682016040523d82523d6000602084013e61053e565b606091505b5091509150816105515761055181610857565b805160201415610576578080602001905181019061056f9190610c65565b9350610583565b61058088306106a2565b93505b85516040517f83dc79d57dbf7f65897db5b817ef3c45ebb363086f52ba01bb57d0cdef08dace916105e2918c918c9188918a917f4375727665000000000000000000000000000000000000000000000000000000919033908e90610d24565b60405180910390a150505095945050505050565b606063a9059cbb60e01b8383604051602401610613929190610cfe565b604080517fffffffffffffffffffffffffffffffffffffffffffffffffffffffffffffffe08184030181529190526020810180517bffffffffffffffffffffffffffffffffffffffffffffffffffffffff167fffffffff0000000000000000000000000000000000000000000000000000000090931692909217909152905061069c848261085f565b50505050565b60006106ad836103a7565b156106d0575073ffffffffffffffffffffffffffffffffffffffff811631610775565b6040517f70a0823100000000000000000000000000000000000000000000000000000000815273ffffffffffffffffffffffffffffffffffffffff8416906370a0823190610722908590600401610cb6565b60206040518083038186803b15801561073a57600080fd5b505afa15801561074e573d6000803e3d6000fd5b505050506040513d601f19601f820116820180604052508101906107729190610c65565b90505b92915050565b6040517fdd62ed3e000000000000000000000000000000000000000000000000000000008152819073ffffffffffffffffffffffffffffffffffffffff85169063dd62ed3e906107d19030908790600401610cd7565b60206040518083038186803b1580156107e957600080fd5b505afa1580156107fd573d6000803e3d6000fd5b505050506040513d601f19601f820116820180604052508101906108219190610c65565b10156108525761085283837fffffffffffffffffffffffffffffffffffffffffffffffffffffffffffffffff6108f9565b505050565b805160208201fd5b600060608373ffffffffffffffffffffffffffffffffffffffff16836040516108889190610c7d565b6000604051808303816000865af19150503d80600081146108c5576040519150601f19603f3d011682016040523d82523d6000602084013e6108ca565b606091505b50915091508180156108e057506108e081610916565b156108ec5750506108f5565b61069c81610857565b5050565b606063095ea7b360e01b8383604051602401610613929190610cfe565b600081516000141561092a575060016103d5565b60208251106103d557600061094083600061095b565b905080600114156109555760019150506103d5565b50919050565b6000610772838360008160200183511015610988576109886109836005855185602001610991565b610857565b50016020015190565b6060632800659560e01b8484846040516024016109b093929190610d7b565b604080517fffffffffffffffffffffffffffffffffffffffffffffffffffffffffffffffe08184030181529190526020810180517bffffffffffffffffffffffffffffffffffffffffffffffffffffffff167fffffffff000000000000000000000000000000000000000000000000000000009093169290921790915290509392505050565b60008083601f840112610a47578182fd5b50813567ffffffffffffffff811115610a5e578182fd5b602083019150836020828501011115610a7657600080fd5b9250929050565b8035600f81900b811461077557600080fd5b600080600080600060808688031215610aa6578081fd5b8535610ab181610ee0565b94506020860135610ac181610ee0565b935060408601359250606086013567ffffffffffffffff811115610ae3578182fd5b610aef88828901610a36565b969995985093965092949392505050565b60008060008060008060a08789031215610b18578081fd5b8635610b2381610ee0565b95506020870135610b3381610ee0565b94506040870135610b4381610ee0565b935060608701359250608087013567ffffffffffffffff811115610b65578182fd5b610b7189828a01610a36565b979a9699509497509295939492505050565b600080600060608486031215610b97578283fd5b8335610ba281610ee0565b92506020840135610bb281610ee0565b929592945050506040919091013590565b600060808284031215610bd4578081fd5b6040516080810181811067ffffffffffffffff82111715610bf3578283fd5b6040528235610c0181610ee0565b815260208301357fffffffff0000000000000000000000000000000000000000000000000000000081168114610c35578283fd5b6020820152610c478460408501610a7d565b6040820152610c598460608501610a7d565b60608201529392505050565b600060208284031215610c76578081fd5b5051919050565b60008251815b81811015610c9d5760208186018101518583015201610c83565b81811115610cab5782828501525b509190910192915050565b73ffffffffffffffffffffffffffffffffffffffff91909116815260200190565b73ffffffffffffffffffffffffffffffffffffffff92831681529116602082015260400190565b73ffffffffffffffffffffffffffffffffffffffff929092168252602082015260400190565b73ffffffffffffffffffffffffffffffffffffffff98891681529688166020880152604087019590955260608601939093526080850191909152841660a0840152831660c083015290911660e08201526101000190565b6060810160088510610d8957fe5b938152602081019290925260409091015290565b600f94850b81529290930b60208301526040820152606081019190915260800190565b60208082526023908201527f43757276654c697175696469747950726f76696465722f494e56414c49445f4160408201527f5247530000000000000000000000000000000000000000000000000000000000606082015260800190565b60208082526022908201527f43757276654c697175696469747950726f76696465722f554e444552424f554760408201527f4854000000000000000000000000000000000000000000000000000000000000606082015260800190565b60208082526026908201527f43757276654c697175696469747950726f76696465722f4e4f545f494d504c4560408201527f4d454e5445440000000000000000000000000000000000000000000000000000606082015260800190565b90815260200190565b73ffffffffffffffffffffffffffffffffffffffff81168114610f0257600080fd5b5056fea2646970667358221220ffe79429d4d7600d126d38b63bf3e4276e46802ff175fff65f7deb0ee3d57ff064736f6c634300060c0033",
                "opcodes": "PUSH1 0x80 PUSH1 0x40 MSTORE CALLVALUE DUP1 ISZERO PUSH2 0x10 JUMPI PUSH1 0x0 DUP1 REVERT JUMPDEST POP PUSH2 0xF3B DUP1 PUSH2 0x20 PUSH1 0x0 CODECOPY PUSH1 0x0 RETURN INVALID PUSH1 0x80 PUSH1 0x40 MSTORE PUSH1 0x4 CALLDATASIZE LT PUSH2 0x43 JUMPI PUSH1 0x0 CALLDATALOAD PUSH1 0xE0 SHR DUP1 PUSH4 0x343FBCDD EQ PUSH2 0x4F JUMPI DUP1 PUSH4 0x65D02B04 EQ PUSH2 0x85 JUMPI DUP1 PUSH4 0x69BE90EC EQ PUSH2 0xA5 JUMPI DUP1 PUSH4 0xB52E8458 EQ PUSH2 0xC5 JUMPI PUSH2 0x4A JUMP JUMPDEST CALLDATASIZE PUSH2 0x4A JUMPI STOP JUMPDEST PUSH1 0x0 DUP1 REVERT JUMPDEST CALLVALUE DUP1 ISZERO PUSH2 0x5B JUMPI PUSH1 0x0 DUP1 REVERT JUMPDEST POP PUSH2 0x6F PUSH2 0x6A CALLDATASIZE PUSH1 0x4 PUSH2 0xB83 JUMP JUMPDEST PUSH2 0xD8 JUMP JUMPDEST PUSH1 0x40 MLOAD PUSH2 0x7C SWAP2 SWAP1 PUSH2 0xED7 JUMP JUMPDEST PUSH1 0x40 MLOAD DUP1 SWAP2 SUB SWAP1 RETURN JUMPDEST CALLVALUE DUP1 ISZERO PUSH2 0x91 JUMPI PUSH1 0x0 DUP1 REVERT JUMPDEST POP PUSH2 0x6F PUSH2 0xA0 CALLDATASIZE PUSH1 0x4 PUSH2 0xB00 JUMP JUMPDEST PUSH2 0x115 JUMP JUMPDEST CALLVALUE DUP1 ISZERO PUSH2 0xB1 JUMPI PUSH1 0x0 DUP1 REVERT JUMPDEST POP PUSH2 0x6F PUSH2 0xC0 CALLDATASIZE PUSH1 0x4 PUSH2 0xA8F JUMP JUMPDEST PUSH2 0x1E8 JUMP JUMPDEST PUSH2 0x6F PUSH2 0xD3 CALLDATASIZE PUSH1 0x4 PUSH2 0xA8F JUMP JUMPDEST PUSH2 0x2D9 JUMP JUMPDEST PUSH1 0x0 PUSH1 0x40 MLOAD PUSH32 0x8C379A000000000000000000000000000000000000000000000000000000000 DUP2 MSTORE PUSH1 0x4 ADD PUSH2 0x10C SWAP1 PUSH2 0xE7A JUMP JUMPDEST PUSH1 0x40 MLOAD DUP1 SWAP2 SUB SWAP1 REVERT JUMPDEST PUSH1 0x0 PUSH2 0x120 DUP8 PUSH2 0x3A7 JUMP JUMPDEST ISZERO DUP1 ISZERO PUSH2 0x133 JUMPI POP PUSH2 0x131 DUP7 PUSH2 0x3A7 JUMP JUMPDEST ISZERO JUMPDEST PUSH2 0x169 JUMPI PUSH1 0x40 MLOAD PUSH32 0x8C379A000000000000000000000000000000000000000000000000000000000 DUP2 MSTORE PUSH1 0x4 ADD PUSH2 0x10C SWAP1 PUSH2 0xDC0 JUMP JUMPDEST PUSH2 0x181 DUP8 DUP8 DUP7 PUSH2 0x17B DUP7 DUP9 ADD DUP9 PUSH2 0xBC3 JUMP JUMPDEST DUP10 PUSH2 0x3DA JUMP JUMPDEST SWAP1 POP DUP4 DUP2 LT ISZERO PUSH2 0x1BD JUMPI PUSH1 0x40 MLOAD PUSH32 0x8C379A000000000000000000000000000000000000000000000000000000000 DUP2 MSTORE PUSH1 0x4 ADD PUSH2 0x10C SWAP1 PUSH2 0xE1D JUMP JUMPDEST PUSH2 0x1DE PUSH20 0xFFFFFFFFFFFFFFFFFFFFFFFFFFFFFFFFFFFFFFFF DUP8 AND DUP7 DUP4 PUSH2 0x5F6 JUMP JUMPDEST SWAP7 SWAP6 POP POP POP POP POP POP JUMP JUMPDEST PUSH1 0x0 PUSH2 0x1F3 DUP7 PUSH2 0x3A7 JUMP JUMPDEST ISZERO PUSH2 0x22A JUMPI PUSH1 0x40 MLOAD PUSH32 0x8C379A000000000000000000000000000000000000000000000000000000000 DUP2 MSTORE PUSH1 0x4 ADD PUSH2 0x10C SWAP1 PUSH2 0xDC0 JUMP JUMPDEST PUSH2 0x250 DUP7 PUSH20 0xEEEEEEEEEEEEEEEEEEEEEEEEEEEEEEEEEEEEEEEE DUP7 PUSH2 0x17B DUP7 DUP9 ADD DUP9 PUSH2 0xBC3 JUMP JUMPDEST SWAP1 POP DUP4 DUP2 LT ISZERO PUSH2 0x28C JUMPI PUSH1 0x40 MLOAD PUSH32 0x8C379A000000000000000000000000000000000000000000000000000000000 DUP2 MSTORE PUSH1 0x4 ADD PUSH2 0x10C SWAP1 PUSH2 0xE1D JUMP JUMPDEST PUSH1 0x40 MLOAD PUSH20 0xFFFFFFFFFFFFFFFFFFFFFFFFFFFFFFFFFFFFFFFF DUP7 AND SWAP1 DUP3 ISZERO PUSH2 0x8FC MUL SWAP1 DUP4 SWAP1 PUSH1 0x0 DUP2 DUP2 DUP2 DUP6 DUP9 DUP9 CALL SWAP4 POP POP POP POP ISZERO DUP1 ISZERO PUSH2 0x2CF JUMPI RETURNDATASIZE PUSH1 0x0 DUP1 RETURNDATACOPY RETURNDATASIZE PUSH1 0x0 REVERT JUMPDEST POP SWAP6 SWAP5 POP POP POP POP POP JUMP JUMPDEST PUSH1 0x0 PUSH2 0x2E4 DUP7 PUSH2 0x3A7 JUMP JUMPDEST ISZERO PUSH2 0x31B JUMPI PUSH1 0x40 MLOAD PUSH32 0x8C379A000000000000000000000000000000000000000000000000000000000 DUP2 MSTORE PUSH1 0x4 ADD PUSH2 0x10C SWAP1 PUSH2 0xDC0 JUMP JUMPDEST PUSH2 0x341 PUSH20 0xEEEEEEEEEEEEEEEEEEEEEEEEEEEEEEEEEEEEEEEE DUP8 DUP7 PUSH2 0x17B DUP7 DUP9 ADD DUP9 PUSH2 0xBC3 JUMP JUMPDEST SWAP1 POP DUP4 DUP2 LT ISZERO PUSH2 0x37D JUMPI PUSH1 0x40 MLOAD PUSH32 0x8C379A000000000000000000000000000000000000000000000000000000000 DUP2 MSTORE PUSH1 0x4 ADD PUSH2 0x10C SWAP1 PUSH2 0xE1D JUMP JUMPDEST PUSH2 0x39E PUSH20 0xFFFFFFFFFFFFFFFFFFFFFFFFFFFFFFFFFFFFFFFF DUP8 AND DUP7 DUP4 PUSH2 0x5F6 JUMP JUMPDEST SWAP6 SWAP5 POP POP POP POP POP JUMP JUMPDEST PUSH20 0xFFFFFFFFFFFFFFFFFFFFFFFFFFFFFFFFFFFFFFFF DUP2 AND PUSH20 0xEEEEEEEEEEEEEEEEEEEEEEEEEEEEEEEEEEEEEEEE EQ JUMPDEST SWAP2 SWAP1 POP JUMP JUMPDEST PUSH1 0x0 DUP1 PUSH2 0x3E7 DUP8 ADDRESS PUSH2 0x6A2 JUMP JUMPDEST SWAP1 POP PUSH2 0x3F2 DUP8 PUSH2 0x3A7 JUMP JUMPDEST PUSH2 0x41A JUMPI DUP4 MLOAD PUSH2 0x41A SWAP1 PUSH20 0xFFFFFFFFFFFFFFFFFFFFFFFFFFFFFFFFFFFFFFFF DUP10 AND SWAP1 DUP4 PUSH2 0x77B JUMP JUMPDEST PUSH1 0x0 PUSH1 0x60 DUP6 PUSH1 0x0 ADD MLOAD PUSH20 0xFFFFFFFFFFFFFFFFFFFFFFFFFFFFFFFFFFFFFFFF AND PUSH2 0x442 DUP11 PUSH2 0x3A7 JUMP JUMPDEST PUSH2 0x44D JUMPI PUSH1 0x0 PUSH2 0x44F JUMP JUMPDEST DUP4 JUMPDEST DUP8 PUSH1 0x20 ADD MLOAD DUP9 PUSH1 0x40 ADD MLOAD DUP10 PUSH1 0x60 ADD MLOAD DUP8 DUP13 PUSH1 0x40 MLOAD PUSH1 0x24 ADD PUSH2 0x473 SWAP5 SWAP4 SWAP3 SWAP2 SWAP1 PUSH2 0xD9D JUMP JUMPDEST PUSH1 0x40 DUP1 MLOAD PUSH32 0xFFFFFFFFFFFFFFFFFFFFFFFFFFFFFFFFFFFFFFFFFFFFFFFFFFFFFFFFFFFFFFE0 DUP2 DUP5 SUB ADD DUP2 MSTORE SWAP2 DUP2 MSTORE PUSH1 0x20 DUP3 ADD DUP1 MLOAD PUSH28 0xFFFFFFFFFFFFFFFFFFFFFFFFFFFFFFFFFFFFFFFFFFFFFFFFFFFFFFFF AND PUSH32 0xFFFFFFFF00000000000000000000000000000000000000000000000000000000 SWAP1 SWAP5 AND SWAP4 SWAP1 SWAP4 OR SWAP1 SWAP3 MSTORE SWAP1 MLOAD PUSH2 0x4FC SWAP2 SWAP1 PUSH2 0xC7D JUMP JUMPDEST PUSH1 0x0 PUSH1 0x40 MLOAD DUP1 DUP4 SUB DUP2 DUP6 DUP8 GAS CALL SWAP3 POP POP POP RETURNDATASIZE DUP1 PUSH1 0x0 DUP2 EQ PUSH2 0x539 JUMPI PUSH1 0x40 MLOAD SWAP2 POP PUSH1 0x1F NOT PUSH1 0x3F RETURNDATASIZE ADD AND DUP3 ADD PUSH1 0x40 MSTORE RETURNDATASIZE DUP3 MSTORE RETURNDATASIZE PUSH1 0x0 PUSH1 0x20 DUP5 ADD RETURNDATACOPY PUSH2 0x53E JUMP JUMPDEST PUSH1 0x60 SWAP2 POP JUMPDEST POP SWAP2 POP SWAP2 POP DUP2 PUSH2 0x551 JUMPI PUSH2 0x551 DUP2 PUSH2 0x857 JUMP JUMPDEST DUP1 MLOAD PUSH1 0x20 EQ ISZERO PUSH2 0x576 JUMPI DUP1 DUP1 PUSH1 0x20 ADD SWAP1 MLOAD DUP2 ADD SWAP1 PUSH2 0x56F SWAP2 SWAP1 PUSH2 0xC65 JUMP JUMPDEST SWAP4 POP PUSH2 0x583 JUMP JUMPDEST PUSH2 0x580 DUP9 ADDRESS PUSH2 0x6A2 JUMP JUMPDEST SWAP4 POP JUMPDEST DUP6 MLOAD PUSH1 0x40 MLOAD PUSH32 0x83DC79D57DBF7F65897DB5B817EF3C45EBB363086F52BA01BB57D0CDEF08DACE SWAP2 PUSH2 0x5E2 SWAP2 DUP13 SWAP2 DUP13 SWAP2 DUP9 SWAP2 DUP11 SWAP2 PUSH32 0x4375727665000000000000000000000000000000000000000000000000000000 SWAP2 SWAP1 CALLER SWAP1 DUP15 SWAP1 PUSH2 0xD24 JUMP JUMPDEST PUSH1 0x40 MLOAD DUP1 SWAP2 SUB SWAP1 LOG1 POP POP POP SWAP6 SWAP5 POP POP POP POP POP JUMP JUMPDEST PUSH1 0x60 PUSH4 0xA9059CBB PUSH1 0xE0 SHL DUP4 DUP4 PUSH1 0x40 MLOAD PUSH1 0x24 ADD PUSH2 0x613 SWAP3 SWAP2 SWAP1 PUSH2 0xCFE JUMP JUMPDEST PUSH1 0x40 DUP1 MLOAD PUSH32 0xFFFFFFFFFFFFFFFFFFFFFFFFFFFFFFFFFFFFFFFFFFFFFFFFFFFFFFFFFFFFFFE0 DUP2 DUP5 SUB ADD DUP2 MSTORE SWAP2 SWAP1 MSTORE PUSH1 0x20 DUP2 ADD DUP1 MLOAD PUSH28 0xFFFFFFFFFFFFFFFFFFFFFFFFFFFFFFFFFFFFFFFFFFFFFFFFFFFFFFFF AND PUSH32 0xFFFFFFFF00000000000000000000000000000000000000000000000000000000 SWAP1 SWAP4 AND SWAP3 SWAP1 SWAP3 OR SWAP1 SWAP2 MSTORE SWAP1 POP PUSH2 0x69C DUP5 DUP3 PUSH2 0x85F JUMP JUMPDEST POP POP POP POP JUMP JUMPDEST PUSH1 0x0 PUSH2 0x6AD DUP4 PUSH2 0x3A7 JUMP JUMPDEST ISZERO PUSH2 0x6D0 JUMPI POP PUSH20 0xFFFFFFFFFFFFFFFFFFFFFFFFFFFFFFFFFFFFFFFF DUP2 AND BALANCE PUSH2 0x775 JUMP JUMPDEST PUSH1 0x40 MLOAD PUSH32 0x70A0823100000000000000000000000000000000000000000000000000000000 DUP2 MSTORE PUSH20 0xFFFFFFFFFFFFFFFFFFFFFFFFFFFFFFFFFFFFFFFF DUP5 AND SWAP1 PUSH4 0x70A08231 SWAP1 PUSH2 0x722 SWAP1 DUP6 SWAP1 PUSH1 0x4 ADD PUSH2 0xCB6 JUMP JUMPDEST PUSH1 0x20 PUSH1 0x40 MLOAD DUP1 DUP4 SUB DUP2 DUP7 DUP1 EXTCODESIZE ISZERO DUP1 ISZERO PUSH2 0x73A JUMPI PUSH1 0x0 DUP1 REVERT JUMPDEST POP GAS STATICCALL ISZERO DUP1 ISZERO PUSH2 0x74E JUMPI RETURNDATASIZE PUSH1 0x0 DUP1 RETURNDATACOPY RETURNDATASIZE PUSH1 0x0 REVERT JUMPDEST POP POP POP POP PUSH1 0x40 MLOAD RETURNDATASIZE PUSH1 0x1F NOT PUSH1 0x1F DUP3 ADD AND DUP3 ADD DUP1 PUSH1 0x40 MSTORE POP DUP2 ADD SWAP1 PUSH2 0x772 SWAP2 SWAP1 PUSH2 0xC65 JUMP JUMPDEST SWAP1 POP JUMPDEST SWAP3 SWAP2 POP POP JUMP JUMPDEST PUSH1 0x40 MLOAD PUSH32 0xDD62ED3E00000000000000000000000000000000000000000000000000000000 DUP2 MSTORE DUP2 SWAP1 PUSH20 0xFFFFFFFFFFFFFFFFFFFFFFFFFFFFFFFFFFFFFFFF DUP6 AND SWAP1 PUSH4 0xDD62ED3E SWAP1 PUSH2 0x7D1 SWAP1 ADDRESS SWAP1 DUP8 SWAP1 PUSH1 0x4 ADD PUSH2 0xCD7 JUMP JUMPDEST PUSH1 0x20 PUSH1 0x40 MLOAD DUP1 DUP4 SUB DUP2 DUP7 DUP1 EXTCODESIZE ISZERO DUP1 ISZERO PUSH2 0x7E9 JUMPI PUSH1 0x0 DUP1 REVERT JUMPDEST POP GAS STATICCALL ISZERO DUP1 ISZERO PUSH2 0x7FD JUMPI RETURNDATASIZE PUSH1 0x0 DUP1 RETURNDATACOPY RETURNDATASIZE PUSH1 0x0 REVERT JUMPDEST POP POP POP POP PUSH1 0x40 MLOAD RETURNDATASIZE PUSH1 0x1F NOT PUSH1 0x1F DUP3 ADD AND DUP3 ADD DUP1 PUSH1 0x40 MSTORE POP DUP2 ADD SWAP1 PUSH2 0x821 SWAP2 SWAP1 PUSH2 0xC65 JUMP JUMPDEST LT ISZERO PUSH2 0x852 JUMPI PUSH2 0x852 DUP4 DUP4 PUSH32 0xFFFFFFFFFFFFFFFFFFFFFFFFFFFFFFFFFFFFFFFFFFFFFFFFFFFFFFFFFFFFFFFF PUSH2 0x8F9 JUMP JUMPDEST POP POP POP JUMP JUMPDEST DUP1 MLOAD PUSH1 0x20 DUP3 ADD REVERT JUMPDEST PUSH1 0x0 PUSH1 0x60 DUP4 PUSH20 0xFFFFFFFFFFFFFFFFFFFFFFFFFFFFFFFFFFFFFFFF AND DUP4 PUSH1 0x40 MLOAD PUSH2 0x888 SWAP2 SWAP1 PUSH2 0xC7D JUMP JUMPDEST PUSH1 0x0 PUSH1 0x40 MLOAD DUP1 DUP4 SUB DUP2 PUSH1 0x0 DUP7 GAS CALL SWAP2 POP POP RETURNDATASIZE DUP1 PUSH1 0x0 DUP2 EQ PUSH2 0x8C5 JUMPI PUSH1 0x40 MLOAD SWAP2 POP PUSH1 0x1F NOT PUSH1 0x3F RETURNDATASIZE ADD AND DUP3 ADD PUSH1 0x40 MSTORE RETURNDATASIZE DUP3 MSTORE RETURNDATASIZE PUSH1 0x0 PUSH1 0x20 DUP5 ADD RETURNDATACOPY PUSH2 0x8CA JUMP JUMPDEST PUSH1 0x60 SWAP2 POP JUMPDEST POP SWAP2 POP SWAP2 POP DUP2 DUP1 ISZERO PUSH2 0x8E0 JUMPI POP PUSH2 0x8E0 DUP2 PUSH2 0x916 JUMP JUMPDEST ISZERO PUSH2 0x8EC JUMPI POP POP PUSH2 0x8F5 JUMP JUMPDEST PUSH2 0x69C DUP2 PUSH2 0x857 JUMP JUMPDEST POP POP JUMP JUMPDEST PUSH1 0x60 PUSH4 0x95EA7B3 PUSH1 0xE0 SHL DUP4 DUP4 PUSH1 0x40 MLOAD PUSH1 0x24 ADD PUSH2 0x613 SWAP3 SWAP2 SWAP1 PUSH2 0xCFE JUMP JUMPDEST PUSH1 0x0 DUP2 MLOAD PUSH1 0x0 EQ ISZERO PUSH2 0x92A JUMPI POP PUSH1 0x1 PUSH2 0x3D5 JUMP JUMPDEST PUSH1 0x20 DUP3 MLOAD LT PUSH2 0x3D5 JUMPI PUSH1 0x0 PUSH2 0x940 DUP4 PUSH1 0x0 PUSH2 0x95B JUMP JUMPDEST SWAP1 POP DUP1 PUSH1 0x1 EQ ISZERO PUSH2 0x955 JUMPI PUSH1 0x1 SWAP2 POP POP PUSH2 0x3D5 JUMP JUMPDEST POP SWAP2 SWAP1 POP JUMP JUMPDEST PUSH1 0x0 PUSH2 0x772 DUP4 DUP4 PUSH1 0x0 DUP2 PUSH1 0x20 ADD DUP4 MLOAD LT ISZERO PUSH2 0x988 JUMPI PUSH2 0x988 PUSH2 0x983 PUSH1 0x5 DUP6 MLOAD DUP6 PUSH1 0x20 ADD PUSH2 0x991 JUMP JUMPDEST PUSH2 0x857 JUMP JUMPDEST POP ADD PUSH1 0x20 ADD MLOAD SWAP1 JUMP JUMPDEST PUSH1 0x60 PUSH4 0x28006595 PUSH1 0xE0 SHL DUP5 DUP5 DUP5 PUSH1 0x40 MLOAD PUSH1 0x24 ADD PUSH2 0x9B0 SWAP4 SWAP3 SWAP2 SWAP1 PUSH2 0xD7B JUMP JUMPDEST PUSH1 0x40 DUP1 MLOAD PUSH32 0xFFFFFFFFFFFFFFFFFFFFFFFFFFFFFFFFFFFFFFFFFFFFFFFFFFFFFFFFFFFFFFE0 DUP2 DUP5 SUB ADD DUP2 MSTORE SWAP2 SWAP1 MSTORE PUSH1 0x20 DUP2 ADD DUP1 MLOAD PUSH28 0xFFFFFFFFFFFFFFFFFFFFFFFFFFFFFFFFFFFFFFFFFFFFFFFFFFFFFFFF AND PUSH32 0xFFFFFFFF00000000000000000000000000000000000000000000000000000000 SWAP1 SWAP4 AND SWAP3 SWAP1 SWAP3 OR SWAP1 SWAP2 MSTORE SWAP1 POP SWAP4 SWAP3 POP POP POP JUMP JUMPDEST PUSH1 0x0 DUP1 DUP4 PUSH1 0x1F DUP5 ADD SLT PUSH2 0xA47 JUMPI DUP2 DUP3 REVERT JUMPDEST POP DUP2 CALLDATALOAD PUSH8 0xFFFFFFFFFFFFFFFF DUP2 GT ISZERO PUSH2 0xA5E JUMPI DUP2 DUP3 REVERT JUMPDEST PUSH1 0x20 DUP4 ADD SWAP2 POP DUP4 PUSH1 0x20 DUP3 DUP6 ADD ADD GT ISZERO PUSH2 0xA76 JUMPI PUSH1 0x0 DUP1 REVERT JUMPDEST SWAP3 POP SWAP3 SWAP1 POP JUMP JUMPDEST DUP1 CALLDATALOAD PUSH1 0xF DUP2 SWAP1 SIGNEXTEND DUP2 EQ PUSH2 0x775 JUMPI PUSH1 0x0 DUP1 REVERT JUMPDEST PUSH1 0x0 DUP1 PUSH1 0x0 DUP1 PUSH1 0x0 PUSH1 0x80 DUP7 DUP9 SUB SLT ISZERO PUSH2 0xAA6 JUMPI DUP1 DUP2 REVERT JUMPDEST DUP6 CALLDATALOAD PUSH2 0xAB1 DUP2 PUSH2 0xEE0 JUMP JUMPDEST SWAP5 POP PUSH1 0x20 DUP7 ADD CALLDATALOAD PUSH2 0xAC1 DUP2 PUSH2 0xEE0 JUMP JUMPDEST SWAP4 POP PUSH1 0x40 DUP7 ADD CALLDATALOAD SWAP3 POP PUSH1 0x60 DUP7 ADD CALLDATALOAD PUSH8 0xFFFFFFFFFFFFFFFF DUP2 GT ISZERO PUSH2 0xAE3 JUMPI DUP2 DUP3 REVERT JUMPDEST PUSH2 0xAEF DUP9 DUP3 DUP10 ADD PUSH2 0xA36 JUMP JUMPDEST SWAP7 SWAP10 SWAP6 SWAP9 POP SWAP4 SWAP7 POP SWAP3 SWAP5 SWAP4 SWAP3 POP POP POP JUMP JUMPDEST PUSH1 0x0 DUP1 PUSH1 0x0 DUP1 PUSH1 0x0 DUP1 PUSH1 0xA0 DUP8 DUP10 SUB SLT ISZERO PUSH2 0xB18 JUMPI DUP1 DUP2 REVERT JUMPDEST DUP7 CALLDATALOAD PUSH2 0xB23 DUP2 PUSH2 0xEE0 JUMP JUMPDEST SWAP6 POP PUSH1 0x20 DUP8 ADD CALLDATALOAD PUSH2 0xB33 DUP2 PUSH2 0xEE0 JUMP JUMPDEST SWAP5 POP PUSH1 0x40 DUP8 ADD CALLDATALOAD PUSH2 0xB43 DUP2 PUSH2 0xEE0 JUMP JUMPDEST SWAP4 POP PUSH1 0x60 DUP8 ADD CALLDATALOAD SWAP3 POP PUSH1 0x80 DUP8 ADD CALLDATALOAD PUSH8 0xFFFFFFFFFFFFFFFF DUP2 GT ISZERO PUSH2 0xB65 JUMPI DUP2 DUP3 REVERT JUMPDEST PUSH2 0xB71 DUP10 DUP3 DUP11 ADD PUSH2 0xA36 JUMP JUMPDEST SWAP8 SWAP11 SWAP7 SWAP10 POP SWAP5 SWAP8 POP SWAP3 SWAP6 SWAP4 SWAP5 SWAP3 POP POP POP JUMP JUMPDEST PUSH1 0x0 DUP1 PUSH1 0x0 PUSH1 0x60 DUP5 DUP7 SUB SLT ISZERO PUSH2 0xB97 JUMPI DUP3 DUP4 REVERT JUMPDEST DUP4 CALLDATALOAD PUSH2 0xBA2 DUP2 PUSH2 0xEE0 JUMP JUMPDEST SWAP3 POP PUSH1 0x20 DUP5 ADD CALLDATALOAD PUSH2 0xBB2 DUP2 PUSH2 0xEE0 JUMP JUMPDEST SWAP3 SWAP6 SWAP3 SWAP5 POP POP POP PUSH1 0x40 SWAP2 SWAP1 SWAP2 ADD CALLDATALOAD SWAP1 JUMP JUMPDEST PUSH1 0x0 PUSH1 0x80 DUP3 DUP5 SUB SLT ISZERO PUSH2 0xBD4 JUMPI DUP1 DUP2 REVERT JUMPDEST PUSH1 0x40 MLOAD PUSH1 0x80 DUP2 ADD DUP2 DUP2 LT PUSH8 0xFFFFFFFFFFFFFFFF DUP3 GT OR ISZERO PUSH2 0xBF3 JUMPI DUP3 DUP4 REVERT JUMPDEST PUSH1 0x40 MSTORE DUP3 CALLDATALOAD PUSH2 0xC01 DUP2 PUSH2 0xEE0 JUMP JUMPDEST DUP2 MSTORE PUSH1 0x20 DUP4 ADD CALLDATALOAD PUSH32 0xFFFFFFFF00000000000000000000000000000000000000000000000000000000 DUP2 AND DUP2 EQ PUSH2 0xC35 JUMPI DUP3 DUP4 REVERT JUMPDEST PUSH1 0x20 DUP3 ADD MSTORE PUSH2 0xC47 DUP5 PUSH1 0x40 DUP6 ADD PUSH2 0xA7D JUMP JUMPDEST PUSH1 0x40 DUP3 ADD MSTORE PUSH2 0xC59 DUP5 PUSH1 0x60 DUP6 ADD PUSH2 0xA7D JUMP JUMPDEST PUSH1 0x60 DUP3 ADD MSTORE SWAP4 SWAP3 POP POP POP JUMP JUMPDEST PUSH1 0x0 PUSH1 0x20 DUP3 DUP5 SUB SLT ISZERO PUSH2 0xC76 JUMPI DUP1 DUP2 REVERT JUMPDEST POP MLOAD SWAP2 SWAP1 POP JUMP JUMPDEST PUSH1 0x0 DUP3 MLOAD DUP2 JUMPDEST DUP2 DUP2 LT ISZERO PUSH2 0xC9D JUMPI PUSH1 0x20 DUP2 DUP7 ADD DUP2 ADD MLOAD DUP6 DUP4 ADD MSTORE ADD PUSH2 0xC83 JUMP JUMPDEST DUP2 DUP2 GT ISZERO PUSH2 0xCAB JUMPI DUP3 DUP3 DUP6 ADD MSTORE JUMPDEST POP SWAP2 SWAP1 SWAP2 ADD SWAP3 SWAP2 POP POP JUMP JUMPDEST PUSH20 0xFFFFFFFFFFFFFFFFFFFFFFFFFFFFFFFFFFFFFFFF SWAP2 SWAP1 SWAP2 AND DUP2 MSTORE PUSH1 0x20 ADD SWAP1 JUMP JUMPDEST PUSH20 0xFFFFFFFFFFFFFFFFFFFFFFFFFFFFFFFFFFFFFFFF SWAP3 DUP4 AND DUP2 MSTORE SWAP2 AND PUSH1 0x20 DUP3 ADD MSTORE PUSH1 0x40 ADD SWAP1 JUMP JUMPDEST PUSH20 0xFFFFFFFFFFFFFFFFFFFFFFFFFFFFFFFFFFFFFFFF SWAP3 SWAP1 SWAP3 AND DUP3 MSTORE PUSH1 0x20 DUP3 ADD MSTORE PUSH1 0x40 ADD SWAP1 JUMP JUMPDEST PUSH20 0xFFFFFFFFFFFFFFFFFFFFFFFFFFFFFFFFFFFFFFFF SWAP9 DUP10 AND DUP2 MSTORE SWAP7 DUP9 AND PUSH1 0x20 DUP9 ADD MSTORE PUSH1 0x40 DUP8 ADD SWAP6 SWAP1 SWAP6 MSTORE PUSH1 0x60 DUP7 ADD SWAP4 SWAP1 SWAP4 MSTORE PUSH1 0x80 DUP6 ADD SWAP2 SWAP1 SWAP2 MSTORE DUP5 AND PUSH1 0xA0 DUP5 ADD MSTORE DUP4 AND PUSH1 0xC0 DUP4 ADD MSTORE SWAP1 SWAP2 AND PUSH1 0xE0 DUP3 ADD MSTORE PUSH2 0x100 ADD SWAP1 JUMP JUMPDEST PUSH1 0x60 DUP2 ADD PUSH1 0x8 DUP6 LT PUSH2 0xD89 JUMPI INVALID JUMPDEST SWAP4 DUP2 MSTORE PUSH1 0x20 DUP2 ADD SWAP3 SWAP1 SWAP3 MSTORE PUSH1 0x40 SWAP1 SWAP2 ADD MSTORE SWAP1 JUMP JUMPDEST PUSH1 0xF SWAP5 DUP6 SIGNEXTEND DUP2 MSTORE SWAP3 SWAP1 SWAP4 SIGNEXTEND PUSH1 0x20 DUP4 ADD MSTORE PUSH1 0x40 DUP3 ADD MSTORE PUSH1 0x60 DUP2 ADD SWAP2 SWAP1 SWAP2 MSTORE PUSH1 0x80 ADD SWAP1 JUMP JUMPDEST PUSH1 0x20 DUP1 DUP3 MSTORE PUSH1 0x23 SWAP1 DUP3 ADD MSTORE PUSH32 0x43757276654C697175696469747950726F76696465722F494E56414C49445F41 PUSH1 0x40 DUP3 ADD MSTORE PUSH32 0x5247530000000000000000000000000000000000000000000000000000000000 PUSH1 0x60 DUP3 ADD MSTORE PUSH1 0x80 ADD SWAP1 JUMP JUMPDEST PUSH1 0x20 DUP1 DUP3 MSTORE PUSH1 0x22 SWAP1 DUP3 ADD MSTORE PUSH32 0x43757276654C697175696469747950726F76696465722F554E444552424F5547 PUSH1 0x40 DUP3 ADD MSTORE PUSH32 0x4854000000000000000000000000000000000000000000000000000000000000 PUSH1 0x60 DUP3 ADD MSTORE PUSH1 0x80 ADD SWAP1 JUMP JUMPDEST PUSH1 0x20 DUP1 DUP3 MSTORE PUSH1 0x26 SWAP1 DUP3 ADD MSTORE PUSH32 0x43757276654C697175696469747950726F76696465722F4E4F545F494D504C45 PUSH1 0x40 DUP3 ADD MSTORE PUSH32 0x4D454E5445440000000000000000000000000000000000000000000000000000 PUSH1 0x60 DUP3 ADD MSTORE PUSH1 0x80 ADD SWAP1 JUMP JUMPDEST SWAP1 DUP2 MSTORE PUSH1 0x20 ADD SWAP1 JUMP JUMPDEST PUSH20 0xFFFFFFFFFFFFFFFFFFFFFFFFFFFFFFFFFFFFFFFF DUP2 AND DUP2 EQ PUSH2 0xF02 JUMPI PUSH1 0x0 DUP1 REVERT JUMPDEST POP JUMP INVALID LOG2 PUSH5 0x6970667358 0x22 SLT KECCAK256 SELFDESTRUCT 0xE7 SWAP5 0x29 0xD4 0xD7 PUSH1 0xD SLT PUSH14 0x38B63BF3E4276E46802FF175FFF6 0x5F PUSH30 0xEB0EE3D57FF064736F6C634300060C003300000000000000000000000000 "
            },
            "methodIdentifiers": {
                "getSellQuote(address,address,uint256)": "343fbcdd",
                "sellEthForToken(address,address,uint256,bytes)": "b52e8458",
                "sellTokenForEth(address,address,uint256,bytes)": "69be90ec",
                "sellTokenForToken(address,address,address,uint256,bytes)": "65d02b04"
            }
        }
    },
    "sourceTreeHashHex": "0x6491842c7b2b72ecd2bcce6e1c8c98f956dd4d1f728174e284b25f7abe600672",
    "compiler": {
        "name": "solc",
        "version": "0.6.12+commit.27d51765",
        "settings": {
            "remappings": [
                "@0x/contracts-utils=/Users/michaelzhu/protocol/node_modules/@0x/contracts-utils",
                "@0x/contracts-erc20=/Users/michaelzhu/protocol/contracts/zero-ex/node_modules/@0x/contracts-erc20"
            ],
            "optimizer": {
                "enabled": true,
                "runs": 1000000,
                "details": {
                    "yul": true,
                    "deduplicate": true,
                    "cse": true,
                    "constantOptimizer": true
                }
            },
            "outputSelection": {
                "*": {
                    "*": [
                        "abi",
                        "devdoc",
                        "evm.bytecode.object",
                        "evm.bytecode.sourceMap",
                        "evm.deployedBytecode.object",
                        "evm.deployedBytecode.sourceMap",
                        "evm.methodIdentifiers"
                    ]
                }
            },
            "evmVersion": "istanbul"
        }
    },
    "chains": {}
}