{
    "schemaVersion": "2.0.0",
    "contractName": "MultiplexFeature",
    "compilerOutput": {
        "abi": [
            {
                "inputs": [
                    {
                        "internalType": "address",
                        "name": "zeroExAddress",
                        "type": "address"
                    },
                    {
                        "internalType": "contract IEtherTokenV06",
                        "name": "weth_",
                        "type": "address"
                    },
                    {
                        "internalType": "contract ILiquidityProviderSandbox",
                        "name": "sandbox_",
                        "type": "address"
                    },
                    {
                        "internalType": "bytes32",
                        "name": "greedyTokensBloomFilter",
                        "type": "bytes32"
                    }
                ],
                "stateMutability": "nonpayable",
                "type": "constructor"
            },
            {
                "anonymous": false,
                "inputs": [
                    {
                        "indexed": false,
                        "internalType": "bytes32",
                        "name": "orderHash",
                        "type": "bytes32"
                    },
                    {
                        "indexed": false,
                        "internalType": "address",
                        "name": "maker",
                        "type": "address"
                    },
                    {
                        "indexed": false,
                        "internalType": "uint64",
                        "name": "expiry",
                        "type": "uint64"
                    }
                ],
                "name": "ExpiredRfqOrder",
                "type": "event"
            },
            {
                "anonymous": false,
                "inputs": [
                    {
                        "indexed": false,
                        "internalType": "address",
                        "name": "inputToken",
                        "type": "address"
                    },
                    {
                        "indexed": false,
                        "internalType": "address",
                        "name": "outputToken",
                        "type": "address"
                    },
                    {
                        "indexed": false,
                        "internalType": "uint256",
                        "name": "inputTokenAmount",
                        "type": "uint256"
                    },
                    {
                        "indexed": false,
                        "internalType": "uint256",
                        "name": "outputTokenAmount",
                        "type": "uint256"
                    },
                    {
                        "indexed": false,
                        "internalType": "address",
                        "name": "provider",
                        "type": "address"
                    },
                    {
                        "indexed": false,
                        "internalType": "address",
                        "name": "recipient",
                        "type": "address"
                    }
                ],
                "name": "LiquidityProviderSwap",
                "type": "event"
            },
            {
                "inputs": [],
                "name": "EIP712_DOMAIN_SEPARATOR",
                "outputs": [
                    {
                        "internalType": "bytes32",
                        "name": "",
                        "type": "bytes32"
                    }
                ],
                "stateMutability": "view",
                "type": "function"
            },
            {
                "inputs": [],
                "name": "FEATURE_NAME",
                "outputs": [
                    {
                        "internalType": "string",
                        "name": "",
                        "type": "string"
                    }
                ],
                "stateMutability": "view",
                "type": "function"
            },
            {
                "inputs": [],
                "name": "FEATURE_VERSION",
                "outputs": [
                    {
                        "internalType": "uint256",
                        "name": "",
                        "type": "uint256"
                    }
                ],
                "stateMutability": "view",
                "type": "function"
            },
            {
                "inputs": [],
                "name": "GREEDY_TOKENS_BLOOM_FILTER",
                "outputs": [
                    {
                        "internalType": "bytes32",
                        "name": "",
                        "type": "bytes32"
                    }
                ],
                "stateMutability": "view",
                "type": "function"
            },
            {
                "inputs": [
                    {
                        "components": [
                            {
                                "internalType": "address[]",
                                "name": "tokens",
                                "type": "address[]"
                            },
                            {
                                "internalType": "uint256",
                                "name": "sellAmount",
                                "type": "uint256"
                            },
                            {
                                "components": [
                                    {
                                        "internalType": "bytes4",
                                        "name": "selector",
                                        "type": "bytes4"
                                    },
                                    {
                                        "internalType": "bytes",
                                        "name": "data",
                                        "type": "bytes"
                                    }
                                ],
                                "internalType": "struct IMultiplexFeature.WrappedMultiHopCall[]",
                                "name": "calls",
                                "type": "tuple[]"
                            }
                        ],
                        "internalType": "struct IMultiplexFeature.MultiHopFillData",
                        "name": "fillData",
                        "type": "tuple"
                    },
                    {
                        "internalType": "uint256",
                        "name": "totalEth",
                        "type": "uint256"
                    }
                ],
                "name": "_multiHopFill",
                "outputs": [
                    {
                        "internalType": "uint256",
                        "name": "outputTokenAmount",
                        "type": "uint256"
                    },
                    {
                        "internalType": "uint256",
                        "name": "remainingEth",
                        "type": "uint256"
                    }
                ],
                "stateMutability": "nonpayable",
                "type": "function"
            },
            {
                "inputs": [
                    {
                        "internalType": "contract IERC20TokenV06",
                        "name": "inputToken",
                        "type": "address"
                    },
                    {
                        "internalType": "contract IERC20TokenV06",
                        "name": "outputToken",
                        "type": "address"
                    },
                    {
                        "internalType": "uint256",
                        "name": "inputTokenAmount",
                        "type": "uint256"
                    },
                    {
                        "internalType": "contract ILiquidityProvider",
                        "name": "provider",
                        "type": "address"
                    },
                    {
                        "internalType": "address",
                        "name": "recipient",
                        "type": "address"
                    },
                    {
                        "internalType": "bytes",
                        "name": "auxiliaryData",
                        "type": "bytes"
                    }
                ],
                "name": "_sellToLiquidityProvider",
                "outputs": [
                    {
                        "internalType": "uint256",
                        "name": "outputTokenAmount",
                        "type": "uint256"
                    }
                ],
                "stateMutability": "nonpayable",
                "type": "function"
            },
            {
                "inputs": [
                    {
                        "internalType": "address[]",
                        "name": "tokens",
                        "type": "address[]"
                    },
                    {
                        "internalType": "uint256",
                        "name": "sellAmount",
                        "type": "uint256"
                    },
                    {
                        "internalType": "bool",
                        "name": "isSushi",
                        "type": "bool"
                    },
                    {
                        "internalType": "address",
                        "name": "pairAddress",
                        "type": "address"
                    },
                    {
                        "internalType": "address",
                        "name": "recipient",
                        "type": "address"
                    }
                ],
                "name": "_sellToUniswap",
                "outputs": [
                    {
                        "internalType": "uint256",
                        "name": "outputTokenAmount",
                        "type": "uint256"
                    }
                ],
                "stateMutability": "nonpayable",
                "type": "function"
            },
            {
                "inputs": [
                    {
                        "components": [
                            {
                                "internalType": "contract IERC20TokenV06",
                                "name": "inputToken",
                                "type": "address"
                            },
                            {
                                "internalType": "contract IERC20TokenV06",
                                "name": "outputToken",
                                "type": "address"
                            },
                            {
                                "internalType": "uint256",
                                "name": "sellAmount",
                                "type": "uint256"
                            },
                            {
                                "components": [
                                    {
                                        "internalType": "bytes4",
                                        "name": "selector",
                                        "type": "bytes4"
                                    },
                                    {
                                        "internalType": "uint256",
                                        "name": "sellAmount",
                                        "type": "uint256"
                                    },
                                    {
                                        "internalType": "bytes",
                                        "name": "data",
                                        "type": "bytes"
                                    }
                                ],
                                "internalType": "struct IMultiplexFeature.WrappedBatchCall[]",
                                "name": "calls",
                                "type": "tuple[]"
                            }
                        ],
                        "internalType": "struct IMultiplexFeature.BatchFillData",
                        "name": "fillData",
                        "type": "tuple"
                    },
                    {
                        "internalType": "uint256",
                        "name": "minBuyAmount",
                        "type": "uint256"
                    }
                ],
                "name": "batchFill",
                "outputs": [
                    {
                        "internalType": "uint256",
                        "name": "outputTokenAmount",
                        "type": "uint256"
                    }
                ],
                "stateMutability": "payable",
                "type": "function"
            },
            {
                "inputs": [],
                "name": "migrate",
                "outputs": [
                    {
                        "internalType": "bytes4",
                        "name": "success",
                        "type": "bytes4"
                    }
                ],
                "stateMutability": "nonpayable",
                "type": "function"
            },
            {
                "inputs": [
                    {
                        "components": [
                            {
                                "internalType": "address[]",
                                "name": "tokens",
                                "type": "address[]"
                            },
                            {
                                "internalType": "uint256",
                                "name": "sellAmount",
                                "type": "uint256"
                            },
                            {
                                "components": [
                                    {
                                        "internalType": "bytes4",
                                        "name": "selector",
                                        "type": "bytes4"
                                    },
                                    {
                                        "internalType": "bytes",
                                        "name": "data",
                                        "type": "bytes"
                                    }
                                ],
                                "internalType": "struct IMultiplexFeature.WrappedMultiHopCall[]",
                                "name": "calls",
                                "type": "tuple[]"
                            }
                        ],
                        "internalType": "struct IMultiplexFeature.MultiHopFillData",
                        "name": "fillData",
                        "type": "tuple"
                    },
                    {
                        "internalType": "uint256",
                        "name": "minBuyAmount",
                        "type": "uint256"
                    }
                ],
                "name": "multiHopFill",
                "outputs": [
                    {
                        "internalType": "uint256",
                        "name": "outputTokenAmount",
                        "type": "uint256"
                    }
                ],
                "stateMutability": "payable",
                "type": "function"
            },
            {
                "inputs": [],
                "name": "sandbox",
                "outputs": [
                    {
                        "internalType": "contract ILiquidityProviderSandbox",
                        "name": "",
                        "type": "address"
                    }
                ],
                "stateMutability": "view",
                "type": "function"
            }
        ],
        "devdoc": {
            "details": "This feature enables efficient batch and multi-hop trades      using different liquidity sources.",
            "kind": "dev",
            "methods": {
                "batchFill((address,address,uint256,(bytes4,uint256,bytes)[]),uint256)": {
                    "details": "Executes a batch of fills selling `fillData.inputToken`      for `fillData.outputToken` in sequence. Refer to the      internal variant `_batchFill` for the allowed nested      operations.",
                    "params": {
                        "fillData": "Encodes the input/output tokens, the sell        amount, and the nested operations for this batch fill.",
                        "minBuyAmount": "The minimum amount of `fillData.outputToken`        to buy. Reverts if this amount is not met."
                    },
                    "returns": {
                        "outputTokenAmount": "The amount of the output token bought."
                    }
                },
                "migrate()": {
                    "details": "Initialize and register this feature.      Should be delegatecalled by `Migrate.migrate()`.",
                    "returns": {
                        "success": "`LibMigrate.SUCCESS` on success."
                    }
                },
                "multiHopFill((address[],uint256,(bytes4,bytes)[]),uint256)": {
                    "details": "Executes a sequence of fills \"hopping\" through the      path of tokens given by `fillData.tokens`. Refer to the      internal variant `_multiHopFill` for the allowed nested      operations.",
                    "params": {
                        "fillData": "Encodes the path of tokens, the sell amount,        and the nested operations for this multi-hop fill.",
                        "minBuyAmount": "The minimum amount of the output token        to buy. Reverts if this amount is not met."
                    },
                    "returns": {
                        "outputTokenAmount": "The amount of the output token bought."
                    }
                }
            },
            "stateVariables": {
                "FEATURE_NAME": {
                    "details": "Name of this feature."
                },
                "FEATURE_VERSION": {
                    "details": "Version of this feature."
                },
                "sandbox": {
                    "details": "The sandbox contract address."
                },
                "weth": {
                    "details": "The WETH token contract."
                }
            },
            "version": 1
        },
        "evm": {
            "bytecode": {
                "linkReferences": {},
                "object": "0x61014060405262000014600160008062000112565b60e0523480156200002457600080fd5b506040516200498c3803806200498c833981016040819052620000479162000144565b3060601b608052604051819085904690620000cf907f8b73c3c69bb8fe3d512ecc4cf759cc79239f7b179b0ffacaa9a75d522b39400f907f9e5dae0addaf20578aeb5d70341d092b53b4e14480ac5726438fd436df7ba427907f06c015bd22b4c69690933c1058878ebdfef31f9aaae40bbe86d8a09fe1b2972c90859087906020016200019d565b60408051601f19818403018152919052805160209091012060a052505060c052506001600160601b0319606092831b811661010052911b166101205250620001e2565b6bffffffff0000000000000000604084901b1667ffffffff00000000602084901b161763ffffffff8216179392505050565b600080600080608085870312156200015a578384fd5b84516200016781620001c9565b60208601519094506200017a81620001c9565b60408601519093506200018d81620001c9565b6060959095015193969295505050565b9485526020850193909352604084019190915260608301526001600160a01b0316608082015260a00190565b6001600160a01b0381168114620001df57600080fd5b50565b60805160601c60a05160c05160e0516101005160601c6101205160601c61473462000258600039806102365280611254528061132a52806113a5525080610b665280610c335280610d8f52508061021252508061118852806127ff5250806111ac5280612a2752508061166552506147346000f3fe6080604052600436106100bc5760003560e01c8063a82b9f3a11610074578063d925a56d1161004e578063d925a56d146101c6578063dab400f3146101db578063e6f90561146101f0576100bc565b8063a82b9f3a14610165578063afc6728e14610193578063d64d051a146101a6576100bc565b806321c184b6116100a557806321c184b61461010e5780636ae4b4f7146101215780638fd3ab8014610143576100bc565b8063031b905c146100c15780631984916f146100ec575b600080fd5b3480156100cd57600080fd5b506100d6610210565b6040516100e39190613aac565b60405180910390f35b3480156100f857600080fd5b50610101610234565b6040516100e391906139a5565b6100d661011c366004613545565b610258565b34801561012d57600080fd5b506101366103a4565b6040516100e39190613c2a565b34801561014f57600080fd5b506101586103dd565b6040516100e39190613aeb565b34801561017157600080fd5b50610185610180366004613545565b610456565b6040516100e392919061453f565b6100d66101a13660046134a2565b610e4d565b3480156101b257600080fd5b506100d66101c1366004613263565b610f54565b3480156101d257600080fd5b506100d6611186565b3480156101e757600080fd5b506100d66111aa565b3480156101fc57600080fd5b506100d661020b3660046133f8565b6111ce565b7f000000000000000000000000000000000000000000000000000000000000000081565b7f000000000000000000000000000000000000000000000000000000000000000081565b8151805160009182917fffffffffffffffffffffffffffffffffffffffffffffffffffffffffffffffff810190811061028d57fe5b602002602001015190506102c0338273ffffffffffffffffffffffffffffffffffffffff1661148a90919063ffffffff16565b915060006102ce4734611563565b90506102da8534610456565b5061030790508361030173ffffffffffffffffffffffffffffffffffffffff85163361148a565b90611563565b92508383101561034c576040517f08c379a000000000000000000000000000000000000000000000000000000000815260040161034390613c3d565b60405180910390fd5b4781811015610387576040517f08c379a000000000000000000000000000000000000000000000000000000000815260040161034390613fce565b8181111561039b5761039b33838303611587565b50505092915050565b6040518060400160405280601081526020017f4d756c7469706c6578466561747572650000000000000000000000000000000081525081565b60006104087fafc6728e0000000000000000000000000000000000000000000000000000000061162f565b6104317f21c184b60000000000000000000000000000000000000000000000000000000061162f565b507f2c64c5ef0000000000000000000000000000000000000000000000000000000090565b6000808360400151516001018460000151511461049f576040517f08c379a000000000000000000000000000000000000000000000000000000000815260040161034390614088565b50506020820151816000805b8560400151518114610e44576104bf612c55565b866040015182815181106104cf57fe5b602090810291909101015180519091507fffffffff00000000000000000000000000000000000000000000000000000000167fd64d051a0000000000000000000000000000000000000000000000000000000014156105995760006105388860400151846116c2565b90506060600083602001518060200190518101906105569190613213565b915091506105678289838987610f54565b975073ffffffffffffffffffffffffffffffffffffffff8316331461058c578261058f565b60005b9550505050610e3b565b80517fffffffff00000000000000000000000000000000000000000000000000000000167fe6f905610000000000000000000000000000000000000000000000000000000014156107855760006105f48860400151846116c2565b905073ffffffffffffffffffffffffffffffffffffffff84166106f75760006060836020015180602001905181019061062d919061309c565b915091506106678a60000151868151811061064457fe5b602002602001015173ffffffffffffffffffffffffffffffffffffffff16611994565b1561068c5761067688886119c6565b97506106828289611587565b87870396506106af565b6106af8a60000151868151811061069f57fe5b602002602001015133848b6119dc565b6106ee8a6000015186815181106106c257fe5b60200260200101518b6000015187600101815181106106dd57fe5b60200260200101518a8587866111ce565b97505050610757565b60608260200151806020019051810190610711919061309c565b9150506107538960000151858151811061072757fe5b60200260200101518a60000151866001018151811061074257fe5b6020026020010151898886866111ce565b9650505b73ffffffffffffffffffffffffffffffffffffffff8116331461077a578061077d565b60005b935050610e3b565b80517fffffffff00000000000000000000000000000000000000000000000000000000167f62597192000000000000000000000000000000000000000000000000000000001415610ad3576107d8612c6d565b87518051849081106107e657fe5b60209081029190910181015173ffffffffffffffffffffffffffffffffffffffff1690820152875180516001850190811061081d57fe5b602090810291909101015173ffffffffffffffffffffffffffffffffffffffff166040808301919091526000608083015288015161085b90846116c2565b73ffffffffffffffffffffffffffffffffffffffff9081168252841615610888576000606082015261097b565b805173ffffffffffffffffffffffffffffffffffffffff1633148015906108cf57506108cd816020015173ffffffffffffffffffffffffffffffffffffffff16611994565b155b156109735760003073ffffffffffffffffffffffffffffffffffffffff1663f028e9be6040518163ffffffff1660e01b815260040160206040518083038186803b15801561091c57600080fd5b505afa158015610930573d6000803e3d6000fd5b505050506040513d601f19601f820116820180604052508101906109549190613486565b9050610966826020015133838a6119dc565b506000606082015261097b565b606081018690525b6000826020015180602001905181019061099591906132e2565b60a084019190915290506109a981876119c6565b90508015610a0a576109d4826020015173ffffffffffffffffffffffffffffffffffffffff16611994565b610a0a576040517f08c379a000000000000000000000000000000000000000000000000000000000815260040161034390613c9a565b6040517f6259719200000000000000000000000000000000000000000000000000000000815230906362597192908390610a4890869060040161444a565b6020604051808303818588803b158015610a6157600080fd5b505af1158015610a75573d6000803e3d6000fd5b50505050506040513d601f19601f82011682018060405250810190610a9a91906137f6565b8251909750958190039573ffffffffffffffffffffffffffffffffffffffff163314610ac7578151610aca565b60005b94505050610e3b565b80517fffffffff00000000000000000000000000000000000000000000000000000000167fd0e30db0000000000000000000000000000000000000000000000000000000001415610cc6578115610b56576040517f08c379a000000000000000000000000000000000000000000000000000000000815260040161034390614313565b6000610b6286866119c6565b90507f000000000000000000000000000000000000000000000000000000000000000073ffffffffffffffffffffffffffffffffffffffff1663d0e30db0826040518263ffffffff1660e01b81526004016000604051808303818588803b158015610bcc57600080fd5b505af1158015610be0573d6000803e3d6000fd5b5050505050610bf38860400151846116c2565b6040517fa9059cbb00000000000000000000000000000000000000000000000000000000815290945073ffffffffffffffffffffffffffffffffffffffff7f0000000000000000000000000000000000000000000000000000000000000000169063a9059cbb90610c6a9087908590600401613a86565b602060405180830381600087803b158015610c8457600080fd5b505af1158015610c98573d6000803e3d6000fd5b505050506040513d601f19601f82011682018060405250810190610cbc91906133dc565b5090930392610e3b565b80517fffffffff00000000000000000000000000000000000000000000000000000000167f2e1a7d4d000000000000000000000000000000000000000000000000000000001415610e09576001876040015151038214610d52576040517f08c379a0000000000000000000000000000000000000000000000000000000008152600401610343906141fc565b6040517f2e1a7d4d00000000000000000000000000000000000000000000000000000000815273ffffffffffffffffffffffffffffffffffffffff7f00000000000000000000000000000000000000000000000000000000000000001690632e1a7d4d90610dc4908890600401613aac565b600060405180830381600087803b158015610dde57600080fd5b505af1158015610df2573d6000803e3d6000fd5b50505050610e003386611587565b60009250610e3b565b6040517f08c379a000000000000000000000000000000000000000000000000000000000815260040161034390613f71565b506001016104ab565b50509250929050565b6020820151600090610e759073ffffffffffffffffffffffffffffffffffffffff163361148a565b90506000610e834734611563565b9050610e8e84611be4565b5050610ec18261030133876020015173ffffffffffffffffffffffffffffffffffffffff1661148a90919063ffffffff16565b915082821015610efd576040517f08c379a000000000000000000000000000000000000000000000000000000000815260040161034390613e91565b4781811015610f38576040517f08c379a00000000000000000000000000000000000000000000000000000000081526004016103439061419f565b81811115610f4c57610f4c33838303611587565b505092915050565b60006001865111610f91576040517f08c379a0000000000000000000000000000000000000000000000000000000008152600401610343906142b6565b73ffffffffffffffffffffffffffffffffffffffff831661100157610fdf86600081518110610fbc57fe5b602002602001015187600181518110610fd157fe5b602002602001015186612422565b925061100186600081518110610ff157fe5b60200260200101513385886119dc565b60005b600187510381101561117c5760008088838151811061101f57fe5b602002602001015189846001018151811061103657fe5b60200260200101519150915061104e8683838b612579565b93506000808273ffffffffffffffffffffffffffffffffffffffff168473ffffffffffffffffffffffffffffffffffffffff161061108e57856000611092565b6000865b91509150600060028c510386106110a957876110ca565b6110ca848d88600201815181106110bc57fe5b60200260200101518c612422565b604080516000815260208101918290527f022c0d9f0000000000000000000000000000000000000000000000000000000090915290915073ffffffffffffffffffffffffffffffffffffffff8a169063022c0d9f90611132908690869086906024810161454d565b600060405180830381600087803b15801561114c57600080fd5b505af1158015611160573d6000803e3d6000fd5b50505050809850869a5050505050508080600101915050611004565b5095945050505050565b7f000000000000000000000000000000000000000000000000000000000000000081565b7f000000000000000000000000000000000000000000000000000000000000000081565b6000806111f173ffffffffffffffffffffffffffffffffffffffff88168561148a565b90506112128873ffffffffffffffffffffffffffffffffffffffff16611994565b156112c9576040517f6f025ee600000000000000000000000000000000000000000000000000000000815273ffffffffffffffffffffffffffffffffffffffff7f00000000000000000000000000000000000000000000000000000000000000001690636f025ee6906112929088908b9089906000908a906004016139ed565b600060405180830381600087803b1580156112ac57600080fd5b505af11580156112c0573d6000803e3d6000fd5b50505050611418565b6112e88773ffffffffffffffffffffffffffffffffffffffff16611994565b15611368576040517f1454913700000000000000000000000000000000000000000000000000000000815273ffffffffffffffffffffffffffffffffffffffff7f000000000000000000000000000000000000000000000000000000000000000016906314549137906112929088908c9089906000908a906004016139ed565b6040517fbb503e2100000000000000000000000000000000000000000000000000000000815273ffffffffffffffffffffffffffffffffffffffff7f0000000000000000000000000000000000000000000000000000000000000000169063bb503e21906113e59088908c908c908a906000908b90600401613b97565b600060405180830381600087803b1580156113ff57600080fd5b505af1158015611413573d6000803e3d6000fd5b505050505b61143c8161030173ffffffffffffffffffffffffffffffffffffffff8a168761148a565b91507f40a6ba9513d09e3488135e0e0d10e2d4382b792720155b144cbea89ac9db6d3488888885898960405161147796959493929190613a3f565b60405180910390a1509695505050505050565b600061149583611994565b156114b8575073ffffffffffffffffffffffffffffffffffffffff81163161155d565b6040517f70a0823100000000000000000000000000000000000000000000000000000000815273ffffffffffffffffffffffffffffffffffffffff8416906370a082319061150a9085906004016139a5565b60206040518083038186803b15801561152257600080fd5b505afa158015611536573d6000803e3d6000fd5b505050506040513d601f19601f8201168201806040525081019061155a91906137f6565b90505b92915050565b6000828211156115815761158161157c60028585612737565b6127dc565b50900390565b60008273ffffffffffffffffffffffffffffffffffffffff16826040516115ad906139a2565b60006040518083038185875af1925050503d80600081146115ea576040519150601f19603f3d011682016040523d82523d6000602084013e6115ef565b606091505b505090508061162a576040517f08c379a0000000000000000000000000000000000000000000000000000000008152600401610343906140e5565b505050565b6040517f6eb224cb0000000000000000000000000000000000000000000000000000000081523090636eb224cb9061168d9084907f000000000000000000000000000000000000000000000000000000000000000090600401613b18565b600060405180830381600087803b1580156116a757600080fd5b505af11580156116bb573d6000803e3d6000fd5b5050505050565b815133907fffffffffffffffffffffffffffffffffffffffffffffffffffffffffffffffff01821015611947576116f7612c55565b83836001018151811061170657fe5b602090810291909101015180519091507fffffffff00000000000000000000000000000000000000000000000000000000167fd64d051a0000000000000000000000000000000000000000000000000000000014156117bb5760606000826020015180602001905181019061177b9190613213565b915091506117b28260008151811061178f57fe5b6020026020010151836001815181106117a457fe5b602002602001015183612422565b93505050611945565b80517fffffffff00000000000000000000000000000000000000000000000000000000167fe6f9056100000000000000000000000000000000000000000000000000000000141561182657806020015180602001905181019061181e919061309c565b509150611945565b80517fffffffff00000000000000000000000000000000000000000000000000000000167f2e1a7d4d00000000000000000000000000000000000000000000000000000000141561187957309150611945565b80517fffffffff00000000000000000000000000000000000000000000000000000000167f62597192000000000000000000000000000000000000000000000000000000001415611945573073ffffffffffffffffffffffffffffffffffffffff1663f028e9be6040518163ffffffff1660e01b815260040160206040518083038186803b15801561190a57600080fd5b505afa15801561191e573d6000803e3d6000fd5b505050506040513d601f19601f820116820180604052508101906119429190613486565b91505b505b73ffffffffffffffffffffffffffffffffffffffff811661155d576040517f08c379a00000000000000000000000000000000000000000000000000000000081526004016103439061402b565b73ffffffffffffffffffffffffffffffffffffffff811673eeeeeeeeeeeeeeeeeeeeeeeeeeeeeeeeeeeeeeee14919050565b60008183106119d5578161155a565b5090919050565b6000606073ffffffffffffffffffffffffffffffffffffffff8616301415611a30576040517f08c379a000000000000000000000000000000000000000000000000000000000815260040161034390614259565b611a39866127e4565b15611b0d576040517fdd62ed3e000000000000000000000000000000000000000000000000000000008152839073ffffffffffffffffffffffffffffffffffffffff88169063dd62ed3e90611a9490899030906004016139c6565b60206040518083038186803b158015611aac57600080fd5b505afa158015611ac0573d6000803e3d6000fd5b505050506040513d601f19601f82011682018060405250810190611ae491906137f6565b1015611b0d57611b068686868660405180602001604052806000815250612824565b5050611bde565b6040517f23b872dd00000000000000000000000000000000000000000000000000000000815273ffffffffffffffffffffffffffffffffffffffff8616600482015273ffffffffffffffffffffffffffffffffffffffff85166024820152836044820152600080606483600073ffffffffffffffffffffffffffffffffffffffff8c165af192503d806000602084013e60016020830151146020821015168115178416935083611bc7578082528192508060208301016040525b505081611bdb57611bdb8686868685612824565b50505b50505050565b60003481805b846060015151811461241b5784604001518210611c065761241b565b611c0e612ce5565b85606001518281518110611c1e57fe5b602002602001015190506000611c4e8260200151611c49868a6040015161156390919063ffffffff16565b6119c6565b82519091507fffffffff00000000000000000000000000000000000000000000000000000000167fa656186b000000000000000000000000000000000000000000000000000000001415611ede57611ca4612d04565b611cac612d58565b8360400151806020019051810190611cc49190613692565b915091504267ffffffffffffffff1682610100015167ffffffffffffffff1611611d4b576000611cfb611cf6846128ec565b612a23565b90507fd9ee00a67daf7d99c37893015dc900862c9a02650ef2d318697e502e5fb8bbe2818460800151856101000151604051611d3993929190613ab5565b60405180910390a15050505050612413565b886000015173ffffffffffffffffffffffffffffffffffffffff16826020015173ffffffffffffffffffffffffffffffffffffffff16148015611dc15750886020015173ffffffffffffffffffffffffffffffffffffffff16826000015173ffffffffffffffffffffffffffffffffffffffff16145b611df7576040517f08c379a000000000000000000000000000000000000000000000000000000000815260040161034390613db1565b3063a656186b8383611e0887612a75565b336040518563ffffffff1660e01b8152600401611e289493929190614370565b6040805180830381600087803b158015611e4157600080fd5b505af1925050508015611e8f575060408051601f3d9081017fffffffffffffffffffffffffffffffffffffffffffffffffffffffffffffffe0168201909252611e8c918101906137c8565b60015b611e9857611ed7565b611eb4886fffffffffffffffffffffffffffffffff8416612aa1565b9750611ed28a6fffffffffffffffffffffffffffffffff8316612aa1565b995050505b5050612410565b81517fffffffff00000000000000000000000000000000000000000000000000000000167fd64d051a00000000000000000000000000000000000000000000000000000000141561205857606060008360400151806020019051810190611f459190613213565b915091506002825110158015611f9e5750886000015173ffffffffffffffffffffffffffffffffffffffff1682600081518110611f7e57fe5b602002602001015173ffffffffffffffffffffffffffffffffffffffff16145b8015611ff05750886020015173ffffffffffffffffffffffffffffffffffffffff1682600184510381518110611fd057fe5b602002602001015173ffffffffffffffffffffffffffffffffffffffff16145b612026576040517f08c379a000000000000000000000000000000000000000000000000000000000815260040161034390614142565b6000612036838584600033610f54565b90506120428785612aa1565b965061204e8982612aa1565b9850505050612410565b81517fffffffff00000000000000000000000000000000000000000000000000000000167fe6f90561000000000000000000000000000000000000000000000000000000001415612131576000606083604001518060200190518101906120bf919061309c565b915091506120e6896000015173ffffffffffffffffffffffffffffffffffffffff16611994565b1561210b576120f583886119c6565b92506121018284611587565b8287039650612119565b8851612119903384866119dc565b60006120368a600001518b60200151868633876111ce565b81517fffffffff00000000000000000000000000000000000000000000000000000000167f6259719200000000000000000000000000000000000000000000000000000000141561231457612184612c6d565b338152875173ffffffffffffffffffffffffffffffffffffffff908116602080840191909152808a01519091166040808401919091526060830184905260006080840181905290850151805191926121e1928201810191016132e2565b60a084019190915290506121f581886119c6565b9050801561225657612220826020015173ffffffffffffffffffffffffffffffffffffffff16611994565b612256576040517f08c379a000000000000000000000000000000000000000000000000000000000815260040161034390613cf7565b6040517f625971920000000000000000000000000000000000000000000000000000000081523090636259719290839061229490869060040161444a565b6020604051808303818588803b1580156122ad57600080fd5b505af1935050505080156122fc575060408051601f3d9081017fffffffffffffffffffffffffffffffffffffffffffffffffffffffffffffffe01682019092526122f9918101906137f6565b60015b61230557611ed7565b96819003966120428785612aa1565b81517fffffffff00000000000000000000000000000000000000000000000000000000167fa82b9f3a0000000000000000000000000000000000000000000000000000000014156123de57612367612d81565b6000836040015180602001905181019061238191906130eb565b604085019190915290835260208301849052905061239f81886119c6565b905080870396506000806123b38484610456565b90925090506123c28886612aa1565b97506123ce8a83612aa1565b9950808901985050505050612410565b6040517f08c379a000000000000000000000000000000000000000000000000000000000815260040161034390613d54565b50505b600101611bea565b5050915091565b60008060008473ffffffffffffffffffffffffffffffffffffffff168673ffffffffffffffffffffffffffffffffffffffff1610612461578486612464565b85855b9150915083156125015773c0aee478e3658e2610c5f7a4a2e1777ce9e4f2ac82826040516020016124969291906138cf565b604051602081830303815290604052805190602001207fe18a34eb0e04b04f7a0ac29a6e80748dca96319b42c54d679cb821dca90c63036040516020016124df9392919061393f565b6040516020818303038152906040528051906020012060001c92505050612572565b735c69bee701ef814a2b6a3edd4b1652cb9cc5aa6f82826040516020016125299291906138cf565b604051602081830303815290604052805190602001207f96e8ac4277198ff8b6f785478aa9a39f403cb768dd02cbee326c3e7da348845f6040516020016124df9392919061393f565b9392505050565b60008082116125b4576040517f08c379a000000000000000000000000000000000000000000000000000000000815260040161034390613eee565b6000808673ffffffffffffffffffffffffffffffffffffffff16630902f1ac6040518163ffffffff1660e01b815260040160606040518083038186803b1580156125fd57600080fd5b505afa158015612611573d6000803e3d6000fd5b505050506040513d601f19601f82011682018060405250810190612635919061377c565b506dffffffffffffffffffffffffffff1691506dffffffffffffffffffffffffffff16915060008211801561266a5750600081115b6126a0576040517f08c379a000000000000000000000000000000000000000000000000000000000815260040161034390613e0e565b6000808673ffffffffffffffffffffffffffffffffffffffff168873ffffffffffffffffffffffffffffffffffffffff16106126dd5782846126e0565b83835b909250905060006126f3876103e5612abd565b905060006127018284612abd565b9050600061271b83612715876103e8612abd565b90612aa1565b905080828161272657fe5b049c9b505050505050505050505050565b606063e946c1bb60e01b84848460405160240161275693929190613bf2565b604080517fffffffffffffffffffffffffffffffffffffffffffffffffffffffffffffffe08184030181529190526020810180517bffffffffffffffffffffffffffffffffffffffffffffffffffffffff167fffffffff000000000000000000000000000000000000000000000000000000009093169290921790915290509392505050565b805160208201fd5b600081815260209020600160ff92831681901b929091161b177f000000000000000000000000000000000000000000000000000000000000000081161490565b6040517f89dd02e700000000000000000000000000000000000000000000000000000000815230906389dd02e790612866908890889088908890600401613b60565b600060405180830381600087803b15801561288057600080fd5b505af1925050508015612891575060015b6116bb573d8080156128bf576040519150601f19603f3d011682016040523d82523d6000602084013e6128c4565b606091505b506128e661157c878787878751600014156128df57866128e1565b875b612aee565b506116bb565b60006040517fe593d3fdfa8b60e5e17a1b2204662ecbe15c23f2084b9ad5bae40359540a7da98152825173ffffffffffffffffffffffffffffffffffffffff166020820152602083015173ffffffffffffffffffffffffffffffffffffffff16604082015260408301516fffffffffffffffffffffffffffffffff16606082015260608301516fffffffffffffffffffffffffffffffff166080820152608083015173ffffffffffffffffffffffffffffffffffffffff1660a082015260a083015173ffffffffffffffffffffffffffffffffffffffff1660c082015260c083015173ffffffffffffffffffffffffffffffffffffffff1660e082015260e083015161010082015261010083015167ffffffffffffffff166101208201526101208301516101408201526101608120915050919050565b60007f000000000000000000000000000000000000000000000000000000000000000082604051602001612a58929190613909565b604051602081830303815290604052805190602001209050919050565b60006fffffffffffffffffffffffffffffffff821115612a9d57612a9d61157c600384612bb3565b5090565b60008282018381101561155a5761155a61157c60008686612737565b600082612acc5750600061155d565b82820282848281612ad957fe5b041461155a5761155a61157c60018686612737565b60607fdfdc6f57cf82bede92bcfdd44fedb82b2d5cecabf56ec21964db6ee2c3e82cf48686868686604051602401612b2a9594939291906139ed565b604080517fffffffffffffffffffffffffffffffffffffffffffffffffffffffffffffffe08184030181529190526020810180517bffffffffffffffffffffffffffffffffffffffffffffffffffffffff167fffffffff000000000000000000000000000000000000000000000000000000009093169290921790915290505b95945050505050565b606063c996af7b60e01b8383604051602401612bd0929190613c13565b604080517fffffffffffffffffffffffffffffffffffffffffffffffffffffffffffffffe08184030181529190526020810180517bffffffffffffffffffffffffffffffffffffffffffffffffffffffff167fffffffff0000000000000000000000000000000000000000000000000000000090931692909217909152905092915050565b60408051808201909152600081526060602082015290565b6040518060c00160405280600073ffffffffffffffffffffffffffffffffffffffff168152602001600073ffffffffffffffffffffffffffffffffffffffff168152602001600073ffffffffffffffffffffffffffffffffffffffff1681526020016000815260200160008152602001606081525090565b6040805160608082018352600080835260208301529181019190915290565b6040805161014081018252600080825260208201819052918101829052606081018290526080810182905260a0810182905260c0810182905260e08101829052610100810182905261012081019190915290565b604080516080810190915280600081526000602082018190526040820181905260609091015290565b60405180606001604052806060815260200160008152602001606081525090565b805161155d81614654565b600082601f830112612dbd578081fd5b8135612dd0612dcb826145b9565b614592565b818152915060208083019084810181840286018201871015612df157600080fd5b60005b84811015612e19578135612e0781614654565b84529282019290820190600101612df4565b505050505092915050565b600082601f830112612e34578081fd5b8151612e42612dcb826145b9565b818152915060208083019084810181840286018201871015612e6357600080fd5b60005b84811015612e19578151612e7981614654565b84529282019290820190600101612e66565b600082601f830112612e9b578081fd5b8135612ea9612dcb826145b9565b818152915060208083019084810160005b84811015612e1957813587016060807fffffffffffffffffffffffffffffffffffffffffffffffffffffffffffffffe0838c03011215612ef957600080fd5b612f0281614592565b85830135612f0f81614684565b815260408381013587830152918301359167ffffffffffffffff831115612f3557600080fd5b612f438c8885870101612f66565b90820152865250509282019290820190600101612eba565b805161155d81614684565b600082601f830112612f76578081fd5b8135612f84612dcb826145d9565b9150808252836020828501011115612f9b57600080fd5b8060208401602084013760009082016020015292915050565b600082601f830112612fc4578081fd5b8151612fd2612dcb826145d9565b9150808252836020828501011115612fe957600080fd5b612ffa81602084016020860161461b565b5092915050565b600060808284031215613012578081fd5b61301c6080614592565b905081516004811061302d57600080fd5b8152602082015160ff8116811461304357600080fd5b80602083015250604082015160408201526060820151606082015292915050565b80516fffffffffffffffffffffffffffffffff8116811461155d57600080fd5b805167ffffffffffffffff8116811461155d57600080fd5b600080604083850312156130ae578182fd5b82516130b981614654565b602084015190925067ffffffffffffffff8111156130d5578182fd5b6130e185828601612fb4565b9150509250929050565b6000806000606084860312156130ff578081fd5b835167ffffffffffffffff80821115613116578283fd5b61312287838801612e24565b94506020860151915080821115613137578283fd5b818601915086601f83011261314a578283fd5b8151613158612dcb826145b9565b818152602080820191908501865b848110156131fb578151870160407fffffffffffffffffffffffffffffffffffffffffffffffffffffffffffffffe0828f030112156131a3578889fd5b6131ad6040614592565b6131ba8e60208401612f5b565b81526040820151888111156131cd578a8bfd5b6131dc8f602083860101612fb4565b6020838101919091529187525094850194929092019150600101613166565b50508096505050505050604084015190509250925092565b60008060408385031215613225578182fd5b825167ffffffffffffffff81111561323b578283fd5b61324785828601612e24565b925050602083015161325881614676565b809150509250929050565b600080600080600060a0868803121561327a578283fd5b853567ffffffffffffffff811115613290578384fd5b61329c88828901612dad565b9550506020860135935060408601356132b481614676565b925060608601356132c481614654565b915060808601356132d481614654565b809150509295509295909350565b600080604083850312156132f4578182fd5b825167ffffffffffffffff8082111561330b578384fd5b818501915085601f83011261331e578384fd5b815161332c612dcb826145b9565b81815260208082019190858101885b858110156133c8578151880160407fffffffffffffffffffffffffffffffffffffffffffffffffffffffffffffffe0828f03011215613378578a8bfd5b6133826040614592565b8482015161338f816146ec565b81526040820151898111156133a2578c8dfd5b6133b08f8783860101612fb4565b8287015250865250938201939082019060010161333b565b505097909701519698969750505050505050565b6000602082840312156133ed578081fd5b815161155a81614676565b60008060008060008060c08789031215613410578384fd5b863561341b81614654565b9550602087013561342b81614654565b945060408701359350606087013561344281614654565b9250608087013561345281614654565b915060a087013567ffffffffffffffff81111561346d578182fd5b61347989828a01612f66565b9150509295509295509295565b600060208284031215613497578081fd5b815161155a81614654565b600080604083850312156134b4578182fd5b823567ffffffffffffffff808211156134cb578384fd5b90840190608082870312156134de578384fd5b6134e86080614592565b82356134f381614654565b8152602083013561350381614654565b602082015260408381013590820152606083013582811115613523578586fd5b61352f88828601612e8b565b6060830152509660209590950135955050505050565b60008060408385031215613557578182fd5b67ffffffffffffffff808435111561356d578283fd5b8335840160608187031215613580578384fd5b61358a6060614592565b8282351115613597578485fd5b6135a48783358401612dad565b8152602080830135818301526040830135848111156135c1578687fd5b80840193505087601f8401126135d5578586fd5b6135e2612dcb84356145b9565b8335815281810190828501885b863581101561367d578135870160407fffffffffffffffffffffffffffffffffffffffffffffffffffffffffffffffe0828f0301121561362d578a8bfd5b6136376040614592565b8682013561364481614684565b815260408201358a811115613657578c8dfd5b6136658f8983860101612f66565b828901525085525092840192908401906001016135ef565b50506040840152509097950135955050505050565b6000808284036101c08112156136a6578283fd5b610140808212156136b5578384fd5b6136be81614592565b91506136ca8686612da2565b82526136d98660208701612da2565b60208301526136eb8660408701613064565b60408301526136fd8660608701613064565b606083015261370f8660808701612da2565b60808301526137218660a08701612da2565b60a08301526137338660c08701612da2565b60c083015260e085015160e083015261010061375187828801613084565b818401525061012080860151818401525081935061377186828701613001565b925050509250929050565b600080600060608486031215613790578081fd5b835161379b816146b2565b60208501519093506137ac816146b2565b60408501519092506137bd816146ec565b809150509250925092565b600080604083850312156137da578182fd5b82516137e5816146ce565b6020840151909250613258816146ce565b600060208284031215613807578081fd5b5051919050565b73ffffffffffffffffffffffffffffffffffffffff169052565b6000815180845261384081602086016020860161461b565b601f017fffffffffffffffffffffffffffffffffffffffffffffffffffffffffffffffe0169290920160200192915050565b805161387d81614647565b825260208181015160ff169083015260408082015190830152606090810151910152565b6fffffffffffffffffffffffffffffffff169052565b63ffffffff169052565b67ffffffffffffffff169052565b7fffffffffffffffffffffffffffffffffffffffff000000000000000000000000606093841b811682529190921b16601482015260280190565b7f190100000000000000000000000000000000000000000000000000000000000081526002810192909252602282015260420190565b7fff00000000000000000000000000000000000000000000000000000000000000815260609390931b7fffffffffffffffffffffffffffffffffffffffff0000000000000000000000001660018401526015830191909152603582015260550190565b90565b73ffffffffffffffffffffffffffffffffffffffff91909116815260200190565b73ffffffffffffffffffffffffffffffffffffffff92831681529116602082015260400190565b600073ffffffffffffffffffffffffffffffffffffffff8088168352808716602084015280861660408401525083606083015260a06080830152613a3460a0830184613828565b979650505050505050565b73ffffffffffffffffffffffffffffffffffffffff96871681529486166020860152604085019390935260608401919091528316608083015290911660a082015260c00190565b73ffffffffffffffffffffffffffffffffffffffff929092168252602082015260400190565b90815260200190565b92835273ffffffffffffffffffffffffffffffffffffffff91909116602083015267ffffffffffffffff16604082015260600190565b7fffffffff0000000000000000000000000000000000000000000000000000000091909116815260200190565b7fffffffff0000000000000000000000000000000000000000000000000000000092909216825273ffffffffffffffffffffffffffffffffffffffff16602082015260400190565b73ffffffffffffffffffffffffffffffffffffffff9485168152928416602084015292166040820152606081019190915260800190565b600073ffffffffffffffffffffffffffffffffffffffff80891683528088166020840152808716604084015280861660608401525083608083015260c060a0830152613be660c0830184613828565b98975050505050505050565b60608101613bff85614647565b938152602081019290925260409091015290565b60408101613c2084614647565b9281526020015290565b60006020825261155a6020830184613828565b6020808252602a908201527f4d756c7469706c6578466561747572653a3a6d756c7469486f7046696c6c2f5560408201527f4e444552424f5547485400000000000000000000000000000000000000000000606082015260800190565b60208082526032908201527f4d756c7469706c6578466561747572653a3a5f6d756c7469486f7046696c6c2f60408201527f4554485f5452414e53464f524d5f4f4e4c590000000000000000000000000000606082015260800190565b6020808252602f908201527f4d756c7469706c6578466561747572653a3a5f626174636846696c6c2f45544860408201527f5f5452414e53464f524d5f4f4e4c590000000000000000000000000000000000606082015260800190565b60208082526032908201527f4d756c7469706c6578466561747572653a3a5f626174636846696c6c2f554e5260408201527f45434f474e495a45445f53454c4543544f520000000000000000000000000000606082015260800190565b60208082526035908201527f4d756c7469706c6578466561747572653a3a5f626174636846696c6c2f52465160408201527f5f4f524445525f494e56414c49445f544f4b454e530000000000000000000000606082015260800190565b60208082526044908201527f4d756c7469706c6578466561747572653a3a5f636f6d70757465556e6973776160408201527f704f7574707574416d6f756e742f494e53554646494349454e545f4c4951554960608201527f4449545900000000000000000000000000000000000000000000000000000000608082015260a00190565b60208082526027908201527f4d756c7469706c6578466561747572653a3a626174636846696c6c2f554e444560408201527f52424f5547485400000000000000000000000000000000000000000000000000606082015260800190565b60208082526047908201527f4d756c7469706c6578466561747572653a3a5f636f6d70757465556e6973776160408201527f704f7574707574416d6f756e742f494e53554646494349454e545f494e50555460608201527f5f414d4f554e5400000000000000000000000000000000000000000000000000608082015260a00190565b60208082526035908201527f4d756c7469706c6578466561747572653a3a5f6d756c7469486f7046696c6c2f60408201527f554e5245434f474e495a45445f53454c4543544f520000000000000000000000606082015260800190565b6020808252602c908201527f4d756c7469706c6578466561747572653a3a6d756c7469486f7046696c6c2f4f60408201527f5645525350454e545f4554480000000000000000000000000000000000000000606082015260800190565b60208082526038908201527f4d756c7469706c6578466561747572653a3a5f636f6d70757465486f7052656360408201527f697069656e742f524543495049454e545f49535f4e554c4c0000000000000000606082015260800190565b60208082526038908201527f4d756c7469706c6578466561747572653a3a5f6d756c7469486f7046696c6c2f60408201527f4d49534d4154434845445f41525241595f4c454e475448530000000000000000606082015260800190565b6020808252602e908201527f4d756c7469706c6578466561747572653a3a5f7472616e736665724574682f5460408201527f52414e534645525f46414c494544000000000000000000000000000000000000606082015260800190565b60208082526033908201527f4d756c7469706c6578466561747572653a3a5f626174636846696c6c2f554e4960408201527f535741505f494e56414c49445f544f4b454e5300000000000000000000000000606082015260800190565b60208082526029908201527f4d756c7469706c6578466561747572653a3a626174636846696c6c2f4f56455260408201527f5350454e545f4554480000000000000000000000000000000000000000000000606082015260800190565b60208082526036908201527f4d756c7469706c6578466561747572653a3a5f6d756c7469486f7046696c6c2f60408201527f57495448445241575f4c4153545f484f505f4f4e4c5900000000000000000000606082015260800190565b60208082526024908201527f466978696e546f6b656e5370656e6465722f43414e4e4f545f494e564f4b455f60408201527f53454c4600000000000000000000000000000000000000000000000000000000606082015260800190565b60208082526034908201527f4d756c7469706c6578466561747572653a3a5f73656c6c546f556e697377617060408201527f2f496e76616c6964546f6b656e734c656e677468000000000000000000000000606082015260800190565b60208082526036908201527f4d756c7469706c6578466561747572653a3a5f6d756c7469486f7046696c6c2f60408201527f4445504f5349545f46495253545f484f505f4f4e4c5900000000000000000000606082015260800190565b60006102008201905061438482875161380e565b6020860151614396602084018261380e565b5060408601516143a960408401826138a1565b5060608601516143bc60608401826138a1565b5060808601516143cf608084018261380e565b5060a08601516143e260a084018261380e565b5060c08601516143f560c084018261380e565b5060e086015160e083015261010080870151614413828501826138c1565b5050610120868101519083015261442e610140830186613872565b61443c6101c08301856138a1565b612baa6101e083018461380e565b6000602080835260e0830173ffffffffffffffffffffffffffffffffffffffff808651168386015282860151604082821681880152828189015116606088015260608801516080880152608088015160a088015260a0880151925060c0808801528391508251808552610100945084880192508486820289010194508584019350865b81811015614531577fffffffffffffffffffffffffffffffffffffffffffffffffffffffffffffff0089870301845284516145098782516138b7565b87015186880184905261451e87850182613828565b96505093860193928601926001016144cd565b509398975050505050505050565b918252602082015260400190565b600085825284602083015273ffffffffffffffffffffffffffffffffffffffff84166040830152608060608301526145886080830184613828565b9695505050505050565b60405181810167ffffffffffffffff811182821017156145b157600080fd5b604052919050565b600067ffffffffffffffff8211156145cf578081fd5b5060209081020190565b600067ffffffffffffffff8211156145ef578081fd5b50601f017fffffffffffffffffffffffffffffffffffffffffffffffffffffffffffffffe01660200190565b60005b8381101561463657818101518382015260200161461e565b83811115611bde5750506000910152565b6004811061465157fe5b50565b73ffffffffffffffffffffffffffffffffffffffff8116811461465157600080fd5b801515811461465157600080fd5b7fffffffff000000000000000000000000000000000000000000000000000000008116811461465157600080fd5b6dffffffffffffffffffffffffffff8116811461465157600080fd5b6fffffffffffffffffffffffffffffffff8116811461465157600080fd5b63ffffffff8116811461465157600080fdfea26469706673582212207dc5443cec6e2afe593b266a1796a2bd97301941cf3ef55d598406de4e2a75e464736f6c634300060c0033",
                "opcodes": "PUSH2 0x140 PUSH1 0x40 MSTORE PUSH3 0x14 PUSH1 0x1 PUSH1 0x0 DUP1 PUSH3 0x112 JUMP JUMPDEST PUSH1 0xE0 MSTORE CALLVALUE DUP1 ISZERO PUSH3 0x24 JUMPI PUSH1 0x0 DUP1 REVERT JUMPDEST POP PUSH1 0x40 MLOAD PUSH3 0x498C CODESIZE SUB DUP1 PUSH3 0x498C DUP4 CODECOPY DUP2 ADD PUSH1 0x40 DUP2 SWAP1 MSTORE PUSH3 0x47 SWAP2 PUSH3 0x144 JUMP JUMPDEST ADDRESS PUSH1 0x60 SHL PUSH1 0x80 MSTORE PUSH1 0x40 MLOAD DUP2 SWAP1 DUP6 SWAP1 CHAINID SWAP1 PUSH3 0xCF SWAP1 PUSH32 0x8B73C3C69BB8FE3D512ECC4CF759CC79239F7B179B0FFACAA9A75D522B39400F SWAP1 PUSH32 0x9E5DAE0ADDAF20578AEB5D70341D092B53B4E14480AC5726438FD436DF7BA427 SWAP1 PUSH32 0x6C015BD22B4C69690933C1058878EBDFEF31F9AAAE40BBE86D8A09FE1B2972C SWAP1 DUP6 SWAP1 DUP8 SWAP1 PUSH1 0x20 ADD PUSH3 0x19D JUMP JUMPDEST PUSH1 0x40 DUP1 MLOAD PUSH1 0x1F NOT DUP2 DUP5 SUB ADD DUP2 MSTORE SWAP2 SWAP1 MSTORE DUP1 MLOAD PUSH1 0x20 SWAP1 SWAP2 ADD KECCAK256 PUSH1 0xA0 MSTORE POP POP PUSH1 0xC0 MSTORE POP PUSH1 0x1 PUSH1 0x1 PUSH1 0x60 SHL SUB NOT PUSH1 0x60 SWAP3 DUP4 SHL DUP2 AND PUSH2 0x100 MSTORE SWAP2 SHL AND PUSH2 0x120 MSTORE POP PUSH3 0x1E2 JUMP JUMPDEST PUSH12 0xFFFFFFFF0000000000000000 PUSH1 0x40 DUP5 SWAP1 SHL AND PUSH8 0xFFFFFFFF00000000 PUSH1 0x20 DUP5 SWAP1 SHL AND OR PUSH4 0xFFFFFFFF DUP3 AND OR SWAP4 SWAP3 POP POP POP JUMP JUMPDEST PUSH1 0x0 DUP1 PUSH1 0x0 DUP1 PUSH1 0x80 DUP6 DUP8 SUB SLT ISZERO PUSH3 0x15A JUMPI DUP4 DUP5 REVERT JUMPDEST DUP5 MLOAD PUSH3 0x167 DUP2 PUSH3 0x1C9 JUMP JUMPDEST PUSH1 0x20 DUP7 ADD MLOAD SWAP1 SWAP5 POP PUSH3 0x17A DUP2 PUSH3 0x1C9 JUMP JUMPDEST PUSH1 0x40 DUP7 ADD MLOAD SWAP1 SWAP4 POP PUSH3 0x18D DUP2 PUSH3 0x1C9 JUMP JUMPDEST PUSH1 0x60 SWAP6 SWAP1 SWAP6 ADD MLOAD SWAP4 SWAP7 SWAP3 SWAP6 POP POP POP JUMP JUMPDEST SWAP5 DUP6 MSTORE PUSH1 0x20 DUP6 ADD SWAP4 SWAP1 SWAP4 MSTORE PUSH1 0x40 DUP5 ADD SWAP2 SWAP1 SWAP2 MSTORE PUSH1 0x60 DUP4 ADD MSTORE PUSH1 0x1 PUSH1 0x1 PUSH1 0xA0 SHL SUB AND PUSH1 0x80 DUP3 ADD MSTORE PUSH1 0xA0 ADD SWAP1 JUMP JUMPDEST PUSH1 0x1 PUSH1 0x1 PUSH1 0xA0 SHL SUB DUP2 AND DUP2 EQ PUSH3 0x1DF JUMPI PUSH1 0x0 DUP1 REVERT JUMPDEST POP JUMP JUMPDEST PUSH1 0x80 MLOAD PUSH1 0x60 SHR PUSH1 0xA0 MLOAD PUSH1 0xC0 MLOAD PUSH1 0xE0 MLOAD PUSH2 0x100 MLOAD PUSH1 0x60 SHR PUSH2 0x120 MLOAD PUSH1 0x60 SHR PUSH2 0x4734 PUSH3 0x258 PUSH1 0x0 CODECOPY DUP1 PUSH2 0x236 MSTORE DUP1 PUSH2 0x1254 MSTORE DUP1 PUSH2 0x132A MSTORE DUP1 PUSH2 0x13A5 MSTORE POP DUP1 PUSH2 0xB66 MSTORE DUP1 PUSH2 0xC33 MSTORE DUP1 PUSH2 0xD8F MSTORE POP DUP1 PUSH2 0x212 MSTORE POP DUP1 PUSH2 0x1188 MSTORE DUP1 PUSH2 0x27FF MSTORE POP DUP1 PUSH2 0x11AC MSTORE DUP1 PUSH2 0x2A27 MSTORE POP DUP1 PUSH2 0x1665 MSTORE POP PUSH2 0x4734 PUSH1 0x0 RETURN INVALID PUSH1 0x80 PUSH1 0x40 MSTORE PUSH1 0x4 CALLDATASIZE LT PUSH2 0xBC JUMPI PUSH1 0x0 CALLDATALOAD PUSH1 0xE0 SHR DUP1 PUSH4 0xA82B9F3A GT PUSH2 0x74 JUMPI DUP1 PUSH4 0xD925A56D GT PUSH2 0x4E JUMPI DUP1 PUSH4 0xD925A56D EQ PUSH2 0x1C6 JUMPI DUP1 PUSH4 0xDAB400F3 EQ PUSH2 0x1DB JUMPI DUP1 PUSH4 0xE6F90561 EQ PUSH2 0x1F0 JUMPI PUSH2 0xBC JUMP JUMPDEST DUP1 PUSH4 0xA82B9F3A EQ PUSH2 0x165 JUMPI DUP1 PUSH4 0xAFC6728E EQ PUSH2 0x193 JUMPI DUP1 PUSH4 0xD64D051A EQ PUSH2 0x1A6 JUMPI PUSH2 0xBC JUMP JUMPDEST DUP1 PUSH4 0x21C184B6 GT PUSH2 0xA5 JUMPI DUP1 PUSH4 0x21C184B6 EQ PUSH2 0x10E JUMPI DUP1 PUSH4 0x6AE4B4F7 EQ PUSH2 0x121 JUMPI DUP1 PUSH4 0x8FD3AB80 EQ PUSH2 0x143 JUMPI PUSH2 0xBC JUMP JUMPDEST DUP1 PUSH4 0x31B905C EQ PUSH2 0xC1 JUMPI DUP1 PUSH4 0x1984916F EQ PUSH2 0xEC JUMPI JUMPDEST PUSH1 0x0 DUP1 REVERT JUMPDEST CALLVALUE DUP1 ISZERO PUSH2 0xCD JUMPI PUSH1 0x0 DUP1 REVERT JUMPDEST POP PUSH2 0xD6 PUSH2 0x210 JUMP JUMPDEST PUSH1 0x40 MLOAD PUSH2 0xE3 SWAP2 SWAP1 PUSH2 0x3AAC JUMP JUMPDEST PUSH1 0x40 MLOAD DUP1 SWAP2 SUB SWAP1 RETURN JUMPDEST CALLVALUE DUP1 ISZERO PUSH2 0xF8 JUMPI PUSH1 0x0 DUP1 REVERT JUMPDEST POP PUSH2 0x101 PUSH2 0x234 JUMP JUMPDEST PUSH1 0x40 MLOAD PUSH2 0xE3 SWAP2 SWAP1 PUSH2 0x39A5 JUMP JUMPDEST PUSH2 0xD6 PUSH2 0x11C CALLDATASIZE PUSH1 0x4 PUSH2 0x3545 JUMP JUMPDEST PUSH2 0x258 JUMP JUMPDEST CALLVALUE DUP1 ISZERO PUSH2 0x12D JUMPI PUSH1 0x0 DUP1 REVERT JUMPDEST POP PUSH2 0x136 PUSH2 0x3A4 JUMP JUMPDEST PUSH1 0x40 MLOAD PUSH2 0xE3 SWAP2 SWAP1 PUSH2 0x3C2A JUMP JUMPDEST CALLVALUE DUP1 ISZERO PUSH2 0x14F JUMPI PUSH1 0x0 DUP1 REVERT JUMPDEST POP PUSH2 0x158 PUSH2 0x3DD JUMP JUMPDEST PUSH1 0x40 MLOAD PUSH2 0xE3 SWAP2 SWAP1 PUSH2 0x3AEB JUMP JUMPDEST CALLVALUE DUP1 ISZERO PUSH2 0x171 JUMPI PUSH1 0x0 DUP1 REVERT JUMPDEST POP PUSH2 0x185 PUSH2 0x180 CALLDATASIZE PUSH1 0x4 PUSH2 0x3545 JUMP JUMPDEST PUSH2 0x456 JUMP JUMPDEST PUSH1 0x40 MLOAD PUSH2 0xE3 SWAP3 SWAP2 SWAP1 PUSH2 0x453F JUMP JUMPDEST PUSH2 0xD6 PUSH2 0x1A1 CALLDATASIZE PUSH1 0x4 PUSH2 0x34A2 JUMP JUMPDEST PUSH2 0xE4D JUMP JUMPDEST CALLVALUE DUP1 ISZERO PUSH2 0x1B2 JUMPI PUSH1 0x0 DUP1 REVERT JUMPDEST POP PUSH2 0xD6 PUSH2 0x1C1 CALLDATASIZE PUSH1 0x4 PUSH2 0x3263 JUMP JUMPDEST PUSH2 0xF54 JUMP JUMPDEST CALLVALUE DUP1 ISZERO PUSH2 0x1D2 JUMPI PUSH1 0x0 DUP1 REVERT JUMPDEST POP PUSH2 0xD6 PUSH2 0x1186 JUMP JUMPDEST CALLVALUE DUP1 ISZERO PUSH2 0x1E7 JUMPI PUSH1 0x0 DUP1 REVERT JUMPDEST POP PUSH2 0xD6 PUSH2 0x11AA JUMP JUMPDEST CALLVALUE DUP1 ISZERO PUSH2 0x1FC JUMPI PUSH1 0x0 DUP1 REVERT JUMPDEST POP PUSH2 0xD6 PUSH2 0x20B CALLDATASIZE PUSH1 0x4 PUSH2 0x33F8 JUMP JUMPDEST PUSH2 0x11CE JUMP JUMPDEST PUSH32 0x0 DUP2 JUMP JUMPDEST PUSH32 0x0 DUP2 JUMP JUMPDEST DUP2 MLOAD DUP1 MLOAD PUSH1 0x0 SWAP2 DUP3 SWAP2 PUSH32 0xFFFFFFFFFFFFFFFFFFFFFFFFFFFFFFFFFFFFFFFFFFFFFFFFFFFFFFFFFFFFFFFF DUP2 ADD SWAP1 DUP2 LT PUSH2 0x28D JUMPI INVALID JUMPDEST PUSH1 0x20 MUL PUSH1 0x20 ADD ADD MLOAD SWAP1 POP PUSH2 0x2C0 CALLER DUP3 PUSH20 0xFFFFFFFFFFFFFFFFFFFFFFFFFFFFFFFFFFFFFFFF AND PUSH2 0x148A SWAP1 SWAP2 SWAP1 PUSH4 0xFFFFFFFF AND JUMP JUMPDEST SWAP2 POP PUSH1 0x0 PUSH2 0x2CE SELFBALANCE CALLVALUE PUSH2 0x1563 JUMP JUMPDEST SWAP1 POP PUSH2 0x2DA DUP6 CALLVALUE PUSH2 0x456 JUMP JUMPDEST POP PUSH2 0x307 SWAP1 POP DUP4 PUSH2 0x301 PUSH20 0xFFFFFFFFFFFFFFFFFFFFFFFFFFFFFFFFFFFFFFFF DUP6 AND CALLER PUSH2 0x148A JUMP JUMPDEST SWAP1 PUSH2 0x1563 JUMP JUMPDEST SWAP3 POP DUP4 DUP4 LT ISZERO PUSH2 0x34C JUMPI PUSH1 0x40 MLOAD PUSH32 0x8C379A000000000000000000000000000000000000000000000000000000000 DUP2 MSTORE PUSH1 0x4 ADD PUSH2 0x343 SWAP1 PUSH2 0x3C3D JUMP JUMPDEST PUSH1 0x40 MLOAD DUP1 SWAP2 SUB SWAP1 REVERT JUMPDEST SELFBALANCE DUP2 DUP2 LT ISZERO PUSH2 0x387 JUMPI PUSH1 0x40 MLOAD PUSH32 0x8C379A000000000000000000000000000000000000000000000000000000000 DUP2 MSTORE PUSH1 0x4 ADD PUSH2 0x343 SWAP1 PUSH2 0x3FCE JUMP JUMPDEST DUP2 DUP2 GT ISZERO PUSH2 0x39B JUMPI PUSH2 0x39B CALLER DUP4 DUP4 SUB PUSH2 0x1587 JUMP JUMPDEST POP POP POP SWAP3 SWAP2 POP POP JUMP JUMPDEST PUSH1 0x40 MLOAD DUP1 PUSH1 0x40 ADD PUSH1 0x40 MSTORE DUP1 PUSH1 0x10 DUP2 MSTORE PUSH1 0x20 ADD PUSH32 0x4D756C7469706C65784665617475726500000000000000000000000000000000 DUP2 MSTORE POP DUP2 JUMP JUMPDEST PUSH1 0x0 PUSH2 0x408 PUSH32 0xAFC6728E00000000000000000000000000000000000000000000000000000000 PUSH2 0x162F JUMP JUMPDEST PUSH2 0x431 PUSH32 0x21C184B600000000000000000000000000000000000000000000000000000000 PUSH2 0x162F JUMP JUMPDEST POP PUSH32 0x2C64C5EF00000000000000000000000000000000000000000000000000000000 SWAP1 JUMP JUMPDEST PUSH1 0x0 DUP1 DUP4 PUSH1 0x40 ADD MLOAD MLOAD PUSH1 0x1 ADD DUP5 PUSH1 0x0 ADD MLOAD MLOAD EQ PUSH2 0x49F JUMPI PUSH1 0x40 MLOAD PUSH32 0x8C379A000000000000000000000000000000000000000000000000000000000 DUP2 MSTORE PUSH1 0x4 ADD PUSH2 0x343 SWAP1 PUSH2 0x4088 JUMP JUMPDEST POP POP PUSH1 0x20 DUP3 ADD MLOAD DUP2 PUSH1 0x0 DUP1 JUMPDEST DUP6 PUSH1 0x40 ADD MLOAD MLOAD DUP2 EQ PUSH2 0xE44 JUMPI PUSH2 0x4BF PUSH2 0x2C55 JUMP JUMPDEST DUP7 PUSH1 0x40 ADD MLOAD DUP3 DUP2 MLOAD DUP2 LT PUSH2 0x4CF JUMPI INVALID JUMPDEST PUSH1 0x20 SWAP1 DUP2 MUL SWAP2 SWAP1 SWAP2 ADD ADD MLOAD DUP1 MLOAD SWAP1 SWAP2 POP PUSH32 0xFFFFFFFF00000000000000000000000000000000000000000000000000000000 AND PUSH32 0xD64D051A00000000000000000000000000000000000000000000000000000000 EQ ISZERO PUSH2 0x599 JUMPI PUSH1 0x0 PUSH2 0x538 DUP9 PUSH1 0x40 ADD MLOAD DUP5 PUSH2 0x16C2 JUMP JUMPDEST SWAP1 POP PUSH1 0x60 PUSH1 0x0 DUP4 PUSH1 0x20 ADD MLOAD DUP1 PUSH1 0x20 ADD SWAP1 MLOAD DUP2 ADD SWAP1 PUSH2 0x556 SWAP2 SWAP1 PUSH2 0x3213 JUMP JUMPDEST SWAP2 POP SWAP2 POP PUSH2 0x567 DUP3 DUP10 DUP4 DUP10 DUP8 PUSH2 0xF54 JUMP JUMPDEST SWAP8 POP PUSH20 0xFFFFFFFFFFFFFFFFFFFFFFFFFFFFFFFFFFFFFFFF DUP4 AND CALLER EQ PUSH2 0x58C JUMPI DUP3 PUSH2 0x58F JUMP JUMPDEST PUSH1 0x0 JUMPDEST SWAP6 POP POP POP POP PUSH2 0xE3B JUMP JUMPDEST DUP1 MLOAD PUSH32 0xFFFFFFFF00000000000000000000000000000000000000000000000000000000 AND PUSH32 0xE6F9056100000000000000000000000000000000000000000000000000000000 EQ ISZERO PUSH2 0x785 JUMPI PUSH1 0x0 PUSH2 0x5F4 DUP9 PUSH1 0x40 ADD MLOAD DUP5 PUSH2 0x16C2 JUMP JUMPDEST SWAP1 POP PUSH20 0xFFFFFFFFFFFFFFFFFFFFFFFFFFFFFFFFFFFFFFFF DUP5 AND PUSH2 0x6F7 JUMPI PUSH1 0x0 PUSH1 0x60 DUP4 PUSH1 0x20 ADD MLOAD DUP1 PUSH1 0x20 ADD SWAP1 MLOAD DUP2 ADD SWAP1 PUSH2 0x62D SWAP2 SWAP1 PUSH2 0x309C JUMP JUMPDEST SWAP2 POP SWAP2 POP PUSH2 0x667 DUP11 PUSH1 0x0 ADD MLOAD DUP7 DUP2 MLOAD DUP2 LT PUSH2 0x644 JUMPI INVALID JUMPDEST PUSH1 0x20 MUL PUSH1 0x20 ADD ADD MLOAD PUSH20 0xFFFFFFFFFFFFFFFFFFFFFFFFFFFFFFFFFFFFFFFF AND PUSH2 0x1994 JUMP JUMPDEST ISZERO PUSH2 0x68C JUMPI PUSH2 0x676 DUP9 DUP9 PUSH2 0x19C6 JUMP JUMPDEST SWAP8 POP PUSH2 0x682 DUP3 DUP10 PUSH2 0x1587 JUMP JUMPDEST DUP8 DUP8 SUB SWAP7 POP PUSH2 0x6AF JUMP JUMPDEST PUSH2 0x6AF DUP11 PUSH1 0x0 ADD MLOAD DUP7 DUP2 MLOAD DUP2 LT PUSH2 0x69F JUMPI INVALID JUMPDEST PUSH1 0x20 MUL PUSH1 0x20 ADD ADD MLOAD CALLER DUP5 DUP12 PUSH2 0x19DC JUMP JUMPDEST PUSH2 0x6EE DUP11 PUSH1 0x0 ADD MLOAD DUP7 DUP2 MLOAD DUP2 LT PUSH2 0x6C2 JUMPI INVALID JUMPDEST PUSH1 0x20 MUL PUSH1 0x20 ADD ADD MLOAD DUP12 PUSH1 0x0 ADD MLOAD DUP8 PUSH1 0x1 ADD DUP2 MLOAD DUP2 LT PUSH2 0x6DD JUMPI INVALID JUMPDEST PUSH1 0x20 MUL PUSH1 0x20 ADD ADD MLOAD DUP11 DUP6 DUP8 DUP7 PUSH2 0x11CE JUMP JUMPDEST SWAP8 POP POP POP PUSH2 0x757 JUMP JUMPDEST PUSH1 0x60 DUP3 PUSH1 0x20 ADD MLOAD DUP1 PUSH1 0x20 ADD SWAP1 MLOAD DUP2 ADD SWAP1 PUSH2 0x711 SWAP2 SWAP1 PUSH2 0x309C JUMP JUMPDEST SWAP2 POP POP PUSH2 0x753 DUP10 PUSH1 0x0 ADD MLOAD DUP6 DUP2 MLOAD DUP2 LT PUSH2 0x727 JUMPI INVALID JUMPDEST PUSH1 0x20 MUL PUSH1 0x20 ADD ADD MLOAD DUP11 PUSH1 0x0 ADD MLOAD DUP7 PUSH1 0x1 ADD DUP2 MLOAD DUP2 LT PUSH2 0x742 JUMPI INVALID JUMPDEST PUSH1 0x20 MUL PUSH1 0x20 ADD ADD MLOAD DUP10 DUP9 DUP7 DUP7 PUSH2 0x11CE JUMP JUMPDEST SWAP7 POP POP JUMPDEST PUSH20 0xFFFFFFFFFFFFFFFFFFFFFFFFFFFFFFFFFFFFFFFF DUP2 AND CALLER EQ PUSH2 0x77A JUMPI DUP1 PUSH2 0x77D JUMP JUMPDEST PUSH1 0x0 JUMPDEST SWAP4 POP POP PUSH2 0xE3B JUMP JUMPDEST DUP1 MLOAD PUSH32 0xFFFFFFFF00000000000000000000000000000000000000000000000000000000 AND PUSH32 0x6259719200000000000000000000000000000000000000000000000000000000 EQ ISZERO PUSH2 0xAD3 JUMPI PUSH2 0x7D8 PUSH2 0x2C6D JUMP JUMPDEST DUP8 MLOAD DUP1 MLOAD DUP5 SWAP1 DUP2 LT PUSH2 0x7E6 JUMPI INVALID JUMPDEST PUSH1 0x20 SWAP1 DUP2 MUL SWAP2 SWAP1 SWAP2 ADD DUP2 ADD MLOAD PUSH20 0xFFFFFFFFFFFFFFFFFFFFFFFFFFFFFFFFFFFFFFFF AND SWAP1 DUP3 ADD MSTORE DUP8 MLOAD DUP1 MLOAD PUSH1 0x1 DUP6 ADD SWAP1 DUP2 LT PUSH2 0x81D JUMPI INVALID JUMPDEST PUSH1 0x20 SWAP1 DUP2 MUL SWAP2 SWAP1 SWAP2 ADD ADD MLOAD PUSH20 0xFFFFFFFFFFFFFFFFFFFFFFFFFFFFFFFFFFFFFFFF AND PUSH1 0x40 DUP1 DUP4 ADD SWAP2 SWAP1 SWAP2 MSTORE PUSH1 0x0 PUSH1 0x80 DUP4 ADD MSTORE DUP9 ADD MLOAD PUSH2 0x85B SWAP1 DUP5 PUSH2 0x16C2 JUMP JUMPDEST PUSH20 0xFFFFFFFFFFFFFFFFFFFFFFFFFFFFFFFFFFFFFFFF SWAP1 DUP2 AND DUP3 MSTORE DUP5 AND ISZERO PUSH2 0x888 JUMPI PUSH1 0x0 PUSH1 0x60 DUP3 ADD MSTORE PUSH2 0x97B JUMP JUMPDEST DUP1 MLOAD PUSH20 0xFFFFFFFFFFFFFFFFFFFFFFFFFFFFFFFFFFFFFFFF AND CALLER EQ DUP1 ISZERO SWAP1 PUSH2 0x8CF JUMPI POP PUSH2 0x8CD DUP2 PUSH1 0x20 ADD MLOAD PUSH20 0xFFFFFFFFFFFFFFFFFFFFFFFFFFFFFFFFFFFFFFFF AND PUSH2 0x1994 JUMP JUMPDEST ISZERO JUMPDEST ISZERO PUSH2 0x973 JUMPI PUSH1 0x0 ADDRESS PUSH20 0xFFFFFFFFFFFFFFFFFFFFFFFFFFFFFFFFFFFFFFFF AND PUSH4 0xF028E9BE PUSH1 0x40 MLOAD DUP2 PUSH4 0xFFFFFFFF AND PUSH1 0xE0 SHL DUP2 MSTORE PUSH1 0x4 ADD PUSH1 0x20 PUSH1 0x40 MLOAD DUP1 DUP4 SUB DUP2 DUP7 DUP1 EXTCODESIZE ISZERO DUP1 ISZERO PUSH2 0x91C JUMPI PUSH1 0x0 DUP1 REVERT JUMPDEST POP GAS STATICCALL ISZERO DUP1 ISZERO PUSH2 0x930 JUMPI RETURNDATASIZE PUSH1 0x0 DUP1 RETURNDATACOPY RETURNDATASIZE PUSH1 0x0 REVERT JUMPDEST POP POP POP POP PUSH1 0x40 MLOAD RETURNDATASIZE PUSH1 0x1F NOT PUSH1 0x1F DUP3 ADD AND DUP3 ADD DUP1 PUSH1 0x40 MSTORE POP DUP2 ADD SWAP1 PUSH2 0x954 SWAP2 SWAP1 PUSH2 0x3486 JUMP JUMPDEST SWAP1 POP PUSH2 0x966 DUP3 PUSH1 0x20 ADD MLOAD CALLER DUP4 DUP11 PUSH2 0x19DC JUMP JUMPDEST POP PUSH1 0x0 PUSH1 0x60 DUP3 ADD MSTORE PUSH2 0x97B JUMP JUMPDEST PUSH1 0x60 DUP2 ADD DUP7 SWAP1 MSTORE JUMPDEST PUSH1 0x0 DUP3 PUSH1 0x20 ADD MLOAD DUP1 PUSH1 0x20 ADD SWAP1 MLOAD DUP2 ADD SWAP1 PUSH2 0x995 SWAP2 SWAP1 PUSH2 0x32E2 JUMP JUMPDEST PUSH1 0xA0 DUP5 ADD SWAP2 SWAP1 SWAP2 MSTORE SWAP1 POP PUSH2 0x9A9 DUP2 DUP8 PUSH2 0x19C6 JUMP JUMPDEST SWAP1 POP DUP1 ISZERO PUSH2 0xA0A JUMPI PUSH2 0x9D4 DUP3 PUSH1 0x20 ADD MLOAD PUSH20 0xFFFFFFFFFFFFFFFFFFFFFFFFFFFFFFFFFFFFFFFF AND PUSH2 0x1994 JUMP JUMPDEST PUSH2 0xA0A JUMPI PUSH1 0x40 MLOAD PUSH32 0x8C379A000000000000000000000000000000000000000000000000000000000 DUP2 MSTORE PUSH1 0x4 ADD PUSH2 0x343 SWAP1 PUSH2 0x3C9A JUMP JUMPDEST PUSH1 0x40 MLOAD PUSH32 0x6259719200000000000000000000000000000000000000000000000000000000 DUP2 MSTORE ADDRESS SWAP1 PUSH4 0x62597192 SWAP1 DUP4 SWAP1 PUSH2 0xA48 SWAP1 DUP7 SWAP1 PUSH1 0x4 ADD PUSH2 0x444A JUMP JUMPDEST PUSH1 0x20 PUSH1 0x40 MLOAD DUP1 DUP4 SUB DUP2 DUP6 DUP9 DUP1 EXTCODESIZE ISZERO DUP1 ISZERO PUSH2 0xA61 JUMPI PUSH1 0x0 DUP1 REVERT JUMPDEST POP GAS CALL ISZERO DUP1 ISZERO PUSH2 0xA75 JUMPI RETURNDATASIZE PUSH1 0x0 DUP1 RETURNDATACOPY RETURNDATASIZE PUSH1 0x0 REVERT JUMPDEST POP POP POP POP POP PUSH1 0x40 MLOAD RETURNDATASIZE PUSH1 0x1F NOT PUSH1 0x1F DUP3 ADD AND DUP3 ADD DUP1 PUSH1 0x40 MSTORE POP DUP2 ADD SWAP1 PUSH2 0xA9A SWAP2 SWAP1 PUSH2 0x37F6 JUMP JUMPDEST DUP3 MLOAD SWAP1 SWAP8 POP SWAP6 DUP2 SWAP1 SUB SWAP6 PUSH20 0xFFFFFFFFFFFFFFFFFFFFFFFFFFFFFFFFFFFFFFFF AND CALLER EQ PUSH2 0xAC7 JUMPI DUP2 MLOAD PUSH2 0xACA JUMP JUMPDEST PUSH1 0x0 JUMPDEST SWAP5 POP POP POP PUSH2 0xE3B JUMP JUMPDEST DUP1 MLOAD PUSH32 0xFFFFFFFF00000000000000000000000000000000000000000000000000000000 AND PUSH32 0xD0E30DB000000000000000000000000000000000000000000000000000000000 EQ ISZERO PUSH2 0xCC6 JUMPI DUP2 ISZERO PUSH2 0xB56 JUMPI PUSH1 0x40 MLOAD PUSH32 0x8C379A000000000000000000000000000000000000000000000000000000000 DUP2 MSTORE PUSH1 0x4 ADD PUSH2 0x343 SWAP1 PUSH2 0x4313 JUMP JUMPDEST PUSH1 0x0 PUSH2 0xB62 DUP7 DUP7 PUSH2 0x19C6 JUMP JUMPDEST SWAP1 POP PUSH32 0x0 PUSH20 0xFFFFFFFFFFFFFFFFFFFFFFFFFFFFFFFFFFFFFFFF AND PUSH4 0xD0E30DB0 DUP3 PUSH1 0x40 MLOAD DUP3 PUSH4 0xFFFFFFFF AND PUSH1 0xE0 SHL DUP2 MSTORE PUSH1 0x4 ADD PUSH1 0x0 PUSH1 0x40 MLOAD DUP1 DUP4 SUB DUP2 DUP6 DUP9 DUP1 EXTCODESIZE ISZERO DUP1 ISZERO PUSH2 0xBCC JUMPI PUSH1 0x0 DUP1 REVERT JUMPDEST POP GAS CALL ISZERO DUP1 ISZERO PUSH2 0xBE0 JUMPI RETURNDATASIZE PUSH1 0x0 DUP1 RETURNDATACOPY RETURNDATASIZE PUSH1 0x0 REVERT JUMPDEST POP POP POP POP POP PUSH2 0xBF3 DUP9 PUSH1 0x40 ADD MLOAD DUP5 PUSH2 0x16C2 JUMP JUMPDEST PUSH1 0x40 MLOAD PUSH32 0xA9059CBB00000000000000000000000000000000000000000000000000000000 DUP2 MSTORE SWAP1 SWAP5 POP PUSH20 0xFFFFFFFFFFFFFFFFFFFFFFFFFFFFFFFFFFFFFFFF PUSH32 0x0 AND SWAP1 PUSH4 0xA9059CBB SWAP1 PUSH2 0xC6A SWAP1 DUP8 SWAP1 DUP6 SWAP1 PUSH1 0x4 ADD PUSH2 0x3A86 JUMP JUMPDEST PUSH1 0x20 PUSH1 0x40 MLOAD DUP1 DUP4 SUB DUP2 PUSH1 0x0 DUP8 DUP1 EXTCODESIZE ISZERO DUP1 ISZERO PUSH2 0xC84 JUMPI PUSH1 0x0 DUP1 REVERT JUMPDEST POP GAS CALL ISZERO DUP1 ISZERO PUSH2 0xC98 JUMPI RETURNDATASIZE PUSH1 0x0 DUP1 RETURNDATACOPY RETURNDATASIZE PUSH1 0x0 REVERT JUMPDEST POP POP POP POP PUSH1 0x40 MLOAD RETURNDATASIZE PUSH1 0x1F NOT PUSH1 0x1F DUP3 ADD AND DUP3 ADD DUP1 PUSH1 0x40 MSTORE POP DUP2 ADD SWAP1 PUSH2 0xCBC SWAP2 SWAP1 PUSH2 0x33DC JUMP JUMPDEST POP SWAP1 SWAP4 SUB SWAP3 PUSH2 0xE3B JUMP JUMPDEST DUP1 MLOAD PUSH32 0xFFFFFFFF00000000000000000000000000000000000000000000000000000000 AND PUSH32 0x2E1A7D4D00000000000000000000000000000000000000000000000000000000 EQ ISZERO PUSH2 0xE09 JUMPI PUSH1 0x1 DUP8 PUSH1 0x40 ADD MLOAD MLOAD SUB DUP3 EQ PUSH2 0xD52 JUMPI PUSH1 0x40 MLOAD PUSH32 0x8C379A000000000000000000000000000000000000000000000000000000000 DUP2 MSTORE PUSH1 0x4 ADD PUSH2 0x343 SWAP1 PUSH2 0x41FC JUMP JUMPDEST PUSH1 0x40 MLOAD PUSH32 0x2E1A7D4D00000000000000000000000000000000000000000000000000000000 DUP2 MSTORE PUSH20 0xFFFFFFFFFFFFFFFFFFFFFFFFFFFFFFFFFFFFFFFF PUSH32 0x0 AND SWAP1 PUSH4 0x2E1A7D4D SWAP1 PUSH2 0xDC4 SWAP1 DUP9 SWAP1 PUSH1 0x4 ADD PUSH2 0x3AAC JUMP JUMPDEST PUSH1 0x0 PUSH1 0x40 MLOAD DUP1 DUP4 SUB DUP2 PUSH1 0x0 DUP8 DUP1 EXTCODESIZE ISZERO DUP1 ISZERO PUSH2 0xDDE JUMPI PUSH1 0x0 DUP1 REVERT JUMPDEST POP GAS CALL ISZERO DUP1 ISZERO PUSH2 0xDF2 JUMPI RETURNDATASIZE PUSH1 0x0 DUP1 RETURNDATACOPY RETURNDATASIZE PUSH1 0x0 REVERT JUMPDEST POP POP POP POP PUSH2 0xE00 CALLER DUP7 PUSH2 0x1587 JUMP JUMPDEST PUSH1 0x0 SWAP3 POP PUSH2 0xE3B JUMP JUMPDEST PUSH1 0x40 MLOAD PUSH32 0x8C379A000000000000000000000000000000000000000000000000000000000 DUP2 MSTORE PUSH1 0x4 ADD PUSH2 0x343 SWAP1 PUSH2 0x3F71 JUMP JUMPDEST POP PUSH1 0x1 ADD PUSH2 0x4AB JUMP JUMPDEST POP POP SWAP3 POP SWAP3 SWAP1 POP JUMP JUMPDEST PUSH1 0x20 DUP3 ADD MLOAD PUSH1 0x0 SWAP1 PUSH2 0xE75 SWAP1 PUSH20 0xFFFFFFFFFFFFFFFFFFFFFFFFFFFFFFFFFFFFFFFF AND CALLER PUSH2 0x148A JUMP JUMPDEST SWAP1 POP PUSH1 0x0 PUSH2 0xE83 SELFBALANCE CALLVALUE PUSH2 0x1563 JUMP JUMPDEST SWAP1 POP PUSH2 0xE8E DUP5 PUSH2 0x1BE4 JUMP JUMPDEST POP POP PUSH2 0xEC1 DUP3 PUSH2 0x301 CALLER DUP8 PUSH1 0x20 ADD MLOAD PUSH20 0xFFFFFFFFFFFFFFFFFFFFFFFFFFFFFFFFFFFFFFFF AND PUSH2 0x148A SWAP1 SWAP2 SWAP1 PUSH4 0xFFFFFFFF AND JUMP JUMPDEST SWAP2 POP DUP3 DUP3 LT ISZERO PUSH2 0xEFD JUMPI PUSH1 0x40 MLOAD PUSH32 0x8C379A000000000000000000000000000000000000000000000000000000000 DUP2 MSTORE PUSH1 0x4 ADD PUSH2 0x343 SWAP1 PUSH2 0x3E91 JUMP JUMPDEST SELFBALANCE DUP2 DUP2 LT ISZERO PUSH2 0xF38 JUMPI PUSH1 0x40 MLOAD PUSH32 0x8C379A000000000000000000000000000000000000000000000000000000000 DUP2 MSTORE PUSH1 0x4 ADD PUSH2 0x343 SWAP1 PUSH2 0x419F JUMP JUMPDEST DUP2 DUP2 GT ISZERO PUSH2 0xF4C JUMPI PUSH2 0xF4C CALLER DUP4 DUP4 SUB PUSH2 0x1587 JUMP JUMPDEST POP POP SWAP3 SWAP2 POP POP JUMP JUMPDEST PUSH1 0x0 PUSH1 0x1 DUP7 MLOAD GT PUSH2 0xF91 JUMPI PUSH1 0x40 MLOAD PUSH32 0x8C379A000000000000000000000000000000000000000000000000000000000 DUP2 MSTORE PUSH1 0x4 ADD PUSH2 0x343 SWAP1 PUSH2 0x42B6 JUMP JUMPDEST PUSH20 0xFFFFFFFFFFFFFFFFFFFFFFFFFFFFFFFFFFFFFFFF DUP4 AND PUSH2 0x1001 JUMPI PUSH2 0xFDF DUP7 PUSH1 0x0 DUP2 MLOAD DUP2 LT PUSH2 0xFBC JUMPI INVALID JUMPDEST PUSH1 0x20 MUL PUSH1 0x20 ADD ADD MLOAD DUP8 PUSH1 0x1 DUP2 MLOAD DUP2 LT PUSH2 0xFD1 JUMPI INVALID JUMPDEST PUSH1 0x20 MUL PUSH1 0x20 ADD ADD MLOAD DUP7 PUSH2 0x2422 JUMP JUMPDEST SWAP3 POP PUSH2 0x1001 DUP7 PUSH1 0x0 DUP2 MLOAD DUP2 LT PUSH2 0xFF1 JUMPI INVALID JUMPDEST PUSH1 0x20 MUL PUSH1 0x20 ADD ADD MLOAD CALLER DUP6 DUP9 PUSH2 0x19DC JUMP JUMPDEST PUSH1 0x0 JUMPDEST PUSH1 0x1 DUP8 MLOAD SUB DUP2 LT ISZERO PUSH2 0x117C JUMPI PUSH1 0x0 DUP1 DUP9 DUP4 DUP2 MLOAD DUP2 LT PUSH2 0x101F JUMPI INVALID JUMPDEST PUSH1 0x20 MUL PUSH1 0x20 ADD ADD MLOAD DUP10 DUP5 PUSH1 0x1 ADD DUP2 MLOAD DUP2 LT PUSH2 0x1036 JUMPI INVALID JUMPDEST PUSH1 0x20 MUL PUSH1 0x20 ADD ADD MLOAD SWAP2 POP SWAP2 POP PUSH2 0x104E DUP7 DUP4 DUP4 DUP12 PUSH2 0x2579 JUMP JUMPDEST SWAP4 POP PUSH1 0x0 DUP1 DUP3 PUSH20 0xFFFFFFFFFFFFFFFFFFFFFFFFFFFFFFFFFFFFFFFF AND DUP5 PUSH20 0xFFFFFFFFFFFFFFFFFFFFFFFFFFFFFFFFFFFFFFFF AND LT PUSH2 0x108E JUMPI DUP6 PUSH1 0x0 PUSH2 0x1092 JUMP JUMPDEST PUSH1 0x0 DUP7 JUMPDEST SWAP2 POP SWAP2 POP PUSH1 0x0 PUSH1 0x2 DUP13 MLOAD SUB DUP7 LT PUSH2 0x10A9 JUMPI DUP8 PUSH2 0x10CA JUMP JUMPDEST PUSH2 0x10CA DUP5 DUP14 DUP9 PUSH1 0x2 ADD DUP2 MLOAD DUP2 LT PUSH2 0x10BC JUMPI INVALID JUMPDEST PUSH1 0x20 MUL PUSH1 0x20 ADD ADD MLOAD DUP13 PUSH2 0x2422 JUMP JUMPDEST PUSH1 0x40 DUP1 MLOAD PUSH1 0x0 DUP2 MSTORE PUSH1 0x20 DUP2 ADD SWAP2 DUP3 SWAP1 MSTORE PUSH32 0x22C0D9F00000000000000000000000000000000000000000000000000000000 SWAP1 SWAP2 MSTORE SWAP1 SWAP2 POP PUSH20 0xFFFFFFFFFFFFFFFFFFFFFFFFFFFFFFFFFFFFFFFF DUP11 AND SWAP1 PUSH4 0x22C0D9F SWAP1 PUSH2 0x1132 SWAP1 DUP7 SWAP1 DUP7 SWAP1 DUP7 SWAP1 PUSH1 0x24 DUP2 ADD PUSH2 0x454D JUMP JUMPDEST PUSH1 0x0 PUSH1 0x40 MLOAD DUP1 DUP4 SUB DUP2 PUSH1 0x0 DUP8 DUP1 EXTCODESIZE ISZERO DUP1 ISZERO PUSH2 0x114C JUMPI PUSH1 0x0 DUP1 REVERT JUMPDEST POP GAS CALL ISZERO DUP1 ISZERO PUSH2 0x1160 JUMPI RETURNDATASIZE PUSH1 0x0 DUP1 RETURNDATACOPY RETURNDATASIZE PUSH1 0x0 REVERT JUMPDEST POP POP POP POP DUP1 SWAP9 POP DUP7 SWAP11 POP POP POP POP POP POP DUP1 DUP1 PUSH1 0x1 ADD SWAP2 POP POP PUSH2 0x1004 JUMP JUMPDEST POP SWAP6 SWAP5 POP POP POP POP POP JUMP JUMPDEST PUSH32 0x0 DUP2 JUMP JUMPDEST PUSH32 0x0 DUP2 JUMP JUMPDEST PUSH1 0x0 DUP1 PUSH2 0x11F1 PUSH20 0xFFFFFFFFFFFFFFFFFFFFFFFFFFFFFFFFFFFFFFFF DUP9 AND DUP6 PUSH2 0x148A JUMP JUMPDEST SWAP1 POP PUSH2 0x1212 DUP9 PUSH20 0xFFFFFFFFFFFFFFFFFFFFFFFFFFFFFFFFFFFFFFFF AND PUSH2 0x1994 JUMP JUMPDEST ISZERO PUSH2 0x12C9 JUMPI PUSH1 0x40 MLOAD PUSH32 0x6F025EE600000000000000000000000000000000000000000000000000000000 DUP2 MSTORE PUSH20 0xFFFFFFFFFFFFFFFFFFFFFFFFFFFFFFFFFFFFFFFF PUSH32 0x0 AND SWAP1 PUSH4 0x6F025EE6 SWAP1 PUSH2 0x1292 SWAP1 DUP9 SWAP1 DUP12 SWAP1 DUP10 SWAP1 PUSH1 0x0 SWAP1 DUP11 SWAP1 PUSH1 0x4 ADD PUSH2 0x39ED JUMP JUMPDEST PUSH1 0x0 PUSH1 0x40 MLOAD DUP1 DUP4 SUB DUP2 PUSH1 0x0 DUP8 DUP1 EXTCODESIZE ISZERO DUP1 ISZERO PUSH2 0x12AC JUMPI PUSH1 0x0 DUP1 REVERT JUMPDEST POP GAS CALL ISZERO DUP1 ISZERO PUSH2 0x12C0 JUMPI RETURNDATASIZE PUSH1 0x0 DUP1 RETURNDATACOPY RETURNDATASIZE PUSH1 0x0 REVERT JUMPDEST POP POP POP POP PUSH2 0x1418 JUMP JUMPDEST PUSH2 0x12E8 DUP8 PUSH20 0xFFFFFFFFFFFFFFFFFFFFFFFFFFFFFFFFFFFFFFFF AND PUSH2 0x1994 JUMP JUMPDEST ISZERO PUSH2 0x1368 JUMPI PUSH1 0x40 MLOAD PUSH32 0x1454913700000000000000000000000000000000000000000000000000000000 DUP2 MSTORE PUSH20 0xFFFFFFFFFFFFFFFFFFFFFFFFFFFFFFFFFFFFFFFF PUSH32 0x0 AND SWAP1 PUSH4 0x14549137 SWAP1 PUSH2 0x1292 SWAP1 DUP9 SWAP1 DUP13 SWAP1 DUP10 SWAP1 PUSH1 0x0 SWAP1 DUP11 SWAP1 PUSH1 0x4 ADD PUSH2 0x39ED JUMP JUMPDEST PUSH1 0x40 MLOAD PUSH32 0xBB503E2100000000000000000000000000000000000000000000000000000000 DUP2 MSTORE PUSH20 0xFFFFFFFFFFFFFFFFFFFFFFFFFFFFFFFFFFFFFFFF PUSH32 0x0 AND SWAP1 PUSH4 0xBB503E21 SWAP1 PUSH2 0x13E5 SWAP1 DUP9 SWAP1 DUP13 SWAP1 DUP13 SWAP1 DUP11 SWAP1 PUSH1 0x0 SWAP1 DUP12 SWAP1 PUSH1 0x4 ADD PUSH2 0x3B97 JUMP JUMPDEST PUSH1 0x0 PUSH1 0x40 MLOAD DUP1 DUP4 SUB DUP2 PUSH1 0x0 DUP8 DUP1 EXTCODESIZE ISZERO DUP1 ISZERO PUSH2 0x13FF JUMPI PUSH1 0x0 DUP1 REVERT JUMPDEST POP GAS CALL ISZERO DUP1 ISZERO PUSH2 0x1413 JUMPI RETURNDATASIZE PUSH1 0x0 DUP1 RETURNDATACOPY RETURNDATASIZE PUSH1 0x0 REVERT JUMPDEST POP POP POP POP JUMPDEST PUSH2 0x143C DUP2 PUSH2 0x301 PUSH20 0xFFFFFFFFFFFFFFFFFFFFFFFFFFFFFFFFFFFFFFFF DUP11 AND DUP8 PUSH2 0x148A JUMP JUMPDEST SWAP2 POP PUSH32 0x40A6BA9513D09E3488135E0E0D10E2D4382B792720155B144CBEA89AC9DB6D34 DUP9 DUP9 DUP9 DUP6 DUP10 DUP10 PUSH1 0x40 MLOAD PUSH2 0x1477 SWAP7 SWAP6 SWAP5 SWAP4 SWAP3 SWAP2 SWAP1 PUSH2 0x3A3F JUMP JUMPDEST PUSH1 0x40 MLOAD DUP1 SWAP2 SUB SWAP1 LOG1 POP SWAP7 SWAP6 POP POP POP POP POP POP JUMP JUMPDEST PUSH1 0x0 PUSH2 0x1495 DUP4 PUSH2 0x1994 JUMP JUMPDEST ISZERO PUSH2 0x14B8 JUMPI POP PUSH20 0xFFFFFFFFFFFFFFFFFFFFFFFFFFFFFFFFFFFFFFFF DUP2 AND BALANCE PUSH2 0x155D JUMP JUMPDEST PUSH1 0x40 MLOAD PUSH32 0x70A0823100000000000000000000000000000000000000000000000000000000 DUP2 MSTORE PUSH20 0xFFFFFFFFFFFFFFFFFFFFFFFFFFFFFFFFFFFFFFFF DUP5 AND SWAP1 PUSH4 0x70A08231 SWAP1 PUSH2 0x150A SWAP1 DUP6 SWAP1 PUSH1 0x4 ADD PUSH2 0x39A5 JUMP JUMPDEST PUSH1 0x20 PUSH1 0x40 MLOAD DUP1 DUP4 SUB DUP2 DUP7 DUP1 EXTCODESIZE ISZERO DUP1 ISZERO PUSH2 0x1522 JUMPI PUSH1 0x0 DUP1 REVERT JUMPDEST POP GAS STATICCALL ISZERO DUP1 ISZERO PUSH2 0x1536 JUMPI RETURNDATASIZE PUSH1 0x0 DUP1 RETURNDATACOPY RETURNDATASIZE PUSH1 0x0 REVERT JUMPDEST POP POP POP POP PUSH1 0x40 MLOAD RETURNDATASIZE PUSH1 0x1F NOT PUSH1 0x1F DUP3 ADD AND DUP3 ADD DUP1 PUSH1 0x40 MSTORE POP DUP2 ADD SWAP1 PUSH2 0x155A SWAP2 SWAP1 PUSH2 0x37F6 JUMP JUMPDEST SWAP1 POP JUMPDEST SWAP3 SWAP2 POP POP JUMP JUMPDEST PUSH1 0x0 DUP3 DUP3 GT ISZERO PUSH2 0x1581 JUMPI PUSH2 0x1581 PUSH2 0x157C PUSH1 0x2 DUP6 DUP6 PUSH2 0x2737 JUMP JUMPDEST PUSH2 0x27DC JUMP JUMPDEST POP SWAP1 SUB SWAP1 JUMP JUMPDEST PUSH1 0x0 DUP3 PUSH20 0xFFFFFFFFFFFFFFFFFFFFFFFFFFFFFFFFFFFFFFFF AND DUP3 PUSH1 0x40 MLOAD PUSH2 0x15AD SWAP1 PUSH2 0x39A2 JUMP JUMPDEST PUSH1 0x0 PUSH1 0x40 MLOAD DUP1 DUP4 SUB DUP2 DUP6 DUP8 GAS CALL SWAP3 POP POP POP RETURNDATASIZE DUP1 PUSH1 0x0 DUP2 EQ PUSH2 0x15EA JUMPI PUSH1 0x40 MLOAD SWAP2 POP PUSH1 0x1F NOT PUSH1 0x3F RETURNDATASIZE ADD AND DUP3 ADD PUSH1 0x40 MSTORE RETURNDATASIZE DUP3 MSTORE RETURNDATASIZE PUSH1 0x0 PUSH1 0x20 DUP5 ADD RETURNDATACOPY PUSH2 0x15EF JUMP JUMPDEST PUSH1 0x60 SWAP2 POP JUMPDEST POP POP SWAP1 POP DUP1 PUSH2 0x162A JUMPI PUSH1 0x40 MLOAD PUSH32 0x8C379A000000000000000000000000000000000000000000000000000000000 DUP2 MSTORE PUSH1 0x4 ADD PUSH2 0x343 SWAP1 PUSH2 0x40E5 JUMP JUMPDEST POP POP POP JUMP JUMPDEST PUSH1 0x40 MLOAD PUSH32 0x6EB224CB00000000000000000000000000000000000000000000000000000000 DUP2 MSTORE ADDRESS SWAP1 PUSH4 0x6EB224CB SWAP1 PUSH2 0x168D SWAP1 DUP5 SWAP1 PUSH32 0x0 SWAP1 PUSH1 0x4 ADD PUSH2 0x3B18 JUMP JUMPDEST PUSH1 0x0 PUSH1 0x40 MLOAD DUP1 DUP4 SUB DUP2 PUSH1 0x0 DUP8 DUP1 EXTCODESIZE ISZERO DUP1 ISZERO PUSH2 0x16A7 JUMPI PUSH1 0x0 DUP1 REVERT JUMPDEST POP GAS CALL ISZERO DUP1 ISZERO PUSH2 0x16BB JUMPI RETURNDATASIZE PUSH1 0x0 DUP1 RETURNDATACOPY RETURNDATASIZE PUSH1 0x0 REVERT JUMPDEST POP POP POP POP POP JUMP JUMPDEST DUP2 MLOAD CALLER SWAP1 PUSH32 0xFFFFFFFFFFFFFFFFFFFFFFFFFFFFFFFFFFFFFFFFFFFFFFFFFFFFFFFFFFFFFFFF ADD DUP3 LT ISZERO PUSH2 0x1947 JUMPI PUSH2 0x16F7 PUSH2 0x2C55 JUMP JUMPDEST DUP4 DUP4 PUSH1 0x1 ADD DUP2 MLOAD DUP2 LT PUSH2 0x1706 JUMPI INVALID JUMPDEST PUSH1 0x20 SWAP1 DUP2 MUL SWAP2 SWAP1 SWAP2 ADD ADD MLOAD DUP1 MLOAD SWAP1 SWAP2 POP PUSH32 0xFFFFFFFF00000000000000000000000000000000000000000000000000000000 AND PUSH32 0xD64D051A00000000000000000000000000000000000000000000000000000000 EQ ISZERO PUSH2 0x17BB JUMPI PUSH1 0x60 PUSH1 0x0 DUP3 PUSH1 0x20 ADD MLOAD DUP1 PUSH1 0x20 ADD SWAP1 MLOAD DUP2 ADD SWAP1 PUSH2 0x177B SWAP2 SWAP1 PUSH2 0x3213 JUMP JUMPDEST SWAP2 POP SWAP2 POP PUSH2 0x17B2 DUP3 PUSH1 0x0 DUP2 MLOAD DUP2 LT PUSH2 0x178F JUMPI INVALID JUMPDEST PUSH1 0x20 MUL PUSH1 0x20 ADD ADD MLOAD DUP4 PUSH1 0x1 DUP2 MLOAD DUP2 LT PUSH2 0x17A4 JUMPI INVALID JUMPDEST PUSH1 0x20 MUL PUSH1 0x20 ADD ADD MLOAD DUP4 PUSH2 0x2422 JUMP JUMPDEST SWAP4 POP POP POP PUSH2 0x1945 JUMP JUMPDEST DUP1 MLOAD PUSH32 0xFFFFFFFF00000000000000000000000000000000000000000000000000000000 AND PUSH32 0xE6F9056100000000000000000000000000000000000000000000000000000000 EQ ISZERO PUSH2 0x1826 JUMPI DUP1 PUSH1 0x20 ADD MLOAD DUP1 PUSH1 0x20 ADD SWAP1 MLOAD DUP2 ADD SWAP1 PUSH2 0x181E SWAP2 SWAP1 PUSH2 0x309C JUMP JUMPDEST POP SWAP2 POP PUSH2 0x1945 JUMP JUMPDEST DUP1 MLOAD PUSH32 0xFFFFFFFF00000000000000000000000000000000000000000000000000000000 AND PUSH32 0x2E1A7D4D00000000000000000000000000000000000000000000000000000000 EQ ISZERO PUSH2 0x1879 JUMPI ADDRESS SWAP2 POP PUSH2 0x1945 JUMP JUMPDEST DUP1 MLOAD PUSH32 0xFFFFFFFF00000000000000000000000000000000000000000000000000000000 AND PUSH32 0x6259719200000000000000000000000000000000000000000000000000000000 EQ ISZERO PUSH2 0x1945 JUMPI ADDRESS PUSH20 0xFFFFFFFFFFFFFFFFFFFFFFFFFFFFFFFFFFFFFFFF AND PUSH4 0xF028E9BE PUSH1 0x40 MLOAD DUP2 PUSH4 0xFFFFFFFF AND PUSH1 0xE0 SHL DUP2 MSTORE PUSH1 0x4 ADD PUSH1 0x20 PUSH1 0x40 MLOAD DUP1 DUP4 SUB DUP2 DUP7 DUP1 EXTCODESIZE ISZERO DUP1 ISZERO PUSH2 0x190A JUMPI PUSH1 0x0 DUP1 REVERT JUMPDEST POP GAS STATICCALL ISZERO DUP1 ISZERO PUSH2 0x191E JUMPI RETURNDATASIZE PUSH1 0x0 DUP1 RETURNDATACOPY RETURNDATASIZE PUSH1 0x0 REVERT JUMPDEST POP POP POP POP PUSH1 0x40 MLOAD RETURNDATASIZE PUSH1 0x1F NOT PUSH1 0x1F DUP3 ADD AND DUP3 ADD DUP1 PUSH1 0x40 MSTORE POP DUP2 ADD SWAP1 PUSH2 0x1942 SWAP2 SWAP1 PUSH2 0x3486 JUMP JUMPDEST SWAP2 POP JUMPDEST POP JUMPDEST PUSH20 0xFFFFFFFFFFFFFFFFFFFFFFFFFFFFFFFFFFFFFFFF DUP2 AND PUSH2 0x155D JUMPI PUSH1 0x40 MLOAD PUSH32 0x8C379A000000000000000000000000000000000000000000000000000000000 DUP2 MSTORE PUSH1 0x4 ADD PUSH2 0x343 SWAP1 PUSH2 0x402B JUMP JUMPDEST PUSH20 0xFFFFFFFFFFFFFFFFFFFFFFFFFFFFFFFFFFFFFFFF DUP2 AND PUSH20 0xEEEEEEEEEEEEEEEEEEEEEEEEEEEEEEEEEEEEEEEE EQ SWAP2 SWAP1 POP JUMP JUMPDEST PUSH1 0x0 DUP2 DUP4 LT PUSH2 0x19D5 JUMPI DUP2 PUSH2 0x155A JUMP JUMPDEST POP SWAP1 SWAP2 SWAP1 POP JUMP JUMPDEST PUSH1 0x0 PUSH1 0x60 PUSH20 0xFFFFFFFFFFFFFFFFFFFFFFFFFFFFFFFFFFFFFFFF DUP7 AND ADDRESS EQ ISZERO PUSH2 0x1A30 JUMPI PUSH1 0x40 MLOAD PUSH32 0x8C379A000000000000000000000000000000000000000000000000000000000 DUP2 MSTORE PUSH1 0x4 ADD PUSH2 0x343 SWAP1 PUSH2 0x4259 JUMP JUMPDEST PUSH2 0x1A39 DUP7 PUSH2 0x27E4 JUMP JUMPDEST ISZERO PUSH2 0x1B0D JUMPI PUSH1 0x40 MLOAD PUSH32 0xDD62ED3E00000000000000000000000000000000000000000000000000000000 DUP2 MSTORE DUP4 SWAP1 PUSH20 0xFFFFFFFFFFFFFFFFFFFFFFFFFFFFFFFFFFFFFFFF DUP9 AND SWAP1 PUSH4 0xDD62ED3E SWAP1 PUSH2 0x1A94 SWAP1 DUP10 SWAP1 ADDRESS SWAP1 PUSH1 0x4 ADD PUSH2 0x39C6 JUMP JUMPDEST PUSH1 0x20 PUSH1 0x40 MLOAD DUP1 DUP4 SUB DUP2 DUP7 DUP1 EXTCODESIZE ISZERO DUP1 ISZERO PUSH2 0x1AAC JUMPI PUSH1 0x0 DUP1 REVERT JUMPDEST POP GAS STATICCALL ISZERO DUP1 ISZERO PUSH2 0x1AC0 JUMPI RETURNDATASIZE PUSH1 0x0 DUP1 RETURNDATACOPY RETURNDATASIZE PUSH1 0x0 REVERT JUMPDEST POP POP POP POP PUSH1 0x40 MLOAD RETURNDATASIZE PUSH1 0x1F NOT PUSH1 0x1F DUP3 ADD AND DUP3 ADD DUP1 PUSH1 0x40 MSTORE POP DUP2 ADD SWAP1 PUSH2 0x1AE4 SWAP2 SWAP1 PUSH2 0x37F6 JUMP JUMPDEST LT ISZERO PUSH2 0x1B0D JUMPI PUSH2 0x1B06 DUP7 DUP7 DUP7 DUP7 PUSH1 0x40 MLOAD DUP1 PUSH1 0x20 ADD PUSH1 0x40 MSTORE DUP1 PUSH1 0x0 DUP2 MSTORE POP PUSH2 0x2824 JUMP JUMPDEST POP POP PUSH2 0x1BDE JUMP JUMPDEST PUSH1 0x40 MLOAD PUSH32 0x23B872DD00000000000000000000000000000000000000000000000000000000 DUP2 MSTORE PUSH20 0xFFFFFFFFFFFFFFFFFFFFFFFFFFFFFFFFFFFFFFFF DUP7 AND PUSH1 0x4 DUP3 ADD MSTORE PUSH20 0xFFFFFFFFFFFFFFFFFFFFFFFFFFFFFFFFFFFFFFFF DUP6 AND PUSH1 0x24 DUP3 ADD MSTORE DUP4 PUSH1 0x44 DUP3 ADD MSTORE PUSH1 0x0 DUP1 PUSH1 0x64 DUP4 PUSH1 0x0 PUSH20 0xFFFFFFFFFFFFFFFFFFFFFFFFFFFFFFFFFFFFFFFF DUP13 AND GAS CALL SWAP3 POP RETURNDATASIZE DUP1 PUSH1 0x0 PUSH1 0x20 DUP5 ADD RETURNDATACOPY PUSH1 0x1 PUSH1 0x20 DUP4 ADD MLOAD EQ PUSH1 0x20 DUP3 LT ISZERO AND DUP2 ISZERO OR DUP5 AND SWAP4 POP DUP4 PUSH2 0x1BC7 JUMPI DUP1 DUP3 MSTORE DUP2 SWAP3 POP DUP1 PUSH1 0x20 DUP4 ADD ADD PUSH1 0x40 MSTORE JUMPDEST POP POP DUP2 PUSH2 0x1BDB JUMPI PUSH2 0x1BDB DUP7 DUP7 DUP7 DUP7 DUP6 PUSH2 0x2824 JUMP JUMPDEST POP POP JUMPDEST POP POP POP POP JUMP JUMPDEST PUSH1 0x0 CALLVALUE DUP2 DUP1 JUMPDEST DUP5 PUSH1 0x60 ADD MLOAD MLOAD DUP2 EQ PUSH2 0x241B JUMPI DUP5 PUSH1 0x40 ADD MLOAD DUP3 LT PUSH2 0x1C06 JUMPI PUSH2 0x241B JUMP JUMPDEST PUSH2 0x1C0E PUSH2 0x2CE5 JUMP JUMPDEST DUP6 PUSH1 0x60 ADD MLOAD DUP3 DUP2 MLOAD DUP2 LT PUSH2 0x1C1E JUMPI INVALID JUMPDEST PUSH1 0x20 MUL PUSH1 0x20 ADD ADD MLOAD SWAP1 POP PUSH1 0x0 PUSH2 0x1C4E DUP3 PUSH1 0x20 ADD MLOAD PUSH2 0x1C49 DUP7 DUP11 PUSH1 0x40 ADD MLOAD PUSH2 0x1563 SWAP1 SWAP2 SWAP1 PUSH4 0xFFFFFFFF AND JUMP JUMPDEST PUSH2 0x19C6 JUMP JUMPDEST DUP3 MLOAD SWAP1 SWAP2 POP PUSH32 0xFFFFFFFF00000000000000000000000000000000000000000000000000000000 AND PUSH32 0xA656186B00000000000000000000000000000000000000000000000000000000 EQ ISZERO PUSH2 0x1EDE JUMPI PUSH2 0x1CA4 PUSH2 0x2D04 JUMP JUMPDEST PUSH2 0x1CAC PUSH2 0x2D58 JUMP JUMPDEST DUP4 PUSH1 0x40 ADD MLOAD DUP1 PUSH1 0x20 ADD SWAP1 MLOAD DUP2 ADD SWAP1 PUSH2 0x1CC4 SWAP2 SWAP1 PUSH2 0x3692 JUMP JUMPDEST SWAP2 POP SWAP2 POP TIMESTAMP PUSH8 0xFFFFFFFFFFFFFFFF AND DUP3 PUSH2 0x100 ADD MLOAD PUSH8 0xFFFFFFFFFFFFFFFF AND GT PUSH2 0x1D4B JUMPI PUSH1 0x0 PUSH2 0x1CFB PUSH2 0x1CF6 DUP5 PUSH2 0x28EC JUMP JUMPDEST PUSH2 0x2A23 JUMP JUMPDEST SWAP1 POP PUSH32 0xD9EE00A67DAF7D99C37893015DC900862C9A02650EF2D318697E502E5FB8BBE2 DUP2 DUP5 PUSH1 0x80 ADD MLOAD DUP6 PUSH2 0x100 ADD MLOAD PUSH1 0x40 MLOAD PUSH2 0x1D39 SWAP4 SWAP3 SWAP2 SWAP1 PUSH2 0x3AB5 JUMP JUMPDEST PUSH1 0x40 MLOAD DUP1 SWAP2 SUB SWAP1 LOG1 POP POP POP POP POP PUSH2 0x2413 JUMP JUMPDEST DUP9 PUSH1 0x0 ADD MLOAD PUSH20 0xFFFFFFFFFFFFFFFFFFFFFFFFFFFFFFFFFFFFFFFF AND DUP3 PUSH1 0x20 ADD MLOAD PUSH20 0xFFFFFFFFFFFFFFFFFFFFFFFFFFFFFFFFFFFFFFFF AND EQ DUP1 ISZERO PUSH2 0x1DC1 JUMPI POP DUP9 PUSH1 0x20 ADD MLOAD PUSH20 0xFFFFFFFFFFFFFFFFFFFFFFFFFFFFFFFFFFFFFFFF AND DUP3 PUSH1 0x0 ADD MLOAD PUSH20 0xFFFFFFFFFFFFFFFFFFFFFFFFFFFFFFFFFFFFFFFF AND EQ JUMPDEST PUSH2 0x1DF7 JUMPI PUSH1 0x40 MLOAD PUSH32 0x8C379A000000000000000000000000000000000000000000000000000000000 DUP2 MSTORE PUSH1 0x4 ADD PUSH2 0x343 SWAP1 PUSH2 0x3DB1 JUMP JUMPDEST ADDRESS PUSH4 0xA656186B DUP4 DUP4 PUSH2 0x1E08 DUP8 PUSH2 0x2A75 JUMP JUMPDEST CALLER PUSH1 0x40 MLOAD DUP6 PUSH4 0xFFFFFFFF AND PUSH1 0xE0 SHL DUP2 MSTORE PUSH1 0x4 ADD PUSH2 0x1E28 SWAP5 SWAP4 SWAP3 SWAP2 SWAP1 PUSH2 0x4370 JUMP JUMPDEST PUSH1 0x40 DUP1 MLOAD DUP1 DUP4 SUB DUP2 PUSH1 0x0 DUP8 DUP1 EXTCODESIZE ISZERO DUP1 ISZERO PUSH2 0x1E41 JUMPI PUSH1 0x0 DUP1 REVERT JUMPDEST POP GAS CALL SWAP3 POP POP POP DUP1 ISZERO PUSH2 0x1E8F JUMPI POP PUSH1 0x40 DUP1 MLOAD PUSH1 0x1F RETURNDATASIZE SWAP1 DUP2 ADD PUSH32 0xFFFFFFFFFFFFFFFFFFFFFFFFFFFFFFFFFFFFFFFFFFFFFFFFFFFFFFFFFFFFFFE0 AND DUP3 ADD SWAP1 SWAP3 MSTORE PUSH2 0x1E8C SWAP2 DUP2 ADD SWAP1 PUSH2 0x37C8 JUMP JUMPDEST PUSH1 0x1 JUMPDEST PUSH2 0x1E98 JUMPI PUSH2 0x1ED7 JUMP JUMPDEST PUSH2 0x1EB4 DUP9 PUSH16 0xFFFFFFFFFFFFFFFFFFFFFFFFFFFFFFFF DUP5 AND PUSH2 0x2AA1 JUMP JUMPDEST SWAP8 POP PUSH2 0x1ED2 DUP11 PUSH16 0xFFFFFFFFFFFFFFFFFFFFFFFFFFFFFFFF DUP4 AND PUSH2 0x2AA1 JUMP JUMPDEST SWAP10 POP POP POP JUMPDEST POP POP PUSH2 0x2410 JUMP JUMPDEST DUP2 MLOAD PUSH32 0xFFFFFFFF00000000000000000000000000000000000000000000000000000000 AND PUSH32 0xD64D051A00000000000000000000000000000000000000000000000000000000 EQ ISZERO PUSH2 0x2058 JUMPI PUSH1 0x60 PUSH1 0x0 DUP4 PUSH1 0x40 ADD MLOAD DUP1 PUSH1 0x20 ADD SWAP1 MLOAD DUP2 ADD SWAP1 PUSH2 0x1F45 SWAP2 SWAP1 PUSH2 0x3213 JUMP JUMPDEST SWAP2 POP SWAP2 POP PUSH1 0x2 DUP3 MLOAD LT ISZERO DUP1 ISZERO PUSH2 0x1F9E JUMPI POP DUP9 PUSH1 0x0 ADD MLOAD PUSH20 0xFFFFFFFFFFFFFFFFFFFFFFFFFFFFFFFFFFFFFFFF AND DUP3 PUSH1 0x0 DUP2 MLOAD DUP2 LT PUSH2 0x1F7E JUMPI INVALID JUMPDEST PUSH1 0x20 MUL PUSH1 0x20 ADD ADD MLOAD PUSH20 0xFFFFFFFFFFFFFFFFFFFFFFFFFFFFFFFFFFFFFFFF AND EQ JUMPDEST DUP1 ISZERO PUSH2 0x1FF0 JUMPI POP DUP9 PUSH1 0x20 ADD MLOAD PUSH20 0xFFFFFFFFFFFFFFFFFFFFFFFFFFFFFFFFFFFFFFFF AND DUP3 PUSH1 0x1 DUP5 MLOAD SUB DUP2 MLOAD DUP2 LT PUSH2 0x1FD0 JUMPI INVALID JUMPDEST PUSH1 0x20 MUL PUSH1 0x20 ADD ADD MLOAD PUSH20 0xFFFFFFFFFFFFFFFFFFFFFFFFFFFFFFFFFFFFFFFF AND EQ JUMPDEST PUSH2 0x2026 JUMPI PUSH1 0x40 MLOAD PUSH32 0x8C379A000000000000000000000000000000000000000000000000000000000 DUP2 MSTORE PUSH1 0x4 ADD PUSH2 0x343 SWAP1 PUSH2 0x4142 JUMP JUMPDEST PUSH1 0x0 PUSH2 0x2036 DUP4 DUP6 DUP5 PUSH1 0x0 CALLER PUSH2 0xF54 JUMP JUMPDEST SWAP1 POP PUSH2 0x2042 DUP8 DUP6 PUSH2 0x2AA1 JUMP JUMPDEST SWAP7 POP PUSH2 0x204E DUP10 DUP3 PUSH2 0x2AA1 JUMP JUMPDEST SWAP9 POP POP POP POP PUSH2 0x2410 JUMP JUMPDEST DUP2 MLOAD PUSH32 0xFFFFFFFF00000000000000000000000000000000000000000000000000000000 AND PUSH32 0xE6F9056100000000000000000000000000000000000000000000000000000000 EQ ISZERO PUSH2 0x2131 JUMPI PUSH1 0x0 PUSH1 0x60 DUP4 PUSH1 0x40 ADD MLOAD DUP1 PUSH1 0x20 ADD SWAP1 MLOAD DUP2 ADD SWAP1 PUSH2 0x20BF SWAP2 SWAP1 PUSH2 0x309C JUMP JUMPDEST SWAP2 POP SWAP2 POP PUSH2 0x20E6 DUP10 PUSH1 0x0 ADD MLOAD PUSH20 0xFFFFFFFFFFFFFFFFFFFFFFFFFFFFFFFFFFFFFFFF AND PUSH2 0x1994 JUMP JUMPDEST ISZERO PUSH2 0x210B JUMPI PUSH2 0x20F5 DUP4 DUP9 PUSH2 0x19C6 JUMP JUMPDEST SWAP3 POP PUSH2 0x2101 DUP3 DUP5 PUSH2 0x1587 JUMP JUMPDEST DUP3 DUP8 SUB SWAP7 POP PUSH2 0x2119 JUMP JUMPDEST DUP9 MLOAD PUSH2 0x2119 SWAP1 CALLER DUP5 DUP7 PUSH2 0x19DC JUMP JUMPDEST PUSH1 0x0 PUSH2 0x2036 DUP11 PUSH1 0x0 ADD MLOAD DUP12 PUSH1 0x20 ADD MLOAD DUP7 DUP7 CALLER DUP8 PUSH2 0x11CE JUMP JUMPDEST DUP2 MLOAD PUSH32 0xFFFFFFFF00000000000000000000000000000000000000000000000000000000 AND PUSH32 0x6259719200000000000000000000000000000000000000000000000000000000 EQ ISZERO PUSH2 0x2314 JUMPI PUSH2 0x2184 PUSH2 0x2C6D JUMP JUMPDEST CALLER DUP2 MSTORE DUP8 MLOAD PUSH20 0xFFFFFFFFFFFFFFFFFFFFFFFFFFFFFFFFFFFFFFFF SWAP1 DUP2 AND PUSH1 0x20 DUP1 DUP5 ADD SWAP2 SWAP1 SWAP2 MSTORE DUP1 DUP11 ADD MLOAD SWAP1 SWAP2 AND PUSH1 0x40 DUP1 DUP5 ADD SWAP2 SWAP1 SWAP2 MSTORE PUSH1 0x60 DUP4 ADD DUP5 SWAP1 MSTORE PUSH1 0x0 PUSH1 0x80 DUP5 ADD DUP2 SWAP1 MSTORE SWAP1 DUP6 ADD MLOAD DUP1 MLOAD SWAP2 SWAP3 PUSH2 0x21E1 SWAP3 DUP3 ADD DUP2 ADD SWAP2 ADD PUSH2 0x32E2 JUMP JUMPDEST PUSH1 0xA0 DUP5 ADD SWAP2 SWAP1 SWAP2 MSTORE SWAP1 POP PUSH2 0x21F5 DUP2 DUP9 PUSH2 0x19C6 JUMP JUMPDEST SWAP1 POP DUP1 ISZERO PUSH2 0x2256 JUMPI PUSH2 0x2220 DUP3 PUSH1 0x20 ADD MLOAD PUSH20 0xFFFFFFFFFFFFFFFFFFFFFFFFFFFFFFFFFFFFFFFF AND PUSH2 0x1994 JUMP JUMPDEST PUSH2 0x2256 JUMPI PUSH1 0x40 MLOAD PUSH32 0x8C379A000000000000000000000000000000000000000000000000000000000 DUP2 MSTORE PUSH1 0x4 ADD PUSH2 0x343 SWAP1 PUSH2 0x3CF7 JUMP JUMPDEST PUSH1 0x40 MLOAD PUSH32 0x6259719200000000000000000000000000000000000000000000000000000000 DUP2 MSTORE ADDRESS SWAP1 PUSH4 0x62597192 SWAP1 DUP4 SWAP1 PUSH2 0x2294 SWAP1 DUP7 SWAP1 PUSH1 0x4 ADD PUSH2 0x444A JUMP JUMPDEST PUSH1 0x20 PUSH1 0x40 MLOAD DUP1 DUP4 SUB DUP2 DUP6 DUP9 DUP1 EXTCODESIZE ISZERO DUP1 ISZERO PUSH2 0x22AD JUMPI PUSH1 0x0 DUP1 REVERT JUMPDEST POP GAS CALL SWAP4 POP POP POP POP DUP1 ISZERO PUSH2 0x22FC JUMPI POP PUSH1 0x40 DUP1 MLOAD PUSH1 0x1F RETURNDATASIZE SWAP1 DUP2 ADD PUSH32 0xFFFFFFFFFFFFFFFFFFFFFFFFFFFFFFFFFFFFFFFFFFFFFFFFFFFFFFFFFFFFFFE0 AND DUP3 ADD SWAP1 SWAP3 MSTORE PUSH2 0x22F9 SWAP2 DUP2 ADD SWAP1 PUSH2 0x37F6 JUMP JUMPDEST PUSH1 0x1 JUMPDEST PUSH2 0x2305 JUMPI PUSH2 0x1ED7 JUMP JUMPDEST SWAP7 DUP2 SWAP1 SUB SWAP7 PUSH2 0x2042 DUP8 DUP6 PUSH2 0x2AA1 JUMP JUMPDEST DUP2 MLOAD PUSH32 0xFFFFFFFF00000000000000000000000000000000000000000000000000000000 AND PUSH32 0xA82B9F3A00000000000000000000000000000000000000000000000000000000 EQ ISZERO PUSH2 0x23DE JUMPI PUSH2 0x2367 PUSH2 0x2D81 JUMP JUMPDEST PUSH1 0x0 DUP4 PUSH1 0x40 ADD MLOAD DUP1 PUSH1 0x20 ADD SWAP1 MLOAD DUP2 ADD SWAP1 PUSH2 0x2381 SWAP2 SWAP1 PUSH2 0x30EB JUMP JUMPDEST PUSH1 0x40 DUP6 ADD SWAP2 SWAP1 SWAP2 MSTORE SWAP1 DUP4 MSTORE PUSH1 0x20 DUP4 ADD DUP5 SWAP1 MSTORE SWAP1 POP PUSH2 0x239F DUP2 DUP9 PUSH2 0x19C6 JUMP JUMPDEST SWAP1 POP DUP1 DUP8 SUB SWAP7 POP PUSH1 0x0 DUP1 PUSH2 0x23B3 DUP5 DUP5 PUSH2 0x456 JUMP JUMPDEST SWAP1 SWAP3 POP SWAP1 POP PUSH2 0x23C2 DUP9 DUP7 PUSH2 0x2AA1 JUMP JUMPDEST SWAP8 POP PUSH2 0x23CE DUP11 DUP4 PUSH2 0x2AA1 JUMP JUMPDEST SWAP10 POP DUP1 DUP10 ADD SWAP9 POP POP POP POP POP PUSH2 0x2410 JUMP JUMPDEST PUSH1 0x40 MLOAD PUSH32 0x8C379A000000000000000000000000000000000000000000000000000000000 DUP2 MSTORE PUSH1 0x4 ADD PUSH2 0x343 SWAP1 PUSH2 0x3D54 JUMP JUMPDEST POP POP JUMPDEST PUSH1 0x1 ADD PUSH2 0x1BEA JUMP JUMPDEST POP POP SWAP2 POP SWAP2 JUMP JUMPDEST PUSH1 0x0 DUP1 PUSH1 0x0 DUP5 PUSH20 0xFFFFFFFFFFFFFFFFFFFFFFFFFFFFFFFFFFFFFFFF AND DUP7 PUSH20 0xFFFFFFFFFFFFFFFFFFFFFFFFFFFFFFFFFFFFFFFF AND LT PUSH2 0x2461 JUMPI DUP5 DUP7 PUSH2 0x2464 JUMP JUMPDEST DUP6 DUP6 JUMPDEST SWAP2 POP SWAP2 POP DUP4 ISZERO PUSH2 0x2501 JUMPI PUSH20 0xC0AEE478E3658E2610C5F7A4A2E1777CE9E4F2AC DUP3 DUP3 PUSH1 0x40 MLOAD PUSH1 0x20 ADD PUSH2 0x2496 SWAP3 SWAP2 SWAP1 PUSH2 0x38CF JUMP JUMPDEST PUSH1 0x40 MLOAD PUSH1 0x20 DUP2 DUP4 SUB SUB DUP2 MSTORE SWAP1 PUSH1 0x40 MSTORE DUP1 MLOAD SWAP1 PUSH1 0x20 ADD KECCAK256 PUSH32 0xE18A34EB0E04B04F7A0AC29A6E80748DCA96319B42C54D679CB821DCA90C6303 PUSH1 0x40 MLOAD PUSH1 0x20 ADD PUSH2 0x24DF SWAP4 SWAP3 SWAP2 SWAP1 PUSH2 0x393F JUMP JUMPDEST PUSH1 0x40 MLOAD PUSH1 0x20 DUP2 DUP4 SUB SUB DUP2 MSTORE SWAP1 PUSH1 0x40 MSTORE DUP1 MLOAD SWAP1 PUSH1 0x20 ADD KECCAK256 PUSH1 0x0 SHR SWAP3 POP POP POP PUSH2 0x2572 JUMP JUMPDEST PUSH20 0x5C69BEE701EF814A2B6A3EDD4B1652CB9CC5AA6F DUP3 DUP3 PUSH1 0x40 MLOAD PUSH1 0x20 ADD PUSH2 0x2529 SWAP3 SWAP2 SWAP1 PUSH2 0x38CF JUMP JUMPDEST PUSH1 0x40 MLOAD PUSH1 0x20 DUP2 DUP4 SUB SUB DUP2 MSTORE SWAP1 PUSH1 0x40 MSTORE DUP1 MLOAD SWAP1 PUSH1 0x20 ADD KECCAK256 PUSH32 0x96E8AC4277198FF8B6F785478AA9A39F403CB768DD02CBEE326C3E7DA348845F PUSH1 0x40 MLOAD PUSH1 0x20 ADD PUSH2 0x24DF SWAP4 SWAP3 SWAP2 SWAP1 PUSH2 0x393F JUMP JUMPDEST SWAP4 SWAP3 POP POP POP JUMP JUMPDEST PUSH1 0x0 DUP1 DUP3 GT PUSH2 0x25B4 JUMPI PUSH1 0x40 MLOAD PUSH32 0x8C379A000000000000000000000000000000000000000000000000000000000 DUP2 MSTORE PUSH1 0x4 ADD PUSH2 0x343 SWAP1 PUSH2 0x3EEE JUMP JUMPDEST PUSH1 0x0 DUP1 DUP7 PUSH20 0xFFFFFFFFFFFFFFFFFFFFFFFFFFFFFFFFFFFFFFFF AND PUSH4 0x902F1AC PUSH1 0x40 MLOAD DUP2 PUSH4 0xFFFFFFFF AND PUSH1 0xE0 SHL DUP2 MSTORE PUSH1 0x4 ADD PUSH1 0x60 PUSH1 0x40 MLOAD DUP1 DUP4 SUB DUP2 DUP7 DUP1 EXTCODESIZE ISZERO DUP1 ISZERO PUSH2 0x25FD JUMPI PUSH1 0x0 DUP1 REVERT JUMPDEST POP GAS STATICCALL ISZERO DUP1 ISZERO PUSH2 0x2611 JUMPI RETURNDATASIZE PUSH1 0x0 DUP1 RETURNDATACOPY RETURNDATASIZE PUSH1 0x0 REVERT JUMPDEST POP POP POP POP PUSH1 0x40 MLOAD RETURNDATASIZE PUSH1 0x1F NOT PUSH1 0x1F DUP3 ADD AND DUP3 ADD DUP1 PUSH1 0x40 MSTORE POP DUP2 ADD SWAP1 PUSH2 0x2635 SWAP2 SWAP1 PUSH2 0x377C JUMP JUMPDEST POP PUSH14 0xFFFFFFFFFFFFFFFFFFFFFFFFFFFF AND SWAP2 POP PUSH14 0xFFFFFFFFFFFFFFFFFFFFFFFFFFFF AND SWAP2 POP PUSH1 0x0 DUP3 GT DUP1 ISZERO PUSH2 0x266A JUMPI POP PUSH1 0x0 DUP2 GT JUMPDEST PUSH2 0x26A0 JUMPI PUSH1 0x40 MLOAD PUSH32 0x8C379A000000000000000000000000000000000000000000000000000000000 DUP2 MSTORE PUSH1 0x4 ADD PUSH2 0x343 SWAP1 PUSH2 0x3E0E JUMP JUMPDEST PUSH1 0x0 DUP1 DUP7 PUSH20 0xFFFFFFFFFFFFFFFFFFFFFFFFFFFFFFFFFFFFFFFF AND DUP9 PUSH20 0xFFFFFFFFFFFFFFFFFFFFFFFFFFFFFFFFFFFFFFFF AND LT PUSH2 0x26DD JUMPI DUP3 DUP5 PUSH2 0x26E0 JUMP JUMPDEST DUP4 DUP4 JUMPDEST SWAP1 SWAP3 POP SWAP1 POP PUSH1 0x0 PUSH2 0x26F3 DUP8 PUSH2 0x3E5 PUSH2 0x2ABD JUMP JUMPDEST SWAP1 POP PUSH1 0x0 PUSH2 0x2701 DUP3 DUP5 PUSH2 0x2ABD JUMP JUMPDEST SWAP1 POP PUSH1 0x0 PUSH2 0x271B DUP4 PUSH2 0x2715 DUP8 PUSH2 0x3E8 PUSH2 0x2ABD JUMP JUMPDEST SWAP1 PUSH2 0x2AA1 JUMP JUMPDEST SWAP1 POP DUP1 DUP3 DUP2 PUSH2 0x2726 JUMPI INVALID JUMPDEST DIV SWAP13 SWAP12 POP POP POP POP POP POP POP POP POP POP POP POP JUMP JUMPDEST PUSH1 0x60 PUSH4 0xE946C1BB PUSH1 0xE0 SHL DUP5 DUP5 DUP5 PUSH1 0x40 MLOAD PUSH1 0x24 ADD PUSH2 0x2756 SWAP4 SWAP3 SWAP2 SWAP1 PUSH2 0x3BF2 JUMP JUMPDEST PUSH1 0x40 DUP1 MLOAD PUSH32 0xFFFFFFFFFFFFFFFFFFFFFFFFFFFFFFFFFFFFFFFFFFFFFFFFFFFFFFFFFFFFFFE0 DUP2 DUP5 SUB ADD DUP2 MSTORE SWAP2 SWAP1 MSTORE PUSH1 0x20 DUP2 ADD DUP1 MLOAD PUSH28 0xFFFFFFFFFFFFFFFFFFFFFFFFFFFFFFFFFFFFFFFFFFFFFFFFFFFFFFFF AND PUSH32 0xFFFFFFFF00000000000000000000000000000000000000000000000000000000 SWAP1 SWAP4 AND SWAP3 SWAP1 SWAP3 OR SWAP1 SWAP2 MSTORE SWAP1 POP SWAP4 SWAP3 POP POP POP JUMP JUMPDEST DUP1 MLOAD PUSH1 0x20 DUP3 ADD REVERT JUMPDEST PUSH1 0x0 DUP2 DUP2 MSTORE PUSH1 0x20 SWAP1 KECCAK256 PUSH1 0x1 PUSH1 0xFF SWAP3 DUP4 AND DUP2 SWAP1 SHL SWAP3 SWAP1 SWAP2 AND SHL OR PUSH32 0x0 DUP2 AND EQ SWAP1 JUMP JUMPDEST PUSH1 0x40 MLOAD PUSH32 0x89DD02E700000000000000000000000000000000000000000000000000000000 DUP2 MSTORE ADDRESS SWAP1 PUSH4 0x89DD02E7 SWAP1 PUSH2 0x2866 SWAP1 DUP9 SWAP1 DUP9 SWAP1 DUP9 SWAP1 DUP9 SWAP1 PUSH1 0x4 ADD PUSH2 0x3B60 JUMP JUMPDEST PUSH1 0x0 PUSH1 0x40 MLOAD DUP1 DUP4 SUB DUP2 PUSH1 0x0 DUP8 DUP1 EXTCODESIZE ISZERO DUP1 ISZERO PUSH2 0x2880 JUMPI PUSH1 0x0 DUP1 REVERT JUMPDEST POP GAS CALL SWAP3 POP POP POP DUP1 ISZERO PUSH2 0x2891 JUMPI POP PUSH1 0x1 JUMPDEST PUSH2 0x16BB JUMPI RETURNDATASIZE DUP1 DUP1 ISZERO PUSH2 0x28BF JUMPI PUSH1 0x40 MLOAD SWAP2 POP PUSH1 0x1F NOT PUSH1 0x3F RETURNDATASIZE ADD AND DUP3 ADD PUSH1 0x40 MSTORE RETURNDATASIZE DUP3 MSTORE RETURNDATASIZE PUSH1 0x0 PUSH1 0x20 DUP5 ADD RETURNDATACOPY PUSH2 0x28C4 JUMP JUMPDEST PUSH1 0x60 SWAP2 POP JUMPDEST POP PUSH2 0x28E6 PUSH2 0x157C DUP8 DUP8 DUP8 DUP8 DUP8 MLOAD PUSH1 0x0 EQ ISZERO PUSH2 0x28DF JUMPI DUP7 PUSH2 0x28E1 JUMP JUMPDEST DUP8 JUMPDEST PUSH2 0x2AEE JUMP JUMPDEST POP PUSH2 0x16BB JUMP JUMPDEST PUSH1 0x0 PUSH1 0x40 MLOAD PUSH32 0xE593D3FDFA8B60E5E17A1B2204662ECBE15C23F2084B9AD5BAE40359540A7DA9 DUP2 MSTORE DUP3 MLOAD PUSH20 0xFFFFFFFFFFFFFFFFFFFFFFFFFFFFFFFFFFFFFFFF AND PUSH1 0x20 DUP3 ADD MSTORE PUSH1 0x20 DUP4 ADD MLOAD PUSH20 0xFFFFFFFFFFFFFFFFFFFFFFFFFFFFFFFFFFFFFFFF AND PUSH1 0x40 DUP3 ADD MSTORE PUSH1 0x40 DUP4 ADD MLOAD PUSH16 0xFFFFFFFFFFFFFFFFFFFFFFFFFFFFFFFF AND PUSH1 0x60 DUP3 ADD MSTORE PUSH1 0x60 DUP4 ADD MLOAD PUSH16 0xFFFFFFFFFFFFFFFFFFFFFFFFFFFFFFFF AND PUSH1 0x80 DUP3 ADD MSTORE PUSH1 0x80 DUP4 ADD MLOAD PUSH20 0xFFFFFFFFFFFFFFFFFFFFFFFFFFFFFFFFFFFFFFFF AND PUSH1 0xA0 DUP3 ADD MSTORE PUSH1 0xA0 DUP4 ADD MLOAD PUSH20 0xFFFFFFFFFFFFFFFFFFFFFFFFFFFFFFFFFFFFFFFF AND PUSH1 0xC0 DUP3 ADD MSTORE PUSH1 0xC0 DUP4 ADD MLOAD PUSH20 0xFFFFFFFFFFFFFFFFFFFFFFFFFFFFFFFFFFFFFFFF AND PUSH1 0xE0 DUP3 ADD MSTORE PUSH1 0xE0 DUP4 ADD MLOAD PUSH2 0x100 DUP3 ADD MSTORE PUSH2 0x100 DUP4 ADD MLOAD PUSH8 0xFFFFFFFFFFFFFFFF AND PUSH2 0x120 DUP3 ADD MSTORE PUSH2 0x120 DUP4 ADD MLOAD PUSH2 0x140 DUP3 ADD MSTORE PUSH2 0x160 DUP2 KECCAK256 SWAP2 POP POP SWAP2 SWAP1 POP JUMP JUMPDEST PUSH1 0x0 PUSH32 0x0 DUP3 PUSH1 0x40 MLOAD PUSH1 0x20 ADD PUSH2 0x2A58 SWAP3 SWAP2 SWAP1 PUSH2 0x3909 JUMP JUMPDEST PUSH1 0x40 MLOAD PUSH1 0x20 DUP2 DUP4 SUB SUB DUP2 MSTORE SWAP1 PUSH1 0x40 MSTORE DUP1 MLOAD SWAP1 PUSH1 0x20 ADD KECCAK256 SWAP1 POP SWAP2 SWAP1 POP JUMP JUMPDEST PUSH1 0x0 PUSH16 0xFFFFFFFFFFFFFFFFFFFFFFFFFFFFFFFF DUP3 GT ISZERO PUSH2 0x2A9D JUMPI PUSH2 0x2A9D PUSH2 0x157C PUSH1 0x3 DUP5 PUSH2 0x2BB3 JUMP JUMPDEST POP SWAP1 JUMP JUMPDEST PUSH1 0x0 DUP3 DUP3 ADD DUP4 DUP2 LT ISZERO PUSH2 0x155A JUMPI PUSH2 0x155A PUSH2 0x157C PUSH1 0x0 DUP7 DUP7 PUSH2 0x2737 JUMP JUMPDEST PUSH1 0x0 DUP3 PUSH2 0x2ACC JUMPI POP PUSH1 0x0 PUSH2 0x155D JUMP JUMPDEST DUP3 DUP3 MUL DUP3 DUP5 DUP3 DUP2 PUSH2 0x2AD9 JUMPI INVALID JUMPDEST DIV EQ PUSH2 0x155A JUMPI PUSH2 0x155A PUSH2 0x157C PUSH1 0x1 DUP7 DUP7 PUSH2 0x2737 JUMP JUMPDEST PUSH1 0x60 PUSH32 0xDFDC6F57CF82BEDE92BCFDD44FEDB82B2D5CECABF56EC21964DB6EE2C3E82CF4 DUP7 DUP7 DUP7 DUP7 DUP7 PUSH1 0x40 MLOAD PUSH1 0x24 ADD PUSH2 0x2B2A SWAP6 SWAP5 SWAP4 SWAP3 SWAP2 SWAP1 PUSH2 0x39ED JUMP JUMPDEST PUSH1 0x40 DUP1 MLOAD PUSH32 0xFFFFFFFFFFFFFFFFFFFFFFFFFFFFFFFFFFFFFFFFFFFFFFFFFFFFFFFFFFFFFFE0 DUP2 DUP5 SUB ADD DUP2 MSTORE SWAP2 SWAP1 MSTORE PUSH1 0x20 DUP2 ADD DUP1 MLOAD PUSH28 0xFFFFFFFFFFFFFFFFFFFFFFFFFFFFFFFFFFFFFFFFFFFFFFFFFFFFFFFF AND PUSH32 0xFFFFFFFF00000000000000000000000000000000000000000000000000000000 SWAP1 SWAP4 AND SWAP3 SWAP1 SWAP3 OR SWAP1 SWAP2 MSTORE SWAP1 POP JUMPDEST SWAP6 SWAP5 POP POP POP POP POP JUMP JUMPDEST PUSH1 0x60 PUSH4 0xC996AF7B PUSH1 0xE0 SHL DUP4 DUP4 PUSH1 0x40 MLOAD PUSH1 0x24 ADD PUSH2 0x2BD0 SWAP3 SWAP2 SWAP1 PUSH2 0x3C13 JUMP JUMPDEST PUSH1 0x40 DUP1 MLOAD PUSH32 0xFFFFFFFFFFFFFFFFFFFFFFFFFFFFFFFFFFFFFFFFFFFFFFFFFFFFFFFFFFFFFFE0 DUP2 DUP5 SUB ADD DUP2 MSTORE SWAP2 SWAP1 MSTORE PUSH1 0x20 DUP2 ADD DUP1 MLOAD PUSH28 0xFFFFFFFFFFFFFFFFFFFFFFFFFFFFFFFFFFFFFFFFFFFFFFFFFFFFFFFF AND PUSH32 0xFFFFFFFF00000000000000000000000000000000000000000000000000000000 SWAP1 SWAP4 AND SWAP3 SWAP1 SWAP3 OR SWAP1 SWAP2 MSTORE SWAP1 POP SWAP3 SWAP2 POP POP JUMP JUMPDEST PUSH1 0x40 DUP1 MLOAD DUP1 DUP3 ADD SWAP1 SWAP2 MSTORE PUSH1 0x0 DUP2 MSTORE PUSH1 0x60 PUSH1 0x20 DUP3 ADD MSTORE SWAP1 JUMP JUMPDEST PUSH1 0x40 MLOAD DUP1 PUSH1 0xC0 ADD PUSH1 0x40 MSTORE DUP1 PUSH1 0x0 PUSH20 0xFFFFFFFFFFFFFFFFFFFFFFFFFFFFFFFFFFFFFFFF AND DUP2 MSTORE PUSH1 0x20 ADD PUSH1 0x0 PUSH20 0xFFFFFFFFFFFFFFFFFFFFFFFFFFFFFFFFFFFFFFFF AND DUP2 MSTORE PUSH1 0x20 ADD PUSH1 0x0 PUSH20 0xFFFFFFFFFFFFFFFFFFFFFFFFFFFFFFFFFFFFFFFF AND DUP2 MSTORE PUSH1 0x20 ADD PUSH1 0x0 DUP2 MSTORE PUSH1 0x20 ADD PUSH1 0x0 DUP2 MSTORE PUSH1 0x20 ADD PUSH1 0x60 DUP2 MSTORE POP SWAP1 JUMP JUMPDEST PUSH1 0x40 DUP1 MLOAD PUSH1 0x60 DUP1 DUP3 ADD DUP4 MSTORE PUSH1 0x0 DUP1 DUP4 MSTORE PUSH1 0x20 DUP4 ADD MSTORE SWAP2 DUP2 ADD SWAP2 SWAP1 SWAP2 MSTORE SWAP1 JUMP JUMPDEST PUSH1 0x40 DUP1 MLOAD PUSH2 0x140 DUP2 ADD DUP3 MSTORE PUSH1 0x0 DUP1 DUP3 MSTORE PUSH1 0x20 DUP3 ADD DUP2 SWAP1 MSTORE SWAP2 DUP2 ADD DUP3 SWAP1 MSTORE PUSH1 0x60 DUP2 ADD DUP3 SWAP1 MSTORE PUSH1 0x80 DUP2 ADD DUP3 SWAP1 MSTORE PUSH1 0xA0 DUP2 ADD DUP3 SWAP1 MSTORE PUSH1 0xC0 DUP2 ADD DUP3 SWAP1 MSTORE PUSH1 0xE0 DUP2 ADD DUP3 SWAP1 MSTORE PUSH2 0x100 DUP2 ADD DUP3 SWAP1 MSTORE PUSH2 0x120 DUP2 ADD SWAP2 SWAP1 SWAP2 MSTORE SWAP1 JUMP JUMPDEST PUSH1 0x40 DUP1 MLOAD PUSH1 0x80 DUP2 ADD SWAP1 SWAP2 MSTORE DUP1 PUSH1 0x0 DUP2 MSTORE PUSH1 0x0 PUSH1 0x20 DUP3 ADD DUP2 SWAP1 MSTORE PUSH1 0x40 DUP3 ADD DUP2 SWAP1 MSTORE PUSH1 0x60 SWAP1 SWAP2 ADD MSTORE SWAP1 JUMP JUMPDEST PUSH1 0x40 MLOAD DUP1 PUSH1 0x60 ADD PUSH1 0x40 MSTORE DUP1 PUSH1 0x60 DUP2 MSTORE PUSH1 0x20 ADD PUSH1 0x0 DUP2 MSTORE PUSH1 0x20 ADD PUSH1 0x60 DUP2 MSTORE POP SWAP1 JUMP JUMPDEST DUP1 MLOAD PUSH2 0x155D DUP2 PUSH2 0x4654 JUMP JUMPDEST PUSH1 0x0 DUP3 PUSH1 0x1F DUP4 ADD SLT PUSH2 0x2DBD JUMPI DUP1 DUP2 REVERT JUMPDEST DUP2 CALLDATALOAD PUSH2 0x2DD0 PUSH2 0x2DCB DUP3 PUSH2 0x45B9 JUMP JUMPDEST PUSH2 0x4592 JUMP JUMPDEST DUP2 DUP2 MSTORE SWAP2 POP PUSH1 0x20 DUP1 DUP4 ADD SWAP1 DUP5 DUP2 ADD DUP2 DUP5 MUL DUP7 ADD DUP3 ADD DUP8 LT ISZERO PUSH2 0x2DF1 JUMPI PUSH1 0x0 DUP1 REVERT JUMPDEST PUSH1 0x0 JUMPDEST DUP5 DUP2 LT ISZERO PUSH2 0x2E19 JUMPI DUP2 CALLDATALOAD PUSH2 0x2E07 DUP2 PUSH2 0x4654 JUMP JUMPDEST DUP5 MSTORE SWAP3 DUP3 ADD SWAP3 SWAP1 DUP3 ADD SWAP1 PUSH1 0x1 ADD PUSH2 0x2DF4 JUMP JUMPDEST POP POP POP POP POP SWAP3 SWAP2 POP POP JUMP JUMPDEST PUSH1 0x0 DUP3 PUSH1 0x1F DUP4 ADD SLT PUSH2 0x2E34 JUMPI DUP1 DUP2 REVERT JUMPDEST DUP2 MLOAD PUSH2 0x2E42 PUSH2 0x2DCB DUP3 PUSH2 0x45B9 JUMP JUMPDEST DUP2 DUP2 MSTORE SWAP2 POP PUSH1 0x20 DUP1 DUP4 ADD SWAP1 DUP5 DUP2 ADD DUP2 DUP5 MUL DUP7 ADD DUP3 ADD DUP8 LT ISZERO PUSH2 0x2E63 JUMPI PUSH1 0x0 DUP1 REVERT JUMPDEST PUSH1 0x0 JUMPDEST DUP5 DUP2 LT ISZERO PUSH2 0x2E19 JUMPI DUP2 MLOAD PUSH2 0x2E79 DUP2 PUSH2 0x4654 JUMP JUMPDEST DUP5 MSTORE SWAP3 DUP3 ADD SWAP3 SWAP1 DUP3 ADD SWAP1 PUSH1 0x1 ADD PUSH2 0x2E66 JUMP JUMPDEST PUSH1 0x0 DUP3 PUSH1 0x1F DUP4 ADD SLT PUSH2 0x2E9B JUMPI DUP1 DUP2 REVERT JUMPDEST DUP2 CALLDATALOAD PUSH2 0x2EA9 PUSH2 0x2DCB DUP3 PUSH2 0x45B9 JUMP JUMPDEST DUP2 DUP2 MSTORE SWAP2 POP PUSH1 0x20 DUP1 DUP4 ADD SWAP1 DUP5 DUP2 ADD PUSH1 0x0 JUMPDEST DUP5 DUP2 LT ISZERO PUSH2 0x2E19 JUMPI DUP2 CALLDATALOAD DUP8 ADD PUSH1 0x60 DUP1 PUSH32 0xFFFFFFFFFFFFFFFFFFFFFFFFFFFFFFFFFFFFFFFFFFFFFFFFFFFFFFFFFFFFFFE0 DUP4 DUP13 SUB ADD SLT ISZERO PUSH2 0x2EF9 JUMPI PUSH1 0x0 DUP1 REVERT JUMPDEST PUSH2 0x2F02 DUP2 PUSH2 0x4592 JUMP JUMPDEST DUP6 DUP4 ADD CALLDATALOAD PUSH2 0x2F0F DUP2 PUSH2 0x4684 JUMP JUMPDEST DUP2 MSTORE PUSH1 0x40 DUP4 DUP2 ADD CALLDATALOAD DUP8 DUP4 ADD MSTORE SWAP2 DUP4 ADD CALLDATALOAD SWAP2 PUSH8 0xFFFFFFFFFFFFFFFF DUP4 GT ISZERO PUSH2 0x2F35 JUMPI PUSH1 0x0 DUP1 REVERT JUMPDEST PUSH2 0x2F43 DUP13 DUP9 DUP6 DUP8 ADD ADD PUSH2 0x2F66 JUMP JUMPDEST SWAP1 DUP3 ADD MSTORE DUP7 MSTORE POP POP SWAP3 DUP3 ADD SWAP3 SWAP1 DUP3 ADD SWAP1 PUSH1 0x1 ADD PUSH2 0x2EBA JUMP JUMPDEST DUP1 MLOAD PUSH2 0x155D DUP2 PUSH2 0x4684 JUMP JUMPDEST PUSH1 0x0 DUP3 PUSH1 0x1F DUP4 ADD SLT PUSH2 0x2F76 JUMPI DUP1 DUP2 REVERT JUMPDEST DUP2 CALLDATALOAD PUSH2 0x2F84 PUSH2 0x2DCB DUP3 PUSH2 0x45D9 JUMP JUMPDEST SWAP2 POP DUP1 DUP3 MSTORE DUP4 PUSH1 0x20 DUP3 DUP6 ADD ADD GT ISZERO PUSH2 0x2F9B JUMPI PUSH1 0x0 DUP1 REVERT JUMPDEST DUP1 PUSH1 0x20 DUP5 ADD PUSH1 0x20 DUP5 ADD CALLDATACOPY PUSH1 0x0 SWAP1 DUP3 ADD PUSH1 0x20 ADD MSTORE SWAP3 SWAP2 POP POP JUMP JUMPDEST PUSH1 0x0 DUP3 PUSH1 0x1F DUP4 ADD SLT PUSH2 0x2FC4 JUMPI DUP1 DUP2 REVERT JUMPDEST DUP2 MLOAD PUSH2 0x2FD2 PUSH2 0x2DCB DUP3 PUSH2 0x45D9 JUMP JUMPDEST SWAP2 POP DUP1 DUP3 MSTORE DUP4 PUSH1 0x20 DUP3 DUP6 ADD ADD GT ISZERO PUSH2 0x2FE9 JUMPI PUSH1 0x0 DUP1 REVERT JUMPDEST PUSH2 0x2FFA DUP2 PUSH1 0x20 DUP5 ADD PUSH1 0x20 DUP7 ADD PUSH2 0x461B JUMP JUMPDEST POP SWAP3 SWAP2 POP POP JUMP JUMPDEST PUSH1 0x0 PUSH1 0x80 DUP3 DUP5 SUB SLT ISZERO PUSH2 0x3012 JUMPI DUP1 DUP2 REVERT JUMPDEST PUSH2 0x301C PUSH1 0x80 PUSH2 0x4592 JUMP JUMPDEST SWAP1 POP DUP2 MLOAD PUSH1 0x4 DUP2 LT PUSH2 0x302D JUMPI PUSH1 0x0 DUP1 REVERT JUMPDEST DUP2 MSTORE PUSH1 0x20 DUP3 ADD MLOAD PUSH1 0xFF DUP2 AND DUP2 EQ PUSH2 0x3043 JUMPI PUSH1 0x0 DUP1 REVERT JUMPDEST DUP1 PUSH1 0x20 DUP4 ADD MSTORE POP PUSH1 0x40 DUP3 ADD MLOAD PUSH1 0x40 DUP3 ADD MSTORE PUSH1 0x60 DUP3 ADD MLOAD PUSH1 0x60 DUP3 ADD MSTORE SWAP3 SWAP2 POP POP JUMP JUMPDEST DUP1 MLOAD PUSH16 0xFFFFFFFFFFFFFFFFFFFFFFFFFFFFFFFF DUP2 AND DUP2 EQ PUSH2 0x155D JUMPI PUSH1 0x0 DUP1 REVERT JUMPDEST DUP1 MLOAD PUSH8 0xFFFFFFFFFFFFFFFF DUP2 AND DUP2 EQ PUSH2 0x155D JUMPI PUSH1 0x0 DUP1 REVERT JUMPDEST PUSH1 0x0 DUP1 PUSH1 0x40 DUP4 DUP6 SUB SLT ISZERO PUSH2 0x30AE JUMPI DUP2 DUP3 REVERT JUMPDEST DUP3 MLOAD PUSH2 0x30B9 DUP2 PUSH2 0x4654 JUMP JUMPDEST PUSH1 0x20 DUP5 ADD MLOAD SWAP1 SWAP3 POP PUSH8 0xFFFFFFFFFFFFFFFF DUP2 GT ISZERO PUSH2 0x30D5 JUMPI DUP2 DUP3 REVERT JUMPDEST PUSH2 0x30E1 DUP6 DUP3 DUP7 ADD PUSH2 0x2FB4 JUMP JUMPDEST SWAP2 POP POP SWAP3 POP SWAP3 SWAP1 POP JUMP JUMPDEST PUSH1 0x0 DUP1 PUSH1 0x0 PUSH1 0x60 DUP5 DUP7 SUB SLT ISZERO PUSH2 0x30FF JUMPI DUP1 DUP2 REVERT JUMPDEST DUP4 MLOAD PUSH8 0xFFFFFFFFFFFFFFFF DUP1 DUP3 GT ISZERO PUSH2 0x3116 JUMPI DUP3 DUP4 REVERT JUMPDEST PUSH2 0x3122 DUP8 DUP4 DUP9 ADD PUSH2 0x2E24 JUMP JUMPDEST SWAP5 POP PUSH1 0x20 DUP7 ADD MLOAD SWAP2 POP DUP1 DUP3 GT ISZERO PUSH2 0x3137 JUMPI DUP3 DUP4 REVERT JUMPDEST DUP2 DUP7 ADD SWAP2 POP DUP7 PUSH1 0x1F DUP4 ADD SLT PUSH2 0x314A JUMPI DUP3 DUP4 REVERT JUMPDEST DUP2 MLOAD PUSH2 0x3158 PUSH2 0x2DCB DUP3 PUSH2 0x45B9 JUMP JUMPDEST DUP2 DUP2 MSTORE PUSH1 0x20 DUP1 DUP3 ADD SWAP2 SWAP1 DUP6 ADD DUP7 JUMPDEST DUP5 DUP2 LT ISZERO PUSH2 0x31FB JUMPI DUP2 MLOAD DUP8 ADD PUSH1 0x40 PUSH32 0xFFFFFFFFFFFFFFFFFFFFFFFFFFFFFFFFFFFFFFFFFFFFFFFFFFFFFFFFFFFFFFE0 DUP3 DUP16 SUB ADD SLT ISZERO PUSH2 0x31A3 JUMPI DUP9 DUP10 REVERT JUMPDEST PUSH2 0x31AD PUSH1 0x40 PUSH2 0x4592 JUMP JUMPDEST PUSH2 0x31BA DUP15 PUSH1 0x20 DUP5 ADD PUSH2 0x2F5B JUMP JUMPDEST DUP2 MSTORE PUSH1 0x40 DUP3 ADD MLOAD DUP9 DUP2 GT ISZERO PUSH2 0x31CD JUMPI DUP11 DUP12 REVERT JUMPDEST PUSH2 0x31DC DUP16 PUSH1 0x20 DUP4 DUP7 ADD ADD PUSH2 0x2FB4 JUMP JUMPDEST PUSH1 0x20 DUP4 DUP2 ADD SWAP2 SWAP1 SWAP2 MSTORE SWAP2 DUP8 MSTORE POP SWAP5 DUP6 ADD SWAP5 SWAP3 SWAP1 SWAP3 ADD SWAP2 POP PUSH1 0x1 ADD PUSH2 0x3166 JUMP JUMPDEST POP POP DUP1 SWAP7 POP POP POP POP POP POP PUSH1 0x40 DUP5 ADD MLOAD SWAP1 POP SWAP3 POP SWAP3 POP SWAP3 JUMP JUMPDEST PUSH1 0x0 DUP1 PUSH1 0x40 DUP4 DUP6 SUB SLT ISZERO PUSH2 0x3225 JUMPI DUP2 DUP3 REVERT JUMPDEST DUP3 MLOAD PUSH8 0xFFFFFFFFFFFFFFFF DUP2 GT ISZERO PUSH2 0x323B JUMPI DUP3 DUP4 REVERT JUMPDEST PUSH2 0x3247 DUP6 DUP3 DUP7 ADD PUSH2 0x2E24 JUMP JUMPDEST SWAP3 POP POP PUSH1 0x20 DUP4 ADD MLOAD PUSH2 0x3258 DUP2 PUSH2 0x4676 JUMP JUMPDEST DUP1 SWAP2 POP POP SWAP3 POP SWAP3 SWAP1 POP JUMP JUMPDEST PUSH1 0x0 DUP1 PUSH1 0x0 DUP1 PUSH1 0x0 PUSH1 0xA0 DUP7 DUP9 SUB SLT ISZERO PUSH2 0x327A JUMPI DUP3 DUP4 REVERT JUMPDEST DUP6 CALLDATALOAD PUSH8 0xFFFFFFFFFFFFFFFF DUP2 GT ISZERO PUSH2 0x3290 JUMPI DUP4 DUP5 REVERT JUMPDEST PUSH2 0x329C DUP9 DUP3 DUP10 ADD PUSH2 0x2DAD JUMP JUMPDEST SWAP6 POP POP PUSH1 0x20 DUP7 ADD CALLDATALOAD SWAP4 POP PUSH1 0x40 DUP7 ADD CALLDATALOAD PUSH2 0x32B4 DUP2 PUSH2 0x4676 JUMP JUMPDEST SWAP3 POP PUSH1 0x60 DUP7 ADD CALLDATALOAD PUSH2 0x32C4 DUP2 PUSH2 0x4654 JUMP JUMPDEST SWAP2 POP PUSH1 0x80 DUP7 ADD CALLDATALOAD PUSH2 0x32D4 DUP2 PUSH2 0x4654 JUMP JUMPDEST DUP1 SWAP2 POP POP SWAP3 SWAP6 POP SWAP3 SWAP6 SWAP1 SWAP4 POP JUMP JUMPDEST PUSH1 0x0 DUP1 PUSH1 0x40 DUP4 DUP6 SUB SLT ISZERO PUSH2 0x32F4 JUMPI DUP2 DUP3 REVERT JUMPDEST DUP3 MLOAD PUSH8 0xFFFFFFFFFFFFFFFF DUP1 DUP3 GT ISZERO PUSH2 0x330B JUMPI DUP4 DUP5 REVERT JUMPDEST DUP2 DUP6 ADD SWAP2 POP DUP6 PUSH1 0x1F DUP4 ADD SLT PUSH2 0x331E JUMPI DUP4 DUP5 REVERT JUMPDEST DUP2 MLOAD PUSH2 0x332C PUSH2 0x2DCB DUP3 PUSH2 0x45B9 JUMP JUMPDEST DUP2 DUP2 MSTORE PUSH1 0x20 DUP1 DUP3 ADD SWAP2 SWAP1 DUP6 DUP2 ADD DUP9 JUMPDEST DUP6 DUP2 LT ISZERO PUSH2 0x33C8 JUMPI DUP2 MLOAD DUP9 ADD PUSH1 0x40 PUSH32 0xFFFFFFFFFFFFFFFFFFFFFFFFFFFFFFFFFFFFFFFFFFFFFFFFFFFFFFFFFFFFFFE0 DUP3 DUP16 SUB ADD SLT ISZERO PUSH2 0x3378 JUMPI DUP11 DUP12 REVERT JUMPDEST PUSH2 0x3382 PUSH1 0x40 PUSH2 0x4592 JUMP JUMPDEST DUP5 DUP3 ADD MLOAD PUSH2 0x338F DUP2 PUSH2 0x46EC JUMP JUMPDEST DUP2 MSTORE PUSH1 0x40 DUP3 ADD MLOAD DUP10 DUP2 GT ISZERO PUSH2 0x33A2 JUMPI DUP13 DUP14 REVERT JUMPDEST PUSH2 0x33B0 DUP16 DUP8 DUP4 DUP7 ADD ADD PUSH2 0x2FB4 JUMP JUMPDEST DUP3 DUP8 ADD MSTORE POP DUP7 MSTORE POP SWAP4 DUP3 ADD SWAP4 SWAP1 DUP3 ADD SWAP1 PUSH1 0x1 ADD PUSH2 0x333B JUMP JUMPDEST POP POP SWAP8 SWAP1 SWAP8 ADD MLOAD SWAP7 SWAP9 SWAP7 SWAP8 POP POP POP POP POP POP POP JUMP JUMPDEST PUSH1 0x0 PUSH1 0x20 DUP3 DUP5 SUB SLT ISZERO PUSH2 0x33ED JUMPI DUP1 DUP2 REVERT JUMPDEST DUP2 MLOAD PUSH2 0x155A DUP2 PUSH2 0x4676 JUMP JUMPDEST PUSH1 0x0 DUP1 PUSH1 0x0 DUP1 PUSH1 0x0 DUP1 PUSH1 0xC0 DUP8 DUP10 SUB SLT ISZERO PUSH2 0x3410 JUMPI DUP4 DUP5 REVERT JUMPDEST DUP7 CALLDATALOAD PUSH2 0x341B DUP2 PUSH2 0x4654 JUMP JUMPDEST SWAP6 POP PUSH1 0x20 DUP8 ADD CALLDATALOAD PUSH2 0x342B DUP2 PUSH2 0x4654 JUMP JUMPDEST SWAP5 POP PUSH1 0x40 DUP8 ADD CALLDATALOAD SWAP4 POP PUSH1 0x60 DUP8 ADD CALLDATALOAD PUSH2 0x3442 DUP2 PUSH2 0x4654 JUMP JUMPDEST SWAP3 POP PUSH1 0x80 DUP8 ADD CALLDATALOAD PUSH2 0x3452 DUP2 PUSH2 0x4654 JUMP JUMPDEST SWAP2 POP PUSH1 0xA0 DUP8 ADD CALLDATALOAD PUSH8 0xFFFFFFFFFFFFFFFF DUP2 GT ISZERO PUSH2 0x346D JUMPI DUP2 DUP3 REVERT JUMPDEST PUSH2 0x3479 DUP10 DUP3 DUP11 ADD PUSH2 0x2F66 JUMP JUMPDEST SWAP2 POP POP SWAP3 SWAP6 POP SWAP3 SWAP6 POP SWAP3 SWAP6 JUMP JUMPDEST PUSH1 0x0 PUSH1 0x20 DUP3 DUP5 SUB SLT ISZERO PUSH2 0x3497 JUMPI DUP1 DUP2 REVERT JUMPDEST DUP2 MLOAD PUSH2 0x155A DUP2 PUSH2 0x4654 JUMP JUMPDEST PUSH1 0x0 DUP1 PUSH1 0x40 DUP4 DUP6 SUB SLT ISZERO PUSH2 0x34B4 JUMPI DUP2 DUP3 REVERT JUMPDEST DUP3 CALLDATALOAD PUSH8 0xFFFFFFFFFFFFFFFF DUP1 DUP3 GT ISZERO PUSH2 0x34CB JUMPI DUP4 DUP5 REVERT JUMPDEST SWAP1 DUP5 ADD SWAP1 PUSH1 0x80 DUP3 DUP8 SUB SLT ISZERO PUSH2 0x34DE JUMPI DUP4 DUP5 REVERT JUMPDEST PUSH2 0x34E8 PUSH1 0x80 PUSH2 0x4592 JUMP JUMPDEST DUP3 CALLDATALOAD PUSH2 0x34F3 DUP2 PUSH2 0x4654 JUMP JUMPDEST DUP2 MSTORE PUSH1 0x20 DUP4 ADD CALLDATALOAD PUSH2 0x3503 DUP2 PUSH2 0x4654 JUMP JUMPDEST PUSH1 0x20 DUP3 ADD MSTORE PUSH1 0x40 DUP4 DUP2 ADD CALLDATALOAD SWAP1 DUP3 ADD MSTORE PUSH1 0x60 DUP4 ADD CALLDATALOAD DUP3 DUP2 GT ISZERO PUSH2 0x3523 JUMPI DUP6 DUP7 REVERT JUMPDEST PUSH2 0x352F DUP9 DUP3 DUP7 ADD PUSH2 0x2E8B JUMP JUMPDEST PUSH1 0x60 DUP4 ADD MSTORE POP SWAP7 PUSH1 0x20 SWAP6 SWAP1 SWAP6 ADD CALLDATALOAD SWAP6 POP POP POP POP POP JUMP JUMPDEST PUSH1 0x0 DUP1 PUSH1 0x40 DUP4 DUP6 SUB SLT ISZERO PUSH2 0x3557 JUMPI DUP2 DUP3 REVERT JUMPDEST PUSH8 0xFFFFFFFFFFFFFFFF DUP1 DUP5 CALLDATALOAD GT ISZERO PUSH2 0x356D JUMPI DUP3 DUP4 REVERT JUMPDEST DUP4 CALLDATALOAD DUP5 ADD PUSH1 0x60 DUP2 DUP8 SUB SLT ISZERO PUSH2 0x3580 JUMPI DUP4 DUP5 REVERT JUMPDEST PUSH2 0x358A PUSH1 0x60 PUSH2 0x4592 JUMP JUMPDEST DUP3 DUP3 CALLDATALOAD GT ISZERO PUSH2 0x3597 JUMPI DUP5 DUP6 REVERT JUMPDEST PUSH2 0x35A4 DUP8 DUP4 CALLDATALOAD DUP5 ADD PUSH2 0x2DAD JUMP JUMPDEST DUP2 MSTORE PUSH1 0x20 DUP1 DUP4 ADD CALLDATALOAD DUP2 DUP4 ADD MSTORE PUSH1 0x40 DUP4 ADD CALLDATALOAD DUP5 DUP2 GT ISZERO PUSH2 0x35C1 JUMPI DUP7 DUP8 REVERT JUMPDEST DUP1 DUP5 ADD SWAP4 POP POP DUP8 PUSH1 0x1F DUP5 ADD SLT PUSH2 0x35D5 JUMPI DUP6 DUP7 REVERT JUMPDEST PUSH2 0x35E2 PUSH2 0x2DCB DUP5 CALLDATALOAD PUSH2 0x45B9 JUMP JUMPDEST DUP4 CALLDATALOAD DUP2 MSTORE DUP2 DUP2 ADD SWAP1 DUP3 DUP6 ADD DUP9 JUMPDEST DUP7 CALLDATALOAD DUP2 LT ISZERO PUSH2 0x367D JUMPI DUP2 CALLDATALOAD DUP8 ADD PUSH1 0x40 PUSH32 0xFFFFFFFFFFFFFFFFFFFFFFFFFFFFFFFFFFFFFFFFFFFFFFFFFFFFFFFFFFFFFFE0 DUP3 DUP16 SUB ADD SLT ISZERO PUSH2 0x362D JUMPI DUP11 DUP12 REVERT JUMPDEST PUSH2 0x3637 PUSH1 0x40 PUSH2 0x4592 JUMP JUMPDEST DUP7 DUP3 ADD CALLDATALOAD PUSH2 0x3644 DUP2 PUSH2 0x4684 JUMP JUMPDEST DUP2 MSTORE PUSH1 0x40 DUP3 ADD CALLDATALOAD DUP11 DUP2 GT ISZERO PUSH2 0x3657 JUMPI DUP13 DUP14 REVERT JUMPDEST PUSH2 0x3665 DUP16 DUP10 DUP4 DUP7 ADD ADD PUSH2 0x2F66 JUMP JUMPDEST DUP3 DUP10 ADD MSTORE POP DUP6 MSTORE POP SWAP3 DUP5 ADD SWAP3 SWAP1 DUP5 ADD SWAP1 PUSH1 0x1 ADD PUSH2 0x35EF JUMP JUMPDEST POP POP PUSH1 0x40 DUP5 ADD MSTORE POP SWAP1 SWAP8 SWAP6 ADD CALLDATALOAD SWAP6 POP POP POP POP POP JUMP JUMPDEST PUSH1 0x0 DUP1 DUP3 DUP5 SUB PUSH2 0x1C0 DUP2 SLT ISZERO PUSH2 0x36A6 JUMPI DUP3 DUP4 REVERT JUMPDEST PUSH2 0x140 DUP1 DUP3 SLT ISZERO PUSH2 0x36B5 JUMPI DUP4 DUP5 REVERT JUMPDEST PUSH2 0x36BE DUP2 PUSH2 0x4592 JUMP JUMPDEST SWAP2 POP PUSH2 0x36CA DUP7 DUP7 PUSH2 0x2DA2 JUMP JUMPDEST DUP3 MSTORE PUSH2 0x36D9 DUP7 PUSH1 0x20 DUP8 ADD PUSH2 0x2DA2 JUMP JUMPDEST PUSH1 0x20 DUP4 ADD MSTORE PUSH2 0x36EB DUP7 PUSH1 0x40 DUP8 ADD PUSH2 0x3064 JUMP JUMPDEST PUSH1 0x40 DUP4 ADD MSTORE PUSH2 0x36FD DUP7 PUSH1 0x60 DUP8 ADD PUSH2 0x3064 JUMP JUMPDEST PUSH1 0x60 DUP4 ADD MSTORE PUSH2 0x370F DUP7 PUSH1 0x80 DUP8 ADD PUSH2 0x2DA2 JUMP JUMPDEST PUSH1 0x80 DUP4 ADD MSTORE PUSH2 0x3721 DUP7 PUSH1 0xA0 DUP8 ADD PUSH2 0x2DA2 JUMP JUMPDEST PUSH1 0xA0 DUP4 ADD MSTORE PUSH2 0x3733 DUP7 PUSH1 0xC0 DUP8 ADD PUSH2 0x2DA2 JUMP JUMPDEST PUSH1 0xC0 DUP4 ADD MSTORE PUSH1 0xE0 DUP6 ADD MLOAD PUSH1 0xE0 DUP4 ADD MSTORE PUSH2 0x100 PUSH2 0x3751 DUP8 DUP3 DUP9 ADD PUSH2 0x3084 JUMP JUMPDEST DUP2 DUP5 ADD MSTORE POP PUSH2 0x120 DUP1 DUP7 ADD MLOAD DUP2 DUP5 ADD MSTORE POP DUP2 SWAP4 POP PUSH2 0x3771 DUP7 DUP3 DUP8 ADD PUSH2 0x3001 JUMP JUMPDEST SWAP3 POP POP POP SWAP3 POP SWAP3 SWAP1 POP JUMP JUMPDEST PUSH1 0x0 DUP1 PUSH1 0x0 PUSH1 0x60 DUP5 DUP7 SUB SLT ISZERO PUSH2 0x3790 JUMPI DUP1 DUP2 REVERT JUMPDEST DUP4 MLOAD PUSH2 0x379B DUP2 PUSH2 0x46B2 JUMP JUMPDEST PUSH1 0x20 DUP6 ADD MLOAD SWAP1 SWAP4 POP PUSH2 0x37AC DUP2 PUSH2 0x46B2 JUMP JUMPDEST PUSH1 0x40 DUP6 ADD MLOAD SWAP1 SWAP3 POP PUSH2 0x37BD DUP2 PUSH2 0x46EC JUMP JUMPDEST DUP1 SWAP2 POP POP SWAP3 POP SWAP3 POP SWAP3 JUMP JUMPDEST PUSH1 0x0 DUP1 PUSH1 0x40 DUP4 DUP6 SUB SLT ISZERO PUSH2 0x37DA JUMPI DUP2 DUP3 REVERT JUMPDEST DUP3 MLOAD PUSH2 0x37E5 DUP2 PUSH2 0x46CE JUMP JUMPDEST PUSH1 0x20 DUP5 ADD MLOAD SWAP1 SWAP3 POP PUSH2 0x3258 DUP2 PUSH2 0x46CE JUMP JUMPDEST PUSH1 0x0 PUSH1 0x20 DUP3 DUP5 SUB SLT ISZERO PUSH2 0x3807 JUMPI DUP1 DUP2 REVERT JUMPDEST POP MLOAD SWAP2 SWAP1 POP JUMP JUMPDEST PUSH20 0xFFFFFFFFFFFFFFFFFFFFFFFFFFFFFFFFFFFFFFFF AND SWAP1 MSTORE JUMP JUMPDEST PUSH1 0x0 DUP2 MLOAD DUP1 DUP5 MSTORE PUSH2 0x3840 DUP2 PUSH1 0x20 DUP7 ADD PUSH1 0x20 DUP7 ADD PUSH2 0x461B JUMP JUMPDEST PUSH1 0x1F ADD PUSH32 0xFFFFFFFFFFFFFFFFFFFFFFFFFFFFFFFFFFFFFFFFFFFFFFFFFFFFFFFFFFFFFFE0 AND SWAP3 SWAP1 SWAP3 ADD PUSH1 0x20 ADD SWAP3 SWAP2 POP POP JUMP JUMPDEST DUP1 MLOAD PUSH2 0x387D DUP2 PUSH2 0x4647 JUMP JUMPDEST DUP3 MSTORE PUSH1 0x20 DUP2 DUP2 ADD MLOAD PUSH1 0xFF AND SWAP1 DUP4 ADD MSTORE PUSH1 0x40 DUP1 DUP3 ADD MLOAD SWAP1 DUP4 ADD MSTORE PUSH1 0x60 SWAP1 DUP2 ADD MLOAD SWAP2 ADD MSTORE JUMP JUMPDEST PUSH16 0xFFFFFFFFFFFFFFFFFFFFFFFFFFFFFFFF AND SWAP1 MSTORE JUMP JUMPDEST PUSH4 0xFFFFFFFF AND SWAP1 MSTORE JUMP JUMPDEST PUSH8 0xFFFFFFFFFFFFFFFF AND SWAP1 MSTORE JUMP JUMPDEST PUSH32 0xFFFFFFFFFFFFFFFFFFFFFFFFFFFFFFFFFFFFFFFF000000000000000000000000 PUSH1 0x60 SWAP4 DUP5 SHL DUP2 AND DUP3 MSTORE SWAP2 SWAP1 SWAP3 SHL AND PUSH1 0x14 DUP3 ADD MSTORE PUSH1 0x28 ADD SWAP1 JUMP JUMPDEST PUSH32 0x1901000000000000000000000000000000000000000000000000000000000000 DUP2 MSTORE PUSH1 0x2 DUP2 ADD SWAP3 SWAP1 SWAP3 MSTORE PUSH1 0x22 DUP3 ADD MSTORE PUSH1 0x42 ADD SWAP1 JUMP JUMPDEST PUSH32 0xFF00000000000000000000000000000000000000000000000000000000000000 DUP2 MSTORE PUSH1 0x60 SWAP4 SWAP1 SWAP4 SHL PUSH32 0xFFFFFFFFFFFFFFFFFFFFFFFFFFFFFFFFFFFFFFFF000000000000000000000000 AND PUSH1 0x1 DUP5 ADD MSTORE PUSH1 0x15 DUP4 ADD SWAP2 SWAP1 SWAP2 MSTORE PUSH1 0x35 DUP3 ADD MSTORE PUSH1 0x55 ADD SWAP1 JUMP JUMPDEST SWAP1 JUMP JUMPDEST PUSH20 0xFFFFFFFFFFFFFFFFFFFFFFFFFFFFFFFFFFFFFFFF SWAP2 SWAP1 SWAP2 AND DUP2 MSTORE PUSH1 0x20 ADD SWAP1 JUMP JUMPDEST PUSH20 0xFFFFFFFFFFFFFFFFFFFFFFFFFFFFFFFFFFFFFFFF SWAP3 DUP4 AND DUP2 MSTORE SWAP2 AND PUSH1 0x20 DUP3 ADD MSTORE PUSH1 0x40 ADD SWAP1 JUMP JUMPDEST PUSH1 0x0 PUSH20 0xFFFFFFFFFFFFFFFFFFFFFFFFFFFFFFFFFFFFFFFF DUP1 DUP9 AND DUP4 MSTORE DUP1 DUP8 AND PUSH1 0x20 DUP5 ADD MSTORE DUP1 DUP7 AND PUSH1 0x40 DUP5 ADD MSTORE POP DUP4 PUSH1 0x60 DUP4 ADD MSTORE PUSH1 0xA0 PUSH1 0x80 DUP4 ADD MSTORE PUSH2 0x3A34 PUSH1 0xA0 DUP4 ADD DUP5 PUSH2 0x3828 JUMP JUMPDEST SWAP8 SWAP7 POP POP POP POP POP POP POP JUMP JUMPDEST PUSH20 0xFFFFFFFFFFFFFFFFFFFFFFFFFFFFFFFFFFFFFFFF SWAP7 DUP8 AND DUP2 MSTORE SWAP5 DUP7 AND PUSH1 0x20 DUP7 ADD MSTORE PUSH1 0x40 DUP6 ADD SWAP4 SWAP1 SWAP4 MSTORE PUSH1 0x60 DUP5 ADD SWAP2 SWAP1 SWAP2 MSTORE DUP4 AND PUSH1 0x80 DUP4 ADD MSTORE SWAP1 SWAP2 AND PUSH1 0xA0 DUP3 ADD MSTORE PUSH1 0xC0 ADD SWAP1 JUMP JUMPDEST PUSH20 0xFFFFFFFFFFFFFFFFFFFFFFFFFFFFFFFFFFFFFFFF SWAP3 SWAP1 SWAP3 AND DUP3 MSTORE PUSH1 0x20 DUP3 ADD MSTORE PUSH1 0x40 ADD SWAP1 JUMP JUMPDEST SWAP1 DUP2 MSTORE PUSH1 0x20 ADD SWAP1 JUMP JUMPDEST SWAP3 DUP4 MSTORE PUSH20 0xFFFFFFFFFFFFFFFFFFFFFFFFFFFFFFFFFFFFFFFF SWAP2 SWAP1 SWAP2 AND PUSH1 0x20 DUP4 ADD MSTORE PUSH8 0xFFFFFFFFFFFFFFFF AND PUSH1 0x40 DUP3 ADD MSTORE PUSH1 0x60 ADD SWAP1 JUMP JUMPDEST PUSH32 0xFFFFFFFF00000000000000000000000000000000000000000000000000000000 SWAP2 SWAP1 SWAP2 AND DUP2 MSTORE PUSH1 0x20 ADD SWAP1 JUMP JUMPDEST PUSH32 0xFFFFFFFF00000000000000000000000000000000000000000000000000000000 SWAP3 SWAP1 SWAP3 AND DUP3 MSTORE PUSH20 0xFFFFFFFFFFFFFFFFFFFFFFFFFFFFFFFFFFFFFFFF AND PUSH1 0x20 DUP3 ADD MSTORE PUSH1 0x40 ADD SWAP1 JUMP JUMPDEST PUSH20 0xFFFFFFFFFFFFFFFFFFFFFFFFFFFFFFFFFFFFFFFF SWAP5 DUP6 AND DUP2 MSTORE SWAP3 DUP5 AND PUSH1 0x20 DUP5 ADD MSTORE SWAP3 AND PUSH1 0x40 DUP3 ADD MSTORE PUSH1 0x60 DUP2 ADD SWAP2 SWAP1 SWAP2 MSTORE PUSH1 0x80 ADD SWAP1 JUMP JUMPDEST PUSH1 0x0 PUSH20 0xFFFFFFFFFFFFFFFFFFFFFFFFFFFFFFFFFFFFFFFF DUP1 DUP10 AND DUP4 MSTORE DUP1 DUP9 AND PUSH1 0x20 DUP5 ADD MSTORE DUP1 DUP8 AND PUSH1 0x40 DUP5 ADD MSTORE DUP1 DUP7 AND PUSH1 0x60 DUP5 ADD MSTORE POP DUP4 PUSH1 0x80 DUP4 ADD MSTORE PUSH1 0xC0 PUSH1 0xA0 DUP4 ADD MSTORE PUSH2 0x3BE6 PUSH1 0xC0 DUP4 ADD DUP5 PUSH2 0x3828 JUMP JUMPDEST SWAP9 SWAP8 POP POP POP POP POP POP POP POP JUMP JUMPDEST PUSH1 0x60 DUP2 ADD PUSH2 0x3BFF DUP6 PUSH2 0x4647 JUMP JUMPDEST SWAP4 DUP2 MSTORE PUSH1 0x20 DUP2 ADD SWAP3 SWAP1 SWAP3 MSTORE PUSH1 0x40 SWAP1 SWAP2 ADD MSTORE SWAP1 JUMP JUMPDEST PUSH1 0x40 DUP2 ADD PUSH2 0x3C20 DUP5 PUSH2 0x4647 JUMP JUMPDEST SWAP3 DUP2 MSTORE PUSH1 0x20 ADD MSTORE SWAP1 JUMP JUMPDEST PUSH1 0x0 PUSH1 0x20 DUP3 MSTORE PUSH2 0x155A PUSH1 0x20 DUP4 ADD DUP5 PUSH2 0x3828 JUMP JUMPDEST PUSH1 0x20 DUP1 DUP3 MSTORE PUSH1 0x2A SWAP1 DUP3 ADD MSTORE PUSH32 0x4D756C7469706C6578466561747572653A3A6D756C7469486F7046696C6C2F55 PUSH1 0x40 DUP3 ADD MSTORE PUSH32 0x4E444552424F5547485400000000000000000000000000000000000000000000 PUSH1 0x60 DUP3 ADD MSTORE PUSH1 0x80 ADD SWAP1 JUMP JUMPDEST PUSH1 0x20 DUP1 DUP3 MSTORE PUSH1 0x32 SWAP1 DUP3 ADD MSTORE PUSH32 0x4D756C7469706C6578466561747572653A3A5F6D756C7469486F7046696C6C2F PUSH1 0x40 DUP3 ADD MSTORE PUSH32 0x4554485F5452414E53464F524D5F4F4E4C590000000000000000000000000000 PUSH1 0x60 DUP3 ADD MSTORE PUSH1 0x80 ADD SWAP1 JUMP JUMPDEST PUSH1 0x20 DUP1 DUP3 MSTORE PUSH1 0x2F SWAP1 DUP3 ADD MSTORE PUSH32 0x4D756C7469706C6578466561747572653A3A5F626174636846696C6C2F455448 PUSH1 0x40 DUP3 ADD MSTORE PUSH32 0x5F5452414E53464F524D5F4F4E4C590000000000000000000000000000000000 PUSH1 0x60 DUP3 ADD MSTORE PUSH1 0x80 ADD SWAP1 JUMP JUMPDEST PUSH1 0x20 DUP1 DUP3 MSTORE PUSH1 0x32 SWAP1 DUP3 ADD MSTORE PUSH32 0x4D756C7469706C6578466561747572653A3A5F626174636846696C6C2F554E52 PUSH1 0x40 DUP3 ADD MSTORE PUSH32 0x45434F474E495A45445F53454C4543544F520000000000000000000000000000 PUSH1 0x60 DUP3 ADD MSTORE PUSH1 0x80 ADD SWAP1 JUMP JUMPDEST PUSH1 0x20 DUP1 DUP3 MSTORE PUSH1 0x35 SWAP1 DUP3 ADD MSTORE PUSH32 0x4D756C7469706C6578466561747572653A3A5F626174636846696C6C2F524651 PUSH1 0x40 DUP3 ADD MSTORE PUSH32 0x5F4F524445525F494E56414C49445F544F4B454E530000000000000000000000 PUSH1 0x60 DUP3 ADD MSTORE PUSH1 0x80 ADD SWAP1 JUMP JUMPDEST PUSH1 0x20 DUP1 DUP3 MSTORE PUSH1 0x44 SWAP1 DUP3 ADD MSTORE PUSH32 0x4D756C7469706C6578466561747572653A3A5F636F6D70757465556E69737761 PUSH1 0x40 DUP3 ADD MSTORE PUSH32 0x704F7574707574416D6F756E742F494E53554646494349454E545F4C49515549 PUSH1 0x60 DUP3 ADD MSTORE PUSH32 0x4449545900000000000000000000000000000000000000000000000000000000 PUSH1 0x80 DUP3 ADD MSTORE PUSH1 0xA0 ADD SWAP1 JUMP JUMPDEST PUSH1 0x20 DUP1 DUP3 MSTORE PUSH1 0x27 SWAP1 DUP3 ADD MSTORE PUSH32 0x4D756C7469706C6578466561747572653A3A626174636846696C6C2F554E4445 PUSH1 0x40 DUP3 ADD MSTORE PUSH32 0x52424F5547485400000000000000000000000000000000000000000000000000 PUSH1 0x60 DUP3 ADD MSTORE PUSH1 0x80 ADD SWAP1 JUMP JUMPDEST PUSH1 0x20 DUP1 DUP3 MSTORE PUSH1 0x47 SWAP1 DUP3 ADD MSTORE PUSH32 0x4D756C7469706C6578466561747572653A3A5F636F6D70757465556E69737761 PUSH1 0x40 DUP3 ADD MSTORE PUSH32 0x704F7574707574416D6F756E742F494E53554646494349454E545F494E505554 PUSH1 0x60 DUP3 ADD MSTORE PUSH32 0x5F414D4F554E5400000000000000000000000000000000000000000000000000 PUSH1 0x80 DUP3 ADD MSTORE PUSH1 0xA0 ADD SWAP1 JUMP JUMPDEST PUSH1 0x20 DUP1 DUP3 MSTORE PUSH1 0x35 SWAP1 DUP3 ADD MSTORE PUSH32 0x4D756C7469706C6578466561747572653A3A5F6D756C7469486F7046696C6C2F PUSH1 0x40 DUP3 ADD MSTORE PUSH32 0x554E5245434F474E495A45445F53454C4543544F520000000000000000000000 PUSH1 0x60 DUP3 ADD MSTORE PUSH1 0x80 ADD SWAP1 JUMP JUMPDEST PUSH1 0x20 DUP1 DUP3 MSTORE PUSH1 0x2C SWAP1 DUP3 ADD MSTORE PUSH32 0x4D756C7469706C6578466561747572653A3A6D756C7469486F7046696C6C2F4F PUSH1 0x40 DUP3 ADD MSTORE PUSH32 0x5645525350454E545F4554480000000000000000000000000000000000000000 PUSH1 0x60 DUP3 ADD MSTORE PUSH1 0x80 ADD SWAP1 JUMP JUMPDEST PUSH1 0x20 DUP1 DUP3 MSTORE PUSH1 0x38 SWAP1 DUP3 ADD MSTORE PUSH32 0x4D756C7469706C6578466561747572653A3A5F636F6D70757465486F70526563 PUSH1 0x40 DUP3 ADD MSTORE PUSH32 0x697069656E742F524543495049454E545F49535F4E554C4C0000000000000000 PUSH1 0x60 DUP3 ADD MSTORE PUSH1 0x80 ADD SWAP1 JUMP JUMPDEST PUSH1 0x20 DUP1 DUP3 MSTORE PUSH1 0x38 SWAP1 DUP3 ADD MSTORE PUSH32 0x4D756C7469706C6578466561747572653A3A5F6D756C7469486F7046696C6C2F PUSH1 0x40 DUP3 ADD MSTORE PUSH32 0x4D49534D4154434845445F41525241595F4C454E475448530000000000000000 PUSH1 0x60 DUP3 ADD MSTORE PUSH1 0x80 ADD SWAP1 JUMP JUMPDEST PUSH1 0x20 DUP1 DUP3 MSTORE PUSH1 0x2E SWAP1 DUP3 ADD MSTORE PUSH32 0x4D756C7469706C6578466561747572653A3A5F7472616E736665724574682F54 PUSH1 0x40 DUP3 ADD MSTORE PUSH32 0x52414E534645525F46414C494544000000000000000000000000000000000000 PUSH1 0x60 DUP3 ADD MSTORE PUSH1 0x80 ADD SWAP1 JUMP JUMPDEST PUSH1 0x20 DUP1 DUP3 MSTORE PUSH1 0x33 SWAP1 DUP3 ADD MSTORE PUSH32 0x4D756C7469706C6578466561747572653A3A5F626174636846696C6C2F554E49 PUSH1 0x40 DUP3 ADD MSTORE PUSH32 0x535741505F494E56414C49445F544F4B454E5300000000000000000000000000 PUSH1 0x60 DUP3 ADD MSTORE PUSH1 0x80 ADD SWAP1 JUMP JUMPDEST PUSH1 0x20 DUP1 DUP3 MSTORE PUSH1 0x29 SWAP1 DUP3 ADD MSTORE PUSH32 0x4D756C7469706C6578466561747572653A3A626174636846696C6C2F4F564552 PUSH1 0x40 DUP3 ADD MSTORE PUSH32 0x5350454E545F4554480000000000000000000000000000000000000000000000 PUSH1 0x60 DUP3 ADD MSTORE PUSH1 0x80 ADD SWAP1 JUMP JUMPDEST PUSH1 0x20 DUP1 DUP3 MSTORE PUSH1 0x36 SWAP1 DUP3 ADD MSTORE PUSH32 0x4D756C7469706C6578466561747572653A3A5F6D756C7469486F7046696C6C2F PUSH1 0x40 DUP3 ADD MSTORE PUSH32 0x57495448445241575F4C4153545F484F505F4F4E4C5900000000000000000000 PUSH1 0x60 DUP3 ADD MSTORE PUSH1 0x80 ADD SWAP1 JUMP JUMPDEST PUSH1 0x20 DUP1 DUP3 MSTORE PUSH1 0x24 SWAP1 DUP3 ADD MSTORE PUSH32 0x466978696E546F6B656E5370656E6465722F43414E4E4F545F494E564F4B455F PUSH1 0x40 DUP3 ADD MSTORE PUSH32 0x53454C4600000000000000000000000000000000000000000000000000000000 PUSH1 0x60 DUP3 ADD MSTORE PUSH1 0x80 ADD SWAP1 JUMP JUMPDEST PUSH1 0x20 DUP1 DUP3 MSTORE PUSH1 0x34 SWAP1 DUP3 ADD MSTORE PUSH32 0x4D756C7469706C6578466561747572653A3A5F73656C6C546F556E6973776170 PUSH1 0x40 DUP3 ADD MSTORE PUSH32 0x2F496E76616C6964546F6B656E734C656E677468000000000000000000000000 PUSH1 0x60 DUP3 ADD MSTORE PUSH1 0x80 ADD SWAP1 JUMP JUMPDEST PUSH1 0x20 DUP1 DUP3 MSTORE PUSH1 0x36 SWAP1 DUP3 ADD MSTORE PUSH32 0x4D756C7469706C6578466561747572653A3A5F6D756C7469486F7046696C6C2F PUSH1 0x40 DUP3 ADD MSTORE PUSH32 0x4445504F5349545F46495253545F484F505F4F4E4C5900000000000000000000 PUSH1 0x60 DUP3 ADD MSTORE PUSH1 0x80 ADD SWAP1 JUMP JUMPDEST PUSH1 0x0 PUSH2 0x200 DUP3 ADD SWAP1 POP PUSH2 0x4384 DUP3 DUP8 MLOAD PUSH2 0x380E JUMP JUMPDEST PUSH1 0x20 DUP7 ADD MLOAD PUSH2 0x4396 PUSH1 0x20 DUP5 ADD DUP3 PUSH2 0x380E JUMP JUMPDEST POP PUSH1 0x40 DUP7 ADD MLOAD PUSH2 0x43A9 PUSH1 0x40 DUP5 ADD DUP3 PUSH2 0x38A1 JUMP JUMPDEST POP PUSH1 0x60 DUP7 ADD MLOAD PUSH2 0x43BC PUSH1 0x60 DUP5 ADD DUP3 PUSH2 0x38A1 JUMP JUMPDEST POP PUSH1 0x80 DUP7 ADD MLOAD PUSH2 0x43CF PUSH1 0x80 DUP5 ADD DUP3 PUSH2 0x380E JUMP JUMPDEST POP PUSH1 0xA0 DUP7 ADD MLOAD PUSH2 0x43E2 PUSH1 0xA0 DUP5 ADD DUP3 PUSH2 0x380E JUMP JUMPDEST POP PUSH1 0xC0 DUP7 ADD MLOAD PUSH2 0x43F5 PUSH1 0xC0 DUP5 ADD DUP3 PUSH2 0x380E JUMP JUMPDEST POP PUSH1 0xE0 DUP7 ADD MLOAD PUSH1 0xE0 DUP4 ADD MSTORE PUSH2 0x100 DUP1 DUP8 ADD MLOAD PUSH2 0x4413 DUP3 DUP6 ADD DUP3 PUSH2 0x38C1 JUMP JUMPDEST POP POP PUSH2 0x120 DUP7 DUP2 ADD MLOAD SWAP1 DUP4 ADD MSTORE PUSH2 0x442E PUSH2 0x140 DUP4 ADD DUP7 PUSH2 0x3872 JUMP JUMPDEST PUSH2 0x443C PUSH2 0x1C0 DUP4 ADD DUP6 PUSH2 0x38A1 JUMP JUMPDEST PUSH2 0x2BAA PUSH2 0x1E0 DUP4 ADD DUP5 PUSH2 0x380E JUMP JUMPDEST PUSH1 0x0 PUSH1 0x20 DUP1 DUP4 MSTORE PUSH1 0xE0 DUP4 ADD PUSH20 0xFFFFFFFFFFFFFFFFFFFFFFFFFFFFFFFFFFFFFFFF DUP1 DUP7 MLOAD AND DUP4 DUP7 ADD MSTORE DUP3 DUP7 ADD MLOAD PUSH1 0x40 DUP3 DUP3 AND DUP2 DUP9 ADD MSTORE DUP3 DUP2 DUP10 ADD MLOAD AND PUSH1 0x60 DUP9 ADD MSTORE PUSH1 0x60 DUP9 ADD MLOAD PUSH1 0x80 DUP9 ADD MSTORE PUSH1 0x80 DUP9 ADD MLOAD PUSH1 0xA0 DUP9 ADD MSTORE PUSH1 0xA0 DUP9 ADD MLOAD SWAP3 POP PUSH1 0xC0 DUP1 DUP9 ADD MSTORE DUP4 SWAP2 POP DUP3 MLOAD DUP1 DUP6 MSTORE PUSH2 0x100 SWAP5 POP DUP5 DUP9 ADD SWAP3 POP DUP5 DUP7 DUP3 MUL DUP10 ADD ADD SWAP5 POP DUP6 DUP5 ADD SWAP4 POP DUP7 JUMPDEST DUP2 DUP2 LT ISZERO PUSH2 0x4531 JUMPI PUSH32 0xFFFFFFFFFFFFFFFFFFFFFFFFFFFFFFFFFFFFFFFFFFFFFFFFFFFFFFFFFFFFFF00 DUP10 DUP8 SUB ADD DUP5 MSTORE DUP5 MLOAD PUSH2 0x4509 DUP8 DUP3 MLOAD PUSH2 0x38B7 JUMP JUMPDEST DUP8 ADD MLOAD DUP7 DUP9 ADD DUP5 SWAP1 MSTORE PUSH2 0x451E DUP8 DUP6 ADD DUP3 PUSH2 0x3828 JUMP JUMPDEST SWAP7 POP POP SWAP4 DUP7 ADD SWAP4 SWAP3 DUP7 ADD SWAP3 PUSH1 0x1 ADD PUSH2 0x44CD JUMP JUMPDEST POP SWAP4 SWAP9 SWAP8 POP POP POP POP POP POP POP POP JUMP JUMPDEST SWAP2 DUP3 MSTORE PUSH1 0x20 DUP3 ADD MSTORE PUSH1 0x40 ADD SWAP1 JUMP JUMPDEST PUSH1 0x0 DUP6 DUP3 MSTORE DUP5 PUSH1 0x20 DUP4 ADD MSTORE PUSH20 0xFFFFFFFFFFFFFFFFFFFFFFFFFFFFFFFFFFFFFFFF DUP5 AND PUSH1 0x40 DUP4 ADD MSTORE PUSH1 0x80 PUSH1 0x60 DUP4 ADD MSTORE PUSH2 0x4588 PUSH1 0x80 DUP4 ADD DUP5 PUSH2 0x3828 JUMP JUMPDEST SWAP7 SWAP6 POP POP POP POP POP POP JUMP JUMPDEST PUSH1 0x40 MLOAD DUP2 DUP2 ADD PUSH8 0xFFFFFFFFFFFFFFFF DUP2 GT DUP3 DUP3 LT OR ISZERO PUSH2 0x45B1 JUMPI PUSH1 0x0 DUP1 REVERT JUMPDEST PUSH1 0x40 MSTORE SWAP2 SWAP1 POP JUMP JUMPDEST PUSH1 0x0 PUSH8 0xFFFFFFFFFFFFFFFF DUP3 GT ISZERO PUSH2 0x45CF JUMPI DUP1 DUP2 REVERT JUMPDEST POP PUSH1 0x20 SWAP1 DUP2 MUL ADD SWAP1 JUMP JUMPDEST PUSH1 0x0 PUSH8 0xFFFFFFFFFFFFFFFF DUP3 GT ISZERO PUSH2 0x45EF JUMPI DUP1 DUP2 REVERT JUMPDEST POP PUSH1 0x1F ADD PUSH32 0xFFFFFFFFFFFFFFFFFFFFFFFFFFFFFFFFFFFFFFFFFFFFFFFFFFFFFFFFFFFFFFE0 AND PUSH1 0x20 ADD SWAP1 JUMP JUMPDEST PUSH1 0x0 JUMPDEST DUP4 DUP2 LT ISZERO PUSH2 0x4636 JUMPI DUP2 DUP2 ADD MLOAD DUP4 DUP3 ADD MSTORE PUSH1 0x20 ADD PUSH2 0x461E JUMP JUMPDEST DUP4 DUP2 GT ISZERO PUSH2 0x1BDE JUMPI POP POP PUSH1 0x0 SWAP2 ADD MSTORE JUMP JUMPDEST PUSH1 0x4 DUP2 LT PUSH2 0x4651 JUMPI INVALID JUMPDEST POP JUMP JUMPDEST PUSH20 0xFFFFFFFFFFFFFFFFFFFFFFFFFFFFFFFFFFFFFFFF DUP2 AND DUP2 EQ PUSH2 0x4651 JUMPI PUSH1 0x0 DUP1 REVERT JUMPDEST DUP1 ISZERO ISZERO DUP2 EQ PUSH2 0x4651 JUMPI PUSH1 0x0 DUP1 REVERT JUMPDEST PUSH32 0xFFFFFFFF00000000000000000000000000000000000000000000000000000000 DUP2 AND DUP2 EQ PUSH2 0x4651 JUMPI PUSH1 0x0 DUP1 REVERT JUMPDEST PUSH14 0xFFFFFFFFFFFFFFFFFFFFFFFFFFFF DUP2 AND DUP2 EQ PUSH2 0x4651 JUMPI PUSH1 0x0 DUP1 REVERT JUMPDEST PUSH16 0xFFFFFFFFFFFFFFFFFFFFFFFFFFFFFFFF DUP2 AND DUP2 EQ PUSH2 0x4651 JUMPI PUSH1 0x0 DUP1 REVERT JUMPDEST PUSH4 0xFFFFFFFF DUP2 AND DUP2 EQ PUSH2 0x4651 JUMPI PUSH1 0x0 DUP1 REVERT INVALID LOG2 PUSH5 0x6970667358 0x22 SLT KECCAK256 PUSH30 0xC5443CEC6E2AFE593B266A1796A2BD97301941CF3EF55D598406DE4E2A75 0xE4 PUSH5 0x736F6C6343 STOP MOD 0xC STOP CALLER "
            },
            "methodIdentifiers": {
                "EIP712_DOMAIN_SEPARATOR()": "dab400f3",
                "FEATURE_NAME()": "6ae4b4f7",
                "FEATURE_VERSION()": "031b905c",
                "GREEDY_TOKENS_BLOOM_FILTER()": "d925a56d",
                "_multiHopFill((address[],uint256,(bytes4,bytes)[]),uint256)": "a82b9f3a",
                "_sellToLiquidityProvider(address,address,uint256,address,address,bytes)": "e6f90561",
                "_sellToUniswap(address[],uint256,bool,address,address)": "d64d051a",
                "batchFill((address,address,uint256,(bytes4,uint256,bytes)[]),uint256)": "afc6728e",
                "migrate()": "8fd3ab80",
                "multiHopFill((address[],uint256,(bytes4,bytes)[]),uint256)": "21c184b6",
                "sandbox()": "1984916f"
            }
        }
    },
    "sourceTreeHashHex": "0x3550fc5e7b6d1608376afcabf52a6142c6d8e5ec33872cecb531f3a23d22135a",
    "compiler": {
        "name": "solc",
        "version": "0.6.12+commit.27d51765",
        "settings": {
            "remappings": [
                "@0x/contracts-erc20=/Users/michaelzhu/protocol/contracts/zero-ex/node_modules/@0x/contracts-erc20",
                "@0x/contracts-utils=/Users/michaelzhu/protocol/node_modules/@0x/contracts-utils"
            ],
            "optimizer": {
                "enabled": true,
                "runs": 1000000,
                "details": {
                    "yul": true,
                    "deduplicate": true,
                    "cse": true,
                    "constantOptimizer": true
                }
            },
            "outputSelection": {
                "*": {
                    "*": [
                        "abi",
                        "devdoc",
                        "evm.bytecode.object",
                        "evm.bytecode.sourceMap",
                        "evm.deployedBytecode.object",
                        "evm.deployedBytecode.sourceMap",
                        "evm.methodIdentifiers"
                    ]
                }
            },
            "evmVersion": "istanbul"
        }
    },
    "chains": {}
}